{
  "contractName": "GarbiFarmUniV3",
  "abi": [
    {
      "inputs": [
        {
          "internalType": "contract IGarbiMining",
          "name": "_miningMachine",
          "type": "address"
        },
        {
          "internalType": "contract IERC721",
          "name": "_want",
          "type": "address"
        },
        {
          "internalType": "address",
          "name": "_uniswapV3Pool",
          "type": "address"
        },
        {
          "internalType": "uint256",
          "name": "_pidOfMining",
          "type": "uint256"
        },
        {
          "internalType": "address",
          "name": "_positionManager",
          "type": "address"
        },
        {
          "internalType": "address",
          "name": "_token0",
          "type": "address"
        },
        {
          "internalType": "address",
          "name": "_token1",
          "type": "address"
        },
        {
          "internalType": "int24",
          "name": "_tickLower",
          "type": "int24"
        },
        {
          "internalType": "int24",
          "name": "_tickUpper",
          "type": "int24"
        }
      ],
      "stateMutability": "nonpayable",
      "type": "constructor"
    },
    {
      "anonymous": false,
      "inputs": [
        {
          "indexed": true,
          "internalType": "address",
          "name": "previousOwner",
          "type": "address"
        },
        {
          "indexed": true,
          "internalType": "address",
          "name": "newOwner",
          "type": "address"
        }
      ],
      "name": "OwnershipTransferred",
      "type": "event"
    },
    {
      "anonymous": false,
      "inputs": [
        {
          "indexed": false,
          "internalType": "address",
          "name": "_user",
          "type": "address"
        },
        {
          "indexed": false,
          "internalType": "uint256",
          "name": "tokenId",
          "type": "uint256"
        }
      ],
      "name": "onDeposit",
      "type": "event"
    },
    {
      "anonymous": false,
      "inputs": [
        {
          "indexed": false,
          "internalType": "address",
          "name": "_user",
          "type": "address"
        },
        {
          "indexed": false,
          "internalType": "uint256",
          "name": "tokenId",
          "type": "uint256"
        }
      ],
      "name": "onWithdraw",
      "type": "event"
    },
    {
      "inputs": [],
      "name": "miningMachine",
      "outputs": [
        {
          "internalType": "contract IGarbiMining",
          "name": "",
          "type": "address"
        }
      ],
      "stateMutability": "view",
      "type": "function",
      "constant": true
    },
    {
      "inputs": [],
      "name": "owner",
      "outputs": [
        {
          "internalType": "address",
          "name": "",
          "type": "address"
        }
      ],
      "stateMutability": "view",
      "type": "function",
      "constant": true
    },
    {
      "inputs": [],
      "name": "pidOfMining",
      "outputs": [
        {
          "internalType": "uint256",
          "name": "",
          "type": "uint256"
        }
      ],
      "stateMutability": "view",
      "type": "function",
      "constant": true
    },
    {
      "inputs": [],
      "name": "poolTickLower",
      "outputs": [
        {
          "internalType": "int24",
          "name": "",
          "type": "int24"
        }
      ],
      "stateMutability": "view",
      "type": "function",
      "constant": true
    },
    {
      "inputs": [],
      "name": "poolTickUpper",
      "outputs": [
        {
          "internalType": "int24",
          "name": "",
          "type": "int24"
        }
      ],
      "stateMutability": "view",
      "type": "function",
      "constant": true
    },
    {
      "inputs": [],
      "name": "poolToken0",
      "outputs": [
        {
          "internalType": "address",
          "name": "",
          "type": "address"
        }
      ],
      "stateMutability": "view",
      "type": "function",
      "constant": true
    },
    {
      "inputs": [],
      "name": "poolToken1",
      "outputs": [
        {
          "internalType": "address",
          "name": "",
          "type": "address"
        }
      ],
      "stateMutability": "view",
      "type": "function",
      "constant": true
    },
    {
      "inputs": [],
      "name": "positionManager",
      "outputs": [
        {
          "internalType": "contract INonfungiblePositionManager",
          "name": "",
          "type": "address"
        }
      ],
      "stateMutability": "view",
      "type": "function",
      "constant": true
    },
    {
      "inputs": [],
      "name": "renounceOwnership",
      "outputs": [],
      "stateMutability": "nonpayable",
      "type": "function"
    },
    {
      "inputs": [
        {
          "internalType": "address",
          "name": "",
          "type": "address"
        }
      ],
      "name": "shareOf",
      "outputs": [
        {
          "internalType": "uint256",
          "name": "",
          "type": "uint256"
        }
      ],
      "stateMutability": "view",
      "type": "function",
      "constant": true
    },
    {
      "inputs": [],
      "name": "totalShare",
      "outputs": [
        {
          "internalType": "uint256",
          "name": "",
          "type": "uint256"
        }
      ],
      "stateMutability": "view",
      "type": "function",
      "constant": true
    },
    {
      "inputs": [
        {
          "internalType": "address",
          "name": "newOwner",
          "type": "address"
        }
      ],
      "name": "transferOwnership",
      "outputs": [],
      "stateMutability": "nonpayable",
      "type": "function"
    },
    {
      "inputs": [],
      "name": "uniswapV3Pool",
      "outputs": [
        {
          "internalType": "contract IUniswapV3Pool",
          "name": "",
          "type": "address"
        }
      ],
      "stateMutability": "view",
      "type": "function",
      "constant": true
    },
    {
      "inputs": [
        {
          "internalType": "address",
          "name": "",
          "type": "address"
        }
      ],
      "name": "userInfoTokenId",
      "outputs": [
        {
          "internalType": "uint256",
          "name": "",
          "type": "uint256"
        }
      ],
      "stateMutability": "view",
      "type": "function",
      "constant": true
    },
    {
      "inputs": [],
      "name": "want",
      "outputs": [
        {
          "internalType": "contract IERC721",
          "name": "",
          "type": "address"
        }
      ],
      "stateMutability": "view",
      "type": "function",
      "constant": true
    },
    {
      "inputs": [
        {
          "internalType": "int24",
          "name": "newTickLower",
          "type": "int24"
        },
        {
          "internalType": "int24",
          "name": "newTickUpper",
          "type": "int24"
        }
      ],
      "name": "setPoolTicks",
      "outputs": [],
      "stateMutability": "nonpayable",
      "type": "function"
    },
    {
      "inputs": [
        {
          "internalType": "address",
          "name": "newAddress",
          "type": "address"
        }
      ],
      "name": "setUniswapV3Pool",
      "outputs": [],
      "stateMutability": "nonpayable",
      "type": "function"
    },
    {
      "inputs": [
        {
          "internalType": "address",
          "name": "newToken0",
          "type": "address"
        },
        {
          "internalType": "address",
          "name": "newToken1",
          "type": "address"
        }
      ],
      "name": "setTokens",
      "outputs": [],
      "stateMutability": "nonpayable",
      "type": "function"
    },
    {
      "inputs": [
        {
          "internalType": "address",
          "name": "newAddress",
          "type": "address"
        }
      ],
      "name": "setPositionManager",
      "outputs": [],
      "stateMutability": "nonpayable",
      "type": "function"
    },
    {
      "inputs": [
        {
          "internalType": "address",
          "name": "newAddress",
          "type": "address"
        }
      ],
      "name": "setMiningMachine",
      "outputs": [],
      "stateMutability": "nonpayable",
      "type": "function"
    },
    {
      "inputs": [
        {
          "internalType": "address",
          "name": "newAddress",
          "type": "address"
        }
      ],
      "name": "setWantToken",
      "outputs": [],
      "stateMutability": "nonpayable",
      "type": "function"
    },
    {
      "inputs": [
        {
          "internalType": "uint256",
          "name": "newPidOfMining",
          "type": "uint256"
        }
      ],
      "name": "setPidOfMining",
      "outputs": [],
      "stateMutability": "nonpayable",
      "type": "function"
    },
    {
      "inputs": [
        {
          "internalType": "address",
          "name": "",
          "type": "address"
        },
        {
          "internalType": "address",
          "name": "",
          "type": "address"
        },
        {
          "internalType": "uint256",
          "name": "",
          "type": "uint256"
        },
        {
          "internalType": "bytes",
          "name": "",
          "type": "bytes"
        }
      ],
      "name": "onERC721Received",
      "outputs": [
        {
          "internalType": "bytes4",
          "name": "",
          "type": "bytes4"
        }
      ],
      "stateMutability": "pure",
      "type": "function",
      "constant": true
    },
    {
      "inputs": [
        {
          "internalType": "uint256",
          "name": "tokenId",
          "type": "uint256"
        }
      ],
      "name": "deposit",
      "outputs": [],
      "stateMutability": "nonpayable",
      "type": "function"
    },
    {
      "inputs": [],
      "name": "withdraw",
      "outputs": [],
      "stateMutability": "nonpayable",
      "type": "function"
    },
    {
      "inputs": [
        {
          "internalType": "address",
          "name": "_user",
          "type": "address"
        }
      ],
      "name": "harvest",
      "outputs": [
        {
          "internalType": "uint256",
          "name": "_pendingVeGRB",
          "type": "uint256"
        }
      ],
      "stateMutability": "nonpayable",
      "type": "function"
    },
    {
      "inputs": [],
      "name": "isCurrentPriceInRange",
      "outputs": [
        {
          "internalType": "bool",
          "name": "",
          "type": "bool"
        }
      ],
      "stateMutability": "view",
      "type": "function",
      "constant": true
    },
    {
      "inputs": [
        {
          "internalType": "address",
          "name": "user",
          "type": "address"
        }
      ],
      "name": "getNFTTokensWithPair",
      "outputs": [
        {
          "internalType": "uint256[]",
          "name": "",
          "type": "uint256[]"
        }
      ],
      "stateMutability": "view",
      "type": "function",
      "constant": true
    },
    {
      "inputs": [
        {
          "internalType": "uint256",
          "name": "tokenId",
          "type": "uint256"
        }
      ],
      "name": "getNFTTokenInfo",
      "outputs": [
        {
          "internalType": "address",
          "name": "token0",
          "type": "address"
        },
        {
          "internalType": "address",
          "name": "token1",
          "type": "address"
        },
        {
          "internalType": "int24",
          "name": "tickLower",
          "type": "int24"
        },
        {
          "internalType": "int24",
          "name": "tickUpper",
          "type": "int24"
        },
        {
          "internalType": "uint256",
          "name": "token0Amount",
          "type": "uint256"
        },
        {
          "internalType": "uint256",
          "name": "token1Amount",
          "type": "uint256"
        },
        {
          "internalType": "bool",
          "name": "inPriceRange",
          "type": "bool"
        },
        {
          "internalType": "string",
          "name": "tokenURI",
          "type": "string"
        }
      ],
      "stateMutability": "view",
      "type": "function",
      "constant": true
    },
    {
      "inputs": [
        {
          "internalType": "address",
          "name": "_user",
          "type": "address"
        }
      ],
      "name": "getData",
      "outputs": [
        {
          "internalType": "uint256",
          "name": "miningSpeed_",
          "type": "uint256"
        },
        {
          "internalType": "uint256",
          "name": "totalMintPerDay_",
          "type": "uint256"
        },
        {
          "internalType": "uint256",
          "name": "userGRBPending_",
          "type": "uint256"
        },
        {
          "internalType": "uint256",
          "name": "tvl_",
          "type": "uint256"
        },
        {
          "internalType": "uint256",
          "name": "tokenId",
          "type": "uint256"
        },
        {
          "internalType": "uint256",
          "name": "totalBalance0",
          "type": "uint256"
        },
        {
          "internalType": "uint256",
          "name": "totalBalance1",
          "type": "uint256"
        },
        {
          "internalType": "uint160",
          "name": "currentPrice",
          "type": "uint160"
        }
      ],
      "stateMutability": "view",
      "type": "function",
      "constant": true
    }
  ],
  "bytecode": "0x60806040526000600a5534801561001557600080fd5b5060405162002a4838038062002a48833981810160405261012081101561003b57600080fd5b508051602082015160408301516060840151608085015160a086015160c087015160e08801516101009098015160016000908155979896979596949593949293919291610086610184565b600180546001600160a01b0319166001600160a01b038316908117909155604051919250906000907f8be0079c531659141344cd1fd0a4f28419497f9722a3daafe3b4186f6b6457e0908290a350600280546001600160a01b03199081166001600160a01b039a8b161782556008805482169b8b169b909b17909a5560068054600998909855600580548c16978b1697909717909655600380548b16958a1695909517909455600480548a169389169390931790925593909616939094169290921762ffffff60a01b1916600160a01b91840b62ffffff908116929092021762ffffff60b81b1916600160b81b9490930b1692909202179055610188565b3390565b6128b080620001986000396000f3fe608060405234801561001057600080fd5b50600436106101da5760003560e01c80635760f2e311610104578063a73bf6df116100a2578063e8b6824211610071578063e8b6824214610683578063f2fde38b146106a9578063f47a396f146106cf578063f55ebd2a146106d7576101da565b8063a73bf6df14610628578063b6b55f2514610630578063bce645db1461064d578063cbc7854e14610655576101da565b80637b1f62b1116100de5780637b1f62b1146105dc5780638760d841146105fb5780638da5cb5b146106035780639b1571371461060b576101da565b80635760f2e3146105a6578063715018a6146105cc578063791b98bc146105d4576101da565b806321e5e2c41161017c5780633ccfd60b1161014b5780633ccfd60b146105465780634452dfe11461054e5780634758af8a14610578578063536bcb4c14610580576101da565b806321e5e2c414610414578063347435bb1461043a57806338266b22146104b0578063393adedd14610520576101da565b8063150b7a02116101b8578063150b7a02146102ff5780631a28126b146103ac5780631f1fcd51146103c85780631ffd3dae146103ec576101da565b8063026c4207146101df5780630af99080146101f95780630e5c011e146102d9575b600080fd5b6101e76106df565b60408051918252519081900360200190f35b6102166004803603602081101561020f57600080fd5b50356106e5565b60405180896001600160a01b03168152602001886001600160a01b031681526020018760020b81526020018660020b8152602001858152602001848152602001831515815260200180602001828103825283818151815260200191508051906020019080838360005b8381101561029757818101518382015260200161027f565b50505050905090810190601f1680156102c45780820380516001836020036101000a031916815260200191505b50995050505050505050505060405180910390f35b6101e7600480360360208110156102ef57600080fd5b50356001600160a01b0316610a60565b61038f6004803603608081101561031557600080fd5b6001600160a01b0382358116926020810135909116916040820135919081019060808101606082013564010000000081111561035057600080fd5b82018360208201111561036257600080fd5b8035906020019184600183028401116401000000008311171561038457600080fd5b509092509050610b04565b604080516001600160e01b03199092168252519081900360200190f35b6103b4610b15565b604080519115158252519081900360200190f35b6103d0610c07565b604080516001600160a01b039092168252519081900360200190f35b6104126004803603602081101561040257600080fd5b50356001600160a01b0316610c16565b005b6101e76004803603602081101561042a57600080fd5b50356001600160a01b0316610ce7565b6104606004803603602081101561045057600080fd5b50356001600160a01b0316610cf9565b60408051602080825283518183015283519192839290830191858101910280838360005b8381101561049c578181015183820152602001610484565b505050509050019250505060405180910390f35b6104d6600480360360208110156104c657600080fd5b50356001600160a01b0316611015565b604080519889526020890197909752878701959095526060870193909352608086019190915260a085015260c08401526001600160a01b031660e083015251908190036101000190f35b6104126004803603602081101561053657600080fd5b50356001600160a01b0316611362565b610412611433565b6104126004803603604081101561056457600080fd5b508035600290810b9160200135900b611678565b6103d06117a9565b6101e76004803603602081101561059657600080fd5b50356001600160a01b03166117b8565b610412600480360360208110156105bc57600080fd5b50356001600160a01b03166117ca565b61041261189b565b6103d0611947565b6105e4611956565b6040805160029290920b8252519081900360200190f35b6105e4611966565b6103d0611976565b6104126004803603602081101561062157600080fd5b5035611985565b6103d06119ec565b6104126004803603602081101561064657600080fd5b50356119fb565b6103d0611f1f565b6104126004803603604081101561066b57600080fd5b506001600160a01b0381358116916020013516611f2e565b6104126004803603602081101561069957600080fd5b50356001600160a01b0316612058565b610412600480360360208110156106bf57600080fd5b50356001600160a01b0316612129565b6101e761222c565b6103d0612232565b600a5481565b600080600080600080600060606000600560009054906101000a90046001600160a01b03166001600160a01b03166399fbab888b6040518263ffffffff1660e01b8152600401808281526020019150506101806040518083038186803b15801561074e57600080fd5b505afa158015610762573d6000803e3d6000fd5b505050506040513d61018081101561077957600080fd5b81019080805190602001909291908051906020019092919080519060200190929190805190602001909291908051906020019092919080519060200190929190805190602001909291908051906020019092919080519060200190929190805190602001909291908051906020019092919080519060200190929190505050909192939495969798999a509091929394959697989950909192939495965090919250909150905050809550819a50829b50839c50849d5050505050506000600660009054906101000a90046001600160a01b03166001600160a01b0316633850c7bd6040518163ffffffff1660e01b815260040160e06040518083038186803b15801561088557600080fd5b505afa158015610899573d6000803e3d6000fd5b505050506040513d60e08110156108af57600080fd5b505190506108cf816108c08a612241565b6108c98a612241565b85612573565b600654919750955060009450600160a01b9004600290810b810b9089900b1280159061090e5750600654600160b81b9004600290810b810b9088900b13155b1561091857600193505b6005546040805163c87b56dd60e01b8152600481018e905290516001600160a01b039092169163c87b56dd91602480820192600092909190829003018186803b15801561096457600080fd5b505afa158015610978573d6000803e3d6000fd5b505050506040513d6000823e601f3d908101601f1916820160405260208110156109a157600080fd5b81019080805160405193929190846401000000008211156109c157600080fd5b9083019060208201858111156109d657600080fd5b82516401000000008111828201881017156109f057600080fd5b82525081516020918201929091019080838360005b83811015610a1d578181015183820152602001610a05565b50505050905090810190601f168015610a4a5780820380516001836020036101000a031916815260200191505b5060405250505092505050919395975091939597565b6000610a6a610b15565b15610afb5760085460095460408051630c7e663b60e11b815260048101929092526001600160a01b03858116602484015290519216916318fccc76916044808201926020929091908290030181600087803b158015610ac857600080fd5b505af1158015610adc573d6000803e3d6000fd5b505050506040513d6020811015610af257600080fd5b50519050610aff565b5060005b919050565b630a85bd0160e11b95945050505050565b600080600660009054906101000a90046001600160a01b03166001600160a01b0316633850c7bd6040518163ffffffff1660e01b815260040160e06040518083038186803b158015610b6657600080fd5b505afa158015610b7a573d6000803e3d6000fd5b505050506040513d60e0811015610b9057600080fd5b5051600654909150600090610bae90600160a01b900460020b612241565b600654909150600090610bca90600160b81b900460020b612241565b9050816001600160a01b0316836001600160a01b031610158015610bff5750806001600160a01b0316836001600160a01b0316105b935050505090565b6002546001600160a01b031681565b610c1e61260f565b6001600160a01b0316610c2f611976565b6001600160a01b031614610c78576040805162461bcd60e51b8152602060048201819052602482015260008051602061285b833981519152604482015290519081900360640190fd5b6001600160a01b038116610cc5576040805162461bcd60e51b815260206004820152600f60248201526e494e56414c49445f4144445245535360881b604482015290519081900360640190fd5b600880546001600160a01b0319166001600160a01b0392909216919091179055565b600b6020526000908152604090205481565b600554604080516370a0823160e01b81526001600160a01b038481166004830152915160609360009316916370a08231916024808301926020929190829003018186803b158015610d4957600080fd5b505afa158015610d5d573d6000803e3d6000fd5b505050506040513d6020811015610d7357600080fd5b5051905060608167ffffffffffffffff81118015610d9057600080fd5b50604051908082528060200260200182016040528015610dba578160200160208202803683370190505b5090506000805b83811015610f865760055460408051632f745c5960e01b81526001600160a01b0389811660048301526024820185905291516000939290921691632f745c5991604480820192602092909190829003018186803b158015610e2157600080fd5b505afa158015610e35573d6000803e3d6000fd5b505050506040513d6020811015610e4b57600080fd5b50516005546040805163133f757160e31b8152600481018490529051929350600092839283926001600160a01b03909116916399fbab889160248082019261018092909190829003018186803b158015610ea457600080fd5b505afa158015610eb8573d6000803e3d6000fd5b505050506040513d610180811015610ecf57600080fd5b506040810151606082015160e0909201516003549195509193509091506001600160a01b038085169116148015610f1357506004546001600160a01b038381169116145b80610f4357506004546001600160a01b038481169116148015610f4357506003546001600160a01b038381169116145b15610f76576001600160801b03811615610f765783878781518110610f6457fe5b60209081029190910101526001909501945b505060019092019150610dc19050565b5060608167ffffffffffffffff81118015610fa057600080fd5b50604051908082528060200260200182016040528015610fca578160200160208202803683370190505b50905060005b8281101561100b57838181518110610fe457fe5b6020026020010151828281518110610ff857fe5b6020908102919091010152600101610fd0565b5095945050505050565b600080600080600080600080611029610b15565b156111b45760085460095460408051631069f3b560e01b815260048101929092526001600160a01b038c811660248401529051921691631069f3b591604480820192606092909190829003018186803b15801561108557600080fd5b505afa158015611099573d6000803e3d6000fd5b505050506040513d60608110156110af57600080fd5b505160085460095460408051635e86cd9560e01b81526004810192909252519298506001600160a01b0390911691635e86cd9591602480820192602092909190829003018186803b15801561110357600080fd5b505afa158015611117573d6000803e3d6000fd5b505050506040513d602081101561112d57600080fd5b5051600854600954604080516324aa7cc560e11b81526004810192909252519299506001600160a01b0390911691634954f98a91602480820192602092909190829003018186803b15801561118157600080fd5b505afa158015611195573d6000803e3d6000fd5b505050506040513d60208110156111ab57600080fd5b505197506111c1565b6000955060009650600097505b600a546001600160a01b03808b166000908152600760209081526040918290205460035460065484516370a0823160e01b815290861660048201529351959a50909850909216926370a0823192602480840193919291829003018186803b15801561122b57600080fd5b505afa15801561123f573d6000803e3d6000fd5b505050506040513d602081101561125557600080fd5b505160048054600654604080516370a0823160e01b81526001600160a01b03928316948101949094525193965016916370a0823191602480820192602092909190829003018186803b1580156112aa57600080fd5b505afa1580156112be573d6000803e3d6000fd5b505050506040513d60208110156112d457600080fd5b505160065460408051633850c7bd60e01b815290519294506000926001600160a01b0390921691633850c7bd9160048082019260e092909190829003018186803b15801561132157600080fd5b505afa158015611335573d6000803e3d6000fd5b505050506040513d60e081101561134b57600080fd5b5051989a9799509597949693955091939092909150565b61136a61260f565b6001600160a01b031661137b611976565b6001600160a01b0316146113c4576040805162461bcd60e51b8152602060048201819052602482015260008051602061285b833981519152604482015290519081900360640190fd5b6001600160a01b038116611411576040805162461bcd60e51b815260206004820152600f60248201526e494e56414c49445f4144445245535360881b604482015290519081900360640190fd5b600280546001600160a01b0319166001600160a01b0392909216919091179055565b6002600054141561148b576040805162461bcd60e51b815260206004820152601f60248201527f5265656e7472616e637947756172643a207265656e7472616e742063616c6c00604482015290519081900360640190fd5b60026000908155338152600760205260409020546114f0576040805162461bcd60e51b815260206004820152601760248201527f4e4f5f544f4b454e5f49445f544f5f5749544844524157000000000000000000604482015290519081900360640190fd5b6114f933610a60565b50336000908152600b602052604081208054919055600a5461151b9082612613565b600a5533600081815260076020526040808220546002548251632142170760e11b8152306004820152602481019590955260448501829052915190936001600160a01b03909216926342842e0e926064808201939182900301818387803b15801561158557600080fd5b505af1158015611599573d6000803e3d6000fd5b50503360008181526007602090815260408083208390556008546009548251638fb4e1cd60e01b81526004810191909152602481019590955290516001600160a01b039091169550638fb4e1cd9450604480850194929391928390030190829087803b15801561160857600080fd5b505af115801561161c573d6000803e3d6000fd5b505050506040513d602081101561163257600080fd5b5050604080513381526020810183905281517fccad973dcd043c7d680389db4378bd6b9775db7124092e9e0422c9e46d7985dc929181900390910190a150506001600055565b61168061260f565b6001600160a01b0316611691611976565b6001600160a01b0316146116da576040805162461bcd60e51b8152602060048201819052602482015260008051602061285b833981519152604482015290519081900360640190fd5b60008260020b13611721576040805162461bcd60e51b815260206004820152600c60248201526b494e56414c49445f5449434b60a01b604482015290519081900360640190fd5b8160020b8160020b121561176b576040805162461bcd60e51b815260206004820152600c60248201526b494e56414c49445f5449434b60a01b604482015290519081900360640190fd5b60068054600292830b62ffffff908116600160b81b0262ffffff60b81b199590940b16600160a01b0262ffffff60a01b199091161792909216179055565b6004546001600160a01b031681565b60076020526000908152604090205481565b6117d261260f565b6001600160a01b03166117e3611976565b6001600160a01b03161461182c576040805162461bcd60e51b8152602060048201819052602482015260008051602061285b833981519152604482015290519081900360640190fd5b6001600160a01b038116611879576040805162461bcd60e51b815260206004820152600f60248201526e494e56414c49445f4144445245535360881b604482015290519081900360640190fd5b600580546001600160a01b0319166001600160a01b0392909216919091179055565b6118a361260f565b6001600160a01b03166118b4611976565b6001600160a01b0316146118fd576040805162461bcd60e51b8152602060048201819052602482015260008051602061285b833981519152604482015290519081900360640190fd5b6001546040516000916001600160a01b0316907f8be0079c531659141344cd1fd0a4f28419497f9722a3daafe3b4186f6b6457e0908390a3600180546001600160a01b0319169055565b6005546001600160a01b031681565b600654600160b81b900460020b81565b600654600160a01b900460020b81565b6001546001600160a01b031690565b61198d61260f565b6001600160a01b031661199e611976565b6001600160a01b0316146119e7576040805162461bcd60e51b8152602060048201819052602482015260008051602061285b833981519152604482015290519081900360640190fd5b600955565b6003546001600160a01b031681565b60026000541415611a53576040805162461bcd60e51b815260206004820152601f60248201527f5265656e7472616e637947756172643a207265656e7472616e742063616c6c00604482015290519081900360640190fd5b600260005580611a9a576040805162461bcd60e51b815260206004820152600d60248201526c1253959053125117d253941555609a1b604482015290519081900360640190fd5b600254604080516331a9108f60e11b815260048101849052905133926001600160a01b031691636352211e916024808301926020929190829003018186803b158015611ae557600080fd5b505afa158015611af9573d6000803e3d6000fd5b505050506040513d6020811015611b0f57600080fd5b50516001600160a01b031614611b5c576040805162461bcd60e51b815260206004820152600d60248201526c1253959053125117d253941555609a1b604482015290519081900360640190fd5b3360009081526007602052604090205415611bb7576040805162461bcd60e51b81526020600482015260166024820152751391515117d5d2551211149055d7d513d2d15397d25160521b604482015290519081900360640190fd5b6000806000806000600560009054906101000a90046001600160a01b03166001600160a01b03166399fbab88876040518263ffffffff1660e01b8152600401808281526020019150506101806040518083038186803b158015611c1957600080fd5b505afa158015611c2d573d6000803e3d6000fd5b505050506040513d610180811015611c4457600080fd5b506040810151606082015160a083015160c084015160e0909401516006549399509197509550919350909150600160a01b9004600290810b810b9084900b12801590611ca35750600654600160b81b9004600290810b810b9083900b13155b611cea576040805162461bcd60e51b8152602060048201526013602482015272494e56414c49445f50524943455f52414e474560681b604482015290519081900360640190fd5b6003546001600160a01b038681169116148015611d1457506004546001600160a01b038581169116145b80611d4457506003546001600160a01b038581169116148015611d4457506004546001600160a01b038681169116145b611d86576040805162461bcd60e51b815260206004820152600e60248201526d494e56414c49445f544f4b454e5360901b604482015290519081900360640190fd5b611d8f33610a60565b5060025460408051632142170760e11b81523360048201523060248201526044810189905290516001600160a01b03909216916342842e0e9160648082019260009290919082900301818387803b158015611de957600080fd5b505af1158015611dfd573d6000803e3d6000fd5b50503360009081526007602090815260408083208b9055600b9091529020546001600160801b0384169250611e33915082612670565b336000908152600b6020526040902055600a54611e509082612670565b600a5560085460095460408051638fb4e1cd60e01b81526004810192909252336024830152516001600160a01b0390921691638fb4e1cd916044808201926020929091908290030181600087803b158015611eaa57600080fd5b505af1158015611ebe573d6000803e3d6000fd5b505050506040513d6020811015611ed457600080fd5b5050604080513381526020810189905281517f2bf9518c65eff7d1f3ee4106bf0dc41267ccde0924dbfa4ab476ed5c0f45da98929181900390910190a1505060016000555050505050565b6008546001600160a01b031681565b611f3661260f565b6001600160a01b0316611f47611976565b6001600160a01b031614611f90576040805162461bcd60e51b8152602060048201819052602482015260008051602061285b833981519152604482015290519081900360640190fd5b6001600160a01b038216611fdd576040805162461bcd60e51b815260206004820152600f60248201526e494e56414c49445f4144445245535360881b604482015290519081900360640190fd5b6001600160a01b03811661202a576040805162461bcd60e51b815260206004820152600f60248201526e494e56414c49445f4144445245535360881b604482015290519081900360640190fd5b600380546001600160a01b039384166001600160a01b03199182161790915560048054929093169116179055565b61206061260f565b6001600160a01b0316612071611976565b6001600160a01b0316146120ba576040805162461bcd60e51b8152602060048201819052602482015260008051602061285b833981519152604482015290519081900360640190fd5b6001600160a01b038116612107576040805162461bcd60e51b815260206004820152600f60248201526e494e56414c49445f4144445245535360881b604482015290519081900360640190fd5b600680546001600160a01b0319166001600160a01b0392909216919091179055565b61213161260f565b6001600160a01b0316612142611976565b6001600160a01b03161461218b576040805162461bcd60e51b8152602060048201819052602482015260008051602061285b833981519152604482015290519081900360640190fd5b6001600160a01b0381166121d05760405162461bcd60e51b81526004018080602001828103825260268152602001806128356026913960400191505060405180910390fd5b6001546040516001600160a01b038084169216907f8be0079c531659141344cd1fd0a4f28419497f9722a3daafe3b4186f6b6457e090600090a3600180546001600160a01b0319166001600160a01b0392909216919091179055565b60095481565b6006546001600160a01b031681565b60008060008360020b12612258578260020b612260565b8260020b6000035b9050620d89e881111561229e576040805162461bcd60e51b81526020600482015260016024820152601560fa1b604482015290519081900360640190fd5b6000600182166122b257600160801b6122c4565b6ffffcb933bd6fad37aa2d162d1a5940015b70ffffffffffffffffffffffffffffffffff16905060028216156122f8576ffff97272373d413259a46990580e213a0260801c5b6004821615612317576ffff2e50f5f656932ef12357cf3c7fdcc0260801c5b6008821615612336576fffe5caca7e10e4e61c3624eaa0941cd00260801c5b6010821615612355576fffcb9843d60f6159c9db58835c9266440260801c5b6020821615612374576fff973b41fa98c081472e6896dfb254c00260801c5b6040821615612393576fff2ea16466c96a3843ec78b326b528610260801c5b60808216156123b2576ffe5dee046a99a2a811c461f1969c30530260801c5b6101008216156123d2576ffcbe86c7900a88aedcffc83b479aa3a40260801c5b6102008216156123f2576ff987a7253ac413176f2b074cf7815e540260801c5b610400821615612412576ff3392b0822b70005940c7a398e4b70f30260801c5b610800821615612432576fe7159475a2c29b7443b29c7fa6e889d90260801c5b611000821615612452576fd097f3bdfd2022b8845ad8f792aa58250260801c5b612000821615612472576fa9f746462d870fdf8a65dc1f90e061e50260801c5b614000821615612492576f70d869a156d2a1b890bb3df62baf32f70260801c5b6180008216156124b2576f31be135f97d08fd981231505542fcfa60260801c5b620100008216156124d3576f09aa508b5b7a84e1c677de54f3e99bc90260801c5b620200008216156124f3576e5d6af8dedb81196699c329225ee6040260801c5b62040000821615612512576d2216e584f5fa1ea926041bedfe980260801c5b6208000082161561252f576b048a170391f7dc42444e8fa20260801c5b60008460020b131561254a57806000198161254657fe5b0490505b64010000000081061561255e576001612561565b60005b60ff16602082901c0192505050919050565b600080836001600160a01b0316856001600160a01b03161115612594579293925b846001600160a01b0316866001600160a01b0316116125bf576125b88585856126d1565b9150612606565b836001600160a01b0316866001600160a01b031610156125f8576125e48685856126d1565b91506125f185878561273a565b9050612606565b61260385858561273a565b90505b94509492505050565b3390565b60008282111561266a576040805162461bcd60e51b815260206004820152601e60248201527f536166654d6174683a207375627472616374696f6e206f766572666c6f770000604482015290519081900360640190fd5b50900390565b6000828201838110156126ca576040805162461bcd60e51b815260206004820152601b60248201527f536166654d6174683a206164646974696f6e206f766572666c6f770000000000604482015290519081900360640190fd5b9392505050565b6000826001600160a01b0316846001600160a01b031611156126f1579192915b836001600160a01b031661272a606060ff16846001600160801b0316901b8686036001600160a01b0316866001600160a01b0316612785565b8161273157fe5b04949350505050565b6000826001600160a01b0316846001600160a01b0316111561275a579192915b61277d826001600160801b03168585036001600160a01b0316600160601b612785565b949350505050565b60008080600019858709868602925082811090839003039050806127bb57600084116127b057600080fd5b5082900490506126ca565b8084116127c757600080fd5b6000848688096000868103871696879004966002600389028118808a02820302808a02820302808a02820302808a02820302808a02820302808a0290910302918190038190046001018684119095039490940291909403929092049190911791909102915050939250505056fe4f776e61626c653a206e6577206f776e657220697320746865207a65726f20616464726573734f776e61626c653a2063616c6c6572206973206e6f7420746865206f776e6572a2646970667358221220723204f03f88e17f35652822affc766294f97e4279f6f54ebcf280f5dc17b89664736f6c63430007050033",
  "immutableReferences": {},
  "source": "// SPDX-License-Identifier: MIT\npragma solidity >=0.7.0;\n\nimport \"@openzeppelin/contracts/math/SafeMath.sol\";\nimport \"@openzeppelin/contracts/access/Ownable.sol\";\nimport \"@openzeppelin/contracts/token/ERC721/IERC721.sol\";\nimport \"@openzeppelin/contracts/token/ERC721/IERC721Receiver.sol\";\nimport \"@openzeppelin/contracts/utils/ReentrancyGuard.sol\";\nimport \"@openzeppelin/contracts/token/ERC20/IERC20.sol\";\nimport \"@uniswap/v3-periphery/contracts/interfaces/INonfungiblePositionManager.sol\";\nimport \"@uniswap/v3-core/contracts/interfaces/IUniswapV3Pool.sol\";\nimport \"@uniswap/v3-core/contracts/libraries/TickMath.sol\";\nimport \"@uniswap/v3-periphery/contracts/libraries/LiquidityAmounts.sol\";\n\nimport './interfaces/IGarbiMining.sol';\n\ncontract GarbiFarmUniV3 is IERC721Receiver, ReentrancyGuard, Ownable {\n    using SafeMath for uint256;\n    \n    IERC721 public want; // GRBWETH UNI V3 NFT\n\n    address public poolToken0; //GRB\n    address public poolToken1; //WETH\n\n    INonfungiblePositionManager public positionManager;\n\n    IUniswapV3Pool public uniswapV3Pool;\n\n    int24 public poolTickLower;\n    int24 public poolTickUpper;\n    \n    mapping(address => uint256) public userInfoTokenId;\n\n    IGarbiMining public miningMachine;\n\n    uint256 public pidOfMining;\n    uint256 public totalShare = 0;\n    mapping(address => uint256) public shareOf;\n\n    event onDeposit(address _user, uint256 tokenId);\n    event onWithdraw(address _user, uint256 tokenId);\n\n    constructor(\n        IGarbiMining _miningMachine,\n        IERC721 _want,\n        address _uniswapV3Pool,\n        uint256 _pidOfMining,\n        address _positionManager,\n        address _token0,\n        address _token1,\n        int24 _tickLower, \n        int24 _tickUpper\n        ) {\n        want = _want;\n        miningMachine = _miningMachine;\n        uniswapV3Pool = IUniswapV3Pool(_uniswapV3Pool);\n        pidOfMining = _pidOfMining;\n        positionManager = INonfungiblePositionManager(_positionManager);\n        poolToken0 = _token0;\n        poolToken1 = _token1;\n        poolTickLower = _tickLower;\n        poolTickUpper = _tickUpper;\n    }\n\n    function setPoolTicks(int24 newTickLower, int24 newTickUpper) public onlyOwner \n    {\n        require(newTickLower > 0, \"INVALID_TICK\");\n        require(newTickUpper >= newTickLower, \"INVALID_TICK\");\n        poolTickLower = newTickLower;\n        poolTickUpper = newTickUpper;\n    }\n\n    function setUniswapV3Pool(address newAddress) public onlyOwner \n    {\n        require(newAddress != address(0), \"INVALID_ADDRESS\");\n        uniswapV3Pool = IUniswapV3Pool(newAddress);\n    }\n\n    function setTokens(address newToken0, address newToken1) public onlyOwner \n    {\n        require(newToken0 != address(0), \"INVALID_ADDRESS\");\n        require(newToken1 != address(0), \"INVALID_ADDRESS\");\n        poolToken0 = newToken0;\n        poolToken1 = newToken1;\n    }\n\n    function setPositionManager(address newAddress) public onlyOwner \n    {\n        require(newAddress != address(0), \"INVALID_ADDRESS\");\n        positionManager = INonfungiblePositionManager(newAddress);\n    }\n\n    function setMiningMachine(address newAddress) public onlyOwner \n    {\n        require(newAddress != address(0), \"INVALID_ADDRESS\");\n        miningMachine = IGarbiMining(newAddress);\n    }\n\n    function setWantToken(address newAddress) public onlyOwner\n    {\n        require(newAddress != address(0), \"INVALID_ADDRESS\");\n        want = IERC721(newAddress);\n    }\n\n    function setPidOfMining(uint256 newPidOfMining) public onlyOwner \n    {\n        pidOfMining = newPidOfMining;\n    }\n\n    function onERC721Received(\n        address,\n        address,\n        uint256,\n        bytes calldata\n    ) external pure override returns (bytes4) {\n        // Return the expected value to indicate that the transfer was handled successfully.\n        return this.onERC721Received.selector;\n    }\n\n    function deposit(uint256 tokenId) external nonReentrant \n    {\n        require(tokenId > 0, 'INVALID_INPUT');\n        require(want.ownerOf(tokenId) == msg.sender, 'INVALID_INPUT');\n        require(userInfoTokenId[msg.sender] == 0, 'NEED_WITHDRAW_TOKEN_ID');\n        (, , address token0, address token1, , int24 tickLower , int24 tickUpper , uint128 liquidity, , , , ) = positionManager.positions(tokenId);\n        require(tickLower >= poolTickLower && tickUpper <= poolTickUpper, 'INVALID_PRICE_RANGE');\n        require((poolToken0 == token0 && poolToken1 == token1) || (poolToken0 == token1 && poolToken1 == token0), 'INVALID_TOKENS');\n\n        harvest(msg.sender);\n    \twant.safeTransferFrom(msg.sender, address(this), tokenId);\n        userInfoTokenId[msg.sender] = tokenId;\n        \n        uint256 wantAmt = liquidity;\n        shareOf[msg.sender] = shareOf[msg.sender].add(wantAmt);\n        totalShare = totalShare.add(wantAmt);\n        miningMachine.updateUser(pidOfMining, msg.sender);\n        emit onDeposit(msg.sender, tokenId);\n    }\n\n    function withdraw() external nonReentrant \n    {\n        require(userInfoTokenId[msg.sender] != 0, 'NO_TOKEN_ID_TO_WITHDRAW');\n        harvest(msg.sender);\n\n        uint256 _share = shareOf[msg.sender];\n        shareOf[msg.sender] = 0;\n        totalShare = totalShare.sub(_share);\n        \n        uint256 tokenId = userInfoTokenId[msg.sender];\n        want.safeTransferFrom(address(this), msg.sender, tokenId);\n        userInfoTokenId[msg.sender] = 0;\n\n        miningMachine.updateUser(pidOfMining, msg.sender);\n        emit onWithdraw(msg.sender, tokenId);\n    }\n\n    function harvest(address _user) public returns(uint256 _pendingVeGRB) {\n        if(isCurrentPriceInRange()) {\n            return miningMachine.harvest(pidOfMining, _user);\n        }\n        else {\n            return 0;\n        }\n    }\n\n    function isCurrentPriceInRange() public view returns (bool) {\n        // Get the current price (square root price) from the Uniswap v3 pool\n        (uint160 sqrtPriceX96, , , , , , ) = uniswapV3Pool.slot0();\n\n        // Convert the tickLower and tickUpper to their corresponding square root prices\n        uint160 sqrtPriceLowerX96 = TickMath.getSqrtRatioAtTick(poolTickLower);\n        uint160 sqrtPriceUpperX96 = TickMath.getSqrtRatioAtTick(poolTickUpper);\n\n        // Check if the current price is within the tick range\n        return sqrtPriceX96 >= sqrtPriceLowerX96 && sqrtPriceX96 < sqrtPriceUpperX96;\n    }\n\n    function getNFTTokensWithPair(address user) external view returns (uint256[] memory) {\n        uint256 tokenCount = positionManager.balanceOf(user);\n        uint256[] memory tokenIds = new uint256[](tokenCount);\n\n        uint256 validTokenCount = 0;\n        for (uint256 i = 0; i < tokenCount; i++) {\n            uint256 tokenId = positionManager.tokenOfOwnerByIndex(user, i);\n            (, , address nftToken0, address nftToken1, , , , uint128 liquidity, , , , ) = positionManager.positions(tokenId);\n            if ((nftToken0 == poolToken0 && nftToken1 == poolToken1) || (nftToken0 == poolToken1 && nftToken1 == poolToken0)) {\n                if(liquidity > 0) {\n                    tokenIds[validTokenCount] = tokenId;\n                    validTokenCount++;\n                }\n            }\n        }\n\n        uint256[] memory validTokenIds = new uint256[](validTokenCount);\n        for (uint256 i = 0; i < validTokenCount; i++) {\n            validTokenIds[i] = tokenIds[i];\n        }\n\n        return validTokenIds;\n    }\n\n    function getNFTTokenInfo(uint256 tokenId) external view returns(address token0, address token1, int24 tickLower, int24 tickUpper, uint256 token0Amount, uint256 token1Amount, bool inPriceRange, string memory tokenURI) {\n        uint128 liquidity;\n        (, , token0, token1, , tickLower , tickUpper , liquidity, , , , ) = positionManager.positions(tokenId);\n        // Get the current price (square root price) from the Uniswap v3 pool\n        (uint160 sqrtPriceX96, , , , , , ) = uniswapV3Pool.slot0();\n        // Fetch token amounts using liquidity value\n        (token0Amount, token1Amount) = LiquidityAmounts.getAmountsForLiquidity(\n            sqrtPriceX96,\n            TickMath.getSqrtRatioAtTick(tickLower),\n            TickMath.getSqrtRatioAtTick(tickUpper),\n            liquidity\n        );\n        inPriceRange = false;\n        if(tickLower >= poolTickLower && tickUpper <= poolTickUpper) {\n            inPriceRange = true;\n        }\n        tokenURI = positionManager.tokenURI(tokenId);\n    }\n\n    function getData(\n        address _user\n    ) \n    public \n    view\n    returns(\n        uint256 miningSpeed_,\n        uint256 totalMintPerDay_, \n        uint256 userGRBPending_, \n        uint256 tvl_,\n        uint256 tokenId,\n        uint256 totalBalance0,\n        uint256 totalBalance1,\n        uint160 currentPrice\n    ) {\n        if(isCurrentPriceInRange()) {\n            (userGRBPending_, , ) = miningMachine.getUserInfo(pidOfMining, _user);\n            totalMintPerDay_ = miningMachine.getTotalMintPerDayOf(pidOfMining);\n            miningSpeed_ = miningMachine.getMiningSpeedOf(pidOfMining);\n        }\n        else {\n            userGRBPending_ = 0;\n            totalMintPerDay_ = 0;\n            miningSpeed_ = 0;\n        }\n        \n        tvl_ = totalShare;\n        tokenId = userInfoTokenId[_user];\n        totalBalance0 = IERC20(poolToken0).balanceOf(address(uniswapV3Pool));\n        totalBalance1 = IERC20(poolToken1).balanceOf(address(uniswapV3Pool));\n        (uint160 sqrtPriceX96, , , , , , ) = uniswapV3Pool.slot0();\n        currentPrice = sqrtPriceX96;\n    } \n}",
  "sourcePath": "/Applications/projects/garbiprotocol.github.io/garbi_contractsv7/contracts/GarbiFarmUniV3.sol",
  "compiler": {
    "name": "solc",
    "version": "0.7.5+commit.eb77ed08.Emscripten.clang"
  },
  "schemaVersion": "3.4.13",
  "updatedAt": "2023-03-28T11:07:10.903Z",
  "networkType": "ethereum",
  "devdoc": {
    "kind": "dev",
    "methods": {
      "owner()": {
        "details": "Returns the address of the current owner."
      },
      "renounceOwnership()": {
        "details": "Leaves the contract without owner. It will not be possible to call `onlyOwner` functions anymore. Can only be called by the current owner. NOTE: Renouncing ownership will leave the contract without an owner, thereby removing any functionality that is only available to the owner."
      },
      "transferOwnership(address)": {
        "details": "Transfers ownership of the contract to a new account (`newOwner`). Can only be called by the current owner."
      }
    },
    "version": 1
  },
  "userdoc": {
    "kind": "user",
    "methods": {},
    "version": 1
  }
}