{
  "contractName": "GarbiFarmUniV3",
  "abi": [
    {
      "inputs": [
        {
          "internalType": "contract IGarbiMining",
          "name": "_miningMachine",
          "type": "address"
        },
        {
          "internalType": "contract IERC721",
          "name": "_want",
          "type": "address"
        },
        {
          "internalType": "address",
          "name": "_uniswapV3Pool",
          "type": "address"
        },
        {
          "internalType": "uint256",
          "name": "_pidOfMining",
          "type": "uint256"
        },
        {
          "internalType": "address",
          "name": "_positionManager",
          "type": "address"
        },
        {
          "internalType": "address",
          "name": "_token0",
          "type": "address"
        },
        {
          "internalType": "address",
          "name": "_token1",
          "type": "address"
        },
        {
          "internalType": "int24",
          "name": "_tickLower",
          "type": "int24"
        },
        {
          "internalType": "int24",
          "name": "_tickUpper",
          "type": "int24"
        }
      ],
      "stateMutability": "nonpayable",
      "type": "constructor"
    },
    {
      "anonymous": false,
      "inputs": [
        {
          "indexed": true,
          "internalType": "address",
          "name": "previousOwner",
          "type": "address"
        },
        {
          "indexed": true,
          "internalType": "address",
          "name": "newOwner",
          "type": "address"
        }
      ],
      "name": "OwnershipTransferred",
      "type": "event"
    },
    {
      "anonymous": false,
      "inputs": [
        {
          "indexed": false,
          "internalType": "string",
          "name": "_functionName",
          "type": "string"
        }
      ],
      "name": "onCancelTransactions",
      "type": "event"
    },
    {
      "anonymous": false,
      "inputs": [
        {
          "indexed": false,
          "internalType": "address",
          "name": "_user",
          "type": "address"
        },
        {
          "indexed": false,
          "internalType": "uint256",
          "name": "tokenId",
          "type": "uint256"
        }
      ],
      "name": "onDeposit",
      "type": "event"
    },
    {
      "anonymous": false,
      "inputs": [
        {
          "indexed": false,
          "internalType": "string",
          "name": "_functionName",
          "type": "string"
        },
        {
          "indexed": false,
          "internalType": "string",
          "name": "_fieldName",
          "type": "string"
        },
        {
          "indexed": false,
          "internalType": "address",
          "name": "_value",
          "type": "address"
        }
      ],
      "name": "onQueuedTransactionsChangeAddress",
      "type": "event"
    },
    {
      "anonymous": false,
      "inputs": [
        {
          "indexed": false,
          "internalType": "string",
          "name": "_functionName",
          "type": "string"
        },
        {
          "indexed": false,
          "internalType": "string",
          "name": "_fieldName",
          "type": "string"
        },
        {
          "indexed": false,
          "internalType": "uint256",
          "name": "_value",
          "type": "uint256"
        }
      ],
      "name": "onQueuedTransactionsChangeUint",
      "type": "event"
    },
    {
      "anonymous": false,
      "inputs": [
        {
          "indexed": false,
          "internalType": "address",
          "name": "_user",
          "type": "address"
        },
        {
          "indexed": false,
          "internalType": "uint256",
          "name": "tokenId",
          "type": "uint256"
        }
      ],
      "name": "onWithdraw",
      "type": "event"
    },
    {
      "inputs": [],
      "name": "GRACE_PERIOD",
      "outputs": [
        {
          "internalType": "uint256",
          "name": "",
          "type": "uint256"
        }
      ],
      "stateMutability": "view",
      "type": "function"
    },
    {
      "inputs": [],
      "name": "MAXIMUM_DELAY",
      "outputs": [
        {
          "internalType": "uint256",
          "name": "",
          "type": "uint256"
        }
      ],
      "stateMutability": "view",
      "type": "function"
    },
    {
      "inputs": [],
      "name": "MINIMUM_DELAY",
      "outputs": [
        {
          "internalType": "uint256",
          "name": "",
          "type": "uint256"
        }
      ],
      "stateMutability": "view",
      "type": "function"
    },
    {
      "inputs": [],
      "name": "delay",
      "outputs": [
        {
          "internalType": "uint256",
          "name": "",
          "type": "uint256"
        }
      ],
      "stateMutability": "view",
      "type": "function"
    },
    {
      "inputs": [],
      "name": "miningMachine",
      "outputs": [
        {
          "internalType": "contract IGarbiMining",
          "name": "",
          "type": "address"
        }
      ],
      "stateMutability": "view",
      "type": "function"
    },
    {
      "inputs": [],
      "name": "owner",
      "outputs": [
        {
          "internalType": "address",
          "name": "",
          "type": "address"
        }
      ],
      "stateMutability": "view",
      "type": "function"
    },
    {
      "inputs": [],
      "name": "pidOfMining",
      "outputs": [
        {
          "internalType": "uint256",
          "name": "",
          "type": "uint256"
        }
      ],
      "stateMutability": "view",
      "type": "function"
    },
    {
      "inputs": [],
      "name": "poolTickLower",
      "outputs": [
        {
          "internalType": "int24",
          "name": "",
          "type": "int24"
        }
      ],
      "stateMutability": "view",
      "type": "function"
    },
    {
      "inputs": [],
      "name": "poolTickUpper",
      "outputs": [
        {
          "internalType": "int24",
          "name": "",
          "type": "int24"
        }
      ],
      "stateMutability": "view",
      "type": "function"
    },
    {
      "inputs": [],
      "name": "positionManager",
      "outputs": [
        {
          "internalType": "contract INonfungiblePositionManager",
          "name": "",
          "type": "address"
        }
      ],
      "stateMutability": "view",
      "type": "function"
    },
    {
      "inputs": [],
      "name": "renounceOwnership",
      "outputs": [],
      "stateMutability": "nonpayable",
      "type": "function"
    },
    {
      "inputs": [
        {
          "internalType": "address",
          "name": "",
          "type": "address"
        }
      ],
      "name": "shareOf",
      "outputs": [
        {
          "internalType": "uint256",
          "name": "",
          "type": "uint256"
        }
      ],
      "stateMutability": "view",
      "type": "function"
    },
    {
      "inputs": [
        {
          "internalType": "bytes32",
          "name": "",
          "type": "bytes32"
        }
      ],
      "name": "timeLockOf",
      "outputs": [
        {
          "internalType": "bool",
          "name": "queuedTransactions",
          "type": "bool"
        },
        {
          "internalType": "uint256",
          "name": "timeOfExecute",
          "type": "uint256"
        }
      ],
      "stateMutability": "view",
      "type": "function"
    },
    {
      "inputs": [],
      "name": "token0",
      "outputs": [
        {
          "internalType": "address",
          "name": "",
          "type": "address"
        }
      ],
      "stateMutability": "view",
      "type": "function"
    },
    {
      "inputs": [],
      "name": "token1",
      "outputs": [
        {
          "internalType": "address",
          "name": "",
          "type": "address"
        }
      ],
      "stateMutability": "view",
      "type": "function"
    },
    {
      "inputs": [],
      "name": "totalShare",
      "outputs": [
        {
          "internalType": "uint256",
          "name": "",
          "type": "uint256"
        }
      ],
      "stateMutability": "view",
      "type": "function"
    },
    {
      "inputs": [
        {
          "internalType": "address",
          "name": "newOwner",
          "type": "address"
        }
      ],
      "name": "transferOwnership",
      "outputs": [],
      "stateMutability": "nonpayable",
      "type": "function"
    },
    {
      "inputs": [],
      "name": "uniswapV3Pool",
      "outputs": [
        {
          "internalType": "contract IUniswapV3Pool",
          "name": "",
          "type": "address"
        }
      ],
      "stateMutability": "view",
      "type": "function"
    },
    {
      "inputs": [
        {
          "internalType": "address",
          "name": "",
          "type": "address"
        }
      ],
      "name": "userInfoTokenId",
      "outputs": [
        {
          "internalType": "uint256",
          "name": "",
          "type": "uint256"
        }
      ],
      "stateMutability": "view",
      "type": "function"
    },
    {
      "inputs": [],
      "name": "version",
      "outputs": [
        {
          "internalType": "uint256",
          "name": "",
          "type": "uint256"
        }
      ],
      "stateMutability": "view",
      "type": "function"
    },
    {
      "inputs": [],
      "name": "want",
      "outputs": [
        {
          "internalType": "contract IERC721",
          "name": "",
          "type": "address"
        }
      ],
      "stateMutability": "view",
      "type": "function"
    },
    {
      "inputs": [
        {
          "internalType": "uint256",
          "name": "delay_",
          "type": "uint256"
        }
      ],
      "name": "setDelay",
      "outputs": [],
      "stateMutability": "nonpayable",
      "type": "function"
    },
    {
      "inputs": [
        {
          "internalType": "string",
          "name": "_functionName",
          "type": "string"
        }
      ],
      "name": "cancelTransactions",
      "outputs": [],
      "stateMutability": "nonpayable",
      "type": "function"
    },
    {
      "inputs": [
        {
          "internalType": "string",
          "name": "_functionName",
          "type": "string"
        },
        {
          "internalType": "string",
          "name": "_fieldName",
          "type": "string"
        },
        {
          "internalType": "address",
          "name": "_newAddr",
          "type": "address"
        }
      ],
      "name": "queuedTransactionsChangeAddress",
      "outputs": [],
      "stateMutability": "nonpayable",
      "type": "function"
    },
    {
      "inputs": [
        {
          "internalType": "string",
          "name": "_functionName",
          "type": "string"
        },
        {
          "internalType": "string",
          "name": "_fieldName",
          "type": "string"
        },
        {
          "internalType": "uint256",
          "name": "_value",
          "type": "uint256"
        }
      ],
      "name": "queuedTransactionsChangeUint",
      "outputs": [],
      "stateMutability": "nonpayable",
      "type": "function"
    },
    {
      "inputs": [],
      "name": "setMiningMachine",
      "outputs": [],
      "stateMutability": "nonpayable",
      "type": "function"
    },
    {
      "inputs": [],
      "name": "changeTokenAddress",
      "outputs": [],
      "stateMutability": "nonpayable",
      "type": "function"
    },
    {
      "inputs": [],
      "name": "setPidOfMining",
      "outputs": [],
      "stateMutability": "nonpayable",
      "type": "function"
    },
    {
      "inputs": [
        {
          "internalType": "address",
          "name": "",
          "type": "address"
        },
        {
          "internalType": "address",
          "name": "",
          "type": "address"
        },
        {
          "internalType": "uint256",
          "name": "",
          "type": "uint256"
        },
        {
          "internalType": "bytes",
          "name": "",
          "type": "bytes"
        }
      ],
      "name": "onERC721Received",
      "outputs": [
        {
          "internalType": "bytes4",
          "name": "",
          "type": "bytes4"
        }
      ],
      "stateMutability": "pure",
      "type": "function"
    },
    {
      "inputs": [
        {
          "internalType": "uint256",
          "name": "tokenId",
          "type": "uint256"
        }
      ],
      "name": "deposit",
      "outputs": [],
      "stateMutability": "nonpayable",
      "type": "function"
    },
    {
      "inputs": [],
      "name": "withdraw",
      "outputs": [],
      "stateMutability": "nonpayable",
      "type": "function"
    },
    {
      "inputs": [
        {
          "internalType": "address",
          "name": "_user",
          "type": "address"
        }
      ],
      "name": "harvest",
      "outputs": [
        {
          "internalType": "uint256",
          "name": "_pendingVeGRB",
          "type": "uint256"
        }
      ],
      "stateMutability": "nonpayable",
      "type": "function"
    },
    {
      "inputs": [],
      "name": "isCurrentPriceInRange",
      "outputs": [
        {
          "internalType": "bool",
          "name": "",
          "type": "bool"
        }
      ],
      "stateMutability": "view",
      "type": "function"
    },
    {
      "inputs": [
        {
          "internalType": "address",
          "name": "_user",
          "type": "address"
        }
      ],
      "name": "getData",
      "outputs": [
        {
          "internalType": "uint256",
          "name": "miningSpeed_",
          "type": "uint256"
        },
        {
          "internalType": "uint256",
          "name": "totalMintPerDay_",
          "type": "uint256"
        },
        {
          "internalType": "uint256",
          "name": "userGRBPending_",
          "type": "uint256"
        },
        {
          "internalType": "uint256",
          "name": "tvl_",
          "type": "uint256"
        },
        {
          "internalType": "uint256",
          "name": "tokenId",
          "type": "uint256"
        }
      ],
      "stateMutability": "view",
      "type": "function"
    }
  ],
  "bytecode": "0x608060405260646002556000600b5534801561001a57600080fd5b506040516200299038038062002990833981810160405261012081101561004057600080fd5b508051602082015160408301516060840151608085015160a086015160c087015160e0880151610100909801516001600090815597989697959694959394929391929161008b610192565b600180546001600160a01b0319166001600160a01b038316908117909155604051919250906000907f8be0079c531659141344cd1fd0a4f28419497f9722a3daafe3b4186f6b6457e0908290a350600380546001600160a01b03199081166001600160a01b039a8b16179091556009805482169a8a169a909a1790995560078054600a97909755600680548b16968a1696909617909555600480548a16948916949094179093556005805489169288169290921790915592909516929093169190911762ffffff60a01b1916600160a01b600292830b62ffffff908116919091029190911762ffffff60b81b1916600160b81b9490920b1692909202919091179055610196565b3390565b6127ea80620001a66000396000f3fe608060405234801561001057600080fd5b50600436106102065760003560e01c80637b1f62b11161011a578063b6b55f25116100ad578063d21220a71161007c578063d21220a7146107bc578063e177246e146107c4578063f2fde38b146107e1578063f47a396f14610807578063f55ebd2a1461080f57610206565b8063b6b55f251461078f578063bce645db146107ac578063c1a287e214610598578063d1b8a3b5146107b457610206565b80638da5cb5b116100e95780638da5cb5b1461064c5780638ecc676f146106545780639312dc5f1461065c578063b1b43ae51461078757610206565b80637b1f62b1146105795780637d645fab146105985780638760d841146105a05780638cac8f03146105a857610206565b806332009eda1161019d57806354fd4d501161016c57806354fd4d50146105215780636a42b8f8146105295780636edc28fd14610531578063715018a614610569578063791b98bc1461057157610206565b806332009eda1461049a57806338266b22146104a25780633ccfd60b146104f3578063536bcb4c146104fb57610206565b8063150b7a02116101d9578063150b7a02146103a55780631a28126b146104505780631f1fcd511461046c57806321e5e2c41461047457610206565b8063026c42071461020b5780630dfe1681146102255780630e5c011e1461024957806314ca81ed1461026f575b600080fd5b610213610817565b60408051918252519081900360200190f35b61022d61081d565b604080516001600160a01b039092168252519081900360200190f35b6102136004803603602081101561025f57600080fd5b50356001600160a01b031661082c565b6103a36004803603606081101561028557600080fd5b810190602081018135600160201b81111561029f57600080fd5b8201836020820111156102b157600080fd5b803590602001918460018302840111600160201b831117156102d257600080fd5b91908080601f0160208091040260200160405190810160405280939291908181526020018383808284376000920191909152509295949360208101935035915050600160201b81111561032457600080fd5b82018360208201111561033657600080fd5b803590602001918460018302840111600160201b8311171561035757600080fd5b91908080601f016020809104026020016040519081016040528093929190818152602001838380828437600092019190915250929550505090356001600160a01b031691506108d09050565b005b610433600480360360808110156103bb57600080fd5b6001600160a01b03823581169260208101359091169160408201359190810190608081016060820135600160201b8111156103f557600080fd5b82018360208201111561040757600080fd5b803590602001918460018302840111600160201b8311171561042857600080fd5b509092509050610bc5565b604080516001600160e01b03199092168252519081900360200190f35b610458610bd6565b604080519115158252519081900360200190f35b61022d610cc8565b6102136004803603602081101561048a57600080fd5b50356001600160a01b0316610cd7565b6103a3610ce9565b6104c8600480360360208110156104b857600080fd5b50356001600160a01b0316610eb9565b6040805195865260208601949094528484019290925260608401526080830152519081900360a00190f35b6103a3611081565b6102136004803603602081101561051157600080fd5b50356001600160a01b03166112c6565b6102136112d8565b6102136112de565b61054e6004803603602081101561054757600080fd5b50356112e4565b60408051921515835260208301919091528051918290030190f35b6103a3611303565b61022d6113af565b6105816113be565b6040805160029290920b8252519081900360200190f35b6102136113ce565b6105816113d5565b6103a3600480360360208110156105be57600080fd5b810190602081018135600160201b8111156105d857600080fd5b8201836020820111156105ea57600080fd5b803590602001918460018302840111600160201b8311171561060b57600080fd5b91908080601f0160208091040260200160405190810160405280939291908181526020018383808284376000920191909152509295506113e5945050505050565b61022d61158b565b6103a361159a565b6103a36004803603606081101561067257600080fd5b810190602081018135600160201b81111561068c57600080fd5b82018360208201111561069e57600080fd5b803590602001918460018302840111600160201b831117156106bf57600080fd5b91908080601f0160208091040260200160405190810160405280939291908181526020018383808284376000920191909152509295949360208101935035915050600160201b81111561071157600080fd5b82018360208201111561072357600080fd5b803590602001918460018302840111600160201b8311171561074457600080fd5b91908080601f0160208091040260200160405190810160405280939291908181526020018383808284376000920191909152509295505091359250611776915050565b61021361199e565b6103a3600480360360208110156107a557600080fd5b50356119a5565b61022d611e17565b6103a3611e26565b61022d611fd6565b6103a3600480360360208110156107da57600080fd5b5035611fe5565b6103a3600480360360208110156107f757600080fd5b50356001600160a01b03166120d0565b6102136121d3565b61022d6121d9565b600b5481565b6004546001600160a01b031681565b6000610836610bd6565b156108c757600954600a5460408051630c7e663b60e11b815260048101929092526001600160a01b03858116602484015290519216916318fccc76916044808201926020929091908290030181600087803b15801561089457600080fd5b505af11580156108a8573d6000803e3d6000fd5b505050506040513d60208110156108be57600080fd5b505190506108cb565b5060005b919050565b6108d86121e8565b6001600160a01b03166108e961158b565b6001600160a01b031614610932576040805162461bcd60e51b81526020600482018190526024820152600080516020612795833981519152604482015290519081900360640190fd5b6000600d6000856040516020018080602001828103825283818151815260200191508051906020019080838360005b83811015610979578181015183820152602001610961565b50505050905090810190601f1680156109a65780820380516001836020036101000a031916815260200191505b5092505050604051602081830303815290604052805190602001208152602001908152602001600020905081816002016000856040516020018080602001828103825283818151815260200191508051906020019080838360005b83811015610a19578181015183820152602001610a01565b50505050905090810190601f168015610a465780820380516001836020036101000a031916815260200191505b5060408051808303601f1901815291815281516020928301208652908501959095525050500160002080546001600160a01b0319166001600160a01b0392909216919091179055805460ff19166001178155600e54610aa69042906121ec565b81600101819055507f1bd33efd68d2824f5f0f2519ce7c9ca0ddff6234523468e89077a0dca7b73970848484604051808060200180602001846001600160a01b03168152602001838103835286818151815260200191508051906020019080838360005b83811015610b22578181015183820152602001610b0a565b50505050905090810190601f168015610b4f5780820380516001836020036101000a031916815260200191505b50838103825285518152855160209182019187019080838360005b83811015610b82578181015183820152602001610b6a565b50505050905090810190601f168015610baf5780820380516001836020036101000a031916815260200191505b509550505050505060405180910390a150505050565b630a85bd0160e11b95945050505050565b600080600760009054906101000a90046001600160a01b03166001600160a01b0316633850c7bd6040518163ffffffff1660e01b815260040160e06040518083038186803b158015610c2757600080fd5b505afa158015610c3b573d6000803e3d6000fd5b505050506040513d60e0811015610c5157600080fd5b5051600754909150600090610c6f90600160a01b900460020b61224d565b600754909150600090610c8b90600160b81b900460020b61224d565b9050816001600160a01b0316836001600160a01b031610158015610cc05750806001600160a01b0316836001600160a01b0316105b935050505090565b6003546001600160a01b031681565b600c6020526000908152604090205481565b610cf16121e8565b6001600160a01b0316610d0261158b565b6001600160a01b031614610d4b576040805162461bcd60e51b81526020600482018190526024820152600080516020612795833981519152604482015290519081900360640190fd5b604080516020808201819052601282840152716368616e6765546f6b656e4164647265737360701b60608084019190915283518084039091018152608090920183528151918101919091206000908152600d90915220610daa8161257e565b604080516020808201819052600482840152631dd85b9d60e21b606080840191909152835180840390910181526080909201835281519181019190912060009081526002840190915220546001600160a01b031615610eaf576040805160208082018190526004828401819052631dd85b9d60e21b60608085018290528551808603909101815260808501865280519084012060009081526002870180855286822054600380546001600160a01b039092166001600160a01b031992831617905560a0870186905260c087019490945260e080870193909352865180870390930183526101009095018652815191840191909120815292909152919020805490911690555b805460ff19169055565b6000806000806000610ec9610bd6565b1561105457600954600a5460408051631069f3b560e01b815260048101929092526001600160a01b0389811660248401529051921691631069f3b591604480820192606092909190829003018186803b158015610f2557600080fd5b505afa158015610f39573d6000803e3d6000fd5b505050506040513d6060811015610f4f57600080fd5b5051600954600a5460408051635e86cd9560e01b81526004810192909252519295506001600160a01b0390911691635e86cd9591602480820192602092909190829003018186803b158015610fa357600080fd5b505afa158015610fb7573d6000803e3d6000fd5b505050506040513d6020811015610fcd57600080fd5b5051600954600a54604080516324aa7cc560e11b81526004810192909252519296506001600160a01b0390911691634954f98a91602480820192602092909190829003018186803b15801561102157600080fd5b505afa158015611035573d6000803e3d6000fd5b505050506040513d602081101561104b57600080fd5b50519450611061565b6000925060009350600094505b5050600b5433600090815260086020526040902054939592945090929091565b600260005414156110d9576040805162461bcd60e51b815260206004820152601f60248201527f5265656e7472616e637947756172643a207265656e7472616e742063616c6c00604482015290519081900360640190fd5b600260009081553381526008602052604090205461113e576040805162461bcd60e51b815260206004820152601760248201527f4e4f5f544f4b454e5f49445f544f5f5749544844524157000000000000000000604482015290519081900360640190fd5b6111473361082c565b50336000908152600c602052604081208054919055600b54611169908261267e565b600b5533600081815260086020526040808220546003548251632142170760e11b8152306004820152602481019590955260448501829052915190936001600160a01b03909216926342842e0e926064808201939182900301818387803b1580156111d357600080fd5b505af11580156111e7573d6000803e3d6000fd5b5050336000818152600860209081526040808320839055600954600a548251638fb4e1cd60e01b81526004810191909152602481019590955290516001600160a01b039091169550638fb4e1cd9450604480850194929391928390030190829087803b15801561125657600080fd5b505af115801561126a573d6000803e3d6000fd5b505050506040513d602081101561128057600080fd5b5050604080513381526020810183905281517fccad973dcd043c7d680389db4378bd6b9775db7124092e9e0422c9e46d7985dc929181900390910190a150506001600055565b60086020526000908152604090205481565b60025481565b600e5481565b600d602052600090815260409020805460019091015460ff9091169082565b61130b6121e8565b6001600160a01b031661131c61158b565b6001600160a01b031614611365576040805162461bcd60e51b81526020600482018190526024820152600080516020612795833981519152604482015290519081900360640190fd5b6001546040516000916001600160a01b0316907f8be0079c531659141344cd1fd0a4f28419497f9722a3daafe3b4186f6b6457e0908390a3600180546001600160a01b0319169055565b6006546001600160a01b031681565b600754600160b81b900460020b81565b62278d0081565b600754600160a01b900460020b81565b6113ed6121e8565b6001600160a01b03166113fe61158b565b6001600160a01b031614611447576040805162461bcd60e51b81526020600482018190526024820152600080516020612795833981519152604482015290519081900360640190fd5b6000600d6000836040516020018080602001828103825283818151815260200191508051906020019080838360005b8381101561148e578181015183820152602001611476565b50505050905090810190601f1680156114bb5780820380516001836020036101000a031916815260200191505b5060408051601f1981840301815291815281516020928301208652858201969096529385016000908120805460ff19168155865186815289518188015289519198507fce369f91d52b663114643c430217b52530c2cc7318cac7a3e9d46241cbc354a8978a97919650869550850193508601918190849084905b8381101561154d578181015183820152602001611535565b50505050905090810190601f16801561157a5780820380516001836020036101000a031916815260200191505b509250505060405180910390a15050565b6001546001600160a01b031690565b6115a26121e8565b6001600160a01b03166115b361158b565b6001600160a01b0316146115fc576040805162461bcd60e51b81526020600482018190526024820152600080516020612795833981519152604482015290519081900360640190fd5b6040805160208082018190526010828401526f7365744d696e696e674d616368696e6560801b60608084019190915283518084039091018152608090920183528151918101919091206000908152600d909152206116598161257e565b604080516020808201819052600d828401526c6d696e696e674d616368696e6560981b606080840191909152835180840390910181526080909201835281519181019190912060009081526002840190915220546001600160a01b03166116f9576040805162461bcd60e51b815260206004820152600f60248201526e494e56414c49445f4144445245535360881b604482015290519081900360640190fd5b604080516020808201819052600d828401526c6d696e696e674d616368696e6560981b60608084019190915283518084039091018152608090920183528151918101919091206000908152600284019091522054600980546001600160a01b0319166001600160a01b03909216919091179055805460ff19169055565b61177e6121e8565b6001600160a01b031661178f61158b565b6001600160a01b0316146117d8576040805162461bcd60e51b81526020600482018190526024820152600080516020612795833981519152604482015290519081900360640190fd5b6000600d6000856040516020018080602001828103825283818151815260200191508051906020019080838360005b8381101561181f578181015183820152602001611807565b50505050905090810190601f16801561184c5780820380516001836020036101000a031916815260200191505b5092505050604051602081830303815290604052805190602001208152602001908152602001600020905081816003016000856040516020018080602001828103825283818151815260200191508051906020019080838360005b838110156118bf5781810151838201526020016118a7565b50505050905090810190601f1680156118ec5780820380516001836020036101000a031916815260200191505b5060408051601f1981840301815291815281516020928301208652908501959095525050500160002055805460ff19166001178155600e5461192f9042906121ec565b600182015560408051908101839052606080825285519082015284517f860699cc7b0f3cb3d034fd31cdfe0816887a9f55d10993224d77c359c3d55551918691869186918190602080830191608084019188019080838360008315610b22578181015183820152602001610b0a565b6202a30081565b600260005414156119fd576040805162461bcd60e51b815260206004820152601f60248201527f5265656e7472616e637947756172643a207265656e7472616e742063616c6c00604482015290519081900360640190fd5b600260005580611a44576040805162461bcd60e51b815260206004820152600d60248201526c1253959053125117d253941555609a1b604482015290519081900360640190fd5b600354604080516331a9108f60e11b815260048101849052905133926001600160a01b031691636352211e916024808301926020929190829003018186803b158015611a8f57600080fd5b505afa158015611aa3573d6000803e3d6000fd5b505050506040513d6020811015611ab957600080fd5b50516001600160a01b031614611b06576040805162461bcd60e51b815260206004820152600d60248201526c1253959053125117d253941555609a1b604482015290519081900360640190fd5b3360009081526008602052604090205415611b61576040805162461bcd60e51b81526020600482015260166024820152751391515117d5d2551211149055d7d513d2d15397d25160521b604482015290519081900360640190fd5b6006546040805163133f757160e31b8152600481018490529051600092839283926001600160a01b03909216916399fbab889160248082019261018092909190829003018186803b158015611bb557600080fd5b505afa158015611bc9573d6000803e3d6000fd5b505050506040513d610180811015611be057600080fd5b5060a081015160c082015160e090920151600754919550919350909150600160a01b9004600290810b810b9084900b12801590611c305750600754600160b81b9004600290810b810b9083900b13155b611c77576040805162461bcd60e51b8152602060048201526013602482015272494e56414c49445f50524943455f52414e474560681b604482015290519081900360640190fd5b611c803361082c565b5060035460408051632142170760e11b81523360048201523060248201526044810187905290516001600160a01b03909216916342842e0e9160648082019260009290919082900301818387803b158015611cda57600080fd5b505af1158015611cee573d6000803e3d6000fd5b5050336000908152600860209081526040808320899055600c9091529020546fffffffffffffffffffffffffffffffff84169250611d2d9150826121ec565b336000908152600c6020526040902055600b54611d4a90826121ec565b600b55600954600a5460408051638fb4e1cd60e01b81526004810192909252336024830152516001600160a01b0390921691638fb4e1cd916044808201926020929091908290030181600087803b158015611da457600080fd5b505af1158015611db8573d6000803e3d6000fd5b505050506040513d6020811015611dce57600080fd5b5050604080513381526020810187905281517f2bf9518c65eff7d1f3ee4106bf0dc41267ccde0924dbfa4ab476ed5c0f45da98929181900390910190a150506001600055505050565b6009546001600160a01b031681565b611e2e6121e8565b6001600160a01b0316611e3f61158b565b6001600160a01b031614611e88576040805162461bcd60e51b81526020600482018190526024820152600080516020612795833981519152604482015290519081900360640190fd5b604080516020808201819052600e828401526d7365745069644f664d696e696e6760901b60608084019190915283518084039091018152608090920183528151918101919091206000908152600d90915220611ee38161257e565b604080516020808201819052600b828401526a7069644f664d696e696e6760a81b60608084019190915283518084039091018152608090920183528151918101919091206000908152600384019091522054611f77576040805162461bcd60e51b815260206004820152600e60248201526d1253959053125117d05353d5539560921b604482015290519081900360640190fd5b604080516020808201819052600b828401526a7069644f664d696e696e6760a81b60608084019190915283518084039091018152608090920183528151918101919091206000908152600384019091522054600a55805460ff19169055565b6005546001600160a01b031681565b611fed6121e8565b6001600160a01b0316611ffe61158b565b6001600160a01b031614612047576040805162461bcd60e51b81526020600482018190526024820152600080516020612795833981519152604482015290519081900360640190fd5b6202a3008110156120895760405162461bcd60e51b81526004018080602001828103825260348152602001806127026034913960400191505060405180910390fd5b62278d008111156120cb5760405162461bcd60e51b81526004018080602001828103825260388152602001806127366038913960400191505060405180910390fd5b600e55565b6120d86121e8565b6001600160a01b03166120e961158b565b6001600160a01b031614612132576040805162461bcd60e51b81526020600482018190526024820152600080516020612795833981519152604482015290519081900360640190fd5b6001600160a01b0381166121775760405162461bcd60e51b81526004018080602001828103825260268152602001806126dc6026913960400191505060405180910390fd5b6001546040516001600160a01b038084169216907f8be0079c531659141344cd1fd0a4f28419497f9722a3daafe3b4186f6b6457e090600090a3600180546001600160a01b0319166001600160a01b0392909216919091179055565b600a5481565b6007546001600160a01b031681565b3390565b600082820183811015612246576040805162461bcd60e51b815260206004820152601b60248201527f536166654d6174683a206164646974696f6e206f766572666c6f770000000000604482015290519081900360640190fd5b9392505050565b60008060008360020b12612264578260020b61226c565b8260020b6000035b9050620d89e88111156122aa576040805162461bcd60e51b81526020600482015260016024820152601560fa1b604482015290519081900360640190fd5b6000600182166122be57600160801b6122d0565b6ffffcb933bd6fad37aa2d162d1a5940015b70ffffffffffffffffffffffffffffffffff1690506002821615612304576ffff97272373d413259a46990580e213a0260801c5b6004821615612323576ffff2e50f5f656932ef12357cf3c7fdcc0260801c5b6008821615612342576fffe5caca7e10e4e61c3624eaa0941cd00260801c5b6010821615612361576fffcb9843d60f6159c9db58835c9266440260801c5b6020821615612380576fff973b41fa98c081472e6896dfb254c00260801c5b604082161561239f576fff2ea16466c96a3843ec78b326b528610260801c5b60808216156123be576ffe5dee046a99a2a811c461f1969c30530260801c5b6101008216156123de576ffcbe86c7900a88aedcffc83b479aa3a40260801c5b6102008216156123fe576ff987a7253ac413176f2b074cf7815e540260801c5b61040082161561241e576ff3392b0822b70005940c7a398e4b70f30260801c5b61080082161561243e576fe7159475a2c29b7443b29c7fa6e889d90260801c5b61100082161561245e576fd097f3bdfd2022b8845ad8f792aa58250260801c5b61200082161561247e576fa9f746462d870fdf8a65dc1f90e061e50260801c5b61400082161561249e576f70d869a156d2a1b890bb3df62baf32f70260801c5b6180008216156124be576f31be135f97d08fd981231505542fcfa60260801c5b620100008216156124df576f09aa508b5b7a84e1c677de54f3e99bc90260801c5b620200008216156124ff576e5d6af8dedb81196699c329225ee6040260801c5b6204000082161561251e576d2216e584f5fa1ea926041bedfe980260801c5b6208000082161561253b576b048a170391f7dc42444e8fa20260801c5b60008460020b131561255657806000198161255257fe5b0490505b600160201b81061561256957600161256c565b60005b60ff16602082901c0192505050919050565b805460ff1615156001146125d9576040805162461bcd60e51b815260206004820152601f60248201527f5472616e73616374696f6e206861736e2774206265656e207175657565642e00604482015290519081900360640190fd5b428160010154111561261c5760405162461bcd60e51b815260040180806020018281038252602781526020018061276e6027913960400191505060405180910390fd5b600181015442906126309062278d006121ec565b101561267b576040805162461bcd60e51b81526020600482015260156024820152742a3930b739b0b1ba34b7b71034b99039ba30b6329760591b604482015290519081900360640190fd5b50565b6000828211156126d5576040805162461bcd60e51b815260206004820152601e60248201527f536166654d6174683a207375627472616374696f6e206f766572666c6f770000604482015290519081900360640190fd5b5090039056fe4f776e61626c653a206e6577206f776e657220697320746865207a65726f206164647265737354696d656c6f636b3a3a73657444656c61793a2044656c6179206d75737420657863656564206d696e696d756d2064656c61792e54696d656c6f636b3a3a73657444656c61793a2044656c6179206d757374206e6f7420657863656564206d6178696d756d2064656c61792e5472616e73616374696f6e206861736e2774207375727061737365642074696d65206c6f636b2e4f776e61626c653a2063616c6c6572206973206e6f7420746865206f776e6572a26469706673582212201ece8d28adf7c8d6448ab0bc5f944787a4080a69fe828fa2b61817d72e6fb42e64736f6c63430007050033",
  "immutableReferences": {},
  "source": "// SPDX-License-Identifier: MIT\r\npragma solidity >=0.7.0;\r\n\r\nimport \"@openzeppelin/contracts/math/SafeMath.sol\";\r\nimport \"@openzeppelin/contracts/access/Ownable.sol\";\r\nimport \"@openzeppelin/contracts/token/ERC20/IERC20.sol\";\r\nimport \"@openzeppelin/contracts/token/ERC721/IERC721.sol\";\r\nimport \"@openzeppelin/contracts/token/ERC721/IERC721Receiver.sol\";\r\nimport \"@openzeppelin/contracts/utils/ReentrancyGuard.sol\";\r\nimport \"@uniswap/v3-periphery/contracts/interfaces/INonfungiblePositionManager.sol\";\r\nimport \"@uniswap/v3-core/contracts/interfaces/IUniswapV3Pool.sol\";\r\nimport \"@uniswap/v3-core/contracts/libraries/TickMath.sol\";\r\n\r\nimport './interfaces/IGarbiMining.sol';\r\n\r\ncontract GarbiFarmUniV3 is IERC721Receiver, ReentrancyGuard, Ownable {\r\n\r\n    using SafeMath for uint256;\r\n    uint256 public version = 100;\r\n    \r\n    IERC721 public want; // GRBWETH UNI V3 NFT\r\n\r\n    address public token0; //GRB\r\n    address public token1; //WETH\r\n\r\n    INonfungiblePositionManager public positionManager;\r\n\r\n    IUniswapV3Pool public uniswapV3Pool;\r\n\r\n    int24 public poolTickLower;\r\n    int24 public poolTickUpper;\r\n    \r\n    mapping(address => uint256) public userInfoTokenId;\r\n\r\n    IGarbiMining public miningMachine;\r\n\r\n    uint256 public pidOfMining;\r\n    uint256 public totalShare = 0;\r\n    mapping(address => uint256) public shareOf;\r\n\r\n    mapping(bytes32 => TimeLock) public timeLockOf;\r\n\r\n    uint public constant GRACE_PERIOD = 30 days;\r\n    uint public constant MINIMUM_DELAY = 2 days;\r\n    uint public constant MAXIMUM_DELAY = 30 days;\r\n    uint public delay;\r\n\r\n    struct TimeLock {\r\n        bool queuedTransactions;\r\n        uint256 timeOfExecute;\r\n        mapping(bytes32 => address) addressOf;\r\n        mapping(bytes32 => uint256) uintOf;\r\n    }\r\n\r\n    event onDeposit(address _user, uint256 tokenId);\r\n    event onWithdraw(address _user, uint256 tokenId);\r\n\r\n    event onQueuedTransactionsChangeAddress(string _functionName, string _fieldName, address _value);\r\n    event onQueuedTransactionsChangeUint(string _functionName, string _fieldName, uint256 _value);\r\n    event onCancelTransactions(string _functionName);\r\n\r\n    constructor(\r\n        IGarbiMining _miningMachine,\r\n        IERC721 _want,\r\n        address _uniswapV3Pool,\r\n        uint256 _pidOfMining,\r\n        address _positionManager,\r\n        address _token0,\r\n        address _token1,\r\n        int24 _tickLower, \r\n        int24 _tickUpper\r\n        ) {\r\n        want = _want;\r\n        miningMachine = _miningMachine;\r\n        uniswapV3Pool = IUniswapV3Pool(_uniswapV3Pool);\r\n        pidOfMining = _pidOfMining;\r\n        positionManager = INonfungiblePositionManager(_positionManager);\r\n        token0 = _token0;\r\n        token1 = _token1;\r\n        poolTickLower = _tickLower;\r\n        poolTickUpper = _tickUpper;\r\n    }\r\n\r\n    function setDelay(uint delay_) public onlyOwner {\r\n        require(delay_ >= MINIMUM_DELAY, \"Timelock::setDelay: Delay must exceed minimum delay.\");\r\n        require(delay_ <= MAXIMUM_DELAY, \"Timelock::setDelay: Delay must not exceed maximum delay.\");\r\n\r\n        delay = delay_;\r\n    }\r\n\r\n    function cancelTransactions(string memory _functionName) public onlyOwner {\r\n\r\n        TimeLock storage _timelock = timeLockOf[keccak256(abi.encode(_functionName))];\r\n        _timelock.queuedTransactions = false;\r\n\r\n        emit onCancelTransactions(_functionName);\r\n    }\r\n\r\n    function queuedTransactionsChangeAddress(string memory _functionName, string memory _fieldName, address _newAddr) public onlyOwner \r\n    {\r\n        TimeLock storage _timelock = timeLockOf[keccak256(abi.encode(_functionName))];\r\n\r\n        _timelock.addressOf[keccak256(abi.encode(_fieldName))] = _newAddr;\r\n        _timelock.queuedTransactions = true;\r\n        _timelock.timeOfExecute = block.timestamp.add(delay);\r\n\r\n        emit onQueuedTransactionsChangeAddress(_functionName, _fieldName, _newAddr);\r\n    }\r\n\r\n    function queuedTransactionsChangeUint(string memory _functionName, string memory _fieldName, uint256 _value) public onlyOwner \r\n    {\r\n        TimeLock storage _timelock = timeLockOf[keccak256(abi.encode(_functionName))];\r\n\r\n        _timelock.uintOf[keccak256(abi.encode(_fieldName))] = _value;\r\n        _timelock.queuedTransactions = true;\r\n        _timelock.timeOfExecute = block.timestamp.add(delay);\r\n\r\n        emit onQueuedTransactionsChangeUint(_functionName, _fieldName, _value);\r\n    }\r\n\r\n    function setMiningMachine() public onlyOwner \r\n    {\r\n        TimeLock storage _timelock = timeLockOf[keccak256(abi.encode('setMiningMachine'))];\r\n        _validateTimelock(_timelock);\r\n        require(_timelock.addressOf[keccak256(abi.encode('miningMachine'))] != address(0), \"INVALID_ADDRESS\");\r\n\r\n        miningMachine = IGarbiMining(_timelock.addressOf[keccak256(abi.encode('miningMachine'))]);\r\n        _timelock.queuedTransactions = false;\r\n    }\r\n\r\n    function changeTokenAddress() public onlyOwner\r\n    {\r\n        TimeLock storage _timelock = timeLockOf[keccak256(abi.encode('changeTokenAddress'))];\r\n\r\n        _validateTimelock(_timelock);\r\n    \r\n        if (_timelock.addressOf[keccak256(abi.encode('want'))] != address(0)) {\r\n            want = IERC721(_timelock.addressOf[keccak256(abi.encode('want'))]);\r\n            delete _timelock.addressOf[keccak256(abi.encode('want'))];\r\n        }\r\n        _timelock.queuedTransactions = false;\r\n    }\r\n\r\n    function setPidOfMining() public onlyOwner \r\n    {\r\n        TimeLock storage _timelock = timeLockOf[keccak256(abi.encode('setPidOfMining'))];\r\n        _validateTimelock(_timelock);\r\n        require(_timelock.uintOf[keccak256(abi.encode('pidOfMining'))] > 0, \"INVALID_AMOUNT\");\r\n\r\n        pidOfMining = _timelock.uintOf[keccak256(abi.encode('pidOfMining'))];\r\n        _timelock.queuedTransactions = false;\r\n    }\r\n\r\n    function _validateTimelock(TimeLock storage _timelock) private view\r\n    {\r\n        require(_timelock.queuedTransactions == true, \"Transaction hasn't been queued.\");\r\n        require(_timelock.timeOfExecute <= block.timestamp, \"Transaction hasn't surpassed time lock.\");\r\n        require(_timelock.timeOfExecute.add(GRACE_PERIOD) >= block.timestamp, \"Transaction is stale.\");\r\n    }\r\n\r\n    function onERC721Received(\r\n        address,\r\n        address,\r\n        uint256,\r\n        bytes calldata\r\n    ) external pure override returns (bytes4) {\r\n        // Return the expected value to indicate that the transfer was handled successfully.\r\n        return this.onERC721Received.selector;\r\n    }\r\n\r\n\r\n    function deposit(uint256 tokenId) external nonReentrant \r\n    {\r\n        require(tokenId > 0, 'INVALID_INPUT');\r\n        require(want.ownerOf(tokenId) == msg.sender, 'INVALID_INPUT');\r\n        require(userInfoTokenId[msg.sender] == 0, 'NEED_WITHDRAW_TOKEN_ID');\r\n        (, , , , , int24 tickLower , int24 tickUpper , uint128 liquidity, , , , ) = positionManager.positions(tokenId);\r\n        require(tickLower >= poolTickLower && tickUpper <= poolTickUpper, 'INVALID_PRICE_RANGE');\r\n\r\n        harvest(msg.sender);\r\n    \twant.safeTransferFrom(msg.sender, address(this), tokenId);\r\n        userInfoTokenId[msg.sender] = tokenId;\r\n        \r\n        uint256 wantAmt = liquidity;\r\n        shareOf[msg.sender] = shareOf[msg.sender].add(wantAmt);\r\n        totalShare = totalShare.add(wantAmt);\r\n        miningMachine.updateUser(pidOfMining, msg.sender);\r\n        emit onDeposit(msg.sender, tokenId);\r\n\r\n    }\r\n    function withdraw() external nonReentrant \r\n    {\r\n        require(userInfoTokenId[msg.sender] != 0, 'NO_TOKEN_ID_TO_WITHDRAW');\r\n        harvest(msg.sender);\r\n\r\n        uint256 _share = shareOf[msg.sender];\r\n        shareOf[msg.sender] = 0;\r\n        totalShare = totalShare.sub(_share);\r\n        \r\n        uint256 tokenId = userInfoTokenId[msg.sender];\r\n        want.safeTransferFrom(address(this), msg.sender, tokenId);\r\n        userInfoTokenId[msg.sender] = 0;\r\n\r\n        miningMachine.updateUser(pidOfMining, msg.sender);\r\n        emit onWithdraw(msg.sender, tokenId);\r\n    }\r\n\r\n    function harvest(address _user) public returns(uint256 _pendingVeGRB) {\r\n        if(isCurrentPriceInRange()) {\r\n            return miningMachine.harvest(pidOfMining, _user);\r\n        }\r\n        else {\r\n            return 0;\r\n        }\r\n    }\r\n\r\n    function isCurrentPriceInRange() public view returns (bool) {\r\n        // Get the current price (square root price) from the Uniswap v3 pool\r\n        (uint160 sqrtPriceX96, , , , , , ) = uniswapV3Pool.slot0();\r\n\r\n        // Convert the tickLower and tickUpper to their corresponding square root prices\r\n        uint160 sqrtPriceLowerX96 = TickMath.getSqrtRatioAtTick(poolTickLower);\r\n        uint160 sqrtPriceUpperX96 = TickMath.getSqrtRatioAtTick(poolTickUpper);\r\n\r\n        // Check if the current price is within the tick range\r\n        return sqrtPriceX96 >= sqrtPriceLowerX96 && sqrtPriceX96 < sqrtPriceUpperX96;\r\n    }\r\n\r\n    function getData(\r\n        address _user\r\n    ) \r\n    public \r\n    view\r\n    returns(\r\n        uint256 miningSpeed_,\r\n        uint256 totalMintPerDay_, \r\n        uint256 userGRBPending_, \r\n        uint256 tvl_,\r\n        uint256 tokenId\r\n    ) {\r\n        if(isCurrentPriceInRange()) {\r\n            (userGRBPending_, , ) = miningMachine.getUserInfo(pidOfMining, _user);\r\n            totalMintPerDay_ = miningMachine.getTotalMintPerDayOf(pidOfMining);\r\n            miningSpeed_ = miningMachine.getMiningSpeedOf(pidOfMining);\r\n        }\r\n        else {\r\n            userGRBPending_ = 0;\r\n            totalMintPerDay_ = 0;\r\n            miningSpeed_ = 0;\r\n        }\r\n        \r\n        tvl_ = totalShare;\r\n        tokenId = userInfoTokenId[msg.sender];\r\n    } \r\n}",
  "sourcePath": "C:\\Users\\David\\Documents\\NetBeansProjects\\garbiprotocol.github.io\\garbi_contractsv7\\contracts\\GarbiFarmUniV3.sol",
  "compiler": {
    "name": "solc",
    "version": "0.7.5+commit.eb77ed08.Emscripten.clang"
  },
  "schemaVersion": "3.4.11",
  "updatedAt": "2023-03-21T12:08:12.392Z",
  "devdoc": {
    "kind": "dev",
    "methods": {
      "owner()": {
        "details": "Returns the address of the current owner."
      },
      "renounceOwnership()": {
        "details": "Leaves the contract without owner. It will not be possible to call `onlyOwner` functions anymore. Can only be called by the current owner. NOTE: Renouncing ownership will leave the contract without an owner, thereby removing any functionality that is only available to the owner."
      },
      "transferOwnership(address)": {
        "details": "Transfers ownership of the contract to a new account (`newOwner`). Can only be called by the current owner."
      }
    },
    "version": 1
  },
  "userdoc": {
    "kind": "user",
    "methods": {},
    "version": 1
  }
}