{
  "contractName": "GarbiFarmUniV3",
  "abi": [
    {
      "inputs": [
        {
          "internalType": "contract IGarbiMining",
          "name": "_miningMachine",
          "type": "address"
        },
        {
          "internalType": "contract IERC721",
          "name": "_want",
          "type": "address"
        },
        {
          "internalType": "address",
          "name": "_uniswapV3Pool",
          "type": "address"
        },
        {
          "internalType": "uint256",
          "name": "_pidOfMining",
          "type": "uint256"
        },
        {
          "internalType": "address",
          "name": "_positionManager",
          "type": "address"
        },
        {
          "internalType": "address",
          "name": "_token0",
          "type": "address"
        },
        {
          "internalType": "address",
          "name": "_token1",
          "type": "address"
        },
        {
          "internalType": "int24",
          "name": "_tickLower",
          "type": "int24"
        },
        {
          "internalType": "int24",
          "name": "_tickUpper",
          "type": "int24"
        }
      ],
      "stateMutability": "nonpayable",
      "type": "constructor"
    },
    {
      "anonymous": false,
      "inputs": [
        {
          "indexed": true,
          "internalType": "address",
          "name": "previousOwner",
          "type": "address"
        },
        {
          "indexed": true,
          "internalType": "address",
          "name": "newOwner",
          "type": "address"
        }
      ],
      "name": "OwnershipTransferred",
      "type": "event"
    },
    {
      "anonymous": false,
      "inputs": [
        {
          "indexed": false,
          "internalType": "address",
          "name": "_user",
          "type": "address"
        },
        {
          "indexed": false,
          "internalType": "uint256",
          "name": "tokenId",
          "type": "uint256"
        }
      ],
      "name": "onDeposit",
      "type": "event"
    },
    {
      "anonymous": false,
      "inputs": [
        {
          "indexed": false,
          "internalType": "address",
          "name": "_user",
          "type": "address"
        },
        {
          "indexed": false,
          "internalType": "uint256",
          "name": "tokenId",
          "type": "uint256"
        }
      ],
      "name": "onWithdraw",
      "type": "event"
    },
    {
      "inputs": [],
      "name": "miningMachine",
      "outputs": [
        {
          "internalType": "contract IGarbiMining",
          "name": "",
          "type": "address"
        }
      ],
      "stateMutability": "view",
      "type": "function",
      "constant": true
    },
    {
      "inputs": [],
      "name": "owner",
      "outputs": [
        {
          "internalType": "address",
          "name": "",
          "type": "address"
        }
      ],
      "stateMutability": "view",
      "type": "function",
      "constant": true
    },
    {
      "inputs": [],
      "name": "pidOfMining",
      "outputs": [
        {
          "internalType": "uint256",
          "name": "",
          "type": "uint256"
        }
      ],
      "stateMutability": "view",
      "type": "function",
      "constant": true
    },
    {
      "inputs": [],
      "name": "poolTickLower",
      "outputs": [
        {
          "internalType": "int24",
          "name": "",
          "type": "int24"
        }
      ],
      "stateMutability": "view",
      "type": "function",
      "constant": true
    },
    {
      "inputs": [],
      "name": "poolTickUpper",
      "outputs": [
        {
          "internalType": "int24",
          "name": "",
          "type": "int24"
        }
      ],
      "stateMutability": "view",
      "type": "function",
      "constant": true
    },
    {
      "inputs": [],
      "name": "poolToken0",
      "outputs": [
        {
          "internalType": "address",
          "name": "",
          "type": "address"
        }
      ],
      "stateMutability": "view",
      "type": "function",
      "constant": true
    },
    {
      "inputs": [],
      "name": "poolToken1",
      "outputs": [
        {
          "internalType": "address",
          "name": "",
          "type": "address"
        }
      ],
      "stateMutability": "view",
      "type": "function",
      "constant": true
    },
    {
      "inputs": [],
      "name": "positionManager",
      "outputs": [
        {
          "internalType": "contract INonfungiblePositionManager",
          "name": "",
          "type": "address"
        }
      ],
      "stateMutability": "view",
      "type": "function",
      "constant": true
    },
    {
      "inputs": [],
      "name": "renounceOwnership",
      "outputs": [],
      "stateMutability": "nonpayable",
      "type": "function"
    },
    {
      "inputs": [
        {
          "internalType": "address",
          "name": "",
          "type": "address"
        }
      ],
      "name": "shareOf",
      "outputs": [
        {
          "internalType": "uint256",
          "name": "",
          "type": "uint256"
        }
      ],
      "stateMutability": "view",
      "type": "function",
      "constant": true
    },
    {
      "inputs": [],
      "name": "totalShare",
      "outputs": [
        {
          "internalType": "uint256",
          "name": "",
          "type": "uint256"
        }
      ],
      "stateMutability": "view",
      "type": "function",
      "constant": true
    },
    {
      "inputs": [
        {
          "internalType": "address",
          "name": "newOwner",
          "type": "address"
        }
      ],
      "name": "transferOwnership",
      "outputs": [],
      "stateMutability": "nonpayable",
      "type": "function"
    },
    {
      "inputs": [],
      "name": "uniswapV3Pool",
      "outputs": [
        {
          "internalType": "contract IUniswapV3Pool",
          "name": "",
          "type": "address"
        }
      ],
      "stateMutability": "view",
      "type": "function",
      "constant": true
    },
    {
      "inputs": [
        {
          "internalType": "address",
          "name": "",
          "type": "address"
        }
      ],
      "name": "userInfoTokenId",
      "outputs": [
        {
          "internalType": "uint256",
          "name": "",
          "type": "uint256"
        }
      ],
      "stateMutability": "view",
      "type": "function",
      "constant": true
    },
    {
      "inputs": [],
      "name": "want",
      "outputs": [
        {
          "internalType": "contract IERC721",
          "name": "",
          "type": "address"
        }
      ],
      "stateMutability": "view",
      "type": "function",
      "constant": true
    },
    {
      "inputs": [
        {
          "internalType": "int24",
          "name": "newTickLower",
          "type": "int24"
        },
        {
          "internalType": "int24",
          "name": "newTickUpper",
          "type": "int24"
        }
      ],
      "name": "setPoolTicks",
      "outputs": [],
      "stateMutability": "nonpayable",
      "type": "function"
    },
    {
      "inputs": [
        {
          "internalType": "address",
          "name": "newAddress",
          "type": "address"
        }
      ],
      "name": "setUniswapV3Pool",
      "outputs": [],
      "stateMutability": "nonpayable",
      "type": "function"
    },
    {
      "inputs": [
        {
          "internalType": "address",
          "name": "newToken0",
          "type": "address"
        },
        {
          "internalType": "address",
          "name": "newToken1",
          "type": "address"
        }
      ],
      "name": "setTokens",
      "outputs": [],
      "stateMutability": "nonpayable",
      "type": "function"
    },
    {
      "inputs": [
        {
          "internalType": "address",
          "name": "newAddress",
          "type": "address"
        }
      ],
      "name": "setPositionManager",
      "outputs": [],
      "stateMutability": "nonpayable",
      "type": "function"
    },
    {
      "inputs": [
        {
          "internalType": "address",
          "name": "newAddress",
          "type": "address"
        }
      ],
      "name": "setMiningMachine",
      "outputs": [],
      "stateMutability": "nonpayable",
      "type": "function"
    },
    {
      "inputs": [
        {
          "internalType": "address",
          "name": "newAddress",
          "type": "address"
        }
      ],
      "name": "setWantToken",
      "outputs": [],
      "stateMutability": "nonpayable",
      "type": "function"
    },
    {
      "inputs": [
        {
          "internalType": "uint256",
          "name": "newPidOfMining",
          "type": "uint256"
        }
      ],
      "name": "setPidOfMining",
      "outputs": [],
      "stateMutability": "nonpayable",
      "type": "function"
    },
    {
      "inputs": [
        {
          "internalType": "address",
          "name": "",
          "type": "address"
        },
        {
          "internalType": "address",
          "name": "",
          "type": "address"
        },
        {
          "internalType": "uint256",
          "name": "",
          "type": "uint256"
        },
        {
          "internalType": "bytes",
          "name": "",
          "type": "bytes"
        }
      ],
      "name": "onERC721Received",
      "outputs": [
        {
          "internalType": "bytes4",
          "name": "",
          "type": "bytes4"
        }
      ],
      "stateMutability": "pure",
      "type": "function",
      "constant": true
    },
    {
      "inputs": [
        {
          "internalType": "uint256",
          "name": "tokenId",
          "type": "uint256"
        }
      ],
      "name": "deposit",
      "outputs": [],
      "stateMutability": "nonpayable",
      "type": "function"
    },
    {
      "inputs": [],
      "name": "withdraw",
      "outputs": [],
      "stateMutability": "nonpayable",
      "type": "function"
    },
    {
      "inputs": [
        {
          "internalType": "address",
          "name": "_user",
          "type": "address"
        }
      ],
      "name": "harvest",
      "outputs": [
        {
          "internalType": "uint256",
          "name": "_pendingVeGRB",
          "type": "uint256"
        }
      ],
      "stateMutability": "nonpayable",
      "type": "function"
    },
    {
      "inputs": [],
      "name": "isCurrentPriceInRange",
      "outputs": [
        {
          "internalType": "bool",
          "name": "",
          "type": "bool"
        }
      ],
      "stateMutability": "view",
      "type": "function",
      "constant": true
    },
    {
      "inputs": [
        {
          "internalType": "address",
          "name": "user",
          "type": "address"
        }
      ],
      "name": "getNFTTokensWithPair",
      "outputs": [
        {
          "internalType": "uint256[]",
          "name": "",
          "type": "uint256[]"
        }
      ],
      "stateMutability": "view",
      "type": "function",
      "constant": true
    },
    {
      "inputs": [
        {
          "internalType": "uint256",
          "name": "tokenId",
          "type": "uint256"
        }
      ],
      "name": "getNFTTokenInfo",
      "outputs": [
        {
          "internalType": "address",
          "name": "token0",
          "type": "address"
        },
        {
          "internalType": "address",
          "name": "token1",
          "type": "address"
        },
        {
          "internalType": "uint256",
          "name": "token0Amount",
          "type": "uint256"
        },
        {
          "internalType": "uint256",
          "name": "token1Amount",
          "type": "uint256"
        }
      ],
      "stateMutability": "view",
      "type": "function",
      "constant": true
    },
    {
      "inputs": [
        {
          "internalType": "address",
          "name": "_user",
          "type": "address"
        }
      ],
      "name": "getData",
      "outputs": [
        {
          "internalType": "uint256",
          "name": "miningSpeed_",
          "type": "uint256"
        },
        {
          "internalType": "uint256",
          "name": "totalMintPerDay_",
          "type": "uint256"
        },
        {
          "internalType": "uint256",
          "name": "userGRBPending_",
          "type": "uint256"
        },
        {
          "internalType": "uint256",
          "name": "tvl_",
          "type": "uint256"
        },
        {
          "internalType": "uint256",
          "name": "tokenId",
          "type": "uint256"
        }
      ],
      "stateMutability": "view",
      "type": "function",
      "constant": true
    }
  ],
  "bytecode": "0x60806040526000600a5534801561001557600080fd5b506040516125e23803806125e2833981810160405261012081101561003957600080fd5b508051602082015160408301516060840151608085015160a086015160c087015160e08801516101009098015160016000908155979896979596949593949293919291610084610182565b600180546001600160a01b0319166001600160a01b038316908117909155604051919250906000907f8be0079c531659141344cd1fd0a4f28419497f9722a3daafe3b4186f6b6457e0908290a350600280546001600160a01b03199081166001600160a01b039a8b161782556008805482169b8b169b909b17909a5560068054600998909855600580548c16978b1697909717909655600380548b16958a1695909517909455600480548a169389169390931790925593909616939094169290921762ffffff60a01b1916600160a01b91840b62ffffff908116929092021762ffffff60b81b1916600160b81b9490930b1692909202179055610186565b3390565b61244d806101956000396000f3fe608060405234801561001057600080fd5b50600436106101da5760003560e01c80635760f2e311610104578063a73bf6df116100a2578063e8b6824211610071578063e8b68242146105d3578063f2fde38b146105f9578063f47a396f1461061f578063f55ebd2a14610627576101da565b8063a73bf6df14610578578063b6b55f2514610580578063bce645db1461059d578063cbc7854e146105a5576101da565b80637b1f62b1116100de5780637b1f62b11461052c5780638760d8411461054b5780638da5cb5b146105535780639b1571371461055b576101da565b80635760f2e3146104f6578063715018a61461051c578063791b98bc14610524576101da565b806321e5e2c41161017c5780633ccfd60b1161014b5780633ccfd60b146104965780634452dfe11461049e5780634758af8a146104c8578063536bcb4c146104d0576101da565b806321e5e2c414610383578063347435bb146103a957806338266b221461041f578063393adedd14610470576101da565b8063150b7a02116101b8578063150b7a021461026e5780631a28126b1461031b5780631f1fcd51146103375780631ffd3dae1461035b576101da565b8063026c4207146101df5780630af99080146101f95780630e5c011e14610248575b600080fd5b6101e761062f565b60408051918252519081900360200190f35b6102166004803603602081101561020f57600080fd5b5035610635565b604080516001600160a01b03958616815293909416602084015282840191909152606082015290519081900360800190f35b6101e76004803603602081101561025e57600080fd5b50356001600160a01b03166107a4565b6102fe6004803603608081101561028457600080fd5b6001600160a01b038235811692602081013590911691604082013591908101906080810160608201356401000000008111156102bf57600080fd5b8201836020820111156102d157600080fd5b803590602001918460018302840111640100000000831117156102f357600080fd5b509092509050610848565b604080516001600160e01b03199092168252519081900360200190f35b610323610859565b604080519115158252519081900360200190f35b61033f61094b565b604080516001600160a01b039092168252519081900360200190f35b6103816004803603602081101561037157600080fd5b50356001600160a01b031661095a565b005b6101e76004803603602081101561039957600080fd5b50356001600160a01b0316610a2b565b6103cf600480360360208110156103bf57600080fd5b50356001600160a01b0316610a3d565b60408051602080825283518183015283519192839290830191858101910280838360005b8381101561040b5781810151838201526020016103f3565b505050509050019250505060405180910390f35b6104456004803603602081101561043557600080fd5b50356001600160a01b0316610d37565b6040805195865260208601949094528484019290925260608401526080830152519081900360a00190f35b6103816004803603602081101561048657600080fd5b50356001600160a01b0316610eff565b610381610fd0565b610381600480360360408110156104b457600080fd5b508035600290810b9160200135900b611215565b61033f611346565b6101e7600480360360208110156104e657600080fd5b50356001600160a01b0316611355565b6103816004803603602081101561050c57600080fd5b50356001600160a01b0316611367565b610381611438565b61033f6114e4565b6105346114f3565b6040805160029290920b8252519081900360200190f35b610534611503565b61033f611513565b6103816004803603602081101561057157600080fd5b5035611522565b61033f611589565b6103816004803603602081101561059657600080fd5b5035611598565b61033f611abc565b610381600480360360408110156105bb57600080fd5b506001600160a01b0381358116916020013516611acb565b610381600480360360208110156105e957600080fd5b50356001600160a01b0316611bf5565b6103816004803603602081101561060f57600080fd5b50356001600160a01b0316611cc6565b6101e7611dc9565b61033f611dcf565b600a5481565b6000806000806000806000806000600560009054906101000a90046001600160a01b03166001600160a01b03166399fbab888b6040518263ffffffff1660e01b8152600401808281526020019150506101806040518083038186803b15801561069d57600080fd5b505afa1580156106b1573d6000803e3d6000fd5b505050506040513d6101808110156106c857600080fd5b50604080820151606083015160a084015160c085015160e09095015160065485516334324e9f60e21b81529551949f50929d508e9a508d9950909750939550929350600092610774926001600160a01b039091169163d0c93a7c91600480820192602092909190829003018186803b15801561074357600080fd5b505afa158015610757573d6000803e3d6000fd5b505050506040513d602081101561076d57600080fd5b5051611dde565b90506107928161078386611dde565b61078c86611dde565b85612110565b9a9c999b509998975050505050505050565b60006107ae610859565b1561083f5760085460095460408051630c7e663b60e11b815260048101929092526001600160a01b03858116602484015290519216916318fccc76916044808201926020929091908290030181600087803b15801561080c57600080fd5b505af1158015610820573d6000803e3d6000fd5b505050506040513d602081101561083657600080fd5b50519050610843565b5060005b919050565b630a85bd0160e11b95945050505050565b600080600660009054906101000a90046001600160a01b03166001600160a01b0316633850c7bd6040518163ffffffff1660e01b815260040160e06040518083038186803b1580156108aa57600080fd5b505afa1580156108be573d6000803e3d6000fd5b505050506040513d60e08110156108d457600080fd5b50516006549091506000906108f290600160a01b900460020b611dde565b60065490915060009061090e90600160b81b900460020b611dde565b9050816001600160a01b0316836001600160a01b0316101580156109435750806001600160a01b0316836001600160a01b0316105b935050505090565b6002546001600160a01b031681565b6109626121ac565b6001600160a01b0316610973611513565b6001600160a01b0316146109bc576040805162461bcd60e51b815260206004820181905260248201526000805160206123f8833981519152604482015290519081900360640190fd5b6001600160a01b038116610a09576040805162461bcd60e51b815260206004820152600f60248201526e494e56414c49445f4144445245535360881b604482015290519081900360640190fd5b600880546001600160a01b0319166001600160a01b0392909216919091179055565b600b6020526000908152604090205481565b600554604080516370a0823160e01b81526001600160a01b038481166004830152915160609360009316916370a08231916024808301926020929190829003018186803b158015610a8d57600080fd5b505afa158015610aa1573d6000803e3d6000fd5b505050506040513d6020811015610ab757600080fd5b5051905060608167ffffffffffffffff81118015610ad457600080fd5b50604051908082528060200260200182016040528015610afe578160200160208202803683370190505b5090506000805b83811015610ca85760055460408051632f745c5960e01b81526001600160a01b0389811660048301526024820185905291516000939290921691632f745c5991604480820192602092909190829003018186803b158015610b6557600080fd5b505afa158015610b79573d6000803e3d6000fd5b505050506040513d6020811015610b8f57600080fd5b50516005546040805163133f757160e31b815260048101849052905192935060009283926001600160a01b0316916399fbab8891602480830192610180929190829003018186803b158015610be357600080fd5b505afa158015610bf7573d6000803e3d6000fd5b505050506040513d610180811015610c0e57600080fd5b50604081015160609091015160035491935091506001600160a01b038084169116148015610c4957506004546001600160a01b038281169116145b80610c7957506004546001600160a01b038381169116148015610c7957506003546001600160a01b038281169116145b15610c9d5782868681518110610c8b57fe5b60209081029190910101526001909401935b505050600101610b05565b5060608167ffffffffffffffff81118015610cc257600080fd5b50604051908082528060200260200182016040528015610cec578160200160208202803683370190505b50905060005b82811015610d2d57838181518110610d0657fe5b6020026020010151828281518110610d1a57fe5b6020908102919091010152600101610cf2565b5095945050505050565b6000806000806000610d47610859565b15610ed25760085460095460408051631069f3b560e01b815260048101929092526001600160a01b0389811660248401529051921691631069f3b591604480820192606092909190829003018186803b158015610da357600080fd5b505afa158015610db7573d6000803e3d6000fd5b505050506040513d6060811015610dcd57600080fd5b505160085460095460408051635e86cd9560e01b81526004810192909252519295506001600160a01b0390911691635e86cd9591602480820192602092909190829003018186803b158015610e2157600080fd5b505afa158015610e35573d6000803e3d6000fd5b505050506040513d6020811015610e4b57600080fd5b5051600854600954604080516324aa7cc560e11b81526004810192909252519296506001600160a01b0390911691634954f98a91602480820192602092909190829003018186803b158015610e9f57600080fd5b505afa158015610eb3573d6000803e3d6000fd5b505050506040513d6020811015610ec957600080fd5b50519450610edf565b6000925060009350600094505b5050600a5433600090815260076020526040902054939592945090929091565b610f076121ac565b6001600160a01b0316610f18611513565b6001600160a01b031614610f61576040805162461bcd60e51b815260206004820181905260248201526000805160206123f8833981519152604482015290519081900360640190fd5b6001600160a01b038116610fae576040805162461bcd60e51b815260206004820152600f60248201526e494e56414c49445f4144445245535360881b604482015290519081900360640190fd5b600280546001600160a01b0319166001600160a01b0392909216919091179055565b60026000541415611028576040805162461bcd60e51b815260206004820152601f60248201527f5265656e7472616e637947756172643a207265656e7472616e742063616c6c00604482015290519081900360640190fd5b600260009081553381526007602052604090205461108d576040805162461bcd60e51b815260206004820152601760248201527f4e4f5f544f4b454e5f49445f544f5f5749544844524157000000000000000000604482015290519081900360640190fd5b611096336107a4565b50336000908152600b602052604081208054919055600a546110b890826121b0565b600a5533600081815260076020526040808220546002548251632142170760e11b8152306004820152602481019590955260448501829052915190936001600160a01b03909216926342842e0e926064808201939182900301818387803b15801561112257600080fd5b505af1158015611136573d6000803e3d6000fd5b50503360008181526007602090815260408083208390556008546009548251638fb4e1cd60e01b81526004810191909152602481019590955290516001600160a01b039091169550638fb4e1cd9450604480850194929391928390030190829087803b1580156111a557600080fd5b505af11580156111b9573d6000803e3d6000fd5b505050506040513d60208110156111cf57600080fd5b5050604080513381526020810183905281517fccad973dcd043c7d680389db4378bd6b9775db7124092e9e0422c9e46d7985dc929181900390910190a150506001600055565b61121d6121ac565b6001600160a01b031661122e611513565b6001600160a01b031614611277576040805162461bcd60e51b815260206004820181905260248201526000805160206123f8833981519152604482015290519081900360640190fd5b60008260020b136112be576040805162461bcd60e51b815260206004820152600c60248201526b494e56414c49445f5449434b60a01b604482015290519081900360640190fd5b8160020b8160020b1215611308576040805162461bcd60e51b815260206004820152600c60248201526b494e56414c49445f5449434b60a01b604482015290519081900360640190fd5b60068054600292830b62ffffff908116600160b81b0262ffffff60b81b199590940b16600160a01b0262ffffff60a01b199091161792909216179055565b6004546001600160a01b031681565b60076020526000908152604090205481565b61136f6121ac565b6001600160a01b0316611380611513565b6001600160a01b0316146113c9576040805162461bcd60e51b815260206004820181905260248201526000805160206123f8833981519152604482015290519081900360640190fd5b6001600160a01b038116611416576040805162461bcd60e51b815260206004820152600f60248201526e494e56414c49445f4144445245535360881b604482015290519081900360640190fd5b600580546001600160a01b0319166001600160a01b0392909216919091179055565b6114406121ac565b6001600160a01b0316611451611513565b6001600160a01b03161461149a576040805162461bcd60e51b815260206004820181905260248201526000805160206123f8833981519152604482015290519081900360640190fd5b6001546040516000916001600160a01b0316907f8be0079c531659141344cd1fd0a4f28419497f9722a3daafe3b4186f6b6457e0908390a3600180546001600160a01b0319169055565b6005546001600160a01b031681565b600654600160b81b900460020b81565b600654600160a01b900460020b81565b6001546001600160a01b031690565b61152a6121ac565b6001600160a01b031661153b611513565b6001600160a01b031614611584576040805162461bcd60e51b815260206004820181905260248201526000805160206123f8833981519152604482015290519081900360640190fd5b600955565b6003546001600160a01b031681565b600260005414156115f0576040805162461bcd60e51b815260206004820152601f60248201527f5265656e7472616e637947756172643a207265656e7472616e742063616c6c00604482015290519081900360640190fd5b600260005580611637576040805162461bcd60e51b815260206004820152600d60248201526c1253959053125117d253941555609a1b604482015290519081900360640190fd5b600254604080516331a9108f60e11b815260048101849052905133926001600160a01b031691636352211e916024808301926020929190829003018186803b15801561168257600080fd5b505afa158015611696573d6000803e3d6000fd5b505050506040513d60208110156116ac57600080fd5b50516001600160a01b0316146116f9576040805162461bcd60e51b815260206004820152600d60248201526c1253959053125117d253941555609a1b604482015290519081900360640190fd5b3360009081526007602052604090205415611754576040805162461bcd60e51b81526020600482015260166024820152751391515117d5d2551211149055d7d513d2d15397d25160521b604482015290519081900360640190fd5b6000806000806000600560009054906101000a90046001600160a01b03166001600160a01b03166399fbab88876040518263ffffffff1660e01b8152600401808281526020019150506101806040518083038186803b1580156117b657600080fd5b505afa1580156117ca573d6000803e3d6000fd5b505050506040513d6101808110156117e157600080fd5b506040810151606082015160a083015160c084015160e0909401516006549399509197509550919350909150600160a01b9004600290810b810b9084900b128015906118405750600654600160b81b9004600290810b810b9083900b13155b611887576040805162461bcd60e51b8152602060048201526013602482015272494e56414c49445f50524943455f52414e474560681b604482015290519081900360640190fd5b6003546001600160a01b0386811691161480156118b157506004546001600160a01b038581169116145b806118e157506003546001600160a01b0385811691161480156118e157506004546001600160a01b038681169116145b611923576040805162461bcd60e51b815260206004820152600e60248201526d494e56414c49445f544f4b454e5360901b604482015290519081900360640190fd5b61192c336107a4565b5060025460408051632142170760e11b81523360048201523060248201526044810189905290516001600160a01b03909216916342842e0e9160648082019260009290919082900301818387803b15801561198657600080fd5b505af115801561199a573d6000803e3d6000fd5b50503360009081526007602090815260408083208b9055600b9091529020546001600160801b03841692506119d091508261220d565b336000908152600b6020526040902055600a546119ed908261220d565b600a5560085460095460408051638fb4e1cd60e01b81526004810192909252336024830152516001600160a01b0390921691638fb4e1cd916044808201926020929091908290030181600087803b158015611a4757600080fd5b505af1158015611a5b573d6000803e3d6000fd5b505050506040513d6020811015611a7157600080fd5b5050604080513381526020810189905281517f2bf9518c65eff7d1f3ee4106bf0dc41267ccde0924dbfa4ab476ed5c0f45da98929181900390910190a1505060016000555050505050565b6008546001600160a01b031681565b611ad36121ac565b6001600160a01b0316611ae4611513565b6001600160a01b031614611b2d576040805162461bcd60e51b815260206004820181905260248201526000805160206123f8833981519152604482015290519081900360640190fd5b6001600160a01b038216611b7a576040805162461bcd60e51b815260206004820152600f60248201526e494e56414c49445f4144445245535360881b604482015290519081900360640190fd5b6001600160a01b038116611bc7576040805162461bcd60e51b815260206004820152600f60248201526e494e56414c49445f4144445245535360881b604482015290519081900360640190fd5b600380546001600160a01b039384166001600160a01b03199182161790915560048054929093169116179055565b611bfd6121ac565b6001600160a01b0316611c0e611513565b6001600160a01b031614611c57576040805162461bcd60e51b815260206004820181905260248201526000805160206123f8833981519152604482015290519081900360640190fd5b6001600160a01b038116611ca4576040805162461bcd60e51b815260206004820152600f60248201526e494e56414c49445f4144445245535360881b604482015290519081900360640190fd5b600680546001600160a01b0319166001600160a01b0392909216919091179055565b611cce6121ac565b6001600160a01b0316611cdf611513565b6001600160a01b031614611d28576040805162461bcd60e51b815260206004820181905260248201526000805160206123f8833981519152604482015290519081900360640190fd5b6001600160a01b038116611d6d5760405162461bcd60e51b81526004018080602001828103825260268152602001806123d26026913960400191505060405180910390fd5b6001546040516001600160a01b038084169216907f8be0079c531659141344cd1fd0a4f28419497f9722a3daafe3b4186f6b6457e090600090a3600180546001600160a01b0319166001600160a01b0392909216919091179055565b60095481565b6006546001600160a01b031681565b60008060008360020b12611df5578260020b611dfd565b8260020b6000035b9050620d89e8811115611e3b576040805162461bcd60e51b81526020600482015260016024820152601560fa1b604482015290519081900360640190fd5b600060018216611e4f57600160801b611e61565b6ffffcb933bd6fad37aa2d162d1a5940015b70ffffffffffffffffffffffffffffffffff1690506002821615611e95576ffff97272373d413259a46990580e213a0260801c5b6004821615611eb4576ffff2e50f5f656932ef12357cf3c7fdcc0260801c5b6008821615611ed3576fffe5caca7e10e4e61c3624eaa0941cd00260801c5b6010821615611ef2576fffcb9843d60f6159c9db58835c9266440260801c5b6020821615611f11576fff973b41fa98c081472e6896dfb254c00260801c5b6040821615611f30576fff2ea16466c96a3843ec78b326b528610260801c5b6080821615611f4f576ffe5dee046a99a2a811c461f1969c30530260801c5b610100821615611f6f576ffcbe86c7900a88aedcffc83b479aa3a40260801c5b610200821615611f8f576ff987a7253ac413176f2b074cf7815e540260801c5b610400821615611faf576ff3392b0822b70005940c7a398e4b70f30260801c5b610800821615611fcf576fe7159475a2c29b7443b29c7fa6e889d90260801c5b611000821615611fef576fd097f3bdfd2022b8845ad8f792aa58250260801c5b61200082161561200f576fa9f746462d870fdf8a65dc1f90e061e50260801c5b61400082161561202f576f70d869a156d2a1b890bb3df62baf32f70260801c5b61800082161561204f576f31be135f97d08fd981231505542fcfa60260801c5b62010000821615612070576f09aa508b5b7a84e1c677de54f3e99bc90260801c5b62020000821615612090576e5d6af8dedb81196699c329225ee6040260801c5b620400008216156120af576d2216e584f5fa1ea926041bedfe980260801c5b620800008216156120cc576b048a170391f7dc42444e8fa20260801c5b60008460020b13156120e75780600019816120e357fe5b0490505b6401000000008106156120fb5760016120fe565b60005b60ff16602082901c0192505050919050565b600080836001600160a01b0316856001600160a01b03161115612131579293925b846001600160a01b0316866001600160a01b03161161215c5761215585858561226e565b91506121a3565b836001600160a01b0316866001600160a01b031610156121955761218186858561226e565b915061218e8587856122d7565b90506121a3565b6121a08585856122d7565b90505b94509492505050565b3390565b600082821115612207576040805162461bcd60e51b815260206004820152601e60248201527f536166654d6174683a207375627472616374696f6e206f766572666c6f770000604482015290519081900360640190fd5b50900390565b600082820183811015612267576040805162461bcd60e51b815260206004820152601b60248201527f536166654d6174683a206164646974696f6e206f766572666c6f770000000000604482015290519081900360640190fd5b9392505050565b6000826001600160a01b0316846001600160a01b0316111561228e579192915b836001600160a01b03166122c7606060ff16846001600160801b0316901b8686036001600160a01b0316866001600160a01b0316612322565b816122ce57fe5b04949350505050565b6000826001600160a01b0316846001600160a01b031611156122f7579192915b61231a826001600160801b03168585036001600160a01b0316600160601b612322565b949350505050565b6000808060001985870986860292508281109083900303905080612358576000841161234d57600080fd5b508290049050612267565b80841161236457600080fd5b6000848688096000868103871696879004966002600389028118808a02820302808a02820302808a02820302808a02820302808a02820302808a0290910302918190038190046001018684119095039490940291909403929092049190911791909102915050939250505056fe4f776e61626c653a206e6577206f776e657220697320746865207a65726f20616464726573734f776e61626c653a2063616c6c6572206973206e6f7420746865206f776e6572a2646970667358221220df7f987a1b070e63d5d4872d341e9099dac9b6c95816bec8a5cfbdba6581418864736f6c63430007050033",
  "immutableReferences": {},
  "source": "// SPDX-License-Identifier: MIT\r\npragma solidity >=0.7.0;\r\n\r\nimport \"@openzeppelin/contracts/math/SafeMath.sol\";\r\nimport \"@openzeppelin/contracts/access/Ownable.sol\";\r\nimport \"@openzeppelin/contracts/token/ERC721/IERC721.sol\";\r\nimport \"@openzeppelin/contracts/token/ERC721/IERC721Receiver.sol\";\r\nimport \"@openzeppelin/contracts/utils/ReentrancyGuard.sol\";\r\nimport \"@uniswap/v3-periphery/contracts/interfaces/INonfungiblePositionManager.sol\";\r\nimport \"@uniswap/v3-core/contracts/interfaces/IUniswapV3Pool.sol\";\r\nimport \"@uniswap/v3-core/contracts/libraries/TickMath.sol\";\r\nimport \"@uniswap/v3-periphery/contracts/libraries/LiquidityAmounts.sol\";\r\n\r\nimport './interfaces/IGarbiMining.sol';\r\n\r\ncontract GarbiFarmUniV3 is IERC721Receiver, ReentrancyGuard, Ownable {\r\n    using SafeMath for uint256;\r\n    \r\n    IERC721 public want; // GRBWETH UNI V3 NFT\r\n\r\n    address public poolToken0; //GRB\r\n    address public poolToken1; //WETH\r\n\r\n    INonfungiblePositionManager public positionManager;\r\n\r\n    IUniswapV3Pool public uniswapV3Pool;\r\n\r\n    int24 public poolTickLower;\r\n    int24 public poolTickUpper;\r\n    \r\n    mapping(address => uint256) public userInfoTokenId;\r\n\r\n    IGarbiMining public miningMachine;\r\n\r\n    uint256 public pidOfMining;\r\n    uint256 public totalShare = 0;\r\n    mapping(address => uint256) public shareOf;\r\n\r\n    event onDeposit(address _user, uint256 tokenId);\r\n    event onWithdraw(address _user, uint256 tokenId);\r\n\r\n    constructor(\r\n        IGarbiMining _miningMachine,\r\n        IERC721 _want,\r\n        address _uniswapV3Pool,\r\n        uint256 _pidOfMining,\r\n        address _positionManager,\r\n        address _token0,\r\n        address _token1,\r\n        int24 _tickLower, \r\n        int24 _tickUpper\r\n        ) {\r\n        want = _want;\r\n        miningMachine = _miningMachine;\r\n        uniswapV3Pool = IUniswapV3Pool(_uniswapV3Pool);\r\n        pidOfMining = _pidOfMining;\r\n        positionManager = INonfungiblePositionManager(_positionManager);\r\n        poolToken0 = _token0;\r\n        poolToken1 = _token1;\r\n        poolTickLower = _tickLower;\r\n        poolTickUpper = _tickUpper;\r\n    }\r\n\r\n    function setPoolTicks(int24 newTickLower, int24 newTickUpper) public onlyOwner \r\n    {\r\n        require(newTickLower > 0, \"INVALID_TICK\");\r\n        require(newTickUpper >= newTickLower, \"INVALID_TICK\");\r\n        poolTickLower = newTickLower;\r\n        poolTickUpper = newTickUpper;\r\n    }\r\n\r\n    function setUniswapV3Pool(address newAddress) public onlyOwner \r\n    {\r\n        require(newAddress != address(0), \"INVALID_ADDRESS\");\r\n        uniswapV3Pool = IUniswapV3Pool(newAddress);\r\n    }\r\n\r\n    function setTokens(address newToken0, address newToken1) public onlyOwner \r\n    {\r\n        require(newToken0 != address(0), \"INVALID_ADDRESS\");\r\n        require(newToken1 != address(0), \"INVALID_ADDRESS\");\r\n        poolToken0 = newToken0;\r\n        poolToken1 = newToken1;\r\n    }\r\n\r\n    function setPositionManager(address newAddress) public onlyOwner \r\n    {\r\n        require(newAddress != address(0), \"INVALID_ADDRESS\");\r\n        positionManager = INonfungiblePositionManager(newAddress);\r\n    }\r\n\r\n    function setMiningMachine(address newAddress) public onlyOwner \r\n    {\r\n        require(newAddress != address(0), \"INVALID_ADDRESS\");\r\n        miningMachine = IGarbiMining(newAddress);\r\n    }\r\n\r\n    function setWantToken(address newAddress) public onlyOwner\r\n    {\r\n        require(newAddress != address(0), \"INVALID_ADDRESS\");\r\n        want = IERC721(newAddress);\r\n    }\r\n\r\n    function setPidOfMining(uint256 newPidOfMining) public onlyOwner \r\n    {\r\n        pidOfMining = newPidOfMining;\r\n    }\r\n\r\n    function onERC721Received(\r\n        address,\r\n        address,\r\n        uint256,\r\n        bytes calldata\r\n    ) external pure override returns (bytes4) {\r\n        // Return the expected value to indicate that the transfer was handled successfully.\r\n        return this.onERC721Received.selector;\r\n    }\r\n\r\n    function deposit(uint256 tokenId) external nonReentrant \r\n    {\r\n        require(tokenId > 0, 'INVALID_INPUT');\r\n        require(want.ownerOf(tokenId) == msg.sender, 'INVALID_INPUT');\r\n        require(userInfoTokenId[msg.sender] == 0, 'NEED_WITHDRAW_TOKEN_ID');\r\n        (, , address token0, address token1, , int24 tickLower , int24 tickUpper , uint128 liquidity, , , , ) = positionManager.positions(tokenId);\r\n        require(tickLower >= poolTickLower && tickUpper <= poolTickUpper, 'INVALID_PRICE_RANGE');\r\n        require((poolToken0 == token0 && poolToken1 == token1) || (poolToken0 == token1 && poolToken1 == token0), 'INVALID_TOKENS');\r\n\r\n        harvest(msg.sender);\r\n    \twant.safeTransferFrom(msg.sender, address(this), tokenId);\r\n        userInfoTokenId[msg.sender] = tokenId;\r\n        \r\n        uint256 wantAmt = liquidity;\r\n        shareOf[msg.sender] = shareOf[msg.sender].add(wantAmt);\r\n        totalShare = totalShare.add(wantAmt);\r\n        miningMachine.updateUser(pidOfMining, msg.sender);\r\n        emit onDeposit(msg.sender, tokenId);\r\n    }\r\n\r\n    function withdraw() external nonReentrant \r\n    {\r\n        require(userInfoTokenId[msg.sender] != 0, 'NO_TOKEN_ID_TO_WITHDRAW');\r\n        harvest(msg.sender);\r\n\r\n        uint256 _share = shareOf[msg.sender];\r\n        shareOf[msg.sender] = 0;\r\n        totalShare = totalShare.sub(_share);\r\n        \r\n        uint256 tokenId = userInfoTokenId[msg.sender];\r\n        want.safeTransferFrom(address(this), msg.sender, tokenId);\r\n        userInfoTokenId[msg.sender] = 0;\r\n\r\n        miningMachine.updateUser(pidOfMining, msg.sender);\r\n        emit onWithdraw(msg.sender, tokenId);\r\n    }\r\n\r\n    function harvest(address _user) public returns(uint256 _pendingVeGRB) {\r\n        if(isCurrentPriceInRange()) {\r\n            return miningMachine.harvest(pidOfMining, _user);\r\n        }\r\n        else {\r\n            return 0;\r\n        }\r\n    }\r\n\r\n    function isCurrentPriceInRange() public view returns (bool) {\r\n        // Get the current price (square root price) from the Uniswap v3 pool\r\n        (uint160 sqrtPriceX96, , , , , , ) = uniswapV3Pool.slot0();\r\n\r\n        // Convert the tickLower and tickUpper to their corresponding square root prices\r\n        uint160 sqrtPriceLowerX96 = TickMath.getSqrtRatioAtTick(poolTickLower);\r\n        uint160 sqrtPriceUpperX96 = TickMath.getSqrtRatioAtTick(poolTickUpper);\r\n\r\n        // Check if the current price is within the tick range\r\n        return sqrtPriceX96 >= sqrtPriceLowerX96 && sqrtPriceX96 < sqrtPriceUpperX96;\r\n    }\r\n\r\n    function getNFTTokensWithPair(address user) external view returns (uint256[] memory) {\r\n        uint256 tokenCount = positionManager.balanceOf(user);\r\n        uint256[] memory tokenIds = new uint256[](tokenCount);\r\n\r\n        uint256 validTokenCount = 0;\r\n        for (uint256 i = 0; i < tokenCount; i++) {\r\n            uint256 tokenId = positionManager.tokenOfOwnerByIndex(user, i);\r\n            (, , address nftToken0, address nftToken1, , , , , , , , ) = positionManager.positions(tokenId);\r\n\r\n            if ((nftToken0 == poolToken0 && nftToken1 == poolToken1) || (nftToken0 == poolToken1 && nftToken1 == poolToken0)) {\r\n                tokenIds[validTokenCount] = tokenId;\r\n                validTokenCount++;\r\n            }\r\n        }\r\n\r\n        uint256[] memory validTokenIds = new uint256[](validTokenCount);\r\n        for (uint256 i = 0; i < validTokenCount; i++) {\r\n            validTokenIds[i] = tokenIds[i];\r\n        }\r\n\r\n        return validTokenIds;\r\n    }\r\n\r\n    function getNFTTokenInfo(uint256 tokenId) external view returns(address token0, address token1, uint256 token0Amount, uint256 token1Amount) {\r\n        (, , address tokenAddress0, address tokenAddress1, , int24 tickLower , int24 tickUpper , uint128 liquidity, , , , ) = positionManager.positions(tokenId);\r\n        token0 = tokenAddress0;\r\n        token1 = tokenAddress1;\r\n        // Fetch token amounts using liquidity value\r\n        uint160 sqrtRatioX96 = TickMath.getSqrtRatioAtTick(uniswapV3Pool.tickSpacing());\r\n        (token0Amount, token1Amount) = LiquidityAmounts.getAmountsForLiquidity(\r\n            sqrtRatioX96,\r\n            TickMath.getSqrtRatioAtTick(tickLower),\r\n            TickMath.getSqrtRatioAtTick(tickUpper),\r\n            liquidity\r\n        );\r\n    }\r\n\r\n    function getData(\r\n        address _user\r\n    ) \r\n    public \r\n    view\r\n    returns(\r\n        uint256 miningSpeed_,\r\n        uint256 totalMintPerDay_, \r\n        uint256 userGRBPending_, \r\n        uint256 tvl_,\r\n        uint256 tokenId\r\n    ) {\r\n        if(isCurrentPriceInRange()) {\r\n            (userGRBPending_, , ) = miningMachine.getUserInfo(pidOfMining, _user);\r\n            totalMintPerDay_ = miningMachine.getTotalMintPerDayOf(pidOfMining);\r\n            miningSpeed_ = miningMachine.getMiningSpeedOf(pidOfMining);\r\n        }\r\n        else {\r\n            userGRBPending_ = 0;\r\n            totalMintPerDay_ = 0;\r\n            miningSpeed_ = 0;\r\n        }\r\n        \r\n        tvl_ = totalShare;\r\n        tokenId = userInfoTokenId[msg.sender];\r\n    } \r\n}",
  "sourcePath": "C:\\Users\\David\\Documents\\NetBeansProjects\\garbiprotocol.github.io\\garbi_contractsv7\\contracts\\GarbiFarmUniV3.sol",
  "compiler": {
    "name": "solc",
    "version": "0.7.5+commit.eb77ed08.Emscripten.clang"
  },
  "schemaVersion": "3.4.11",
  "updatedAt": "2023-03-24T04:54:59.701Z",
  "networkType": "ethereum",
  "devdoc": {
    "kind": "dev",
    "methods": {
      "owner()": {
        "details": "Returns the address of the current owner."
      },
      "renounceOwnership()": {
        "details": "Leaves the contract without owner. It will not be possible to call `onlyOwner` functions anymore. Can only be called by the current owner. NOTE: Renouncing ownership will leave the contract without an owner, thereby removing any functionality that is only available to the owner."
      },
      "transferOwnership(address)": {
        "details": "Transfers ownership of the contract to a new account (`newOwner`). Can only be called by the current owner."
      }
    },
    "version": 1
  },
  "userdoc": {
    "kind": "user",
    "methods": {},
    "version": 1
  }
}