{
	"contracts/PrivateSaleLaunch.sol": {
		"PrivateSaleLaunch": {
			"abi": [
				{
					"inputs": [
						{
							"internalType": "contract IERC20",
							"name": "_grb",
							"type": "address"
						},
						{
							"internalType": "contract IERC20",
							"name": "_usdc",
							"type": "address"
						}
					],
					"stateMutability": "nonpayable",
					"type": "constructor"
				},
				{
					"anonymous": false,
					"inputs": [
						{
							"indexed": false,
							"internalType": "address",
							"name": "_user",
							"type": "address"
						},
						{
							"indexed": false,
							"internalType": "uint256",
							"name": "_payAmt",
							"type": "uint256"
						},
						{
							"indexed": false,
							"internalType": "uint256",
							"name": "_grbReceive",
							"type": "uint256"
						}
					],
					"name": "onBuy",
					"type": "event"
				},
				{
					"inputs": [],
					"name": "ENABLE",
					"outputs": [
						{
							"internalType": "bool",
							"name": "",
							"type": "bool"
						}
					],
					"stateMutability": "view",
					"type": "function"
				},
				{
					"inputs": [],
					"name": "GRB",
					"outputs": [
						{
							"internalType": "contract IERC20",
							"name": "",
							"type": "address"
						}
					],
					"stateMutability": "view",
					"type": "function"
				},
				{
					"inputs": [],
					"name": "HARD_CAP_PER_USER",
					"outputs": [
						{
							"internalType": "uint256",
							"name": "",
							"type": "uint256"
						}
					],
					"stateMutability": "view",
					"type": "function"
				},
				{
					"inputs": [],
					"name": "MIN_BUY",
					"outputs": [
						{
							"internalType": "uint256",
							"name": "",
							"type": "uint256"
						}
					],
					"stateMutability": "view",
					"type": "function"
				},
				{
					"inputs": [],
					"name": "SALE_TIME_PERIOD",
					"outputs": [
						{
							"internalType": "uint256",
							"name": "",
							"type": "uint256"
						}
					],
					"stateMutability": "view",
					"type": "function"
				},
				{
					"inputs": [],
					"name": "USDC",
					"outputs": [
						{
							"internalType": "contract IERC20",
							"name": "",
							"type": "address"
						}
					],
					"stateMutability": "view",
					"type": "function"
				},
				{
					"inputs": [],
					"name": "VERSION",
					"outputs": [
						{
							"internalType": "uint8",
							"name": "",
							"type": "uint8"
						}
					],
					"stateMutability": "view",
					"type": "function"
				},
				{
					"inputs": [
						{
							"internalType": "uint256",
							"name": "_payAmt",
							"type": "uint256"
						}
					],
					"name": "buy",
					"outputs": [],
					"stateMutability": "nonpayable",
					"type": "function"
				},
				{
					"inputs": [],
					"name": "disable",
					"outputs": [],
					"stateMutability": "nonpayable",
					"type": "function"
				},
				{
					"inputs": [],
					"name": "enable",
					"outputs": [],
					"stateMutability": "nonpayable",
					"type": "function"
				},
				{
					"inputs": [],
					"name": "endTime",
					"outputs": [
						{
							"internalType": "uint256",
							"name": "",
							"type": "uint256"
						}
					],
					"stateMutability": "view",
					"type": "function"
				},
				{
					"inputs": [
						{
							"internalType": "address",
							"name": "_user",
							"type": "address"
						}
					],
					"name": "getData",
					"outputs": [
						{
							"internalType": "uint256",
							"name": "uUSDCBal_",
							"type": "uint256"
						},
						{
							"internalType": "uint256",
							"name": "uMaxGrbBuy_",
							"type": "uint256"
						},
						{
							"internalType": "uint256",
							"name": "uMaxUSDCPay_",
							"type": "uint256"
						},
						{
							"internalType": "uint256",
							"name": "cUSDCBal_",
							"type": "uint256"
						},
						{
							"internalType": "uint256",
							"name": "totalSale_",
							"type": "uint256"
						},
						{
							"internalType": "uint256",
							"name": "salePrice_",
							"type": "uint256"
						},
						{
							"internalType": "uint256",
							"name": "totalPurchased_",
							"type": "uint256"
						},
						{
							"internalType": "uint256",
							"name": "allowed_",
							"type": "uint256"
						}
					],
					"stateMutability": "view",
					"type": "function"
				},
				{
					"inputs": [
						{
							"internalType": "address",
							"name": "_user",
							"type": "address"
						}
					],
					"name": "getMaxBuyOf",
					"outputs": [
						{
							"internalType": "uint256",
							"name": "",
							"type": "uint256"
						}
					],
					"stateMutability": "view",
					"type": "function"
				},
				{
					"inputs": [],
					"name": "getTotalSale",
					"outputs": [
						{
							"internalType": "uint256",
							"name": "",
							"type": "uint256"
						}
					],
					"stateMutability": "view",
					"type": "function"
				},
				{
					"inputs": [],
					"name": "getUSDCBalance",
					"outputs": [
						{
							"internalType": "uint256",
							"name": "",
							"type": "uint256"
						}
					],
					"stateMutability": "view",
					"type": "function"
				},
				{
					"inputs": [
						{
							"internalType": "contract IERC20",
							"name": "_token",
							"type": "address"
						}
					],
					"name": "moveFund",
					"outputs": [],
					"stateMutability": "nonpayable",
					"type": "function"
				},
				{
					"inputs": [],
					"name": "owner",
					"outputs": [
						{
							"internalType": "address",
							"name": "",
							"type": "address"
						}
					],
					"stateMutability": "view",
					"type": "function"
				},
				{
					"inputs": [],
					"name": "salePrice",
					"outputs": [
						{
							"internalType": "uint256",
							"name": "",
							"type": "uint256"
						}
					],
					"stateMutability": "view",
					"type": "function"
				},
				{
					"inputs": [
						{
							"internalType": "uint256",
							"name": "_value",
							"type": "uint256"
						}
					],
					"name": "setEndTime",
					"outputs": [],
					"stateMutability": "nonpayable",
					"type": "function"
				},
				{
					"inputs": [
						{
							"internalType": "contract IERC20",
							"name": "_grb",
							"type": "address"
						}
					],
					"name": "setGRBToken",
					"outputs": [],
					"stateMutability": "nonpayable",
					"type": "function"
				},
				{
					"inputs": [
						{
							"internalType": "uint256",
							"name": "_value",
							"type": "uint256"
						}
					],
					"name": "setHardCapPerUser",
					"outputs": [],
					"stateMutability": "nonpayable",
					"type": "function"
				},
				{
					"inputs": [
						{
							"internalType": "uint256",
							"name": "_value",
							"type": "uint256"
						}
					],
					"name": "setMinBuy",
					"outputs": [],
					"stateMutability": "nonpayable",
					"type": "function"
				},
				{
					"inputs": [
						{
							"internalType": "uint256",
							"name": "_value",
							"type": "uint256"
						}
					],
					"name": "setSalePrice",
					"outputs": [],
					"stateMutability": "nonpayable",
					"type": "function"
				},
				{
					"inputs": [
						{
							"internalType": "contract IERC20",
							"name": "_usdc",
							"type": "address"
						}
					],
					"name": "setUSDCToken",
					"outputs": [],
					"stateMutability": "nonpayable",
					"type": "function"
				},
				{
					"inputs": [
						{
							"internalType": "address",
							"name": "_user",
							"type": "address"
						},
						{
							"internalType": "uint8",
							"name": "_status",
							"type": "uint8"
						}
					],
					"name": "setWhiteList",
					"outputs": [],
					"stateMutability": "nonpayable",
					"type": "function"
				},
				{
					"inputs": [],
					"name": "start",
					"outputs": [],
					"stateMutability": "nonpayable",
					"type": "function"
				},
				{
					"inputs": [
						{
							"internalType": "address",
							"name": "",
							"type": "address"
						}
					],
					"name": "totalBoughtOf",
					"outputs": [
						{
							"internalType": "uint256",
							"name": "",
							"type": "uint256"
						}
					],
					"stateMutability": "view",
					"type": "function"
				},
				{
					"inputs": [],
					"name": "totalPurchased",
					"outputs": [
						{
							"internalType": "uint256",
							"name": "",
							"type": "uint256"
						}
					],
					"stateMutability": "view",
					"type": "function"
				},
				{
					"inputs": [
						{
							"internalType": "address",
							"name": "_newOwner",
							"type": "address"
						}
					],
					"name": "transferOwnership",
					"outputs": [],
					"stateMutability": "nonpayable",
					"type": "function"
				},
				{
					"inputs": [
						{
							"internalType": "address",
							"name": "",
							"type": "address"
						}
					],
					"name": "whiteListed",
					"outputs": [
						{
							"internalType": "bool",
							"name": "",
							"type": "bool"
						}
					],
					"stateMutability": "view",
					"type": "function"
				},
				{
					"stateMutability": "payable",
					"type": "receive"
				}
			],
			"devdoc": {
				"kind": "dev",
				"methods": {},
				"version": 1
			},
			"evm": {
				"assembly": "    /* \"contracts/PrivateSaleLaunch.sol\":8496:13925  contract PrivateSaleLaunch {... */\n  mstore(0x40, 0x80)\n    /* \"contracts/PrivateSaleLaunch.sol\":8552:8555  100 */\n  0x64\n    /* \"contracts/PrivateSaleLaunch.sol\":8529:8555  uint8 public VERSION = 100 */\n  0x00\n  dup1\n  0x0100\n  exp\n  dup2\n  sload\n  dup2\n  0xff\n  mul\n  not\n  and\n  swap1\n  dup4\n  0xff\n  and\n  mul\n  or\n  swap1\n  sstore\n  pop\n    /* \"contracts/PrivateSaleLaunch.sol\":8702:8709  4 * 1e4 */\n  0x9c40\n    /* \"contracts/PrivateSaleLaunch.sol\":8675:8709  uint256 public salePrice = 4 * 1e4 */\n  0x03\n  sstore\n    /* \"contracts/PrivateSaleLaunch.sol\":8829:8830  0 */\n  0x00\n    /* \"contracts/PrivateSaleLaunch.sol\":8797:8830  uint256 public totalPurchased = 0 */\n  0x04\n  sstore\n    /* \"contracts/PrivateSaleLaunch.sol\":8861:8862  0 */\n  0x00\n    /* \"contracts/PrivateSaleLaunch.sol\":8836:8862  uint256 public endTime = 0 */\n  0x05\n  sstore\n    /* \"contracts/PrivateSaleLaunch.sol\":8890:8895  false */\n  0x00\n    /* \"contracts/PrivateSaleLaunch.sol\":8869:8895  bool public ENABLE = false */\n  0x06\n  exp(0x0100, 0x00)\n  dup2\n  sload\n  dup2\n  0xff\n  mul\n  not\n  and\n  swap1\n  dup4\n  iszero\n  iszero\n  mul\n  or\n  swap1\n  sstore\n  pop\n    /* \"contracts/PrivateSaleLaunch.sol\":8940:8951  1250 * 1e18 */\n  0x43c33c193756480000\n    /* \"contracts/PrivateSaleLaunch.sol\":8905:8951  uint256 public HARD_CAP_PER_USER = 1250 * 1e18 */\n  0x07\n  sstore\n    /* \"contracts/PrivateSaleLaunch.sol\":8989:8999  750 * 1e18 */\n  0x28a857425466f80000\n    /* \"contracts/PrivateSaleLaunch.sol\":8964:8999  uint256 public MIN_BUY = 750 * 1e18 */\n  0x08\n  sstore\n    /* \"contracts/PrivateSaleLaunch.sol\":9046:9057  2 * 60 * 60 */\n  0x1c20\n    /* \"contracts/PrivateSaleLaunch.sol\":9012:9057  uint256 public SALE_TIME_PERIOD = 2 * 60 * 60 */\n  0x09\n  sstore\n    /* \"contracts/PrivateSaleLaunch.sol\":9472:9611  constructor(... */\n  callvalue\n  dup1\n  iszero\n  tag_1\n  jumpi\n  0x00\n  dup1\n  revert\ntag_1:\n  pop\n  mload(0x40)\n  sub(codesize, bytecodeSize)\n  dup1\n  bytecodeSize\n  dup4\n  codecopy\n  dup2\n  dup2\n  add\n  0x40\n  mstore\n  dup2\n  add\n  swap1\n  tag_2\n  swap2\n  swap1\n  tag_3\n  jump\t// in\ntag_2:\n    /* \"contracts/PrivateSaleLaunch.sol\":9549:9553  _grb */\n  dup2\n    /* \"contracts/PrivateSaleLaunch.sol\":9543:9546  GRB */\n  0x01\n  0x00\n    /* \"contracts/PrivateSaleLaunch.sol\":9543:9553  GRB = _grb */\n  0x0100\n  exp\n  dup2\n  sload\n  dup2\n  0xffffffffffffffffffffffffffffffffffffffff\n  mul\n  not\n  and\n  swap1\n  dup4\n  0xffffffffffffffffffffffffffffffffffffffff\n  and\n  mul\n  or\n  swap1\n  sstore\n  pop\n    /* \"contracts/PrivateSaleLaunch.sol\":9570:9575  _usdc */\n  dup1\n    /* \"contracts/PrivateSaleLaunch.sol\":9563:9567  USDC */\n  0x02\n  0x00\n    /* \"contracts/PrivateSaleLaunch.sol\":9563:9575  USDC = _usdc */\n  0x0100\n  exp\n  dup2\n  sload\n  dup2\n  0xffffffffffffffffffffffffffffffffffffffff\n  mul\n  not\n  and\n  swap1\n  dup4\n  0xffffffffffffffffffffffffffffffffffffffff\n  and\n  mul\n  or\n  swap1\n  sstore\n  pop\n    /* \"contracts/PrivateSaleLaunch.sol\":9594:9604  msg.sender */\n  caller\n    /* \"contracts/PrivateSaleLaunch.sol\":9586:9591  owner */\n  0x00\n  0x01\n    /* \"contracts/PrivateSaleLaunch.sol\":9586:9604  owner = msg.sender */\n  0x0100\n  exp\n  dup2\n  sload\n  dup2\n  0xffffffffffffffffffffffffffffffffffffffff\n  mul\n  not\n  and\n  swap1\n  dup4\n  0xffffffffffffffffffffffffffffffffffffffff\n  and\n  mul\n  or\n  swap1\n  sstore\n  pop\n    /* \"contracts/PrivateSaleLaunch.sol\":9472:9611  constructor(... */\n  pop\n  pop\n    /* \"contracts/PrivateSaleLaunch.sol\":8496:13925  contract PrivateSaleLaunch {... */\n  jump(tag_6)\n    /* \"#utility.yul\":7:178   */\ntag_8:\n    /* \"#utility.yul\":78:83   */\n  0x00\n    /* \"#utility.yul\":109:115   */\n  dup2\n    /* \"#utility.yul\":103:116   */\n  mload\n    /* \"#utility.yul\":94:116   */\n  swap1\n  pop\n    /* \"#utility.yul\":125:172   */\n  tag_10\n    /* \"#utility.yul\":166:171   */\n  dup2\n    /* \"#utility.yul\":125:172   */\n  tag_11\n  jump\t// in\ntag_10:\n    /* \"#utility.yul\":7:178   */\n  swap3\n  swap2\n  pop\n  pop\n  jump\t// out\n    /* \"#utility.yul\":184:747   */\ntag_3:\n    /* \"#utility.yul\":291:297   */\n  0x00\n    /* \"#utility.yul\":299:305   */\n  dup1\n    /* \"#utility.yul\":348:350   */\n  0x40\n    /* \"#utility.yul\":336:345   */\n  dup4\n    /* \"#utility.yul\":327:334   */\n  dup6\n    /* \"#utility.yul\":323:346   */\n  sub\n    /* \"#utility.yul\":319:351   */\n  slt\n    /* \"#utility.yul\":316:435   */\n  iszero\n  tag_13\n  jumpi\n    /* \"#utility.yul\":354:433   */\n  tag_14\n  tag_15\n  jump\t// in\ntag_14:\n    /* \"#utility.yul\":316:435   */\ntag_13:\n    /* \"#utility.yul\":474:475   */\n  0x00\n    /* \"#utility.yul\":499:577   */\n  tag_16\n    /* \"#utility.yul\":569:576   */\n  dup6\n    /* \"#utility.yul\":560:566   */\n  dup3\n    /* \"#utility.yul\":549:558   */\n  dup7\n    /* \"#utility.yul\":545:567   */\n  add\n    /* \"#utility.yul\":499:577   */\n  tag_8\n  jump\t// in\ntag_16:\n    /* \"#utility.yul\":489:577   */\n  swap3\n  pop\n    /* \"#utility.yul\":445:587   */\n  pop\n    /* \"#utility.yul\":626:628   */\n  0x20\n    /* \"#utility.yul\":652:730   */\n  tag_17\n    /* \"#utility.yul\":722:729   */\n  dup6\n    /* \"#utility.yul\":713:719   */\n  dup3\n    /* \"#utility.yul\":702:711   */\n  dup7\n    /* \"#utility.yul\":698:720   */\n  add\n    /* \"#utility.yul\":652:730   */\n  tag_8\n  jump\t// in\ntag_17:\n    /* \"#utility.yul\":642:730   */\n  swap2\n  pop\n    /* \"#utility.yul\":597:740   */\n  pop\n    /* \"#utility.yul\":184:747   */\n  swap3\n  pop\n  swap3\n  swap1\n  pop\n  jump\t// out\n    /* \"#utility.yul\":834:930   */\ntag_20:\n    /* \"#utility.yul\":871:878   */\n  0x00\n    /* \"#utility.yul\":900:924   */\n  tag_22\n    /* \"#utility.yul\":918:923   */\n  dup3\n    /* \"#utility.yul\":900:924   */\n  tag_23\n  jump\t// in\ntag_22:\n    /* \"#utility.yul\":889:924   */\n  swap1\n  pop\n    /* \"#utility.yul\":834:930   */\n  swap2\n  swap1\n  pop\n  jump\t// out\n    /* \"#utility.yul\":936:1046   */\ntag_24:\n    /* \"#utility.yul\":987:994   */\n  0x00\n    /* \"#utility.yul\":1016:1040   */\n  tag_26\n    /* \"#utility.yul\":1034:1039   */\n  dup3\n    /* \"#utility.yul\":1016:1040   */\n  tag_20\n  jump\t// in\ntag_26:\n    /* \"#utility.yul\":1005:1040   */\n  swap1\n  pop\n    /* \"#utility.yul\":936:1046   */\n  swap2\n  swap1\n  pop\n  jump\t// out\n    /* \"#utility.yul\":1052:1178   */\ntag_23:\n    /* \"#utility.yul\":1089:1096   */\n  0x00\n    /* \"#utility.yul\":1129:1171   */\n  0xffffffffffffffffffffffffffffffffffffffff\n    /* \"#utility.yul\":1122:1127   */\n  dup3\n    /* \"#utility.yul\":1118:1172   */\n  and\n    /* \"#utility.yul\":1107:1172   */\n  swap1\n  pop\n    /* \"#utility.yul\":1052:1178   */\n  swap2\n  swap1\n  pop\n  jump\t// out\n    /* \"#utility.yul\":1307:1424   */\ntag_15:\n    /* \"#utility.yul\":1416:1417   */\n  0x00\n    /* \"#utility.yul\":1413:1414   */\n  dup1\n    /* \"#utility.yul\":1406:1418   */\n  revert\n    /* \"#utility.yul\":1430:1580   */\ntag_11:\n    /* \"#utility.yul\":1517:1555   */\n  tag_32\n    /* \"#utility.yul\":1549:1554   */\n  dup2\n    /* \"#utility.yul\":1517:1555   */\n  tag_24\n  jump\t// in\ntag_32:\n    /* \"#utility.yul\":1510:1515   */\n  dup2\n    /* \"#utility.yul\":1507:1556   */\n  eq\n    /* \"#utility.yul\":1497:1574   */\n  tag_33\n  jumpi\n    /* \"#utility.yul\":1570:1571   */\n  0x00\n    /* \"#utility.yul\":1567:1568   */\n  dup1\n    /* \"#utility.yul\":1560:1572   */\n  revert\n    /* \"#utility.yul\":1497:1574   */\ntag_33:\n    /* \"#utility.yul\":1430:1580   */\n  pop\n  jump\t// out\n    /* \"contracts/PrivateSaleLaunch.sol\":8496:13925  contract PrivateSaleLaunch {... */\ntag_6:\n  dataSize(sub_0)\n  dup1\n  dataOffset(sub_0)\n  0x00\n  codecopy\n  0x00\n  return\nstop\n\nsub_0: assembly {\n        /* \"contracts/PrivateSaleLaunch.sol\":8496:13925  contract PrivateSaleLaunch {... */\n      mstore(0x40, 0x80)\n      jumpi(tag_1, lt(calldatasize, 0x04))\n      shr(0xe0, calldataload(0x00))\n      dup1\n      0x8da5cb5b\n      gt\n      tag_33\n      jumpi\n      dup1\n      0xbe9a6555\n      gt\n      tag_34\n      jumpi\n      dup1\n      0xf2fde38b\n      gt\n      tag_35\n      jumpi\n      dup1\n      0xf2fde38b\n      eq\n      tag_29\n      jumpi\n      dup1\n      0xf51f96dd\n      eq\n      tag_30\n      jumpi\n      dup1\n      0xfa0fca84\n      eq\n      tag_31\n      jumpi\n      dup1\n      0xffa1ad74\n      eq\n      tag_32\n      jumpi\n      jump(tag_2)\n    tag_35:\n      dup1\n      0xbe9a6555\n      eq\n      tag_25\n      jumpi\n      dup1\n      0xccb98ffc\n      eq\n      tag_26\n      jumpi\n      dup1\n      0xd96a094a\n      eq\n      tag_27\n      jumpi\n      dup1\n      0xe632c2f3\n      eq\n      tag_28\n      jumpi\n      jump(tag_2)\n    tag_34:\n      dup1\n      0xa2b0106b\n      gt\n      tag_36\n      jumpi\n      dup1\n      0xa2b0106b\n      eq\n      tag_21\n      jumpi\n      dup1\n      0xa3907d71\n      eq\n      tag_22\n      jumpi\n      dup1\n      0xb0176ce8\n      eq\n      tag_23\n      jumpi\n      dup1\n      0xbcaaf662\n      eq\n      tag_24\n      jumpi\n      jump(tag_2)\n    tag_36:\n      dup1\n      0x8da5cb5b\n      eq\n      tag_18\n      jumpi\n      dup1\n      0x90c8dd17\n      eq\n      tag_19\n      jumpi\n      dup1\n      0x92f6386a\n      eq\n      tag_20\n      jumpi\n      jump(tag_2)\n    tag_33:\n      dup1\n      0x3197cbb6\n      gt\n      tag_37\n      jumpi\n      dup1\n      0x3cfd1ccc\n      gt\n      tag_38\n      jumpi\n      dup1\n      0x3cfd1ccc\n      eq\n      tag_14\n      jumpi\n      dup1\n      0x50c19c0b\n      eq\n      tag_15\n      jumpi\n      dup1\n      0x860779e7\n      eq\n      tag_16\n      jumpi\n      dup1\n      0x89a30271\n      eq\n      tag_17\n      jumpi\n      jump(tag_2)\n    tag_38:\n      dup1\n      0x3197cbb6\n      eq\n      tag_10\n      jumpi\n      dup1\n      0x38266b22\n      eq\n      tag_11\n      jumpi\n      dup1\n      0x3af96b90\n      eq\n      tag_12\n      jumpi\n      dup1\n      0x3c6c26f9\n      eq\n      tag_13\n      jumpi\n      jump(tag_2)\n    tag_37:\n      dup1\n      0x1f2475bd\n      gt\n      tag_39\n      jumpi\n      dup1\n      0x1f2475bd\n      eq\n      tag_6\n      jumpi\n      dup1\n      0x247b9818\n      eq\n      tag_7\n      jumpi\n      dup1\n      0x2acfc3da\n      eq\n      tag_8\n      jumpi\n      dup1\n      0x2f2770db\n      eq\n      tag_9\n      jumpi\n      jump(tag_2)\n    tag_39:\n      dup1\n      0x0f5a9d01\n      eq\n      tag_3\n      jumpi\n      dup1\n      0x120edd96\n      eq\n      tag_4\n      jumpi\n      dup1\n      0x1919fed7\n      eq\n      tag_5\n      jumpi\n      jump(tag_2)\n    tag_1:\n      jumpi(tag_2, calldatasize)\n      stop\n    tag_2:\n      0x00\n      dup1\n      revert\n        /* \"contracts/PrivateSaleLaunch.sol\":10263:10411  function setUSDCToken(IERC20 _usdc) public onlyOwner {... */\n    tag_3:\n      callvalue\n      dup1\n      iszero\n      tag_42\n      jumpi\n      0x00\n      dup1\n      revert\n    tag_42:\n      pop\n      tag_43\n      0x04\n      dup1\n      calldatasize\n      sub\n      dup2\n      add\n      swap1\n      tag_44\n      swap2\n      swap1\n      tag_45\n      jump\t// in\n    tag_44:\n      tag_46\n      jump\t// in\n    tag_43:\n      stop\n        /* \"contracts/PrivateSaleLaunch.sol\":10513:10728  function setWhiteList(address _user, uint8 _status) public onlyOwner ... */\n    tag_4:\n      callvalue\n      dup1\n      iszero\n      tag_47\n      jumpi\n      0x00\n      dup1\n      revert\n    tag_47:\n      pop\n      tag_48\n      0x04\n      dup1\n      calldatasize\n      sub\n      dup2\n      add\n      swap1\n      tag_49\n      swap2\n      swap1\n      tag_50\n      jump\t// in\n    tag_49:\n      tag_51\n      jump\t// in\n    tag_48:\n      stop\n        /* \"contracts/PrivateSaleLaunch.sol\":10417:10508  function setSalePrice(uint256 _value) public onlyOwner {... */\n    tag_5:\n      callvalue\n      dup1\n      iszero\n      tag_52\n      jumpi\n      0x00\n      dup1\n      revert\n    tag_52:\n      pop\n      tag_53\n      0x04\n      dup1\n      calldatasize\n      sub\n      dup2\n      add\n      swap1\n      tag_54\n      swap2\n      swap1\n      tag_55\n      jump\t// in\n    tag_54:\n      tag_56\n      jump\t// in\n    tag_53:\n      stop\n        /* \"contracts/PrivateSaleLaunch.sol\":13168:13273  function getTotalSale() public view returns(uint256) {... */\n    tag_6:\n      callvalue\n      dup1\n      iszero\n      tag_57\n      jumpi\n      0x00\n      dup1\n      revert\n    tag_57:\n      pop\n      tag_58\n      tag_59\n      jump\t// in\n    tag_58:\n      mload(0x40)\n      tag_60\n      swap2\n      swap1\n      tag_61\n      jump\t// in\n    tag_60:\n      mload(0x40)\n      dup1\n      swap2\n      sub\n      swap1\n      return\n        /* \"contracts/PrivateSaleLaunch.sol\":9012:9057  uint256 public SALE_TIME_PERIOD = 2 * 60 * 60 */\n    tag_7:\n      callvalue\n      dup1\n      iszero\n      tag_62\n      jumpi\n      0x00\n      dup1\n      revert\n    tag_62:\n      pop\n      tag_63\n      tag_64\n      jump\t// in\n    tag_63:\n      mload(0x40)\n      tag_65\n      swap2\n      swap1\n      tag_61\n      jump\t// in\n    tag_65:\n      mload(0x40)\n      dup1\n      swap2\n      sub\n      swap1\n      return\n        /* \"contracts/PrivateSaleLaunch.sol\":10114:10257  function setGRBToken(IERC20 _grb) public onlyOwner {... */\n    tag_8:\n      callvalue\n      dup1\n      iszero\n      tag_66\n      jumpi\n      0x00\n      dup1\n      revert\n    tag_66:\n      pop\n      tag_67\n      0x04\n      dup1\n      calldatasize\n      sub\n      dup2\n      add\n      swap1\n      tag_68\n      swap2\n      swap1\n      tag_45\n      jump\t// in\n    tag_68:\n      tag_69\n      jump\t// in\n    tag_67:\n      stop\n        /* \"contracts/PrivateSaleLaunch.sol\":9722:9789  function disable() public onlyOwner {... */\n    tag_9:\n      callvalue\n      dup1\n      iszero\n      tag_70\n      jumpi\n      0x00\n      dup1\n      revert\n    tag_70:\n      pop\n      tag_71\n      tag_72\n      jump\t// in\n    tag_71:\n      stop\n        /* \"contracts/PrivateSaleLaunch.sol\":8836:8862  uint256 public endTime = 0 */\n    tag_10:\n      callvalue\n      dup1\n      iszero\n      tag_73\n      jumpi\n      0x00\n      dup1\n      revert\n    tag_73:\n      pop\n      tag_74\n      tag_75\n      jump\t// in\n    tag_74:\n      mload(0x40)\n      tag_76\n      swap2\n      swap1\n      tag_61\n      jump\t// in\n    tag_76:\n      mload(0x40)\n      dup1\n      swap2\n      sub\n      swap1\n      return\n        /* \"contracts/PrivateSaleLaunch.sol\":13278:13923  function getData(address _user) public view returns(... */\n    tag_11:\n      callvalue\n      dup1\n      iszero\n      tag_77\n      jumpi\n      0x00\n      dup1\n      revert\n    tag_77:\n      pop\n      tag_78\n      0x04\n      dup1\n      calldatasize\n      sub\n      dup2\n      add\n      swap1\n      tag_79\n      swap2\n      swap1\n      tag_80\n      jump\t// in\n    tag_79:\n      tag_81\n      jump\t// in\n    tag_78:\n      mload(0x40)\n      tag_82\n      swap9\n      swap8\n      swap7\n      swap6\n      swap5\n      swap4\n      swap3\n      swap2\n      swap1\n      tag_83\n      jump\t// in\n    tag_82:\n      mload(0x40)\n      dup1\n      swap2\n      sub\n      swap1\n      return\n        /* \"contracts/PrivateSaleLaunch.sol\":8964:8999  uint256 public MIN_BUY = 750 * 1e18 */\n    tag_12:\n      callvalue\n      dup1\n      iszero\n      tag_84\n      jumpi\n      0x00\n      dup1\n      revert\n    tag_84:\n      pop\n      tag_85\n      tag_86\n      jump\t// in\n    tag_85:\n      mload(0x40)\n      tag_87\n      swap2\n      swap1\n      tag_61\n      jump\t// in\n    tag_87:\n      mload(0x40)\n      dup1\n      swap2\n      sub\n      swap1\n      return\n        /* \"contracts/PrivateSaleLaunch.sol\":12385:12538  function moveFund(IERC20 _token) public onlyOwner {... */\n    tag_13:\n      callvalue\n      dup1\n      iszero\n      tag_88\n      jumpi\n      0x00\n      dup1\n      revert\n    tag_88:\n      pop\n      tag_89\n      0x04\n      dup1\n      calldatasize\n      sub\n      dup2\n      add\n      swap1\n      tag_90\n      swap2\n      swap1\n      tag_45\n      jump\t// in\n    tag_90:\n      tag_91\n      jump\t// in\n    tag_89:\n      stop\n        /* \"contracts/PrivateSaleLaunch.sol\":13055:13163  function getUSDCBalance() public view returns(uint256) {... */\n    tag_14:\n      callvalue\n      dup1\n      iszero\n      tag_92\n      jumpi\n      0x00\n      dup1\n      revert\n    tag_92:\n      pop\n      tag_93\n      tag_94\n      jump\t// in\n    tag_93:\n      mload(0x40)\n      tag_95\n      swap2\n      swap1\n      tag_61\n      jump\t// in\n    tag_95:\n      mload(0x40)\n      dup1\n      swap2\n      sub\n      swap1\n      return\n        /* \"contracts/PrivateSaleLaunch.sol\":8905:8951  uint256 public HARD_CAP_PER_USER = 1250 * 1e18 */\n    tag_15:\n      callvalue\n      dup1\n      iszero\n      tag_96\n      jumpi\n      0x00\n      dup1\n      revert\n    tag_96:\n      pop\n      tag_97\n      tag_98\n      jump\t// in\n    tag_97:\n      mload(0x40)\n      tag_99\n      swap2\n      swap1\n      tag_61\n      jump\t// in\n    tag_99:\n      mload(0x40)\n      dup1\n      swap2\n      sub\n      swap1\n      return\n        /* \"contracts/PrivateSaleLaunch.sol\":10843:10928  function setMinBuy(uint256 _value) public onlyOwner {... */\n    tag_16:\n      callvalue\n      dup1\n      iszero\n      tag_100\n      jumpi\n      0x00\n      dup1\n      revert\n    tag_100:\n      pop\n      tag_101\n      0x04\n      dup1\n      calldatasize\n      sub\n      dup2\n      add\n      swap1\n      tag_102\n      swap2\n      swap1\n      tag_55\n      jump\t// in\n    tag_102:\n      tag_103\n      jump\t// in\n    tag_101:\n      stop\n        /* \"contracts/PrivateSaleLaunch.sol\":8649:8667  IERC20 public USDC */\n    tag_17:\n      callvalue\n      dup1\n      iszero\n      tag_104\n      jumpi\n      0x00\n      dup1\n      revert\n    tag_104:\n      pop\n      tag_105\n      tag_106\n      jump\t// in\n    tag_105:\n      mload(0x40)\n      tag_107\n      swap2\n      swap1\n      tag_108\n      jump\t// in\n    tag_107:\n      mload(0x40)\n      dup1\n      swap2\n      sub\n      swap1\n      return\n        /* \"contracts/PrivateSaleLaunch.sol\":8598:8618  address public owner */\n    tag_18:\n      callvalue\n      dup1\n      iszero\n      tag_109\n      jumpi\n      0x00\n      dup1\n      revert\n    tag_109:\n      pop\n      tag_110\n      tag_111\n      jump\t// in\n    tag_110:\n      mload(0x40)\n      tag_112\n      swap2\n      swap1\n      tag_113\n      jump\t// in\n    tag_112:\n      mload(0x40)\n      dup1\n      swap2\n      sub\n      swap1\n      return\n        /* \"contracts/PrivateSaleLaunch.sol\":12543:13045  function getMaxBuyOf(address _user) public view returns(uint256) {... */\n    tag_19:\n      callvalue\n      dup1\n      iszero\n      tag_114\n      jumpi\n      0x00\n      dup1\n      revert\n    tag_114:\n      pop\n      tag_115\n      0x04\n      dup1\n      calldatasize\n      sub\n      dup2\n      add\n      swap1\n      tag_116\n      swap2\n      swap1\n      tag_80\n      jump\t// in\n    tag_116:\n      tag_117\n      jump\t// in\n    tag_115:\n      mload(0x40)\n      tag_118\n      swap2\n      swap1\n      tag_61\n      jump\t// in\n    tag_118:\n      mload(0x40)\n      dup1\n      swap2\n      sub\n      swap1\n      return\n        /* \"contracts/PrivateSaleLaunch.sol\":8869:8895  bool public ENABLE = false */\n    tag_20:\n      callvalue\n      dup1\n      iszero\n      tag_119\n      jumpi\n      0x00\n      dup1\n      revert\n    tag_119:\n      pop\n      tag_120\n      tag_121\n      jump\t// in\n    tag_120:\n      mload(0x40)\n      tag_122\n      swap2\n      swap1\n      tag_123\n      jump\t// in\n    tag_122:\n      mload(0x40)\n      dup1\n      swap2\n      sub\n      swap1\n      return\n        /* \"contracts/PrivateSaleLaunch.sol\":10734:10837  function setHardCapPerUser(uint256 _value) public onlyOwner {... */\n    tag_21:\n      callvalue\n      dup1\n      iszero\n      tag_124\n      jumpi\n      0x00\n      dup1\n      revert\n    tag_124:\n      pop\n      tag_125\n      0x04\n      dup1\n      calldatasize\n      sub\n      dup2\n      add\n      swap1\n      tag_126\n      swap2\n      swap1\n      tag_55\n      jump\t// in\n    tag_126:\n      tag_127\n      jump\t// in\n    tag_125:\n      stop\n        /* \"contracts/PrivateSaleLaunch.sol\":9652:9717  function enable() public onlyOwner {... */\n    tag_22:\n      callvalue\n      dup1\n      iszero\n      tag_128\n      jumpi\n      0x00\n      dup1\n      revert\n    tag_128:\n      pop\n      tag_129\n      tag_130\n      jump\t// in\n    tag_129:\n      stop\n        /* \"contracts/PrivateSaleLaunch.sol\":8625:8642  IERC20 public GRB */\n    tag_23:\n      callvalue\n      dup1\n      iszero\n      tag_131\n      jumpi\n      0x00\n      dup1\n      revert\n    tag_131:\n      pop\n      tag_132\n      tag_133\n      jump\t// in\n    tag_132:\n      mload(0x40)\n      tag_134\n      swap2\n      swap1\n      tag_108\n      jump\t// in\n    tag_134:\n      mload(0x40)\n      dup1\n      swap2\n      sub\n      swap1\n      return\n        /* \"contracts/PrivateSaleLaunch.sol\":9070:9118  mapping(address => uint256) public totalBoughtOf */\n    tag_24:\n      callvalue\n      dup1\n      iszero\n      tag_135\n      jumpi\n      0x00\n      dup1\n      revert\n    tag_135:\n      pop\n      tag_136\n      0x04\n      dup1\n      calldatasize\n      sub\n      dup2\n      add\n      swap1\n      tag_137\n      swap2\n      swap1\n      tag_80\n      jump\t// in\n    tag_137:\n      tag_138\n      jump\t// in\n    tag_136:\n      mload(0x40)\n      tag_139\n      swap2\n      swap1\n      tag_61\n      jump\t// in\n    tag_139:\n      mload(0x40)\n      dup1\n      swap2\n      sub\n      swap1\n      return\n        /* \"contracts/PrivateSaleLaunch.sol\":9897:10018  function start() public onlyOwner {... */\n    tag_25:\n      callvalue\n      dup1\n      iszero\n      tag_140\n      jumpi\n      0x00\n      dup1\n      revert\n    tag_140:\n      pop\n      tag_141\n      tag_142\n      jump\t// in\n    tag_141:\n      stop\n        /* \"contracts/PrivateSaleLaunch.sol\":10023:10109  function setEndTime(uint256 _value) public onlyOwner {... */\n    tag_26:\n      callvalue\n      dup1\n      iszero\n      tag_143\n      jumpi\n      0x00\n      dup1\n      revert\n    tag_143:\n      pop\n      tag_144\n      0x04\n      dup1\n      calldatasize\n      sub\n      dup2\n      add\n      swap1\n      tag_145\n      swap2\n      swap1\n      tag_55\n      jump\t// in\n    tag_145:\n      tag_146\n      jump\t// in\n    tag_144:\n      stop\n        /* \"contracts/PrivateSaleLaunch.sol\":10934:11991  function buy(uint256 _payAmt) public onlyWhitelisted {... */\n    tag_27:\n      callvalue\n      dup1\n      iszero\n      tag_147\n      jumpi\n      0x00\n      dup1\n      revert\n    tag_147:\n      pop\n      tag_148\n      0x04\n      dup1\n      calldatasize\n      sub\n      dup2\n      add\n      swap1\n      tag_149\n      swap2\n      swap1\n      tag_55\n      jump\t// in\n    tag_149:\n      tag_150\n      jump\t// in\n    tag_148:\n      stop\n        /* \"contracts/PrivateSaleLaunch.sol\":8797:8830  uint256 public totalPurchased = 0 */\n    tag_28:\n      callvalue\n      dup1\n      iszero\n      tag_151\n      jumpi\n      0x00\n      dup1\n      revert\n    tag_151:\n      pop\n      tag_152\n      tag_153\n      jump\t// in\n    tag_152:\n      mload(0x40)\n      tag_154\n      swap2\n      swap1\n      tag_61\n      jump\t// in\n    tag_154:\n      mload(0x40)\n      dup1\n      swap2\n      sub\n      swap1\n      return\n        /* \"contracts/PrivateSaleLaunch.sol\":9795:9892  function transferOwnership(address _newOwner) public onlyOwner {... */\n    tag_29:\n      callvalue\n      dup1\n      iszero\n      tag_155\n      jumpi\n      0x00\n      dup1\n      revert\n    tag_155:\n      pop\n      tag_156\n      0x04\n      dup1\n      calldatasize\n      sub\n      dup2\n      add\n      swap1\n      tag_157\n      swap2\n      swap1\n      tag_80\n      jump\t// in\n    tag_157:\n      tag_158\n      jump\t// in\n    tag_156:\n      stop\n        /* \"contracts/PrivateSaleLaunch.sol\":8675:8709  uint256 public salePrice = 4 * 1e4 */\n    tag_30:\n      callvalue\n      dup1\n      iszero\n      tag_159\n      jumpi\n      0x00\n      dup1\n      revert\n    tag_159:\n      pop\n      tag_160\n      tag_161\n      jump\t// in\n    tag_160:\n      mload(0x40)\n      tag_162\n      swap2\n      swap1\n      tag_61\n      jump\t// in\n    tag_162:\n      mload(0x40)\n      dup1\n      swap2\n      sub\n      swap1\n      return\n        /* \"contracts/PrivateSaleLaunch.sol\":9124:9167  mapping(address => bool) public whiteListed */\n    tag_31:\n      callvalue\n      dup1\n      iszero\n      tag_163\n      jumpi\n      0x00\n      dup1\n      revert\n    tag_163:\n      pop\n      tag_164\n      0x04\n      dup1\n      calldatasize\n      sub\n      dup2\n      add\n      swap1\n      tag_165\n      swap2\n      swap1\n      tag_80\n      jump\t// in\n    tag_165:\n      tag_166\n      jump\t// in\n    tag_164:\n      mload(0x40)\n      tag_167\n      swap2\n      swap1\n      tag_123\n      jump\t// in\n    tag_167:\n      mload(0x40)\n      dup1\n      swap2\n      sub\n      swap1\n      return\n        /* \"contracts/PrivateSaleLaunch.sol\":8529:8555  uint8 public VERSION = 100 */\n    tag_32:\n      callvalue\n      dup1\n      iszero\n      tag_168\n      jumpi\n      0x00\n      dup1\n      revert\n    tag_168:\n      pop\n      tag_169\n      tag_170\n      jump\t// in\n    tag_169:\n      mload(0x40)\n      tag_171\n      swap2\n      swap1\n      tag_172\n      jump\t// in\n    tag_171:\n      mload(0x40)\n      dup1\n      swap2\n      sub\n      swap1\n      return\n        /* \"contracts/PrivateSaleLaunch.sol\":10263:10411  function setUSDCToken(IERC20 _usdc) public onlyOwner {... */\n    tag_46:\n        /* \"contracts/PrivateSaleLaunch.sol\":9227:9232  owner */\n      0x00\n      0x01\n      swap1\n      sload\n      swap1\n      0x0100\n      exp\n      swap1\n      div\n      0xffffffffffffffffffffffffffffffffffffffff\n      and\n        /* \"contracts/PrivateSaleLaunch.sol\":9213:9232  msg.sender == owner */\n      0xffffffffffffffffffffffffffffffffffffffff\n      and\n        /* \"contracts/PrivateSaleLaunch.sol\":9213:9223  msg.sender */\n      caller\n        /* \"contracts/PrivateSaleLaunch.sol\":9213:9232  msg.sender == owner */\n      0xffffffffffffffffffffffffffffffffffffffff\n      and\n      eq\n        /* \"contracts/PrivateSaleLaunch.sol\":9205:9255  require(msg.sender == owner, \"INVALID_PERMISSION\") */\n      tag_174\n      jumpi\n      mload(0x40)\n      0x08c379a000000000000000000000000000000000000000000000000000000000\n      dup2\n      mstore\n      0x04\n      add\n      tag_175\n      swap1\n      tag_176\n      jump\t// in\n    tag_175:\n      mload(0x40)\n      dup1\n      swap2\n      sub\n      swap1\n      revert\n    tag_174:\n        /* \"contracts/PrivateSaleLaunch.sol\":10360:10361  0 */\n      0x00\n        /* \"contracts/PrivateSaleLaunch.sol\":10334:10362  address(_usdc) != address(0) */\n      0xffffffffffffffffffffffffffffffffffffffff\n      and\n        /* \"contracts/PrivateSaleLaunch.sol\":10342:10347  _usdc */\n      dup2\n        /* \"contracts/PrivateSaleLaunch.sol\":10334:10362  address(_usdc) != address(0) */\n      0xffffffffffffffffffffffffffffffffffffffff\n      and\n      eq\n      iszero\n        /* \"contracts/PrivateSaleLaunch.sol\":10326:10382  require(address(_usdc) != address(0), \"INVALID_ADDRESS\") */\n      tag_178\n      jumpi\n      mload(0x40)\n      0x08c379a000000000000000000000000000000000000000000000000000000000\n      dup2\n      mstore\n      0x04\n      add\n      tag_179\n      swap1\n      tag_180\n      jump\t// in\n    tag_179:\n      mload(0x40)\n      dup1\n      swap2\n      sub\n      swap1\n      revert\n    tag_178:\n        /* \"contracts/PrivateSaleLaunch.sol\":10399:10404  _usdc */\n      dup1\n        /* \"contracts/PrivateSaleLaunch.sol\":10392:10396  USDC */\n      0x02\n      0x00\n        /* \"contracts/PrivateSaleLaunch.sol\":10392:10404  USDC = _usdc */\n      0x0100\n      exp\n      dup2\n      sload\n      dup2\n      0xffffffffffffffffffffffffffffffffffffffff\n      mul\n      not\n      and\n      swap1\n      dup4\n      0xffffffffffffffffffffffffffffffffffffffff\n      and\n      mul\n      or\n      swap1\n      sstore\n      pop\n        /* \"contracts/PrivateSaleLaunch.sol\":10263:10411  function setUSDCToken(IERC20 _usdc) public onlyOwner {... */\n      pop\n      jump\t// out\n        /* \"contracts/PrivateSaleLaunch.sol\":10513:10728  function setWhiteList(address _user, uint8 _status) public onlyOwner ... */\n    tag_51:\n        /* \"contracts/PrivateSaleLaunch.sol\":9227:9232  owner */\n      0x00\n      0x01\n      swap1\n      sload\n      swap1\n      0x0100\n      exp\n      swap1\n      div\n      0xffffffffffffffffffffffffffffffffffffffff\n      and\n        /* \"contracts/PrivateSaleLaunch.sol\":9213:9232  msg.sender == owner */\n      0xffffffffffffffffffffffffffffffffffffffff\n      and\n        /* \"contracts/PrivateSaleLaunch.sol\":9213:9223  msg.sender */\n      caller\n        /* \"contracts/PrivateSaleLaunch.sol\":9213:9232  msg.sender == owner */\n      0xffffffffffffffffffffffffffffffffffffffff\n      and\n      eq\n        /* \"contracts/PrivateSaleLaunch.sol\":9205:9255  require(msg.sender == owner, \"INVALID_PERMISSION\") */\n      tag_182\n      jumpi\n      mload(0x40)\n      0x08c379a000000000000000000000000000000000000000000000000000000000\n      dup2\n      mstore\n      0x04\n      add\n      tag_183\n      swap1\n      tag_176\n      jump\t// in\n    tag_183:\n      mload(0x40)\n      dup1\n      swap2\n      sub\n      swap1\n      revert\n    tag_182:\n        /* \"contracts/PrivateSaleLaunch.sol\":10612:10613  1 */\n      0x01\n        /* \"contracts/PrivateSaleLaunch.sol\":10601:10608  _status */\n      dup2\n        /* \"contracts/PrivateSaleLaunch.sol\":10601:10613  _status == 1 */\n      0xff\n      and\n      eq\n        /* \"contracts/PrivateSaleLaunch.sol\":10597:10722  if (_status == 1) {... */\n      iszero\n      tag_185\n      jumpi\n        /* \"contracts/PrivateSaleLaunch.sol\":10650:10654  true */\n      0x01\n        /* \"contracts/PrivateSaleLaunch.sol\":10629:10640  whiteListed */\n      0x0b\n        /* \"contracts/PrivateSaleLaunch.sol\":10629:10647  whiteListed[_user] */\n      0x00\n        /* \"contracts/PrivateSaleLaunch.sol\":10641:10646  _user */\n      dup5\n        /* \"contracts/PrivateSaleLaunch.sol\":10629:10647  whiteListed[_user] */\n      0xffffffffffffffffffffffffffffffffffffffff\n      and\n      0xffffffffffffffffffffffffffffffffffffffff\n      and\n      dup2\n      mstore\n      0x20\n      add\n      swap1\n      dup2\n      mstore\n      0x20\n      add\n      0x00\n      keccak256\n      0x00\n        /* \"contracts/PrivateSaleLaunch.sol\":10629:10654  whiteListed[_user] = true */\n      0x0100\n      exp\n      dup2\n      sload\n      dup2\n      0xff\n      mul\n      not\n      and\n      swap1\n      dup4\n      iszero\n      iszero\n      mul\n      or\n      swap1\n      sstore\n      pop\n        /* \"contracts/PrivateSaleLaunch.sol\":10597:10722  if (_status == 1) {... */\n      jump(tag_186)\n    tag_185:\n        /* \"contracts/PrivateSaleLaunch.sol\":10706:10711  false */\n      0x00\n        /* \"contracts/PrivateSaleLaunch.sol\":10685:10696  whiteListed */\n      0x0b\n        /* \"contracts/PrivateSaleLaunch.sol\":10685:10703  whiteListed[_user] */\n      0x00\n        /* \"contracts/PrivateSaleLaunch.sol\":10697:10702  _user */\n      dup5\n        /* \"contracts/PrivateSaleLaunch.sol\":10685:10703  whiteListed[_user] */\n      0xffffffffffffffffffffffffffffffffffffffff\n      and\n      0xffffffffffffffffffffffffffffffffffffffff\n      and\n      dup2\n      mstore\n      0x20\n      add\n      swap1\n      dup2\n      mstore\n      0x20\n      add\n      0x00\n      keccak256\n      0x00\n        /* \"contracts/PrivateSaleLaunch.sol\":10685:10711  whiteListed[_user] = false */\n      0x0100\n      exp\n      dup2\n      sload\n      dup2\n      0xff\n      mul\n      not\n      and\n      swap1\n      dup4\n      iszero\n      iszero\n      mul\n      or\n      swap1\n      sstore\n      pop\n        /* \"contracts/PrivateSaleLaunch.sol\":10597:10722  if (_status == 1) {... */\n    tag_186:\n        /* \"contracts/PrivateSaleLaunch.sol\":10513:10728  function setWhiteList(address _user, uint8 _status) public onlyOwner ... */\n      pop\n      pop\n      jump\t// out\n        /* \"contracts/PrivateSaleLaunch.sol\":10417:10508  function setSalePrice(uint256 _value) public onlyOwner {... */\n    tag_56:\n        /* \"contracts/PrivateSaleLaunch.sol\":9227:9232  owner */\n      0x00\n      0x01\n      swap1\n      sload\n      swap1\n      0x0100\n      exp\n      swap1\n      div\n      0xffffffffffffffffffffffffffffffffffffffff\n      and\n        /* \"contracts/PrivateSaleLaunch.sol\":9213:9232  msg.sender == owner */\n      0xffffffffffffffffffffffffffffffffffffffff\n      and\n        /* \"contracts/PrivateSaleLaunch.sol\":9213:9223  msg.sender */\n      caller\n        /* \"contracts/PrivateSaleLaunch.sol\":9213:9232  msg.sender == owner */\n      0xffffffffffffffffffffffffffffffffffffffff\n      and\n      eq\n        /* \"contracts/PrivateSaleLaunch.sol\":9205:9255  require(msg.sender == owner, \"INVALID_PERMISSION\") */\n      tag_188\n      jumpi\n      mload(0x40)\n      0x08c379a000000000000000000000000000000000000000000000000000000000\n      dup2\n      mstore\n      0x04\n      add\n      tag_189\n      swap1\n      tag_176\n      jump\t// in\n    tag_189:\n      mload(0x40)\n      dup1\n      swap2\n      sub\n      swap1\n      revert\n    tag_188:\n        /* \"contracts/PrivateSaleLaunch.sol\":10494:10500  _value */\n      dup1\n        /* \"contracts/PrivateSaleLaunch.sol\":10482:10491  salePrice */\n      0x03\n        /* \"contracts/PrivateSaleLaunch.sol\":10482:10500  salePrice = _value */\n      dup2\n      swap1\n      sstore\n      pop\n        /* \"contracts/PrivateSaleLaunch.sol\":10417:10508  function setSalePrice(uint256 _value) public onlyOwner {... */\n      pop\n      jump\t// out\n        /* \"contracts/PrivateSaleLaunch.sol\":13168:13273  function getTotalSale() public view returns(uint256) {... */\n    tag_59:\n        /* \"contracts/PrivateSaleLaunch.sol\":13212:13219  uint256 */\n      0x00\n        /* \"contracts/PrivateSaleLaunch.sol\":13238:13241  GRB */\n      0x01\n      0x00\n      swap1\n      sload\n      swap1\n      0x0100\n      exp\n      swap1\n      div\n      0xffffffffffffffffffffffffffffffffffffffff\n      and\n        /* \"contracts/PrivateSaleLaunch.sol\":13238:13251  GRB.balanceOf */\n      0xffffffffffffffffffffffffffffffffffffffff\n      and\n      0x70a08231\n        /* \"contracts/PrivateSaleLaunch.sol\":13260:13264  this */\n      address\n        /* \"contracts/PrivateSaleLaunch.sol\":13238:13266  GRB.balanceOf(address(this)) */\n      mload(0x40)\n      dup3\n      0xffffffff\n      and\n      0xe0\n      shl\n      dup2\n      mstore\n      0x04\n      add\n      tag_192\n      swap2\n      swap1\n      tag_113\n      jump\t// in\n    tag_192:\n      0x20\n      mload(0x40)\n      dup1\n      dup4\n      sub\n      dup2\n      dup7\n      dup1\n      extcodesize\n      iszero\n      dup1\n      iszero\n      tag_193\n      jumpi\n      0x00\n      dup1\n      revert\n    tag_193:\n      pop\n      gas\n      staticcall\n      iszero\n      dup1\n      iszero\n      tag_195\n      jumpi\n      returndatasize\n      0x00\n      dup1\n      returndatacopy\n      revert(0x00, returndatasize)\n    tag_195:\n      pop\n      pop\n      pop\n      pop\n      mload(0x40)\n      returndatasize\n      not(0x1f)\n      0x1f\n      dup3\n      add\n      and\n      dup3\n      add\n      dup1\n      0x40\n      mstore\n      pop\n      dup2\n      add\n      swap1\n      tag_196\n      swap2\n      swap1\n      tag_197\n      jump\t// in\n    tag_196:\n        /* \"contracts/PrivateSaleLaunch.sol\":13231:13266  return GRB.balanceOf(address(this)) */\n      swap1\n      pop\n        /* \"contracts/PrivateSaleLaunch.sol\":13168:13273  function getTotalSale() public view returns(uint256) {... */\n      swap1\n      jump\t// out\n        /* \"contracts/PrivateSaleLaunch.sol\":9012:9057  uint256 public SALE_TIME_PERIOD = 2 * 60 * 60 */\n    tag_64:\n      sload(0x09)\n      dup2\n      jump\t// out\n        /* \"contracts/PrivateSaleLaunch.sol\":10114:10257  function setGRBToken(IERC20 _grb) public onlyOwner {... */\n    tag_69:\n        /* \"contracts/PrivateSaleLaunch.sol\":9227:9232  owner */\n      0x00\n      0x01\n      swap1\n      sload\n      swap1\n      0x0100\n      exp\n      swap1\n      div\n      0xffffffffffffffffffffffffffffffffffffffff\n      and\n        /* \"contracts/PrivateSaleLaunch.sol\":9213:9232  msg.sender == owner */\n      0xffffffffffffffffffffffffffffffffffffffff\n      and\n        /* \"contracts/PrivateSaleLaunch.sol\":9213:9223  msg.sender */\n      caller\n        /* \"contracts/PrivateSaleLaunch.sol\":9213:9232  msg.sender == owner */\n      0xffffffffffffffffffffffffffffffffffffffff\n      and\n      eq\n        /* \"contracts/PrivateSaleLaunch.sol\":9205:9255  require(msg.sender == owner, \"INVALID_PERMISSION\") */\n      tag_199\n      jumpi\n      mload(0x40)\n      0x08c379a000000000000000000000000000000000000000000000000000000000\n      dup2\n      mstore\n      0x04\n      add\n      tag_200\n      swap1\n      tag_176\n      jump\t// in\n    tag_200:\n      mload(0x40)\n      dup1\n      swap2\n      sub\n      swap1\n      revert\n    tag_199:\n        /* \"contracts/PrivateSaleLaunch.sol\":10208:10209  0 */\n      0x00\n        /* \"contracts/PrivateSaleLaunch.sol\":10183:10210  address(_grb) != address(0) */\n      0xffffffffffffffffffffffffffffffffffffffff\n      and\n        /* \"contracts/PrivateSaleLaunch.sol\":10191:10195  _grb */\n      dup2\n        /* \"contracts/PrivateSaleLaunch.sol\":10183:10210  address(_grb) != address(0) */\n      0xffffffffffffffffffffffffffffffffffffffff\n      and\n      eq\n      iszero\n        /* \"contracts/PrivateSaleLaunch.sol\":10175:10230  require(address(_grb) != address(0), \"INVALID_ADDRESS\") */\n      tag_202\n      jumpi\n      mload(0x40)\n      0x08c379a000000000000000000000000000000000000000000000000000000000\n      dup2\n      mstore\n      0x04\n      add\n      tag_203\n      swap1\n      tag_180\n      jump\t// in\n    tag_203:\n      mload(0x40)\n      dup1\n      swap2\n      sub\n      swap1\n      revert\n    tag_202:\n        /* \"contracts/PrivateSaleLaunch.sol\":10246:10250  _grb */\n      dup1\n        /* \"contracts/PrivateSaleLaunch.sol\":10240:10243  GRB */\n      0x01\n      0x00\n        /* \"contracts/PrivateSaleLaunch.sol\":10240:10250  GRB = _grb */\n      0x0100\n      exp\n      dup2\n      sload\n      dup2\n      0xffffffffffffffffffffffffffffffffffffffff\n      mul\n      not\n      and\n      swap1\n      dup4\n      0xffffffffffffffffffffffffffffffffffffffff\n      and\n      mul\n      or\n      swap1\n      sstore\n      pop\n        /* \"contracts/PrivateSaleLaunch.sol\":10114:10257  function setGRBToken(IERC20 _grb) public onlyOwner {... */\n      pop\n      jump\t// out\n        /* \"contracts/PrivateSaleLaunch.sol\":9722:9789  function disable() public onlyOwner {... */\n    tag_72:\n        /* \"contracts/PrivateSaleLaunch.sol\":9227:9232  owner */\n      0x00\n      0x01\n      swap1\n      sload\n      swap1\n      0x0100\n      exp\n      swap1\n      div\n      0xffffffffffffffffffffffffffffffffffffffff\n      and\n        /* \"contracts/PrivateSaleLaunch.sol\":9213:9232  msg.sender == owner */\n      0xffffffffffffffffffffffffffffffffffffffff\n      and\n        /* \"contracts/PrivateSaleLaunch.sol\":9213:9223  msg.sender */\n      caller\n        /* \"contracts/PrivateSaleLaunch.sol\":9213:9232  msg.sender == owner */\n      0xffffffffffffffffffffffffffffffffffffffff\n      and\n      eq\n        /* \"contracts/PrivateSaleLaunch.sol\":9205:9255  require(msg.sender == owner, \"INVALID_PERMISSION\") */\n      tag_205\n      jumpi\n      mload(0x40)\n      0x08c379a000000000000000000000000000000000000000000000000000000000\n      dup2\n      mstore\n      0x04\n      add\n      tag_206\n      swap1\n      tag_176\n      jump\t// in\n    tag_206:\n      mload(0x40)\n      dup1\n      swap2\n      sub\n      swap1\n      revert\n    tag_205:\n        /* \"contracts/PrivateSaleLaunch.sol\":9777:9782  false */\n      0x00\n        /* \"contracts/PrivateSaleLaunch.sol\":9768:9774  ENABLE */\n      0x06\n      0x00\n        /* \"contracts/PrivateSaleLaunch.sol\":9768:9782  ENABLE = false */\n      0x0100\n      exp\n      dup2\n      sload\n      dup2\n      0xff\n      mul\n      not\n      and\n      swap1\n      dup4\n      iszero\n      iszero\n      mul\n      or\n      swap1\n      sstore\n      pop\n        /* \"contracts/PrivateSaleLaunch.sol\":9722:9789  function disable() public onlyOwner {... */\n      jump\t// out\n        /* \"contracts/PrivateSaleLaunch.sol\":8836:8862  uint256 public endTime = 0 */\n    tag_75:\n      sload(0x05)\n      dup2\n      jump\t// out\n        /* \"contracts/PrivateSaleLaunch.sol\":13278:13923  function getData(address _user) public view returns(... */\n    tag_81:\n        /* \"contracts/PrivateSaleLaunch.sol\":13339:13356  uint256 uUSDCBal_ */\n      0x00\n        /* \"contracts/PrivateSaleLaunch.sol\":13366:13385  uint256 uMaxGrbBuy_ */\n      dup1\n        /* \"contracts/PrivateSaleLaunch.sol\":13395:13415  uint256 uMaxUSDCPay_ */\n      0x00\n        /* \"contracts/PrivateSaleLaunch.sol\":13425:13442  uint256 cUSDCBal_ */\n      dup1\n        /* \"contracts/PrivateSaleLaunch.sol\":13452:13470  uint256 totalSale_ */\n      0x00\n        /* \"contracts/PrivateSaleLaunch.sol\":13480:13498  uint256 salePrice_ */\n      dup1\n        /* \"contracts/PrivateSaleLaunch.sol\":13508:13531  uint256 totalPurchased_ */\n      0x00\n        /* \"contracts/PrivateSaleLaunch.sol\":13541:13557  uint256 allowed_ */\n      dup1\n        /* \"contracts/PrivateSaleLaunch.sol\":13586:13590  USDC */\n      0x02\n      0x00\n      swap1\n      sload\n      swap1\n      0x0100\n      exp\n      swap1\n      div\n      0xffffffffffffffffffffffffffffffffffffffff\n      and\n        /* \"contracts/PrivateSaleLaunch.sol\":13586:13600  USDC.balanceOf */\n      0xffffffffffffffffffffffffffffffffffffffff\n      and\n      0x70a08231\n        /* \"contracts/PrivateSaleLaunch.sol\":13601:13606  _user */\n      dup11\n        /* \"contracts/PrivateSaleLaunch.sol\":13586:13607  USDC.balanceOf(_user) */\n      mload(0x40)\n      dup3\n      0xffffffff\n      and\n      0xe0\n      shl\n      dup2\n      mstore\n      0x04\n      add\n      tag_209\n      swap2\n      swap1\n      tag_113\n      jump\t// in\n    tag_209:\n      0x20\n      mload(0x40)\n      dup1\n      dup4\n      sub\n      dup2\n      dup7\n      dup1\n      extcodesize\n      iszero\n      dup1\n      iszero\n      tag_210\n      jumpi\n      0x00\n      dup1\n      revert\n    tag_210:\n      pop\n      gas\n      staticcall\n      iszero\n      dup1\n      iszero\n      tag_212\n      jumpi\n      returndatasize\n      0x00\n      dup1\n      returndatacopy\n      revert(0x00, returndatasize)\n    tag_212:\n      pop\n      pop\n      pop\n      pop\n      mload(0x40)\n      returndatasize\n      not(0x1f)\n      0x1f\n      dup3\n      add\n      and\n      dup3\n      add\n      dup1\n      0x40\n      mstore\n      pop\n      dup2\n      add\n      swap1\n      tag_213\n      swap2\n      swap1\n      tag_197\n      jump\t// in\n    tag_213:\n        /* \"contracts/PrivateSaleLaunch.sol\":13574:13607  uUSDCBal_ = USDC.balanceOf(_user) */\n      swap8\n      pop\n        /* \"contracts/PrivateSaleLaunch.sol\":13631:13649  getMaxBuyOf(_user) */\n      tag_214\n        /* \"contracts/PrivateSaleLaunch.sol\":13643:13648  _user */\n      dup10\n        /* \"contracts/PrivateSaleLaunch.sol\":13631:13642  getMaxBuyOf */\n      tag_117\n        /* \"contracts/PrivateSaleLaunch.sol\":13631:13649  getMaxBuyOf(_user) */\n      jump\t// in\n    tag_214:\n        /* \"contracts/PrivateSaleLaunch.sol\":13617:13649  uMaxGrbBuy_ = getMaxBuyOf(_user) */\n      swap7\n      pop\n        /* \"contracts/PrivateSaleLaunch.sol\":13674:13710  uMaxGrbBuy_.mul(salePrice).div(1e18) */\n      tag_215\n        /* \"contracts/PrivateSaleLaunch.sol\":13705:13709  1e18 */\n      0x0de0b6b3a7640000\n        /* \"contracts/PrivateSaleLaunch.sol\":13674:13700  uMaxGrbBuy_.mul(salePrice) */\n      tag_216\n        /* \"contracts/PrivateSaleLaunch.sol\":13690:13699  salePrice */\n      sload(0x03)\n        /* \"contracts/PrivateSaleLaunch.sol\":13674:13685  uMaxGrbBuy_ */\n      dup11\n        /* \"contracts/PrivateSaleLaunch.sol\":13674:13689  uMaxGrbBuy_.mul */\n      tag_217\n      swap1\n        /* \"contracts/PrivateSaleLaunch.sol\":13674:13700  uMaxGrbBuy_.mul(salePrice) */\n      swap2\n      swap1\n      0xffffffff\n      and\n      jump\t// in\n    tag_216:\n        /* \"contracts/PrivateSaleLaunch.sol\":13674:13704  uMaxGrbBuy_.mul(salePrice).div */\n      tag_218\n      swap1\n        /* \"contracts/PrivateSaleLaunch.sol\":13674:13710  uMaxGrbBuy_.mul(salePrice).div(1e18) */\n      swap2\n      swap1\n      0xffffffff\n      and\n      jump\t// in\n    tag_215:\n        /* \"contracts/PrivateSaleLaunch.sol\":13659:13710  uMaxUSDCPay_ = uMaxGrbBuy_.mul(salePrice).div(1e18) */\n      swap6\n      pop\n        /* \"contracts/PrivateSaleLaunch.sol\":13732:13748  getUSDCBalance() */\n      tag_219\n        /* \"contracts/PrivateSaleLaunch.sol\":13732:13746  getUSDCBalance */\n      tag_94\n        /* \"contracts/PrivateSaleLaunch.sol\":13732:13748  getUSDCBalance() */\n      jump\t// in\n    tag_219:\n        /* \"contracts/PrivateSaleLaunch.sol\":13720:13748  cUSDCBal_ = getUSDCBalance() */\n      swap5\n      pop\n        /* \"contracts/PrivateSaleLaunch.sol\":13771:13785  getTotalSale() */\n      tag_220\n        /* \"contracts/PrivateSaleLaunch.sol\":13771:13783  getTotalSale */\n      tag_59\n        /* \"contracts/PrivateSaleLaunch.sol\":13771:13785  getTotalSale() */\n      jump\t// in\n    tag_220:\n        /* \"contracts/PrivateSaleLaunch.sol\":13758:13785  totalSale_ = getTotalSale() */\n      swap4\n      pop\n        /* \"contracts/PrivateSaleLaunch.sol\":13808:13817  salePrice */\n      sload(0x03)\n        /* \"contracts/PrivateSaleLaunch.sol\":13795:13817  salePrice_ = salePrice */\n      swap3\n      pop\n        /* \"contracts/PrivateSaleLaunch.sol\":13845:13859  totalPurchased */\n      sload(0x04)\n        /* \"contracts/PrivateSaleLaunch.sol\":13827:13859  totalPurchased_ = totalPurchased */\n      swap2\n      pop\n        /* \"contracts/PrivateSaleLaunch.sol\":13880:13884  USDC */\n      0x02\n      0x00\n      swap1\n      sload\n      swap1\n      0x0100\n      exp\n      swap1\n      div\n      0xffffffffffffffffffffffffffffffffffffffff\n      and\n        /* \"contracts/PrivateSaleLaunch.sol\":13880:13894  USDC.allowance */\n      0xffffffffffffffffffffffffffffffffffffffff\n      and\n      0xdd62ed3e\n        /* \"contracts/PrivateSaleLaunch.sol\":13895:13900  _user */\n      dup11\n        /* \"contracts/PrivateSaleLaunch.sol\":13910:13914  this */\n      address\n        /* \"contracts/PrivateSaleLaunch.sol\":13880:13916  USDC.allowance(_user, address(this)) */\n      mload(0x40)\n      dup4\n      0xffffffff\n      and\n      0xe0\n      shl\n      dup2\n      mstore\n      0x04\n      add\n      tag_221\n      swap3\n      swap2\n      swap1\n      tag_222\n      jump\t// in\n    tag_221:\n      0x20\n      mload(0x40)\n      dup1\n      dup4\n      sub\n      dup2\n      dup7\n      dup1\n      extcodesize\n      iszero\n      dup1\n      iszero\n      tag_223\n      jumpi\n      0x00\n      dup1\n      revert\n    tag_223:\n      pop\n      gas\n      staticcall\n      iszero\n      dup1\n      iszero\n      tag_225\n      jumpi\n      returndatasize\n      0x00\n      dup1\n      returndatacopy\n      revert(0x00, returndatasize)\n    tag_225:\n      pop\n      pop\n      pop\n      pop\n      mload(0x40)\n      returndatasize\n      not(0x1f)\n      0x1f\n      dup3\n      add\n      and\n      dup3\n      add\n      dup1\n      0x40\n      mstore\n      pop\n      dup2\n      add\n      swap1\n      tag_226\n      swap2\n      swap1\n      tag_197\n      jump\t// in\n    tag_226:\n        /* \"contracts/PrivateSaleLaunch.sol\":13869:13916  allowed_ = USDC.allowance(_user, address(this)) */\n      swap1\n      pop\n        /* \"contracts/PrivateSaleLaunch.sol\":13278:13923  function getData(address _user) public view returns(... */\n      swap2\n      swap4\n      swap6\n      swap8\n      pop\n      swap2\n      swap4\n      swap6\n      swap8\n      jump\t// out\n        /* \"contracts/PrivateSaleLaunch.sol\":8964:8999  uint256 public MIN_BUY = 750 * 1e18 */\n    tag_86:\n      sload(0x08)\n      dup2\n      jump\t// out\n        /* \"contracts/PrivateSaleLaunch.sol\":12385:12538  function moveFund(IERC20 _token) public onlyOwner {... */\n    tag_91:\n        /* \"contracts/PrivateSaleLaunch.sol\":9227:9232  owner */\n      0x00\n      0x01\n      swap1\n      sload\n      swap1\n      0x0100\n      exp\n      swap1\n      div\n      0xffffffffffffffffffffffffffffffffffffffff\n      and\n        /* \"contracts/PrivateSaleLaunch.sol\":9213:9232  msg.sender == owner */\n      0xffffffffffffffffffffffffffffffffffffffff\n      and\n        /* \"contracts/PrivateSaleLaunch.sol\":9213:9223  msg.sender */\n      caller\n        /* \"contracts/PrivateSaleLaunch.sol\":9213:9232  msg.sender == owner */\n      0xffffffffffffffffffffffffffffffffffffffff\n      and\n      eq\n        /* \"contracts/PrivateSaleLaunch.sol\":9205:9255  require(msg.sender == owner, \"INVALID_PERMISSION\") */\n      tag_228\n      jumpi\n      mload(0x40)\n      0x08c379a000000000000000000000000000000000000000000000000000000000\n      dup2\n      mstore\n      0x04\n      add\n      tag_229\n      swap1\n      tag_176\n      jump\t// in\n    tag_229:\n      mload(0x40)\n      dup1\n      swap2\n      sub\n      swap1\n      revert\n    tag_228:\n        /* \"contracts/PrivateSaleLaunch.sol\":12445:12458  uint256 _cBal */\n      0x00\n        /* \"contracts/PrivateSaleLaunch.sol\":12461:12467  _token */\n      dup2\n        /* \"contracts/PrivateSaleLaunch.sol\":12461:12477  _token.balanceOf */\n      0xffffffffffffffffffffffffffffffffffffffff\n      and\n      0x70a08231\n        /* \"contracts/PrivateSaleLaunch.sol\":12486:12490  this */\n      address\n        /* \"contracts/PrivateSaleLaunch.sol\":12461:12492  _token.balanceOf(address(this)) */\n      mload(0x40)\n      dup3\n      0xffffffff\n      and\n      0xe0\n      shl\n      dup2\n      mstore\n      0x04\n      add\n      tag_231\n      swap2\n      swap1\n      tag_113\n      jump\t// in\n    tag_231:\n      0x20\n      mload(0x40)\n      dup1\n      dup4\n      sub\n      dup2\n      dup7\n      dup1\n      extcodesize\n      iszero\n      dup1\n      iszero\n      tag_232\n      jumpi\n      0x00\n      dup1\n      revert\n    tag_232:\n      pop\n      gas\n      staticcall\n      iszero\n      dup1\n      iszero\n      tag_234\n      jumpi\n      returndatasize\n      0x00\n      dup1\n      returndatacopy\n      revert(0x00, returndatasize)\n    tag_234:\n      pop\n      pop\n      pop\n      pop\n      mload(0x40)\n      returndatasize\n      not(0x1f)\n      0x1f\n      dup3\n      add\n      and\n      dup3\n      add\n      dup1\n      0x40\n      mstore\n      pop\n      dup2\n      add\n      swap1\n      tag_235\n      swap2\n      swap1\n      tag_197\n      jump\t// in\n    tag_235:\n        /* \"contracts/PrivateSaleLaunch.sol\":12445:12492  uint256 _cBal = _token.balanceOf(address(this)) */\n      swap1\n      pop\n        /* \"contracts/PrivateSaleLaunch.sol\":12502:12508  _token */\n      dup2\n        /* \"contracts/PrivateSaleLaunch.sol\":12502:12517  _token.transfer */\n      0xffffffffffffffffffffffffffffffffffffffff\n      and\n      0xa9059cbb\n        /* \"contracts/PrivateSaleLaunch.sol\":12518:12523  owner */\n      0x00\n      0x01\n      swap1\n      sload\n      swap1\n      0x0100\n      exp\n      swap1\n      div\n      0xffffffffffffffffffffffffffffffffffffffff\n      and\n        /* \"contracts/PrivateSaleLaunch.sol\":12525:12530  _cBal */\n      dup4\n        /* \"contracts/PrivateSaleLaunch.sol\":12502:12531  _token.transfer(owner, _cBal) */\n      mload(0x40)\n      dup4\n      0xffffffff\n      and\n      0xe0\n      shl\n      dup2\n      mstore\n      0x04\n      add\n      tag_236\n      swap3\n      swap2\n      swap1\n      tag_237\n      jump\t// in\n    tag_236:\n      0x20\n      mload(0x40)\n      dup1\n      dup4\n      sub\n      dup2\n      0x00\n      dup8\n      dup1\n      extcodesize\n      iszero\n      dup1\n      iszero\n      tag_238\n      jumpi\n      0x00\n      dup1\n      revert\n    tag_238:\n      pop\n      gas\n      call\n      iszero\n      dup1\n      iszero\n      tag_240\n      jumpi\n      returndatasize\n      0x00\n      dup1\n      returndatacopy\n      revert(0x00, returndatasize)\n    tag_240:\n      pop\n      pop\n      pop\n      pop\n      mload(0x40)\n      returndatasize\n      not(0x1f)\n      0x1f\n      dup3\n      add\n      and\n      dup3\n      add\n      dup1\n      0x40\n      mstore\n      pop\n      dup2\n      add\n      swap1\n      tag_241\n      swap2\n      swap1\n      tag_242\n      jump\t// in\n    tag_241:\n      pop\n        /* \"contracts/PrivateSaleLaunch.sol\":12435:12538  {... */\n      pop\n        /* \"contracts/PrivateSaleLaunch.sol\":12385:12538  function moveFund(IERC20 _token) public onlyOwner {... */\n      pop\n      jump\t// out\n        /* \"contracts/PrivateSaleLaunch.sol\":13055:13163  function getUSDCBalance() public view returns(uint256) {... */\n    tag_94:\n        /* \"contracts/PrivateSaleLaunch.sol\":13101:13108  uint256 */\n      0x00\n        /* \"contracts/PrivateSaleLaunch.sol\":13127:13131  USDC */\n      0x02\n      0x00\n      swap1\n      sload\n      swap1\n      0x0100\n      exp\n      swap1\n      div\n      0xffffffffffffffffffffffffffffffffffffffff\n      and\n        /* \"contracts/PrivateSaleLaunch.sol\":13127:13141  USDC.balanceOf */\n      0xffffffffffffffffffffffffffffffffffffffff\n      and\n      0x70a08231\n        /* \"contracts/PrivateSaleLaunch.sol\":13150:13154  this */\n      address\n        /* \"contracts/PrivateSaleLaunch.sol\":13127:13156  USDC.balanceOf(address(this)) */\n      mload(0x40)\n      dup3\n      0xffffffff\n      and\n      0xe0\n      shl\n      dup2\n      mstore\n      0x04\n      add\n      tag_244\n      swap2\n      swap1\n      tag_113\n      jump\t// in\n    tag_244:\n      0x20\n      mload(0x40)\n      dup1\n      dup4\n      sub\n      dup2\n      dup7\n      dup1\n      extcodesize\n      iszero\n      dup1\n      iszero\n      tag_245\n      jumpi\n      0x00\n      dup1\n      revert\n    tag_245:\n      pop\n      gas\n      staticcall\n      iszero\n      dup1\n      iszero\n      tag_247\n      jumpi\n      returndatasize\n      0x00\n      dup1\n      returndatacopy\n      revert(0x00, returndatasize)\n    tag_247:\n      pop\n      pop\n      pop\n      pop\n      mload(0x40)\n      returndatasize\n      not(0x1f)\n      0x1f\n      dup3\n      add\n      and\n      dup3\n      add\n      dup1\n      0x40\n      mstore\n      pop\n      dup2\n      add\n      swap1\n      tag_248\n      swap2\n      swap1\n      tag_197\n      jump\t// in\n    tag_248:\n        /* \"contracts/PrivateSaleLaunch.sol\":13120:13156  return USDC.balanceOf(address(this)) */\n      swap1\n      pop\n        /* \"contracts/PrivateSaleLaunch.sol\":13055:13163  function getUSDCBalance() public view returns(uint256) {... */\n      swap1\n      jump\t// out\n        /* \"contracts/PrivateSaleLaunch.sol\":8905:8951  uint256 public HARD_CAP_PER_USER = 1250 * 1e18 */\n    tag_98:\n      sload(0x07)\n      dup2\n      jump\t// out\n        /* \"contracts/PrivateSaleLaunch.sol\":10843:10928  function setMinBuy(uint256 _value) public onlyOwner {... */\n    tag_103:\n        /* \"contracts/PrivateSaleLaunch.sol\":9227:9232  owner */\n      0x00\n      0x01\n      swap1\n      sload\n      swap1\n      0x0100\n      exp\n      swap1\n      div\n      0xffffffffffffffffffffffffffffffffffffffff\n      and\n        /* \"contracts/PrivateSaleLaunch.sol\":9213:9232  msg.sender == owner */\n      0xffffffffffffffffffffffffffffffffffffffff\n      and\n        /* \"contracts/PrivateSaleLaunch.sol\":9213:9223  msg.sender */\n      caller\n        /* \"contracts/PrivateSaleLaunch.sol\":9213:9232  msg.sender == owner */\n      0xffffffffffffffffffffffffffffffffffffffff\n      and\n      eq\n        /* \"contracts/PrivateSaleLaunch.sol\":9205:9255  require(msg.sender == owner, \"INVALID_PERMISSION\") */\n      tag_250\n      jumpi\n      mload(0x40)\n      0x08c379a000000000000000000000000000000000000000000000000000000000\n      dup2\n      mstore\n      0x04\n      add\n      tag_251\n      swap1\n      tag_176\n      jump\t// in\n    tag_251:\n      mload(0x40)\n      dup1\n      swap2\n      sub\n      swap1\n      revert\n    tag_250:\n        /* \"contracts/PrivateSaleLaunch.sol\":10915:10921  _value */\n      dup1\n        /* \"contracts/PrivateSaleLaunch.sol\":10905:10912  MIN_BUY */\n      0x08\n        /* \"contracts/PrivateSaleLaunch.sol\":10905:10921  MIN_BUY = _value */\n      dup2\n      swap1\n      sstore\n      pop\n        /* \"contracts/PrivateSaleLaunch.sol\":10843:10928  function setMinBuy(uint256 _value) public onlyOwner {... */\n      pop\n      jump\t// out\n        /* \"contracts/PrivateSaleLaunch.sol\":8649:8667  IERC20 public USDC */\n    tag_106:\n      0x02\n      0x00\n      swap1\n      sload\n      swap1\n      0x0100\n      exp\n      swap1\n      div\n      0xffffffffffffffffffffffffffffffffffffffff\n      and\n      dup2\n      jump\t// out\n        /* \"contracts/PrivateSaleLaunch.sol\":8598:8618  address public owner */\n    tag_111:\n      0x00\n      0x01\n      swap1\n      sload\n      swap1\n      0x0100\n      exp\n      swap1\n      div\n      0xffffffffffffffffffffffffffffffffffffffff\n      and\n      dup2\n      jump\t// out\n        /* \"contracts/PrivateSaleLaunch.sol\":12543:13045  function getMaxBuyOf(address _user) public view returns(uint256) {... */\n    tag_117:\n        /* \"contracts/PrivateSaleLaunch.sol\":12599:12606  uint256 */\n      0x00\n        /* \"contracts/PrivateSaleLaunch.sol\":12644:12649  false */\n      dup1\n        /* \"contracts/PrivateSaleLaunch.sol\":12622:12649  whiteListed[_user] == false */\n      iszero\n      iszero\n        /* \"contracts/PrivateSaleLaunch.sol\":12622:12633  whiteListed */\n      0x0b\n        /* \"contracts/PrivateSaleLaunch.sol\":12622:12640  whiteListed[_user] */\n      0x00\n        /* \"contracts/PrivateSaleLaunch.sol\":12634:12639  _user */\n      dup5\n        /* \"contracts/PrivateSaleLaunch.sol\":12622:12640  whiteListed[_user] */\n      0xffffffffffffffffffffffffffffffffffffffff\n      and\n      0xffffffffffffffffffffffffffffffffffffffff\n      and\n      dup2\n      mstore\n      0x20\n      add\n      swap1\n      dup2\n      mstore\n      0x20\n      add\n      0x00\n      keccak256\n      0x00\n      swap1\n      sload\n      swap1\n      0x0100\n      exp\n      swap1\n      div\n      0xff\n      and\n        /* \"contracts/PrivateSaleLaunch.sol\":12622:12649  whiteListed[_user] == false */\n      iszero\n      iszero\n      eq\n        /* \"contracts/PrivateSaleLaunch.sol\":12618:12659  if (whiteListed[_user] == false) return 0 */\n      iszero\n      tag_254\n      jumpi\n        /* \"contracts/PrivateSaleLaunch.sol\":12658:12659  0 */\n      0x00\n        /* \"contracts/PrivateSaleLaunch.sol\":12651:12659  return 0 */\n      swap1\n      pop\n      jump(tag_253)\n        /* \"contracts/PrivateSaleLaunch.sol\":12618:12659  if (whiteListed[_user] == false) return 0 */\n    tag_254:\n        /* \"contracts/PrivateSaleLaunch.sol\":12669:12687  uint256 _totalSale */\n      0x00\n        /* \"contracts/PrivateSaleLaunch.sol\":12690:12704  getTotalSale() */\n      tag_255\n        /* \"contracts/PrivateSaleLaunch.sol\":12690:12702  getTotalSale */\n      tag_59\n        /* \"contracts/PrivateSaleLaunch.sol\":12690:12704  getTotalSale() */\n      jump\t// in\n    tag_255:\n        /* \"contracts/PrivateSaleLaunch.sol\":12669:12704  uint256 _totalSale = getTotalSale() */\n      swap1\n      pop\n        /* \"contracts/PrivateSaleLaunch.sol\":12754:12755  0 */\n      0x00\n        /* \"contracts/PrivateSaleLaunch.sol\":12731:12744  totalBoughtOf */\n      0x0a\n        /* \"contracts/PrivateSaleLaunch.sol\":12731:12751  totalBoughtOf[_user] */\n      0x00\n        /* \"contracts/PrivateSaleLaunch.sol\":12745:12750  _user */\n      dup6\n        /* \"contracts/PrivateSaleLaunch.sol\":12731:12751  totalBoughtOf[_user] */\n      0xffffffffffffffffffffffffffffffffffffffff\n      and\n      0xffffffffffffffffffffffffffffffffffffffff\n      and\n      dup2\n      mstore\n      0x20\n      add\n      swap1\n      dup2\n      mstore\n      0x20\n      add\n      0x00\n      keccak256\n      sload\n        /* \"contracts/PrivateSaleLaunch.sol\":12731:12755  totalBoughtOf[_user] > 0 */\n      gt\n        /* \"contracts/PrivateSaleLaunch.sol\":12731:12786  totalBoughtOf[_user] > 0 ||... */\n      dup1\n      tag_256\n      jumpi\n      pop\n        /* \"contracts/PrivateSaleLaunch.sol\":12785:12786  0 */\n      0x00\n        /* \"contracts/PrivateSaleLaunch.sol\":12771:12781  _totalSale */\n      dup2\n        /* \"contracts/PrivateSaleLaunch.sol\":12771:12786  _totalSale <= 0 */\n      gt\n      iszero\n        /* \"contracts/PrivateSaleLaunch.sol\":12731:12786  totalBoughtOf[_user] > 0 ||... */\n    tag_256:\n        /* \"contracts/PrivateSaleLaunch.sol\":12731:12817  totalBoughtOf[_user] > 0 ||... */\n      dup1\n      tag_257\n      jumpi\n      pop\n        /* \"contracts/PrivateSaleLaunch.sol\":12812:12817  false */\n      0x00\n        /* \"contracts/PrivateSaleLaunch.sol\":12802:12817  ENABLE == false */\n      iszero\n      iszero\n        /* \"contracts/PrivateSaleLaunch.sol\":12802:12808  ENABLE */\n      0x06\n      0x00\n      swap1\n      sload\n      swap1\n      0x0100\n      exp\n      swap1\n      div\n      0xff\n      and\n        /* \"contracts/PrivateSaleLaunch.sol\":12802:12817  ENABLE == false */\n      iszero\n      iszero\n      eq\n        /* \"contracts/PrivateSaleLaunch.sol\":12731:12817  totalBoughtOf[_user] > 0 ||... */\n    tag_257:\n        /* \"contracts/PrivateSaleLaunch.sol\":12714:12865  if (... */\n      iszero\n      tag_258\n      jumpi\n        /* \"contracts/PrivateSaleLaunch.sol\":12853:12854  0 */\n      0x00\n        /* \"contracts/PrivateSaleLaunch.sol\":12846:12854  return 0 */\n      swap2\n      pop\n      pop\n      jump(tag_253)\n        /* \"contracts/PrivateSaleLaunch.sol\":12714:12865  if (... */\n    tag_258:\n        /* \"contracts/PrivateSaleLaunch.sol\":12899:12914  uint256 _maxBuy */\n      0x00\n        /* \"contracts/PrivateSaleLaunch.sol\":12917:12934  HARD_CAP_PER_USER */\n      sload(0x07)\n        /* \"contracts/PrivateSaleLaunch.sol\":12899:12934  uint256 _maxBuy = HARD_CAP_PER_USER */\n      swap1\n      pop\n        /* \"contracts/PrivateSaleLaunch.sol\":12958:12968  _totalSale */\n      dup2\n        /* \"contracts/PrivateSaleLaunch.sol\":12948:12955  _maxBuy */\n      dup2\n        /* \"contracts/PrivateSaleLaunch.sol\":12948:12968  _maxBuy > _totalSale */\n      gt\n        /* \"contracts/PrivateSaleLaunch.sol\":12944:13015  if (_maxBuy > _totalSale) {... */\n      iszero\n      tag_259\n      jumpi\n        /* \"contracts/PrivateSaleLaunch.sol\":12994:13004  _totalSale */\n      dup2\n        /* \"contracts/PrivateSaleLaunch.sol\":12984:13004  _maxBuy = _totalSale */\n      swap1\n      pop\n        /* \"contracts/PrivateSaleLaunch.sol\":12944:13015  if (_maxBuy > _totalSale) {... */\n    tag_259:\n        /* \"contracts/PrivateSaleLaunch.sol\":13031:13038  _maxBuy */\n      dup1\n        /* \"contracts/PrivateSaleLaunch.sol\":13024:13038  return _maxBuy */\n      swap3\n      pop\n      pop\n      pop\n        /* \"contracts/PrivateSaleLaunch.sol\":12543:13045  function getMaxBuyOf(address _user) public view returns(uint256) {... */\n    tag_253:\n      swap2\n      swap1\n      pop\n      jump\t// out\n        /* \"contracts/PrivateSaleLaunch.sol\":8869:8895  bool public ENABLE = false */\n    tag_121:\n      0x06\n      0x00\n      swap1\n      sload\n      swap1\n      0x0100\n      exp\n      swap1\n      div\n      0xff\n      and\n      dup2\n      jump\t// out\n        /* \"contracts/PrivateSaleLaunch.sol\":10734:10837  function setHardCapPerUser(uint256 _value) public onlyOwner {... */\n    tag_127:\n        /* \"contracts/PrivateSaleLaunch.sol\":9227:9232  owner */\n      0x00\n      0x01\n      swap1\n      sload\n      swap1\n      0x0100\n      exp\n      swap1\n      div\n      0xffffffffffffffffffffffffffffffffffffffff\n      and\n        /* \"contracts/PrivateSaleLaunch.sol\":9213:9232  msg.sender == owner */\n      0xffffffffffffffffffffffffffffffffffffffff\n      and\n        /* \"contracts/PrivateSaleLaunch.sol\":9213:9223  msg.sender */\n      caller\n        /* \"contracts/PrivateSaleLaunch.sol\":9213:9232  msg.sender == owner */\n      0xffffffffffffffffffffffffffffffffffffffff\n      and\n      eq\n        /* \"contracts/PrivateSaleLaunch.sol\":9205:9255  require(msg.sender == owner, \"INVALID_PERMISSION\") */\n      tag_261\n      jumpi\n      mload(0x40)\n      0x08c379a000000000000000000000000000000000000000000000000000000000\n      dup2\n      mstore\n      0x04\n      add\n      tag_262\n      swap1\n      tag_176\n      jump\t// in\n    tag_262:\n      mload(0x40)\n      dup1\n      swap2\n      sub\n      swap1\n      revert\n    tag_261:\n        /* \"contracts/PrivateSaleLaunch.sol\":10824:10830  _value */\n      dup1\n        /* \"contracts/PrivateSaleLaunch.sol\":10804:10821  HARD_CAP_PER_USER */\n      0x07\n        /* \"contracts/PrivateSaleLaunch.sol\":10804:10830  HARD_CAP_PER_USER = _value */\n      dup2\n      swap1\n      sstore\n      pop\n        /* \"contracts/PrivateSaleLaunch.sol\":10734:10837  function setHardCapPerUser(uint256 _value) public onlyOwner {... */\n      pop\n      jump\t// out\n        /* \"contracts/PrivateSaleLaunch.sol\":9652:9717  function enable() public onlyOwner {... */\n    tag_130:\n        /* \"contracts/PrivateSaleLaunch.sol\":9227:9232  owner */\n      0x00\n      0x01\n      swap1\n      sload\n      swap1\n      0x0100\n      exp\n      swap1\n      div\n      0xffffffffffffffffffffffffffffffffffffffff\n      and\n        /* \"contracts/PrivateSaleLaunch.sol\":9213:9232  msg.sender == owner */\n      0xffffffffffffffffffffffffffffffffffffffff\n      and\n        /* \"contracts/PrivateSaleLaunch.sol\":9213:9223  msg.sender */\n      caller\n        /* \"contracts/PrivateSaleLaunch.sol\":9213:9232  msg.sender == owner */\n      0xffffffffffffffffffffffffffffffffffffffff\n      and\n      eq\n        /* \"contracts/PrivateSaleLaunch.sol\":9205:9255  require(msg.sender == owner, \"INVALID_PERMISSION\") */\n      tag_265\n      jumpi\n      mload(0x40)\n      0x08c379a000000000000000000000000000000000000000000000000000000000\n      dup2\n      mstore\n      0x04\n      add\n      tag_266\n      swap1\n      tag_176\n      jump\t// in\n    tag_266:\n      mload(0x40)\n      dup1\n      swap2\n      sub\n      swap1\n      revert\n    tag_265:\n        /* \"contracts/PrivateSaleLaunch.sol\":9706:9710  true */\n      0x01\n        /* \"contracts/PrivateSaleLaunch.sol\":9697:9703  ENABLE */\n      0x06\n      0x00\n        /* \"contracts/PrivateSaleLaunch.sol\":9697:9710  ENABLE = true */\n      0x0100\n      exp\n      dup2\n      sload\n      dup2\n      0xff\n      mul\n      not\n      and\n      swap1\n      dup4\n      iszero\n      iszero\n      mul\n      or\n      swap1\n      sstore\n      pop\n        /* \"contracts/PrivateSaleLaunch.sol\":9652:9717  function enable() public onlyOwner {... */\n      jump\t// out\n        /* \"contracts/PrivateSaleLaunch.sol\":8625:8642  IERC20 public GRB */\n    tag_133:\n      0x01\n      0x00\n      swap1\n      sload\n      swap1\n      0x0100\n      exp\n      swap1\n      div\n      0xffffffffffffffffffffffffffffffffffffffff\n      and\n      dup2\n      jump\t// out\n        /* \"contracts/PrivateSaleLaunch.sol\":9070:9118  mapping(address => uint256) public totalBoughtOf */\n    tag_138:\n      mstore(0x20, 0x0a)\n      dup1\n      0x00\n      mstore\n      keccak256(0x00, 0x40)\n      0x00\n      swap2\n      pop\n      swap1\n      pop\n      sload\n      dup2\n      jump\t// out\n        /* \"contracts/PrivateSaleLaunch.sol\":9897:10018  function start() public onlyOwner {... */\n    tag_142:\n        /* \"contracts/PrivateSaleLaunch.sol\":9227:9232  owner */\n      0x00\n      0x01\n      swap1\n      sload\n      swap1\n      0x0100\n      exp\n      swap1\n      div\n      0xffffffffffffffffffffffffffffffffffffffff\n      and\n        /* \"contracts/PrivateSaleLaunch.sol\":9213:9232  msg.sender == owner */\n      0xffffffffffffffffffffffffffffffffffffffff\n      and\n        /* \"contracts/PrivateSaleLaunch.sol\":9213:9223  msg.sender */\n      caller\n        /* \"contracts/PrivateSaleLaunch.sol\":9213:9232  msg.sender == owner */\n      0xffffffffffffffffffffffffffffffffffffffff\n      and\n      eq\n        /* \"contracts/PrivateSaleLaunch.sol\":9205:9255  require(msg.sender == owner, \"INVALID_PERMISSION\") */\n      tag_269\n      jumpi\n      mload(0x40)\n      0x08c379a000000000000000000000000000000000000000000000000000000000\n      dup2\n      mstore\n      0x04\n      add\n      tag_270\n      swap1\n      tag_176\n      jump\t// in\n    tag_270:\n      mload(0x40)\n      dup1\n      swap2\n      sub\n      swap1\n      revert\n    tag_269:\n        /* \"contracts/PrivateSaleLaunch.sol\":9951:9988  block.timestamp.add(SALE_TIME_PERIOD) */\n      tag_272\n        /* \"contracts/PrivateSaleLaunch.sol\":9971:9987  SALE_TIME_PERIOD */\n      sload(0x09)\n        /* \"contracts/PrivateSaleLaunch.sol\":9951:9966  block.timestamp */\n      timestamp\n        /* \"contracts/PrivateSaleLaunch.sol\":9951:9970  block.timestamp.add */\n      tag_273\n      swap1\n        /* \"contracts/PrivateSaleLaunch.sol\":9951:9988  block.timestamp.add(SALE_TIME_PERIOD) */\n      swap2\n      swap1\n      0xffffffff\n      and\n      jump\t// in\n    tag_272:\n        /* \"contracts/PrivateSaleLaunch.sol\":9941:9948  endTime */\n      0x05\n        /* \"contracts/PrivateSaleLaunch.sol\":9941:9988  endTime = block.timestamp.add(SALE_TIME_PERIOD) */\n      dup2\n      swap1\n      sstore\n      pop\n        /* \"contracts/PrivateSaleLaunch.sol\":10007:10011  true */\n      0x01\n        /* \"contracts/PrivateSaleLaunch.sol\":9998:10004  ENABLE */\n      0x06\n      0x00\n        /* \"contracts/PrivateSaleLaunch.sol\":9998:10011  ENABLE = true */\n      0x0100\n      exp\n      dup2\n      sload\n      dup2\n      0xff\n      mul\n      not\n      and\n      swap1\n      dup4\n      iszero\n      iszero\n      mul\n      or\n      swap1\n      sstore\n      pop\n        /* \"contracts/PrivateSaleLaunch.sol\":9897:10018  function start() public onlyOwner {... */\n      jump\t// out\n        /* \"contracts/PrivateSaleLaunch.sol\":10023:10109  function setEndTime(uint256 _value) public onlyOwner {... */\n    tag_146:\n        /* \"contracts/PrivateSaleLaunch.sol\":9227:9232  owner */\n      0x00\n      0x01\n      swap1\n      sload\n      swap1\n      0x0100\n      exp\n      swap1\n      div\n      0xffffffffffffffffffffffffffffffffffffffff\n      and\n        /* \"contracts/PrivateSaleLaunch.sol\":9213:9232  msg.sender == owner */\n      0xffffffffffffffffffffffffffffffffffffffff\n      and\n        /* \"contracts/PrivateSaleLaunch.sol\":9213:9223  msg.sender */\n      caller\n        /* \"contracts/PrivateSaleLaunch.sol\":9213:9232  msg.sender == owner */\n      0xffffffffffffffffffffffffffffffffffffffff\n      and\n      eq\n        /* \"contracts/PrivateSaleLaunch.sol\":9205:9255  require(msg.sender == owner, \"INVALID_PERMISSION\") */\n      tag_275\n      jumpi\n      mload(0x40)\n      0x08c379a000000000000000000000000000000000000000000000000000000000\n      dup2\n      mstore\n      0x04\n      add\n      tag_276\n      swap1\n      tag_176\n      jump\t// in\n    tag_276:\n      mload(0x40)\n      dup1\n      swap2\n      sub\n      swap1\n      revert\n    tag_275:\n        /* \"contracts/PrivateSaleLaunch.sol\":10096:10102  _value */\n      dup1\n        /* \"contracts/PrivateSaleLaunch.sol\":10086:10093  endTime */\n      0x05\n        /* \"contracts/PrivateSaleLaunch.sol\":10086:10102  endTime = _value */\n      dup2\n      swap1\n      sstore\n      pop\n        /* \"contracts/PrivateSaleLaunch.sol\":10023:10109  function setEndTime(uint256 _value) public onlyOwner {... */\n      pop\n      jump\t// out\n        /* \"contracts/PrivateSaleLaunch.sol\":10934:11991  function buy(uint256 _payAmt) public onlyWhitelisted {... */\n    tag_150:\n        /* \"contracts/PrivateSaleLaunch.sol\":9351:9355  true */\n      0x01\n        /* \"contracts/PrivateSaleLaunch.sol\":9324:9355  whiteListed[msg.sender] == true */\n      iszero\n      iszero\n        /* \"contracts/PrivateSaleLaunch.sol\":9324:9335  whiteListed */\n      0x0b\n        /* \"contracts/PrivateSaleLaunch.sol\":9324:9347  whiteListed[msg.sender] */\n      0x00\n        /* \"contracts/PrivateSaleLaunch.sol\":9336:9346  msg.sender */\n      caller\n        /* \"contracts/PrivateSaleLaunch.sol\":9324:9347  whiteListed[msg.sender] */\n      0xffffffffffffffffffffffffffffffffffffffff\n      and\n      0xffffffffffffffffffffffffffffffffffffffff\n      and\n      dup2\n      mstore\n      0x20\n      add\n      swap1\n      dup2\n      mstore\n      0x20\n      add\n      0x00\n      keccak256\n      0x00\n      swap1\n      sload\n      swap1\n      0x0100\n      exp\n      swap1\n      div\n      0xff\n      and\n        /* \"contracts/PrivateSaleLaunch.sol\":9324:9355  whiteListed[msg.sender] == true */\n      iszero\n      iszero\n      eq\n        /* \"contracts/PrivateSaleLaunch.sol\":9316:9377  require(whiteListed[msg.sender] == true, \"INVALID_WHITElIST\") */\n      tag_279\n      jumpi\n      mload(0x40)\n      0x08c379a000000000000000000000000000000000000000000000000000000000\n      dup2\n      mstore\n      0x04\n      add\n      tag_280\n      swap1\n      tag_281\n      jump\t// in\n    tag_280:\n      mload(0x40)\n      dup1\n      swap2\n      sub\n      swap1\n      revert\n    tag_279:\n        /* \"contracts/PrivateSaleLaunch.sol\":11015:11019  true */\n      0x01\n        /* \"contracts/PrivateSaleLaunch.sol\":11005:11019  ENABLE == true */\n      iszero\n      iszero\n        /* \"contracts/PrivateSaleLaunch.sol\":11005:11011  ENABLE */\n      0x06\n      0x00\n      swap1\n      sload\n      swap1\n      0x0100\n      exp\n      swap1\n      div\n      0xff\n      and\n        /* \"contracts/PrivateSaleLaunch.sol\":11005:11019  ENABLE == true */\n      iszero\n      iszero\n      eq\n        /* \"contracts/PrivateSaleLaunch.sol\":10997:11035  require(ENABLE == true, \"SYSTEM_STOP\") */\n      tag_283\n      jumpi\n      mload(0x40)\n      0x08c379a000000000000000000000000000000000000000000000000000000000\n      dup2\n      mstore\n      0x04\n      add\n      tag_284\n      swap1\n      tag_285\n      jump\t// in\n    tag_284:\n      mload(0x40)\n      dup1\n      swap2\n      sub\n      swap1\n      revert\n    tag_283:\n        /* \"contracts/PrivateSaleLaunch.sol\":11063:11064  0 */\n      0x00\n        /* \"contracts/PrivateSaleLaunch.sol\":11053:11060  endTime */\n      sload(0x05)\n        /* \"contracts/PrivateSaleLaunch.sol\":11053:11064  endTime > 0 */\n      gt\n        /* \"contracts/PrivateSaleLaunch.sol\":11053:11094  endTime > 0 && endTime <= block.timestamp */\n      dup1\n      iszero\n      tag_286\n      jumpi\n      pop\n        /* \"contracts/PrivateSaleLaunch.sol\":11079:11094  block.timestamp */\n      timestamp\n        /* \"contracts/PrivateSaleLaunch.sol\":11068:11075  endTime */\n      sload(0x05)\n        /* \"contracts/PrivateSaleLaunch.sol\":11068:11094  endTime <= block.timestamp */\n      gt\n      iszero\n        /* \"contracts/PrivateSaleLaunch.sol\":11053:11094  endTime > 0 && endTime <= block.timestamp */\n    tag_286:\n        /* \"contracts/PrivateSaleLaunch.sol\":11045:11117  require(endTime > 0 && endTime <= block.timestamp, \"SYSTEM_NOT_RUNNING\") */\n      tag_287\n      jumpi\n      mload(0x40)\n      0x08c379a000000000000000000000000000000000000000000000000000000000\n      dup2\n      mstore\n      0x04\n      add\n      tag_288\n      swap1\n      tag_289\n      jump\t// in\n    tag_288:\n      mload(0x40)\n      dup1\n      swap2\n      sub\n      swap1\n      revert\n    tag_287:\n        /* \"contracts/PrivateSaleLaunch.sol\":11145:11146  0 */\n      0x00\n        /* \"contracts/PrivateSaleLaunch.sol\":11135:11142  _payAmt */\n      dup2\n        /* \"contracts/PrivateSaleLaunch.sol\":11135:11146  _payAmt > 0 */\n      gt\n        /* \"contracts/PrivateSaleLaunch.sol\":11127:11167  require(_payAmt > 0, \"INVALID_AMOUNT_1\") */\n      tag_290\n      jumpi\n      mload(0x40)\n      0x08c379a000000000000000000000000000000000000000000000000000000000\n      dup2\n      mstore\n      0x04\n      add\n      tag_291\n      swap1\n      tag_292\n      jump\t// in\n    tag_291:\n      mload(0x40)\n      dup1\n      swap2\n      sub\n      swap1\n      revert\n    tag_290:\n        /* \"contracts/PrivateSaleLaunch.sol\":11178:11193  uint256 _maxBuy */\n      0x00\n        /* \"contracts/PrivateSaleLaunch.sol\":11196:11219  getMaxBuyOf(msg.sender) */\n      tag_293\n        /* \"contracts/PrivateSaleLaunch.sol\":11208:11218  msg.sender */\n      caller\n        /* \"contracts/PrivateSaleLaunch.sol\":11196:11207  getMaxBuyOf */\n      tag_117\n        /* \"contracts/PrivateSaleLaunch.sol\":11196:11219  getMaxBuyOf(msg.sender) */\n      jump\t// in\n    tag_293:\n        /* \"contracts/PrivateSaleLaunch.sol\":11178:11219  uint256 _maxBuy = getMaxBuyOf(msg.sender) */\n      swap1\n      pop\n        /* \"contracts/PrivateSaleLaunch.sol\":11247:11248  0 */\n      0x00\n        /* \"contracts/PrivateSaleLaunch.sol\":11237:11244  _maxBuy */\n      dup2\n        /* \"contracts/PrivateSaleLaunch.sol\":11237:11248  _maxBuy > 0 */\n      gt\n        /* \"contracts/PrivateSaleLaunch.sol\":11229:11271  require(_maxBuy > 0, \"INVALID_PERMISSION\") */\n      tag_294\n      jumpi\n      mload(0x40)\n      0x08c379a000000000000000000000000000000000000000000000000000000000\n      dup2\n      mstore\n      0x04\n      add\n      tag_295\n      swap1\n      tag_176\n      jump\t// in\n    tag_295:\n      mload(0x40)\n      dup1\n      swap2\n      sub\n      swap1\n      revert\n    tag_294:\n        /* \"contracts/PrivateSaleLaunch.sol\":11314:11330  uint256 _quatity */\n      0x00\n        /* \"contracts/PrivateSaleLaunch.sol\":11334:11366  _payAmt.mul(1e18).div(salePrice) */\n      tag_296\n        /* \"contracts/PrivateSaleLaunch.sol\":11356:11365  salePrice */\n      sload(0x03)\n        /* \"contracts/PrivateSaleLaunch.sol\":11334:11351  _payAmt.mul(1e18) */\n      tag_297\n        /* \"contracts/PrivateSaleLaunch.sol\":11346:11350  1e18 */\n      0x0de0b6b3a7640000\n        /* \"contracts/PrivateSaleLaunch.sol\":11334:11341  _payAmt */\n      dup7\n        /* \"contracts/PrivateSaleLaunch.sol\":11334:11345  _payAmt.mul */\n      tag_217\n      swap1\n        /* \"contracts/PrivateSaleLaunch.sol\":11334:11351  _payAmt.mul(1e18) */\n      swap2\n      swap1\n      0xffffffff\n      and\n      jump\t// in\n    tag_297:\n        /* \"contracts/PrivateSaleLaunch.sol\":11334:11355  _payAmt.mul(1e18).div */\n      tag_218\n      swap1\n        /* \"contracts/PrivateSaleLaunch.sol\":11334:11366  _payAmt.mul(1e18).div(salePrice) */\n      swap2\n      swap1\n      0xffffffff\n      and\n      jump\t// in\n    tag_296:\n        /* \"contracts/PrivateSaleLaunch.sol\":11314:11366  uint256 _quatity  = _payAmt.mul(1e18).div(salePrice) */\n      swap1\n      pop\n        /* \"contracts/PrivateSaleLaunch.sol\":11415:11422  _maxBuy */\n      dup2\n        /* \"contracts/PrivateSaleLaunch.sol\":11404:11412  _quatity */\n      dup2\n        /* \"contracts/PrivateSaleLaunch.sol\":11404:11422  _quatity > _maxBuy */\n      gt\n        /* \"contracts/PrivateSaleLaunch.sol\":11401:11524  if(_quatity > _maxBuy) {... */\n      iszero\n      tag_298\n      jumpi\n        /* \"contracts/PrivateSaleLaunch.sol\":11449:11456  _maxBuy */\n      dup2\n        /* \"contracts/PrivateSaleLaunch.sol\":11438:11456  _quatity = _maxBuy */\n      swap1\n      pop\n        /* \"contracts/PrivateSaleLaunch.sol\":11480:11513  _quatity.mul(salePrice).div(1e18) */\n      tag_299\n        /* \"contracts/PrivateSaleLaunch.sol\":11508:11512  1e18 */\n      0x0de0b6b3a7640000\n        /* \"contracts/PrivateSaleLaunch.sol\":11480:11503  _quatity.mul(salePrice) */\n      tag_300\n        /* \"contracts/PrivateSaleLaunch.sol\":11493:11502  salePrice */\n      sload(0x03)\n        /* \"contracts/PrivateSaleLaunch.sol\":11480:11488  _quatity */\n      dup5\n        /* \"contracts/PrivateSaleLaunch.sol\":11480:11492  _quatity.mul */\n      tag_217\n      swap1\n        /* \"contracts/PrivateSaleLaunch.sol\":11480:11503  _quatity.mul(salePrice) */\n      swap2\n      swap1\n      0xffffffff\n      and\n      jump\t// in\n    tag_300:\n        /* \"contracts/PrivateSaleLaunch.sol\":11480:11507  _quatity.mul(salePrice).div */\n      tag_218\n      swap1\n        /* \"contracts/PrivateSaleLaunch.sol\":11480:11513  _quatity.mul(salePrice).div(1e18) */\n      swap2\n      swap1\n      0xffffffff\n      and\n      jump\t// in\n    tag_299:\n        /* \"contracts/PrivateSaleLaunch.sol\":11470:11513  _payAmt = _quatity.mul(salePrice).div(1e18) */\n      swap3\n      pop\n        /* \"contracts/PrivateSaleLaunch.sol\":11401:11524  if(_quatity > _maxBuy) {... */\n    tag_298:\n        /* \"contracts/PrivateSaleLaunch.sol\":11552:11553  0 */\n      0x00\n        /* \"contracts/PrivateSaleLaunch.sol\":11541:11549  _quatity */\n      dup2\n        /* \"contracts/PrivateSaleLaunch.sol\":11541:11553  _quatity > 0 */\n      gt\n        /* \"contracts/PrivateSaleLaunch.sol\":11533:11576  require(_quatity > 0, \"INVALID_QUATITY:01\") */\n      tag_301\n      jumpi\n      mload(0x40)\n      0x08c379a000000000000000000000000000000000000000000000000000000000\n      dup2\n      mstore\n      0x04\n      add\n      tag_302\n      swap1\n      tag_303\n      jump\t// in\n    tag_302:\n      mload(0x40)\n      dup1\n      swap2\n      sub\n      swap1\n      revert\n    tag_301:\n        /* \"contracts/PrivateSaleLaunch.sol\":11606:11613  MIN_BUY */\n      sload(0x08)\n        /* \"contracts/PrivateSaleLaunch.sol\":11594:11602  _quatity */\n      dup2\n        /* \"contracts/PrivateSaleLaunch.sol\":11594:11613  _quatity >= MIN_BUY */\n      lt\n      iszero\n        /* \"contracts/PrivateSaleLaunch.sol\":11586:11636  require(_quatity >= MIN_BUY, \"INVALID_QUATITY:02\") */\n      tag_304\n      jumpi\n      mload(0x40)\n      0x08c379a000000000000000000000000000000000000000000000000000000000\n      dup2\n      mstore\n      0x04\n      add\n      tag_305\n      swap1\n      tag_306\n      jump\t// in\n    tag_305:\n      mload(0x40)\n      dup1\n      swap2\n      sub\n      swap1\n      revert\n    tag_304:\n        /* \"contracts/PrivateSaleLaunch.sol\":11664:11665  0 */\n      0x00\n        /* \"contracts/PrivateSaleLaunch.sol\":11654:11661  _payAmt */\n      dup4\n        /* \"contracts/PrivateSaleLaunch.sol\":11654:11665  _payAmt > 0 */\n      gt\n        /* \"contracts/PrivateSaleLaunch.sol\":11646:11688  require(_payAmt > 0, \"INVALID_PAYMENT:01\") */\n      tag_307\n      jumpi\n      mload(0x40)\n      0x08c379a000000000000000000000000000000000000000000000000000000000\n      dup2\n      mstore\n      0x04\n      add\n      tag_308\n      swap1\n      tag_309\n      jump\t// in\n    tag_308:\n      mload(0x40)\n      dup1\n      swap2\n      sub\n      swap1\n      revert\n    tag_307:\n        /* \"contracts/PrivateSaleLaunch.sol\":11729:11733  true */\n      0x01\n        /* \"contracts/PrivateSaleLaunch.sol\":11706:11733  _claimUSDC(_payAmt) == true */\n      iszero\n      iszero\n        /* \"contracts/PrivateSaleLaunch.sol\":11706:11725  _claimUSDC(_payAmt) */\n      tag_310\n        /* \"contracts/PrivateSaleLaunch.sol\":11717:11724  _payAmt */\n      dup5\n        /* \"contracts/PrivateSaleLaunch.sol\":11706:11716  _claimUSDC */\n      tag_311\n        /* \"contracts/PrivateSaleLaunch.sol\":11706:11725  _claimUSDC(_payAmt) */\n      jump\t// in\n    tag_310:\n        /* \"contracts/PrivateSaleLaunch.sol\":11706:11733  _claimUSDC(_payAmt) == true */\n      iszero\n      iszero\n      eq\n        /* \"contracts/PrivateSaleLaunch.sol\":11698:11756  require(_claimUSDC(_payAmt) == true, \"INVALID_PAYMENT:02\") */\n      tag_312\n      jumpi\n      mload(0x40)\n      0x08c379a000000000000000000000000000000000000000000000000000000000\n      dup2\n      mstore\n      0x04\n      add\n      tag_313\n      swap1\n      tag_314\n      jump\t// in\n    tag_313:\n      mload(0x40)\n      dup1\n      swap2\n      sub\n      swap1\n      revert\n    tag_312:\n        /* \"contracts/PrivateSaleLaunch.sol\":11767:11770  GRB */\n      0x01\n      0x00\n      swap1\n      sload\n      swap1\n      0x0100\n      exp\n      swap1\n      div\n      0xffffffffffffffffffffffffffffffffffffffff\n      and\n        /* \"contracts/PrivateSaleLaunch.sol\":11767:11779  GRB.transfer */\n      0xffffffffffffffffffffffffffffffffffffffff\n      and\n      0xa9059cbb\n        /* \"contracts/PrivateSaleLaunch.sol\":11780:11790  msg.sender */\n      caller\n        /* \"contracts/PrivateSaleLaunch.sol\":11792:11800  _quatity */\n      dup4\n        /* \"contracts/PrivateSaleLaunch.sol\":11767:11801  GRB.transfer(msg.sender, _quatity) */\n      mload(0x40)\n      dup4\n      0xffffffff\n      and\n      0xe0\n      shl\n      dup2\n      mstore\n      0x04\n      add\n      tag_315\n      swap3\n      swap2\n      swap1\n      tag_237\n      jump\t// in\n    tag_315:\n      0x20\n      mload(0x40)\n      dup1\n      dup4\n      sub\n      dup2\n      0x00\n      dup8\n      dup1\n      extcodesize\n      iszero\n      dup1\n      iszero\n      tag_316\n      jumpi\n      0x00\n      dup1\n      revert\n    tag_316:\n      pop\n      gas\n      call\n      iszero\n      dup1\n      iszero\n      tag_318\n      jumpi\n      returndatasize\n      0x00\n      dup1\n      returndatacopy\n      revert(0x00, returndatasize)\n    tag_318:\n      pop\n      pop\n      pop\n      pop\n      mload(0x40)\n      returndatasize\n      not(0x1f)\n      0x1f\n      dup3\n      add\n      and\n      dup3\n      add\n      dup1\n      0x40\n      mstore\n      pop\n      dup2\n      add\n      swap1\n      tag_319\n      swap2\n      swap1\n      tag_242\n      jump\t// in\n    tag_319:\n      pop\n        /* \"contracts/PrivateSaleLaunch.sol\":11828:11855  totalPurchased.add(_payAmt) */\n      tag_320\n        /* \"contracts/PrivateSaleLaunch.sol\":11847:11854  _payAmt */\n      dup4\n        /* \"contracts/PrivateSaleLaunch.sol\":11828:11842  totalPurchased */\n      sload(0x04)\n        /* \"contracts/PrivateSaleLaunch.sol\":11828:11846  totalPurchased.add */\n      tag_273\n      swap1\n        /* \"contracts/PrivateSaleLaunch.sol\":11828:11855  totalPurchased.add(_payAmt) */\n      swap2\n      swap1\n      0xffffffff\n      and\n      jump\t// in\n    tag_320:\n        /* \"contracts/PrivateSaleLaunch.sol\":11811:11825  totalPurchased */\n      0x04\n        /* \"contracts/PrivateSaleLaunch.sol\":11811:11855  totalPurchased = totalPurchased.add(_payAmt) */\n      dup2\n      swap1\n      sstore\n      pop\n        /* \"contracts/PrivateSaleLaunch.sol\":11893:11932  totalBoughtOf[msg.sender].add(_quatity) */\n      tag_321\n        /* \"contracts/PrivateSaleLaunch.sol\":11923:11931  _quatity */\n      dup2\n        /* \"contracts/PrivateSaleLaunch.sol\":11893:11906  totalBoughtOf */\n      0x0a\n        /* \"contracts/PrivateSaleLaunch.sol\":11893:11918  totalBoughtOf[msg.sender] */\n      0x00\n        /* \"contracts/PrivateSaleLaunch.sol\":11907:11917  msg.sender */\n      caller\n        /* \"contracts/PrivateSaleLaunch.sol\":11893:11918  totalBoughtOf[msg.sender] */\n      0xffffffffffffffffffffffffffffffffffffffff\n      and\n      0xffffffffffffffffffffffffffffffffffffffff\n      and\n      dup2\n      mstore\n      0x20\n      add\n      swap1\n      dup2\n      mstore\n      0x20\n      add\n      0x00\n      keccak256\n      sload\n        /* \"contracts/PrivateSaleLaunch.sol\":11893:11922  totalBoughtOf[msg.sender].add */\n      tag_273\n      swap1\n        /* \"contracts/PrivateSaleLaunch.sol\":11893:11932  totalBoughtOf[msg.sender].add(_quatity) */\n      swap2\n      swap1\n      0xffffffff\n      and\n      jump\t// in\n    tag_321:\n        /* \"contracts/PrivateSaleLaunch.sol\":11865:11878  totalBoughtOf */\n      0x0a\n        /* \"contracts/PrivateSaleLaunch.sol\":11865:11890  totalBoughtOf[msg.sender] */\n      0x00\n        /* \"contracts/PrivateSaleLaunch.sol\":11879:11889  msg.sender */\n      caller\n        /* \"contracts/PrivateSaleLaunch.sol\":11865:11890  totalBoughtOf[msg.sender] */\n      0xffffffffffffffffffffffffffffffffffffffff\n      and\n      0xffffffffffffffffffffffffffffffffffffffff\n      and\n      dup2\n      mstore\n      0x20\n      add\n      swap1\n      dup2\n      mstore\n      0x20\n      add\n      0x00\n      keccak256\n        /* \"contracts/PrivateSaleLaunch.sol\":11865:11932  totalBoughtOf[msg.sender] = totalBoughtOf[msg.sender].add(_quatity) */\n      dup2\n      swap1\n      sstore\n      pop\n        /* \"contracts/PrivateSaleLaunch.sol\":11948:11984  onBuy(msg.sender, _payAmt, _quatity) */\n      0x7b027a29d1a4d4d2e0a11e04ebd4741452bfbb746ed433855a8f63afc5b20cde\n        /* \"contracts/PrivateSaleLaunch.sol\":11954:11964  msg.sender */\n      caller\n        /* \"contracts/PrivateSaleLaunch.sol\":11966:11973  _payAmt */\n      dup5\n        /* \"contracts/PrivateSaleLaunch.sol\":11975:11983  _quatity */\n      dup4\n        /* \"contracts/PrivateSaleLaunch.sol\":11948:11984  onBuy(msg.sender, _payAmt, _quatity) */\n      mload(0x40)\n      tag_322\n      swap4\n      swap3\n      swap2\n      swap1\n      tag_323\n      jump\t// in\n    tag_322:\n      mload(0x40)\n      dup1\n      swap2\n      sub\n      swap1\n      log1\n        /* \"contracts/PrivateSaleLaunch.sol\":10987:11991  {... */\n      pop\n      pop\n        /* \"contracts/PrivateSaleLaunch.sol\":10934:11991  function buy(uint256 _payAmt) public onlyWhitelisted {... */\n      pop\n      jump\t// out\n        /* \"contracts/PrivateSaleLaunch.sol\":8797:8830  uint256 public totalPurchased = 0 */\n    tag_153:\n      sload(0x04)\n      dup2\n      jump\t// out\n        /* \"contracts/PrivateSaleLaunch.sol\":9795:9892  function transferOwnership(address _newOwner) public onlyOwner {... */\n    tag_158:\n        /* \"contracts/PrivateSaleLaunch.sol\":9227:9232  owner */\n      0x00\n      0x01\n      swap1\n      sload\n      swap1\n      0x0100\n      exp\n      swap1\n      div\n      0xffffffffffffffffffffffffffffffffffffffff\n      and\n        /* \"contracts/PrivateSaleLaunch.sol\":9213:9232  msg.sender == owner */\n      0xffffffffffffffffffffffffffffffffffffffff\n      and\n        /* \"contracts/PrivateSaleLaunch.sol\":9213:9223  msg.sender */\n      caller\n        /* \"contracts/PrivateSaleLaunch.sol\":9213:9232  msg.sender == owner */\n      0xffffffffffffffffffffffffffffffffffffffff\n      and\n      eq\n        /* \"contracts/PrivateSaleLaunch.sol\":9205:9255  require(msg.sender == owner, \"INVALID_PERMISSION\") */\n      tag_325\n      jumpi\n      mload(0x40)\n      0x08c379a000000000000000000000000000000000000000000000000000000000\n      dup2\n      mstore\n      0x04\n      add\n      tag_326\n      swap1\n      tag_176\n      jump\t// in\n    tag_326:\n      mload(0x40)\n      dup1\n      swap2\n      sub\n      swap1\n      revert\n    tag_325:\n        /* \"contracts/PrivateSaleLaunch.sol\":9876:9885  _newOwner */\n      dup1\n        /* \"contracts/PrivateSaleLaunch.sol\":9868:9873  owner */\n      0x00\n      0x01\n        /* \"contracts/PrivateSaleLaunch.sol\":9868:9885  owner = _newOwner */\n      0x0100\n      exp\n      dup2\n      sload\n      dup2\n      0xffffffffffffffffffffffffffffffffffffffff\n      mul\n      not\n      and\n      swap1\n      dup4\n      0xffffffffffffffffffffffffffffffffffffffff\n      and\n      mul\n      or\n      swap1\n      sstore\n      pop\n        /* \"contracts/PrivateSaleLaunch.sol\":9795:9892  function transferOwnership(address _newOwner) public onlyOwner {... */\n      pop\n      jump\t// out\n        /* \"contracts/PrivateSaleLaunch.sol\":8675:8709  uint256 public salePrice = 4 * 1e4 */\n    tag_161:\n      sload(0x03)\n      dup2\n      jump\t// out\n        /* \"contracts/PrivateSaleLaunch.sol\":9124:9167  mapping(address => bool) public whiteListed */\n    tag_166:\n      mstore(0x20, 0x0b)\n      dup1\n      0x00\n      mstore\n      keccak256(0x00, 0x40)\n      0x00\n      swap2\n      pop\n      sload\n      swap1\n      0x0100\n      exp\n      swap1\n      div\n      0xff\n      and\n      dup2\n      jump\t// out\n        /* \"contracts/PrivateSaleLaunch.sol\":8529:8555  uint8 public VERSION = 100 */\n    tag_170:\n      0x00\n      dup1\n      sload\n      swap1\n      0x0100\n      exp\n      swap1\n      div\n      0xff\n      and\n      dup2\n      jump\t// out\n        /* \"contracts/PrivateSaleLaunch.sol\":2156:2615  function mul(uint256 a, uint256 b) internal pure returns (uint256) {... */\n    tag_217:\n        /* \"contracts/PrivateSaleLaunch.sol\":2214:2221  uint256 */\n      0x00\n        /* \"contracts/PrivateSaleLaunch.sol\":2460:2461  0 */\n      dup1\n        /* \"contracts/PrivateSaleLaunch.sol\":2455:2456  a */\n      dup4\n        /* \"contracts/PrivateSaleLaunch.sol\":2455:2461  a == 0 */\n      eq\n        /* \"contracts/PrivateSaleLaunch.sol\":2451:2496  if (a == 0) {... */\n      iszero\n      tag_329\n      jumpi\n        /* \"contracts/PrivateSaleLaunch.sol\":2484:2485  0 */\n      0x00\n        /* \"contracts/PrivateSaleLaunch.sol\":2477:2485  return 0 */\n      swap1\n      pop\n      jump(tag_328)\n        /* \"contracts/PrivateSaleLaunch.sol\":2451:2496  if (a == 0) {... */\n    tag_329:\n        /* \"contracts/PrivateSaleLaunch.sol\":2506:2515  uint256 c */\n      0x00\n        /* \"contracts/PrivateSaleLaunch.sol\":2522:2523  b */\n      dup3\n        /* \"contracts/PrivateSaleLaunch.sol\":2518:2519  a */\n      dup5\n        /* \"contracts/PrivateSaleLaunch.sol\":2518:2523  a * b */\n      tag_330\n      swap2\n      swap1\n      tag_331\n      jump\t// in\n    tag_330:\n        /* \"contracts/PrivateSaleLaunch.sol\":2506:2523  uint256 c = a * b */\n      swap1\n      pop\n        /* \"contracts/PrivateSaleLaunch.sol\":2550:2551  b */\n      dup3\n        /* \"contracts/PrivateSaleLaunch.sol\":2545:2546  a */\n      dup5\n        /* \"contracts/PrivateSaleLaunch.sol\":2541:2542  c */\n      dup3\n        /* \"contracts/PrivateSaleLaunch.sol\":2541:2546  c / a */\n      tag_332\n      swap2\n      swap1\n      tag_333\n      jump\t// in\n    tag_332:\n        /* \"contracts/PrivateSaleLaunch.sol\":2541:2551  c / a == b */\n      eq\n        /* \"contracts/PrivateSaleLaunch.sol\":2533:2589  require(c / a == b, \"SafeMath: multiplication overflow\") */\n      tag_334\n      jumpi\n      mload(0x40)\n      0x08c379a000000000000000000000000000000000000000000000000000000000\n      dup2\n      mstore\n      0x04\n      add\n      tag_335\n      swap1\n      tag_336\n      jump\t// in\n    tag_335:\n      mload(0x40)\n      dup1\n      swap2\n      sub\n      swap1\n      revert\n    tag_334:\n        /* \"contracts/PrivateSaleLaunch.sol\":2607:2608  c */\n      dup1\n        /* \"contracts/PrivateSaleLaunch.sol\":2600:2608  return c */\n      swap2\n      pop\n      pop\n        /* \"contracts/PrivateSaleLaunch.sol\":2156:2615  function mul(uint256 a, uint256 b) internal pure returns (uint256) {... */\n    tag_328:\n      swap3\n      swap2\n      pop\n      pop\n      jump\t// out\n        /* \"contracts/PrivateSaleLaunch.sol\":3071:3201  function div(uint256 a, uint256 b) internal pure returns (uint256) {... */\n    tag_218:\n        /* \"contracts/PrivateSaleLaunch.sol\":3129:3136  uint256 */\n      0x00\n        /* \"contracts/PrivateSaleLaunch.sol\":3155:3194  div(a, b, \"SafeMath: division by zero\") */\n      tag_338\n        /* \"contracts/PrivateSaleLaunch.sol\":3159:3160  a */\n      dup4\n        /* \"contracts/PrivateSaleLaunch.sol\":3162:3163  b */\n      dup4\n        /* \"contracts/PrivateSaleLaunch.sol\":3155:3194  div(a, b, \"SafeMath: division by zero\") */\n      mload(0x40)\n      dup1\n      0x40\n      add\n      0x40\n      mstore\n      dup1\n      0x1a\n      dup2\n      mstore\n      0x20\n      add\n      0x536166654d6174683a206469766973696f6e206279207a65726f000000000000\n      dup2\n      mstore\n      pop\n        /* \"contracts/PrivateSaleLaunch.sol\":3155:3158  div */\n      tag_339\n        /* \"contracts/PrivateSaleLaunch.sol\":3155:3194  div(a, b, \"SafeMath: division by zero\") */\n      jump\t// in\n    tag_338:\n        /* \"contracts/PrivateSaleLaunch.sol\":3148:3194  return div(a, b, \"SafeMath: division by zero\") */\n      swap1\n      pop\n        /* \"contracts/PrivateSaleLaunch.sol\":3071:3201  function div(uint256 a, uint256 b) internal pure returns (uint256) {... */\n      swap3\n      swap2\n      pop\n      pop\n      jump\t// out\n        /* \"contracts/PrivateSaleLaunch.sol\":871:1047  function add(uint256 a, uint256 b) internal pure returns (uint256) {... */\n    tag_273:\n        /* \"contracts/PrivateSaleLaunch.sol\":929:936  uint256 */\n      0x00\n        /* \"contracts/PrivateSaleLaunch.sol\":948:957  uint256 c */\n      dup1\n        /* \"contracts/PrivateSaleLaunch.sol\":964:965  b */\n      dup3\n        /* \"contracts/PrivateSaleLaunch.sol\":960:961  a */\n      dup5\n        /* \"contracts/PrivateSaleLaunch.sol\":960:965  a + b */\n      tag_341\n      swap2\n      swap1\n      tag_342\n      jump\t// in\n    tag_341:\n        /* \"contracts/PrivateSaleLaunch.sol\":948:965  uint256 c = a + b */\n      swap1\n      pop\n        /* \"contracts/PrivateSaleLaunch.sol\":988:989  a */\n      dup4\n        /* \"contracts/PrivateSaleLaunch.sol\":983:984  c */\n      dup2\n        /* \"contracts/PrivateSaleLaunch.sol\":983:989  c >= a */\n      lt\n      iszero\n        /* \"contracts/PrivateSaleLaunch.sol\":975:1021  require(c >= a, \"SafeMath: addition overflow\") */\n      tag_343\n      jumpi\n      mload(0x40)\n      0x08c379a000000000000000000000000000000000000000000000000000000000\n      dup2\n      mstore\n      0x04\n      add\n      tag_344\n      swap1\n      tag_345\n      jump\t// in\n    tag_344:\n      mload(0x40)\n      dup1\n      swap2\n      sub\n      swap1\n      revert\n    tag_343:\n        /* \"contracts/PrivateSaleLaunch.sol\":1039:1040  c */\n      dup1\n        /* \"contracts/PrivateSaleLaunch.sol\":1032:1040  return c */\n      swap2\n      pop\n      pop\n        /* \"contracts/PrivateSaleLaunch.sol\":871:1047  function add(uint256 a, uint256 b) internal pure returns (uint256) {... */\n      swap3\n      swap2\n      pop\n      pop\n      jump\t// out\n        /* \"contracts/PrivateSaleLaunch.sol\":11996:12380  function _claimUSDC(uint256 _amt) private returns(bool)... */\n    tag_311:\n        /* \"contracts/PrivateSaleLaunch.sol\":12046:12050  bool */\n      0x00\n        /* \"contracts/PrivateSaleLaunch.sol\":12066:12085  uint256 _cBalBefore */\n      dup1\n        /* \"contracts/PrivateSaleLaunch.sol\":12088:12092  USDC */\n      0x02\n      0x00\n      swap1\n      sload\n      swap1\n      0x0100\n      exp\n      swap1\n      div\n      0xffffffffffffffffffffffffffffffffffffffff\n      and\n        /* \"contracts/PrivateSaleLaunch.sol\":12088:12102  USDC.balanceOf */\n      0xffffffffffffffffffffffffffffffffffffffff\n      and\n      0x70a08231\n        /* \"contracts/PrivateSaleLaunch.sol\":12111:12115  this */\n      address\n        /* \"contracts/PrivateSaleLaunch.sol\":12088:12117  USDC.balanceOf(address(this)) */\n      mload(0x40)\n      dup3\n      0xffffffff\n      and\n      0xe0\n      shl\n      dup2\n      mstore\n      0x04\n      add\n      tag_347\n      swap2\n      swap1\n      tag_113\n      jump\t// in\n    tag_347:\n      0x20\n      mload(0x40)\n      dup1\n      dup4\n      sub\n      dup2\n      dup7\n      dup1\n      extcodesize\n      iszero\n      dup1\n      iszero\n      tag_348\n      jumpi\n      0x00\n      dup1\n      revert\n    tag_348:\n      pop\n      gas\n      staticcall\n      iszero\n      dup1\n      iszero\n      tag_350\n      jumpi\n      returndatasize\n      0x00\n      dup1\n      returndatacopy\n      revert(0x00, returndatasize)\n    tag_350:\n      pop\n      pop\n      pop\n      pop\n      mload(0x40)\n      returndatasize\n      not(0x1f)\n      0x1f\n      dup3\n      add\n      and\n      dup3\n      add\n      dup1\n      0x40\n      mstore\n      pop\n      dup2\n      add\n      swap1\n      tag_351\n      swap2\n      swap1\n      tag_197\n      jump\t// in\n    tag_351:\n        /* \"contracts/PrivateSaleLaunch.sol\":12066:12117  uint256 _cBalBefore = USDC.balanceOf(address(this)) */\n      swap1\n      pop\n        /* \"contracts/PrivateSaleLaunch.sol\":12127:12131  USDC */\n      0x02\n      0x00\n      swap1\n      sload\n      swap1\n      0x0100\n      exp\n      swap1\n      div\n      0xffffffffffffffffffffffffffffffffffffffff\n      and\n        /* \"contracts/PrivateSaleLaunch.sol\":12127:12144  USDC.transferFrom */\n      0xffffffffffffffffffffffffffffffffffffffff\n      and\n      0x23b872dd\n        /* \"contracts/PrivateSaleLaunch.sol\":12145:12155  msg.sender */\n      caller\n        /* \"contracts/PrivateSaleLaunch.sol\":12165:12169  this */\n      address\n        /* \"contracts/PrivateSaleLaunch.sol\":12172:12176  _amt */\n      dup7\n        /* \"contracts/PrivateSaleLaunch.sol\":12127:12177  USDC.transferFrom(msg.sender, address(this), _amt) */\n      mload(0x40)\n      dup5\n      0xffffffff\n      and\n      0xe0\n      shl\n      dup2\n      mstore\n      0x04\n      add\n      tag_352\n      swap4\n      swap3\n      swap2\n      swap1\n      tag_353\n      jump\t// in\n    tag_352:\n      0x20\n      mload(0x40)\n      dup1\n      dup4\n      sub\n      dup2\n      0x00\n      dup8\n      dup1\n      extcodesize\n      iszero\n      dup1\n      iszero\n      tag_354\n      jumpi\n      0x00\n      dup1\n      revert\n    tag_354:\n      pop\n      gas\n      call\n      iszero\n      dup1\n      iszero\n      tag_356\n      jumpi\n      returndatasize\n      0x00\n      dup1\n      returndatacopy\n      revert(0x00, returndatasize)\n    tag_356:\n      pop\n      pop\n      pop\n      pop\n      mload(0x40)\n      returndatasize\n      not(0x1f)\n      0x1f\n      dup3\n      add\n      and\n      dup3\n      add\n      dup1\n      0x40\n      mstore\n      pop\n      dup2\n      add\n      swap1\n      tag_357\n      swap2\n      swap1\n      tag_242\n      jump\t// in\n    tag_357:\n      pop\n        /* \"contracts/PrivateSaleLaunch.sol\":12187:12205  uint256 _cBalAfter */\n      0x00\n        /* \"contracts/PrivateSaleLaunch.sol\":12208:12212  USDC */\n      0x02\n      0x00\n      swap1\n      sload\n      swap1\n      0x0100\n      exp\n      swap1\n      div\n      0xffffffffffffffffffffffffffffffffffffffff\n      and\n        /* \"contracts/PrivateSaleLaunch.sol\":12208:12222  USDC.balanceOf */\n      0xffffffffffffffffffffffffffffffffffffffff\n      and\n      0x70a08231\n        /* \"contracts/PrivateSaleLaunch.sol\":12231:12235  this */\n      address\n        /* \"contracts/PrivateSaleLaunch.sol\":12208:12237  USDC.balanceOf(address(this)) */\n      mload(0x40)\n      dup3\n      0xffffffff\n      and\n      0xe0\n      shl\n      dup2\n      mstore\n      0x04\n      add\n      tag_358\n      swap2\n      swap1\n      tag_113\n      jump\t// in\n    tag_358:\n      0x20\n      mload(0x40)\n      dup1\n      dup4\n      sub\n      dup2\n      dup7\n      dup1\n      extcodesize\n      iszero\n      dup1\n      iszero\n      tag_359\n      jumpi\n      0x00\n      dup1\n      revert\n    tag_359:\n      pop\n      gas\n      staticcall\n      iszero\n      dup1\n      iszero\n      tag_361\n      jumpi\n      returndatasize\n      0x00\n      dup1\n      returndatacopy\n      revert(0x00, returndatasize)\n    tag_361:\n      pop\n      pop\n      pop\n      pop\n      mload(0x40)\n      returndatasize\n      not(0x1f)\n      0x1f\n      dup3\n      add\n      and\n      dup3\n      add\n      dup1\n      0x40\n      mstore\n      pop\n      dup2\n      add\n      swap1\n      tag_362\n      swap2\n      swap1\n      tag_197\n      jump\t// in\n    tag_362:\n        /* \"contracts/PrivateSaleLaunch.sol\":12187:12237  uint256 _cBalAfter = USDC.balanceOf(address(this)) */\n      swap1\n      pop\n        /* \"contracts/PrivateSaleLaunch.sol\":12265:12276  _cBalBefore */\n      dup2\n        /* \"contracts/PrivateSaleLaunch.sol\":12251:12261  _cBalAfter */\n      dup2\n        /* \"contracts/PrivateSaleLaunch.sol\":12251:12276  _cBalAfter <= _cBalBefore */\n      gt\n        /* \"contracts/PrivateSaleLaunch.sol\":12247:12290  if (_cBalAfter <= _cBalBefore) return false */\n      tag_363\n      jumpi\n        /* \"contracts/PrivateSaleLaunch.sol\":12285:12290  false */\n      0x00\n        /* \"contracts/PrivateSaleLaunch.sol\":12278:12290  return false */\n      swap3\n      pop\n      pop\n      pop\n      jump(tag_346)\n        /* \"contracts/PrivateSaleLaunch.sol\":12247:12290  if (_cBalAfter <= _cBalBefore) return false */\n    tag_363:\n        /* \"contracts/PrivateSaleLaunch.sol\":12317:12338  _cBalBefore.add(_amt) */\n      tag_364\n        /* \"contracts/PrivateSaleLaunch.sol\":12333:12337  _amt */\n      dup5\n        /* \"contracts/PrivateSaleLaunch.sol\":12317:12328  _cBalBefore */\n      dup4\n        /* \"contracts/PrivateSaleLaunch.sol\":12317:12332  _cBalBefore.add */\n      tag_273\n      swap1\n        /* \"contracts/PrivateSaleLaunch.sol\":12317:12338  _cBalBefore.add(_amt) */\n      swap2\n      swap1\n      0xffffffff\n      and\n      jump\t// in\n    tag_364:\n        /* \"contracts/PrivateSaleLaunch.sol\":12304:12314  _cBalAfter */\n      dup2\n        /* \"contracts/PrivateSaleLaunch.sol\":12304:12338  _cBalAfter < _cBalBefore.add(_amt) */\n      lt\n        /* \"contracts/PrivateSaleLaunch.sol\":12300:12352  if (_cBalAfter < _cBalBefore.add(_amt)) return false */\n      iszero\n      tag_365\n      jumpi\n        /* \"contracts/PrivateSaleLaunch.sol\":12347:12352  false */\n      0x00\n        /* \"contracts/PrivateSaleLaunch.sol\":12340:12352  return false */\n      swap3\n      pop\n      pop\n      pop\n      jump(tag_346)\n        /* \"contracts/PrivateSaleLaunch.sol\":12300:12352  if (_cBalAfter < _cBalBefore.add(_amt)) return false */\n    tag_365:\n        /* \"contracts/PrivateSaleLaunch.sol\":12369:12373  true */\n      0x01\n        /* \"contracts/PrivateSaleLaunch.sol\":12362:12373  return true */\n      swap3\n      pop\n      pop\n      pop\n        /* \"contracts/PrivateSaleLaunch.sol\":11996:12380  function _claimUSDC(uint256 _amt) private returns(bool)... */\n    tag_346:\n      swap2\n      swap1\n      pop\n      jump\t// out\n        /* \"contracts/PrivateSaleLaunch.sol\":3676:4014  function div(uint256 a, uint256 b, string memory errorMessage) internal pure returns (uint256) {... */\n    tag_339:\n        /* \"contracts/PrivateSaleLaunch.sol\":3762:3769  uint256 */\n      0x00\n        /* \"contracts/PrivateSaleLaunch.sol\":3859:3860  0 */\n      dup1\n        /* \"contracts/PrivateSaleLaunch.sol\":3855:3856  b */\n      dup4\n        /* \"contracts/PrivateSaleLaunch.sol\":3855:3860  b > 0 */\n      gt\n        /* \"contracts/PrivateSaleLaunch.sol\":3862:3874  errorMessage */\n      dup3\n        /* \"contracts/PrivateSaleLaunch.sol\":3847:3875  require(b > 0, errorMessage) */\n      swap1\n      tag_367\n      jumpi\n      mload(0x40)\n      0x08c379a000000000000000000000000000000000000000000000000000000000\n      dup2\n      mstore\n      0x04\n      add\n      tag_368\n      swap2\n      swap1\n      tag_369\n      jump\t// in\n    tag_368:\n      mload(0x40)\n      dup1\n      swap2\n      sub\n      swap1\n      revert\n    tag_367:\n      pop\n        /* \"contracts/PrivateSaleLaunch.sol\":3885:3894  uint256 c */\n      0x00\n        /* \"contracts/PrivateSaleLaunch.sol\":3901:3902  b */\n      dup4\n        /* \"contracts/PrivateSaleLaunch.sol\":3897:3898  a */\n      dup6\n        /* \"contracts/PrivateSaleLaunch.sol\":3897:3902  a / b */\n      tag_370\n      swap2\n      swap1\n      tag_333\n      jump\t// in\n    tag_370:\n        /* \"contracts/PrivateSaleLaunch.sol\":3885:3902  uint256 c = a / b */\n      swap1\n      pop\n        /* \"contracts/PrivateSaleLaunch.sol\":4006:4007  c */\n      dup1\n        /* \"contracts/PrivateSaleLaunch.sol\":3999:4007  return c */\n      swap2\n      pop\n      pop\n        /* \"contracts/PrivateSaleLaunch.sol\":3676:4014  function div(uint256 a, uint256 b, string memory errorMessage) internal pure returns (uint256) {... */\n      swap4\n      swap3\n      pop\n      pop\n      pop\n      jump\t// out\n        /* \"#utility.yul\":7:146   */\n    tag_372:\n        /* \"#utility.yul\":53:58   */\n      0x00\n        /* \"#utility.yul\":91:97   */\n      dup2\n        /* \"#utility.yul\":78:98   */\n      calldataload\n        /* \"#utility.yul\":69:98   */\n      swap1\n      pop\n        /* \"#utility.yul\":107:140   */\n      tag_374\n        /* \"#utility.yul\":134:139   */\n      dup2\n        /* \"#utility.yul\":107:140   */\n      tag_375\n      jump\t// in\n    tag_374:\n        /* \"#utility.yul\":7:146   */\n      swap3\n      swap2\n      pop\n      pop\n      jump\t// out\n        /* \"#utility.yul\":152:289   */\n    tag_376:\n        /* \"#utility.yul\":206:211   */\n      0x00\n        /* \"#utility.yul\":237:243   */\n      dup2\n        /* \"#utility.yul\":231:244   */\n      mload\n        /* \"#utility.yul\":222:244   */\n      swap1\n      pop\n        /* \"#utility.yul\":253:283   */\n      tag_378\n        /* \"#utility.yul\":277:282   */\n      dup2\n        /* \"#utility.yul\":253:283   */\n      tag_379\n      jump\t// in\n    tag_378:\n        /* \"#utility.yul\":152:289   */\n      swap3\n      swap2\n      pop\n      pop\n      jump\t// out\n        /* \"#utility.yul\":295:462   */\n    tag_380:\n        /* \"#utility.yul\":355:360   */\n      0x00\n        /* \"#utility.yul\":393:399   */\n      dup2\n        /* \"#utility.yul\":380:400   */\n      calldataload\n        /* \"#utility.yul\":371:400   */\n      swap1\n      pop\n        /* \"#utility.yul\":409:456   */\n      tag_382\n        /* \"#utility.yul\":450:455   */\n      dup2\n        /* \"#utility.yul\":409:456   */\n      tag_383\n      jump\t// in\n    tag_382:\n        /* \"#utility.yul\":295:462   */\n      swap3\n      swap2\n      pop\n      pop\n      jump\t// out\n        /* \"#utility.yul\":468:607   */\n    tag_384:\n        /* \"#utility.yul\":514:519   */\n      0x00\n        /* \"#utility.yul\":552:558   */\n      dup2\n        /* \"#utility.yul\":539:559   */\n      calldataload\n        /* \"#utility.yul\":530:559   */\n      swap1\n      pop\n        /* \"#utility.yul\":568:601   */\n      tag_386\n        /* \"#utility.yul\":595:600   */\n      dup2\n        /* \"#utility.yul\":568:601   */\n      tag_387\n      jump\t// in\n    tag_386:\n        /* \"#utility.yul\":468:607   */\n      swap3\n      swap2\n      pop\n      pop\n      jump\t// out\n        /* \"#utility.yul\":613:756   */\n    tag_388:\n        /* \"#utility.yul\":670:675   */\n      0x00\n        /* \"#utility.yul\":701:707   */\n      dup2\n        /* \"#utility.yul\":695:708   */\n      mload\n        /* \"#utility.yul\":686:708   */\n      swap1\n      pop\n        /* \"#utility.yul\":717:750   */\n      tag_390\n        /* \"#utility.yul\":744:749   */\n      dup2\n        /* \"#utility.yul\":717:750   */\n      tag_387\n      jump\t// in\n    tag_390:\n        /* \"#utility.yul\":613:756   */\n      swap3\n      swap2\n      pop\n      pop\n      jump\t// out\n        /* \"#utility.yul\":762:897   */\n    tag_391:\n        /* \"#utility.yul\":806:811   */\n      0x00\n        /* \"#utility.yul\":844:850   */\n      dup2\n        /* \"#utility.yul\":831:851   */\n      calldataload\n        /* \"#utility.yul\":822:851   */\n      swap1\n      pop\n        /* \"#utility.yul\":860:891   */\n      tag_393\n        /* \"#utility.yul\":885:890   */\n      dup2\n        /* \"#utility.yul\":860:891   */\n      tag_394\n      jump\t// in\n    tag_393:\n        /* \"#utility.yul\":762:897   */\n      swap3\n      swap2\n      pop\n      pop\n      jump\t// out\n        /* \"#utility.yul\":903:1232   */\n    tag_80:\n        /* \"#utility.yul\":962:968   */\n      0x00\n        /* \"#utility.yul\":1011:1013   */\n      0x20\n        /* \"#utility.yul\":999:1008   */\n      dup3\n        /* \"#utility.yul\":990:997   */\n      dup5\n        /* \"#utility.yul\":986:1009   */\n      sub\n        /* \"#utility.yul\":982:1014   */\n      slt\n        /* \"#utility.yul\":979:1098   */\n      iszero\n      tag_396\n      jumpi\n        /* \"#utility.yul\":1017:1096   */\n      tag_397\n      tag_398\n      jump\t// in\n    tag_397:\n        /* \"#utility.yul\":979:1098   */\n    tag_396:\n        /* \"#utility.yul\":1137:1138   */\n      0x00\n        /* \"#utility.yul\":1162:1215   */\n      tag_399\n        /* \"#utility.yul\":1207:1214   */\n      dup5\n        /* \"#utility.yul\":1198:1204   */\n      dup3\n        /* \"#utility.yul\":1187:1196   */\n      dup6\n        /* \"#utility.yul\":1183:1205   */\n      add\n        /* \"#utility.yul\":1162:1215   */\n      tag_372\n      jump\t// in\n    tag_399:\n        /* \"#utility.yul\":1152:1215   */\n      swap2\n      pop\n        /* \"#utility.yul\":1108:1225   */\n      pop\n        /* \"#utility.yul\":903:1232   */\n      swap3\n      swap2\n      pop\n      pop\n      jump\t// out\n        /* \"#utility.yul\":1238:1708   */\n    tag_50:\n        /* \"#utility.yul\":1304:1310   */\n      0x00\n        /* \"#utility.yul\":1312:1318   */\n      dup1\n        /* \"#utility.yul\":1361:1363   */\n      0x40\n        /* \"#utility.yul\":1349:1358   */\n      dup4\n        /* \"#utility.yul\":1340:1347   */\n      dup6\n        /* \"#utility.yul\":1336:1359   */\n      sub\n        /* \"#utility.yul\":1332:1364   */\n      slt\n        /* \"#utility.yul\":1329:1448   */\n      iszero\n      tag_401\n      jumpi\n        /* \"#utility.yul\":1367:1446   */\n      tag_402\n      tag_398\n      jump\t// in\n    tag_402:\n        /* \"#utility.yul\":1329:1448   */\n    tag_401:\n        /* \"#utility.yul\":1487:1488   */\n      0x00\n        /* \"#utility.yul\":1512:1565   */\n      tag_403\n        /* \"#utility.yul\":1557:1564   */\n      dup6\n        /* \"#utility.yul\":1548:1554   */\n      dup3\n        /* \"#utility.yul\":1537:1546   */\n      dup7\n        /* \"#utility.yul\":1533:1555   */\n      add\n        /* \"#utility.yul\":1512:1565   */\n      tag_372\n      jump\t// in\n    tag_403:\n        /* \"#utility.yul\":1502:1565   */\n      swap3\n      pop\n        /* \"#utility.yul\":1458:1575   */\n      pop\n        /* \"#utility.yul\":1614:1616   */\n      0x20\n        /* \"#utility.yul\":1640:1691   */\n      tag_404\n        /* \"#utility.yul\":1683:1690   */\n      dup6\n        /* \"#utility.yul\":1674:1680   */\n      dup3\n        /* \"#utility.yul\":1663:1672   */\n      dup7\n        /* \"#utility.yul\":1659:1681   */\n      add\n        /* \"#utility.yul\":1640:1691   */\n      tag_391\n      jump\t// in\n    tag_404:\n        /* \"#utility.yul\":1630:1691   */\n      swap2\n      pop\n        /* \"#utility.yul\":1585:1701   */\n      pop\n        /* \"#utility.yul\":1238:1708   */\n      swap3\n      pop\n      swap3\n      swap1\n      pop\n      jump\t// out\n        /* \"#utility.yul\":1714:2059   */\n    tag_242:\n        /* \"#utility.yul\":1781:1787   */\n      0x00\n        /* \"#utility.yul\":1830:1832   */\n      0x20\n        /* \"#utility.yul\":1818:1827   */\n      dup3\n        /* \"#utility.yul\":1809:1816   */\n      dup5\n        /* \"#utility.yul\":1805:1828   */\n      sub\n        /* \"#utility.yul\":1801:1833   */\n      slt\n        /* \"#utility.yul\":1798:1917   */\n      iszero\n      tag_406\n      jumpi\n        /* \"#utility.yul\":1836:1915   */\n      tag_407\n      tag_398\n      jump\t// in\n    tag_407:\n        /* \"#utility.yul\":1798:1917   */\n    tag_406:\n        /* \"#utility.yul\":1956:1957   */\n      0x00\n        /* \"#utility.yul\":1981:2042   */\n      tag_408\n        /* \"#utility.yul\":2034:2041   */\n      dup5\n        /* \"#utility.yul\":2025:2031   */\n      dup3\n        /* \"#utility.yul\":2014:2023   */\n      dup6\n        /* \"#utility.yul\":2010:2032   */\n      add\n        /* \"#utility.yul\":1981:2042   */\n      tag_376\n      jump\t// in\n    tag_408:\n        /* \"#utility.yul\":1971:2042   */\n      swap2\n      pop\n        /* \"#utility.yul\":1927:2052   */\n      pop\n        /* \"#utility.yul\":1714:2059   */\n      swap3\n      swap2\n      pop\n      pop\n      jump\t// out\n        /* \"#utility.yul\":2065:2422   */\n    tag_45:\n        /* \"#utility.yul\":2138:2144   */\n      0x00\n        /* \"#utility.yul\":2187:2189   */\n      0x20\n        /* \"#utility.yul\":2175:2184   */\n      dup3\n        /* \"#utility.yul\":2166:2173   */\n      dup5\n        /* \"#utility.yul\":2162:2185   */\n      sub\n        /* \"#utility.yul\":2158:2190   */\n      slt\n        /* \"#utility.yul\":2155:2274   */\n      iszero\n      tag_410\n      jumpi\n        /* \"#utility.yul\":2193:2272   */\n      tag_411\n      tag_398\n      jump\t// in\n    tag_411:\n        /* \"#utility.yul\":2155:2274   */\n    tag_410:\n        /* \"#utility.yul\":2313:2314   */\n      0x00\n        /* \"#utility.yul\":2338:2405   */\n      tag_412\n        /* \"#utility.yul\":2397:2404   */\n      dup5\n        /* \"#utility.yul\":2388:2394   */\n      dup3\n        /* \"#utility.yul\":2377:2386   */\n      dup6\n        /* \"#utility.yul\":2373:2395   */\n      add\n        /* \"#utility.yul\":2338:2405   */\n      tag_380\n      jump\t// in\n    tag_412:\n        /* \"#utility.yul\":2328:2405   */\n      swap2\n      pop\n        /* \"#utility.yul\":2284:2415   */\n      pop\n        /* \"#utility.yul\":2065:2422   */\n      swap3\n      swap2\n      pop\n      pop\n      jump\t// out\n        /* \"#utility.yul\":2428:2757   */\n    tag_55:\n        /* \"#utility.yul\":2487:2493   */\n      0x00\n        /* \"#utility.yul\":2536:2538   */\n      0x20\n        /* \"#utility.yul\":2524:2533   */\n      dup3\n        /* \"#utility.yul\":2515:2522   */\n      dup5\n        /* \"#utility.yul\":2511:2534   */\n      sub\n        /* \"#utility.yul\":2507:2539   */\n      slt\n        /* \"#utility.yul\":2504:2623   */\n      iszero\n      tag_414\n      jumpi\n        /* \"#utility.yul\":2542:2621   */\n      tag_415\n      tag_398\n      jump\t// in\n    tag_415:\n        /* \"#utility.yul\":2504:2623   */\n    tag_414:\n        /* \"#utility.yul\":2662:2663   */\n      0x00\n        /* \"#utility.yul\":2687:2740   */\n      tag_416\n        /* \"#utility.yul\":2732:2739   */\n      dup5\n        /* \"#utility.yul\":2723:2729   */\n      dup3\n        /* \"#utility.yul\":2712:2721   */\n      dup6\n        /* \"#utility.yul\":2708:2730   */\n      add\n        /* \"#utility.yul\":2687:2740   */\n      tag_384\n      jump\t// in\n    tag_416:\n        /* \"#utility.yul\":2677:2740   */\n      swap2\n      pop\n        /* \"#utility.yul\":2633:2750   */\n      pop\n        /* \"#utility.yul\":2428:2757   */\n      swap3\n      swap2\n      pop\n      pop\n      jump\t// out\n        /* \"#utility.yul\":2763:3114   */\n    tag_197:\n        /* \"#utility.yul\":2833:2839   */\n      0x00\n        /* \"#utility.yul\":2882:2884   */\n      0x20\n        /* \"#utility.yul\":2870:2879   */\n      dup3\n        /* \"#utility.yul\":2861:2868   */\n      dup5\n        /* \"#utility.yul\":2857:2880   */\n      sub\n        /* \"#utility.yul\":2853:2885   */\n      slt\n        /* \"#utility.yul\":2850:2969   */\n      iszero\n      tag_418\n      jumpi\n        /* \"#utility.yul\":2888:2967   */\n      tag_419\n      tag_398\n      jump\t// in\n    tag_419:\n        /* \"#utility.yul\":2850:2969   */\n    tag_418:\n        /* \"#utility.yul\":3008:3009   */\n      0x00\n        /* \"#utility.yul\":3033:3097   */\n      tag_420\n        /* \"#utility.yul\":3089:3096   */\n      dup5\n        /* \"#utility.yul\":3080:3086   */\n      dup3\n        /* \"#utility.yul\":3069:3078   */\n      dup6\n        /* \"#utility.yul\":3065:3087   */\n      add\n        /* \"#utility.yul\":3033:3097   */\n      tag_388\n      jump\t// in\n    tag_420:\n        /* \"#utility.yul\":3023:3097   */\n      swap2\n      pop\n        /* \"#utility.yul\":2979:3107   */\n      pop\n        /* \"#utility.yul\":2763:3114   */\n      swap3\n      swap2\n      pop\n      pop\n      jump\t// out\n        /* \"#utility.yul\":3120:3238   */\n    tag_421:\n        /* \"#utility.yul\":3207:3231   */\n      tag_423\n        /* \"#utility.yul\":3225:3230   */\n      dup2\n        /* \"#utility.yul\":3207:3231   */\n      tag_424\n      jump\t// in\n    tag_423:\n        /* \"#utility.yul\":3202:3205   */\n      dup3\n        /* \"#utility.yul\":3195:3232   */\n      mstore\n        /* \"#utility.yul\":3120:3238   */\n      pop\n      pop\n      jump\t// out\n        /* \"#utility.yul\":3244:3353   */\n    tag_425:\n        /* \"#utility.yul\":3325:3346   */\n      tag_427\n        /* \"#utility.yul\":3340:3345   */\n      dup2\n        /* \"#utility.yul\":3325:3346   */\n      tag_428\n      jump\t// in\n    tag_427:\n        /* \"#utility.yul\":3320:3323   */\n      dup3\n        /* \"#utility.yul\":3313:3347   */\n      mstore\n        /* \"#utility.yul\":3244:3353   */\n      pop\n      pop\n      jump\t// out\n        /* \"#utility.yul\":3359:3518   */\n    tag_429:\n        /* \"#utility.yul\":3460:3511   */\n      tag_431\n        /* \"#utility.yul\":3505:3510   */\n      dup2\n        /* \"#utility.yul\":3460:3511   */\n      tag_432\n      jump\t// in\n    tag_431:\n        /* \"#utility.yul\":3455:3458   */\n      dup3\n        /* \"#utility.yul\":3448:3512   */\n      mstore\n        /* \"#utility.yul\":3359:3518   */\n      pop\n      pop\n      jump\t// out\n        /* \"#utility.yul\":3524:3888   */\n    tag_433:\n        /* \"#utility.yul\":3612:3615   */\n      0x00\n        /* \"#utility.yul\":3640:3679   */\n      tag_435\n        /* \"#utility.yul\":3673:3678   */\n      dup3\n        /* \"#utility.yul\":3640:3679   */\n      tag_436\n      jump\t// in\n    tag_435:\n        /* \"#utility.yul\":3695:3766   */\n      tag_437\n        /* \"#utility.yul\":3759:3765   */\n      dup2\n        /* \"#utility.yul\":3754:3757   */\n      dup6\n        /* \"#utility.yul\":3695:3766   */\n      tag_438\n      jump\t// in\n    tag_437:\n        /* \"#utility.yul\":3688:3766   */\n      swap4\n      pop\n        /* \"#utility.yul\":3775:3827   */\n      tag_439\n        /* \"#utility.yul\":3820:3826   */\n      dup2\n        /* \"#utility.yul\":3815:3818   */\n      dup6\n        /* \"#utility.yul\":3808:3812   */\n      0x20\n        /* \"#utility.yul\":3801:3806   */\n      dup7\n        /* \"#utility.yul\":3797:3813   */\n      add\n        /* \"#utility.yul\":3775:3827   */\n      tag_440\n      jump\t// in\n    tag_439:\n        /* \"#utility.yul\":3852:3881   */\n      tag_441\n        /* \"#utility.yul\":3874:3880   */\n      dup2\n        /* \"#utility.yul\":3852:3881   */\n      tag_442\n      jump\t// in\n    tag_441:\n        /* \"#utility.yul\":3847:3850   */\n      dup5\n        /* \"#utility.yul\":3843:3882   */\n      add\n        /* \"#utility.yul\":3836:3882   */\n      swap2\n      pop\n        /* \"#utility.yul\":3616:3888   */\n      pop\n        /* \"#utility.yul\":3524:3888   */\n      swap3\n      swap2\n      pop\n      pop\n      jump\t// out\n        /* \"#utility.yul\":3894:4260   */\n    tag_443:\n        /* \"#utility.yul\":4036:4039   */\n      0x00\n        /* \"#utility.yul\":4057:4124   */\n      tag_445\n        /* \"#utility.yul\":4121:4123   */\n      0x0f\n        /* \"#utility.yul\":4116:4119   */\n      dup4\n        /* \"#utility.yul\":4057:4124   */\n      tag_438\n      jump\t// in\n    tag_445:\n        /* \"#utility.yul\":4050:4124   */\n      swap2\n      pop\n        /* \"#utility.yul\":4133:4226   */\n      tag_446\n        /* \"#utility.yul\":4222:4225   */\n      dup3\n        /* \"#utility.yul\":4133:4226   */\n      tag_447\n      jump\t// in\n    tag_446:\n        /* \"#utility.yul\":4251:4253   */\n      0x20\n        /* \"#utility.yul\":4246:4249   */\n      dup3\n        /* \"#utility.yul\":4242:4254   */\n      add\n        /* \"#utility.yul\":4235:4254   */\n      swap1\n      pop\n        /* \"#utility.yul\":3894:4260   */\n      swap2\n      swap1\n      pop\n      jump\t// out\n        /* \"#utility.yul\":4266:4632   */\n    tag_448:\n        /* \"#utility.yul\":4408:4411   */\n      0x00\n        /* \"#utility.yul\":4429:4496   */\n      tag_450\n        /* \"#utility.yul\":4493:4495   */\n      0x11\n        /* \"#utility.yul\":4488:4491   */\n      dup4\n        /* \"#utility.yul\":4429:4496   */\n      tag_438\n      jump\t// in\n    tag_450:\n        /* \"#utility.yul\":4422:4496   */\n      swap2\n      pop\n        /* \"#utility.yul\":4505:4598   */\n      tag_451\n        /* \"#utility.yul\":4594:4597   */\n      dup3\n        /* \"#utility.yul\":4505:4598   */\n      tag_452\n      jump\t// in\n    tag_451:\n        /* \"#utility.yul\":4623:4625   */\n      0x20\n        /* \"#utility.yul\":4618:4621   */\n      dup3\n        /* \"#utility.yul\":4614:4626   */\n      add\n        /* \"#utility.yul\":4607:4626   */\n      swap1\n      pop\n        /* \"#utility.yul\":4266:4632   */\n      swap2\n      swap1\n      pop\n      jump\t// out\n        /* \"#utility.yul\":4638:5004   */\n    tag_453:\n        /* \"#utility.yul\":4780:4783   */\n      0x00\n        /* \"#utility.yul\":4801:4868   */\n      tag_455\n        /* \"#utility.yul\":4865:4867   */\n      0x12\n        /* \"#utility.yul\":4860:4863   */\n      dup4\n        /* \"#utility.yul\":4801:4868   */\n      tag_438\n      jump\t// in\n    tag_455:\n        /* \"#utility.yul\":4794:4868   */\n      swap2\n      pop\n        /* \"#utility.yul\":4877:4970   */\n      tag_456\n        /* \"#utility.yul\":4966:4969   */\n      dup3\n        /* \"#utility.yul\":4877:4970   */\n      tag_457\n      jump\t// in\n    tag_456:\n        /* \"#utility.yul\":4995:4997   */\n      0x20\n        /* \"#utility.yul\":4990:4993   */\n      dup3\n        /* \"#utility.yul\":4986:4998   */\n      add\n        /* \"#utility.yul\":4979:4998   */\n      swap1\n      pop\n        /* \"#utility.yul\":4638:5004   */\n      swap2\n      swap1\n      pop\n      jump\t// out\n        /* \"#utility.yul\":5010:5376   */\n    tag_458:\n        /* \"#utility.yul\":5152:5155   */\n      0x00\n        /* \"#utility.yul\":5173:5240   */\n      tag_460\n        /* \"#utility.yul\":5237:5239   */\n      0x1b\n        /* \"#utility.yul\":5232:5235   */\n      dup4\n        /* \"#utility.yul\":5173:5240   */\n      tag_438\n      jump\t// in\n    tag_460:\n        /* \"#utility.yul\":5166:5240   */\n      swap2\n      pop\n        /* \"#utility.yul\":5249:5342   */\n      tag_461\n        /* \"#utility.yul\":5338:5341   */\n      dup3\n        /* \"#utility.yul\":5249:5342   */\n      tag_462\n      jump\t// in\n    tag_461:\n        /* \"#utility.yul\":5367:5369   */\n      0x20\n        /* \"#utility.yul\":5362:5365   */\n      dup3\n        /* \"#utility.yul\":5358:5370   */\n      add\n        /* \"#utility.yul\":5351:5370   */\n      swap1\n      pop\n        /* \"#utility.yul\":5010:5376   */\n      swap2\n      swap1\n      pop\n      jump\t// out\n        /* \"#utility.yul\":5382:5748   */\n    tag_463:\n        /* \"#utility.yul\":5524:5527   */\n      0x00\n        /* \"#utility.yul\":5545:5612   */\n      tag_465\n        /* \"#utility.yul\":5609:5611   */\n      0x12\n        /* \"#utility.yul\":5604:5607   */\n      dup4\n        /* \"#utility.yul\":5545:5612   */\n      tag_438\n      jump\t// in\n    tag_465:\n        /* \"#utility.yul\":5538:5612   */\n      swap2\n      pop\n        /* \"#utility.yul\":5621:5714   */\n      tag_466\n        /* \"#utility.yul\":5710:5713   */\n      dup3\n        /* \"#utility.yul\":5621:5714   */\n      tag_467\n      jump\t// in\n    tag_466:\n        /* \"#utility.yul\":5739:5741   */\n      0x20\n        /* \"#utility.yul\":5734:5737   */\n      dup3\n        /* \"#utility.yul\":5730:5742   */\n      add\n        /* \"#utility.yul\":5723:5742   */\n      swap1\n      pop\n        /* \"#utility.yul\":5382:5748   */\n      swap2\n      swap1\n      pop\n      jump\t// out\n        /* \"#utility.yul\":5754:6120   */\n    tag_468:\n        /* \"#utility.yul\":5896:5899   */\n      0x00\n        /* \"#utility.yul\":5917:5984   */\n      tag_470\n        /* \"#utility.yul\":5981:5983   */\n      0x12\n        /* \"#utility.yul\":5976:5979   */\n      dup4\n        /* \"#utility.yul\":5917:5984   */\n      tag_438\n      jump\t// in\n    tag_470:\n        /* \"#utility.yul\":5910:5984   */\n      swap2\n      pop\n        /* \"#utility.yul\":5993:6086   */\n      tag_471\n        /* \"#utility.yul\":6082:6085   */\n      dup3\n        /* \"#utility.yul\":5993:6086   */\n      tag_472\n      jump\t// in\n    tag_471:\n        /* \"#utility.yul\":6111:6113   */\n      0x20\n        /* \"#utility.yul\":6106:6109   */\n      dup3\n        /* \"#utility.yul\":6102:6114   */\n      add\n        /* \"#utility.yul\":6095:6114   */\n      swap1\n      pop\n        /* \"#utility.yul\":5754:6120   */\n      swap2\n      swap1\n      pop\n      jump\t// out\n        /* \"#utility.yul\":6126:6492   */\n    tag_473:\n        /* \"#utility.yul\":6268:6271   */\n      0x00\n        /* \"#utility.yul\":6289:6356   */\n      tag_475\n        /* \"#utility.yul\":6353:6355   */\n      0x21\n        /* \"#utility.yul\":6348:6351   */\n      dup4\n        /* \"#utility.yul\":6289:6356   */\n      tag_438\n      jump\t// in\n    tag_475:\n        /* \"#utility.yul\":6282:6356   */\n      swap2\n      pop\n        /* \"#utility.yul\":6365:6458   */\n      tag_476\n        /* \"#utility.yul\":6454:6457   */\n      dup3\n        /* \"#utility.yul\":6365:6458   */\n      tag_477\n      jump\t// in\n    tag_476:\n        /* \"#utility.yul\":6483:6485   */\n      0x40\n        /* \"#utility.yul\":6478:6481   */\n      dup3\n        /* \"#utility.yul\":6474:6486   */\n      add\n        /* \"#utility.yul\":6467:6486   */\n      swap1\n      pop\n        /* \"#utility.yul\":6126:6492   */\n      swap2\n      swap1\n      pop\n      jump\t// out\n        /* \"#utility.yul\":6498:6864   */\n    tag_478:\n        /* \"#utility.yul\":6640:6643   */\n      0x00\n        /* \"#utility.yul\":6661:6728   */\n      tag_480\n        /* \"#utility.yul\":6725:6727   */\n      0x0b\n        /* \"#utility.yul\":6720:6723   */\n      dup4\n        /* \"#utility.yul\":6661:6728   */\n      tag_438\n      jump\t// in\n    tag_480:\n        /* \"#utility.yul\":6654:6728   */\n      swap2\n      pop\n        /* \"#utility.yul\":6737:6830   */\n      tag_481\n        /* \"#utility.yul\":6826:6829   */\n      dup3\n        /* \"#utility.yul\":6737:6830   */\n      tag_482\n      jump\t// in\n    tag_481:\n        /* \"#utility.yul\":6855:6857   */\n      0x20\n        /* \"#utility.yul\":6850:6853   */\n      dup3\n        /* \"#utility.yul\":6846:6858   */\n      add\n        /* \"#utility.yul\":6839:6858   */\n      swap1\n      pop\n        /* \"#utility.yul\":6498:6864   */\n      swap2\n      swap1\n      pop\n      jump\t// out\n        /* \"#utility.yul\":6870:7236   */\n    tag_483:\n        /* \"#utility.yul\":7012:7015   */\n      0x00\n        /* \"#utility.yul\":7033:7100   */\n      tag_485\n        /* \"#utility.yul\":7097:7099   */\n      0x12\n        /* \"#utility.yul\":7092:7095   */\n      dup4\n        /* \"#utility.yul\":7033:7100   */\n      tag_438\n      jump\t// in\n    tag_485:\n        /* \"#utility.yul\":7026:7100   */\n      swap2\n      pop\n        /* \"#utility.yul\":7109:7202   */\n      tag_486\n        /* \"#utility.yul\":7198:7201   */\n      dup3\n        /* \"#utility.yul\":7109:7202   */\n      tag_487\n      jump\t// in\n    tag_486:\n        /* \"#utility.yul\":7227:7229   */\n      0x20\n        /* \"#utility.yul\":7222:7225   */\n      dup3\n        /* \"#utility.yul\":7218:7230   */\n      add\n        /* \"#utility.yul\":7211:7230   */\n      swap1\n      pop\n        /* \"#utility.yul\":6870:7236   */\n      swap2\n      swap1\n      pop\n      jump\t// out\n        /* \"#utility.yul\":7242:7608   */\n    tag_488:\n        /* \"#utility.yul\":7384:7387   */\n      0x00\n        /* \"#utility.yul\":7405:7472   */\n      tag_490\n        /* \"#utility.yul\":7469:7471   */\n      0x12\n        /* \"#utility.yul\":7464:7467   */\n      dup4\n        /* \"#utility.yul\":7405:7472   */\n      tag_438\n      jump\t// in\n    tag_490:\n        /* \"#utility.yul\":7398:7472   */\n      swap2\n      pop\n        /* \"#utility.yul\":7481:7574   */\n      tag_491\n        /* \"#utility.yul\":7570:7573   */\n      dup3\n        /* \"#utility.yul\":7481:7574   */\n      tag_492\n      jump\t// in\n    tag_491:\n        /* \"#utility.yul\":7599:7601   */\n      0x20\n        /* \"#utility.yul\":7594:7597   */\n      dup3\n        /* \"#utility.yul\":7590:7602   */\n      add\n        /* \"#utility.yul\":7583:7602   */\n      swap1\n      pop\n        /* \"#utility.yul\":7242:7608   */\n      swap2\n      swap1\n      pop\n      jump\t// out\n        /* \"#utility.yul\":7614:7980   */\n    tag_493:\n        /* \"#utility.yul\":7756:7759   */\n      0x00\n        /* \"#utility.yul\":7777:7844   */\n      tag_495\n        /* \"#utility.yul\":7841:7843   */\n      0x10\n        /* \"#utility.yul\":7836:7839   */\n      dup4\n        /* \"#utility.yul\":7777:7844   */\n      tag_438\n      jump\t// in\n    tag_495:\n        /* \"#utility.yul\":7770:7844   */\n      swap2\n      pop\n        /* \"#utility.yul\":7853:7946   */\n      tag_496\n        /* \"#utility.yul\":7942:7945   */\n      dup3\n        /* \"#utility.yul\":7853:7946   */\n      tag_497\n      jump\t// in\n    tag_496:\n        /* \"#utility.yul\":7971:7973   */\n      0x20\n        /* \"#utility.yul\":7966:7969   */\n      dup3\n        /* \"#utility.yul\":7962:7974   */\n      add\n        /* \"#utility.yul\":7955:7974   */\n      swap1\n      pop\n        /* \"#utility.yul\":7614:7980   */\n      swap2\n      swap1\n      pop\n      jump\t// out\n        /* \"#utility.yul\":7986:8352   */\n    tag_498:\n        /* \"#utility.yul\":8128:8131   */\n      0x00\n        /* \"#utility.yul\":8149:8216   */\n      tag_500\n        /* \"#utility.yul\":8213:8215   */\n      0x12\n        /* \"#utility.yul\":8208:8211   */\n      dup4\n        /* \"#utility.yul\":8149:8216   */\n      tag_438\n      jump\t// in\n    tag_500:\n        /* \"#utility.yul\":8142:8216   */\n      swap2\n      pop\n        /* \"#utility.yul\":8225:8318   */\n      tag_501\n        /* \"#utility.yul\":8314:8317   */\n      dup3\n        /* \"#utility.yul\":8225:8318   */\n      tag_502\n      jump\t// in\n    tag_501:\n        /* \"#utility.yul\":8343:8345   */\n      0x20\n        /* \"#utility.yul\":8338:8341   */\n      dup3\n        /* \"#utility.yul\":8334:8346   */\n      add\n        /* \"#utility.yul\":8327:8346   */\n      swap1\n      pop\n        /* \"#utility.yul\":7986:8352   */\n      swap2\n      swap1\n      pop\n      jump\t// out\n        /* \"#utility.yul\":8358:8476   */\n    tag_503:\n        /* \"#utility.yul\":8445:8469   */\n      tag_505\n        /* \"#utility.yul\":8463:8468   */\n      dup2\n        /* \"#utility.yul\":8445:8469   */\n      tag_506\n      jump\t// in\n    tag_505:\n        /* \"#utility.yul\":8440:8443   */\n      dup3\n        /* \"#utility.yul\":8433:8470   */\n      mstore\n        /* \"#utility.yul\":8358:8476   */\n      pop\n      pop\n      jump\t// out\n        /* \"#utility.yul\":8482:8594   */\n    tag_507:\n        /* \"#utility.yul\":8565:8587   */\n      tag_509\n        /* \"#utility.yul\":8581:8586   */\n      dup2\n        /* \"#utility.yul\":8565:8587   */\n      tag_510\n      jump\t// in\n    tag_509:\n        /* \"#utility.yul\":8560:8563   */\n      dup3\n        /* \"#utility.yul\":8553:8588   */\n      mstore\n        /* \"#utility.yul\":8482:8594   */\n      pop\n      pop\n      jump\t// out\n        /* \"#utility.yul\":8600:8822   */\n    tag_113:\n        /* \"#utility.yul\":8693:8697   */\n      0x00\n        /* \"#utility.yul\":8731:8733   */\n      0x20\n        /* \"#utility.yul\":8720:8729   */\n      dup3\n        /* \"#utility.yul\":8716:8734   */\n      add\n        /* \"#utility.yul\":8708:8734   */\n      swap1\n      pop\n        /* \"#utility.yul\":8744:8815   */\n      tag_512\n        /* \"#utility.yul\":8812:8813   */\n      0x00\n        /* \"#utility.yul\":8801:8810   */\n      dup4\n        /* \"#utility.yul\":8797:8814   */\n      add\n        /* \"#utility.yul\":8788:8794   */\n      dup5\n        /* \"#utility.yul\":8744:8815   */\n      tag_421\n      jump\t// in\n    tag_512:\n        /* \"#utility.yul\":8600:8822   */\n      swap3\n      swap2\n      pop\n      pop\n      jump\t// out\n        /* \"#utility.yul\":8828:9160   */\n    tag_222:\n        /* \"#utility.yul\":8949:8953   */\n      0x00\n        /* \"#utility.yul\":8987:8989   */\n      0x40\n        /* \"#utility.yul\":8976:8985   */\n      dup3\n        /* \"#utility.yul\":8972:8990   */\n      add\n        /* \"#utility.yul\":8964:8990   */\n      swap1\n      pop\n        /* \"#utility.yul\":9000:9071   */\n      tag_514\n        /* \"#utility.yul\":9068:9069   */\n      0x00\n        /* \"#utility.yul\":9057:9066   */\n      dup4\n        /* \"#utility.yul\":9053:9070   */\n      add\n        /* \"#utility.yul\":9044:9050   */\n      dup6\n        /* \"#utility.yul\":9000:9071   */\n      tag_421\n      jump\t// in\n    tag_514:\n        /* \"#utility.yul\":9081:9153   */\n      tag_515\n        /* \"#utility.yul\":9149:9151   */\n      0x20\n        /* \"#utility.yul\":9138:9147   */\n      dup4\n        /* \"#utility.yul\":9134:9152   */\n      add\n        /* \"#utility.yul\":9125:9131   */\n      dup5\n        /* \"#utility.yul\":9081:9153   */\n      tag_421\n      jump\t// in\n    tag_515:\n        /* \"#utility.yul\":8828:9160   */\n      swap4\n      swap3\n      pop\n      pop\n      pop\n      jump\t// out\n        /* \"#utility.yul\":9166:9608   */\n    tag_353:\n        /* \"#utility.yul\":9315:9319   */\n      0x00\n        /* \"#utility.yul\":9353:9355   */\n      0x60\n        /* \"#utility.yul\":9342:9351   */\n      dup3\n        /* \"#utility.yul\":9338:9356   */\n      add\n        /* \"#utility.yul\":9330:9356   */\n      swap1\n      pop\n        /* \"#utility.yul\":9366:9437   */\n      tag_517\n        /* \"#utility.yul\":9434:9435   */\n      0x00\n        /* \"#utility.yul\":9423:9432   */\n      dup4\n        /* \"#utility.yul\":9419:9436   */\n      add\n        /* \"#utility.yul\":9410:9416   */\n      dup7\n        /* \"#utility.yul\":9366:9437   */\n      tag_421\n      jump\t// in\n    tag_517:\n        /* \"#utility.yul\":9447:9519   */\n      tag_518\n        /* \"#utility.yul\":9515:9517   */\n      0x20\n        /* \"#utility.yul\":9504:9513   */\n      dup4\n        /* \"#utility.yul\":9500:9518   */\n      add\n        /* \"#utility.yul\":9491:9497   */\n      dup6\n        /* \"#utility.yul\":9447:9519   */\n      tag_421\n      jump\t// in\n    tag_518:\n        /* \"#utility.yul\":9529:9601   */\n      tag_519\n        /* \"#utility.yul\":9597:9599   */\n      0x40\n        /* \"#utility.yul\":9586:9595   */\n      dup4\n        /* \"#utility.yul\":9582:9600   */\n      add\n        /* \"#utility.yul\":9573:9579   */\n      dup5\n        /* \"#utility.yul\":9529:9601   */\n      tag_503\n      jump\t// in\n    tag_519:\n        /* \"#utility.yul\":9166:9608   */\n      swap5\n      swap4\n      pop\n      pop\n      pop\n      pop\n      jump\t// out\n        /* \"#utility.yul\":9614:9946   */\n    tag_237:\n        /* \"#utility.yul\":9735:9739   */\n      0x00\n        /* \"#utility.yul\":9773:9775   */\n      0x40\n        /* \"#utility.yul\":9762:9771   */\n      dup3\n        /* \"#utility.yul\":9758:9776   */\n      add\n        /* \"#utility.yul\":9750:9776   */\n      swap1\n      pop\n        /* \"#utility.yul\":9786:9857   */\n      tag_521\n        /* \"#utility.yul\":9854:9855   */\n      0x00\n        /* \"#utility.yul\":9843:9852   */\n      dup4\n        /* \"#utility.yul\":9839:9856   */\n      add\n        /* \"#utility.yul\":9830:9836   */\n      dup6\n        /* \"#utility.yul\":9786:9857   */\n      tag_421\n      jump\t// in\n    tag_521:\n        /* \"#utility.yul\":9867:9939   */\n      tag_522\n        /* \"#utility.yul\":9935:9937   */\n      0x20\n        /* \"#utility.yul\":9924:9933   */\n      dup4\n        /* \"#utility.yul\":9920:9938   */\n      add\n        /* \"#utility.yul\":9911:9917   */\n      dup5\n        /* \"#utility.yul\":9867:9939   */\n      tag_503\n      jump\t// in\n    tag_522:\n        /* \"#utility.yul\":9614:9946   */\n      swap4\n      swap3\n      pop\n      pop\n      pop\n      jump\t// out\n        /* \"#utility.yul\":9952:10394   */\n    tag_323:\n        /* \"#utility.yul\":10101:10105   */\n      0x00\n        /* \"#utility.yul\":10139:10141   */\n      0x60\n        /* \"#utility.yul\":10128:10137   */\n      dup3\n        /* \"#utility.yul\":10124:10142   */\n      add\n        /* \"#utility.yul\":10116:10142   */\n      swap1\n      pop\n        /* \"#utility.yul\":10152:10223   */\n      tag_524\n        /* \"#utility.yul\":10220:10221   */\n      0x00\n        /* \"#utility.yul\":10209:10218   */\n      dup4\n        /* \"#utility.yul\":10205:10222   */\n      add\n        /* \"#utility.yul\":10196:10202   */\n      dup7\n        /* \"#utility.yul\":10152:10223   */\n      tag_421\n      jump\t// in\n    tag_524:\n        /* \"#utility.yul\":10233:10305   */\n      tag_525\n        /* \"#utility.yul\":10301:10303   */\n      0x20\n        /* \"#utility.yul\":10290:10299   */\n      dup4\n        /* \"#utility.yul\":10286:10304   */\n      add\n        /* \"#utility.yul\":10277:10283   */\n      dup6\n        /* \"#utility.yul\":10233:10305   */\n      tag_503\n      jump\t// in\n    tag_525:\n        /* \"#utility.yul\":10315:10387   */\n      tag_526\n        /* \"#utility.yul\":10383:10385   */\n      0x40\n        /* \"#utility.yul\":10372:10381   */\n      dup4\n        /* \"#utility.yul\":10368:10386   */\n      add\n        /* \"#utility.yul\":10359:10365   */\n      dup5\n        /* \"#utility.yul\":10315:10387   */\n      tag_503\n      jump\t// in\n    tag_526:\n        /* \"#utility.yul\":9952:10394   */\n      swap5\n      swap4\n      pop\n      pop\n      pop\n      pop\n      jump\t// out\n        /* \"#utility.yul\":10400:10610   */\n    tag_123:\n        /* \"#utility.yul\":10487:10491   */\n      0x00\n        /* \"#utility.yul\":10525:10527   */\n      0x20\n        /* \"#utility.yul\":10514:10523   */\n      dup3\n        /* \"#utility.yul\":10510:10528   */\n      add\n        /* \"#utility.yul\":10502:10528   */\n      swap1\n      pop\n        /* \"#utility.yul\":10538:10603   */\n      tag_528\n        /* \"#utility.yul\":10600:10601   */\n      0x00\n        /* \"#utility.yul\":10589:10598   */\n      dup4\n        /* \"#utility.yul\":10585:10602   */\n      add\n        /* \"#utility.yul\":10576:10582   */\n      dup5\n        /* \"#utility.yul\":10538:10603   */\n      tag_425\n      jump\t// in\n    tag_528:\n        /* \"#utility.yul\":10400:10610   */\n      swap3\n      swap2\n      pop\n      pop\n      jump\t// out\n        /* \"#utility.yul\":10616:10866   */\n    tag_108:\n        /* \"#utility.yul\":10723:10727   */\n      0x00\n        /* \"#utility.yul\":10761:10763   */\n      0x20\n        /* \"#utility.yul\":10750:10759   */\n      dup3\n        /* \"#utility.yul\":10746:10764   */\n      add\n        /* \"#utility.yul\":10738:10764   */\n      swap1\n      pop\n        /* \"#utility.yul\":10774:10859   */\n      tag_530\n        /* \"#utility.yul\":10856:10857   */\n      0x00\n        /* \"#utility.yul\":10845:10854   */\n      dup4\n        /* \"#utility.yul\":10841:10858   */\n      add\n        /* \"#utility.yul\":10832:10838   */\n      dup5\n        /* \"#utility.yul\":10774:10859   */\n      tag_429\n      jump\t// in\n    tag_530:\n        /* \"#utility.yul\":10616:10866   */\n      swap3\n      swap2\n      pop\n      pop\n      jump\t// out\n        /* \"#utility.yul\":10872:11185   */\n    tag_369:\n        /* \"#utility.yul\":10985:10989   */\n      0x00\n        /* \"#utility.yul\":11023:11025   */\n      0x20\n        /* \"#utility.yul\":11012:11021   */\n      dup3\n        /* \"#utility.yul\":11008:11026   */\n      add\n        /* \"#utility.yul\":11000:11026   */\n      swap1\n      pop\n        /* \"#utility.yul\":11072:11081   */\n      dup2\n        /* \"#utility.yul\":11066:11070   */\n      dup2\n        /* \"#utility.yul\":11062:11082   */\n      sub\n        /* \"#utility.yul\":11058:11059   */\n      0x00\n        /* \"#utility.yul\":11047:11056   */\n      dup4\n        /* \"#utility.yul\":11043:11060   */\n      add\n        /* \"#utility.yul\":11036:11083   */\n      mstore\n        /* \"#utility.yul\":11100:11178   */\n      tag_532\n        /* \"#utility.yul\":11173:11177   */\n      dup2\n        /* \"#utility.yul\":11164:11170   */\n      dup5\n        /* \"#utility.yul\":11100:11178   */\n      tag_433\n      jump\t// in\n    tag_532:\n        /* \"#utility.yul\":11092:11178   */\n      swap1\n      pop\n        /* \"#utility.yul\":10872:11185   */\n      swap3\n      swap2\n      pop\n      pop\n      jump\t// out\n        /* \"#utility.yul\":11191:11610   */\n    tag_180:\n        /* \"#utility.yul\":11357:11361   */\n      0x00\n        /* \"#utility.yul\":11395:11397   */\n      0x20\n        /* \"#utility.yul\":11384:11393   */\n      dup3\n        /* \"#utility.yul\":11380:11398   */\n      add\n        /* \"#utility.yul\":11372:11398   */\n      swap1\n      pop\n        /* \"#utility.yul\":11444:11453   */\n      dup2\n        /* \"#utility.yul\":11438:11442   */\n      dup2\n        /* \"#utility.yul\":11434:11454   */\n      sub\n        /* \"#utility.yul\":11430:11431   */\n      0x00\n        /* \"#utility.yul\":11419:11428   */\n      dup4\n        /* \"#utility.yul\":11415:11432   */\n      add\n        /* \"#utility.yul\":11408:11455   */\n      mstore\n        /* \"#utility.yul\":11472:11603   */\n      tag_534\n        /* \"#utility.yul\":11598:11602   */\n      dup2\n        /* \"#utility.yul\":11472:11603   */\n      tag_443\n      jump\t// in\n    tag_534:\n        /* \"#utility.yul\":11464:11603   */\n      swap1\n      pop\n        /* \"#utility.yul\":11191:11610   */\n      swap2\n      swap1\n      pop\n      jump\t// out\n        /* \"#utility.yul\":11616:12035   */\n    tag_281:\n        /* \"#utility.yul\":11782:11786   */\n      0x00\n        /* \"#utility.yul\":11820:11822   */\n      0x20\n        /* \"#utility.yul\":11809:11818   */\n      dup3\n        /* \"#utility.yul\":11805:11823   */\n      add\n        /* \"#utility.yul\":11797:11823   */\n      swap1\n      pop\n        /* \"#utility.yul\":11869:11878   */\n      dup2\n        /* \"#utility.yul\":11863:11867   */\n      dup2\n        /* \"#utility.yul\":11859:11879   */\n      sub\n        /* \"#utility.yul\":11855:11856   */\n      0x00\n        /* \"#utility.yul\":11844:11853   */\n      dup4\n        /* \"#utility.yul\":11840:11857   */\n      add\n        /* \"#utility.yul\":11833:11880   */\n      mstore\n        /* \"#utility.yul\":11897:12028   */\n      tag_536\n        /* \"#utility.yul\":12023:12027   */\n      dup2\n        /* \"#utility.yul\":11897:12028   */\n      tag_448\n      jump\t// in\n    tag_536:\n        /* \"#utility.yul\":11889:12028   */\n      swap1\n      pop\n        /* \"#utility.yul\":11616:12035   */\n      swap2\n      swap1\n      pop\n      jump\t// out\n        /* \"#utility.yul\":12041:12460   */\n    tag_303:\n        /* \"#utility.yul\":12207:12211   */\n      0x00\n        /* \"#utility.yul\":12245:12247   */\n      0x20\n        /* \"#utility.yul\":12234:12243   */\n      dup3\n        /* \"#utility.yul\":12230:12248   */\n      add\n        /* \"#utility.yul\":12222:12248   */\n      swap1\n      pop\n        /* \"#utility.yul\":12294:12303   */\n      dup2\n        /* \"#utility.yul\":12288:12292   */\n      dup2\n        /* \"#utility.yul\":12284:12304   */\n      sub\n        /* \"#utility.yul\":12280:12281   */\n      0x00\n        /* \"#utility.yul\":12269:12278   */\n      dup4\n        /* \"#utility.yul\":12265:12282   */\n      add\n        /* \"#utility.yul\":12258:12305   */\n      mstore\n        /* \"#utility.yul\":12322:12453   */\n      tag_538\n        /* \"#utility.yul\":12448:12452   */\n      dup2\n        /* \"#utility.yul\":12322:12453   */\n      tag_453\n      jump\t// in\n    tag_538:\n        /* \"#utility.yul\":12314:12453   */\n      swap1\n      pop\n        /* \"#utility.yul\":12041:12460   */\n      swap2\n      swap1\n      pop\n      jump\t// out\n        /* \"#utility.yul\":12466:12885   */\n    tag_345:\n        /* \"#utility.yul\":12632:12636   */\n      0x00\n        /* \"#utility.yul\":12670:12672   */\n      0x20\n        /* \"#utility.yul\":12659:12668   */\n      dup3\n        /* \"#utility.yul\":12655:12673   */\n      add\n        /* \"#utility.yul\":12647:12673   */\n      swap1\n      pop\n        /* \"#utility.yul\":12719:12728   */\n      dup2\n        /* \"#utility.yul\":12713:12717   */\n      dup2\n        /* \"#utility.yul\":12709:12729   */\n      sub\n        /* \"#utility.yul\":12705:12706   */\n      0x00\n        /* \"#utility.yul\":12694:12703   */\n      dup4\n        /* \"#utility.yul\":12690:12707   */\n      add\n        /* \"#utility.yul\":12683:12730   */\n      mstore\n        /* \"#utility.yul\":12747:12878   */\n      tag_540\n        /* \"#utility.yul\":12873:12877   */\n      dup2\n        /* \"#utility.yul\":12747:12878   */\n      tag_458\n      jump\t// in\n    tag_540:\n        /* \"#utility.yul\":12739:12878   */\n      swap1\n      pop\n        /* \"#utility.yul\":12466:12885   */\n      swap2\n      swap1\n      pop\n      jump\t// out\n        /* \"#utility.yul\":12891:13310   */\n    tag_314:\n        /* \"#utility.yul\":13057:13061   */\n      0x00\n        /* \"#utility.yul\":13095:13097   */\n      0x20\n        /* \"#utility.yul\":13084:13093   */\n      dup3\n        /* \"#utility.yul\":13080:13098   */\n      add\n        /* \"#utility.yul\":13072:13098   */\n      swap1\n      pop\n        /* \"#utility.yul\":13144:13153   */\n      dup2\n        /* \"#utility.yul\":13138:13142   */\n      dup2\n        /* \"#utility.yul\":13134:13154   */\n      sub\n        /* \"#utility.yul\":13130:13131   */\n      0x00\n        /* \"#utility.yul\":13119:13128   */\n      dup4\n        /* \"#utility.yul\":13115:13132   */\n      add\n        /* \"#utility.yul\":13108:13155   */\n      mstore\n        /* \"#utility.yul\":13172:13303   */\n      tag_542\n        /* \"#utility.yul\":13298:13302   */\n      dup2\n        /* \"#utility.yul\":13172:13303   */\n      tag_463\n      jump\t// in\n    tag_542:\n        /* \"#utility.yul\":13164:13303   */\n      swap1\n      pop\n        /* \"#utility.yul\":12891:13310   */\n      swap2\n      swap1\n      pop\n      jump\t// out\n        /* \"#utility.yul\":13316:13735   */\n    tag_306:\n        /* \"#utility.yul\":13482:13486   */\n      0x00\n        /* \"#utility.yul\":13520:13522   */\n      0x20\n        /* \"#utility.yul\":13509:13518   */\n      dup3\n        /* \"#utility.yul\":13505:13523   */\n      add\n        /* \"#utility.yul\":13497:13523   */\n      swap1\n      pop\n        /* \"#utility.yul\":13569:13578   */\n      dup2\n        /* \"#utility.yul\":13563:13567   */\n      dup2\n        /* \"#utility.yul\":13559:13579   */\n      sub\n        /* \"#utility.yul\":13555:13556   */\n      0x00\n        /* \"#utility.yul\":13544:13553   */\n      dup4\n        /* \"#utility.yul\":13540:13557   */\n      add\n        /* \"#utility.yul\":13533:13580   */\n      mstore\n        /* \"#utility.yul\":13597:13728   */\n      tag_544\n        /* \"#utility.yul\":13723:13727   */\n      dup2\n        /* \"#utility.yul\":13597:13728   */\n      tag_468\n      jump\t// in\n    tag_544:\n        /* \"#utility.yul\":13589:13728   */\n      swap1\n      pop\n        /* \"#utility.yul\":13316:13735   */\n      swap2\n      swap1\n      pop\n      jump\t// out\n        /* \"#utility.yul\":13741:14160   */\n    tag_336:\n        /* \"#utility.yul\":13907:13911   */\n      0x00\n        /* \"#utility.yul\":13945:13947   */\n      0x20\n        /* \"#utility.yul\":13934:13943   */\n      dup3\n        /* \"#utility.yul\":13930:13948   */\n      add\n        /* \"#utility.yul\":13922:13948   */\n      swap1\n      pop\n        /* \"#utility.yul\":13994:14003   */\n      dup2\n        /* \"#utility.yul\":13988:13992   */\n      dup2\n        /* \"#utility.yul\":13984:14004   */\n      sub\n        /* \"#utility.yul\":13980:13981   */\n      0x00\n        /* \"#utility.yul\":13969:13978   */\n      dup4\n        /* \"#utility.yul\":13965:13982   */\n      add\n        /* \"#utility.yul\":13958:14005   */\n      mstore\n        /* \"#utility.yul\":14022:14153   */\n      tag_546\n        /* \"#utility.yul\":14148:14152   */\n      dup2\n        /* \"#utility.yul\":14022:14153   */\n      tag_473\n      jump\t// in\n    tag_546:\n        /* \"#utility.yul\":14014:14153   */\n      swap1\n      pop\n        /* \"#utility.yul\":13741:14160   */\n      swap2\n      swap1\n      pop\n      jump\t// out\n        /* \"#utility.yul\":14166:14585   */\n    tag_285:\n        /* \"#utility.yul\":14332:14336   */\n      0x00\n        /* \"#utility.yul\":14370:14372   */\n      0x20\n        /* \"#utility.yul\":14359:14368   */\n      dup3\n        /* \"#utility.yul\":14355:14373   */\n      add\n        /* \"#utility.yul\":14347:14373   */\n      swap1\n      pop\n        /* \"#utility.yul\":14419:14428   */\n      dup2\n        /* \"#utility.yul\":14413:14417   */\n      dup2\n        /* \"#utility.yul\":14409:14429   */\n      sub\n        /* \"#utility.yul\":14405:14406   */\n      0x00\n        /* \"#utility.yul\":14394:14403   */\n      dup4\n        /* \"#utility.yul\":14390:14407   */\n      add\n        /* \"#utility.yul\":14383:14430   */\n      mstore\n        /* \"#utility.yul\":14447:14578   */\n      tag_548\n        /* \"#utility.yul\":14573:14577   */\n      dup2\n        /* \"#utility.yul\":14447:14578   */\n      tag_478\n      jump\t// in\n    tag_548:\n        /* \"#utility.yul\":14439:14578   */\n      swap1\n      pop\n        /* \"#utility.yul\":14166:14585   */\n      swap2\n      swap1\n      pop\n      jump\t// out\n        /* \"#utility.yul\":14591:15010   */\n    tag_289:\n        /* \"#utility.yul\":14757:14761   */\n      0x00\n        /* \"#utility.yul\":14795:14797   */\n      0x20\n        /* \"#utility.yul\":14784:14793   */\n      dup3\n        /* \"#utility.yul\":14780:14798   */\n      add\n        /* \"#utility.yul\":14772:14798   */\n      swap1\n      pop\n        /* \"#utility.yul\":14844:14853   */\n      dup2\n        /* \"#utility.yul\":14838:14842   */\n      dup2\n        /* \"#utility.yul\":14834:14854   */\n      sub\n        /* \"#utility.yul\":14830:14831   */\n      0x00\n        /* \"#utility.yul\":14819:14828   */\n      dup4\n        /* \"#utility.yul\":14815:14832   */\n      add\n        /* \"#utility.yul\":14808:14855   */\n      mstore\n        /* \"#utility.yul\":14872:15003   */\n      tag_550\n        /* \"#utility.yul\":14998:15002   */\n      dup2\n        /* \"#utility.yul\":14872:15003   */\n      tag_483\n      jump\t// in\n    tag_550:\n        /* \"#utility.yul\":14864:15003   */\n      swap1\n      pop\n        /* \"#utility.yul\":14591:15010   */\n      swap2\n      swap1\n      pop\n      jump\t// out\n        /* \"#utility.yul\":15016:15435   */\n    tag_309:\n        /* \"#utility.yul\":15182:15186   */\n      0x00\n        /* \"#utility.yul\":15220:15222   */\n      0x20\n        /* \"#utility.yul\":15209:15218   */\n      dup3\n        /* \"#utility.yul\":15205:15223   */\n      add\n        /* \"#utility.yul\":15197:15223   */\n      swap1\n      pop\n        /* \"#utility.yul\":15269:15278   */\n      dup2\n        /* \"#utility.yul\":15263:15267   */\n      dup2\n        /* \"#utility.yul\":15259:15279   */\n      sub\n        /* \"#utility.yul\":15255:15256   */\n      0x00\n        /* \"#utility.yul\":15244:15253   */\n      dup4\n        /* \"#utility.yul\":15240:15257   */\n      add\n        /* \"#utility.yul\":15233:15280   */\n      mstore\n        /* \"#utility.yul\":15297:15428   */\n      tag_552\n        /* \"#utility.yul\":15423:15427   */\n      dup2\n        /* \"#utility.yul\":15297:15428   */\n      tag_488\n      jump\t// in\n    tag_552:\n        /* \"#utility.yul\":15289:15428   */\n      swap1\n      pop\n        /* \"#utility.yul\":15016:15435   */\n      swap2\n      swap1\n      pop\n      jump\t// out\n        /* \"#utility.yul\":15441:15860   */\n    tag_292:\n        /* \"#utility.yul\":15607:15611   */\n      0x00\n        /* \"#utility.yul\":15645:15647   */\n      0x20\n        /* \"#utility.yul\":15634:15643   */\n      dup3\n        /* \"#utility.yul\":15630:15648   */\n      add\n        /* \"#utility.yul\":15622:15648   */\n      swap1\n      pop\n        /* \"#utility.yul\":15694:15703   */\n      dup2\n        /* \"#utility.yul\":15688:15692   */\n      dup2\n        /* \"#utility.yul\":15684:15704   */\n      sub\n        /* \"#utility.yul\":15680:15681   */\n      0x00\n        /* \"#utility.yul\":15669:15678   */\n      dup4\n        /* \"#utility.yul\":15665:15682   */\n      add\n        /* \"#utility.yul\":15658:15705   */\n      mstore\n        /* \"#utility.yul\":15722:15853   */\n      tag_554\n        /* \"#utility.yul\":15848:15852   */\n      dup2\n        /* \"#utility.yul\":15722:15853   */\n      tag_493\n      jump\t// in\n    tag_554:\n        /* \"#utility.yul\":15714:15853   */\n      swap1\n      pop\n        /* \"#utility.yul\":15441:15860   */\n      swap2\n      swap1\n      pop\n      jump\t// out\n        /* \"#utility.yul\":15866:16285   */\n    tag_176:\n        /* \"#utility.yul\":16032:16036   */\n      0x00\n        /* \"#utility.yul\":16070:16072   */\n      0x20\n        /* \"#utility.yul\":16059:16068   */\n      dup3\n        /* \"#utility.yul\":16055:16073   */\n      add\n        /* \"#utility.yul\":16047:16073   */\n      swap1\n      pop\n        /* \"#utility.yul\":16119:16128   */\n      dup2\n        /* \"#utility.yul\":16113:16117   */\n      dup2\n        /* \"#utility.yul\":16109:16129   */\n      sub\n        /* \"#utility.yul\":16105:16106   */\n      0x00\n        /* \"#utility.yul\":16094:16103   */\n      dup4\n        /* \"#utility.yul\":16090:16107   */\n      add\n        /* \"#utility.yul\":16083:16130   */\n      mstore\n        /* \"#utility.yul\":16147:16278   */\n      tag_556\n        /* \"#utility.yul\":16273:16277   */\n      dup2\n        /* \"#utility.yul\":16147:16278   */\n      tag_498\n      jump\t// in\n    tag_556:\n        /* \"#utility.yul\":16139:16278   */\n      swap1\n      pop\n        /* \"#utility.yul\":15866:16285   */\n      swap2\n      swap1\n      pop\n      jump\t// out\n        /* \"#utility.yul\":16291:16513   */\n    tag_61:\n        /* \"#utility.yul\":16384:16388   */\n      0x00\n        /* \"#utility.yul\":16422:16424   */\n      0x20\n        /* \"#utility.yul\":16411:16420   */\n      dup3\n        /* \"#utility.yul\":16407:16425   */\n      add\n        /* \"#utility.yul\":16399:16425   */\n      swap1\n      pop\n        /* \"#utility.yul\":16435:16506   */\n      tag_558\n        /* \"#utility.yul\":16503:16504   */\n      0x00\n        /* \"#utility.yul\":16492:16501   */\n      dup4\n        /* \"#utility.yul\":16488:16505   */\n      add\n        /* \"#utility.yul\":16479:16485   */\n      dup5\n        /* \"#utility.yul\":16435:16506   */\n      tag_503\n      jump\t// in\n    tag_558:\n        /* \"#utility.yul\":16291:16513   */\n      swap3\n      swap2\n      pop\n      pop\n      jump\t// out\n        /* \"#utility.yul\":16519:17516   */\n    tag_83:\n        /* \"#utility.yul\":16808:16812   */\n      0x00\n        /* \"#utility.yul\":16846:16849   */\n      0x0100\n        /* \"#utility.yul\":16835:16844   */\n      dup3\n        /* \"#utility.yul\":16831:16850   */\n      add\n        /* \"#utility.yul\":16823:16850   */\n      swap1\n      pop\n        /* \"#utility.yul\":16860:16931   */\n      tag_560\n        /* \"#utility.yul\":16928:16929   */\n      0x00\n        /* \"#utility.yul\":16917:16926   */\n      dup4\n        /* \"#utility.yul\":16913:16930   */\n      add\n        /* \"#utility.yul\":16904:16910   */\n      dup12\n        /* \"#utility.yul\":16860:16931   */\n      tag_503\n      jump\t// in\n    tag_560:\n        /* \"#utility.yul\":16941:17013   */\n      tag_561\n        /* \"#utility.yul\":17009:17011   */\n      0x20\n        /* \"#utility.yul\":16998:17007   */\n      dup4\n        /* \"#utility.yul\":16994:17012   */\n      add\n        /* \"#utility.yul\":16985:16991   */\n      dup11\n        /* \"#utility.yul\":16941:17013   */\n      tag_503\n      jump\t// in\n    tag_561:\n        /* \"#utility.yul\":17023:17095   */\n      tag_562\n        /* \"#utility.yul\":17091:17093   */\n      0x40\n        /* \"#utility.yul\":17080:17089   */\n      dup4\n        /* \"#utility.yul\":17076:17094   */\n      add\n        /* \"#utility.yul\":17067:17073   */\n      dup10\n        /* \"#utility.yul\":17023:17095   */\n      tag_503\n      jump\t// in\n    tag_562:\n        /* \"#utility.yul\":17105:17177   */\n      tag_563\n        /* \"#utility.yul\":17173:17175   */\n      0x60\n        /* \"#utility.yul\":17162:17171   */\n      dup4\n        /* \"#utility.yul\":17158:17176   */\n      add\n        /* \"#utility.yul\":17149:17155   */\n      dup9\n        /* \"#utility.yul\":17105:17177   */\n      tag_503\n      jump\t// in\n    tag_563:\n        /* \"#utility.yul\":17187:17260   */\n      tag_564\n        /* \"#utility.yul\":17255:17258   */\n      0x80\n        /* \"#utility.yul\":17244:17253   */\n      dup4\n        /* \"#utility.yul\":17240:17259   */\n      add\n        /* \"#utility.yul\":17231:17237   */\n      dup8\n        /* \"#utility.yul\":17187:17260   */\n      tag_503\n      jump\t// in\n    tag_564:\n        /* \"#utility.yul\":17270:17343   */\n      tag_565\n        /* \"#utility.yul\":17338:17341   */\n      0xa0\n        /* \"#utility.yul\":17327:17336   */\n      dup4\n        /* \"#utility.yul\":17323:17342   */\n      add\n        /* \"#utility.yul\":17314:17320   */\n      dup7\n        /* \"#utility.yul\":17270:17343   */\n      tag_503\n      jump\t// in\n    tag_565:\n        /* \"#utility.yul\":17353:17426   */\n      tag_566\n        /* \"#utility.yul\":17421:17424   */\n      0xc0\n        /* \"#utility.yul\":17410:17419   */\n      dup4\n        /* \"#utility.yul\":17406:17425   */\n      add\n        /* \"#utility.yul\":17397:17403   */\n      dup6\n        /* \"#utility.yul\":17353:17426   */\n      tag_503\n      jump\t// in\n    tag_566:\n        /* \"#utility.yul\":17436:17509   */\n      tag_567\n        /* \"#utility.yul\":17504:17507   */\n      0xe0\n        /* \"#utility.yul\":17493:17502   */\n      dup4\n        /* \"#utility.yul\":17489:17508   */\n      add\n        /* \"#utility.yul\":17480:17486   */\n      dup5\n        /* \"#utility.yul\":17436:17509   */\n      tag_503\n      jump\t// in\n    tag_567:\n        /* \"#utility.yul\":16519:17516   */\n      swap10\n      swap9\n      pop\n      pop\n      pop\n      pop\n      pop\n      pop\n      pop\n      pop\n      pop\n      jump\t// out\n        /* \"#utility.yul\":17522:17736   */\n    tag_172:\n        /* \"#utility.yul\":17611:17615   */\n      0x00\n        /* \"#utility.yul\":17649:17651   */\n      0x20\n        /* \"#utility.yul\":17638:17647   */\n      dup3\n        /* \"#utility.yul\":17634:17652   */\n      add\n        /* \"#utility.yul\":17626:17652   */\n      swap1\n      pop\n        /* \"#utility.yul\":17662:17729   */\n      tag_569\n        /* \"#utility.yul\":17726:17727   */\n      0x00\n        /* \"#utility.yul\":17715:17724   */\n      dup4\n        /* \"#utility.yul\":17711:17728   */\n      add\n        /* \"#utility.yul\":17702:17708   */\n      dup5\n        /* \"#utility.yul\":17662:17729   */\n      tag_507\n      jump\t// in\n    tag_569:\n        /* \"#utility.yul\":17522:17736   */\n      swap3\n      swap2\n      pop\n      pop\n      jump\t// out\n        /* \"#utility.yul\":17823:17922   */\n    tag_436:\n        /* \"#utility.yul\":17875:17881   */\n      0x00\n        /* \"#utility.yul\":17909:17914   */\n      dup2\n        /* \"#utility.yul\":17903:17915   */\n      mload\n        /* \"#utility.yul\":17893:17915   */\n      swap1\n      pop\n        /* \"#utility.yul\":17823:17922   */\n      swap2\n      swap1\n      pop\n      jump\t// out\n        /* \"#utility.yul\":17928:18097   */\n    tag_438:\n        /* \"#utility.yul\":18012:18023   */\n      0x00\n        /* \"#utility.yul\":18046:18052   */\n      dup3\n        /* \"#utility.yul\":18041:18044   */\n      dup3\n        /* \"#utility.yul\":18034:18053   */\n      mstore\n        /* \"#utility.yul\":18086:18090   */\n      0x20\n        /* \"#utility.yul\":18081:18084   */\n      dup3\n        /* \"#utility.yul\":18077:18091   */\n      add\n        /* \"#utility.yul\":18062:18091   */\n      swap1\n      pop\n        /* \"#utility.yul\":17928:18097   */\n      swap3\n      swap2\n      pop\n      pop\n      jump\t// out\n        /* \"#utility.yul\":18103:18408   */\n    tag_342:\n        /* \"#utility.yul\":18143:18146   */\n      0x00\n        /* \"#utility.yul\":18162:18182   */\n      tag_575\n        /* \"#utility.yul\":18180:18181   */\n      dup3\n        /* \"#utility.yul\":18162:18182   */\n      tag_506\n      jump\t// in\n    tag_575:\n        /* \"#utility.yul\":18157:18182   */\n      swap2\n      pop\n        /* \"#utility.yul\":18196:18216   */\n      tag_576\n        /* \"#utility.yul\":18214:18215   */\n      dup4\n        /* \"#utility.yul\":18196:18216   */\n      tag_506\n      jump\t// in\n    tag_576:\n        /* \"#utility.yul\":18191:18216   */\n      swap3\n      pop\n        /* \"#utility.yul\":18350:18351   */\n      dup3\n        /* \"#utility.yul\":18282:18348   */\n      0xffffffffffffffffffffffffffffffffffffffffffffffffffffffffffffffff\n        /* \"#utility.yul\":18278:18352   */\n      sub\n        /* \"#utility.yul\":18275:18276   */\n      dup3\n        /* \"#utility.yul\":18272:18353   */\n      gt\n        /* \"#utility.yul\":18269:18376   */\n      iszero\n      tag_577\n      jumpi\n        /* \"#utility.yul\":18356:18374   */\n      tag_578\n      tag_579\n      jump\t// in\n    tag_578:\n        /* \"#utility.yul\":18269:18376   */\n    tag_577:\n        /* \"#utility.yul\":18400:18401   */\n      dup3\n        /* \"#utility.yul\":18397:18398   */\n      dup3\n        /* \"#utility.yul\":18393:18402   */\n      add\n        /* \"#utility.yul\":18386:18402   */\n      swap1\n      pop\n        /* \"#utility.yul\":18103:18408   */\n      swap3\n      swap2\n      pop\n      pop\n      jump\t// out\n        /* \"#utility.yul\":18414:18599   */\n    tag_333:\n        /* \"#utility.yul\":18454:18455   */\n      0x00\n        /* \"#utility.yul\":18471:18491   */\n      tag_581\n        /* \"#utility.yul\":18489:18490   */\n      dup3\n        /* \"#utility.yul\":18471:18491   */\n      tag_506\n      jump\t// in\n    tag_581:\n        /* \"#utility.yul\":18466:18491   */\n      swap2\n      pop\n        /* \"#utility.yul\":18505:18525   */\n      tag_582\n        /* \"#utility.yul\":18523:18524   */\n      dup4\n        /* \"#utility.yul\":18505:18525   */\n      tag_506\n      jump\t// in\n    tag_582:\n        /* \"#utility.yul\":18500:18525   */\n      swap3\n      pop\n        /* \"#utility.yul\":18544:18545   */\n      dup3\n        /* \"#utility.yul\":18534:18569   */\n      tag_583\n      jumpi\n        /* \"#utility.yul\":18549:18567   */\n      tag_584\n      tag_585\n      jump\t// in\n    tag_584:\n        /* \"#utility.yul\":18534:18569   */\n    tag_583:\n        /* \"#utility.yul\":18591:18592   */\n      dup3\n        /* \"#utility.yul\":18588:18589   */\n      dup3\n        /* \"#utility.yul\":18584:18593   */\n      div\n        /* \"#utility.yul\":18579:18593   */\n      swap1\n      pop\n        /* \"#utility.yul\":18414:18599   */\n      swap3\n      swap2\n      pop\n      pop\n      jump\t// out\n        /* \"#utility.yul\":18605:18953   */\n    tag_331:\n        /* \"#utility.yul\":18645:18652   */\n      0x00\n        /* \"#utility.yul\":18668:18688   */\n      tag_587\n        /* \"#utility.yul\":18686:18687   */\n      dup3\n        /* \"#utility.yul\":18668:18688   */\n      tag_506\n      jump\t// in\n    tag_587:\n        /* \"#utility.yul\":18663:18688   */\n      swap2\n      pop\n        /* \"#utility.yul\":18702:18722   */\n      tag_588\n        /* \"#utility.yul\":18720:18721   */\n      dup4\n        /* \"#utility.yul\":18702:18722   */\n      tag_506\n      jump\t// in\n    tag_588:\n        /* \"#utility.yul\":18697:18722   */\n      swap3\n      pop\n        /* \"#utility.yul\":18890:18891   */\n      dup2\n        /* \"#utility.yul\":18822:18888   */\n      0xffffffffffffffffffffffffffffffffffffffffffffffffffffffffffffffff\n        /* \"#utility.yul\":18818:18892   */\n      div\n        /* \"#utility.yul\":18815:18816   */\n      dup4\n        /* \"#utility.yul\":18812:18893   */\n      gt\n        /* \"#utility.yul\":18807:18808   */\n      dup3\n        /* \"#utility.yul\":18800:18809   */\n      iszero\n        /* \"#utility.yul\":18793:18810   */\n      iszero\n        /* \"#utility.yul\":18789:18894   */\n      and\n        /* \"#utility.yul\":18786:18917   */\n      iszero\n      tag_589\n      jumpi\n        /* \"#utility.yul\":18897:18915   */\n      tag_590\n      tag_579\n      jump\t// in\n    tag_590:\n        /* \"#utility.yul\":18786:18917   */\n    tag_589:\n        /* \"#utility.yul\":18945:18946   */\n      dup3\n        /* \"#utility.yul\":18942:18943   */\n      dup3\n        /* \"#utility.yul\":18938:18947   */\n      mul\n        /* \"#utility.yul\":18927:18947   */\n      swap1\n      pop\n        /* \"#utility.yul\":18605:18953   */\n      swap3\n      swap2\n      pop\n      pop\n      jump\t// out\n        /* \"#utility.yul\":18959:19055   */\n    tag_424:\n        /* \"#utility.yul\":18996:19003   */\n      0x00\n        /* \"#utility.yul\":19025:19049   */\n      tag_592\n        /* \"#utility.yul\":19043:19048   */\n      dup3\n        /* \"#utility.yul\":19025:19049   */\n      tag_593\n      jump\t// in\n    tag_592:\n        /* \"#utility.yul\":19014:19049   */\n      swap1\n      pop\n        /* \"#utility.yul\":18959:19055   */\n      swap2\n      swap1\n      pop\n      jump\t// out\n        /* \"#utility.yul\":19061:19151   */\n    tag_428:\n        /* \"#utility.yul\":19095:19102   */\n      0x00\n        /* \"#utility.yul\":19138:19143   */\n      dup2\n        /* \"#utility.yul\":19131:19144   */\n      iszero\n        /* \"#utility.yul\":19124:19145   */\n      iszero\n        /* \"#utility.yul\":19113:19145   */\n      swap1\n      pop\n        /* \"#utility.yul\":19061:19151   */\n      swap2\n      swap1\n      pop\n      jump\t// out\n        /* \"#utility.yul\":19157:19267   */\n    tag_595:\n        /* \"#utility.yul\":19208:19215   */\n      0x00\n        /* \"#utility.yul\":19237:19261   */\n      tag_597\n        /* \"#utility.yul\":19255:19260   */\n      dup3\n        /* \"#utility.yul\":19237:19261   */\n      tag_424\n      jump\t// in\n    tag_597:\n        /* \"#utility.yul\":19226:19261   */\n      swap1\n      pop\n        /* \"#utility.yul\":19157:19267   */\n      swap2\n      swap1\n      pop\n      jump\t// out\n        /* \"#utility.yul\":19273:19399   */\n    tag_593:\n        /* \"#utility.yul\":19310:19317   */\n      0x00\n        /* \"#utility.yul\":19350:19392   */\n      0xffffffffffffffffffffffffffffffffffffffff\n        /* \"#utility.yul\":19343:19348   */\n      dup3\n        /* \"#utility.yul\":19339:19393   */\n      and\n        /* \"#utility.yul\":19328:19393   */\n      swap1\n      pop\n        /* \"#utility.yul\":19273:19399   */\n      swap2\n      swap1\n      pop\n      jump\t// out\n        /* \"#utility.yul\":19405:19482   */\n    tag_506:\n        /* \"#utility.yul\":19442:19449   */\n      0x00\n        /* \"#utility.yul\":19471:19476   */\n      dup2\n        /* \"#utility.yul\":19460:19476   */\n      swap1\n      pop\n        /* \"#utility.yul\":19405:19482   */\n      swap2\n      swap1\n      pop\n      jump\t// out\n        /* \"#utility.yul\":19488:19574   */\n    tag_510:\n        /* \"#utility.yul\":19523:19530   */\n      0x00\n        /* \"#utility.yul\":19563:19567   */\n      0xff\n        /* \"#utility.yul\":19556:19561   */\n      dup3\n        /* \"#utility.yul\":19552:19568   */\n      and\n        /* \"#utility.yul\":19541:19568   */\n      swap1\n      pop\n        /* \"#utility.yul\":19488:19574   */\n      swap2\n      swap1\n      pop\n      jump\t// out\n        /* \"#utility.yul\":19580:19720   */\n    tag_432:\n        /* \"#utility.yul\":19644:19653   */\n      0x00\n        /* \"#utility.yul\":19677:19714   */\n      tag_602\n        /* \"#utility.yul\":19708:19713   */\n      dup3\n        /* \"#utility.yul\":19677:19714   */\n      tag_603\n      jump\t// in\n    tag_602:\n        /* \"#utility.yul\":19664:19714   */\n      swap1\n      pop\n        /* \"#utility.yul\":19580:19720   */\n      swap2\n      swap1\n      pop\n      jump\t// out\n        /* \"#utility.yul\":19726:19852   */\n    tag_603:\n        /* \"#utility.yul\":19776:19785   */\n      0x00\n        /* \"#utility.yul\":19809:19846   */\n      tag_605\n        /* \"#utility.yul\":19840:19845   */\n      dup3\n        /* \"#utility.yul\":19809:19846   */\n      tag_606\n      jump\t// in\n    tag_605:\n        /* \"#utility.yul\":19796:19846   */\n      swap1\n      pop\n        /* \"#utility.yul\":19726:19852   */\n      swap2\n      swap1\n      pop\n      jump\t// out\n        /* \"#utility.yul\":19858:19971   */\n    tag_606:\n        /* \"#utility.yul\":19908:19917   */\n      0x00\n        /* \"#utility.yul\":19941:19965   */\n      tag_608\n        /* \"#utility.yul\":19959:19964   */\n      dup3\n        /* \"#utility.yul\":19941:19965   */\n      tag_593\n      jump\t// in\n    tag_608:\n        /* \"#utility.yul\":19928:19965   */\n      swap1\n      pop\n        /* \"#utility.yul\":19858:19971   */\n      swap2\n      swap1\n      pop\n      jump\t// out\n        /* \"#utility.yul\":19977:20284   */\n    tag_440:\n        /* \"#utility.yul\":20045:20046   */\n      0x00\n        /* \"#utility.yul\":20055:20168   */\n    tag_610:\n        /* \"#utility.yul\":20069:20075   */\n      dup4\n        /* \"#utility.yul\":20066:20067   */\n      dup2\n        /* \"#utility.yul\":20063:20076   */\n      lt\n        /* \"#utility.yul\":20055:20168   */\n      iszero\n      tag_612\n      jumpi\n        /* \"#utility.yul\":20154:20155   */\n      dup1\n        /* \"#utility.yul\":20149:20152   */\n      dup3\n        /* \"#utility.yul\":20145:20156   */\n      add\n        /* \"#utility.yul\":20139:20157   */\n      mload\n        /* \"#utility.yul\":20135:20136   */\n      dup2\n        /* \"#utility.yul\":20130:20133   */\n      dup5\n        /* \"#utility.yul\":20126:20137   */\n      add\n        /* \"#utility.yul\":20119:20158   */\n      mstore\n        /* \"#utility.yul\":20091:20093   */\n      0x20\n        /* \"#utility.yul\":20088:20089   */\n      dup2\n        /* \"#utility.yul\":20084:20094   */\n      add\n        /* \"#utility.yul\":20079:20094   */\n      swap1\n      pop\n        /* \"#utility.yul\":20055:20168   */\n      jump(tag_610)\n    tag_612:\n        /* \"#utility.yul\":20186:20192   */\n      dup4\n        /* \"#utility.yul\":20183:20184   */\n      dup2\n        /* \"#utility.yul\":20180:20193   */\n      gt\n        /* \"#utility.yul\":20177:20278   */\n      iszero\n      tag_613\n      jumpi\n        /* \"#utility.yul\":20266:20267   */\n      0x00\n        /* \"#utility.yul\":20257:20263   */\n      dup5\n        /* \"#utility.yul\":20252:20255   */\n      dup5\n        /* \"#utility.yul\":20248:20264   */\n      add\n        /* \"#utility.yul\":20241:20268   */\n      mstore\n        /* \"#utility.yul\":20177:20278   */\n    tag_613:\n        /* \"#utility.yul\":20026:20284   */\n      pop\n        /* \"#utility.yul\":19977:20284   */\n      pop\n      pop\n      pop\n      jump\t// out\n        /* \"#utility.yul\":20290:20470   */\n    tag_579:\n        /* \"#utility.yul\":20338:20415   */\n      0x4e487b7100000000000000000000000000000000000000000000000000000000\n        /* \"#utility.yul\":20335:20336   */\n      0x00\n        /* \"#utility.yul\":20328:20416   */\n      mstore\n        /* \"#utility.yul\":20435:20439   */\n      0x11\n        /* \"#utility.yul\":20432:20433   */\n      0x04\n        /* \"#utility.yul\":20425:20440   */\n      mstore\n        /* \"#utility.yul\":20459:20463   */\n      0x24\n        /* \"#utility.yul\":20456:20457   */\n      0x00\n        /* \"#utility.yul\":20449:20464   */\n      revert\n        /* \"#utility.yul\":20476:20656   */\n    tag_585:\n        /* \"#utility.yul\":20524:20601   */\n      0x4e487b7100000000000000000000000000000000000000000000000000000000\n        /* \"#utility.yul\":20521:20522   */\n      0x00\n        /* \"#utility.yul\":20514:20602   */\n      mstore\n        /* \"#utility.yul\":20621:20625   */\n      0x12\n        /* \"#utility.yul\":20618:20619   */\n      0x04\n        /* \"#utility.yul\":20611:20626   */\n      mstore\n        /* \"#utility.yul\":20645:20649   */\n      0x24\n        /* \"#utility.yul\":20642:20643   */\n      0x00\n        /* \"#utility.yul\":20635:20650   */\n      revert\n        /* \"#utility.yul\":20785:20902   */\n    tag_398:\n        /* \"#utility.yul\":20894:20895   */\n      0x00\n        /* \"#utility.yul\":20891:20892   */\n      dup1\n        /* \"#utility.yul\":20884:20896   */\n      revert\n        /* \"#utility.yul\":20908:21010   */\n    tag_442:\n        /* \"#utility.yul\":20949:20955   */\n      0x00\n        /* \"#utility.yul\":21000:21002   */\n      0x1f\n        /* \"#utility.yul\":20996:21003   */\n      not\n        /* \"#utility.yul\":20991:20993   */\n      0x1f\n        /* \"#utility.yul\":20984:20989   */\n      dup4\n        /* \"#utility.yul\":20980:20994   */\n      add\n        /* \"#utility.yul\":20976:21004   */\n      and\n        /* \"#utility.yul\":20966:21004   */\n      swap1\n      pop\n        /* \"#utility.yul\":20908:21010   */\n      swap2\n      swap1\n      pop\n      jump\t// out\n        /* \"#utility.yul\":21016:21181   */\n    tag_447:\n        /* \"#utility.yul\":21156:21173   */\n      0x494e56414c49445f414444524553530000000000000000000000000000000000\n        /* \"#utility.yul\":21152:21153   */\n      0x00\n        /* \"#utility.yul\":21144:21150   */\n      dup3\n        /* \"#utility.yul\":21140:21154   */\n      add\n        /* \"#utility.yul\":21133:21174   */\n      mstore\n        /* \"#utility.yul\":21016:21181   */\n      pop\n      jump\t// out\n        /* \"#utility.yul\":21187:21354   */\n    tag_452:\n        /* \"#utility.yul\":21327:21346   */\n      0x494e56414c49445f57484954456c495354000000000000000000000000000000\n        /* \"#utility.yul\":21323:21324   */\n      0x00\n        /* \"#utility.yul\":21315:21321   */\n      dup3\n        /* \"#utility.yul\":21311:21325   */\n      add\n        /* \"#utility.yul\":21304:21347   */\n      mstore\n        /* \"#utility.yul\":21187:21354   */\n      pop\n      jump\t// out\n        /* \"#utility.yul\":21360:21528   */\n    tag_457:\n        /* \"#utility.yul\":21500:21520   */\n      0x494e56414c49445f515541544954593a30310000000000000000000000000000\n        /* \"#utility.yul\":21496:21497   */\n      0x00\n        /* \"#utility.yul\":21488:21494   */\n      dup3\n        /* \"#utility.yul\":21484:21498   */\n      add\n        /* \"#utility.yul\":21477:21521   */\n      mstore\n        /* \"#utility.yul\":21360:21528   */\n      pop\n      jump\t// out\n        /* \"#utility.yul\":21534:21711   */\n    tag_462:\n        /* \"#utility.yul\":21674:21703   */\n      0x536166654d6174683a206164646974696f6e206f766572666c6f770000000000\n        /* \"#utility.yul\":21670:21671   */\n      0x00\n        /* \"#utility.yul\":21662:21668   */\n      dup3\n        /* \"#utility.yul\":21658:21672   */\n      add\n        /* \"#utility.yul\":21651:21704   */\n      mstore\n        /* \"#utility.yul\":21534:21711   */\n      pop\n      jump\t// out\n        /* \"#utility.yul\":21717:21885   */\n    tag_467:\n        /* \"#utility.yul\":21857:21877   */\n      0x494e56414c49445f5041594d454e543a30320000000000000000000000000000\n        /* \"#utility.yul\":21853:21854   */\n      0x00\n        /* \"#utility.yul\":21845:21851   */\n      dup3\n        /* \"#utility.yul\":21841:21855   */\n      add\n        /* \"#utility.yul\":21834:21878   */\n      mstore\n        /* \"#utility.yul\":21717:21885   */\n      pop\n      jump\t// out\n        /* \"#utility.yul\":21891:22059   */\n    tag_472:\n        /* \"#utility.yul\":22031:22051   */\n      0x494e56414c49445f515541544954593a30320000000000000000000000000000\n        /* \"#utility.yul\":22027:22028   */\n      0x00\n        /* \"#utility.yul\":22019:22025   */\n      dup3\n        /* \"#utility.yul\":22015:22029   */\n      add\n        /* \"#utility.yul\":22008:22052   */\n      mstore\n        /* \"#utility.yul\":21891:22059   */\n      pop\n      jump\t// out\n        /* \"#utility.yul\":22065:22285   */\n    tag_477:\n        /* \"#utility.yul\":22205:22239   */\n      0x536166654d6174683a206d756c7469706c69636174696f6e206f766572666c6f\n        /* \"#utility.yul\":22201:22202   */\n      0x00\n        /* \"#utility.yul\":22193:22199   */\n      dup3\n        /* \"#utility.yul\":22189:22203   */\n      add\n        /* \"#utility.yul\":22182:22240   */\n      mstore\n        /* \"#utility.yul\":22274:22277   */\n      0x7700000000000000000000000000000000000000000000000000000000000000\n        /* \"#utility.yul\":22269:22271   */\n      0x20\n        /* \"#utility.yul\":22261:22267   */\n      dup3\n        /* \"#utility.yul\":22257:22272   */\n      add\n        /* \"#utility.yul\":22250:22278   */\n      mstore\n        /* \"#utility.yul\":22065:22285   */\n      pop\n      jump\t// out\n        /* \"#utility.yul\":22291:22452   */\n    tag_482:\n        /* \"#utility.yul\":22431:22444   */\n      0x53595354454d5f53544f50000000000000000000000000000000000000000000\n        /* \"#utility.yul\":22427:22428   */\n      0x00\n        /* \"#utility.yul\":22419:22425   */\n      dup3\n        /* \"#utility.yul\":22415:22429   */\n      add\n        /* \"#utility.yul\":22408:22445   */\n      mstore\n        /* \"#utility.yul\":22291:22452   */\n      pop\n      jump\t// out\n        /* \"#utility.yul\":22458:22626   */\n    tag_487:\n        /* \"#utility.yul\":22598:22618   */\n      0x53595354454d5f4e4f545f52554e4e494e470000000000000000000000000000\n        /* \"#utility.yul\":22594:22595   */\n      0x00\n        /* \"#utility.yul\":22586:22592   */\n      dup3\n        /* \"#utility.yul\":22582:22596   */\n      add\n        /* \"#utility.yul\":22575:22619   */\n      mstore\n        /* \"#utility.yul\":22458:22626   */\n      pop\n      jump\t// out\n        /* \"#utility.yul\":22632:22800   */\n    tag_492:\n        /* \"#utility.yul\":22772:22792   */\n      0x494e56414c49445f5041594d454e543a30310000000000000000000000000000\n        /* \"#utility.yul\":22768:22769   */\n      0x00\n        /* \"#utility.yul\":22760:22766   */\n      dup3\n        /* \"#utility.yul\":22756:22770   */\n      add\n        /* \"#utility.yul\":22749:22793   */\n      mstore\n        /* \"#utility.yul\":22632:22800   */\n      pop\n      jump\t// out\n        /* \"#utility.yul\":22806:22972   */\n    tag_497:\n        /* \"#utility.yul\":22946:22964   */\n      0x494e56414c49445f414d4f554e545f3100000000000000000000000000000000\n        /* \"#utility.yul\":22942:22943   */\n      0x00\n        /* \"#utility.yul\":22934:22940   */\n      dup3\n        /* \"#utility.yul\":22930:22944   */\n      add\n        /* \"#utility.yul\":22923:22965   */\n      mstore\n        /* \"#utility.yul\":22806:22972   */\n      pop\n      jump\t// out\n        /* \"#utility.yul\":22978:23146   */\n    tag_502:\n        /* \"#utility.yul\":23118:23138   */\n      0x494e56414c49445f5045524d495353494f4e0000000000000000000000000000\n        /* \"#utility.yul\":23114:23115   */\n      0x00\n        /* \"#utility.yul\":23106:23112   */\n      dup3\n        /* \"#utility.yul\":23102:23116   */\n      add\n        /* \"#utility.yul\":23095:23139   */\n      mstore\n        /* \"#utility.yul\":22978:23146   */\n      pop\n      jump\t// out\n        /* \"#utility.yul\":23152:23274   */\n    tag_375:\n        /* \"#utility.yul\":23225:23249   */\n      tag_633\n        /* \"#utility.yul\":23243:23248   */\n      dup2\n        /* \"#utility.yul\":23225:23249   */\n      tag_424\n      jump\t// in\n    tag_633:\n        /* \"#utility.yul\":23218:23223   */\n      dup2\n        /* \"#utility.yul\":23215:23250   */\n      eq\n        /* \"#utility.yul\":23205:23268   */\n      tag_634\n      jumpi\n        /* \"#utility.yul\":23264:23265   */\n      0x00\n        /* \"#utility.yul\":23261:23262   */\n      dup1\n        /* \"#utility.yul\":23254:23266   */\n      revert\n        /* \"#utility.yul\":23205:23268   */\n    tag_634:\n        /* \"#utility.yul\":23152:23274   */\n      pop\n      jump\t// out\n        /* \"#utility.yul\":23280:23396   */\n    tag_379:\n        /* \"#utility.yul\":23350:23371   */\n      tag_636\n        /* \"#utility.yul\":23365:23370   */\n      dup2\n        /* \"#utility.yul\":23350:23371   */\n      tag_428\n      jump\t// in\n    tag_636:\n        /* \"#utility.yul\":23343:23348   */\n      dup2\n        /* \"#utility.yul\":23340:23372   */\n      eq\n        /* \"#utility.yul\":23330:23390   */\n      tag_637\n      jumpi\n        /* \"#utility.yul\":23386:23387   */\n      0x00\n        /* \"#utility.yul\":23383:23384   */\n      dup1\n        /* \"#utility.yul\":23376:23388   */\n      revert\n        /* \"#utility.yul\":23330:23390   */\n    tag_637:\n        /* \"#utility.yul\":23280:23396   */\n      pop\n      jump\t// out\n        /* \"#utility.yul\":23402:23552   */\n    tag_383:\n        /* \"#utility.yul\":23489:23527   */\n      tag_639\n        /* \"#utility.yul\":23521:23526   */\n      dup2\n        /* \"#utility.yul\":23489:23527   */\n      tag_595\n      jump\t// in\n    tag_639:\n        /* \"#utility.yul\":23482:23487   */\n      dup2\n        /* \"#utility.yul\":23479:23528   */\n      eq\n        /* \"#utility.yul\":23469:23546   */\n      tag_640\n      jumpi\n        /* \"#utility.yul\":23542:23543   */\n      0x00\n        /* \"#utility.yul\":23539:23540   */\n      dup1\n        /* \"#utility.yul\":23532:23544   */\n      revert\n        /* \"#utility.yul\":23469:23546   */\n    tag_640:\n        /* \"#utility.yul\":23402:23552   */\n      pop\n      jump\t// out\n        /* \"#utility.yul\":23558:23680   */\n    tag_387:\n        /* \"#utility.yul\":23631:23655   */\n      tag_642\n        /* \"#utility.yul\":23649:23654   */\n      dup2\n        /* \"#utility.yul\":23631:23655   */\n      tag_506\n      jump\t// in\n    tag_642:\n        /* \"#utility.yul\":23624:23629   */\n      dup2\n        /* \"#utility.yul\":23621:23656   */\n      eq\n        /* \"#utility.yul\":23611:23674   */\n      tag_643\n      jumpi\n        /* \"#utility.yul\":23670:23671   */\n      0x00\n        /* \"#utility.yul\":23667:23668   */\n      dup1\n        /* \"#utility.yul\":23660:23672   */\n      revert\n        /* \"#utility.yul\":23611:23674   */\n    tag_643:\n        /* \"#utility.yul\":23558:23680   */\n      pop\n      jump\t// out\n        /* \"#utility.yul\":23686:23804   */\n    tag_394:\n        /* \"#utility.yul\":23757:23779   */\n      tag_645\n        /* \"#utility.yul\":23773:23778   */\n      dup2\n        /* \"#utility.yul\":23757:23779   */\n      tag_510\n      jump\t// in\n    tag_645:\n        /* \"#utility.yul\":23750:23755   */\n      dup2\n        /* \"#utility.yul\":23747:23780   */\n      eq\n        /* \"#utility.yul\":23737:23798   */\n      tag_646\n      jumpi\n        /* \"#utility.yul\":23794:23795   */\n      0x00\n        /* \"#utility.yul\":23791:23792   */\n      dup1\n        /* \"#utility.yul\":23784:23796   */\n      revert\n        /* \"#utility.yul\":23737:23798   */\n    tag_646:\n        /* \"#utility.yul\":23686:23804   */\n      pop\n      jump\t// out\n\n    auxdata: 0xa26469706673582212209e89cbc56b1398e03c0b15f2d81be01f2570ba7be297b895060a6b69391e515b64736f6c63430008070033\n}\n",
				"bytecode": {
					"linkReferences": {},
					"object": "608060405260646000806101000a81548160ff021916908360ff160217905550619c40600355600060045560006005556000600660006101000a81548160ff0219169083151502179055506843c33c1937564800006007556828a857425466f80000600855611c206009553480156200007757600080fd5b5060405162002e5938038062002e5983398181016040528101906200009d91906200017f565b81600160006101000a81548173ffffffffffffffffffffffffffffffffffffffff021916908373ffffffffffffffffffffffffffffffffffffffff16021790555080600260006101000a81548173ffffffffffffffffffffffffffffffffffffffff021916908373ffffffffffffffffffffffffffffffffffffffff16021790555033600060016101000a81548173ffffffffffffffffffffffffffffffffffffffff021916908373ffffffffffffffffffffffffffffffffffffffff16021790555050506200022d565b600081519050620001798162000213565b92915050565b600080604083850312156200019957620001986200020e565b5b6000620001a98582860162000168565b9250506020620001bc8582860162000168565b9150509250929050565b6000620001d382620001ee565b9050919050565b6000620001e782620001c6565b9050919050565b600073ffffffffffffffffffffffffffffffffffffffff82169050919050565b600080fd5b6200021e81620001da565b81146200022a57600080fd5b50565b612c1c806200023d6000396000f3fe6080604052600436106101d15760003560e01c80638da5cb5b116100f7578063be9a655511610095578063f2fde38b11610064578063f2fde38b1461062a578063f51f96dd14610653578063fa0fca841461067e578063ffa1ad74146106bb576101d8565b8063be9a655514610596578063ccb98ffc146105ad578063d96a094a146105d6578063e632c2f3146105ff576101d8565b8063a2b0106b116100d1578063a2b0106b146104ee578063a3907d7114610517578063b0176ce81461052e578063bcaaf66214610559576101d8565b80638da5cb5b1461045b57806390c8dd171461048657806392f6386a146104c3576101d8565b80633197cbb61161016f5780633cfd1ccc1161013e5780633cfd1ccc146103b157806350c19c0b146103dc578063860779e71461040757806389a3027114610430576101d8565b80633197cbb6146102ee57806338266b22146103195780633af96b901461035d5780633c6c26f914610388576101d8565b80631f2475bd116101ab5780631f2475bd14610258578063247b9818146102835780632acfc3da146102ae5780632f2770db146102d7576101d8565b80630f5a9d01146101dd578063120edd96146102065780631919fed71461022f576101d8565b366101d857005b600080fd5b3480156101e957600080fd5b5061020460048036038101906101ff919061210a565b6106e6565b005b34801561021257600080fd5b5061022d6004803603810190610228919061209d565b61082a565b005b34801561023b57600080fd5b5061025660048036038101906102519190612137565b610980565b005b34801561026457600080fd5b5061026d610a1a565b60405161027a919061266c565b60405180910390f35b34801561028f57600080fd5b50610298610acc565b6040516102a5919061266c565b60405180910390f35b3480156102ba57600080fd5b506102d560048036038101906102d0919061210a565b610ad2565b005b3480156102e357600080fd5b506102ec610c16565b005b3480156102fa57600080fd5b50610303610cc3565b604051610310919061266c565b60405180910390f35b34801561032557600080fd5b50610340600480360381019061033b9190612070565b610cc9565b604051610354989796959493929190612687565b60405180910390f35b34801561036957600080fd5b50610372610e96565b60405161037f919061266c565b60405180910390f35b34801561039457600080fd5b506103af60048036038101906103aa919061210a565b610e9c565b005b3480156103bd57600080fd5b506103c661106d565b6040516103d3919061266c565b60405180910390f35b3480156103e857600080fd5b506103f161111f565b6040516103fe919061266c565b60405180910390f35b34801561041357600080fd5b5061042e60048036038101906104299190612137565b611125565b005b34801561043c57600080fd5b506104456111bf565b60405161045291906124af565b60405180910390f35b34801561046757600080fd5b506104706111e5565b60405161047d91906123b9565b60405180910390f35b34801561049257600080fd5b506104ad60048036038101906104a89190612070565b61120b565b6040516104ba919061266c565b60405180910390f35b3480156104cf57600080fd5b506104d8611314565b6040516104e59190612494565b60405180910390f35b3480156104fa57600080fd5b5061051560048036038101906105109190612137565b611327565b005b34801561052357600080fd5b5061052c6113c1565b005b34801561053a57600080fd5b5061054361146e565b60405161055091906124af565b60405180910390f35b34801561056557600080fd5b50610580600480360381019061057b9190612070565b611494565b60405161058d919061266c565b60405180910390f35b3480156105a257600080fd5b506105ab6114ac565b005b3480156105b957600080fd5b506105d460048036038101906105cf9190612137565b611574565b005b3480156105e257600080fd5b506105fd60048036038101906105f89190612137565b61160e565b005b34801561060b57600080fd5b50610614611b07565b604051610621919061266c565b60405180910390f35b34801561063657600080fd5b50610651600480360381019061064c9190612070565b611b0d565b005b34801561065f57600080fd5b50610668611be1565b604051610675919061266c565b60405180910390f35b34801561068a57600080fd5b506106a560048036038101906106a09190612070565b611be7565b6040516106b29190612494565b60405180910390f35b3480156106c757600080fd5b506106d0611c07565b6040516106dd9190612705565b60405180910390f35b600060019054906101000a900473ffffffffffffffffffffffffffffffffffffffff1673ffffffffffffffffffffffffffffffffffffffff163373ffffffffffffffffffffffffffffffffffffffff1614610776576040517f08c379a000000000000000000000000000000000000000000000000000000000815260040161076d9061264c565b60405180910390fd5b600073ffffffffffffffffffffffffffffffffffffffff168173ffffffffffffffffffffffffffffffffffffffff1614156107e6576040517f08c379a00000000000000000000000000000000000000000000000000000000081526004016107dd906124ec565b60405180910390fd5b80600260006101000a81548173ffffffffffffffffffffffffffffffffffffffff021916908373ffffffffffffffffffffffffffffffffffffffff16021790555050565b600060019054906101000a900473ffffffffffffffffffffffffffffffffffffffff1673ffffffffffffffffffffffffffffffffffffffff163373ffffffffffffffffffffffffffffffffffffffff16146108ba576040517f08c379a00000000000000000000000000000000000000000000000000000000081526004016108b19061264c565b60405180910390fd5b60018160ff161415610923576001600b60008473ffffffffffffffffffffffffffffffffffffffff1673ffffffffffffffffffffffffffffffffffffffff16815260200190815260200160002060006101000a81548160ff02191690831515021790555061097c565b6000600b60008473ffffffffffffffffffffffffffffffffffffffff1673ffffffffffffffffffffffffffffffffffffffff16815260200190815260200160002060006101000a81548160ff0219169083151502179055505b5050565b600060019054906101000a900473ffffffffffffffffffffffffffffffffffffffff1673ffffffffffffffffffffffffffffffffffffffff163373ffffffffffffffffffffffffffffffffffffffff1614610a10576040517f08c379a0000000000000000000000000000000000000000000000000000000008152600401610a079061264c565b60405180910390fd5b8060038190555050565b6000600160009054906101000a900473ffffffffffffffffffffffffffffffffffffffff1673ffffffffffffffffffffffffffffffffffffffff166370a08231306040518263ffffffff1660e01b8152600401610a7791906123b9565b60206040518083038186803b158015610a8f57600080fd5b505afa158015610aa3573d6000803e3d6000fd5b505050506040513d601f19601f82011682018060405250810190610ac79190612164565b905090565b60095481565b600060019054906101000a900473ffffffffffffffffffffffffffffffffffffffff1673ffffffffffffffffffffffffffffffffffffffff163373ffffffffffffffffffffffffffffffffffffffff1614610b62576040517f08c379a0000000000000000000000000000000000000000000000000000000008152600401610b599061264c565b60405180910390fd5b600073ffffffffffffffffffffffffffffffffffffffff168173ffffffffffffffffffffffffffffffffffffffff161415610bd2576040517f08c379a0000000000000000000000000000000000000000000000000000000008152600401610bc9906124ec565b60405180910390fd5b80600160006101000a81548173ffffffffffffffffffffffffffffffffffffffff021916908373ffffffffffffffffffffffffffffffffffffffff16021790555050565b600060019054906101000a900473ffffffffffffffffffffffffffffffffffffffff1673ffffffffffffffffffffffffffffffffffffffff163373ffffffffffffffffffffffffffffffffffffffff1614610ca6576040517f08c379a0000000000000000000000000000000000000000000000000000000008152600401610c9d9061264c565b60405180910390fd5b6000600660006101000a81548160ff021916908315150217905550565b60055481565b600080600080600080600080600260009054906101000a900473ffffffffffffffffffffffffffffffffffffffff1673ffffffffffffffffffffffffffffffffffffffff166370a082318a6040518263ffffffff1660e01b8152600401610d3091906123b9565b60206040518083038186803b158015610d4857600080fd5b505afa158015610d5c573d6000803e3d6000fd5b505050506040513d601f19601f82011682018060405250810190610d809190612164565b9750610d8b8961120b565b9650610dbc670de0b6b3a7640000610dae6003548a611c1890919063ffffffff16565b611c9390919063ffffffff16565b9550610dc661106d565b9450610dd0610a1a565b935060035492506004549150600260009054906101000a900473ffffffffffffffffffffffffffffffffffffffff1673ffffffffffffffffffffffffffffffffffffffff1663dd62ed3e8a306040518363ffffffff1660e01b8152600401610e399291906123d4565b60206040518083038186803b158015610e5157600080fd5b505afa158015610e65573d6000803e3d6000fd5b505050506040513d601f19601f82011682018060405250810190610e899190612164565b9050919395975091939597565b60085481565b600060019054906101000a900473ffffffffffffffffffffffffffffffffffffffff1673ffffffffffffffffffffffffffffffffffffffff163373ffffffffffffffffffffffffffffffffffffffff1614610f2c576040517f08c379a0000000000000000000000000000000000000000000000000000000008152600401610f239061264c565b60405180910390fd5b60008173ffffffffffffffffffffffffffffffffffffffff166370a08231306040518263ffffffff1660e01b8152600401610f6791906123b9565b60206040518083038186803b158015610f7f57600080fd5b505afa158015610f93573d6000803e3d6000fd5b505050506040513d601f19601f82011682018060405250810190610fb79190612164565b90508173ffffffffffffffffffffffffffffffffffffffff1663a9059cbb600060019054906101000a900473ffffffffffffffffffffffffffffffffffffffff16836040518363ffffffff1660e01b8152600401611016929190612434565b602060405180830381600087803b15801561103057600080fd5b505af1158015611044573d6000803e3d6000fd5b505050506040513d601f19601f8201168201806040525081019061106891906120dd565b505050565b6000600260009054906101000a900473ffffffffffffffffffffffffffffffffffffffff1673ffffffffffffffffffffffffffffffffffffffff166370a08231306040518263ffffffff1660e01b81526004016110ca91906123b9565b60206040518083038186803b1580156110e257600080fd5b505afa1580156110f6573d6000803e3d6000fd5b505050506040513d601f19601f8201168201806040525081019061111a9190612164565b905090565b60075481565b600060019054906101000a900473ffffffffffffffffffffffffffffffffffffffff1673ffffffffffffffffffffffffffffffffffffffff163373ffffffffffffffffffffffffffffffffffffffff16146111b5576040517f08c379a00000000000000000000000000000000000000000000000000000000081526004016111ac9061264c565b60405180910390fd5b8060088190555050565b600260009054906101000a900473ffffffffffffffffffffffffffffffffffffffff1681565b600060019054906101000a900473ffffffffffffffffffffffffffffffffffffffff1681565b6000801515600b60008473ffffffffffffffffffffffffffffffffffffffff1673ffffffffffffffffffffffffffffffffffffffff16815260200190815260200160002060009054906101000a900460ff161515141561126e576000905061130f565b6000611278610a1a565b90506000600a60008573ffffffffffffffffffffffffffffffffffffffff1673ffffffffffffffffffffffffffffffffffffffff1681526020019081526020016000205411806112c9575060008111155b806112e7575060001515600660009054906101000a900460ff161515145b156112f657600091505061130f565b6000600754905081811115611309578190505b80925050505b919050565b600660009054906101000a900460ff1681565b600060019054906101000a900473ffffffffffffffffffffffffffffffffffffffff1673ffffffffffffffffffffffffffffffffffffffff163373ffffffffffffffffffffffffffffffffffffffff16146113b7576040517f08c379a00000000000000000000000000000000000000000000000000000000081526004016113ae9061264c565b60405180910390fd5b8060078190555050565b600060019054906101000a900473ffffffffffffffffffffffffffffffffffffffff1673ffffffffffffffffffffffffffffffffffffffff163373ffffffffffffffffffffffffffffffffffffffff1614611451576040517f08c379a00000000000000000000000000000000000000000000000000000000081526004016114489061264c565b60405180910390fd5b6001600660006101000a81548160ff021916908315150217905550565b600160009054906101000a900473ffffffffffffffffffffffffffffffffffffffff1681565b600a6020528060005260406000206000915090505481565b600060019054906101000a900473ffffffffffffffffffffffffffffffffffffffff1673ffffffffffffffffffffffffffffffffffffffff163373ffffffffffffffffffffffffffffffffffffffff161461153c576040517f08c379a00000000000000000000000000000000000000000000000000000000081526004016115339061264c565b60405180910390fd5b61155160095442611cdd90919063ffffffff16565b6005819055506001600660006101000a81548160ff021916908315150217905550565b600060019054906101000a900473ffffffffffffffffffffffffffffffffffffffff1673ffffffffffffffffffffffffffffffffffffffff163373ffffffffffffffffffffffffffffffffffffffff1614611604576040517f08c379a00000000000000000000000000000000000000000000000000000000081526004016115fb9061264c565b60405180910390fd5b8060058190555050565b60011515600b60003373ffffffffffffffffffffffffffffffffffffffff1673ffffffffffffffffffffffffffffffffffffffff16815260200190815260200160002060009054906101000a900460ff161515146116a1576040517f08c379a00000000000000000000000000000000000000000000000000000000081526004016116989061250c565b60405180910390fd5b60011515600660009054906101000a900460ff161515146116f7576040517f08c379a00000000000000000000000000000000000000000000000000000000081526004016116ee906125cc565b60405180910390fd5b600060055411801561170b57504260055411155b61174a576040517f08c379a0000000000000000000000000000000000000000000000000000000008152600401611741906125ec565b60405180910390fd5b6000811161178d576040517f08c379a00000000000000000000000000000000000000000000000000000000081526004016117849061262c565b60405180910390fd5b60006117983361120b565b9050600081116117dd576040517f08c379a00000000000000000000000000000000000000000000000000000000081526004016117d49061264c565b60405180910390fd5b600061180e600354611800670de0b6b3a764000086611c1890919063ffffffff16565b611c9390919063ffffffff16565b90508181111561184d5781905061184a670de0b6b3a764000061183c60035484611c1890919063ffffffff16565b611c9390919063ffffffff16565b92505b60008111611890576040517f08c379a00000000000000000000000000000000000000000000000000000000081526004016118879061252c565b60405180910390fd5b6008548110156118d5576040517f08c379a00000000000000000000000000000000000000000000000000000000081526004016118cc9061258c565b60405180910390fd5b60008311611918576040517f08c379a000000000000000000000000000000000000000000000000000000000815260040161190f9061260c565b60405180910390fd5b6001151561192584611d3b565b151514611967576040517f08c379a000000000000000000000000000000000000000000000000000000000815260040161195e9061256c565b60405180910390fd5b600160009054906101000a900473ffffffffffffffffffffffffffffffffffffffff1673ffffffffffffffffffffffffffffffffffffffff1663a9059cbb33836040518363ffffffff1660e01b81526004016119c4929190612434565b602060405180830381600087803b1580156119de57600080fd5b505af11580156119f2573d6000803e3d6000fd5b505050506040513d601f19601f82011682018060405250810190611a1691906120dd565b50611a2c83600454611cdd90919063ffffffff16565b600481905550611a8481600a60003373ffffffffffffffffffffffffffffffffffffffff1673ffffffffffffffffffffffffffffffffffffffff16815260200190815260200160002054611cdd90919063ffffffff16565b600a60003373ffffffffffffffffffffffffffffffffffffffff1673ffffffffffffffffffffffffffffffffffffffff168152602001908152602001600020819055507f7b027a29d1a4d4d2e0a11e04ebd4741452bfbb746ed433855a8f63afc5b20cde338483604051611afa9392919061245d565b60405180910390a1505050565b60045481565b600060019054906101000a900473ffffffffffffffffffffffffffffffffffffffff1673ffffffffffffffffffffffffffffffffffffffff163373ffffffffffffffffffffffffffffffffffffffff1614611b9d576040517f08c379a0000000000000000000000000000000000000000000000000000000008152600401611b949061264c565b60405180910390fd5b80600060016101000a81548173ffffffffffffffffffffffffffffffffffffffff021916908373ffffffffffffffffffffffffffffffffffffffff16021790555050565b60035481565b600b6020528060005260406000206000915054906101000a900460ff1681565b60008054906101000a900460ff1681565b600080831415611c2b5760009050611c8d565b60008284611c3991906127c3565b9050828482611c489190612792565b14611c88576040517f08c379a0000000000000000000000000000000000000000000000000000000008152600401611c7f906125ac565b60405180910390fd5b809150505b92915050565b6000611cd583836040518060400160405280601a81526020017f536166654d6174683a206469766973696f6e206279207a65726f000000000000815250611f8f565b905092915050565b6000808284611cec919061273c565b905083811015611d31576040517f08c379a0000000000000000000000000000000000000000000000000000000008152600401611d289061254c565b60405180910390fd5b8091505092915050565b600080600260009054906101000a900473ffffffffffffffffffffffffffffffffffffffff1673ffffffffffffffffffffffffffffffffffffffff166370a08231306040518263ffffffff1660e01b8152600401611d9991906123b9565b60206040518083038186803b158015611db157600080fd5b505afa158015611dc5573d6000803e3d6000fd5b505050506040513d601f19601f82011682018060405250810190611de99190612164565b9050600260009054906101000a900473ffffffffffffffffffffffffffffffffffffffff1673ffffffffffffffffffffffffffffffffffffffff166323b872dd3330866040518463ffffffff1660e01b8152600401611e4a939291906123fd565b602060405180830381600087803b158015611e6457600080fd5b505af1158015611e78573d6000803e3d6000fd5b505050506040513d601f19601f82011682018060405250810190611e9c91906120dd565b506000600260009054906101000a900473ffffffffffffffffffffffffffffffffffffffff1673ffffffffffffffffffffffffffffffffffffffff166370a08231306040518263ffffffff1660e01b8152600401611efa91906123b9565b60206040518083038186803b158015611f1257600080fd5b505afa158015611f26573d6000803e3d6000fd5b505050506040513d601f19601f82011682018060405250810190611f4a9190612164565b9050818111611f5e57600092505050611f8a565b611f718483611cdd90919063ffffffff16565b811015611f8357600092505050611f8a565b6001925050505b919050565b60008083118290611fd6576040517f08c379a0000000000000000000000000000000000000000000000000000000008152600401611fcd91906124ca565b60405180910390fd5b5060008385611fe59190612792565b9050809150509392505050565b60008135905061200181612b73565b92915050565b60008151905061201681612b8a565b92915050565b60008135905061202b81612ba1565b92915050565b60008135905061204081612bb8565b92915050565b60008151905061205581612bb8565b92915050565b60008135905061206a81612bcf565b92915050565b6000602082840312156120865761208561294b565b5b600061209484828501611ff2565b91505092915050565b600080604083850312156120b4576120b361294b565b5b60006120c285828601611ff2565b92505060206120d38582860161205b565b9150509250929050565b6000602082840312156120f3576120f261294b565b5b600061210184828501612007565b91505092915050565b6000602082840312156121205761211f61294b565b5b600061212e8482850161201c565b91505092915050565b60006020828403121561214d5761214c61294b565b5b600061215b84828501612031565b91505092915050565b60006020828403121561217a5761217961294b565b5b600061218884828501612046565b91505092915050565b61219a8161281d565b82525050565b6121a98161282f565b82525050565b6121b881612884565b82525050565b60006121c982612720565b6121d3818561272b565b93506121e38185602086016128ba565b6121ec81612950565b840191505092915050565b6000612204600f8361272b565b915061220f82612961565b602082019050919050565b600061222760118361272b565b91506122328261298a565b602082019050919050565b600061224a60128361272b565b9150612255826129b3565b602082019050919050565b600061226d601b8361272b565b9150612278826129dc565b602082019050919050565b600061229060128361272b565b915061229b82612a05565b602082019050919050565b60006122b360128361272b565b91506122be82612a2e565b602082019050919050565b60006122d660218361272b565b91506122e182612a57565b604082019050919050565b60006122f9600b8361272b565b915061230482612aa6565b602082019050919050565b600061231c60128361272b565b915061232782612acf565b602082019050919050565b600061233f60128361272b565b915061234a82612af8565b602082019050919050565b600061236260108361272b565b915061236d82612b21565b602082019050919050565b600061238560128361272b565b915061239082612b4a565b602082019050919050565b6123a48161286d565b82525050565b6123b381612877565b82525050565b60006020820190506123ce6000830184612191565b92915050565b60006040820190506123e96000830185612191565b6123f66020830184612191565b9392505050565b60006060820190506124126000830186612191565b61241f6020830185612191565b61242c604083018461239b565b949350505050565b60006040820190506124496000830185612191565b612456602083018461239b565b9392505050565b60006060820190506124726000830186612191565b61247f602083018561239b565b61248c604083018461239b565b949350505050565b60006020820190506124a960008301846121a0565b92915050565b60006020820190506124c460008301846121af565b92915050565b600060208201905081810360008301526124e481846121be565b905092915050565b60006020820190508181036000830152612505816121f7565b9050919050565b600060208201905081810360008301526125258161221a565b9050919050565b600060208201905081810360008301526125458161223d565b9050919050565b6000602082019050818103600083015261256581612260565b9050919050565b6000602082019050818103600083015261258581612283565b9050919050565b600060208201905081810360008301526125a5816122a6565b9050919050565b600060208201905081810360008301526125c5816122c9565b9050919050565b600060208201905081810360008301526125e5816122ec565b9050919050565b600060208201905081810360008301526126058161230f565b9050919050565b6000602082019050818103600083015261262581612332565b9050919050565b6000602082019050818103600083015261264581612355565b9050919050565b6000602082019050818103600083015261266581612378565b9050919050565b6000602082019050612681600083018461239b565b92915050565b60006101008201905061269d600083018b61239b565b6126aa602083018a61239b565b6126b7604083018961239b565b6126c4606083018861239b565b6126d1608083018761239b565b6126de60a083018661239b565b6126eb60c083018561239b565b6126f860e083018461239b565b9998505050505050505050565b600060208201905061271a60008301846123aa565b92915050565b600081519050919050565b600082825260208201905092915050565b60006127478261286d565b91506127528361286d565b9250827fffffffffffffffffffffffffffffffffffffffffffffffffffffffffffffffff03821115612787576127866128ed565b5b828201905092915050565b600061279d8261286d565b91506127a88361286d565b9250826127b8576127b761291c565b5b828204905092915050565b60006127ce8261286d565b91506127d98361286d565b9250817fffffffffffffffffffffffffffffffffffffffffffffffffffffffffffffffff0483118215151615612812576128116128ed565b5b828202905092915050565b60006128288261284d565b9050919050565b60008115159050919050565b60006128468261281d565b9050919050565b600073ffffffffffffffffffffffffffffffffffffffff82169050919050565b6000819050919050565b600060ff82169050919050565b600061288f82612896565b9050919050565b60006128a1826128a8565b9050919050565b60006128b38261284d565b9050919050565b60005b838110156128d85780820151818401526020810190506128bd565b838111156128e7576000848401525b50505050565b7f4e487b7100000000000000000000000000000000000000000000000000000000600052601160045260246000fd5b7f4e487b7100000000000000000000000000000000000000000000000000000000600052601260045260246000fd5b600080fd5b6000601f19601f8301169050919050565b7f494e56414c49445f414444524553530000000000000000000000000000000000600082015250565b7f494e56414c49445f57484954456c495354000000000000000000000000000000600082015250565b7f494e56414c49445f515541544954593a30310000000000000000000000000000600082015250565b7f536166654d6174683a206164646974696f6e206f766572666c6f770000000000600082015250565b7f494e56414c49445f5041594d454e543a30320000000000000000000000000000600082015250565b7f494e56414c49445f515541544954593a30320000000000000000000000000000600082015250565b7f536166654d6174683a206d756c7469706c69636174696f6e206f766572666c6f60008201527f7700000000000000000000000000000000000000000000000000000000000000602082015250565b7f53595354454d5f53544f50000000000000000000000000000000000000000000600082015250565b7f53595354454d5f4e4f545f52554e4e494e470000000000000000000000000000600082015250565b7f494e56414c49445f5041594d454e543a30310000000000000000000000000000600082015250565b7f494e56414c49445f414d4f554e545f3100000000000000000000000000000000600082015250565b7f494e56414c49445f5045524d495353494f4e0000000000000000000000000000600082015250565b612b7c8161281d565b8114612b8757600080fd5b50565b612b938161282f565b8114612b9e57600080fd5b50565b612baa8161283b565b8114612bb557600080fd5b50565b612bc18161286d565b8114612bcc57600080fd5b50565b612bd881612877565b8114612be357600080fd5b5056fea26469706673582212209e89cbc56b1398e03c0b15f2d81be01f2570ba7be297b895060a6b69391e515b64736f6c63430008070033",
					"opcodes": "PUSH1 0x80 PUSH1 0x40 MSTORE PUSH1 0x64 PUSH1 0x0 DUP1 PUSH2 0x100 EXP DUP2 SLOAD DUP2 PUSH1 0xFF MUL NOT AND SWAP1 DUP4 PUSH1 0xFF AND MUL OR SWAP1 SSTORE POP PUSH2 0x9C40 PUSH1 0x3 SSTORE PUSH1 0x0 PUSH1 0x4 SSTORE PUSH1 0x0 PUSH1 0x5 SSTORE PUSH1 0x0 PUSH1 0x6 PUSH1 0x0 PUSH2 0x100 EXP DUP2 SLOAD DUP2 PUSH1 0xFF MUL NOT AND SWAP1 DUP4 ISZERO ISZERO MUL OR SWAP1 SSTORE POP PUSH9 0x43C33C193756480000 PUSH1 0x7 SSTORE PUSH9 0x28A857425466F80000 PUSH1 0x8 SSTORE PUSH2 0x1C20 PUSH1 0x9 SSTORE CALLVALUE DUP1 ISZERO PUSH3 0x77 JUMPI PUSH1 0x0 DUP1 REVERT JUMPDEST POP PUSH1 0x40 MLOAD PUSH3 0x2E59 CODESIZE SUB DUP1 PUSH3 0x2E59 DUP4 CODECOPY DUP2 DUP2 ADD PUSH1 0x40 MSTORE DUP2 ADD SWAP1 PUSH3 0x9D SWAP2 SWAP1 PUSH3 0x17F JUMP JUMPDEST DUP2 PUSH1 0x1 PUSH1 0x0 PUSH2 0x100 EXP DUP2 SLOAD DUP2 PUSH20 0xFFFFFFFFFFFFFFFFFFFFFFFFFFFFFFFFFFFFFFFF MUL NOT AND SWAP1 DUP4 PUSH20 0xFFFFFFFFFFFFFFFFFFFFFFFFFFFFFFFFFFFFFFFF AND MUL OR SWAP1 SSTORE POP DUP1 PUSH1 0x2 PUSH1 0x0 PUSH2 0x100 EXP DUP2 SLOAD DUP2 PUSH20 0xFFFFFFFFFFFFFFFFFFFFFFFFFFFFFFFFFFFFFFFF MUL NOT AND SWAP1 DUP4 PUSH20 0xFFFFFFFFFFFFFFFFFFFFFFFFFFFFFFFFFFFFFFFF AND MUL OR SWAP1 SSTORE POP CALLER PUSH1 0x0 PUSH1 0x1 PUSH2 0x100 EXP DUP2 SLOAD DUP2 PUSH20 0xFFFFFFFFFFFFFFFFFFFFFFFFFFFFFFFFFFFFFFFF MUL NOT AND SWAP1 DUP4 PUSH20 0xFFFFFFFFFFFFFFFFFFFFFFFFFFFFFFFFFFFFFFFF AND MUL OR SWAP1 SSTORE POP POP POP PUSH3 0x22D JUMP JUMPDEST PUSH1 0x0 DUP2 MLOAD SWAP1 POP PUSH3 0x179 DUP2 PUSH3 0x213 JUMP JUMPDEST SWAP3 SWAP2 POP POP JUMP JUMPDEST PUSH1 0x0 DUP1 PUSH1 0x40 DUP4 DUP6 SUB SLT ISZERO PUSH3 0x199 JUMPI PUSH3 0x198 PUSH3 0x20E JUMP JUMPDEST JUMPDEST PUSH1 0x0 PUSH3 0x1A9 DUP6 DUP3 DUP7 ADD PUSH3 0x168 JUMP JUMPDEST SWAP3 POP POP PUSH1 0x20 PUSH3 0x1BC DUP6 DUP3 DUP7 ADD PUSH3 0x168 JUMP JUMPDEST SWAP2 POP POP SWAP3 POP SWAP3 SWAP1 POP JUMP JUMPDEST PUSH1 0x0 PUSH3 0x1D3 DUP3 PUSH3 0x1EE JUMP JUMPDEST SWAP1 POP SWAP2 SWAP1 POP JUMP JUMPDEST PUSH1 0x0 PUSH3 0x1E7 DUP3 PUSH3 0x1C6 JUMP JUMPDEST SWAP1 POP SWAP2 SWAP1 POP JUMP JUMPDEST PUSH1 0x0 PUSH20 0xFFFFFFFFFFFFFFFFFFFFFFFFFFFFFFFFFFFFFFFF DUP3 AND SWAP1 POP SWAP2 SWAP1 POP JUMP JUMPDEST PUSH1 0x0 DUP1 REVERT JUMPDEST PUSH3 0x21E DUP2 PUSH3 0x1DA JUMP JUMPDEST DUP2 EQ PUSH3 0x22A JUMPI PUSH1 0x0 DUP1 REVERT JUMPDEST POP JUMP JUMPDEST PUSH2 0x2C1C DUP1 PUSH3 0x23D PUSH1 0x0 CODECOPY PUSH1 0x0 RETURN INVALID PUSH1 0x80 PUSH1 0x40 MSTORE PUSH1 0x4 CALLDATASIZE LT PUSH2 0x1D1 JUMPI PUSH1 0x0 CALLDATALOAD PUSH1 0xE0 SHR DUP1 PUSH4 0x8DA5CB5B GT PUSH2 0xF7 JUMPI DUP1 PUSH4 0xBE9A6555 GT PUSH2 0x95 JUMPI DUP1 PUSH4 0xF2FDE38B GT PUSH2 0x64 JUMPI DUP1 PUSH4 0xF2FDE38B EQ PUSH2 0x62A JUMPI DUP1 PUSH4 0xF51F96DD EQ PUSH2 0x653 JUMPI DUP1 PUSH4 0xFA0FCA84 EQ PUSH2 0x67E JUMPI DUP1 PUSH4 0xFFA1AD74 EQ PUSH2 0x6BB JUMPI PUSH2 0x1D8 JUMP JUMPDEST DUP1 PUSH4 0xBE9A6555 EQ PUSH2 0x596 JUMPI DUP1 PUSH4 0xCCB98FFC EQ PUSH2 0x5AD JUMPI DUP1 PUSH4 0xD96A094A EQ PUSH2 0x5D6 JUMPI DUP1 PUSH4 0xE632C2F3 EQ PUSH2 0x5FF JUMPI PUSH2 0x1D8 JUMP JUMPDEST DUP1 PUSH4 0xA2B0106B GT PUSH2 0xD1 JUMPI DUP1 PUSH4 0xA2B0106B EQ PUSH2 0x4EE JUMPI DUP1 PUSH4 0xA3907D71 EQ PUSH2 0x517 JUMPI DUP1 PUSH4 0xB0176CE8 EQ PUSH2 0x52E JUMPI DUP1 PUSH4 0xBCAAF662 EQ PUSH2 0x559 JUMPI PUSH2 0x1D8 JUMP JUMPDEST DUP1 PUSH4 0x8DA5CB5B EQ PUSH2 0x45B JUMPI DUP1 PUSH4 0x90C8DD17 EQ PUSH2 0x486 JUMPI DUP1 PUSH4 0x92F6386A EQ PUSH2 0x4C3 JUMPI PUSH2 0x1D8 JUMP JUMPDEST DUP1 PUSH4 0x3197CBB6 GT PUSH2 0x16F JUMPI DUP1 PUSH4 0x3CFD1CCC GT PUSH2 0x13E JUMPI DUP1 PUSH4 0x3CFD1CCC EQ PUSH2 0x3B1 JUMPI DUP1 PUSH4 0x50C19C0B EQ PUSH2 0x3DC JUMPI DUP1 PUSH4 0x860779E7 EQ PUSH2 0x407 JUMPI DUP1 PUSH4 0x89A30271 EQ PUSH2 0x430 JUMPI PUSH2 0x1D8 JUMP JUMPDEST DUP1 PUSH4 0x3197CBB6 EQ PUSH2 0x2EE JUMPI DUP1 PUSH4 0x38266B22 EQ PUSH2 0x319 JUMPI DUP1 PUSH4 0x3AF96B90 EQ PUSH2 0x35D JUMPI DUP1 PUSH4 0x3C6C26F9 EQ PUSH2 0x388 JUMPI PUSH2 0x1D8 JUMP JUMPDEST DUP1 PUSH4 0x1F2475BD GT PUSH2 0x1AB JUMPI DUP1 PUSH4 0x1F2475BD EQ PUSH2 0x258 JUMPI DUP1 PUSH4 0x247B9818 EQ PUSH2 0x283 JUMPI DUP1 PUSH4 0x2ACFC3DA EQ PUSH2 0x2AE JUMPI DUP1 PUSH4 0x2F2770DB EQ PUSH2 0x2D7 JUMPI PUSH2 0x1D8 JUMP JUMPDEST DUP1 PUSH4 0xF5A9D01 EQ PUSH2 0x1DD JUMPI DUP1 PUSH4 0x120EDD96 EQ PUSH2 0x206 JUMPI DUP1 PUSH4 0x1919FED7 EQ PUSH2 0x22F JUMPI PUSH2 0x1D8 JUMP JUMPDEST CALLDATASIZE PUSH2 0x1D8 JUMPI STOP JUMPDEST PUSH1 0x0 DUP1 REVERT JUMPDEST CALLVALUE DUP1 ISZERO PUSH2 0x1E9 JUMPI PUSH1 0x0 DUP1 REVERT JUMPDEST POP PUSH2 0x204 PUSH1 0x4 DUP1 CALLDATASIZE SUB DUP2 ADD SWAP1 PUSH2 0x1FF SWAP2 SWAP1 PUSH2 0x210A JUMP JUMPDEST PUSH2 0x6E6 JUMP JUMPDEST STOP JUMPDEST CALLVALUE DUP1 ISZERO PUSH2 0x212 JUMPI PUSH1 0x0 DUP1 REVERT JUMPDEST POP PUSH2 0x22D PUSH1 0x4 DUP1 CALLDATASIZE SUB DUP2 ADD SWAP1 PUSH2 0x228 SWAP2 SWAP1 PUSH2 0x209D JUMP JUMPDEST PUSH2 0x82A JUMP JUMPDEST STOP JUMPDEST CALLVALUE DUP1 ISZERO PUSH2 0x23B JUMPI PUSH1 0x0 DUP1 REVERT JUMPDEST POP PUSH2 0x256 PUSH1 0x4 DUP1 CALLDATASIZE SUB DUP2 ADD SWAP1 PUSH2 0x251 SWAP2 SWAP1 PUSH2 0x2137 JUMP JUMPDEST PUSH2 0x980 JUMP JUMPDEST STOP JUMPDEST CALLVALUE DUP1 ISZERO PUSH2 0x264 JUMPI PUSH1 0x0 DUP1 REVERT JUMPDEST POP PUSH2 0x26D PUSH2 0xA1A JUMP JUMPDEST PUSH1 0x40 MLOAD PUSH2 0x27A SWAP2 SWAP1 PUSH2 0x266C JUMP JUMPDEST PUSH1 0x40 MLOAD DUP1 SWAP2 SUB SWAP1 RETURN JUMPDEST CALLVALUE DUP1 ISZERO PUSH2 0x28F JUMPI PUSH1 0x0 DUP1 REVERT JUMPDEST POP PUSH2 0x298 PUSH2 0xACC JUMP JUMPDEST PUSH1 0x40 MLOAD PUSH2 0x2A5 SWAP2 SWAP1 PUSH2 0x266C JUMP JUMPDEST PUSH1 0x40 MLOAD DUP1 SWAP2 SUB SWAP1 RETURN JUMPDEST CALLVALUE DUP1 ISZERO PUSH2 0x2BA JUMPI PUSH1 0x0 DUP1 REVERT JUMPDEST POP PUSH2 0x2D5 PUSH1 0x4 DUP1 CALLDATASIZE SUB DUP2 ADD SWAP1 PUSH2 0x2D0 SWAP2 SWAP1 PUSH2 0x210A JUMP JUMPDEST PUSH2 0xAD2 JUMP JUMPDEST STOP JUMPDEST CALLVALUE DUP1 ISZERO PUSH2 0x2E3 JUMPI PUSH1 0x0 DUP1 REVERT JUMPDEST POP PUSH2 0x2EC PUSH2 0xC16 JUMP JUMPDEST STOP JUMPDEST CALLVALUE DUP1 ISZERO PUSH2 0x2FA JUMPI PUSH1 0x0 DUP1 REVERT JUMPDEST POP PUSH2 0x303 PUSH2 0xCC3 JUMP JUMPDEST PUSH1 0x40 MLOAD PUSH2 0x310 SWAP2 SWAP1 PUSH2 0x266C JUMP JUMPDEST PUSH1 0x40 MLOAD DUP1 SWAP2 SUB SWAP1 RETURN JUMPDEST CALLVALUE DUP1 ISZERO PUSH2 0x325 JUMPI PUSH1 0x0 DUP1 REVERT JUMPDEST POP PUSH2 0x340 PUSH1 0x4 DUP1 CALLDATASIZE SUB DUP2 ADD SWAP1 PUSH2 0x33B SWAP2 SWAP1 PUSH2 0x2070 JUMP JUMPDEST PUSH2 0xCC9 JUMP JUMPDEST PUSH1 0x40 MLOAD PUSH2 0x354 SWAP9 SWAP8 SWAP7 SWAP6 SWAP5 SWAP4 SWAP3 SWAP2 SWAP1 PUSH2 0x2687 JUMP JUMPDEST PUSH1 0x40 MLOAD DUP1 SWAP2 SUB SWAP1 RETURN JUMPDEST CALLVALUE DUP1 ISZERO PUSH2 0x369 JUMPI PUSH1 0x0 DUP1 REVERT JUMPDEST POP PUSH2 0x372 PUSH2 0xE96 JUMP JUMPDEST PUSH1 0x40 MLOAD PUSH2 0x37F SWAP2 SWAP1 PUSH2 0x266C JUMP JUMPDEST PUSH1 0x40 MLOAD DUP1 SWAP2 SUB SWAP1 RETURN JUMPDEST CALLVALUE DUP1 ISZERO PUSH2 0x394 JUMPI PUSH1 0x0 DUP1 REVERT JUMPDEST POP PUSH2 0x3AF PUSH1 0x4 DUP1 CALLDATASIZE SUB DUP2 ADD SWAP1 PUSH2 0x3AA SWAP2 SWAP1 PUSH2 0x210A JUMP JUMPDEST PUSH2 0xE9C JUMP JUMPDEST STOP JUMPDEST CALLVALUE DUP1 ISZERO PUSH2 0x3BD JUMPI PUSH1 0x0 DUP1 REVERT JUMPDEST POP PUSH2 0x3C6 PUSH2 0x106D JUMP JUMPDEST PUSH1 0x40 MLOAD PUSH2 0x3D3 SWAP2 SWAP1 PUSH2 0x266C JUMP JUMPDEST PUSH1 0x40 MLOAD DUP1 SWAP2 SUB SWAP1 RETURN JUMPDEST CALLVALUE DUP1 ISZERO PUSH2 0x3E8 JUMPI PUSH1 0x0 DUP1 REVERT JUMPDEST POP PUSH2 0x3F1 PUSH2 0x111F JUMP JUMPDEST PUSH1 0x40 MLOAD PUSH2 0x3FE SWAP2 SWAP1 PUSH2 0x266C JUMP JUMPDEST PUSH1 0x40 MLOAD DUP1 SWAP2 SUB SWAP1 RETURN JUMPDEST CALLVALUE DUP1 ISZERO PUSH2 0x413 JUMPI PUSH1 0x0 DUP1 REVERT JUMPDEST POP PUSH2 0x42E PUSH1 0x4 DUP1 CALLDATASIZE SUB DUP2 ADD SWAP1 PUSH2 0x429 SWAP2 SWAP1 PUSH2 0x2137 JUMP JUMPDEST PUSH2 0x1125 JUMP JUMPDEST STOP JUMPDEST CALLVALUE DUP1 ISZERO PUSH2 0x43C JUMPI PUSH1 0x0 DUP1 REVERT JUMPDEST POP PUSH2 0x445 PUSH2 0x11BF JUMP JUMPDEST PUSH1 0x40 MLOAD PUSH2 0x452 SWAP2 SWAP1 PUSH2 0x24AF JUMP JUMPDEST PUSH1 0x40 MLOAD DUP1 SWAP2 SUB SWAP1 RETURN JUMPDEST CALLVALUE DUP1 ISZERO PUSH2 0x467 JUMPI PUSH1 0x0 DUP1 REVERT JUMPDEST POP PUSH2 0x470 PUSH2 0x11E5 JUMP JUMPDEST PUSH1 0x40 MLOAD PUSH2 0x47D SWAP2 SWAP1 PUSH2 0x23B9 JUMP JUMPDEST PUSH1 0x40 MLOAD DUP1 SWAP2 SUB SWAP1 RETURN JUMPDEST CALLVALUE DUP1 ISZERO PUSH2 0x492 JUMPI PUSH1 0x0 DUP1 REVERT JUMPDEST POP PUSH2 0x4AD PUSH1 0x4 DUP1 CALLDATASIZE SUB DUP2 ADD SWAP1 PUSH2 0x4A8 SWAP2 SWAP1 PUSH2 0x2070 JUMP JUMPDEST PUSH2 0x120B JUMP JUMPDEST PUSH1 0x40 MLOAD PUSH2 0x4BA SWAP2 SWAP1 PUSH2 0x266C JUMP JUMPDEST PUSH1 0x40 MLOAD DUP1 SWAP2 SUB SWAP1 RETURN JUMPDEST CALLVALUE DUP1 ISZERO PUSH2 0x4CF JUMPI PUSH1 0x0 DUP1 REVERT JUMPDEST POP PUSH2 0x4D8 PUSH2 0x1314 JUMP JUMPDEST PUSH1 0x40 MLOAD PUSH2 0x4E5 SWAP2 SWAP1 PUSH2 0x2494 JUMP JUMPDEST PUSH1 0x40 MLOAD DUP1 SWAP2 SUB SWAP1 RETURN JUMPDEST CALLVALUE DUP1 ISZERO PUSH2 0x4FA JUMPI PUSH1 0x0 DUP1 REVERT JUMPDEST POP PUSH2 0x515 PUSH1 0x4 DUP1 CALLDATASIZE SUB DUP2 ADD SWAP1 PUSH2 0x510 SWAP2 SWAP1 PUSH2 0x2137 JUMP JUMPDEST PUSH2 0x1327 JUMP JUMPDEST STOP JUMPDEST CALLVALUE DUP1 ISZERO PUSH2 0x523 JUMPI PUSH1 0x0 DUP1 REVERT JUMPDEST POP PUSH2 0x52C PUSH2 0x13C1 JUMP JUMPDEST STOP JUMPDEST CALLVALUE DUP1 ISZERO PUSH2 0x53A JUMPI PUSH1 0x0 DUP1 REVERT JUMPDEST POP PUSH2 0x543 PUSH2 0x146E JUMP JUMPDEST PUSH1 0x40 MLOAD PUSH2 0x550 SWAP2 SWAP1 PUSH2 0x24AF JUMP JUMPDEST PUSH1 0x40 MLOAD DUP1 SWAP2 SUB SWAP1 RETURN JUMPDEST CALLVALUE DUP1 ISZERO PUSH2 0x565 JUMPI PUSH1 0x0 DUP1 REVERT JUMPDEST POP PUSH2 0x580 PUSH1 0x4 DUP1 CALLDATASIZE SUB DUP2 ADD SWAP1 PUSH2 0x57B SWAP2 SWAP1 PUSH2 0x2070 JUMP JUMPDEST PUSH2 0x1494 JUMP JUMPDEST PUSH1 0x40 MLOAD PUSH2 0x58D SWAP2 SWAP1 PUSH2 0x266C JUMP JUMPDEST PUSH1 0x40 MLOAD DUP1 SWAP2 SUB SWAP1 RETURN JUMPDEST CALLVALUE DUP1 ISZERO PUSH2 0x5A2 JUMPI PUSH1 0x0 DUP1 REVERT JUMPDEST POP PUSH2 0x5AB PUSH2 0x14AC JUMP JUMPDEST STOP JUMPDEST CALLVALUE DUP1 ISZERO PUSH2 0x5B9 JUMPI PUSH1 0x0 DUP1 REVERT JUMPDEST POP PUSH2 0x5D4 PUSH1 0x4 DUP1 CALLDATASIZE SUB DUP2 ADD SWAP1 PUSH2 0x5CF SWAP2 SWAP1 PUSH2 0x2137 JUMP JUMPDEST PUSH2 0x1574 JUMP JUMPDEST STOP JUMPDEST CALLVALUE DUP1 ISZERO PUSH2 0x5E2 JUMPI PUSH1 0x0 DUP1 REVERT JUMPDEST POP PUSH2 0x5FD PUSH1 0x4 DUP1 CALLDATASIZE SUB DUP2 ADD SWAP1 PUSH2 0x5F8 SWAP2 SWAP1 PUSH2 0x2137 JUMP JUMPDEST PUSH2 0x160E JUMP JUMPDEST STOP JUMPDEST CALLVALUE DUP1 ISZERO PUSH2 0x60B JUMPI PUSH1 0x0 DUP1 REVERT JUMPDEST POP PUSH2 0x614 PUSH2 0x1B07 JUMP JUMPDEST PUSH1 0x40 MLOAD PUSH2 0x621 SWAP2 SWAP1 PUSH2 0x266C JUMP JUMPDEST PUSH1 0x40 MLOAD DUP1 SWAP2 SUB SWAP1 RETURN JUMPDEST CALLVALUE DUP1 ISZERO PUSH2 0x636 JUMPI PUSH1 0x0 DUP1 REVERT JUMPDEST POP PUSH2 0x651 PUSH1 0x4 DUP1 CALLDATASIZE SUB DUP2 ADD SWAP1 PUSH2 0x64C SWAP2 SWAP1 PUSH2 0x2070 JUMP JUMPDEST PUSH2 0x1B0D JUMP JUMPDEST STOP JUMPDEST CALLVALUE DUP1 ISZERO PUSH2 0x65F JUMPI PUSH1 0x0 DUP1 REVERT JUMPDEST POP PUSH2 0x668 PUSH2 0x1BE1 JUMP JUMPDEST PUSH1 0x40 MLOAD PUSH2 0x675 SWAP2 SWAP1 PUSH2 0x266C JUMP JUMPDEST PUSH1 0x40 MLOAD DUP1 SWAP2 SUB SWAP1 RETURN JUMPDEST CALLVALUE DUP1 ISZERO PUSH2 0x68A JUMPI PUSH1 0x0 DUP1 REVERT JUMPDEST POP PUSH2 0x6A5 PUSH1 0x4 DUP1 CALLDATASIZE SUB DUP2 ADD SWAP1 PUSH2 0x6A0 SWAP2 SWAP1 PUSH2 0x2070 JUMP JUMPDEST PUSH2 0x1BE7 JUMP JUMPDEST PUSH1 0x40 MLOAD PUSH2 0x6B2 SWAP2 SWAP1 PUSH2 0x2494 JUMP JUMPDEST PUSH1 0x40 MLOAD DUP1 SWAP2 SUB SWAP1 RETURN JUMPDEST CALLVALUE DUP1 ISZERO PUSH2 0x6C7 JUMPI PUSH1 0x0 DUP1 REVERT JUMPDEST POP PUSH2 0x6D0 PUSH2 0x1C07 JUMP JUMPDEST PUSH1 0x40 MLOAD PUSH2 0x6DD SWAP2 SWAP1 PUSH2 0x2705 JUMP JUMPDEST PUSH1 0x40 MLOAD DUP1 SWAP2 SUB SWAP1 RETURN JUMPDEST PUSH1 0x0 PUSH1 0x1 SWAP1 SLOAD SWAP1 PUSH2 0x100 EXP SWAP1 DIV PUSH20 0xFFFFFFFFFFFFFFFFFFFFFFFFFFFFFFFFFFFFFFFF AND PUSH20 0xFFFFFFFFFFFFFFFFFFFFFFFFFFFFFFFFFFFFFFFF AND CALLER PUSH20 0xFFFFFFFFFFFFFFFFFFFFFFFFFFFFFFFFFFFFFFFF AND EQ PUSH2 0x776 JUMPI PUSH1 0x40 MLOAD PUSH32 0x8C379A000000000000000000000000000000000000000000000000000000000 DUP2 MSTORE PUSH1 0x4 ADD PUSH2 0x76D SWAP1 PUSH2 0x264C JUMP JUMPDEST PUSH1 0x40 MLOAD DUP1 SWAP2 SUB SWAP1 REVERT JUMPDEST PUSH1 0x0 PUSH20 0xFFFFFFFFFFFFFFFFFFFFFFFFFFFFFFFFFFFFFFFF AND DUP2 PUSH20 0xFFFFFFFFFFFFFFFFFFFFFFFFFFFFFFFFFFFFFFFF AND EQ ISZERO PUSH2 0x7E6 JUMPI PUSH1 0x40 MLOAD PUSH32 0x8C379A000000000000000000000000000000000000000000000000000000000 DUP2 MSTORE PUSH1 0x4 ADD PUSH2 0x7DD SWAP1 PUSH2 0x24EC JUMP JUMPDEST PUSH1 0x40 MLOAD DUP1 SWAP2 SUB SWAP1 REVERT JUMPDEST DUP1 PUSH1 0x2 PUSH1 0x0 PUSH2 0x100 EXP DUP2 SLOAD DUP2 PUSH20 0xFFFFFFFFFFFFFFFFFFFFFFFFFFFFFFFFFFFFFFFF MUL NOT AND SWAP1 DUP4 PUSH20 0xFFFFFFFFFFFFFFFFFFFFFFFFFFFFFFFFFFFFFFFF AND MUL OR SWAP1 SSTORE POP POP JUMP JUMPDEST PUSH1 0x0 PUSH1 0x1 SWAP1 SLOAD SWAP1 PUSH2 0x100 EXP SWAP1 DIV PUSH20 0xFFFFFFFFFFFFFFFFFFFFFFFFFFFFFFFFFFFFFFFF AND PUSH20 0xFFFFFFFFFFFFFFFFFFFFFFFFFFFFFFFFFFFFFFFF AND CALLER PUSH20 0xFFFFFFFFFFFFFFFFFFFFFFFFFFFFFFFFFFFFFFFF AND EQ PUSH2 0x8BA JUMPI PUSH1 0x40 MLOAD PUSH32 0x8C379A000000000000000000000000000000000000000000000000000000000 DUP2 MSTORE PUSH1 0x4 ADD PUSH2 0x8B1 SWAP1 PUSH2 0x264C JUMP JUMPDEST PUSH1 0x40 MLOAD DUP1 SWAP2 SUB SWAP1 REVERT JUMPDEST PUSH1 0x1 DUP2 PUSH1 0xFF AND EQ ISZERO PUSH2 0x923 JUMPI PUSH1 0x1 PUSH1 0xB PUSH1 0x0 DUP5 PUSH20 0xFFFFFFFFFFFFFFFFFFFFFFFFFFFFFFFFFFFFFFFF AND PUSH20 0xFFFFFFFFFFFFFFFFFFFFFFFFFFFFFFFFFFFFFFFF AND DUP2 MSTORE PUSH1 0x20 ADD SWAP1 DUP2 MSTORE PUSH1 0x20 ADD PUSH1 0x0 KECCAK256 PUSH1 0x0 PUSH2 0x100 EXP DUP2 SLOAD DUP2 PUSH1 0xFF MUL NOT AND SWAP1 DUP4 ISZERO ISZERO MUL OR SWAP1 SSTORE POP PUSH2 0x97C JUMP JUMPDEST PUSH1 0x0 PUSH1 0xB PUSH1 0x0 DUP5 PUSH20 0xFFFFFFFFFFFFFFFFFFFFFFFFFFFFFFFFFFFFFFFF AND PUSH20 0xFFFFFFFFFFFFFFFFFFFFFFFFFFFFFFFFFFFFFFFF AND DUP2 MSTORE PUSH1 0x20 ADD SWAP1 DUP2 MSTORE PUSH1 0x20 ADD PUSH1 0x0 KECCAK256 PUSH1 0x0 PUSH2 0x100 EXP DUP2 SLOAD DUP2 PUSH1 0xFF MUL NOT AND SWAP1 DUP4 ISZERO ISZERO MUL OR SWAP1 SSTORE POP JUMPDEST POP POP JUMP JUMPDEST PUSH1 0x0 PUSH1 0x1 SWAP1 SLOAD SWAP1 PUSH2 0x100 EXP SWAP1 DIV PUSH20 0xFFFFFFFFFFFFFFFFFFFFFFFFFFFFFFFFFFFFFFFF AND PUSH20 0xFFFFFFFFFFFFFFFFFFFFFFFFFFFFFFFFFFFFFFFF AND CALLER PUSH20 0xFFFFFFFFFFFFFFFFFFFFFFFFFFFFFFFFFFFFFFFF AND EQ PUSH2 0xA10 JUMPI PUSH1 0x40 MLOAD PUSH32 0x8C379A000000000000000000000000000000000000000000000000000000000 DUP2 MSTORE PUSH1 0x4 ADD PUSH2 0xA07 SWAP1 PUSH2 0x264C JUMP JUMPDEST PUSH1 0x40 MLOAD DUP1 SWAP2 SUB SWAP1 REVERT JUMPDEST DUP1 PUSH1 0x3 DUP2 SWAP1 SSTORE POP POP JUMP JUMPDEST PUSH1 0x0 PUSH1 0x1 PUSH1 0x0 SWAP1 SLOAD SWAP1 PUSH2 0x100 EXP SWAP1 DIV PUSH20 0xFFFFFFFFFFFFFFFFFFFFFFFFFFFFFFFFFFFFFFFF AND PUSH20 0xFFFFFFFFFFFFFFFFFFFFFFFFFFFFFFFFFFFFFFFF AND PUSH4 0x70A08231 ADDRESS PUSH1 0x40 MLOAD DUP3 PUSH4 0xFFFFFFFF AND PUSH1 0xE0 SHL DUP2 MSTORE PUSH1 0x4 ADD PUSH2 0xA77 SWAP2 SWAP1 PUSH2 0x23B9 JUMP JUMPDEST PUSH1 0x20 PUSH1 0x40 MLOAD DUP1 DUP4 SUB DUP2 DUP7 DUP1 EXTCODESIZE ISZERO DUP1 ISZERO PUSH2 0xA8F JUMPI PUSH1 0x0 DUP1 REVERT JUMPDEST POP GAS STATICCALL ISZERO DUP1 ISZERO PUSH2 0xAA3 JUMPI RETURNDATASIZE PUSH1 0x0 DUP1 RETURNDATACOPY RETURNDATASIZE PUSH1 0x0 REVERT JUMPDEST POP POP POP POP PUSH1 0x40 MLOAD RETURNDATASIZE PUSH1 0x1F NOT PUSH1 0x1F DUP3 ADD AND DUP3 ADD DUP1 PUSH1 0x40 MSTORE POP DUP2 ADD SWAP1 PUSH2 0xAC7 SWAP2 SWAP1 PUSH2 0x2164 JUMP JUMPDEST SWAP1 POP SWAP1 JUMP JUMPDEST PUSH1 0x9 SLOAD DUP2 JUMP JUMPDEST PUSH1 0x0 PUSH1 0x1 SWAP1 SLOAD SWAP1 PUSH2 0x100 EXP SWAP1 DIV PUSH20 0xFFFFFFFFFFFFFFFFFFFFFFFFFFFFFFFFFFFFFFFF AND PUSH20 0xFFFFFFFFFFFFFFFFFFFFFFFFFFFFFFFFFFFFFFFF AND CALLER PUSH20 0xFFFFFFFFFFFFFFFFFFFFFFFFFFFFFFFFFFFFFFFF AND EQ PUSH2 0xB62 JUMPI PUSH1 0x40 MLOAD PUSH32 0x8C379A000000000000000000000000000000000000000000000000000000000 DUP2 MSTORE PUSH1 0x4 ADD PUSH2 0xB59 SWAP1 PUSH2 0x264C JUMP JUMPDEST PUSH1 0x40 MLOAD DUP1 SWAP2 SUB SWAP1 REVERT JUMPDEST PUSH1 0x0 PUSH20 0xFFFFFFFFFFFFFFFFFFFFFFFFFFFFFFFFFFFFFFFF AND DUP2 PUSH20 0xFFFFFFFFFFFFFFFFFFFFFFFFFFFFFFFFFFFFFFFF AND EQ ISZERO PUSH2 0xBD2 JUMPI PUSH1 0x40 MLOAD PUSH32 0x8C379A000000000000000000000000000000000000000000000000000000000 DUP2 MSTORE PUSH1 0x4 ADD PUSH2 0xBC9 SWAP1 PUSH2 0x24EC JUMP JUMPDEST PUSH1 0x40 MLOAD DUP1 SWAP2 SUB SWAP1 REVERT JUMPDEST DUP1 PUSH1 0x1 PUSH1 0x0 PUSH2 0x100 EXP DUP2 SLOAD DUP2 PUSH20 0xFFFFFFFFFFFFFFFFFFFFFFFFFFFFFFFFFFFFFFFF MUL NOT AND SWAP1 DUP4 PUSH20 0xFFFFFFFFFFFFFFFFFFFFFFFFFFFFFFFFFFFFFFFF AND MUL OR SWAP1 SSTORE POP POP JUMP JUMPDEST PUSH1 0x0 PUSH1 0x1 SWAP1 SLOAD SWAP1 PUSH2 0x100 EXP SWAP1 DIV PUSH20 0xFFFFFFFFFFFFFFFFFFFFFFFFFFFFFFFFFFFFFFFF AND PUSH20 0xFFFFFFFFFFFFFFFFFFFFFFFFFFFFFFFFFFFFFFFF AND CALLER PUSH20 0xFFFFFFFFFFFFFFFFFFFFFFFFFFFFFFFFFFFFFFFF AND EQ PUSH2 0xCA6 JUMPI PUSH1 0x40 MLOAD PUSH32 0x8C379A000000000000000000000000000000000000000000000000000000000 DUP2 MSTORE PUSH1 0x4 ADD PUSH2 0xC9D SWAP1 PUSH2 0x264C JUMP JUMPDEST PUSH1 0x40 MLOAD DUP1 SWAP2 SUB SWAP1 REVERT JUMPDEST PUSH1 0x0 PUSH1 0x6 PUSH1 0x0 PUSH2 0x100 EXP DUP2 SLOAD DUP2 PUSH1 0xFF MUL NOT AND SWAP1 DUP4 ISZERO ISZERO MUL OR SWAP1 SSTORE POP JUMP JUMPDEST PUSH1 0x5 SLOAD DUP2 JUMP JUMPDEST PUSH1 0x0 DUP1 PUSH1 0x0 DUP1 PUSH1 0x0 DUP1 PUSH1 0x0 DUP1 PUSH1 0x2 PUSH1 0x0 SWAP1 SLOAD SWAP1 PUSH2 0x100 EXP SWAP1 DIV PUSH20 0xFFFFFFFFFFFFFFFFFFFFFFFFFFFFFFFFFFFFFFFF AND PUSH20 0xFFFFFFFFFFFFFFFFFFFFFFFFFFFFFFFFFFFFFFFF AND PUSH4 0x70A08231 DUP11 PUSH1 0x40 MLOAD DUP3 PUSH4 0xFFFFFFFF AND PUSH1 0xE0 SHL DUP2 MSTORE PUSH1 0x4 ADD PUSH2 0xD30 SWAP2 SWAP1 PUSH2 0x23B9 JUMP JUMPDEST PUSH1 0x20 PUSH1 0x40 MLOAD DUP1 DUP4 SUB DUP2 DUP7 DUP1 EXTCODESIZE ISZERO DUP1 ISZERO PUSH2 0xD48 JUMPI PUSH1 0x0 DUP1 REVERT JUMPDEST POP GAS STATICCALL ISZERO DUP1 ISZERO PUSH2 0xD5C JUMPI RETURNDATASIZE PUSH1 0x0 DUP1 RETURNDATACOPY RETURNDATASIZE PUSH1 0x0 REVERT JUMPDEST POP POP POP POP PUSH1 0x40 MLOAD RETURNDATASIZE PUSH1 0x1F NOT PUSH1 0x1F DUP3 ADD AND DUP3 ADD DUP1 PUSH1 0x40 MSTORE POP DUP2 ADD SWAP1 PUSH2 0xD80 SWAP2 SWAP1 PUSH2 0x2164 JUMP JUMPDEST SWAP8 POP PUSH2 0xD8B DUP10 PUSH2 0x120B JUMP JUMPDEST SWAP7 POP PUSH2 0xDBC PUSH8 0xDE0B6B3A7640000 PUSH2 0xDAE PUSH1 0x3 SLOAD DUP11 PUSH2 0x1C18 SWAP1 SWAP2 SWAP1 PUSH4 0xFFFFFFFF AND JUMP JUMPDEST PUSH2 0x1C93 SWAP1 SWAP2 SWAP1 PUSH4 0xFFFFFFFF AND JUMP JUMPDEST SWAP6 POP PUSH2 0xDC6 PUSH2 0x106D JUMP JUMPDEST SWAP5 POP PUSH2 0xDD0 PUSH2 0xA1A JUMP JUMPDEST SWAP4 POP PUSH1 0x3 SLOAD SWAP3 POP PUSH1 0x4 SLOAD SWAP2 POP PUSH1 0x2 PUSH1 0x0 SWAP1 SLOAD SWAP1 PUSH2 0x100 EXP SWAP1 DIV PUSH20 0xFFFFFFFFFFFFFFFFFFFFFFFFFFFFFFFFFFFFFFFF AND PUSH20 0xFFFFFFFFFFFFFFFFFFFFFFFFFFFFFFFFFFFFFFFF AND PUSH4 0xDD62ED3E DUP11 ADDRESS PUSH1 0x40 MLOAD DUP4 PUSH4 0xFFFFFFFF AND PUSH1 0xE0 SHL DUP2 MSTORE PUSH1 0x4 ADD PUSH2 0xE39 SWAP3 SWAP2 SWAP1 PUSH2 0x23D4 JUMP JUMPDEST PUSH1 0x20 PUSH1 0x40 MLOAD DUP1 DUP4 SUB DUP2 DUP7 DUP1 EXTCODESIZE ISZERO DUP1 ISZERO PUSH2 0xE51 JUMPI PUSH1 0x0 DUP1 REVERT JUMPDEST POP GAS STATICCALL ISZERO DUP1 ISZERO PUSH2 0xE65 JUMPI RETURNDATASIZE PUSH1 0x0 DUP1 RETURNDATACOPY RETURNDATASIZE PUSH1 0x0 REVERT JUMPDEST POP POP POP POP PUSH1 0x40 MLOAD RETURNDATASIZE PUSH1 0x1F NOT PUSH1 0x1F DUP3 ADD AND DUP3 ADD DUP1 PUSH1 0x40 MSTORE POP DUP2 ADD SWAP1 PUSH2 0xE89 SWAP2 SWAP1 PUSH2 0x2164 JUMP JUMPDEST SWAP1 POP SWAP2 SWAP4 SWAP6 SWAP8 POP SWAP2 SWAP4 SWAP6 SWAP8 JUMP JUMPDEST PUSH1 0x8 SLOAD DUP2 JUMP JUMPDEST PUSH1 0x0 PUSH1 0x1 SWAP1 SLOAD SWAP1 PUSH2 0x100 EXP SWAP1 DIV PUSH20 0xFFFFFFFFFFFFFFFFFFFFFFFFFFFFFFFFFFFFFFFF AND PUSH20 0xFFFFFFFFFFFFFFFFFFFFFFFFFFFFFFFFFFFFFFFF AND CALLER PUSH20 0xFFFFFFFFFFFFFFFFFFFFFFFFFFFFFFFFFFFFFFFF AND EQ PUSH2 0xF2C JUMPI PUSH1 0x40 MLOAD PUSH32 0x8C379A000000000000000000000000000000000000000000000000000000000 DUP2 MSTORE PUSH1 0x4 ADD PUSH2 0xF23 SWAP1 PUSH2 0x264C JUMP JUMPDEST PUSH1 0x40 MLOAD DUP1 SWAP2 SUB SWAP1 REVERT JUMPDEST PUSH1 0x0 DUP2 PUSH20 0xFFFFFFFFFFFFFFFFFFFFFFFFFFFFFFFFFFFFFFFF AND PUSH4 0x70A08231 ADDRESS PUSH1 0x40 MLOAD DUP3 PUSH4 0xFFFFFFFF AND PUSH1 0xE0 SHL DUP2 MSTORE PUSH1 0x4 ADD PUSH2 0xF67 SWAP2 SWAP1 PUSH2 0x23B9 JUMP JUMPDEST PUSH1 0x20 PUSH1 0x40 MLOAD DUP1 DUP4 SUB DUP2 DUP7 DUP1 EXTCODESIZE ISZERO DUP1 ISZERO PUSH2 0xF7F JUMPI PUSH1 0x0 DUP1 REVERT JUMPDEST POP GAS STATICCALL ISZERO DUP1 ISZERO PUSH2 0xF93 JUMPI RETURNDATASIZE PUSH1 0x0 DUP1 RETURNDATACOPY RETURNDATASIZE PUSH1 0x0 REVERT JUMPDEST POP POP POP POP PUSH1 0x40 MLOAD RETURNDATASIZE PUSH1 0x1F NOT PUSH1 0x1F DUP3 ADD AND DUP3 ADD DUP1 PUSH1 0x40 MSTORE POP DUP2 ADD SWAP1 PUSH2 0xFB7 SWAP2 SWAP1 PUSH2 0x2164 JUMP JUMPDEST SWAP1 POP DUP2 PUSH20 0xFFFFFFFFFFFFFFFFFFFFFFFFFFFFFFFFFFFFFFFF AND PUSH4 0xA9059CBB PUSH1 0x0 PUSH1 0x1 SWAP1 SLOAD SWAP1 PUSH2 0x100 EXP SWAP1 DIV PUSH20 0xFFFFFFFFFFFFFFFFFFFFFFFFFFFFFFFFFFFFFFFF AND DUP4 PUSH1 0x40 MLOAD DUP4 PUSH4 0xFFFFFFFF AND PUSH1 0xE0 SHL DUP2 MSTORE PUSH1 0x4 ADD PUSH2 0x1016 SWAP3 SWAP2 SWAP1 PUSH2 0x2434 JUMP JUMPDEST PUSH1 0x20 PUSH1 0x40 MLOAD DUP1 DUP4 SUB DUP2 PUSH1 0x0 DUP8 DUP1 EXTCODESIZE ISZERO DUP1 ISZERO PUSH2 0x1030 JUMPI PUSH1 0x0 DUP1 REVERT JUMPDEST POP GAS CALL ISZERO DUP1 ISZERO PUSH2 0x1044 JUMPI RETURNDATASIZE PUSH1 0x0 DUP1 RETURNDATACOPY RETURNDATASIZE PUSH1 0x0 REVERT JUMPDEST POP POP POP POP PUSH1 0x40 MLOAD RETURNDATASIZE PUSH1 0x1F NOT PUSH1 0x1F DUP3 ADD AND DUP3 ADD DUP1 PUSH1 0x40 MSTORE POP DUP2 ADD SWAP1 PUSH2 0x1068 SWAP2 SWAP1 PUSH2 0x20DD JUMP JUMPDEST POP POP POP JUMP JUMPDEST PUSH1 0x0 PUSH1 0x2 PUSH1 0x0 SWAP1 SLOAD SWAP1 PUSH2 0x100 EXP SWAP1 DIV PUSH20 0xFFFFFFFFFFFFFFFFFFFFFFFFFFFFFFFFFFFFFFFF AND PUSH20 0xFFFFFFFFFFFFFFFFFFFFFFFFFFFFFFFFFFFFFFFF AND PUSH4 0x70A08231 ADDRESS PUSH1 0x40 MLOAD DUP3 PUSH4 0xFFFFFFFF AND PUSH1 0xE0 SHL DUP2 MSTORE PUSH1 0x4 ADD PUSH2 0x10CA SWAP2 SWAP1 PUSH2 0x23B9 JUMP JUMPDEST PUSH1 0x20 PUSH1 0x40 MLOAD DUP1 DUP4 SUB DUP2 DUP7 DUP1 EXTCODESIZE ISZERO DUP1 ISZERO PUSH2 0x10E2 JUMPI PUSH1 0x0 DUP1 REVERT JUMPDEST POP GAS STATICCALL ISZERO DUP1 ISZERO PUSH2 0x10F6 JUMPI RETURNDATASIZE PUSH1 0x0 DUP1 RETURNDATACOPY RETURNDATASIZE PUSH1 0x0 REVERT JUMPDEST POP POP POP POP PUSH1 0x40 MLOAD RETURNDATASIZE PUSH1 0x1F NOT PUSH1 0x1F DUP3 ADD AND DUP3 ADD DUP1 PUSH1 0x40 MSTORE POP DUP2 ADD SWAP1 PUSH2 0x111A SWAP2 SWAP1 PUSH2 0x2164 JUMP JUMPDEST SWAP1 POP SWAP1 JUMP JUMPDEST PUSH1 0x7 SLOAD DUP2 JUMP JUMPDEST PUSH1 0x0 PUSH1 0x1 SWAP1 SLOAD SWAP1 PUSH2 0x100 EXP SWAP1 DIV PUSH20 0xFFFFFFFFFFFFFFFFFFFFFFFFFFFFFFFFFFFFFFFF AND PUSH20 0xFFFFFFFFFFFFFFFFFFFFFFFFFFFFFFFFFFFFFFFF AND CALLER PUSH20 0xFFFFFFFFFFFFFFFFFFFFFFFFFFFFFFFFFFFFFFFF AND EQ PUSH2 0x11B5 JUMPI PUSH1 0x40 MLOAD PUSH32 0x8C379A000000000000000000000000000000000000000000000000000000000 DUP2 MSTORE PUSH1 0x4 ADD PUSH2 0x11AC SWAP1 PUSH2 0x264C JUMP JUMPDEST PUSH1 0x40 MLOAD DUP1 SWAP2 SUB SWAP1 REVERT JUMPDEST DUP1 PUSH1 0x8 DUP2 SWAP1 SSTORE POP POP JUMP JUMPDEST PUSH1 0x2 PUSH1 0x0 SWAP1 SLOAD SWAP1 PUSH2 0x100 EXP SWAP1 DIV PUSH20 0xFFFFFFFFFFFFFFFFFFFFFFFFFFFFFFFFFFFFFFFF AND DUP2 JUMP JUMPDEST PUSH1 0x0 PUSH1 0x1 SWAP1 SLOAD SWAP1 PUSH2 0x100 EXP SWAP1 DIV PUSH20 0xFFFFFFFFFFFFFFFFFFFFFFFFFFFFFFFFFFFFFFFF AND DUP2 JUMP JUMPDEST PUSH1 0x0 DUP1 ISZERO ISZERO PUSH1 0xB PUSH1 0x0 DUP5 PUSH20 0xFFFFFFFFFFFFFFFFFFFFFFFFFFFFFFFFFFFFFFFF AND PUSH20 0xFFFFFFFFFFFFFFFFFFFFFFFFFFFFFFFFFFFFFFFF AND DUP2 MSTORE PUSH1 0x20 ADD SWAP1 DUP2 MSTORE PUSH1 0x20 ADD PUSH1 0x0 KECCAK256 PUSH1 0x0 SWAP1 SLOAD SWAP1 PUSH2 0x100 EXP SWAP1 DIV PUSH1 0xFF AND ISZERO ISZERO EQ ISZERO PUSH2 0x126E JUMPI PUSH1 0x0 SWAP1 POP PUSH2 0x130F JUMP JUMPDEST PUSH1 0x0 PUSH2 0x1278 PUSH2 0xA1A JUMP JUMPDEST SWAP1 POP PUSH1 0x0 PUSH1 0xA PUSH1 0x0 DUP6 PUSH20 0xFFFFFFFFFFFFFFFFFFFFFFFFFFFFFFFFFFFFFFFF AND PUSH20 0xFFFFFFFFFFFFFFFFFFFFFFFFFFFFFFFFFFFFFFFF AND DUP2 MSTORE PUSH1 0x20 ADD SWAP1 DUP2 MSTORE PUSH1 0x20 ADD PUSH1 0x0 KECCAK256 SLOAD GT DUP1 PUSH2 0x12C9 JUMPI POP PUSH1 0x0 DUP2 GT ISZERO JUMPDEST DUP1 PUSH2 0x12E7 JUMPI POP PUSH1 0x0 ISZERO ISZERO PUSH1 0x6 PUSH1 0x0 SWAP1 SLOAD SWAP1 PUSH2 0x100 EXP SWAP1 DIV PUSH1 0xFF AND ISZERO ISZERO EQ JUMPDEST ISZERO PUSH2 0x12F6 JUMPI PUSH1 0x0 SWAP2 POP POP PUSH2 0x130F JUMP JUMPDEST PUSH1 0x0 PUSH1 0x7 SLOAD SWAP1 POP DUP2 DUP2 GT ISZERO PUSH2 0x1309 JUMPI DUP2 SWAP1 POP JUMPDEST DUP1 SWAP3 POP POP POP JUMPDEST SWAP2 SWAP1 POP JUMP JUMPDEST PUSH1 0x6 PUSH1 0x0 SWAP1 SLOAD SWAP1 PUSH2 0x100 EXP SWAP1 DIV PUSH1 0xFF AND DUP2 JUMP JUMPDEST PUSH1 0x0 PUSH1 0x1 SWAP1 SLOAD SWAP1 PUSH2 0x100 EXP SWAP1 DIV PUSH20 0xFFFFFFFFFFFFFFFFFFFFFFFFFFFFFFFFFFFFFFFF AND PUSH20 0xFFFFFFFFFFFFFFFFFFFFFFFFFFFFFFFFFFFFFFFF AND CALLER PUSH20 0xFFFFFFFFFFFFFFFFFFFFFFFFFFFFFFFFFFFFFFFF AND EQ PUSH2 0x13B7 JUMPI PUSH1 0x40 MLOAD PUSH32 0x8C379A000000000000000000000000000000000000000000000000000000000 DUP2 MSTORE PUSH1 0x4 ADD PUSH2 0x13AE SWAP1 PUSH2 0x264C JUMP JUMPDEST PUSH1 0x40 MLOAD DUP1 SWAP2 SUB SWAP1 REVERT JUMPDEST DUP1 PUSH1 0x7 DUP2 SWAP1 SSTORE POP POP JUMP JUMPDEST PUSH1 0x0 PUSH1 0x1 SWAP1 SLOAD SWAP1 PUSH2 0x100 EXP SWAP1 DIV PUSH20 0xFFFFFFFFFFFFFFFFFFFFFFFFFFFFFFFFFFFFFFFF AND PUSH20 0xFFFFFFFFFFFFFFFFFFFFFFFFFFFFFFFFFFFFFFFF AND CALLER PUSH20 0xFFFFFFFFFFFFFFFFFFFFFFFFFFFFFFFFFFFFFFFF AND EQ PUSH2 0x1451 JUMPI PUSH1 0x40 MLOAD PUSH32 0x8C379A000000000000000000000000000000000000000000000000000000000 DUP2 MSTORE PUSH1 0x4 ADD PUSH2 0x1448 SWAP1 PUSH2 0x264C JUMP JUMPDEST PUSH1 0x40 MLOAD DUP1 SWAP2 SUB SWAP1 REVERT JUMPDEST PUSH1 0x1 PUSH1 0x6 PUSH1 0x0 PUSH2 0x100 EXP DUP2 SLOAD DUP2 PUSH1 0xFF MUL NOT AND SWAP1 DUP4 ISZERO ISZERO MUL OR SWAP1 SSTORE POP JUMP JUMPDEST PUSH1 0x1 PUSH1 0x0 SWAP1 SLOAD SWAP1 PUSH2 0x100 EXP SWAP1 DIV PUSH20 0xFFFFFFFFFFFFFFFFFFFFFFFFFFFFFFFFFFFFFFFF AND DUP2 JUMP JUMPDEST PUSH1 0xA PUSH1 0x20 MSTORE DUP1 PUSH1 0x0 MSTORE PUSH1 0x40 PUSH1 0x0 KECCAK256 PUSH1 0x0 SWAP2 POP SWAP1 POP SLOAD DUP2 JUMP JUMPDEST PUSH1 0x0 PUSH1 0x1 SWAP1 SLOAD SWAP1 PUSH2 0x100 EXP SWAP1 DIV PUSH20 0xFFFFFFFFFFFFFFFFFFFFFFFFFFFFFFFFFFFFFFFF AND PUSH20 0xFFFFFFFFFFFFFFFFFFFFFFFFFFFFFFFFFFFFFFFF AND CALLER PUSH20 0xFFFFFFFFFFFFFFFFFFFFFFFFFFFFFFFFFFFFFFFF AND EQ PUSH2 0x153C JUMPI PUSH1 0x40 MLOAD PUSH32 0x8C379A000000000000000000000000000000000000000000000000000000000 DUP2 MSTORE PUSH1 0x4 ADD PUSH2 0x1533 SWAP1 PUSH2 0x264C JUMP JUMPDEST PUSH1 0x40 MLOAD DUP1 SWAP2 SUB SWAP1 REVERT JUMPDEST PUSH2 0x1551 PUSH1 0x9 SLOAD TIMESTAMP PUSH2 0x1CDD SWAP1 SWAP2 SWAP1 PUSH4 0xFFFFFFFF AND JUMP JUMPDEST PUSH1 0x5 DUP2 SWAP1 SSTORE POP PUSH1 0x1 PUSH1 0x6 PUSH1 0x0 PUSH2 0x100 EXP DUP2 SLOAD DUP2 PUSH1 0xFF MUL NOT AND SWAP1 DUP4 ISZERO ISZERO MUL OR SWAP1 SSTORE POP JUMP JUMPDEST PUSH1 0x0 PUSH1 0x1 SWAP1 SLOAD SWAP1 PUSH2 0x100 EXP SWAP1 DIV PUSH20 0xFFFFFFFFFFFFFFFFFFFFFFFFFFFFFFFFFFFFFFFF AND PUSH20 0xFFFFFFFFFFFFFFFFFFFFFFFFFFFFFFFFFFFFFFFF AND CALLER PUSH20 0xFFFFFFFFFFFFFFFFFFFFFFFFFFFFFFFFFFFFFFFF AND EQ PUSH2 0x1604 JUMPI PUSH1 0x40 MLOAD PUSH32 0x8C379A000000000000000000000000000000000000000000000000000000000 DUP2 MSTORE PUSH1 0x4 ADD PUSH2 0x15FB SWAP1 PUSH2 0x264C JUMP JUMPDEST PUSH1 0x40 MLOAD DUP1 SWAP2 SUB SWAP1 REVERT JUMPDEST DUP1 PUSH1 0x5 DUP2 SWAP1 SSTORE POP POP JUMP JUMPDEST PUSH1 0x1 ISZERO ISZERO PUSH1 0xB PUSH1 0x0 CALLER PUSH20 0xFFFFFFFFFFFFFFFFFFFFFFFFFFFFFFFFFFFFFFFF AND PUSH20 0xFFFFFFFFFFFFFFFFFFFFFFFFFFFFFFFFFFFFFFFF AND DUP2 MSTORE PUSH1 0x20 ADD SWAP1 DUP2 MSTORE PUSH1 0x20 ADD PUSH1 0x0 KECCAK256 PUSH1 0x0 SWAP1 SLOAD SWAP1 PUSH2 0x100 EXP SWAP1 DIV PUSH1 0xFF AND ISZERO ISZERO EQ PUSH2 0x16A1 JUMPI PUSH1 0x40 MLOAD PUSH32 0x8C379A000000000000000000000000000000000000000000000000000000000 DUP2 MSTORE PUSH1 0x4 ADD PUSH2 0x1698 SWAP1 PUSH2 0x250C JUMP JUMPDEST PUSH1 0x40 MLOAD DUP1 SWAP2 SUB SWAP1 REVERT JUMPDEST PUSH1 0x1 ISZERO ISZERO PUSH1 0x6 PUSH1 0x0 SWAP1 SLOAD SWAP1 PUSH2 0x100 EXP SWAP1 DIV PUSH1 0xFF AND ISZERO ISZERO EQ PUSH2 0x16F7 JUMPI PUSH1 0x40 MLOAD PUSH32 0x8C379A000000000000000000000000000000000000000000000000000000000 DUP2 MSTORE PUSH1 0x4 ADD PUSH2 0x16EE SWAP1 PUSH2 0x25CC JUMP JUMPDEST PUSH1 0x40 MLOAD DUP1 SWAP2 SUB SWAP1 REVERT JUMPDEST PUSH1 0x0 PUSH1 0x5 SLOAD GT DUP1 ISZERO PUSH2 0x170B JUMPI POP TIMESTAMP PUSH1 0x5 SLOAD GT ISZERO JUMPDEST PUSH2 0x174A JUMPI PUSH1 0x40 MLOAD PUSH32 0x8C379A000000000000000000000000000000000000000000000000000000000 DUP2 MSTORE PUSH1 0x4 ADD PUSH2 0x1741 SWAP1 PUSH2 0x25EC JUMP JUMPDEST PUSH1 0x40 MLOAD DUP1 SWAP2 SUB SWAP1 REVERT JUMPDEST PUSH1 0x0 DUP2 GT PUSH2 0x178D JUMPI PUSH1 0x40 MLOAD PUSH32 0x8C379A000000000000000000000000000000000000000000000000000000000 DUP2 MSTORE PUSH1 0x4 ADD PUSH2 0x1784 SWAP1 PUSH2 0x262C JUMP JUMPDEST PUSH1 0x40 MLOAD DUP1 SWAP2 SUB SWAP1 REVERT JUMPDEST PUSH1 0x0 PUSH2 0x1798 CALLER PUSH2 0x120B JUMP JUMPDEST SWAP1 POP PUSH1 0x0 DUP2 GT PUSH2 0x17DD JUMPI PUSH1 0x40 MLOAD PUSH32 0x8C379A000000000000000000000000000000000000000000000000000000000 DUP2 MSTORE PUSH1 0x4 ADD PUSH2 0x17D4 SWAP1 PUSH2 0x264C JUMP JUMPDEST PUSH1 0x40 MLOAD DUP1 SWAP2 SUB SWAP1 REVERT JUMPDEST PUSH1 0x0 PUSH2 0x180E PUSH1 0x3 SLOAD PUSH2 0x1800 PUSH8 0xDE0B6B3A7640000 DUP7 PUSH2 0x1C18 SWAP1 SWAP2 SWAP1 PUSH4 0xFFFFFFFF AND JUMP JUMPDEST PUSH2 0x1C93 SWAP1 SWAP2 SWAP1 PUSH4 0xFFFFFFFF AND JUMP JUMPDEST SWAP1 POP DUP2 DUP2 GT ISZERO PUSH2 0x184D JUMPI DUP2 SWAP1 POP PUSH2 0x184A PUSH8 0xDE0B6B3A7640000 PUSH2 0x183C PUSH1 0x3 SLOAD DUP5 PUSH2 0x1C18 SWAP1 SWAP2 SWAP1 PUSH4 0xFFFFFFFF AND JUMP JUMPDEST PUSH2 0x1C93 SWAP1 SWAP2 SWAP1 PUSH4 0xFFFFFFFF AND JUMP JUMPDEST SWAP3 POP JUMPDEST PUSH1 0x0 DUP2 GT PUSH2 0x1890 JUMPI PUSH1 0x40 MLOAD PUSH32 0x8C379A000000000000000000000000000000000000000000000000000000000 DUP2 MSTORE PUSH1 0x4 ADD PUSH2 0x1887 SWAP1 PUSH2 0x252C JUMP JUMPDEST PUSH1 0x40 MLOAD DUP1 SWAP2 SUB SWAP1 REVERT JUMPDEST PUSH1 0x8 SLOAD DUP2 LT ISZERO PUSH2 0x18D5 JUMPI PUSH1 0x40 MLOAD PUSH32 0x8C379A000000000000000000000000000000000000000000000000000000000 DUP2 MSTORE PUSH1 0x4 ADD PUSH2 0x18CC SWAP1 PUSH2 0x258C JUMP JUMPDEST PUSH1 0x40 MLOAD DUP1 SWAP2 SUB SWAP1 REVERT JUMPDEST PUSH1 0x0 DUP4 GT PUSH2 0x1918 JUMPI PUSH1 0x40 MLOAD PUSH32 0x8C379A000000000000000000000000000000000000000000000000000000000 DUP2 MSTORE PUSH1 0x4 ADD PUSH2 0x190F SWAP1 PUSH2 0x260C JUMP JUMPDEST PUSH1 0x40 MLOAD DUP1 SWAP2 SUB SWAP1 REVERT JUMPDEST PUSH1 0x1 ISZERO ISZERO PUSH2 0x1925 DUP5 PUSH2 0x1D3B JUMP JUMPDEST ISZERO ISZERO EQ PUSH2 0x1967 JUMPI PUSH1 0x40 MLOAD PUSH32 0x8C379A000000000000000000000000000000000000000000000000000000000 DUP2 MSTORE PUSH1 0x4 ADD PUSH2 0x195E SWAP1 PUSH2 0x256C JUMP JUMPDEST PUSH1 0x40 MLOAD DUP1 SWAP2 SUB SWAP1 REVERT JUMPDEST PUSH1 0x1 PUSH1 0x0 SWAP1 SLOAD SWAP1 PUSH2 0x100 EXP SWAP1 DIV PUSH20 0xFFFFFFFFFFFFFFFFFFFFFFFFFFFFFFFFFFFFFFFF AND PUSH20 0xFFFFFFFFFFFFFFFFFFFFFFFFFFFFFFFFFFFFFFFF AND PUSH4 0xA9059CBB CALLER DUP4 PUSH1 0x40 MLOAD DUP4 PUSH4 0xFFFFFFFF AND PUSH1 0xE0 SHL DUP2 MSTORE PUSH1 0x4 ADD PUSH2 0x19C4 SWAP3 SWAP2 SWAP1 PUSH2 0x2434 JUMP JUMPDEST PUSH1 0x20 PUSH1 0x40 MLOAD DUP1 DUP4 SUB DUP2 PUSH1 0x0 DUP8 DUP1 EXTCODESIZE ISZERO DUP1 ISZERO PUSH2 0x19DE JUMPI PUSH1 0x0 DUP1 REVERT JUMPDEST POP GAS CALL ISZERO DUP1 ISZERO PUSH2 0x19F2 JUMPI RETURNDATASIZE PUSH1 0x0 DUP1 RETURNDATACOPY RETURNDATASIZE PUSH1 0x0 REVERT JUMPDEST POP POP POP POP PUSH1 0x40 MLOAD RETURNDATASIZE PUSH1 0x1F NOT PUSH1 0x1F DUP3 ADD AND DUP3 ADD DUP1 PUSH1 0x40 MSTORE POP DUP2 ADD SWAP1 PUSH2 0x1A16 SWAP2 SWAP1 PUSH2 0x20DD JUMP JUMPDEST POP PUSH2 0x1A2C DUP4 PUSH1 0x4 SLOAD PUSH2 0x1CDD SWAP1 SWAP2 SWAP1 PUSH4 0xFFFFFFFF AND JUMP JUMPDEST PUSH1 0x4 DUP2 SWAP1 SSTORE POP PUSH2 0x1A84 DUP2 PUSH1 0xA PUSH1 0x0 CALLER PUSH20 0xFFFFFFFFFFFFFFFFFFFFFFFFFFFFFFFFFFFFFFFF AND PUSH20 0xFFFFFFFFFFFFFFFFFFFFFFFFFFFFFFFFFFFFFFFF AND DUP2 MSTORE PUSH1 0x20 ADD SWAP1 DUP2 MSTORE PUSH1 0x20 ADD PUSH1 0x0 KECCAK256 SLOAD PUSH2 0x1CDD SWAP1 SWAP2 SWAP1 PUSH4 0xFFFFFFFF AND JUMP JUMPDEST PUSH1 0xA PUSH1 0x0 CALLER PUSH20 0xFFFFFFFFFFFFFFFFFFFFFFFFFFFFFFFFFFFFFFFF AND PUSH20 0xFFFFFFFFFFFFFFFFFFFFFFFFFFFFFFFFFFFFFFFF AND DUP2 MSTORE PUSH1 0x20 ADD SWAP1 DUP2 MSTORE PUSH1 0x20 ADD PUSH1 0x0 KECCAK256 DUP2 SWAP1 SSTORE POP PUSH32 0x7B027A29D1A4D4D2E0A11E04EBD4741452BFBB746ED433855A8F63AFC5B20CDE CALLER DUP5 DUP4 PUSH1 0x40 MLOAD PUSH2 0x1AFA SWAP4 SWAP3 SWAP2 SWAP1 PUSH2 0x245D JUMP JUMPDEST PUSH1 0x40 MLOAD DUP1 SWAP2 SUB SWAP1 LOG1 POP POP POP JUMP JUMPDEST PUSH1 0x4 SLOAD DUP2 JUMP JUMPDEST PUSH1 0x0 PUSH1 0x1 SWAP1 SLOAD SWAP1 PUSH2 0x100 EXP SWAP1 DIV PUSH20 0xFFFFFFFFFFFFFFFFFFFFFFFFFFFFFFFFFFFFFFFF AND PUSH20 0xFFFFFFFFFFFFFFFFFFFFFFFFFFFFFFFFFFFFFFFF AND CALLER PUSH20 0xFFFFFFFFFFFFFFFFFFFFFFFFFFFFFFFFFFFFFFFF AND EQ PUSH2 0x1B9D JUMPI PUSH1 0x40 MLOAD PUSH32 0x8C379A000000000000000000000000000000000000000000000000000000000 DUP2 MSTORE PUSH1 0x4 ADD PUSH2 0x1B94 SWAP1 PUSH2 0x264C JUMP JUMPDEST PUSH1 0x40 MLOAD DUP1 SWAP2 SUB SWAP1 REVERT JUMPDEST DUP1 PUSH1 0x0 PUSH1 0x1 PUSH2 0x100 EXP DUP2 SLOAD DUP2 PUSH20 0xFFFFFFFFFFFFFFFFFFFFFFFFFFFFFFFFFFFFFFFF MUL NOT AND SWAP1 DUP4 PUSH20 0xFFFFFFFFFFFFFFFFFFFFFFFFFFFFFFFFFFFFFFFF AND MUL OR SWAP1 SSTORE POP POP JUMP JUMPDEST PUSH1 0x3 SLOAD DUP2 JUMP JUMPDEST PUSH1 0xB PUSH1 0x20 MSTORE DUP1 PUSH1 0x0 MSTORE PUSH1 0x40 PUSH1 0x0 KECCAK256 PUSH1 0x0 SWAP2 POP SLOAD SWAP1 PUSH2 0x100 EXP SWAP1 DIV PUSH1 0xFF AND DUP2 JUMP JUMPDEST PUSH1 0x0 DUP1 SLOAD SWAP1 PUSH2 0x100 EXP SWAP1 DIV PUSH1 0xFF AND DUP2 JUMP JUMPDEST PUSH1 0x0 DUP1 DUP4 EQ ISZERO PUSH2 0x1C2B JUMPI PUSH1 0x0 SWAP1 POP PUSH2 0x1C8D JUMP JUMPDEST PUSH1 0x0 DUP3 DUP5 PUSH2 0x1C39 SWAP2 SWAP1 PUSH2 0x27C3 JUMP JUMPDEST SWAP1 POP DUP3 DUP5 DUP3 PUSH2 0x1C48 SWAP2 SWAP1 PUSH2 0x2792 JUMP JUMPDEST EQ PUSH2 0x1C88 JUMPI PUSH1 0x40 MLOAD PUSH32 0x8C379A000000000000000000000000000000000000000000000000000000000 DUP2 MSTORE PUSH1 0x4 ADD PUSH2 0x1C7F SWAP1 PUSH2 0x25AC JUMP JUMPDEST PUSH1 0x40 MLOAD DUP1 SWAP2 SUB SWAP1 REVERT JUMPDEST DUP1 SWAP2 POP POP JUMPDEST SWAP3 SWAP2 POP POP JUMP JUMPDEST PUSH1 0x0 PUSH2 0x1CD5 DUP4 DUP4 PUSH1 0x40 MLOAD DUP1 PUSH1 0x40 ADD PUSH1 0x40 MSTORE DUP1 PUSH1 0x1A DUP2 MSTORE PUSH1 0x20 ADD PUSH32 0x536166654D6174683A206469766973696F6E206279207A65726F000000000000 DUP2 MSTORE POP PUSH2 0x1F8F JUMP JUMPDEST SWAP1 POP SWAP3 SWAP2 POP POP JUMP JUMPDEST PUSH1 0x0 DUP1 DUP3 DUP5 PUSH2 0x1CEC SWAP2 SWAP1 PUSH2 0x273C JUMP JUMPDEST SWAP1 POP DUP4 DUP2 LT ISZERO PUSH2 0x1D31 JUMPI PUSH1 0x40 MLOAD PUSH32 0x8C379A000000000000000000000000000000000000000000000000000000000 DUP2 MSTORE PUSH1 0x4 ADD PUSH2 0x1D28 SWAP1 PUSH2 0x254C JUMP JUMPDEST PUSH1 0x40 MLOAD DUP1 SWAP2 SUB SWAP1 REVERT JUMPDEST DUP1 SWAP2 POP POP SWAP3 SWAP2 POP POP JUMP JUMPDEST PUSH1 0x0 DUP1 PUSH1 0x2 PUSH1 0x0 SWAP1 SLOAD SWAP1 PUSH2 0x100 EXP SWAP1 DIV PUSH20 0xFFFFFFFFFFFFFFFFFFFFFFFFFFFFFFFFFFFFFFFF AND PUSH20 0xFFFFFFFFFFFFFFFFFFFFFFFFFFFFFFFFFFFFFFFF AND PUSH4 0x70A08231 ADDRESS PUSH1 0x40 MLOAD DUP3 PUSH4 0xFFFFFFFF AND PUSH1 0xE0 SHL DUP2 MSTORE PUSH1 0x4 ADD PUSH2 0x1D99 SWAP2 SWAP1 PUSH2 0x23B9 JUMP JUMPDEST PUSH1 0x20 PUSH1 0x40 MLOAD DUP1 DUP4 SUB DUP2 DUP7 DUP1 EXTCODESIZE ISZERO DUP1 ISZERO PUSH2 0x1DB1 JUMPI PUSH1 0x0 DUP1 REVERT JUMPDEST POP GAS STATICCALL ISZERO DUP1 ISZERO PUSH2 0x1DC5 JUMPI RETURNDATASIZE PUSH1 0x0 DUP1 RETURNDATACOPY RETURNDATASIZE PUSH1 0x0 REVERT JUMPDEST POP POP POP POP PUSH1 0x40 MLOAD RETURNDATASIZE PUSH1 0x1F NOT PUSH1 0x1F DUP3 ADD AND DUP3 ADD DUP1 PUSH1 0x40 MSTORE POP DUP2 ADD SWAP1 PUSH2 0x1DE9 SWAP2 SWAP1 PUSH2 0x2164 JUMP JUMPDEST SWAP1 POP PUSH1 0x2 PUSH1 0x0 SWAP1 SLOAD SWAP1 PUSH2 0x100 EXP SWAP1 DIV PUSH20 0xFFFFFFFFFFFFFFFFFFFFFFFFFFFFFFFFFFFFFFFF AND PUSH20 0xFFFFFFFFFFFFFFFFFFFFFFFFFFFFFFFFFFFFFFFF AND PUSH4 0x23B872DD CALLER ADDRESS DUP7 PUSH1 0x40 MLOAD DUP5 PUSH4 0xFFFFFFFF AND PUSH1 0xE0 SHL DUP2 MSTORE PUSH1 0x4 ADD PUSH2 0x1E4A SWAP4 SWAP3 SWAP2 SWAP1 PUSH2 0x23FD JUMP JUMPDEST PUSH1 0x20 PUSH1 0x40 MLOAD DUP1 DUP4 SUB DUP2 PUSH1 0x0 DUP8 DUP1 EXTCODESIZE ISZERO DUP1 ISZERO PUSH2 0x1E64 JUMPI PUSH1 0x0 DUP1 REVERT JUMPDEST POP GAS CALL ISZERO DUP1 ISZERO PUSH2 0x1E78 JUMPI RETURNDATASIZE PUSH1 0x0 DUP1 RETURNDATACOPY RETURNDATASIZE PUSH1 0x0 REVERT JUMPDEST POP POP POP POP PUSH1 0x40 MLOAD RETURNDATASIZE PUSH1 0x1F NOT PUSH1 0x1F DUP3 ADD AND DUP3 ADD DUP1 PUSH1 0x40 MSTORE POP DUP2 ADD SWAP1 PUSH2 0x1E9C SWAP2 SWAP1 PUSH2 0x20DD JUMP JUMPDEST POP PUSH1 0x0 PUSH1 0x2 PUSH1 0x0 SWAP1 SLOAD SWAP1 PUSH2 0x100 EXP SWAP1 DIV PUSH20 0xFFFFFFFFFFFFFFFFFFFFFFFFFFFFFFFFFFFFFFFF AND PUSH20 0xFFFFFFFFFFFFFFFFFFFFFFFFFFFFFFFFFFFFFFFF AND PUSH4 0x70A08231 ADDRESS PUSH1 0x40 MLOAD DUP3 PUSH4 0xFFFFFFFF AND PUSH1 0xE0 SHL DUP2 MSTORE PUSH1 0x4 ADD PUSH2 0x1EFA SWAP2 SWAP1 PUSH2 0x23B9 JUMP JUMPDEST PUSH1 0x20 PUSH1 0x40 MLOAD DUP1 DUP4 SUB DUP2 DUP7 DUP1 EXTCODESIZE ISZERO DUP1 ISZERO PUSH2 0x1F12 JUMPI PUSH1 0x0 DUP1 REVERT JUMPDEST POP GAS STATICCALL ISZERO DUP1 ISZERO PUSH2 0x1F26 JUMPI RETURNDATASIZE PUSH1 0x0 DUP1 RETURNDATACOPY RETURNDATASIZE PUSH1 0x0 REVERT JUMPDEST POP POP POP POP PUSH1 0x40 MLOAD RETURNDATASIZE PUSH1 0x1F NOT PUSH1 0x1F DUP3 ADD AND DUP3 ADD DUP1 PUSH1 0x40 MSTORE POP DUP2 ADD SWAP1 PUSH2 0x1F4A SWAP2 SWAP1 PUSH2 0x2164 JUMP JUMPDEST SWAP1 POP DUP2 DUP2 GT PUSH2 0x1F5E JUMPI PUSH1 0x0 SWAP3 POP POP POP PUSH2 0x1F8A JUMP JUMPDEST PUSH2 0x1F71 DUP5 DUP4 PUSH2 0x1CDD SWAP1 SWAP2 SWAP1 PUSH4 0xFFFFFFFF AND JUMP JUMPDEST DUP2 LT ISZERO PUSH2 0x1F83 JUMPI PUSH1 0x0 SWAP3 POP POP POP PUSH2 0x1F8A JUMP JUMPDEST PUSH1 0x1 SWAP3 POP POP POP JUMPDEST SWAP2 SWAP1 POP JUMP JUMPDEST PUSH1 0x0 DUP1 DUP4 GT DUP3 SWAP1 PUSH2 0x1FD6 JUMPI PUSH1 0x40 MLOAD PUSH32 0x8C379A000000000000000000000000000000000000000000000000000000000 DUP2 MSTORE PUSH1 0x4 ADD PUSH2 0x1FCD SWAP2 SWAP1 PUSH2 0x24CA JUMP JUMPDEST PUSH1 0x40 MLOAD DUP1 SWAP2 SUB SWAP1 REVERT JUMPDEST POP PUSH1 0x0 DUP4 DUP6 PUSH2 0x1FE5 SWAP2 SWAP1 PUSH2 0x2792 JUMP JUMPDEST SWAP1 POP DUP1 SWAP2 POP POP SWAP4 SWAP3 POP POP POP JUMP JUMPDEST PUSH1 0x0 DUP2 CALLDATALOAD SWAP1 POP PUSH2 0x2001 DUP2 PUSH2 0x2B73 JUMP JUMPDEST SWAP3 SWAP2 POP POP JUMP JUMPDEST PUSH1 0x0 DUP2 MLOAD SWAP1 POP PUSH2 0x2016 DUP2 PUSH2 0x2B8A JUMP JUMPDEST SWAP3 SWAP2 POP POP JUMP JUMPDEST PUSH1 0x0 DUP2 CALLDATALOAD SWAP1 POP PUSH2 0x202B DUP2 PUSH2 0x2BA1 JUMP JUMPDEST SWAP3 SWAP2 POP POP JUMP JUMPDEST PUSH1 0x0 DUP2 CALLDATALOAD SWAP1 POP PUSH2 0x2040 DUP2 PUSH2 0x2BB8 JUMP JUMPDEST SWAP3 SWAP2 POP POP JUMP JUMPDEST PUSH1 0x0 DUP2 MLOAD SWAP1 POP PUSH2 0x2055 DUP2 PUSH2 0x2BB8 JUMP JUMPDEST SWAP3 SWAP2 POP POP JUMP JUMPDEST PUSH1 0x0 DUP2 CALLDATALOAD SWAP1 POP PUSH2 0x206A DUP2 PUSH2 0x2BCF JUMP JUMPDEST SWAP3 SWAP2 POP POP JUMP JUMPDEST PUSH1 0x0 PUSH1 0x20 DUP3 DUP5 SUB SLT ISZERO PUSH2 0x2086 JUMPI PUSH2 0x2085 PUSH2 0x294B JUMP JUMPDEST JUMPDEST PUSH1 0x0 PUSH2 0x2094 DUP5 DUP3 DUP6 ADD PUSH2 0x1FF2 JUMP JUMPDEST SWAP2 POP POP SWAP3 SWAP2 POP POP JUMP JUMPDEST PUSH1 0x0 DUP1 PUSH1 0x40 DUP4 DUP6 SUB SLT ISZERO PUSH2 0x20B4 JUMPI PUSH2 0x20B3 PUSH2 0x294B JUMP JUMPDEST JUMPDEST PUSH1 0x0 PUSH2 0x20C2 DUP6 DUP3 DUP7 ADD PUSH2 0x1FF2 JUMP JUMPDEST SWAP3 POP POP PUSH1 0x20 PUSH2 0x20D3 DUP6 DUP3 DUP7 ADD PUSH2 0x205B JUMP JUMPDEST SWAP2 POP POP SWAP3 POP SWAP3 SWAP1 POP JUMP JUMPDEST PUSH1 0x0 PUSH1 0x20 DUP3 DUP5 SUB SLT ISZERO PUSH2 0x20F3 JUMPI PUSH2 0x20F2 PUSH2 0x294B JUMP JUMPDEST JUMPDEST PUSH1 0x0 PUSH2 0x2101 DUP5 DUP3 DUP6 ADD PUSH2 0x2007 JUMP JUMPDEST SWAP2 POP POP SWAP3 SWAP2 POP POP JUMP JUMPDEST PUSH1 0x0 PUSH1 0x20 DUP3 DUP5 SUB SLT ISZERO PUSH2 0x2120 JUMPI PUSH2 0x211F PUSH2 0x294B JUMP JUMPDEST JUMPDEST PUSH1 0x0 PUSH2 0x212E DUP5 DUP3 DUP6 ADD PUSH2 0x201C JUMP JUMPDEST SWAP2 POP POP SWAP3 SWAP2 POP POP JUMP JUMPDEST PUSH1 0x0 PUSH1 0x20 DUP3 DUP5 SUB SLT ISZERO PUSH2 0x214D JUMPI PUSH2 0x214C PUSH2 0x294B JUMP JUMPDEST JUMPDEST PUSH1 0x0 PUSH2 0x215B DUP5 DUP3 DUP6 ADD PUSH2 0x2031 JUMP JUMPDEST SWAP2 POP POP SWAP3 SWAP2 POP POP JUMP JUMPDEST PUSH1 0x0 PUSH1 0x20 DUP3 DUP5 SUB SLT ISZERO PUSH2 0x217A JUMPI PUSH2 0x2179 PUSH2 0x294B JUMP JUMPDEST JUMPDEST PUSH1 0x0 PUSH2 0x2188 DUP5 DUP3 DUP6 ADD PUSH2 0x2046 JUMP JUMPDEST SWAP2 POP POP SWAP3 SWAP2 POP POP JUMP JUMPDEST PUSH2 0x219A DUP2 PUSH2 0x281D JUMP JUMPDEST DUP3 MSTORE POP POP JUMP JUMPDEST PUSH2 0x21A9 DUP2 PUSH2 0x282F JUMP JUMPDEST DUP3 MSTORE POP POP JUMP JUMPDEST PUSH2 0x21B8 DUP2 PUSH2 0x2884 JUMP JUMPDEST DUP3 MSTORE POP POP JUMP JUMPDEST PUSH1 0x0 PUSH2 0x21C9 DUP3 PUSH2 0x2720 JUMP JUMPDEST PUSH2 0x21D3 DUP2 DUP6 PUSH2 0x272B JUMP JUMPDEST SWAP4 POP PUSH2 0x21E3 DUP2 DUP6 PUSH1 0x20 DUP7 ADD PUSH2 0x28BA JUMP JUMPDEST PUSH2 0x21EC DUP2 PUSH2 0x2950 JUMP JUMPDEST DUP5 ADD SWAP2 POP POP SWAP3 SWAP2 POP POP JUMP JUMPDEST PUSH1 0x0 PUSH2 0x2204 PUSH1 0xF DUP4 PUSH2 0x272B JUMP JUMPDEST SWAP2 POP PUSH2 0x220F DUP3 PUSH2 0x2961 JUMP JUMPDEST PUSH1 0x20 DUP3 ADD SWAP1 POP SWAP2 SWAP1 POP JUMP JUMPDEST PUSH1 0x0 PUSH2 0x2227 PUSH1 0x11 DUP4 PUSH2 0x272B JUMP JUMPDEST SWAP2 POP PUSH2 0x2232 DUP3 PUSH2 0x298A JUMP JUMPDEST PUSH1 0x20 DUP3 ADD SWAP1 POP SWAP2 SWAP1 POP JUMP JUMPDEST PUSH1 0x0 PUSH2 0x224A PUSH1 0x12 DUP4 PUSH2 0x272B JUMP JUMPDEST SWAP2 POP PUSH2 0x2255 DUP3 PUSH2 0x29B3 JUMP JUMPDEST PUSH1 0x20 DUP3 ADD SWAP1 POP SWAP2 SWAP1 POP JUMP JUMPDEST PUSH1 0x0 PUSH2 0x226D PUSH1 0x1B DUP4 PUSH2 0x272B JUMP JUMPDEST SWAP2 POP PUSH2 0x2278 DUP3 PUSH2 0x29DC JUMP JUMPDEST PUSH1 0x20 DUP3 ADD SWAP1 POP SWAP2 SWAP1 POP JUMP JUMPDEST PUSH1 0x0 PUSH2 0x2290 PUSH1 0x12 DUP4 PUSH2 0x272B JUMP JUMPDEST SWAP2 POP PUSH2 0x229B DUP3 PUSH2 0x2A05 JUMP JUMPDEST PUSH1 0x20 DUP3 ADD SWAP1 POP SWAP2 SWAP1 POP JUMP JUMPDEST PUSH1 0x0 PUSH2 0x22B3 PUSH1 0x12 DUP4 PUSH2 0x272B JUMP JUMPDEST SWAP2 POP PUSH2 0x22BE DUP3 PUSH2 0x2A2E JUMP JUMPDEST PUSH1 0x20 DUP3 ADD SWAP1 POP SWAP2 SWAP1 POP JUMP JUMPDEST PUSH1 0x0 PUSH2 0x22D6 PUSH1 0x21 DUP4 PUSH2 0x272B JUMP JUMPDEST SWAP2 POP PUSH2 0x22E1 DUP3 PUSH2 0x2A57 JUMP JUMPDEST PUSH1 0x40 DUP3 ADD SWAP1 POP SWAP2 SWAP1 POP JUMP JUMPDEST PUSH1 0x0 PUSH2 0x22F9 PUSH1 0xB DUP4 PUSH2 0x272B JUMP JUMPDEST SWAP2 POP PUSH2 0x2304 DUP3 PUSH2 0x2AA6 JUMP JUMPDEST PUSH1 0x20 DUP3 ADD SWAP1 POP SWAP2 SWAP1 POP JUMP JUMPDEST PUSH1 0x0 PUSH2 0x231C PUSH1 0x12 DUP4 PUSH2 0x272B JUMP JUMPDEST SWAP2 POP PUSH2 0x2327 DUP3 PUSH2 0x2ACF JUMP JUMPDEST PUSH1 0x20 DUP3 ADD SWAP1 POP SWAP2 SWAP1 POP JUMP JUMPDEST PUSH1 0x0 PUSH2 0x233F PUSH1 0x12 DUP4 PUSH2 0x272B JUMP JUMPDEST SWAP2 POP PUSH2 0x234A DUP3 PUSH2 0x2AF8 JUMP JUMPDEST PUSH1 0x20 DUP3 ADD SWAP1 POP SWAP2 SWAP1 POP JUMP JUMPDEST PUSH1 0x0 PUSH2 0x2362 PUSH1 0x10 DUP4 PUSH2 0x272B JUMP JUMPDEST SWAP2 POP PUSH2 0x236D DUP3 PUSH2 0x2B21 JUMP JUMPDEST PUSH1 0x20 DUP3 ADD SWAP1 POP SWAP2 SWAP1 POP JUMP JUMPDEST PUSH1 0x0 PUSH2 0x2385 PUSH1 0x12 DUP4 PUSH2 0x272B JUMP JUMPDEST SWAP2 POP PUSH2 0x2390 DUP3 PUSH2 0x2B4A JUMP JUMPDEST PUSH1 0x20 DUP3 ADD SWAP1 POP SWAP2 SWAP1 POP JUMP JUMPDEST PUSH2 0x23A4 DUP2 PUSH2 0x286D JUMP JUMPDEST DUP3 MSTORE POP POP JUMP JUMPDEST PUSH2 0x23B3 DUP2 PUSH2 0x2877 JUMP JUMPDEST DUP3 MSTORE POP POP JUMP JUMPDEST PUSH1 0x0 PUSH1 0x20 DUP3 ADD SWAP1 POP PUSH2 0x23CE PUSH1 0x0 DUP4 ADD DUP5 PUSH2 0x2191 JUMP JUMPDEST SWAP3 SWAP2 POP POP JUMP JUMPDEST PUSH1 0x0 PUSH1 0x40 DUP3 ADD SWAP1 POP PUSH2 0x23E9 PUSH1 0x0 DUP4 ADD DUP6 PUSH2 0x2191 JUMP JUMPDEST PUSH2 0x23F6 PUSH1 0x20 DUP4 ADD DUP5 PUSH2 0x2191 JUMP JUMPDEST SWAP4 SWAP3 POP POP POP JUMP JUMPDEST PUSH1 0x0 PUSH1 0x60 DUP3 ADD SWAP1 POP PUSH2 0x2412 PUSH1 0x0 DUP4 ADD DUP7 PUSH2 0x2191 JUMP JUMPDEST PUSH2 0x241F PUSH1 0x20 DUP4 ADD DUP6 PUSH2 0x2191 JUMP JUMPDEST PUSH2 0x242C PUSH1 0x40 DUP4 ADD DUP5 PUSH2 0x239B JUMP JUMPDEST SWAP5 SWAP4 POP POP POP POP JUMP JUMPDEST PUSH1 0x0 PUSH1 0x40 DUP3 ADD SWAP1 POP PUSH2 0x2449 PUSH1 0x0 DUP4 ADD DUP6 PUSH2 0x2191 JUMP JUMPDEST PUSH2 0x2456 PUSH1 0x20 DUP4 ADD DUP5 PUSH2 0x239B JUMP JUMPDEST SWAP4 SWAP3 POP POP POP JUMP JUMPDEST PUSH1 0x0 PUSH1 0x60 DUP3 ADD SWAP1 POP PUSH2 0x2472 PUSH1 0x0 DUP4 ADD DUP7 PUSH2 0x2191 JUMP JUMPDEST PUSH2 0x247F PUSH1 0x20 DUP4 ADD DUP6 PUSH2 0x239B JUMP JUMPDEST PUSH2 0x248C PUSH1 0x40 DUP4 ADD DUP5 PUSH2 0x239B JUMP JUMPDEST SWAP5 SWAP4 POP POP POP POP JUMP JUMPDEST PUSH1 0x0 PUSH1 0x20 DUP3 ADD SWAP1 POP PUSH2 0x24A9 PUSH1 0x0 DUP4 ADD DUP5 PUSH2 0x21A0 JUMP JUMPDEST SWAP3 SWAP2 POP POP JUMP JUMPDEST PUSH1 0x0 PUSH1 0x20 DUP3 ADD SWAP1 POP PUSH2 0x24C4 PUSH1 0x0 DUP4 ADD DUP5 PUSH2 0x21AF JUMP JUMPDEST SWAP3 SWAP2 POP POP JUMP JUMPDEST PUSH1 0x0 PUSH1 0x20 DUP3 ADD SWAP1 POP DUP2 DUP2 SUB PUSH1 0x0 DUP4 ADD MSTORE PUSH2 0x24E4 DUP2 DUP5 PUSH2 0x21BE JUMP JUMPDEST SWAP1 POP SWAP3 SWAP2 POP POP JUMP JUMPDEST PUSH1 0x0 PUSH1 0x20 DUP3 ADD SWAP1 POP DUP2 DUP2 SUB PUSH1 0x0 DUP4 ADD MSTORE PUSH2 0x2505 DUP2 PUSH2 0x21F7 JUMP JUMPDEST SWAP1 POP SWAP2 SWAP1 POP JUMP JUMPDEST PUSH1 0x0 PUSH1 0x20 DUP3 ADD SWAP1 POP DUP2 DUP2 SUB PUSH1 0x0 DUP4 ADD MSTORE PUSH2 0x2525 DUP2 PUSH2 0x221A JUMP JUMPDEST SWAP1 POP SWAP2 SWAP1 POP JUMP JUMPDEST PUSH1 0x0 PUSH1 0x20 DUP3 ADD SWAP1 POP DUP2 DUP2 SUB PUSH1 0x0 DUP4 ADD MSTORE PUSH2 0x2545 DUP2 PUSH2 0x223D JUMP JUMPDEST SWAP1 POP SWAP2 SWAP1 POP JUMP JUMPDEST PUSH1 0x0 PUSH1 0x20 DUP3 ADD SWAP1 POP DUP2 DUP2 SUB PUSH1 0x0 DUP4 ADD MSTORE PUSH2 0x2565 DUP2 PUSH2 0x2260 JUMP JUMPDEST SWAP1 POP SWAP2 SWAP1 POP JUMP JUMPDEST PUSH1 0x0 PUSH1 0x20 DUP3 ADD SWAP1 POP DUP2 DUP2 SUB PUSH1 0x0 DUP4 ADD MSTORE PUSH2 0x2585 DUP2 PUSH2 0x2283 JUMP JUMPDEST SWAP1 POP SWAP2 SWAP1 POP JUMP JUMPDEST PUSH1 0x0 PUSH1 0x20 DUP3 ADD SWAP1 POP DUP2 DUP2 SUB PUSH1 0x0 DUP4 ADD MSTORE PUSH2 0x25A5 DUP2 PUSH2 0x22A6 JUMP JUMPDEST SWAP1 POP SWAP2 SWAP1 POP JUMP JUMPDEST PUSH1 0x0 PUSH1 0x20 DUP3 ADD SWAP1 POP DUP2 DUP2 SUB PUSH1 0x0 DUP4 ADD MSTORE PUSH2 0x25C5 DUP2 PUSH2 0x22C9 JUMP JUMPDEST SWAP1 POP SWAP2 SWAP1 POP JUMP JUMPDEST PUSH1 0x0 PUSH1 0x20 DUP3 ADD SWAP1 POP DUP2 DUP2 SUB PUSH1 0x0 DUP4 ADD MSTORE PUSH2 0x25E5 DUP2 PUSH2 0x22EC JUMP JUMPDEST SWAP1 POP SWAP2 SWAP1 POP JUMP JUMPDEST PUSH1 0x0 PUSH1 0x20 DUP3 ADD SWAP1 POP DUP2 DUP2 SUB PUSH1 0x0 DUP4 ADD MSTORE PUSH2 0x2605 DUP2 PUSH2 0x230F JUMP JUMPDEST SWAP1 POP SWAP2 SWAP1 POP JUMP JUMPDEST PUSH1 0x0 PUSH1 0x20 DUP3 ADD SWAP1 POP DUP2 DUP2 SUB PUSH1 0x0 DUP4 ADD MSTORE PUSH2 0x2625 DUP2 PUSH2 0x2332 JUMP JUMPDEST SWAP1 POP SWAP2 SWAP1 POP JUMP JUMPDEST PUSH1 0x0 PUSH1 0x20 DUP3 ADD SWAP1 POP DUP2 DUP2 SUB PUSH1 0x0 DUP4 ADD MSTORE PUSH2 0x2645 DUP2 PUSH2 0x2355 JUMP JUMPDEST SWAP1 POP SWAP2 SWAP1 POP JUMP JUMPDEST PUSH1 0x0 PUSH1 0x20 DUP3 ADD SWAP1 POP DUP2 DUP2 SUB PUSH1 0x0 DUP4 ADD MSTORE PUSH2 0x2665 DUP2 PUSH2 0x2378 JUMP JUMPDEST SWAP1 POP SWAP2 SWAP1 POP JUMP JUMPDEST PUSH1 0x0 PUSH1 0x20 DUP3 ADD SWAP1 POP PUSH2 0x2681 PUSH1 0x0 DUP4 ADD DUP5 PUSH2 0x239B JUMP JUMPDEST SWAP3 SWAP2 POP POP JUMP JUMPDEST PUSH1 0x0 PUSH2 0x100 DUP3 ADD SWAP1 POP PUSH2 0x269D PUSH1 0x0 DUP4 ADD DUP12 PUSH2 0x239B JUMP JUMPDEST PUSH2 0x26AA PUSH1 0x20 DUP4 ADD DUP11 PUSH2 0x239B JUMP JUMPDEST PUSH2 0x26B7 PUSH1 0x40 DUP4 ADD DUP10 PUSH2 0x239B JUMP JUMPDEST PUSH2 0x26C4 PUSH1 0x60 DUP4 ADD DUP9 PUSH2 0x239B JUMP JUMPDEST PUSH2 0x26D1 PUSH1 0x80 DUP4 ADD DUP8 PUSH2 0x239B JUMP JUMPDEST PUSH2 0x26DE PUSH1 0xA0 DUP4 ADD DUP7 PUSH2 0x239B JUMP JUMPDEST PUSH2 0x26EB PUSH1 0xC0 DUP4 ADD DUP6 PUSH2 0x239B JUMP JUMPDEST PUSH2 0x26F8 PUSH1 0xE0 DUP4 ADD DUP5 PUSH2 0x239B JUMP JUMPDEST SWAP10 SWAP9 POP POP POP POP POP POP POP POP POP JUMP JUMPDEST PUSH1 0x0 PUSH1 0x20 DUP3 ADD SWAP1 POP PUSH2 0x271A PUSH1 0x0 DUP4 ADD DUP5 PUSH2 0x23AA JUMP JUMPDEST SWAP3 SWAP2 POP POP JUMP JUMPDEST PUSH1 0x0 DUP2 MLOAD SWAP1 POP SWAP2 SWAP1 POP JUMP JUMPDEST PUSH1 0x0 DUP3 DUP3 MSTORE PUSH1 0x20 DUP3 ADD SWAP1 POP SWAP3 SWAP2 POP POP JUMP JUMPDEST PUSH1 0x0 PUSH2 0x2747 DUP3 PUSH2 0x286D JUMP JUMPDEST SWAP2 POP PUSH2 0x2752 DUP4 PUSH2 0x286D JUMP JUMPDEST SWAP3 POP DUP3 PUSH32 0xFFFFFFFFFFFFFFFFFFFFFFFFFFFFFFFFFFFFFFFFFFFFFFFFFFFFFFFFFFFFFFFF SUB DUP3 GT ISZERO PUSH2 0x2787 JUMPI PUSH2 0x2786 PUSH2 0x28ED JUMP JUMPDEST JUMPDEST DUP3 DUP3 ADD SWAP1 POP SWAP3 SWAP2 POP POP JUMP JUMPDEST PUSH1 0x0 PUSH2 0x279D DUP3 PUSH2 0x286D JUMP JUMPDEST SWAP2 POP PUSH2 0x27A8 DUP4 PUSH2 0x286D JUMP JUMPDEST SWAP3 POP DUP3 PUSH2 0x27B8 JUMPI PUSH2 0x27B7 PUSH2 0x291C JUMP JUMPDEST JUMPDEST DUP3 DUP3 DIV SWAP1 POP SWAP3 SWAP2 POP POP JUMP JUMPDEST PUSH1 0x0 PUSH2 0x27CE DUP3 PUSH2 0x286D JUMP JUMPDEST SWAP2 POP PUSH2 0x27D9 DUP4 PUSH2 0x286D JUMP JUMPDEST SWAP3 POP DUP2 PUSH32 0xFFFFFFFFFFFFFFFFFFFFFFFFFFFFFFFFFFFFFFFFFFFFFFFFFFFFFFFFFFFFFFFF DIV DUP4 GT DUP3 ISZERO ISZERO AND ISZERO PUSH2 0x2812 JUMPI PUSH2 0x2811 PUSH2 0x28ED JUMP JUMPDEST JUMPDEST DUP3 DUP3 MUL SWAP1 POP SWAP3 SWAP2 POP POP JUMP JUMPDEST PUSH1 0x0 PUSH2 0x2828 DUP3 PUSH2 0x284D JUMP JUMPDEST SWAP1 POP SWAP2 SWAP1 POP JUMP JUMPDEST PUSH1 0x0 DUP2 ISZERO ISZERO SWAP1 POP SWAP2 SWAP1 POP JUMP JUMPDEST PUSH1 0x0 PUSH2 0x2846 DUP3 PUSH2 0x281D JUMP JUMPDEST SWAP1 POP SWAP2 SWAP1 POP JUMP JUMPDEST PUSH1 0x0 PUSH20 0xFFFFFFFFFFFFFFFFFFFFFFFFFFFFFFFFFFFFFFFF DUP3 AND SWAP1 POP SWAP2 SWAP1 POP JUMP JUMPDEST PUSH1 0x0 DUP2 SWAP1 POP SWAP2 SWAP1 POP JUMP JUMPDEST PUSH1 0x0 PUSH1 0xFF DUP3 AND SWAP1 POP SWAP2 SWAP1 POP JUMP JUMPDEST PUSH1 0x0 PUSH2 0x288F DUP3 PUSH2 0x2896 JUMP JUMPDEST SWAP1 POP SWAP2 SWAP1 POP JUMP JUMPDEST PUSH1 0x0 PUSH2 0x28A1 DUP3 PUSH2 0x28A8 JUMP JUMPDEST SWAP1 POP SWAP2 SWAP1 POP JUMP JUMPDEST PUSH1 0x0 PUSH2 0x28B3 DUP3 PUSH2 0x284D JUMP JUMPDEST SWAP1 POP SWAP2 SWAP1 POP JUMP JUMPDEST PUSH1 0x0 JUMPDEST DUP4 DUP2 LT ISZERO PUSH2 0x28D8 JUMPI DUP1 DUP3 ADD MLOAD DUP2 DUP5 ADD MSTORE PUSH1 0x20 DUP2 ADD SWAP1 POP PUSH2 0x28BD JUMP JUMPDEST DUP4 DUP2 GT ISZERO PUSH2 0x28E7 JUMPI PUSH1 0x0 DUP5 DUP5 ADD MSTORE JUMPDEST POP POP POP POP JUMP JUMPDEST PUSH32 0x4E487B7100000000000000000000000000000000000000000000000000000000 PUSH1 0x0 MSTORE PUSH1 0x11 PUSH1 0x4 MSTORE PUSH1 0x24 PUSH1 0x0 REVERT JUMPDEST PUSH32 0x4E487B7100000000000000000000000000000000000000000000000000000000 PUSH1 0x0 MSTORE PUSH1 0x12 PUSH1 0x4 MSTORE PUSH1 0x24 PUSH1 0x0 REVERT JUMPDEST PUSH1 0x0 DUP1 REVERT JUMPDEST PUSH1 0x0 PUSH1 0x1F NOT PUSH1 0x1F DUP4 ADD AND SWAP1 POP SWAP2 SWAP1 POP JUMP JUMPDEST PUSH32 0x494E56414C49445F414444524553530000000000000000000000000000000000 PUSH1 0x0 DUP3 ADD MSTORE POP JUMP JUMPDEST PUSH32 0x494E56414C49445F57484954456C495354000000000000000000000000000000 PUSH1 0x0 DUP3 ADD MSTORE POP JUMP JUMPDEST PUSH32 0x494E56414C49445F515541544954593A30310000000000000000000000000000 PUSH1 0x0 DUP3 ADD MSTORE POP JUMP JUMPDEST PUSH32 0x536166654D6174683A206164646974696F6E206F766572666C6F770000000000 PUSH1 0x0 DUP3 ADD MSTORE POP JUMP JUMPDEST PUSH32 0x494E56414C49445F5041594D454E543A30320000000000000000000000000000 PUSH1 0x0 DUP3 ADD MSTORE POP JUMP JUMPDEST PUSH32 0x494E56414C49445F515541544954593A30320000000000000000000000000000 PUSH1 0x0 DUP3 ADD MSTORE POP JUMP JUMPDEST PUSH32 0x536166654D6174683A206D756C7469706C69636174696F6E206F766572666C6F PUSH1 0x0 DUP3 ADD MSTORE PUSH32 0x7700000000000000000000000000000000000000000000000000000000000000 PUSH1 0x20 DUP3 ADD MSTORE POP JUMP JUMPDEST PUSH32 0x53595354454D5F53544F50000000000000000000000000000000000000000000 PUSH1 0x0 DUP3 ADD MSTORE POP JUMP JUMPDEST PUSH32 0x53595354454D5F4E4F545F52554E4E494E470000000000000000000000000000 PUSH1 0x0 DUP3 ADD MSTORE POP JUMP JUMPDEST PUSH32 0x494E56414C49445F5041594D454E543A30310000000000000000000000000000 PUSH1 0x0 DUP3 ADD MSTORE POP JUMP JUMPDEST PUSH32 0x494E56414C49445F414D4F554E545F3100000000000000000000000000000000 PUSH1 0x0 DUP3 ADD MSTORE POP JUMP JUMPDEST PUSH32 0x494E56414C49445F5045524D495353494F4E0000000000000000000000000000 PUSH1 0x0 DUP3 ADD MSTORE POP JUMP JUMPDEST PUSH2 0x2B7C DUP2 PUSH2 0x281D JUMP JUMPDEST DUP2 EQ PUSH2 0x2B87 JUMPI PUSH1 0x0 DUP1 REVERT JUMPDEST POP JUMP JUMPDEST PUSH2 0x2B93 DUP2 PUSH2 0x282F JUMP JUMPDEST DUP2 EQ PUSH2 0x2B9E JUMPI PUSH1 0x0 DUP1 REVERT JUMPDEST POP JUMP JUMPDEST PUSH2 0x2BAA DUP2 PUSH2 0x283B JUMP JUMPDEST DUP2 EQ PUSH2 0x2BB5 JUMPI PUSH1 0x0 DUP1 REVERT JUMPDEST POP JUMP JUMPDEST PUSH2 0x2BC1 DUP2 PUSH2 0x286D JUMP JUMPDEST DUP2 EQ PUSH2 0x2BCC JUMPI PUSH1 0x0 DUP1 REVERT JUMPDEST POP JUMP JUMPDEST PUSH2 0x2BD8 DUP2 PUSH2 0x2877 JUMP JUMPDEST DUP2 EQ PUSH2 0x2BE3 JUMPI PUSH1 0x0 DUP1 REVERT JUMPDEST POP JUMP INVALID LOG2 PUSH5 0x6970667358 0x22 SLT KECCAK256 SWAP15 DUP10 0xCB 0xC5 PUSH12 0x1398E03C0B15F2D81BE01F25 PUSH17 0xBA7BE297B895060A6B69391E515B64736F PUSH13 0x63430008070033000000000000 "
				},
				"gasEstimates": {
					"creation": {
						"codeDepositCost": "2258400",
						"executionCost": "infinite",
						"totalCost": "infinite"
					},
					"external": {
						"ENABLE()": "2561",
						"GRB()": "2689",
						"HARD_CAP_PER_USER()": "2496",
						"MIN_BUY()": "2519",
						"SALE_TIME_PERIOD()": "2497",
						"USDC()": "2711",
						"VERSION()": "2578",
						"buy(uint256)": "infinite",
						"disable()": "26743",
						"enable()": "26698",
						"endTime()": "2475",
						"getData(address)": "infinite",
						"getMaxBuyOf(address)": "infinite",
						"getTotalSale()": "infinite",
						"getUSDCBalance()": "infinite",
						"moveFund(address)": "infinite",
						"owner()": "2610",
						"salePrice()": "2495",
						"setEndTime(uint256)": "24807",
						"setGRBToken(address)": "27113",
						"setHardCapPerUser(uint256)": "24785",
						"setMinBuy(uint256)": "24829",
						"setSalePrice(uint256)": "24831",
						"setUSDCToken(address)": "27070",
						"setWhiteList(address,uint8)": "27323",
						"start()": "infinite",
						"totalBoughtOf(address)": "2925",
						"totalPurchased()": "2540",
						"transferOwnership(address)": "27036",
						"whiteListed(address)": "2933"
					},
					"internal": {
						"_claimUSDC(uint256)": "infinite"
					}
				},
				"methodIdentifiers": {
					"ENABLE()": "92f6386a",
					"GRB()": "b0176ce8",
					"HARD_CAP_PER_USER()": "50c19c0b",
					"MIN_BUY()": "3af96b90",
					"SALE_TIME_PERIOD()": "247b9818",
					"USDC()": "89a30271",
					"VERSION()": "ffa1ad74",
					"buy(uint256)": "d96a094a",
					"disable()": "2f2770db",
					"enable()": "a3907d71",
					"endTime()": "3197cbb6",
					"getData(address)": "38266b22",
					"getMaxBuyOf(address)": "90c8dd17",
					"getTotalSale()": "1f2475bd",
					"getUSDCBalance()": "3cfd1ccc",
					"moveFund(address)": "3c6c26f9",
					"owner()": "8da5cb5b",
					"salePrice()": "f51f96dd",
					"setEndTime(uint256)": "ccb98ffc",
					"setGRBToken(address)": "2acfc3da",
					"setHardCapPerUser(uint256)": "a2b0106b",
					"setMinBuy(uint256)": "860779e7",
					"setSalePrice(uint256)": "1919fed7",
					"setUSDCToken(address)": "0f5a9d01",
					"setWhiteList(address,uint8)": "120edd96",
					"start()": "be9a6555",
					"totalBoughtOf(address)": "bcaaf662",
					"totalPurchased()": "e632c2f3",
					"transferOwnership(address)": "f2fde38b",
					"whiteListed(address)": "fa0fca84"
				}
			},
			"storageLayout": {
				"storage": [
					{
						"astId": 297,
						"contract": "contracts/PrivateSaleLaunch.sol:PrivateSaleLaunch",
						"label": "VERSION",
						"offset": 0,
						"slot": "0",
						"type": "t_uint8"
					},
					{
						"astId": 302,
						"contract": "contracts/PrivateSaleLaunch.sol:PrivateSaleLaunch",
						"label": "owner",
						"offset": 1,
						"slot": "0",
						"type": "t_address"
					},
					{
						"astId": 305,
						"contract": "contracts/PrivateSaleLaunch.sol:PrivateSaleLaunch",
						"label": "GRB",
						"offset": 0,
						"slot": "1",
						"type": "t_contract(IERC20)294"
					},
					{
						"astId": 308,
						"contract": "contracts/PrivateSaleLaunch.sol:PrivateSaleLaunch",
						"label": "USDC",
						"offset": 0,
						"slot": "2",
						"type": "t_contract(IERC20)294"
					},
					{
						"astId": 313,
						"contract": "contracts/PrivateSaleLaunch.sol:PrivateSaleLaunch",
						"label": "salePrice",
						"offset": 0,
						"slot": "3",
						"type": "t_uint256"
					},
					{
						"astId": 316,
						"contract": "contracts/PrivateSaleLaunch.sol:PrivateSaleLaunch",
						"label": "totalPurchased",
						"offset": 0,
						"slot": "4",
						"type": "t_uint256"
					},
					{
						"astId": 319,
						"contract": "contracts/PrivateSaleLaunch.sol:PrivateSaleLaunch",
						"label": "endTime",
						"offset": 0,
						"slot": "5",
						"type": "t_uint256"
					},
					{
						"astId": 322,
						"contract": "contracts/PrivateSaleLaunch.sol:PrivateSaleLaunch",
						"label": "ENABLE",
						"offset": 0,
						"slot": "6",
						"type": "t_bool"
					},
					{
						"astId": 327,
						"contract": "contracts/PrivateSaleLaunch.sol:PrivateSaleLaunch",
						"label": "HARD_CAP_PER_USER",
						"offset": 0,
						"slot": "7",
						"type": "t_uint256"
					},
					{
						"astId": 332,
						"contract": "contracts/PrivateSaleLaunch.sol:PrivateSaleLaunch",
						"label": "MIN_BUY",
						"offset": 0,
						"slot": "8",
						"type": "t_uint256"
					},
					{
						"astId": 339,
						"contract": "contracts/PrivateSaleLaunch.sol:PrivateSaleLaunch",
						"label": "SALE_TIME_PERIOD",
						"offset": 0,
						"slot": "9",
						"type": "t_uint256"
					},
					{
						"astId": 343,
						"contract": "contracts/PrivateSaleLaunch.sol:PrivateSaleLaunch",
						"label": "totalBoughtOf",
						"offset": 0,
						"slot": "10",
						"type": "t_mapping(t_address,t_uint256)"
					},
					{
						"astId": 347,
						"contract": "contracts/PrivateSaleLaunch.sol:PrivateSaleLaunch",
						"label": "whiteListed",
						"offset": 0,
						"slot": "11",
						"type": "t_mapping(t_address,t_bool)"
					}
				],
				"types": {
					"t_address": {
						"encoding": "inplace",
						"label": "address",
						"numberOfBytes": "20"
					},
					"t_bool": {
						"encoding": "inplace",
						"label": "bool",
						"numberOfBytes": "1"
					},
					"t_contract(IERC20)294": {
						"encoding": "inplace",
						"label": "contract IERC20",
						"numberOfBytes": "20"
					},
					"t_mapping(t_address,t_bool)": {
						"encoding": "mapping",
						"key": "t_address",
						"label": "mapping(address => bool)",
						"numberOfBytes": "32",
						"value": "t_bool"
					},
					"t_mapping(t_address,t_uint256)": {
						"encoding": "mapping",
						"key": "t_address",
						"label": "mapping(address => uint256)",
						"numberOfBytes": "32",
						"value": "t_uint256"
					},
					"t_uint256": {
						"encoding": "inplace",
						"label": "uint256",
						"numberOfBytes": "32"
					},
					"t_uint8": {
						"encoding": "inplace",
						"label": "uint8",
						"numberOfBytes": "1"
					}
				}
			},
			"userdoc": {
				"kind": "user",
				"methods": {},
				"version": 1
			}
		}
	}
}