{
	"contracts/PublicSaleLaunch.sol": {
		"PublicSaleLaunch": {
			"abi": [
				{
					"inputs": [
						{
							"internalType": "contract IERC20",
							"name": "_grb",
							"type": "address"
						},
						{
							"internalType": "contract IERC20",
							"name": "_usdc",
							"type": "address"
						}
					],
					"stateMutability": "nonpayable",
					"type": "constructor"
				},
				{
					"anonymous": false,
					"inputs": [
						{
							"indexed": false,
							"internalType": "address",
							"name": "_user",
							"type": "address"
						},
						{
							"indexed": false,
							"internalType": "uint256",
							"name": "_payAmt",
							"type": "uint256"
						},
						{
							"indexed": false,
							"internalType": "uint256",
							"name": "_grbReceive",
							"type": "uint256"
						}
					],
					"name": "onBuy",
					"type": "event"
				},
				{
					"inputs": [],
					"name": "ENABLE",
					"outputs": [
						{
							"internalType": "bool",
							"name": "",
							"type": "bool"
						}
					],
					"stateMutability": "view",
					"type": "function"
				},
				{
					"inputs": [],
					"name": "GRB",
					"outputs": [
						{
							"internalType": "contract IERC20",
							"name": "",
							"type": "address"
						}
					],
					"stateMutability": "view",
					"type": "function"
				},
				{
					"inputs": [],
					"name": "HARD_CAP_PER_USER",
					"outputs": [
						{
							"internalType": "uint256",
							"name": "",
							"type": "uint256"
						}
					],
					"stateMutability": "view",
					"type": "function"
				},
				{
					"inputs": [],
					"name": "MIN_BUY",
					"outputs": [
						{
							"internalType": "uint256",
							"name": "",
							"type": "uint256"
						}
					],
					"stateMutability": "view",
					"type": "function"
				},
				{
					"inputs": [],
					"name": "SALE_TIME_PERIOD",
					"outputs": [
						{
							"internalType": "uint256",
							"name": "",
							"type": "uint256"
						}
					],
					"stateMutability": "view",
					"type": "function"
				},
				{
					"inputs": [],
					"name": "USDC",
					"outputs": [
						{
							"internalType": "contract IERC20",
							"name": "",
							"type": "address"
						}
					],
					"stateMutability": "view",
					"type": "function"
				},
				{
					"inputs": [],
					"name": "VERSION",
					"outputs": [
						{
							"internalType": "uint8",
							"name": "",
							"type": "uint8"
						}
					],
					"stateMutability": "view",
					"type": "function"
				},
				{
					"inputs": [
						{
							"internalType": "uint256",
							"name": "_payAmt",
							"type": "uint256"
						}
					],
					"name": "buy",
					"outputs": [],
					"stateMutability": "nonpayable",
					"type": "function"
				},
				{
					"inputs": [],
					"name": "disable",
					"outputs": [],
					"stateMutability": "nonpayable",
					"type": "function"
				},
				{
					"inputs": [],
					"name": "enable",
					"outputs": [],
					"stateMutability": "nonpayable",
					"type": "function"
				},
				{
					"inputs": [],
					"name": "endTime",
					"outputs": [
						{
							"internalType": "uint256",
							"name": "",
							"type": "uint256"
						}
					],
					"stateMutability": "view",
					"type": "function"
				},
				{
					"inputs": [
						{
							"internalType": "address",
							"name": "_user",
							"type": "address"
						}
					],
					"name": "getData",
					"outputs": [
						{
							"internalType": "uint256",
							"name": "uUSDCBal_",
							"type": "uint256"
						},
						{
							"internalType": "uint256",
							"name": "uMaxGrbBuy_",
							"type": "uint256"
						},
						{
							"internalType": "uint256",
							"name": "uMaxUSDCPay_",
							"type": "uint256"
						},
						{
							"internalType": "uint256",
							"name": "cUSDCBal_",
							"type": "uint256"
						},
						{
							"internalType": "uint256",
							"name": "totalSale_",
							"type": "uint256"
						},
						{
							"internalType": "uint256",
							"name": "salePrice_",
							"type": "uint256"
						},
						{
							"internalType": "uint256",
							"name": "totalPurchased_",
							"type": "uint256"
						},
						{
							"internalType": "uint256",
							"name": "allowed_",
							"type": "uint256"
						}
					],
					"stateMutability": "view",
					"type": "function"
				},
				{
					"inputs": [
						{
							"internalType": "address",
							"name": "_user",
							"type": "address"
						}
					],
					"name": "getMaxBuyOf",
					"outputs": [
						{
							"internalType": "uint256",
							"name": "",
							"type": "uint256"
						}
					],
					"stateMutability": "view",
					"type": "function"
				},
				{
					"inputs": [],
					"name": "getTotalSale",
					"outputs": [
						{
							"internalType": "uint256",
							"name": "",
							"type": "uint256"
						}
					],
					"stateMutability": "view",
					"type": "function"
				},
				{
					"inputs": [],
					"name": "getUSDCBalance",
					"outputs": [
						{
							"internalType": "uint256",
							"name": "",
							"type": "uint256"
						}
					],
					"stateMutability": "view",
					"type": "function"
				},
				{
					"inputs": [
						{
							"internalType": "contract IERC20",
							"name": "_token",
							"type": "address"
						}
					],
					"name": "moveFund",
					"outputs": [],
					"stateMutability": "nonpayable",
					"type": "function"
				},
				{
					"inputs": [],
					"name": "owner",
					"outputs": [
						{
							"internalType": "address",
							"name": "",
							"type": "address"
						}
					],
					"stateMutability": "view",
					"type": "function"
				},
				{
					"inputs": [],
					"name": "salePrice",
					"outputs": [
						{
							"internalType": "uint256",
							"name": "",
							"type": "uint256"
						}
					],
					"stateMutability": "view",
					"type": "function"
				},
				{
					"inputs": [
						{
							"internalType": "uint256",
							"name": "_value",
							"type": "uint256"
						}
					],
					"name": "setEndTime",
					"outputs": [],
					"stateMutability": "nonpayable",
					"type": "function"
				},
				{
					"inputs": [
						{
							"internalType": "contract IERC20",
							"name": "_grb",
							"type": "address"
						}
					],
					"name": "setGRBToken",
					"outputs": [],
					"stateMutability": "nonpayable",
					"type": "function"
				},
				{
					"inputs": [
						{
							"internalType": "uint256",
							"name": "_value",
							"type": "uint256"
						}
					],
					"name": "setHardCapPerUser",
					"outputs": [],
					"stateMutability": "nonpayable",
					"type": "function"
				},
				{
					"inputs": [
						{
							"internalType": "uint256",
							"name": "_value",
							"type": "uint256"
						}
					],
					"name": "setMinBuy",
					"outputs": [],
					"stateMutability": "nonpayable",
					"type": "function"
				},
				{
					"inputs": [
						{
							"internalType": "uint256",
							"name": "_value",
							"type": "uint256"
						}
					],
					"name": "setSalePrice",
					"outputs": [],
					"stateMutability": "nonpayable",
					"type": "function"
				},
				{
					"inputs": [
						{
							"internalType": "contract IERC20",
							"name": "_usdc",
							"type": "address"
						}
					],
					"name": "setUSDCToken",
					"outputs": [],
					"stateMutability": "nonpayable",
					"type": "function"
				},
				{
					"inputs": [],
					"name": "start",
					"outputs": [],
					"stateMutability": "nonpayable",
					"type": "function"
				},
				{
					"inputs": [
						{
							"internalType": "address",
							"name": "",
							"type": "address"
						}
					],
					"name": "totalBoughtOf",
					"outputs": [
						{
							"internalType": "uint256",
							"name": "",
							"type": "uint256"
						}
					],
					"stateMutability": "view",
					"type": "function"
				},
				{
					"inputs": [],
					"name": "totalPurchased",
					"outputs": [
						{
							"internalType": "uint256",
							"name": "",
							"type": "uint256"
						}
					],
					"stateMutability": "view",
					"type": "function"
				},
				{
					"inputs": [
						{
							"internalType": "address",
							"name": "_newOwner",
							"type": "address"
						}
					],
					"name": "transferOwnership",
					"outputs": [],
					"stateMutability": "nonpayable",
					"type": "function"
				},
				{
					"stateMutability": "payable",
					"type": "receive"
				}
			],
			"devdoc": {
				"kind": "dev",
				"methods": {},
				"version": 1
			},
			"evm": {
				"assembly": "    /* \"contracts/PublicSaleLaunch.sol\":8496:13676  contract PublicSaleLaunch {... */\n  mstore(0x40, 0x80)\n    /* \"contracts/PublicSaleLaunch.sol\":8551:8554  100 */\n  0x64\n    /* \"contracts/PublicSaleLaunch.sol\":8528:8554  uint8 public VERSION = 100 */\n  0x00\n  dup1\n  0x0100\n  exp\n  dup2\n  sload\n  dup2\n  0xff\n  mul\n  not\n  and\n  swap1\n  dup4\n  0xff\n  and\n  mul\n  or\n  swap1\n  sstore\n  pop\n    /* \"contracts/PublicSaleLaunch.sol\":8701:8708  4 * 1e4 */\n  0x9c40\n    /* \"contracts/PublicSaleLaunch.sol\":8674:8708  uint256 public salePrice = 4 * 1e4 */\n  0x03\n  sstore\n    /* \"contracts/PublicSaleLaunch.sol\":8828:8829  0 */\n  0x00\n    /* \"contracts/PublicSaleLaunch.sol\":8796:8829  uint256 public totalPurchased = 0 */\n  0x04\n  sstore\n    /* \"contracts/PublicSaleLaunch.sol\":8860:8861  0 */\n  0x00\n    /* \"contracts/PublicSaleLaunch.sol\":8835:8861  uint256 public endTime = 0 */\n  0x05\n  sstore\n    /* \"contracts/PublicSaleLaunch.sol\":8889:8894  false */\n  0x00\n    /* \"contracts/PublicSaleLaunch.sol\":8868:8894  bool public ENABLE = false */\n  0x06\n  exp(0x0100, 0x00)\n  dup2\n  sload\n  dup2\n  0xff\n  mul\n  not\n  and\n  swap1\n  dup4\n  iszero\n  iszero\n  mul\n  or\n  swap1\n  sstore\n  pop\n    /* \"contracts/PublicSaleLaunch.sol\":8939:8950  1250 * 1e18 */\n  0x43c33c193756480000\n    /* \"contracts/PublicSaleLaunch.sol\":8904:8950  uint256 public HARD_CAP_PER_USER = 1250 * 1e18 */\n  0x07\n  sstore\n    /* \"contracts/PublicSaleLaunch.sol\":8988:8998  750 * 1e18 */\n  0x28a857425466f80000\n    /* \"contracts/PublicSaleLaunch.sol\":8963:8998  uint256 public MIN_BUY = 750 * 1e18 */\n  0x08\n  sstore\n    /* \"contracts/PublicSaleLaunch.sol\":9045:9056  3 * 60 * 60 */\n  0x2a30\n    /* \"contracts/PublicSaleLaunch.sol\":9011:9056  uint256 public SALE_TIME_PERIOD = 3 * 60 * 60 */\n  0x09\n  sstore\n    /* \"contracts/PublicSaleLaunch.sol\":9414:9553  constructor(... */\n  callvalue\n  dup1\n  iszero\n  tag_1\n  jumpi\n  0x00\n  dup1\n  revert\ntag_1:\n  pop\n  mload(0x40)\n  sub(codesize, bytecodeSize)\n  dup1\n  bytecodeSize\n  dup4\n  codecopy\n  dup2\n  dup2\n  add\n  0x40\n  mstore\n  dup2\n  add\n  swap1\n  tag_2\n  swap2\n  swap1\n  tag_3\n  jump\t// in\ntag_2:\n    /* \"contracts/PublicSaleLaunch.sol\":9491:9495  _grb */\n  dup2\n    /* \"contracts/PublicSaleLaunch.sol\":9485:9488  GRB */\n  0x01\n  0x00\n    /* \"contracts/PublicSaleLaunch.sol\":9485:9495  GRB = _grb */\n  0x0100\n  exp\n  dup2\n  sload\n  dup2\n  0xffffffffffffffffffffffffffffffffffffffff\n  mul\n  not\n  and\n  swap1\n  dup4\n  0xffffffffffffffffffffffffffffffffffffffff\n  and\n  mul\n  or\n  swap1\n  sstore\n  pop\n    /* \"contracts/PublicSaleLaunch.sol\":9512:9517  _usdc */\n  dup1\n    /* \"contracts/PublicSaleLaunch.sol\":9505:9509  USDC */\n  0x02\n  0x00\n    /* \"contracts/PublicSaleLaunch.sol\":9505:9517  USDC = _usdc */\n  0x0100\n  exp\n  dup2\n  sload\n  dup2\n  0xffffffffffffffffffffffffffffffffffffffff\n  mul\n  not\n  and\n  swap1\n  dup4\n  0xffffffffffffffffffffffffffffffffffffffff\n  and\n  mul\n  or\n  swap1\n  sstore\n  pop\n    /* \"contracts/PublicSaleLaunch.sol\":9536:9546  msg.sender */\n  caller\n    /* \"contracts/PublicSaleLaunch.sol\":9528:9533  owner */\n  0x00\n  0x01\n    /* \"contracts/PublicSaleLaunch.sol\":9528:9546  owner = msg.sender */\n  0x0100\n  exp\n  dup2\n  sload\n  dup2\n  0xffffffffffffffffffffffffffffffffffffffff\n  mul\n  not\n  and\n  swap1\n  dup4\n  0xffffffffffffffffffffffffffffffffffffffff\n  and\n  mul\n  or\n  swap1\n  sstore\n  pop\n    /* \"contracts/PublicSaleLaunch.sol\":9414:9553  constructor(... */\n  pop\n  pop\n    /* \"contracts/PublicSaleLaunch.sol\":8496:13676  contract PublicSaleLaunch {... */\n  jump(tag_6)\n    /* \"#utility.yul\":7:178   */\ntag_8:\n    /* \"#utility.yul\":78:83   */\n  0x00\n    /* \"#utility.yul\":109:115   */\n  dup2\n    /* \"#utility.yul\":103:116   */\n  mload\n    /* \"#utility.yul\":94:116   */\n  swap1\n  pop\n    /* \"#utility.yul\":125:172   */\n  tag_10\n    /* \"#utility.yul\":166:171   */\n  dup2\n    /* \"#utility.yul\":125:172   */\n  tag_11\n  jump\t// in\ntag_10:\n    /* \"#utility.yul\":7:178   */\n  swap3\n  swap2\n  pop\n  pop\n  jump\t// out\n    /* \"#utility.yul\":184:747   */\ntag_3:\n    /* \"#utility.yul\":291:297   */\n  0x00\n    /* \"#utility.yul\":299:305   */\n  dup1\n    /* \"#utility.yul\":348:350   */\n  0x40\n    /* \"#utility.yul\":336:345   */\n  dup4\n    /* \"#utility.yul\":327:334   */\n  dup6\n    /* \"#utility.yul\":323:346   */\n  sub\n    /* \"#utility.yul\":319:351   */\n  slt\n    /* \"#utility.yul\":316:435   */\n  iszero\n  tag_13\n  jumpi\n    /* \"#utility.yul\":354:433   */\n  tag_14\n  tag_15\n  jump\t// in\ntag_14:\n    /* \"#utility.yul\":316:435   */\ntag_13:\n    /* \"#utility.yul\":474:475   */\n  0x00\n    /* \"#utility.yul\":499:577   */\n  tag_16\n    /* \"#utility.yul\":569:576   */\n  dup6\n    /* \"#utility.yul\":560:566   */\n  dup3\n    /* \"#utility.yul\":549:558   */\n  dup7\n    /* \"#utility.yul\":545:567   */\n  add\n    /* \"#utility.yul\":499:577   */\n  tag_8\n  jump\t// in\ntag_16:\n    /* \"#utility.yul\":489:577   */\n  swap3\n  pop\n    /* \"#utility.yul\":445:587   */\n  pop\n    /* \"#utility.yul\":626:628   */\n  0x20\n    /* \"#utility.yul\":652:730   */\n  tag_17\n    /* \"#utility.yul\":722:729   */\n  dup6\n    /* \"#utility.yul\":713:719   */\n  dup3\n    /* \"#utility.yul\":702:711   */\n  dup7\n    /* \"#utility.yul\":698:720   */\n  add\n    /* \"#utility.yul\":652:730   */\n  tag_8\n  jump\t// in\ntag_17:\n    /* \"#utility.yul\":642:730   */\n  swap2\n  pop\n    /* \"#utility.yul\":597:740   */\n  pop\n    /* \"#utility.yul\":184:747   */\n  swap3\n  pop\n  swap3\n  swap1\n  pop\n  jump\t// out\n    /* \"#utility.yul\":834:930   */\ntag_20:\n    /* \"#utility.yul\":871:878   */\n  0x00\n    /* \"#utility.yul\":900:924   */\n  tag_22\n    /* \"#utility.yul\":918:923   */\n  dup3\n    /* \"#utility.yul\":900:924   */\n  tag_23\n  jump\t// in\ntag_22:\n    /* \"#utility.yul\":889:924   */\n  swap1\n  pop\n    /* \"#utility.yul\":834:930   */\n  swap2\n  swap1\n  pop\n  jump\t// out\n    /* \"#utility.yul\":936:1046   */\ntag_24:\n    /* \"#utility.yul\":987:994   */\n  0x00\n    /* \"#utility.yul\":1016:1040   */\n  tag_26\n    /* \"#utility.yul\":1034:1039   */\n  dup3\n    /* \"#utility.yul\":1016:1040   */\n  tag_20\n  jump\t// in\ntag_26:\n    /* \"#utility.yul\":1005:1040   */\n  swap1\n  pop\n    /* \"#utility.yul\":936:1046   */\n  swap2\n  swap1\n  pop\n  jump\t// out\n    /* \"#utility.yul\":1052:1178   */\ntag_23:\n    /* \"#utility.yul\":1089:1096   */\n  0x00\n    /* \"#utility.yul\":1129:1171   */\n  0xffffffffffffffffffffffffffffffffffffffff\n    /* \"#utility.yul\":1122:1127   */\n  dup3\n    /* \"#utility.yul\":1118:1172   */\n  and\n    /* \"#utility.yul\":1107:1172   */\n  swap1\n  pop\n    /* \"#utility.yul\":1052:1178   */\n  swap2\n  swap1\n  pop\n  jump\t// out\n    /* \"#utility.yul\":1307:1424   */\ntag_15:\n    /* \"#utility.yul\":1416:1417   */\n  0x00\n    /* \"#utility.yul\":1413:1414   */\n  dup1\n    /* \"#utility.yul\":1406:1418   */\n  revert\n    /* \"#utility.yul\":1430:1580   */\ntag_11:\n    /* \"#utility.yul\":1517:1555   */\n  tag_32\n    /* \"#utility.yul\":1549:1554   */\n  dup2\n    /* \"#utility.yul\":1517:1555   */\n  tag_24\n  jump\t// in\ntag_32:\n    /* \"#utility.yul\":1510:1515   */\n  dup2\n    /* \"#utility.yul\":1507:1556   */\n  eq\n    /* \"#utility.yul\":1497:1574   */\n  tag_33\n  jumpi\n    /* \"#utility.yul\":1570:1571   */\n  0x00\n    /* \"#utility.yul\":1567:1568   */\n  dup1\n    /* \"#utility.yul\":1560:1572   */\n  revert\n    /* \"#utility.yul\":1497:1574   */\ntag_33:\n    /* \"#utility.yul\":1430:1580   */\n  pop\n  jump\t// out\n    /* \"contracts/PublicSaleLaunch.sol\":8496:13676  contract PublicSaleLaunch {... */\ntag_6:\n  dataSize(sub_0)\n  dup1\n  dataOffset(sub_0)\n  0x00\n  codecopy\n  0x00\n  return\nstop\n\nsub_0: assembly {\n        /* \"contracts/PublicSaleLaunch.sol\":8496:13676  contract PublicSaleLaunch {... */\n      mstore(0x40, 0x80)\n      jumpi(tag_1, lt(calldatasize, 0x04))\n      shr(0xe0, calldataload(0x00))\n      dup1\n      0x8da5cb5b\n      gt\n      tag_31\n      jumpi\n      dup1\n      0xbe9a6555\n      gt\n      tag_32\n      jumpi\n      dup1\n      0xe632c2f3\n      gt\n      tag_33\n      jumpi\n      dup1\n      0xe632c2f3\n      eq\n      tag_27\n      jumpi\n      dup1\n      0xf2fde38b\n      eq\n      tag_28\n      jumpi\n      dup1\n      0xf51f96dd\n      eq\n      tag_29\n      jumpi\n      dup1\n      0xffa1ad74\n      eq\n      tag_30\n      jumpi\n      jump(tag_2)\n    tag_33:\n      dup1\n      0xbe9a6555\n      eq\n      tag_24\n      jumpi\n      dup1\n      0xccb98ffc\n      eq\n      tag_25\n      jumpi\n      dup1\n      0xd96a094a\n      eq\n      tag_26\n      jumpi\n      jump(tag_2)\n    tag_32:\n      dup1\n      0xa2b0106b\n      gt\n      tag_34\n      jumpi\n      dup1\n      0xa2b0106b\n      eq\n      tag_20\n      jumpi\n      dup1\n      0xa3907d71\n      eq\n      tag_21\n      jumpi\n      dup1\n      0xb0176ce8\n      eq\n      tag_22\n      jumpi\n      dup1\n      0xbcaaf662\n      eq\n      tag_23\n      jumpi\n      jump(tag_2)\n    tag_34:\n      dup1\n      0x8da5cb5b\n      eq\n      tag_17\n      jumpi\n      dup1\n      0x90c8dd17\n      eq\n      tag_18\n      jumpi\n      dup1\n      0x92f6386a\n      eq\n      tag_19\n      jumpi\n      jump(tag_2)\n    tag_31:\n      dup1\n      0x38266b22\n      gt\n      tag_35\n      jumpi\n      dup1\n      0x3cfd1ccc\n      gt\n      tag_36\n      jumpi\n      dup1\n      0x3cfd1ccc\n      eq\n      tag_13\n      jumpi\n      dup1\n      0x50c19c0b\n      eq\n      tag_14\n      jumpi\n      dup1\n      0x860779e7\n      eq\n      tag_15\n      jumpi\n      dup1\n      0x89a30271\n      eq\n      tag_16\n      jumpi\n      jump(tag_2)\n    tag_36:\n      dup1\n      0x38266b22\n      eq\n      tag_10\n      jumpi\n      dup1\n      0x3af96b90\n      eq\n      tag_11\n      jumpi\n      dup1\n      0x3c6c26f9\n      eq\n      tag_12\n      jumpi\n      jump(tag_2)\n    tag_35:\n      dup1\n      0x247b9818\n      gt\n      tag_37\n      jumpi\n      dup1\n      0x247b9818\n      eq\n      tag_6\n      jumpi\n      dup1\n      0x2acfc3da\n      eq\n      tag_7\n      jumpi\n      dup1\n      0x2f2770db\n      eq\n      tag_8\n      jumpi\n      dup1\n      0x3197cbb6\n      eq\n      tag_9\n      jumpi\n      jump(tag_2)\n    tag_37:\n      dup1\n      0x0f5a9d01\n      eq\n      tag_3\n      jumpi\n      dup1\n      0x1919fed7\n      eq\n      tag_4\n      jumpi\n      dup1\n      0x1f2475bd\n      eq\n      tag_5\n      jumpi\n      jump(tag_2)\n    tag_1:\n      jumpi(tag_2, calldatasize)\n      stop\n    tag_2:\n      0x00\n      dup1\n      revert\n        /* \"contracts/PublicSaleLaunch.sol\":10205:10353  function setUSDCToken(IERC20 _usdc) public onlyOwner {... */\n    tag_3:\n      callvalue\n      dup1\n      iszero\n      tag_40\n      jumpi\n      0x00\n      dup1\n      revert\n    tag_40:\n      pop\n      tag_41\n      0x04\n      dup1\n      calldatasize\n      sub\n      dup2\n      add\n      swap1\n      tag_42\n      swap2\n      swap1\n      tag_43\n      jump\t// in\n    tag_42:\n      tag_44\n      jump\t// in\n    tag_41:\n      stop\n        /* \"contracts/PublicSaleLaunch.sol\":10359:10450  function setSalePrice(uint256 _value) public onlyOwner {... */\n    tag_4:\n      callvalue\n      dup1\n      iszero\n      tag_45\n      jumpi\n      0x00\n      dup1\n      revert\n    tag_45:\n      pop\n      tag_46\n      0x04\n      dup1\n      calldatasize\n      sub\n      dup2\n      add\n      swap1\n      tag_47\n      swap2\n      swap1\n      tag_48\n      jump\t// in\n    tag_47:\n      tag_49\n      jump\t// in\n    tag_46:\n      stop\n        /* \"contracts/PublicSaleLaunch.sol\":12914:13019  function getTotalSale() public view returns(uint256) {... */\n    tag_5:\n      callvalue\n      dup1\n      iszero\n      tag_50\n      jumpi\n      0x00\n      dup1\n      revert\n    tag_50:\n      pop\n      tag_51\n      tag_52\n      jump\t// in\n    tag_51:\n      mload(0x40)\n      tag_53\n      swap2\n      swap1\n      tag_54\n      jump\t// in\n    tag_53:\n      mload(0x40)\n      dup1\n      swap2\n      sub\n      swap1\n      return\n        /* \"contracts/PublicSaleLaunch.sol\":9011:9056  uint256 public SALE_TIME_PERIOD = 3 * 60 * 60 */\n    tag_6:\n      callvalue\n      dup1\n      iszero\n      tag_55\n      jumpi\n      0x00\n      dup1\n      revert\n    tag_55:\n      pop\n      tag_56\n      tag_57\n      jump\t// in\n    tag_56:\n      mload(0x40)\n      tag_58\n      swap2\n      swap1\n      tag_54\n      jump\t// in\n    tag_58:\n      mload(0x40)\n      dup1\n      swap2\n      sub\n      swap1\n      return\n        /* \"contracts/PublicSaleLaunch.sol\":10056:10199  function setGRBToken(IERC20 _grb) public onlyOwner {... */\n    tag_7:\n      callvalue\n      dup1\n      iszero\n      tag_59\n      jumpi\n      0x00\n      dup1\n      revert\n    tag_59:\n      pop\n      tag_60\n      0x04\n      dup1\n      calldatasize\n      sub\n      dup2\n      add\n      swap1\n      tag_61\n      swap2\n      swap1\n      tag_43\n      jump\t// in\n    tag_61:\n      tag_62\n      jump\t// in\n    tag_60:\n      stop\n        /* \"contracts/PublicSaleLaunch.sol\":9664:9731  function disable() public onlyOwner {... */\n    tag_8:\n      callvalue\n      dup1\n      iszero\n      tag_63\n      jumpi\n      0x00\n      dup1\n      revert\n    tag_63:\n      pop\n      tag_64\n      tag_65\n      jump\t// in\n    tag_64:\n      stop\n        /* \"contracts/PublicSaleLaunch.sol\":8835:8861  uint256 public endTime = 0 */\n    tag_9:\n      callvalue\n      dup1\n      iszero\n      tag_66\n      jumpi\n      0x00\n      dup1\n      revert\n    tag_66:\n      pop\n      tag_67\n      tag_68\n      jump\t// in\n    tag_67:\n      mload(0x40)\n      tag_69\n      swap2\n      swap1\n      tag_54\n      jump\t// in\n    tag_69:\n      mload(0x40)\n      dup1\n      swap2\n      sub\n      swap1\n      return\n        /* \"contracts/PublicSaleLaunch.sol\":13029:13674  function getData(address _user) public view returns(... */\n    tag_10:\n      callvalue\n      dup1\n      iszero\n      tag_70\n      jumpi\n      0x00\n      dup1\n      revert\n    tag_70:\n      pop\n      tag_71\n      0x04\n      dup1\n      calldatasize\n      sub\n      dup2\n      add\n      swap1\n      tag_72\n      swap2\n      swap1\n      tag_73\n      jump\t// in\n    tag_72:\n      tag_74\n      jump\t// in\n    tag_71:\n      mload(0x40)\n      tag_75\n      swap9\n      swap8\n      swap7\n      swap6\n      swap5\n      swap4\n      swap3\n      swap2\n      swap1\n      tag_76\n      jump\t// in\n    tag_75:\n      mload(0x40)\n      dup1\n      swap2\n      sub\n      swap1\n      return\n        /* \"contracts/PublicSaleLaunch.sol\":8963:8998  uint256 public MIN_BUY = 750 * 1e18 */\n    tag_11:\n      callvalue\n      dup1\n      iszero\n      tag_77\n      jumpi\n      0x00\n      dup1\n      revert\n    tag_77:\n      pop\n      tag_78\n      tag_79\n      jump\t// in\n    tag_78:\n      mload(0x40)\n      tag_80\n      swap2\n      swap1\n      tag_54\n      jump\t// in\n    tag_80:\n      mload(0x40)\n      dup1\n      swap2\n      sub\n      swap1\n      return\n        /* \"contracts/PublicSaleLaunch.sol\":12107:12260  function moveFund(IERC20 _token) public onlyOwner {... */\n    tag_12:\n      callvalue\n      dup1\n      iszero\n      tag_81\n      jumpi\n      0x00\n      dup1\n      revert\n    tag_81:\n      pop\n      tag_82\n      0x04\n      dup1\n      calldatasize\n      sub\n      dup2\n      add\n      swap1\n      tag_83\n      swap2\n      swap1\n      tag_43\n      jump\t// in\n    tag_83:\n      tag_84\n      jump\t// in\n    tag_82:\n      stop\n        /* \"contracts/PublicSaleLaunch.sol\":12801:12909  function getUSDCBalance() public view returns(uint256) {... */\n    tag_13:\n      callvalue\n      dup1\n      iszero\n      tag_85\n      jumpi\n      0x00\n      dup1\n      revert\n    tag_85:\n      pop\n      tag_86\n      tag_87\n      jump\t// in\n    tag_86:\n      mload(0x40)\n      tag_88\n      swap2\n      swap1\n      tag_54\n      jump\t// in\n    tag_88:\n      mload(0x40)\n      dup1\n      swap2\n      sub\n      swap1\n      return\n        /* \"contracts/PublicSaleLaunch.sol\":8904:8950  uint256 public HARD_CAP_PER_USER = 1250 * 1e18 */\n    tag_14:\n      callvalue\n      dup1\n      iszero\n      tag_89\n      jumpi\n      0x00\n      dup1\n      revert\n    tag_89:\n      pop\n      tag_90\n      tag_91\n      jump\t// in\n    tag_90:\n      mload(0x40)\n      tag_92\n      swap2\n      swap1\n      tag_54\n      jump\t// in\n    tag_92:\n      mload(0x40)\n      dup1\n      swap2\n      sub\n      swap1\n      return\n        /* \"contracts/PublicSaleLaunch.sol\":10565:10650  function setMinBuy(uint256 _value) public onlyOwner {... */\n    tag_15:\n      callvalue\n      dup1\n      iszero\n      tag_93\n      jumpi\n      0x00\n      dup1\n      revert\n    tag_93:\n      pop\n      tag_94\n      0x04\n      dup1\n      calldatasize\n      sub\n      dup2\n      add\n      swap1\n      tag_95\n      swap2\n      swap1\n      tag_48\n      jump\t// in\n    tag_95:\n      tag_96\n      jump\t// in\n    tag_94:\n      stop\n        /* \"contracts/PublicSaleLaunch.sol\":8648:8666  IERC20 public USDC */\n    tag_16:\n      callvalue\n      dup1\n      iszero\n      tag_97\n      jumpi\n      0x00\n      dup1\n      revert\n    tag_97:\n      pop\n      tag_98\n      tag_99\n      jump\t// in\n    tag_98:\n      mload(0x40)\n      tag_100\n      swap2\n      swap1\n      tag_101\n      jump\t// in\n    tag_100:\n      mload(0x40)\n      dup1\n      swap2\n      sub\n      swap1\n      return\n        /* \"contracts/PublicSaleLaunch.sol\":8597:8617  address public owner */\n    tag_17:\n      callvalue\n      dup1\n      iszero\n      tag_102\n      jumpi\n      0x00\n      dup1\n      revert\n    tag_102:\n      pop\n      tag_103\n      tag_104\n      jump\t// in\n    tag_103:\n      mload(0x40)\n      tag_105\n      swap2\n      swap1\n      tag_106\n      jump\t// in\n    tag_105:\n      mload(0x40)\n      dup1\n      swap2\n      sub\n      swap1\n      return\n        /* \"contracts/PublicSaleLaunch.sol\":12270:12795  function getMaxBuyOf(address _user) public view returns(uint256) {... */\n    tag_18:\n      callvalue\n      dup1\n      iszero\n      tag_107\n      jumpi\n      0x00\n      dup1\n      revert\n    tag_107:\n      pop\n      tag_108\n      0x04\n      dup1\n      calldatasize\n      sub\n      dup2\n      add\n      swap1\n      tag_109\n      swap2\n      swap1\n      tag_73\n      jump\t// in\n    tag_109:\n      tag_110\n      jump\t// in\n    tag_108:\n      mload(0x40)\n      tag_111\n      swap2\n      swap1\n      tag_54\n      jump\t// in\n    tag_111:\n      mload(0x40)\n      dup1\n      swap2\n      sub\n      swap1\n      return\n        /* \"contracts/PublicSaleLaunch.sol\":8868:8894  bool public ENABLE = false */\n    tag_19:\n      callvalue\n      dup1\n      iszero\n      tag_112\n      jumpi\n      0x00\n      dup1\n      revert\n    tag_112:\n      pop\n      tag_113\n      tag_114\n      jump\t// in\n    tag_113:\n      mload(0x40)\n      tag_115\n      swap2\n      swap1\n      tag_116\n      jump\t// in\n    tag_115:\n      mload(0x40)\n      dup1\n      swap2\n      sub\n      swap1\n      return\n        /* \"contracts/PublicSaleLaunch.sol\":10456:10559  function setHardCapPerUser(uint256 _value) public onlyOwner {... */\n    tag_20:\n      callvalue\n      dup1\n      iszero\n      tag_117\n      jumpi\n      0x00\n      dup1\n      revert\n    tag_117:\n      pop\n      tag_118\n      0x04\n      dup1\n      calldatasize\n      sub\n      dup2\n      add\n      swap1\n      tag_119\n      swap2\n      swap1\n      tag_48\n      jump\t// in\n    tag_119:\n      tag_120\n      jump\t// in\n    tag_118:\n      stop\n        /* \"contracts/PublicSaleLaunch.sol\":9594:9659  function enable() public onlyOwner {... */\n    tag_21:\n      callvalue\n      dup1\n      iszero\n      tag_121\n      jumpi\n      0x00\n      dup1\n      revert\n    tag_121:\n      pop\n      tag_122\n      tag_123\n      jump\t// in\n    tag_122:\n      stop\n        /* \"contracts/PublicSaleLaunch.sol\":8624:8641  IERC20 public GRB */\n    tag_22:\n      callvalue\n      dup1\n      iszero\n      tag_124\n      jumpi\n      0x00\n      dup1\n      revert\n    tag_124:\n      pop\n      tag_125\n      tag_126\n      jump\t// in\n    tag_125:\n      mload(0x40)\n      tag_127\n      swap2\n      swap1\n      tag_101\n      jump\t// in\n    tag_127:\n      mload(0x40)\n      dup1\n      swap2\n      sub\n      swap1\n      return\n        /* \"contracts/PublicSaleLaunch.sol\":9069:9117  mapping(address => uint256) public totalBoughtOf */\n    tag_23:\n      callvalue\n      dup1\n      iszero\n      tag_128\n      jumpi\n      0x00\n      dup1\n      revert\n    tag_128:\n      pop\n      tag_129\n      0x04\n      dup1\n      calldatasize\n      sub\n      dup2\n      add\n      swap1\n      tag_130\n      swap2\n      swap1\n      tag_73\n      jump\t// in\n    tag_130:\n      tag_131\n      jump\t// in\n    tag_129:\n      mload(0x40)\n      tag_132\n      swap2\n      swap1\n      tag_54\n      jump\t// in\n    tag_132:\n      mload(0x40)\n      dup1\n      swap2\n      sub\n      swap1\n      return\n        /* \"contracts/PublicSaleLaunch.sol\":9839:9960  function start() public onlyOwner {... */\n    tag_24:\n      callvalue\n      dup1\n      iszero\n      tag_133\n      jumpi\n      0x00\n      dup1\n      revert\n    tag_133:\n      pop\n      tag_134\n      tag_135\n      jump\t// in\n    tag_134:\n      stop\n        /* \"contracts/PublicSaleLaunch.sol\":9965:10051  function setEndTime(uint256 _value) public onlyOwner {... */\n    tag_25:\n      callvalue\n      dup1\n      iszero\n      tag_136\n      jumpi\n      0x00\n      dup1\n      revert\n    tag_136:\n      pop\n      tag_137\n      0x04\n      dup1\n      calldatasize\n      sub\n      dup2\n      add\n      swap1\n      tag_138\n      swap2\n      swap1\n      tag_48\n      jump\t// in\n    tag_138:\n      tag_139\n      jump\t// in\n    tag_137:\n      stop\n        /* \"contracts/PublicSaleLaunch.sol\":10656:11713  function buy(uint256 _payAmt) public onlyWhitelisted {... */\n    tag_26:\n      callvalue\n      dup1\n      iszero\n      tag_140\n      jumpi\n      0x00\n      dup1\n      revert\n    tag_140:\n      pop\n      tag_141\n      0x04\n      dup1\n      calldatasize\n      sub\n      dup2\n      add\n      swap1\n      tag_142\n      swap2\n      swap1\n      tag_48\n      jump\t// in\n    tag_142:\n      tag_143\n      jump\t// in\n    tag_141:\n      stop\n        /* \"contracts/PublicSaleLaunch.sol\":8796:8829  uint256 public totalPurchased = 0 */\n    tag_27:\n      callvalue\n      dup1\n      iszero\n      tag_144\n      jumpi\n      0x00\n      dup1\n      revert\n    tag_144:\n      pop\n      tag_145\n      tag_146\n      jump\t// in\n    tag_145:\n      mload(0x40)\n      tag_147\n      swap2\n      swap1\n      tag_54\n      jump\t// in\n    tag_147:\n      mload(0x40)\n      dup1\n      swap2\n      sub\n      swap1\n      return\n        /* \"contracts/PublicSaleLaunch.sol\":9737:9834  function transferOwnership(address _newOwner) public onlyOwner {... */\n    tag_28:\n      callvalue\n      dup1\n      iszero\n      tag_148\n      jumpi\n      0x00\n      dup1\n      revert\n    tag_148:\n      pop\n      tag_149\n      0x04\n      dup1\n      calldatasize\n      sub\n      dup2\n      add\n      swap1\n      tag_150\n      swap2\n      swap1\n      tag_73\n      jump\t// in\n    tag_150:\n      tag_151\n      jump\t// in\n    tag_149:\n      stop\n        /* \"contracts/PublicSaleLaunch.sol\":8674:8708  uint256 public salePrice = 4 * 1e4 */\n    tag_29:\n      callvalue\n      dup1\n      iszero\n      tag_152\n      jumpi\n      0x00\n      dup1\n      revert\n    tag_152:\n      pop\n      tag_153\n      tag_154\n      jump\t// in\n    tag_153:\n      mload(0x40)\n      tag_155\n      swap2\n      swap1\n      tag_54\n      jump\t// in\n    tag_155:\n      mload(0x40)\n      dup1\n      swap2\n      sub\n      swap1\n      return\n        /* \"contracts/PublicSaleLaunch.sol\":8528:8554  uint8 public VERSION = 100 */\n    tag_30:\n      callvalue\n      dup1\n      iszero\n      tag_156\n      jumpi\n      0x00\n      dup1\n      revert\n    tag_156:\n      pop\n      tag_157\n      tag_158\n      jump\t// in\n    tag_157:\n      mload(0x40)\n      tag_159\n      swap2\n      swap1\n      tag_160\n      jump\t// in\n    tag_159:\n      mload(0x40)\n      dup1\n      swap2\n      sub\n      swap1\n      return\n        /* \"contracts/PublicSaleLaunch.sol\":10205:10353  function setUSDCToken(IERC20 _usdc) public onlyOwner {... */\n    tag_44:\n        /* \"contracts/PublicSaleLaunch.sol\":9177:9182  owner */\n      0x00\n      0x01\n      swap1\n      sload\n      swap1\n      0x0100\n      exp\n      swap1\n      div\n      0xffffffffffffffffffffffffffffffffffffffff\n      and\n        /* \"contracts/PublicSaleLaunch.sol\":9163:9182  msg.sender == owner */\n      0xffffffffffffffffffffffffffffffffffffffff\n      and\n        /* \"contracts/PublicSaleLaunch.sol\":9163:9173  msg.sender */\n      caller\n        /* \"contracts/PublicSaleLaunch.sol\":9163:9182  msg.sender == owner */\n      0xffffffffffffffffffffffffffffffffffffffff\n      and\n      eq\n        /* \"contracts/PublicSaleLaunch.sol\":9155:9205  require(msg.sender == owner, \"INVALID_PERMISSION\") */\n      tag_162\n      jumpi\n      mload(0x40)\n      0x08c379a000000000000000000000000000000000000000000000000000000000\n      dup2\n      mstore\n      0x04\n      add\n      tag_163\n      swap1\n      tag_164\n      jump\t// in\n    tag_163:\n      mload(0x40)\n      dup1\n      swap2\n      sub\n      swap1\n      revert\n    tag_162:\n        /* \"contracts/PublicSaleLaunch.sol\":10302:10303  0 */\n      0x00\n        /* \"contracts/PublicSaleLaunch.sol\":10276:10304  address(_usdc) != address(0) */\n      0xffffffffffffffffffffffffffffffffffffffff\n      and\n        /* \"contracts/PublicSaleLaunch.sol\":10284:10289  _usdc */\n      dup2\n        /* \"contracts/PublicSaleLaunch.sol\":10276:10304  address(_usdc) != address(0) */\n      0xffffffffffffffffffffffffffffffffffffffff\n      and\n      eq\n      iszero\n        /* \"contracts/PublicSaleLaunch.sol\":10268:10324  require(address(_usdc) != address(0), \"INVALID_ADDRESS\") */\n      tag_166\n      jumpi\n      mload(0x40)\n      0x08c379a000000000000000000000000000000000000000000000000000000000\n      dup2\n      mstore\n      0x04\n      add\n      tag_167\n      swap1\n      tag_168\n      jump\t// in\n    tag_167:\n      mload(0x40)\n      dup1\n      swap2\n      sub\n      swap1\n      revert\n    tag_166:\n        /* \"contracts/PublicSaleLaunch.sol\":10341:10346  _usdc */\n      dup1\n        /* \"contracts/PublicSaleLaunch.sol\":10334:10338  USDC */\n      0x02\n      0x00\n        /* \"contracts/PublicSaleLaunch.sol\":10334:10346  USDC = _usdc */\n      0x0100\n      exp\n      dup2\n      sload\n      dup2\n      0xffffffffffffffffffffffffffffffffffffffff\n      mul\n      not\n      and\n      swap1\n      dup4\n      0xffffffffffffffffffffffffffffffffffffffff\n      and\n      mul\n      or\n      swap1\n      sstore\n      pop\n        /* \"contracts/PublicSaleLaunch.sol\":10205:10353  function setUSDCToken(IERC20 _usdc) public onlyOwner {... */\n      pop\n      jump\t// out\n        /* \"contracts/PublicSaleLaunch.sol\":10359:10450  function setSalePrice(uint256 _value) public onlyOwner {... */\n    tag_49:\n        /* \"contracts/PublicSaleLaunch.sol\":9177:9182  owner */\n      0x00\n      0x01\n      swap1\n      sload\n      swap1\n      0x0100\n      exp\n      swap1\n      div\n      0xffffffffffffffffffffffffffffffffffffffff\n      and\n        /* \"contracts/PublicSaleLaunch.sol\":9163:9182  msg.sender == owner */\n      0xffffffffffffffffffffffffffffffffffffffff\n      and\n        /* \"contracts/PublicSaleLaunch.sol\":9163:9173  msg.sender */\n      caller\n        /* \"contracts/PublicSaleLaunch.sol\":9163:9182  msg.sender == owner */\n      0xffffffffffffffffffffffffffffffffffffffff\n      and\n      eq\n        /* \"contracts/PublicSaleLaunch.sol\":9155:9205  require(msg.sender == owner, \"INVALID_PERMISSION\") */\n      tag_170\n      jumpi\n      mload(0x40)\n      0x08c379a000000000000000000000000000000000000000000000000000000000\n      dup2\n      mstore\n      0x04\n      add\n      tag_171\n      swap1\n      tag_164\n      jump\t// in\n    tag_171:\n      mload(0x40)\n      dup1\n      swap2\n      sub\n      swap1\n      revert\n    tag_170:\n        /* \"contracts/PublicSaleLaunch.sol\":10436:10442  _value */\n      dup1\n        /* \"contracts/PublicSaleLaunch.sol\":10424:10433  salePrice */\n      0x03\n        /* \"contracts/PublicSaleLaunch.sol\":10424:10442  salePrice = _value */\n      dup2\n      swap1\n      sstore\n      pop\n        /* \"contracts/PublicSaleLaunch.sol\":10359:10450  function setSalePrice(uint256 _value) public onlyOwner {... */\n      pop\n      jump\t// out\n        /* \"contracts/PublicSaleLaunch.sol\":12914:13019  function getTotalSale() public view returns(uint256) {... */\n    tag_52:\n        /* \"contracts/PublicSaleLaunch.sol\":12958:12965  uint256 */\n      0x00\n        /* \"contracts/PublicSaleLaunch.sol\":12984:12987  GRB */\n      0x01\n      0x00\n      swap1\n      sload\n      swap1\n      0x0100\n      exp\n      swap1\n      div\n      0xffffffffffffffffffffffffffffffffffffffff\n      and\n        /* \"contracts/PublicSaleLaunch.sol\":12984:12997  GRB.balanceOf */\n      0xffffffffffffffffffffffffffffffffffffffff\n      and\n      0x70a08231\n        /* \"contracts/PublicSaleLaunch.sol\":13006:13010  this */\n      address\n        /* \"contracts/PublicSaleLaunch.sol\":12984:13012  GRB.balanceOf(address(this)) */\n      mload(0x40)\n      dup3\n      0xffffffff\n      and\n      0xe0\n      shl\n      dup2\n      mstore\n      0x04\n      add\n      tag_174\n      swap2\n      swap1\n      tag_106\n      jump\t// in\n    tag_174:\n      0x20\n      mload(0x40)\n      dup1\n      dup4\n      sub\n      dup2\n      dup7\n      dup1\n      extcodesize\n      iszero\n      dup1\n      iszero\n      tag_175\n      jumpi\n      0x00\n      dup1\n      revert\n    tag_175:\n      pop\n      gas\n      staticcall\n      iszero\n      dup1\n      iszero\n      tag_177\n      jumpi\n      returndatasize\n      0x00\n      dup1\n      returndatacopy\n      revert(0x00, returndatasize)\n    tag_177:\n      pop\n      pop\n      pop\n      pop\n      mload(0x40)\n      returndatasize\n      not(0x1f)\n      0x1f\n      dup3\n      add\n      and\n      dup3\n      add\n      dup1\n      0x40\n      mstore\n      pop\n      dup2\n      add\n      swap1\n      tag_178\n      swap2\n      swap1\n      tag_179\n      jump\t// in\n    tag_178:\n        /* \"contracts/PublicSaleLaunch.sol\":12977:13012  return GRB.balanceOf(address(this)) */\n      swap1\n      pop\n        /* \"contracts/PublicSaleLaunch.sol\":12914:13019  function getTotalSale() public view returns(uint256) {... */\n      swap1\n      jump\t// out\n        /* \"contracts/PublicSaleLaunch.sol\":9011:9056  uint256 public SALE_TIME_PERIOD = 3 * 60 * 60 */\n    tag_57:\n      sload(0x09)\n      dup2\n      jump\t// out\n        /* \"contracts/PublicSaleLaunch.sol\":10056:10199  function setGRBToken(IERC20 _grb) public onlyOwner {... */\n    tag_62:\n        /* \"contracts/PublicSaleLaunch.sol\":9177:9182  owner */\n      0x00\n      0x01\n      swap1\n      sload\n      swap1\n      0x0100\n      exp\n      swap1\n      div\n      0xffffffffffffffffffffffffffffffffffffffff\n      and\n        /* \"contracts/PublicSaleLaunch.sol\":9163:9182  msg.sender == owner */\n      0xffffffffffffffffffffffffffffffffffffffff\n      and\n        /* \"contracts/PublicSaleLaunch.sol\":9163:9173  msg.sender */\n      caller\n        /* \"contracts/PublicSaleLaunch.sol\":9163:9182  msg.sender == owner */\n      0xffffffffffffffffffffffffffffffffffffffff\n      and\n      eq\n        /* \"contracts/PublicSaleLaunch.sol\":9155:9205  require(msg.sender == owner, \"INVALID_PERMISSION\") */\n      tag_181\n      jumpi\n      mload(0x40)\n      0x08c379a000000000000000000000000000000000000000000000000000000000\n      dup2\n      mstore\n      0x04\n      add\n      tag_182\n      swap1\n      tag_164\n      jump\t// in\n    tag_182:\n      mload(0x40)\n      dup1\n      swap2\n      sub\n      swap1\n      revert\n    tag_181:\n        /* \"contracts/PublicSaleLaunch.sol\":10150:10151  0 */\n      0x00\n        /* \"contracts/PublicSaleLaunch.sol\":10125:10152  address(_grb) != address(0) */\n      0xffffffffffffffffffffffffffffffffffffffff\n      and\n        /* \"contracts/PublicSaleLaunch.sol\":10133:10137  _grb */\n      dup2\n        /* \"contracts/PublicSaleLaunch.sol\":10125:10152  address(_grb) != address(0) */\n      0xffffffffffffffffffffffffffffffffffffffff\n      and\n      eq\n      iszero\n        /* \"contracts/PublicSaleLaunch.sol\":10117:10172  require(address(_grb) != address(0), \"INVALID_ADDRESS\") */\n      tag_184\n      jumpi\n      mload(0x40)\n      0x08c379a000000000000000000000000000000000000000000000000000000000\n      dup2\n      mstore\n      0x04\n      add\n      tag_185\n      swap1\n      tag_168\n      jump\t// in\n    tag_185:\n      mload(0x40)\n      dup1\n      swap2\n      sub\n      swap1\n      revert\n    tag_184:\n        /* \"contracts/PublicSaleLaunch.sol\":10188:10192  _grb */\n      dup1\n        /* \"contracts/PublicSaleLaunch.sol\":10182:10185  GRB */\n      0x01\n      0x00\n        /* \"contracts/PublicSaleLaunch.sol\":10182:10192  GRB = _grb */\n      0x0100\n      exp\n      dup2\n      sload\n      dup2\n      0xffffffffffffffffffffffffffffffffffffffff\n      mul\n      not\n      and\n      swap1\n      dup4\n      0xffffffffffffffffffffffffffffffffffffffff\n      and\n      mul\n      or\n      swap1\n      sstore\n      pop\n        /* \"contracts/PublicSaleLaunch.sol\":10056:10199  function setGRBToken(IERC20 _grb) public onlyOwner {... */\n      pop\n      jump\t// out\n        /* \"contracts/PublicSaleLaunch.sol\":9664:9731  function disable() public onlyOwner {... */\n    tag_65:\n        /* \"contracts/PublicSaleLaunch.sol\":9177:9182  owner */\n      0x00\n      0x01\n      swap1\n      sload\n      swap1\n      0x0100\n      exp\n      swap1\n      div\n      0xffffffffffffffffffffffffffffffffffffffff\n      and\n        /* \"contracts/PublicSaleLaunch.sol\":9163:9182  msg.sender == owner */\n      0xffffffffffffffffffffffffffffffffffffffff\n      and\n        /* \"contracts/PublicSaleLaunch.sol\":9163:9173  msg.sender */\n      caller\n        /* \"contracts/PublicSaleLaunch.sol\":9163:9182  msg.sender == owner */\n      0xffffffffffffffffffffffffffffffffffffffff\n      and\n      eq\n        /* \"contracts/PublicSaleLaunch.sol\":9155:9205  require(msg.sender == owner, \"INVALID_PERMISSION\") */\n      tag_187\n      jumpi\n      mload(0x40)\n      0x08c379a000000000000000000000000000000000000000000000000000000000\n      dup2\n      mstore\n      0x04\n      add\n      tag_188\n      swap1\n      tag_164\n      jump\t// in\n    tag_188:\n      mload(0x40)\n      dup1\n      swap2\n      sub\n      swap1\n      revert\n    tag_187:\n        /* \"contracts/PublicSaleLaunch.sol\":9719:9724  false */\n      0x00\n        /* \"contracts/PublicSaleLaunch.sol\":9710:9716  ENABLE */\n      0x06\n      0x00\n        /* \"contracts/PublicSaleLaunch.sol\":9710:9724  ENABLE = false */\n      0x0100\n      exp\n      dup2\n      sload\n      dup2\n      0xff\n      mul\n      not\n      and\n      swap1\n      dup4\n      iszero\n      iszero\n      mul\n      or\n      swap1\n      sstore\n      pop\n        /* \"contracts/PublicSaleLaunch.sol\":9664:9731  function disable() public onlyOwner {... */\n      jump\t// out\n        /* \"contracts/PublicSaleLaunch.sol\":8835:8861  uint256 public endTime = 0 */\n    tag_68:\n      sload(0x05)\n      dup2\n      jump\t// out\n        /* \"contracts/PublicSaleLaunch.sol\":13029:13674  function getData(address _user) public view returns(... */\n    tag_74:\n        /* \"contracts/PublicSaleLaunch.sol\":13090:13107  uint256 uUSDCBal_ */\n      0x00\n        /* \"contracts/PublicSaleLaunch.sol\":13117:13136  uint256 uMaxGrbBuy_ */\n      dup1\n        /* \"contracts/PublicSaleLaunch.sol\":13146:13166  uint256 uMaxUSDCPay_ */\n      0x00\n        /* \"contracts/PublicSaleLaunch.sol\":13176:13193  uint256 cUSDCBal_ */\n      dup1\n        /* \"contracts/PublicSaleLaunch.sol\":13203:13221  uint256 totalSale_ */\n      0x00\n        /* \"contracts/PublicSaleLaunch.sol\":13231:13249  uint256 salePrice_ */\n      dup1\n        /* \"contracts/PublicSaleLaunch.sol\":13259:13282  uint256 totalPurchased_ */\n      0x00\n        /* \"contracts/PublicSaleLaunch.sol\":13292:13308  uint256 allowed_ */\n      dup1\n        /* \"contracts/PublicSaleLaunch.sol\":13337:13341  USDC */\n      0x02\n      0x00\n      swap1\n      sload\n      swap1\n      0x0100\n      exp\n      swap1\n      div\n      0xffffffffffffffffffffffffffffffffffffffff\n      and\n        /* \"contracts/PublicSaleLaunch.sol\":13337:13351  USDC.balanceOf */\n      0xffffffffffffffffffffffffffffffffffffffff\n      and\n      0x70a08231\n        /* \"contracts/PublicSaleLaunch.sol\":13352:13357  _user */\n      dup11\n        /* \"contracts/PublicSaleLaunch.sol\":13337:13358  USDC.balanceOf(_user) */\n      mload(0x40)\n      dup3\n      0xffffffff\n      and\n      0xe0\n      shl\n      dup2\n      mstore\n      0x04\n      add\n      tag_191\n      swap2\n      swap1\n      tag_106\n      jump\t// in\n    tag_191:\n      0x20\n      mload(0x40)\n      dup1\n      dup4\n      sub\n      dup2\n      dup7\n      dup1\n      extcodesize\n      iszero\n      dup1\n      iszero\n      tag_192\n      jumpi\n      0x00\n      dup1\n      revert\n    tag_192:\n      pop\n      gas\n      staticcall\n      iszero\n      dup1\n      iszero\n      tag_194\n      jumpi\n      returndatasize\n      0x00\n      dup1\n      returndatacopy\n      revert(0x00, returndatasize)\n    tag_194:\n      pop\n      pop\n      pop\n      pop\n      mload(0x40)\n      returndatasize\n      not(0x1f)\n      0x1f\n      dup3\n      add\n      and\n      dup3\n      add\n      dup1\n      0x40\n      mstore\n      pop\n      dup2\n      add\n      swap1\n      tag_195\n      swap2\n      swap1\n      tag_179\n      jump\t// in\n    tag_195:\n        /* \"contracts/PublicSaleLaunch.sol\":13325:13358  uUSDCBal_ = USDC.balanceOf(_user) */\n      swap8\n      pop\n        /* \"contracts/PublicSaleLaunch.sol\":13382:13400  getMaxBuyOf(_user) */\n      tag_196\n        /* \"contracts/PublicSaleLaunch.sol\":13394:13399  _user */\n      dup10\n        /* \"contracts/PublicSaleLaunch.sol\":13382:13393  getMaxBuyOf */\n      tag_110\n        /* \"contracts/PublicSaleLaunch.sol\":13382:13400  getMaxBuyOf(_user) */\n      jump\t// in\n    tag_196:\n        /* \"contracts/PublicSaleLaunch.sol\":13368:13400  uMaxGrbBuy_ = getMaxBuyOf(_user) */\n      swap7\n      pop\n        /* \"contracts/PublicSaleLaunch.sol\":13425:13461  uMaxGrbBuy_.mul(salePrice).div(1e18) */\n      tag_197\n        /* \"contracts/PublicSaleLaunch.sol\":13456:13460  1e18 */\n      0x0de0b6b3a7640000\n        /* \"contracts/PublicSaleLaunch.sol\":13425:13451  uMaxGrbBuy_.mul(salePrice) */\n      tag_198\n        /* \"contracts/PublicSaleLaunch.sol\":13441:13450  salePrice */\n      sload(0x03)\n        /* \"contracts/PublicSaleLaunch.sol\":13425:13436  uMaxGrbBuy_ */\n      dup11\n        /* \"contracts/PublicSaleLaunch.sol\":13425:13440  uMaxGrbBuy_.mul */\n      tag_199\n      swap1\n        /* \"contracts/PublicSaleLaunch.sol\":13425:13451  uMaxGrbBuy_.mul(salePrice) */\n      swap2\n      swap1\n      0xffffffff\n      and\n      jump\t// in\n    tag_198:\n        /* \"contracts/PublicSaleLaunch.sol\":13425:13455  uMaxGrbBuy_.mul(salePrice).div */\n      tag_200\n      swap1\n        /* \"contracts/PublicSaleLaunch.sol\":13425:13461  uMaxGrbBuy_.mul(salePrice).div(1e18) */\n      swap2\n      swap1\n      0xffffffff\n      and\n      jump\t// in\n    tag_197:\n        /* \"contracts/PublicSaleLaunch.sol\":13410:13461  uMaxUSDCPay_ = uMaxGrbBuy_.mul(salePrice).div(1e18) */\n      swap6\n      pop\n        /* \"contracts/PublicSaleLaunch.sol\":13483:13499  getUSDCBalance() */\n      tag_201\n        /* \"contracts/PublicSaleLaunch.sol\":13483:13497  getUSDCBalance */\n      tag_87\n        /* \"contracts/PublicSaleLaunch.sol\":13483:13499  getUSDCBalance() */\n      jump\t// in\n    tag_201:\n        /* \"contracts/PublicSaleLaunch.sol\":13471:13499  cUSDCBal_ = getUSDCBalance() */\n      swap5\n      pop\n        /* \"contracts/PublicSaleLaunch.sol\":13522:13536  getTotalSale() */\n      tag_202\n        /* \"contracts/PublicSaleLaunch.sol\":13522:13534  getTotalSale */\n      tag_52\n        /* \"contracts/PublicSaleLaunch.sol\":13522:13536  getTotalSale() */\n      jump\t// in\n    tag_202:\n        /* \"contracts/PublicSaleLaunch.sol\":13509:13536  totalSale_ = getTotalSale() */\n      swap4\n      pop\n        /* \"contracts/PublicSaleLaunch.sol\":13559:13568  salePrice */\n      sload(0x03)\n        /* \"contracts/PublicSaleLaunch.sol\":13546:13568  salePrice_ = salePrice */\n      swap3\n      pop\n        /* \"contracts/PublicSaleLaunch.sol\":13596:13610  totalPurchased */\n      sload(0x04)\n        /* \"contracts/PublicSaleLaunch.sol\":13578:13610  totalPurchased_ = totalPurchased */\n      swap2\n      pop\n        /* \"contracts/PublicSaleLaunch.sol\":13631:13635  USDC */\n      0x02\n      0x00\n      swap1\n      sload\n      swap1\n      0x0100\n      exp\n      swap1\n      div\n      0xffffffffffffffffffffffffffffffffffffffff\n      and\n        /* \"contracts/PublicSaleLaunch.sol\":13631:13645  USDC.allowance */\n      0xffffffffffffffffffffffffffffffffffffffff\n      and\n      0xdd62ed3e\n        /* \"contracts/PublicSaleLaunch.sol\":13646:13651  _user */\n      dup11\n        /* \"contracts/PublicSaleLaunch.sol\":13661:13665  this */\n      address\n        /* \"contracts/PublicSaleLaunch.sol\":13631:13667  USDC.allowance(_user, address(this)) */\n      mload(0x40)\n      dup4\n      0xffffffff\n      and\n      0xe0\n      shl\n      dup2\n      mstore\n      0x04\n      add\n      tag_203\n      swap3\n      swap2\n      swap1\n      tag_204\n      jump\t// in\n    tag_203:\n      0x20\n      mload(0x40)\n      dup1\n      dup4\n      sub\n      dup2\n      dup7\n      dup1\n      extcodesize\n      iszero\n      dup1\n      iszero\n      tag_205\n      jumpi\n      0x00\n      dup1\n      revert\n    tag_205:\n      pop\n      gas\n      staticcall\n      iszero\n      dup1\n      iszero\n      tag_207\n      jumpi\n      returndatasize\n      0x00\n      dup1\n      returndatacopy\n      revert(0x00, returndatasize)\n    tag_207:\n      pop\n      pop\n      pop\n      pop\n      mload(0x40)\n      returndatasize\n      not(0x1f)\n      0x1f\n      dup3\n      add\n      and\n      dup3\n      add\n      dup1\n      0x40\n      mstore\n      pop\n      dup2\n      add\n      swap1\n      tag_208\n      swap2\n      swap1\n      tag_179\n      jump\t// in\n    tag_208:\n        /* \"contracts/PublicSaleLaunch.sol\":13620:13667  allowed_ = USDC.allowance(_user, address(this)) */\n      swap1\n      pop\n        /* \"contracts/PublicSaleLaunch.sol\":13029:13674  function getData(address _user) public view returns(... */\n      swap2\n      swap4\n      swap6\n      swap8\n      pop\n      swap2\n      swap4\n      swap6\n      swap8\n      jump\t// out\n        /* \"contracts/PublicSaleLaunch.sol\":8963:8998  uint256 public MIN_BUY = 750 * 1e18 */\n    tag_79:\n      sload(0x08)\n      dup2\n      jump\t// out\n        /* \"contracts/PublicSaleLaunch.sol\":12107:12260  function moveFund(IERC20 _token) public onlyOwner {... */\n    tag_84:\n        /* \"contracts/PublicSaleLaunch.sol\":9177:9182  owner */\n      0x00\n      0x01\n      swap1\n      sload\n      swap1\n      0x0100\n      exp\n      swap1\n      div\n      0xffffffffffffffffffffffffffffffffffffffff\n      and\n        /* \"contracts/PublicSaleLaunch.sol\":9163:9182  msg.sender == owner */\n      0xffffffffffffffffffffffffffffffffffffffff\n      and\n        /* \"contracts/PublicSaleLaunch.sol\":9163:9173  msg.sender */\n      caller\n        /* \"contracts/PublicSaleLaunch.sol\":9163:9182  msg.sender == owner */\n      0xffffffffffffffffffffffffffffffffffffffff\n      and\n      eq\n        /* \"contracts/PublicSaleLaunch.sol\":9155:9205  require(msg.sender == owner, \"INVALID_PERMISSION\") */\n      tag_210\n      jumpi\n      mload(0x40)\n      0x08c379a000000000000000000000000000000000000000000000000000000000\n      dup2\n      mstore\n      0x04\n      add\n      tag_211\n      swap1\n      tag_164\n      jump\t// in\n    tag_211:\n      mload(0x40)\n      dup1\n      swap2\n      sub\n      swap1\n      revert\n    tag_210:\n        /* \"contracts/PublicSaleLaunch.sol\":12167:12180  uint256 _cBal */\n      0x00\n        /* \"contracts/PublicSaleLaunch.sol\":12183:12189  _token */\n      dup2\n        /* \"contracts/PublicSaleLaunch.sol\":12183:12199  _token.balanceOf */\n      0xffffffffffffffffffffffffffffffffffffffff\n      and\n      0x70a08231\n        /* \"contracts/PublicSaleLaunch.sol\":12208:12212  this */\n      address\n        /* \"contracts/PublicSaleLaunch.sol\":12183:12214  _token.balanceOf(address(this)) */\n      mload(0x40)\n      dup3\n      0xffffffff\n      and\n      0xe0\n      shl\n      dup2\n      mstore\n      0x04\n      add\n      tag_213\n      swap2\n      swap1\n      tag_106\n      jump\t// in\n    tag_213:\n      0x20\n      mload(0x40)\n      dup1\n      dup4\n      sub\n      dup2\n      dup7\n      dup1\n      extcodesize\n      iszero\n      dup1\n      iszero\n      tag_214\n      jumpi\n      0x00\n      dup1\n      revert\n    tag_214:\n      pop\n      gas\n      staticcall\n      iszero\n      dup1\n      iszero\n      tag_216\n      jumpi\n      returndatasize\n      0x00\n      dup1\n      returndatacopy\n      revert(0x00, returndatasize)\n    tag_216:\n      pop\n      pop\n      pop\n      pop\n      mload(0x40)\n      returndatasize\n      not(0x1f)\n      0x1f\n      dup3\n      add\n      and\n      dup3\n      add\n      dup1\n      0x40\n      mstore\n      pop\n      dup2\n      add\n      swap1\n      tag_217\n      swap2\n      swap1\n      tag_179\n      jump\t// in\n    tag_217:\n        /* \"contracts/PublicSaleLaunch.sol\":12167:12214  uint256 _cBal = _token.balanceOf(address(this)) */\n      swap1\n      pop\n        /* \"contracts/PublicSaleLaunch.sol\":12224:12230  _token */\n      dup2\n        /* \"contracts/PublicSaleLaunch.sol\":12224:12239  _token.transfer */\n      0xffffffffffffffffffffffffffffffffffffffff\n      and\n      0xa9059cbb\n        /* \"contracts/PublicSaleLaunch.sol\":12240:12245  owner */\n      0x00\n      0x01\n      swap1\n      sload\n      swap1\n      0x0100\n      exp\n      swap1\n      div\n      0xffffffffffffffffffffffffffffffffffffffff\n      and\n        /* \"contracts/PublicSaleLaunch.sol\":12247:12252  _cBal */\n      dup4\n        /* \"contracts/PublicSaleLaunch.sol\":12224:12253  _token.transfer(owner, _cBal) */\n      mload(0x40)\n      dup4\n      0xffffffff\n      and\n      0xe0\n      shl\n      dup2\n      mstore\n      0x04\n      add\n      tag_218\n      swap3\n      swap2\n      swap1\n      tag_219\n      jump\t// in\n    tag_218:\n      0x20\n      mload(0x40)\n      dup1\n      dup4\n      sub\n      dup2\n      0x00\n      dup8\n      dup1\n      extcodesize\n      iszero\n      dup1\n      iszero\n      tag_220\n      jumpi\n      0x00\n      dup1\n      revert\n    tag_220:\n      pop\n      gas\n      call\n      iszero\n      dup1\n      iszero\n      tag_222\n      jumpi\n      returndatasize\n      0x00\n      dup1\n      returndatacopy\n      revert(0x00, returndatasize)\n    tag_222:\n      pop\n      pop\n      pop\n      pop\n      mload(0x40)\n      returndatasize\n      not(0x1f)\n      0x1f\n      dup3\n      add\n      and\n      dup3\n      add\n      dup1\n      0x40\n      mstore\n      pop\n      dup2\n      add\n      swap1\n      tag_223\n      swap2\n      swap1\n      tag_224\n      jump\t// in\n    tag_223:\n      pop\n        /* \"contracts/PublicSaleLaunch.sol\":12157:12260  {... */\n      pop\n        /* \"contracts/PublicSaleLaunch.sol\":12107:12260  function moveFund(IERC20 _token) public onlyOwner {... */\n      pop\n      jump\t// out\n        /* \"contracts/PublicSaleLaunch.sol\":12801:12909  function getUSDCBalance() public view returns(uint256) {... */\n    tag_87:\n        /* \"contracts/PublicSaleLaunch.sol\":12847:12854  uint256 */\n      0x00\n        /* \"contracts/PublicSaleLaunch.sol\":12873:12877  USDC */\n      0x02\n      0x00\n      swap1\n      sload\n      swap1\n      0x0100\n      exp\n      swap1\n      div\n      0xffffffffffffffffffffffffffffffffffffffff\n      and\n        /* \"contracts/PublicSaleLaunch.sol\":12873:12887  USDC.balanceOf */\n      0xffffffffffffffffffffffffffffffffffffffff\n      and\n      0x70a08231\n        /* \"contracts/PublicSaleLaunch.sol\":12896:12900  this */\n      address\n        /* \"contracts/PublicSaleLaunch.sol\":12873:12902  USDC.balanceOf(address(this)) */\n      mload(0x40)\n      dup3\n      0xffffffff\n      and\n      0xe0\n      shl\n      dup2\n      mstore\n      0x04\n      add\n      tag_226\n      swap2\n      swap1\n      tag_106\n      jump\t// in\n    tag_226:\n      0x20\n      mload(0x40)\n      dup1\n      dup4\n      sub\n      dup2\n      dup7\n      dup1\n      extcodesize\n      iszero\n      dup1\n      iszero\n      tag_227\n      jumpi\n      0x00\n      dup1\n      revert\n    tag_227:\n      pop\n      gas\n      staticcall\n      iszero\n      dup1\n      iszero\n      tag_229\n      jumpi\n      returndatasize\n      0x00\n      dup1\n      returndatacopy\n      revert(0x00, returndatasize)\n    tag_229:\n      pop\n      pop\n      pop\n      pop\n      mload(0x40)\n      returndatasize\n      not(0x1f)\n      0x1f\n      dup3\n      add\n      and\n      dup3\n      add\n      dup1\n      0x40\n      mstore\n      pop\n      dup2\n      add\n      swap1\n      tag_230\n      swap2\n      swap1\n      tag_179\n      jump\t// in\n    tag_230:\n        /* \"contracts/PublicSaleLaunch.sol\":12866:12902  return USDC.balanceOf(address(this)) */\n      swap1\n      pop\n        /* \"contracts/PublicSaleLaunch.sol\":12801:12909  function getUSDCBalance() public view returns(uint256) {... */\n      swap1\n      jump\t// out\n        /* \"contracts/PublicSaleLaunch.sol\":8904:8950  uint256 public HARD_CAP_PER_USER = 1250 * 1e18 */\n    tag_91:\n      sload(0x07)\n      dup2\n      jump\t// out\n        /* \"contracts/PublicSaleLaunch.sol\":10565:10650  function setMinBuy(uint256 _value) public onlyOwner {... */\n    tag_96:\n        /* \"contracts/PublicSaleLaunch.sol\":9177:9182  owner */\n      0x00\n      0x01\n      swap1\n      sload\n      swap1\n      0x0100\n      exp\n      swap1\n      div\n      0xffffffffffffffffffffffffffffffffffffffff\n      and\n        /* \"contracts/PublicSaleLaunch.sol\":9163:9182  msg.sender == owner */\n      0xffffffffffffffffffffffffffffffffffffffff\n      and\n        /* \"contracts/PublicSaleLaunch.sol\":9163:9173  msg.sender */\n      caller\n        /* \"contracts/PublicSaleLaunch.sol\":9163:9182  msg.sender == owner */\n      0xffffffffffffffffffffffffffffffffffffffff\n      and\n      eq\n        /* \"contracts/PublicSaleLaunch.sol\":9155:9205  require(msg.sender == owner, \"INVALID_PERMISSION\") */\n      tag_232\n      jumpi\n      mload(0x40)\n      0x08c379a000000000000000000000000000000000000000000000000000000000\n      dup2\n      mstore\n      0x04\n      add\n      tag_233\n      swap1\n      tag_164\n      jump\t// in\n    tag_233:\n      mload(0x40)\n      dup1\n      swap2\n      sub\n      swap1\n      revert\n    tag_232:\n        /* \"contracts/PublicSaleLaunch.sol\":10637:10643  _value */\n      dup1\n        /* \"contracts/PublicSaleLaunch.sol\":10627:10634  MIN_BUY */\n      0x08\n        /* \"contracts/PublicSaleLaunch.sol\":10627:10643  MIN_BUY = _value */\n      dup2\n      swap1\n      sstore\n      pop\n        /* \"contracts/PublicSaleLaunch.sol\":10565:10650  function setMinBuy(uint256 _value) public onlyOwner {... */\n      pop\n      jump\t// out\n        /* \"contracts/PublicSaleLaunch.sol\":8648:8666  IERC20 public USDC */\n    tag_99:\n      0x02\n      0x00\n      swap1\n      sload\n      swap1\n      0x0100\n      exp\n      swap1\n      div\n      0xffffffffffffffffffffffffffffffffffffffff\n      and\n      dup2\n      jump\t// out\n        /* \"contracts/PublicSaleLaunch.sol\":8597:8617  address public owner */\n    tag_104:\n      0x00\n      0x01\n      swap1\n      sload\n      swap1\n      0x0100\n      exp\n      swap1\n      div\n      0xffffffffffffffffffffffffffffffffffffffff\n      and\n      dup2\n      jump\t// out\n        /* \"contracts/PublicSaleLaunch.sol\":12270:12795  function getMaxBuyOf(address _user) public view returns(uint256) {... */\n    tag_110:\n        /* \"contracts/PublicSaleLaunch.sol\":12326:12333  uint256 */\n      0x00\n        /* \"contracts/PublicSaleLaunch.sol\":12345:12363  uint256 _totalSale */\n      dup1\n        /* \"contracts/PublicSaleLaunch.sol\":12366:12380  getTotalSale() */\n      tag_236\n        /* \"contracts/PublicSaleLaunch.sol\":12366:12378  getTotalSale */\n      tag_52\n        /* \"contracts/PublicSaleLaunch.sol\":12366:12380  getTotalSale() */\n      jump\t// in\n    tag_236:\n        /* \"contracts/PublicSaleLaunch.sol\":12345:12380  uint256 _totalSale = getTotalSale() */\n      swap1\n      pop\n        /* \"contracts/PublicSaleLaunch.sol\":12431:12448  HARD_CAP_PER_USER */\n      sload(0x07)\n        /* \"contracts/PublicSaleLaunch.sol\":12407:12420  totalBoughtOf */\n      0x0a\n        /* \"contracts/PublicSaleLaunch.sol\":12407:12427  totalBoughtOf[_user] */\n      0x00\n        /* \"contracts/PublicSaleLaunch.sol\":12421:12426  _user */\n      dup6\n        /* \"contracts/PublicSaleLaunch.sol\":12407:12427  totalBoughtOf[_user] */\n      0xffffffffffffffffffffffffffffffffffffffff\n      and\n      0xffffffffffffffffffffffffffffffffffffffff\n      and\n      dup2\n      mstore\n      0x20\n      add\n      swap1\n      dup2\n      mstore\n      0x20\n      add\n      0x00\n      keccak256\n      sload\n        /* \"contracts/PublicSaleLaunch.sol\":12407:12448  totalBoughtOf[_user] >= HARD_CAP_PER_USER */\n      lt\n      iszero\n        /* \"contracts/PublicSaleLaunch.sol\":12407:12479  totalBoughtOf[_user] >= HARD_CAP_PER_USER ||... */\n      dup1\n      tag_237\n      jumpi\n      pop\n        /* \"contracts/PublicSaleLaunch.sol\":12478:12479  0 */\n      0x00\n        /* \"contracts/PublicSaleLaunch.sol\":12464:12474  _totalSale */\n      dup2\n        /* \"contracts/PublicSaleLaunch.sol\":12464:12479  _totalSale <= 0 */\n      gt\n      iszero\n        /* \"contracts/PublicSaleLaunch.sol\":12407:12479  totalBoughtOf[_user] >= HARD_CAP_PER_USER ||... */\n    tag_237:\n        /* \"contracts/PublicSaleLaunch.sol\":12407:12510  totalBoughtOf[_user] >= HARD_CAP_PER_USER ||... */\n      dup1\n      tag_238\n      jumpi\n      pop\n        /* \"contracts/PublicSaleLaunch.sol\":12505:12510  false */\n      0x00\n        /* \"contracts/PublicSaleLaunch.sol\":12495:12510  ENABLE == false */\n      iszero\n      iszero\n        /* \"contracts/PublicSaleLaunch.sol\":12495:12501  ENABLE */\n      0x06\n      0x00\n      swap1\n      sload\n      swap1\n      0x0100\n      exp\n      swap1\n      div\n      0xff\n      and\n        /* \"contracts/PublicSaleLaunch.sol\":12495:12510  ENABLE == false */\n      iszero\n      iszero\n      eq\n        /* \"contracts/PublicSaleLaunch.sol\":12407:12510  totalBoughtOf[_user] >= HARD_CAP_PER_USER ||... */\n    tag_238:\n        /* \"contracts/PublicSaleLaunch.sol\":12390:12558  if (... */\n      iszero\n      tag_239\n      jumpi\n        /* \"contracts/PublicSaleLaunch.sol\":12546:12547  0 */\n      0x00\n        /* \"contracts/PublicSaleLaunch.sol\":12539:12547  return 0 */\n      swap2\n      pop\n      pop\n      jump(tag_235)\n        /* \"contracts/PublicSaleLaunch.sol\":12390:12558  if (... */\n    tag_239:\n        /* \"contracts/PublicSaleLaunch.sol\":12592:12607  uint256 _maxBuy */\n      0x00\n        /* \"contracts/PublicSaleLaunch.sol\":12610:12653  HARD_CAP_PER_USER.sub(totalBoughtOf[_user]) */\n      tag_240\n        /* \"contracts/PublicSaleLaunch.sol\":12632:12645  totalBoughtOf */\n      0x0a\n        /* \"contracts/PublicSaleLaunch.sol\":12632:12652  totalBoughtOf[_user] */\n      0x00\n        /* \"contracts/PublicSaleLaunch.sol\":12646:12651  _user */\n      dup7\n        /* \"contracts/PublicSaleLaunch.sol\":12632:12652  totalBoughtOf[_user] */\n      0xffffffffffffffffffffffffffffffffffffffff\n      and\n      0xffffffffffffffffffffffffffffffffffffffff\n      and\n      dup2\n      mstore\n      0x20\n      add\n      swap1\n      dup2\n      mstore\n      0x20\n      add\n      0x00\n      keccak256\n      sload\n        /* \"contracts/PublicSaleLaunch.sol\":12610:12627  HARD_CAP_PER_USER */\n      sload(0x07)\n        /* \"contracts/PublicSaleLaunch.sol\":12610:12631  HARD_CAP_PER_USER.sub */\n      tag_241\n      swap1\n        /* \"contracts/PublicSaleLaunch.sol\":12610:12653  HARD_CAP_PER_USER.sub(totalBoughtOf[_user]) */\n      swap2\n      swap1\n      0xffffffff\n      and\n      jump\t// in\n    tag_240:\n        /* \"contracts/PublicSaleLaunch.sol\":12592:12653  uint256 _maxBuy = HARD_CAP_PER_USER.sub(totalBoughtOf[_user]) */\n      swap1\n      pop\n        /* \"contracts/PublicSaleLaunch.sol\":12708:12718  _totalSale */\n      dup2\n        /* \"contracts/PublicSaleLaunch.sol\":12698:12705  _maxBuy */\n      dup2\n        /* \"contracts/PublicSaleLaunch.sol\":12698:12718  _maxBuy > _totalSale */\n      gt\n        /* \"contracts/PublicSaleLaunch.sol\":12694:12765  if (_maxBuy > _totalSale) {... */\n      iszero\n      tag_242\n      jumpi\n        /* \"contracts/PublicSaleLaunch.sol\":12744:12754  _totalSale */\n      dup2\n        /* \"contracts/PublicSaleLaunch.sol\":12734:12754  _maxBuy = _totalSale */\n      swap1\n      pop\n        /* \"contracts/PublicSaleLaunch.sol\":12694:12765  if (_maxBuy > _totalSale) {... */\n    tag_242:\n        /* \"contracts/PublicSaleLaunch.sol\":12781:12788  _maxBuy */\n      dup1\n        /* \"contracts/PublicSaleLaunch.sol\":12774:12788  return _maxBuy */\n      swap3\n      pop\n      pop\n      pop\n        /* \"contracts/PublicSaleLaunch.sol\":12270:12795  function getMaxBuyOf(address _user) public view returns(uint256) {... */\n    tag_235:\n      swap2\n      swap1\n      pop\n      jump\t// out\n        /* \"contracts/PublicSaleLaunch.sol\":8868:8894  bool public ENABLE = false */\n    tag_114:\n      0x06\n      0x00\n      swap1\n      sload\n      swap1\n      0x0100\n      exp\n      swap1\n      div\n      0xff\n      and\n      dup2\n      jump\t// out\n        /* \"contracts/PublicSaleLaunch.sol\":10456:10559  function setHardCapPerUser(uint256 _value) public onlyOwner {... */\n    tag_120:\n        /* \"contracts/PublicSaleLaunch.sol\":9177:9182  owner */\n      0x00\n      0x01\n      swap1\n      sload\n      swap1\n      0x0100\n      exp\n      swap1\n      div\n      0xffffffffffffffffffffffffffffffffffffffff\n      and\n        /* \"contracts/PublicSaleLaunch.sol\":9163:9182  msg.sender == owner */\n      0xffffffffffffffffffffffffffffffffffffffff\n      and\n        /* \"contracts/PublicSaleLaunch.sol\":9163:9173  msg.sender */\n      caller\n        /* \"contracts/PublicSaleLaunch.sol\":9163:9182  msg.sender == owner */\n      0xffffffffffffffffffffffffffffffffffffffff\n      and\n      eq\n        /* \"contracts/PublicSaleLaunch.sol\":9155:9205  require(msg.sender == owner, \"INVALID_PERMISSION\") */\n      tag_244\n      jumpi\n      mload(0x40)\n      0x08c379a000000000000000000000000000000000000000000000000000000000\n      dup2\n      mstore\n      0x04\n      add\n      tag_245\n      swap1\n      tag_164\n      jump\t// in\n    tag_245:\n      mload(0x40)\n      dup1\n      swap2\n      sub\n      swap1\n      revert\n    tag_244:\n        /* \"contracts/PublicSaleLaunch.sol\":10546:10552  _value */\n      dup1\n        /* \"contracts/PublicSaleLaunch.sol\":10526:10543  HARD_CAP_PER_USER */\n      0x07\n        /* \"contracts/PublicSaleLaunch.sol\":10526:10552  HARD_CAP_PER_USER = _value */\n      dup2\n      swap1\n      sstore\n      pop\n        /* \"contracts/PublicSaleLaunch.sol\":10456:10559  function setHardCapPerUser(uint256 _value) public onlyOwner {... */\n      pop\n      jump\t// out\n        /* \"contracts/PublicSaleLaunch.sol\":9594:9659  function enable() public onlyOwner {... */\n    tag_123:\n        /* \"contracts/PublicSaleLaunch.sol\":9177:9182  owner */\n      0x00\n      0x01\n      swap1\n      sload\n      swap1\n      0x0100\n      exp\n      swap1\n      div\n      0xffffffffffffffffffffffffffffffffffffffff\n      and\n        /* \"contracts/PublicSaleLaunch.sol\":9163:9182  msg.sender == owner */\n      0xffffffffffffffffffffffffffffffffffffffff\n      and\n        /* \"contracts/PublicSaleLaunch.sol\":9163:9173  msg.sender */\n      caller\n        /* \"contracts/PublicSaleLaunch.sol\":9163:9182  msg.sender == owner */\n      0xffffffffffffffffffffffffffffffffffffffff\n      and\n      eq\n        /* \"contracts/PublicSaleLaunch.sol\":9155:9205  require(msg.sender == owner, \"INVALID_PERMISSION\") */\n      tag_248\n      jumpi\n      mload(0x40)\n      0x08c379a000000000000000000000000000000000000000000000000000000000\n      dup2\n      mstore\n      0x04\n      add\n      tag_249\n      swap1\n      tag_164\n      jump\t// in\n    tag_249:\n      mload(0x40)\n      dup1\n      swap2\n      sub\n      swap1\n      revert\n    tag_248:\n        /* \"contracts/PublicSaleLaunch.sol\":9648:9652  true */\n      0x01\n        /* \"contracts/PublicSaleLaunch.sol\":9639:9645  ENABLE */\n      0x06\n      0x00\n        /* \"contracts/PublicSaleLaunch.sol\":9639:9652  ENABLE = true */\n      0x0100\n      exp\n      dup2\n      sload\n      dup2\n      0xff\n      mul\n      not\n      and\n      swap1\n      dup4\n      iszero\n      iszero\n      mul\n      or\n      swap1\n      sstore\n      pop\n        /* \"contracts/PublicSaleLaunch.sol\":9594:9659  function enable() public onlyOwner {... */\n      jump\t// out\n        /* \"contracts/PublicSaleLaunch.sol\":8624:8641  IERC20 public GRB */\n    tag_126:\n      0x01\n      0x00\n      swap1\n      sload\n      swap1\n      0x0100\n      exp\n      swap1\n      div\n      0xffffffffffffffffffffffffffffffffffffffff\n      and\n      dup2\n      jump\t// out\n        /* \"contracts/PublicSaleLaunch.sol\":9069:9117  mapping(address => uint256) public totalBoughtOf */\n    tag_131:\n      mstore(0x20, 0x0a)\n      dup1\n      0x00\n      mstore\n      keccak256(0x00, 0x40)\n      0x00\n      swap2\n      pop\n      swap1\n      pop\n      sload\n      dup2\n      jump\t// out\n        /* \"contracts/PublicSaleLaunch.sol\":9839:9960  function start() public onlyOwner {... */\n    tag_135:\n        /* \"contracts/PublicSaleLaunch.sol\":9177:9182  owner */\n      0x00\n      0x01\n      swap1\n      sload\n      swap1\n      0x0100\n      exp\n      swap1\n      div\n      0xffffffffffffffffffffffffffffffffffffffff\n      and\n        /* \"contracts/PublicSaleLaunch.sol\":9163:9182  msg.sender == owner */\n      0xffffffffffffffffffffffffffffffffffffffff\n      and\n        /* \"contracts/PublicSaleLaunch.sol\":9163:9173  msg.sender */\n      caller\n        /* \"contracts/PublicSaleLaunch.sol\":9163:9182  msg.sender == owner */\n      0xffffffffffffffffffffffffffffffffffffffff\n      and\n      eq\n        /* \"contracts/PublicSaleLaunch.sol\":9155:9205  require(msg.sender == owner, \"INVALID_PERMISSION\") */\n      tag_252\n      jumpi\n      mload(0x40)\n      0x08c379a000000000000000000000000000000000000000000000000000000000\n      dup2\n      mstore\n      0x04\n      add\n      tag_253\n      swap1\n      tag_164\n      jump\t// in\n    tag_253:\n      mload(0x40)\n      dup1\n      swap2\n      sub\n      swap1\n      revert\n    tag_252:\n        /* \"contracts/PublicSaleLaunch.sol\":9893:9930  block.timestamp.add(SALE_TIME_PERIOD) */\n      tag_255\n        /* \"contracts/PublicSaleLaunch.sol\":9913:9929  SALE_TIME_PERIOD */\n      sload(0x09)\n        /* \"contracts/PublicSaleLaunch.sol\":9893:9908  block.timestamp */\n      timestamp\n        /* \"contracts/PublicSaleLaunch.sol\":9893:9912  block.timestamp.add */\n      tag_256\n      swap1\n        /* \"contracts/PublicSaleLaunch.sol\":9893:9930  block.timestamp.add(SALE_TIME_PERIOD) */\n      swap2\n      swap1\n      0xffffffff\n      and\n      jump\t// in\n    tag_255:\n        /* \"contracts/PublicSaleLaunch.sol\":9883:9890  endTime */\n      0x05\n        /* \"contracts/PublicSaleLaunch.sol\":9883:9930  endTime = block.timestamp.add(SALE_TIME_PERIOD) */\n      dup2\n      swap1\n      sstore\n      pop\n        /* \"contracts/PublicSaleLaunch.sol\":9949:9953  true */\n      0x01\n        /* \"contracts/PublicSaleLaunch.sol\":9940:9946  ENABLE */\n      0x06\n      0x00\n        /* \"contracts/PublicSaleLaunch.sol\":9940:9953  ENABLE = true */\n      0x0100\n      exp\n      dup2\n      sload\n      dup2\n      0xff\n      mul\n      not\n      and\n      swap1\n      dup4\n      iszero\n      iszero\n      mul\n      or\n      swap1\n      sstore\n      pop\n        /* \"contracts/PublicSaleLaunch.sol\":9839:9960  function start() public onlyOwner {... */\n      jump\t// out\n        /* \"contracts/PublicSaleLaunch.sol\":9965:10051  function setEndTime(uint256 _value) public onlyOwner {... */\n    tag_139:\n        /* \"contracts/PublicSaleLaunch.sol\":9177:9182  owner */\n      0x00\n      0x01\n      swap1\n      sload\n      swap1\n      0x0100\n      exp\n      swap1\n      div\n      0xffffffffffffffffffffffffffffffffffffffff\n      and\n        /* \"contracts/PublicSaleLaunch.sol\":9163:9182  msg.sender == owner */\n      0xffffffffffffffffffffffffffffffffffffffff\n      and\n        /* \"contracts/PublicSaleLaunch.sol\":9163:9173  msg.sender */\n      caller\n        /* \"contracts/PublicSaleLaunch.sol\":9163:9182  msg.sender == owner */\n      0xffffffffffffffffffffffffffffffffffffffff\n      and\n      eq\n        /* \"contracts/PublicSaleLaunch.sol\":9155:9205  require(msg.sender == owner, \"INVALID_PERMISSION\") */\n      tag_258\n      jumpi\n      mload(0x40)\n      0x08c379a000000000000000000000000000000000000000000000000000000000\n      dup2\n      mstore\n      0x04\n      add\n      tag_259\n      swap1\n      tag_164\n      jump\t// in\n    tag_259:\n      mload(0x40)\n      dup1\n      swap2\n      sub\n      swap1\n      revert\n    tag_258:\n        /* \"contracts/PublicSaleLaunch.sol\":10038:10044  _value */\n      dup1\n        /* \"contracts/PublicSaleLaunch.sol\":10028:10035  endTime */\n      0x05\n        /* \"contracts/PublicSaleLaunch.sol\":10028:10044  endTime = _value */\n      dup2\n      swap1\n      sstore\n      pop\n        /* \"contracts/PublicSaleLaunch.sol\":9965:10051  function setEndTime(uint256 _value) public onlyOwner {... */\n      pop\n      jump\t// out\n        /* \"contracts/PublicSaleLaunch.sol\":10656:11713  function buy(uint256 _payAmt) public onlyWhitelisted {... */\n    tag_143:\n        /* \"contracts/PublicSaleLaunch.sol\":9288:9297  tx.origin */\n      origin\n        /* \"contracts/PublicSaleLaunch.sol\":9274:9297  msg.sender == tx.origin */\n      0xffffffffffffffffffffffffffffffffffffffff\n      and\n        /* \"contracts/PublicSaleLaunch.sol\":9274:9284  msg.sender */\n      caller\n        /* \"contracts/PublicSaleLaunch.sol\":9274:9297  msg.sender == tx.origin */\n      0xffffffffffffffffffffffffffffffffffffffff\n      and\n      eq\n        /* \"contracts/PublicSaleLaunch.sol\":9266:9319  require(msg.sender == tx.origin, \"INVALID_WHITElIST\") */\n      tag_262\n      jumpi\n      mload(0x40)\n      0x08c379a000000000000000000000000000000000000000000000000000000000\n      dup2\n      mstore\n      0x04\n      add\n      tag_263\n      swap1\n      tag_264\n      jump\t// in\n    tag_263:\n      mload(0x40)\n      dup1\n      swap2\n      sub\n      swap1\n      revert\n    tag_262:\n        /* \"contracts/PublicSaleLaunch.sol\":10737:10741  true */\n      0x01\n        /* \"contracts/PublicSaleLaunch.sol\":10727:10741  ENABLE == true */\n      iszero\n      iszero\n        /* \"contracts/PublicSaleLaunch.sol\":10727:10733  ENABLE */\n      0x06\n      0x00\n      swap1\n      sload\n      swap1\n      0x0100\n      exp\n      swap1\n      div\n      0xff\n      and\n        /* \"contracts/PublicSaleLaunch.sol\":10727:10741  ENABLE == true */\n      iszero\n      iszero\n      eq\n        /* \"contracts/PublicSaleLaunch.sol\":10719:10757  require(ENABLE == true, \"SYSTEM_STOP\") */\n      tag_266\n      jumpi\n      mload(0x40)\n      0x08c379a000000000000000000000000000000000000000000000000000000000\n      dup2\n      mstore\n      0x04\n      add\n      tag_267\n      swap1\n      tag_268\n      jump\t// in\n    tag_267:\n      mload(0x40)\n      dup1\n      swap2\n      sub\n      swap1\n      revert\n    tag_266:\n        /* \"contracts/PublicSaleLaunch.sol\":10785:10786  0 */\n      0x00\n        /* \"contracts/PublicSaleLaunch.sol\":10775:10782  endTime */\n      sload(0x05)\n        /* \"contracts/PublicSaleLaunch.sol\":10775:10786  endTime > 0 */\n      gt\n        /* \"contracts/PublicSaleLaunch.sol\":10775:10816  endTime > 0 && endTime <= block.timestamp */\n      dup1\n      iszero\n      tag_269\n      jumpi\n      pop\n        /* \"contracts/PublicSaleLaunch.sol\":10801:10816  block.timestamp */\n      timestamp\n        /* \"contracts/PublicSaleLaunch.sol\":10790:10797  endTime */\n      sload(0x05)\n        /* \"contracts/PublicSaleLaunch.sol\":10790:10816  endTime <= block.timestamp */\n      gt\n      iszero\n        /* \"contracts/PublicSaleLaunch.sol\":10775:10816  endTime > 0 && endTime <= block.timestamp */\n    tag_269:\n        /* \"contracts/PublicSaleLaunch.sol\":10767:10839  require(endTime > 0 && endTime <= block.timestamp, \"SYSTEM_NOT_RUNNING\") */\n      tag_270\n      jumpi\n      mload(0x40)\n      0x08c379a000000000000000000000000000000000000000000000000000000000\n      dup2\n      mstore\n      0x04\n      add\n      tag_271\n      swap1\n      tag_272\n      jump\t// in\n    tag_271:\n      mload(0x40)\n      dup1\n      swap2\n      sub\n      swap1\n      revert\n    tag_270:\n        /* \"contracts/PublicSaleLaunch.sol\":10867:10868  0 */\n      0x00\n        /* \"contracts/PublicSaleLaunch.sol\":10857:10864  _payAmt */\n      dup2\n        /* \"contracts/PublicSaleLaunch.sol\":10857:10868  _payAmt > 0 */\n      gt\n        /* \"contracts/PublicSaleLaunch.sol\":10849:10889  require(_payAmt > 0, \"INVALID_AMOUNT_1\") */\n      tag_273\n      jumpi\n      mload(0x40)\n      0x08c379a000000000000000000000000000000000000000000000000000000000\n      dup2\n      mstore\n      0x04\n      add\n      tag_274\n      swap1\n      tag_275\n      jump\t// in\n    tag_274:\n      mload(0x40)\n      dup1\n      swap2\n      sub\n      swap1\n      revert\n    tag_273:\n        /* \"contracts/PublicSaleLaunch.sol\":10900:10915  uint256 _maxBuy */\n      0x00\n        /* \"contracts/PublicSaleLaunch.sol\":10918:10941  getMaxBuyOf(msg.sender) */\n      tag_276\n        /* \"contracts/PublicSaleLaunch.sol\":10930:10940  msg.sender */\n      caller\n        /* \"contracts/PublicSaleLaunch.sol\":10918:10929  getMaxBuyOf */\n      tag_110\n        /* \"contracts/PublicSaleLaunch.sol\":10918:10941  getMaxBuyOf(msg.sender) */\n      jump\t// in\n    tag_276:\n        /* \"contracts/PublicSaleLaunch.sol\":10900:10941  uint256 _maxBuy = getMaxBuyOf(msg.sender) */\n      swap1\n      pop\n        /* \"contracts/PublicSaleLaunch.sol\":10969:10970  0 */\n      0x00\n        /* \"contracts/PublicSaleLaunch.sol\":10959:10966  _maxBuy */\n      dup2\n        /* \"contracts/PublicSaleLaunch.sol\":10959:10970  _maxBuy > 0 */\n      gt\n        /* \"contracts/PublicSaleLaunch.sol\":10951:10993  require(_maxBuy > 0, \"INVALID_PERMISSION\") */\n      tag_277\n      jumpi\n      mload(0x40)\n      0x08c379a000000000000000000000000000000000000000000000000000000000\n      dup2\n      mstore\n      0x04\n      add\n      tag_278\n      swap1\n      tag_164\n      jump\t// in\n    tag_278:\n      mload(0x40)\n      dup1\n      swap2\n      sub\n      swap1\n      revert\n    tag_277:\n        /* \"contracts/PublicSaleLaunch.sol\":11036:11052  uint256 _quatity */\n      0x00\n        /* \"contracts/PublicSaleLaunch.sol\":11056:11088  _payAmt.mul(1e18).div(salePrice) */\n      tag_279\n        /* \"contracts/PublicSaleLaunch.sol\":11078:11087  salePrice */\n      sload(0x03)\n        /* \"contracts/PublicSaleLaunch.sol\":11056:11073  _payAmt.mul(1e18) */\n      tag_280\n        /* \"contracts/PublicSaleLaunch.sol\":11068:11072  1e18 */\n      0x0de0b6b3a7640000\n        /* \"contracts/PublicSaleLaunch.sol\":11056:11063  _payAmt */\n      dup7\n        /* \"contracts/PublicSaleLaunch.sol\":11056:11067  _payAmt.mul */\n      tag_199\n      swap1\n        /* \"contracts/PublicSaleLaunch.sol\":11056:11073  _payAmt.mul(1e18) */\n      swap2\n      swap1\n      0xffffffff\n      and\n      jump\t// in\n    tag_280:\n        /* \"contracts/PublicSaleLaunch.sol\":11056:11077  _payAmt.mul(1e18).div */\n      tag_200\n      swap1\n        /* \"contracts/PublicSaleLaunch.sol\":11056:11088  _payAmt.mul(1e18).div(salePrice) */\n      swap2\n      swap1\n      0xffffffff\n      and\n      jump\t// in\n    tag_279:\n        /* \"contracts/PublicSaleLaunch.sol\":11036:11088  uint256 _quatity  = _payAmt.mul(1e18).div(salePrice) */\n      swap1\n      pop\n        /* \"contracts/PublicSaleLaunch.sol\":11137:11144  _maxBuy */\n      dup2\n        /* \"contracts/PublicSaleLaunch.sol\":11126:11134  _quatity */\n      dup2\n        /* \"contracts/PublicSaleLaunch.sol\":11126:11144  _quatity > _maxBuy */\n      gt\n        /* \"contracts/PublicSaleLaunch.sol\":11123:11246  if(_quatity > _maxBuy) {... */\n      iszero\n      tag_281\n      jumpi\n        /* \"contracts/PublicSaleLaunch.sol\":11171:11178  _maxBuy */\n      dup2\n        /* \"contracts/PublicSaleLaunch.sol\":11160:11178  _quatity = _maxBuy */\n      swap1\n      pop\n        /* \"contracts/PublicSaleLaunch.sol\":11202:11235  _quatity.mul(salePrice).div(1e18) */\n      tag_282\n        /* \"contracts/PublicSaleLaunch.sol\":11230:11234  1e18 */\n      0x0de0b6b3a7640000\n        /* \"contracts/PublicSaleLaunch.sol\":11202:11225  _quatity.mul(salePrice) */\n      tag_283\n        /* \"contracts/PublicSaleLaunch.sol\":11215:11224  salePrice */\n      sload(0x03)\n        /* \"contracts/PublicSaleLaunch.sol\":11202:11210  _quatity */\n      dup5\n        /* \"contracts/PublicSaleLaunch.sol\":11202:11214  _quatity.mul */\n      tag_199\n      swap1\n        /* \"contracts/PublicSaleLaunch.sol\":11202:11225  _quatity.mul(salePrice) */\n      swap2\n      swap1\n      0xffffffff\n      and\n      jump\t// in\n    tag_283:\n        /* \"contracts/PublicSaleLaunch.sol\":11202:11229  _quatity.mul(salePrice).div */\n      tag_200\n      swap1\n        /* \"contracts/PublicSaleLaunch.sol\":11202:11235  _quatity.mul(salePrice).div(1e18) */\n      swap2\n      swap1\n      0xffffffff\n      and\n      jump\t// in\n    tag_282:\n        /* \"contracts/PublicSaleLaunch.sol\":11192:11235  _payAmt = _quatity.mul(salePrice).div(1e18) */\n      swap3\n      pop\n        /* \"contracts/PublicSaleLaunch.sol\":11123:11246  if(_quatity > _maxBuy) {... */\n    tag_281:\n        /* \"contracts/PublicSaleLaunch.sol\":11274:11275  0 */\n      0x00\n        /* \"contracts/PublicSaleLaunch.sol\":11263:11271  _quatity */\n      dup2\n        /* \"contracts/PublicSaleLaunch.sol\":11263:11275  _quatity > 0 */\n      gt\n        /* \"contracts/PublicSaleLaunch.sol\":11255:11298  require(_quatity > 0, \"INVALID_QUATITY:01\") */\n      tag_284\n      jumpi\n      mload(0x40)\n      0x08c379a000000000000000000000000000000000000000000000000000000000\n      dup2\n      mstore\n      0x04\n      add\n      tag_285\n      swap1\n      tag_286\n      jump\t// in\n    tag_285:\n      mload(0x40)\n      dup1\n      swap2\n      sub\n      swap1\n      revert\n    tag_284:\n        /* \"contracts/PublicSaleLaunch.sol\":11328:11335  MIN_BUY */\n      sload(0x08)\n        /* \"contracts/PublicSaleLaunch.sol\":11316:11324  _quatity */\n      dup2\n        /* \"contracts/PublicSaleLaunch.sol\":11316:11335  _quatity >= MIN_BUY */\n      lt\n      iszero\n        /* \"contracts/PublicSaleLaunch.sol\":11308:11358  require(_quatity >= MIN_BUY, \"INVALID_QUATITY:02\") */\n      tag_287\n      jumpi\n      mload(0x40)\n      0x08c379a000000000000000000000000000000000000000000000000000000000\n      dup2\n      mstore\n      0x04\n      add\n      tag_288\n      swap1\n      tag_289\n      jump\t// in\n    tag_288:\n      mload(0x40)\n      dup1\n      swap2\n      sub\n      swap1\n      revert\n    tag_287:\n        /* \"contracts/PublicSaleLaunch.sol\":11386:11387  0 */\n      0x00\n        /* \"contracts/PublicSaleLaunch.sol\":11376:11383  _payAmt */\n      dup4\n        /* \"contracts/PublicSaleLaunch.sol\":11376:11387  _payAmt > 0 */\n      gt\n        /* \"contracts/PublicSaleLaunch.sol\":11368:11410  require(_payAmt > 0, \"INVALID_PAYMENT:01\") */\n      tag_290\n      jumpi\n      mload(0x40)\n      0x08c379a000000000000000000000000000000000000000000000000000000000\n      dup2\n      mstore\n      0x04\n      add\n      tag_291\n      swap1\n      tag_292\n      jump\t// in\n    tag_291:\n      mload(0x40)\n      dup1\n      swap2\n      sub\n      swap1\n      revert\n    tag_290:\n        /* \"contracts/PublicSaleLaunch.sol\":11451:11455  true */\n      0x01\n        /* \"contracts/PublicSaleLaunch.sol\":11428:11455  _claimUSDC(_payAmt) == true */\n      iszero\n      iszero\n        /* \"contracts/PublicSaleLaunch.sol\":11428:11447  _claimUSDC(_payAmt) */\n      tag_293\n        /* \"contracts/PublicSaleLaunch.sol\":11439:11446  _payAmt */\n      dup5\n        /* \"contracts/PublicSaleLaunch.sol\":11428:11438  _claimUSDC */\n      tag_294\n        /* \"contracts/PublicSaleLaunch.sol\":11428:11447  _claimUSDC(_payAmt) */\n      jump\t// in\n    tag_293:\n        /* \"contracts/PublicSaleLaunch.sol\":11428:11455  _claimUSDC(_payAmt) == true */\n      iszero\n      iszero\n      eq\n        /* \"contracts/PublicSaleLaunch.sol\":11420:11478  require(_claimUSDC(_payAmt) == true, \"INVALID_PAYMENT:02\") */\n      tag_295\n      jumpi\n      mload(0x40)\n      0x08c379a000000000000000000000000000000000000000000000000000000000\n      dup2\n      mstore\n      0x04\n      add\n      tag_296\n      swap1\n      tag_297\n      jump\t// in\n    tag_296:\n      mload(0x40)\n      dup1\n      swap2\n      sub\n      swap1\n      revert\n    tag_295:\n        /* \"contracts/PublicSaleLaunch.sol\":11489:11492  GRB */\n      0x01\n      0x00\n      swap1\n      sload\n      swap1\n      0x0100\n      exp\n      swap1\n      div\n      0xffffffffffffffffffffffffffffffffffffffff\n      and\n        /* \"contracts/PublicSaleLaunch.sol\":11489:11501  GRB.transfer */\n      0xffffffffffffffffffffffffffffffffffffffff\n      and\n      0xa9059cbb\n        /* \"contracts/PublicSaleLaunch.sol\":11502:11512  msg.sender */\n      caller\n        /* \"contracts/PublicSaleLaunch.sol\":11514:11522  _quatity */\n      dup4\n        /* \"contracts/PublicSaleLaunch.sol\":11489:11523  GRB.transfer(msg.sender, _quatity) */\n      mload(0x40)\n      dup4\n      0xffffffff\n      and\n      0xe0\n      shl\n      dup2\n      mstore\n      0x04\n      add\n      tag_298\n      swap3\n      swap2\n      swap1\n      tag_219\n      jump\t// in\n    tag_298:\n      0x20\n      mload(0x40)\n      dup1\n      dup4\n      sub\n      dup2\n      0x00\n      dup8\n      dup1\n      extcodesize\n      iszero\n      dup1\n      iszero\n      tag_299\n      jumpi\n      0x00\n      dup1\n      revert\n    tag_299:\n      pop\n      gas\n      call\n      iszero\n      dup1\n      iszero\n      tag_301\n      jumpi\n      returndatasize\n      0x00\n      dup1\n      returndatacopy\n      revert(0x00, returndatasize)\n    tag_301:\n      pop\n      pop\n      pop\n      pop\n      mload(0x40)\n      returndatasize\n      not(0x1f)\n      0x1f\n      dup3\n      add\n      and\n      dup3\n      add\n      dup1\n      0x40\n      mstore\n      pop\n      dup2\n      add\n      swap1\n      tag_302\n      swap2\n      swap1\n      tag_224\n      jump\t// in\n    tag_302:\n      pop\n        /* \"contracts/PublicSaleLaunch.sol\":11550:11577  totalPurchased.add(_payAmt) */\n      tag_303\n        /* \"contracts/PublicSaleLaunch.sol\":11569:11576  _payAmt */\n      dup4\n        /* \"contracts/PublicSaleLaunch.sol\":11550:11564  totalPurchased */\n      sload(0x04)\n        /* \"contracts/PublicSaleLaunch.sol\":11550:11568  totalPurchased.add */\n      tag_256\n      swap1\n        /* \"contracts/PublicSaleLaunch.sol\":11550:11577  totalPurchased.add(_payAmt) */\n      swap2\n      swap1\n      0xffffffff\n      and\n      jump\t// in\n    tag_303:\n        /* \"contracts/PublicSaleLaunch.sol\":11533:11547  totalPurchased */\n      0x04\n        /* \"contracts/PublicSaleLaunch.sol\":11533:11577  totalPurchased = totalPurchased.add(_payAmt) */\n      dup2\n      swap1\n      sstore\n      pop\n        /* \"contracts/PublicSaleLaunch.sol\":11615:11654  totalBoughtOf[msg.sender].add(_quatity) */\n      tag_304\n        /* \"contracts/PublicSaleLaunch.sol\":11645:11653  _quatity */\n      dup2\n        /* \"contracts/PublicSaleLaunch.sol\":11615:11628  totalBoughtOf */\n      0x0a\n        /* \"contracts/PublicSaleLaunch.sol\":11615:11640  totalBoughtOf[msg.sender] */\n      0x00\n        /* \"contracts/PublicSaleLaunch.sol\":11629:11639  msg.sender */\n      caller\n        /* \"contracts/PublicSaleLaunch.sol\":11615:11640  totalBoughtOf[msg.sender] */\n      0xffffffffffffffffffffffffffffffffffffffff\n      and\n      0xffffffffffffffffffffffffffffffffffffffff\n      and\n      dup2\n      mstore\n      0x20\n      add\n      swap1\n      dup2\n      mstore\n      0x20\n      add\n      0x00\n      keccak256\n      sload\n        /* \"contracts/PublicSaleLaunch.sol\":11615:11644  totalBoughtOf[msg.sender].add */\n      tag_256\n      swap1\n        /* \"contracts/PublicSaleLaunch.sol\":11615:11654  totalBoughtOf[msg.sender].add(_quatity) */\n      swap2\n      swap1\n      0xffffffff\n      and\n      jump\t// in\n    tag_304:\n        /* \"contracts/PublicSaleLaunch.sol\":11587:11600  totalBoughtOf */\n      0x0a\n        /* \"contracts/PublicSaleLaunch.sol\":11587:11612  totalBoughtOf[msg.sender] */\n      0x00\n        /* \"contracts/PublicSaleLaunch.sol\":11601:11611  msg.sender */\n      caller\n        /* \"contracts/PublicSaleLaunch.sol\":11587:11612  totalBoughtOf[msg.sender] */\n      0xffffffffffffffffffffffffffffffffffffffff\n      and\n      0xffffffffffffffffffffffffffffffffffffffff\n      and\n      dup2\n      mstore\n      0x20\n      add\n      swap1\n      dup2\n      mstore\n      0x20\n      add\n      0x00\n      keccak256\n        /* \"contracts/PublicSaleLaunch.sol\":11587:11654  totalBoughtOf[msg.sender] = totalBoughtOf[msg.sender].add(_quatity) */\n      dup2\n      swap1\n      sstore\n      pop\n        /* \"contracts/PublicSaleLaunch.sol\":11670:11706  onBuy(msg.sender, _payAmt, _quatity) */\n      0x7b027a29d1a4d4d2e0a11e04ebd4741452bfbb746ed433855a8f63afc5b20cde\n        /* \"contracts/PublicSaleLaunch.sol\":11676:11686  msg.sender */\n      caller\n        /* \"contracts/PublicSaleLaunch.sol\":11688:11695  _payAmt */\n      dup5\n        /* \"contracts/PublicSaleLaunch.sol\":11697:11705  _quatity */\n      dup4\n        /* \"contracts/PublicSaleLaunch.sol\":11670:11706  onBuy(msg.sender, _payAmt, _quatity) */\n      mload(0x40)\n      tag_305\n      swap4\n      swap3\n      swap2\n      swap1\n      tag_306\n      jump\t// in\n    tag_305:\n      mload(0x40)\n      dup1\n      swap2\n      sub\n      swap1\n      log1\n        /* \"contracts/PublicSaleLaunch.sol\":10709:11713  {... */\n      pop\n      pop\n        /* \"contracts/PublicSaleLaunch.sol\":10656:11713  function buy(uint256 _payAmt) public onlyWhitelisted {... */\n      pop\n      jump\t// out\n        /* \"contracts/PublicSaleLaunch.sol\":8796:8829  uint256 public totalPurchased = 0 */\n    tag_146:\n      sload(0x04)\n      dup2\n      jump\t// out\n        /* \"contracts/PublicSaleLaunch.sol\":9737:9834  function transferOwnership(address _newOwner) public onlyOwner {... */\n    tag_151:\n        /* \"contracts/PublicSaleLaunch.sol\":9177:9182  owner */\n      0x00\n      0x01\n      swap1\n      sload\n      swap1\n      0x0100\n      exp\n      swap1\n      div\n      0xffffffffffffffffffffffffffffffffffffffff\n      and\n        /* \"contracts/PublicSaleLaunch.sol\":9163:9182  msg.sender == owner */\n      0xffffffffffffffffffffffffffffffffffffffff\n      and\n        /* \"contracts/PublicSaleLaunch.sol\":9163:9173  msg.sender */\n      caller\n        /* \"contracts/PublicSaleLaunch.sol\":9163:9182  msg.sender == owner */\n      0xffffffffffffffffffffffffffffffffffffffff\n      and\n      eq\n        /* \"contracts/PublicSaleLaunch.sol\":9155:9205  require(msg.sender == owner, \"INVALID_PERMISSION\") */\n      tag_308\n      jumpi\n      mload(0x40)\n      0x08c379a000000000000000000000000000000000000000000000000000000000\n      dup2\n      mstore\n      0x04\n      add\n      tag_309\n      swap1\n      tag_164\n      jump\t// in\n    tag_309:\n      mload(0x40)\n      dup1\n      swap2\n      sub\n      swap1\n      revert\n    tag_308:\n        /* \"contracts/PublicSaleLaunch.sol\":9818:9827  _newOwner */\n      dup1\n        /* \"contracts/PublicSaleLaunch.sol\":9810:9815  owner */\n      0x00\n      0x01\n        /* \"contracts/PublicSaleLaunch.sol\":9810:9827  owner = _newOwner */\n      0x0100\n      exp\n      dup2\n      sload\n      dup2\n      0xffffffffffffffffffffffffffffffffffffffff\n      mul\n      not\n      and\n      swap1\n      dup4\n      0xffffffffffffffffffffffffffffffffffffffff\n      and\n      mul\n      or\n      swap1\n      sstore\n      pop\n        /* \"contracts/PublicSaleLaunch.sol\":9737:9834  function transferOwnership(address _newOwner) public onlyOwner {... */\n      pop\n      jump\t// out\n        /* \"contracts/PublicSaleLaunch.sol\":8674:8708  uint256 public salePrice = 4 * 1e4 */\n    tag_154:\n      sload(0x03)\n      dup2\n      jump\t// out\n        /* \"contracts/PublicSaleLaunch.sol\":8528:8554  uint8 public VERSION = 100 */\n    tag_158:\n      0x00\n      dup1\n      sload\n      swap1\n      0x0100\n      exp\n      swap1\n      div\n      0xff\n      and\n      dup2\n      jump\t// out\n        /* \"contracts/PublicSaleLaunch.sol\":2156:2615  function mul(uint256 a, uint256 b) internal pure returns (uint256) {... */\n    tag_199:\n        /* \"contracts/PublicSaleLaunch.sol\":2214:2221  uint256 */\n      0x00\n        /* \"contracts/PublicSaleLaunch.sol\":2460:2461  0 */\n      dup1\n        /* \"contracts/PublicSaleLaunch.sol\":2455:2456  a */\n      dup4\n        /* \"contracts/PublicSaleLaunch.sol\":2455:2461  a == 0 */\n      eq\n        /* \"contracts/PublicSaleLaunch.sol\":2451:2496  if (a == 0) {... */\n      iszero\n      tag_312\n      jumpi\n        /* \"contracts/PublicSaleLaunch.sol\":2484:2485  0 */\n      0x00\n        /* \"contracts/PublicSaleLaunch.sol\":2477:2485  return 0 */\n      swap1\n      pop\n      jump(tag_311)\n        /* \"contracts/PublicSaleLaunch.sol\":2451:2496  if (a == 0) {... */\n    tag_312:\n        /* \"contracts/PublicSaleLaunch.sol\":2506:2515  uint256 c */\n      0x00\n        /* \"contracts/PublicSaleLaunch.sol\":2522:2523  b */\n      dup3\n        /* \"contracts/PublicSaleLaunch.sol\":2518:2519  a */\n      dup5\n        /* \"contracts/PublicSaleLaunch.sol\":2518:2523  a * b */\n      tag_313\n      swap2\n      swap1\n      tag_314\n      jump\t// in\n    tag_313:\n        /* \"contracts/PublicSaleLaunch.sol\":2506:2523  uint256 c = a * b */\n      swap1\n      pop\n        /* \"contracts/PublicSaleLaunch.sol\":2550:2551  b */\n      dup3\n        /* \"contracts/PublicSaleLaunch.sol\":2545:2546  a */\n      dup5\n        /* \"contracts/PublicSaleLaunch.sol\":2541:2542  c */\n      dup3\n        /* \"contracts/PublicSaleLaunch.sol\":2541:2546  c / a */\n      tag_315\n      swap2\n      swap1\n      tag_316\n      jump\t// in\n    tag_315:\n        /* \"contracts/PublicSaleLaunch.sol\":2541:2551  c / a == b */\n      eq\n        /* \"contracts/PublicSaleLaunch.sol\":2533:2589  require(c / a == b, \"SafeMath: multiplication overflow\") */\n      tag_317\n      jumpi\n      mload(0x40)\n      0x08c379a000000000000000000000000000000000000000000000000000000000\n      dup2\n      mstore\n      0x04\n      add\n      tag_318\n      swap1\n      tag_319\n      jump\t// in\n    tag_318:\n      mload(0x40)\n      dup1\n      swap2\n      sub\n      swap1\n      revert\n    tag_317:\n        /* \"contracts/PublicSaleLaunch.sol\":2607:2608  c */\n      dup1\n        /* \"contracts/PublicSaleLaunch.sol\":2600:2608  return c */\n      swap2\n      pop\n      pop\n        /* \"contracts/PublicSaleLaunch.sol\":2156:2615  function mul(uint256 a, uint256 b) internal pure returns (uint256) {... */\n    tag_311:\n      swap3\n      swap2\n      pop\n      pop\n      jump\t// out\n        /* \"contracts/PublicSaleLaunch.sol\":3071:3201  function div(uint256 a, uint256 b) internal pure returns (uint256) {... */\n    tag_200:\n        /* \"contracts/PublicSaleLaunch.sol\":3129:3136  uint256 */\n      0x00\n        /* \"contracts/PublicSaleLaunch.sol\":3155:3194  div(a, b, \"SafeMath: division by zero\") */\n      tag_321\n        /* \"contracts/PublicSaleLaunch.sol\":3159:3160  a */\n      dup4\n        /* \"contracts/PublicSaleLaunch.sol\":3162:3163  b */\n      dup4\n        /* \"contracts/PublicSaleLaunch.sol\":3155:3194  div(a, b, \"SafeMath: division by zero\") */\n      mload(0x40)\n      dup1\n      0x40\n      add\n      0x40\n      mstore\n      dup1\n      0x1a\n      dup2\n      mstore\n      0x20\n      add\n      0x536166654d6174683a206469766973696f6e206279207a65726f000000000000\n      dup2\n      mstore\n      pop\n        /* \"contracts/PublicSaleLaunch.sol\":3155:3158  div */\n      tag_322\n        /* \"contracts/PublicSaleLaunch.sol\":3155:3194  div(a, b, \"SafeMath: division by zero\") */\n      jump\t// in\n    tag_321:\n        /* \"contracts/PublicSaleLaunch.sol\":3148:3194  return div(a, b, \"SafeMath: division by zero\") */\n      swap1\n      pop\n        /* \"contracts/PublicSaleLaunch.sol\":3071:3201  function div(uint256 a, uint256 b) internal pure returns (uint256) {... */\n      swap3\n      swap2\n      pop\n      pop\n      jump\t// out\n        /* \"contracts/PublicSaleLaunch.sol\":1311:1445  function sub(uint256 a, uint256 b) internal pure returns (uint256) {... */\n    tag_241:\n        /* \"contracts/PublicSaleLaunch.sol\":1369:1376  uint256 */\n      0x00\n        /* \"contracts/PublicSaleLaunch.sol\":1395:1438  sub(a, b, \"SafeMath: subtraction overflow\") */\n      tag_324\n        /* \"contracts/PublicSaleLaunch.sol\":1399:1400  a */\n      dup4\n        /* \"contracts/PublicSaleLaunch.sol\":1402:1403  b */\n      dup4\n        /* \"contracts/PublicSaleLaunch.sol\":1395:1438  sub(a, b, \"SafeMath: subtraction overflow\") */\n      mload(0x40)\n      dup1\n      0x40\n      add\n      0x40\n      mstore\n      dup1\n      0x1e\n      dup2\n      mstore\n      0x20\n      add\n      0x536166654d6174683a207375627472616374696f6e206f766572666c6f770000\n      dup2\n      mstore\n      pop\n        /* \"contracts/PublicSaleLaunch.sol\":1395:1398  sub */\n      tag_325\n        /* \"contracts/PublicSaleLaunch.sol\":1395:1438  sub(a, b, \"SafeMath: subtraction overflow\") */\n      jump\t// in\n    tag_324:\n        /* \"contracts/PublicSaleLaunch.sol\":1388:1438  return sub(a, b, \"SafeMath: subtraction overflow\") */\n      swap1\n      pop\n        /* \"contracts/PublicSaleLaunch.sol\":1311:1445  function sub(uint256 a, uint256 b) internal pure returns (uint256) {... */\n      swap3\n      swap2\n      pop\n      pop\n      jump\t// out\n        /* \"contracts/PublicSaleLaunch.sol\":871:1047  function add(uint256 a, uint256 b) internal pure returns (uint256) {... */\n    tag_256:\n        /* \"contracts/PublicSaleLaunch.sol\":929:936  uint256 */\n      0x00\n        /* \"contracts/PublicSaleLaunch.sol\":948:957  uint256 c */\n      dup1\n        /* \"contracts/PublicSaleLaunch.sol\":964:965  b */\n      dup3\n        /* \"contracts/PublicSaleLaunch.sol\":960:961  a */\n      dup5\n        /* \"contracts/PublicSaleLaunch.sol\":960:965  a + b */\n      tag_327\n      swap2\n      swap1\n      tag_328\n      jump\t// in\n    tag_327:\n        /* \"contracts/PublicSaleLaunch.sol\":948:965  uint256 c = a + b */\n      swap1\n      pop\n        /* \"contracts/PublicSaleLaunch.sol\":988:989  a */\n      dup4\n        /* \"contracts/PublicSaleLaunch.sol\":983:984  c */\n      dup2\n        /* \"contracts/PublicSaleLaunch.sol\":983:989  c >= a */\n      lt\n      iszero\n        /* \"contracts/PublicSaleLaunch.sol\":975:1021  require(c >= a, \"SafeMath: addition overflow\") */\n      tag_329\n      jumpi\n      mload(0x40)\n      0x08c379a000000000000000000000000000000000000000000000000000000000\n      dup2\n      mstore\n      0x04\n      add\n      tag_330\n      swap1\n      tag_331\n      jump\t// in\n    tag_330:\n      mload(0x40)\n      dup1\n      swap2\n      sub\n      swap1\n      revert\n    tag_329:\n        /* \"contracts/PublicSaleLaunch.sol\":1039:1040  c */\n      dup1\n        /* \"contracts/PublicSaleLaunch.sol\":1032:1040  return c */\n      swap2\n      pop\n      pop\n        /* \"contracts/PublicSaleLaunch.sol\":871:1047  function add(uint256 a, uint256 b) internal pure returns (uint256) {... */\n      swap3\n      swap2\n      pop\n      pop\n      jump\t// out\n        /* \"contracts/PublicSaleLaunch.sol\":11718:12102  function _claimUSDC(uint256 _amt) private returns(bool)... */\n    tag_294:\n        /* \"contracts/PublicSaleLaunch.sol\":11768:11772  bool */\n      0x00\n        /* \"contracts/PublicSaleLaunch.sol\":11788:11807  uint256 _cBalBefore */\n      dup1\n        /* \"contracts/PublicSaleLaunch.sol\":11810:11814  USDC */\n      0x02\n      0x00\n      swap1\n      sload\n      swap1\n      0x0100\n      exp\n      swap1\n      div\n      0xffffffffffffffffffffffffffffffffffffffff\n      and\n        /* \"contracts/PublicSaleLaunch.sol\":11810:11824  USDC.balanceOf */\n      0xffffffffffffffffffffffffffffffffffffffff\n      and\n      0x70a08231\n        /* \"contracts/PublicSaleLaunch.sol\":11833:11837  this */\n      address\n        /* \"contracts/PublicSaleLaunch.sol\":11810:11839  USDC.balanceOf(address(this)) */\n      mload(0x40)\n      dup3\n      0xffffffff\n      and\n      0xe0\n      shl\n      dup2\n      mstore\n      0x04\n      add\n      tag_333\n      swap2\n      swap1\n      tag_106\n      jump\t// in\n    tag_333:\n      0x20\n      mload(0x40)\n      dup1\n      dup4\n      sub\n      dup2\n      dup7\n      dup1\n      extcodesize\n      iszero\n      dup1\n      iszero\n      tag_334\n      jumpi\n      0x00\n      dup1\n      revert\n    tag_334:\n      pop\n      gas\n      staticcall\n      iszero\n      dup1\n      iszero\n      tag_336\n      jumpi\n      returndatasize\n      0x00\n      dup1\n      returndatacopy\n      revert(0x00, returndatasize)\n    tag_336:\n      pop\n      pop\n      pop\n      pop\n      mload(0x40)\n      returndatasize\n      not(0x1f)\n      0x1f\n      dup3\n      add\n      and\n      dup3\n      add\n      dup1\n      0x40\n      mstore\n      pop\n      dup2\n      add\n      swap1\n      tag_337\n      swap2\n      swap1\n      tag_179\n      jump\t// in\n    tag_337:\n        /* \"contracts/PublicSaleLaunch.sol\":11788:11839  uint256 _cBalBefore = USDC.balanceOf(address(this)) */\n      swap1\n      pop\n        /* \"contracts/PublicSaleLaunch.sol\":11849:11853  USDC */\n      0x02\n      0x00\n      swap1\n      sload\n      swap1\n      0x0100\n      exp\n      swap1\n      div\n      0xffffffffffffffffffffffffffffffffffffffff\n      and\n        /* \"contracts/PublicSaleLaunch.sol\":11849:11866  USDC.transferFrom */\n      0xffffffffffffffffffffffffffffffffffffffff\n      and\n      0x23b872dd\n        /* \"contracts/PublicSaleLaunch.sol\":11867:11877  msg.sender */\n      caller\n        /* \"contracts/PublicSaleLaunch.sol\":11887:11891  this */\n      address\n        /* \"contracts/PublicSaleLaunch.sol\":11894:11898  _amt */\n      dup7\n        /* \"contracts/PublicSaleLaunch.sol\":11849:11899  USDC.transferFrom(msg.sender, address(this), _amt) */\n      mload(0x40)\n      dup5\n      0xffffffff\n      and\n      0xe0\n      shl\n      dup2\n      mstore\n      0x04\n      add\n      tag_338\n      swap4\n      swap3\n      swap2\n      swap1\n      tag_339\n      jump\t// in\n    tag_338:\n      0x20\n      mload(0x40)\n      dup1\n      dup4\n      sub\n      dup2\n      0x00\n      dup8\n      dup1\n      extcodesize\n      iszero\n      dup1\n      iszero\n      tag_340\n      jumpi\n      0x00\n      dup1\n      revert\n    tag_340:\n      pop\n      gas\n      call\n      iszero\n      dup1\n      iszero\n      tag_342\n      jumpi\n      returndatasize\n      0x00\n      dup1\n      returndatacopy\n      revert(0x00, returndatasize)\n    tag_342:\n      pop\n      pop\n      pop\n      pop\n      mload(0x40)\n      returndatasize\n      not(0x1f)\n      0x1f\n      dup3\n      add\n      and\n      dup3\n      add\n      dup1\n      0x40\n      mstore\n      pop\n      dup2\n      add\n      swap1\n      tag_343\n      swap2\n      swap1\n      tag_224\n      jump\t// in\n    tag_343:\n      pop\n        /* \"contracts/PublicSaleLaunch.sol\":11909:11927  uint256 _cBalAfter */\n      0x00\n        /* \"contracts/PublicSaleLaunch.sol\":11930:11934  USDC */\n      0x02\n      0x00\n      swap1\n      sload\n      swap1\n      0x0100\n      exp\n      swap1\n      div\n      0xffffffffffffffffffffffffffffffffffffffff\n      and\n        /* \"contracts/PublicSaleLaunch.sol\":11930:11944  USDC.balanceOf */\n      0xffffffffffffffffffffffffffffffffffffffff\n      and\n      0x70a08231\n        /* \"contracts/PublicSaleLaunch.sol\":11953:11957  this */\n      address\n        /* \"contracts/PublicSaleLaunch.sol\":11930:11959  USDC.balanceOf(address(this)) */\n      mload(0x40)\n      dup3\n      0xffffffff\n      and\n      0xe0\n      shl\n      dup2\n      mstore\n      0x04\n      add\n      tag_344\n      swap2\n      swap1\n      tag_106\n      jump\t// in\n    tag_344:\n      0x20\n      mload(0x40)\n      dup1\n      dup4\n      sub\n      dup2\n      dup7\n      dup1\n      extcodesize\n      iszero\n      dup1\n      iszero\n      tag_345\n      jumpi\n      0x00\n      dup1\n      revert\n    tag_345:\n      pop\n      gas\n      staticcall\n      iszero\n      dup1\n      iszero\n      tag_347\n      jumpi\n      returndatasize\n      0x00\n      dup1\n      returndatacopy\n      revert(0x00, returndatasize)\n    tag_347:\n      pop\n      pop\n      pop\n      pop\n      mload(0x40)\n      returndatasize\n      not(0x1f)\n      0x1f\n      dup3\n      add\n      and\n      dup3\n      add\n      dup1\n      0x40\n      mstore\n      pop\n      dup2\n      add\n      swap1\n      tag_348\n      swap2\n      swap1\n      tag_179\n      jump\t// in\n    tag_348:\n        /* \"contracts/PublicSaleLaunch.sol\":11909:11959  uint256 _cBalAfter = USDC.balanceOf(address(this)) */\n      swap1\n      pop\n        /* \"contracts/PublicSaleLaunch.sol\":11987:11998  _cBalBefore */\n      dup2\n        /* \"contracts/PublicSaleLaunch.sol\":11973:11983  _cBalAfter */\n      dup2\n        /* \"contracts/PublicSaleLaunch.sol\":11973:11998  _cBalAfter <= _cBalBefore */\n      gt\n        /* \"contracts/PublicSaleLaunch.sol\":11969:12012  if (_cBalAfter <= _cBalBefore) return false */\n      tag_349\n      jumpi\n        /* \"contracts/PublicSaleLaunch.sol\":12007:12012  false */\n      0x00\n        /* \"contracts/PublicSaleLaunch.sol\":12000:12012  return false */\n      swap3\n      pop\n      pop\n      pop\n      jump(tag_332)\n        /* \"contracts/PublicSaleLaunch.sol\":11969:12012  if (_cBalAfter <= _cBalBefore) return false */\n    tag_349:\n        /* \"contracts/PublicSaleLaunch.sol\":12039:12060  _cBalBefore.add(_amt) */\n      tag_350\n        /* \"contracts/PublicSaleLaunch.sol\":12055:12059  _amt */\n      dup5\n        /* \"contracts/PublicSaleLaunch.sol\":12039:12050  _cBalBefore */\n      dup4\n        /* \"contracts/PublicSaleLaunch.sol\":12039:12054  _cBalBefore.add */\n      tag_256\n      swap1\n        /* \"contracts/PublicSaleLaunch.sol\":12039:12060  _cBalBefore.add(_amt) */\n      swap2\n      swap1\n      0xffffffff\n      and\n      jump\t// in\n    tag_350:\n        /* \"contracts/PublicSaleLaunch.sol\":12026:12036  _cBalAfter */\n      dup2\n        /* \"contracts/PublicSaleLaunch.sol\":12026:12060  _cBalAfter < _cBalBefore.add(_amt) */\n      lt\n        /* \"contracts/PublicSaleLaunch.sol\":12022:12074  if (_cBalAfter < _cBalBefore.add(_amt)) return false */\n      iszero\n      tag_351\n      jumpi\n        /* \"contracts/PublicSaleLaunch.sol\":12069:12074  false */\n      0x00\n        /* \"contracts/PublicSaleLaunch.sol\":12062:12074  return false */\n      swap3\n      pop\n      pop\n      pop\n      jump(tag_332)\n        /* \"contracts/PublicSaleLaunch.sol\":12022:12074  if (_cBalAfter < _cBalBefore.add(_amt)) return false */\n    tag_351:\n        /* \"contracts/PublicSaleLaunch.sol\":12091:12095  true */\n      0x01\n        /* \"contracts/PublicSaleLaunch.sol\":12084:12095  return true */\n      swap3\n      pop\n      pop\n      pop\n        /* \"contracts/PublicSaleLaunch.sol\":11718:12102  function _claimUSDC(uint256 _amt) private returns(bool)... */\n    tag_332:\n      swap2\n      swap1\n      pop\n      jump\t// out\n        /* \"contracts/PublicSaleLaunch.sol\":3676:4014  function div(uint256 a, uint256 b, string memory errorMessage) internal pure returns (uint256) {... */\n    tag_322:\n        /* \"contracts/PublicSaleLaunch.sol\":3762:3769  uint256 */\n      0x00\n        /* \"contracts/PublicSaleLaunch.sol\":3859:3860  0 */\n      dup1\n        /* \"contracts/PublicSaleLaunch.sol\":3855:3856  b */\n      dup4\n        /* \"contracts/PublicSaleLaunch.sol\":3855:3860  b > 0 */\n      gt\n        /* \"contracts/PublicSaleLaunch.sol\":3862:3874  errorMessage */\n      dup3\n        /* \"contracts/PublicSaleLaunch.sol\":3847:3875  require(b > 0, errorMessage) */\n      swap1\n      tag_353\n      jumpi\n      mload(0x40)\n      0x08c379a000000000000000000000000000000000000000000000000000000000\n      dup2\n      mstore\n      0x04\n      add\n      tag_354\n      swap2\n      swap1\n      tag_355\n      jump\t// in\n    tag_354:\n      mload(0x40)\n      dup1\n      swap2\n      sub\n      swap1\n      revert\n    tag_353:\n      pop\n        /* \"contracts/PublicSaleLaunch.sol\":3885:3894  uint256 c */\n      0x00\n        /* \"contracts/PublicSaleLaunch.sol\":3901:3902  b */\n      dup4\n        /* \"contracts/PublicSaleLaunch.sol\":3897:3898  a */\n      dup6\n        /* \"contracts/PublicSaleLaunch.sol\":3897:3902  a / b */\n      tag_356\n      swap2\n      swap1\n      tag_316\n      jump\t// in\n    tag_356:\n        /* \"contracts/PublicSaleLaunch.sol\":3885:3902  uint256 c = a / b */\n      swap1\n      pop\n        /* \"contracts/PublicSaleLaunch.sol\":4006:4007  c */\n      dup1\n        /* \"contracts/PublicSaleLaunch.sol\":3999:4007  return c */\n      swap2\n      pop\n      pop\n        /* \"contracts/PublicSaleLaunch.sol\":3676:4014  function div(uint256 a, uint256 b, string memory errorMessage) internal pure returns (uint256) {... */\n      swap4\n      swap3\n      pop\n      pop\n      pop\n      jump\t// out\n        /* \"contracts/PublicSaleLaunch.sol\":1729:1916  function sub(uint256 a, uint256 b, string memory errorMessage) internal pure returns (uint256) {... */\n    tag_325:\n        /* \"contracts/PublicSaleLaunch.sol\":1815:1822  uint256 */\n      0x00\n        /* \"contracts/PublicSaleLaunch.sol\":1847:1848  a */\n      dup4\n        /* \"contracts/PublicSaleLaunch.sol\":1842:1843  b */\n      dup4\n        /* \"contracts/PublicSaleLaunch.sol\":1842:1848  b <= a */\n      gt\n      iszero\n        /* \"contracts/PublicSaleLaunch.sol\":1850:1862  errorMessage */\n      dup3\n        /* \"contracts/PublicSaleLaunch.sol\":1834:1863  require(b <= a, errorMessage) */\n      swap1\n      tag_358\n      jumpi\n      mload(0x40)\n      0x08c379a000000000000000000000000000000000000000000000000000000000\n      dup2\n      mstore\n      0x04\n      add\n      tag_359\n      swap2\n      swap1\n      tag_355\n      jump\t// in\n    tag_359:\n      mload(0x40)\n      dup1\n      swap2\n      sub\n      swap1\n      revert\n    tag_358:\n      pop\n        /* \"contracts/PublicSaleLaunch.sol\":1873:1882  uint256 c */\n      0x00\n        /* \"contracts/PublicSaleLaunch.sol\":1889:1890  b */\n      dup4\n        /* \"contracts/PublicSaleLaunch.sol\":1885:1886  a */\n      dup6\n        /* \"contracts/PublicSaleLaunch.sol\":1885:1890  a - b */\n      tag_360\n      swap2\n      swap1\n      tag_361\n      jump\t// in\n    tag_360:\n        /* \"contracts/PublicSaleLaunch.sol\":1873:1890  uint256 c = a - b */\n      swap1\n      pop\n        /* \"contracts/PublicSaleLaunch.sol\":1908:1909  c */\n      dup1\n        /* \"contracts/PublicSaleLaunch.sol\":1901:1909  return c */\n      swap2\n      pop\n      pop\n        /* \"contracts/PublicSaleLaunch.sol\":1729:1916  function sub(uint256 a, uint256 b, string memory errorMessage) internal pure returns (uint256) {... */\n      swap4\n      swap3\n      pop\n      pop\n      pop\n      jump\t// out\n        /* \"#utility.yul\":7:146   */\n    tag_363:\n        /* \"#utility.yul\":53:58   */\n      0x00\n        /* \"#utility.yul\":91:97   */\n      dup2\n        /* \"#utility.yul\":78:98   */\n      calldataload\n        /* \"#utility.yul\":69:98   */\n      swap1\n      pop\n        /* \"#utility.yul\":107:140   */\n      tag_365\n        /* \"#utility.yul\":134:139   */\n      dup2\n        /* \"#utility.yul\":107:140   */\n      tag_366\n      jump\t// in\n    tag_365:\n        /* \"#utility.yul\":7:146   */\n      swap3\n      swap2\n      pop\n      pop\n      jump\t// out\n        /* \"#utility.yul\":152:289   */\n    tag_367:\n        /* \"#utility.yul\":206:211   */\n      0x00\n        /* \"#utility.yul\":237:243   */\n      dup2\n        /* \"#utility.yul\":231:244   */\n      mload\n        /* \"#utility.yul\":222:244   */\n      swap1\n      pop\n        /* \"#utility.yul\":253:283   */\n      tag_369\n        /* \"#utility.yul\":277:282   */\n      dup2\n        /* \"#utility.yul\":253:283   */\n      tag_370\n      jump\t// in\n    tag_369:\n        /* \"#utility.yul\":152:289   */\n      swap3\n      swap2\n      pop\n      pop\n      jump\t// out\n        /* \"#utility.yul\":295:462   */\n    tag_371:\n        /* \"#utility.yul\":355:360   */\n      0x00\n        /* \"#utility.yul\":393:399   */\n      dup2\n        /* \"#utility.yul\":380:400   */\n      calldataload\n        /* \"#utility.yul\":371:400   */\n      swap1\n      pop\n        /* \"#utility.yul\":409:456   */\n      tag_373\n        /* \"#utility.yul\":450:455   */\n      dup2\n        /* \"#utility.yul\":409:456   */\n      tag_374\n      jump\t// in\n    tag_373:\n        /* \"#utility.yul\":295:462   */\n      swap3\n      swap2\n      pop\n      pop\n      jump\t// out\n        /* \"#utility.yul\":468:607   */\n    tag_375:\n        /* \"#utility.yul\":514:519   */\n      0x00\n        /* \"#utility.yul\":552:558   */\n      dup2\n        /* \"#utility.yul\":539:559   */\n      calldataload\n        /* \"#utility.yul\":530:559   */\n      swap1\n      pop\n        /* \"#utility.yul\":568:601   */\n      tag_377\n        /* \"#utility.yul\":595:600   */\n      dup2\n        /* \"#utility.yul\":568:601   */\n      tag_378\n      jump\t// in\n    tag_377:\n        /* \"#utility.yul\":468:607   */\n      swap3\n      swap2\n      pop\n      pop\n      jump\t// out\n        /* \"#utility.yul\":613:756   */\n    tag_379:\n        /* \"#utility.yul\":670:675   */\n      0x00\n        /* \"#utility.yul\":701:707   */\n      dup2\n        /* \"#utility.yul\":695:708   */\n      mload\n        /* \"#utility.yul\":686:708   */\n      swap1\n      pop\n        /* \"#utility.yul\":717:750   */\n      tag_381\n        /* \"#utility.yul\":744:749   */\n      dup2\n        /* \"#utility.yul\":717:750   */\n      tag_378\n      jump\t// in\n    tag_381:\n        /* \"#utility.yul\":613:756   */\n      swap3\n      swap2\n      pop\n      pop\n      jump\t// out\n        /* \"#utility.yul\":762:1091   */\n    tag_73:\n        /* \"#utility.yul\":821:827   */\n      0x00\n        /* \"#utility.yul\":870:872   */\n      0x20\n        /* \"#utility.yul\":858:867   */\n      dup3\n        /* \"#utility.yul\":849:856   */\n      dup5\n        /* \"#utility.yul\":845:868   */\n      sub\n        /* \"#utility.yul\":841:873   */\n      slt\n        /* \"#utility.yul\":838:957   */\n      iszero\n      tag_383\n      jumpi\n        /* \"#utility.yul\":876:955   */\n      tag_384\n      tag_385\n      jump\t// in\n    tag_384:\n        /* \"#utility.yul\":838:957   */\n    tag_383:\n        /* \"#utility.yul\":996:997   */\n      0x00\n        /* \"#utility.yul\":1021:1074   */\n      tag_386\n        /* \"#utility.yul\":1066:1073   */\n      dup5\n        /* \"#utility.yul\":1057:1063   */\n      dup3\n        /* \"#utility.yul\":1046:1055   */\n      dup6\n        /* \"#utility.yul\":1042:1064   */\n      add\n        /* \"#utility.yul\":1021:1074   */\n      tag_363\n      jump\t// in\n    tag_386:\n        /* \"#utility.yul\":1011:1074   */\n      swap2\n      pop\n        /* \"#utility.yul\":967:1084   */\n      pop\n        /* \"#utility.yul\":762:1091   */\n      swap3\n      swap2\n      pop\n      pop\n      jump\t// out\n        /* \"#utility.yul\":1097:1442   */\n    tag_224:\n        /* \"#utility.yul\":1164:1170   */\n      0x00\n        /* \"#utility.yul\":1213:1215   */\n      0x20\n        /* \"#utility.yul\":1201:1210   */\n      dup3\n        /* \"#utility.yul\":1192:1199   */\n      dup5\n        /* \"#utility.yul\":1188:1211   */\n      sub\n        /* \"#utility.yul\":1184:1216   */\n      slt\n        /* \"#utility.yul\":1181:1300   */\n      iszero\n      tag_388\n      jumpi\n        /* \"#utility.yul\":1219:1298   */\n      tag_389\n      tag_385\n      jump\t// in\n    tag_389:\n        /* \"#utility.yul\":1181:1300   */\n    tag_388:\n        /* \"#utility.yul\":1339:1340   */\n      0x00\n        /* \"#utility.yul\":1364:1425   */\n      tag_390\n        /* \"#utility.yul\":1417:1424   */\n      dup5\n        /* \"#utility.yul\":1408:1414   */\n      dup3\n        /* \"#utility.yul\":1397:1406   */\n      dup6\n        /* \"#utility.yul\":1393:1415   */\n      add\n        /* \"#utility.yul\":1364:1425   */\n      tag_367\n      jump\t// in\n    tag_390:\n        /* \"#utility.yul\":1354:1425   */\n      swap2\n      pop\n        /* \"#utility.yul\":1310:1435   */\n      pop\n        /* \"#utility.yul\":1097:1442   */\n      swap3\n      swap2\n      pop\n      pop\n      jump\t// out\n        /* \"#utility.yul\":1448:1805   */\n    tag_43:\n        /* \"#utility.yul\":1521:1527   */\n      0x00\n        /* \"#utility.yul\":1570:1572   */\n      0x20\n        /* \"#utility.yul\":1558:1567   */\n      dup3\n        /* \"#utility.yul\":1549:1556   */\n      dup5\n        /* \"#utility.yul\":1545:1568   */\n      sub\n        /* \"#utility.yul\":1541:1573   */\n      slt\n        /* \"#utility.yul\":1538:1657   */\n      iszero\n      tag_392\n      jumpi\n        /* \"#utility.yul\":1576:1655   */\n      tag_393\n      tag_385\n      jump\t// in\n    tag_393:\n        /* \"#utility.yul\":1538:1657   */\n    tag_392:\n        /* \"#utility.yul\":1696:1697   */\n      0x00\n        /* \"#utility.yul\":1721:1788   */\n      tag_394\n        /* \"#utility.yul\":1780:1787   */\n      dup5\n        /* \"#utility.yul\":1771:1777   */\n      dup3\n        /* \"#utility.yul\":1760:1769   */\n      dup6\n        /* \"#utility.yul\":1756:1778   */\n      add\n        /* \"#utility.yul\":1721:1788   */\n      tag_371\n      jump\t// in\n    tag_394:\n        /* \"#utility.yul\":1711:1788   */\n      swap2\n      pop\n        /* \"#utility.yul\":1667:1798   */\n      pop\n        /* \"#utility.yul\":1448:1805   */\n      swap3\n      swap2\n      pop\n      pop\n      jump\t// out\n        /* \"#utility.yul\":1811:2140   */\n    tag_48:\n        /* \"#utility.yul\":1870:1876   */\n      0x00\n        /* \"#utility.yul\":1919:1921   */\n      0x20\n        /* \"#utility.yul\":1907:1916   */\n      dup3\n        /* \"#utility.yul\":1898:1905   */\n      dup5\n        /* \"#utility.yul\":1894:1917   */\n      sub\n        /* \"#utility.yul\":1890:1922   */\n      slt\n        /* \"#utility.yul\":1887:2006   */\n      iszero\n      tag_396\n      jumpi\n        /* \"#utility.yul\":1925:2004   */\n      tag_397\n      tag_385\n      jump\t// in\n    tag_397:\n        /* \"#utility.yul\":1887:2006   */\n    tag_396:\n        /* \"#utility.yul\":2045:2046   */\n      0x00\n        /* \"#utility.yul\":2070:2123   */\n      tag_398\n        /* \"#utility.yul\":2115:2122   */\n      dup5\n        /* \"#utility.yul\":2106:2112   */\n      dup3\n        /* \"#utility.yul\":2095:2104   */\n      dup6\n        /* \"#utility.yul\":2091:2113   */\n      add\n        /* \"#utility.yul\":2070:2123   */\n      tag_375\n      jump\t// in\n    tag_398:\n        /* \"#utility.yul\":2060:2123   */\n      swap2\n      pop\n        /* \"#utility.yul\":2016:2133   */\n      pop\n        /* \"#utility.yul\":1811:2140   */\n      swap3\n      swap2\n      pop\n      pop\n      jump\t// out\n        /* \"#utility.yul\":2146:2497   */\n    tag_179:\n        /* \"#utility.yul\":2216:2222   */\n      0x00\n        /* \"#utility.yul\":2265:2267   */\n      0x20\n        /* \"#utility.yul\":2253:2262   */\n      dup3\n        /* \"#utility.yul\":2244:2251   */\n      dup5\n        /* \"#utility.yul\":2240:2263   */\n      sub\n        /* \"#utility.yul\":2236:2268   */\n      slt\n        /* \"#utility.yul\":2233:2352   */\n      iszero\n      tag_400\n      jumpi\n        /* \"#utility.yul\":2271:2350   */\n      tag_401\n      tag_385\n      jump\t// in\n    tag_401:\n        /* \"#utility.yul\":2233:2352   */\n    tag_400:\n        /* \"#utility.yul\":2391:2392   */\n      0x00\n        /* \"#utility.yul\":2416:2480   */\n      tag_402\n        /* \"#utility.yul\":2472:2479   */\n      dup5\n        /* \"#utility.yul\":2463:2469   */\n      dup3\n        /* \"#utility.yul\":2452:2461   */\n      dup6\n        /* \"#utility.yul\":2448:2470   */\n      add\n        /* \"#utility.yul\":2416:2480   */\n      tag_379\n      jump\t// in\n    tag_402:\n        /* \"#utility.yul\":2406:2480   */\n      swap2\n      pop\n        /* \"#utility.yul\":2362:2490   */\n      pop\n        /* \"#utility.yul\":2146:2497   */\n      swap3\n      swap2\n      pop\n      pop\n      jump\t// out\n        /* \"#utility.yul\":2503:2621   */\n    tag_403:\n        /* \"#utility.yul\":2590:2614   */\n      tag_405\n        /* \"#utility.yul\":2608:2613   */\n      dup2\n        /* \"#utility.yul\":2590:2614   */\n      tag_406\n      jump\t// in\n    tag_405:\n        /* \"#utility.yul\":2585:2588   */\n      dup3\n        /* \"#utility.yul\":2578:2615   */\n      mstore\n        /* \"#utility.yul\":2503:2621   */\n      pop\n      pop\n      jump\t// out\n        /* \"#utility.yul\":2627:2736   */\n    tag_407:\n        /* \"#utility.yul\":2708:2729   */\n      tag_409\n        /* \"#utility.yul\":2723:2728   */\n      dup2\n        /* \"#utility.yul\":2708:2729   */\n      tag_410\n      jump\t// in\n    tag_409:\n        /* \"#utility.yul\":2703:2706   */\n      dup3\n        /* \"#utility.yul\":2696:2730   */\n      mstore\n        /* \"#utility.yul\":2627:2736   */\n      pop\n      pop\n      jump\t// out\n        /* \"#utility.yul\":2742:2901   */\n    tag_411:\n        /* \"#utility.yul\":2843:2894   */\n      tag_413\n        /* \"#utility.yul\":2888:2893   */\n      dup2\n        /* \"#utility.yul\":2843:2894   */\n      tag_414\n      jump\t// in\n    tag_413:\n        /* \"#utility.yul\":2838:2841   */\n      dup3\n        /* \"#utility.yul\":2831:2895   */\n      mstore\n        /* \"#utility.yul\":2742:2901   */\n      pop\n      pop\n      jump\t// out\n        /* \"#utility.yul\":2907:3271   */\n    tag_415:\n        /* \"#utility.yul\":2995:2998   */\n      0x00\n        /* \"#utility.yul\":3023:3062   */\n      tag_417\n        /* \"#utility.yul\":3056:3061   */\n      dup3\n        /* \"#utility.yul\":3023:3062   */\n      tag_418\n      jump\t// in\n    tag_417:\n        /* \"#utility.yul\":3078:3149   */\n      tag_419\n        /* \"#utility.yul\":3142:3148   */\n      dup2\n        /* \"#utility.yul\":3137:3140   */\n      dup6\n        /* \"#utility.yul\":3078:3149   */\n      tag_420\n      jump\t// in\n    tag_419:\n        /* \"#utility.yul\":3071:3149   */\n      swap4\n      pop\n        /* \"#utility.yul\":3158:3210   */\n      tag_421\n        /* \"#utility.yul\":3203:3209   */\n      dup2\n        /* \"#utility.yul\":3198:3201   */\n      dup6\n        /* \"#utility.yul\":3191:3195   */\n      0x20\n        /* \"#utility.yul\":3184:3189   */\n      dup7\n        /* \"#utility.yul\":3180:3196   */\n      add\n        /* \"#utility.yul\":3158:3210   */\n      tag_422\n      jump\t// in\n    tag_421:\n        /* \"#utility.yul\":3235:3264   */\n      tag_423\n        /* \"#utility.yul\":3257:3263   */\n      dup2\n        /* \"#utility.yul\":3235:3264   */\n      tag_424\n      jump\t// in\n    tag_423:\n        /* \"#utility.yul\":3230:3233   */\n      dup5\n        /* \"#utility.yul\":3226:3265   */\n      add\n        /* \"#utility.yul\":3219:3265   */\n      swap2\n      pop\n        /* \"#utility.yul\":2999:3271   */\n      pop\n        /* \"#utility.yul\":2907:3271   */\n      swap3\n      swap2\n      pop\n      pop\n      jump\t// out\n        /* \"#utility.yul\":3277:3643   */\n    tag_425:\n        /* \"#utility.yul\":3419:3422   */\n      0x00\n        /* \"#utility.yul\":3440:3507   */\n      tag_427\n        /* \"#utility.yul\":3504:3506   */\n      0x0f\n        /* \"#utility.yul\":3499:3502   */\n      dup4\n        /* \"#utility.yul\":3440:3507   */\n      tag_420\n      jump\t// in\n    tag_427:\n        /* \"#utility.yul\":3433:3507   */\n      swap2\n      pop\n        /* \"#utility.yul\":3516:3609   */\n      tag_428\n        /* \"#utility.yul\":3605:3608   */\n      dup3\n        /* \"#utility.yul\":3516:3609   */\n      tag_429\n      jump\t// in\n    tag_428:\n        /* \"#utility.yul\":3634:3636   */\n      0x20\n        /* \"#utility.yul\":3629:3632   */\n      dup3\n        /* \"#utility.yul\":3625:3637   */\n      add\n        /* \"#utility.yul\":3618:3637   */\n      swap1\n      pop\n        /* \"#utility.yul\":3277:3643   */\n      swap2\n      swap1\n      pop\n      jump\t// out\n        /* \"#utility.yul\":3649:4015   */\n    tag_430:\n        /* \"#utility.yul\":3791:3794   */\n      0x00\n        /* \"#utility.yul\":3812:3879   */\n      tag_432\n        /* \"#utility.yul\":3876:3878   */\n      0x11\n        /* \"#utility.yul\":3871:3874   */\n      dup4\n        /* \"#utility.yul\":3812:3879   */\n      tag_420\n      jump\t// in\n    tag_432:\n        /* \"#utility.yul\":3805:3879   */\n      swap2\n      pop\n        /* \"#utility.yul\":3888:3981   */\n      tag_433\n        /* \"#utility.yul\":3977:3980   */\n      dup3\n        /* \"#utility.yul\":3888:3981   */\n      tag_434\n      jump\t// in\n    tag_433:\n        /* \"#utility.yul\":4006:4008   */\n      0x20\n        /* \"#utility.yul\":4001:4004   */\n      dup3\n        /* \"#utility.yul\":3997:4009   */\n      add\n        /* \"#utility.yul\":3990:4009   */\n      swap1\n      pop\n        /* \"#utility.yul\":3649:4015   */\n      swap2\n      swap1\n      pop\n      jump\t// out\n        /* \"#utility.yul\":4021:4387   */\n    tag_435:\n        /* \"#utility.yul\":4163:4166   */\n      0x00\n        /* \"#utility.yul\":4184:4251   */\n      tag_437\n        /* \"#utility.yul\":4248:4250   */\n      0x12\n        /* \"#utility.yul\":4243:4246   */\n      dup4\n        /* \"#utility.yul\":4184:4251   */\n      tag_420\n      jump\t// in\n    tag_437:\n        /* \"#utility.yul\":4177:4251   */\n      swap2\n      pop\n        /* \"#utility.yul\":4260:4353   */\n      tag_438\n        /* \"#utility.yul\":4349:4352   */\n      dup3\n        /* \"#utility.yul\":4260:4353   */\n      tag_439\n      jump\t// in\n    tag_438:\n        /* \"#utility.yul\":4378:4380   */\n      0x20\n        /* \"#utility.yul\":4373:4376   */\n      dup3\n        /* \"#utility.yul\":4369:4381   */\n      add\n        /* \"#utility.yul\":4362:4381   */\n      swap1\n      pop\n        /* \"#utility.yul\":4021:4387   */\n      swap2\n      swap1\n      pop\n      jump\t// out\n        /* \"#utility.yul\":4393:4759   */\n    tag_440:\n        /* \"#utility.yul\":4535:4538   */\n      0x00\n        /* \"#utility.yul\":4556:4623   */\n      tag_442\n        /* \"#utility.yul\":4620:4622   */\n      0x1b\n        /* \"#utility.yul\":4615:4618   */\n      dup4\n        /* \"#utility.yul\":4556:4623   */\n      tag_420\n      jump\t// in\n    tag_442:\n        /* \"#utility.yul\":4549:4623   */\n      swap2\n      pop\n        /* \"#utility.yul\":4632:4725   */\n      tag_443\n        /* \"#utility.yul\":4721:4724   */\n      dup3\n        /* \"#utility.yul\":4632:4725   */\n      tag_444\n      jump\t// in\n    tag_443:\n        /* \"#utility.yul\":4750:4752   */\n      0x20\n        /* \"#utility.yul\":4745:4748   */\n      dup3\n        /* \"#utility.yul\":4741:4753   */\n      add\n        /* \"#utility.yul\":4734:4753   */\n      swap1\n      pop\n        /* \"#utility.yul\":4393:4759   */\n      swap2\n      swap1\n      pop\n      jump\t// out\n        /* \"#utility.yul\":4765:5131   */\n    tag_445:\n        /* \"#utility.yul\":4907:4910   */\n      0x00\n        /* \"#utility.yul\":4928:4995   */\n      tag_447\n        /* \"#utility.yul\":4992:4994   */\n      0x12\n        /* \"#utility.yul\":4987:4990   */\n      dup4\n        /* \"#utility.yul\":4928:4995   */\n      tag_420\n      jump\t// in\n    tag_447:\n        /* \"#utility.yul\":4921:4995   */\n      swap2\n      pop\n        /* \"#utility.yul\":5004:5097   */\n      tag_448\n        /* \"#utility.yul\":5093:5096   */\n      dup3\n        /* \"#utility.yul\":5004:5097   */\n      tag_449\n      jump\t// in\n    tag_448:\n        /* \"#utility.yul\":5122:5124   */\n      0x20\n        /* \"#utility.yul\":5117:5120   */\n      dup3\n        /* \"#utility.yul\":5113:5125   */\n      add\n        /* \"#utility.yul\":5106:5125   */\n      swap1\n      pop\n        /* \"#utility.yul\":4765:5131   */\n      swap2\n      swap1\n      pop\n      jump\t// out\n        /* \"#utility.yul\":5137:5503   */\n    tag_450:\n        /* \"#utility.yul\":5279:5282   */\n      0x00\n        /* \"#utility.yul\":5300:5367   */\n      tag_452\n        /* \"#utility.yul\":5364:5366   */\n      0x12\n        /* \"#utility.yul\":5359:5362   */\n      dup4\n        /* \"#utility.yul\":5300:5367   */\n      tag_420\n      jump\t// in\n    tag_452:\n        /* \"#utility.yul\":5293:5367   */\n      swap2\n      pop\n        /* \"#utility.yul\":5376:5469   */\n      tag_453\n        /* \"#utility.yul\":5465:5468   */\n      dup3\n        /* \"#utility.yul\":5376:5469   */\n      tag_454\n      jump\t// in\n    tag_453:\n        /* \"#utility.yul\":5494:5496   */\n      0x20\n        /* \"#utility.yul\":5489:5492   */\n      dup3\n        /* \"#utility.yul\":5485:5497   */\n      add\n        /* \"#utility.yul\":5478:5497   */\n      swap1\n      pop\n        /* \"#utility.yul\":5137:5503   */\n      swap2\n      swap1\n      pop\n      jump\t// out\n        /* \"#utility.yul\":5509:5875   */\n    tag_455:\n        /* \"#utility.yul\":5651:5654   */\n      0x00\n        /* \"#utility.yul\":5672:5739   */\n      tag_457\n        /* \"#utility.yul\":5736:5738   */\n      0x21\n        /* \"#utility.yul\":5731:5734   */\n      dup4\n        /* \"#utility.yul\":5672:5739   */\n      tag_420\n      jump\t// in\n    tag_457:\n        /* \"#utility.yul\":5665:5739   */\n      swap2\n      pop\n        /* \"#utility.yul\":5748:5841   */\n      tag_458\n        /* \"#utility.yul\":5837:5840   */\n      dup3\n        /* \"#utility.yul\":5748:5841   */\n      tag_459\n      jump\t// in\n    tag_458:\n        /* \"#utility.yul\":5866:5868   */\n      0x40\n        /* \"#utility.yul\":5861:5864   */\n      dup3\n        /* \"#utility.yul\":5857:5869   */\n      add\n        /* \"#utility.yul\":5850:5869   */\n      swap1\n      pop\n        /* \"#utility.yul\":5509:5875   */\n      swap2\n      swap1\n      pop\n      jump\t// out\n        /* \"#utility.yul\":5881:6247   */\n    tag_460:\n        /* \"#utility.yul\":6023:6026   */\n      0x00\n        /* \"#utility.yul\":6044:6111   */\n      tag_462\n        /* \"#utility.yul\":6108:6110   */\n      0x0b\n        /* \"#utility.yul\":6103:6106   */\n      dup4\n        /* \"#utility.yul\":6044:6111   */\n      tag_420\n      jump\t// in\n    tag_462:\n        /* \"#utility.yul\":6037:6111   */\n      swap2\n      pop\n        /* \"#utility.yul\":6120:6213   */\n      tag_463\n        /* \"#utility.yul\":6209:6212   */\n      dup3\n        /* \"#utility.yul\":6120:6213   */\n      tag_464\n      jump\t// in\n    tag_463:\n        /* \"#utility.yul\":6238:6240   */\n      0x20\n        /* \"#utility.yul\":6233:6236   */\n      dup3\n        /* \"#utility.yul\":6229:6241   */\n      add\n        /* \"#utility.yul\":6222:6241   */\n      swap1\n      pop\n        /* \"#utility.yul\":5881:6247   */\n      swap2\n      swap1\n      pop\n      jump\t// out\n        /* \"#utility.yul\":6253:6619   */\n    tag_465:\n        /* \"#utility.yul\":6395:6398   */\n      0x00\n        /* \"#utility.yul\":6416:6483   */\n      tag_467\n        /* \"#utility.yul\":6480:6482   */\n      0x12\n        /* \"#utility.yul\":6475:6478   */\n      dup4\n        /* \"#utility.yul\":6416:6483   */\n      tag_420\n      jump\t// in\n    tag_467:\n        /* \"#utility.yul\":6409:6483   */\n      swap2\n      pop\n        /* \"#utility.yul\":6492:6585   */\n      tag_468\n        /* \"#utility.yul\":6581:6584   */\n      dup3\n        /* \"#utility.yul\":6492:6585   */\n      tag_469\n      jump\t// in\n    tag_468:\n        /* \"#utility.yul\":6610:6612   */\n      0x20\n        /* \"#utility.yul\":6605:6608   */\n      dup3\n        /* \"#utility.yul\":6601:6613   */\n      add\n        /* \"#utility.yul\":6594:6613   */\n      swap1\n      pop\n        /* \"#utility.yul\":6253:6619   */\n      swap2\n      swap1\n      pop\n      jump\t// out\n        /* \"#utility.yul\":6625:6991   */\n    tag_470:\n        /* \"#utility.yul\":6767:6770   */\n      0x00\n        /* \"#utility.yul\":6788:6855   */\n      tag_472\n        /* \"#utility.yul\":6852:6854   */\n      0x12\n        /* \"#utility.yul\":6847:6850   */\n      dup4\n        /* \"#utility.yul\":6788:6855   */\n      tag_420\n      jump\t// in\n    tag_472:\n        /* \"#utility.yul\":6781:6855   */\n      swap2\n      pop\n        /* \"#utility.yul\":6864:6957   */\n      tag_473\n        /* \"#utility.yul\":6953:6956   */\n      dup3\n        /* \"#utility.yul\":6864:6957   */\n      tag_474\n      jump\t// in\n    tag_473:\n        /* \"#utility.yul\":6982:6984   */\n      0x20\n        /* \"#utility.yul\":6977:6980   */\n      dup3\n        /* \"#utility.yul\":6973:6985   */\n      add\n        /* \"#utility.yul\":6966:6985   */\n      swap1\n      pop\n        /* \"#utility.yul\":6625:6991   */\n      swap2\n      swap1\n      pop\n      jump\t// out\n        /* \"#utility.yul\":6997:7363   */\n    tag_475:\n        /* \"#utility.yul\":7139:7142   */\n      0x00\n        /* \"#utility.yul\":7160:7227   */\n      tag_477\n        /* \"#utility.yul\":7224:7226   */\n      0x10\n        /* \"#utility.yul\":7219:7222   */\n      dup4\n        /* \"#utility.yul\":7160:7227   */\n      tag_420\n      jump\t// in\n    tag_477:\n        /* \"#utility.yul\":7153:7227   */\n      swap2\n      pop\n        /* \"#utility.yul\":7236:7329   */\n      tag_478\n        /* \"#utility.yul\":7325:7328   */\n      dup3\n        /* \"#utility.yul\":7236:7329   */\n      tag_479\n      jump\t// in\n    tag_478:\n        /* \"#utility.yul\":7354:7356   */\n      0x20\n        /* \"#utility.yul\":7349:7352   */\n      dup3\n        /* \"#utility.yul\":7345:7357   */\n      add\n        /* \"#utility.yul\":7338:7357   */\n      swap1\n      pop\n        /* \"#utility.yul\":6997:7363   */\n      swap2\n      swap1\n      pop\n      jump\t// out\n        /* \"#utility.yul\":7369:7735   */\n    tag_480:\n        /* \"#utility.yul\":7511:7514   */\n      0x00\n        /* \"#utility.yul\":7532:7599   */\n      tag_482\n        /* \"#utility.yul\":7596:7598   */\n      0x12\n        /* \"#utility.yul\":7591:7594   */\n      dup4\n        /* \"#utility.yul\":7532:7599   */\n      tag_420\n      jump\t// in\n    tag_482:\n        /* \"#utility.yul\":7525:7599   */\n      swap2\n      pop\n        /* \"#utility.yul\":7608:7701   */\n      tag_483\n        /* \"#utility.yul\":7697:7700   */\n      dup3\n        /* \"#utility.yul\":7608:7701   */\n      tag_484\n      jump\t// in\n    tag_483:\n        /* \"#utility.yul\":7726:7728   */\n      0x20\n        /* \"#utility.yul\":7721:7724   */\n      dup3\n        /* \"#utility.yul\":7717:7729   */\n      add\n        /* \"#utility.yul\":7710:7729   */\n      swap1\n      pop\n        /* \"#utility.yul\":7369:7735   */\n      swap2\n      swap1\n      pop\n      jump\t// out\n        /* \"#utility.yul\":7741:7859   */\n    tag_485:\n        /* \"#utility.yul\":7828:7852   */\n      tag_487\n        /* \"#utility.yul\":7846:7851   */\n      dup2\n        /* \"#utility.yul\":7828:7852   */\n      tag_488\n      jump\t// in\n    tag_487:\n        /* \"#utility.yul\":7823:7826   */\n      dup3\n        /* \"#utility.yul\":7816:7853   */\n      mstore\n        /* \"#utility.yul\":7741:7859   */\n      pop\n      pop\n      jump\t// out\n        /* \"#utility.yul\":7865:7977   */\n    tag_489:\n        /* \"#utility.yul\":7948:7970   */\n      tag_491\n        /* \"#utility.yul\":7964:7969   */\n      dup2\n        /* \"#utility.yul\":7948:7970   */\n      tag_492\n      jump\t// in\n    tag_491:\n        /* \"#utility.yul\":7943:7946   */\n      dup3\n        /* \"#utility.yul\":7936:7971   */\n      mstore\n        /* \"#utility.yul\":7865:7977   */\n      pop\n      pop\n      jump\t// out\n        /* \"#utility.yul\":7983:8205   */\n    tag_106:\n        /* \"#utility.yul\":8076:8080   */\n      0x00\n        /* \"#utility.yul\":8114:8116   */\n      0x20\n        /* \"#utility.yul\":8103:8112   */\n      dup3\n        /* \"#utility.yul\":8099:8117   */\n      add\n        /* \"#utility.yul\":8091:8117   */\n      swap1\n      pop\n        /* \"#utility.yul\":8127:8198   */\n      tag_494\n        /* \"#utility.yul\":8195:8196   */\n      0x00\n        /* \"#utility.yul\":8184:8193   */\n      dup4\n        /* \"#utility.yul\":8180:8197   */\n      add\n        /* \"#utility.yul\":8171:8177   */\n      dup5\n        /* \"#utility.yul\":8127:8198   */\n      tag_403\n      jump\t// in\n    tag_494:\n        /* \"#utility.yul\":7983:8205   */\n      swap3\n      swap2\n      pop\n      pop\n      jump\t// out\n        /* \"#utility.yul\":8211:8543   */\n    tag_204:\n        /* \"#utility.yul\":8332:8336   */\n      0x00\n        /* \"#utility.yul\":8370:8372   */\n      0x40\n        /* \"#utility.yul\":8359:8368   */\n      dup3\n        /* \"#utility.yul\":8355:8373   */\n      add\n        /* \"#utility.yul\":8347:8373   */\n      swap1\n      pop\n        /* \"#utility.yul\":8383:8454   */\n      tag_496\n        /* \"#utility.yul\":8451:8452   */\n      0x00\n        /* \"#utility.yul\":8440:8449   */\n      dup4\n        /* \"#utility.yul\":8436:8453   */\n      add\n        /* \"#utility.yul\":8427:8433   */\n      dup6\n        /* \"#utility.yul\":8383:8454   */\n      tag_403\n      jump\t// in\n    tag_496:\n        /* \"#utility.yul\":8464:8536   */\n      tag_497\n        /* \"#utility.yul\":8532:8534   */\n      0x20\n        /* \"#utility.yul\":8521:8530   */\n      dup4\n        /* \"#utility.yul\":8517:8535   */\n      add\n        /* \"#utility.yul\":8508:8514   */\n      dup5\n        /* \"#utility.yul\":8464:8536   */\n      tag_403\n      jump\t// in\n    tag_497:\n        /* \"#utility.yul\":8211:8543   */\n      swap4\n      swap3\n      pop\n      pop\n      pop\n      jump\t// out\n        /* \"#utility.yul\":8549:8991   */\n    tag_339:\n        /* \"#utility.yul\":8698:8702   */\n      0x00\n        /* \"#utility.yul\":8736:8738   */\n      0x60\n        /* \"#utility.yul\":8725:8734   */\n      dup3\n        /* \"#utility.yul\":8721:8739   */\n      add\n        /* \"#utility.yul\":8713:8739   */\n      swap1\n      pop\n        /* \"#utility.yul\":8749:8820   */\n      tag_499\n        /* \"#utility.yul\":8817:8818   */\n      0x00\n        /* \"#utility.yul\":8806:8815   */\n      dup4\n        /* \"#utility.yul\":8802:8819   */\n      add\n        /* \"#utility.yul\":8793:8799   */\n      dup7\n        /* \"#utility.yul\":8749:8820   */\n      tag_403\n      jump\t// in\n    tag_499:\n        /* \"#utility.yul\":8830:8902   */\n      tag_500\n        /* \"#utility.yul\":8898:8900   */\n      0x20\n        /* \"#utility.yul\":8887:8896   */\n      dup4\n        /* \"#utility.yul\":8883:8901   */\n      add\n        /* \"#utility.yul\":8874:8880   */\n      dup6\n        /* \"#utility.yul\":8830:8902   */\n      tag_403\n      jump\t// in\n    tag_500:\n        /* \"#utility.yul\":8912:8984   */\n      tag_501\n        /* \"#utility.yul\":8980:8982   */\n      0x40\n        /* \"#utility.yul\":8969:8978   */\n      dup4\n        /* \"#utility.yul\":8965:8983   */\n      add\n        /* \"#utility.yul\":8956:8962   */\n      dup5\n        /* \"#utility.yul\":8912:8984   */\n      tag_485\n      jump\t// in\n    tag_501:\n        /* \"#utility.yul\":8549:8991   */\n      swap5\n      swap4\n      pop\n      pop\n      pop\n      pop\n      jump\t// out\n        /* \"#utility.yul\":8997:9329   */\n    tag_219:\n        /* \"#utility.yul\":9118:9122   */\n      0x00\n        /* \"#utility.yul\":9156:9158   */\n      0x40\n        /* \"#utility.yul\":9145:9154   */\n      dup3\n        /* \"#utility.yul\":9141:9159   */\n      add\n        /* \"#utility.yul\":9133:9159   */\n      swap1\n      pop\n        /* \"#utility.yul\":9169:9240   */\n      tag_503\n        /* \"#utility.yul\":9237:9238   */\n      0x00\n        /* \"#utility.yul\":9226:9235   */\n      dup4\n        /* \"#utility.yul\":9222:9239   */\n      add\n        /* \"#utility.yul\":9213:9219   */\n      dup6\n        /* \"#utility.yul\":9169:9240   */\n      tag_403\n      jump\t// in\n    tag_503:\n        /* \"#utility.yul\":9250:9322   */\n      tag_504\n        /* \"#utility.yul\":9318:9320   */\n      0x20\n        /* \"#utility.yul\":9307:9316   */\n      dup4\n        /* \"#utility.yul\":9303:9321   */\n      add\n        /* \"#utility.yul\":9294:9300   */\n      dup5\n        /* \"#utility.yul\":9250:9322   */\n      tag_485\n      jump\t// in\n    tag_504:\n        /* \"#utility.yul\":8997:9329   */\n      swap4\n      swap3\n      pop\n      pop\n      pop\n      jump\t// out\n        /* \"#utility.yul\":9335:9777   */\n    tag_306:\n        /* \"#utility.yul\":9484:9488   */\n      0x00\n        /* \"#utility.yul\":9522:9524   */\n      0x60\n        /* \"#utility.yul\":9511:9520   */\n      dup3\n        /* \"#utility.yul\":9507:9525   */\n      add\n        /* \"#utility.yul\":9499:9525   */\n      swap1\n      pop\n        /* \"#utility.yul\":9535:9606   */\n      tag_506\n        /* \"#utility.yul\":9603:9604   */\n      0x00\n        /* \"#utility.yul\":9592:9601   */\n      dup4\n        /* \"#utility.yul\":9588:9605   */\n      add\n        /* \"#utility.yul\":9579:9585   */\n      dup7\n        /* \"#utility.yul\":9535:9606   */\n      tag_403\n      jump\t// in\n    tag_506:\n        /* \"#utility.yul\":9616:9688   */\n      tag_507\n        /* \"#utility.yul\":9684:9686   */\n      0x20\n        /* \"#utility.yul\":9673:9682   */\n      dup4\n        /* \"#utility.yul\":9669:9687   */\n      add\n        /* \"#utility.yul\":9660:9666   */\n      dup6\n        /* \"#utility.yul\":9616:9688   */\n      tag_485\n      jump\t// in\n    tag_507:\n        /* \"#utility.yul\":9698:9770   */\n      tag_508\n        /* \"#utility.yul\":9766:9768   */\n      0x40\n        /* \"#utility.yul\":9755:9764   */\n      dup4\n        /* \"#utility.yul\":9751:9769   */\n      add\n        /* \"#utility.yul\":9742:9748   */\n      dup5\n        /* \"#utility.yul\":9698:9770   */\n      tag_485\n      jump\t// in\n    tag_508:\n        /* \"#utility.yul\":9335:9777   */\n      swap5\n      swap4\n      pop\n      pop\n      pop\n      pop\n      jump\t// out\n        /* \"#utility.yul\":9783:9993   */\n    tag_116:\n        /* \"#utility.yul\":9870:9874   */\n      0x00\n        /* \"#utility.yul\":9908:9910   */\n      0x20\n        /* \"#utility.yul\":9897:9906   */\n      dup3\n        /* \"#utility.yul\":9893:9911   */\n      add\n        /* \"#utility.yul\":9885:9911   */\n      swap1\n      pop\n        /* \"#utility.yul\":9921:9986   */\n      tag_510\n        /* \"#utility.yul\":9983:9984   */\n      0x00\n        /* \"#utility.yul\":9972:9981   */\n      dup4\n        /* \"#utility.yul\":9968:9985   */\n      add\n        /* \"#utility.yul\":9959:9965   */\n      dup5\n        /* \"#utility.yul\":9921:9986   */\n      tag_407\n      jump\t// in\n    tag_510:\n        /* \"#utility.yul\":9783:9993   */\n      swap3\n      swap2\n      pop\n      pop\n      jump\t// out\n        /* \"#utility.yul\":9999:10249   */\n    tag_101:\n        /* \"#utility.yul\":10106:10110   */\n      0x00\n        /* \"#utility.yul\":10144:10146   */\n      0x20\n        /* \"#utility.yul\":10133:10142   */\n      dup3\n        /* \"#utility.yul\":10129:10147   */\n      add\n        /* \"#utility.yul\":10121:10147   */\n      swap1\n      pop\n        /* \"#utility.yul\":10157:10242   */\n      tag_512\n        /* \"#utility.yul\":10239:10240   */\n      0x00\n        /* \"#utility.yul\":10228:10237   */\n      dup4\n        /* \"#utility.yul\":10224:10241   */\n      add\n        /* \"#utility.yul\":10215:10221   */\n      dup5\n        /* \"#utility.yul\":10157:10242   */\n      tag_411\n      jump\t// in\n    tag_512:\n        /* \"#utility.yul\":9999:10249   */\n      swap3\n      swap2\n      pop\n      pop\n      jump\t// out\n        /* \"#utility.yul\":10255:10568   */\n    tag_355:\n        /* \"#utility.yul\":10368:10372   */\n      0x00\n        /* \"#utility.yul\":10406:10408   */\n      0x20\n        /* \"#utility.yul\":10395:10404   */\n      dup3\n        /* \"#utility.yul\":10391:10409   */\n      add\n        /* \"#utility.yul\":10383:10409   */\n      swap1\n      pop\n        /* \"#utility.yul\":10455:10464   */\n      dup2\n        /* \"#utility.yul\":10449:10453   */\n      dup2\n        /* \"#utility.yul\":10445:10465   */\n      sub\n        /* \"#utility.yul\":10441:10442   */\n      0x00\n        /* \"#utility.yul\":10430:10439   */\n      dup4\n        /* \"#utility.yul\":10426:10443   */\n      add\n        /* \"#utility.yul\":10419:10466   */\n      mstore\n        /* \"#utility.yul\":10483:10561   */\n      tag_514\n        /* \"#utility.yul\":10556:10560   */\n      dup2\n        /* \"#utility.yul\":10547:10553   */\n      dup5\n        /* \"#utility.yul\":10483:10561   */\n      tag_415\n      jump\t// in\n    tag_514:\n        /* \"#utility.yul\":10475:10561   */\n      swap1\n      pop\n        /* \"#utility.yul\":10255:10568   */\n      swap3\n      swap2\n      pop\n      pop\n      jump\t// out\n        /* \"#utility.yul\":10574:10993   */\n    tag_168:\n        /* \"#utility.yul\":10740:10744   */\n      0x00\n        /* \"#utility.yul\":10778:10780   */\n      0x20\n        /* \"#utility.yul\":10767:10776   */\n      dup3\n        /* \"#utility.yul\":10763:10781   */\n      add\n        /* \"#utility.yul\":10755:10781   */\n      swap1\n      pop\n        /* \"#utility.yul\":10827:10836   */\n      dup2\n        /* \"#utility.yul\":10821:10825   */\n      dup2\n        /* \"#utility.yul\":10817:10837   */\n      sub\n        /* \"#utility.yul\":10813:10814   */\n      0x00\n        /* \"#utility.yul\":10802:10811   */\n      dup4\n        /* \"#utility.yul\":10798:10815   */\n      add\n        /* \"#utility.yul\":10791:10838   */\n      mstore\n        /* \"#utility.yul\":10855:10986   */\n      tag_516\n        /* \"#utility.yul\":10981:10985   */\n      dup2\n        /* \"#utility.yul\":10855:10986   */\n      tag_425\n      jump\t// in\n    tag_516:\n        /* \"#utility.yul\":10847:10986   */\n      swap1\n      pop\n        /* \"#utility.yul\":10574:10993   */\n      swap2\n      swap1\n      pop\n      jump\t// out\n        /* \"#utility.yul\":10999:11418   */\n    tag_264:\n        /* \"#utility.yul\":11165:11169   */\n      0x00\n        /* \"#utility.yul\":11203:11205   */\n      0x20\n        /* \"#utility.yul\":11192:11201   */\n      dup3\n        /* \"#utility.yul\":11188:11206   */\n      add\n        /* \"#utility.yul\":11180:11206   */\n      swap1\n      pop\n        /* \"#utility.yul\":11252:11261   */\n      dup2\n        /* \"#utility.yul\":11246:11250   */\n      dup2\n        /* \"#utility.yul\":11242:11262   */\n      sub\n        /* \"#utility.yul\":11238:11239   */\n      0x00\n        /* \"#utility.yul\":11227:11236   */\n      dup4\n        /* \"#utility.yul\":11223:11240   */\n      add\n        /* \"#utility.yul\":11216:11263   */\n      mstore\n        /* \"#utility.yul\":11280:11411   */\n      tag_518\n        /* \"#utility.yul\":11406:11410   */\n      dup2\n        /* \"#utility.yul\":11280:11411   */\n      tag_430\n      jump\t// in\n    tag_518:\n        /* \"#utility.yul\":11272:11411   */\n      swap1\n      pop\n        /* \"#utility.yul\":10999:11418   */\n      swap2\n      swap1\n      pop\n      jump\t// out\n        /* \"#utility.yul\":11424:11843   */\n    tag_286:\n        /* \"#utility.yul\":11590:11594   */\n      0x00\n        /* \"#utility.yul\":11628:11630   */\n      0x20\n        /* \"#utility.yul\":11617:11626   */\n      dup3\n        /* \"#utility.yul\":11613:11631   */\n      add\n        /* \"#utility.yul\":11605:11631   */\n      swap1\n      pop\n        /* \"#utility.yul\":11677:11686   */\n      dup2\n        /* \"#utility.yul\":11671:11675   */\n      dup2\n        /* \"#utility.yul\":11667:11687   */\n      sub\n        /* \"#utility.yul\":11663:11664   */\n      0x00\n        /* \"#utility.yul\":11652:11661   */\n      dup4\n        /* \"#utility.yul\":11648:11665   */\n      add\n        /* \"#utility.yul\":11641:11688   */\n      mstore\n        /* \"#utility.yul\":11705:11836   */\n      tag_520\n        /* \"#utility.yul\":11831:11835   */\n      dup2\n        /* \"#utility.yul\":11705:11836   */\n      tag_435\n      jump\t// in\n    tag_520:\n        /* \"#utility.yul\":11697:11836   */\n      swap1\n      pop\n        /* \"#utility.yul\":11424:11843   */\n      swap2\n      swap1\n      pop\n      jump\t// out\n        /* \"#utility.yul\":11849:12268   */\n    tag_331:\n        /* \"#utility.yul\":12015:12019   */\n      0x00\n        /* \"#utility.yul\":12053:12055   */\n      0x20\n        /* \"#utility.yul\":12042:12051   */\n      dup3\n        /* \"#utility.yul\":12038:12056   */\n      add\n        /* \"#utility.yul\":12030:12056   */\n      swap1\n      pop\n        /* \"#utility.yul\":12102:12111   */\n      dup2\n        /* \"#utility.yul\":12096:12100   */\n      dup2\n        /* \"#utility.yul\":12092:12112   */\n      sub\n        /* \"#utility.yul\":12088:12089   */\n      0x00\n        /* \"#utility.yul\":12077:12086   */\n      dup4\n        /* \"#utility.yul\":12073:12090   */\n      add\n        /* \"#utility.yul\":12066:12113   */\n      mstore\n        /* \"#utility.yul\":12130:12261   */\n      tag_522\n        /* \"#utility.yul\":12256:12260   */\n      dup2\n        /* \"#utility.yul\":12130:12261   */\n      tag_440\n      jump\t// in\n    tag_522:\n        /* \"#utility.yul\":12122:12261   */\n      swap1\n      pop\n        /* \"#utility.yul\":11849:12268   */\n      swap2\n      swap1\n      pop\n      jump\t// out\n        /* \"#utility.yul\":12274:12693   */\n    tag_297:\n        /* \"#utility.yul\":12440:12444   */\n      0x00\n        /* \"#utility.yul\":12478:12480   */\n      0x20\n        /* \"#utility.yul\":12467:12476   */\n      dup3\n        /* \"#utility.yul\":12463:12481   */\n      add\n        /* \"#utility.yul\":12455:12481   */\n      swap1\n      pop\n        /* \"#utility.yul\":12527:12536   */\n      dup2\n        /* \"#utility.yul\":12521:12525   */\n      dup2\n        /* \"#utility.yul\":12517:12537   */\n      sub\n        /* \"#utility.yul\":12513:12514   */\n      0x00\n        /* \"#utility.yul\":12502:12511   */\n      dup4\n        /* \"#utility.yul\":12498:12515   */\n      add\n        /* \"#utility.yul\":12491:12538   */\n      mstore\n        /* \"#utility.yul\":12555:12686   */\n      tag_524\n        /* \"#utility.yul\":12681:12685   */\n      dup2\n        /* \"#utility.yul\":12555:12686   */\n      tag_445\n      jump\t// in\n    tag_524:\n        /* \"#utility.yul\":12547:12686   */\n      swap1\n      pop\n        /* \"#utility.yul\":12274:12693   */\n      swap2\n      swap1\n      pop\n      jump\t// out\n        /* \"#utility.yul\":12699:13118   */\n    tag_289:\n        /* \"#utility.yul\":12865:12869   */\n      0x00\n        /* \"#utility.yul\":12903:12905   */\n      0x20\n        /* \"#utility.yul\":12892:12901   */\n      dup3\n        /* \"#utility.yul\":12888:12906   */\n      add\n        /* \"#utility.yul\":12880:12906   */\n      swap1\n      pop\n        /* \"#utility.yul\":12952:12961   */\n      dup2\n        /* \"#utility.yul\":12946:12950   */\n      dup2\n        /* \"#utility.yul\":12942:12962   */\n      sub\n        /* \"#utility.yul\":12938:12939   */\n      0x00\n        /* \"#utility.yul\":12927:12936   */\n      dup4\n        /* \"#utility.yul\":12923:12940   */\n      add\n        /* \"#utility.yul\":12916:12963   */\n      mstore\n        /* \"#utility.yul\":12980:13111   */\n      tag_526\n        /* \"#utility.yul\":13106:13110   */\n      dup2\n        /* \"#utility.yul\":12980:13111   */\n      tag_450\n      jump\t// in\n    tag_526:\n        /* \"#utility.yul\":12972:13111   */\n      swap1\n      pop\n        /* \"#utility.yul\":12699:13118   */\n      swap2\n      swap1\n      pop\n      jump\t// out\n        /* \"#utility.yul\":13124:13543   */\n    tag_319:\n        /* \"#utility.yul\":13290:13294   */\n      0x00\n        /* \"#utility.yul\":13328:13330   */\n      0x20\n        /* \"#utility.yul\":13317:13326   */\n      dup3\n        /* \"#utility.yul\":13313:13331   */\n      add\n        /* \"#utility.yul\":13305:13331   */\n      swap1\n      pop\n        /* \"#utility.yul\":13377:13386   */\n      dup2\n        /* \"#utility.yul\":13371:13375   */\n      dup2\n        /* \"#utility.yul\":13367:13387   */\n      sub\n        /* \"#utility.yul\":13363:13364   */\n      0x00\n        /* \"#utility.yul\":13352:13361   */\n      dup4\n        /* \"#utility.yul\":13348:13365   */\n      add\n        /* \"#utility.yul\":13341:13388   */\n      mstore\n        /* \"#utility.yul\":13405:13536   */\n      tag_528\n        /* \"#utility.yul\":13531:13535   */\n      dup2\n        /* \"#utility.yul\":13405:13536   */\n      tag_455\n      jump\t// in\n    tag_528:\n        /* \"#utility.yul\":13397:13536   */\n      swap1\n      pop\n        /* \"#utility.yul\":13124:13543   */\n      swap2\n      swap1\n      pop\n      jump\t// out\n        /* \"#utility.yul\":13549:13968   */\n    tag_268:\n        /* \"#utility.yul\":13715:13719   */\n      0x00\n        /* \"#utility.yul\":13753:13755   */\n      0x20\n        /* \"#utility.yul\":13742:13751   */\n      dup3\n        /* \"#utility.yul\":13738:13756   */\n      add\n        /* \"#utility.yul\":13730:13756   */\n      swap1\n      pop\n        /* \"#utility.yul\":13802:13811   */\n      dup2\n        /* \"#utility.yul\":13796:13800   */\n      dup2\n        /* \"#utility.yul\":13792:13812   */\n      sub\n        /* \"#utility.yul\":13788:13789   */\n      0x00\n        /* \"#utility.yul\":13777:13786   */\n      dup4\n        /* \"#utility.yul\":13773:13790   */\n      add\n        /* \"#utility.yul\":13766:13813   */\n      mstore\n        /* \"#utility.yul\":13830:13961   */\n      tag_530\n        /* \"#utility.yul\":13956:13960   */\n      dup2\n        /* \"#utility.yul\":13830:13961   */\n      tag_460\n      jump\t// in\n    tag_530:\n        /* \"#utility.yul\":13822:13961   */\n      swap1\n      pop\n        /* \"#utility.yul\":13549:13968   */\n      swap2\n      swap1\n      pop\n      jump\t// out\n        /* \"#utility.yul\":13974:14393   */\n    tag_272:\n        /* \"#utility.yul\":14140:14144   */\n      0x00\n        /* \"#utility.yul\":14178:14180   */\n      0x20\n        /* \"#utility.yul\":14167:14176   */\n      dup3\n        /* \"#utility.yul\":14163:14181   */\n      add\n        /* \"#utility.yul\":14155:14181   */\n      swap1\n      pop\n        /* \"#utility.yul\":14227:14236   */\n      dup2\n        /* \"#utility.yul\":14221:14225   */\n      dup2\n        /* \"#utility.yul\":14217:14237   */\n      sub\n        /* \"#utility.yul\":14213:14214   */\n      0x00\n        /* \"#utility.yul\":14202:14211   */\n      dup4\n        /* \"#utility.yul\":14198:14215   */\n      add\n        /* \"#utility.yul\":14191:14238   */\n      mstore\n        /* \"#utility.yul\":14255:14386   */\n      tag_532\n        /* \"#utility.yul\":14381:14385   */\n      dup2\n        /* \"#utility.yul\":14255:14386   */\n      tag_465\n      jump\t// in\n    tag_532:\n        /* \"#utility.yul\":14247:14386   */\n      swap1\n      pop\n        /* \"#utility.yul\":13974:14393   */\n      swap2\n      swap1\n      pop\n      jump\t// out\n        /* \"#utility.yul\":14399:14818   */\n    tag_292:\n        /* \"#utility.yul\":14565:14569   */\n      0x00\n        /* \"#utility.yul\":14603:14605   */\n      0x20\n        /* \"#utility.yul\":14592:14601   */\n      dup3\n        /* \"#utility.yul\":14588:14606   */\n      add\n        /* \"#utility.yul\":14580:14606   */\n      swap1\n      pop\n        /* \"#utility.yul\":14652:14661   */\n      dup2\n        /* \"#utility.yul\":14646:14650   */\n      dup2\n        /* \"#utility.yul\":14642:14662   */\n      sub\n        /* \"#utility.yul\":14638:14639   */\n      0x00\n        /* \"#utility.yul\":14627:14636   */\n      dup4\n        /* \"#utility.yul\":14623:14640   */\n      add\n        /* \"#utility.yul\":14616:14663   */\n      mstore\n        /* \"#utility.yul\":14680:14811   */\n      tag_534\n        /* \"#utility.yul\":14806:14810   */\n      dup2\n        /* \"#utility.yul\":14680:14811   */\n      tag_470\n      jump\t// in\n    tag_534:\n        /* \"#utility.yul\":14672:14811   */\n      swap1\n      pop\n        /* \"#utility.yul\":14399:14818   */\n      swap2\n      swap1\n      pop\n      jump\t// out\n        /* \"#utility.yul\":14824:15243   */\n    tag_275:\n        /* \"#utility.yul\":14990:14994   */\n      0x00\n        /* \"#utility.yul\":15028:15030   */\n      0x20\n        /* \"#utility.yul\":15017:15026   */\n      dup3\n        /* \"#utility.yul\":15013:15031   */\n      add\n        /* \"#utility.yul\":15005:15031   */\n      swap1\n      pop\n        /* \"#utility.yul\":15077:15086   */\n      dup2\n        /* \"#utility.yul\":15071:15075   */\n      dup2\n        /* \"#utility.yul\":15067:15087   */\n      sub\n        /* \"#utility.yul\":15063:15064   */\n      0x00\n        /* \"#utility.yul\":15052:15061   */\n      dup4\n        /* \"#utility.yul\":15048:15065   */\n      add\n        /* \"#utility.yul\":15041:15088   */\n      mstore\n        /* \"#utility.yul\":15105:15236   */\n      tag_536\n        /* \"#utility.yul\":15231:15235   */\n      dup2\n        /* \"#utility.yul\":15105:15236   */\n      tag_475\n      jump\t// in\n    tag_536:\n        /* \"#utility.yul\":15097:15236   */\n      swap1\n      pop\n        /* \"#utility.yul\":14824:15243   */\n      swap2\n      swap1\n      pop\n      jump\t// out\n        /* \"#utility.yul\":15249:15668   */\n    tag_164:\n        /* \"#utility.yul\":15415:15419   */\n      0x00\n        /* \"#utility.yul\":15453:15455   */\n      0x20\n        /* \"#utility.yul\":15442:15451   */\n      dup3\n        /* \"#utility.yul\":15438:15456   */\n      add\n        /* \"#utility.yul\":15430:15456   */\n      swap1\n      pop\n        /* \"#utility.yul\":15502:15511   */\n      dup2\n        /* \"#utility.yul\":15496:15500   */\n      dup2\n        /* \"#utility.yul\":15492:15512   */\n      sub\n        /* \"#utility.yul\":15488:15489   */\n      0x00\n        /* \"#utility.yul\":15477:15486   */\n      dup4\n        /* \"#utility.yul\":15473:15490   */\n      add\n        /* \"#utility.yul\":15466:15513   */\n      mstore\n        /* \"#utility.yul\":15530:15661   */\n      tag_538\n        /* \"#utility.yul\":15656:15660   */\n      dup2\n        /* \"#utility.yul\":15530:15661   */\n      tag_480\n      jump\t// in\n    tag_538:\n        /* \"#utility.yul\":15522:15661   */\n      swap1\n      pop\n        /* \"#utility.yul\":15249:15668   */\n      swap2\n      swap1\n      pop\n      jump\t// out\n        /* \"#utility.yul\":15674:15896   */\n    tag_54:\n        /* \"#utility.yul\":15767:15771   */\n      0x00\n        /* \"#utility.yul\":15805:15807   */\n      0x20\n        /* \"#utility.yul\":15794:15803   */\n      dup3\n        /* \"#utility.yul\":15790:15808   */\n      add\n        /* \"#utility.yul\":15782:15808   */\n      swap1\n      pop\n        /* \"#utility.yul\":15818:15889   */\n      tag_540\n        /* \"#utility.yul\":15886:15887   */\n      0x00\n        /* \"#utility.yul\":15875:15884   */\n      dup4\n        /* \"#utility.yul\":15871:15888   */\n      add\n        /* \"#utility.yul\":15862:15868   */\n      dup5\n        /* \"#utility.yul\":15818:15889   */\n      tag_485\n      jump\t// in\n    tag_540:\n        /* \"#utility.yul\":15674:15896   */\n      swap3\n      swap2\n      pop\n      pop\n      jump\t// out\n        /* \"#utility.yul\":15902:16899   */\n    tag_76:\n        /* \"#utility.yul\":16191:16195   */\n      0x00\n        /* \"#utility.yul\":16229:16232   */\n      0x0100\n        /* \"#utility.yul\":16218:16227   */\n      dup3\n        /* \"#utility.yul\":16214:16233   */\n      add\n        /* \"#utility.yul\":16206:16233   */\n      swap1\n      pop\n        /* \"#utility.yul\":16243:16314   */\n      tag_542\n        /* \"#utility.yul\":16311:16312   */\n      0x00\n        /* \"#utility.yul\":16300:16309   */\n      dup4\n        /* \"#utility.yul\":16296:16313   */\n      add\n        /* \"#utility.yul\":16287:16293   */\n      dup12\n        /* \"#utility.yul\":16243:16314   */\n      tag_485\n      jump\t// in\n    tag_542:\n        /* \"#utility.yul\":16324:16396   */\n      tag_543\n        /* \"#utility.yul\":16392:16394   */\n      0x20\n        /* \"#utility.yul\":16381:16390   */\n      dup4\n        /* \"#utility.yul\":16377:16395   */\n      add\n        /* \"#utility.yul\":16368:16374   */\n      dup11\n        /* \"#utility.yul\":16324:16396   */\n      tag_485\n      jump\t// in\n    tag_543:\n        /* \"#utility.yul\":16406:16478   */\n      tag_544\n        /* \"#utility.yul\":16474:16476   */\n      0x40\n        /* \"#utility.yul\":16463:16472   */\n      dup4\n        /* \"#utility.yul\":16459:16477   */\n      add\n        /* \"#utility.yul\":16450:16456   */\n      dup10\n        /* \"#utility.yul\":16406:16478   */\n      tag_485\n      jump\t// in\n    tag_544:\n        /* \"#utility.yul\":16488:16560   */\n      tag_545\n        /* \"#utility.yul\":16556:16558   */\n      0x60\n        /* \"#utility.yul\":16545:16554   */\n      dup4\n        /* \"#utility.yul\":16541:16559   */\n      add\n        /* \"#utility.yul\":16532:16538   */\n      dup9\n        /* \"#utility.yul\":16488:16560   */\n      tag_485\n      jump\t// in\n    tag_545:\n        /* \"#utility.yul\":16570:16643   */\n      tag_546\n        /* \"#utility.yul\":16638:16641   */\n      0x80\n        /* \"#utility.yul\":16627:16636   */\n      dup4\n        /* \"#utility.yul\":16623:16642   */\n      add\n        /* \"#utility.yul\":16614:16620   */\n      dup8\n        /* \"#utility.yul\":16570:16643   */\n      tag_485\n      jump\t// in\n    tag_546:\n        /* \"#utility.yul\":16653:16726   */\n      tag_547\n        /* \"#utility.yul\":16721:16724   */\n      0xa0\n        /* \"#utility.yul\":16710:16719   */\n      dup4\n        /* \"#utility.yul\":16706:16725   */\n      add\n        /* \"#utility.yul\":16697:16703   */\n      dup7\n        /* \"#utility.yul\":16653:16726   */\n      tag_485\n      jump\t// in\n    tag_547:\n        /* \"#utility.yul\":16736:16809   */\n      tag_548\n        /* \"#utility.yul\":16804:16807   */\n      0xc0\n        /* \"#utility.yul\":16793:16802   */\n      dup4\n        /* \"#utility.yul\":16789:16808   */\n      add\n        /* \"#utility.yul\":16780:16786   */\n      dup6\n        /* \"#utility.yul\":16736:16809   */\n      tag_485\n      jump\t// in\n    tag_548:\n        /* \"#utility.yul\":16819:16892   */\n      tag_549\n        /* \"#utility.yul\":16887:16890   */\n      0xe0\n        /* \"#utility.yul\":16876:16885   */\n      dup4\n        /* \"#utility.yul\":16872:16891   */\n      add\n        /* \"#utility.yul\":16863:16869   */\n      dup5\n        /* \"#utility.yul\":16819:16892   */\n      tag_485\n      jump\t// in\n    tag_549:\n        /* \"#utility.yul\":15902:16899   */\n      swap10\n      swap9\n      pop\n      pop\n      pop\n      pop\n      pop\n      pop\n      pop\n      pop\n      pop\n      jump\t// out\n        /* \"#utility.yul\":16905:17119   */\n    tag_160:\n        /* \"#utility.yul\":16994:16998   */\n      0x00\n        /* \"#utility.yul\":17032:17034   */\n      0x20\n        /* \"#utility.yul\":17021:17030   */\n      dup3\n        /* \"#utility.yul\":17017:17035   */\n      add\n        /* \"#utility.yul\":17009:17035   */\n      swap1\n      pop\n        /* \"#utility.yul\":17045:17112   */\n      tag_551\n        /* \"#utility.yul\":17109:17110   */\n      0x00\n        /* \"#utility.yul\":17098:17107   */\n      dup4\n        /* \"#utility.yul\":17094:17111   */\n      add\n        /* \"#utility.yul\":17085:17091   */\n      dup5\n        /* \"#utility.yul\":17045:17112   */\n      tag_489\n      jump\t// in\n    tag_551:\n        /* \"#utility.yul\":16905:17119   */\n      swap3\n      swap2\n      pop\n      pop\n      jump\t// out\n        /* \"#utility.yul\":17206:17305   */\n    tag_418:\n        /* \"#utility.yul\":17258:17264   */\n      0x00\n        /* \"#utility.yul\":17292:17297   */\n      dup2\n        /* \"#utility.yul\":17286:17298   */\n      mload\n        /* \"#utility.yul\":17276:17298   */\n      swap1\n      pop\n        /* \"#utility.yul\":17206:17305   */\n      swap2\n      swap1\n      pop\n      jump\t// out\n        /* \"#utility.yul\":17311:17480   */\n    tag_420:\n        /* \"#utility.yul\":17395:17406   */\n      0x00\n        /* \"#utility.yul\":17429:17435   */\n      dup3\n        /* \"#utility.yul\":17424:17427   */\n      dup3\n        /* \"#utility.yul\":17417:17436   */\n      mstore\n        /* \"#utility.yul\":17469:17473   */\n      0x20\n        /* \"#utility.yul\":17464:17467   */\n      dup3\n        /* \"#utility.yul\":17460:17474   */\n      add\n        /* \"#utility.yul\":17445:17474   */\n      swap1\n      pop\n        /* \"#utility.yul\":17311:17480   */\n      swap3\n      swap2\n      pop\n      pop\n      jump\t// out\n        /* \"#utility.yul\":17486:17791   */\n    tag_328:\n        /* \"#utility.yul\":17526:17529   */\n      0x00\n        /* \"#utility.yul\":17545:17565   */\n      tag_557\n        /* \"#utility.yul\":17563:17564   */\n      dup3\n        /* \"#utility.yul\":17545:17565   */\n      tag_488\n      jump\t// in\n    tag_557:\n        /* \"#utility.yul\":17540:17565   */\n      swap2\n      pop\n        /* \"#utility.yul\":17579:17599   */\n      tag_558\n        /* \"#utility.yul\":17597:17598   */\n      dup4\n        /* \"#utility.yul\":17579:17599   */\n      tag_488\n      jump\t// in\n    tag_558:\n        /* \"#utility.yul\":17574:17599   */\n      swap3\n      pop\n        /* \"#utility.yul\":17733:17734   */\n      dup3\n        /* \"#utility.yul\":17665:17731   */\n      0xffffffffffffffffffffffffffffffffffffffffffffffffffffffffffffffff\n        /* \"#utility.yul\":17661:17735   */\n      sub\n        /* \"#utility.yul\":17658:17659   */\n      dup3\n        /* \"#utility.yul\":17655:17736   */\n      gt\n        /* \"#utility.yul\":17652:17759   */\n      iszero\n      tag_559\n      jumpi\n        /* \"#utility.yul\":17739:17757   */\n      tag_560\n      tag_561\n      jump\t// in\n    tag_560:\n        /* \"#utility.yul\":17652:17759   */\n    tag_559:\n        /* \"#utility.yul\":17783:17784   */\n      dup3\n        /* \"#utility.yul\":17780:17781   */\n      dup3\n        /* \"#utility.yul\":17776:17785   */\n      add\n        /* \"#utility.yul\":17769:17785   */\n      swap1\n      pop\n        /* \"#utility.yul\":17486:17791   */\n      swap3\n      swap2\n      pop\n      pop\n      jump\t// out\n        /* \"#utility.yul\":17797:17982   */\n    tag_316:\n        /* \"#utility.yul\":17837:17838   */\n      0x00\n        /* \"#utility.yul\":17854:17874   */\n      tag_563\n        /* \"#utility.yul\":17872:17873   */\n      dup3\n        /* \"#utility.yul\":17854:17874   */\n      tag_488\n      jump\t// in\n    tag_563:\n        /* \"#utility.yul\":17849:17874   */\n      swap2\n      pop\n        /* \"#utility.yul\":17888:17908   */\n      tag_564\n        /* \"#utility.yul\":17906:17907   */\n      dup4\n        /* \"#utility.yul\":17888:17908   */\n      tag_488\n      jump\t// in\n    tag_564:\n        /* \"#utility.yul\":17883:17908   */\n      swap3\n      pop\n        /* \"#utility.yul\":17927:17928   */\n      dup3\n        /* \"#utility.yul\":17917:17952   */\n      tag_565\n      jumpi\n        /* \"#utility.yul\":17932:17950   */\n      tag_566\n      tag_567\n      jump\t// in\n    tag_566:\n        /* \"#utility.yul\":17917:17952   */\n    tag_565:\n        /* \"#utility.yul\":17974:17975   */\n      dup3\n        /* \"#utility.yul\":17971:17972   */\n      dup3\n        /* \"#utility.yul\":17967:17976   */\n      div\n        /* \"#utility.yul\":17962:17976   */\n      swap1\n      pop\n        /* \"#utility.yul\":17797:17982   */\n      swap3\n      swap2\n      pop\n      pop\n      jump\t// out\n        /* \"#utility.yul\":17988:18336   */\n    tag_314:\n        /* \"#utility.yul\":18028:18035   */\n      0x00\n        /* \"#utility.yul\":18051:18071   */\n      tag_569\n        /* \"#utility.yul\":18069:18070   */\n      dup3\n        /* \"#utility.yul\":18051:18071   */\n      tag_488\n      jump\t// in\n    tag_569:\n        /* \"#utility.yul\":18046:18071   */\n      swap2\n      pop\n        /* \"#utility.yul\":18085:18105   */\n      tag_570\n        /* \"#utility.yul\":18103:18104   */\n      dup4\n        /* \"#utility.yul\":18085:18105   */\n      tag_488\n      jump\t// in\n    tag_570:\n        /* \"#utility.yul\":18080:18105   */\n      swap3\n      pop\n        /* \"#utility.yul\":18273:18274   */\n      dup2\n        /* \"#utility.yul\":18205:18271   */\n      0xffffffffffffffffffffffffffffffffffffffffffffffffffffffffffffffff\n        /* \"#utility.yul\":18201:18275   */\n      div\n        /* \"#utility.yul\":18198:18199   */\n      dup4\n        /* \"#utility.yul\":18195:18276   */\n      gt\n        /* \"#utility.yul\":18190:18191   */\n      dup3\n        /* \"#utility.yul\":18183:18192   */\n      iszero\n        /* \"#utility.yul\":18176:18193   */\n      iszero\n        /* \"#utility.yul\":18172:18277   */\n      and\n        /* \"#utility.yul\":18169:18300   */\n      iszero\n      tag_571\n      jumpi\n        /* \"#utility.yul\":18280:18298   */\n      tag_572\n      tag_561\n      jump\t// in\n    tag_572:\n        /* \"#utility.yul\":18169:18300   */\n    tag_571:\n        /* \"#utility.yul\":18328:18329   */\n      dup3\n        /* \"#utility.yul\":18325:18326   */\n      dup3\n        /* \"#utility.yul\":18321:18330   */\n      mul\n        /* \"#utility.yul\":18310:18330   */\n      swap1\n      pop\n        /* \"#utility.yul\":17988:18336   */\n      swap3\n      swap2\n      pop\n      pop\n      jump\t// out\n        /* \"#utility.yul\":18342:18533   */\n    tag_361:\n        /* \"#utility.yul\":18382:18386   */\n      0x00\n        /* \"#utility.yul\":18402:18422   */\n      tag_574\n        /* \"#utility.yul\":18420:18421   */\n      dup3\n        /* \"#utility.yul\":18402:18422   */\n      tag_488\n      jump\t// in\n    tag_574:\n        /* \"#utility.yul\":18397:18422   */\n      swap2\n      pop\n        /* \"#utility.yul\":18436:18456   */\n      tag_575\n        /* \"#utility.yul\":18454:18455   */\n      dup4\n        /* \"#utility.yul\":18436:18456   */\n      tag_488\n      jump\t// in\n    tag_575:\n        /* \"#utility.yul\":18431:18456   */\n      swap3\n      pop\n        /* \"#utility.yul\":18475:18476   */\n      dup3\n        /* \"#utility.yul\":18472:18473   */\n      dup3\n        /* \"#utility.yul\":18469:18477   */\n      lt\n        /* \"#utility.yul\":18466:18500   */\n      iszero\n      tag_576\n      jumpi\n        /* \"#utility.yul\":18480:18498   */\n      tag_577\n      tag_561\n      jump\t// in\n    tag_577:\n        /* \"#utility.yul\":18466:18500   */\n    tag_576:\n        /* \"#utility.yul\":18525:18526   */\n      dup3\n        /* \"#utility.yul\":18522:18523   */\n      dup3\n        /* \"#utility.yul\":18518:18527   */\n      sub\n        /* \"#utility.yul\":18510:18527   */\n      swap1\n      pop\n        /* \"#utility.yul\":18342:18533   */\n      swap3\n      swap2\n      pop\n      pop\n      jump\t// out\n        /* \"#utility.yul\":18539:18635   */\n    tag_406:\n        /* \"#utility.yul\":18576:18583   */\n      0x00\n        /* \"#utility.yul\":18605:18629   */\n      tag_579\n        /* \"#utility.yul\":18623:18628   */\n      dup3\n        /* \"#utility.yul\":18605:18629   */\n      tag_580\n      jump\t// in\n    tag_579:\n        /* \"#utility.yul\":18594:18629   */\n      swap1\n      pop\n        /* \"#utility.yul\":18539:18635   */\n      swap2\n      swap1\n      pop\n      jump\t// out\n        /* \"#utility.yul\":18641:18731   */\n    tag_410:\n        /* \"#utility.yul\":18675:18682   */\n      0x00\n        /* \"#utility.yul\":18718:18723   */\n      dup2\n        /* \"#utility.yul\":18711:18724   */\n      iszero\n        /* \"#utility.yul\":18704:18725   */\n      iszero\n        /* \"#utility.yul\":18693:18725   */\n      swap1\n      pop\n        /* \"#utility.yul\":18641:18731   */\n      swap2\n      swap1\n      pop\n      jump\t// out\n        /* \"#utility.yul\":18737:18847   */\n    tag_582:\n        /* \"#utility.yul\":18788:18795   */\n      0x00\n        /* \"#utility.yul\":18817:18841   */\n      tag_584\n        /* \"#utility.yul\":18835:18840   */\n      dup3\n        /* \"#utility.yul\":18817:18841   */\n      tag_406\n      jump\t// in\n    tag_584:\n        /* \"#utility.yul\":18806:18841   */\n      swap1\n      pop\n        /* \"#utility.yul\":18737:18847   */\n      swap2\n      swap1\n      pop\n      jump\t// out\n        /* \"#utility.yul\":18853:18979   */\n    tag_580:\n        /* \"#utility.yul\":18890:18897   */\n      0x00\n        /* \"#utility.yul\":18930:18972   */\n      0xffffffffffffffffffffffffffffffffffffffff\n        /* \"#utility.yul\":18923:18928   */\n      dup3\n        /* \"#utility.yul\":18919:18973   */\n      and\n        /* \"#utility.yul\":18908:18973   */\n      swap1\n      pop\n        /* \"#utility.yul\":18853:18979   */\n      swap2\n      swap1\n      pop\n      jump\t// out\n        /* \"#utility.yul\":18985:19062   */\n    tag_488:\n        /* \"#utility.yul\":19022:19029   */\n      0x00\n        /* \"#utility.yul\":19051:19056   */\n      dup2\n        /* \"#utility.yul\":19040:19056   */\n      swap1\n      pop\n        /* \"#utility.yul\":18985:19062   */\n      swap2\n      swap1\n      pop\n      jump\t// out\n        /* \"#utility.yul\":19068:19154   */\n    tag_492:\n        /* \"#utility.yul\":19103:19110   */\n      0x00\n        /* \"#utility.yul\":19143:19147   */\n      0xff\n        /* \"#utility.yul\":19136:19141   */\n      dup3\n        /* \"#utility.yul\":19132:19148   */\n      and\n        /* \"#utility.yul\":19121:19148   */\n      swap1\n      pop\n        /* \"#utility.yul\":19068:19154   */\n      swap2\n      swap1\n      pop\n      jump\t// out\n        /* \"#utility.yul\":19160:19300   */\n    tag_414:\n        /* \"#utility.yul\":19224:19233   */\n      0x00\n        /* \"#utility.yul\":19257:19294   */\n      tag_589\n        /* \"#utility.yul\":19288:19293   */\n      dup3\n        /* \"#utility.yul\":19257:19294   */\n      tag_590\n      jump\t// in\n    tag_589:\n        /* \"#utility.yul\":19244:19294   */\n      swap1\n      pop\n        /* \"#utility.yul\":19160:19300   */\n      swap2\n      swap1\n      pop\n      jump\t// out\n        /* \"#utility.yul\":19306:19432   */\n    tag_590:\n        /* \"#utility.yul\":19356:19365   */\n      0x00\n        /* \"#utility.yul\":19389:19426   */\n      tag_592\n        /* \"#utility.yul\":19420:19425   */\n      dup3\n        /* \"#utility.yul\":19389:19426   */\n      tag_593\n      jump\t// in\n    tag_592:\n        /* \"#utility.yul\":19376:19426   */\n      swap1\n      pop\n        /* \"#utility.yul\":19306:19432   */\n      swap2\n      swap1\n      pop\n      jump\t// out\n        /* \"#utility.yul\":19438:19551   */\n    tag_593:\n        /* \"#utility.yul\":19488:19497   */\n      0x00\n        /* \"#utility.yul\":19521:19545   */\n      tag_595\n        /* \"#utility.yul\":19539:19544   */\n      dup3\n        /* \"#utility.yul\":19521:19545   */\n      tag_580\n      jump\t// in\n    tag_595:\n        /* \"#utility.yul\":19508:19545   */\n      swap1\n      pop\n        /* \"#utility.yul\":19438:19551   */\n      swap2\n      swap1\n      pop\n      jump\t// out\n        /* \"#utility.yul\":19557:19864   */\n    tag_422:\n        /* \"#utility.yul\":19625:19626   */\n      0x00\n        /* \"#utility.yul\":19635:19748   */\n    tag_597:\n        /* \"#utility.yul\":19649:19655   */\n      dup4\n        /* \"#utility.yul\":19646:19647   */\n      dup2\n        /* \"#utility.yul\":19643:19656   */\n      lt\n        /* \"#utility.yul\":19635:19748   */\n      iszero\n      tag_599\n      jumpi\n        /* \"#utility.yul\":19734:19735   */\n      dup1\n        /* \"#utility.yul\":19729:19732   */\n      dup3\n        /* \"#utility.yul\":19725:19736   */\n      add\n        /* \"#utility.yul\":19719:19737   */\n      mload\n        /* \"#utility.yul\":19715:19716   */\n      dup2\n        /* \"#utility.yul\":19710:19713   */\n      dup5\n        /* \"#utility.yul\":19706:19717   */\n      add\n        /* \"#utility.yul\":19699:19738   */\n      mstore\n        /* \"#utility.yul\":19671:19673   */\n      0x20\n        /* \"#utility.yul\":19668:19669   */\n      dup2\n        /* \"#utility.yul\":19664:19674   */\n      add\n        /* \"#utility.yul\":19659:19674   */\n      swap1\n      pop\n        /* \"#utility.yul\":19635:19748   */\n      jump(tag_597)\n    tag_599:\n        /* \"#utility.yul\":19766:19772   */\n      dup4\n        /* \"#utility.yul\":19763:19764   */\n      dup2\n        /* \"#utility.yul\":19760:19773   */\n      gt\n        /* \"#utility.yul\":19757:19858   */\n      iszero\n      tag_600\n      jumpi\n        /* \"#utility.yul\":19846:19847   */\n      0x00\n        /* \"#utility.yul\":19837:19843   */\n      dup5\n        /* \"#utility.yul\":19832:19835   */\n      dup5\n        /* \"#utility.yul\":19828:19844   */\n      add\n        /* \"#utility.yul\":19821:19848   */\n      mstore\n        /* \"#utility.yul\":19757:19858   */\n    tag_600:\n        /* \"#utility.yul\":19606:19864   */\n      pop\n        /* \"#utility.yul\":19557:19864   */\n      pop\n      pop\n      pop\n      jump\t// out\n        /* \"#utility.yul\":19870:20050   */\n    tag_561:\n        /* \"#utility.yul\":19918:19995   */\n      0x4e487b7100000000000000000000000000000000000000000000000000000000\n        /* \"#utility.yul\":19915:19916   */\n      0x00\n        /* \"#utility.yul\":19908:19996   */\n      mstore\n        /* \"#utility.yul\":20015:20019   */\n      0x11\n        /* \"#utility.yul\":20012:20013   */\n      0x04\n        /* \"#utility.yul\":20005:20020   */\n      mstore\n        /* \"#utility.yul\":20039:20043   */\n      0x24\n        /* \"#utility.yul\":20036:20037   */\n      0x00\n        /* \"#utility.yul\":20029:20044   */\n      revert\n        /* \"#utility.yul\":20056:20236   */\n    tag_567:\n        /* \"#utility.yul\":20104:20181   */\n      0x4e487b7100000000000000000000000000000000000000000000000000000000\n        /* \"#utility.yul\":20101:20102   */\n      0x00\n        /* \"#utility.yul\":20094:20182   */\n      mstore\n        /* \"#utility.yul\":20201:20205   */\n      0x12\n        /* \"#utility.yul\":20198:20199   */\n      0x04\n        /* \"#utility.yul\":20191:20206   */\n      mstore\n        /* \"#utility.yul\":20225:20229   */\n      0x24\n        /* \"#utility.yul\":20222:20223   */\n      0x00\n        /* \"#utility.yul\":20215:20230   */\n      revert\n        /* \"#utility.yul\":20365:20482   */\n    tag_385:\n        /* \"#utility.yul\":20474:20475   */\n      0x00\n        /* \"#utility.yul\":20471:20472   */\n      dup1\n        /* \"#utility.yul\":20464:20476   */\n      revert\n        /* \"#utility.yul\":20488:20590   */\n    tag_424:\n        /* \"#utility.yul\":20529:20535   */\n      0x00\n        /* \"#utility.yul\":20580:20582   */\n      0x1f\n        /* \"#utility.yul\":20576:20583   */\n      not\n        /* \"#utility.yul\":20571:20573   */\n      0x1f\n        /* \"#utility.yul\":20564:20569   */\n      dup4\n        /* \"#utility.yul\":20560:20574   */\n      add\n        /* \"#utility.yul\":20556:20584   */\n      and\n        /* \"#utility.yul\":20546:20584   */\n      swap1\n      pop\n        /* \"#utility.yul\":20488:20590   */\n      swap2\n      swap1\n      pop\n      jump\t// out\n        /* \"#utility.yul\":20596:20761   */\n    tag_429:\n        /* \"#utility.yul\":20736:20753   */\n      0x494e56414c49445f414444524553530000000000000000000000000000000000\n        /* \"#utility.yul\":20732:20733   */\n      0x00\n        /* \"#utility.yul\":20724:20730   */\n      dup3\n        /* \"#utility.yul\":20720:20734   */\n      add\n        /* \"#utility.yul\":20713:20754   */\n      mstore\n        /* \"#utility.yul\":20596:20761   */\n      pop\n      jump\t// out\n        /* \"#utility.yul\":20767:20934   */\n    tag_434:\n        /* \"#utility.yul\":20907:20926   */\n      0x494e56414c49445f57484954456c495354000000000000000000000000000000\n        /* \"#utility.yul\":20903:20904   */\n      0x00\n        /* \"#utility.yul\":20895:20901   */\n      dup3\n        /* \"#utility.yul\":20891:20905   */\n      add\n        /* \"#utility.yul\":20884:20927   */\n      mstore\n        /* \"#utility.yul\":20767:20934   */\n      pop\n      jump\t// out\n        /* \"#utility.yul\":20940:21108   */\n    tag_439:\n        /* \"#utility.yul\":21080:21100   */\n      0x494e56414c49445f515541544954593a30310000000000000000000000000000\n        /* \"#utility.yul\":21076:21077   */\n      0x00\n        /* \"#utility.yul\":21068:21074   */\n      dup3\n        /* \"#utility.yul\":21064:21078   */\n      add\n        /* \"#utility.yul\":21057:21101   */\n      mstore\n        /* \"#utility.yul\":20940:21108   */\n      pop\n      jump\t// out\n        /* \"#utility.yul\":21114:21291   */\n    tag_444:\n        /* \"#utility.yul\":21254:21283   */\n      0x536166654d6174683a206164646974696f6e206f766572666c6f770000000000\n        /* \"#utility.yul\":21250:21251   */\n      0x00\n        /* \"#utility.yul\":21242:21248   */\n      dup3\n        /* \"#utility.yul\":21238:21252   */\n      add\n        /* \"#utility.yul\":21231:21284   */\n      mstore\n        /* \"#utility.yul\":21114:21291   */\n      pop\n      jump\t// out\n        /* \"#utility.yul\":21297:21465   */\n    tag_449:\n        /* \"#utility.yul\":21437:21457   */\n      0x494e56414c49445f5041594d454e543a30320000000000000000000000000000\n        /* \"#utility.yul\":21433:21434   */\n      0x00\n        /* \"#utility.yul\":21425:21431   */\n      dup3\n        /* \"#utility.yul\":21421:21435   */\n      add\n        /* \"#utility.yul\":21414:21458   */\n      mstore\n        /* \"#utility.yul\":21297:21465   */\n      pop\n      jump\t// out\n        /* \"#utility.yul\":21471:21639   */\n    tag_454:\n        /* \"#utility.yul\":21611:21631   */\n      0x494e56414c49445f515541544954593a30320000000000000000000000000000\n        /* \"#utility.yul\":21607:21608   */\n      0x00\n        /* \"#utility.yul\":21599:21605   */\n      dup3\n        /* \"#utility.yul\":21595:21609   */\n      add\n        /* \"#utility.yul\":21588:21632   */\n      mstore\n        /* \"#utility.yul\":21471:21639   */\n      pop\n      jump\t// out\n        /* \"#utility.yul\":21645:21865   */\n    tag_459:\n        /* \"#utility.yul\":21785:21819   */\n      0x536166654d6174683a206d756c7469706c69636174696f6e206f766572666c6f\n        /* \"#utility.yul\":21781:21782   */\n      0x00\n        /* \"#utility.yul\":21773:21779   */\n      dup3\n        /* \"#utility.yul\":21769:21783   */\n      add\n        /* \"#utility.yul\":21762:21820   */\n      mstore\n        /* \"#utility.yul\":21854:21857   */\n      0x7700000000000000000000000000000000000000000000000000000000000000\n        /* \"#utility.yul\":21849:21851   */\n      0x20\n        /* \"#utility.yul\":21841:21847   */\n      dup3\n        /* \"#utility.yul\":21837:21852   */\n      add\n        /* \"#utility.yul\":21830:21858   */\n      mstore\n        /* \"#utility.yul\":21645:21865   */\n      pop\n      jump\t// out\n        /* \"#utility.yul\":21871:22032   */\n    tag_464:\n        /* \"#utility.yul\":22011:22024   */\n      0x53595354454d5f53544f50000000000000000000000000000000000000000000\n        /* \"#utility.yul\":22007:22008   */\n      0x00\n        /* \"#utility.yul\":21999:22005   */\n      dup3\n        /* \"#utility.yul\":21995:22009   */\n      add\n        /* \"#utility.yul\":21988:22025   */\n      mstore\n        /* \"#utility.yul\":21871:22032   */\n      pop\n      jump\t// out\n        /* \"#utility.yul\":22038:22206   */\n    tag_469:\n        /* \"#utility.yul\":22178:22198   */\n      0x53595354454d5f4e4f545f52554e4e494e470000000000000000000000000000\n        /* \"#utility.yul\":22174:22175   */\n      0x00\n        /* \"#utility.yul\":22166:22172   */\n      dup3\n        /* \"#utility.yul\":22162:22176   */\n      add\n        /* \"#utility.yul\":22155:22199   */\n      mstore\n        /* \"#utility.yul\":22038:22206   */\n      pop\n      jump\t// out\n        /* \"#utility.yul\":22212:22380   */\n    tag_474:\n        /* \"#utility.yul\":22352:22372   */\n      0x494e56414c49445f5041594d454e543a30310000000000000000000000000000\n        /* \"#utility.yul\":22348:22349   */\n      0x00\n        /* \"#utility.yul\":22340:22346   */\n      dup3\n        /* \"#utility.yul\":22336:22350   */\n      add\n        /* \"#utility.yul\":22329:22373   */\n      mstore\n        /* \"#utility.yul\":22212:22380   */\n      pop\n      jump\t// out\n        /* \"#utility.yul\":22386:22552   */\n    tag_479:\n        /* \"#utility.yul\":22526:22544   */\n      0x494e56414c49445f414d4f554e545f3100000000000000000000000000000000\n        /* \"#utility.yul\":22522:22523   */\n      0x00\n        /* \"#utility.yul\":22514:22520   */\n      dup3\n        /* \"#utility.yul\":22510:22524   */\n      add\n        /* \"#utility.yul\":22503:22545   */\n      mstore\n        /* \"#utility.yul\":22386:22552   */\n      pop\n      jump\t// out\n        /* \"#utility.yul\":22558:22726   */\n    tag_484:\n        /* \"#utility.yul\":22698:22718   */\n      0x494e56414c49445f5045524d495353494f4e0000000000000000000000000000\n        /* \"#utility.yul\":22694:22695   */\n      0x00\n        /* \"#utility.yul\":22686:22692   */\n      dup3\n        /* \"#utility.yul\":22682:22696   */\n      add\n        /* \"#utility.yul\":22675:22719   */\n      mstore\n        /* \"#utility.yul\":22558:22726   */\n      pop\n      jump\t// out\n        /* \"#utility.yul\":22732:22854   */\n    tag_366:\n        /* \"#utility.yul\":22805:22829   */\n      tag_620\n        /* \"#utility.yul\":22823:22828   */\n      dup2\n        /* \"#utility.yul\":22805:22829   */\n      tag_406\n      jump\t// in\n    tag_620:\n        /* \"#utility.yul\":22798:22803   */\n      dup2\n        /* \"#utility.yul\":22795:22830   */\n      eq\n        /* \"#utility.yul\":22785:22848   */\n      tag_621\n      jumpi\n        /* \"#utility.yul\":22844:22845   */\n      0x00\n        /* \"#utility.yul\":22841:22842   */\n      dup1\n        /* \"#utility.yul\":22834:22846   */\n      revert\n        /* \"#utility.yul\":22785:22848   */\n    tag_621:\n        /* \"#utility.yul\":22732:22854   */\n      pop\n      jump\t// out\n        /* \"#utility.yul\":22860:22976   */\n    tag_370:\n        /* \"#utility.yul\":22930:22951   */\n      tag_623\n        /* \"#utility.yul\":22945:22950   */\n      dup2\n        /* \"#utility.yul\":22930:22951   */\n      tag_410\n      jump\t// in\n    tag_623:\n        /* \"#utility.yul\":22923:22928   */\n      dup2\n        /* \"#utility.yul\":22920:22952   */\n      eq\n        /* \"#utility.yul\":22910:22970   */\n      tag_624\n      jumpi\n        /* \"#utility.yul\":22966:22967   */\n      0x00\n        /* \"#utility.yul\":22963:22964   */\n      dup1\n        /* \"#utility.yul\":22956:22968   */\n      revert\n        /* \"#utility.yul\":22910:22970   */\n    tag_624:\n        /* \"#utility.yul\":22860:22976   */\n      pop\n      jump\t// out\n        /* \"#utility.yul\":22982:23132   */\n    tag_374:\n        /* \"#utility.yul\":23069:23107   */\n      tag_626\n        /* \"#utility.yul\":23101:23106   */\n      dup2\n        /* \"#utility.yul\":23069:23107   */\n      tag_582\n      jump\t// in\n    tag_626:\n        /* \"#utility.yul\":23062:23067   */\n      dup2\n        /* \"#utility.yul\":23059:23108   */\n      eq\n        /* \"#utility.yul\":23049:23126   */\n      tag_627\n      jumpi\n        /* \"#utility.yul\":23122:23123   */\n      0x00\n        /* \"#utility.yul\":23119:23120   */\n      dup1\n        /* \"#utility.yul\":23112:23124   */\n      revert\n        /* \"#utility.yul\":23049:23126   */\n    tag_627:\n        /* \"#utility.yul\":22982:23132   */\n      pop\n      jump\t// out\n        /* \"#utility.yul\":23138:23260   */\n    tag_378:\n        /* \"#utility.yul\":23211:23235   */\n      tag_629\n        /* \"#utility.yul\":23229:23234   */\n      dup2\n        /* \"#utility.yul\":23211:23235   */\n      tag_488\n      jump\t// in\n    tag_629:\n        /* \"#utility.yul\":23204:23209   */\n      dup2\n        /* \"#utility.yul\":23201:23236   */\n      eq\n        /* \"#utility.yul\":23191:23254   */\n      tag_630\n      jumpi\n        /* \"#utility.yul\":23250:23251   */\n      0x00\n        /* \"#utility.yul\":23247:23248   */\n      dup1\n        /* \"#utility.yul\":23240:23252   */\n      revert\n        /* \"#utility.yul\":23191:23254   */\n    tag_630:\n        /* \"#utility.yul\":23138:23260   */\n      pop\n      jump\t// out\n\n    auxdata: 0xa264697066735822122038f3de891664f5bad060dedf673c5fc78be8b72a285b3be3b4bcec3d1ad022c964736f6c63430008070033\n}\n",
				"bytecode": {
					"linkReferences": {},
					"object": "608060405260646000806101000a81548160ff021916908360ff160217905550619c40600355600060045560006005556000600660006101000a81548160ff0219169083151502179055506843c33c1937564800006007556828a857425466f80000600855612a306009553480156200007757600080fd5b5060405162002ca938038062002ca983398181016040528101906200009d91906200017f565b81600160006101000a81548173ffffffffffffffffffffffffffffffffffffffff021916908373ffffffffffffffffffffffffffffffffffffffff16021790555080600260006101000a81548173ffffffffffffffffffffffffffffffffffffffff021916908373ffffffffffffffffffffffffffffffffffffffff16021790555033600060016101000a81548173ffffffffffffffffffffffffffffffffffffffff021916908373ffffffffffffffffffffffffffffffffffffffff16021790555050506200022d565b600081519050620001798162000213565b92915050565b600080604083850312156200019957620001986200020e565b5b6000620001a98582860162000168565b9250506020620001bc8582860162000168565b9150509250929050565b6000620001d382620001ee565b9050919050565b6000620001e782620001c6565b9050919050565b600073ffffffffffffffffffffffffffffffffffffffff82169050919050565b600080fd5b6200021e81620001da565b81146200022a57600080fd5b50565b612a6c806200023d6000396000f3fe6080604052600436106101bb5760003560e01c80638da5cb5b116100ec578063be9a65551161008a578063e632c2f311610064578063e632c2f3146105c0578063f2fde38b146105eb578063f51f96dd14610614578063ffa1ad741461063f576101c2565b8063be9a655514610557578063ccb98ffc1461056e578063d96a094a14610597576101c2565b8063a2b0106b116100c6578063a2b0106b146104af578063a3907d71146104d8578063b0176ce8146104ef578063bcaaf6621461051a576101c2565b80638da5cb5b1461041c57806390c8dd171461044757806392f6386a14610484576101c2565b806338266b22116101595780633cfd1ccc116101335780633cfd1ccc1461037257806350c19c0b1461039d578063860779e7146103c857806389a30271146103f1576101c2565b806338266b22146102da5780633af96b901461031e5780633c6c26f914610349576101c2565b8063247b981811610195578063247b9818146102445780632acfc3da1461026f5780632f2770db146102985780633197cbb6146102af576101c2565b80630f5a9d01146101c75780631919fed7146101f05780631f2475bd14610219576101c2565b366101c257005b600080fd5b3480156101d357600080fd5b506101ee60048036038101906101e99190611f3d565b61066a565b005b3480156101fc57600080fd5b5061021760048036038101906102129190611f6a565b6107ae565b005b34801561022557600080fd5b5061022e610848565b60405161023b919061249f565b60405180910390f35b34801561025057600080fd5b506102596108fa565b604051610266919061249f565b60405180910390f35b34801561027b57600080fd5b5061029660048036038101906102919190611f3d565b610900565b005b3480156102a457600080fd5b506102ad610a44565b005b3480156102bb57600080fd5b506102c4610af1565b6040516102d1919061249f565b60405180910390f35b3480156102e657600080fd5b5061030160048036038101906102fc9190611ee3565b610af7565b6040516103159897969594939291906124ba565b60405180910390f35b34801561032a57600080fd5b50610333610cc4565b604051610340919061249f565b60405180910390f35b34801561035557600080fd5b50610370600480360381019061036b9190611f3d565b610cca565b005b34801561037e57600080fd5b50610387610e9b565b604051610394919061249f565b60405180910390f35b3480156103a957600080fd5b506103b2610f4d565b6040516103bf919061249f565b60405180910390f35b3480156103d457600080fd5b506103ef60048036038101906103ea9190611f6a565b610f53565b005b3480156103fd57600080fd5b50610406610fed565b60405161041391906122e2565b60405180910390f35b34801561042857600080fd5b50610431611013565b60405161043e91906121ec565b60405180910390f35b34801561045357600080fd5b5061046e60048036038101906104699190611ee3565b611039565b60405161047b919061249f565b60405180910390f35b34801561049057600080fd5b50610499611133565b6040516104a691906122c7565b60405180910390f35b3480156104bb57600080fd5b506104d660048036038101906104d19190611f6a565b611146565b005b3480156104e457600080fd5b506104ed6111e0565b005b3480156104fb57600080fd5b5061050461128d565b60405161051191906122e2565b60405180910390f35b34801561052657600080fd5b50610541600480360381019061053c9190611ee3565b6112b3565b60405161054e919061249f565b60405180910390f35b34801561056357600080fd5b5061056c6112cb565b005b34801561057a57600080fd5b5061059560048036038101906105909190611f6a565b611393565b005b3480156105a357600080fd5b506105be60048036038101906105b99190611f6a565b61142d565b005b3480156105cc57600080fd5b506105d5611901565b6040516105e2919061249f565b60405180910390f35b3480156105f757600080fd5b50610612600480360381019061060d9190611ee3565b611907565b005b34801561062057600080fd5b506106296119db565b604051610636919061249f565b60405180910390f35b34801561064b57600080fd5b506106546119e1565b6040516106619190612538565b60405180910390f35b600060019054906101000a900473ffffffffffffffffffffffffffffffffffffffff1673ffffffffffffffffffffffffffffffffffffffff163373ffffffffffffffffffffffffffffffffffffffff16146106fa576040517f08c379a00000000000000000000000000000000000000000000000000000000081526004016106f19061247f565b60405180910390fd5b600073ffffffffffffffffffffffffffffffffffffffff168173ffffffffffffffffffffffffffffffffffffffff16141561076a576040517f08c379a00000000000000000000000000000000000000000000000000000000081526004016107619061231f565b60405180910390fd5b80600260006101000a81548173ffffffffffffffffffffffffffffffffffffffff021916908373ffffffffffffffffffffffffffffffffffffffff16021790555050565b600060019054906101000a900473ffffffffffffffffffffffffffffffffffffffff1673ffffffffffffffffffffffffffffffffffffffff163373ffffffffffffffffffffffffffffffffffffffff161461083e576040517f08c379a00000000000000000000000000000000000000000000000000000000081526004016108359061247f565b60405180910390fd5b8060038190555050565b6000600160009054906101000a900473ffffffffffffffffffffffffffffffffffffffff1673ffffffffffffffffffffffffffffffffffffffff166370a08231306040518263ffffffff1660e01b81526004016108a591906121ec565b60206040518083038186803b1580156108bd57600080fd5b505afa1580156108d1573d6000803e3d6000fd5b505050506040513d601f19601f820116820180604052508101906108f59190611f97565b905090565b60095481565b600060019054906101000a900473ffffffffffffffffffffffffffffffffffffffff1673ffffffffffffffffffffffffffffffffffffffff163373ffffffffffffffffffffffffffffffffffffffff1614610990576040517f08c379a00000000000000000000000000000000000000000000000000000000081526004016109879061247f565b60405180910390fd5b600073ffffffffffffffffffffffffffffffffffffffff168173ffffffffffffffffffffffffffffffffffffffff161415610a00576040517f08c379a00000000000000000000000000000000000000000000000000000000081526004016109f79061231f565b60405180910390fd5b80600160006101000a81548173ffffffffffffffffffffffffffffffffffffffff021916908373ffffffffffffffffffffffffffffffffffffffff16021790555050565b600060019054906101000a900473ffffffffffffffffffffffffffffffffffffffff1673ffffffffffffffffffffffffffffffffffffffff163373ffffffffffffffffffffffffffffffffffffffff1614610ad4576040517f08c379a0000000000000000000000000000000000000000000000000000000008152600401610acb9061247f565b60405180910390fd5b6000600660006101000a81548160ff021916908315150217905550565b60055481565b600080600080600080600080600260009054906101000a900473ffffffffffffffffffffffffffffffffffffffff1673ffffffffffffffffffffffffffffffffffffffff166370a082318a6040518263ffffffff1660e01b8152600401610b5e91906121ec565b60206040518083038186803b158015610b7657600080fd5b505afa158015610b8a573d6000803e3d6000fd5b505050506040513d601f19601f82011682018060405250810190610bae9190611f97565b9750610bb989611039565b9650610bea670de0b6b3a7640000610bdc6003548a6119f290919063ffffffff16565b611a6d90919063ffffffff16565b9550610bf4610e9b565b9450610bfe610848565b935060035492506004549150600260009054906101000a900473ffffffffffffffffffffffffffffffffffffffff1673ffffffffffffffffffffffffffffffffffffffff1663dd62ed3e8a306040518363ffffffff1660e01b8152600401610c67929190612207565b60206040518083038186803b158015610c7f57600080fd5b505afa158015610c93573d6000803e3d6000fd5b505050506040513d601f19601f82011682018060405250810190610cb79190611f97565b9050919395975091939597565b60085481565b600060019054906101000a900473ffffffffffffffffffffffffffffffffffffffff1673ffffffffffffffffffffffffffffffffffffffff163373ffffffffffffffffffffffffffffffffffffffff1614610d5a576040517f08c379a0000000000000000000000000000000000000000000000000000000008152600401610d519061247f565b60405180910390fd5b60008173ffffffffffffffffffffffffffffffffffffffff166370a08231306040518263ffffffff1660e01b8152600401610d9591906121ec565b60206040518083038186803b158015610dad57600080fd5b505afa158015610dc1573d6000803e3d6000fd5b505050506040513d601f19601f82011682018060405250810190610de59190611f97565b90508173ffffffffffffffffffffffffffffffffffffffff1663a9059cbb600060019054906101000a900473ffffffffffffffffffffffffffffffffffffffff16836040518363ffffffff1660e01b8152600401610e44929190612267565b602060405180830381600087803b158015610e5e57600080fd5b505af1158015610e72573d6000803e3d6000fd5b505050506040513d601f19601f82011682018060405250810190610e969190611f10565b505050565b6000600260009054906101000a900473ffffffffffffffffffffffffffffffffffffffff1673ffffffffffffffffffffffffffffffffffffffff166370a08231306040518263ffffffff1660e01b8152600401610ef891906121ec565b60206040518083038186803b158015610f1057600080fd5b505afa158015610f24573d6000803e3d6000fd5b505050506040513d601f19601f82011682018060405250810190610f489190611f97565b905090565b60075481565b600060019054906101000a900473ffffffffffffffffffffffffffffffffffffffff1673ffffffffffffffffffffffffffffffffffffffff163373ffffffffffffffffffffffffffffffffffffffff1614610fe3576040517f08c379a0000000000000000000000000000000000000000000000000000000008152600401610fda9061247f565b60405180910390fd5b8060088190555050565b600260009054906101000a900473ffffffffffffffffffffffffffffffffffffffff1681565b600060019054906101000a900473ffffffffffffffffffffffffffffffffffffffff1681565b600080611044610848565b9050600754600a60008573ffffffffffffffffffffffffffffffffffffffff1673ffffffffffffffffffffffffffffffffffffffff16815260200190815260200160002054101580611097575060008111155b806110b5575060001515600660009054906101000a900460ff161515145b156110c457600091505061112e565b600061111a600a60008673ffffffffffffffffffffffffffffffffffffffff1673ffffffffffffffffffffffffffffffffffffffff16815260200190815260200160002054600754611ab790919063ffffffff16565b905081811115611128578190505b80925050505b919050565b600660009054906101000a900460ff1681565b600060019054906101000a900473ffffffffffffffffffffffffffffffffffffffff1673ffffffffffffffffffffffffffffffffffffffff163373ffffffffffffffffffffffffffffffffffffffff16146111d6576040517f08c379a00000000000000000000000000000000000000000000000000000000081526004016111cd9061247f565b60405180910390fd5b8060078190555050565b600060019054906101000a900473ffffffffffffffffffffffffffffffffffffffff1673ffffffffffffffffffffffffffffffffffffffff163373ffffffffffffffffffffffffffffffffffffffff1614611270576040517f08c379a00000000000000000000000000000000000000000000000000000000081526004016112679061247f565b60405180910390fd5b6001600660006101000a81548160ff021916908315150217905550565b600160009054906101000a900473ffffffffffffffffffffffffffffffffffffffff1681565b600a6020528060005260406000206000915090505481565b600060019054906101000a900473ffffffffffffffffffffffffffffffffffffffff1673ffffffffffffffffffffffffffffffffffffffff163373ffffffffffffffffffffffffffffffffffffffff161461135b576040517f08c379a00000000000000000000000000000000000000000000000000000000081526004016113529061247f565b60405180910390fd5b61137060095442611b0190919063ffffffff16565b6005819055506001600660006101000a81548160ff021916908315150217905550565b600060019054906101000a900473ffffffffffffffffffffffffffffffffffffffff1673ffffffffffffffffffffffffffffffffffffffff163373ffffffffffffffffffffffffffffffffffffffff1614611423576040517f08c379a000000000000000000000000000000000000000000000000000000000815260040161141a9061247f565b60405180910390fd5b8060058190555050565b3273ffffffffffffffffffffffffffffffffffffffff163373ffffffffffffffffffffffffffffffffffffffff161461149b576040517f08c379a00000000000000000000000000000000000000000000000000000000081526004016114929061233f565b60405180910390fd5b60011515600660009054906101000a900460ff161515146114f1576040517f08c379a00000000000000000000000000000000000000000000000000000000081526004016114e8906123ff565b60405180910390fd5b600060055411801561150557504260055411155b611544576040517f08c379a000000000000000000000000000000000000000000000000000000000815260040161153b9061241f565b60405180910390fd5b60008111611587576040517f08c379a000000000000000000000000000000000000000000000000000000000815260040161157e9061245f565b60405180910390fd5b600061159233611039565b9050600081116115d7576040517f08c379a00000000000000000000000000000000000000000000000000000000081526004016115ce9061247f565b60405180910390fd5b60006116086003546115fa670de0b6b3a7640000866119f290919063ffffffff16565b611a6d90919063ffffffff16565b90508181111561164757819050611644670de0b6b3a7640000611636600354846119f290919063ffffffff16565b611a6d90919063ffffffff16565b92505b6000811161168a576040517f08c379a00000000000000000000000000000000000000000000000000000000081526004016116819061235f565b60405180910390fd5b6008548110156116cf576040517f08c379a00000000000000000000000000000000000000000000000000000000081526004016116c6906123bf565b60405180910390fd5b60008311611712576040517f08c379a00000000000000000000000000000000000000000000000000000000081526004016117099061243f565b60405180910390fd5b6001151561171f84611b5f565b151514611761576040517f08c379a00000000000000000000000000000000000000000000000000000000081526004016117589061239f565b60405180910390fd5b600160009054906101000a900473ffffffffffffffffffffffffffffffffffffffff1673ffffffffffffffffffffffffffffffffffffffff1663a9059cbb33836040518363ffffffff1660e01b81526004016117be929190612267565b602060405180830381600087803b1580156117d857600080fd5b505af11580156117ec573d6000803e3d6000fd5b505050506040513d601f19601f820116820180604052508101906118109190611f10565b5061182683600454611b0190919063ffffffff16565b60048190555061187e81600a60003373ffffffffffffffffffffffffffffffffffffffff1673ffffffffffffffffffffffffffffffffffffffff16815260200190815260200160002054611b0190919063ffffffff16565b600a60003373ffffffffffffffffffffffffffffffffffffffff1673ffffffffffffffffffffffffffffffffffffffff168152602001908152602001600020819055507f7b027a29d1a4d4d2e0a11e04ebd4741452bfbb746ed433855a8f63afc5b20cde3384836040516118f493929190612290565b60405180910390a1505050565b60045481565b600060019054906101000a900473ffffffffffffffffffffffffffffffffffffffff1673ffffffffffffffffffffffffffffffffffffffff163373ffffffffffffffffffffffffffffffffffffffff1614611997576040517f08c379a000000000000000000000000000000000000000000000000000000000815260040161198e9061247f565b60405180910390fd5b80600060016101000a81548173ffffffffffffffffffffffffffffffffffffffff021916908373ffffffffffffffffffffffffffffffffffffffff16021790555050565b60035481565b60008054906101000a900460ff1681565b600080831415611a055760009050611a67565b60008284611a1391906125f6565b9050828482611a2291906125c5565b14611a62576040517f08c379a0000000000000000000000000000000000000000000000000000000008152600401611a59906123df565b60405180910390fd5b809150505b92915050565b6000611aaf83836040518060400160405280601a81526020017f536166654d6174683a206469766973696f6e206279207a65726f000000000000815250611db3565b905092915050565b6000611af983836040518060400160405280601e81526020017f536166654d6174683a207375627472616374696f6e206f766572666c6f770000815250611e16565b905092915050565b6000808284611b10919061256f565b905083811015611b55576040517f08c379a0000000000000000000000000000000000000000000000000000000008152600401611b4c9061237f565b60405180910390fd5b8091505092915050565b600080600260009054906101000a900473ffffffffffffffffffffffffffffffffffffffff1673ffffffffffffffffffffffffffffffffffffffff166370a08231306040518263ffffffff1660e01b8152600401611bbd91906121ec565b60206040518083038186803b158015611bd557600080fd5b505afa158015611be9573d6000803e3d6000fd5b505050506040513d601f19601f82011682018060405250810190611c0d9190611f97565b9050600260009054906101000a900473ffffffffffffffffffffffffffffffffffffffff1673ffffffffffffffffffffffffffffffffffffffff166323b872dd3330866040518463ffffffff1660e01b8152600401611c6e93929190612230565b602060405180830381600087803b158015611c8857600080fd5b505af1158015611c9c573d6000803e3d6000fd5b505050506040513d601f19601f82011682018060405250810190611cc09190611f10565b506000600260009054906101000a900473ffffffffffffffffffffffffffffffffffffffff1673ffffffffffffffffffffffffffffffffffffffff166370a08231306040518263ffffffff1660e01b8152600401611d1e91906121ec565b60206040518083038186803b158015611d3657600080fd5b505afa158015611d4a573d6000803e3d6000fd5b505050506040513d601f19601f82011682018060405250810190611d6e9190611f97565b9050818111611d8257600092505050611dae565b611d958483611b0190919063ffffffff16565b811015611da757600092505050611dae565b6001925050505b919050565b60008083118290611dfa576040517f08c379a0000000000000000000000000000000000000000000000000000000008152600401611df191906122fd565b60405180910390fd5b5060008385611e0991906125c5565b9050809150509392505050565b6000838311158290611e5e576040517f08c379a0000000000000000000000000000000000000000000000000000000008152600401611e5591906122fd565b60405180910390fd5b5060008385611e6d9190612650565b9050809150509392505050565b600081359050611e89816129da565b92915050565b600081519050611e9e816129f1565b92915050565b600081359050611eb381612a08565b92915050565b600081359050611ec881612a1f565b92915050565b600081519050611edd81612a1f565b92915050565b600060208284031215611ef957611ef86127b2565b5b6000611f0784828501611e7a565b91505092915050565b600060208284031215611f2657611f256127b2565b5b6000611f3484828501611e8f565b91505092915050565b600060208284031215611f5357611f526127b2565b5b6000611f6184828501611ea4565b91505092915050565b600060208284031215611f8057611f7f6127b2565b5b6000611f8e84828501611eb9565b91505092915050565b600060208284031215611fad57611fac6127b2565b5b6000611fbb84828501611ece565b91505092915050565b611fcd81612684565b82525050565b611fdc81612696565b82525050565b611feb816126eb565b82525050565b6000611ffc82612553565b612006818561255e565b9350612016818560208601612721565b61201f816127b7565b840191505092915050565b6000612037600f8361255e565b9150612042826127c8565b602082019050919050565b600061205a60118361255e565b9150612065826127f1565b602082019050919050565b600061207d60128361255e565b91506120888261281a565b602082019050919050565b60006120a0601b8361255e565b91506120ab82612843565b602082019050919050565b60006120c360128361255e565b91506120ce8261286c565b602082019050919050565b60006120e660128361255e565b91506120f182612895565b602082019050919050565b600061210960218361255e565b9150612114826128be565b604082019050919050565b600061212c600b8361255e565b91506121378261290d565b602082019050919050565b600061214f60128361255e565b915061215a82612936565b602082019050919050565b600061217260128361255e565b915061217d8261295f565b602082019050919050565b600061219560108361255e565b91506121a082612988565b602082019050919050565b60006121b860128361255e565b91506121c3826129b1565b602082019050919050565b6121d7816126d4565b82525050565b6121e6816126de565b82525050565b60006020820190506122016000830184611fc4565b92915050565b600060408201905061221c6000830185611fc4565b6122296020830184611fc4565b9392505050565b60006060820190506122456000830186611fc4565b6122526020830185611fc4565b61225f60408301846121ce565b949350505050565b600060408201905061227c6000830185611fc4565b61228960208301846121ce565b9392505050565b60006060820190506122a56000830186611fc4565b6122b260208301856121ce565b6122bf60408301846121ce565b949350505050565b60006020820190506122dc6000830184611fd3565b92915050565b60006020820190506122f76000830184611fe2565b92915050565b600060208201905081810360008301526123178184611ff1565b905092915050565b600060208201905081810360008301526123388161202a565b9050919050565b600060208201905081810360008301526123588161204d565b9050919050565b6000602082019050818103600083015261237881612070565b9050919050565b6000602082019050818103600083015261239881612093565b9050919050565b600060208201905081810360008301526123b8816120b6565b9050919050565b600060208201905081810360008301526123d8816120d9565b9050919050565b600060208201905081810360008301526123f8816120fc565b9050919050565b600060208201905081810360008301526124188161211f565b9050919050565b6000602082019050818103600083015261243881612142565b9050919050565b6000602082019050818103600083015261245881612165565b9050919050565b6000602082019050818103600083015261247881612188565b9050919050565b60006020820190508181036000830152612498816121ab565b9050919050565b60006020820190506124b460008301846121ce565b92915050565b6000610100820190506124d0600083018b6121ce565b6124dd602083018a6121ce565b6124ea60408301896121ce565b6124f760608301886121ce565b61250460808301876121ce565b61251160a08301866121ce565b61251e60c08301856121ce565b61252b60e08301846121ce565b9998505050505050505050565b600060208201905061254d60008301846121dd565b92915050565b600081519050919050565b600082825260208201905092915050565b600061257a826126d4565b9150612585836126d4565b9250827fffffffffffffffffffffffffffffffffffffffffffffffffffffffffffffffff038211156125ba576125b9612754565b5b828201905092915050565b60006125d0826126d4565b91506125db836126d4565b9250826125eb576125ea612783565b5b828204905092915050565b6000612601826126d4565b915061260c836126d4565b9250817fffffffffffffffffffffffffffffffffffffffffffffffffffffffffffffffff048311821515161561264557612644612754565b5b828202905092915050565b600061265b826126d4565b9150612666836126d4565b92508282101561267957612678612754565b5b828203905092915050565b600061268f826126b4565b9050919050565b60008115159050919050565b60006126ad82612684565b9050919050565b600073ffffffffffffffffffffffffffffffffffffffff82169050919050565b6000819050919050565b600060ff82169050919050565b60006126f6826126fd565b9050919050565b60006127088261270f565b9050919050565b600061271a826126b4565b9050919050565b60005b8381101561273f578082015181840152602081019050612724565b8381111561274e576000848401525b50505050565b7f4e487b7100000000000000000000000000000000000000000000000000000000600052601160045260246000fd5b7f4e487b7100000000000000000000000000000000000000000000000000000000600052601260045260246000fd5b600080fd5b6000601f19601f8301169050919050565b7f494e56414c49445f414444524553530000000000000000000000000000000000600082015250565b7f494e56414c49445f57484954456c495354000000000000000000000000000000600082015250565b7f494e56414c49445f515541544954593a30310000000000000000000000000000600082015250565b7f536166654d6174683a206164646974696f6e206f766572666c6f770000000000600082015250565b7f494e56414c49445f5041594d454e543a30320000000000000000000000000000600082015250565b7f494e56414c49445f515541544954593a30320000000000000000000000000000600082015250565b7f536166654d6174683a206d756c7469706c69636174696f6e206f766572666c6f60008201527f7700000000000000000000000000000000000000000000000000000000000000602082015250565b7f53595354454d5f53544f50000000000000000000000000000000000000000000600082015250565b7f53595354454d5f4e4f545f52554e4e494e470000000000000000000000000000600082015250565b7f494e56414c49445f5041594d454e543a30310000000000000000000000000000600082015250565b7f494e56414c49445f414d4f554e545f3100000000000000000000000000000000600082015250565b7f494e56414c49445f5045524d495353494f4e0000000000000000000000000000600082015250565b6129e381612684565b81146129ee57600080fd5b50565b6129fa81612696565b8114612a0557600080fd5b50565b612a11816126a2565b8114612a1c57600080fd5b50565b612a28816126d4565b8114612a3357600080fd5b5056fea264697066735822122038f3de891664f5bad060dedf673c5fc78be8b72a285b3be3b4bcec3d1ad022c964736f6c63430008070033",
					"opcodes": "PUSH1 0x80 PUSH1 0x40 MSTORE PUSH1 0x64 PUSH1 0x0 DUP1 PUSH2 0x100 EXP DUP2 SLOAD DUP2 PUSH1 0xFF MUL NOT AND SWAP1 DUP4 PUSH1 0xFF AND MUL OR SWAP1 SSTORE POP PUSH2 0x9C40 PUSH1 0x3 SSTORE PUSH1 0x0 PUSH1 0x4 SSTORE PUSH1 0x0 PUSH1 0x5 SSTORE PUSH1 0x0 PUSH1 0x6 PUSH1 0x0 PUSH2 0x100 EXP DUP2 SLOAD DUP2 PUSH1 0xFF MUL NOT AND SWAP1 DUP4 ISZERO ISZERO MUL OR SWAP1 SSTORE POP PUSH9 0x43C33C193756480000 PUSH1 0x7 SSTORE PUSH9 0x28A857425466F80000 PUSH1 0x8 SSTORE PUSH2 0x2A30 PUSH1 0x9 SSTORE CALLVALUE DUP1 ISZERO PUSH3 0x77 JUMPI PUSH1 0x0 DUP1 REVERT JUMPDEST POP PUSH1 0x40 MLOAD PUSH3 0x2CA9 CODESIZE SUB DUP1 PUSH3 0x2CA9 DUP4 CODECOPY DUP2 DUP2 ADD PUSH1 0x40 MSTORE DUP2 ADD SWAP1 PUSH3 0x9D SWAP2 SWAP1 PUSH3 0x17F JUMP JUMPDEST DUP2 PUSH1 0x1 PUSH1 0x0 PUSH2 0x100 EXP DUP2 SLOAD DUP2 PUSH20 0xFFFFFFFFFFFFFFFFFFFFFFFFFFFFFFFFFFFFFFFF MUL NOT AND SWAP1 DUP4 PUSH20 0xFFFFFFFFFFFFFFFFFFFFFFFFFFFFFFFFFFFFFFFF AND MUL OR SWAP1 SSTORE POP DUP1 PUSH1 0x2 PUSH1 0x0 PUSH2 0x100 EXP DUP2 SLOAD DUP2 PUSH20 0xFFFFFFFFFFFFFFFFFFFFFFFFFFFFFFFFFFFFFFFF MUL NOT AND SWAP1 DUP4 PUSH20 0xFFFFFFFFFFFFFFFFFFFFFFFFFFFFFFFFFFFFFFFF AND MUL OR SWAP1 SSTORE POP CALLER PUSH1 0x0 PUSH1 0x1 PUSH2 0x100 EXP DUP2 SLOAD DUP2 PUSH20 0xFFFFFFFFFFFFFFFFFFFFFFFFFFFFFFFFFFFFFFFF MUL NOT AND SWAP1 DUP4 PUSH20 0xFFFFFFFFFFFFFFFFFFFFFFFFFFFFFFFFFFFFFFFF AND MUL OR SWAP1 SSTORE POP POP POP PUSH3 0x22D JUMP JUMPDEST PUSH1 0x0 DUP2 MLOAD SWAP1 POP PUSH3 0x179 DUP2 PUSH3 0x213 JUMP JUMPDEST SWAP3 SWAP2 POP POP JUMP JUMPDEST PUSH1 0x0 DUP1 PUSH1 0x40 DUP4 DUP6 SUB SLT ISZERO PUSH3 0x199 JUMPI PUSH3 0x198 PUSH3 0x20E JUMP JUMPDEST JUMPDEST PUSH1 0x0 PUSH3 0x1A9 DUP6 DUP3 DUP7 ADD PUSH3 0x168 JUMP JUMPDEST SWAP3 POP POP PUSH1 0x20 PUSH3 0x1BC DUP6 DUP3 DUP7 ADD PUSH3 0x168 JUMP JUMPDEST SWAP2 POP POP SWAP3 POP SWAP3 SWAP1 POP JUMP JUMPDEST PUSH1 0x0 PUSH3 0x1D3 DUP3 PUSH3 0x1EE JUMP JUMPDEST SWAP1 POP SWAP2 SWAP1 POP JUMP JUMPDEST PUSH1 0x0 PUSH3 0x1E7 DUP3 PUSH3 0x1C6 JUMP JUMPDEST SWAP1 POP SWAP2 SWAP1 POP JUMP JUMPDEST PUSH1 0x0 PUSH20 0xFFFFFFFFFFFFFFFFFFFFFFFFFFFFFFFFFFFFFFFF DUP3 AND SWAP1 POP SWAP2 SWAP1 POP JUMP JUMPDEST PUSH1 0x0 DUP1 REVERT JUMPDEST PUSH3 0x21E DUP2 PUSH3 0x1DA JUMP JUMPDEST DUP2 EQ PUSH3 0x22A JUMPI PUSH1 0x0 DUP1 REVERT JUMPDEST POP JUMP JUMPDEST PUSH2 0x2A6C DUP1 PUSH3 0x23D PUSH1 0x0 CODECOPY PUSH1 0x0 RETURN INVALID PUSH1 0x80 PUSH1 0x40 MSTORE PUSH1 0x4 CALLDATASIZE LT PUSH2 0x1BB JUMPI PUSH1 0x0 CALLDATALOAD PUSH1 0xE0 SHR DUP1 PUSH4 0x8DA5CB5B GT PUSH2 0xEC JUMPI DUP1 PUSH4 0xBE9A6555 GT PUSH2 0x8A JUMPI DUP1 PUSH4 0xE632C2F3 GT PUSH2 0x64 JUMPI DUP1 PUSH4 0xE632C2F3 EQ PUSH2 0x5C0 JUMPI DUP1 PUSH4 0xF2FDE38B EQ PUSH2 0x5EB JUMPI DUP1 PUSH4 0xF51F96DD EQ PUSH2 0x614 JUMPI DUP1 PUSH4 0xFFA1AD74 EQ PUSH2 0x63F JUMPI PUSH2 0x1C2 JUMP JUMPDEST DUP1 PUSH4 0xBE9A6555 EQ PUSH2 0x557 JUMPI DUP1 PUSH4 0xCCB98FFC EQ PUSH2 0x56E JUMPI DUP1 PUSH4 0xD96A094A EQ PUSH2 0x597 JUMPI PUSH2 0x1C2 JUMP JUMPDEST DUP1 PUSH4 0xA2B0106B GT PUSH2 0xC6 JUMPI DUP1 PUSH4 0xA2B0106B EQ PUSH2 0x4AF JUMPI DUP1 PUSH4 0xA3907D71 EQ PUSH2 0x4D8 JUMPI DUP1 PUSH4 0xB0176CE8 EQ PUSH2 0x4EF JUMPI DUP1 PUSH4 0xBCAAF662 EQ PUSH2 0x51A JUMPI PUSH2 0x1C2 JUMP JUMPDEST DUP1 PUSH4 0x8DA5CB5B EQ PUSH2 0x41C JUMPI DUP1 PUSH4 0x90C8DD17 EQ PUSH2 0x447 JUMPI DUP1 PUSH4 0x92F6386A EQ PUSH2 0x484 JUMPI PUSH2 0x1C2 JUMP JUMPDEST DUP1 PUSH4 0x38266B22 GT PUSH2 0x159 JUMPI DUP1 PUSH4 0x3CFD1CCC GT PUSH2 0x133 JUMPI DUP1 PUSH4 0x3CFD1CCC EQ PUSH2 0x372 JUMPI DUP1 PUSH4 0x50C19C0B EQ PUSH2 0x39D JUMPI DUP1 PUSH4 0x860779E7 EQ PUSH2 0x3C8 JUMPI DUP1 PUSH4 0x89A30271 EQ PUSH2 0x3F1 JUMPI PUSH2 0x1C2 JUMP JUMPDEST DUP1 PUSH4 0x38266B22 EQ PUSH2 0x2DA JUMPI DUP1 PUSH4 0x3AF96B90 EQ PUSH2 0x31E JUMPI DUP1 PUSH4 0x3C6C26F9 EQ PUSH2 0x349 JUMPI PUSH2 0x1C2 JUMP JUMPDEST DUP1 PUSH4 0x247B9818 GT PUSH2 0x195 JUMPI DUP1 PUSH4 0x247B9818 EQ PUSH2 0x244 JUMPI DUP1 PUSH4 0x2ACFC3DA EQ PUSH2 0x26F JUMPI DUP1 PUSH4 0x2F2770DB EQ PUSH2 0x298 JUMPI DUP1 PUSH4 0x3197CBB6 EQ PUSH2 0x2AF JUMPI PUSH2 0x1C2 JUMP JUMPDEST DUP1 PUSH4 0xF5A9D01 EQ PUSH2 0x1C7 JUMPI DUP1 PUSH4 0x1919FED7 EQ PUSH2 0x1F0 JUMPI DUP1 PUSH4 0x1F2475BD EQ PUSH2 0x219 JUMPI PUSH2 0x1C2 JUMP JUMPDEST CALLDATASIZE PUSH2 0x1C2 JUMPI STOP JUMPDEST PUSH1 0x0 DUP1 REVERT JUMPDEST CALLVALUE DUP1 ISZERO PUSH2 0x1D3 JUMPI PUSH1 0x0 DUP1 REVERT JUMPDEST POP PUSH2 0x1EE PUSH1 0x4 DUP1 CALLDATASIZE SUB DUP2 ADD SWAP1 PUSH2 0x1E9 SWAP2 SWAP1 PUSH2 0x1F3D JUMP JUMPDEST PUSH2 0x66A JUMP JUMPDEST STOP JUMPDEST CALLVALUE DUP1 ISZERO PUSH2 0x1FC JUMPI PUSH1 0x0 DUP1 REVERT JUMPDEST POP PUSH2 0x217 PUSH1 0x4 DUP1 CALLDATASIZE SUB DUP2 ADD SWAP1 PUSH2 0x212 SWAP2 SWAP1 PUSH2 0x1F6A JUMP JUMPDEST PUSH2 0x7AE JUMP JUMPDEST STOP JUMPDEST CALLVALUE DUP1 ISZERO PUSH2 0x225 JUMPI PUSH1 0x0 DUP1 REVERT JUMPDEST POP PUSH2 0x22E PUSH2 0x848 JUMP JUMPDEST PUSH1 0x40 MLOAD PUSH2 0x23B SWAP2 SWAP1 PUSH2 0x249F JUMP JUMPDEST PUSH1 0x40 MLOAD DUP1 SWAP2 SUB SWAP1 RETURN JUMPDEST CALLVALUE DUP1 ISZERO PUSH2 0x250 JUMPI PUSH1 0x0 DUP1 REVERT JUMPDEST POP PUSH2 0x259 PUSH2 0x8FA JUMP JUMPDEST PUSH1 0x40 MLOAD PUSH2 0x266 SWAP2 SWAP1 PUSH2 0x249F JUMP JUMPDEST PUSH1 0x40 MLOAD DUP1 SWAP2 SUB SWAP1 RETURN JUMPDEST CALLVALUE DUP1 ISZERO PUSH2 0x27B JUMPI PUSH1 0x0 DUP1 REVERT JUMPDEST POP PUSH2 0x296 PUSH1 0x4 DUP1 CALLDATASIZE SUB DUP2 ADD SWAP1 PUSH2 0x291 SWAP2 SWAP1 PUSH2 0x1F3D JUMP JUMPDEST PUSH2 0x900 JUMP JUMPDEST STOP JUMPDEST CALLVALUE DUP1 ISZERO PUSH2 0x2A4 JUMPI PUSH1 0x0 DUP1 REVERT JUMPDEST POP PUSH2 0x2AD PUSH2 0xA44 JUMP JUMPDEST STOP JUMPDEST CALLVALUE DUP1 ISZERO PUSH2 0x2BB JUMPI PUSH1 0x0 DUP1 REVERT JUMPDEST POP PUSH2 0x2C4 PUSH2 0xAF1 JUMP JUMPDEST PUSH1 0x40 MLOAD PUSH2 0x2D1 SWAP2 SWAP1 PUSH2 0x249F JUMP JUMPDEST PUSH1 0x40 MLOAD DUP1 SWAP2 SUB SWAP1 RETURN JUMPDEST CALLVALUE DUP1 ISZERO PUSH2 0x2E6 JUMPI PUSH1 0x0 DUP1 REVERT JUMPDEST POP PUSH2 0x301 PUSH1 0x4 DUP1 CALLDATASIZE SUB DUP2 ADD SWAP1 PUSH2 0x2FC SWAP2 SWAP1 PUSH2 0x1EE3 JUMP JUMPDEST PUSH2 0xAF7 JUMP JUMPDEST PUSH1 0x40 MLOAD PUSH2 0x315 SWAP9 SWAP8 SWAP7 SWAP6 SWAP5 SWAP4 SWAP3 SWAP2 SWAP1 PUSH2 0x24BA JUMP JUMPDEST PUSH1 0x40 MLOAD DUP1 SWAP2 SUB SWAP1 RETURN JUMPDEST CALLVALUE DUP1 ISZERO PUSH2 0x32A JUMPI PUSH1 0x0 DUP1 REVERT JUMPDEST POP PUSH2 0x333 PUSH2 0xCC4 JUMP JUMPDEST PUSH1 0x40 MLOAD PUSH2 0x340 SWAP2 SWAP1 PUSH2 0x249F JUMP JUMPDEST PUSH1 0x40 MLOAD DUP1 SWAP2 SUB SWAP1 RETURN JUMPDEST CALLVALUE DUP1 ISZERO PUSH2 0x355 JUMPI PUSH1 0x0 DUP1 REVERT JUMPDEST POP PUSH2 0x370 PUSH1 0x4 DUP1 CALLDATASIZE SUB DUP2 ADD SWAP1 PUSH2 0x36B SWAP2 SWAP1 PUSH2 0x1F3D JUMP JUMPDEST PUSH2 0xCCA JUMP JUMPDEST STOP JUMPDEST CALLVALUE DUP1 ISZERO PUSH2 0x37E JUMPI PUSH1 0x0 DUP1 REVERT JUMPDEST POP PUSH2 0x387 PUSH2 0xE9B JUMP JUMPDEST PUSH1 0x40 MLOAD PUSH2 0x394 SWAP2 SWAP1 PUSH2 0x249F JUMP JUMPDEST PUSH1 0x40 MLOAD DUP1 SWAP2 SUB SWAP1 RETURN JUMPDEST CALLVALUE DUP1 ISZERO PUSH2 0x3A9 JUMPI PUSH1 0x0 DUP1 REVERT JUMPDEST POP PUSH2 0x3B2 PUSH2 0xF4D JUMP JUMPDEST PUSH1 0x40 MLOAD PUSH2 0x3BF SWAP2 SWAP1 PUSH2 0x249F JUMP JUMPDEST PUSH1 0x40 MLOAD DUP1 SWAP2 SUB SWAP1 RETURN JUMPDEST CALLVALUE DUP1 ISZERO PUSH2 0x3D4 JUMPI PUSH1 0x0 DUP1 REVERT JUMPDEST POP PUSH2 0x3EF PUSH1 0x4 DUP1 CALLDATASIZE SUB DUP2 ADD SWAP1 PUSH2 0x3EA SWAP2 SWAP1 PUSH2 0x1F6A JUMP JUMPDEST PUSH2 0xF53 JUMP JUMPDEST STOP JUMPDEST CALLVALUE DUP1 ISZERO PUSH2 0x3FD JUMPI PUSH1 0x0 DUP1 REVERT JUMPDEST POP PUSH2 0x406 PUSH2 0xFED JUMP JUMPDEST PUSH1 0x40 MLOAD PUSH2 0x413 SWAP2 SWAP1 PUSH2 0x22E2 JUMP JUMPDEST PUSH1 0x40 MLOAD DUP1 SWAP2 SUB SWAP1 RETURN JUMPDEST CALLVALUE DUP1 ISZERO PUSH2 0x428 JUMPI PUSH1 0x0 DUP1 REVERT JUMPDEST POP PUSH2 0x431 PUSH2 0x1013 JUMP JUMPDEST PUSH1 0x40 MLOAD PUSH2 0x43E SWAP2 SWAP1 PUSH2 0x21EC JUMP JUMPDEST PUSH1 0x40 MLOAD DUP1 SWAP2 SUB SWAP1 RETURN JUMPDEST CALLVALUE DUP1 ISZERO PUSH2 0x453 JUMPI PUSH1 0x0 DUP1 REVERT JUMPDEST POP PUSH2 0x46E PUSH1 0x4 DUP1 CALLDATASIZE SUB DUP2 ADD SWAP1 PUSH2 0x469 SWAP2 SWAP1 PUSH2 0x1EE3 JUMP JUMPDEST PUSH2 0x1039 JUMP JUMPDEST PUSH1 0x40 MLOAD PUSH2 0x47B SWAP2 SWAP1 PUSH2 0x249F JUMP JUMPDEST PUSH1 0x40 MLOAD DUP1 SWAP2 SUB SWAP1 RETURN JUMPDEST CALLVALUE DUP1 ISZERO PUSH2 0x490 JUMPI PUSH1 0x0 DUP1 REVERT JUMPDEST POP PUSH2 0x499 PUSH2 0x1133 JUMP JUMPDEST PUSH1 0x40 MLOAD PUSH2 0x4A6 SWAP2 SWAP1 PUSH2 0x22C7 JUMP JUMPDEST PUSH1 0x40 MLOAD DUP1 SWAP2 SUB SWAP1 RETURN JUMPDEST CALLVALUE DUP1 ISZERO PUSH2 0x4BB JUMPI PUSH1 0x0 DUP1 REVERT JUMPDEST POP PUSH2 0x4D6 PUSH1 0x4 DUP1 CALLDATASIZE SUB DUP2 ADD SWAP1 PUSH2 0x4D1 SWAP2 SWAP1 PUSH2 0x1F6A JUMP JUMPDEST PUSH2 0x1146 JUMP JUMPDEST STOP JUMPDEST CALLVALUE DUP1 ISZERO PUSH2 0x4E4 JUMPI PUSH1 0x0 DUP1 REVERT JUMPDEST POP PUSH2 0x4ED PUSH2 0x11E0 JUMP JUMPDEST STOP JUMPDEST CALLVALUE DUP1 ISZERO PUSH2 0x4FB JUMPI PUSH1 0x0 DUP1 REVERT JUMPDEST POP PUSH2 0x504 PUSH2 0x128D JUMP JUMPDEST PUSH1 0x40 MLOAD PUSH2 0x511 SWAP2 SWAP1 PUSH2 0x22E2 JUMP JUMPDEST PUSH1 0x40 MLOAD DUP1 SWAP2 SUB SWAP1 RETURN JUMPDEST CALLVALUE DUP1 ISZERO PUSH2 0x526 JUMPI PUSH1 0x0 DUP1 REVERT JUMPDEST POP PUSH2 0x541 PUSH1 0x4 DUP1 CALLDATASIZE SUB DUP2 ADD SWAP1 PUSH2 0x53C SWAP2 SWAP1 PUSH2 0x1EE3 JUMP JUMPDEST PUSH2 0x12B3 JUMP JUMPDEST PUSH1 0x40 MLOAD PUSH2 0x54E SWAP2 SWAP1 PUSH2 0x249F JUMP JUMPDEST PUSH1 0x40 MLOAD DUP1 SWAP2 SUB SWAP1 RETURN JUMPDEST CALLVALUE DUP1 ISZERO PUSH2 0x563 JUMPI PUSH1 0x0 DUP1 REVERT JUMPDEST POP PUSH2 0x56C PUSH2 0x12CB JUMP JUMPDEST STOP JUMPDEST CALLVALUE DUP1 ISZERO PUSH2 0x57A JUMPI PUSH1 0x0 DUP1 REVERT JUMPDEST POP PUSH2 0x595 PUSH1 0x4 DUP1 CALLDATASIZE SUB DUP2 ADD SWAP1 PUSH2 0x590 SWAP2 SWAP1 PUSH2 0x1F6A JUMP JUMPDEST PUSH2 0x1393 JUMP JUMPDEST STOP JUMPDEST CALLVALUE DUP1 ISZERO PUSH2 0x5A3 JUMPI PUSH1 0x0 DUP1 REVERT JUMPDEST POP PUSH2 0x5BE PUSH1 0x4 DUP1 CALLDATASIZE SUB DUP2 ADD SWAP1 PUSH2 0x5B9 SWAP2 SWAP1 PUSH2 0x1F6A JUMP JUMPDEST PUSH2 0x142D JUMP JUMPDEST STOP JUMPDEST CALLVALUE DUP1 ISZERO PUSH2 0x5CC JUMPI PUSH1 0x0 DUP1 REVERT JUMPDEST POP PUSH2 0x5D5 PUSH2 0x1901 JUMP JUMPDEST PUSH1 0x40 MLOAD PUSH2 0x5E2 SWAP2 SWAP1 PUSH2 0x249F JUMP JUMPDEST PUSH1 0x40 MLOAD DUP1 SWAP2 SUB SWAP1 RETURN JUMPDEST CALLVALUE DUP1 ISZERO PUSH2 0x5F7 JUMPI PUSH1 0x0 DUP1 REVERT JUMPDEST POP PUSH2 0x612 PUSH1 0x4 DUP1 CALLDATASIZE SUB DUP2 ADD SWAP1 PUSH2 0x60D SWAP2 SWAP1 PUSH2 0x1EE3 JUMP JUMPDEST PUSH2 0x1907 JUMP JUMPDEST STOP JUMPDEST CALLVALUE DUP1 ISZERO PUSH2 0x620 JUMPI PUSH1 0x0 DUP1 REVERT JUMPDEST POP PUSH2 0x629 PUSH2 0x19DB JUMP JUMPDEST PUSH1 0x40 MLOAD PUSH2 0x636 SWAP2 SWAP1 PUSH2 0x249F JUMP JUMPDEST PUSH1 0x40 MLOAD DUP1 SWAP2 SUB SWAP1 RETURN JUMPDEST CALLVALUE DUP1 ISZERO PUSH2 0x64B JUMPI PUSH1 0x0 DUP1 REVERT JUMPDEST POP PUSH2 0x654 PUSH2 0x19E1 JUMP JUMPDEST PUSH1 0x40 MLOAD PUSH2 0x661 SWAP2 SWAP1 PUSH2 0x2538 JUMP JUMPDEST PUSH1 0x40 MLOAD DUP1 SWAP2 SUB SWAP1 RETURN JUMPDEST PUSH1 0x0 PUSH1 0x1 SWAP1 SLOAD SWAP1 PUSH2 0x100 EXP SWAP1 DIV PUSH20 0xFFFFFFFFFFFFFFFFFFFFFFFFFFFFFFFFFFFFFFFF AND PUSH20 0xFFFFFFFFFFFFFFFFFFFFFFFFFFFFFFFFFFFFFFFF AND CALLER PUSH20 0xFFFFFFFFFFFFFFFFFFFFFFFFFFFFFFFFFFFFFFFF AND EQ PUSH2 0x6FA JUMPI PUSH1 0x40 MLOAD PUSH32 0x8C379A000000000000000000000000000000000000000000000000000000000 DUP2 MSTORE PUSH1 0x4 ADD PUSH2 0x6F1 SWAP1 PUSH2 0x247F JUMP JUMPDEST PUSH1 0x40 MLOAD DUP1 SWAP2 SUB SWAP1 REVERT JUMPDEST PUSH1 0x0 PUSH20 0xFFFFFFFFFFFFFFFFFFFFFFFFFFFFFFFFFFFFFFFF AND DUP2 PUSH20 0xFFFFFFFFFFFFFFFFFFFFFFFFFFFFFFFFFFFFFFFF AND EQ ISZERO PUSH2 0x76A JUMPI PUSH1 0x40 MLOAD PUSH32 0x8C379A000000000000000000000000000000000000000000000000000000000 DUP2 MSTORE PUSH1 0x4 ADD PUSH2 0x761 SWAP1 PUSH2 0x231F JUMP JUMPDEST PUSH1 0x40 MLOAD DUP1 SWAP2 SUB SWAP1 REVERT JUMPDEST DUP1 PUSH1 0x2 PUSH1 0x0 PUSH2 0x100 EXP DUP2 SLOAD DUP2 PUSH20 0xFFFFFFFFFFFFFFFFFFFFFFFFFFFFFFFFFFFFFFFF MUL NOT AND SWAP1 DUP4 PUSH20 0xFFFFFFFFFFFFFFFFFFFFFFFFFFFFFFFFFFFFFFFF AND MUL OR SWAP1 SSTORE POP POP JUMP JUMPDEST PUSH1 0x0 PUSH1 0x1 SWAP1 SLOAD SWAP1 PUSH2 0x100 EXP SWAP1 DIV PUSH20 0xFFFFFFFFFFFFFFFFFFFFFFFFFFFFFFFFFFFFFFFF AND PUSH20 0xFFFFFFFFFFFFFFFFFFFFFFFFFFFFFFFFFFFFFFFF AND CALLER PUSH20 0xFFFFFFFFFFFFFFFFFFFFFFFFFFFFFFFFFFFFFFFF AND EQ PUSH2 0x83E JUMPI PUSH1 0x40 MLOAD PUSH32 0x8C379A000000000000000000000000000000000000000000000000000000000 DUP2 MSTORE PUSH1 0x4 ADD PUSH2 0x835 SWAP1 PUSH2 0x247F JUMP JUMPDEST PUSH1 0x40 MLOAD DUP1 SWAP2 SUB SWAP1 REVERT JUMPDEST DUP1 PUSH1 0x3 DUP2 SWAP1 SSTORE POP POP JUMP JUMPDEST PUSH1 0x0 PUSH1 0x1 PUSH1 0x0 SWAP1 SLOAD SWAP1 PUSH2 0x100 EXP SWAP1 DIV PUSH20 0xFFFFFFFFFFFFFFFFFFFFFFFFFFFFFFFFFFFFFFFF AND PUSH20 0xFFFFFFFFFFFFFFFFFFFFFFFFFFFFFFFFFFFFFFFF AND PUSH4 0x70A08231 ADDRESS PUSH1 0x40 MLOAD DUP3 PUSH4 0xFFFFFFFF AND PUSH1 0xE0 SHL DUP2 MSTORE PUSH1 0x4 ADD PUSH2 0x8A5 SWAP2 SWAP1 PUSH2 0x21EC JUMP JUMPDEST PUSH1 0x20 PUSH1 0x40 MLOAD DUP1 DUP4 SUB DUP2 DUP7 DUP1 EXTCODESIZE ISZERO DUP1 ISZERO PUSH2 0x8BD JUMPI PUSH1 0x0 DUP1 REVERT JUMPDEST POP GAS STATICCALL ISZERO DUP1 ISZERO PUSH2 0x8D1 JUMPI RETURNDATASIZE PUSH1 0x0 DUP1 RETURNDATACOPY RETURNDATASIZE PUSH1 0x0 REVERT JUMPDEST POP POP POP POP PUSH1 0x40 MLOAD RETURNDATASIZE PUSH1 0x1F NOT PUSH1 0x1F DUP3 ADD AND DUP3 ADD DUP1 PUSH1 0x40 MSTORE POP DUP2 ADD SWAP1 PUSH2 0x8F5 SWAP2 SWAP1 PUSH2 0x1F97 JUMP JUMPDEST SWAP1 POP SWAP1 JUMP JUMPDEST PUSH1 0x9 SLOAD DUP2 JUMP JUMPDEST PUSH1 0x0 PUSH1 0x1 SWAP1 SLOAD SWAP1 PUSH2 0x100 EXP SWAP1 DIV PUSH20 0xFFFFFFFFFFFFFFFFFFFFFFFFFFFFFFFFFFFFFFFF AND PUSH20 0xFFFFFFFFFFFFFFFFFFFFFFFFFFFFFFFFFFFFFFFF AND CALLER PUSH20 0xFFFFFFFFFFFFFFFFFFFFFFFFFFFFFFFFFFFFFFFF AND EQ PUSH2 0x990 JUMPI PUSH1 0x40 MLOAD PUSH32 0x8C379A000000000000000000000000000000000000000000000000000000000 DUP2 MSTORE PUSH1 0x4 ADD PUSH2 0x987 SWAP1 PUSH2 0x247F JUMP JUMPDEST PUSH1 0x40 MLOAD DUP1 SWAP2 SUB SWAP1 REVERT JUMPDEST PUSH1 0x0 PUSH20 0xFFFFFFFFFFFFFFFFFFFFFFFFFFFFFFFFFFFFFFFF AND DUP2 PUSH20 0xFFFFFFFFFFFFFFFFFFFFFFFFFFFFFFFFFFFFFFFF AND EQ ISZERO PUSH2 0xA00 JUMPI PUSH1 0x40 MLOAD PUSH32 0x8C379A000000000000000000000000000000000000000000000000000000000 DUP2 MSTORE PUSH1 0x4 ADD PUSH2 0x9F7 SWAP1 PUSH2 0x231F JUMP JUMPDEST PUSH1 0x40 MLOAD DUP1 SWAP2 SUB SWAP1 REVERT JUMPDEST DUP1 PUSH1 0x1 PUSH1 0x0 PUSH2 0x100 EXP DUP2 SLOAD DUP2 PUSH20 0xFFFFFFFFFFFFFFFFFFFFFFFFFFFFFFFFFFFFFFFF MUL NOT AND SWAP1 DUP4 PUSH20 0xFFFFFFFFFFFFFFFFFFFFFFFFFFFFFFFFFFFFFFFF AND MUL OR SWAP1 SSTORE POP POP JUMP JUMPDEST PUSH1 0x0 PUSH1 0x1 SWAP1 SLOAD SWAP1 PUSH2 0x100 EXP SWAP1 DIV PUSH20 0xFFFFFFFFFFFFFFFFFFFFFFFFFFFFFFFFFFFFFFFF AND PUSH20 0xFFFFFFFFFFFFFFFFFFFFFFFFFFFFFFFFFFFFFFFF AND CALLER PUSH20 0xFFFFFFFFFFFFFFFFFFFFFFFFFFFFFFFFFFFFFFFF AND EQ PUSH2 0xAD4 JUMPI PUSH1 0x40 MLOAD PUSH32 0x8C379A000000000000000000000000000000000000000000000000000000000 DUP2 MSTORE PUSH1 0x4 ADD PUSH2 0xACB SWAP1 PUSH2 0x247F JUMP JUMPDEST PUSH1 0x40 MLOAD DUP1 SWAP2 SUB SWAP1 REVERT JUMPDEST PUSH1 0x0 PUSH1 0x6 PUSH1 0x0 PUSH2 0x100 EXP DUP2 SLOAD DUP2 PUSH1 0xFF MUL NOT AND SWAP1 DUP4 ISZERO ISZERO MUL OR SWAP1 SSTORE POP JUMP JUMPDEST PUSH1 0x5 SLOAD DUP2 JUMP JUMPDEST PUSH1 0x0 DUP1 PUSH1 0x0 DUP1 PUSH1 0x0 DUP1 PUSH1 0x0 DUP1 PUSH1 0x2 PUSH1 0x0 SWAP1 SLOAD SWAP1 PUSH2 0x100 EXP SWAP1 DIV PUSH20 0xFFFFFFFFFFFFFFFFFFFFFFFFFFFFFFFFFFFFFFFF AND PUSH20 0xFFFFFFFFFFFFFFFFFFFFFFFFFFFFFFFFFFFFFFFF AND PUSH4 0x70A08231 DUP11 PUSH1 0x40 MLOAD DUP3 PUSH4 0xFFFFFFFF AND PUSH1 0xE0 SHL DUP2 MSTORE PUSH1 0x4 ADD PUSH2 0xB5E SWAP2 SWAP1 PUSH2 0x21EC JUMP JUMPDEST PUSH1 0x20 PUSH1 0x40 MLOAD DUP1 DUP4 SUB DUP2 DUP7 DUP1 EXTCODESIZE ISZERO DUP1 ISZERO PUSH2 0xB76 JUMPI PUSH1 0x0 DUP1 REVERT JUMPDEST POP GAS STATICCALL ISZERO DUP1 ISZERO PUSH2 0xB8A JUMPI RETURNDATASIZE PUSH1 0x0 DUP1 RETURNDATACOPY RETURNDATASIZE PUSH1 0x0 REVERT JUMPDEST POP POP POP POP PUSH1 0x40 MLOAD RETURNDATASIZE PUSH1 0x1F NOT PUSH1 0x1F DUP3 ADD AND DUP3 ADD DUP1 PUSH1 0x40 MSTORE POP DUP2 ADD SWAP1 PUSH2 0xBAE SWAP2 SWAP1 PUSH2 0x1F97 JUMP JUMPDEST SWAP8 POP PUSH2 0xBB9 DUP10 PUSH2 0x1039 JUMP JUMPDEST SWAP7 POP PUSH2 0xBEA PUSH8 0xDE0B6B3A7640000 PUSH2 0xBDC PUSH1 0x3 SLOAD DUP11 PUSH2 0x19F2 SWAP1 SWAP2 SWAP1 PUSH4 0xFFFFFFFF AND JUMP JUMPDEST PUSH2 0x1A6D SWAP1 SWAP2 SWAP1 PUSH4 0xFFFFFFFF AND JUMP JUMPDEST SWAP6 POP PUSH2 0xBF4 PUSH2 0xE9B JUMP JUMPDEST SWAP5 POP PUSH2 0xBFE PUSH2 0x848 JUMP JUMPDEST SWAP4 POP PUSH1 0x3 SLOAD SWAP3 POP PUSH1 0x4 SLOAD SWAP2 POP PUSH1 0x2 PUSH1 0x0 SWAP1 SLOAD SWAP1 PUSH2 0x100 EXP SWAP1 DIV PUSH20 0xFFFFFFFFFFFFFFFFFFFFFFFFFFFFFFFFFFFFFFFF AND PUSH20 0xFFFFFFFFFFFFFFFFFFFFFFFFFFFFFFFFFFFFFFFF AND PUSH4 0xDD62ED3E DUP11 ADDRESS PUSH1 0x40 MLOAD DUP4 PUSH4 0xFFFFFFFF AND PUSH1 0xE0 SHL DUP2 MSTORE PUSH1 0x4 ADD PUSH2 0xC67 SWAP3 SWAP2 SWAP1 PUSH2 0x2207 JUMP JUMPDEST PUSH1 0x20 PUSH1 0x40 MLOAD DUP1 DUP4 SUB DUP2 DUP7 DUP1 EXTCODESIZE ISZERO DUP1 ISZERO PUSH2 0xC7F JUMPI PUSH1 0x0 DUP1 REVERT JUMPDEST POP GAS STATICCALL ISZERO DUP1 ISZERO PUSH2 0xC93 JUMPI RETURNDATASIZE PUSH1 0x0 DUP1 RETURNDATACOPY RETURNDATASIZE PUSH1 0x0 REVERT JUMPDEST POP POP POP POP PUSH1 0x40 MLOAD RETURNDATASIZE PUSH1 0x1F NOT PUSH1 0x1F DUP3 ADD AND DUP3 ADD DUP1 PUSH1 0x40 MSTORE POP DUP2 ADD SWAP1 PUSH2 0xCB7 SWAP2 SWAP1 PUSH2 0x1F97 JUMP JUMPDEST SWAP1 POP SWAP2 SWAP4 SWAP6 SWAP8 POP SWAP2 SWAP4 SWAP6 SWAP8 JUMP JUMPDEST PUSH1 0x8 SLOAD DUP2 JUMP JUMPDEST PUSH1 0x0 PUSH1 0x1 SWAP1 SLOAD SWAP1 PUSH2 0x100 EXP SWAP1 DIV PUSH20 0xFFFFFFFFFFFFFFFFFFFFFFFFFFFFFFFFFFFFFFFF AND PUSH20 0xFFFFFFFFFFFFFFFFFFFFFFFFFFFFFFFFFFFFFFFF AND CALLER PUSH20 0xFFFFFFFFFFFFFFFFFFFFFFFFFFFFFFFFFFFFFFFF AND EQ PUSH2 0xD5A JUMPI PUSH1 0x40 MLOAD PUSH32 0x8C379A000000000000000000000000000000000000000000000000000000000 DUP2 MSTORE PUSH1 0x4 ADD PUSH2 0xD51 SWAP1 PUSH2 0x247F JUMP JUMPDEST PUSH1 0x40 MLOAD DUP1 SWAP2 SUB SWAP1 REVERT JUMPDEST PUSH1 0x0 DUP2 PUSH20 0xFFFFFFFFFFFFFFFFFFFFFFFFFFFFFFFFFFFFFFFF AND PUSH4 0x70A08231 ADDRESS PUSH1 0x40 MLOAD DUP3 PUSH4 0xFFFFFFFF AND PUSH1 0xE0 SHL DUP2 MSTORE PUSH1 0x4 ADD PUSH2 0xD95 SWAP2 SWAP1 PUSH2 0x21EC JUMP JUMPDEST PUSH1 0x20 PUSH1 0x40 MLOAD DUP1 DUP4 SUB DUP2 DUP7 DUP1 EXTCODESIZE ISZERO DUP1 ISZERO PUSH2 0xDAD JUMPI PUSH1 0x0 DUP1 REVERT JUMPDEST POP GAS STATICCALL ISZERO DUP1 ISZERO PUSH2 0xDC1 JUMPI RETURNDATASIZE PUSH1 0x0 DUP1 RETURNDATACOPY RETURNDATASIZE PUSH1 0x0 REVERT JUMPDEST POP POP POP POP PUSH1 0x40 MLOAD RETURNDATASIZE PUSH1 0x1F NOT PUSH1 0x1F DUP3 ADD AND DUP3 ADD DUP1 PUSH1 0x40 MSTORE POP DUP2 ADD SWAP1 PUSH2 0xDE5 SWAP2 SWAP1 PUSH2 0x1F97 JUMP JUMPDEST SWAP1 POP DUP2 PUSH20 0xFFFFFFFFFFFFFFFFFFFFFFFFFFFFFFFFFFFFFFFF AND PUSH4 0xA9059CBB PUSH1 0x0 PUSH1 0x1 SWAP1 SLOAD SWAP1 PUSH2 0x100 EXP SWAP1 DIV PUSH20 0xFFFFFFFFFFFFFFFFFFFFFFFFFFFFFFFFFFFFFFFF AND DUP4 PUSH1 0x40 MLOAD DUP4 PUSH4 0xFFFFFFFF AND PUSH1 0xE0 SHL DUP2 MSTORE PUSH1 0x4 ADD PUSH2 0xE44 SWAP3 SWAP2 SWAP1 PUSH2 0x2267 JUMP JUMPDEST PUSH1 0x20 PUSH1 0x40 MLOAD DUP1 DUP4 SUB DUP2 PUSH1 0x0 DUP8 DUP1 EXTCODESIZE ISZERO DUP1 ISZERO PUSH2 0xE5E JUMPI PUSH1 0x0 DUP1 REVERT JUMPDEST POP GAS CALL ISZERO DUP1 ISZERO PUSH2 0xE72 JUMPI RETURNDATASIZE PUSH1 0x0 DUP1 RETURNDATACOPY RETURNDATASIZE PUSH1 0x0 REVERT JUMPDEST POP POP POP POP PUSH1 0x40 MLOAD RETURNDATASIZE PUSH1 0x1F NOT PUSH1 0x1F DUP3 ADD AND DUP3 ADD DUP1 PUSH1 0x40 MSTORE POP DUP2 ADD SWAP1 PUSH2 0xE96 SWAP2 SWAP1 PUSH2 0x1F10 JUMP JUMPDEST POP POP POP JUMP JUMPDEST PUSH1 0x0 PUSH1 0x2 PUSH1 0x0 SWAP1 SLOAD SWAP1 PUSH2 0x100 EXP SWAP1 DIV PUSH20 0xFFFFFFFFFFFFFFFFFFFFFFFFFFFFFFFFFFFFFFFF AND PUSH20 0xFFFFFFFFFFFFFFFFFFFFFFFFFFFFFFFFFFFFFFFF AND PUSH4 0x70A08231 ADDRESS PUSH1 0x40 MLOAD DUP3 PUSH4 0xFFFFFFFF AND PUSH1 0xE0 SHL DUP2 MSTORE PUSH1 0x4 ADD PUSH2 0xEF8 SWAP2 SWAP1 PUSH2 0x21EC JUMP JUMPDEST PUSH1 0x20 PUSH1 0x40 MLOAD DUP1 DUP4 SUB DUP2 DUP7 DUP1 EXTCODESIZE ISZERO DUP1 ISZERO PUSH2 0xF10 JUMPI PUSH1 0x0 DUP1 REVERT JUMPDEST POP GAS STATICCALL ISZERO DUP1 ISZERO PUSH2 0xF24 JUMPI RETURNDATASIZE PUSH1 0x0 DUP1 RETURNDATACOPY RETURNDATASIZE PUSH1 0x0 REVERT JUMPDEST POP POP POP POP PUSH1 0x40 MLOAD RETURNDATASIZE PUSH1 0x1F NOT PUSH1 0x1F DUP3 ADD AND DUP3 ADD DUP1 PUSH1 0x40 MSTORE POP DUP2 ADD SWAP1 PUSH2 0xF48 SWAP2 SWAP1 PUSH2 0x1F97 JUMP JUMPDEST SWAP1 POP SWAP1 JUMP JUMPDEST PUSH1 0x7 SLOAD DUP2 JUMP JUMPDEST PUSH1 0x0 PUSH1 0x1 SWAP1 SLOAD SWAP1 PUSH2 0x100 EXP SWAP1 DIV PUSH20 0xFFFFFFFFFFFFFFFFFFFFFFFFFFFFFFFFFFFFFFFF AND PUSH20 0xFFFFFFFFFFFFFFFFFFFFFFFFFFFFFFFFFFFFFFFF AND CALLER PUSH20 0xFFFFFFFFFFFFFFFFFFFFFFFFFFFFFFFFFFFFFFFF AND EQ PUSH2 0xFE3 JUMPI PUSH1 0x40 MLOAD PUSH32 0x8C379A000000000000000000000000000000000000000000000000000000000 DUP2 MSTORE PUSH1 0x4 ADD PUSH2 0xFDA SWAP1 PUSH2 0x247F JUMP JUMPDEST PUSH1 0x40 MLOAD DUP1 SWAP2 SUB SWAP1 REVERT JUMPDEST DUP1 PUSH1 0x8 DUP2 SWAP1 SSTORE POP POP JUMP JUMPDEST PUSH1 0x2 PUSH1 0x0 SWAP1 SLOAD SWAP1 PUSH2 0x100 EXP SWAP1 DIV PUSH20 0xFFFFFFFFFFFFFFFFFFFFFFFFFFFFFFFFFFFFFFFF AND DUP2 JUMP JUMPDEST PUSH1 0x0 PUSH1 0x1 SWAP1 SLOAD SWAP1 PUSH2 0x100 EXP SWAP1 DIV PUSH20 0xFFFFFFFFFFFFFFFFFFFFFFFFFFFFFFFFFFFFFFFF AND DUP2 JUMP JUMPDEST PUSH1 0x0 DUP1 PUSH2 0x1044 PUSH2 0x848 JUMP JUMPDEST SWAP1 POP PUSH1 0x7 SLOAD PUSH1 0xA PUSH1 0x0 DUP6 PUSH20 0xFFFFFFFFFFFFFFFFFFFFFFFFFFFFFFFFFFFFFFFF AND PUSH20 0xFFFFFFFFFFFFFFFFFFFFFFFFFFFFFFFFFFFFFFFF AND DUP2 MSTORE PUSH1 0x20 ADD SWAP1 DUP2 MSTORE PUSH1 0x20 ADD PUSH1 0x0 KECCAK256 SLOAD LT ISZERO DUP1 PUSH2 0x1097 JUMPI POP PUSH1 0x0 DUP2 GT ISZERO JUMPDEST DUP1 PUSH2 0x10B5 JUMPI POP PUSH1 0x0 ISZERO ISZERO PUSH1 0x6 PUSH1 0x0 SWAP1 SLOAD SWAP1 PUSH2 0x100 EXP SWAP1 DIV PUSH1 0xFF AND ISZERO ISZERO EQ JUMPDEST ISZERO PUSH2 0x10C4 JUMPI PUSH1 0x0 SWAP2 POP POP PUSH2 0x112E JUMP JUMPDEST PUSH1 0x0 PUSH2 0x111A PUSH1 0xA PUSH1 0x0 DUP7 PUSH20 0xFFFFFFFFFFFFFFFFFFFFFFFFFFFFFFFFFFFFFFFF AND PUSH20 0xFFFFFFFFFFFFFFFFFFFFFFFFFFFFFFFFFFFFFFFF AND DUP2 MSTORE PUSH1 0x20 ADD SWAP1 DUP2 MSTORE PUSH1 0x20 ADD PUSH1 0x0 KECCAK256 SLOAD PUSH1 0x7 SLOAD PUSH2 0x1AB7 SWAP1 SWAP2 SWAP1 PUSH4 0xFFFFFFFF AND JUMP JUMPDEST SWAP1 POP DUP2 DUP2 GT ISZERO PUSH2 0x1128 JUMPI DUP2 SWAP1 POP JUMPDEST DUP1 SWAP3 POP POP POP JUMPDEST SWAP2 SWAP1 POP JUMP JUMPDEST PUSH1 0x6 PUSH1 0x0 SWAP1 SLOAD SWAP1 PUSH2 0x100 EXP SWAP1 DIV PUSH1 0xFF AND DUP2 JUMP JUMPDEST PUSH1 0x0 PUSH1 0x1 SWAP1 SLOAD SWAP1 PUSH2 0x100 EXP SWAP1 DIV PUSH20 0xFFFFFFFFFFFFFFFFFFFFFFFFFFFFFFFFFFFFFFFF AND PUSH20 0xFFFFFFFFFFFFFFFFFFFFFFFFFFFFFFFFFFFFFFFF AND CALLER PUSH20 0xFFFFFFFFFFFFFFFFFFFFFFFFFFFFFFFFFFFFFFFF AND EQ PUSH2 0x11D6 JUMPI PUSH1 0x40 MLOAD PUSH32 0x8C379A000000000000000000000000000000000000000000000000000000000 DUP2 MSTORE PUSH1 0x4 ADD PUSH2 0x11CD SWAP1 PUSH2 0x247F JUMP JUMPDEST PUSH1 0x40 MLOAD DUP1 SWAP2 SUB SWAP1 REVERT JUMPDEST DUP1 PUSH1 0x7 DUP2 SWAP1 SSTORE POP POP JUMP JUMPDEST PUSH1 0x0 PUSH1 0x1 SWAP1 SLOAD SWAP1 PUSH2 0x100 EXP SWAP1 DIV PUSH20 0xFFFFFFFFFFFFFFFFFFFFFFFFFFFFFFFFFFFFFFFF AND PUSH20 0xFFFFFFFFFFFFFFFFFFFFFFFFFFFFFFFFFFFFFFFF AND CALLER PUSH20 0xFFFFFFFFFFFFFFFFFFFFFFFFFFFFFFFFFFFFFFFF AND EQ PUSH2 0x1270 JUMPI PUSH1 0x40 MLOAD PUSH32 0x8C379A000000000000000000000000000000000000000000000000000000000 DUP2 MSTORE PUSH1 0x4 ADD PUSH2 0x1267 SWAP1 PUSH2 0x247F JUMP JUMPDEST PUSH1 0x40 MLOAD DUP1 SWAP2 SUB SWAP1 REVERT JUMPDEST PUSH1 0x1 PUSH1 0x6 PUSH1 0x0 PUSH2 0x100 EXP DUP2 SLOAD DUP2 PUSH1 0xFF MUL NOT AND SWAP1 DUP4 ISZERO ISZERO MUL OR SWAP1 SSTORE POP JUMP JUMPDEST PUSH1 0x1 PUSH1 0x0 SWAP1 SLOAD SWAP1 PUSH2 0x100 EXP SWAP1 DIV PUSH20 0xFFFFFFFFFFFFFFFFFFFFFFFFFFFFFFFFFFFFFFFF AND DUP2 JUMP JUMPDEST PUSH1 0xA PUSH1 0x20 MSTORE DUP1 PUSH1 0x0 MSTORE PUSH1 0x40 PUSH1 0x0 KECCAK256 PUSH1 0x0 SWAP2 POP SWAP1 POP SLOAD DUP2 JUMP JUMPDEST PUSH1 0x0 PUSH1 0x1 SWAP1 SLOAD SWAP1 PUSH2 0x100 EXP SWAP1 DIV PUSH20 0xFFFFFFFFFFFFFFFFFFFFFFFFFFFFFFFFFFFFFFFF AND PUSH20 0xFFFFFFFFFFFFFFFFFFFFFFFFFFFFFFFFFFFFFFFF AND CALLER PUSH20 0xFFFFFFFFFFFFFFFFFFFFFFFFFFFFFFFFFFFFFFFF AND EQ PUSH2 0x135B JUMPI PUSH1 0x40 MLOAD PUSH32 0x8C379A000000000000000000000000000000000000000000000000000000000 DUP2 MSTORE PUSH1 0x4 ADD PUSH2 0x1352 SWAP1 PUSH2 0x247F JUMP JUMPDEST PUSH1 0x40 MLOAD DUP1 SWAP2 SUB SWAP1 REVERT JUMPDEST PUSH2 0x1370 PUSH1 0x9 SLOAD TIMESTAMP PUSH2 0x1B01 SWAP1 SWAP2 SWAP1 PUSH4 0xFFFFFFFF AND JUMP JUMPDEST PUSH1 0x5 DUP2 SWAP1 SSTORE POP PUSH1 0x1 PUSH1 0x6 PUSH1 0x0 PUSH2 0x100 EXP DUP2 SLOAD DUP2 PUSH1 0xFF MUL NOT AND SWAP1 DUP4 ISZERO ISZERO MUL OR SWAP1 SSTORE POP JUMP JUMPDEST PUSH1 0x0 PUSH1 0x1 SWAP1 SLOAD SWAP1 PUSH2 0x100 EXP SWAP1 DIV PUSH20 0xFFFFFFFFFFFFFFFFFFFFFFFFFFFFFFFFFFFFFFFF AND PUSH20 0xFFFFFFFFFFFFFFFFFFFFFFFFFFFFFFFFFFFFFFFF AND CALLER PUSH20 0xFFFFFFFFFFFFFFFFFFFFFFFFFFFFFFFFFFFFFFFF AND EQ PUSH2 0x1423 JUMPI PUSH1 0x40 MLOAD PUSH32 0x8C379A000000000000000000000000000000000000000000000000000000000 DUP2 MSTORE PUSH1 0x4 ADD PUSH2 0x141A SWAP1 PUSH2 0x247F JUMP JUMPDEST PUSH1 0x40 MLOAD DUP1 SWAP2 SUB SWAP1 REVERT JUMPDEST DUP1 PUSH1 0x5 DUP2 SWAP1 SSTORE POP POP JUMP JUMPDEST ORIGIN PUSH20 0xFFFFFFFFFFFFFFFFFFFFFFFFFFFFFFFFFFFFFFFF AND CALLER PUSH20 0xFFFFFFFFFFFFFFFFFFFFFFFFFFFFFFFFFFFFFFFF AND EQ PUSH2 0x149B JUMPI PUSH1 0x40 MLOAD PUSH32 0x8C379A000000000000000000000000000000000000000000000000000000000 DUP2 MSTORE PUSH1 0x4 ADD PUSH2 0x1492 SWAP1 PUSH2 0x233F JUMP JUMPDEST PUSH1 0x40 MLOAD DUP1 SWAP2 SUB SWAP1 REVERT JUMPDEST PUSH1 0x1 ISZERO ISZERO PUSH1 0x6 PUSH1 0x0 SWAP1 SLOAD SWAP1 PUSH2 0x100 EXP SWAP1 DIV PUSH1 0xFF AND ISZERO ISZERO EQ PUSH2 0x14F1 JUMPI PUSH1 0x40 MLOAD PUSH32 0x8C379A000000000000000000000000000000000000000000000000000000000 DUP2 MSTORE PUSH1 0x4 ADD PUSH2 0x14E8 SWAP1 PUSH2 0x23FF JUMP JUMPDEST PUSH1 0x40 MLOAD DUP1 SWAP2 SUB SWAP1 REVERT JUMPDEST PUSH1 0x0 PUSH1 0x5 SLOAD GT DUP1 ISZERO PUSH2 0x1505 JUMPI POP TIMESTAMP PUSH1 0x5 SLOAD GT ISZERO JUMPDEST PUSH2 0x1544 JUMPI PUSH1 0x40 MLOAD PUSH32 0x8C379A000000000000000000000000000000000000000000000000000000000 DUP2 MSTORE PUSH1 0x4 ADD PUSH2 0x153B SWAP1 PUSH2 0x241F JUMP JUMPDEST PUSH1 0x40 MLOAD DUP1 SWAP2 SUB SWAP1 REVERT JUMPDEST PUSH1 0x0 DUP2 GT PUSH2 0x1587 JUMPI PUSH1 0x40 MLOAD PUSH32 0x8C379A000000000000000000000000000000000000000000000000000000000 DUP2 MSTORE PUSH1 0x4 ADD PUSH2 0x157E SWAP1 PUSH2 0x245F JUMP JUMPDEST PUSH1 0x40 MLOAD DUP1 SWAP2 SUB SWAP1 REVERT JUMPDEST PUSH1 0x0 PUSH2 0x1592 CALLER PUSH2 0x1039 JUMP JUMPDEST SWAP1 POP PUSH1 0x0 DUP2 GT PUSH2 0x15D7 JUMPI PUSH1 0x40 MLOAD PUSH32 0x8C379A000000000000000000000000000000000000000000000000000000000 DUP2 MSTORE PUSH1 0x4 ADD PUSH2 0x15CE SWAP1 PUSH2 0x247F JUMP JUMPDEST PUSH1 0x40 MLOAD DUP1 SWAP2 SUB SWAP1 REVERT JUMPDEST PUSH1 0x0 PUSH2 0x1608 PUSH1 0x3 SLOAD PUSH2 0x15FA PUSH8 0xDE0B6B3A7640000 DUP7 PUSH2 0x19F2 SWAP1 SWAP2 SWAP1 PUSH4 0xFFFFFFFF AND JUMP JUMPDEST PUSH2 0x1A6D SWAP1 SWAP2 SWAP1 PUSH4 0xFFFFFFFF AND JUMP JUMPDEST SWAP1 POP DUP2 DUP2 GT ISZERO PUSH2 0x1647 JUMPI DUP2 SWAP1 POP PUSH2 0x1644 PUSH8 0xDE0B6B3A7640000 PUSH2 0x1636 PUSH1 0x3 SLOAD DUP5 PUSH2 0x19F2 SWAP1 SWAP2 SWAP1 PUSH4 0xFFFFFFFF AND JUMP JUMPDEST PUSH2 0x1A6D SWAP1 SWAP2 SWAP1 PUSH4 0xFFFFFFFF AND JUMP JUMPDEST SWAP3 POP JUMPDEST PUSH1 0x0 DUP2 GT PUSH2 0x168A JUMPI PUSH1 0x40 MLOAD PUSH32 0x8C379A000000000000000000000000000000000000000000000000000000000 DUP2 MSTORE PUSH1 0x4 ADD PUSH2 0x1681 SWAP1 PUSH2 0x235F JUMP JUMPDEST PUSH1 0x40 MLOAD DUP1 SWAP2 SUB SWAP1 REVERT JUMPDEST PUSH1 0x8 SLOAD DUP2 LT ISZERO PUSH2 0x16CF JUMPI PUSH1 0x40 MLOAD PUSH32 0x8C379A000000000000000000000000000000000000000000000000000000000 DUP2 MSTORE PUSH1 0x4 ADD PUSH2 0x16C6 SWAP1 PUSH2 0x23BF JUMP JUMPDEST PUSH1 0x40 MLOAD DUP1 SWAP2 SUB SWAP1 REVERT JUMPDEST PUSH1 0x0 DUP4 GT PUSH2 0x1712 JUMPI PUSH1 0x40 MLOAD PUSH32 0x8C379A000000000000000000000000000000000000000000000000000000000 DUP2 MSTORE PUSH1 0x4 ADD PUSH2 0x1709 SWAP1 PUSH2 0x243F JUMP JUMPDEST PUSH1 0x40 MLOAD DUP1 SWAP2 SUB SWAP1 REVERT JUMPDEST PUSH1 0x1 ISZERO ISZERO PUSH2 0x171F DUP5 PUSH2 0x1B5F JUMP JUMPDEST ISZERO ISZERO EQ PUSH2 0x1761 JUMPI PUSH1 0x40 MLOAD PUSH32 0x8C379A000000000000000000000000000000000000000000000000000000000 DUP2 MSTORE PUSH1 0x4 ADD PUSH2 0x1758 SWAP1 PUSH2 0x239F JUMP JUMPDEST PUSH1 0x40 MLOAD DUP1 SWAP2 SUB SWAP1 REVERT JUMPDEST PUSH1 0x1 PUSH1 0x0 SWAP1 SLOAD SWAP1 PUSH2 0x100 EXP SWAP1 DIV PUSH20 0xFFFFFFFFFFFFFFFFFFFFFFFFFFFFFFFFFFFFFFFF AND PUSH20 0xFFFFFFFFFFFFFFFFFFFFFFFFFFFFFFFFFFFFFFFF AND PUSH4 0xA9059CBB CALLER DUP4 PUSH1 0x40 MLOAD DUP4 PUSH4 0xFFFFFFFF AND PUSH1 0xE0 SHL DUP2 MSTORE PUSH1 0x4 ADD PUSH2 0x17BE SWAP3 SWAP2 SWAP1 PUSH2 0x2267 JUMP JUMPDEST PUSH1 0x20 PUSH1 0x40 MLOAD DUP1 DUP4 SUB DUP2 PUSH1 0x0 DUP8 DUP1 EXTCODESIZE ISZERO DUP1 ISZERO PUSH2 0x17D8 JUMPI PUSH1 0x0 DUP1 REVERT JUMPDEST POP GAS CALL ISZERO DUP1 ISZERO PUSH2 0x17EC JUMPI RETURNDATASIZE PUSH1 0x0 DUP1 RETURNDATACOPY RETURNDATASIZE PUSH1 0x0 REVERT JUMPDEST POP POP POP POP PUSH1 0x40 MLOAD RETURNDATASIZE PUSH1 0x1F NOT PUSH1 0x1F DUP3 ADD AND DUP3 ADD DUP1 PUSH1 0x40 MSTORE POP DUP2 ADD SWAP1 PUSH2 0x1810 SWAP2 SWAP1 PUSH2 0x1F10 JUMP JUMPDEST POP PUSH2 0x1826 DUP4 PUSH1 0x4 SLOAD PUSH2 0x1B01 SWAP1 SWAP2 SWAP1 PUSH4 0xFFFFFFFF AND JUMP JUMPDEST PUSH1 0x4 DUP2 SWAP1 SSTORE POP PUSH2 0x187E DUP2 PUSH1 0xA PUSH1 0x0 CALLER PUSH20 0xFFFFFFFFFFFFFFFFFFFFFFFFFFFFFFFFFFFFFFFF AND PUSH20 0xFFFFFFFFFFFFFFFFFFFFFFFFFFFFFFFFFFFFFFFF AND DUP2 MSTORE PUSH1 0x20 ADD SWAP1 DUP2 MSTORE PUSH1 0x20 ADD PUSH1 0x0 KECCAK256 SLOAD PUSH2 0x1B01 SWAP1 SWAP2 SWAP1 PUSH4 0xFFFFFFFF AND JUMP JUMPDEST PUSH1 0xA PUSH1 0x0 CALLER PUSH20 0xFFFFFFFFFFFFFFFFFFFFFFFFFFFFFFFFFFFFFFFF AND PUSH20 0xFFFFFFFFFFFFFFFFFFFFFFFFFFFFFFFFFFFFFFFF AND DUP2 MSTORE PUSH1 0x20 ADD SWAP1 DUP2 MSTORE PUSH1 0x20 ADD PUSH1 0x0 KECCAK256 DUP2 SWAP1 SSTORE POP PUSH32 0x7B027A29D1A4D4D2E0A11E04EBD4741452BFBB746ED433855A8F63AFC5B20CDE CALLER DUP5 DUP4 PUSH1 0x40 MLOAD PUSH2 0x18F4 SWAP4 SWAP3 SWAP2 SWAP1 PUSH2 0x2290 JUMP JUMPDEST PUSH1 0x40 MLOAD DUP1 SWAP2 SUB SWAP1 LOG1 POP POP POP JUMP JUMPDEST PUSH1 0x4 SLOAD DUP2 JUMP JUMPDEST PUSH1 0x0 PUSH1 0x1 SWAP1 SLOAD SWAP1 PUSH2 0x100 EXP SWAP1 DIV PUSH20 0xFFFFFFFFFFFFFFFFFFFFFFFFFFFFFFFFFFFFFFFF AND PUSH20 0xFFFFFFFFFFFFFFFFFFFFFFFFFFFFFFFFFFFFFFFF AND CALLER PUSH20 0xFFFFFFFFFFFFFFFFFFFFFFFFFFFFFFFFFFFFFFFF AND EQ PUSH2 0x1997 JUMPI PUSH1 0x40 MLOAD PUSH32 0x8C379A000000000000000000000000000000000000000000000000000000000 DUP2 MSTORE PUSH1 0x4 ADD PUSH2 0x198E SWAP1 PUSH2 0x247F JUMP JUMPDEST PUSH1 0x40 MLOAD DUP1 SWAP2 SUB SWAP1 REVERT JUMPDEST DUP1 PUSH1 0x0 PUSH1 0x1 PUSH2 0x100 EXP DUP2 SLOAD DUP2 PUSH20 0xFFFFFFFFFFFFFFFFFFFFFFFFFFFFFFFFFFFFFFFF MUL NOT AND SWAP1 DUP4 PUSH20 0xFFFFFFFFFFFFFFFFFFFFFFFFFFFFFFFFFFFFFFFF AND MUL OR SWAP1 SSTORE POP POP JUMP JUMPDEST PUSH1 0x3 SLOAD DUP2 JUMP JUMPDEST PUSH1 0x0 DUP1 SLOAD SWAP1 PUSH2 0x100 EXP SWAP1 DIV PUSH1 0xFF AND DUP2 JUMP JUMPDEST PUSH1 0x0 DUP1 DUP4 EQ ISZERO PUSH2 0x1A05 JUMPI PUSH1 0x0 SWAP1 POP PUSH2 0x1A67 JUMP JUMPDEST PUSH1 0x0 DUP3 DUP5 PUSH2 0x1A13 SWAP2 SWAP1 PUSH2 0x25F6 JUMP JUMPDEST SWAP1 POP DUP3 DUP5 DUP3 PUSH2 0x1A22 SWAP2 SWAP1 PUSH2 0x25C5 JUMP JUMPDEST EQ PUSH2 0x1A62 JUMPI PUSH1 0x40 MLOAD PUSH32 0x8C379A000000000000000000000000000000000000000000000000000000000 DUP2 MSTORE PUSH1 0x4 ADD PUSH2 0x1A59 SWAP1 PUSH2 0x23DF JUMP JUMPDEST PUSH1 0x40 MLOAD DUP1 SWAP2 SUB SWAP1 REVERT JUMPDEST DUP1 SWAP2 POP POP JUMPDEST SWAP3 SWAP2 POP POP JUMP JUMPDEST PUSH1 0x0 PUSH2 0x1AAF DUP4 DUP4 PUSH1 0x40 MLOAD DUP1 PUSH1 0x40 ADD PUSH1 0x40 MSTORE DUP1 PUSH1 0x1A DUP2 MSTORE PUSH1 0x20 ADD PUSH32 0x536166654D6174683A206469766973696F6E206279207A65726F000000000000 DUP2 MSTORE POP PUSH2 0x1DB3 JUMP JUMPDEST SWAP1 POP SWAP3 SWAP2 POP POP JUMP JUMPDEST PUSH1 0x0 PUSH2 0x1AF9 DUP4 DUP4 PUSH1 0x40 MLOAD DUP1 PUSH1 0x40 ADD PUSH1 0x40 MSTORE DUP1 PUSH1 0x1E DUP2 MSTORE PUSH1 0x20 ADD PUSH32 0x536166654D6174683A207375627472616374696F6E206F766572666C6F770000 DUP2 MSTORE POP PUSH2 0x1E16 JUMP JUMPDEST SWAP1 POP SWAP3 SWAP2 POP POP JUMP JUMPDEST PUSH1 0x0 DUP1 DUP3 DUP5 PUSH2 0x1B10 SWAP2 SWAP1 PUSH2 0x256F JUMP JUMPDEST SWAP1 POP DUP4 DUP2 LT ISZERO PUSH2 0x1B55 JUMPI PUSH1 0x40 MLOAD PUSH32 0x8C379A000000000000000000000000000000000000000000000000000000000 DUP2 MSTORE PUSH1 0x4 ADD PUSH2 0x1B4C SWAP1 PUSH2 0x237F JUMP JUMPDEST PUSH1 0x40 MLOAD DUP1 SWAP2 SUB SWAP1 REVERT JUMPDEST DUP1 SWAP2 POP POP SWAP3 SWAP2 POP POP JUMP JUMPDEST PUSH1 0x0 DUP1 PUSH1 0x2 PUSH1 0x0 SWAP1 SLOAD SWAP1 PUSH2 0x100 EXP SWAP1 DIV PUSH20 0xFFFFFFFFFFFFFFFFFFFFFFFFFFFFFFFFFFFFFFFF AND PUSH20 0xFFFFFFFFFFFFFFFFFFFFFFFFFFFFFFFFFFFFFFFF AND PUSH4 0x70A08231 ADDRESS PUSH1 0x40 MLOAD DUP3 PUSH4 0xFFFFFFFF AND PUSH1 0xE0 SHL DUP2 MSTORE PUSH1 0x4 ADD PUSH2 0x1BBD SWAP2 SWAP1 PUSH2 0x21EC JUMP JUMPDEST PUSH1 0x20 PUSH1 0x40 MLOAD DUP1 DUP4 SUB DUP2 DUP7 DUP1 EXTCODESIZE ISZERO DUP1 ISZERO PUSH2 0x1BD5 JUMPI PUSH1 0x0 DUP1 REVERT JUMPDEST POP GAS STATICCALL ISZERO DUP1 ISZERO PUSH2 0x1BE9 JUMPI RETURNDATASIZE PUSH1 0x0 DUP1 RETURNDATACOPY RETURNDATASIZE PUSH1 0x0 REVERT JUMPDEST POP POP POP POP PUSH1 0x40 MLOAD RETURNDATASIZE PUSH1 0x1F NOT PUSH1 0x1F DUP3 ADD AND DUP3 ADD DUP1 PUSH1 0x40 MSTORE POP DUP2 ADD SWAP1 PUSH2 0x1C0D SWAP2 SWAP1 PUSH2 0x1F97 JUMP JUMPDEST SWAP1 POP PUSH1 0x2 PUSH1 0x0 SWAP1 SLOAD SWAP1 PUSH2 0x100 EXP SWAP1 DIV PUSH20 0xFFFFFFFFFFFFFFFFFFFFFFFFFFFFFFFFFFFFFFFF AND PUSH20 0xFFFFFFFFFFFFFFFFFFFFFFFFFFFFFFFFFFFFFFFF AND PUSH4 0x23B872DD CALLER ADDRESS DUP7 PUSH1 0x40 MLOAD DUP5 PUSH4 0xFFFFFFFF AND PUSH1 0xE0 SHL DUP2 MSTORE PUSH1 0x4 ADD PUSH2 0x1C6E SWAP4 SWAP3 SWAP2 SWAP1 PUSH2 0x2230 JUMP JUMPDEST PUSH1 0x20 PUSH1 0x40 MLOAD DUP1 DUP4 SUB DUP2 PUSH1 0x0 DUP8 DUP1 EXTCODESIZE ISZERO DUP1 ISZERO PUSH2 0x1C88 JUMPI PUSH1 0x0 DUP1 REVERT JUMPDEST POP GAS CALL ISZERO DUP1 ISZERO PUSH2 0x1C9C JUMPI RETURNDATASIZE PUSH1 0x0 DUP1 RETURNDATACOPY RETURNDATASIZE PUSH1 0x0 REVERT JUMPDEST POP POP POP POP PUSH1 0x40 MLOAD RETURNDATASIZE PUSH1 0x1F NOT PUSH1 0x1F DUP3 ADD AND DUP3 ADD DUP1 PUSH1 0x40 MSTORE POP DUP2 ADD SWAP1 PUSH2 0x1CC0 SWAP2 SWAP1 PUSH2 0x1F10 JUMP JUMPDEST POP PUSH1 0x0 PUSH1 0x2 PUSH1 0x0 SWAP1 SLOAD SWAP1 PUSH2 0x100 EXP SWAP1 DIV PUSH20 0xFFFFFFFFFFFFFFFFFFFFFFFFFFFFFFFFFFFFFFFF AND PUSH20 0xFFFFFFFFFFFFFFFFFFFFFFFFFFFFFFFFFFFFFFFF AND PUSH4 0x70A08231 ADDRESS PUSH1 0x40 MLOAD DUP3 PUSH4 0xFFFFFFFF AND PUSH1 0xE0 SHL DUP2 MSTORE PUSH1 0x4 ADD PUSH2 0x1D1E SWAP2 SWAP1 PUSH2 0x21EC JUMP JUMPDEST PUSH1 0x20 PUSH1 0x40 MLOAD DUP1 DUP4 SUB DUP2 DUP7 DUP1 EXTCODESIZE ISZERO DUP1 ISZERO PUSH2 0x1D36 JUMPI PUSH1 0x0 DUP1 REVERT JUMPDEST POP GAS STATICCALL ISZERO DUP1 ISZERO PUSH2 0x1D4A JUMPI RETURNDATASIZE PUSH1 0x0 DUP1 RETURNDATACOPY RETURNDATASIZE PUSH1 0x0 REVERT JUMPDEST POP POP POP POP PUSH1 0x40 MLOAD RETURNDATASIZE PUSH1 0x1F NOT PUSH1 0x1F DUP3 ADD AND DUP3 ADD DUP1 PUSH1 0x40 MSTORE POP DUP2 ADD SWAP1 PUSH2 0x1D6E SWAP2 SWAP1 PUSH2 0x1F97 JUMP JUMPDEST SWAP1 POP DUP2 DUP2 GT PUSH2 0x1D82 JUMPI PUSH1 0x0 SWAP3 POP POP POP PUSH2 0x1DAE JUMP JUMPDEST PUSH2 0x1D95 DUP5 DUP4 PUSH2 0x1B01 SWAP1 SWAP2 SWAP1 PUSH4 0xFFFFFFFF AND JUMP JUMPDEST DUP2 LT ISZERO PUSH2 0x1DA7 JUMPI PUSH1 0x0 SWAP3 POP POP POP PUSH2 0x1DAE JUMP JUMPDEST PUSH1 0x1 SWAP3 POP POP POP JUMPDEST SWAP2 SWAP1 POP JUMP JUMPDEST PUSH1 0x0 DUP1 DUP4 GT DUP3 SWAP1 PUSH2 0x1DFA JUMPI PUSH1 0x40 MLOAD PUSH32 0x8C379A000000000000000000000000000000000000000000000000000000000 DUP2 MSTORE PUSH1 0x4 ADD PUSH2 0x1DF1 SWAP2 SWAP1 PUSH2 0x22FD JUMP JUMPDEST PUSH1 0x40 MLOAD DUP1 SWAP2 SUB SWAP1 REVERT JUMPDEST POP PUSH1 0x0 DUP4 DUP6 PUSH2 0x1E09 SWAP2 SWAP1 PUSH2 0x25C5 JUMP JUMPDEST SWAP1 POP DUP1 SWAP2 POP POP SWAP4 SWAP3 POP POP POP JUMP JUMPDEST PUSH1 0x0 DUP4 DUP4 GT ISZERO DUP3 SWAP1 PUSH2 0x1E5E JUMPI PUSH1 0x40 MLOAD PUSH32 0x8C379A000000000000000000000000000000000000000000000000000000000 DUP2 MSTORE PUSH1 0x4 ADD PUSH2 0x1E55 SWAP2 SWAP1 PUSH2 0x22FD JUMP JUMPDEST PUSH1 0x40 MLOAD DUP1 SWAP2 SUB SWAP1 REVERT JUMPDEST POP PUSH1 0x0 DUP4 DUP6 PUSH2 0x1E6D SWAP2 SWAP1 PUSH2 0x2650 JUMP JUMPDEST SWAP1 POP DUP1 SWAP2 POP POP SWAP4 SWAP3 POP POP POP JUMP JUMPDEST PUSH1 0x0 DUP2 CALLDATALOAD SWAP1 POP PUSH2 0x1E89 DUP2 PUSH2 0x29DA JUMP JUMPDEST SWAP3 SWAP2 POP POP JUMP JUMPDEST PUSH1 0x0 DUP2 MLOAD SWAP1 POP PUSH2 0x1E9E DUP2 PUSH2 0x29F1 JUMP JUMPDEST SWAP3 SWAP2 POP POP JUMP JUMPDEST PUSH1 0x0 DUP2 CALLDATALOAD SWAP1 POP PUSH2 0x1EB3 DUP2 PUSH2 0x2A08 JUMP JUMPDEST SWAP3 SWAP2 POP POP JUMP JUMPDEST PUSH1 0x0 DUP2 CALLDATALOAD SWAP1 POP PUSH2 0x1EC8 DUP2 PUSH2 0x2A1F JUMP JUMPDEST SWAP3 SWAP2 POP POP JUMP JUMPDEST PUSH1 0x0 DUP2 MLOAD SWAP1 POP PUSH2 0x1EDD DUP2 PUSH2 0x2A1F JUMP JUMPDEST SWAP3 SWAP2 POP POP JUMP JUMPDEST PUSH1 0x0 PUSH1 0x20 DUP3 DUP5 SUB SLT ISZERO PUSH2 0x1EF9 JUMPI PUSH2 0x1EF8 PUSH2 0x27B2 JUMP JUMPDEST JUMPDEST PUSH1 0x0 PUSH2 0x1F07 DUP5 DUP3 DUP6 ADD PUSH2 0x1E7A JUMP JUMPDEST SWAP2 POP POP SWAP3 SWAP2 POP POP JUMP JUMPDEST PUSH1 0x0 PUSH1 0x20 DUP3 DUP5 SUB SLT ISZERO PUSH2 0x1F26 JUMPI PUSH2 0x1F25 PUSH2 0x27B2 JUMP JUMPDEST JUMPDEST PUSH1 0x0 PUSH2 0x1F34 DUP5 DUP3 DUP6 ADD PUSH2 0x1E8F JUMP JUMPDEST SWAP2 POP POP SWAP3 SWAP2 POP POP JUMP JUMPDEST PUSH1 0x0 PUSH1 0x20 DUP3 DUP5 SUB SLT ISZERO PUSH2 0x1F53 JUMPI PUSH2 0x1F52 PUSH2 0x27B2 JUMP JUMPDEST JUMPDEST PUSH1 0x0 PUSH2 0x1F61 DUP5 DUP3 DUP6 ADD PUSH2 0x1EA4 JUMP JUMPDEST SWAP2 POP POP SWAP3 SWAP2 POP POP JUMP JUMPDEST PUSH1 0x0 PUSH1 0x20 DUP3 DUP5 SUB SLT ISZERO PUSH2 0x1F80 JUMPI PUSH2 0x1F7F PUSH2 0x27B2 JUMP JUMPDEST JUMPDEST PUSH1 0x0 PUSH2 0x1F8E DUP5 DUP3 DUP6 ADD PUSH2 0x1EB9 JUMP JUMPDEST SWAP2 POP POP SWAP3 SWAP2 POP POP JUMP JUMPDEST PUSH1 0x0 PUSH1 0x20 DUP3 DUP5 SUB SLT ISZERO PUSH2 0x1FAD JUMPI PUSH2 0x1FAC PUSH2 0x27B2 JUMP JUMPDEST JUMPDEST PUSH1 0x0 PUSH2 0x1FBB DUP5 DUP3 DUP6 ADD PUSH2 0x1ECE JUMP JUMPDEST SWAP2 POP POP SWAP3 SWAP2 POP POP JUMP JUMPDEST PUSH2 0x1FCD DUP2 PUSH2 0x2684 JUMP JUMPDEST DUP3 MSTORE POP POP JUMP JUMPDEST PUSH2 0x1FDC DUP2 PUSH2 0x2696 JUMP JUMPDEST DUP3 MSTORE POP POP JUMP JUMPDEST PUSH2 0x1FEB DUP2 PUSH2 0x26EB JUMP JUMPDEST DUP3 MSTORE POP POP JUMP JUMPDEST PUSH1 0x0 PUSH2 0x1FFC DUP3 PUSH2 0x2553 JUMP JUMPDEST PUSH2 0x2006 DUP2 DUP6 PUSH2 0x255E JUMP JUMPDEST SWAP4 POP PUSH2 0x2016 DUP2 DUP6 PUSH1 0x20 DUP7 ADD PUSH2 0x2721 JUMP JUMPDEST PUSH2 0x201F DUP2 PUSH2 0x27B7 JUMP JUMPDEST DUP5 ADD SWAP2 POP POP SWAP3 SWAP2 POP POP JUMP JUMPDEST PUSH1 0x0 PUSH2 0x2037 PUSH1 0xF DUP4 PUSH2 0x255E JUMP JUMPDEST SWAP2 POP PUSH2 0x2042 DUP3 PUSH2 0x27C8 JUMP JUMPDEST PUSH1 0x20 DUP3 ADD SWAP1 POP SWAP2 SWAP1 POP JUMP JUMPDEST PUSH1 0x0 PUSH2 0x205A PUSH1 0x11 DUP4 PUSH2 0x255E JUMP JUMPDEST SWAP2 POP PUSH2 0x2065 DUP3 PUSH2 0x27F1 JUMP JUMPDEST PUSH1 0x20 DUP3 ADD SWAP1 POP SWAP2 SWAP1 POP JUMP JUMPDEST PUSH1 0x0 PUSH2 0x207D PUSH1 0x12 DUP4 PUSH2 0x255E JUMP JUMPDEST SWAP2 POP PUSH2 0x2088 DUP3 PUSH2 0x281A JUMP JUMPDEST PUSH1 0x20 DUP3 ADD SWAP1 POP SWAP2 SWAP1 POP JUMP JUMPDEST PUSH1 0x0 PUSH2 0x20A0 PUSH1 0x1B DUP4 PUSH2 0x255E JUMP JUMPDEST SWAP2 POP PUSH2 0x20AB DUP3 PUSH2 0x2843 JUMP JUMPDEST PUSH1 0x20 DUP3 ADD SWAP1 POP SWAP2 SWAP1 POP JUMP JUMPDEST PUSH1 0x0 PUSH2 0x20C3 PUSH1 0x12 DUP4 PUSH2 0x255E JUMP JUMPDEST SWAP2 POP PUSH2 0x20CE DUP3 PUSH2 0x286C JUMP JUMPDEST PUSH1 0x20 DUP3 ADD SWAP1 POP SWAP2 SWAP1 POP JUMP JUMPDEST PUSH1 0x0 PUSH2 0x20E6 PUSH1 0x12 DUP4 PUSH2 0x255E JUMP JUMPDEST SWAP2 POP PUSH2 0x20F1 DUP3 PUSH2 0x2895 JUMP JUMPDEST PUSH1 0x20 DUP3 ADD SWAP1 POP SWAP2 SWAP1 POP JUMP JUMPDEST PUSH1 0x0 PUSH2 0x2109 PUSH1 0x21 DUP4 PUSH2 0x255E JUMP JUMPDEST SWAP2 POP PUSH2 0x2114 DUP3 PUSH2 0x28BE JUMP JUMPDEST PUSH1 0x40 DUP3 ADD SWAP1 POP SWAP2 SWAP1 POP JUMP JUMPDEST PUSH1 0x0 PUSH2 0x212C PUSH1 0xB DUP4 PUSH2 0x255E JUMP JUMPDEST SWAP2 POP PUSH2 0x2137 DUP3 PUSH2 0x290D JUMP JUMPDEST PUSH1 0x20 DUP3 ADD SWAP1 POP SWAP2 SWAP1 POP JUMP JUMPDEST PUSH1 0x0 PUSH2 0x214F PUSH1 0x12 DUP4 PUSH2 0x255E JUMP JUMPDEST SWAP2 POP PUSH2 0x215A DUP3 PUSH2 0x2936 JUMP JUMPDEST PUSH1 0x20 DUP3 ADD SWAP1 POP SWAP2 SWAP1 POP JUMP JUMPDEST PUSH1 0x0 PUSH2 0x2172 PUSH1 0x12 DUP4 PUSH2 0x255E JUMP JUMPDEST SWAP2 POP PUSH2 0x217D DUP3 PUSH2 0x295F JUMP JUMPDEST PUSH1 0x20 DUP3 ADD SWAP1 POP SWAP2 SWAP1 POP JUMP JUMPDEST PUSH1 0x0 PUSH2 0x2195 PUSH1 0x10 DUP4 PUSH2 0x255E JUMP JUMPDEST SWAP2 POP PUSH2 0x21A0 DUP3 PUSH2 0x2988 JUMP JUMPDEST PUSH1 0x20 DUP3 ADD SWAP1 POP SWAP2 SWAP1 POP JUMP JUMPDEST PUSH1 0x0 PUSH2 0x21B8 PUSH1 0x12 DUP4 PUSH2 0x255E JUMP JUMPDEST SWAP2 POP PUSH2 0x21C3 DUP3 PUSH2 0x29B1 JUMP JUMPDEST PUSH1 0x20 DUP3 ADD SWAP1 POP SWAP2 SWAP1 POP JUMP JUMPDEST PUSH2 0x21D7 DUP2 PUSH2 0x26D4 JUMP JUMPDEST DUP3 MSTORE POP POP JUMP JUMPDEST PUSH2 0x21E6 DUP2 PUSH2 0x26DE JUMP JUMPDEST DUP3 MSTORE POP POP JUMP JUMPDEST PUSH1 0x0 PUSH1 0x20 DUP3 ADD SWAP1 POP PUSH2 0x2201 PUSH1 0x0 DUP4 ADD DUP5 PUSH2 0x1FC4 JUMP JUMPDEST SWAP3 SWAP2 POP POP JUMP JUMPDEST PUSH1 0x0 PUSH1 0x40 DUP3 ADD SWAP1 POP PUSH2 0x221C PUSH1 0x0 DUP4 ADD DUP6 PUSH2 0x1FC4 JUMP JUMPDEST PUSH2 0x2229 PUSH1 0x20 DUP4 ADD DUP5 PUSH2 0x1FC4 JUMP JUMPDEST SWAP4 SWAP3 POP POP POP JUMP JUMPDEST PUSH1 0x0 PUSH1 0x60 DUP3 ADD SWAP1 POP PUSH2 0x2245 PUSH1 0x0 DUP4 ADD DUP7 PUSH2 0x1FC4 JUMP JUMPDEST PUSH2 0x2252 PUSH1 0x20 DUP4 ADD DUP6 PUSH2 0x1FC4 JUMP JUMPDEST PUSH2 0x225F PUSH1 0x40 DUP4 ADD DUP5 PUSH2 0x21CE JUMP JUMPDEST SWAP5 SWAP4 POP POP POP POP JUMP JUMPDEST PUSH1 0x0 PUSH1 0x40 DUP3 ADD SWAP1 POP PUSH2 0x227C PUSH1 0x0 DUP4 ADD DUP6 PUSH2 0x1FC4 JUMP JUMPDEST PUSH2 0x2289 PUSH1 0x20 DUP4 ADD DUP5 PUSH2 0x21CE JUMP JUMPDEST SWAP4 SWAP3 POP POP POP JUMP JUMPDEST PUSH1 0x0 PUSH1 0x60 DUP3 ADD SWAP1 POP PUSH2 0x22A5 PUSH1 0x0 DUP4 ADD DUP7 PUSH2 0x1FC4 JUMP JUMPDEST PUSH2 0x22B2 PUSH1 0x20 DUP4 ADD DUP6 PUSH2 0x21CE JUMP JUMPDEST PUSH2 0x22BF PUSH1 0x40 DUP4 ADD DUP5 PUSH2 0x21CE JUMP JUMPDEST SWAP5 SWAP4 POP POP POP POP JUMP JUMPDEST PUSH1 0x0 PUSH1 0x20 DUP3 ADD SWAP1 POP PUSH2 0x22DC PUSH1 0x0 DUP4 ADD DUP5 PUSH2 0x1FD3 JUMP JUMPDEST SWAP3 SWAP2 POP POP JUMP JUMPDEST PUSH1 0x0 PUSH1 0x20 DUP3 ADD SWAP1 POP PUSH2 0x22F7 PUSH1 0x0 DUP4 ADD DUP5 PUSH2 0x1FE2 JUMP JUMPDEST SWAP3 SWAP2 POP POP JUMP JUMPDEST PUSH1 0x0 PUSH1 0x20 DUP3 ADD SWAP1 POP DUP2 DUP2 SUB PUSH1 0x0 DUP4 ADD MSTORE PUSH2 0x2317 DUP2 DUP5 PUSH2 0x1FF1 JUMP JUMPDEST SWAP1 POP SWAP3 SWAP2 POP POP JUMP JUMPDEST PUSH1 0x0 PUSH1 0x20 DUP3 ADD SWAP1 POP DUP2 DUP2 SUB PUSH1 0x0 DUP4 ADD MSTORE PUSH2 0x2338 DUP2 PUSH2 0x202A JUMP JUMPDEST SWAP1 POP SWAP2 SWAP1 POP JUMP JUMPDEST PUSH1 0x0 PUSH1 0x20 DUP3 ADD SWAP1 POP DUP2 DUP2 SUB PUSH1 0x0 DUP4 ADD MSTORE PUSH2 0x2358 DUP2 PUSH2 0x204D JUMP JUMPDEST SWAP1 POP SWAP2 SWAP1 POP JUMP JUMPDEST PUSH1 0x0 PUSH1 0x20 DUP3 ADD SWAP1 POP DUP2 DUP2 SUB PUSH1 0x0 DUP4 ADD MSTORE PUSH2 0x2378 DUP2 PUSH2 0x2070 JUMP JUMPDEST SWAP1 POP SWAP2 SWAP1 POP JUMP JUMPDEST PUSH1 0x0 PUSH1 0x20 DUP3 ADD SWAP1 POP DUP2 DUP2 SUB PUSH1 0x0 DUP4 ADD MSTORE PUSH2 0x2398 DUP2 PUSH2 0x2093 JUMP JUMPDEST SWAP1 POP SWAP2 SWAP1 POP JUMP JUMPDEST PUSH1 0x0 PUSH1 0x20 DUP3 ADD SWAP1 POP DUP2 DUP2 SUB PUSH1 0x0 DUP4 ADD MSTORE PUSH2 0x23B8 DUP2 PUSH2 0x20B6 JUMP JUMPDEST SWAP1 POP SWAP2 SWAP1 POP JUMP JUMPDEST PUSH1 0x0 PUSH1 0x20 DUP3 ADD SWAP1 POP DUP2 DUP2 SUB PUSH1 0x0 DUP4 ADD MSTORE PUSH2 0x23D8 DUP2 PUSH2 0x20D9 JUMP JUMPDEST SWAP1 POP SWAP2 SWAP1 POP JUMP JUMPDEST PUSH1 0x0 PUSH1 0x20 DUP3 ADD SWAP1 POP DUP2 DUP2 SUB PUSH1 0x0 DUP4 ADD MSTORE PUSH2 0x23F8 DUP2 PUSH2 0x20FC JUMP JUMPDEST SWAP1 POP SWAP2 SWAP1 POP JUMP JUMPDEST PUSH1 0x0 PUSH1 0x20 DUP3 ADD SWAP1 POP DUP2 DUP2 SUB PUSH1 0x0 DUP4 ADD MSTORE PUSH2 0x2418 DUP2 PUSH2 0x211F JUMP JUMPDEST SWAP1 POP SWAP2 SWAP1 POP JUMP JUMPDEST PUSH1 0x0 PUSH1 0x20 DUP3 ADD SWAP1 POP DUP2 DUP2 SUB PUSH1 0x0 DUP4 ADD MSTORE PUSH2 0x2438 DUP2 PUSH2 0x2142 JUMP JUMPDEST SWAP1 POP SWAP2 SWAP1 POP JUMP JUMPDEST PUSH1 0x0 PUSH1 0x20 DUP3 ADD SWAP1 POP DUP2 DUP2 SUB PUSH1 0x0 DUP4 ADD MSTORE PUSH2 0x2458 DUP2 PUSH2 0x2165 JUMP JUMPDEST SWAP1 POP SWAP2 SWAP1 POP JUMP JUMPDEST PUSH1 0x0 PUSH1 0x20 DUP3 ADD SWAP1 POP DUP2 DUP2 SUB PUSH1 0x0 DUP4 ADD MSTORE PUSH2 0x2478 DUP2 PUSH2 0x2188 JUMP JUMPDEST SWAP1 POP SWAP2 SWAP1 POP JUMP JUMPDEST PUSH1 0x0 PUSH1 0x20 DUP3 ADD SWAP1 POP DUP2 DUP2 SUB PUSH1 0x0 DUP4 ADD MSTORE PUSH2 0x2498 DUP2 PUSH2 0x21AB JUMP JUMPDEST SWAP1 POP SWAP2 SWAP1 POP JUMP JUMPDEST PUSH1 0x0 PUSH1 0x20 DUP3 ADD SWAP1 POP PUSH2 0x24B4 PUSH1 0x0 DUP4 ADD DUP5 PUSH2 0x21CE JUMP JUMPDEST SWAP3 SWAP2 POP POP JUMP JUMPDEST PUSH1 0x0 PUSH2 0x100 DUP3 ADD SWAP1 POP PUSH2 0x24D0 PUSH1 0x0 DUP4 ADD DUP12 PUSH2 0x21CE JUMP JUMPDEST PUSH2 0x24DD PUSH1 0x20 DUP4 ADD DUP11 PUSH2 0x21CE JUMP JUMPDEST PUSH2 0x24EA PUSH1 0x40 DUP4 ADD DUP10 PUSH2 0x21CE JUMP JUMPDEST PUSH2 0x24F7 PUSH1 0x60 DUP4 ADD DUP9 PUSH2 0x21CE JUMP JUMPDEST PUSH2 0x2504 PUSH1 0x80 DUP4 ADD DUP8 PUSH2 0x21CE JUMP JUMPDEST PUSH2 0x2511 PUSH1 0xA0 DUP4 ADD DUP7 PUSH2 0x21CE JUMP JUMPDEST PUSH2 0x251E PUSH1 0xC0 DUP4 ADD DUP6 PUSH2 0x21CE JUMP JUMPDEST PUSH2 0x252B PUSH1 0xE0 DUP4 ADD DUP5 PUSH2 0x21CE JUMP JUMPDEST SWAP10 SWAP9 POP POP POP POP POP POP POP POP POP JUMP JUMPDEST PUSH1 0x0 PUSH1 0x20 DUP3 ADD SWAP1 POP PUSH2 0x254D PUSH1 0x0 DUP4 ADD DUP5 PUSH2 0x21DD JUMP JUMPDEST SWAP3 SWAP2 POP POP JUMP JUMPDEST PUSH1 0x0 DUP2 MLOAD SWAP1 POP SWAP2 SWAP1 POP JUMP JUMPDEST PUSH1 0x0 DUP3 DUP3 MSTORE PUSH1 0x20 DUP3 ADD SWAP1 POP SWAP3 SWAP2 POP POP JUMP JUMPDEST PUSH1 0x0 PUSH2 0x257A DUP3 PUSH2 0x26D4 JUMP JUMPDEST SWAP2 POP PUSH2 0x2585 DUP4 PUSH2 0x26D4 JUMP JUMPDEST SWAP3 POP DUP3 PUSH32 0xFFFFFFFFFFFFFFFFFFFFFFFFFFFFFFFFFFFFFFFFFFFFFFFFFFFFFFFFFFFFFFFF SUB DUP3 GT ISZERO PUSH2 0x25BA JUMPI PUSH2 0x25B9 PUSH2 0x2754 JUMP JUMPDEST JUMPDEST DUP3 DUP3 ADD SWAP1 POP SWAP3 SWAP2 POP POP JUMP JUMPDEST PUSH1 0x0 PUSH2 0x25D0 DUP3 PUSH2 0x26D4 JUMP JUMPDEST SWAP2 POP PUSH2 0x25DB DUP4 PUSH2 0x26D4 JUMP JUMPDEST SWAP3 POP DUP3 PUSH2 0x25EB JUMPI PUSH2 0x25EA PUSH2 0x2783 JUMP JUMPDEST JUMPDEST DUP3 DUP3 DIV SWAP1 POP SWAP3 SWAP2 POP POP JUMP JUMPDEST PUSH1 0x0 PUSH2 0x2601 DUP3 PUSH2 0x26D4 JUMP JUMPDEST SWAP2 POP PUSH2 0x260C DUP4 PUSH2 0x26D4 JUMP JUMPDEST SWAP3 POP DUP2 PUSH32 0xFFFFFFFFFFFFFFFFFFFFFFFFFFFFFFFFFFFFFFFFFFFFFFFFFFFFFFFFFFFFFFFF DIV DUP4 GT DUP3 ISZERO ISZERO AND ISZERO PUSH2 0x2645 JUMPI PUSH2 0x2644 PUSH2 0x2754 JUMP JUMPDEST JUMPDEST DUP3 DUP3 MUL SWAP1 POP SWAP3 SWAP2 POP POP JUMP JUMPDEST PUSH1 0x0 PUSH2 0x265B DUP3 PUSH2 0x26D4 JUMP JUMPDEST SWAP2 POP PUSH2 0x2666 DUP4 PUSH2 0x26D4 JUMP JUMPDEST SWAP3 POP DUP3 DUP3 LT ISZERO PUSH2 0x2679 JUMPI PUSH2 0x2678 PUSH2 0x2754 JUMP JUMPDEST JUMPDEST DUP3 DUP3 SUB SWAP1 POP SWAP3 SWAP2 POP POP JUMP JUMPDEST PUSH1 0x0 PUSH2 0x268F DUP3 PUSH2 0x26B4 JUMP JUMPDEST SWAP1 POP SWAP2 SWAP1 POP JUMP JUMPDEST PUSH1 0x0 DUP2 ISZERO ISZERO SWAP1 POP SWAP2 SWAP1 POP JUMP JUMPDEST PUSH1 0x0 PUSH2 0x26AD DUP3 PUSH2 0x2684 JUMP JUMPDEST SWAP1 POP SWAP2 SWAP1 POP JUMP JUMPDEST PUSH1 0x0 PUSH20 0xFFFFFFFFFFFFFFFFFFFFFFFFFFFFFFFFFFFFFFFF DUP3 AND SWAP1 POP SWAP2 SWAP1 POP JUMP JUMPDEST PUSH1 0x0 DUP2 SWAP1 POP SWAP2 SWAP1 POP JUMP JUMPDEST PUSH1 0x0 PUSH1 0xFF DUP3 AND SWAP1 POP SWAP2 SWAP1 POP JUMP JUMPDEST PUSH1 0x0 PUSH2 0x26F6 DUP3 PUSH2 0x26FD JUMP JUMPDEST SWAP1 POP SWAP2 SWAP1 POP JUMP JUMPDEST PUSH1 0x0 PUSH2 0x2708 DUP3 PUSH2 0x270F JUMP JUMPDEST SWAP1 POP SWAP2 SWAP1 POP JUMP JUMPDEST PUSH1 0x0 PUSH2 0x271A DUP3 PUSH2 0x26B4 JUMP JUMPDEST SWAP1 POP SWAP2 SWAP1 POP JUMP JUMPDEST PUSH1 0x0 JUMPDEST DUP4 DUP2 LT ISZERO PUSH2 0x273F JUMPI DUP1 DUP3 ADD MLOAD DUP2 DUP5 ADD MSTORE PUSH1 0x20 DUP2 ADD SWAP1 POP PUSH2 0x2724 JUMP JUMPDEST DUP4 DUP2 GT ISZERO PUSH2 0x274E JUMPI PUSH1 0x0 DUP5 DUP5 ADD MSTORE JUMPDEST POP POP POP POP JUMP JUMPDEST PUSH32 0x4E487B7100000000000000000000000000000000000000000000000000000000 PUSH1 0x0 MSTORE PUSH1 0x11 PUSH1 0x4 MSTORE PUSH1 0x24 PUSH1 0x0 REVERT JUMPDEST PUSH32 0x4E487B7100000000000000000000000000000000000000000000000000000000 PUSH1 0x0 MSTORE PUSH1 0x12 PUSH1 0x4 MSTORE PUSH1 0x24 PUSH1 0x0 REVERT JUMPDEST PUSH1 0x0 DUP1 REVERT JUMPDEST PUSH1 0x0 PUSH1 0x1F NOT PUSH1 0x1F DUP4 ADD AND SWAP1 POP SWAP2 SWAP1 POP JUMP JUMPDEST PUSH32 0x494E56414C49445F414444524553530000000000000000000000000000000000 PUSH1 0x0 DUP3 ADD MSTORE POP JUMP JUMPDEST PUSH32 0x494E56414C49445F57484954456C495354000000000000000000000000000000 PUSH1 0x0 DUP3 ADD MSTORE POP JUMP JUMPDEST PUSH32 0x494E56414C49445F515541544954593A30310000000000000000000000000000 PUSH1 0x0 DUP3 ADD MSTORE POP JUMP JUMPDEST PUSH32 0x536166654D6174683A206164646974696F6E206F766572666C6F770000000000 PUSH1 0x0 DUP3 ADD MSTORE POP JUMP JUMPDEST PUSH32 0x494E56414C49445F5041594D454E543A30320000000000000000000000000000 PUSH1 0x0 DUP3 ADD MSTORE POP JUMP JUMPDEST PUSH32 0x494E56414C49445F515541544954593A30320000000000000000000000000000 PUSH1 0x0 DUP3 ADD MSTORE POP JUMP JUMPDEST PUSH32 0x536166654D6174683A206D756C7469706C69636174696F6E206F766572666C6F PUSH1 0x0 DUP3 ADD MSTORE PUSH32 0x7700000000000000000000000000000000000000000000000000000000000000 PUSH1 0x20 DUP3 ADD MSTORE POP JUMP JUMPDEST PUSH32 0x53595354454D5F53544F50000000000000000000000000000000000000000000 PUSH1 0x0 DUP3 ADD MSTORE POP JUMP JUMPDEST PUSH32 0x53595354454D5F4E4F545F52554E4E494E470000000000000000000000000000 PUSH1 0x0 DUP3 ADD MSTORE POP JUMP JUMPDEST PUSH32 0x494E56414C49445F5041594D454E543A30310000000000000000000000000000 PUSH1 0x0 DUP3 ADD MSTORE POP JUMP JUMPDEST PUSH32 0x494E56414C49445F414D4F554E545F3100000000000000000000000000000000 PUSH1 0x0 DUP3 ADD MSTORE POP JUMP JUMPDEST PUSH32 0x494E56414C49445F5045524D495353494F4E0000000000000000000000000000 PUSH1 0x0 DUP3 ADD MSTORE POP JUMP JUMPDEST PUSH2 0x29E3 DUP2 PUSH2 0x2684 JUMP JUMPDEST DUP2 EQ PUSH2 0x29EE JUMPI PUSH1 0x0 DUP1 REVERT JUMPDEST POP JUMP JUMPDEST PUSH2 0x29FA DUP2 PUSH2 0x2696 JUMP JUMPDEST DUP2 EQ PUSH2 0x2A05 JUMPI PUSH1 0x0 DUP1 REVERT JUMPDEST POP JUMP JUMPDEST PUSH2 0x2A11 DUP2 PUSH2 0x26A2 JUMP JUMPDEST DUP2 EQ PUSH2 0x2A1C JUMPI PUSH1 0x0 DUP1 REVERT JUMPDEST POP JUMP JUMPDEST PUSH2 0x2A28 DUP2 PUSH2 0x26D4 JUMP JUMPDEST DUP2 EQ PUSH2 0x2A33 JUMPI PUSH1 0x0 DUP1 REVERT JUMPDEST POP JUMP INVALID LOG2 PUSH5 0x6970667358 0x22 SLT KECCAK256 CODESIZE RETURN 0xDE DUP10 AND PUSH5 0xF5BAD060DE 0xDF PUSH8 0x3C5FC78BE8B72A28 JUMPDEST EXTCODESIZE 0xE3 0xB4 0xBC 0xEC RETURNDATASIZE BYTE 0xD0 0x22 0xC9 PUSH5 0x736F6C6343 STOP ADDMOD SMOD STOP CALLER "
				},
				"gasEstimates": {
					"creation": {
						"codeDepositCost": "2172000",
						"executionCost": "infinite",
						"totalCost": "infinite"
					},
					"external": {
						"ENABLE()": "2561",
						"GRB()": "2689",
						"HARD_CAP_PER_USER()": "2496",
						"MIN_BUY()": "2497",
						"SALE_TIME_PERIOD()": "2475",
						"USDC()": "2711",
						"VERSION()": "2578",
						"buy(uint256)": "infinite",
						"disable()": "26721",
						"enable()": "26698",
						"endTime()": "2541",
						"getData(address)": "infinite",
						"getMaxBuyOf(address)": "infinite",
						"getTotalSale()": "infinite",
						"getUSDCBalance()": "infinite",
						"moveFund(address)": "infinite",
						"owner()": "2610",
						"salePrice()": "2517",
						"setEndTime(uint256)": "24807",
						"setGRBToken(address)": "27091",
						"setHardCapPerUser(uint256)": "24785",
						"setMinBuy(uint256)": "24829",
						"setSalePrice(uint256)": "24809",
						"setUSDCToken(address)": "27070",
						"start()": "infinite",
						"totalBoughtOf(address)": "2925",
						"totalPurchased()": "2473",
						"transferOwnership(address)": "27058"
					},
					"internal": {
						"_claimUSDC(uint256)": "infinite"
					}
				},
				"methodIdentifiers": {
					"ENABLE()": "92f6386a",
					"GRB()": "b0176ce8",
					"HARD_CAP_PER_USER()": "50c19c0b",
					"MIN_BUY()": "3af96b90",
					"SALE_TIME_PERIOD()": "247b9818",
					"USDC()": "89a30271",
					"VERSION()": "ffa1ad74",
					"buy(uint256)": "d96a094a",
					"disable()": "2f2770db",
					"enable()": "a3907d71",
					"endTime()": "3197cbb6",
					"getData(address)": "38266b22",
					"getMaxBuyOf(address)": "90c8dd17",
					"getTotalSale()": "1f2475bd",
					"getUSDCBalance()": "3cfd1ccc",
					"moveFund(address)": "3c6c26f9",
					"owner()": "8da5cb5b",
					"salePrice()": "f51f96dd",
					"setEndTime(uint256)": "ccb98ffc",
					"setGRBToken(address)": "2acfc3da",
					"setHardCapPerUser(uint256)": "a2b0106b",
					"setMinBuy(uint256)": "860779e7",
					"setSalePrice(uint256)": "1919fed7",
					"setUSDCToken(address)": "0f5a9d01",
					"start()": "be9a6555",
					"totalBoughtOf(address)": "bcaaf662",
					"totalPurchased()": "e632c2f3",
					"transferOwnership(address)": "f2fde38b"
				}
			},
			"storageLayout": {
				"storage": [
					{
						"astId": 297,
						"contract": "contracts/PublicSaleLaunch.sol:PublicSaleLaunch",
						"label": "VERSION",
						"offset": 0,
						"slot": "0",
						"type": "t_uint8"
					},
					{
						"astId": 302,
						"contract": "contracts/PublicSaleLaunch.sol:PublicSaleLaunch",
						"label": "owner",
						"offset": 1,
						"slot": "0",
						"type": "t_address"
					},
					{
						"astId": 305,
						"contract": "contracts/PublicSaleLaunch.sol:PublicSaleLaunch",
						"label": "GRB",
						"offset": 0,
						"slot": "1",
						"type": "t_contract(IERC20)294"
					},
					{
						"astId": 308,
						"contract": "contracts/PublicSaleLaunch.sol:PublicSaleLaunch",
						"label": "USDC",
						"offset": 0,
						"slot": "2",
						"type": "t_contract(IERC20)294"
					},
					{
						"astId": 313,
						"contract": "contracts/PublicSaleLaunch.sol:PublicSaleLaunch",
						"label": "salePrice",
						"offset": 0,
						"slot": "3",
						"type": "t_uint256"
					},
					{
						"astId": 316,
						"contract": "contracts/PublicSaleLaunch.sol:PublicSaleLaunch",
						"label": "totalPurchased",
						"offset": 0,
						"slot": "4",
						"type": "t_uint256"
					},
					{
						"astId": 319,
						"contract": "contracts/PublicSaleLaunch.sol:PublicSaleLaunch",
						"label": "endTime",
						"offset": 0,
						"slot": "5",
						"type": "t_uint256"
					},
					{
						"astId": 322,
						"contract": "contracts/PublicSaleLaunch.sol:PublicSaleLaunch",
						"label": "ENABLE",
						"offset": 0,
						"slot": "6",
						"type": "t_bool"
					},
					{
						"astId": 327,
						"contract": "contracts/PublicSaleLaunch.sol:PublicSaleLaunch",
						"label": "HARD_CAP_PER_USER",
						"offset": 0,
						"slot": "7",
						"type": "t_uint256"
					},
					{
						"astId": 332,
						"contract": "contracts/PublicSaleLaunch.sol:PublicSaleLaunch",
						"label": "MIN_BUY",
						"offset": 0,
						"slot": "8",
						"type": "t_uint256"
					},
					{
						"astId": 339,
						"contract": "contracts/PublicSaleLaunch.sol:PublicSaleLaunch",
						"label": "SALE_TIME_PERIOD",
						"offset": 0,
						"slot": "9",
						"type": "t_uint256"
					},
					{
						"astId": 343,
						"contract": "contracts/PublicSaleLaunch.sol:PublicSaleLaunch",
						"label": "totalBoughtOf",
						"offset": 0,
						"slot": "10",
						"type": "t_mapping(t_address,t_uint256)"
					}
				],
				"types": {
					"t_address": {
						"encoding": "inplace",
						"label": "address",
						"numberOfBytes": "20"
					},
					"t_bool": {
						"encoding": "inplace",
						"label": "bool",
						"numberOfBytes": "1"
					},
					"t_contract(IERC20)294": {
						"encoding": "inplace",
						"label": "contract IERC20",
						"numberOfBytes": "20"
					},
					"t_mapping(t_address,t_uint256)": {
						"encoding": "mapping",
						"key": "t_address",
						"label": "mapping(address => uint256)",
						"numberOfBytes": "32",
						"value": "t_uint256"
					},
					"t_uint256": {
						"encoding": "inplace",
						"label": "uint256",
						"numberOfBytes": "32"
					},
					"t_uint8": {
						"encoding": "inplace",
						"label": "uint8",
						"numberOfBytes": "1"
					}
				}
			},
			"userdoc": {
				"kind": "user",
				"methods": {},
				"version": 1
			}
		}
	}
}