{
	"contracts/ProtocolLiquidityLaunch.sol": {
		"ProtocolLiquidityLaunch": {
			"abi": [
				{
					"inputs": [
						{
							"internalType": "contract IERC20",
							"name": "_grb",
							"type": "address"
						},
						{
							"internalType": "contract IERC20",
							"name": "_usdc",
							"type": "address"
						}
					],
					"stateMutability": "nonpayable",
					"type": "constructor"
				},
				{
					"anonymous": false,
					"inputs": [
						{
							"indexed": false,
							"internalType": "address",
							"name": "_user",
							"type": "address"
						},
						{
							"indexed": false,
							"internalType": "uint256",
							"name": "_payAmt",
							"type": "uint256"
						},
						{
							"indexed": false,
							"internalType": "uint256",
							"name": "_grbReceive",
							"type": "uint256"
						}
					],
					"name": "onBuy",
					"type": "event"
				},
				{
					"inputs": [],
					"name": "ENABLE",
					"outputs": [
						{
							"internalType": "bool",
							"name": "",
							"type": "bool"
						}
					],
					"stateMutability": "view",
					"type": "function"
				},
				{
					"inputs": [],
					"name": "GRB",
					"outputs": [
						{
							"internalType": "contract IERC20",
							"name": "",
							"type": "address"
						}
					],
					"stateMutability": "view",
					"type": "function"
				},
				{
					"inputs": [],
					"name": "HARD_CAP_PER_USER",
					"outputs": [
						{
							"internalType": "uint256",
							"name": "",
							"type": "uint256"
						}
					],
					"stateMutability": "view",
					"type": "function"
				},
				{
					"inputs": [],
					"name": "MIN_BUY",
					"outputs": [
						{
							"internalType": "uint256",
							"name": "",
							"type": "uint256"
						}
					],
					"stateMutability": "view",
					"type": "function"
				},
				{
					"inputs": [],
					"name": "USDC",
					"outputs": [
						{
							"internalType": "contract IERC20",
							"name": "",
							"type": "address"
						}
					],
					"stateMutability": "view",
					"type": "function"
				},
				{
					"inputs": [],
					"name": "VERSION",
					"outputs": [
						{
							"internalType": "uint8",
							"name": "",
							"type": "uint8"
						}
					],
					"stateMutability": "view",
					"type": "function"
				},
				{
					"inputs": [
						{
							"internalType": "uint256",
							"name": "_payAmt",
							"type": "uint256"
						}
					],
					"name": "buy",
					"outputs": [],
					"stateMutability": "nonpayable",
					"type": "function"
				},
				{
					"inputs": [],
					"name": "disable",
					"outputs": [],
					"stateMutability": "nonpayable",
					"type": "function"
				},
				{
					"inputs": [],
					"name": "enable",
					"outputs": [],
					"stateMutability": "nonpayable",
					"type": "function"
				},
				{
					"inputs": [
						{
							"internalType": "address",
							"name": "_user",
							"type": "address"
						}
					],
					"name": "getData",
					"outputs": [
						{
							"internalType": "uint256[9]",
							"name": "data_",
							"type": "uint256[9]"
						}
					],
					"stateMutability": "view",
					"type": "function"
				},
				{
					"inputs": [
						{
							"internalType": "address",
							"name": "_user",
							"type": "address"
						}
					],
					"name": "getMaxBuyOf",
					"outputs": [
						{
							"internalType": "uint256",
							"name": "",
							"type": "uint256"
						}
					],
					"stateMutability": "view",
					"type": "function"
				},
				{
					"inputs": [],
					"name": "getTotalSale",
					"outputs": [
						{
							"internalType": "uint256",
							"name": "",
							"type": "uint256"
						}
					],
					"stateMutability": "view",
					"type": "function"
				},
				{
					"inputs": [],
					"name": "getUSDCBalance",
					"outputs": [
						{
							"internalType": "uint256",
							"name": "",
							"type": "uint256"
						}
					],
					"stateMutability": "view",
					"type": "function"
				},
				{
					"inputs": [
						{
							"internalType": "address",
							"name": "",
							"type": "address"
						}
					],
					"name": "isPrivateSale",
					"outputs": [
						{
							"internalType": "bool",
							"name": "",
							"type": "bool"
						}
					],
					"stateMutability": "view",
					"type": "function"
				},
				{
					"inputs": [
						{
							"internalType": "contract IERC20",
							"name": "_token",
							"type": "address"
						}
					],
					"name": "moveFund",
					"outputs": [],
					"stateMutability": "nonpayable",
					"type": "function"
				},
				{
					"inputs": [],
					"name": "owner",
					"outputs": [
						{
							"internalType": "address",
							"name": "",
							"type": "address"
						}
					],
					"stateMutability": "view",
					"type": "function"
				},
				{
					"inputs": [],
					"name": "salePrice",
					"outputs": [
						{
							"internalType": "uint256",
							"name": "",
							"type": "uint256"
						}
					],
					"stateMutability": "view",
					"type": "function"
				},
				{
					"inputs": [
						{
							"internalType": "contract IERC20",
							"name": "_grb",
							"type": "address"
						}
					],
					"name": "setGRBToken",
					"outputs": [],
					"stateMutability": "nonpayable",
					"type": "function"
				},
				{
					"inputs": [
						{
							"internalType": "uint256",
							"name": "_value",
							"type": "uint256"
						}
					],
					"name": "setHardCapPerUser",
					"outputs": [],
					"stateMutability": "nonpayable",
					"type": "function"
				},
				{
					"inputs": [
						{
							"internalType": "address",
							"name": "_user",
							"type": "address"
						},
						{
							"internalType": "uint8",
							"name": "_status",
							"type": "uint8"
						}
					],
					"name": "setIsPrivateSale",
					"outputs": [],
					"stateMutability": "nonpayable",
					"type": "function"
				},
				{
					"inputs": [
						{
							"internalType": "uint256",
							"name": "_value",
							"type": "uint256"
						}
					],
					"name": "setMinBuy",
					"outputs": [],
					"stateMutability": "nonpayable",
					"type": "function"
				},
				{
					"inputs": [
						{
							"internalType": "uint256",
							"name": "_value",
							"type": "uint256"
						}
					],
					"name": "setSalePrice",
					"outputs": [],
					"stateMutability": "nonpayable",
					"type": "function"
				},
				{
					"inputs": [
						{
							"internalType": "uint256",
							"name": "_value",
							"type": "uint256"
						}
					],
					"name": "setTotalPrivateSale",
					"outputs": [],
					"stateMutability": "nonpayable",
					"type": "function"
				},
				{
					"inputs": [
						{
							"internalType": "contract IERC20",
							"name": "_usdc",
							"type": "address"
						}
					],
					"name": "setUSDCToken",
					"outputs": [],
					"stateMutability": "nonpayable",
					"type": "function"
				},
				{
					"inputs": [
						{
							"internalType": "address",
							"name": "",
							"type": "address"
						}
					],
					"name": "totalBoughtOf",
					"outputs": [
						{
							"internalType": "uint256",
							"name": "",
							"type": "uint256"
						}
					],
					"stateMutability": "view",
					"type": "function"
				},
				{
					"inputs": [],
					"name": "totalPrivateSale",
					"outputs": [
						{
							"internalType": "uint256",
							"name": "",
							"type": "uint256"
						}
					],
					"stateMutability": "view",
					"type": "function"
				},
				{
					"inputs": [],
					"name": "totalPurchased",
					"outputs": [
						{
							"internalType": "uint256",
							"name": "",
							"type": "uint256"
						}
					],
					"stateMutability": "view",
					"type": "function"
				},
				{
					"inputs": [
						{
							"internalType": "address",
							"name": "_newOwner",
							"type": "address"
						}
					],
					"name": "transferOwnership",
					"outputs": [],
					"stateMutability": "nonpayable",
					"type": "function"
				},
				{
					"stateMutability": "payable",
					"type": "receive"
				}
			],
			"devdoc": {
				"kind": "dev",
				"methods": {},
				"version": 1
			},
			"evm": {
				"assembly": "    /* \"contracts/ProtocolLiquidityLaunch.sol\":8495:14258  contract ProtocolLiquidityLaunch {... */\n  mstore(0x40, 0x80)\n    /* \"contracts/ProtocolLiquidityLaunch.sol\":8557:8560  100 */\n  0x64\n    /* \"contracts/ProtocolLiquidityLaunch.sol\":8534:8560  uint8 public VERSION = 100 */\n  0x00\n  dup1\n  0x0100\n  exp\n  dup2\n  sload\n  dup2\n  0xff\n  mul\n  not\n  and\n  swap1\n  dup4\n  0xff\n  and\n  mul\n  or\n  swap1\n  sstore\n  pop\n    /* \"contracts/ProtocolLiquidityLaunch.sol\":8707:8714  4 * 1e4 */\n  0x9c40\n    /* \"contracts/ProtocolLiquidityLaunch.sol\":8680:8714  uint256 public salePrice = 4 * 1e4 */\n  0x03\n  sstore\n    /* \"contracts/ProtocolLiquidityLaunch.sol\":8836:8851  2 * 5000 * 1e18 */\n  0x021e19e0c9bab2400000\n    /* \"contracts/ProtocolLiquidityLaunch.sol\":8802:8851  uint256 public totalPrivateSale = 2 * 5000 * 1e18 */\n  0x04\n  sstore\n    /* \"contracts/ProtocolLiquidityLaunch.sol\":8901:8902  0 */\n  0x00\n    /* \"contracts/ProtocolLiquidityLaunch.sol\":8869:8902  uint256 public totalPurchased = 0 */\n  0x05\n  sstore\n    /* \"contracts/ProtocolLiquidityLaunch.sol\":8930:8934  true */\n  0x01\n    /* \"contracts/ProtocolLiquidityLaunch.sol\":8909:8934  bool public ENABLE = true */\n  0x06\n  exp(0x0100, 0x00)\n  dup2\n  sload\n  dup2\n  0xff\n  mul\n  not\n  and\n  swap1\n  dup4\n  iszero\n  iszero\n  mul\n  or\n  swap1\n  sstore\n  pop\n    /* \"contracts/ProtocolLiquidityLaunch.sol\":8979:8990  5000 * 1e18 */\n  0x010f0cf064dd59200000\n    /* \"contracts/ProtocolLiquidityLaunch.sol\":8944:8990  uint256 public HARD_CAP_PER_USER = 5000 * 1e18 */\n  0x07\n  sstore\n    /* \"contracts/ProtocolLiquidityLaunch.sol\":9029:9039  750 * 1e18 */\n  0x28a857425466f80000\n    /* \"contracts/ProtocolLiquidityLaunch.sol\":9004:9039  uint256 public MIN_BUY = 750 * 1e18 */\n  0x08\n  sstore\n    /* \"contracts/ProtocolLiquidityLaunch.sol\":9449:9588  constructor(... */\n  callvalue\n  dup1\n  iszero\n  tag_1\n  jumpi\n  0x00\n  dup1\n  revert\ntag_1:\n  pop\n  mload(0x40)\n  sub(codesize, bytecodeSize)\n  dup1\n  bytecodeSize\n  dup4\n  codecopy\n  dup2\n  dup2\n  add\n  0x40\n  mstore\n  dup2\n  add\n  swap1\n  tag_2\n  swap2\n  swap1\n  tag_3\n  jump\t// in\ntag_2:\n    /* \"contracts/ProtocolLiquidityLaunch.sol\":9526:9530  _grb */\n  dup2\n    /* \"contracts/ProtocolLiquidityLaunch.sol\":9520:9523  GRB */\n  0x01\n  0x00\n    /* \"contracts/ProtocolLiquidityLaunch.sol\":9520:9530  GRB = _grb */\n  0x0100\n  exp\n  dup2\n  sload\n  dup2\n  0xffffffffffffffffffffffffffffffffffffffff\n  mul\n  not\n  and\n  swap1\n  dup4\n  0xffffffffffffffffffffffffffffffffffffffff\n  and\n  mul\n  or\n  swap1\n  sstore\n  pop\n    /* \"contracts/ProtocolLiquidityLaunch.sol\":9547:9552  _usdc */\n  dup1\n    /* \"contracts/ProtocolLiquidityLaunch.sol\":9540:9544  USDC */\n  0x02\n  0x00\n    /* \"contracts/ProtocolLiquidityLaunch.sol\":9540:9552  USDC = _usdc */\n  0x0100\n  exp\n  dup2\n  sload\n  dup2\n  0xffffffffffffffffffffffffffffffffffffffff\n  mul\n  not\n  and\n  swap1\n  dup4\n  0xffffffffffffffffffffffffffffffffffffffff\n  and\n  mul\n  or\n  swap1\n  sstore\n  pop\n    /* \"contracts/ProtocolLiquidityLaunch.sol\":9571:9581  msg.sender */\n  caller\n    /* \"contracts/ProtocolLiquidityLaunch.sol\":9563:9568  owner */\n  0x00\n  0x01\n    /* \"contracts/ProtocolLiquidityLaunch.sol\":9563:9581  owner = msg.sender */\n  0x0100\n  exp\n  dup2\n  sload\n  dup2\n  0xffffffffffffffffffffffffffffffffffffffff\n  mul\n  not\n  and\n  swap1\n  dup4\n  0xffffffffffffffffffffffffffffffffffffffff\n  and\n  mul\n  or\n  swap1\n  sstore\n  pop\n    /* \"contracts/ProtocolLiquidityLaunch.sol\":9449:9588  constructor(... */\n  pop\n  pop\n    /* \"contracts/ProtocolLiquidityLaunch.sol\":8495:14258  contract ProtocolLiquidityLaunch {... */\n  jump(tag_6)\n    /* \"#utility.yul\":7:178   */\ntag_8:\n    /* \"#utility.yul\":78:83   */\n  0x00\n    /* \"#utility.yul\":109:115   */\n  dup2\n    /* \"#utility.yul\":103:116   */\n  mload\n    /* \"#utility.yul\":94:116   */\n  swap1\n  pop\n    /* \"#utility.yul\":125:172   */\n  tag_10\n    /* \"#utility.yul\":166:171   */\n  dup2\n    /* \"#utility.yul\":125:172   */\n  tag_11\n  jump\t// in\ntag_10:\n    /* \"#utility.yul\":7:178   */\n  swap3\n  swap2\n  pop\n  pop\n  jump\t// out\n    /* \"#utility.yul\":184:747   */\ntag_3:\n    /* \"#utility.yul\":291:297   */\n  0x00\n    /* \"#utility.yul\":299:305   */\n  dup1\n    /* \"#utility.yul\":348:350   */\n  0x40\n    /* \"#utility.yul\":336:345   */\n  dup4\n    /* \"#utility.yul\":327:334   */\n  dup6\n    /* \"#utility.yul\":323:346   */\n  sub\n    /* \"#utility.yul\":319:351   */\n  slt\n    /* \"#utility.yul\":316:435   */\n  iszero\n  tag_13\n  jumpi\n    /* \"#utility.yul\":354:433   */\n  tag_14\n  tag_15\n  jump\t// in\ntag_14:\n    /* \"#utility.yul\":316:435   */\ntag_13:\n    /* \"#utility.yul\":474:475   */\n  0x00\n    /* \"#utility.yul\":499:577   */\n  tag_16\n    /* \"#utility.yul\":569:576   */\n  dup6\n    /* \"#utility.yul\":560:566   */\n  dup3\n    /* \"#utility.yul\":549:558   */\n  dup7\n    /* \"#utility.yul\":545:567   */\n  add\n    /* \"#utility.yul\":499:577   */\n  tag_8\n  jump\t// in\ntag_16:\n    /* \"#utility.yul\":489:577   */\n  swap3\n  pop\n    /* \"#utility.yul\":445:587   */\n  pop\n    /* \"#utility.yul\":626:628   */\n  0x20\n    /* \"#utility.yul\":652:730   */\n  tag_17\n    /* \"#utility.yul\":722:729   */\n  dup6\n    /* \"#utility.yul\":713:719   */\n  dup3\n    /* \"#utility.yul\":702:711   */\n  dup7\n    /* \"#utility.yul\":698:720   */\n  add\n    /* \"#utility.yul\":652:730   */\n  tag_8\n  jump\t// in\ntag_17:\n    /* \"#utility.yul\":642:730   */\n  swap2\n  pop\n    /* \"#utility.yul\":597:740   */\n  pop\n    /* \"#utility.yul\":184:747   */\n  swap3\n  pop\n  swap3\n  swap1\n  pop\n  jump\t// out\n    /* \"#utility.yul\":834:930   */\ntag_20:\n    /* \"#utility.yul\":871:878   */\n  0x00\n    /* \"#utility.yul\":900:924   */\n  tag_22\n    /* \"#utility.yul\":918:923   */\n  dup3\n    /* \"#utility.yul\":900:924   */\n  tag_23\n  jump\t// in\ntag_22:\n    /* \"#utility.yul\":889:924   */\n  swap1\n  pop\n    /* \"#utility.yul\":834:930   */\n  swap2\n  swap1\n  pop\n  jump\t// out\n    /* \"#utility.yul\":936:1046   */\ntag_24:\n    /* \"#utility.yul\":987:994   */\n  0x00\n    /* \"#utility.yul\":1016:1040   */\n  tag_26\n    /* \"#utility.yul\":1034:1039   */\n  dup3\n    /* \"#utility.yul\":1016:1040   */\n  tag_20\n  jump\t// in\ntag_26:\n    /* \"#utility.yul\":1005:1040   */\n  swap1\n  pop\n    /* \"#utility.yul\":936:1046   */\n  swap2\n  swap1\n  pop\n  jump\t// out\n    /* \"#utility.yul\":1052:1178   */\ntag_23:\n    /* \"#utility.yul\":1089:1096   */\n  0x00\n    /* \"#utility.yul\":1129:1171   */\n  0xffffffffffffffffffffffffffffffffffffffff\n    /* \"#utility.yul\":1122:1127   */\n  dup3\n    /* \"#utility.yul\":1118:1172   */\n  and\n    /* \"#utility.yul\":1107:1172   */\n  swap1\n  pop\n    /* \"#utility.yul\":1052:1178   */\n  swap2\n  swap1\n  pop\n  jump\t// out\n    /* \"#utility.yul\":1307:1424   */\ntag_15:\n    /* \"#utility.yul\":1416:1417   */\n  0x00\n    /* \"#utility.yul\":1413:1414   */\n  dup1\n    /* \"#utility.yul\":1406:1418   */\n  revert\n    /* \"#utility.yul\":1430:1580   */\ntag_11:\n    /* \"#utility.yul\":1517:1555   */\n  tag_32\n    /* \"#utility.yul\":1549:1554   */\n  dup2\n    /* \"#utility.yul\":1517:1555   */\n  tag_24\n  jump\t// in\ntag_32:\n    /* \"#utility.yul\":1510:1515   */\n  dup2\n    /* \"#utility.yul\":1507:1556   */\n  eq\n    /* \"#utility.yul\":1497:1574   */\n  tag_33\n  jumpi\n    /* \"#utility.yul\":1570:1571   */\n  0x00\n    /* \"#utility.yul\":1567:1568   */\n  dup1\n    /* \"#utility.yul\":1560:1572   */\n  revert\n    /* \"#utility.yul\":1497:1574   */\ntag_33:\n    /* \"#utility.yul\":1430:1580   */\n  pop\n  jump\t// out\n    /* \"contracts/ProtocolLiquidityLaunch.sol\":8495:14258  contract ProtocolLiquidityLaunch {... */\ntag_6:\n  dataSize(sub_0)\n  dup1\n  dataOffset(sub_0)\n  0x00\n  codecopy\n  0x00\n  return\nstop\n\nsub_0: assembly {\n        /* \"contracts/ProtocolLiquidityLaunch.sol\":8495:14258  contract ProtocolLiquidityLaunch {... */\n      mstore(0x40, 0x80)\n      jumpi(tag_1, lt(calldatasize, 0x04))\n      shr(0xe0, calldataload(0x00))\n      dup1\n      0x90c8dd17\n      gt\n      tag_31\n      jumpi\n      dup1\n      0xbcaaf662\n      gt\n      tag_32\n      jumpi\n      dup1\n      0xe632c2f3\n      gt\n      tag_33\n      jumpi\n      dup1\n      0xe632c2f3\n      eq\n      tag_27\n      jumpi\n      dup1\n      0xf2fde38b\n      eq\n      tag_28\n      jumpi\n      dup1\n      0xf51f96dd\n      eq\n      tag_29\n      jumpi\n      dup1\n      0xffa1ad74\n      eq\n      tag_30\n      jumpi\n      jump(tag_2)\n    tag_33:\n      dup1\n      0xbcaaf662\n      eq\n      tag_24\n      jumpi\n      dup1\n      0xd96a094a\n      eq\n      tag_25\n      jumpi\n      dup1\n      0xe303151f\n      eq\n      tag_26\n      jumpi\n      jump(tag_2)\n    tag_32:\n      dup1\n      0xa3907d71\n      gt\n      tag_34\n      jumpi\n      dup1\n      0xa3907d71\n      eq\n      tag_20\n      jumpi\n      dup1\n      0xa85f70f3\n      eq\n      tag_21\n      jumpi\n      dup1\n      0xb0176ce8\n      eq\n      tag_22\n      jumpi\n      dup1\n      0xb2a82cbb\n      eq\n      tag_23\n      jumpi\n      jump(tag_2)\n    tag_34:\n      dup1\n      0x90c8dd17\n      eq\n      tag_17\n      jumpi\n      dup1\n      0x92f6386a\n      eq\n      tag_18\n      jumpi\n      dup1\n      0xa2b0106b\n      eq\n      tag_19\n      jumpi\n      jump(tag_2)\n    tag_31:\n      dup1\n      0x3c6c26f9\n      gt\n      tag_35\n      jumpi\n      dup1\n      0x67cc7428\n      gt\n      tag_36\n      jumpi\n      dup1\n      0x67cc7428\n      eq\n      tag_13\n      jumpi\n      dup1\n      0x860779e7\n      eq\n      tag_14\n      jumpi\n      dup1\n      0x89a30271\n      eq\n      tag_15\n      jumpi\n      dup1\n      0x8da5cb5b\n      eq\n      tag_16\n      jumpi\n      jump(tag_2)\n    tag_36:\n      dup1\n      0x3c6c26f9\n      eq\n      tag_10\n      jumpi\n      dup1\n      0x3cfd1ccc\n      eq\n      tag_11\n      jumpi\n      dup1\n      0x50c19c0b\n      eq\n      tag_12\n      jumpi\n      jump(tag_2)\n    tag_35:\n      dup1\n      0x2acfc3da\n      gt\n      tag_37\n      jumpi\n      dup1\n      0x2acfc3da\n      eq\n      tag_6\n      jumpi\n      dup1\n      0x2f2770db\n      eq\n      tag_7\n      jumpi\n      dup1\n      0x38266b22\n      eq\n      tag_8\n      jumpi\n      dup1\n      0x3af96b90\n      eq\n      tag_9\n      jumpi\n      jump(tag_2)\n    tag_37:\n      dup1\n      0x0f5a9d01\n      eq\n      tag_3\n      jumpi\n      dup1\n      0x1919fed7\n      eq\n      tag_4\n      jumpi\n      dup1\n      0x1f2475bd\n      eq\n      tag_5\n      jumpi\n      jump(tag_2)\n    tag_1:\n      jumpi(tag_2, calldatasize)\n      stop\n    tag_2:\n      0x00\n      dup1\n      revert\n        /* \"contracts/ProtocolLiquidityLaunch.sol\":10024:10172  function setUSDCToken(IERC20 _usdc) public onlyOwner {... */\n    tag_3:\n      callvalue\n      dup1\n      iszero\n      tag_40\n      jumpi\n      0x00\n      dup1\n      revert\n    tag_40:\n      pop\n      tag_41\n      0x04\n      dup1\n      calldatasize\n      sub\n      dup2\n      add\n      swap1\n      tag_42\n      swap2\n      swap1\n      tag_43\n      jump\t// in\n    tag_42:\n      tag_44\n      jump\t// in\n    tag_41:\n      stop\n        /* \"contracts/ProtocolLiquidityLaunch.sol\":10178:10269  function setSalePrice(uint256 _value) public onlyOwner {... */\n    tag_4:\n      callvalue\n      dup1\n      iszero\n      tag_45\n      jumpi\n      0x00\n      dup1\n      revert\n    tag_45:\n      pop\n      tag_46\n      0x04\n      dup1\n      calldatasize\n      sub\n      dup2\n      add\n      swap1\n      tag_47\n      swap2\n      swap1\n      tag_48\n      jump\t// in\n    tag_47:\n      tag_49\n      jump\t// in\n    tag_46:\n      stop\n        /* \"contracts/ProtocolLiquidityLaunch.sol\":13324:13429  function getTotalSale() public view returns(uint256) {... */\n    tag_5:\n      callvalue\n      dup1\n      iszero\n      tag_50\n      jumpi\n      0x00\n      dup1\n      revert\n    tag_50:\n      pop\n      tag_51\n      tag_52\n      jump\t// in\n    tag_51:\n      mload(0x40)\n      tag_53\n      swap2\n      swap1\n      tag_54\n      jump\t// in\n    tag_53:\n      mload(0x40)\n      dup1\n      swap2\n      sub\n      swap1\n      return\n        /* \"contracts/ProtocolLiquidityLaunch.sol\":9875:10018  function setGRBToken(IERC20 _grb) public onlyOwner {... */\n    tag_6:\n      callvalue\n      dup1\n      iszero\n      tag_55\n      jumpi\n      0x00\n      dup1\n      revert\n    tag_55:\n      pop\n      tag_56\n      0x04\n      dup1\n      calldatasize\n      sub\n      dup2\n      add\n      swap1\n      tag_57\n      swap2\n      swap1\n      tag_43\n      jump\t// in\n    tag_57:\n      tag_58\n      jump\t// in\n    tag_56:\n      stop\n        /* \"contracts/ProtocolLiquidityLaunch.sol\":9699:9766  function disable() public onlyOwner {... */\n    tag_7:\n      callvalue\n      dup1\n      iszero\n      tag_59\n      jumpi\n      0x00\n      dup1\n      revert\n    tag_59:\n      pop\n      tag_60\n      tag_61\n      jump\t// in\n    tag_60:\n      stop\n        /* \"contracts/ProtocolLiquidityLaunch.sol\":13802:14253  function getData(address _user) public view returns(uint256[9] memory data_) {... */\n    tag_8:\n      callvalue\n      dup1\n      iszero\n      tag_62\n      jumpi\n      0x00\n      dup1\n      revert\n    tag_62:\n      pop\n      tag_63\n      0x04\n      dup1\n      calldatasize\n      sub\n      dup2\n      add\n      swap1\n      tag_64\n      swap2\n      swap1\n      tag_65\n      jump\t// in\n    tag_64:\n      tag_66\n      jump\t// in\n    tag_63:\n      mload(0x40)\n      tag_67\n      swap2\n      swap1\n      tag_68\n      jump\t// in\n    tag_67:\n      mload(0x40)\n      dup1\n      swap2\n      sub\n      swap1\n      return\n        /* \"contracts/ProtocolLiquidityLaunch.sol\":9004:9039  uint256 public MIN_BUY = 750 * 1e18 */\n    tag_9:\n      callvalue\n      dup1\n      iszero\n      tag_69\n      jumpi\n      0x00\n      dup1\n      revert\n    tag_69:\n      pop\n      tag_70\n      tag_71\n      jump\t// in\n    tag_70:\n      mload(0x40)\n      tag_72\n      swap2\n      swap1\n      tag_54\n      jump\t// in\n    tag_72:\n      mload(0x40)\n      dup1\n      swap2\n      sub\n      swap1\n      return\n        /* \"contracts/ProtocolLiquidityLaunch.sol\":12303:12456  function moveFund(IERC20 _token) public onlyOwner {... */\n    tag_10:\n      callvalue\n      dup1\n      iszero\n      tag_73\n      jumpi\n      0x00\n      dup1\n      revert\n    tag_73:\n      pop\n      tag_74\n      0x04\n      dup1\n      calldatasize\n      sub\n      dup2\n      add\n      swap1\n      tag_75\n      swap2\n      swap1\n      tag_43\n      jump\t// in\n    tag_75:\n      tag_76\n      jump\t// in\n    tag_74:\n      stop\n        /* \"contracts/ProtocolLiquidityLaunch.sol\":13211:13319  function getUSDCBalance() public view returns(uint256) {... */\n    tag_11:\n      callvalue\n      dup1\n      iszero\n      tag_77\n      jumpi\n      0x00\n      dup1\n      revert\n    tag_77:\n      pop\n      tag_78\n      tag_79\n      jump\t// in\n    tag_78:\n      mload(0x40)\n      tag_80\n      swap2\n      swap1\n      tag_54\n      jump\t// in\n    tag_80:\n      mload(0x40)\n      dup1\n      swap2\n      sub\n      swap1\n      return\n        /* \"contracts/ProtocolLiquidityLaunch.sol\":8944:8990  uint256 public HARD_CAP_PER_USER = 5000 * 1e18 */\n    tag_12:\n      callvalue\n      dup1\n      iszero\n      tag_81\n      jumpi\n      0x00\n      dup1\n      revert\n    tag_81:\n      pop\n      tag_82\n      tag_83\n      jump\t// in\n    tag_82:\n      mload(0x40)\n      tag_84\n      swap2\n      swap1\n      tag_54\n      jump\t// in\n    tag_84:\n      mload(0x40)\n      dup1\n      swap2\n      sub\n      swap1\n      return\n        /* \"contracts/ProtocolLiquidityLaunch.sol\":9107:9152  mapping(address => bool) public isPrivateSale */\n    tag_13:\n      callvalue\n      dup1\n      iszero\n      tag_85\n      jumpi\n      0x00\n      dup1\n      revert\n    tag_85:\n      pop\n      tag_86\n      0x04\n      dup1\n      calldatasize\n      sub\n      dup2\n      add\n      swap1\n      tag_87\n      swap2\n      swap1\n      tag_65\n      jump\t// in\n    tag_87:\n      tag_88\n      jump\t// in\n    tag_86:\n      mload(0x40)\n      tag_89\n      swap2\n      swap1\n      tag_90\n      jump\t// in\n    tag_89:\n      mload(0x40)\n      dup1\n      swap2\n      sub\n      swap1\n      return\n        /* \"contracts/ProtocolLiquidityLaunch.sol\":10721:10806  function setMinBuy(uint256 _value) public onlyOwner {... */\n    tag_14:\n      callvalue\n      dup1\n      iszero\n      tag_91\n      jumpi\n      0x00\n      dup1\n      revert\n    tag_91:\n      pop\n      tag_92\n      0x04\n      dup1\n      calldatasize\n      sub\n      dup2\n      add\n      swap1\n      tag_93\n      swap2\n      swap1\n      tag_48\n      jump\t// in\n    tag_93:\n      tag_94\n      jump\t// in\n    tag_92:\n      stop\n        /* \"contracts/ProtocolLiquidityLaunch.sol\":8654:8672  IERC20 public USDC */\n    tag_15:\n      callvalue\n      dup1\n      iszero\n      tag_95\n      jumpi\n      0x00\n      dup1\n      revert\n    tag_95:\n      pop\n      tag_96\n      tag_97\n      jump\t// in\n    tag_96:\n      mload(0x40)\n      tag_98\n      swap2\n      swap1\n      tag_99\n      jump\t// in\n    tag_98:\n      mload(0x40)\n      dup1\n      swap2\n      sub\n      swap1\n      return\n        /* \"contracts/ProtocolLiquidityLaunch.sol\":8603:8623  address public owner */\n    tag_16:\n      callvalue\n      dup1\n      iszero\n      tag_100\n      jumpi\n      0x00\n      dup1\n      revert\n    tag_100:\n      pop\n      tag_101\n      tag_102\n      jump\t// in\n    tag_101:\n      mload(0x40)\n      tag_103\n      swap2\n      swap1\n      tag_104\n      jump\t// in\n    tag_103:\n      mload(0x40)\n      dup1\n      swap2\n      sub\n      swap1\n      return\n        /* \"contracts/ProtocolLiquidityLaunch.sol\":12461:13201  function getMaxBuyOf(address _user) public view returns(uint256) {... */\n    tag_17:\n      callvalue\n      dup1\n      iszero\n      tag_105\n      jumpi\n      0x00\n      dup1\n      revert\n    tag_105:\n      pop\n      tag_106\n      0x04\n      dup1\n      calldatasize\n      sub\n      dup2\n      add\n      swap1\n      tag_107\n      swap2\n      swap1\n      tag_65\n      jump\t// in\n    tag_107:\n      tag_108\n      jump\t// in\n    tag_106:\n      mload(0x40)\n      tag_109\n      swap2\n      swap1\n      tag_54\n      jump\t// in\n    tag_109:\n      mload(0x40)\n      dup1\n      swap2\n      sub\n      swap1\n      return\n        /* \"contracts/ProtocolLiquidityLaunch.sol\":8909:8934  bool public ENABLE = true */\n    tag_18:\n      callvalue\n      dup1\n      iszero\n      tag_110\n      jumpi\n      0x00\n      dup1\n      revert\n    tag_110:\n      pop\n      tag_111\n      tag_112\n      jump\t// in\n    tag_111:\n      mload(0x40)\n      tag_113\n      swap2\n      swap1\n      tag_90\n      jump\t// in\n    tag_113:\n      mload(0x40)\n      dup1\n      swap2\n      sub\n      swap1\n      return\n        /* \"contracts/ProtocolLiquidityLaunch.sol\":10612:10715  function setHardCapPerUser(uint256 _value) public onlyOwner {... */\n    tag_19:\n      callvalue\n      dup1\n      iszero\n      tag_114\n      jumpi\n      0x00\n      dup1\n      revert\n    tag_114:\n      pop\n      tag_115\n      0x04\n      dup1\n      calldatasize\n      sub\n      dup2\n      add\n      swap1\n      tag_116\n      swap2\n      swap1\n      tag_48\n      jump\t// in\n    tag_116:\n      tag_117\n      jump\t// in\n    tag_115:\n      stop\n        /* \"contracts/ProtocolLiquidityLaunch.sol\":9629:9694  function enable() public onlyOwner {... */\n    tag_20:\n      callvalue\n      dup1\n      iszero\n      tag_118\n      jumpi\n      0x00\n      dup1\n      revert\n    tag_118:\n      pop\n      tag_119\n      tag_120\n      jump\t// in\n    tag_119:\n      stop\n        /* \"contracts/ProtocolLiquidityLaunch.sol\":8802:8851  uint256 public totalPrivateSale = 2 * 5000 * 1e18 */\n    tag_21:\n      callvalue\n      dup1\n      iszero\n      tag_121\n      jumpi\n      0x00\n      dup1\n      revert\n    tag_121:\n      pop\n      tag_122\n      tag_123\n      jump\t// in\n    tag_122:\n      mload(0x40)\n      tag_124\n      swap2\n      swap1\n      tag_54\n      jump\t// in\n    tag_124:\n      mload(0x40)\n      dup1\n      swap2\n      sub\n      swap1\n      return\n        /* \"contracts/ProtocolLiquidityLaunch.sol\":8630:8647  IERC20 public GRB */\n    tag_22:\n      callvalue\n      dup1\n      iszero\n      tag_125\n      jumpi\n      0x00\n      dup1\n      revert\n    tag_125:\n      pop\n      tag_126\n      tag_127\n      jump\t// in\n    tag_126:\n      mload(0x40)\n      tag_128\n      swap2\n      swap1\n      tag_99\n      jump\t// in\n    tag_128:\n      mload(0x40)\n      dup1\n      swap2\n      sub\n      swap1\n      return\n        /* \"contracts/ProtocolLiquidityLaunch.sol\":10274:10378  function setTotalPrivateSale(uint256 _value) public onlyOwner {... */\n    tag_23:\n      callvalue\n      dup1\n      iszero\n      tag_129\n      jumpi\n      0x00\n      dup1\n      revert\n    tag_129:\n      pop\n      tag_130\n      0x04\n      dup1\n      calldatasize\n      sub\n      dup2\n      add\n      swap1\n      tag_131\n      swap2\n      swap1\n      tag_48\n      jump\t// in\n    tag_131:\n      tag_132\n      jump\t// in\n    tag_130:\n      stop\n        /* \"contracts/ProtocolLiquidityLaunch.sol\":9053:9101  mapping(address => uint256) public totalBoughtOf */\n    tag_24:\n      callvalue\n      dup1\n      iszero\n      tag_133\n      jumpi\n      0x00\n      dup1\n      revert\n    tag_133:\n      pop\n      tag_134\n      0x04\n      dup1\n      calldatasize\n      sub\n      dup2\n      add\n      swap1\n      tag_135\n      swap2\n      swap1\n      tag_65\n      jump\t// in\n    tag_135:\n      tag_136\n      jump\t// in\n    tag_134:\n      mload(0x40)\n      tag_137\n      swap2\n      swap1\n      tag_54\n      jump\t// in\n    tag_137:\n      mload(0x40)\n      dup1\n      swap2\n      sub\n      swap1\n      return\n        /* \"contracts/ProtocolLiquidityLaunch.sol\":10812:11909  function buy(uint256 _payAmt) public onlyWhitelisted {... */\n    tag_25:\n      callvalue\n      dup1\n      iszero\n      tag_138\n      jumpi\n      0x00\n      dup1\n      revert\n    tag_138:\n      pop\n      tag_139\n      0x04\n      dup1\n      calldatasize\n      sub\n      dup2\n      add\n      swap1\n      tag_140\n      swap2\n      swap1\n      tag_48\n      jump\t// in\n    tag_140:\n      tag_141\n      jump\t// in\n    tag_139:\n      stop\n        /* \"contracts/ProtocolLiquidityLaunch.sol\":10383:10606  function setIsPrivateSale(address _user, uint8 _status) public onlyOwner ... */\n    tag_26:\n      callvalue\n      dup1\n      iszero\n      tag_142\n      jumpi\n      0x00\n      dup1\n      revert\n    tag_142:\n      pop\n      tag_143\n      0x04\n      dup1\n      calldatasize\n      sub\n      dup2\n      add\n      swap1\n      tag_144\n      swap2\n      swap1\n      tag_145\n      jump\t// in\n    tag_144:\n      tag_146\n      jump\t// in\n    tag_143:\n      stop\n        /* \"contracts/ProtocolLiquidityLaunch.sol\":8869:8902  uint256 public totalPurchased = 0 */\n    tag_27:\n      callvalue\n      dup1\n      iszero\n      tag_147\n      jumpi\n      0x00\n      dup1\n      revert\n    tag_147:\n      pop\n      tag_148\n      tag_149\n      jump\t// in\n    tag_148:\n      mload(0x40)\n      tag_150\n      swap2\n      swap1\n      tag_54\n      jump\t// in\n    tag_150:\n      mload(0x40)\n      dup1\n      swap2\n      sub\n      swap1\n      return\n        /* \"contracts/ProtocolLiquidityLaunch.sol\":9772:9869  function transferOwnership(address _newOwner) public onlyOwner {... */\n    tag_28:\n      callvalue\n      dup1\n      iszero\n      tag_151\n      jumpi\n      0x00\n      dup1\n      revert\n    tag_151:\n      pop\n      tag_152\n      0x04\n      dup1\n      calldatasize\n      sub\n      dup2\n      add\n      swap1\n      tag_153\n      swap2\n      swap1\n      tag_65\n      jump\t// in\n    tag_153:\n      tag_154\n      jump\t// in\n    tag_152:\n      stop\n        /* \"contracts/ProtocolLiquidityLaunch.sol\":8680:8714  uint256 public salePrice = 4 * 1e4 */\n    tag_29:\n      callvalue\n      dup1\n      iszero\n      tag_155\n      jumpi\n      0x00\n      dup1\n      revert\n    tag_155:\n      pop\n      tag_156\n      tag_157\n      jump\t// in\n    tag_156:\n      mload(0x40)\n      tag_158\n      swap2\n      swap1\n      tag_54\n      jump\t// in\n    tag_158:\n      mload(0x40)\n      dup1\n      swap2\n      sub\n      swap1\n      return\n        /* \"contracts/ProtocolLiquidityLaunch.sol\":8534:8560  uint8 public VERSION = 100 */\n    tag_30:\n      callvalue\n      dup1\n      iszero\n      tag_159\n      jumpi\n      0x00\n      dup1\n      revert\n    tag_159:\n      pop\n      tag_160\n      tag_161\n      jump\t// in\n    tag_160:\n      mload(0x40)\n      tag_162\n      swap2\n      swap1\n      tag_163\n      jump\t// in\n    tag_162:\n      mload(0x40)\n      dup1\n      swap2\n      sub\n      swap1\n      return\n        /* \"contracts/ProtocolLiquidityLaunch.sol\":10024:10172  function setUSDCToken(IERC20 _usdc) public onlyOwner {... */\n    tag_44:\n        /* \"contracts/ProtocolLiquidityLaunch.sol\":9212:9217  owner */\n      0x00\n      0x01\n      swap1\n      sload\n      swap1\n      0x0100\n      exp\n      swap1\n      div\n      0xffffffffffffffffffffffffffffffffffffffff\n      and\n        /* \"contracts/ProtocolLiquidityLaunch.sol\":9198:9217  msg.sender == owner */\n      0xffffffffffffffffffffffffffffffffffffffff\n      and\n        /* \"contracts/ProtocolLiquidityLaunch.sol\":9198:9208  msg.sender */\n      caller\n        /* \"contracts/ProtocolLiquidityLaunch.sol\":9198:9217  msg.sender == owner */\n      0xffffffffffffffffffffffffffffffffffffffff\n      and\n      eq\n        /* \"contracts/ProtocolLiquidityLaunch.sol\":9190:9240  require(msg.sender == owner, 'INVALID_PERMISSION') */\n      tag_165\n      jumpi\n      mload(0x40)\n      0x08c379a000000000000000000000000000000000000000000000000000000000\n      dup2\n      mstore\n      0x04\n      add\n      tag_166\n      swap1\n      tag_167\n      jump\t// in\n    tag_166:\n      mload(0x40)\n      dup1\n      swap2\n      sub\n      swap1\n      revert\n    tag_165:\n        /* \"contracts/ProtocolLiquidityLaunch.sol\":10121:10122  0 */\n      0x00\n        /* \"contracts/ProtocolLiquidityLaunch.sol\":10095:10123  address(_usdc) != address(0) */\n      0xffffffffffffffffffffffffffffffffffffffff\n      and\n        /* \"contracts/ProtocolLiquidityLaunch.sol\":10103:10108  _usdc */\n      dup2\n        /* \"contracts/ProtocolLiquidityLaunch.sol\":10095:10123  address(_usdc) != address(0) */\n      0xffffffffffffffffffffffffffffffffffffffff\n      and\n      eq\n      iszero\n        /* \"contracts/ProtocolLiquidityLaunch.sol\":10087:10143  require(address(_usdc) != address(0), \"INVALID_ADDRESS\") */\n      tag_169\n      jumpi\n      mload(0x40)\n      0x08c379a000000000000000000000000000000000000000000000000000000000\n      dup2\n      mstore\n      0x04\n      add\n      tag_170\n      swap1\n      tag_171\n      jump\t// in\n    tag_170:\n      mload(0x40)\n      dup1\n      swap2\n      sub\n      swap1\n      revert\n    tag_169:\n        /* \"contracts/ProtocolLiquidityLaunch.sol\":10160:10165  _usdc */\n      dup1\n        /* \"contracts/ProtocolLiquidityLaunch.sol\":10153:10157  USDC */\n      0x02\n      0x00\n        /* \"contracts/ProtocolLiquidityLaunch.sol\":10153:10165  USDC = _usdc */\n      0x0100\n      exp\n      dup2\n      sload\n      dup2\n      0xffffffffffffffffffffffffffffffffffffffff\n      mul\n      not\n      and\n      swap1\n      dup4\n      0xffffffffffffffffffffffffffffffffffffffff\n      and\n      mul\n      or\n      swap1\n      sstore\n      pop\n        /* \"contracts/ProtocolLiquidityLaunch.sol\":10024:10172  function setUSDCToken(IERC20 _usdc) public onlyOwner {... */\n      pop\n      jump\t// out\n        /* \"contracts/ProtocolLiquidityLaunch.sol\":10178:10269  function setSalePrice(uint256 _value) public onlyOwner {... */\n    tag_49:\n        /* \"contracts/ProtocolLiquidityLaunch.sol\":9212:9217  owner */\n      0x00\n      0x01\n      swap1\n      sload\n      swap1\n      0x0100\n      exp\n      swap1\n      div\n      0xffffffffffffffffffffffffffffffffffffffff\n      and\n        /* \"contracts/ProtocolLiquidityLaunch.sol\":9198:9217  msg.sender == owner */\n      0xffffffffffffffffffffffffffffffffffffffff\n      and\n        /* \"contracts/ProtocolLiquidityLaunch.sol\":9198:9208  msg.sender */\n      caller\n        /* \"contracts/ProtocolLiquidityLaunch.sol\":9198:9217  msg.sender == owner */\n      0xffffffffffffffffffffffffffffffffffffffff\n      and\n      eq\n        /* \"contracts/ProtocolLiquidityLaunch.sol\":9190:9240  require(msg.sender == owner, 'INVALID_PERMISSION') */\n      tag_173\n      jumpi\n      mload(0x40)\n      0x08c379a000000000000000000000000000000000000000000000000000000000\n      dup2\n      mstore\n      0x04\n      add\n      tag_174\n      swap1\n      tag_167\n      jump\t// in\n    tag_174:\n      mload(0x40)\n      dup1\n      swap2\n      sub\n      swap1\n      revert\n    tag_173:\n        /* \"contracts/ProtocolLiquidityLaunch.sol\":10255:10261  _value */\n      dup1\n        /* \"contracts/ProtocolLiquidityLaunch.sol\":10243:10252  salePrice */\n      0x03\n        /* \"contracts/ProtocolLiquidityLaunch.sol\":10243:10261  salePrice = _value */\n      dup2\n      swap1\n      sstore\n      pop\n        /* \"contracts/ProtocolLiquidityLaunch.sol\":10178:10269  function setSalePrice(uint256 _value) public onlyOwner {... */\n      pop\n      jump\t// out\n        /* \"contracts/ProtocolLiquidityLaunch.sol\":13324:13429  function getTotalSale() public view returns(uint256) {... */\n    tag_52:\n        /* \"contracts/ProtocolLiquidityLaunch.sol\":13368:13375  uint256 */\n      0x00\n        /* \"contracts/ProtocolLiquidityLaunch.sol\":13394:13397  GRB */\n      0x01\n      0x00\n      swap1\n      sload\n      swap1\n      0x0100\n      exp\n      swap1\n      div\n      0xffffffffffffffffffffffffffffffffffffffff\n      and\n        /* \"contracts/ProtocolLiquidityLaunch.sol\":13394:13407  GRB.balanceOf */\n      0xffffffffffffffffffffffffffffffffffffffff\n      and\n      0x70a08231\n        /* \"contracts/ProtocolLiquidityLaunch.sol\":13416:13420  this */\n      address\n        /* \"contracts/ProtocolLiquidityLaunch.sol\":13394:13422  GRB.balanceOf(address(this)) */\n      mload(0x40)\n      dup3\n      0xffffffff\n      and\n      0xe0\n      shl\n      dup2\n      mstore\n      0x04\n      add\n      tag_177\n      swap2\n      swap1\n      tag_104\n      jump\t// in\n    tag_177:\n      0x20\n      mload(0x40)\n      dup1\n      dup4\n      sub\n      dup2\n      dup7\n      dup1\n      extcodesize\n      iszero\n      dup1\n      iszero\n      tag_178\n      jumpi\n      0x00\n      dup1\n      revert\n    tag_178:\n      pop\n      gas\n      staticcall\n      iszero\n      dup1\n      iszero\n      tag_180\n      jumpi\n      returndatasize\n      0x00\n      dup1\n      returndatacopy\n      revert(0x00, returndatasize)\n    tag_180:\n      pop\n      pop\n      pop\n      pop\n      mload(0x40)\n      returndatasize\n      not(0x1f)\n      0x1f\n      dup3\n      add\n      and\n      dup3\n      add\n      dup1\n      0x40\n      mstore\n      pop\n      dup2\n      add\n      swap1\n      tag_181\n      swap2\n      swap1\n      tag_182\n      jump\t// in\n    tag_181:\n        /* \"contracts/ProtocolLiquidityLaunch.sol\":13387:13422  return GRB.balanceOf(address(this)) */\n      swap1\n      pop\n        /* \"contracts/ProtocolLiquidityLaunch.sol\":13324:13429  function getTotalSale() public view returns(uint256) {... */\n      swap1\n      jump\t// out\n        /* \"contracts/ProtocolLiquidityLaunch.sol\":9875:10018  function setGRBToken(IERC20 _grb) public onlyOwner {... */\n    tag_58:\n        /* \"contracts/ProtocolLiquidityLaunch.sol\":9212:9217  owner */\n      0x00\n      0x01\n      swap1\n      sload\n      swap1\n      0x0100\n      exp\n      swap1\n      div\n      0xffffffffffffffffffffffffffffffffffffffff\n      and\n        /* \"contracts/ProtocolLiquidityLaunch.sol\":9198:9217  msg.sender == owner */\n      0xffffffffffffffffffffffffffffffffffffffff\n      and\n        /* \"contracts/ProtocolLiquidityLaunch.sol\":9198:9208  msg.sender */\n      caller\n        /* \"contracts/ProtocolLiquidityLaunch.sol\":9198:9217  msg.sender == owner */\n      0xffffffffffffffffffffffffffffffffffffffff\n      and\n      eq\n        /* \"contracts/ProtocolLiquidityLaunch.sol\":9190:9240  require(msg.sender == owner, 'INVALID_PERMISSION') */\n      tag_184\n      jumpi\n      mload(0x40)\n      0x08c379a000000000000000000000000000000000000000000000000000000000\n      dup2\n      mstore\n      0x04\n      add\n      tag_185\n      swap1\n      tag_167\n      jump\t// in\n    tag_185:\n      mload(0x40)\n      dup1\n      swap2\n      sub\n      swap1\n      revert\n    tag_184:\n        /* \"contracts/ProtocolLiquidityLaunch.sol\":9969:9970  0 */\n      0x00\n        /* \"contracts/ProtocolLiquidityLaunch.sol\":9944:9971  address(_grb) != address(0) */\n      0xffffffffffffffffffffffffffffffffffffffff\n      and\n        /* \"contracts/ProtocolLiquidityLaunch.sol\":9952:9956  _grb */\n      dup2\n        /* \"contracts/ProtocolLiquidityLaunch.sol\":9944:9971  address(_grb) != address(0) */\n      0xffffffffffffffffffffffffffffffffffffffff\n      and\n      eq\n      iszero\n        /* \"contracts/ProtocolLiquidityLaunch.sol\":9936:9991  require(address(_grb) != address(0), \"INVALID_ADDRESS\") */\n      tag_187\n      jumpi\n      mload(0x40)\n      0x08c379a000000000000000000000000000000000000000000000000000000000\n      dup2\n      mstore\n      0x04\n      add\n      tag_188\n      swap1\n      tag_171\n      jump\t// in\n    tag_188:\n      mload(0x40)\n      dup1\n      swap2\n      sub\n      swap1\n      revert\n    tag_187:\n        /* \"contracts/ProtocolLiquidityLaunch.sol\":10007:10011  _grb */\n      dup1\n        /* \"contracts/ProtocolLiquidityLaunch.sol\":10001:10004  GRB */\n      0x01\n      0x00\n        /* \"contracts/ProtocolLiquidityLaunch.sol\":10001:10011  GRB = _grb */\n      0x0100\n      exp\n      dup2\n      sload\n      dup2\n      0xffffffffffffffffffffffffffffffffffffffff\n      mul\n      not\n      and\n      swap1\n      dup4\n      0xffffffffffffffffffffffffffffffffffffffff\n      and\n      mul\n      or\n      swap1\n      sstore\n      pop\n        /* \"contracts/ProtocolLiquidityLaunch.sol\":9875:10018  function setGRBToken(IERC20 _grb) public onlyOwner {... */\n      pop\n      jump\t// out\n        /* \"contracts/ProtocolLiquidityLaunch.sol\":9699:9766  function disable() public onlyOwner {... */\n    tag_61:\n        /* \"contracts/ProtocolLiquidityLaunch.sol\":9212:9217  owner */\n      0x00\n      0x01\n      swap1\n      sload\n      swap1\n      0x0100\n      exp\n      swap1\n      div\n      0xffffffffffffffffffffffffffffffffffffffff\n      and\n        /* \"contracts/ProtocolLiquidityLaunch.sol\":9198:9217  msg.sender == owner */\n      0xffffffffffffffffffffffffffffffffffffffff\n      and\n        /* \"contracts/ProtocolLiquidityLaunch.sol\":9198:9208  msg.sender */\n      caller\n        /* \"contracts/ProtocolLiquidityLaunch.sol\":9198:9217  msg.sender == owner */\n      0xffffffffffffffffffffffffffffffffffffffff\n      and\n      eq\n        /* \"contracts/ProtocolLiquidityLaunch.sol\":9190:9240  require(msg.sender == owner, 'INVALID_PERMISSION') */\n      tag_190\n      jumpi\n      mload(0x40)\n      0x08c379a000000000000000000000000000000000000000000000000000000000\n      dup2\n      mstore\n      0x04\n      add\n      tag_191\n      swap1\n      tag_167\n      jump\t// in\n    tag_191:\n      mload(0x40)\n      dup1\n      swap2\n      sub\n      swap1\n      revert\n    tag_190:\n        /* \"contracts/ProtocolLiquidityLaunch.sol\":9754:9759  false */\n      0x00\n        /* \"contracts/ProtocolLiquidityLaunch.sol\":9745:9751  ENABLE */\n      0x06\n      0x00\n        /* \"contracts/ProtocolLiquidityLaunch.sol\":9745:9759  ENABLE = false */\n      0x0100\n      exp\n      dup2\n      sload\n      dup2\n      0xff\n      mul\n      not\n      and\n      swap1\n      dup4\n      iszero\n      iszero\n      mul\n      or\n      swap1\n      sstore\n      pop\n        /* \"contracts/ProtocolLiquidityLaunch.sol\":9699:9766  function disable() public onlyOwner {... */\n      jump\t// out\n        /* \"contracts/ProtocolLiquidityLaunch.sol\":13802:14253  function getData(address _user) public view returns(uint256[9] memory data_) {... */\n    tag_66:\n        /* \"contracts/ProtocolLiquidityLaunch.sol\":13854:13877  uint256[9] memory data_ */\n      tag_193\n      tag_194\n      jump\t// in\n    tag_193:\n        /* \"contracts/ProtocolLiquidityLaunch.sol\":13900:13904  USDC */\n      0x02\n      0x00\n      swap1\n      sload\n      swap1\n      0x0100\n      exp\n      swap1\n      div\n      0xffffffffffffffffffffffffffffffffffffffff\n      and\n        /* \"contracts/ProtocolLiquidityLaunch.sol\":13900:13914  USDC.balanceOf */\n      0xffffffffffffffffffffffffffffffffffffffff\n      and\n      0x70a08231\n        /* \"contracts/ProtocolLiquidityLaunch.sol\":13915:13920  _user */\n      dup4\n        /* \"contracts/ProtocolLiquidityLaunch.sol\":13900:13921  USDC.balanceOf(_user) */\n      mload(0x40)\n      dup3\n      0xffffffff\n      and\n      0xe0\n      shl\n      dup2\n      mstore\n      0x04\n      add\n      tag_196\n      swap2\n      swap1\n      tag_104\n      jump\t// in\n    tag_196:\n      0x20\n      mload(0x40)\n      dup1\n      dup4\n      sub\n      dup2\n      dup7\n      dup1\n      extcodesize\n      iszero\n      dup1\n      iszero\n      tag_197\n      jumpi\n      0x00\n      dup1\n      revert\n    tag_197:\n      pop\n      gas\n      staticcall\n      iszero\n      dup1\n      iszero\n      tag_199\n      jumpi\n      returndatasize\n      0x00\n      dup1\n      returndatacopy\n      revert(0x00, returndatasize)\n    tag_199:\n      pop\n      pop\n      pop\n      pop\n      mload(0x40)\n      returndatasize\n      not(0x1f)\n      0x1f\n      dup3\n      add\n      and\n      dup3\n      add\n      dup1\n      0x40\n      mstore\n      pop\n      dup2\n      add\n      swap1\n      tag_200\n      swap2\n      swap1\n      tag_182\n      jump\t// in\n    tag_200:\n        /* \"contracts/ProtocolLiquidityLaunch.sol\":13889:13894  data_ */\n      dup2\n        /* \"contracts/ProtocolLiquidityLaunch.sol\":13895:13896  0 */\n      0x00\n        /* \"contracts/ProtocolLiquidityLaunch.sol\":13889:13897  data_[0] */\n      0x09\n      dup2\n      lt\n      tag_201\n      jumpi\n      tag_202\n      tag_203\n      jump\t// in\n    tag_202:\n    tag_201:\n      0x20\n      mul\n      add\n        /* \"contracts/ProtocolLiquidityLaunch.sol\":13889:13921  data_[0] = USDC.balanceOf(_user) */\n      dup2\n      dup2\n      mstore\n      pop\n      pop\n        /* \"contracts/ProtocolLiquidityLaunch.sol\":13942:13960  getMaxBuyOf(_user) */\n      tag_204\n        /* \"contracts/ProtocolLiquidityLaunch.sol\":13954:13959  _user */\n      dup3\n        /* \"contracts/ProtocolLiquidityLaunch.sol\":13942:13953  getMaxBuyOf */\n      tag_108\n        /* \"contracts/ProtocolLiquidityLaunch.sol\":13942:13960  getMaxBuyOf(_user) */\n      jump\t// in\n    tag_204:\n        /* \"contracts/ProtocolLiquidityLaunch.sol\":13931:13936  data_ */\n      dup2\n        /* \"contracts/ProtocolLiquidityLaunch.sol\":13937:13938  1 */\n      0x01\n        /* \"contracts/ProtocolLiquidityLaunch.sol\":13931:13939  data_[1] */\n      0x09\n      dup2\n      lt\n      tag_205\n      jumpi\n      tag_206\n      tag_203\n      jump\t// in\n    tag_206:\n    tag_205:\n      0x20\n      mul\n      add\n        /* \"contracts/ProtocolLiquidityLaunch.sol\":13931:13960  data_[1] = getMaxBuyOf(_user) */\n      dup2\n      dup2\n      mstore\n      pop\n      pop\n        /* \"contracts/ProtocolLiquidityLaunch.sol\":13981:14014  data_[1].mul(salePrice).div(1e18) */\n      tag_207\n        /* \"contracts/ProtocolLiquidityLaunch.sol\":14009:14013  1e18 */\n      0x0de0b6b3a7640000\n        /* \"contracts/ProtocolLiquidityLaunch.sol\":13981:14004  data_[1].mul(salePrice) */\n      tag_208\n        /* \"contracts/ProtocolLiquidityLaunch.sol\":13994:14003  salePrice */\n      sload(0x03)\n        /* \"contracts/ProtocolLiquidityLaunch.sol\":13981:13986  data_ */\n      dup5\n        /* \"contracts/ProtocolLiquidityLaunch.sol\":13987:13988  1 */\n      0x01\n        /* \"contracts/ProtocolLiquidityLaunch.sol\":13981:13989  data_[1] */\n      0x09\n      dup2\n      lt\n      tag_209\n      jumpi\n      tag_210\n      tag_203\n      jump\t// in\n    tag_210:\n    tag_209:\n      0x20\n      mul\n      add\n      mload\n        /* \"contracts/ProtocolLiquidityLaunch.sol\":13981:13993  data_[1].mul */\n      tag_211\n      swap1\n        /* \"contracts/ProtocolLiquidityLaunch.sol\":13981:14004  data_[1].mul(salePrice) */\n      swap2\n      swap1\n      0xffffffff\n      and\n      jump\t// in\n    tag_208:\n        /* \"contracts/ProtocolLiquidityLaunch.sol\":13981:14008  data_[1].mul(salePrice).div */\n      tag_212\n      swap1\n        /* \"contracts/ProtocolLiquidityLaunch.sol\":13981:14014  data_[1].mul(salePrice).div(1e18) */\n      swap2\n      swap1\n      0xffffffff\n      and\n      jump\t// in\n    tag_207:\n        /* \"contracts/ProtocolLiquidityLaunch.sol\":13970:13975  data_ */\n      dup2\n        /* \"contracts/ProtocolLiquidityLaunch.sol\":13976:13977  2 */\n      0x02\n        /* \"contracts/ProtocolLiquidityLaunch.sol\":13970:13978  data_[2] */\n      0x09\n      dup2\n      lt\n      tag_213\n      jumpi\n      tag_214\n      tag_203\n      jump\t// in\n    tag_214:\n    tag_213:\n      0x20\n      mul\n      add\n        /* \"contracts/ProtocolLiquidityLaunch.sol\":13970:14014  data_[2] = data_[1].mul(salePrice).div(1e18) */\n      dup2\n      dup2\n      mstore\n      pop\n      pop\n        /* \"contracts/ProtocolLiquidityLaunch.sol\":14035:14051  getUSDCBalance() */\n      tag_215\n        /* \"contracts/ProtocolLiquidityLaunch.sol\":14035:14049  getUSDCBalance */\n      tag_79\n        /* \"contracts/ProtocolLiquidityLaunch.sol\":14035:14051  getUSDCBalance() */\n      jump\t// in\n    tag_215:\n        /* \"contracts/ProtocolLiquidityLaunch.sol\":14024:14029  data_ */\n      dup2\n        /* \"contracts/ProtocolLiquidityLaunch.sol\":14030:14031  3 */\n      0x03\n        /* \"contracts/ProtocolLiquidityLaunch.sol\":14024:14032  data_[3] */\n      0x09\n      dup2\n      lt\n      tag_216\n      jumpi\n      tag_217\n      tag_203\n      jump\t// in\n    tag_217:\n    tag_216:\n      0x20\n      mul\n      add\n        /* \"contracts/ProtocolLiquidityLaunch.sol\":14024:14051  data_[3] = getUSDCBalance() */\n      dup2\n      dup2\n      mstore\n      pop\n      pop\n        /* \"contracts/ProtocolLiquidityLaunch.sol\":14072:14089  HARD_CAP_PER_USER */\n      sload(0x07)\n        /* \"contracts/ProtocolLiquidityLaunch.sol\":14061:14066  data_ */\n      dup2\n        /* \"contracts/ProtocolLiquidityLaunch.sol\":14067:14068  4 */\n      0x04\n        /* \"contracts/ProtocolLiquidityLaunch.sol\":14061:14069  data_[4] */\n      0x09\n      dup2\n      lt\n      tag_218\n      jumpi\n      tag_219\n      tag_203\n      jump\t// in\n    tag_219:\n    tag_218:\n      0x20\n      mul\n      add\n        /* \"contracts/ProtocolLiquidityLaunch.sol\":14061:14089  data_[4] = HARD_CAP_PER_USER */\n      dup2\n      dup2\n      mstore\n      pop\n      pop\n        /* \"contracts/ProtocolLiquidityLaunch.sol\":14110:14124  getTotalSale() */\n      tag_220\n        /* \"contracts/ProtocolLiquidityLaunch.sol\":14110:14122  getTotalSale */\n      tag_52\n        /* \"contracts/ProtocolLiquidityLaunch.sol\":14110:14124  getTotalSale() */\n      jump\t// in\n    tag_220:\n        /* \"contracts/ProtocolLiquidityLaunch.sol\":14099:14104  data_ */\n      dup2\n        /* \"contracts/ProtocolLiquidityLaunch.sol\":14105:14106  5 */\n      0x05\n        /* \"contracts/ProtocolLiquidityLaunch.sol\":14099:14107  data_[5] */\n      0x09\n      dup2\n      lt\n      tag_221\n      jumpi\n      tag_222\n      tag_203\n      jump\t// in\n    tag_222:\n    tag_221:\n      0x20\n      mul\n      add\n        /* \"contracts/ProtocolLiquidityLaunch.sol\":14099:14124  data_[5] = getTotalSale() */\n      dup2\n      dup2\n      mstore\n      pop\n      pop\n        /* \"contracts/ProtocolLiquidityLaunch.sol\":14145:14154  salePrice */\n      sload(0x03)\n        /* \"contracts/ProtocolLiquidityLaunch.sol\":14134:14139  data_ */\n      dup2\n        /* \"contracts/ProtocolLiquidityLaunch.sol\":14140:14141  6 */\n      0x06\n        /* \"contracts/ProtocolLiquidityLaunch.sol\":14134:14142  data_[6] */\n      0x09\n      dup2\n      lt\n      tag_223\n      jumpi\n      tag_224\n      tag_203\n      jump\t// in\n    tag_224:\n    tag_223:\n      0x20\n      mul\n      add\n        /* \"contracts/ProtocolLiquidityLaunch.sol\":14134:14154  data_[6] = salePrice */\n      dup2\n      dup2\n      mstore\n      pop\n      pop\n        /* \"contracts/ProtocolLiquidityLaunch.sol\":14175:14189  totalPurchased */\n      sload(0x05)\n        /* \"contracts/ProtocolLiquidityLaunch.sol\":14164:14169  data_ */\n      dup2\n        /* \"contracts/ProtocolLiquidityLaunch.sol\":14170:14171  7 */\n      0x07\n        /* \"contracts/ProtocolLiquidityLaunch.sol\":14164:14172  data_[7] */\n      0x09\n      dup2\n      lt\n      tag_225\n      jumpi\n      tag_226\n      tag_203\n      jump\t// in\n    tag_226:\n    tag_225:\n      0x20\n      mul\n      add\n        /* \"contracts/ProtocolLiquidityLaunch.sol\":14164:14189  data_[7] = totalPurchased */\n      dup2\n      dup2\n      mstore\n      pop\n      pop\n        /* \"contracts/ProtocolLiquidityLaunch.sol\":14210:14214  USDC */\n      0x02\n      0x00\n      swap1\n      sload\n      swap1\n      0x0100\n      exp\n      swap1\n      div\n      0xffffffffffffffffffffffffffffffffffffffff\n      and\n        /* \"contracts/ProtocolLiquidityLaunch.sol\":14210:14224  USDC.allowance */\n      0xffffffffffffffffffffffffffffffffffffffff\n      and\n      0xdd62ed3e\n        /* \"contracts/ProtocolLiquidityLaunch.sol\":14225:14230  _user */\n      dup4\n        /* \"contracts/ProtocolLiquidityLaunch.sol\":14240:14244  this */\n      address\n        /* \"contracts/ProtocolLiquidityLaunch.sol\":14210:14246  USDC.allowance(_user, address(this)) */\n      mload(0x40)\n      dup4\n      0xffffffff\n      and\n      0xe0\n      shl\n      dup2\n      mstore\n      0x04\n      add\n      tag_227\n      swap3\n      swap2\n      swap1\n      tag_228\n      jump\t// in\n    tag_227:\n      0x20\n      mload(0x40)\n      dup1\n      dup4\n      sub\n      dup2\n      dup7\n      dup1\n      extcodesize\n      iszero\n      dup1\n      iszero\n      tag_229\n      jumpi\n      0x00\n      dup1\n      revert\n    tag_229:\n      pop\n      gas\n      staticcall\n      iszero\n      dup1\n      iszero\n      tag_231\n      jumpi\n      returndatasize\n      0x00\n      dup1\n      returndatacopy\n      revert(0x00, returndatasize)\n    tag_231:\n      pop\n      pop\n      pop\n      pop\n      mload(0x40)\n      returndatasize\n      not(0x1f)\n      0x1f\n      dup3\n      add\n      and\n      dup3\n      add\n      dup1\n      0x40\n      mstore\n      pop\n      dup2\n      add\n      swap1\n      tag_232\n      swap2\n      swap1\n      tag_182\n      jump\t// in\n    tag_232:\n        /* \"contracts/ProtocolLiquidityLaunch.sol\":14199:14204  data_ */\n      dup2\n        /* \"contracts/ProtocolLiquidityLaunch.sol\":14205:14206  8 */\n      0x08\n        /* \"contracts/ProtocolLiquidityLaunch.sol\":14199:14207  data_[8] */\n      0x09\n      dup2\n      lt\n      tag_233\n      jumpi\n      tag_234\n      tag_203\n      jump\t// in\n    tag_234:\n    tag_233:\n      0x20\n      mul\n      add\n        /* \"contracts/ProtocolLiquidityLaunch.sol\":14199:14246  data_[8] = USDC.allowance(_user, address(this)) */\n      dup2\n      dup2\n      mstore\n      pop\n      pop\n        /* \"contracts/ProtocolLiquidityLaunch.sol\":13802:14253  function getData(address _user) public view returns(uint256[9] memory data_) {... */\n      swap2\n      swap1\n      pop\n      jump\t// out\n        /* \"contracts/ProtocolLiquidityLaunch.sol\":9004:9039  uint256 public MIN_BUY = 750 * 1e18 */\n    tag_71:\n      sload(0x08)\n      dup2\n      jump\t// out\n        /* \"contracts/ProtocolLiquidityLaunch.sol\":12303:12456  function moveFund(IERC20 _token) public onlyOwner {... */\n    tag_76:\n        /* \"contracts/ProtocolLiquidityLaunch.sol\":9212:9217  owner */\n      0x00\n      0x01\n      swap1\n      sload\n      swap1\n      0x0100\n      exp\n      swap1\n      div\n      0xffffffffffffffffffffffffffffffffffffffff\n      and\n        /* \"contracts/ProtocolLiquidityLaunch.sol\":9198:9217  msg.sender == owner */\n      0xffffffffffffffffffffffffffffffffffffffff\n      and\n        /* \"contracts/ProtocolLiquidityLaunch.sol\":9198:9208  msg.sender */\n      caller\n        /* \"contracts/ProtocolLiquidityLaunch.sol\":9198:9217  msg.sender == owner */\n      0xffffffffffffffffffffffffffffffffffffffff\n      and\n      eq\n        /* \"contracts/ProtocolLiquidityLaunch.sol\":9190:9240  require(msg.sender == owner, 'INVALID_PERMISSION') */\n      tag_236\n      jumpi\n      mload(0x40)\n      0x08c379a000000000000000000000000000000000000000000000000000000000\n      dup2\n      mstore\n      0x04\n      add\n      tag_237\n      swap1\n      tag_167\n      jump\t// in\n    tag_237:\n      mload(0x40)\n      dup1\n      swap2\n      sub\n      swap1\n      revert\n    tag_236:\n        /* \"contracts/ProtocolLiquidityLaunch.sol\":12363:12376  uint256 _cBal */\n      0x00\n        /* \"contracts/ProtocolLiquidityLaunch.sol\":12379:12385  _token */\n      dup2\n        /* \"contracts/ProtocolLiquidityLaunch.sol\":12379:12395  _token.balanceOf */\n      0xffffffffffffffffffffffffffffffffffffffff\n      and\n      0x70a08231\n        /* \"contracts/ProtocolLiquidityLaunch.sol\":12404:12408  this */\n      address\n        /* \"contracts/ProtocolLiquidityLaunch.sol\":12379:12410  _token.balanceOf(address(this)) */\n      mload(0x40)\n      dup3\n      0xffffffff\n      and\n      0xe0\n      shl\n      dup2\n      mstore\n      0x04\n      add\n      tag_239\n      swap2\n      swap1\n      tag_104\n      jump\t// in\n    tag_239:\n      0x20\n      mload(0x40)\n      dup1\n      dup4\n      sub\n      dup2\n      dup7\n      dup1\n      extcodesize\n      iszero\n      dup1\n      iszero\n      tag_240\n      jumpi\n      0x00\n      dup1\n      revert\n    tag_240:\n      pop\n      gas\n      staticcall\n      iszero\n      dup1\n      iszero\n      tag_242\n      jumpi\n      returndatasize\n      0x00\n      dup1\n      returndatacopy\n      revert(0x00, returndatasize)\n    tag_242:\n      pop\n      pop\n      pop\n      pop\n      mload(0x40)\n      returndatasize\n      not(0x1f)\n      0x1f\n      dup3\n      add\n      and\n      dup3\n      add\n      dup1\n      0x40\n      mstore\n      pop\n      dup2\n      add\n      swap1\n      tag_243\n      swap2\n      swap1\n      tag_182\n      jump\t// in\n    tag_243:\n        /* \"contracts/ProtocolLiquidityLaunch.sol\":12363:12410  uint256 _cBal = _token.balanceOf(address(this)) */\n      swap1\n      pop\n        /* \"contracts/ProtocolLiquidityLaunch.sol\":12420:12426  _token */\n      dup2\n        /* \"contracts/ProtocolLiquidityLaunch.sol\":12420:12435  _token.transfer */\n      0xffffffffffffffffffffffffffffffffffffffff\n      and\n      0xa9059cbb\n        /* \"contracts/ProtocolLiquidityLaunch.sol\":12436:12441  owner */\n      0x00\n      0x01\n      swap1\n      sload\n      swap1\n      0x0100\n      exp\n      swap1\n      div\n      0xffffffffffffffffffffffffffffffffffffffff\n      and\n        /* \"contracts/ProtocolLiquidityLaunch.sol\":12443:12448  _cBal */\n      dup4\n        /* \"contracts/ProtocolLiquidityLaunch.sol\":12420:12449  _token.transfer(owner, _cBal) */\n      mload(0x40)\n      dup4\n      0xffffffff\n      and\n      0xe0\n      shl\n      dup2\n      mstore\n      0x04\n      add\n      tag_244\n      swap3\n      swap2\n      swap1\n      tag_245\n      jump\t// in\n    tag_244:\n      0x20\n      mload(0x40)\n      dup1\n      dup4\n      sub\n      dup2\n      0x00\n      dup8\n      dup1\n      extcodesize\n      iszero\n      dup1\n      iszero\n      tag_246\n      jumpi\n      0x00\n      dup1\n      revert\n    tag_246:\n      pop\n      gas\n      call\n      iszero\n      dup1\n      iszero\n      tag_248\n      jumpi\n      returndatasize\n      0x00\n      dup1\n      returndatacopy\n      revert(0x00, returndatasize)\n    tag_248:\n      pop\n      pop\n      pop\n      pop\n      mload(0x40)\n      returndatasize\n      not(0x1f)\n      0x1f\n      dup3\n      add\n      and\n      dup3\n      add\n      dup1\n      0x40\n      mstore\n      pop\n      dup2\n      add\n      swap1\n      tag_249\n      swap2\n      swap1\n      tag_250\n      jump\t// in\n    tag_249:\n      pop\n        /* \"contracts/ProtocolLiquidityLaunch.sol\":12353:12456  {... */\n      pop\n        /* \"contracts/ProtocolLiquidityLaunch.sol\":12303:12456  function moveFund(IERC20 _token) public onlyOwner {... */\n      pop\n      jump\t// out\n        /* \"contracts/ProtocolLiquidityLaunch.sol\":13211:13319  function getUSDCBalance() public view returns(uint256) {... */\n    tag_79:\n        /* \"contracts/ProtocolLiquidityLaunch.sol\":13257:13264  uint256 */\n      0x00\n        /* \"contracts/ProtocolLiquidityLaunch.sol\":13283:13287  USDC */\n      0x02\n      0x00\n      swap1\n      sload\n      swap1\n      0x0100\n      exp\n      swap1\n      div\n      0xffffffffffffffffffffffffffffffffffffffff\n      and\n        /* \"contracts/ProtocolLiquidityLaunch.sol\":13283:13297  USDC.balanceOf */\n      0xffffffffffffffffffffffffffffffffffffffff\n      and\n      0x70a08231\n        /* \"contracts/ProtocolLiquidityLaunch.sol\":13306:13310  this */\n      address\n        /* \"contracts/ProtocolLiquidityLaunch.sol\":13283:13312  USDC.balanceOf(address(this)) */\n      mload(0x40)\n      dup3\n      0xffffffff\n      and\n      0xe0\n      shl\n      dup2\n      mstore\n      0x04\n      add\n      tag_252\n      swap2\n      swap1\n      tag_104\n      jump\t// in\n    tag_252:\n      0x20\n      mload(0x40)\n      dup1\n      dup4\n      sub\n      dup2\n      dup7\n      dup1\n      extcodesize\n      iszero\n      dup1\n      iszero\n      tag_253\n      jumpi\n      0x00\n      dup1\n      revert\n    tag_253:\n      pop\n      gas\n      staticcall\n      iszero\n      dup1\n      iszero\n      tag_255\n      jumpi\n      returndatasize\n      0x00\n      dup1\n      returndatacopy\n      revert(0x00, returndatasize)\n    tag_255:\n      pop\n      pop\n      pop\n      pop\n      mload(0x40)\n      returndatasize\n      not(0x1f)\n      0x1f\n      dup3\n      add\n      and\n      dup3\n      add\n      dup1\n      0x40\n      mstore\n      pop\n      dup2\n      add\n      swap1\n      tag_256\n      swap2\n      swap1\n      tag_182\n      jump\t// in\n    tag_256:\n        /* \"contracts/ProtocolLiquidityLaunch.sol\":13276:13312  return USDC.balanceOf(address(this)) */\n      swap1\n      pop\n        /* \"contracts/ProtocolLiquidityLaunch.sol\":13211:13319  function getUSDCBalance() public view returns(uint256) {... */\n      swap1\n      jump\t// out\n        /* \"contracts/ProtocolLiquidityLaunch.sol\":8944:8990  uint256 public HARD_CAP_PER_USER = 5000 * 1e18 */\n    tag_83:\n      sload(0x07)\n      dup2\n      jump\t// out\n        /* \"contracts/ProtocolLiquidityLaunch.sol\":9107:9152  mapping(address => bool) public isPrivateSale */\n    tag_88:\n      mstore(0x20, 0x0a)\n      dup1\n      0x00\n      mstore\n      keccak256(0x00, 0x40)\n      0x00\n      swap2\n      pop\n      sload\n      swap1\n      0x0100\n      exp\n      swap1\n      div\n      0xff\n      and\n      dup2\n      jump\t// out\n        /* \"contracts/ProtocolLiquidityLaunch.sol\":10721:10806  function setMinBuy(uint256 _value) public onlyOwner {... */\n    tag_94:\n        /* \"contracts/ProtocolLiquidityLaunch.sol\":9212:9217  owner */\n      0x00\n      0x01\n      swap1\n      sload\n      swap1\n      0x0100\n      exp\n      swap1\n      div\n      0xffffffffffffffffffffffffffffffffffffffff\n      and\n        /* \"contracts/ProtocolLiquidityLaunch.sol\":9198:9217  msg.sender == owner */\n      0xffffffffffffffffffffffffffffffffffffffff\n      and\n        /* \"contracts/ProtocolLiquidityLaunch.sol\":9198:9208  msg.sender */\n      caller\n        /* \"contracts/ProtocolLiquidityLaunch.sol\":9198:9217  msg.sender == owner */\n      0xffffffffffffffffffffffffffffffffffffffff\n      and\n      eq\n        /* \"contracts/ProtocolLiquidityLaunch.sol\":9190:9240  require(msg.sender == owner, 'INVALID_PERMISSION') */\n      tag_258\n      jumpi\n      mload(0x40)\n      0x08c379a000000000000000000000000000000000000000000000000000000000\n      dup2\n      mstore\n      0x04\n      add\n      tag_259\n      swap1\n      tag_167\n      jump\t// in\n    tag_259:\n      mload(0x40)\n      dup1\n      swap2\n      sub\n      swap1\n      revert\n    tag_258:\n        /* \"contracts/ProtocolLiquidityLaunch.sol\":10793:10799  _value */\n      dup1\n        /* \"contracts/ProtocolLiquidityLaunch.sol\":10783:10790  MIN_BUY */\n      0x08\n        /* \"contracts/ProtocolLiquidityLaunch.sol\":10783:10799  MIN_BUY = _value */\n      dup2\n      swap1\n      sstore\n      pop\n        /* \"contracts/ProtocolLiquidityLaunch.sol\":10721:10806  function setMinBuy(uint256 _value) public onlyOwner {... */\n      pop\n      jump\t// out\n        /* \"contracts/ProtocolLiquidityLaunch.sol\":8654:8672  IERC20 public USDC */\n    tag_97:\n      0x02\n      0x00\n      swap1\n      sload\n      swap1\n      0x0100\n      exp\n      swap1\n      div\n      0xffffffffffffffffffffffffffffffffffffffff\n      and\n      dup2\n      jump\t// out\n        /* \"contracts/ProtocolLiquidityLaunch.sol\":8603:8623  address public owner */\n    tag_102:\n      0x00\n      0x01\n      swap1\n      sload\n      swap1\n      0x0100\n      exp\n      swap1\n      div\n      0xffffffffffffffffffffffffffffffffffffffff\n      and\n      dup2\n      jump\t// out\n        /* \"contracts/ProtocolLiquidityLaunch.sol\":12461:13201  function getMaxBuyOf(address _user) public view returns(uint256) {... */\n    tag_108:\n        /* \"contracts/ProtocolLiquidityLaunch.sol\":12517:12524  uint256 */\n      0x00\n        /* \"contracts/ProtocolLiquidityLaunch.sol\":12536:12554  uint256 _totalSale */\n      dup1\n        /* \"contracts/ProtocolLiquidityLaunch.sol\":12557:12571  getTotalSale() */\n      tag_262\n        /* \"contracts/ProtocolLiquidityLaunch.sol\":12557:12569  getTotalSale */\n      tag_52\n        /* \"contracts/ProtocolLiquidityLaunch.sol\":12557:12571  getTotalSale() */\n      jump\t// in\n    tag_262:\n        /* \"contracts/ProtocolLiquidityLaunch.sol\":12536:12571  uint256 _totalSale = getTotalSale() */\n      swap1\n      pop\n        /* \"contracts/ProtocolLiquidityLaunch.sol\":12622:12639  HARD_CAP_PER_USER */\n      sload(0x07)\n        /* \"contracts/ProtocolLiquidityLaunch.sol\":12598:12611  totalBoughtOf */\n      0x09\n        /* \"contracts/ProtocolLiquidityLaunch.sol\":12598:12618  totalBoughtOf[_user] */\n      0x00\n        /* \"contracts/ProtocolLiquidityLaunch.sol\":12612:12617  _user */\n      dup6\n        /* \"contracts/ProtocolLiquidityLaunch.sol\":12598:12618  totalBoughtOf[_user] */\n      0xffffffffffffffffffffffffffffffffffffffff\n      and\n      0xffffffffffffffffffffffffffffffffffffffff\n      and\n      dup2\n      mstore\n      0x20\n      add\n      swap1\n      dup2\n      mstore\n      0x20\n      add\n      0x00\n      keccak256\n      sload\n        /* \"contracts/ProtocolLiquidityLaunch.sol\":12598:12639  totalBoughtOf[_user] >= HARD_CAP_PER_USER */\n      lt\n      iszero\n        /* \"contracts/ProtocolLiquidityLaunch.sol\":12598:12670  totalBoughtOf[_user] >= HARD_CAP_PER_USER ||... */\n      dup1\n      tag_263\n      jumpi\n      pop\n        /* \"contracts/ProtocolLiquidityLaunch.sol\":12669:12670  0 */\n      0x00\n        /* \"contracts/ProtocolLiquidityLaunch.sol\":12655:12665  _totalSale */\n      dup2\n        /* \"contracts/ProtocolLiquidityLaunch.sol\":12655:12670  _totalSale <= 0 */\n      gt\n      iszero\n        /* \"contracts/ProtocolLiquidityLaunch.sol\":12598:12670  totalBoughtOf[_user] >= HARD_CAP_PER_USER ||... */\n    tag_263:\n        /* \"contracts/ProtocolLiquidityLaunch.sol\":12598:12701  totalBoughtOf[_user] >= HARD_CAP_PER_USER ||... */\n      dup1\n      tag_264\n      jumpi\n      pop\n        /* \"contracts/ProtocolLiquidityLaunch.sol\":12696:12701  false */\n      0x00\n        /* \"contracts/ProtocolLiquidityLaunch.sol\":12686:12701  ENABLE == false */\n      iszero\n      iszero\n        /* \"contracts/ProtocolLiquidityLaunch.sol\":12686:12692  ENABLE */\n      0x06\n      0x00\n      swap1\n      sload\n      swap1\n      0x0100\n      exp\n      swap1\n      div\n      0xff\n      and\n        /* \"contracts/ProtocolLiquidityLaunch.sol\":12686:12701  ENABLE == false */\n      iszero\n      iszero\n      eq\n        /* \"contracts/ProtocolLiquidityLaunch.sol\":12598:12701  totalBoughtOf[_user] >= HARD_CAP_PER_USER ||... */\n    tag_264:\n        /* \"contracts/ProtocolLiquidityLaunch.sol\":12581:12749  if (... */\n      iszero\n      tag_265\n      jumpi\n        /* \"contracts/ProtocolLiquidityLaunch.sol\":12737:12738  0 */\n      0x00\n        /* \"contracts/ProtocolLiquidityLaunch.sol\":12730:12738  return 0 */\n      swap2\n      pop\n      pop\n      jump(tag_261)\n        /* \"contracts/ProtocolLiquidityLaunch.sol\":12581:12749  if (... */\n    tag_265:\n        /* \"contracts/ProtocolLiquidityLaunch.sol\":12783:12798  uint256 _maxBuy */\n      0x00\n        /* \"contracts/ProtocolLiquidityLaunch.sol\":12801:12844  HARD_CAP_PER_USER.sub(totalBoughtOf[_user]) */\n      tag_266\n        /* \"contracts/ProtocolLiquidityLaunch.sol\":12823:12836  totalBoughtOf */\n      0x09\n        /* \"contracts/ProtocolLiquidityLaunch.sol\":12823:12843  totalBoughtOf[_user] */\n      0x00\n        /* \"contracts/ProtocolLiquidityLaunch.sol\":12837:12842  _user */\n      dup7\n        /* \"contracts/ProtocolLiquidityLaunch.sol\":12823:12843  totalBoughtOf[_user] */\n      0xffffffffffffffffffffffffffffffffffffffff\n      and\n      0xffffffffffffffffffffffffffffffffffffffff\n      and\n      dup2\n      mstore\n      0x20\n      add\n      swap1\n      dup2\n      mstore\n      0x20\n      add\n      0x00\n      keccak256\n      sload\n        /* \"contracts/ProtocolLiquidityLaunch.sol\":12801:12818  HARD_CAP_PER_USER */\n      sload(0x07)\n        /* \"contracts/ProtocolLiquidityLaunch.sol\":12801:12822  HARD_CAP_PER_USER.sub */\n      tag_267\n      swap1\n        /* \"contracts/ProtocolLiquidityLaunch.sol\":12801:12844  HARD_CAP_PER_USER.sub(totalBoughtOf[_user]) */\n      swap2\n      swap1\n      0xffffffff\n      and\n      jump\t// in\n    tag_266:\n        /* \"contracts/ProtocolLiquidityLaunch.sol\":12783:12844  uint256 _maxBuy = HARD_CAP_PER_USER.sub(totalBoughtOf[_user]) */\n      swap1\n      pop\n        /* \"contracts/ProtocolLiquidityLaunch.sol\":12882:12886  true */\n      0x01\n        /* \"contracts/ProtocolLiquidityLaunch.sol\":12858:12886  isPrivateSale[_user] == true */\n      iszero\n      iszero\n        /* \"contracts/ProtocolLiquidityLaunch.sol\":12858:12871  isPrivateSale */\n      0x0a\n        /* \"contracts/ProtocolLiquidityLaunch.sol\":12858:12878  isPrivateSale[_user] */\n      0x00\n        /* \"contracts/ProtocolLiquidityLaunch.sol\":12872:12877  _user */\n      dup7\n        /* \"contracts/ProtocolLiquidityLaunch.sol\":12858:12878  isPrivateSale[_user] */\n      0xffffffffffffffffffffffffffffffffffffffff\n      and\n      0xffffffffffffffffffffffffffffffffffffffff\n      and\n      dup2\n      mstore\n      0x20\n      add\n      swap1\n      dup2\n      mstore\n      0x20\n      add\n      0x00\n      keccak256\n      0x00\n      swap1\n      sload\n      swap1\n      0x0100\n      exp\n      swap1\n      div\n      0xff\n      and\n        /* \"contracts/ProtocolLiquidityLaunch.sol\":12858:12886  isPrivateSale[_user] == true */\n      iszero\n      iszero\n      eq\n        /* \"contracts/ProtocolLiquidityLaunch.sol\":12854:12927  if (isPrivateSale[_user] == true) {... */\n      iszero\n      tag_268\n      jumpi\n        /* \"contracts/ProtocolLiquidityLaunch.sol\":12909:12916  _maxBuy */\n      dup1\n        /* \"contracts/ProtocolLiquidityLaunch.sol\":12902:12916  return _maxBuy */\n      swap3\n      pop\n      pop\n      pop\n      jump(tag_261)\n        /* \"contracts/ProtocolLiquidityLaunch.sol\":12854:12927  if (isPrivateSale[_user] == true) {... */\n    tag_268:\n        /* \"contracts/ProtocolLiquidityLaunch.sol\":12985:13001  totalPrivateSale */\n      sload(0x04)\n        /* \"contracts/ProtocolLiquidityLaunch.sol\":12971:12981  _totalSale */\n      dup3\n        /* \"contracts/ProtocolLiquidityLaunch.sol\":12971:13001  _totalSale <= totalPrivateSale */\n      gt\n        /* \"contracts/ProtocolLiquidityLaunch.sol\":12967:13036  if (_totalSale <= totalPrivateSale) {... */\n      tag_269\n      jumpi\n        /* \"contracts/ProtocolLiquidityLaunch.sol\":13024:13025  0 */\n      0x00\n        /* \"contracts/ProtocolLiquidityLaunch.sol\":13017:13025  return 0 */\n      swap3\n      pop\n      pop\n      pop\n      jump(tag_261)\n        /* \"contracts/ProtocolLiquidityLaunch.sol\":12967:13036  if (_totalSale <= totalPrivateSale) {... */\n    tag_269:\n        /* \"contracts/ProtocolLiquidityLaunch.sol\":13058:13090  _totalSale.sub(totalPrivateSale) */\n      tag_270\n        /* \"contracts/ProtocolLiquidityLaunch.sol\":13073:13089  totalPrivateSale */\n      sload(0x04)\n        /* \"contracts/ProtocolLiquidityLaunch.sol\":13058:13068  _totalSale */\n      dup4\n        /* \"contracts/ProtocolLiquidityLaunch.sol\":13058:13072  _totalSale.sub */\n      tag_267\n      swap1\n        /* \"contracts/ProtocolLiquidityLaunch.sol\":13058:13090  _totalSale.sub(totalPrivateSale) */\n      swap2\n      swap1\n      0xffffffff\n      and\n      jump\t// in\n    tag_270:\n        /* \"contracts/ProtocolLiquidityLaunch.sol\":13045:13090  _totalSale = _totalSale.sub(totalPrivateSale) */\n      swap2\n      pop\n        /* \"contracts/ProtocolLiquidityLaunch.sol\":13114:13124  _totalSale */\n      dup2\n        /* \"contracts/ProtocolLiquidityLaunch.sol\":13104:13111  _maxBuy */\n      dup2\n        /* \"contracts/ProtocolLiquidityLaunch.sol\":13104:13124  _maxBuy > _totalSale */\n      gt\n        /* \"contracts/ProtocolLiquidityLaunch.sol\":13100:13171  if (_maxBuy > _totalSale) {... */\n      iszero\n      tag_271\n      jumpi\n        /* \"contracts/ProtocolLiquidityLaunch.sol\":13150:13160  _totalSale */\n      dup2\n        /* \"contracts/ProtocolLiquidityLaunch.sol\":13140:13160  _maxBuy = _totalSale */\n      swap1\n      pop\n        /* \"contracts/ProtocolLiquidityLaunch.sol\":13100:13171  if (_maxBuy > _totalSale) {... */\n    tag_271:\n        /* \"contracts/ProtocolLiquidityLaunch.sol\":13187:13194  _maxBuy */\n      dup1\n        /* \"contracts/ProtocolLiquidityLaunch.sol\":13180:13194  return _maxBuy */\n      swap3\n      pop\n      pop\n      pop\n        /* \"contracts/ProtocolLiquidityLaunch.sol\":12461:13201  function getMaxBuyOf(address _user) public view returns(uint256) {... */\n    tag_261:\n      swap2\n      swap1\n      pop\n      jump\t// out\n        /* \"contracts/ProtocolLiquidityLaunch.sol\":8909:8934  bool public ENABLE = true */\n    tag_112:\n      0x06\n      0x00\n      swap1\n      sload\n      swap1\n      0x0100\n      exp\n      swap1\n      div\n      0xff\n      and\n      dup2\n      jump\t// out\n        /* \"contracts/ProtocolLiquidityLaunch.sol\":10612:10715  function setHardCapPerUser(uint256 _value) public onlyOwner {... */\n    tag_117:\n        /* \"contracts/ProtocolLiquidityLaunch.sol\":9212:9217  owner */\n      0x00\n      0x01\n      swap1\n      sload\n      swap1\n      0x0100\n      exp\n      swap1\n      div\n      0xffffffffffffffffffffffffffffffffffffffff\n      and\n        /* \"contracts/ProtocolLiquidityLaunch.sol\":9198:9217  msg.sender == owner */\n      0xffffffffffffffffffffffffffffffffffffffff\n      and\n        /* \"contracts/ProtocolLiquidityLaunch.sol\":9198:9208  msg.sender */\n      caller\n        /* \"contracts/ProtocolLiquidityLaunch.sol\":9198:9217  msg.sender == owner */\n      0xffffffffffffffffffffffffffffffffffffffff\n      and\n      eq\n        /* \"contracts/ProtocolLiquidityLaunch.sol\":9190:9240  require(msg.sender == owner, 'INVALID_PERMISSION') */\n      tag_273\n      jumpi\n      mload(0x40)\n      0x08c379a000000000000000000000000000000000000000000000000000000000\n      dup2\n      mstore\n      0x04\n      add\n      tag_274\n      swap1\n      tag_167\n      jump\t// in\n    tag_274:\n      mload(0x40)\n      dup1\n      swap2\n      sub\n      swap1\n      revert\n    tag_273:\n        /* \"contracts/ProtocolLiquidityLaunch.sol\":10702:10708  _value */\n      dup1\n        /* \"contracts/ProtocolLiquidityLaunch.sol\":10682:10699  HARD_CAP_PER_USER */\n      0x07\n        /* \"contracts/ProtocolLiquidityLaunch.sol\":10682:10708  HARD_CAP_PER_USER = _value */\n      dup2\n      swap1\n      sstore\n      pop\n        /* \"contracts/ProtocolLiquidityLaunch.sol\":10612:10715  function setHardCapPerUser(uint256 _value) public onlyOwner {... */\n      pop\n      jump\t// out\n        /* \"contracts/ProtocolLiquidityLaunch.sol\":9629:9694  function enable() public onlyOwner {... */\n    tag_120:\n        /* \"contracts/ProtocolLiquidityLaunch.sol\":9212:9217  owner */\n      0x00\n      0x01\n      swap1\n      sload\n      swap1\n      0x0100\n      exp\n      swap1\n      div\n      0xffffffffffffffffffffffffffffffffffffffff\n      and\n        /* \"contracts/ProtocolLiquidityLaunch.sol\":9198:9217  msg.sender == owner */\n      0xffffffffffffffffffffffffffffffffffffffff\n      and\n        /* \"contracts/ProtocolLiquidityLaunch.sol\":9198:9208  msg.sender */\n      caller\n        /* \"contracts/ProtocolLiquidityLaunch.sol\":9198:9217  msg.sender == owner */\n      0xffffffffffffffffffffffffffffffffffffffff\n      and\n      eq\n        /* \"contracts/ProtocolLiquidityLaunch.sol\":9190:9240  require(msg.sender == owner, 'INVALID_PERMISSION') */\n      tag_277\n      jumpi\n      mload(0x40)\n      0x08c379a000000000000000000000000000000000000000000000000000000000\n      dup2\n      mstore\n      0x04\n      add\n      tag_278\n      swap1\n      tag_167\n      jump\t// in\n    tag_278:\n      mload(0x40)\n      dup1\n      swap2\n      sub\n      swap1\n      revert\n    tag_277:\n        /* \"contracts/ProtocolLiquidityLaunch.sol\":9683:9687  true */\n      0x01\n        /* \"contracts/ProtocolLiquidityLaunch.sol\":9674:9680  ENABLE */\n      0x06\n      0x00\n        /* \"contracts/ProtocolLiquidityLaunch.sol\":9674:9687  ENABLE = true */\n      0x0100\n      exp\n      dup2\n      sload\n      dup2\n      0xff\n      mul\n      not\n      and\n      swap1\n      dup4\n      iszero\n      iszero\n      mul\n      or\n      swap1\n      sstore\n      pop\n        /* \"contracts/ProtocolLiquidityLaunch.sol\":9629:9694  function enable() public onlyOwner {... */\n      jump\t// out\n        /* \"contracts/ProtocolLiquidityLaunch.sol\":8802:8851  uint256 public totalPrivateSale = 2 * 5000 * 1e18 */\n    tag_123:\n      sload(0x04)\n      dup2\n      jump\t// out\n        /* \"contracts/ProtocolLiquidityLaunch.sol\":8630:8647  IERC20 public GRB */\n    tag_127:\n      0x01\n      0x00\n      swap1\n      sload\n      swap1\n      0x0100\n      exp\n      swap1\n      div\n      0xffffffffffffffffffffffffffffffffffffffff\n      and\n      dup2\n      jump\t// out\n        /* \"contracts/ProtocolLiquidityLaunch.sol\":10274:10378  function setTotalPrivateSale(uint256 _value) public onlyOwner {... */\n    tag_132:\n        /* \"contracts/ProtocolLiquidityLaunch.sol\":9212:9217  owner */\n      0x00\n      0x01\n      swap1\n      sload\n      swap1\n      0x0100\n      exp\n      swap1\n      div\n      0xffffffffffffffffffffffffffffffffffffffff\n      and\n        /* \"contracts/ProtocolLiquidityLaunch.sol\":9198:9217  msg.sender == owner */\n      0xffffffffffffffffffffffffffffffffffffffff\n      and\n        /* \"contracts/ProtocolLiquidityLaunch.sol\":9198:9208  msg.sender */\n      caller\n        /* \"contracts/ProtocolLiquidityLaunch.sol\":9198:9217  msg.sender == owner */\n      0xffffffffffffffffffffffffffffffffffffffff\n      and\n      eq\n        /* \"contracts/ProtocolLiquidityLaunch.sol\":9190:9240  require(msg.sender == owner, 'INVALID_PERMISSION') */\n      tag_281\n      jumpi\n      mload(0x40)\n      0x08c379a000000000000000000000000000000000000000000000000000000000\n      dup2\n      mstore\n      0x04\n      add\n      tag_282\n      swap1\n      tag_167\n      jump\t// in\n    tag_282:\n      mload(0x40)\n      dup1\n      swap2\n      sub\n      swap1\n      revert\n    tag_281:\n        /* \"contracts/ProtocolLiquidityLaunch.sol\":10365:10371  _value */\n      dup1\n        /* \"contracts/ProtocolLiquidityLaunch.sol\":10346:10362  totalPrivateSale */\n      0x04\n        /* \"contracts/ProtocolLiquidityLaunch.sol\":10346:10371  totalPrivateSale = _value */\n      dup2\n      swap1\n      sstore\n      pop\n        /* \"contracts/ProtocolLiquidityLaunch.sol\":10274:10378  function setTotalPrivateSale(uint256 _value) public onlyOwner {... */\n      pop\n      jump\t// out\n        /* \"contracts/ProtocolLiquidityLaunch.sol\":9053:9101  mapping(address => uint256) public totalBoughtOf */\n    tag_136:\n      mstore(0x20, 0x09)\n      dup1\n      0x00\n      mstore\n      keccak256(0x00, 0x40)\n      0x00\n      swap2\n      pop\n      swap1\n      pop\n      sload\n      dup2\n      jump\t// out\n        /* \"contracts/ProtocolLiquidityLaunch.sol\":10812:11909  function buy(uint256 _payAmt) public onlyWhitelisted {... */\n    tag_141:\n        /* \"contracts/ProtocolLiquidityLaunch.sol\":9323:9332  tx.origin */\n      origin\n        /* \"contracts/ProtocolLiquidityLaunch.sol\":9309:9332  msg.sender == tx.origin */\n      0xffffffffffffffffffffffffffffffffffffffff\n      and\n        /* \"contracts/ProtocolLiquidityLaunch.sol\":9309:9319  msg.sender */\n      caller\n        /* \"contracts/ProtocolLiquidityLaunch.sol\":9309:9332  msg.sender == tx.origin */\n      0xffffffffffffffffffffffffffffffffffffffff\n      and\n      eq\n        /* \"contracts/ProtocolLiquidityLaunch.sol\":9301:9354  require(msg.sender == tx.origin, \"INVALID_WHITElIST\") */\n      tag_285\n      jumpi\n      mload(0x40)\n      0x08c379a000000000000000000000000000000000000000000000000000000000\n      dup2\n      mstore\n      0x04\n      add\n      tag_286\n      swap1\n      tag_287\n      jump\t// in\n    tag_286:\n      mload(0x40)\n      dup1\n      swap2\n      sub\n      swap1\n      revert\n    tag_285:\n        /* \"contracts/ProtocolLiquidityLaunch.sol\":10893:10897  true */\n      0x01\n        /* \"contracts/ProtocolLiquidityLaunch.sol\":10883:10897  ENABLE == true */\n      iszero\n      iszero\n        /* \"contracts/ProtocolLiquidityLaunch.sol\":10883:10889  ENABLE */\n      0x06\n      0x00\n      swap1\n      sload\n      swap1\n      0x0100\n      exp\n      swap1\n      div\n      0xff\n      and\n        /* \"contracts/ProtocolLiquidityLaunch.sol\":10883:10897  ENABLE == true */\n      iszero\n      iszero\n      eq\n        /* \"contracts/ProtocolLiquidityLaunch.sol\":10875:10913  require(ENABLE == true, \"SYSTEM_STOP\") */\n      tag_289\n      jumpi\n      mload(0x40)\n      0x08c379a000000000000000000000000000000000000000000000000000000000\n      dup2\n      mstore\n      0x04\n      add\n      tag_290\n      swap1\n      tag_291\n      jump\t// in\n    tag_290:\n      mload(0x40)\n      dup1\n      swap2\n      sub\n      swap1\n      revert\n    tag_289:\n        /* \"contracts/ProtocolLiquidityLaunch.sol\":10941:10942  0 */\n      0x00\n        /* \"contracts/ProtocolLiquidityLaunch.sol\":10931:10938  _payAmt */\n      dup2\n        /* \"contracts/ProtocolLiquidityLaunch.sol\":10931:10942  _payAmt > 0 */\n      gt\n        /* \"contracts/ProtocolLiquidityLaunch.sol\":10923:10963  require(_payAmt > 0, \"INVALID_AMOUNT_1\") */\n      tag_292\n      jumpi\n      mload(0x40)\n      0x08c379a000000000000000000000000000000000000000000000000000000000\n      dup2\n      mstore\n      0x04\n      add\n      tag_293\n      swap1\n      tag_294\n      jump\t// in\n    tag_293:\n      mload(0x40)\n      dup1\n      swap2\n      sub\n      swap1\n      revert\n    tag_292:\n        /* \"contracts/ProtocolLiquidityLaunch.sol\":10974:10989  uint256 _maxBuy */\n      0x00\n        /* \"contracts/ProtocolLiquidityLaunch.sol\":10992:11015  getMaxBuyOf(msg.sender) */\n      tag_295\n        /* \"contracts/ProtocolLiquidityLaunch.sol\":11004:11014  msg.sender */\n      caller\n        /* \"contracts/ProtocolLiquidityLaunch.sol\":10992:11003  getMaxBuyOf */\n      tag_108\n        /* \"contracts/ProtocolLiquidityLaunch.sol\":10992:11015  getMaxBuyOf(msg.sender) */\n      jump\t// in\n    tag_295:\n        /* \"contracts/ProtocolLiquidityLaunch.sol\":10974:11015  uint256 _maxBuy = getMaxBuyOf(msg.sender) */\n      swap1\n      pop\n        /* \"contracts/ProtocolLiquidityLaunch.sol\":11043:11044  0 */\n      0x00\n        /* \"contracts/ProtocolLiquidityLaunch.sol\":11033:11040  _maxBuy */\n      dup2\n        /* \"contracts/ProtocolLiquidityLaunch.sol\":11033:11044  _maxBuy > 0 */\n      gt\n        /* \"contracts/ProtocolLiquidityLaunch.sol\":11025:11067  require(_maxBuy > 0, \"INVALID_PERMISSION\") */\n      tag_296\n      jumpi\n      mload(0x40)\n      0x08c379a000000000000000000000000000000000000000000000000000000000\n      dup2\n      mstore\n      0x04\n      add\n      tag_297\n      swap1\n      tag_167\n      jump\t// in\n    tag_297:\n      mload(0x40)\n      dup1\n      swap2\n      sub\n      swap1\n      revert\n    tag_296:\n        /* \"contracts/ProtocolLiquidityLaunch.sol\":11110:11126  uint256 _quatity */\n      0x00\n        /* \"contracts/ProtocolLiquidityLaunch.sol\":11130:11162  _payAmt.mul(1e18).div(salePrice) */\n      tag_298\n        /* \"contracts/ProtocolLiquidityLaunch.sol\":11152:11161  salePrice */\n      sload(0x03)\n        /* \"contracts/ProtocolLiquidityLaunch.sol\":11130:11147  _payAmt.mul(1e18) */\n      tag_299\n        /* \"contracts/ProtocolLiquidityLaunch.sol\":11142:11146  1e18 */\n      0x0de0b6b3a7640000\n        /* \"contracts/ProtocolLiquidityLaunch.sol\":11130:11137  _payAmt */\n      dup7\n        /* \"contracts/ProtocolLiquidityLaunch.sol\":11130:11141  _payAmt.mul */\n      tag_211\n      swap1\n        /* \"contracts/ProtocolLiquidityLaunch.sol\":11130:11147  _payAmt.mul(1e18) */\n      swap2\n      swap1\n      0xffffffff\n      and\n      jump\t// in\n    tag_299:\n        /* \"contracts/ProtocolLiquidityLaunch.sol\":11130:11151  _payAmt.mul(1e18).div */\n      tag_212\n      swap1\n        /* \"contracts/ProtocolLiquidityLaunch.sol\":11130:11162  _payAmt.mul(1e18).div(salePrice) */\n      swap2\n      swap1\n      0xffffffff\n      and\n      jump\t// in\n    tag_298:\n        /* \"contracts/ProtocolLiquidityLaunch.sol\":11110:11162  uint256 _quatity  = _payAmt.mul(1e18).div(salePrice) */\n      swap1\n      pop\n        /* \"contracts/ProtocolLiquidityLaunch.sol\":11211:11218  _maxBuy */\n      dup2\n        /* \"contracts/ProtocolLiquidityLaunch.sol\":11200:11208  _quatity */\n      dup2\n        /* \"contracts/ProtocolLiquidityLaunch.sol\":11200:11218  _quatity > _maxBuy */\n      gt\n        /* \"contracts/ProtocolLiquidityLaunch.sol\":11197:11320  if(_quatity > _maxBuy) {... */\n      iszero\n      tag_300\n      jumpi\n        /* \"contracts/ProtocolLiquidityLaunch.sol\":11245:11252  _maxBuy */\n      dup2\n        /* \"contracts/ProtocolLiquidityLaunch.sol\":11234:11252  _quatity = _maxBuy */\n      swap1\n      pop\n        /* \"contracts/ProtocolLiquidityLaunch.sol\":11276:11309  _quatity.mul(salePrice).div(1e18) */\n      tag_301\n        /* \"contracts/ProtocolLiquidityLaunch.sol\":11304:11308  1e18 */\n      0x0de0b6b3a7640000\n        /* \"contracts/ProtocolLiquidityLaunch.sol\":11276:11299  _quatity.mul(salePrice) */\n      tag_302\n        /* \"contracts/ProtocolLiquidityLaunch.sol\":11289:11298  salePrice */\n      sload(0x03)\n        /* \"contracts/ProtocolLiquidityLaunch.sol\":11276:11284  _quatity */\n      dup5\n        /* \"contracts/ProtocolLiquidityLaunch.sol\":11276:11288  _quatity.mul */\n      tag_211\n      swap1\n        /* \"contracts/ProtocolLiquidityLaunch.sol\":11276:11299  _quatity.mul(salePrice) */\n      swap2\n      swap1\n      0xffffffff\n      and\n      jump\t// in\n    tag_302:\n        /* \"contracts/ProtocolLiquidityLaunch.sol\":11276:11303  _quatity.mul(salePrice).div */\n      tag_212\n      swap1\n        /* \"contracts/ProtocolLiquidityLaunch.sol\":11276:11309  _quatity.mul(salePrice).div(1e18) */\n      swap2\n      swap1\n      0xffffffff\n      and\n      jump\t// in\n    tag_301:\n        /* \"contracts/ProtocolLiquidityLaunch.sol\":11266:11309  _payAmt = _quatity.mul(salePrice).div(1e18) */\n      swap3\n      pop\n        /* \"contracts/ProtocolLiquidityLaunch.sol\":11197:11320  if(_quatity > _maxBuy) {... */\n    tag_300:\n        /* \"contracts/ProtocolLiquidityLaunch.sol\":11348:11349  0 */\n      0x00\n        /* \"contracts/ProtocolLiquidityLaunch.sol\":11337:11345  _quatity */\n      dup2\n        /* \"contracts/ProtocolLiquidityLaunch.sol\":11337:11349  _quatity > 0 */\n      gt\n        /* \"contracts/ProtocolLiquidityLaunch.sol\":11329:11372  require(_quatity > 0, \"INVALID_QUATITY:01\") */\n      tag_303\n      jumpi\n      mload(0x40)\n      0x08c379a000000000000000000000000000000000000000000000000000000000\n      dup2\n      mstore\n      0x04\n      add\n      tag_304\n      swap1\n      tag_305\n      jump\t// in\n    tag_304:\n      mload(0x40)\n      dup1\n      swap2\n      sub\n      swap1\n      revert\n    tag_303:\n        /* \"contracts/ProtocolLiquidityLaunch.sol\":11402:11409  MIN_BUY */\n      sload(0x08)\n        /* \"contracts/ProtocolLiquidityLaunch.sol\":11390:11398  _quatity */\n      dup2\n        /* \"contracts/ProtocolLiquidityLaunch.sol\":11390:11409  _quatity >= MIN_BUY */\n      lt\n      iszero\n        /* \"contracts/ProtocolLiquidityLaunch.sol\":11382:11432  require(_quatity >= MIN_BUY, \"INVALID_QUATITY:02\") */\n      tag_306\n      jumpi\n      mload(0x40)\n      0x08c379a000000000000000000000000000000000000000000000000000000000\n      dup2\n      mstore\n      0x04\n      add\n      tag_307\n      swap1\n      tag_308\n      jump\t// in\n    tag_307:\n      mload(0x40)\n      dup1\n      swap2\n      sub\n      swap1\n      revert\n    tag_306:\n        /* \"contracts/ProtocolLiquidityLaunch.sol\":11460:11461  0 */\n      0x00\n        /* \"contracts/ProtocolLiquidityLaunch.sol\":11450:11457  _payAmt */\n      dup4\n        /* \"contracts/ProtocolLiquidityLaunch.sol\":11450:11461  _payAmt > 0 */\n      gt\n        /* \"contracts/ProtocolLiquidityLaunch.sol\":11442:11484  require(_payAmt > 0, \"INVALID_PAYMENT:01\") */\n      tag_309\n      jumpi\n      mload(0x40)\n      0x08c379a000000000000000000000000000000000000000000000000000000000\n      dup2\n      mstore\n      0x04\n      add\n      tag_310\n      swap1\n      tag_311\n      jump\t// in\n    tag_310:\n      mload(0x40)\n      dup1\n      swap2\n      sub\n      swap1\n      revert\n    tag_309:\n        /* \"contracts/ProtocolLiquidityLaunch.sol\":11525:11529  true */\n      0x01\n        /* \"contracts/ProtocolLiquidityLaunch.sol\":11502:11529  _claimUSDC(_payAmt) == true */\n      iszero\n      iszero\n        /* \"contracts/ProtocolLiquidityLaunch.sol\":11502:11521  _claimUSDC(_payAmt) */\n      tag_312\n        /* \"contracts/ProtocolLiquidityLaunch.sol\":11513:11520  _payAmt */\n      dup5\n        /* \"contracts/ProtocolLiquidityLaunch.sol\":11502:11512  _claimUSDC */\n      tag_313\n        /* \"contracts/ProtocolLiquidityLaunch.sol\":11502:11521  _claimUSDC(_payAmt) */\n      jump\t// in\n    tag_312:\n        /* \"contracts/ProtocolLiquidityLaunch.sol\":11502:11529  _claimUSDC(_payAmt) == true */\n      iszero\n      iszero\n      eq\n        /* \"contracts/ProtocolLiquidityLaunch.sol\":11494:11552  require(_claimUSDC(_payAmt) == true, \"INVALID_PAYMENT:02\") */\n      tag_314\n      jumpi\n      mload(0x40)\n      0x08c379a000000000000000000000000000000000000000000000000000000000\n      dup2\n      mstore\n      0x04\n      add\n      tag_315\n      swap1\n      tag_316\n      jump\t// in\n    tag_315:\n      mload(0x40)\n      dup1\n      swap2\n      sub\n      swap1\n      revert\n    tag_314:\n        /* \"contracts/ProtocolLiquidityLaunch.sol\":11563:11566  GRB */\n      0x01\n      0x00\n      swap1\n      sload\n      swap1\n      0x0100\n      exp\n      swap1\n      div\n      0xffffffffffffffffffffffffffffffffffffffff\n      and\n        /* \"contracts/ProtocolLiquidityLaunch.sol\":11563:11575  GRB.transfer */\n      0xffffffffffffffffffffffffffffffffffffffff\n      and\n      0xa9059cbb\n        /* \"contracts/ProtocolLiquidityLaunch.sol\":11576:11586  msg.sender */\n      caller\n        /* \"contracts/ProtocolLiquidityLaunch.sol\":11588:11596  _quatity */\n      dup4\n        /* \"contracts/ProtocolLiquidityLaunch.sol\":11563:11597  GRB.transfer(msg.sender, _quatity) */\n      mload(0x40)\n      dup4\n      0xffffffff\n      and\n      0xe0\n      shl\n      dup2\n      mstore\n      0x04\n      add\n      tag_317\n      swap3\n      swap2\n      swap1\n      tag_245\n      jump\t// in\n    tag_317:\n      0x20\n      mload(0x40)\n      dup1\n      dup4\n      sub\n      dup2\n      0x00\n      dup8\n      dup1\n      extcodesize\n      iszero\n      dup1\n      iszero\n      tag_318\n      jumpi\n      0x00\n      dup1\n      revert\n    tag_318:\n      pop\n      gas\n      call\n      iszero\n      dup1\n      iszero\n      tag_320\n      jumpi\n      returndatasize\n      0x00\n      dup1\n      returndatacopy\n      revert(0x00, returndatasize)\n    tag_320:\n      pop\n      pop\n      pop\n      pop\n      mload(0x40)\n      returndatasize\n      not(0x1f)\n      0x1f\n      dup3\n      add\n      and\n      dup3\n      add\n      dup1\n      0x40\n      mstore\n      pop\n      dup2\n      add\n      swap1\n      tag_321\n      swap2\n      swap1\n      tag_250\n      jump\t// in\n    tag_321:\n      pop\n        /* \"contracts/ProtocolLiquidityLaunch.sol\":11624:11651  totalPurchased.add(_payAmt) */\n      tag_322\n        /* \"contracts/ProtocolLiquidityLaunch.sol\":11643:11650  _payAmt */\n      dup4\n        /* \"contracts/ProtocolLiquidityLaunch.sol\":11624:11638  totalPurchased */\n      sload(0x05)\n        /* \"contracts/ProtocolLiquidityLaunch.sol\":11624:11642  totalPurchased.add */\n      tag_323\n      swap1\n        /* \"contracts/ProtocolLiquidityLaunch.sol\":11624:11651  totalPurchased.add(_payAmt) */\n      swap2\n      swap1\n      0xffffffff\n      and\n      jump\t// in\n    tag_322:\n        /* \"contracts/ProtocolLiquidityLaunch.sol\":11607:11621  totalPurchased */\n      0x05\n        /* \"contracts/ProtocolLiquidityLaunch.sol\":11607:11651  totalPurchased = totalPurchased.add(_payAmt) */\n      dup2\n      swap1\n      sstore\n      pop\n        /* \"contracts/ProtocolLiquidityLaunch.sol\":11689:11728  totalBoughtOf[msg.sender].add(_quatity) */\n      tag_324\n        /* \"contracts/ProtocolLiquidityLaunch.sol\":11719:11727  _quatity */\n      dup2\n        /* \"contracts/ProtocolLiquidityLaunch.sol\":11689:11702  totalBoughtOf */\n      0x09\n        /* \"contracts/ProtocolLiquidityLaunch.sol\":11689:11714  totalBoughtOf[msg.sender] */\n      0x00\n        /* \"contracts/ProtocolLiquidityLaunch.sol\":11703:11713  msg.sender */\n      caller\n        /* \"contracts/ProtocolLiquidityLaunch.sol\":11689:11714  totalBoughtOf[msg.sender] */\n      0xffffffffffffffffffffffffffffffffffffffff\n      and\n      0xffffffffffffffffffffffffffffffffffffffff\n      and\n      dup2\n      mstore\n      0x20\n      add\n      swap1\n      dup2\n      mstore\n      0x20\n      add\n      0x00\n      keccak256\n      sload\n        /* \"contracts/ProtocolLiquidityLaunch.sol\":11689:11718  totalBoughtOf[msg.sender].add */\n      tag_323\n      swap1\n        /* \"contracts/ProtocolLiquidityLaunch.sol\":11689:11728  totalBoughtOf[msg.sender].add(_quatity) */\n      swap2\n      swap1\n      0xffffffff\n      and\n      jump\t// in\n    tag_324:\n        /* \"contracts/ProtocolLiquidityLaunch.sol\":11661:11674  totalBoughtOf */\n      0x09\n        /* \"contracts/ProtocolLiquidityLaunch.sol\":11661:11686  totalBoughtOf[msg.sender] */\n      0x00\n        /* \"contracts/ProtocolLiquidityLaunch.sol\":11675:11685  msg.sender */\n      caller\n        /* \"contracts/ProtocolLiquidityLaunch.sol\":11661:11686  totalBoughtOf[msg.sender] */\n      0xffffffffffffffffffffffffffffffffffffffff\n      and\n      0xffffffffffffffffffffffffffffffffffffffff\n      and\n      dup2\n      mstore\n      0x20\n      add\n      swap1\n      dup2\n      mstore\n      0x20\n      add\n      0x00\n      keccak256\n        /* \"contracts/ProtocolLiquidityLaunch.sol\":11661:11728  totalBoughtOf[msg.sender] = totalBoughtOf[msg.sender].add(_quatity) */\n      dup2\n      swap1\n      sstore\n      pop\n        /* \"contracts/ProtocolLiquidityLaunch.sol\":11771:11775  true */\n      0x01\n        /* \"contracts/ProtocolLiquidityLaunch.sol\":11742:11775  isPrivateSale[msg.sender] == true */\n      iszero\n      iszero\n        /* \"contracts/ProtocolLiquidityLaunch.sol\":11742:11755  isPrivateSale */\n      0x0a\n        /* \"contracts/ProtocolLiquidityLaunch.sol\":11742:11767  isPrivateSale[msg.sender] */\n      0x00\n        /* \"contracts/ProtocolLiquidityLaunch.sol\":11756:11766  msg.sender */\n      caller\n        /* \"contracts/ProtocolLiquidityLaunch.sol\":11742:11767  isPrivateSale[msg.sender] */\n      0xffffffffffffffffffffffffffffffffffffffff\n      and\n      0xffffffffffffffffffffffffffffffffffffffff\n      and\n      dup2\n      mstore\n      0x20\n      add\n      swap1\n      dup2\n      mstore\n      0x20\n      add\n      0x00\n      keccak256\n      0x00\n      swap1\n      sload\n      swap1\n      0x0100\n      exp\n      swap1\n      div\n      0xff\n      and\n        /* \"contracts/ProtocolLiquidityLaunch.sol\":11742:11775  isPrivateSale[msg.sender] == true */\n      iszero\n      iszero\n      eq\n        /* \"contracts/ProtocolLiquidityLaunch.sol\":11738:11851  if (isPrivateSale[msg.sender] == true) {... */\n      iszero\n      tag_325\n      jumpi\n        /* \"contracts/ProtocolLiquidityLaunch.sol\":11810:11840  totalPrivateSale.sub(_quatity) */\n      tag_326\n        /* \"contracts/ProtocolLiquidityLaunch.sol\":11831:11839  _quatity */\n      dup2\n        /* \"contracts/ProtocolLiquidityLaunch.sol\":11810:11826  totalPrivateSale */\n      sload(0x04)\n        /* \"contracts/ProtocolLiquidityLaunch.sol\":11810:11830  totalPrivateSale.sub */\n      tag_267\n      swap1\n        /* \"contracts/ProtocolLiquidityLaunch.sol\":11810:11840  totalPrivateSale.sub(_quatity) */\n      swap2\n      swap1\n      0xffffffff\n      and\n      jump\t// in\n    tag_326:\n        /* \"contracts/ProtocolLiquidityLaunch.sol\":11791:11807  totalPrivateSale */\n      0x04\n        /* \"contracts/ProtocolLiquidityLaunch.sol\":11791:11840  totalPrivateSale = totalPrivateSale.sub(_quatity) */\n      dup2\n      swap1\n      sstore\n      pop\n        /* \"contracts/ProtocolLiquidityLaunch.sol\":11738:11851  if (isPrivateSale[msg.sender] == true) {... */\n    tag_325:\n        /* \"contracts/ProtocolLiquidityLaunch.sol\":11866:11902  onBuy(msg.sender, _payAmt, _quatity) */\n      0x7b027a29d1a4d4d2e0a11e04ebd4741452bfbb746ed433855a8f63afc5b20cde\n        /* \"contracts/ProtocolLiquidityLaunch.sol\":11872:11882  msg.sender */\n      caller\n        /* \"contracts/ProtocolLiquidityLaunch.sol\":11884:11891  _payAmt */\n      dup5\n        /* \"contracts/ProtocolLiquidityLaunch.sol\":11893:11901  _quatity */\n      dup4\n        /* \"contracts/ProtocolLiquidityLaunch.sol\":11866:11902  onBuy(msg.sender, _payAmt, _quatity) */\n      mload(0x40)\n      tag_327\n      swap4\n      swap3\n      swap2\n      swap1\n      tag_328\n      jump\t// in\n    tag_327:\n      mload(0x40)\n      dup1\n      swap2\n      sub\n      swap1\n      log1\n        /* \"contracts/ProtocolLiquidityLaunch.sol\":10865:11909  {... */\n      pop\n      pop\n        /* \"contracts/ProtocolLiquidityLaunch.sol\":10812:11909  function buy(uint256 _payAmt) public onlyWhitelisted {... */\n      pop\n      jump\t// out\n        /* \"contracts/ProtocolLiquidityLaunch.sol\":10383:10606  function setIsPrivateSale(address _user, uint8 _status) public onlyOwner ... */\n    tag_146:\n        /* \"contracts/ProtocolLiquidityLaunch.sol\":9212:9217  owner */\n      0x00\n      0x01\n      swap1\n      sload\n      swap1\n      0x0100\n      exp\n      swap1\n      div\n      0xffffffffffffffffffffffffffffffffffffffff\n      and\n        /* \"contracts/ProtocolLiquidityLaunch.sol\":9198:9217  msg.sender == owner */\n      0xffffffffffffffffffffffffffffffffffffffff\n      and\n        /* \"contracts/ProtocolLiquidityLaunch.sol\":9198:9208  msg.sender */\n      caller\n        /* \"contracts/ProtocolLiquidityLaunch.sol\":9198:9217  msg.sender == owner */\n      0xffffffffffffffffffffffffffffffffffffffff\n      and\n      eq\n        /* \"contracts/ProtocolLiquidityLaunch.sol\":9190:9240  require(msg.sender == owner, 'INVALID_PERMISSION') */\n      tag_330\n      jumpi\n      mload(0x40)\n      0x08c379a000000000000000000000000000000000000000000000000000000000\n      dup2\n      mstore\n      0x04\n      add\n      tag_331\n      swap1\n      tag_167\n      jump\t// in\n    tag_331:\n      mload(0x40)\n      dup1\n      swap2\n      sub\n      swap1\n      revert\n    tag_330:\n        /* \"contracts/ProtocolLiquidityLaunch.sol\":10486:10487  1 */\n      0x01\n        /* \"contracts/ProtocolLiquidityLaunch.sol\":10475:10482  _status */\n      dup2\n        /* \"contracts/ProtocolLiquidityLaunch.sol\":10475:10487  _status == 1 */\n      0xff\n      and\n      eq\n        /* \"contracts/ProtocolLiquidityLaunch.sol\":10471:10600  if (_status == 1) {... */\n      iszero\n      tag_333\n      jumpi\n        /* \"contracts/ProtocolLiquidityLaunch.sol\":10526:10530  true */\n      0x01\n        /* \"contracts/ProtocolLiquidityLaunch.sol\":10503:10516  isPrivateSale */\n      0x0a\n        /* \"contracts/ProtocolLiquidityLaunch.sol\":10503:10523  isPrivateSale[_user] */\n      0x00\n        /* \"contracts/ProtocolLiquidityLaunch.sol\":10517:10522  _user */\n      dup5\n        /* \"contracts/ProtocolLiquidityLaunch.sol\":10503:10523  isPrivateSale[_user] */\n      0xffffffffffffffffffffffffffffffffffffffff\n      and\n      0xffffffffffffffffffffffffffffffffffffffff\n      and\n      dup2\n      mstore\n      0x20\n      add\n      swap1\n      dup2\n      mstore\n      0x20\n      add\n      0x00\n      keccak256\n      0x00\n        /* \"contracts/ProtocolLiquidityLaunch.sol\":10503:10530  isPrivateSale[_user] = true */\n      0x0100\n      exp\n      dup2\n      sload\n      dup2\n      0xff\n      mul\n      not\n      and\n      swap1\n      dup4\n      iszero\n      iszero\n      mul\n      or\n      swap1\n      sstore\n      pop\n        /* \"contracts/ProtocolLiquidityLaunch.sol\":10471:10600  if (_status == 1) {... */\n      jump(tag_334)\n    tag_333:\n        /* \"contracts/ProtocolLiquidityLaunch.sol\":10584:10589  false */\n      0x00\n        /* \"contracts/ProtocolLiquidityLaunch.sol\":10561:10574  isPrivateSale */\n      0x0a\n        /* \"contracts/ProtocolLiquidityLaunch.sol\":10561:10581  isPrivateSale[_user] */\n      0x00\n        /* \"contracts/ProtocolLiquidityLaunch.sol\":10575:10580  _user */\n      dup5\n        /* \"contracts/ProtocolLiquidityLaunch.sol\":10561:10581  isPrivateSale[_user] */\n      0xffffffffffffffffffffffffffffffffffffffff\n      and\n      0xffffffffffffffffffffffffffffffffffffffff\n      and\n      dup2\n      mstore\n      0x20\n      add\n      swap1\n      dup2\n      mstore\n      0x20\n      add\n      0x00\n      keccak256\n      0x00\n        /* \"contracts/ProtocolLiquidityLaunch.sol\":10561:10589  isPrivateSale[_user] = false */\n      0x0100\n      exp\n      dup2\n      sload\n      dup2\n      0xff\n      mul\n      not\n      and\n      swap1\n      dup4\n      iszero\n      iszero\n      mul\n      or\n      swap1\n      sstore\n      pop\n        /* \"contracts/ProtocolLiquidityLaunch.sol\":10471:10600  if (_status == 1) {... */\n    tag_334:\n        /* \"contracts/ProtocolLiquidityLaunch.sol\":10383:10606  function setIsPrivateSale(address _user, uint8 _status) public onlyOwner ... */\n      pop\n      pop\n      jump\t// out\n        /* \"contracts/ProtocolLiquidityLaunch.sol\":8869:8902  uint256 public totalPurchased = 0 */\n    tag_149:\n      sload(0x05)\n      dup2\n      jump\t// out\n        /* \"contracts/ProtocolLiquidityLaunch.sol\":9772:9869  function transferOwnership(address _newOwner) public onlyOwner {... */\n    tag_154:\n        /* \"contracts/ProtocolLiquidityLaunch.sol\":9212:9217  owner */\n      0x00\n      0x01\n      swap1\n      sload\n      swap1\n      0x0100\n      exp\n      swap1\n      div\n      0xffffffffffffffffffffffffffffffffffffffff\n      and\n        /* \"contracts/ProtocolLiquidityLaunch.sol\":9198:9217  msg.sender == owner */\n      0xffffffffffffffffffffffffffffffffffffffff\n      and\n        /* \"contracts/ProtocolLiquidityLaunch.sol\":9198:9208  msg.sender */\n      caller\n        /* \"contracts/ProtocolLiquidityLaunch.sol\":9198:9217  msg.sender == owner */\n      0xffffffffffffffffffffffffffffffffffffffff\n      and\n      eq\n        /* \"contracts/ProtocolLiquidityLaunch.sol\":9190:9240  require(msg.sender == owner, 'INVALID_PERMISSION') */\n      tag_336\n      jumpi\n      mload(0x40)\n      0x08c379a000000000000000000000000000000000000000000000000000000000\n      dup2\n      mstore\n      0x04\n      add\n      tag_337\n      swap1\n      tag_167\n      jump\t// in\n    tag_337:\n      mload(0x40)\n      dup1\n      swap2\n      sub\n      swap1\n      revert\n    tag_336:\n        /* \"contracts/ProtocolLiquidityLaunch.sol\":9853:9862  _newOwner */\n      dup1\n        /* \"contracts/ProtocolLiquidityLaunch.sol\":9845:9850  owner */\n      0x00\n      0x01\n        /* \"contracts/ProtocolLiquidityLaunch.sol\":9845:9862  owner = _newOwner */\n      0x0100\n      exp\n      dup2\n      sload\n      dup2\n      0xffffffffffffffffffffffffffffffffffffffff\n      mul\n      not\n      and\n      swap1\n      dup4\n      0xffffffffffffffffffffffffffffffffffffffff\n      and\n      mul\n      or\n      swap1\n      sstore\n      pop\n        /* \"contracts/ProtocolLiquidityLaunch.sol\":9772:9869  function transferOwnership(address _newOwner) public onlyOwner {... */\n      pop\n      jump\t// out\n        /* \"contracts/ProtocolLiquidityLaunch.sol\":8680:8714  uint256 public salePrice = 4 * 1e4 */\n    tag_157:\n      sload(0x03)\n      dup2\n      jump\t// out\n        /* \"contracts/ProtocolLiquidityLaunch.sol\":8534:8560  uint8 public VERSION = 100 */\n    tag_161:\n      0x00\n      dup1\n      sload\n      swap1\n      0x0100\n      exp\n      swap1\n      div\n      0xff\n      and\n      dup2\n      jump\t// out\n        /* \"contracts/ProtocolLiquidityLaunch.sol\":2155:2614  function mul(uint256 a, uint256 b) internal pure returns (uint256) {... */\n    tag_211:\n        /* \"contracts/ProtocolLiquidityLaunch.sol\":2213:2220  uint256 */\n      0x00\n        /* \"contracts/ProtocolLiquidityLaunch.sol\":2459:2460  0 */\n      dup1\n        /* \"contracts/ProtocolLiquidityLaunch.sol\":2454:2455  a */\n      dup4\n        /* \"contracts/ProtocolLiquidityLaunch.sol\":2454:2460  a == 0 */\n      eq\n        /* \"contracts/ProtocolLiquidityLaunch.sol\":2450:2495  if (a == 0) {... */\n      iszero\n      tag_340\n      jumpi\n        /* \"contracts/ProtocolLiquidityLaunch.sol\":2483:2484  0 */\n      0x00\n        /* \"contracts/ProtocolLiquidityLaunch.sol\":2476:2484  return 0 */\n      swap1\n      pop\n      jump(tag_339)\n        /* \"contracts/ProtocolLiquidityLaunch.sol\":2450:2495  if (a == 0) {... */\n    tag_340:\n        /* \"contracts/ProtocolLiquidityLaunch.sol\":2505:2514  uint256 c */\n      0x00\n        /* \"contracts/ProtocolLiquidityLaunch.sol\":2521:2522  b */\n      dup3\n        /* \"contracts/ProtocolLiquidityLaunch.sol\":2517:2518  a */\n      dup5\n        /* \"contracts/ProtocolLiquidityLaunch.sol\":2517:2522  a * b */\n      tag_341\n      swap2\n      swap1\n      tag_342\n      jump\t// in\n    tag_341:\n        /* \"contracts/ProtocolLiquidityLaunch.sol\":2505:2522  uint256 c = a * b */\n      swap1\n      pop\n        /* \"contracts/ProtocolLiquidityLaunch.sol\":2549:2550  b */\n      dup3\n        /* \"contracts/ProtocolLiquidityLaunch.sol\":2544:2545  a */\n      dup5\n        /* \"contracts/ProtocolLiquidityLaunch.sol\":2540:2541  c */\n      dup3\n        /* \"contracts/ProtocolLiquidityLaunch.sol\":2540:2545  c / a */\n      tag_343\n      swap2\n      swap1\n      tag_344\n      jump\t// in\n    tag_343:\n        /* \"contracts/ProtocolLiquidityLaunch.sol\":2540:2550  c / a == b */\n      eq\n        /* \"contracts/ProtocolLiquidityLaunch.sol\":2532:2588  require(c / a == b, \"SafeMath: multiplication overflow\") */\n      tag_345\n      jumpi\n      mload(0x40)\n      0x08c379a000000000000000000000000000000000000000000000000000000000\n      dup2\n      mstore\n      0x04\n      add\n      tag_346\n      swap1\n      tag_347\n      jump\t// in\n    tag_346:\n      mload(0x40)\n      dup1\n      swap2\n      sub\n      swap1\n      revert\n    tag_345:\n        /* \"contracts/ProtocolLiquidityLaunch.sol\":2606:2607  c */\n      dup1\n        /* \"contracts/ProtocolLiquidityLaunch.sol\":2599:2607  return c */\n      swap2\n      pop\n      pop\n        /* \"contracts/ProtocolLiquidityLaunch.sol\":2155:2614  function mul(uint256 a, uint256 b) internal pure returns (uint256) {... */\n    tag_339:\n      swap3\n      swap2\n      pop\n      pop\n      jump\t// out\n        /* \"contracts/ProtocolLiquidityLaunch.sol\":3070:3200  function div(uint256 a, uint256 b) internal pure returns (uint256) {... */\n    tag_212:\n        /* \"contracts/ProtocolLiquidityLaunch.sol\":3128:3135  uint256 */\n      0x00\n        /* \"contracts/ProtocolLiquidityLaunch.sol\":3154:3193  div(a, b, \"SafeMath: division by zero\") */\n      tag_349\n        /* \"contracts/ProtocolLiquidityLaunch.sol\":3158:3159  a */\n      dup4\n        /* \"contracts/ProtocolLiquidityLaunch.sol\":3161:3162  b */\n      dup4\n        /* \"contracts/ProtocolLiquidityLaunch.sol\":3154:3193  div(a, b, \"SafeMath: division by zero\") */\n      mload(0x40)\n      dup1\n      0x40\n      add\n      0x40\n      mstore\n      dup1\n      0x1a\n      dup2\n      mstore\n      0x20\n      add\n      0x536166654d6174683a206469766973696f6e206279207a65726f000000000000\n      dup2\n      mstore\n      pop\n        /* \"contracts/ProtocolLiquidityLaunch.sol\":3154:3157  div */\n      tag_350\n        /* \"contracts/ProtocolLiquidityLaunch.sol\":3154:3193  div(a, b, \"SafeMath: division by zero\") */\n      jump\t// in\n    tag_349:\n        /* \"contracts/ProtocolLiquidityLaunch.sol\":3147:3193  return div(a, b, \"SafeMath: division by zero\") */\n      swap1\n      pop\n        /* \"contracts/ProtocolLiquidityLaunch.sol\":3070:3200  function div(uint256 a, uint256 b) internal pure returns (uint256) {... */\n      swap3\n      swap2\n      pop\n      pop\n      jump\t// out\n        /* \"contracts/ProtocolLiquidityLaunch.sol\":1310:1444  function sub(uint256 a, uint256 b) internal pure returns (uint256) {... */\n    tag_267:\n        /* \"contracts/ProtocolLiquidityLaunch.sol\":1368:1375  uint256 */\n      0x00\n        /* \"contracts/ProtocolLiquidityLaunch.sol\":1394:1437  sub(a, b, \"SafeMath: subtraction overflow\") */\n      tag_352\n        /* \"contracts/ProtocolLiquidityLaunch.sol\":1398:1399  a */\n      dup4\n        /* \"contracts/ProtocolLiquidityLaunch.sol\":1401:1402  b */\n      dup4\n        /* \"contracts/ProtocolLiquidityLaunch.sol\":1394:1437  sub(a, b, \"SafeMath: subtraction overflow\") */\n      mload(0x40)\n      dup1\n      0x40\n      add\n      0x40\n      mstore\n      dup1\n      0x1e\n      dup2\n      mstore\n      0x20\n      add\n      0x536166654d6174683a207375627472616374696f6e206f766572666c6f770000\n      dup2\n      mstore\n      pop\n        /* \"contracts/ProtocolLiquidityLaunch.sol\":1394:1397  sub */\n      tag_353\n        /* \"contracts/ProtocolLiquidityLaunch.sol\":1394:1437  sub(a, b, \"SafeMath: subtraction overflow\") */\n      jump\t// in\n    tag_352:\n        /* \"contracts/ProtocolLiquidityLaunch.sol\":1387:1437  return sub(a, b, \"SafeMath: subtraction overflow\") */\n      swap1\n      pop\n        /* \"contracts/ProtocolLiquidityLaunch.sol\":1310:1444  function sub(uint256 a, uint256 b) internal pure returns (uint256) {... */\n      swap3\n      swap2\n      pop\n      pop\n      jump\t// out\n        /* \"contracts/ProtocolLiquidityLaunch.sol\":11914:12298  function _claimUSDC(uint256 _amt) private returns(bool)... */\n    tag_313:\n        /* \"contracts/ProtocolLiquidityLaunch.sol\":11964:11968  bool */\n      0x00\n        /* \"contracts/ProtocolLiquidityLaunch.sol\":11984:12003  uint256 _cBalBefore */\n      dup1\n        /* \"contracts/ProtocolLiquidityLaunch.sol\":12006:12010  USDC */\n      0x02\n      0x00\n      swap1\n      sload\n      swap1\n      0x0100\n      exp\n      swap1\n      div\n      0xffffffffffffffffffffffffffffffffffffffff\n      and\n        /* \"contracts/ProtocolLiquidityLaunch.sol\":12006:12020  USDC.balanceOf */\n      0xffffffffffffffffffffffffffffffffffffffff\n      and\n      0x70a08231\n        /* \"contracts/ProtocolLiquidityLaunch.sol\":12029:12033  this */\n      address\n        /* \"contracts/ProtocolLiquidityLaunch.sol\":12006:12035  USDC.balanceOf(address(this)) */\n      mload(0x40)\n      dup3\n      0xffffffff\n      and\n      0xe0\n      shl\n      dup2\n      mstore\n      0x04\n      add\n      tag_355\n      swap2\n      swap1\n      tag_104\n      jump\t// in\n    tag_355:\n      0x20\n      mload(0x40)\n      dup1\n      dup4\n      sub\n      dup2\n      dup7\n      dup1\n      extcodesize\n      iszero\n      dup1\n      iszero\n      tag_356\n      jumpi\n      0x00\n      dup1\n      revert\n    tag_356:\n      pop\n      gas\n      staticcall\n      iszero\n      dup1\n      iszero\n      tag_358\n      jumpi\n      returndatasize\n      0x00\n      dup1\n      returndatacopy\n      revert(0x00, returndatasize)\n    tag_358:\n      pop\n      pop\n      pop\n      pop\n      mload(0x40)\n      returndatasize\n      not(0x1f)\n      0x1f\n      dup3\n      add\n      and\n      dup3\n      add\n      dup1\n      0x40\n      mstore\n      pop\n      dup2\n      add\n      swap1\n      tag_359\n      swap2\n      swap1\n      tag_182\n      jump\t// in\n    tag_359:\n        /* \"contracts/ProtocolLiquidityLaunch.sol\":11984:12035  uint256 _cBalBefore = USDC.balanceOf(address(this)) */\n      swap1\n      pop\n        /* \"contracts/ProtocolLiquidityLaunch.sol\":12045:12049  USDC */\n      0x02\n      0x00\n      swap1\n      sload\n      swap1\n      0x0100\n      exp\n      swap1\n      div\n      0xffffffffffffffffffffffffffffffffffffffff\n      and\n        /* \"contracts/ProtocolLiquidityLaunch.sol\":12045:12062  USDC.transferFrom */\n      0xffffffffffffffffffffffffffffffffffffffff\n      and\n      0x23b872dd\n        /* \"contracts/ProtocolLiquidityLaunch.sol\":12063:12073  msg.sender */\n      caller\n        /* \"contracts/ProtocolLiquidityLaunch.sol\":12083:12087  this */\n      address\n        /* \"contracts/ProtocolLiquidityLaunch.sol\":12090:12094  _amt */\n      dup7\n        /* \"contracts/ProtocolLiquidityLaunch.sol\":12045:12095  USDC.transferFrom(msg.sender, address(this), _amt) */\n      mload(0x40)\n      dup5\n      0xffffffff\n      and\n      0xe0\n      shl\n      dup2\n      mstore\n      0x04\n      add\n      tag_360\n      swap4\n      swap3\n      swap2\n      swap1\n      tag_361\n      jump\t// in\n    tag_360:\n      0x20\n      mload(0x40)\n      dup1\n      dup4\n      sub\n      dup2\n      0x00\n      dup8\n      dup1\n      extcodesize\n      iszero\n      dup1\n      iszero\n      tag_362\n      jumpi\n      0x00\n      dup1\n      revert\n    tag_362:\n      pop\n      gas\n      call\n      iszero\n      dup1\n      iszero\n      tag_364\n      jumpi\n      returndatasize\n      0x00\n      dup1\n      returndatacopy\n      revert(0x00, returndatasize)\n    tag_364:\n      pop\n      pop\n      pop\n      pop\n      mload(0x40)\n      returndatasize\n      not(0x1f)\n      0x1f\n      dup3\n      add\n      and\n      dup3\n      add\n      dup1\n      0x40\n      mstore\n      pop\n      dup2\n      add\n      swap1\n      tag_365\n      swap2\n      swap1\n      tag_250\n      jump\t// in\n    tag_365:\n      pop\n        /* \"contracts/ProtocolLiquidityLaunch.sol\":12105:12123  uint256 _cBalAfter */\n      0x00\n        /* \"contracts/ProtocolLiquidityLaunch.sol\":12126:12130  USDC */\n      0x02\n      0x00\n      swap1\n      sload\n      swap1\n      0x0100\n      exp\n      swap1\n      div\n      0xffffffffffffffffffffffffffffffffffffffff\n      and\n        /* \"contracts/ProtocolLiquidityLaunch.sol\":12126:12140  USDC.balanceOf */\n      0xffffffffffffffffffffffffffffffffffffffff\n      and\n      0x70a08231\n        /* \"contracts/ProtocolLiquidityLaunch.sol\":12149:12153  this */\n      address\n        /* \"contracts/ProtocolLiquidityLaunch.sol\":12126:12155  USDC.balanceOf(address(this)) */\n      mload(0x40)\n      dup3\n      0xffffffff\n      and\n      0xe0\n      shl\n      dup2\n      mstore\n      0x04\n      add\n      tag_366\n      swap2\n      swap1\n      tag_104\n      jump\t// in\n    tag_366:\n      0x20\n      mload(0x40)\n      dup1\n      dup4\n      sub\n      dup2\n      dup7\n      dup1\n      extcodesize\n      iszero\n      dup1\n      iszero\n      tag_367\n      jumpi\n      0x00\n      dup1\n      revert\n    tag_367:\n      pop\n      gas\n      staticcall\n      iszero\n      dup1\n      iszero\n      tag_369\n      jumpi\n      returndatasize\n      0x00\n      dup1\n      returndatacopy\n      revert(0x00, returndatasize)\n    tag_369:\n      pop\n      pop\n      pop\n      pop\n      mload(0x40)\n      returndatasize\n      not(0x1f)\n      0x1f\n      dup3\n      add\n      and\n      dup3\n      add\n      dup1\n      0x40\n      mstore\n      pop\n      dup2\n      add\n      swap1\n      tag_370\n      swap2\n      swap1\n      tag_182\n      jump\t// in\n    tag_370:\n        /* \"contracts/ProtocolLiquidityLaunch.sol\":12105:12155  uint256 _cBalAfter = USDC.balanceOf(address(this)) */\n      swap1\n      pop\n        /* \"contracts/ProtocolLiquidityLaunch.sol\":12183:12194  _cBalBefore */\n      dup2\n        /* \"contracts/ProtocolLiquidityLaunch.sol\":12169:12179  _cBalAfter */\n      dup2\n        /* \"contracts/ProtocolLiquidityLaunch.sol\":12169:12194  _cBalAfter <= _cBalBefore */\n      gt\n        /* \"contracts/ProtocolLiquidityLaunch.sol\":12165:12208  if (_cBalAfter <= _cBalBefore) return false */\n      tag_371\n      jumpi\n        /* \"contracts/ProtocolLiquidityLaunch.sol\":12203:12208  false */\n      0x00\n        /* \"contracts/ProtocolLiquidityLaunch.sol\":12196:12208  return false */\n      swap3\n      pop\n      pop\n      pop\n      jump(tag_354)\n        /* \"contracts/ProtocolLiquidityLaunch.sol\":12165:12208  if (_cBalAfter <= _cBalBefore) return false */\n    tag_371:\n        /* \"contracts/ProtocolLiquidityLaunch.sol\":12235:12256  _cBalBefore.add(_amt) */\n      tag_372\n        /* \"contracts/ProtocolLiquidityLaunch.sol\":12251:12255  _amt */\n      dup5\n        /* \"contracts/ProtocolLiquidityLaunch.sol\":12235:12246  _cBalBefore */\n      dup4\n        /* \"contracts/ProtocolLiquidityLaunch.sol\":12235:12250  _cBalBefore.add */\n      tag_323\n      swap1\n        /* \"contracts/ProtocolLiquidityLaunch.sol\":12235:12256  _cBalBefore.add(_amt) */\n      swap2\n      swap1\n      0xffffffff\n      and\n      jump\t// in\n    tag_372:\n        /* \"contracts/ProtocolLiquidityLaunch.sol\":12222:12232  _cBalAfter */\n      dup2\n        /* \"contracts/ProtocolLiquidityLaunch.sol\":12222:12256  _cBalAfter < _cBalBefore.add(_amt) */\n      lt\n        /* \"contracts/ProtocolLiquidityLaunch.sol\":12218:12270  if (_cBalAfter < _cBalBefore.add(_amt)) return false */\n      iszero\n      tag_373\n      jumpi\n        /* \"contracts/ProtocolLiquidityLaunch.sol\":12265:12270  false */\n      0x00\n        /* \"contracts/ProtocolLiquidityLaunch.sol\":12258:12270  return false */\n      swap3\n      pop\n      pop\n      pop\n      jump(tag_354)\n        /* \"contracts/ProtocolLiquidityLaunch.sol\":12218:12270  if (_cBalAfter < _cBalBefore.add(_amt)) return false */\n    tag_373:\n        /* \"contracts/ProtocolLiquidityLaunch.sol\":12287:12291  true */\n      0x01\n        /* \"contracts/ProtocolLiquidityLaunch.sol\":12280:12291  return true */\n      swap3\n      pop\n      pop\n      pop\n        /* \"contracts/ProtocolLiquidityLaunch.sol\":11914:12298  function _claimUSDC(uint256 _amt) private returns(bool)... */\n    tag_354:\n      swap2\n      swap1\n      pop\n      jump\t// out\n        /* \"contracts/ProtocolLiquidityLaunch.sol\":870:1046  function add(uint256 a, uint256 b) internal pure returns (uint256) {... */\n    tag_323:\n        /* \"contracts/ProtocolLiquidityLaunch.sol\":928:935  uint256 */\n      0x00\n        /* \"contracts/ProtocolLiquidityLaunch.sol\":947:956  uint256 c */\n      dup1\n        /* \"contracts/ProtocolLiquidityLaunch.sol\":963:964  b */\n      dup3\n        /* \"contracts/ProtocolLiquidityLaunch.sol\":959:960  a */\n      dup5\n        /* \"contracts/ProtocolLiquidityLaunch.sol\":959:964  a + b */\n      tag_375\n      swap2\n      swap1\n      tag_376\n      jump\t// in\n    tag_375:\n        /* \"contracts/ProtocolLiquidityLaunch.sol\":947:964  uint256 c = a + b */\n      swap1\n      pop\n        /* \"contracts/ProtocolLiquidityLaunch.sol\":987:988  a */\n      dup4\n        /* \"contracts/ProtocolLiquidityLaunch.sol\":982:983  c */\n      dup2\n        /* \"contracts/ProtocolLiquidityLaunch.sol\":982:988  c >= a */\n      lt\n      iszero\n        /* \"contracts/ProtocolLiquidityLaunch.sol\":974:1020  require(c >= a, \"SafeMath: addition overflow\") */\n      tag_377\n      jumpi\n      mload(0x40)\n      0x08c379a000000000000000000000000000000000000000000000000000000000\n      dup2\n      mstore\n      0x04\n      add\n      tag_378\n      swap1\n      tag_379\n      jump\t// in\n    tag_378:\n      mload(0x40)\n      dup1\n      swap2\n      sub\n      swap1\n      revert\n    tag_377:\n        /* \"contracts/ProtocolLiquidityLaunch.sol\":1038:1039  c */\n      dup1\n        /* \"contracts/ProtocolLiquidityLaunch.sol\":1031:1039  return c */\n      swap2\n      pop\n      pop\n        /* \"contracts/ProtocolLiquidityLaunch.sol\":870:1046  function add(uint256 a, uint256 b) internal pure returns (uint256) {... */\n      swap3\n      swap2\n      pop\n      pop\n      jump\t// out\n        /* \"contracts/ProtocolLiquidityLaunch.sol\":3675:4013  function div(uint256 a, uint256 b, string memory errorMessage) internal pure returns (uint256) {... */\n    tag_350:\n        /* \"contracts/ProtocolLiquidityLaunch.sol\":3761:3768  uint256 */\n      0x00\n        /* \"contracts/ProtocolLiquidityLaunch.sol\":3858:3859  0 */\n      dup1\n        /* \"contracts/ProtocolLiquidityLaunch.sol\":3854:3855  b */\n      dup4\n        /* \"contracts/ProtocolLiquidityLaunch.sol\":3854:3859  b > 0 */\n      gt\n        /* \"contracts/ProtocolLiquidityLaunch.sol\":3861:3873  errorMessage */\n      dup3\n        /* \"contracts/ProtocolLiquidityLaunch.sol\":3846:3874  require(b > 0, errorMessage) */\n      swap1\n      tag_381\n      jumpi\n      mload(0x40)\n      0x08c379a000000000000000000000000000000000000000000000000000000000\n      dup2\n      mstore\n      0x04\n      add\n      tag_382\n      swap2\n      swap1\n      tag_383\n      jump\t// in\n    tag_382:\n      mload(0x40)\n      dup1\n      swap2\n      sub\n      swap1\n      revert\n    tag_381:\n      pop\n        /* \"contracts/ProtocolLiquidityLaunch.sol\":3884:3893  uint256 c */\n      0x00\n        /* \"contracts/ProtocolLiquidityLaunch.sol\":3900:3901  b */\n      dup4\n        /* \"contracts/ProtocolLiquidityLaunch.sol\":3896:3897  a */\n      dup6\n        /* \"contracts/ProtocolLiquidityLaunch.sol\":3896:3901  a / b */\n      tag_384\n      swap2\n      swap1\n      tag_344\n      jump\t// in\n    tag_384:\n        /* \"contracts/ProtocolLiquidityLaunch.sol\":3884:3901  uint256 c = a / b */\n      swap1\n      pop\n        /* \"contracts/ProtocolLiquidityLaunch.sol\":4005:4006  c */\n      dup1\n        /* \"contracts/ProtocolLiquidityLaunch.sol\":3998:4006  return c */\n      swap2\n      pop\n      pop\n        /* \"contracts/ProtocolLiquidityLaunch.sol\":3675:4013  function div(uint256 a, uint256 b, string memory errorMessage) internal pure returns (uint256) {... */\n      swap4\n      swap3\n      pop\n      pop\n      pop\n      jump\t// out\n        /* \"contracts/ProtocolLiquidityLaunch.sol\":1728:1915  function sub(uint256 a, uint256 b, string memory errorMessage) internal pure returns (uint256) {... */\n    tag_353:\n        /* \"contracts/ProtocolLiquidityLaunch.sol\":1814:1821  uint256 */\n      0x00\n        /* \"contracts/ProtocolLiquidityLaunch.sol\":1846:1847  a */\n      dup4\n        /* \"contracts/ProtocolLiquidityLaunch.sol\":1841:1842  b */\n      dup4\n        /* \"contracts/ProtocolLiquidityLaunch.sol\":1841:1847  b <= a */\n      gt\n      iszero\n        /* \"contracts/ProtocolLiquidityLaunch.sol\":1849:1861  errorMessage */\n      dup3\n        /* \"contracts/ProtocolLiquidityLaunch.sol\":1833:1862  require(b <= a, errorMessage) */\n      swap1\n      tag_386\n      jumpi\n      mload(0x40)\n      0x08c379a000000000000000000000000000000000000000000000000000000000\n      dup2\n      mstore\n      0x04\n      add\n      tag_387\n      swap2\n      swap1\n      tag_383\n      jump\t// in\n    tag_387:\n      mload(0x40)\n      dup1\n      swap2\n      sub\n      swap1\n      revert\n    tag_386:\n      pop\n        /* \"contracts/ProtocolLiquidityLaunch.sol\":1872:1881  uint256 c */\n      0x00\n        /* \"contracts/ProtocolLiquidityLaunch.sol\":1888:1889  b */\n      dup4\n        /* \"contracts/ProtocolLiquidityLaunch.sol\":1884:1885  a */\n      dup6\n        /* \"contracts/ProtocolLiquidityLaunch.sol\":1884:1889  a - b */\n      tag_388\n      swap2\n      swap1\n      tag_389\n      jump\t// in\n    tag_388:\n        /* \"contracts/ProtocolLiquidityLaunch.sol\":1872:1889  uint256 c = a - b */\n      swap1\n      pop\n        /* \"contracts/ProtocolLiquidityLaunch.sol\":1907:1908  c */\n      dup1\n        /* \"contracts/ProtocolLiquidityLaunch.sol\":1900:1908  return c */\n      swap2\n      pop\n      pop\n        /* \"contracts/ProtocolLiquidityLaunch.sol\":1728:1915  function sub(uint256 a, uint256 b, string memory errorMessage) internal pure returns (uint256) {... */\n      swap4\n      swap3\n      pop\n      pop\n      pop\n      jump\t// out\n    tag_194:\n      mload(0x40)\n      dup1\n      0x0120\n      add\n      0x40\n      mstore\n      dup1\n      0x09\n      swap1\n      0x20\n      dup3\n      mul\n      dup1\n      calldatasize\n      dup4\n      calldatacopy\n      dup1\n      dup3\n      add\n      swap2\n      pop\n      pop\n      swap1\n      pop\n      pop\n      swap1\n      jump\t// out\n        /* \"#utility.yul\":7:146   */\n    tag_391:\n        /* \"#utility.yul\":53:58   */\n      0x00\n        /* \"#utility.yul\":91:97   */\n      dup2\n        /* \"#utility.yul\":78:98   */\n      calldataload\n        /* \"#utility.yul\":69:98   */\n      swap1\n      pop\n        /* \"#utility.yul\":107:140   */\n      tag_393\n        /* \"#utility.yul\":134:139   */\n      dup2\n        /* \"#utility.yul\":107:140   */\n      tag_394\n      jump\t// in\n    tag_393:\n        /* \"#utility.yul\":7:146   */\n      swap3\n      swap2\n      pop\n      pop\n      jump\t// out\n        /* \"#utility.yul\":152:289   */\n    tag_395:\n        /* \"#utility.yul\":206:211   */\n      0x00\n        /* \"#utility.yul\":237:243   */\n      dup2\n        /* \"#utility.yul\":231:244   */\n      mload\n        /* \"#utility.yul\":222:244   */\n      swap1\n      pop\n        /* \"#utility.yul\":253:283   */\n      tag_397\n        /* \"#utility.yul\":277:282   */\n      dup2\n        /* \"#utility.yul\":253:283   */\n      tag_398\n      jump\t// in\n    tag_397:\n        /* \"#utility.yul\":152:289   */\n      swap3\n      swap2\n      pop\n      pop\n      jump\t// out\n        /* \"#utility.yul\":295:462   */\n    tag_399:\n        /* \"#utility.yul\":355:360   */\n      0x00\n        /* \"#utility.yul\":393:399   */\n      dup2\n        /* \"#utility.yul\":380:400   */\n      calldataload\n        /* \"#utility.yul\":371:400   */\n      swap1\n      pop\n        /* \"#utility.yul\":409:456   */\n      tag_401\n        /* \"#utility.yul\":450:455   */\n      dup2\n        /* \"#utility.yul\":409:456   */\n      tag_402\n      jump\t// in\n    tag_401:\n        /* \"#utility.yul\":295:462   */\n      swap3\n      swap2\n      pop\n      pop\n      jump\t// out\n        /* \"#utility.yul\":468:607   */\n    tag_403:\n        /* \"#utility.yul\":514:519   */\n      0x00\n        /* \"#utility.yul\":552:558   */\n      dup2\n        /* \"#utility.yul\":539:559   */\n      calldataload\n        /* \"#utility.yul\":530:559   */\n      swap1\n      pop\n        /* \"#utility.yul\":568:601   */\n      tag_405\n        /* \"#utility.yul\":595:600   */\n      dup2\n        /* \"#utility.yul\":568:601   */\n      tag_406\n      jump\t// in\n    tag_405:\n        /* \"#utility.yul\":468:607   */\n      swap3\n      swap2\n      pop\n      pop\n      jump\t// out\n        /* \"#utility.yul\":613:756   */\n    tag_407:\n        /* \"#utility.yul\":670:675   */\n      0x00\n        /* \"#utility.yul\":701:707   */\n      dup2\n        /* \"#utility.yul\":695:708   */\n      mload\n        /* \"#utility.yul\":686:708   */\n      swap1\n      pop\n        /* \"#utility.yul\":717:750   */\n      tag_409\n        /* \"#utility.yul\":744:749   */\n      dup2\n        /* \"#utility.yul\":717:750   */\n      tag_406\n      jump\t// in\n    tag_409:\n        /* \"#utility.yul\":613:756   */\n      swap3\n      swap2\n      pop\n      pop\n      jump\t// out\n        /* \"#utility.yul\":762:897   */\n    tag_410:\n        /* \"#utility.yul\":806:811   */\n      0x00\n        /* \"#utility.yul\":844:850   */\n      dup2\n        /* \"#utility.yul\":831:851   */\n      calldataload\n        /* \"#utility.yul\":822:851   */\n      swap1\n      pop\n        /* \"#utility.yul\":860:891   */\n      tag_412\n        /* \"#utility.yul\":885:890   */\n      dup2\n        /* \"#utility.yul\":860:891   */\n      tag_413\n      jump\t// in\n    tag_412:\n        /* \"#utility.yul\":762:897   */\n      swap3\n      swap2\n      pop\n      pop\n      jump\t// out\n        /* \"#utility.yul\":903:1232   */\n    tag_65:\n        /* \"#utility.yul\":962:968   */\n      0x00\n        /* \"#utility.yul\":1011:1013   */\n      0x20\n        /* \"#utility.yul\":999:1008   */\n      dup3\n        /* \"#utility.yul\":990:997   */\n      dup5\n        /* \"#utility.yul\":986:1009   */\n      sub\n        /* \"#utility.yul\":982:1014   */\n      slt\n        /* \"#utility.yul\":979:1098   */\n      iszero\n      tag_415\n      jumpi\n        /* \"#utility.yul\":1017:1096   */\n      tag_416\n      tag_417\n      jump\t// in\n    tag_416:\n        /* \"#utility.yul\":979:1098   */\n    tag_415:\n        /* \"#utility.yul\":1137:1138   */\n      0x00\n        /* \"#utility.yul\":1162:1215   */\n      tag_418\n        /* \"#utility.yul\":1207:1214   */\n      dup5\n        /* \"#utility.yul\":1198:1204   */\n      dup3\n        /* \"#utility.yul\":1187:1196   */\n      dup6\n        /* \"#utility.yul\":1183:1205   */\n      add\n        /* \"#utility.yul\":1162:1215   */\n      tag_391\n      jump\t// in\n    tag_418:\n        /* \"#utility.yul\":1152:1215   */\n      swap2\n      pop\n        /* \"#utility.yul\":1108:1225   */\n      pop\n        /* \"#utility.yul\":903:1232   */\n      swap3\n      swap2\n      pop\n      pop\n      jump\t// out\n        /* \"#utility.yul\":1238:1708   */\n    tag_145:\n        /* \"#utility.yul\":1304:1310   */\n      0x00\n        /* \"#utility.yul\":1312:1318   */\n      dup1\n        /* \"#utility.yul\":1361:1363   */\n      0x40\n        /* \"#utility.yul\":1349:1358   */\n      dup4\n        /* \"#utility.yul\":1340:1347   */\n      dup6\n        /* \"#utility.yul\":1336:1359   */\n      sub\n        /* \"#utility.yul\":1332:1364   */\n      slt\n        /* \"#utility.yul\":1329:1448   */\n      iszero\n      tag_420\n      jumpi\n        /* \"#utility.yul\":1367:1446   */\n      tag_421\n      tag_417\n      jump\t// in\n    tag_421:\n        /* \"#utility.yul\":1329:1448   */\n    tag_420:\n        /* \"#utility.yul\":1487:1488   */\n      0x00\n        /* \"#utility.yul\":1512:1565   */\n      tag_422\n        /* \"#utility.yul\":1557:1564   */\n      dup6\n        /* \"#utility.yul\":1548:1554   */\n      dup3\n        /* \"#utility.yul\":1537:1546   */\n      dup7\n        /* \"#utility.yul\":1533:1555   */\n      add\n        /* \"#utility.yul\":1512:1565   */\n      tag_391\n      jump\t// in\n    tag_422:\n        /* \"#utility.yul\":1502:1565   */\n      swap3\n      pop\n        /* \"#utility.yul\":1458:1575   */\n      pop\n        /* \"#utility.yul\":1614:1616   */\n      0x20\n        /* \"#utility.yul\":1640:1691   */\n      tag_423\n        /* \"#utility.yul\":1683:1690   */\n      dup6\n        /* \"#utility.yul\":1674:1680   */\n      dup3\n        /* \"#utility.yul\":1663:1672   */\n      dup7\n        /* \"#utility.yul\":1659:1681   */\n      add\n        /* \"#utility.yul\":1640:1691   */\n      tag_410\n      jump\t// in\n    tag_423:\n        /* \"#utility.yul\":1630:1691   */\n      swap2\n      pop\n        /* \"#utility.yul\":1585:1701   */\n      pop\n        /* \"#utility.yul\":1238:1708   */\n      swap3\n      pop\n      swap3\n      swap1\n      pop\n      jump\t// out\n        /* \"#utility.yul\":1714:2059   */\n    tag_250:\n        /* \"#utility.yul\":1781:1787   */\n      0x00\n        /* \"#utility.yul\":1830:1832   */\n      0x20\n        /* \"#utility.yul\":1818:1827   */\n      dup3\n        /* \"#utility.yul\":1809:1816   */\n      dup5\n        /* \"#utility.yul\":1805:1828   */\n      sub\n        /* \"#utility.yul\":1801:1833   */\n      slt\n        /* \"#utility.yul\":1798:1917   */\n      iszero\n      tag_425\n      jumpi\n        /* \"#utility.yul\":1836:1915   */\n      tag_426\n      tag_417\n      jump\t// in\n    tag_426:\n        /* \"#utility.yul\":1798:1917   */\n    tag_425:\n        /* \"#utility.yul\":1956:1957   */\n      0x00\n        /* \"#utility.yul\":1981:2042   */\n      tag_427\n        /* \"#utility.yul\":2034:2041   */\n      dup5\n        /* \"#utility.yul\":2025:2031   */\n      dup3\n        /* \"#utility.yul\":2014:2023   */\n      dup6\n        /* \"#utility.yul\":2010:2032   */\n      add\n        /* \"#utility.yul\":1981:2042   */\n      tag_395\n      jump\t// in\n    tag_427:\n        /* \"#utility.yul\":1971:2042   */\n      swap2\n      pop\n        /* \"#utility.yul\":1927:2052   */\n      pop\n        /* \"#utility.yul\":1714:2059   */\n      swap3\n      swap2\n      pop\n      pop\n      jump\t// out\n        /* \"#utility.yul\":2065:2422   */\n    tag_43:\n        /* \"#utility.yul\":2138:2144   */\n      0x00\n        /* \"#utility.yul\":2187:2189   */\n      0x20\n        /* \"#utility.yul\":2175:2184   */\n      dup3\n        /* \"#utility.yul\":2166:2173   */\n      dup5\n        /* \"#utility.yul\":2162:2185   */\n      sub\n        /* \"#utility.yul\":2158:2190   */\n      slt\n        /* \"#utility.yul\":2155:2274   */\n      iszero\n      tag_429\n      jumpi\n        /* \"#utility.yul\":2193:2272   */\n      tag_430\n      tag_417\n      jump\t// in\n    tag_430:\n        /* \"#utility.yul\":2155:2274   */\n    tag_429:\n        /* \"#utility.yul\":2313:2314   */\n      0x00\n        /* \"#utility.yul\":2338:2405   */\n      tag_431\n        /* \"#utility.yul\":2397:2404   */\n      dup5\n        /* \"#utility.yul\":2388:2394   */\n      dup3\n        /* \"#utility.yul\":2377:2386   */\n      dup6\n        /* \"#utility.yul\":2373:2395   */\n      add\n        /* \"#utility.yul\":2338:2405   */\n      tag_399\n      jump\t// in\n    tag_431:\n        /* \"#utility.yul\":2328:2405   */\n      swap2\n      pop\n        /* \"#utility.yul\":2284:2415   */\n      pop\n        /* \"#utility.yul\":2065:2422   */\n      swap3\n      swap2\n      pop\n      pop\n      jump\t// out\n        /* \"#utility.yul\":2428:2757   */\n    tag_48:\n        /* \"#utility.yul\":2487:2493   */\n      0x00\n        /* \"#utility.yul\":2536:2538   */\n      0x20\n        /* \"#utility.yul\":2524:2533   */\n      dup3\n        /* \"#utility.yul\":2515:2522   */\n      dup5\n        /* \"#utility.yul\":2511:2534   */\n      sub\n        /* \"#utility.yul\":2507:2539   */\n      slt\n        /* \"#utility.yul\":2504:2623   */\n      iszero\n      tag_433\n      jumpi\n        /* \"#utility.yul\":2542:2621   */\n      tag_434\n      tag_417\n      jump\t// in\n    tag_434:\n        /* \"#utility.yul\":2504:2623   */\n    tag_433:\n        /* \"#utility.yul\":2662:2663   */\n      0x00\n        /* \"#utility.yul\":2687:2740   */\n      tag_435\n        /* \"#utility.yul\":2732:2739   */\n      dup5\n        /* \"#utility.yul\":2723:2729   */\n      dup3\n        /* \"#utility.yul\":2712:2721   */\n      dup6\n        /* \"#utility.yul\":2708:2730   */\n      add\n        /* \"#utility.yul\":2687:2740   */\n      tag_403\n      jump\t// in\n    tag_435:\n        /* \"#utility.yul\":2677:2740   */\n      swap2\n      pop\n        /* \"#utility.yul\":2633:2750   */\n      pop\n        /* \"#utility.yul\":2428:2757   */\n      swap3\n      swap2\n      pop\n      pop\n      jump\t// out\n        /* \"#utility.yul\":2763:3114   */\n    tag_182:\n        /* \"#utility.yul\":2833:2839   */\n      0x00\n        /* \"#utility.yul\":2882:2884   */\n      0x20\n        /* \"#utility.yul\":2870:2879   */\n      dup3\n        /* \"#utility.yul\":2861:2868   */\n      dup5\n        /* \"#utility.yul\":2857:2880   */\n      sub\n        /* \"#utility.yul\":2853:2885   */\n      slt\n        /* \"#utility.yul\":2850:2969   */\n      iszero\n      tag_437\n      jumpi\n        /* \"#utility.yul\":2888:2967   */\n      tag_438\n      tag_417\n      jump\t// in\n    tag_438:\n        /* \"#utility.yul\":2850:2969   */\n    tag_437:\n        /* \"#utility.yul\":3008:3009   */\n      0x00\n        /* \"#utility.yul\":3033:3097   */\n      tag_439\n        /* \"#utility.yul\":3089:3096   */\n      dup5\n        /* \"#utility.yul\":3080:3086   */\n      dup3\n        /* \"#utility.yul\":3069:3078   */\n      dup6\n        /* \"#utility.yul\":3065:3087   */\n      add\n        /* \"#utility.yul\":3033:3097   */\n      tag_407\n      jump\t// in\n    tag_439:\n        /* \"#utility.yul\":3023:3097   */\n      swap2\n      pop\n        /* \"#utility.yul\":2979:3107   */\n      pop\n        /* \"#utility.yul\":2763:3114   */\n      swap3\n      swap2\n      pop\n      pop\n      jump\t// out\n        /* \"#utility.yul\":3120:3299   */\n    tag_440:\n        /* \"#utility.yul\":3189:3199   */\n      0x00\n        /* \"#utility.yul\":3210:3256   */\n      tag_442\n        /* \"#utility.yul\":3252:3255   */\n      dup4\n        /* \"#utility.yul\":3244:3250   */\n      dup4\n        /* \"#utility.yul\":3210:3256   */\n      tag_443\n      jump\t// in\n    tag_442:\n        /* \"#utility.yul\":3288:3292   */\n      0x20\n        /* \"#utility.yul\":3283:3286   */\n      dup4\n        /* \"#utility.yul\":3279:3293   */\n      add\n        /* \"#utility.yul\":3265:3293   */\n      swap1\n      pop\n        /* \"#utility.yul\":3120:3299   */\n      swap3\n      swap2\n      pop\n      pop\n      jump\t// out\n        /* \"#utility.yul\":3305:3423   */\n    tag_444:\n        /* \"#utility.yul\":3392:3416   */\n      tag_446\n        /* \"#utility.yul\":3410:3415   */\n      dup2\n        /* \"#utility.yul\":3392:3416   */\n      tag_447\n      jump\t// in\n    tag_446:\n        /* \"#utility.yul\":3387:3390   */\n      dup3\n        /* \"#utility.yul\":3380:3417   */\n      mstore\n        /* \"#utility.yul\":3305:3423   */\n      pop\n      pop\n      jump\t// out\n        /* \"#utility.yul\":3461:4155   */\n    tag_448:\n        /* \"#utility.yul\":3597:3649   */\n      tag_450\n        /* \"#utility.yul\":3643:3648   */\n      dup2\n        /* \"#utility.yul\":3597:3649   */\n      tag_451\n      jump\t// in\n    tag_450:\n        /* \"#utility.yul\":3665:3749   */\n      tag_452\n        /* \"#utility.yul\":3742:3748   */\n      dup2\n        /* \"#utility.yul\":3737:3740   */\n      dup5\n        /* \"#utility.yul\":3665:3749   */\n      tag_453\n      jump\t// in\n    tag_452:\n        /* \"#utility.yul\":3658:3749   */\n      swap3\n      pop\n        /* \"#utility.yul\":3773:3827   */\n      tag_454\n        /* \"#utility.yul\":3821:3826   */\n      dup3\n        /* \"#utility.yul\":3773:3827   */\n      tag_455\n      jump\t// in\n    tag_454:\n        /* \"#utility.yul\":3850:3857   */\n      dup1\n        /* \"#utility.yul\":3881:3882   */\n      0x00\n        /* \"#utility.yul\":3866:4148   */\n    tag_456:\n        /* \"#utility.yul\":3891:3897   */\n      dup4\n        /* \"#utility.yul\":3888:3889   */\n      dup2\n        /* \"#utility.yul\":3885:3898   */\n      lt\n        /* \"#utility.yul\":3866:4148   */\n      iszero\n      tag_458\n      jumpi\n        /* \"#utility.yul\":3967:3973   */\n      dup2\n        /* \"#utility.yul\":3961:3974   */\n      mload\n        /* \"#utility.yul\":3994:4057   */\n      tag_459\n        /* \"#utility.yul\":4053:4056   */\n      dup8\n        /* \"#utility.yul\":4038:4051   */\n      dup3\n        /* \"#utility.yul\":3994:4057   */\n      tag_440\n      jump\t// in\n    tag_459:\n        /* \"#utility.yul\":3987:4057   */\n      swap7\n      pop\n        /* \"#utility.yul\":4080:4138   */\n      tag_460\n        /* \"#utility.yul\":4131:4137   */\n      dup4\n        /* \"#utility.yul\":4080:4138   */\n      tag_461\n      jump\t// in\n    tag_460:\n        /* \"#utility.yul\":4070:4138   */\n      swap3\n      pop\n        /* \"#utility.yul\":3926:4148   */\n      pop\n        /* \"#utility.yul\":3913:3914   */\n      0x01\n        /* \"#utility.yul\":3910:3911   */\n      dup2\n        /* \"#utility.yul\":3906:3915   */\n      add\n        /* \"#utility.yul\":3901:3915   */\n      swap1\n      pop\n        /* \"#utility.yul\":3866:4148   */\n      jump(tag_456)\n    tag_458:\n        /* \"#utility.yul\":3870:3884   */\n      pop\n        /* \"#utility.yul\":3573:4155   */\n      pop\n      pop\n      pop\n        /* \"#utility.yul\":3461:4155   */\n      pop\n      pop\n      jump\t// out\n        /* \"#utility.yul\":4161:4270   */\n    tag_462:\n        /* \"#utility.yul\":4242:4263   */\n      tag_464\n        /* \"#utility.yul\":4257:4262   */\n      dup2\n        /* \"#utility.yul\":4242:4263   */\n      tag_465\n      jump\t// in\n    tag_464:\n        /* \"#utility.yul\":4237:4240   */\n      dup3\n        /* \"#utility.yul\":4230:4264   */\n      mstore\n        /* \"#utility.yul\":4161:4270   */\n      pop\n      pop\n      jump\t// out\n        /* \"#utility.yul\":4276:4435   */\n    tag_466:\n        /* \"#utility.yul\":4377:4428   */\n      tag_468\n        /* \"#utility.yul\":4422:4427   */\n      dup2\n        /* \"#utility.yul\":4377:4428   */\n      tag_469\n      jump\t// in\n    tag_468:\n        /* \"#utility.yul\":4372:4375   */\n      dup3\n        /* \"#utility.yul\":4365:4429   */\n      mstore\n        /* \"#utility.yul\":4276:4435   */\n      pop\n      pop\n      jump\t// out\n        /* \"#utility.yul\":4441:4805   */\n    tag_470:\n        /* \"#utility.yul\":4529:4532   */\n      0x00\n        /* \"#utility.yul\":4557:4596   */\n      tag_472\n        /* \"#utility.yul\":4590:4595   */\n      dup3\n        /* \"#utility.yul\":4557:4596   */\n      tag_473\n      jump\t// in\n    tag_472:\n        /* \"#utility.yul\":4612:4683   */\n      tag_474\n        /* \"#utility.yul\":4676:4682   */\n      dup2\n        /* \"#utility.yul\":4671:4674   */\n      dup6\n        /* \"#utility.yul\":4612:4683   */\n      tag_475\n      jump\t// in\n    tag_474:\n        /* \"#utility.yul\":4605:4683   */\n      swap4\n      pop\n        /* \"#utility.yul\":4692:4744   */\n      tag_476\n        /* \"#utility.yul\":4737:4743   */\n      dup2\n        /* \"#utility.yul\":4732:4735   */\n      dup6\n        /* \"#utility.yul\":4725:4729   */\n      0x20\n        /* \"#utility.yul\":4718:4723   */\n      dup7\n        /* \"#utility.yul\":4714:4730   */\n      add\n        /* \"#utility.yul\":4692:4744   */\n      tag_477\n      jump\t// in\n    tag_476:\n        /* \"#utility.yul\":4769:4798   */\n      tag_478\n        /* \"#utility.yul\":4791:4797   */\n      dup2\n        /* \"#utility.yul\":4769:4798   */\n      tag_479\n      jump\t// in\n    tag_478:\n        /* \"#utility.yul\":4764:4767   */\n      dup5\n        /* \"#utility.yul\":4760:4799   */\n      add\n        /* \"#utility.yul\":4753:4799   */\n      swap2\n      pop\n        /* \"#utility.yul\":4533:4805   */\n      pop\n        /* \"#utility.yul\":4441:4805   */\n      swap3\n      swap2\n      pop\n      pop\n      jump\t// out\n        /* \"#utility.yul\":4811:5177   */\n    tag_480:\n        /* \"#utility.yul\":4953:4956   */\n      0x00\n        /* \"#utility.yul\":4974:5041   */\n      tag_482\n        /* \"#utility.yul\":5038:5040   */\n      0x0f\n        /* \"#utility.yul\":5033:5036   */\n      dup4\n        /* \"#utility.yul\":4974:5041   */\n      tag_475\n      jump\t// in\n    tag_482:\n        /* \"#utility.yul\":4967:5041   */\n      swap2\n      pop\n        /* \"#utility.yul\":5050:5143   */\n      tag_483\n        /* \"#utility.yul\":5139:5142   */\n      dup3\n        /* \"#utility.yul\":5050:5143   */\n      tag_484\n      jump\t// in\n    tag_483:\n        /* \"#utility.yul\":5168:5170   */\n      0x20\n        /* \"#utility.yul\":5163:5166   */\n      dup3\n        /* \"#utility.yul\":5159:5171   */\n      add\n        /* \"#utility.yul\":5152:5171   */\n      swap1\n      pop\n        /* \"#utility.yul\":4811:5177   */\n      swap2\n      swap1\n      pop\n      jump\t// out\n        /* \"#utility.yul\":5183:5549   */\n    tag_485:\n        /* \"#utility.yul\":5325:5328   */\n      0x00\n        /* \"#utility.yul\":5346:5413   */\n      tag_487\n        /* \"#utility.yul\":5410:5412   */\n      0x11\n        /* \"#utility.yul\":5405:5408   */\n      dup4\n        /* \"#utility.yul\":5346:5413   */\n      tag_475\n      jump\t// in\n    tag_487:\n        /* \"#utility.yul\":5339:5413   */\n      swap2\n      pop\n        /* \"#utility.yul\":5422:5515   */\n      tag_488\n        /* \"#utility.yul\":5511:5514   */\n      dup3\n        /* \"#utility.yul\":5422:5515   */\n      tag_489\n      jump\t// in\n    tag_488:\n        /* \"#utility.yul\":5540:5542   */\n      0x20\n        /* \"#utility.yul\":5535:5538   */\n      dup3\n        /* \"#utility.yul\":5531:5543   */\n      add\n        /* \"#utility.yul\":5524:5543   */\n      swap1\n      pop\n        /* \"#utility.yul\":5183:5549   */\n      swap2\n      swap1\n      pop\n      jump\t// out\n        /* \"#utility.yul\":5555:5921   */\n    tag_490:\n        /* \"#utility.yul\":5697:5700   */\n      0x00\n        /* \"#utility.yul\":5718:5785   */\n      tag_492\n        /* \"#utility.yul\":5782:5784   */\n      0x12\n        /* \"#utility.yul\":5777:5780   */\n      dup4\n        /* \"#utility.yul\":5718:5785   */\n      tag_475\n      jump\t// in\n    tag_492:\n        /* \"#utility.yul\":5711:5785   */\n      swap2\n      pop\n        /* \"#utility.yul\":5794:5887   */\n      tag_493\n        /* \"#utility.yul\":5883:5886   */\n      dup3\n        /* \"#utility.yul\":5794:5887   */\n      tag_494\n      jump\t// in\n    tag_493:\n        /* \"#utility.yul\":5912:5914   */\n      0x20\n        /* \"#utility.yul\":5907:5910   */\n      dup3\n        /* \"#utility.yul\":5903:5915   */\n      add\n        /* \"#utility.yul\":5896:5915   */\n      swap1\n      pop\n        /* \"#utility.yul\":5555:5921   */\n      swap2\n      swap1\n      pop\n      jump\t// out\n        /* \"#utility.yul\":5927:6293   */\n    tag_495:\n        /* \"#utility.yul\":6069:6072   */\n      0x00\n        /* \"#utility.yul\":6090:6157   */\n      tag_497\n        /* \"#utility.yul\":6154:6156   */\n      0x1b\n        /* \"#utility.yul\":6149:6152   */\n      dup4\n        /* \"#utility.yul\":6090:6157   */\n      tag_475\n      jump\t// in\n    tag_497:\n        /* \"#utility.yul\":6083:6157   */\n      swap2\n      pop\n        /* \"#utility.yul\":6166:6259   */\n      tag_498\n        /* \"#utility.yul\":6255:6258   */\n      dup3\n        /* \"#utility.yul\":6166:6259   */\n      tag_499\n      jump\t// in\n    tag_498:\n        /* \"#utility.yul\":6284:6286   */\n      0x20\n        /* \"#utility.yul\":6279:6282   */\n      dup3\n        /* \"#utility.yul\":6275:6287   */\n      add\n        /* \"#utility.yul\":6268:6287   */\n      swap1\n      pop\n        /* \"#utility.yul\":5927:6293   */\n      swap2\n      swap1\n      pop\n      jump\t// out\n        /* \"#utility.yul\":6299:6665   */\n    tag_500:\n        /* \"#utility.yul\":6441:6444   */\n      0x00\n        /* \"#utility.yul\":6462:6529   */\n      tag_502\n        /* \"#utility.yul\":6526:6528   */\n      0x12\n        /* \"#utility.yul\":6521:6524   */\n      dup4\n        /* \"#utility.yul\":6462:6529   */\n      tag_475\n      jump\t// in\n    tag_502:\n        /* \"#utility.yul\":6455:6529   */\n      swap2\n      pop\n        /* \"#utility.yul\":6538:6631   */\n      tag_503\n        /* \"#utility.yul\":6627:6630   */\n      dup3\n        /* \"#utility.yul\":6538:6631   */\n      tag_504\n      jump\t// in\n    tag_503:\n        /* \"#utility.yul\":6656:6658   */\n      0x20\n        /* \"#utility.yul\":6651:6654   */\n      dup3\n        /* \"#utility.yul\":6647:6659   */\n      add\n        /* \"#utility.yul\":6640:6659   */\n      swap1\n      pop\n        /* \"#utility.yul\":6299:6665   */\n      swap2\n      swap1\n      pop\n      jump\t// out\n        /* \"#utility.yul\":6671:7037   */\n    tag_505:\n        /* \"#utility.yul\":6813:6816   */\n      0x00\n        /* \"#utility.yul\":6834:6901   */\n      tag_507\n        /* \"#utility.yul\":6898:6900   */\n      0x12\n        /* \"#utility.yul\":6893:6896   */\n      dup4\n        /* \"#utility.yul\":6834:6901   */\n      tag_475\n      jump\t// in\n    tag_507:\n        /* \"#utility.yul\":6827:6901   */\n      swap2\n      pop\n        /* \"#utility.yul\":6910:7003   */\n      tag_508\n        /* \"#utility.yul\":6999:7002   */\n      dup3\n        /* \"#utility.yul\":6910:7003   */\n      tag_509\n      jump\t// in\n    tag_508:\n        /* \"#utility.yul\":7028:7030   */\n      0x20\n        /* \"#utility.yul\":7023:7026   */\n      dup3\n        /* \"#utility.yul\":7019:7031   */\n      add\n        /* \"#utility.yul\":7012:7031   */\n      swap1\n      pop\n        /* \"#utility.yul\":6671:7037   */\n      swap2\n      swap1\n      pop\n      jump\t// out\n        /* \"#utility.yul\":7043:7409   */\n    tag_510:\n        /* \"#utility.yul\":7185:7188   */\n      0x00\n        /* \"#utility.yul\":7206:7273   */\n      tag_512\n        /* \"#utility.yul\":7270:7272   */\n      0x21\n        /* \"#utility.yul\":7265:7268   */\n      dup4\n        /* \"#utility.yul\":7206:7273   */\n      tag_475\n      jump\t// in\n    tag_512:\n        /* \"#utility.yul\":7199:7273   */\n      swap2\n      pop\n        /* \"#utility.yul\":7282:7375   */\n      tag_513\n        /* \"#utility.yul\":7371:7374   */\n      dup3\n        /* \"#utility.yul\":7282:7375   */\n      tag_514\n      jump\t// in\n    tag_513:\n        /* \"#utility.yul\":7400:7402   */\n      0x40\n        /* \"#utility.yul\":7395:7398   */\n      dup3\n        /* \"#utility.yul\":7391:7403   */\n      add\n        /* \"#utility.yul\":7384:7403   */\n      swap1\n      pop\n        /* \"#utility.yul\":7043:7409   */\n      swap2\n      swap1\n      pop\n      jump\t// out\n        /* \"#utility.yul\":7415:7781   */\n    tag_515:\n        /* \"#utility.yul\":7557:7560   */\n      0x00\n        /* \"#utility.yul\":7578:7645   */\n      tag_517\n        /* \"#utility.yul\":7642:7644   */\n      0x0b\n        /* \"#utility.yul\":7637:7640   */\n      dup4\n        /* \"#utility.yul\":7578:7645   */\n      tag_475\n      jump\t// in\n    tag_517:\n        /* \"#utility.yul\":7571:7645   */\n      swap2\n      pop\n        /* \"#utility.yul\":7654:7747   */\n      tag_518\n        /* \"#utility.yul\":7743:7746   */\n      dup3\n        /* \"#utility.yul\":7654:7747   */\n      tag_519\n      jump\t// in\n    tag_518:\n        /* \"#utility.yul\":7772:7774   */\n      0x20\n        /* \"#utility.yul\":7767:7770   */\n      dup3\n        /* \"#utility.yul\":7763:7775   */\n      add\n        /* \"#utility.yul\":7756:7775   */\n      swap1\n      pop\n        /* \"#utility.yul\":7415:7781   */\n      swap2\n      swap1\n      pop\n      jump\t// out\n        /* \"#utility.yul\":7787:8153   */\n    tag_520:\n        /* \"#utility.yul\":7929:7932   */\n      0x00\n        /* \"#utility.yul\":7950:8017   */\n      tag_522\n        /* \"#utility.yul\":8014:8016   */\n      0x12\n        /* \"#utility.yul\":8009:8012   */\n      dup4\n        /* \"#utility.yul\":7950:8017   */\n      tag_475\n      jump\t// in\n    tag_522:\n        /* \"#utility.yul\":7943:8017   */\n      swap2\n      pop\n        /* \"#utility.yul\":8026:8119   */\n      tag_523\n        /* \"#utility.yul\":8115:8118   */\n      dup3\n        /* \"#utility.yul\":8026:8119   */\n      tag_524\n      jump\t// in\n    tag_523:\n        /* \"#utility.yul\":8144:8146   */\n      0x20\n        /* \"#utility.yul\":8139:8142   */\n      dup3\n        /* \"#utility.yul\":8135:8147   */\n      add\n        /* \"#utility.yul\":8128:8147   */\n      swap1\n      pop\n        /* \"#utility.yul\":7787:8153   */\n      swap2\n      swap1\n      pop\n      jump\t// out\n        /* \"#utility.yul\":8159:8525   */\n    tag_525:\n        /* \"#utility.yul\":8301:8304   */\n      0x00\n        /* \"#utility.yul\":8322:8389   */\n      tag_527\n        /* \"#utility.yul\":8386:8388   */\n      0x10\n        /* \"#utility.yul\":8381:8384   */\n      dup4\n        /* \"#utility.yul\":8322:8389   */\n      tag_475\n      jump\t// in\n    tag_527:\n        /* \"#utility.yul\":8315:8389   */\n      swap2\n      pop\n        /* \"#utility.yul\":8398:8491   */\n      tag_528\n        /* \"#utility.yul\":8487:8490   */\n      dup3\n        /* \"#utility.yul\":8398:8491   */\n      tag_529\n      jump\t// in\n    tag_528:\n        /* \"#utility.yul\":8516:8518   */\n      0x20\n        /* \"#utility.yul\":8511:8514   */\n      dup3\n        /* \"#utility.yul\":8507:8519   */\n      add\n        /* \"#utility.yul\":8500:8519   */\n      swap1\n      pop\n        /* \"#utility.yul\":8159:8525   */\n      swap2\n      swap1\n      pop\n      jump\t// out\n        /* \"#utility.yul\":8531:8897   */\n    tag_530:\n        /* \"#utility.yul\":8673:8676   */\n      0x00\n        /* \"#utility.yul\":8694:8761   */\n      tag_532\n        /* \"#utility.yul\":8758:8760   */\n      0x12\n        /* \"#utility.yul\":8753:8756   */\n      dup4\n        /* \"#utility.yul\":8694:8761   */\n      tag_475\n      jump\t// in\n    tag_532:\n        /* \"#utility.yul\":8687:8761   */\n      swap2\n      pop\n        /* \"#utility.yul\":8770:8863   */\n      tag_533\n        /* \"#utility.yul\":8859:8862   */\n      dup3\n        /* \"#utility.yul\":8770:8863   */\n      tag_534\n      jump\t// in\n    tag_533:\n        /* \"#utility.yul\":8888:8890   */\n      0x20\n        /* \"#utility.yul\":8883:8886   */\n      dup3\n        /* \"#utility.yul\":8879:8891   */\n      add\n        /* \"#utility.yul\":8872:8891   */\n      swap1\n      pop\n        /* \"#utility.yul\":8531:8897   */\n      swap2\n      swap1\n      pop\n      jump\t// out\n        /* \"#utility.yul\":8903:9011   */\n    tag_443:\n        /* \"#utility.yul\":8980:9004   */\n      tag_536\n        /* \"#utility.yul\":8998:9003   */\n      dup2\n        /* \"#utility.yul\":8980:9004   */\n      tag_537\n      jump\t// in\n    tag_536:\n        /* \"#utility.yul\":8975:8978   */\n      dup3\n        /* \"#utility.yul\":8968:9005   */\n      mstore\n        /* \"#utility.yul\":8903:9011   */\n      pop\n      pop\n      jump\t// out\n        /* \"#utility.yul\":9017:9135   */\n    tag_538:\n        /* \"#utility.yul\":9104:9128   */\n      tag_540\n        /* \"#utility.yul\":9122:9127   */\n      dup2\n        /* \"#utility.yul\":9104:9128   */\n      tag_537\n      jump\t// in\n    tag_540:\n        /* \"#utility.yul\":9099:9102   */\n      dup3\n        /* \"#utility.yul\":9092:9129   */\n      mstore\n        /* \"#utility.yul\":9017:9135   */\n      pop\n      pop\n      jump\t// out\n        /* \"#utility.yul\":9141:9253   */\n    tag_541:\n        /* \"#utility.yul\":9224:9246   */\n      tag_543\n        /* \"#utility.yul\":9240:9245   */\n      dup2\n        /* \"#utility.yul\":9224:9246   */\n      tag_544\n      jump\t// in\n    tag_543:\n        /* \"#utility.yul\":9219:9222   */\n      dup3\n        /* \"#utility.yul\":9212:9247   */\n      mstore\n        /* \"#utility.yul\":9141:9253   */\n      pop\n      pop\n      jump\t// out\n        /* \"#utility.yul\":9259:9481   */\n    tag_104:\n        /* \"#utility.yul\":9352:9356   */\n      0x00\n        /* \"#utility.yul\":9390:9392   */\n      0x20\n        /* \"#utility.yul\":9379:9388   */\n      dup3\n        /* \"#utility.yul\":9375:9393   */\n      add\n        /* \"#utility.yul\":9367:9393   */\n      swap1\n      pop\n        /* \"#utility.yul\":9403:9474   */\n      tag_546\n        /* \"#utility.yul\":9471:9472   */\n      0x00\n        /* \"#utility.yul\":9460:9469   */\n      dup4\n        /* \"#utility.yul\":9456:9473   */\n      add\n        /* \"#utility.yul\":9447:9453   */\n      dup5\n        /* \"#utility.yul\":9403:9474   */\n      tag_444\n      jump\t// in\n    tag_546:\n        /* \"#utility.yul\":9259:9481   */\n      swap3\n      swap2\n      pop\n      pop\n      jump\t// out\n        /* \"#utility.yul\":9487:9819   */\n    tag_228:\n        /* \"#utility.yul\":9608:9612   */\n      0x00\n        /* \"#utility.yul\":9646:9648   */\n      0x40\n        /* \"#utility.yul\":9635:9644   */\n      dup3\n        /* \"#utility.yul\":9631:9649   */\n      add\n        /* \"#utility.yul\":9623:9649   */\n      swap1\n      pop\n        /* \"#utility.yul\":9659:9730   */\n      tag_548\n        /* \"#utility.yul\":9727:9728   */\n      0x00\n        /* \"#utility.yul\":9716:9725   */\n      dup4\n        /* \"#utility.yul\":9712:9729   */\n      add\n        /* \"#utility.yul\":9703:9709   */\n      dup6\n        /* \"#utility.yul\":9659:9730   */\n      tag_444\n      jump\t// in\n    tag_548:\n        /* \"#utility.yul\":9740:9812   */\n      tag_549\n        /* \"#utility.yul\":9808:9810   */\n      0x20\n        /* \"#utility.yul\":9797:9806   */\n      dup4\n        /* \"#utility.yul\":9793:9811   */\n      add\n        /* \"#utility.yul\":9784:9790   */\n      dup5\n        /* \"#utility.yul\":9740:9812   */\n      tag_444\n      jump\t// in\n    tag_549:\n        /* \"#utility.yul\":9487:9819   */\n      swap4\n      swap3\n      pop\n      pop\n      pop\n      jump\t// out\n        /* \"#utility.yul\":9825:10267   */\n    tag_361:\n        /* \"#utility.yul\":9974:9978   */\n      0x00\n        /* \"#utility.yul\":10012:10014   */\n      0x60\n        /* \"#utility.yul\":10001:10010   */\n      dup3\n        /* \"#utility.yul\":9997:10015   */\n      add\n        /* \"#utility.yul\":9989:10015   */\n      swap1\n      pop\n        /* \"#utility.yul\":10025:10096   */\n      tag_551\n        /* \"#utility.yul\":10093:10094   */\n      0x00\n        /* \"#utility.yul\":10082:10091   */\n      dup4\n        /* \"#utility.yul\":10078:10095   */\n      add\n        /* \"#utility.yul\":10069:10075   */\n      dup7\n        /* \"#utility.yul\":10025:10096   */\n      tag_444\n      jump\t// in\n    tag_551:\n        /* \"#utility.yul\":10106:10178   */\n      tag_552\n        /* \"#utility.yul\":10174:10176   */\n      0x20\n        /* \"#utility.yul\":10163:10172   */\n      dup4\n        /* \"#utility.yul\":10159:10177   */\n      add\n        /* \"#utility.yul\":10150:10156   */\n      dup6\n        /* \"#utility.yul\":10106:10178   */\n      tag_444\n      jump\t// in\n    tag_552:\n        /* \"#utility.yul\":10188:10260   */\n      tag_553\n        /* \"#utility.yul\":10256:10258   */\n      0x40\n        /* \"#utility.yul\":10245:10254   */\n      dup4\n        /* \"#utility.yul\":10241:10259   */\n      add\n        /* \"#utility.yul\":10232:10238   */\n      dup5\n        /* \"#utility.yul\":10188:10260   */\n      tag_538\n      jump\t// in\n    tag_553:\n        /* \"#utility.yul\":9825:10267   */\n      swap5\n      swap4\n      pop\n      pop\n      pop\n      pop\n      jump\t// out\n        /* \"#utility.yul\":10273:10605   */\n    tag_245:\n        /* \"#utility.yul\":10394:10398   */\n      0x00\n        /* \"#utility.yul\":10432:10434   */\n      0x40\n        /* \"#utility.yul\":10421:10430   */\n      dup3\n        /* \"#utility.yul\":10417:10435   */\n      add\n        /* \"#utility.yul\":10409:10435   */\n      swap1\n      pop\n        /* \"#utility.yul\":10445:10516   */\n      tag_555\n        /* \"#utility.yul\":10513:10514   */\n      0x00\n        /* \"#utility.yul\":10502:10511   */\n      dup4\n        /* \"#utility.yul\":10498:10515   */\n      add\n        /* \"#utility.yul\":10489:10495   */\n      dup6\n        /* \"#utility.yul\":10445:10516   */\n      tag_444\n      jump\t// in\n    tag_555:\n        /* \"#utility.yul\":10526:10598   */\n      tag_556\n        /* \"#utility.yul\":10594:10596   */\n      0x20\n        /* \"#utility.yul\":10583:10592   */\n      dup4\n        /* \"#utility.yul\":10579:10597   */\n      add\n        /* \"#utility.yul\":10570:10576   */\n      dup5\n        /* \"#utility.yul\":10526:10598   */\n      tag_538\n      jump\t// in\n    tag_556:\n        /* \"#utility.yul\":10273:10605   */\n      swap4\n      swap3\n      pop\n      pop\n      pop\n      jump\t// out\n        /* \"#utility.yul\":10611:11053   */\n    tag_328:\n        /* \"#utility.yul\":10760:10764   */\n      0x00\n        /* \"#utility.yul\":10798:10800   */\n      0x60\n        /* \"#utility.yul\":10787:10796   */\n      dup3\n        /* \"#utility.yul\":10783:10801   */\n      add\n        /* \"#utility.yul\":10775:10801   */\n      swap1\n      pop\n        /* \"#utility.yul\":10811:10882   */\n      tag_558\n        /* \"#utility.yul\":10879:10880   */\n      0x00\n        /* \"#utility.yul\":10868:10877   */\n      dup4\n        /* \"#utility.yul\":10864:10881   */\n      add\n        /* \"#utility.yul\":10855:10861   */\n      dup7\n        /* \"#utility.yul\":10811:10882   */\n      tag_444\n      jump\t// in\n    tag_558:\n        /* \"#utility.yul\":10892:10964   */\n      tag_559\n        /* \"#utility.yul\":10960:10962   */\n      0x20\n        /* \"#utility.yul\":10949:10958   */\n      dup4\n        /* \"#utility.yul\":10945:10963   */\n      add\n        /* \"#utility.yul\":10936:10942   */\n      dup6\n        /* \"#utility.yul\":10892:10964   */\n      tag_538\n      jump\t// in\n    tag_559:\n        /* \"#utility.yul\":10974:11046   */\n      tag_560\n        /* \"#utility.yul\":11042:11044   */\n      0x40\n        /* \"#utility.yul\":11031:11040   */\n      dup4\n        /* \"#utility.yul\":11027:11045   */\n      add\n        /* \"#utility.yul\":11018:11024   */\n      dup5\n        /* \"#utility.yul\":10974:11046   */\n      tag_538\n      jump\t// in\n    tag_560:\n        /* \"#utility.yul\":10611:11053   */\n      swap5\n      swap4\n      pop\n      pop\n      pop\n      pop\n      jump\t// out\n        /* \"#utility.yul\":11059:11374   */\n    tag_68:\n        /* \"#utility.yul\":11198:11202   */\n      0x00\n        /* \"#utility.yul\":11236:11239   */\n      0x0120\n        /* \"#utility.yul\":11225:11234   */\n      dup3\n        /* \"#utility.yul\":11221:11240   */\n      add\n        /* \"#utility.yul\":11213:11240   */\n      swap1\n      pop\n        /* \"#utility.yul\":11250:11367   */\n      tag_562\n        /* \"#utility.yul\":11364:11365   */\n      0x00\n        /* \"#utility.yul\":11353:11362   */\n      dup4\n        /* \"#utility.yul\":11349:11366   */\n      add\n        /* \"#utility.yul\":11340:11346   */\n      dup5\n        /* \"#utility.yul\":11250:11367   */\n      tag_448\n      jump\t// in\n    tag_562:\n        /* \"#utility.yul\":11059:11374   */\n      swap3\n      swap2\n      pop\n      pop\n      jump\t// out\n        /* \"#utility.yul\":11380:11590   */\n    tag_90:\n        /* \"#utility.yul\":11467:11471   */\n      0x00\n        /* \"#utility.yul\":11505:11507   */\n      0x20\n        /* \"#utility.yul\":11494:11503   */\n      dup3\n        /* \"#utility.yul\":11490:11508   */\n      add\n        /* \"#utility.yul\":11482:11508   */\n      swap1\n      pop\n        /* \"#utility.yul\":11518:11583   */\n      tag_564\n        /* \"#utility.yul\":11580:11581   */\n      0x00\n        /* \"#utility.yul\":11569:11578   */\n      dup4\n        /* \"#utility.yul\":11565:11582   */\n      add\n        /* \"#utility.yul\":11556:11562   */\n      dup5\n        /* \"#utility.yul\":11518:11583   */\n      tag_462\n      jump\t// in\n    tag_564:\n        /* \"#utility.yul\":11380:11590   */\n      swap3\n      swap2\n      pop\n      pop\n      jump\t// out\n        /* \"#utility.yul\":11596:11846   */\n    tag_99:\n        /* \"#utility.yul\":11703:11707   */\n      0x00\n        /* \"#utility.yul\":11741:11743   */\n      0x20\n        /* \"#utility.yul\":11730:11739   */\n      dup3\n        /* \"#utility.yul\":11726:11744   */\n      add\n        /* \"#utility.yul\":11718:11744   */\n      swap1\n      pop\n        /* \"#utility.yul\":11754:11839   */\n      tag_566\n        /* \"#utility.yul\":11836:11837   */\n      0x00\n        /* \"#utility.yul\":11825:11834   */\n      dup4\n        /* \"#utility.yul\":11821:11838   */\n      add\n        /* \"#utility.yul\":11812:11818   */\n      dup5\n        /* \"#utility.yul\":11754:11839   */\n      tag_466\n      jump\t// in\n    tag_566:\n        /* \"#utility.yul\":11596:11846   */\n      swap3\n      swap2\n      pop\n      pop\n      jump\t// out\n        /* \"#utility.yul\":11852:12165   */\n    tag_383:\n        /* \"#utility.yul\":11965:11969   */\n      0x00\n        /* \"#utility.yul\":12003:12005   */\n      0x20\n        /* \"#utility.yul\":11992:12001   */\n      dup3\n        /* \"#utility.yul\":11988:12006   */\n      add\n        /* \"#utility.yul\":11980:12006   */\n      swap1\n      pop\n        /* \"#utility.yul\":12052:12061   */\n      dup2\n        /* \"#utility.yul\":12046:12050   */\n      dup2\n        /* \"#utility.yul\":12042:12062   */\n      sub\n        /* \"#utility.yul\":12038:12039   */\n      0x00\n        /* \"#utility.yul\":12027:12036   */\n      dup4\n        /* \"#utility.yul\":12023:12040   */\n      add\n        /* \"#utility.yul\":12016:12063   */\n      mstore\n        /* \"#utility.yul\":12080:12158   */\n      tag_568\n        /* \"#utility.yul\":12153:12157   */\n      dup2\n        /* \"#utility.yul\":12144:12150   */\n      dup5\n        /* \"#utility.yul\":12080:12158   */\n      tag_470\n      jump\t// in\n    tag_568:\n        /* \"#utility.yul\":12072:12158   */\n      swap1\n      pop\n        /* \"#utility.yul\":11852:12165   */\n      swap3\n      swap2\n      pop\n      pop\n      jump\t// out\n        /* \"#utility.yul\":12171:12590   */\n    tag_171:\n        /* \"#utility.yul\":12337:12341   */\n      0x00\n        /* \"#utility.yul\":12375:12377   */\n      0x20\n        /* \"#utility.yul\":12364:12373   */\n      dup3\n        /* \"#utility.yul\":12360:12378   */\n      add\n        /* \"#utility.yul\":12352:12378   */\n      swap1\n      pop\n        /* \"#utility.yul\":12424:12433   */\n      dup2\n        /* \"#utility.yul\":12418:12422   */\n      dup2\n        /* \"#utility.yul\":12414:12434   */\n      sub\n        /* \"#utility.yul\":12410:12411   */\n      0x00\n        /* \"#utility.yul\":12399:12408   */\n      dup4\n        /* \"#utility.yul\":12395:12412   */\n      add\n        /* \"#utility.yul\":12388:12435   */\n      mstore\n        /* \"#utility.yul\":12452:12583   */\n      tag_570\n        /* \"#utility.yul\":12578:12582   */\n      dup2\n        /* \"#utility.yul\":12452:12583   */\n      tag_480\n      jump\t// in\n    tag_570:\n        /* \"#utility.yul\":12444:12583   */\n      swap1\n      pop\n        /* \"#utility.yul\":12171:12590   */\n      swap2\n      swap1\n      pop\n      jump\t// out\n        /* \"#utility.yul\":12596:13015   */\n    tag_287:\n        /* \"#utility.yul\":12762:12766   */\n      0x00\n        /* \"#utility.yul\":12800:12802   */\n      0x20\n        /* \"#utility.yul\":12789:12798   */\n      dup3\n        /* \"#utility.yul\":12785:12803   */\n      add\n        /* \"#utility.yul\":12777:12803   */\n      swap1\n      pop\n        /* \"#utility.yul\":12849:12858   */\n      dup2\n        /* \"#utility.yul\":12843:12847   */\n      dup2\n        /* \"#utility.yul\":12839:12859   */\n      sub\n        /* \"#utility.yul\":12835:12836   */\n      0x00\n        /* \"#utility.yul\":12824:12833   */\n      dup4\n        /* \"#utility.yul\":12820:12837   */\n      add\n        /* \"#utility.yul\":12813:12860   */\n      mstore\n        /* \"#utility.yul\":12877:13008   */\n      tag_572\n        /* \"#utility.yul\":13003:13007   */\n      dup2\n        /* \"#utility.yul\":12877:13008   */\n      tag_485\n      jump\t// in\n    tag_572:\n        /* \"#utility.yul\":12869:13008   */\n      swap1\n      pop\n        /* \"#utility.yul\":12596:13015   */\n      swap2\n      swap1\n      pop\n      jump\t// out\n        /* \"#utility.yul\":13021:13440   */\n    tag_305:\n        /* \"#utility.yul\":13187:13191   */\n      0x00\n        /* \"#utility.yul\":13225:13227   */\n      0x20\n        /* \"#utility.yul\":13214:13223   */\n      dup3\n        /* \"#utility.yul\":13210:13228   */\n      add\n        /* \"#utility.yul\":13202:13228   */\n      swap1\n      pop\n        /* \"#utility.yul\":13274:13283   */\n      dup2\n        /* \"#utility.yul\":13268:13272   */\n      dup2\n        /* \"#utility.yul\":13264:13284   */\n      sub\n        /* \"#utility.yul\":13260:13261   */\n      0x00\n        /* \"#utility.yul\":13249:13258   */\n      dup4\n        /* \"#utility.yul\":13245:13262   */\n      add\n        /* \"#utility.yul\":13238:13285   */\n      mstore\n        /* \"#utility.yul\":13302:13433   */\n      tag_574\n        /* \"#utility.yul\":13428:13432   */\n      dup2\n        /* \"#utility.yul\":13302:13433   */\n      tag_490\n      jump\t// in\n    tag_574:\n        /* \"#utility.yul\":13294:13433   */\n      swap1\n      pop\n        /* \"#utility.yul\":13021:13440   */\n      swap2\n      swap1\n      pop\n      jump\t// out\n        /* \"#utility.yul\":13446:13865   */\n    tag_379:\n        /* \"#utility.yul\":13612:13616   */\n      0x00\n        /* \"#utility.yul\":13650:13652   */\n      0x20\n        /* \"#utility.yul\":13639:13648   */\n      dup3\n        /* \"#utility.yul\":13635:13653   */\n      add\n        /* \"#utility.yul\":13627:13653   */\n      swap1\n      pop\n        /* \"#utility.yul\":13699:13708   */\n      dup2\n        /* \"#utility.yul\":13693:13697   */\n      dup2\n        /* \"#utility.yul\":13689:13709   */\n      sub\n        /* \"#utility.yul\":13685:13686   */\n      0x00\n        /* \"#utility.yul\":13674:13683   */\n      dup4\n        /* \"#utility.yul\":13670:13687   */\n      add\n        /* \"#utility.yul\":13663:13710   */\n      mstore\n        /* \"#utility.yul\":13727:13858   */\n      tag_576\n        /* \"#utility.yul\":13853:13857   */\n      dup2\n        /* \"#utility.yul\":13727:13858   */\n      tag_495\n      jump\t// in\n    tag_576:\n        /* \"#utility.yul\":13719:13858   */\n      swap1\n      pop\n        /* \"#utility.yul\":13446:13865   */\n      swap2\n      swap1\n      pop\n      jump\t// out\n        /* \"#utility.yul\":13871:14290   */\n    tag_316:\n        /* \"#utility.yul\":14037:14041   */\n      0x00\n        /* \"#utility.yul\":14075:14077   */\n      0x20\n        /* \"#utility.yul\":14064:14073   */\n      dup3\n        /* \"#utility.yul\":14060:14078   */\n      add\n        /* \"#utility.yul\":14052:14078   */\n      swap1\n      pop\n        /* \"#utility.yul\":14124:14133   */\n      dup2\n        /* \"#utility.yul\":14118:14122   */\n      dup2\n        /* \"#utility.yul\":14114:14134   */\n      sub\n        /* \"#utility.yul\":14110:14111   */\n      0x00\n        /* \"#utility.yul\":14099:14108   */\n      dup4\n        /* \"#utility.yul\":14095:14112   */\n      add\n        /* \"#utility.yul\":14088:14135   */\n      mstore\n        /* \"#utility.yul\":14152:14283   */\n      tag_578\n        /* \"#utility.yul\":14278:14282   */\n      dup2\n        /* \"#utility.yul\":14152:14283   */\n      tag_500\n      jump\t// in\n    tag_578:\n        /* \"#utility.yul\":14144:14283   */\n      swap1\n      pop\n        /* \"#utility.yul\":13871:14290   */\n      swap2\n      swap1\n      pop\n      jump\t// out\n        /* \"#utility.yul\":14296:14715   */\n    tag_308:\n        /* \"#utility.yul\":14462:14466   */\n      0x00\n        /* \"#utility.yul\":14500:14502   */\n      0x20\n        /* \"#utility.yul\":14489:14498   */\n      dup3\n        /* \"#utility.yul\":14485:14503   */\n      add\n        /* \"#utility.yul\":14477:14503   */\n      swap1\n      pop\n        /* \"#utility.yul\":14549:14558   */\n      dup2\n        /* \"#utility.yul\":14543:14547   */\n      dup2\n        /* \"#utility.yul\":14539:14559   */\n      sub\n        /* \"#utility.yul\":14535:14536   */\n      0x00\n        /* \"#utility.yul\":14524:14533   */\n      dup4\n        /* \"#utility.yul\":14520:14537   */\n      add\n        /* \"#utility.yul\":14513:14560   */\n      mstore\n        /* \"#utility.yul\":14577:14708   */\n      tag_580\n        /* \"#utility.yul\":14703:14707   */\n      dup2\n        /* \"#utility.yul\":14577:14708   */\n      tag_505\n      jump\t// in\n    tag_580:\n        /* \"#utility.yul\":14569:14708   */\n      swap1\n      pop\n        /* \"#utility.yul\":14296:14715   */\n      swap2\n      swap1\n      pop\n      jump\t// out\n        /* \"#utility.yul\":14721:15140   */\n    tag_347:\n        /* \"#utility.yul\":14887:14891   */\n      0x00\n        /* \"#utility.yul\":14925:14927   */\n      0x20\n        /* \"#utility.yul\":14914:14923   */\n      dup3\n        /* \"#utility.yul\":14910:14928   */\n      add\n        /* \"#utility.yul\":14902:14928   */\n      swap1\n      pop\n        /* \"#utility.yul\":14974:14983   */\n      dup2\n        /* \"#utility.yul\":14968:14972   */\n      dup2\n        /* \"#utility.yul\":14964:14984   */\n      sub\n        /* \"#utility.yul\":14960:14961   */\n      0x00\n        /* \"#utility.yul\":14949:14958   */\n      dup4\n        /* \"#utility.yul\":14945:14962   */\n      add\n        /* \"#utility.yul\":14938:14985   */\n      mstore\n        /* \"#utility.yul\":15002:15133   */\n      tag_582\n        /* \"#utility.yul\":15128:15132   */\n      dup2\n        /* \"#utility.yul\":15002:15133   */\n      tag_510\n      jump\t// in\n    tag_582:\n        /* \"#utility.yul\":14994:15133   */\n      swap1\n      pop\n        /* \"#utility.yul\":14721:15140   */\n      swap2\n      swap1\n      pop\n      jump\t// out\n        /* \"#utility.yul\":15146:15565   */\n    tag_291:\n        /* \"#utility.yul\":15312:15316   */\n      0x00\n        /* \"#utility.yul\":15350:15352   */\n      0x20\n        /* \"#utility.yul\":15339:15348   */\n      dup3\n        /* \"#utility.yul\":15335:15353   */\n      add\n        /* \"#utility.yul\":15327:15353   */\n      swap1\n      pop\n        /* \"#utility.yul\":15399:15408   */\n      dup2\n        /* \"#utility.yul\":15393:15397   */\n      dup2\n        /* \"#utility.yul\":15389:15409   */\n      sub\n        /* \"#utility.yul\":15385:15386   */\n      0x00\n        /* \"#utility.yul\":15374:15383   */\n      dup4\n        /* \"#utility.yul\":15370:15387   */\n      add\n        /* \"#utility.yul\":15363:15410   */\n      mstore\n        /* \"#utility.yul\":15427:15558   */\n      tag_584\n        /* \"#utility.yul\":15553:15557   */\n      dup2\n        /* \"#utility.yul\":15427:15558   */\n      tag_515\n      jump\t// in\n    tag_584:\n        /* \"#utility.yul\":15419:15558   */\n      swap1\n      pop\n        /* \"#utility.yul\":15146:15565   */\n      swap2\n      swap1\n      pop\n      jump\t// out\n        /* \"#utility.yul\":15571:15990   */\n    tag_311:\n        /* \"#utility.yul\":15737:15741   */\n      0x00\n        /* \"#utility.yul\":15775:15777   */\n      0x20\n        /* \"#utility.yul\":15764:15773   */\n      dup3\n        /* \"#utility.yul\":15760:15778   */\n      add\n        /* \"#utility.yul\":15752:15778   */\n      swap1\n      pop\n        /* \"#utility.yul\":15824:15833   */\n      dup2\n        /* \"#utility.yul\":15818:15822   */\n      dup2\n        /* \"#utility.yul\":15814:15834   */\n      sub\n        /* \"#utility.yul\":15810:15811   */\n      0x00\n        /* \"#utility.yul\":15799:15808   */\n      dup4\n        /* \"#utility.yul\":15795:15812   */\n      add\n        /* \"#utility.yul\":15788:15835   */\n      mstore\n        /* \"#utility.yul\":15852:15983   */\n      tag_586\n        /* \"#utility.yul\":15978:15982   */\n      dup2\n        /* \"#utility.yul\":15852:15983   */\n      tag_520\n      jump\t// in\n    tag_586:\n        /* \"#utility.yul\":15844:15983   */\n      swap1\n      pop\n        /* \"#utility.yul\":15571:15990   */\n      swap2\n      swap1\n      pop\n      jump\t// out\n        /* \"#utility.yul\":15996:16415   */\n    tag_294:\n        /* \"#utility.yul\":16162:16166   */\n      0x00\n        /* \"#utility.yul\":16200:16202   */\n      0x20\n        /* \"#utility.yul\":16189:16198   */\n      dup3\n        /* \"#utility.yul\":16185:16203   */\n      add\n        /* \"#utility.yul\":16177:16203   */\n      swap1\n      pop\n        /* \"#utility.yul\":16249:16258   */\n      dup2\n        /* \"#utility.yul\":16243:16247   */\n      dup2\n        /* \"#utility.yul\":16239:16259   */\n      sub\n        /* \"#utility.yul\":16235:16236   */\n      0x00\n        /* \"#utility.yul\":16224:16233   */\n      dup4\n        /* \"#utility.yul\":16220:16237   */\n      add\n        /* \"#utility.yul\":16213:16260   */\n      mstore\n        /* \"#utility.yul\":16277:16408   */\n      tag_588\n        /* \"#utility.yul\":16403:16407   */\n      dup2\n        /* \"#utility.yul\":16277:16408   */\n      tag_525\n      jump\t// in\n    tag_588:\n        /* \"#utility.yul\":16269:16408   */\n      swap1\n      pop\n        /* \"#utility.yul\":15996:16415   */\n      swap2\n      swap1\n      pop\n      jump\t// out\n        /* \"#utility.yul\":16421:16840   */\n    tag_167:\n        /* \"#utility.yul\":16587:16591   */\n      0x00\n        /* \"#utility.yul\":16625:16627   */\n      0x20\n        /* \"#utility.yul\":16614:16623   */\n      dup3\n        /* \"#utility.yul\":16610:16628   */\n      add\n        /* \"#utility.yul\":16602:16628   */\n      swap1\n      pop\n        /* \"#utility.yul\":16674:16683   */\n      dup2\n        /* \"#utility.yul\":16668:16672   */\n      dup2\n        /* \"#utility.yul\":16664:16684   */\n      sub\n        /* \"#utility.yul\":16660:16661   */\n      0x00\n        /* \"#utility.yul\":16649:16658   */\n      dup4\n        /* \"#utility.yul\":16645:16662   */\n      add\n        /* \"#utility.yul\":16638:16685   */\n      mstore\n        /* \"#utility.yul\":16702:16833   */\n      tag_590\n        /* \"#utility.yul\":16828:16832   */\n      dup2\n        /* \"#utility.yul\":16702:16833   */\n      tag_530\n      jump\t// in\n    tag_590:\n        /* \"#utility.yul\":16694:16833   */\n      swap1\n      pop\n        /* \"#utility.yul\":16421:16840   */\n      swap2\n      swap1\n      pop\n      jump\t// out\n        /* \"#utility.yul\":16846:17068   */\n    tag_54:\n        /* \"#utility.yul\":16939:16943   */\n      0x00\n        /* \"#utility.yul\":16977:16979   */\n      0x20\n        /* \"#utility.yul\":16966:16975   */\n      dup3\n        /* \"#utility.yul\":16962:16980   */\n      add\n        /* \"#utility.yul\":16954:16980   */\n      swap1\n      pop\n        /* \"#utility.yul\":16990:17061   */\n      tag_592\n        /* \"#utility.yul\":17058:17059   */\n      0x00\n        /* \"#utility.yul\":17047:17056   */\n      dup4\n        /* \"#utility.yul\":17043:17060   */\n      add\n        /* \"#utility.yul\":17034:17040   */\n      dup5\n        /* \"#utility.yul\":16990:17061   */\n      tag_538\n      jump\t// in\n    tag_592:\n        /* \"#utility.yul\":16846:17068   */\n      swap3\n      swap2\n      pop\n      pop\n      jump\t// out\n        /* \"#utility.yul\":17074:17288   */\n    tag_163:\n        /* \"#utility.yul\":17163:17167   */\n      0x00\n        /* \"#utility.yul\":17201:17203   */\n      0x20\n        /* \"#utility.yul\":17190:17199   */\n      dup3\n        /* \"#utility.yul\":17186:17204   */\n      add\n        /* \"#utility.yul\":17178:17204   */\n      swap1\n      pop\n        /* \"#utility.yul\":17214:17281   */\n      tag_594\n        /* \"#utility.yul\":17278:17279   */\n      0x00\n        /* \"#utility.yul\":17267:17276   */\n      dup4\n        /* \"#utility.yul\":17263:17280   */\n      add\n        /* \"#utility.yul\":17254:17260   */\n      dup5\n        /* \"#utility.yul\":17214:17281   */\n      tag_541\n      jump\t// in\n    tag_594:\n        /* \"#utility.yul\":17074:17288   */\n      swap3\n      swap2\n      pop\n      pop\n      jump\t// out\n        /* \"#utility.yul\":17375:17473   */\n    tag_455:\n        /* \"#utility.yul\":17440:17444   */\n      0x00\n        /* \"#utility.yul\":17463:17466   */\n      dup2\n        /* \"#utility.yul\":17455:17466   */\n      swap1\n      pop\n        /* \"#utility.yul\":17375:17473   */\n      swap2\n      swap1\n      pop\n      jump\t// out\n        /* \"#utility.yul\":17479:17583   */\n    tag_451:\n        /* \"#utility.yul\":17544:17550   */\n      0x00\n        /* \"#utility.yul\":17572:17576   */\n      0x09\n        /* \"#utility.yul\":17562:17576   */\n      swap1\n      pop\n        /* \"#utility.yul\":17479:17583   */\n      swap2\n      swap1\n      pop\n      jump\t// out\n        /* \"#utility.yul\":17589:17688   */\n    tag_473:\n        /* \"#utility.yul\":17641:17647   */\n      0x00\n        /* \"#utility.yul\":17675:17680   */\n      dup2\n        /* \"#utility.yul\":17669:17681   */\n      mload\n        /* \"#utility.yul\":17659:17681   */\n      swap1\n      pop\n        /* \"#utility.yul\":17589:17688   */\n      swap2\n      swap1\n      pop\n      jump\t// out\n        /* \"#utility.yul\":17694:17805   */\n    tag_461:\n        /* \"#utility.yul\":17762:17766   */\n      0x00\n        /* \"#utility.yul\":17794:17798   */\n      0x20\n        /* \"#utility.yul\":17789:17792   */\n      dup3\n        /* \"#utility.yul\":17785:17799   */\n      add\n        /* \"#utility.yul\":17777:17799   */\n      swap1\n      pop\n        /* \"#utility.yul\":17694:17805   */\n      swap2\n      swap1\n      pop\n      jump\t// out\n        /* \"#utility.yul\":17811:17954   */\n    tag_453:\n        /* \"#utility.yul\":17908:17919   */\n      0x00\n        /* \"#utility.yul\":17945:17948   */\n      dup2\n        /* \"#utility.yul\":17930:17948   */\n      swap1\n      pop\n        /* \"#utility.yul\":17811:17954   */\n      swap3\n      swap2\n      pop\n      pop\n      jump\t// out\n        /* \"#utility.yul\":17960:18129   */\n    tag_475:\n        /* \"#utility.yul\":18044:18055   */\n      0x00\n        /* \"#utility.yul\":18078:18084   */\n      dup3\n        /* \"#utility.yul\":18073:18076   */\n      dup3\n        /* \"#utility.yul\":18066:18085   */\n      mstore\n        /* \"#utility.yul\":18118:18122   */\n      0x20\n        /* \"#utility.yul\":18113:18116   */\n      dup3\n        /* \"#utility.yul\":18109:18123   */\n      add\n        /* \"#utility.yul\":18094:18123   */\n      swap1\n      pop\n        /* \"#utility.yul\":17960:18129   */\n      swap3\n      swap2\n      pop\n      pop\n      jump\t// out\n        /* \"#utility.yul\":18135:18440   */\n    tag_376:\n        /* \"#utility.yul\":18175:18178   */\n      0x00\n        /* \"#utility.yul\":18194:18214   */\n      tag_604\n        /* \"#utility.yul\":18212:18213   */\n      dup3\n        /* \"#utility.yul\":18194:18214   */\n      tag_537\n      jump\t// in\n    tag_604:\n        /* \"#utility.yul\":18189:18214   */\n      swap2\n      pop\n        /* \"#utility.yul\":18228:18248   */\n      tag_605\n        /* \"#utility.yul\":18246:18247   */\n      dup4\n        /* \"#utility.yul\":18228:18248   */\n      tag_537\n      jump\t// in\n    tag_605:\n        /* \"#utility.yul\":18223:18248   */\n      swap3\n      pop\n        /* \"#utility.yul\":18382:18383   */\n      dup3\n        /* \"#utility.yul\":18314:18380   */\n      0xffffffffffffffffffffffffffffffffffffffffffffffffffffffffffffffff\n        /* \"#utility.yul\":18310:18384   */\n      sub\n        /* \"#utility.yul\":18307:18308   */\n      dup3\n        /* \"#utility.yul\":18304:18385   */\n      gt\n        /* \"#utility.yul\":18301:18408   */\n      iszero\n      tag_606\n      jumpi\n        /* \"#utility.yul\":18388:18406   */\n      tag_607\n      tag_608\n      jump\t// in\n    tag_607:\n        /* \"#utility.yul\":18301:18408   */\n    tag_606:\n        /* \"#utility.yul\":18432:18433   */\n      dup3\n        /* \"#utility.yul\":18429:18430   */\n      dup3\n        /* \"#utility.yul\":18425:18434   */\n      add\n        /* \"#utility.yul\":18418:18434   */\n      swap1\n      pop\n        /* \"#utility.yul\":18135:18440   */\n      swap3\n      swap2\n      pop\n      pop\n      jump\t// out\n        /* \"#utility.yul\":18446:18631   */\n    tag_344:\n        /* \"#utility.yul\":18486:18487   */\n      0x00\n        /* \"#utility.yul\":18503:18523   */\n      tag_610\n        /* \"#utility.yul\":18521:18522   */\n      dup3\n        /* \"#utility.yul\":18503:18523   */\n      tag_537\n      jump\t// in\n    tag_610:\n        /* \"#utility.yul\":18498:18523   */\n      swap2\n      pop\n        /* \"#utility.yul\":18537:18557   */\n      tag_611\n        /* \"#utility.yul\":18555:18556   */\n      dup4\n        /* \"#utility.yul\":18537:18557   */\n      tag_537\n      jump\t// in\n    tag_611:\n        /* \"#utility.yul\":18532:18557   */\n      swap3\n      pop\n        /* \"#utility.yul\":18576:18577   */\n      dup3\n        /* \"#utility.yul\":18566:18601   */\n      tag_612\n      jumpi\n        /* \"#utility.yul\":18581:18599   */\n      tag_613\n      tag_614\n      jump\t// in\n    tag_613:\n        /* \"#utility.yul\":18566:18601   */\n    tag_612:\n        /* \"#utility.yul\":18623:18624   */\n      dup3\n        /* \"#utility.yul\":18620:18621   */\n      dup3\n        /* \"#utility.yul\":18616:18625   */\n      div\n        /* \"#utility.yul\":18611:18625   */\n      swap1\n      pop\n        /* \"#utility.yul\":18446:18631   */\n      swap3\n      swap2\n      pop\n      pop\n      jump\t// out\n        /* \"#utility.yul\":18637:18985   */\n    tag_342:\n        /* \"#utility.yul\":18677:18684   */\n      0x00\n        /* \"#utility.yul\":18700:18720   */\n      tag_616\n        /* \"#utility.yul\":18718:18719   */\n      dup3\n        /* \"#utility.yul\":18700:18720   */\n      tag_537\n      jump\t// in\n    tag_616:\n        /* \"#utility.yul\":18695:18720   */\n      swap2\n      pop\n        /* \"#utility.yul\":18734:18754   */\n      tag_617\n        /* \"#utility.yul\":18752:18753   */\n      dup4\n        /* \"#utility.yul\":18734:18754   */\n      tag_537\n      jump\t// in\n    tag_617:\n        /* \"#utility.yul\":18729:18754   */\n      swap3\n      pop\n        /* \"#utility.yul\":18922:18923   */\n      dup2\n        /* \"#utility.yul\":18854:18920   */\n      0xffffffffffffffffffffffffffffffffffffffffffffffffffffffffffffffff\n        /* \"#utility.yul\":18850:18924   */\n      div\n        /* \"#utility.yul\":18847:18848   */\n      dup4\n        /* \"#utility.yul\":18844:18925   */\n      gt\n        /* \"#utility.yul\":18839:18840   */\n      dup3\n        /* \"#utility.yul\":18832:18841   */\n      iszero\n        /* \"#utility.yul\":18825:18842   */\n      iszero\n        /* \"#utility.yul\":18821:18926   */\n      and\n        /* \"#utility.yul\":18818:18949   */\n      iszero\n      tag_618\n      jumpi\n        /* \"#utility.yul\":18929:18947   */\n      tag_619\n      tag_608\n      jump\t// in\n    tag_619:\n        /* \"#utility.yul\":18818:18949   */\n    tag_618:\n        /* \"#utility.yul\":18977:18978   */\n      dup3\n        /* \"#utility.yul\":18974:18975   */\n      dup3\n        /* \"#utility.yul\":18970:18979   */\n      mul\n        /* \"#utility.yul\":18959:18979   */\n      swap1\n      pop\n        /* \"#utility.yul\":18637:18985   */\n      swap3\n      swap2\n      pop\n      pop\n      jump\t// out\n        /* \"#utility.yul\":18991:19182   */\n    tag_389:\n        /* \"#utility.yul\":19031:19035   */\n      0x00\n        /* \"#utility.yul\":19051:19071   */\n      tag_621\n        /* \"#utility.yul\":19069:19070   */\n      dup3\n        /* \"#utility.yul\":19051:19071   */\n      tag_537\n      jump\t// in\n    tag_621:\n        /* \"#utility.yul\":19046:19071   */\n      swap2\n      pop\n        /* \"#utility.yul\":19085:19105   */\n      tag_622\n        /* \"#utility.yul\":19103:19104   */\n      dup4\n        /* \"#utility.yul\":19085:19105   */\n      tag_537\n      jump\t// in\n    tag_622:\n        /* \"#utility.yul\":19080:19105   */\n      swap3\n      pop\n        /* \"#utility.yul\":19124:19125   */\n      dup3\n        /* \"#utility.yul\":19121:19122   */\n      dup3\n        /* \"#utility.yul\":19118:19126   */\n      lt\n        /* \"#utility.yul\":19115:19149   */\n      iszero\n      tag_623\n      jumpi\n        /* \"#utility.yul\":19129:19147   */\n      tag_624\n      tag_608\n      jump\t// in\n    tag_624:\n        /* \"#utility.yul\":19115:19149   */\n    tag_623:\n        /* \"#utility.yul\":19174:19175   */\n      dup3\n        /* \"#utility.yul\":19171:19172   */\n      dup3\n        /* \"#utility.yul\":19167:19176   */\n      sub\n        /* \"#utility.yul\":19159:19176   */\n      swap1\n      pop\n        /* \"#utility.yul\":18991:19182   */\n      swap3\n      swap2\n      pop\n      pop\n      jump\t// out\n        /* \"#utility.yul\":19188:19284   */\n    tag_447:\n        /* \"#utility.yul\":19225:19232   */\n      0x00\n        /* \"#utility.yul\":19254:19278   */\n      tag_626\n        /* \"#utility.yul\":19272:19277   */\n      dup3\n        /* \"#utility.yul\":19254:19278   */\n      tag_627\n      jump\t// in\n    tag_626:\n        /* \"#utility.yul\":19243:19278   */\n      swap1\n      pop\n        /* \"#utility.yul\":19188:19284   */\n      swap2\n      swap1\n      pop\n      jump\t// out\n        /* \"#utility.yul\":19290:19380   */\n    tag_465:\n        /* \"#utility.yul\":19324:19331   */\n      0x00\n        /* \"#utility.yul\":19367:19372   */\n      dup2\n        /* \"#utility.yul\":19360:19373   */\n      iszero\n        /* \"#utility.yul\":19353:19374   */\n      iszero\n        /* \"#utility.yul\":19342:19374   */\n      swap1\n      pop\n        /* \"#utility.yul\":19290:19380   */\n      swap2\n      swap1\n      pop\n      jump\t// out\n        /* \"#utility.yul\":19386:19496   */\n    tag_629:\n        /* \"#utility.yul\":19437:19444   */\n      0x00\n        /* \"#utility.yul\":19466:19490   */\n      tag_631\n        /* \"#utility.yul\":19484:19489   */\n      dup3\n        /* \"#utility.yul\":19466:19490   */\n      tag_447\n      jump\t// in\n    tag_631:\n        /* \"#utility.yul\":19455:19490   */\n      swap1\n      pop\n        /* \"#utility.yul\":19386:19496   */\n      swap2\n      swap1\n      pop\n      jump\t// out\n        /* \"#utility.yul\":19502:19628   */\n    tag_627:\n        /* \"#utility.yul\":19539:19546   */\n      0x00\n        /* \"#utility.yul\":19579:19621   */\n      0xffffffffffffffffffffffffffffffffffffffff\n        /* \"#utility.yul\":19572:19577   */\n      dup3\n        /* \"#utility.yul\":19568:19622   */\n      and\n        /* \"#utility.yul\":19557:19622   */\n      swap1\n      pop\n        /* \"#utility.yul\":19502:19628   */\n      swap2\n      swap1\n      pop\n      jump\t// out\n        /* \"#utility.yul\":19634:19711   */\n    tag_537:\n        /* \"#utility.yul\":19671:19678   */\n      0x00\n        /* \"#utility.yul\":19700:19705   */\n      dup2\n        /* \"#utility.yul\":19689:19705   */\n      swap1\n      pop\n        /* \"#utility.yul\":19634:19711   */\n      swap2\n      swap1\n      pop\n      jump\t// out\n        /* \"#utility.yul\":19717:19803   */\n    tag_544:\n        /* \"#utility.yul\":19752:19759   */\n      0x00\n        /* \"#utility.yul\":19792:19796   */\n      0xff\n        /* \"#utility.yul\":19785:19790   */\n      dup3\n        /* \"#utility.yul\":19781:19797   */\n      and\n        /* \"#utility.yul\":19770:19797   */\n      swap1\n      pop\n        /* \"#utility.yul\":19717:19803   */\n      swap2\n      swap1\n      pop\n      jump\t// out\n        /* \"#utility.yul\":19809:19949   */\n    tag_469:\n        /* \"#utility.yul\":19873:19882   */\n      0x00\n        /* \"#utility.yul\":19906:19943   */\n      tag_636\n        /* \"#utility.yul\":19937:19942   */\n      dup3\n        /* \"#utility.yul\":19906:19943   */\n      tag_637\n      jump\t// in\n    tag_636:\n        /* \"#utility.yul\":19893:19943   */\n      swap1\n      pop\n        /* \"#utility.yul\":19809:19949   */\n      swap2\n      swap1\n      pop\n      jump\t// out\n        /* \"#utility.yul\":19955:20081   */\n    tag_637:\n        /* \"#utility.yul\":20005:20014   */\n      0x00\n        /* \"#utility.yul\":20038:20075   */\n      tag_639\n        /* \"#utility.yul\":20069:20074   */\n      dup3\n        /* \"#utility.yul\":20038:20075   */\n      tag_640\n      jump\t// in\n    tag_639:\n        /* \"#utility.yul\":20025:20075   */\n      swap1\n      pop\n        /* \"#utility.yul\":19955:20081   */\n      swap2\n      swap1\n      pop\n      jump\t// out\n        /* \"#utility.yul\":20087:20200   */\n    tag_640:\n        /* \"#utility.yul\":20137:20146   */\n      0x00\n        /* \"#utility.yul\":20170:20194   */\n      tag_642\n        /* \"#utility.yul\":20188:20193   */\n      dup3\n        /* \"#utility.yul\":20170:20194   */\n      tag_627\n      jump\t// in\n    tag_642:\n        /* \"#utility.yul\":20157:20194   */\n      swap1\n      pop\n        /* \"#utility.yul\":20087:20200   */\n      swap2\n      swap1\n      pop\n      jump\t// out\n        /* \"#utility.yul\":20206:20513   */\n    tag_477:\n        /* \"#utility.yul\":20274:20275   */\n      0x00\n        /* \"#utility.yul\":20284:20397   */\n    tag_644:\n        /* \"#utility.yul\":20298:20304   */\n      dup4\n        /* \"#utility.yul\":20295:20296   */\n      dup2\n        /* \"#utility.yul\":20292:20305   */\n      lt\n        /* \"#utility.yul\":20284:20397   */\n      iszero\n      tag_646\n      jumpi\n        /* \"#utility.yul\":20383:20384   */\n      dup1\n        /* \"#utility.yul\":20378:20381   */\n      dup3\n        /* \"#utility.yul\":20374:20385   */\n      add\n        /* \"#utility.yul\":20368:20386   */\n      mload\n        /* \"#utility.yul\":20364:20365   */\n      dup2\n        /* \"#utility.yul\":20359:20362   */\n      dup5\n        /* \"#utility.yul\":20355:20366   */\n      add\n        /* \"#utility.yul\":20348:20387   */\n      mstore\n        /* \"#utility.yul\":20320:20322   */\n      0x20\n        /* \"#utility.yul\":20317:20318   */\n      dup2\n        /* \"#utility.yul\":20313:20323   */\n      add\n        /* \"#utility.yul\":20308:20323   */\n      swap1\n      pop\n        /* \"#utility.yul\":20284:20397   */\n      jump(tag_644)\n    tag_646:\n        /* \"#utility.yul\":20415:20421   */\n      dup4\n        /* \"#utility.yul\":20412:20413   */\n      dup2\n        /* \"#utility.yul\":20409:20422   */\n      gt\n        /* \"#utility.yul\":20406:20507   */\n      iszero\n      tag_647\n      jumpi\n        /* \"#utility.yul\":20495:20496   */\n      0x00\n        /* \"#utility.yul\":20486:20492   */\n      dup5\n        /* \"#utility.yul\":20481:20484   */\n      dup5\n        /* \"#utility.yul\":20477:20493   */\n      add\n        /* \"#utility.yul\":20470:20497   */\n      mstore\n        /* \"#utility.yul\":20406:20507   */\n    tag_647:\n        /* \"#utility.yul\":20255:20513   */\n      pop\n        /* \"#utility.yul\":20206:20513   */\n      pop\n      pop\n      pop\n      jump\t// out\n        /* \"#utility.yul\":20519:20699   */\n    tag_608:\n        /* \"#utility.yul\":20567:20644   */\n      0x4e487b7100000000000000000000000000000000000000000000000000000000\n        /* \"#utility.yul\":20564:20565   */\n      0x00\n        /* \"#utility.yul\":20557:20645   */\n      mstore\n        /* \"#utility.yul\":20664:20668   */\n      0x11\n        /* \"#utility.yul\":20661:20662   */\n      0x04\n        /* \"#utility.yul\":20654:20669   */\n      mstore\n        /* \"#utility.yul\":20688:20692   */\n      0x24\n        /* \"#utility.yul\":20685:20686   */\n      0x00\n        /* \"#utility.yul\":20678:20693   */\n      revert\n        /* \"#utility.yul\":20705:20885   */\n    tag_614:\n        /* \"#utility.yul\":20753:20830   */\n      0x4e487b7100000000000000000000000000000000000000000000000000000000\n        /* \"#utility.yul\":20750:20751   */\n      0x00\n        /* \"#utility.yul\":20743:20831   */\n      mstore\n        /* \"#utility.yul\":20850:20854   */\n      0x12\n        /* \"#utility.yul\":20847:20848   */\n      0x04\n        /* \"#utility.yul\":20840:20855   */\n      mstore\n        /* \"#utility.yul\":20874:20878   */\n      0x24\n        /* \"#utility.yul\":20871:20872   */\n      0x00\n        /* \"#utility.yul\":20864:20879   */\n      revert\n        /* \"#utility.yul\":20891:21071   */\n    tag_203:\n        /* \"#utility.yul\":20939:21016   */\n      0x4e487b7100000000000000000000000000000000000000000000000000000000\n        /* \"#utility.yul\":20936:20937   */\n      0x00\n        /* \"#utility.yul\":20929:21017   */\n      mstore\n        /* \"#utility.yul\":21036:21040   */\n      0x32\n        /* \"#utility.yul\":21033:21034   */\n      0x04\n        /* \"#utility.yul\":21026:21041   */\n      mstore\n        /* \"#utility.yul\":21060:21064   */\n      0x24\n        /* \"#utility.yul\":21057:21058   */\n      0x00\n        /* \"#utility.yul\":21050:21065   */\n      revert\n        /* \"#utility.yul\":21200:21317   */\n    tag_417:\n        /* \"#utility.yul\":21309:21310   */\n      0x00\n        /* \"#utility.yul\":21306:21307   */\n      dup1\n        /* \"#utility.yul\":21299:21311   */\n      revert\n        /* \"#utility.yul\":21323:21425   */\n    tag_479:\n        /* \"#utility.yul\":21364:21370   */\n      0x00\n        /* \"#utility.yul\":21415:21417   */\n      0x1f\n        /* \"#utility.yul\":21411:21418   */\n      not\n        /* \"#utility.yul\":21406:21408   */\n      0x1f\n        /* \"#utility.yul\":21399:21404   */\n      dup4\n        /* \"#utility.yul\":21395:21409   */\n      add\n        /* \"#utility.yul\":21391:21419   */\n      and\n        /* \"#utility.yul\":21381:21419   */\n      swap1\n      pop\n        /* \"#utility.yul\":21323:21425   */\n      swap2\n      swap1\n      pop\n      jump\t// out\n        /* \"#utility.yul\":21431:21596   */\n    tag_484:\n        /* \"#utility.yul\":21571:21588   */\n      0x494e56414c49445f414444524553530000000000000000000000000000000000\n        /* \"#utility.yul\":21567:21568   */\n      0x00\n        /* \"#utility.yul\":21559:21565   */\n      dup3\n        /* \"#utility.yul\":21555:21569   */\n      add\n        /* \"#utility.yul\":21548:21589   */\n      mstore\n        /* \"#utility.yul\":21431:21596   */\n      pop\n      jump\t// out\n        /* \"#utility.yul\":21602:21769   */\n    tag_489:\n        /* \"#utility.yul\":21742:21761   */\n      0x494e56414c49445f57484954456c495354000000000000000000000000000000\n        /* \"#utility.yul\":21738:21739   */\n      0x00\n        /* \"#utility.yul\":21730:21736   */\n      dup3\n        /* \"#utility.yul\":21726:21740   */\n      add\n        /* \"#utility.yul\":21719:21762   */\n      mstore\n        /* \"#utility.yul\":21602:21769   */\n      pop\n      jump\t// out\n        /* \"#utility.yul\":21775:21943   */\n    tag_494:\n        /* \"#utility.yul\":21915:21935   */\n      0x494e56414c49445f515541544954593a30310000000000000000000000000000\n        /* \"#utility.yul\":21911:21912   */\n      0x00\n        /* \"#utility.yul\":21903:21909   */\n      dup3\n        /* \"#utility.yul\":21899:21913   */\n      add\n        /* \"#utility.yul\":21892:21936   */\n      mstore\n        /* \"#utility.yul\":21775:21943   */\n      pop\n      jump\t// out\n        /* \"#utility.yul\":21949:22126   */\n    tag_499:\n        /* \"#utility.yul\":22089:22118   */\n      0x536166654d6174683a206164646974696f6e206f766572666c6f770000000000\n        /* \"#utility.yul\":22085:22086   */\n      0x00\n        /* \"#utility.yul\":22077:22083   */\n      dup3\n        /* \"#utility.yul\":22073:22087   */\n      add\n        /* \"#utility.yul\":22066:22119   */\n      mstore\n        /* \"#utility.yul\":21949:22126   */\n      pop\n      jump\t// out\n        /* \"#utility.yul\":22132:22300   */\n    tag_504:\n        /* \"#utility.yul\":22272:22292   */\n      0x494e56414c49445f5041594d454e543a30320000000000000000000000000000\n        /* \"#utility.yul\":22268:22269   */\n      0x00\n        /* \"#utility.yul\":22260:22266   */\n      dup3\n        /* \"#utility.yul\":22256:22270   */\n      add\n        /* \"#utility.yul\":22249:22293   */\n      mstore\n        /* \"#utility.yul\":22132:22300   */\n      pop\n      jump\t// out\n        /* \"#utility.yul\":22306:22474   */\n    tag_509:\n        /* \"#utility.yul\":22446:22466   */\n      0x494e56414c49445f515541544954593a30320000000000000000000000000000\n        /* \"#utility.yul\":22442:22443   */\n      0x00\n        /* \"#utility.yul\":22434:22440   */\n      dup3\n        /* \"#utility.yul\":22430:22444   */\n      add\n        /* \"#utility.yul\":22423:22467   */\n      mstore\n        /* \"#utility.yul\":22306:22474   */\n      pop\n      jump\t// out\n        /* \"#utility.yul\":22480:22700   */\n    tag_514:\n        /* \"#utility.yul\":22620:22654   */\n      0x536166654d6174683a206d756c7469706c69636174696f6e206f766572666c6f\n        /* \"#utility.yul\":22616:22617   */\n      0x00\n        /* \"#utility.yul\":22608:22614   */\n      dup3\n        /* \"#utility.yul\":22604:22618   */\n      add\n        /* \"#utility.yul\":22597:22655   */\n      mstore\n        /* \"#utility.yul\":22689:22692   */\n      0x7700000000000000000000000000000000000000000000000000000000000000\n        /* \"#utility.yul\":22684:22686   */\n      0x20\n        /* \"#utility.yul\":22676:22682   */\n      dup3\n        /* \"#utility.yul\":22672:22687   */\n      add\n        /* \"#utility.yul\":22665:22693   */\n      mstore\n        /* \"#utility.yul\":22480:22700   */\n      pop\n      jump\t// out\n        /* \"#utility.yul\":22706:22867   */\n    tag_519:\n        /* \"#utility.yul\":22846:22859   */\n      0x53595354454d5f53544f50000000000000000000000000000000000000000000\n        /* \"#utility.yul\":22842:22843   */\n      0x00\n        /* \"#utility.yul\":22834:22840   */\n      dup3\n        /* \"#utility.yul\":22830:22844   */\n      add\n        /* \"#utility.yul\":22823:22860   */\n      mstore\n        /* \"#utility.yul\":22706:22867   */\n      pop\n      jump\t// out\n        /* \"#utility.yul\":22873:23041   */\n    tag_524:\n        /* \"#utility.yul\":23013:23033   */\n      0x494e56414c49445f5041594d454e543a30310000000000000000000000000000\n        /* \"#utility.yul\":23009:23010   */\n      0x00\n        /* \"#utility.yul\":23001:23007   */\n      dup3\n        /* \"#utility.yul\":22997:23011   */\n      add\n        /* \"#utility.yul\":22990:23034   */\n      mstore\n        /* \"#utility.yul\":22873:23041   */\n      pop\n      jump\t// out\n        /* \"#utility.yul\":23047:23213   */\n    tag_529:\n        /* \"#utility.yul\":23187:23205   */\n      0x494e56414c49445f414d4f554e545f3100000000000000000000000000000000\n        /* \"#utility.yul\":23183:23184   */\n      0x00\n        /* \"#utility.yul\":23175:23181   */\n      dup3\n        /* \"#utility.yul\":23171:23185   */\n      add\n        /* \"#utility.yul\":23164:23206   */\n      mstore\n        /* \"#utility.yul\":23047:23213   */\n      pop\n      jump\t// out\n        /* \"#utility.yul\":23219:23387   */\n    tag_534:\n        /* \"#utility.yul\":23359:23379   */\n      0x494e56414c49445f5045524d495353494f4e0000000000000000000000000000\n        /* \"#utility.yul\":23355:23356   */\n      0x00\n        /* \"#utility.yul\":23347:23353   */\n      dup3\n        /* \"#utility.yul\":23343:23357   */\n      add\n        /* \"#utility.yul\":23336:23380   */\n      mstore\n        /* \"#utility.yul\":23219:23387   */\n      pop\n      jump\t// out\n        /* \"#utility.yul\":23393:23515   */\n    tag_394:\n        /* \"#utility.yul\":23466:23490   */\n      tag_667\n        /* \"#utility.yul\":23484:23489   */\n      dup2\n        /* \"#utility.yul\":23466:23490   */\n      tag_447\n      jump\t// in\n    tag_667:\n        /* \"#utility.yul\":23459:23464   */\n      dup2\n        /* \"#utility.yul\":23456:23491   */\n      eq\n        /* \"#utility.yul\":23446:23509   */\n      tag_668\n      jumpi\n        /* \"#utility.yul\":23505:23506   */\n      0x00\n        /* \"#utility.yul\":23502:23503   */\n      dup1\n        /* \"#utility.yul\":23495:23507   */\n      revert\n        /* \"#utility.yul\":23446:23509   */\n    tag_668:\n        /* \"#utility.yul\":23393:23515   */\n      pop\n      jump\t// out\n        /* \"#utility.yul\":23521:23637   */\n    tag_398:\n        /* \"#utility.yul\":23591:23612   */\n      tag_670\n        /* \"#utility.yul\":23606:23611   */\n      dup2\n        /* \"#utility.yul\":23591:23612   */\n      tag_465\n      jump\t// in\n    tag_670:\n        /* \"#utility.yul\":23584:23589   */\n      dup2\n        /* \"#utility.yul\":23581:23613   */\n      eq\n        /* \"#utility.yul\":23571:23631   */\n      tag_671\n      jumpi\n        /* \"#utility.yul\":23627:23628   */\n      0x00\n        /* \"#utility.yul\":23624:23625   */\n      dup1\n        /* \"#utility.yul\":23617:23629   */\n      revert\n        /* \"#utility.yul\":23571:23631   */\n    tag_671:\n        /* \"#utility.yul\":23521:23637   */\n      pop\n      jump\t// out\n        /* \"#utility.yul\":23643:23793   */\n    tag_402:\n        /* \"#utility.yul\":23730:23768   */\n      tag_673\n        /* \"#utility.yul\":23762:23767   */\n      dup2\n        /* \"#utility.yul\":23730:23768   */\n      tag_629\n      jump\t// in\n    tag_673:\n        /* \"#utility.yul\":23723:23728   */\n      dup2\n        /* \"#utility.yul\":23720:23769   */\n      eq\n        /* \"#utility.yul\":23710:23787   */\n      tag_674\n      jumpi\n        /* \"#utility.yul\":23783:23784   */\n      0x00\n        /* \"#utility.yul\":23780:23781   */\n      dup1\n        /* \"#utility.yul\":23773:23785   */\n      revert\n        /* \"#utility.yul\":23710:23787   */\n    tag_674:\n        /* \"#utility.yul\":23643:23793   */\n      pop\n      jump\t// out\n        /* \"#utility.yul\":23799:23921   */\n    tag_406:\n        /* \"#utility.yul\":23872:23896   */\n      tag_676\n        /* \"#utility.yul\":23890:23895   */\n      dup2\n        /* \"#utility.yul\":23872:23896   */\n      tag_537\n      jump\t// in\n    tag_676:\n        /* \"#utility.yul\":23865:23870   */\n      dup2\n        /* \"#utility.yul\":23862:23897   */\n      eq\n        /* \"#utility.yul\":23852:23915   */\n      tag_677\n      jumpi\n        /* \"#utility.yul\":23911:23912   */\n      0x00\n        /* \"#utility.yul\":23908:23909   */\n      dup1\n        /* \"#utility.yul\":23901:23913   */\n      revert\n        /* \"#utility.yul\":23852:23915   */\n    tag_677:\n        /* \"#utility.yul\":23799:23921   */\n      pop\n      jump\t// out\n        /* \"#utility.yul\":23927:24045   */\n    tag_413:\n        /* \"#utility.yul\":23998:24020   */\n      tag_679\n        /* \"#utility.yul\":24014:24019   */\n      dup2\n        /* \"#utility.yul\":23998:24020   */\n      tag_544\n      jump\t// in\n    tag_679:\n        /* \"#utility.yul\":23991:23996   */\n      dup2\n        /* \"#utility.yul\":23988:24021   */\n      eq\n        /* \"#utility.yul\":23978:24039   */\n      tag_680\n      jumpi\n        /* \"#utility.yul\":24035:24036   */\n      0x00\n        /* \"#utility.yul\":24032:24033   */\n      dup1\n        /* \"#utility.yul\":24025:24037   */\n      revert\n        /* \"#utility.yul\":23978:24039   */\n    tag_680:\n        /* \"#utility.yul\":23927:24045   */\n      pop\n      jump\t// out\n\n    auxdata: 0xa264697066735822122046aac6a0865bfa5288b21a77494149a03c204fa6b4dc66066685315b561028c864736f6c63430008070033\n}\n",
				"bytecode": {
					"linkReferences": {},
					"object": "608060405260646000806101000a81548160ff021916908360ff160217905550619c4060035569021e19e0c9bab240000060045560006005556001600660006101000a81548160ff02191690831515021790555069010f0cf064dd592000006007556828a857425466f800006008553480156200007b57600080fd5b5060405162002fc338038062002fc38339818101604052810190620000a1919062000183565b81600160006101000a81548173ffffffffffffffffffffffffffffffffffffffff021916908373ffffffffffffffffffffffffffffffffffffffff16021790555080600260006101000a81548173ffffffffffffffffffffffffffffffffffffffff021916908373ffffffffffffffffffffffffffffffffffffffff16021790555033600060016101000a81548173ffffffffffffffffffffffffffffffffffffffff021916908373ffffffffffffffffffffffffffffffffffffffff160217905550505062000231565b6000815190506200017d8162000217565b92915050565b600080604083850312156200019d576200019c62000212565b5b6000620001ad858286016200016c565b9250506020620001c0858286016200016c565b9150509250929050565b6000620001d782620001f2565b9050919050565b6000620001eb82620001ca565b9050919050565b600073ffffffffffffffffffffffffffffffffffffffff82169050919050565b600080fd5b6200022281620001de565b81146200022e57600080fd5b50565b612d8280620002416000396000f3fe6080604052600436106101bb5760003560e01c806390c8dd17116100ec578063bcaaf6621161008a578063e632c2f311610064578063e632c2f3146105dd578063f2fde38b14610608578063f51f96dd14610631578063ffa1ad741461065c576101c2565b8063bcaaf6621461054e578063d96a094a1461058b578063e303151f146105b4576101c2565b8063a3907d71116100c6578063a3907d71146104b8578063a85f70f3146104cf578063b0176ce8146104fa578063b2a82cbb14610525576101c2565b806390c8dd171461042757806392f6386a14610464578063a2b0106b1461048f576101c2565b80633c6c26f91161015957806367cc74281161013357806367cc74281461036b578063860779e7146103a857806389a30271146103d15780638da5cb5b146103fc576101c2565b80633c6c26f9146102ec5780633cfd1ccc1461031557806350c19c0b14610340576101c2565b80632acfc3da116101955780632acfc3da146102445780632f2770db1461026d57806338266b22146102845780633af96b90146102c1576101c2565b80630f5a9d01146101c75780631919fed7146101f05780631f2475bd14610219576101c2565b366101c257005b600080fd5b3480156101d357600080fd5b506101ee60048036038101906101e99190612230565b610687565b005b3480156101fc57600080fd5b506102176004803603810190610212919061225d565b6107cb565b005b34801561022557600080fd5b5061022e610865565b60405161023b91906127e9565b60405180910390f35b34801561025057600080fd5b5061026b60048036038101906102669190612230565b610917565b005b34801561027957600080fd5b50610282610a5b565b005b34801561029057600080fd5b506102ab60048036038101906102a69190612196565b610b08565b6040516102b89190612615565b60405180910390f35b3480156102cd57600080fd5b506102d6610ddb565b6040516102e391906127e9565b60405180910390f35b3480156102f857600080fd5b50610313600480360381019061030e9190612230565b610de1565b005b34801561032157600080fd5b5061032a610fb2565b60405161033791906127e9565b60405180910390f35b34801561034c57600080fd5b50610355611064565b60405161036291906127e9565b60405180910390f35b34801561037757600080fd5b50610392600480360381019061038d9190612196565b61106a565b60405161039f9190612631565b60405180910390f35b3480156103b457600080fd5b506103cf60048036038101906103ca919061225d565b61108a565b005b3480156103dd57600080fd5b506103e6611124565b6040516103f3919061264c565b60405180910390f35b34801561040857600080fd5b5061041161114a565b60405161041e919061253a565b60405180910390f35b34801561043357600080fd5b5061044e60048036038101906104499190612196565b611170565b60405161045b91906127e9565b60405180910390f35b34801561047057600080fd5b506104796112f8565b6040516104869190612631565b60405180910390f35b34801561049b57600080fd5b506104b660048036038101906104b1919061225d565b61130b565b005b3480156104c457600080fd5b506104cd6113a5565b005b3480156104db57600080fd5b506104e4611452565b6040516104f191906127e9565b60405180910390f35b34801561050657600080fd5b5061050f611458565b60405161051c919061264c565b60405180910390f35b34801561053157600080fd5b5061054c6004803603810190610547919061225d565b61147e565b005b34801561055a57600080fd5b5061057560048036038101906105709190612196565b611518565b60405161058291906127e9565b60405180910390f35b34801561059757600080fd5b506105b260048036038101906105ad919061225d565b611530565b005b3480156105c057600080fd5b506105db60048036038101906105d691906121c3565b611a26565b005b3480156105e957600080fd5b506105f2611b7c565b6040516105ff91906127e9565b60405180910390f35b34801561061457600080fd5b5061062f600480360381019061062a9190612196565b611b82565b005b34801561063d57600080fd5b50610646611c56565b60405161065391906127e9565b60405180910390f35b34801561066857600080fd5b50610671611c5c565b60405161067e9190612804565b60405180910390f35b600060019054906101000a900473ffffffffffffffffffffffffffffffffffffffff1673ffffffffffffffffffffffffffffffffffffffff163373ffffffffffffffffffffffffffffffffffffffff1614610717576040517f08c379a000000000000000000000000000000000000000000000000000000000815260040161070e906127c9565b60405180910390fd5b600073ffffffffffffffffffffffffffffffffffffffff168173ffffffffffffffffffffffffffffffffffffffff161415610787576040517f08c379a000000000000000000000000000000000000000000000000000000000815260040161077e90612689565b60405180910390fd5b80600260006101000a81548173ffffffffffffffffffffffffffffffffffffffff021916908373ffffffffffffffffffffffffffffffffffffffff16021790555050565b600060019054906101000a900473ffffffffffffffffffffffffffffffffffffffff1673ffffffffffffffffffffffffffffffffffffffff163373ffffffffffffffffffffffffffffffffffffffff161461085b576040517f08c379a0000000000000000000000000000000000000000000000000000000008152600401610852906127c9565b60405180910390fd5b8060038190555050565b6000600160009054906101000a900473ffffffffffffffffffffffffffffffffffffffff1673ffffffffffffffffffffffffffffffffffffffff166370a08231306040518263ffffffff1660e01b81526004016108c2919061253a565b60206040518083038186803b1580156108da57600080fd5b505afa1580156108ee573d6000803e3d6000fd5b505050506040513d601f19601f82011682018060405250810190610912919061228a565b905090565b600060019054906101000a900473ffffffffffffffffffffffffffffffffffffffff1673ffffffffffffffffffffffffffffffffffffffff163373ffffffffffffffffffffffffffffffffffffffff16146109a7576040517f08c379a000000000000000000000000000000000000000000000000000000000815260040161099e906127c9565b60405180910390fd5b600073ffffffffffffffffffffffffffffffffffffffff168173ffffffffffffffffffffffffffffffffffffffff161415610a17576040517f08c379a0000000000000000000000000000000000000000000000000000000008152600401610a0e90612689565b60405180910390fd5b80600160006101000a81548173ffffffffffffffffffffffffffffffffffffffff021916908373ffffffffffffffffffffffffffffffffffffffff16021790555050565b600060019054906101000a900473ffffffffffffffffffffffffffffffffffffffff1673ffffffffffffffffffffffffffffffffffffffff163373ffffffffffffffffffffffffffffffffffffffff1614610aeb576040517f08c379a0000000000000000000000000000000000000000000000000000000008152600401610ae2906127c9565b60405180910390fd5b6000600660006101000a81548160ff021916908315150217905550565b610b106120f5565b600260009054906101000a900473ffffffffffffffffffffffffffffffffffffffff1673ffffffffffffffffffffffffffffffffffffffff166370a08231836040518263ffffffff1660e01b8152600401610b6b919061253a565b60206040518083038186803b158015610b8357600080fd5b505afa158015610b97573d6000803e3d6000fd5b505050506040513d601f19601f82011682018060405250810190610bbb919061228a565b81600060098110610bcf57610bce612aab565b5b602002018181525050610be182611170565b81600160098110610bf557610bf4612aab565b5b602002018181525050610c45670de0b6b3a7640000610c3760035484600160098110610c2457610c23612aab565b5b6020020151611c6d90919063ffffffff16565b611ce890919063ffffffff16565b81600260098110610c5957610c58612aab565b5b602002018181525050610c6a610fb2565b81600360098110610c7e57610c7d612aab565b5b60200201818152505060075481600460098110610c9e57610c9d612aab565b5b602002018181525050610caf610865565b81600560098110610cc357610cc2612aab565b5b60200201818152505060035481600660098110610ce357610ce2612aab565b5b60200201818152505060055481600760098110610d0357610d02612aab565b5b602002018181525050600260009054906101000a900473ffffffffffffffffffffffffffffffffffffffff1673ffffffffffffffffffffffffffffffffffffffff1663dd62ed3e83306040518363ffffffff1660e01b8152600401610d69929190612555565b60206040518083038186803b158015610d8157600080fd5b505afa158015610d95573d6000803e3d6000fd5b505050506040513d601f19601f82011682018060405250810190610db9919061228a565b81600860098110610dcd57610dcc612aab565b5b602002018181525050919050565b60085481565b600060019054906101000a900473ffffffffffffffffffffffffffffffffffffffff1673ffffffffffffffffffffffffffffffffffffffff163373ffffffffffffffffffffffffffffffffffffffff1614610e71576040517f08c379a0000000000000000000000000000000000000000000000000000000008152600401610e68906127c9565b60405180910390fd5b60008173ffffffffffffffffffffffffffffffffffffffff166370a08231306040518263ffffffff1660e01b8152600401610eac919061253a565b60206040518083038186803b158015610ec457600080fd5b505afa158015610ed8573d6000803e3d6000fd5b505050506040513d601f19601f82011682018060405250810190610efc919061228a565b90508173ffffffffffffffffffffffffffffffffffffffff1663a9059cbb600060019054906101000a900473ffffffffffffffffffffffffffffffffffffffff16836040518363ffffffff1660e01b8152600401610f5b9291906125b5565b602060405180830381600087803b158015610f7557600080fd5b505af1158015610f89573d6000803e3d6000fd5b505050506040513d601f19601f82011682018060405250810190610fad9190612203565b505050565b6000600260009054906101000a900473ffffffffffffffffffffffffffffffffffffffff1673ffffffffffffffffffffffffffffffffffffffff166370a08231306040518263ffffffff1660e01b815260040161100f919061253a565b60206040518083038186803b15801561102757600080fd5b505afa15801561103b573d6000803e3d6000fd5b505050506040513d601f19601f8201168201806040525081019061105f919061228a565b905090565b60075481565b600a6020528060005260406000206000915054906101000a900460ff1681565b600060019054906101000a900473ffffffffffffffffffffffffffffffffffffffff1673ffffffffffffffffffffffffffffffffffffffff163373ffffffffffffffffffffffffffffffffffffffff161461111a576040517f08c379a0000000000000000000000000000000000000000000000000000000008152600401611111906127c9565b60405180910390fd5b8060088190555050565b600260009054906101000a900473ffffffffffffffffffffffffffffffffffffffff1681565b600060019054906101000a900473ffffffffffffffffffffffffffffffffffffffff1681565b60008061117b610865565b9050600754600960008573ffffffffffffffffffffffffffffffffffffffff1673ffffffffffffffffffffffffffffffffffffffff168152602001908152602001600020541015806111ce575060008111155b806111ec575060001515600660009054906101000a900460ff161515145b156111fb5760009150506112f3565b6000611251600960008673ffffffffffffffffffffffffffffffffffffffff1673ffffffffffffffffffffffffffffffffffffffff16815260200190815260200160002054600754611d3290919063ffffffff16565b905060011515600a60008673ffffffffffffffffffffffffffffffffffffffff1673ffffffffffffffffffffffffffffffffffffffff16815260200190815260200160002060009054906101000a900460ff16151514156112b65780925050506112f3565b60045482116112ca576000925050506112f3565b6112df60045483611d3290919063ffffffff16565b9150818111156112ed578190505b80925050505b919050565b600660009054906101000a900460ff1681565b600060019054906101000a900473ffffffffffffffffffffffffffffffffffffffff1673ffffffffffffffffffffffffffffffffffffffff163373ffffffffffffffffffffffffffffffffffffffff161461139b576040517f08c379a0000000000000000000000000000000000000000000000000000000008152600401611392906127c9565b60405180910390fd5b8060078190555050565b600060019054906101000a900473ffffffffffffffffffffffffffffffffffffffff1673ffffffffffffffffffffffffffffffffffffffff163373ffffffffffffffffffffffffffffffffffffffff1614611435576040517f08c379a000000000000000000000000000000000000000000000000000000000815260040161142c906127c9565b60405180910390fd5b6001600660006101000a81548160ff021916908315150217905550565b60045481565b600160009054906101000a900473ffffffffffffffffffffffffffffffffffffffff1681565b600060019054906101000a900473ffffffffffffffffffffffffffffffffffffffff1673ffffffffffffffffffffffffffffffffffffffff163373ffffffffffffffffffffffffffffffffffffffff161461150e576040517f08c379a0000000000000000000000000000000000000000000000000000000008152600401611505906127c9565b60405180910390fd5b8060048190555050565b60096020528060005260406000206000915090505481565b3273ffffffffffffffffffffffffffffffffffffffff163373ffffffffffffffffffffffffffffffffffffffff161461159e576040517f08c379a0000000000000000000000000000000000000000000000000000000008152600401611595906126a9565b60405180910390fd5b60011515600660009054906101000a900460ff161515146115f4576040517f08c379a00000000000000000000000000000000000000000000000000000000081526004016115eb90612769565b60405180910390fd5b60008111611637576040517f08c379a000000000000000000000000000000000000000000000000000000000815260040161162e906127a9565b60405180910390fd5b600061164233611170565b905060008111611687576040517f08c379a000000000000000000000000000000000000000000000000000000000815260040161167e906127c9565b60405180910390fd5b60006116b86003546116aa670de0b6b3a764000086611c6d90919063ffffffff16565b611ce890919063ffffffff16565b9050818111156116f7578190506116f4670de0b6b3a76400006116e660035484611c6d90919063ffffffff16565b611ce890919063ffffffff16565b92505b6000811161173a576040517f08c379a0000000000000000000000000000000000000000000000000000000008152600401611731906126c9565b60405180910390fd5b60085481101561177f576040517f08c379a000000000000000000000000000000000000000000000000000000000815260040161177690612729565b60405180910390fd5b600083116117c2576040517f08c379a00000000000000000000000000000000000000000000000000000000081526004016117b990612789565b60405180910390fd5b600115156117cf84611d7c565b151514611811576040517f08c379a000000000000000000000000000000000000000000000000000000000815260040161180890612709565b60405180910390fd5b600160009054906101000a900473ffffffffffffffffffffffffffffffffffffffff1673ffffffffffffffffffffffffffffffffffffffff1663a9059cbb33836040518363ffffffff1660e01b815260040161186e9291906125b5565b602060405180830381600087803b15801561188857600080fd5b505af115801561189c573d6000803e3d6000fd5b505050506040513d601f19601f820116820180604052508101906118c09190612203565b506118d683600554611fd090919063ffffffff16565b60058190555061192e81600960003373ffffffffffffffffffffffffffffffffffffffff1673ffffffffffffffffffffffffffffffffffffffff16815260200190815260200160002054611fd090919063ffffffff16565b600960003373ffffffffffffffffffffffffffffffffffffffff1673ffffffffffffffffffffffffffffffffffffffff1681526020019081526020016000208190555060011515600a60003373ffffffffffffffffffffffffffffffffffffffff1673ffffffffffffffffffffffffffffffffffffffff16815260200190815260200160002060009054906101000a900460ff16151514156119e6576119df81600454611d3290919063ffffffff16565b6004819055505b7f7b027a29d1a4d4d2e0a11e04ebd4741452bfbb746ed433855a8f63afc5b20cde338483604051611a19939291906125de565b60405180910390a1505050565b600060019054906101000a900473ffffffffffffffffffffffffffffffffffffffff1673ffffffffffffffffffffffffffffffffffffffff163373ffffffffffffffffffffffffffffffffffffffff1614611ab6576040517f08c379a0000000000000000000000000000000000000000000000000000000008152600401611aad906127c9565b60405180910390fd5b60018160ff161415611b1f576001600a60008473ffffffffffffffffffffffffffffffffffffffff1673ffffffffffffffffffffffffffffffffffffffff16815260200190815260200160002060006101000a81548160ff021916908315150217905550611b78565b6000600a60008473ffffffffffffffffffffffffffffffffffffffff1673ffffffffffffffffffffffffffffffffffffffff16815260200190815260200160002060006101000a81548160ff0219169083151502179055505b5050565b60055481565b600060019054906101000a900473ffffffffffffffffffffffffffffffffffffffff1673ffffffffffffffffffffffffffffffffffffffff163373ffffffffffffffffffffffffffffffffffffffff1614611c12576040517f08c379a0000000000000000000000000000000000000000000000000000000008152600401611c09906127c9565b60405180910390fd5b80600060016101000a81548173ffffffffffffffffffffffffffffffffffffffff021916908373ffffffffffffffffffffffffffffffffffffffff16021790555050565b60035481565b60008054906101000a900460ff1681565b600080831415611c805760009050611ce2565b60008284611c8e91906128ef565b9050828482611c9d91906128be565b14611cdd576040517f08c379a0000000000000000000000000000000000000000000000000000000008152600401611cd490612749565b60405180910390fd5b809150505b92915050565b6000611d2a83836040518060400160405280601a81526020017f536166654d6174683a206469766973696f6e206279207a65726f00000000000081525061202e565b905092915050565b6000611d7483836040518060400160405280601e81526020017f536166654d6174683a207375627472616374696f6e206f766572666c6f770000815250612091565b905092915050565b600080600260009054906101000a900473ffffffffffffffffffffffffffffffffffffffff1673ffffffffffffffffffffffffffffffffffffffff166370a08231306040518263ffffffff1660e01b8152600401611dda919061253a565b60206040518083038186803b158015611df257600080fd5b505afa158015611e06573d6000803e3d6000fd5b505050506040513d601f19601f82011682018060405250810190611e2a919061228a565b9050600260009054906101000a900473ffffffffffffffffffffffffffffffffffffffff1673ffffffffffffffffffffffffffffffffffffffff166323b872dd3330866040518463ffffffff1660e01b8152600401611e8b9392919061257e565b602060405180830381600087803b158015611ea557600080fd5b505af1158015611eb9573d6000803e3d6000fd5b505050506040513d601f19601f82011682018060405250810190611edd9190612203565b506000600260009054906101000a900473ffffffffffffffffffffffffffffffffffffffff1673ffffffffffffffffffffffffffffffffffffffff166370a08231306040518263ffffffff1660e01b8152600401611f3b919061253a565b60206040518083038186803b158015611f5357600080fd5b505afa158015611f67573d6000803e3d6000fd5b505050506040513d601f19601f82011682018060405250810190611f8b919061228a565b9050818111611f9f57600092505050611fcb565b611fb28483611fd090919063ffffffff16565b811015611fc457600092505050611fcb565b6001925050505b919050565b6000808284611fdf9190612868565b905083811015612024576040517f08c379a000000000000000000000000000000000000000000000000000000000815260040161201b906126e9565b60405180910390fd5b8091505092915050565b60008083118290612075576040517f08c379a000000000000000000000000000000000000000000000000000000000815260040161206c9190612667565b60405180910390fd5b506000838561208491906128be565b9050809150509392505050565b60008383111582906120d9576040517f08c379a00000000000000000000000000000000000000000000000000000000081526004016120d09190612667565b60405180910390fd5b50600083856120e89190612949565b9050809150509392505050565b604051806101200160405280600990602082028036833780820191505090505090565b60008135905061212781612cd9565b92915050565b60008151905061213c81612cf0565b92915050565b60008135905061215181612d07565b92915050565b60008135905061216681612d1e565b92915050565b60008151905061217b81612d1e565b92915050565b60008135905061219081612d35565b92915050565b6000602082840312156121ac576121ab612ada565b5b60006121ba84828501612118565b91505092915050565b600080604083850312156121da576121d9612ada565b5b60006121e885828601612118565b92505060206121f985828601612181565b9150509250929050565b60006020828403121561221957612218612ada565b5b60006122278482850161212d565b91505092915050565b60006020828403121561224657612245612ada565b5b600061225484828501612142565b91505092915050565b60006020828403121561227357612272612ada565b5b600061228184828501612157565b91505092915050565b6000602082840312156122a05761229f612ada565b5b60006122ae8482850161216c565b91505092915050565b60006122c3838361250d565b60208301905092915050565b6122d88161297d565b82525050565b6122e781612829565b6122f1818461284c565b92506122fc8261281f565b8060005b8381101561232d57815161231487826122b7565b965061231f8361283f565b925050600181019050612300565b505050505050565b61233e8161298f565b82525050565b61234d816129e4565b82525050565b600061235e82612834565b6123688185612857565b9350612378818560208601612a1a565b61238181612adf565b840191505092915050565b6000612399600f83612857565b91506123a482612af0565b602082019050919050565b60006123bc601183612857565b91506123c782612b19565b602082019050919050565b60006123df601283612857565b91506123ea82612b42565b602082019050919050565b6000612402601b83612857565b915061240d82612b6b565b602082019050919050565b6000612425601283612857565b915061243082612b94565b602082019050919050565b6000612448601283612857565b915061245382612bbd565b602082019050919050565b600061246b602183612857565b915061247682612be6565b604082019050919050565b600061248e600b83612857565b915061249982612c35565b602082019050919050565b60006124b1601283612857565b91506124bc82612c5e565b602082019050919050565b60006124d4601083612857565b91506124df82612c87565b602082019050919050565b60006124f7601283612857565b915061250282612cb0565b602082019050919050565b612516816129cd565b82525050565b612525816129cd565b82525050565b612534816129d7565b82525050565b600060208201905061254f60008301846122cf565b92915050565b600060408201905061256a60008301856122cf565b61257760208301846122cf565b9392505050565b600060608201905061259360008301866122cf565b6125a060208301856122cf565b6125ad604083018461251c565b949350505050565b60006040820190506125ca60008301856122cf565b6125d7602083018461251c565b9392505050565b60006060820190506125f360008301866122cf565b612600602083018561251c565b61260d604083018461251c565b949350505050565b60006101208201905061262b60008301846122de565b92915050565b60006020820190506126466000830184612335565b92915050565b60006020820190506126616000830184612344565b92915050565b600060208201905081810360008301526126818184612353565b905092915050565b600060208201905081810360008301526126a28161238c565b9050919050565b600060208201905081810360008301526126c2816123af565b9050919050565b600060208201905081810360008301526126e2816123d2565b9050919050565b60006020820190508181036000830152612702816123f5565b9050919050565b6000602082019050818103600083015261272281612418565b9050919050565b600060208201905081810360008301526127428161243b565b9050919050565b600060208201905081810360008301526127628161245e565b9050919050565b6000602082019050818103600083015261278281612481565b9050919050565b600060208201905081810360008301526127a2816124a4565b9050919050565b600060208201905081810360008301526127c2816124c7565b9050919050565b600060208201905081810360008301526127e2816124ea565b9050919050565b60006020820190506127fe600083018461251c565b92915050565b6000602082019050612819600083018461252b565b92915050565b6000819050919050565b600060099050919050565b600081519050919050565b6000602082019050919050565b600081905092915050565b600082825260208201905092915050565b6000612873826129cd565b915061287e836129cd565b9250827fffffffffffffffffffffffffffffffffffffffffffffffffffffffffffffffff038211156128b3576128b2612a4d565b5b828201905092915050565b60006128c9826129cd565b91506128d4836129cd565b9250826128e4576128e3612a7c565b5b828204905092915050565b60006128fa826129cd565b9150612905836129cd565b9250817fffffffffffffffffffffffffffffffffffffffffffffffffffffffffffffffff048311821515161561293e5761293d612a4d565b5b828202905092915050565b6000612954826129cd565b915061295f836129cd565b92508282101561297257612971612a4d565b5b828203905092915050565b6000612988826129ad565b9050919050565b60008115159050919050565b60006129a68261297d565b9050919050565b600073ffffffffffffffffffffffffffffffffffffffff82169050919050565b6000819050919050565b600060ff82169050919050565b60006129ef826129f6565b9050919050565b6000612a0182612a08565b9050919050565b6000612a13826129ad565b9050919050565b60005b83811015612a38578082015181840152602081019050612a1d565b83811115612a47576000848401525b50505050565b7f4e487b7100000000000000000000000000000000000000000000000000000000600052601160045260246000fd5b7f4e487b7100000000000000000000000000000000000000000000000000000000600052601260045260246000fd5b7f4e487b7100000000000000000000000000000000000000000000000000000000600052603260045260246000fd5b600080fd5b6000601f19601f8301169050919050565b7f494e56414c49445f414444524553530000000000000000000000000000000000600082015250565b7f494e56414c49445f57484954456c495354000000000000000000000000000000600082015250565b7f494e56414c49445f515541544954593a30310000000000000000000000000000600082015250565b7f536166654d6174683a206164646974696f6e206f766572666c6f770000000000600082015250565b7f494e56414c49445f5041594d454e543a30320000000000000000000000000000600082015250565b7f494e56414c49445f515541544954593a30320000000000000000000000000000600082015250565b7f536166654d6174683a206d756c7469706c69636174696f6e206f766572666c6f60008201527f7700000000000000000000000000000000000000000000000000000000000000602082015250565b7f53595354454d5f53544f50000000000000000000000000000000000000000000600082015250565b7f494e56414c49445f5041594d454e543a30310000000000000000000000000000600082015250565b7f494e56414c49445f414d4f554e545f3100000000000000000000000000000000600082015250565b7f494e56414c49445f5045524d495353494f4e0000000000000000000000000000600082015250565b612ce28161297d565b8114612ced57600080fd5b50565b612cf98161298f565b8114612d0457600080fd5b50565b612d108161299b565b8114612d1b57600080fd5b50565b612d27816129cd565b8114612d3257600080fd5b50565b612d3e816129d7565b8114612d4957600080fd5b5056fea264697066735822122046aac6a0865bfa5288b21a77494149a03c204fa6b4dc66066685315b561028c864736f6c63430008070033",
					"opcodes": "PUSH1 0x80 PUSH1 0x40 MSTORE PUSH1 0x64 PUSH1 0x0 DUP1 PUSH2 0x100 EXP DUP2 SLOAD DUP2 PUSH1 0xFF MUL NOT AND SWAP1 DUP4 PUSH1 0xFF AND MUL OR SWAP1 SSTORE POP PUSH2 0x9C40 PUSH1 0x3 SSTORE PUSH10 0x21E19E0C9BAB2400000 PUSH1 0x4 SSTORE PUSH1 0x0 PUSH1 0x5 SSTORE PUSH1 0x1 PUSH1 0x6 PUSH1 0x0 PUSH2 0x100 EXP DUP2 SLOAD DUP2 PUSH1 0xFF MUL NOT AND SWAP1 DUP4 ISZERO ISZERO MUL OR SWAP1 SSTORE POP PUSH10 0x10F0CF064DD59200000 PUSH1 0x7 SSTORE PUSH9 0x28A857425466F80000 PUSH1 0x8 SSTORE CALLVALUE DUP1 ISZERO PUSH3 0x7B JUMPI PUSH1 0x0 DUP1 REVERT JUMPDEST POP PUSH1 0x40 MLOAD PUSH3 0x2FC3 CODESIZE SUB DUP1 PUSH3 0x2FC3 DUP4 CODECOPY DUP2 DUP2 ADD PUSH1 0x40 MSTORE DUP2 ADD SWAP1 PUSH3 0xA1 SWAP2 SWAP1 PUSH3 0x183 JUMP JUMPDEST DUP2 PUSH1 0x1 PUSH1 0x0 PUSH2 0x100 EXP DUP2 SLOAD DUP2 PUSH20 0xFFFFFFFFFFFFFFFFFFFFFFFFFFFFFFFFFFFFFFFF MUL NOT AND SWAP1 DUP4 PUSH20 0xFFFFFFFFFFFFFFFFFFFFFFFFFFFFFFFFFFFFFFFF AND MUL OR SWAP1 SSTORE POP DUP1 PUSH1 0x2 PUSH1 0x0 PUSH2 0x100 EXP DUP2 SLOAD DUP2 PUSH20 0xFFFFFFFFFFFFFFFFFFFFFFFFFFFFFFFFFFFFFFFF MUL NOT AND SWAP1 DUP4 PUSH20 0xFFFFFFFFFFFFFFFFFFFFFFFFFFFFFFFFFFFFFFFF AND MUL OR SWAP1 SSTORE POP CALLER PUSH1 0x0 PUSH1 0x1 PUSH2 0x100 EXP DUP2 SLOAD DUP2 PUSH20 0xFFFFFFFFFFFFFFFFFFFFFFFFFFFFFFFFFFFFFFFF MUL NOT AND SWAP1 DUP4 PUSH20 0xFFFFFFFFFFFFFFFFFFFFFFFFFFFFFFFFFFFFFFFF AND MUL OR SWAP1 SSTORE POP POP POP PUSH3 0x231 JUMP JUMPDEST PUSH1 0x0 DUP2 MLOAD SWAP1 POP PUSH3 0x17D DUP2 PUSH3 0x217 JUMP JUMPDEST SWAP3 SWAP2 POP POP JUMP JUMPDEST PUSH1 0x0 DUP1 PUSH1 0x40 DUP4 DUP6 SUB SLT ISZERO PUSH3 0x19D JUMPI PUSH3 0x19C PUSH3 0x212 JUMP JUMPDEST JUMPDEST PUSH1 0x0 PUSH3 0x1AD DUP6 DUP3 DUP7 ADD PUSH3 0x16C JUMP JUMPDEST SWAP3 POP POP PUSH1 0x20 PUSH3 0x1C0 DUP6 DUP3 DUP7 ADD PUSH3 0x16C JUMP JUMPDEST SWAP2 POP POP SWAP3 POP SWAP3 SWAP1 POP JUMP JUMPDEST PUSH1 0x0 PUSH3 0x1D7 DUP3 PUSH3 0x1F2 JUMP JUMPDEST SWAP1 POP SWAP2 SWAP1 POP JUMP JUMPDEST PUSH1 0x0 PUSH3 0x1EB DUP3 PUSH3 0x1CA JUMP JUMPDEST SWAP1 POP SWAP2 SWAP1 POP JUMP JUMPDEST PUSH1 0x0 PUSH20 0xFFFFFFFFFFFFFFFFFFFFFFFFFFFFFFFFFFFFFFFF DUP3 AND SWAP1 POP SWAP2 SWAP1 POP JUMP JUMPDEST PUSH1 0x0 DUP1 REVERT JUMPDEST PUSH3 0x222 DUP2 PUSH3 0x1DE JUMP JUMPDEST DUP2 EQ PUSH3 0x22E JUMPI PUSH1 0x0 DUP1 REVERT JUMPDEST POP JUMP JUMPDEST PUSH2 0x2D82 DUP1 PUSH3 0x241 PUSH1 0x0 CODECOPY PUSH1 0x0 RETURN INVALID PUSH1 0x80 PUSH1 0x40 MSTORE PUSH1 0x4 CALLDATASIZE LT PUSH2 0x1BB JUMPI PUSH1 0x0 CALLDATALOAD PUSH1 0xE0 SHR DUP1 PUSH4 0x90C8DD17 GT PUSH2 0xEC JUMPI DUP1 PUSH4 0xBCAAF662 GT PUSH2 0x8A JUMPI DUP1 PUSH4 0xE632C2F3 GT PUSH2 0x64 JUMPI DUP1 PUSH4 0xE632C2F3 EQ PUSH2 0x5DD JUMPI DUP1 PUSH4 0xF2FDE38B EQ PUSH2 0x608 JUMPI DUP1 PUSH4 0xF51F96DD EQ PUSH2 0x631 JUMPI DUP1 PUSH4 0xFFA1AD74 EQ PUSH2 0x65C JUMPI PUSH2 0x1C2 JUMP JUMPDEST DUP1 PUSH4 0xBCAAF662 EQ PUSH2 0x54E JUMPI DUP1 PUSH4 0xD96A094A EQ PUSH2 0x58B JUMPI DUP1 PUSH4 0xE303151F EQ PUSH2 0x5B4 JUMPI PUSH2 0x1C2 JUMP JUMPDEST DUP1 PUSH4 0xA3907D71 GT PUSH2 0xC6 JUMPI DUP1 PUSH4 0xA3907D71 EQ PUSH2 0x4B8 JUMPI DUP1 PUSH4 0xA85F70F3 EQ PUSH2 0x4CF JUMPI DUP1 PUSH4 0xB0176CE8 EQ PUSH2 0x4FA JUMPI DUP1 PUSH4 0xB2A82CBB EQ PUSH2 0x525 JUMPI PUSH2 0x1C2 JUMP JUMPDEST DUP1 PUSH4 0x90C8DD17 EQ PUSH2 0x427 JUMPI DUP1 PUSH4 0x92F6386A EQ PUSH2 0x464 JUMPI DUP1 PUSH4 0xA2B0106B EQ PUSH2 0x48F JUMPI PUSH2 0x1C2 JUMP JUMPDEST DUP1 PUSH4 0x3C6C26F9 GT PUSH2 0x159 JUMPI DUP1 PUSH4 0x67CC7428 GT PUSH2 0x133 JUMPI DUP1 PUSH4 0x67CC7428 EQ PUSH2 0x36B JUMPI DUP1 PUSH4 0x860779E7 EQ PUSH2 0x3A8 JUMPI DUP1 PUSH4 0x89A30271 EQ PUSH2 0x3D1 JUMPI DUP1 PUSH4 0x8DA5CB5B EQ PUSH2 0x3FC JUMPI PUSH2 0x1C2 JUMP JUMPDEST DUP1 PUSH4 0x3C6C26F9 EQ PUSH2 0x2EC JUMPI DUP1 PUSH4 0x3CFD1CCC EQ PUSH2 0x315 JUMPI DUP1 PUSH4 0x50C19C0B EQ PUSH2 0x340 JUMPI PUSH2 0x1C2 JUMP JUMPDEST DUP1 PUSH4 0x2ACFC3DA GT PUSH2 0x195 JUMPI DUP1 PUSH4 0x2ACFC3DA EQ PUSH2 0x244 JUMPI DUP1 PUSH4 0x2F2770DB EQ PUSH2 0x26D JUMPI DUP1 PUSH4 0x38266B22 EQ PUSH2 0x284 JUMPI DUP1 PUSH4 0x3AF96B90 EQ PUSH2 0x2C1 JUMPI PUSH2 0x1C2 JUMP JUMPDEST DUP1 PUSH4 0xF5A9D01 EQ PUSH2 0x1C7 JUMPI DUP1 PUSH4 0x1919FED7 EQ PUSH2 0x1F0 JUMPI DUP1 PUSH4 0x1F2475BD EQ PUSH2 0x219 JUMPI PUSH2 0x1C2 JUMP JUMPDEST CALLDATASIZE PUSH2 0x1C2 JUMPI STOP JUMPDEST PUSH1 0x0 DUP1 REVERT JUMPDEST CALLVALUE DUP1 ISZERO PUSH2 0x1D3 JUMPI PUSH1 0x0 DUP1 REVERT JUMPDEST POP PUSH2 0x1EE PUSH1 0x4 DUP1 CALLDATASIZE SUB DUP2 ADD SWAP1 PUSH2 0x1E9 SWAP2 SWAP1 PUSH2 0x2230 JUMP JUMPDEST PUSH2 0x687 JUMP JUMPDEST STOP JUMPDEST CALLVALUE DUP1 ISZERO PUSH2 0x1FC JUMPI PUSH1 0x0 DUP1 REVERT JUMPDEST POP PUSH2 0x217 PUSH1 0x4 DUP1 CALLDATASIZE SUB DUP2 ADD SWAP1 PUSH2 0x212 SWAP2 SWAP1 PUSH2 0x225D JUMP JUMPDEST PUSH2 0x7CB JUMP JUMPDEST STOP JUMPDEST CALLVALUE DUP1 ISZERO PUSH2 0x225 JUMPI PUSH1 0x0 DUP1 REVERT JUMPDEST POP PUSH2 0x22E PUSH2 0x865 JUMP JUMPDEST PUSH1 0x40 MLOAD PUSH2 0x23B SWAP2 SWAP1 PUSH2 0x27E9 JUMP JUMPDEST PUSH1 0x40 MLOAD DUP1 SWAP2 SUB SWAP1 RETURN JUMPDEST CALLVALUE DUP1 ISZERO PUSH2 0x250 JUMPI PUSH1 0x0 DUP1 REVERT JUMPDEST POP PUSH2 0x26B PUSH1 0x4 DUP1 CALLDATASIZE SUB DUP2 ADD SWAP1 PUSH2 0x266 SWAP2 SWAP1 PUSH2 0x2230 JUMP JUMPDEST PUSH2 0x917 JUMP JUMPDEST STOP JUMPDEST CALLVALUE DUP1 ISZERO PUSH2 0x279 JUMPI PUSH1 0x0 DUP1 REVERT JUMPDEST POP PUSH2 0x282 PUSH2 0xA5B JUMP JUMPDEST STOP JUMPDEST CALLVALUE DUP1 ISZERO PUSH2 0x290 JUMPI PUSH1 0x0 DUP1 REVERT JUMPDEST POP PUSH2 0x2AB PUSH1 0x4 DUP1 CALLDATASIZE SUB DUP2 ADD SWAP1 PUSH2 0x2A6 SWAP2 SWAP1 PUSH2 0x2196 JUMP JUMPDEST PUSH2 0xB08 JUMP JUMPDEST PUSH1 0x40 MLOAD PUSH2 0x2B8 SWAP2 SWAP1 PUSH2 0x2615 JUMP JUMPDEST PUSH1 0x40 MLOAD DUP1 SWAP2 SUB SWAP1 RETURN JUMPDEST CALLVALUE DUP1 ISZERO PUSH2 0x2CD JUMPI PUSH1 0x0 DUP1 REVERT JUMPDEST POP PUSH2 0x2D6 PUSH2 0xDDB JUMP JUMPDEST PUSH1 0x40 MLOAD PUSH2 0x2E3 SWAP2 SWAP1 PUSH2 0x27E9 JUMP JUMPDEST PUSH1 0x40 MLOAD DUP1 SWAP2 SUB SWAP1 RETURN JUMPDEST CALLVALUE DUP1 ISZERO PUSH2 0x2F8 JUMPI PUSH1 0x0 DUP1 REVERT JUMPDEST POP PUSH2 0x313 PUSH1 0x4 DUP1 CALLDATASIZE SUB DUP2 ADD SWAP1 PUSH2 0x30E SWAP2 SWAP1 PUSH2 0x2230 JUMP JUMPDEST PUSH2 0xDE1 JUMP JUMPDEST STOP JUMPDEST CALLVALUE DUP1 ISZERO PUSH2 0x321 JUMPI PUSH1 0x0 DUP1 REVERT JUMPDEST POP PUSH2 0x32A PUSH2 0xFB2 JUMP JUMPDEST PUSH1 0x40 MLOAD PUSH2 0x337 SWAP2 SWAP1 PUSH2 0x27E9 JUMP JUMPDEST PUSH1 0x40 MLOAD DUP1 SWAP2 SUB SWAP1 RETURN JUMPDEST CALLVALUE DUP1 ISZERO PUSH2 0x34C JUMPI PUSH1 0x0 DUP1 REVERT JUMPDEST POP PUSH2 0x355 PUSH2 0x1064 JUMP JUMPDEST PUSH1 0x40 MLOAD PUSH2 0x362 SWAP2 SWAP1 PUSH2 0x27E9 JUMP JUMPDEST PUSH1 0x40 MLOAD DUP1 SWAP2 SUB SWAP1 RETURN JUMPDEST CALLVALUE DUP1 ISZERO PUSH2 0x377 JUMPI PUSH1 0x0 DUP1 REVERT JUMPDEST POP PUSH2 0x392 PUSH1 0x4 DUP1 CALLDATASIZE SUB DUP2 ADD SWAP1 PUSH2 0x38D SWAP2 SWAP1 PUSH2 0x2196 JUMP JUMPDEST PUSH2 0x106A JUMP JUMPDEST PUSH1 0x40 MLOAD PUSH2 0x39F SWAP2 SWAP1 PUSH2 0x2631 JUMP JUMPDEST PUSH1 0x40 MLOAD DUP1 SWAP2 SUB SWAP1 RETURN JUMPDEST CALLVALUE DUP1 ISZERO PUSH2 0x3B4 JUMPI PUSH1 0x0 DUP1 REVERT JUMPDEST POP PUSH2 0x3CF PUSH1 0x4 DUP1 CALLDATASIZE SUB DUP2 ADD SWAP1 PUSH2 0x3CA SWAP2 SWAP1 PUSH2 0x225D JUMP JUMPDEST PUSH2 0x108A JUMP JUMPDEST STOP JUMPDEST CALLVALUE DUP1 ISZERO PUSH2 0x3DD JUMPI PUSH1 0x0 DUP1 REVERT JUMPDEST POP PUSH2 0x3E6 PUSH2 0x1124 JUMP JUMPDEST PUSH1 0x40 MLOAD PUSH2 0x3F3 SWAP2 SWAP1 PUSH2 0x264C JUMP JUMPDEST PUSH1 0x40 MLOAD DUP1 SWAP2 SUB SWAP1 RETURN JUMPDEST CALLVALUE DUP1 ISZERO PUSH2 0x408 JUMPI PUSH1 0x0 DUP1 REVERT JUMPDEST POP PUSH2 0x411 PUSH2 0x114A JUMP JUMPDEST PUSH1 0x40 MLOAD PUSH2 0x41E SWAP2 SWAP1 PUSH2 0x253A JUMP JUMPDEST PUSH1 0x40 MLOAD DUP1 SWAP2 SUB SWAP1 RETURN JUMPDEST CALLVALUE DUP1 ISZERO PUSH2 0x433 JUMPI PUSH1 0x0 DUP1 REVERT JUMPDEST POP PUSH2 0x44E PUSH1 0x4 DUP1 CALLDATASIZE SUB DUP2 ADD SWAP1 PUSH2 0x449 SWAP2 SWAP1 PUSH2 0x2196 JUMP JUMPDEST PUSH2 0x1170 JUMP JUMPDEST PUSH1 0x40 MLOAD PUSH2 0x45B SWAP2 SWAP1 PUSH2 0x27E9 JUMP JUMPDEST PUSH1 0x40 MLOAD DUP1 SWAP2 SUB SWAP1 RETURN JUMPDEST CALLVALUE DUP1 ISZERO PUSH2 0x470 JUMPI PUSH1 0x0 DUP1 REVERT JUMPDEST POP PUSH2 0x479 PUSH2 0x12F8 JUMP JUMPDEST PUSH1 0x40 MLOAD PUSH2 0x486 SWAP2 SWAP1 PUSH2 0x2631 JUMP JUMPDEST PUSH1 0x40 MLOAD DUP1 SWAP2 SUB SWAP1 RETURN JUMPDEST CALLVALUE DUP1 ISZERO PUSH2 0x49B JUMPI PUSH1 0x0 DUP1 REVERT JUMPDEST POP PUSH2 0x4B6 PUSH1 0x4 DUP1 CALLDATASIZE SUB DUP2 ADD SWAP1 PUSH2 0x4B1 SWAP2 SWAP1 PUSH2 0x225D JUMP JUMPDEST PUSH2 0x130B JUMP JUMPDEST STOP JUMPDEST CALLVALUE DUP1 ISZERO PUSH2 0x4C4 JUMPI PUSH1 0x0 DUP1 REVERT JUMPDEST POP PUSH2 0x4CD PUSH2 0x13A5 JUMP JUMPDEST STOP JUMPDEST CALLVALUE DUP1 ISZERO PUSH2 0x4DB JUMPI PUSH1 0x0 DUP1 REVERT JUMPDEST POP PUSH2 0x4E4 PUSH2 0x1452 JUMP JUMPDEST PUSH1 0x40 MLOAD PUSH2 0x4F1 SWAP2 SWAP1 PUSH2 0x27E9 JUMP JUMPDEST PUSH1 0x40 MLOAD DUP1 SWAP2 SUB SWAP1 RETURN JUMPDEST CALLVALUE DUP1 ISZERO PUSH2 0x506 JUMPI PUSH1 0x0 DUP1 REVERT JUMPDEST POP PUSH2 0x50F PUSH2 0x1458 JUMP JUMPDEST PUSH1 0x40 MLOAD PUSH2 0x51C SWAP2 SWAP1 PUSH2 0x264C JUMP JUMPDEST PUSH1 0x40 MLOAD DUP1 SWAP2 SUB SWAP1 RETURN JUMPDEST CALLVALUE DUP1 ISZERO PUSH2 0x531 JUMPI PUSH1 0x0 DUP1 REVERT JUMPDEST POP PUSH2 0x54C PUSH1 0x4 DUP1 CALLDATASIZE SUB DUP2 ADD SWAP1 PUSH2 0x547 SWAP2 SWAP1 PUSH2 0x225D JUMP JUMPDEST PUSH2 0x147E JUMP JUMPDEST STOP JUMPDEST CALLVALUE DUP1 ISZERO PUSH2 0x55A JUMPI PUSH1 0x0 DUP1 REVERT JUMPDEST POP PUSH2 0x575 PUSH1 0x4 DUP1 CALLDATASIZE SUB DUP2 ADD SWAP1 PUSH2 0x570 SWAP2 SWAP1 PUSH2 0x2196 JUMP JUMPDEST PUSH2 0x1518 JUMP JUMPDEST PUSH1 0x40 MLOAD PUSH2 0x582 SWAP2 SWAP1 PUSH2 0x27E9 JUMP JUMPDEST PUSH1 0x40 MLOAD DUP1 SWAP2 SUB SWAP1 RETURN JUMPDEST CALLVALUE DUP1 ISZERO PUSH2 0x597 JUMPI PUSH1 0x0 DUP1 REVERT JUMPDEST POP PUSH2 0x5B2 PUSH1 0x4 DUP1 CALLDATASIZE SUB DUP2 ADD SWAP1 PUSH2 0x5AD SWAP2 SWAP1 PUSH2 0x225D JUMP JUMPDEST PUSH2 0x1530 JUMP JUMPDEST STOP JUMPDEST CALLVALUE DUP1 ISZERO PUSH2 0x5C0 JUMPI PUSH1 0x0 DUP1 REVERT JUMPDEST POP PUSH2 0x5DB PUSH1 0x4 DUP1 CALLDATASIZE SUB DUP2 ADD SWAP1 PUSH2 0x5D6 SWAP2 SWAP1 PUSH2 0x21C3 JUMP JUMPDEST PUSH2 0x1A26 JUMP JUMPDEST STOP JUMPDEST CALLVALUE DUP1 ISZERO PUSH2 0x5E9 JUMPI PUSH1 0x0 DUP1 REVERT JUMPDEST POP PUSH2 0x5F2 PUSH2 0x1B7C JUMP JUMPDEST PUSH1 0x40 MLOAD PUSH2 0x5FF SWAP2 SWAP1 PUSH2 0x27E9 JUMP JUMPDEST PUSH1 0x40 MLOAD DUP1 SWAP2 SUB SWAP1 RETURN JUMPDEST CALLVALUE DUP1 ISZERO PUSH2 0x614 JUMPI PUSH1 0x0 DUP1 REVERT JUMPDEST POP PUSH2 0x62F PUSH1 0x4 DUP1 CALLDATASIZE SUB DUP2 ADD SWAP1 PUSH2 0x62A SWAP2 SWAP1 PUSH2 0x2196 JUMP JUMPDEST PUSH2 0x1B82 JUMP JUMPDEST STOP JUMPDEST CALLVALUE DUP1 ISZERO PUSH2 0x63D JUMPI PUSH1 0x0 DUP1 REVERT JUMPDEST POP PUSH2 0x646 PUSH2 0x1C56 JUMP JUMPDEST PUSH1 0x40 MLOAD PUSH2 0x653 SWAP2 SWAP1 PUSH2 0x27E9 JUMP JUMPDEST PUSH1 0x40 MLOAD DUP1 SWAP2 SUB SWAP1 RETURN JUMPDEST CALLVALUE DUP1 ISZERO PUSH2 0x668 JUMPI PUSH1 0x0 DUP1 REVERT JUMPDEST POP PUSH2 0x671 PUSH2 0x1C5C JUMP JUMPDEST PUSH1 0x40 MLOAD PUSH2 0x67E SWAP2 SWAP1 PUSH2 0x2804 JUMP JUMPDEST PUSH1 0x40 MLOAD DUP1 SWAP2 SUB SWAP1 RETURN JUMPDEST PUSH1 0x0 PUSH1 0x1 SWAP1 SLOAD SWAP1 PUSH2 0x100 EXP SWAP1 DIV PUSH20 0xFFFFFFFFFFFFFFFFFFFFFFFFFFFFFFFFFFFFFFFF AND PUSH20 0xFFFFFFFFFFFFFFFFFFFFFFFFFFFFFFFFFFFFFFFF AND CALLER PUSH20 0xFFFFFFFFFFFFFFFFFFFFFFFFFFFFFFFFFFFFFFFF AND EQ PUSH2 0x717 JUMPI PUSH1 0x40 MLOAD PUSH32 0x8C379A000000000000000000000000000000000000000000000000000000000 DUP2 MSTORE PUSH1 0x4 ADD PUSH2 0x70E SWAP1 PUSH2 0x27C9 JUMP JUMPDEST PUSH1 0x40 MLOAD DUP1 SWAP2 SUB SWAP1 REVERT JUMPDEST PUSH1 0x0 PUSH20 0xFFFFFFFFFFFFFFFFFFFFFFFFFFFFFFFFFFFFFFFF AND DUP2 PUSH20 0xFFFFFFFFFFFFFFFFFFFFFFFFFFFFFFFFFFFFFFFF AND EQ ISZERO PUSH2 0x787 JUMPI PUSH1 0x40 MLOAD PUSH32 0x8C379A000000000000000000000000000000000000000000000000000000000 DUP2 MSTORE PUSH1 0x4 ADD PUSH2 0x77E SWAP1 PUSH2 0x2689 JUMP JUMPDEST PUSH1 0x40 MLOAD DUP1 SWAP2 SUB SWAP1 REVERT JUMPDEST DUP1 PUSH1 0x2 PUSH1 0x0 PUSH2 0x100 EXP DUP2 SLOAD DUP2 PUSH20 0xFFFFFFFFFFFFFFFFFFFFFFFFFFFFFFFFFFFFFFFF MUL NOT AND SWAP1 DUP4 PUSH20 0xFFFFFFFFFFFFFFFFFFFFFFFFFFFFFFFFFFFFFFFF AND MUL OR SWAP1 SSTORE POP POP JUMP JUMPDEST PUSH1 0x0 PUSH1 0x1 SWAP1 SLOAD SWAP1 PUSH2 0x100 EXP SWAP1 DIV PUSH20 0xFFFFFFFFFFFFFFFFFFFFFFFFFFFFFFFFFFFFFFFF AND PUSH20 0xFFFFFFFFFFFFFFFFFFFFFFFFFFFFFFFFFFFFFFFF AND CALLER PUSH20 0xFFFFFFFFFFFFFFFFFFFFFFFFFFFFFFFFFFFFFFFF AND EQ PUSH2 0x85B JUMPI PUSH1 0x40 MLOAD PUSH32 0x8C379A000000000000000000000000000000000000000000000000000000000 DUP2 MSTORE PUSH1 0x4 ADD PUSH2 0x852 SWAP1 PUSH2 0x27C9 JUMP JUMPDEST PUSH1 0x40 MLOAD DUP1 SWAP2 SUB SWAP1 REVERT JUMPDEST DUP1 PUSH1 0x3 DUP2 SWAP1 SSTORE POP POP JUMP JUMPDEST PUSH1 0x0 PUSH1 0x1 PUSH1 0x0 SWAP1 SLOAD SWAP1 PUSH2 0x100 EXP SWAP1 DIV PUSH20 0xFFFFFFFFFFFFFFFFFFFFFFFFFFFFFFFFFFFFFFFF AND PUSH20 0xFFFFFFFFFFFFFFFFFFFFFFFFFFFFFFFFFFFFFFFF AND PUSH4 0x70A08231 ADDRESS PUSH1 0x40 MLOAD DUP3 PUSH4 0xFFFFFFFF AND PUSH1 0xE0 SHL DUP2 MSTORE PUSH1 0x4 ADD PUSH2 0x8C2 SWAP2 SWAP1 PUSH2 0x253A JUMP JUMPDEST PUSH1 0x20 PUSH1 0x40 MLOAD DUP1 DUP4 SUB DUP2 DUP7 DUP1 EXTCODESIZE ISZERO DUP1 ISZERO PUSH2 0x8DA JUMPI PUSH1 0x0 DUP1 REVERT JUMPDEST POP GAS STATICCALL ISZERO DUP1 ISZERO PUSH2 0x8EE JUMPI RETURNDATASIZE PUSH1 0x0 DUP1 RETURNDATACOPY RETURNDATASIZE PUSH1 0x0 REVERT JUMPDEST POP POP POP POP PUSH1 0x40 MLOAD RETURNDATASIZE PUSH1 0x1F NOT PUSH1 0x1F DUP3 ADD AND DUP3 ADD DUP1 PUSH1 0x40 MSTORE POP DUP2 ADD SWAP1 PUSH2 0x912 SWAP2 SWAP1 PUSH2 0x228A JUMP JUMPDEST SWAP1 POP SWAP1 JUMP JUMPDEST PUSH1 0x0 PUSH1 0x1 SWAP1 SLOAD SWAP1 PUSH2 0x100 EXP SWAP1 DIV PUSH20 0xFFFFFFFFFFFFFFFFFFFFFFFFFFFFFFFFFFFFFFFF AND PUSH20 0xFFFFFFFFFFFFFFFFFFFFFFFFFFFFFFFFFFFFFFFF AND CALLER PUSH20 0xFFFFFFFFFFFFFFFFFFFFFFFFFFFFFFFFFFFFFFFF AND EQ PUSH2 0x9A7 JUMPI PUSH1 0x40 MLOAD PUSH32 0x8C379A000000000000000000000000000000000000000000000000000000000 DUP2 MSTORE PUSH1 0x4 ADD PUSH2 0x99E SWAP1 PUSH2 0x27C9 JUMP JUMPDEST PUSH1 0x40 MLOAD DUP1 SWAP2 SUB SWAP1 REVERT JUMPDEST PUSH1 0x0 PUSH20 0xFFFFFFFFFFFFFFFFFFFFFFFFFFFFFFFFFFFFFFFF AND DUP2 PUSH20 0xFFFFFFFFFFFFFFFFFFFFFFFFFFFFFFFFFFFFFFFF AND EQ ISZERO PUSH2 0xA17 JUMPI PUSH1 0x40 MLOAD PUSH32 0x8C379A000000000000000000000000000000000000000000000000000000000 DUP2 MSTORE PUSH1 0x4 ADD PUSH2 0xA0E SWAP1 PUSH2 0x2689 JUMP JUMPDEST PUSH1 0x40 MLOAD DUP1 SWAP2 SUB SWAP1 REVERT JUMPDEST DUP1 PUSH1 0x1 PUSH1 0x0 PUSH2 0x100 EXP DUP2 SLOAD DUP2 PUSH20 0xFFFFFFFFFFFFFFFFFFFFFFFFFFFFFFFFFFFFFFFF MUL NOT AND SWAP1 DUP4 PUSH20 0xFFFFFFFFFFFFFFFFFFFFFFFFFFFFFFFFFFFFFFFF AND MUL OR SWAP1 SSTORE POP POP JUMP JUMPDEST PUSH1 0x0 PUSH1 0x1 SWAP1 SLOAD SWAP1 PUSH2 0x100 EXP SWAP1 DIV PUSH20 0xFFFFFFFFFFFFFFFFFFFFFFFFFFFFFFFFFFFFFFFF AND PUSH20 0xFFFFFFFFFFFFFFFFFFFFFFFFFFFFFFFFFFFFFFFF AND CALLER PUSH20 0xFFFFFFFFFFFFFFFFFFFFFFFFFFFFFFFFFFFFFFFF AND EQ PUSH2 0xAEB JUMPI PUSH1 0x40 MLOAD PUSH32 0x8C379A000000000000000000000000000000000000000000000000000000000 DUP2 MSTORE PUSH1 0x4 ADD PUSH2 0xAE2 SWAP1 PUSH2 0x27C9 JUMP JUMPDEST PUSH1 0x40 MLOAD DUP1 SWAP2 SUB SWAP1 REVERT JUMPDEST PUSH1 0x0 PUSH1 0x6 PUSH1 0x0 PUSH2 0x100 EXP DUP2 SLOAD DUP2 PUSH1 0xFF MUL NOT AND SWAP1 DUP4 ISZERO ISZERO MUL OR SWAP1 SSTORE POP JUMP JUMPDEST PUSH2 0xB10 PUSH2 0x20F5 JUMP JUMPDEST PUSH1 0x2 PUSH1 0x0 SWAP1 SLOAD SWAP1 PUSH2 0x100 EXP SWAP1 DIV PUSH20 0xFFFFFFFFFFFFFFFFFFFFFFFFFFFFFFFFFFFFFFFF AND PUSH20 0xFFFFFFFFFFFFFFFFFFFFFFFFFFFFFFFFFFFFFFFF AND PUSH4 0x70A08231 DUP4 PUSH1 0x40 MLOAD DUP3 PUSH4 0xFFFFFFFF AND PUSH1 0xE0 SHL DUP2 MSTORE PUSH1 0x4 ADD PUSH2 0xB6B SWAP2 SWAP1 PUSH2 0x253A JUMP JUMPDEST PUSH1 0x20 PUSH1 0x40 MLOAD DUP1 DUP4 SUB DUP2 DUP7 DUP1 EXTCODESIZE ISZERO DUP1 ISZERO PUSH2 0xB83 JUMPI PUSH1 0x0 DUP1 REVERT JUMPDEST POP GAS STATICCALL ISZERO DUP1 ISZERO PUSH2 0xB97 JUMPI RETURNDATASIZE PUSH1 0x0 DUP1 RETURNDATACOPY RETURNDATASIZE PUSH1 0x0 REVERT JUMPDEST POP POP POP POP PUSH1 0x40 MLOAD RETURNDATASIZE PUSH1 0x1F NOT PUSH1 0x1F DUP3 ADD AND DUP3 ADD DUP1 PUSH1 0x40 MSTORE POP DUP2 ADD SWAP1 PUSH2 0xBBB SWAP2 SWAP1 PUSH2 0x228A JUMP JUMPDEST DUP2 PUSH1 0x0 PUSH1 0x9 DUP2 LT PUSH2 0xBCF JUMPI PUSH2 0xBCE PUSH2 0x2AAB JUMP JUMPDEST JUMPDEST PUSH1 0x20 MUL ADD DUP2 DUP2 MSTORE POP POP PUSH2 0xBE1 DUP3 PUSH2 0x1170 JUMP JUMPDEST DUP2 PUSH1 0x1 PUSH1 0x9 DUP2 LT PUSH2 0xBF5 JUMPI PUSH2 0xBF4 PUSH2 0x2AAB JUMP JUMPDEST JUMPDEST PUSH1 0x20 MUL ADD DUP2 DUP2 MSTORE POP POP PUSH2 0xC45 PUSH8 0xDE0B6B3A7640000 PUSH2 0xC37 PUSH1 0x3 SLOAD DUP5 PUSH1 0x1 PUSH1 0x9 DUP2 LT PUSH2 0xC24 JUMPI PUSH2 0xC23 PUSH2 0x2AAB JUMP JUMPDEST JUMPDEST PUSH1 0x20 MUL ADD MLOAD PUSH2 0x1C6D SWAP1 SWAP2 SWAP1 PUSH4 0xFFFFFFFF AND JUMP JUMPDEST PUSH2 0x1CE8 SWAP1 SWAP2 SWAP1 PUSH4 0xFFFFFFFF AND JUMP JUMPDEST DUP2 PUSH1 0x2 PUSH1 0x9 DUP2 LT PUSH2 0xC59 JUMPI PUSH2 0xC58 PUSH2 0x2AAB JUMP JUMPDEST JUMPDEST PUSH1 0x20 MUL ADD DUP2 DUP2 MSTORE POP POP PUSH2 0xC6A PUSH2 0xFB2 JUMP JUMPDEST DUP2 PUSH1 0x3 PUSH1 0x9 DUP2 LT PUSH2 0xC7E JUMPI PUSH2 0xC7D PUSH2 0x2AAB JUMP JUMPDEST JUMPDEST PUSH1 0x20 MUL ADD DUP2 DUP2 MSTORE POP POP PUSH1 0x7 SLOAD DUP2 PUSH1 0x4 PUSH1 0x9 DUP2 LT PUSH2 0xC9E JUMPI PUSH2 0xC9D PUSH2 0x2AAB JUMP JUMPDEST JUMPDEST PUSH1 0x20 MUL ADD DUP2 DUP2 MSTORE POP POP PUSH2 0xCAF PUSH2 0x865 JUMP JUMPDEST DUP2 PUSH1 0x5 PUSH1 0x9 DUP2 LT PUSH2 0xCC3 JUMPI PUSH2 0xCC2 PUSH2 0x2AAB JUMP JUMPDEST JUMPDEST PUSH1 0x20 MUL ADD DUP2 DUP2 MSTORE POP POP PUSH1 0x3 SLOAD DUP2 PUSH1 0x6 PUSH1 0x9 DUP2 LT PUSH2 0xCE3 JUMPI PUSH2 0xCE2 PUSH2 0x2AAB JUMP JUMPDEST JUMPDEST PUSH1 0x20 MUL ADD DUP2 DUP2 MSTORE POP POP PUSH1 0x5 SLOAD DUP2 PUSH1 0x7 PUSH1 0x9 DUP2 LT PUSH2 0xD03 JUMPI PUSH2 0xD02 PUSH2 0x2AAB JUMP JUMPDEST JUMPDEST PUSH1 0x20 MUL ADD DUP2 DUP2 MSTORE POP POP PUSH1 0x2 PUSH1 0x0 SWAP1 SLOAD SWAP1 PUSH2 0x100 EXP SWAP1 DIV PUSH20 0xFFFFFFFFFFFFFFFFFFFFFFFFFFFFFFFFFFFFFFFF AND PUSH20 0xFFFFFFFFFFFFFFFFFFFFFFFFFFFFFFFFFFFFFFFF AND PUSH4 0xDD62ED3E DUP4 ADDRESS PUSH1 0x40 MLOAD DUP4 PUSH4 0xFFFFFFFF AND PUSH1 0xE0 SHL DUP2 MSTORE PUSH1 0x4 ADD PUSH2 0xD69 SWAP3 SWAP2 SWAP1 PUSH2 0x2555 JUMP JUMPDEST PUSH1 0x20 PUSH1 0x40 MLOAD DUP1 DUP4 SUB DUP2 DUP7 DUP1 EXTCODESIZE ISZERO DUP1 ISZERO PUSH2 0xD81 JUMPI PUSH1 0x0 DUP1 REVERT JUMPDEST POP GAS STATICCALL ISZERO DUP1 ISZERO PUSH2 0xD95 JUMPI RETURNDATASIZE PUSH1 0x0 DUP1 RETURNDATACOPY RETURNDATASIZE PUSH1 0x0 REVERT JUMPDEST POP POP POP POP PUSH1 0x40 MLOAD RETURNDATASIZE PUSH1 0x1F NOT PUSH1 0x1F DUP3 ADD AND DUP3 ADD DUP1 PUSH1 0x40 MSTORE POP DUP2 ADD SWAP1 PUSH2 0xDB9 SWAP2 SWAP1 PUSH2 0x228A JUMP JUMPDEST DUP2 PUSH1 0x8 PUSH1 0x9 DUP2 LT PUSH2 0xDCD JUMPI PUSH2 0xDCC PUSH2 0x2AAB JUMP JUMPDEST JUMPDEST PUSH1 0x20 MUL ADD DUP2 DUP2 MSTORE POP POP SWAP2 SWAP1 POP JUMP JUMPDEST PUSH1 0x8 SLOAD DUP2 JUMP JUMPDEST PUSH1 0x0 PUSH1 0x1 SWAP1 SLOAD SWAP1 PUSH2 0x100 EXP SWAP1 DIV PUSH20 0xFFFFFFFFFFFFFFFFFFFFFFFFFFFFFFFFFFFFFFFF AND PUSH20 0xFFFFFFFFFFFFFFFFFFFFFFFFFFFFFFFFFFFFFFFF AND CALLER PUSH20 0xFFFFFFFFFFFFFFFFFFFFFFFFFFFFFFFFFFFFFFFF AND EQ PUSH2 0xE71 JUMPI PUSH1 0x40 MLOAD PUSH32 0x8C379A000000000000000000000000000000000000000000000000000000000 DUP2 MSTORE PUSH1 0x4 ADD PUSH2 0xE68 SWAP1 PUSH2 0x27C9 JUMP JUMPDEST PUSH1 0x40 MLOAD DUP1 SWAP2 SUB SWAP1 REVERT JUMPDEST PUSH1 0x0 DUP2 PUSH20 0xFFFFFFFFFFFFFFFFFFFFFFFFFFFFFFFFFFFFFFFF AND PUSH4 0x70A08231 ADDRESS PUSH1 0x40 MLOAD DUP3 PUSH4 0xFFFFFFFF AND PUSH1 0xE0 SHL DUP2 MSTORE PUSH1 0x4 ADD PUSH2 0xEAC SWAP2 SWAP1 PUSH2 0x253A JUMP JUMPDEST PUSH1 0x20 PUSH1 0x40 MLOAD DUP1 DUP4 SUB DUP2 DUP7 DUP1 EXTCODESIZE ISZERO DUP1 ISZERO PUSH2 0xEC4 JUMPI PUSH1 0x0 DUP1 REVERT JUMPDEST POP GAS STATICCALL ISZERO DUP1 ISZERO PUSH2 0xED8 JUMPI RETURNDATASIZE PUSH1 0x0 DUP1 RETURNDATACOPY RETURNDATASIZE PUSH1 0x0 REVERT JUMPDEST POP POP POP POP PUSH1 0x40 MLOAD RETURNDATASIZE PUSH1 0x1F NOT PUSH1 0x1F DUP3 ADD AND DUP3 ADD DUP1 PUSH1 0x40 MSTORE POP DUP2 ADD SWAP1 PUSH2 0xEFC SWAP2 SWAP1 PUSH2 0x228A JUMP JUMPDEST SWAP1 POP DUP2 PUSH20 0xFFFFFFFFFFFFFFFFFFFFFFFFFFFFFFFFFFFFFFFF AND PUSH4 0xA9059CBB PUSH1 0x0 PUSH1 0x1 SWAP1 SLOAD SWAP1 PUSH2 0x100 EXP SWAP1 DIV PUSH20 0xFFFFFFFFFFFFFFFFFFFFFFFFFFFFFFFFFFFFFFFF AND DUP4 PUSH1 0x40 MLOAD DUP4 PUSH4 0xFFFFFFFF AND PUSH1 0xE0 SHL DUP2 MSTORE PUSH1 0x4 ADD PUSH2 0xF5B SWAP3 SWAP2 SWAP1 PUSH2 0x25B5 JUMP JUMPDEST PUSH1 0x20 PUSH1 0x40 MLOAD DUP1 DUP4 SUB DUP2 PUSH1 0x0 DUP8 DUP1 EXTCODESIZE ISZERO DUP1 ISZERO PUSH2 0xF75 JUMPI PUSH1 0x0 DUP1 REVERT JUMPDEST POP GAS CALL ISZERO DUP1 ISZERO PUSH2 0xF89 JUMPI RETURNDATASIZE PUSH1 0x0 DUP1 RETURNDATACOPY RETURNDATASIZE PUSH1 0x0 REVERT JUMPDEST POP POP POP POP PUSH1 0x40 MLOAD RETURNDATASIZE PUSH1 0x1F NOT PUSH1 0x1F DUP3 ADD AND DUP3 ADD DUP1 PUSH1 0x40 MSTORE POP DUP2 ADD SWAP1 PUSH2 0xFAD SWAP2 SWAP1 PUSH2 0x2203 JUMP JUMPDEST POP POP POP JUMP JUMPDEST PUSH1 0x0 PUSH1 0x2 PUSH1 0x0 SWAP1 SLOAD SWAP1 PUSH2 0x100 EXP SWAP1 DIV PUSH20 0xFFFFFFFFFFFFFFFFFFFFFFFFFFFFFFFFFFFFFFFF AND PUSH20 0xFFFFFFFFFFFFFFFFFFFFFFFFFFFFFFFFFFFFFFFF AND PUSH4 0x70A08231 ADDRESS PUSH1 0x40 MLOAD DUP3 PUSH4 0xFFFFFFFF AND PUSH1 0xE0 SHL DUP2 MSTORE PUSH1 0x4 ADD PUSH2 0x100F SWAP2 SWAP1 PUSH2 0x253A JUMP JUMPDEST PUSH1 0x20 PUSH1 0x40 MLOAD DUP1 DUP4 SUB DUP2 DUP7 DUP1 EXTCODESIZE ISZERO DUP1 ISZERO PUSH2 0x1027 JUMPI PUSH1 0x0 DUP1 REVERT JUMPDEST POP GAS STATICCALL ISZERO DUP1 ISZERO PUSH2 0x103B JUMPI RETURNDATASIZE PUSH1 0x0 DUP1 RETURNDATACOPY RETURNDATASIZE PUSH1 0x0 REVERT JUMPDEST POP POP POP POP PUSH1 0x40 MLOAD RETURNDATASIZE PUSH1 0x1F NOT PUSH1 0x1F DUP3 ADD AND DUP3 ADD DUP1 PUSH1 0x40 MSTORE POP DUP2 ADD SWAP1 PUSH2 0x105F SWAP2 SWAP1 PUSH2 0x228A JUMP JUMPDEST SWAP1 POP SWAP1 JUMP JUMPDEST PUSH1 0x7 SLOAD DUP2 JUMP JUMPDEST PUSH1 0xA PUSH1 0x20 MSTORE DUP1 PUSH1 0x0 MSTORE PUSH1 0x40 PUSH1 0x0 KECCAK256 PUSH1 0x0 SWAP2 POP SLOAD SWAP1 PUSH2 0x100 EXP SWAP1 DIV PUSH1 0xFF AND DUP2 JUMP JUMPDEST PUSH1 0x0 PUSH1 0x1 SWAP1 SLOAD SWAP1 PUSH2 0x100 EXP SWAP1 DIV PUSH20 0xFFFFFFFFFFFFFFFFFFFFFFFFFFFFFFFFFFFFFFFF AND PUSH20 0xFFFFFFFFFFFFFFFFFFFFFFFFFFFFFFFFFFFFFFFF AND CALLER PUSH20 0xFFFFFFFFFFFFFFFFFFFFFFFFFFFFFFFFFFFFFFFF AND EQ PUSH2 0x111A JUMPI PUSH1 0x40 MLOAD PUSH32 0x8C379A000000000000000000000000000000000000000000000000000000000 DUP2 MSTORE PUSH1 0x4 ADD PUSH2 0x1111 SWAP1 PUSH2 0x27C9 JUMP JUMPDEST PUSH1 0x40 MLOAD DUP1 SWAP2 SUB SWAP1 REVERT JUMPDEST DUP1 PUSH1 0x8 DUP2 SWAP1 SSTORE POP POP JUMP JUMPDEST PUSH1 0x2 PUSH1 0x0 SWAP1 SLOAD SWAP1 PUSH2 0x100 EXP SWAP1 DIV PUSH20 0xFFFFFFFFFFFFFFFFFFFFFFFFFFFFFFFFFFFFFFFF AND DUP2 JUMP JUMPDEST PUSH1 0x0 PUSH1 0x1 SWAP1 SLOAD SWAP1 PUSH2 0x100 EXP SWAP1 DIV PUSH20 0xFFFFFFFFFFFFFFFFFFFFFFFFFFFFFFFFFFFFFFFF AND DUP2 JUMP JUMPDEST PUSH1 0x0 DUP1 PUSH2 0x117B PUSH2 0x865 JUMP JUMPDEST SWAP1 POP PUSH1 0x7 SLOAD PUSH1 0x9 PUSH1 0x0 DUP6 PUSH20 0xFFFFFFFFFFFFFFFFFFFFFFFFFFFFFFFFFFFFFFFF AND PUSH20 0xFFFFFFFFFFFFFFFFFFFFFFFFFFFFFFFFFFFFFFFF AND DUP2 MSTORE PUSH1 0x20 ADD SWAP1 DUP2 MSTORE PUSH1 0x20 ADD PUSH1 0x0 KECCAK256 SLOAD LT ISZERO DUP1 PUSH2 0x11CE JUMPI POP PUSH1 0x0 DUP2 GT ISZERO JUMPDEST DUP1 PUSH2 0x11EC JUMPI POP PUSH1 0x0 ISZERO ISZERO PUSH1 0x6 PUSH1 0x0 SWAP1 SLOAD SWAP1 PUSH2 0x100 EXP SWAP1 DIV PUSH1 0xFF AND ISZERO ISZERO EQ JUMPDEST ISZERO PUSH2 0x11FB JUMPI PUSH1 0x0 SWAP2 POP POP PUSH2 0x12F3 JUMP JUMPDEST PUSH1 0x0 PUSH2 0x1251 PUSH1 0x9 PUSH1 0x0 DUP7 PUSH20 0xFFFFFFFFFFFFFFFFFFFFFFFFFFFFFFFFFFFFFFFF AND PUSH20 0xFFFFFFFFFFFFFFFFFFFFFFFFFFFFFFFFFFFFFFFF AND DUP2 MSTORE PUSH1 0x20 ADD SWAP1 DUP2 MSTORE PUSH1 0x20 ADD PUSH1 0x0 KECCAK256 SLOAD PUSH1 0x7 SLOAD PUSH2 0x1D32 SWAP1 SWAP2 SWAP1 PUSH4 0xFFFFFFFF AND JUMP JUMPDEST SWAP1 POP PUSH1 0x1 ISZERO ISZERO PUSH1 0xA PUSH1 0x0 DUP7 PUSH20 0xFFFFFFFFFFFFFFFFFFFFFFFFFFFFFFFFFFFFFFFF AND PUSH20 0xFFFFFFFFFFFFFFFFFFFFFFFFFFFFFFFFFFFFFFFF AND DUP2 MSTORE PUSH1 0x20 ADD SWAP1 DUP2 MSTORE PUSH1 0x20 ADD PUSH1 0x0 KECCAK256 PUSH1 0x0 SWAP1 SLOAD SWAP1 PUSH2 0x100 EXP SWAP1 DIV PUSH1 0xFF AND ISZERO ISZERO EQ ISZERO PUSH2 0x12B6 JUMPI DUP1 SWAP3 POP POP POP PUSH2 0x12F3 JUMP JUMPDEST PUSH1 0x4 SLOAD DUP3 GT PUSH2 0x12CA JUMPI PUSH1 0x0 SWAP3 POP POP POP PUSH2 0x12F3 JUMP JUMPDEST PUSH2 0x12DF PUSH1 0x4 SLOAD DUP4 PUSH2 0x1D32 SWAP1 SWAP2 SWAP1 PUSH4 0xFFFFFFFF AND JUMP JUMPDEST SWAP2 POP DUP2 DUP2 GT ISZERO PUSH2 0x12ED JUMPI DUP2 SWAP1 POP JUMPDEST DUP1 SWAP3 POP POP POP JUMPDEST SWAP2 SWAP1 POP JUMP JUMPDEST PUSH1 0x6 PUSH1 0x0 SWAP1 SLOAD SWAP1 PUSH2 0x100 EXP SWAP1 DIV PUSH1 0xFF AND DUP2 JUMP JUMPDEST PUSH1 0x0 PUSH1 0x1 SWAP1 SLOAD SWAP1 PUSH2 0x100 EXP SWAP1 DIV PUSH20 0xFFFFFFFFFFFFFFFFFFFFFFFFFFFFFFFFFFFFFFFF AND PUSH20 0xFFFFFFFFFFFFFFFFFFFFFFFFFFFFFFFFFFFFFFFF AND CALLER PUSH20 0xFFFFFFFFFFFFFFFFFFFFFFFFFFFFFFFFFFFFFFFF AND EQ PUSH2 0x139B JUMPI PUSH1 0x40 MLOAD PUSH32 0x8C379A000000000000000000000000000000000000000000000000000000000 DUP2 MSTORE PUSH1 0x4 ADD PUSH2 0x1392 SWAP1 PUSH2 0x27C9 JUMP JUMPDEST PUSH1 0x40 MLOAD DUP1 SWAP2 SUB SWAP1 REVERT JUMPDEST DUP1 PUSH1 0x7 DUP2 SWAP1 SSTORE POP POP JUMP JUMPDEST PUSH1 0x0 PUSH1 0x1 SWAP1 SLOAD SWAP1 PUSH2 0x100 EXP SWAP1 DIV PUSH20 0xFFFFFFFFFFFFFFFFFFFFFFFFFFFFFFFFFFFFFFFF AND PUSH20 0xFFFFFFFFFFFFFFFFFFFFFFFFFFFFFFFFFFFFFFFF AND CALLER PUSH20 0xFFFFFFFFFFFFFFFFFFFFFFFFFFFFFFFFFFFFFFFF AND EQ PUSH2 0x1435 JUMPI PUSH1 0x40 MLOAD PUSH32 0x8C379A000000000000000000000000000000000000000000000000000000000 DUP2 MSTORE PUSH1 0x4 ADD PUSH2 0x142C SWAP1 PUSH2 0x27C9 JUMP JUMPDEST PUSH1 0x40 MLOAD DUP1 SWAP2 SUB SWAP1 REVERT JUMPDEST PUSH1 0x1 PUSH1 0x6 PUSH1 0x0 PUSH2 0x100 EXP DUP2 SLOAD DUP2 PUSH1 0xFF MUL NOT AND SWAP1 DUP4 ISZERO ISZERO MUL OR SWAP1 SSTORE POP JUMP JUMPDEST PUSH1 0x4 SLOAD DUP2 JUMP JUMPDEST PUSH1 0x1 PUSH1 0x0 SWAP1 SLOAD SWAP1 PUSH2 0x100 EXP SWAP1 DIV PUSH20 0xFFFFFFFFFFFFFFFFFFFFFFFFFFFFFFFFFFFFFFFF AND DUP2 JUMP JUMPDEST PUSH1 0x0 PUSH1 0x1 SWAP1 SLOAD SWAP1 PUSH2 0x100 EXP SWAP1 DIV PUSH20 0xFFFFFFFFFFFFFFFFFFFFFFFFFFFFFFFFFFFFFFFF AND PUSH20 0xFFFFFFFFFFFFFFFFFFFFFFFFFFFFFFFFFFFFFFFF AND CALLER PUSH20 0xFFFFFFFFFFFFFFFFFFFFFFFFFFFFFFFFFFFFFFFF AND EQ PUSH2 0x150E JUMPI PUSH1 0x40 MLOAD PUSH32 0x8C379A000000000000000000000000000000000000000000000000000000000 DUP2 MSTORE PUSH1 0x4 ADD PUSH2 0x1505 SWAP1 PUSH2 0x27C9 JUMP JUMPDEST PUSH1 0x40 MLOAD DUP1 SWAP2 SUB SWAP1 REVERT JUMPDEST DUP1 PUSH1 0x4 DUP2 SWAP1 SSTORE POP POP JUMP JUMPDEST PUSH1 0x9 PUSH1 0x20 MSTORE DUP1 PUSH1 0x0 MSTORE PUSH1 0x40 PUSH1 0x0 KECCAK256 PUSH1 0x0 SWAP2 POP SWAP1 POP SLOAD DUP2 JUMP JUMPDEST ORIGIN PUSH20 0xFFFFFFFFFFFFFFFFFFFFFFFFFFFFFFFFFFFFFFFF AND CALLER PUSH20 0xFFFFFFFFFFFFFFFFFFFFFFFFFFFFFFFFFFFFFFFF AND EQ PUSH2 0x159E JUMPI PUSH1 0x40 MLOAD PUSH32 0x8C379A000000000000000000000000000000000000000000000000000000000 DUP2 MSTORE PUSH1 0x4 ADD PUSH2 0x1595 SWAP1 PUSH2 0x26A9 JUMP JUMPDEST PUSH1 0x40 MLOAD DUP1 SWAP2 SUB SWAP1 REVERT JUMPDEST PUSH1 0x1 ISZERO ISZERO PUSH1 0x6 PUSH1 0x0 SWAP1 SLOAD SWAP1 PUSH2 0x100 EXP SWAP1 DIV PUSH1 0xFF AND ISZERO ISZERO EQ PUSH2 0x15F4 JUMPI PUSH1 0x40 MLOAD PUSH32 0x8C379A000000000000000000000000000000000000000000000000000000000 DUP2 MSTORE PUSH1 0x4 ADD PUSH2 0x15EB SWAP1 PUSH2 0x2769 JUMP JUMPDEST PUSH1 0x40 MLOAD DUP1 SWAP2 SUB SWAP1 REVERT JUMPDEST PUSH1 0x0 DUP2 GT PUSH2 0x1637 JUMPI PUSH1 0x40 MLOAD PUSH32 0x8C379A000000000000000000000000000000000000000000000000000000000 DUP2 MSTORE PUSH1 0x4 ADD PUSH2 0x162E SWAP1 PUSH2 0x27A9 JUMP JUMPDEST PUSH1 0x40 MLOAD DUP1 SWAP2 SUB SWAP1 REVERT JUMPDEST PUSH1 0x0 PUSH2 0x1642 CALLER PUSH2 0x1170 JUMP JUMPDEST SWAP1 POP PUSH1 0x0 DUP2 GT PUSH2 0x1687 JUMPI PUSH1 0x40 MLOAD PUSH32 0x8C379A000000000000000000000000000000000000000000000000000000000 DUP2 MSTORE PUSH1 0x4 ADD PUSH2 0x167E SWAP1 PUSH2 0x27C9 JUMP JUMPDEST PUSH1 0x40 MLOAD DUP1 SWAP2 SUB SWAP1 REVERT JUMPDEST PUSH1 0x0 PUSH2 0x16B8 PUSH1 0x3 SLOAD PUSH2 0x16AA PUSH8 0xDE0B6B3A7640000 DUP7 PUSH2 0x1C6D SWAP1 SWAP2 SWAP1 PUSH4 0xFFFFFFFF AND JUMP JUMPDEST PUSH2 0x1CE8 SWAP1 SWAP2 SWAP1 PUSH4 0xFFFFFFFF AND JUMP JUMPDEST SWAP1 POP DUP2 DUP2 GT ISZERO PUSH2 0x16F7 JUMPI DUP2 SWAP1 POP PUSH2 0x16F4 PUSH8 0xDE0B6B3A7640000 PUSH2 0x16E6 PUSH1 0x3 SLOAD DUP5 PUSH2 0x1C6D SWAP1 SWAP2 SWAP1 PUSH4 0xFFFFFFFF AND JUMP JUMPDEST PUSH2 0x1CE8 SWAP1 SWAP2 SWAP1 PUSH4 0xFFFFFFFF AND JUMP JUMPDEST SWAP3 POP JUMPDEST PUSH1 0x0 DUP2 GT PUSH2 0x173A JUMPI PUSH1 0x40 MLOAD PUSH32 0x8C379A000000000000000000000000000000000000000000000000000000000 DUP2 MSTORE PUSH1 0x4 ADD PUSH2 0x1731 SWAP1 PUSH2 0x26C9 JUMP JUMPDEST PUSH1 0x40 MLOAD DUP1 SWAP2 SUB SWAP1 REVERT JUMPDEST PUSH1 0x8 SLOAD DUP2 LT ISZERO PUSH2 0x177F JUMPI PUSH1 0x40 MLOAD PUSH32 0x8C379A000000000000000000000000000000000000000000000000000000000 DUP2 MSTORE PUSH1 0x4 ADD PUSH2 0x1776 SWAP1 PUSH2 0x2729 JUMP JUMPDEST PUSH1 0x40 MLOAD DUP1 SWAP2 SUB SWAP1 REVERT JUMPDEST PUSH1 0x0 DUP4 GT PUSH2 0x17C2 JUMPI PUSH1 0x40 MLOAD PUSH32 0x8C379A000000000000000000000000000000000000000000000000000000000 DUP2 MSTORE PUSH1 0x4 ADD PUSH2 0x17B9 SWAP1 PUSH2 0x2789 JUMP JUMPDEST PUSH1 0x40 MLOAD DUP1 SWAP2 SUB SWAP1 REVERT JUMPDEST PUSH1 0x1 ISZERO ISZERO PUSH2 0x17CF DUP5 PUSH2 0x1D7C JUMP JUMPDEST ISZERO ISZERO EQ PUSH2 0x1811 JUMPI PUSH1 0x40 MLOAD PUSH32 0x8C379A000000000000000000000000000000000000000000000000000000000 DUP2 MSTORE PUSH1 0x4 ADD PUSH2 0x1808 SWAP1 PUSH2 0x2709 JUMP JUMPDEST PUSH1 0x40 MLOAD DUP1 SWAP2 SUB SWAP1 REVERT JUMPDEST PUSH1 0x1 PUSH1 0x0 SWAP1 SLOAD SWAP1 PUSH2 0x100 EXP SWAP1 DIV PUSH20 0xFFFFFFFFFFFFFFFFFFFFFFFFFFFFFFFFFFFFFFFF AND PUSH20 0xFFFFFFFFFFFFFFFFFFFFFFFFFFFFFFFFFFFFFFFF AND PUSH4 0xA9059CBB CALLER DUP4 PUSH1 0x40 MLOAD DUP4 PUSH4 0xFFFFFFFF AND PUSH1 0xE0 SHL DUP2 MSTORE PUSH1 0x4 ADD PUSH2 0x186E SWAP3 SWAP2 SWAP1 PUSH2 0x25B5 JUMP JUMPDEST PUSH1 0x20 PUSH1 0x40 MLOAD DUP1 DUP4 SUB DUP2 PUSH1 0x0 DUP8 DUP1 EXTCODESIZE ISZERO DUP1 ISZERO PUSH2 0x1888 JUMPI PUSH1 0x0 DUP1 REVERT JUMPDEST POP GAS CALL ISZERO DUP1 ISZERO PUSH2 0x189C JUMPI RETURNDATASIZE PUSH1 0x0 DUP1 RETURNDATACOPY RETURNDATASIZE PUSH1 0x0 REVERT JUMPDEST POP POP POP POP PUSH1 0x40 MLOAD RETURNDATASIZE PUSH1 0x1F NOT PUSH1 0x1F DUP3 ADD AND DUP3 ADD DUP1 PUSH1 0x40 MSTORE POP DUP2 ADD SWAP1 PUSH2 0x18C0 SWAP2 SWAP1 PUSH2 0x2203 JUMP JUMPDEST POP PUSH2 0x18D6 DUP4 PUSH1 0x5 SLOAD PUSH2 0x1FD0 SWAP1 SWAP2 SWAP1 PUSH4 0xFFFFFFFF AND JUMP JUMPDEST PUSH1 0x5 DUP2 SWAP1 SSTORE POP PUSH2 0x192E DUP2 PUSH1 0x9 PUSH1 0x0 CALLER PUSH20 0xFFFFFFFFFFFFFFFFFFFFFFFFFFFFFFFFFFFFFFFF AND PUSH20 0xFFFFFFFFFFFFFFFFFFFFFFFFFFFFFFFFFFFFFFFF AND DUP2 MSTORE PUSH1 0x20 ADD SWAP1 DUP2 MSTORE PUSH1 0x20 ADD PUSH1 0x0 KECCAK256 SLOAD PUSH2 0x1FD0 SWAP1 SWAP2 SWAP1 PUSH4 0xFFFFFFFF AND JUMP JUMPDEST PUSH1 0x9 PUSH1 0x0 CALLER PUSH20 0xFFFFFFFFFFFFFFFFFFFFFFFFFFFFFFFFFFFFFFFF AND PUSH20 0xFFFFFFFFFFFFFFFFFFFFFFFFFFFFFFFFFFFFFFFF AND DUP2 MSTORE PUSH1 0x20 ADD SWAP1 DUP2 MSTORE PUSH1 0x20 ADD PUSH1 0x0 KECCAK256 DUP2 SWAP1 SSTORE POP PUSH1 0x1 ISZERO ISZERO PUSH1 0xA PUSH1 0x0 CALLER PUSH20 0xFFFFFFFFFFFFFFFFFFFFFFFFFFFFFFFFFFFFFFFF AND PUSH20 0xFFFFFFFFFFFFFFFFFFFFFFFFFFFFFFFFFFFFFFFF AND DUP2 MSTORE PUSH1 0x20 ADD SWAP1 DUP2 MSTORE PUSH1 0x20 ADD PUSH1 0x0 KECCAK256 PUSH1 0x0 SWAP1 SLOAD SWAP1 PUSH2 0x100 EXP SWAP1 DIV PUSH1 0xFF AND ISZERO ISZERO EQ ISZERO PUSH2 0x19E6 JUMPI PUSH2 0x19DF DUP2 PUSH1 0x4 SLOAD PUSH2 0x1D32 SWAP1 SWAP2 SWAP1 PUSH4 0xFFFFFFFF AND JUMP JUMPDEST PUSH1 0x4 DUP2 SWAP1 SSTORE POP JUMPDEST PUSH32 0x7B027A29D1A4D4D2E0A11E04EBD4741452BFBB746ED433855A8F63AFC5B20CDE CALLER DUP5 DUP4 PUSH1 0x40 MLOAD PUSH2 0x1A19 SWAP4 SWAP3 SWAP2 SWAP1 PUSH2 0x25DE JUMP JUMPDEST PUSH1 0x40 MLOAD DUP1 SWAP2 SUB SWAP1 LOG1 POP POP POP JUMP JUMPDEST PUSH1 0x0 PUSH1 0x1 SWAP1 SLOAD SWAP1 PUSH2 0x100 EXP SWAP1 DIV PUSH20 0xFFFFFFFFFFFFFFFFFFFFFFFFFFFFFFFFFFFFFFFF AND PUSH20 0xFFFFFFFFFFFFFFFFFFFFFFFFFFFFFFFFFFFFFFFF AND CALLER PUSH20 0xFFFFFFFFFFFFFFFFFFFFFFFFFFFFFFFFFFFFFFFF AND EQ PUSH2 0x1AB6 JUMPI PUSH1 0x40 MLOAD PUSH32 0x8C379A000000000000000000000000000000000000000000000000000000000 DUP2 MSTORE PUSH1 0x4 ADD PUSH2 0x1AAD SWAP1 PUSH2 0x27C9 JUMP JUMPDEST PUSH1 0x40 MLOAD DUP1 SWAP2 SUB SWAP1 REVERT JUMPDEST PUSH1 0x1 DUP2 PUSH1 0xFF AND EQ ISZERO PUSH2 0x1B1F JUMPI PUSH1 0x1 PUSH1 0xA PUSH1 0x0 DUP5 PUSH20 0xFFFFFFFFFFFFFFFFFFFFFFFFFFFFFFFFFFFFFFFF AND PUSH20 0xFFFFFFFFFFFFFFFFFFFFFFFFFFFFFFFFFFFFFFFF AND DUP2 MSTORE PUSH1 0x20 ADD SWAP1 DUP2 MSTORE PUSH1 0x20 ADD PUSH1 0x0 KECCAK256 PUSH1 0x0 PUSH2 0x100 EXP DUP2 SLOAD DUP2 PUSH1 0xFF MUL NOT AND SWAP1 DUP4 ISZERO ISZERO MUL OR SWAP1 SSTORE POP PUSH2 0x1B78 JUMP JUMPDEST PUSH1 0x0 PUSH1 0xA PUSH1 0x0 DUP5 PUSH20 0xFFFFFFFFFFFFFFFFFFFFFFFFFFFFFFFFFFFFFFFF AND PUSH20 0xFFFFFFFFFFFFFFFFFFFFFFFFFFFFFFFFFFFFFFFF AND DUP2 MSTORE PUSH1 0x20 ADD SWAP1 DUP2 MSTORE PUSH1 0x20 ADD PUSH1 0x0 KECCAK256 PUSH1 0x0 PUSH2 0x100 EXP DUP2 SLOAD DUP2 PUSH1 0xFF MUL NOT AND SWAP1 DUP4 ISZERO ISZERO MUL OR SWAP1 SSTORE POP JUMPDEST POP POP JUMP JUMPDEST PUSH1 0x5 SLOAD DUP2 JUMP JUMPDEST PUSH1 0x0 PUSH1 0x1 SWAP1 SLOAD SWAP1 PUSH2 0x100 EXP SWAP1 DIV PUSH20 0xFFFFFFFFFFFFFFFFFFFFFFFFFFFFFFFFFFFFFFFF AND PUSH20 0xFFFFFFFFFFFFFFFFFFFFFFFFFFFFFFFFFFFFFFFF AND CALLER PUSH20 0xFFFFFFFFFFFFFFFFFFFFFFFFFFFFFFFFFFFFFFFF AND EQ PUSH2 0x1C12 JUMPI PUSH1 0x40 MLOAD PUSH32 0x8C379A000000000000000000000000000000000000000000000000000000000 DUP2 MSTORE PUSH1 0x4 ADD PUSH2 0x1C09 SWAP1 PUSH2 0x27C9 JUMP JUMPDEST PUSH1 0x40 MLOAD DUP1 SWAP2 SUB SWAP1 REVERT JUMPDEST DUP1 PUSH1 0x0 PUSH1 0x1 PUSH2 0x100 EXP DUP2 SLOAD DUP2 PUSH20 0xFFFFFFFFFFFFFFFFFFFFFFFFFFFFFFFFFFFFFFFF MUL NOT AND SWAP1 DUP4 PUSH20 0xFFFFFFFFFFFFFFFFFFFFFFFFFFFFFFFFFFFFFFFF AND MUL OR SWAP1 SSTORE POP POP JUMP JUMPDEST PUSH1 0x3 SLOAD DUP2 JUMP JUMPDEST PUSH1 0x0 DUP1 SLOAD SWAP1 PUSH2 0x100 EXP SWAP1 DIV PUSH1 0xFF AND DUP2 JUMP JUMPDEST PUSH1 0x0 DUP1 DUP4 EQ ISZERO PUSH2 0x1C80 JUMPI PUSH1 0x0 SWAP1 POP PUSH2 0x1CE2 JUMP JUMPDEST PUSH1 0x0 DUP3 DUP5 PUSH2 0x1C8E SWAP2 SWAP1 PUSH2 0x28EF JUMP JUMPDEST SWAP1 POP DUP3 DUP5 DUP3 PUSH2 0x1C9D SWAP2 SWAP1 PUSH2 0x28BE JUMP JUMPDEST EQ PUSH2 0x1CDD JUMPI PUSH1 0x40 MLOAD PUSH32 0x8C379A000000000000000000000000000000000000000000000000000000000 DUP2 MSTORE PUSH1 0x4 ADD PUSH2 0x1CD4 SWAP1 PUSH2 0x2749 JUMP JUMPDEST PUSH1 0x40 MLOAD DUP1 SWAP2 SUB SWAP1 REVERT JUMPDEST DUP1 SWAP2 POP POP JUMPDEST SWAP3 SWAP2 POP POP JUMP JUMPDEST PUSH1 0x0 PUSH2 0x1D2A DUP4 DUP4 PUSH1 0x40 MLOAD DUP1 PUSH1 0x40 ADD PUSH1 0x40 MSTORE DUP1 PUSH1 0x1A DUP2 MSTORE PUSH1 0x20 ADD PUSH32 0x536166654D6174683A206469766973696F6E206279207A65726F000000000000 DUP2 MSTORE POP PUSH2 0x202E JUMP JUMPDEST SWAP1 POP SWAP3 SWAP2 POP POP JUMP JUMPDEST PUSH1 0x0 PUSH2 0x1D74 DUP4 DUP4 PUSH1 0x40 MLOAD DUP1 PUSH1 0x40 ADD PUSH1 0x40 MSTORE DUP1 PUSH1 0x1E DUP2 MSTORE PUSH1 0x20 ADD PUSH32 0x536166654D6174683A207375627472616374696F6E206F766572666C6F770000 DUP2 MSTORE POP PUSH2 0x2091 JUMP JUMPDEST SWAP1 POP SWAP3 SWAP2 POP POP JUMP JUMPDEST PUSH1 0x0 DUP1 PUSH1 0x2 PUSH1 0x0 SWAP1 SLOAD SWAP1 PUSH2 0x100 EXP SWAP1 DIV PUSH20 0xFFFFFFFFFFFFFFFFFFFFFFFFFFFFFFFFFFFFFFFF AND PUSH20 0xFFFFFFFFFFFFFFFFFFFFFFFFFFFFFFFFFFFFFFFF AND PUSH4 0x70A08231 ADDRESS PUSH1 0x40 MLOAD DUP3 PUSH4 0xFFFFFFFF AND PUSH1 0xE0 SHL DUP2 MSTORE PUSH1 0x4 ADD PUSH2 0x1DDA SWAP2 SWAP1 PUSH2 0x253A JUMP JUMPDEST PUSH1 0x20 PUSH1 0x40 MLOAD DUP1 DUP4 SUB DUP2 DUP7 DUP1 EXTCODESIZE ISZERO DUP1 ISZERO PUSH2 0x1DF2 JUMPI PUSH1 0x0 DUP1 REVERT JUMPDEST POP GAS STATICCALL ISZERO DUP1 ISZERO PUSH2 0x1E06 JUMPI RETURNDATASIZE PUSH1 0x0 DUP1 RETURNDATACOPY RETURNDATASIZE PUSH1 0x0 REVERT JUMPDEST POP POP POP POP PUSH1 0x40 MLOAD RETURNDATASIZE PUSH1 0x1F NOT PUSH1 0x1F DUP3 ADD AND DUP3 ADD DUP1 PUSH1 0x40 MSTORE POP DUP2 ADD SWAP1 PUSH2 0x1E2A SWAP2 SWAP1 PUSH2 0x228A JUMP JUMPDEST SWAP1 POP PUSH1 0x2 PUSH1 0x0 SWAP1 SLOAD SWAP1 PUSH2 0x100 EXP SWAP1 DIV PUSH20 0xFFFFFFFFFFFFFFFFFFFFFFFFFFFFFFFFFFFFFFFF AND PUSH20 0xFFFFFFFFFFFFFFFFFFFFFFFFFFFFFFFFFFFFFFFF AND PUSH4 0x23B872DD CALLER ADDRESS DUP7 PUSH1 0x40 MLOAD DUP5 PUSH4 0xFFFFFFFF AND PUSH1 0xE0 SHL DUP2 MSTORE PUSH1 0x4 ADD PUSH2 0x1E8B SWAP4 SWAP3 SWAP2 SWAP1 PUSH2 0x257E JUMP JUMPDEST PUSH1 0x20 PUSH1 0x40 MLOAD DUP1 DUP4 SUB DUP2 PUSH1 0x0 DUP8 DUP1 EXTCODESIZE ISZERO DUP1 ISZERO PUSH2 0x1EA5 JUMPI PUSH1 0x0 DUP1 REVERT JUMPDEST POP GAS CALL ISZERO DUP1 ISZERO PUSH2 0x1EB9 JUMPI RETURNDATASIZE PUSH1 0x0 DUP1 RETURNDATACOPY RETURNDATASIZE PUSH1 0x0 REVERT JUMPDEST POP POP POP POP PUSH1 0x40 MLOAD RETURNDATASIZE PUSH1 0x1F NOT PUSH1 0x1F DUP3 ADD AND DUP3 ADD DUP1 PUSH1 0x40 MSTORE POP DUP2 ADD SWAP1 PUSH2 0x1EDD SWAP2 SWAP1 PUSH2 0x2203 JUMP JUMPDEST POP PUSH1 0x0 PUSH1 0x2 PUSH1 0x0 SWAP1 SLOAD SWAP1 PUSH2 0x100 EXP SWAP1 DIV PUSH20 0xFFFFFFFFFFFFFFFFFFFFFFFFFFFFFFFFFFFFFFFF AND PUSH20 0xFFFFFFFFFFFFFFFFFFFFFFFFFFFFFFFFFFFFFFFF AND PUSH4 0x70A08231 ADDRESS PUSH1 0x40 MLOAD DUP3 PUSH4 0xFFFFFFFF AND PUSH1 0xE0 SHL DUP2 MSTORE PUSH1 0x4 ADD PUSH2 0x1F3B SWAP2 SWAP1 PUSH2 0x253A JUMP JUMPDEST PUSH1 0x20 PUSH1 0x40 MLOAD DUP1 DUP4 SUB DUP2 DUP7 DUP1 EXTCODESIZE ISZERO DUP1 ISZERO PUSH2 0x1F53 JUMPI PUSH1 0x0 DUP1 REVERT JUMPDEST POP GAS STATICCALL ISZERO DUP1 ISZERO PUSH2 0x1F67 JUMPI RETURNDATASIZE PUSH1 0x0 DUP1 RETURNDATACOPY RETURNDATASIZE PUSH1 0x0 REVERT JUMPDEST POP POP POP POP PUSH1 0x40 MLOAD RETURNDATASIZE PUSH1 0x1F NOT PUSH1 0x1F DUP3 ADD AND DUP3 ADD DUP1 PUSH1 0x40 MSTORE POP DUP2 ADD SWAP1 PUSH2 0x1F8B SWAP2 SWAP1 PUSH2 0x228A JUMP JUMPDEST SWAP1 POP DUP2 DUP2 GT PUSH2 0x1F9F JUMPI PUSH1 0x0 SWAP3 POP POP POP PUSH2 0x1FCB JUMP JUMPDEST PUSH2 0x1FB2 DUP5 DUP4 PUSH2 0x1FD0 SWAP1 SWAP2 SWAP1 PUSH4 0xFFFFFFFF AND JUMP JUMPDEST DUP2 LT ISZERO PUSH2 0x1FC4 JUMPI PUSH1 0x0 SWAP3 POP POP POP PUSH2 0x1FCB JUMP JUMPDEST PUSH1 0x1 SWAP3 POP POP POP JUMPDEST SWAP2 SWAP1 POP JUMP JUMPDEST PUSH1 0x0 DUP1 DUP3 DUP5 PUSH2 0x1FDF SWAP2 SWAP1 PUSH2 0x2868 JUMP JUMPDEST SWAP1 POP DUP4 DUP2 LT ISZERO PUSH2 0x2024 JUMPI PUSH1 0x40 MLOAD PUSH32 0x8C379A000000000000000000000000000000000000000000000000000000000 DUP2 MSTORE PUSH1 0x4 ADD PUSH2 0x201B SWAP1 PUSH2 0x26E9 JUMP JUMPDEST PUSH1 0x40 MLOAD DUP1 SWAP2 SUB SWAP1 REVERT JUMPDEST DUP1 SWAP2 POP POP SWAP3 SWAP2 POP POP JUMP JUMPDEST PUSH1 0x0 DUP1 DUP4 GT DUP3 SWAP1 PUSH2 0x2075 JUMPI PUSH1 0x40 MLOAD PUSH32 0x8C379A000000000000000000000000000000000000000000000000000000000 DUP2 MSTORE PUSH1 0x4 ADD PUSH2 0x206C SWAP2 SWAP1 PUSH2 0x2667 JUMP JUMPDEST PUSH1 0x40 MLOAD DUP1 SWAP2 SUB SWAP1 REVERT JUMPDEST POP PUSH1 0x0 DUP4 DUP6 PUSH2 0x2084 SWAP2 SWAP1 PUSH2 0x28BE JUMP JUMPDEST SWAP1 POP DUP1 SWAP2 POP POP SWAP4 SWAP3 POP POP POP JUMP JUMPDEST PUSH1 0x0 DUP4 DUP4 GT ISZERO DUP3 SWAP1 PUSH2 0x20D9 JUMPI PUSH1 0x40 MLOAD PUSH32 0x8C379A000000000000000000000000000000000000000000000000000000000 DUP2 MSTORE PUSH1 0x4 ADD PUSH2 0x20D0 SWAP2 SWAP1 PUSH2 0x2667 JUMP JUMPDEST PUSH1 0x40 MLOAD DUP1 SWAP2 SUB SWAP1 REVERT JUMPDEST POP PUSH1 0x0 DUP4 DUP6 PUSH2 0x20E8 SWAP2 SWAP1 PUSH2 0x2949 JUMP JUMPDEST SWAP1 POP DUP1 SWAP2 POP POP SWAP4 SWAP3 POP POP POP JUMP JUMPDEST PUSH1 0x40 MLOAD DUP1 PUSH2 0x120 ADD PUSH1 0x40 MSTORE DUP1 PUSH1 0x9 SWAP1 PUSH1 0x20 DUP3 MUL DUP1 CALLDATASIZE DUP4 CALLDATACOPY DUP1 DUP3 ADD SWAP2 POP POP SWAP1 POP POP SWAP1 JUMP JUMPDEST PUSH1 0x0 DUP2 CALLDATALOAD SWAP1 POP PUSH2 0x2127 DUP2 PUSH2 0x2CD9 JUMP JUMPDEST SWAP3 SWAP2 POP POP JUMP JUMPDEST PUSH1 0x0 DUP2 MLOAD SWAP1 POP PUSH2 0x213C DUP2 PUSH2 0x2CF0 JUMP JUMPDEST SWAP3 SWAP2 POP POP JUMP JUMPDEST PUSH1 0x0 DUP2 CALLDATALOAD SWAP1 POP PUSH2 0x2151 DUP2 PUSH2 0x2D07 JUMP JUMPDEST SWAP3 SWAP2 POP POP JUMP JUMPDEST PUSH1 0x0 DUP2 CALLDATALOAD SWAP1 POP PUSH2 0x2166 DUP2 PUSH2 0x2D1E JUMP JUMPDEST SWAP3 SWAP2 POP POP JUMP JUMPDEST PUSH1 0x0 DUP2 MLOAD SWAP1 POP PUSH2 0x217B DUP2 PUSH2 0x2D1E JUMP JUMPDEST SWAP3 SWAP2 POP POP JUMP JUMPDEST PUSH1 0x0 DUP2 CALLDATALOAD SWAP1 POP PUSH2 0x2190 DUP2 PUSH2 0x2D35 JUMP JUMPDEST SWAP3 SWAP2 POP POP JUMP JUMPDEST PUSH1 0x0 PUSH1 0x20 DUP3 DUP5 SUB SLT ISZERO PUSH2 0x21AC JUMPI PUSH2 0x21AB PUSH2 0x2ADA JUMP JUMPDEST JUMPDEST PUSH1 0x0 PUSH2 0x21BA DUP5 DUP3 DUP6 ADD PUSH2 0x2118 JUMP JUMPDEST SWAP2 POP POP SWAP3 SWAP2 POP POP JUMP JUMPDEST PUSH1 0x0 DUP1 PUSH1 0x40 DUP4 DUP6 SUB SLT ISZERO PUSH2 0x21DA JUMPI PUSH2 0x21D9 PUSH2 0x2ADA JUMP JUMPDEST JUMPDEST PUSH1 0x0 PUSH2 0x21E8 DUP6 DUP3 DUP7 ADD PUSH2 0x2118 JUMP JUMPDEST SWAP3 POP POP PUSH1 0x20 PUSH2 0x21F9 DUP6 DUP3 DUP7 ADD PUSH2 0x2181 JUMP JUMPDEST SWAP2 POP POP SWAP3 POP SWAP3 SWAP1 POP JUMP JUMPDEST PUSH1 0x0 PUSH1 0x20 DUP3 DUP5 SUB SLT ISZERO PUSH2 0x2219 JUMPI PUSH2 0x2218 PUSH2 0x2ADA JUMP JUMPDEST JUMPDEST PUSH1 0x0 PUSH2 0x2227 DUP5 DUP3 DUP6 ADD PUSH2 0x212D JUMP JUMPDEST SWAP2 POP POP SWAP3 SWAP2 POP POP JUMP JUMPDEST PUSH1 0x0 PUSH1 0x20 DUP3 DUP5 SUB SLT ISZERO PUSH2 0x2246 JUMPI PUSH2 0x2245 PUSH2 0x2ADA JUMP JUMPDEST JUMPDEST PUSH1 0x0 PUSH2 0x2254 DUP5 DUP3 DUP6 ADD PUSH2 0x2142 JUMP JUMPDEST SWAP2 POP POP SWAP3 SWAP2 POP POP JUMP JUMPDEST PUSH1 0x0 PUSH1 0x20 DUP3 DUP5 SUB SLT ISZERO PUSH2 0x2273 JUMPI PUSH2 0x2272 PUSH2 0x2ADA JUMP JUMPDEST JUMPDEST PUSH1 0x0 PUSH2 0x2281 DUP5 DUP3 DUP6 ADD PUSH2 0x2157 JUMP JUMPDEST SWAP2 POP POP SWAP3 SWAP2 POP POP JUMP JUMPDEST PUSH1 0x0 PUSH1 0x20 DUP3 DUP5 SUB SLT ISZERO PUSH2 0x22A0 JUMPI PUSH2 0x229F PUSH2 0x2ADA JUMP JUMPDEST JUMPDEST PUSH1 0x0 PUSH2 0x22AE DUP5 DUP3 DUP6 ADD PUSH2 0x216C JUMP JUMPDEST SWAP2 POP POP SWAP3 SWAP2 POP POP JUMP JUMPDEST PUSH1 0x0 PUSH2 0x22C3 DUP4 DUP4 PUSH2 0x250D JUMP JUMPDEST PUSH1 0x20 DUP4 ADD SWAP1 POP SWAP3 SWAP2 POP POP JUMP JUMPDEST PUSH2 0x22D8 DUP2 PUSH2 0x297D JUMP JUMPDEST DUP3 MSTORE POP POP JUMP JUMPDEST PUSH2 0x22E7 DUP2 PUSH2 0x2829 JUMP JUMPDEST PUSH2 0x22F1 DUP2 DUP5 PUSH2 0x284C JUMP JUMPDEST SWAP3 POP PUSH2 0x22FC DUP3 PUSH2 0x281F JUMP JUMPDEST DUP1 PUSH1 0x0 JUMPDEST DUP4 DUP2 LT ISZERO PUSH2 0x232D JUMPI DUP2 MLOAD PUSH2 0x2314 DUP8 DUP3 PUSH2 0x22B7 JUMP JUMPDEST SWAP7 POP PUSH2 0x231F DUP4 PUSH2 0x283F JUMP JUMPDEST SWAP3 POP POP PUSH1 0x1 DUP2 ADD SWAP1 POP PUSH2 0x2300 JUMP JUMPDEST POP POP POP POP POP POP JUMP JUMPDEST PUSH2 0x233E DUP2 PUSH2 0x298F JUMP JUMPDEST DUP3 MSTORE POP POP JUMP JUMPDEST PUSH2 0x234D DUP2 PUSH2 0x29E4 JUMP JUMPDEST DUP3 MSTORE POP POP JUMP JUMPDEST PUSH1 0x0 PUSH2 0x235E DUP3 PUSH2 0x2834 JUMP JUMPDEST PUSH2 0x2368 DUP2 DUP6 PUSH2 0x2857 JUMP JUMPDEST SWAP4 POP PUSH2 0x2378 DUP2 DUP6 PUSH1 0x20 DUP7 ADD PUSH2 0x2A1A JUMP JUMPDEST PUSH2 0x2381 DUP2 PUSH2 0x2ADF JUMP JUMPDEST DUP5 ADD SWAP2 POP POP SWAP3 SWAP2 POP POP JUMP JUMPDEST PUSH1 0x0 PUSH2 0x2399 PUSH1 0xF DUP4 PUSH2 0x2857 JUMP JUMPDEST SWAP2 POP PUSH2 0x23A4 DUP3 PUSH2 0x2AF0 JUMP JUMPDEST PUSH1 0x20 DUP3 ADD SWAP1 POP SWAP2 SWAP1 POP JUMP JUMPDEST PUSH1 0x0 PUSH2 0x23BC PUSH1 0x11 DUP4 PUSH2 0x2857 JUMP JUMPDEST SWAP2 POP PUSH2 0x23C7 DUP3 PUSH2 0x2B19 JUMP JUMPDEST PUSH1 0x20 DUP3 ADD SWAP1 POP SWAP2 SWAP1 POP JUMP JUMPDEST PUSH1 0x0 PUSH2 0x23DF PUSH1 0x12 DUP4 PUSH2 0x2857 JUMP JUMPDEST SWAP2 POP PUSH2 0x23EA DUP3 PUSH2 0x2B42 JUMP JUMPDEST PUSH1 0x20 DUP3 ADD SWAP1 POP SWAP2 SWAP1 POP JUMP JUMPDEST PUSH1 0x0 PUSH2 0x2402 PUSH1 0x1B DUP4 PUSH2 0x2857 JUMP JUMPDEST SWAP2 POP PUSH2 0x240D DUP3 PUSH2 0x2B6B JUMP JUMPDEST PUSH1 0x20 DUP3 ADD SWAP1 POP SWAP2 SWAP1 POP JUMP JUMPDEST PUSH1 0x0 PUSH2 0x2425 PUSH1 0x12 DUP4 PUSH2 0x2857 JUMP JUMPDEST SWAP2 POP PUSH2 0x2430 DUP3 PUSH2 0x2B94 JUMP JUMPDEST PUSH1 0x20 DUP3 ADD SWAP1 POP SWAP2 SWAP1 POP JUMP JUMPDEST PUSH1 0x0 PUSH2 0x2448 PUSH1 0x12 DUP4 PUSH2 0x2857 JUMP JUMPDEST SWAP2 POP PUSH2 0x2453 DUP3 PUSH2 0x2BBD JUMP JUMPDEST PUSH1 0x20 DUP3 ADD SWAP1 POP SWAP2 SWAP1 POP JUMP JUMPDEST PUSH1 0x0 PUSH2 0x246B PUSH1 0x21 DUP4 PUSH2 0x2857 JUMP JUMPDEST SWAP2 POP PUSH2 0x2476 DUP3 PUSH2 0x2BE6 JUMP JUMPDEST PUSH1 0x40 DUP3 ADD SWAP1 POP SWAP2 SWAP1 POP JUMP JUMPDEST PUSH1 0x0 PUSH2 0x248E PUSH1 0xB DUP4 PUSH2 0x2857 JUMP JUMPDEST SWAP2 POP PUSH2 0x2499 DUP3 PUSH2 0x2C35 JUMP JUMPDEST PUSH1 0x20 DUP3 ADD SWAP1 POP SWAP2 SWAP1 POP JUMP JUMPDEST PUSH1 0x0 PUSH2 0x24B1 PUSH1 0x12 DUP4 PUSH2 0x2857 JUMP JUMPDEST SWAP2 POP PUSH2 0x24BC DUP3 PUSH2 0x2C5E JUMP JUMPDEST PUSH1 0x20 DUP3 ADD SWAP1 POP SWAP2 SWAP1 POP JUMP JUMPDEST PUSH1 0x0 PUSH2 0x24D4 PUSH1 0x10 DUP4 PUSH2 0x2857 JUMP JUMPDEST SWAP2 POP PUSH2 0x24DF DUP3 PUSH2 0x2C87 JUMP JUMPDEST PUSH1 0x20 DUP3 ADD SWAP1 POP SWAP2 SWAP1 POP JUMP JUMPDEST PUSH1 0x0 PUSH2 0x24F7 PUSH1 0x12 DUP4 PUSH2 0x2857 JUMP JUMPDEST SWAP2 POP PUSH2 0x2502 DUP3 PUSH2 0x2CB0 JUMP JUMPDEST PUSH1 0x20 DUP3 ADD SWAP1 POP SWAP2 SWAP1 POP JUMP JUMPDEST PUSH2 0x2516 DUP2 PUSH2 0x29CD JUMP JUMPDEST DUP3 MSTORE POP POP JUMP JUMPDEST PUSH2 0x2525 DUP2 PUSH2 0x29CD JUMP JUMPDEST DUP3 MSTORE POP POP JUMP JUMPDEST PUSH2 0x2534 DUP2 PUSH2 0x29D7 JUMP JUMPDEST DUP3 MSTORE POP POP JUMP JUMPDEST PUSH1 0x0 PUSH1 0x20 DUP3 ADD SWAP1 POP PUSH2 0x254F PUSH1 0x0 DUP4 ADD DUP5 PUSH2 0x22CF JUMP JUMPDEST SWAP3 SWAP2 POP POP JUMP JUMPDEST PUSH1 0x0 PUSH1 0x40 DUP3 ADD SWAP1 POP PUSH2 0x256A PUSH1 0x0 DUP4 ADD DUP6 PUSH2 0x22CF JUMP JUMPDEST PUSH2 0x2577 PUSH1 0x20 DUP4 ADD DUP5 PUSH2 0x22CF JUMP JUMPDEST SWAP4 SWAP3 POP POP POP JUMP JUMPDEST PUSH1 0x0 PUSH1 0x60 DUP3 ADD SWAP1 POP PUSH2 0x2593 PUSH1 0x0 DUP4 ADD DUP7 PUSH2 0x22CF JUMP JUMPDEST PUSH2 0x25A0 PUSH1 0x20 DUP4 ADD DUP6 PUSH2 0x22CF JUMP JUMPDEST PUSH2 0x25AD PUSH1 0x40 DUP4 ADD DUP5 PUSH2 0x251C JUMP JUMPDEST SWAP5 SWAP4 POP POP POP POP JUMP JUMPDEST PUSH1 0x0 PUSH1 0x40 DUP3 ADD SWAP1 POP PUSH2 0x25CA PUSH1 0x0 DUP4 ADD DUP6 PUSH2 0x22CF JUMP JUMPDEST PUSH2 0x25D7 PUSH1 0x20 DUP4 ADD DUP5 PUSH2 0x251C JUMP JUMPDEST SWAP4 SWAP3 POP POP POP JUMP JUMPDEST PUSH1 0x0 PUSH1 0x60 DUP3 ADD SWAP1 POP PUSH2 0x25F3 PUSH1 0x0 DUP4 ADD DUP7 PUSH2 0x22CF JUMP JUMPDEST PUSH2 0x2600 PUSH1 0x20 DUP4 ADD DUP6 PUSH2 0x251C JUMP JUMPDEST PUSH2 0x260D PUSH1 0x40 DUP4 ADD DUP5 PUSH2 0x251C JUMP JUMPDEST SWAP5 SWAP4 POP POP POP POP JUMP JUMPDEST PUSH1 0x0 PUSH2 0x120 DUP3 ADD SWAP1 POP PUSH2 0x262B PUSH1 0x0 DUP4 ADD DUP5 PUSH2 0x22DE JUMP JUMPDEST SWAP3 SWAP2 POP POP JUMP JUMPDEST PUSH1 0x0 PUSH1 0x20 DUP3 ADD SWAP1 POP PUSH2 0x2646 PUSH1 0x0 DUP4 ADD DUP5 PUSH2 0x2335 JUMP JUMPDEST SWAP3 SWAP2 POP POP JUMP JUMPDEST PUSH1 0x0 PUSH1 0x20 DUP3 ADD SWAP1 POP PUSH2 0x2661 PUSH1 0x0 DUP4 ADD DUP5 PUSH2 0x2344 JUMP JUMPDEST SWAP3 SWAP2 POP POP JUMP JUMPDEST PUSH1 0x0 PUSH1 0x20 DUP3 ADD SWAP1 POP DUP2 DUP2 SUB PUSH1 0x0 DUP4 ADD MSTORE PUSH2 0x2681 DUP2 DUP5 PUSH2 0x2353 JUMP JUMPDEST SWAP1 POP SWAP3 SWAP2 POP POP JUMP JUMPDEST PUSH1 0x0 PUSH1 0x20 DUP3 ADD SWAP1 POP DUP2 DUP2 SUB PUSH1 0x0 DUP4 ADD MSTORE PUSH2 0x26A2 DUP2 PUSH2 0x238C JUMP JUMPDEST SWAP1 POP SWAP2 SWAP1 POP JUMP JUMPDEST PUSH1 0x0 PUSH1 0x20 DUP3 ADD SWAP1 POP DUP2 DUP2 SUB PUSH1 0x0 DUP4 ADD MSTORE PUSH2 0x26C2 DUP2 PUSH2 0x23AF JUMP JUMPDEST SWAP1 POP SWAP2 SWAP1 POP JUMP JUMPDEST PUSH1 0x0 PUSH1 0x20 DUP3 ADD SWAP1 POP DUP2 DUP2 SUB PUSH1 0x0 DUP4 ADD MSTORE PUSH2 0x26E2 DUP2 PUSH2 0x23D2 JUMP JUMPDEST SWAP1 POP SWAP2 SWAP1 POP JUMP JUMPDEST PUSH1 0x0 PUSH1 0x20 DUP3 ADD SWAP1 POP DUP2 DUP2 SUB PUSH1 0x0 DUP4 ADD MSTORE PUSH2 0x2702 DUP2 PUSH2 0x23F5 JUMP JUMPDEST SWAP1 POP SWAP2 SWAP1 POP JUMP JUMPDEST PUSH1 0x0 PUSH1 0x20 DUP3 ADD SWAP1 POP DUP2 DUP2 SUB PUSH1 0x0 DUP4 ADD MSTORE PUSH2 0x2722 DUP2 PUSH2 0x2418 JUMP JUMPDEST SWAP1 POP SWAP2 SWAP1 POP JUMP JUMPDEST PUSH1 0x0 PUSH1 0x20 DUP3 ADD SWAP1 POP DUP2 DUP2 SUB PUSH1 0x0 DUP4 ADD MSTORE PUSH2 0x2742 DUP2 PUSH2 0x243B JUMP JUMPDEST SWAP1 POP SWAP2 SWAP1 POP JUMP JUMPDEST PUSH1 0x0 PUSH1 0x20 DUP3 ADD SWAP1 POP DUP2 DUP2 SUB PUSH1 0x0 DUP4 ADD MSTORE PUSH2 0x2762 DUP2 PUSH2 0x245E JUMP JUMPDEST SWAP1 POP SWAP2 SWAP1 POP JUMP JUMPDEST PUSH1 0x0 PUSH1 0x20 DUP3 ADD SWAP1 POP DUP2 DUP2 SUB PUSH1 0x0 DUP4 ADD MSTORE PUSH2 0x2782 DUP2 PUSH2 0x2481 JUMP JUMPDEST SWAP1 POP SWAP2 SWAP1 POP JUMP JUMPDEST PUSH1 0x0 PUSH1 0x20 DUP3 ADD SWAP1 POP DUP2 DUP2 SUB PUSH1 0x0 DUP4 ADD MSTORE PUSH2 0x27A2 DUP2 PUSH2 0x24A4 JUMP JUMPDEST SWAP1 POP SWAP2 SWAP1 POP JUMP JUMPDEST PUSH1 0x0 PUSH1 0x20 DUP3 ADD SWAP1 POP DUP2 DUP2 SUB PUSH1 0x0 DUP4 ADD MSTORE PUSH2 0x27C2 DUP2 PUSH2 0x24C7 JUMP JUMPDEST SWAP1 POP SWAP2 SWAP1 POP JUMP JUMPDEST PUSH1 0x0 PUSH1 0x20 DUP3 ADD SWAP1 POP DUP2 DUP2 SUB PUSH1 0x0 DUP4 ADD MSTORE PUSH2 0x27E2 DUP2 PUSH2 0x24EA JUMP JUMPDEST SWAP1 POP SWAP2 SWAP1 POP JUMP JUMPDEST PUSH1 0x0 PUSH1 0x20 DUP3 ADD SWAP1 POP PUSH2 0x27FE PUSH1 0x0 DUP4 ADD DUP5 PUSH2 0x251C JUMP JUMPDEST SWAP3 SWAP2 POP POP JUMP JUMPDEST PUSH1 0x0 PUSH1 0x20 DUP3 ADD SWAP1 POP PUSH2 0x2819 PUSH1 0x0 DUP4 ADD DUP5 PUSH2 0x252B JUMP JUMPDEST SWAP3 SWAP2 POP POP JUMP JUMPDEST PUSH1 0x0 DUP2 SWAP1 POP SWAP2 SWAP1 POP JUMP JUMPDEST PUSH1 0x0 PUSH1 0x9 SWAP1 POP SWAP2 SWAP1 POP JUMP JUMPDEST PUSH1 0x0 DUP2 MLOAD SWAP1 POP SWAP2 SWAP1 POP JUMP JUMPDEST PUSH1 0x0 PUSH1 0x20 DUP3 ADD SWAP1 POP SWAP2 SWAP1 POP JUMP JUMPDEST PUSH1 0x0 DUP2 SWAP1 POP SWAP3 SWAP2 POP POP JUMP JUMPDEST PUSH1 0x0 DUP3 DUP3 MSTORE PUSH1 0x20 DUP3 ADD SWAP1 POP SWAP3 SWAP2 POP POP JUMP JUMPDEST PUSH1 0x0 PUSH2 0x2873 DUP3 PUSH2 0x29CD JUMP JUMPDEST SWAP2 POP PUSH2 0x287E DUP4 PUSH2 0x29CD JUMP JUMPDEST SWAP3 POP DUP3 PUSH32 0xFFFFFFFFFFFFFFFFFFFFFFFFFFFFFFFFFFFFFFFFFFFFFFFFFFFFFFFFFFFFFFFF SUB DUP3 GT ISZERO PUSH2 0x28B3 JUMPI PUSH2 0x28B2 PUSH2 0x2A4D JUMP JUMPDEST JUMPDEST DUP3 DUP3 ADD SWAP1 POP SWAP3 SWAP2 POP POP JUMP JUMPDEST PUSH1 0x0 PUSH2 0x28C9 DUP3 PUSH2 0x29CD JUMP JUMPDEST SWAP2 POP PUSH2 0x28D4 DUP4 PUSH2 0x29CD JUMP JUMPDEST SWAP3 POP DUP3 PUSH2 0x28E4 JUMPI PUSH2 0x28E3 PUSH2 0x2A7C JUMP JUMPDEST JUMPDEST DUP3 DUP3 DIV SWAP1 POP SWAP3 SWAP2 POP POP JUMP JUMPDEST PUSH1 0x0 PUSH2 0x28FA DUP3 PUSH2 0x29CD JUMP JUMPDEST SWAP2 POP PUSH2 0x2905 DUP4 PUSH2 0x29CD JUMP JUMPDEST SWAP3 POP DUP2 PUSH32 0xFFFFFFFFFFFFFFFFFFFFFFFFFFFFFFFFFFFFFFFFFFFFFFFFFFFFFFFFFFFFFFFF DIV DUP4 GT DUP3 ISZERO ISZERO AND ISZERO PUSH2 0x293E JUMPI PUSH2 0x293D PUSH2 0x2A4D JUMP JUMPDEST JUMPDEST DUP3 DUP3 MUL SWAP1 POP SWAP3 SWAP2 POP POP JUMP JUMPDEST PUSH1 0x0 PUSH2 0x2954 DUP3 PUSH2 0x29CD JUMP JUMPDEST SWAP2 POP PUSH2 0x295F DUP4 PUSH2 0x29CD JUMP JUMPDEST SWAP3 POP DUP3 DUP3 LT ISZERO PUSH2 0x2972 JUMPI PUSH2 0x2971 PUSH2 0x2A4D JUMP JUMPDEST JUMPDEST DUP3 DUP3 SUB SWAP1 POP SWAP3 SWAP2 POP POP JUMP JUMPDEST PUSH1 0x0 PUSH2 0x2988 DUP3 PUSH2 0x29AD JUMP JUMPDEST SWAP1 POP SWAP2 SWAP1 POP JUMP JUMPDEST PUSH1 0x0 DUP2 ISZERO ISZERO SWAP1 POP SWAP2 SWAP1 POP JUMP JUMPDEST PUSH1 0x0 PUSH2 0x29A6 DUP3 PUSH2 0x297D JUMP JUMPDEST SWAP1 POP SWAP2 SWAP1 POP JUMP JUMPDEST PUSH1 0x0 PUSH20 0xFFFFFFFFFFFFFFFFFFFFFFFFFFFFFFFFFFFFFFFF DUP3 AND SWAP1 POP SWAP2 SWAP1 POP JUMP JUMPDEST PUSH1 0x0 DUP2 SWAP1 POP SWAP2 SWAP1 POP JUMP JUMPDEST PUSH1 0x0 PUSH1 0xFF DUP3 AND SWAP1 POP SWAP2 SWAP1 POP JUMP JUMPDEST PUSH1 0x0 PUSH2 0x29EF DUP3 PUSH2 0x29F6 JUMP JUMPDEST SWAP1 POP SWAP2 SWAP1 POP JUMP JUMPDEST PUSH1 0x0 PUSH2 0x2A01 DUP3 PUSH2 0x2A08 JUMP JUMPDEST SWAP1 POP SWAP2 SWAP1 POP JUMP JUMPDEST PUSH1 0x0 PUSH2 0x2A13 DUP3 PUSH2 0x29AD JUMP JUMPDEST SWAP1 POP SWAP2 SWAP1 POP JUMP JUMPDEST PUSH1 0x0 JUMPDEST DUP4 DUP2 LT ISZERO PUSH2 0x2A38 JUMPI DUP1 DUP3 ADD MLOAD DUP2 DUP5 ADD MSTORE PUSH1 0x20 DUP2 ADD SWAP1 POP PUSH2 0x2A1D JUMP JUMPDEST DUP4 DUP2 GT ISZERO PUSH2 0x2A47 JUMPI PUSH1 0x0 DUP5 DUP5 ADD MSTORE JUMPDEST POP POP POP POP JUMP JUMPDEST PUSH32 0x4E487B7100000000000000000000000000000000000000000000000000000000 PUSH1 0x0 MSTORE PUSH1 0x11 PUSH1 0x4 MSTORE PUSH1 0x24 PUSH1 0x0 REVERT JUMPDEST PUSH32 0x4E487B7100000000000000000000000000000000000000000000000000000000 PUSH1 0x0 MSTORE PUSH1 0x12 PUSH1 0x4 MSTORE PUSH1 0x24 PUSH1 0x0 REVERT JUMPDEST PUSH32 0x4E487B7100000000000000000000000000000000000000000000000000000000 PUSH1 0x0 MSTORE PUSH1 0x32 PUSH1 0x4 MSTORE PUSH1 0x24 PUSH1 0x0 REVERT JUMPDEST PUSH1 0x0 DUP1 REVERT JUMPDEST PUSH1 0x0 PUSH1 0x1F NOT PUSH1 0x1F DUP4 ADD AND SWAP1 POP SWAP2 SWAP1 POP JUMP JUMPDEST PUSH32 0x494E56414C49445F414444524553530000000000000000000000000000000000 PUSH1 0x0 DUP3 ADD MSTORE POP JUMP JUMPDEST PUSH32 0x494E56414C49445F57484954456C495354000000000000000000000000000000 PUSH1 0x0 DUP3 ADD MSTORE POP JUMP JUMPDEST PUSH32 0x494E56414C49445F515541544954593A30310000000000000000000000000000 PUSH1 0x0 DUP3 ADD MSTORE POP JUMP JUMPDEST PUSH32 0x536166654D6174683A206164646974696F6E206F766572666C6F770000000000 PUSH1 0x0 DUP3 ADD MSTORE POP JUMP JUMPDEST PUSH32 0x494E56414C49445F5041594D454E543A30320000000000000000000000000000 PUSH1 0x0 DUP3 ADD MSTORE POP JUMP JUMPDEST PUSH32 0x494E56414C49445F515541544954593A30320000000000000000000000000000 PUSH1 0x0 DUP3 ADD MSTORE POP JUMP JUMPDEST PUSH32 0x536166654D6174683A206D756C7469706C69636174696F6E206F766572666C6F PUSH1 0x0 DUP3 ADD MSTORE PUSH32 0x7700000000000000000000000000000000000000000000000000000000000000 PUSH1 0x20 DUP3 ADD MSTORE POP JUMP JUMPDEST PUSH32 0x53595354454D5F53544F50000000000000000000000000000000000000000000 PUSH1 0x0 DUP3 ADD MSTORE POP JUMP JUMPDEST PUSH32 0x494E56414C49445F5041594D454E543A30310000000000000000000000000000 PUSH1 0x0 DUP3 ADD MSTORE POP JUMP JUMPDEST PUSH32 0x494E56414C49445F414D4F554E545F3100000000000000000000000000000000 PUSH1 0x0 DUP3 ADD MSTORE POP JUMP JUMPDEST PUSH32 0x494E56414C49445F5045524D495353494F4E0000000000000000000000000000 PUSH1 0x0 DUP3 ADD MSTORE POP JUMP JUMPDEST PUSH2 0x2CE2 DUP2 PUSH2 0x297D JUMP JUMPDEST DUP2 EQ PUSH2 0x2CED JUMPI PUSH1 0x0 DUP1 REVERT JUMPDEST POP JUMP JUMPDEST PUSH2 0x2CF9 DUP2 PUSH2 0x298F JUMP JUMPDEST DUP2 EQ PUSH2 0x2D04 JUMPI PUSH1 0x0 DUP1 REVERT JUMPDEST POP JUMP JUMPDEST PUSH2 0x2D10 DUP2 PUSH2 0x299B JUMP JUMPDEST DUP2 EQ PUSH2 0x2D1B JUMPI PUSH1 0x0 DUP1 REVERT JUMPDEST POP JUMP JUMPDEST PUSH2 0x2D27 DUP2 PUSH2 0x29CD JUMP JUMPDEST DUP2 EQ PUSH2 0x2D32 JUMPI PUSH1 0x0 DUP1 REVERT JUMPDEST POP JUMP JUMPDEST PUSH2 0x2D3E DUP2 PUSH2 0x29D7 JUMP JUMPDEST DUP2 EQ PUSH2 0x2D49 JUMPI PUSH1 0x0 DUP1 REVERT JUMPDEST POP JUMP INVALID LOG2 PUSH5 0x6970667358 0x22 SLT KECCAK256 CHAINID 0xAA 0xC6 LOG0 DUP7 JUMPDEST STATICCALL MSTORE DUP9 0xB2 BYTE PUSH24 0x494149A03C204FA6B4DC66066685315B561028C864736F6C PUSH4 0x43000807 STOP CALLER "
				},
				"gasEstimates": {
					"creation": {
						"codeDepositCost": "2330000",
						"executionCost": "infinite",
						"totalCost": "infinite"
					},
					"external": {
						"ENABLE()": "2539",
						"GRB()": "2689",
						"HARD_CAP_PER_USER()": "2519",
						"MIN_BUY()": "2541",
						"USDC()": "2689",
						"VERSION()": "2578",
						"buy(uint256)": "infinite",
						"disable()": "26699",
						"enable()": "26676",
						"getData(address)": "infinite",
						"getMaxBuyOf(address)": "infinite",
						"getTotalSale()": "infinite",
						"getUSDCBalance()": "infinite",
						"isPrivateSale(address)": "2890",
						"moveFund(address)": "infinite",
						"owner()": "2675",
						"salePrice()": "2517",
						"setGRBToken(address)": "27069",
						"setHardCapPerUser(uint256)": "24830",
						"setIsPrivateSale(address,uint8)": "27343",
						"setMinBuy(uint256)": "24807",
						"setSalePrice(uint256)": "24809",
						"setTotalPrivateSale(uint256)": "24851",
						"setUSDCToken(address)": "27070",
						"totalBoughtOf(address)": "2859",
						"totalPrivateSale()": "2496",
						"totalPurchased()": "2473",
						"transferOwnership(address)": "27058"
					},
					"internal": {
						"_claimUSDC(uint256)": "infinite"
					}
				},
				"methodIdentifiers": {
					"ENABLE()": "92f6386a",
					"GRB()": "b0176ce8",
					"HARD_CAP_PER_USER()": "50c19c0b",
					"MIN_BUY()": "3af96b90",
					"USDC()": "89a30271",
					"VERSION()": "ffa1ad74",
					"buy(uint256)": "d96a094a",
					"disable()": "2f2770db",
					"enable()": "a3907d71",
					"getData(address)": "38266b22",
					"getMaxBuyOf(address)": "90c8dd17",
					"getTotalSale()": "1f2475bd",
					"getUSDCBalance()": "3cfd1ccc",
					"isPrivateSale(address)": "67cc7428",
					"moveFund(address)": "3c6c26f9",
					"owner()": "8da5cb5b",
					"salePrice()": "f51f96dd",
					"setGRBToken(address)": "2acfc3da",
					"setHardCapPerUser(uint256)": "a2b0106b",
					"setIsPrivateSale(address,uint8)": "e303151f",
					"setMinBuy(uint256)": "860779e7",
					"setSalePrice(uint256)": "1919fed7",
					"setTotalPrivateSale(uint256)": "b2a82cbb",
					"setUSDCToken(address)": "0f5a9d01",
					"totalBoughtOf(address)": "bcaaf662",
					"totalPrivateSale()": "a85f70f3",
					"totalPurchased()": "e632c2f3",
					"transferOwnership(address)": "f2fde38b"
				}
			},
			"storageLayout": {
				"storage": [
					{
						"astId": 297,
						"contract": "contracts/ProtocolLiquidityLaunch.sol:ProtocolLiquidityLaunch",
						"label": "VERSION",
						"offset": 0,
						"slot": "0",
						"type": "t_uint8"
					},
					{
						"astId": 302,
						"contract": "contracts/ProtocolLiquidityLaunch.sol:ProtocolLiquidityLaunch",
						"label": "owner",
						"offset": 1,
						"slot": "0",
						"type": "t_address"
					},
					{
						"astId": 305,
						"contract": "contracts/ProtocolLiquidityLaunch.sol:ProtocolLiquidityLaunch",
						"label": "GRB",
						"offset": 0,
						"slot": "1",
						"type": "t_contract(IERC20)294"
					},
					{
						"astId": 308,
						"contract": "contracts/ProtocolLiquidityLaunch.sol:ProtocolLiquidityLaunch",
						"label": "USDC",
						"offset": 0,
						"slot": "2",
						"type": "t_contract(IERC20)294"
					},
					{
						"astId": 313,
						"contract": "contracts/ProtocolLiquidityLaunch.sol:ProtocolLiquidityLaunch",
						"label": "salePrice",
						"offset": 0,
						"slot": "3",
						"type": "t_uint256"
					},
					{
						"astId": 320,
						"contract": "contracts/ProtocolLiquidityLaunch.sol:ProtocolLiquidityLaunch",
						"label": "totalPrivateSale",
						"offset": 0,
						"slot": "4",
						"type": "t_uint256"
					},
					{
						"astId": 323,
						"contract": "contracts/ProtocolLiquidityLaunch.sol:ProtocolLiquidityLaunch",
						"label": "totalPurchased",
						"offset": 0,
						"slot": "5",
						"type": "t_uint256"
					},
					{
						"astId": 326,
						"contract": "contracts/ProtocolLiquidityLaunch.sol:ProtocolLiquidityLaunch",
						"label": "ENABLE",
						"offset": 0,
						"slot": "6",
						"type": "t_bool"
					},
					{
						"astId": 331,
						"contract": "contracts/ProtocolLiquidityLaunch.sol:ProtocolLiquidityLaunch",
						"label": "HARD_CAP_PER_USER",
						"offset": 0,
						"slot": "7",
						"type": "t_uint256"
					},
					{
						"astId": 336,
						"contract": "contracts/ProtocolLiquidityLaunch.sol:ProtocolLiquidityLaunch",
						"label": "MIN_BUY",
						"offset": 0,
						"slot": "8",
						"type": "t_uint256"
					},
					{
						"astId": 340,
						"contract": "contracts/ProtocolLiquidityLaunch.sol:ProtocolLiquidityLaunch",
						"label": "totalBoughtOf",
						"offset": 0,
						"slot": "9",
						"type": "t_mapping(t_address,t_uint256)"
					},
					{
						"astId": 344,
						"contract": "contracts/ProtocolLiquidityLaunch.sol:ProtocolLiquidityLaunch",
						"label": "isPrivateSale",
						"offset": 0,
						"slot": "10",
						"type": "t_mapping(t_address,t_bool)"
					}
				],
				"types": {
					"t_address": {
						"encoding": "inplace",
						"label": "address",
						"numberOfBytes": "20"
					},
					"t_bool": {
						"encoding": "inplace",
						"label": "bool",
						"numberOfBytes": "1"
					},
					"t_contract(IERC20)294": {
						"encoding": "inplace",
						"label": "contract IERC20",
						"numberOfBytes": "20"
					},
					"t_mapping(t_address,t_bool)": {
						"encoding": "mapping",
						"key": "t_address",
						"label": "mapping(address => bool)",
						"numberOfBytes": "32",
						"value": "t_bool"
					},
					"t_mapping(t_address,t_uint256)": {
						"encoding": "mapping",
						"key": "t_address",
						"label": "mapping(address => uint256)",
						"numberOfBytes": "32",
						"value": "t_uint256"
					},
					"t_uint256": {
						"encoding": "inplace",
						"label": "uint256",
						"numberOfBytes": "32"
					},
					"t_uint8": {
						"encoding": "inplace",
						"label": "uint8",
						"numberOfBytes": "1"
					}
				}
			},
			"userdoc": {
				"kind": "user",
				"methods": {
					"getData(address)": {
						"notice": "data_[0] = uint256 userUSDCBalance; data_[1] = uint256 userMaxGrbBuy; data_[2] = uint256 userMaxUSDCPay; data_[3] = uint256 contractUSDCBalance; data_[4] = uint256 HARD_CAP_PER_USER; data_[5] = uint256 totalSaleGab; data_[6] = uint256 salePrice; data_[7] = uint256 totalPurchased; data_[8] = uint256 usdcAllowedAmt;"
					}
				},
				"version": 1
			}
		}
	}
}