{
	"contracts/ProtocolLaunchData.sol": {
		"ProtocolLaunchData": {
			"abi": [
				{
					"inputs": [
						{
							"internalType": "contract ISaleLaunch",
							"name": "_cPrivateSale",
							"type": "address"
						},
						{
							"internalType": "contract ISaleLaunch",
							"name": "_cPublicSale",
							"type": "address"
						}
					],
					"stateMutability": "nonpayable",
					"type": "constructor"
				},
				{
					"inputs": [],
					"name": "ContractPrivateSale",
					"outputs": [
						{
							"internalType": "contract ISaleLaunch",
							"name": "",
							"type": "address"
						}
					],
					"stateMutability": "view",
					"type": "function"
				},
				{
					"inputs": [],
					"name": "ContractPublicSale",
					"outputs": [
						{
							"internalType": "contract ISaleLaunch",
							"name": "",
							"type": "address"
						}
					],
					"stateMutability": "view",
					"type": "function"
				},
				{
					"inputs": [
						{
							"internalType": "address",
							"name": "_user",
							"type": "address"
						}
					],
					"name": "getData",
					"outputs": [
						{
							"components": [
								{
									"internalType": "uint256",
									"name": "uUSDCBal",
									"type": "uint256"
								},
								{
									"internalType": "uint256",
									"name": "uMaxGrbBuy",
									"type": "uint256"
								},
								{
									"internalType": "uint256",
									"name": "uMaxUSDCPay",
									"type": "uint256"
								},
								{
									"internalType": "uint256",
									"name": "cUSDCBal",
									"type": "uint256"
								},
								{
									"internalType": "uint256",
									"name": "totalSale",
									"type": "uint256"
								},
								{
									"internalType": "uint256",
									"name": "salePrice",
									"type": "uint256"
								},
								{
									"internalType": "uint256",
									"name": "totalPurchased",
									"type": "uint256"
								},
								{
									"internalType": "uint256",
									"name": "allowed",
									"type": "uint256"
								}
							],
							"internalType": "struct ProtocolLaunchData.SaleLaunch[2]",
							"name": "data_",
							"type": "tuple[2]"
						}
					],
					"stateMutability": "view",
					"type": "function"
				},
				{
					"inputs": [],
					"name": "owner",
					"outputs": [
						{
							"internalType": "address",
							"name": "",
							"type": "address"
						}
					],
					"stateMutability": "view",
					"type": "function"
				},
				{
					"inputs": [
						{
							"internalType": "contract ISaleLaunch",
							"name": "_cPrivateSale",
							"type": "address"
						}
					],
					"name": "setContractPrivateSale",
					"outputs": [],
					"stateMutability": "nonpayable",
					"type": "function"
				},
				{
					"inputs": [
						{
							"internalType": "contract ISaleLaunch",
							"name": "_cPublicSale",
							"type": "address"
						}
					],
					"name": "setContractPublicSale",
					"outputs": [],
					"stateMutability": "nonpayable",
					"type": "function"
				},
				{
					"inputs": [
						{
							"internalType": "address",
							"name": "_newOwner",
							"type": "address"
						}
					],
					"name": "transferOwnership",
					"outputs": [],
					"stateMutability": "nonpayable",
					"type": "function"
				}
			],
			"devdoc": {
				"kind": "dev",
				"methods": {},
				"version": 1
			},
			"evm": {
				"assembly": "    /* \"contracts/ProtocolLaunchData.sol\":376:2155  contract ProtocolLaunchData {... */\n  mstore(0x40, 0x80)\n    /* \"contracts/ProtocolLaunchData.sol\":856:1061  constructor(... */\n  callvalue\n  dup1\n  iszero\n  tag_1\n  jumpi\n  0x00\n  dup1\n  revert\ntag_1:\n  pop\n  mload(0x40)\n  sub(codesize, bytecodeSize)\n  dup1\n  bytecodeSize\n  dup4\n  codecopy\n  dup2\n  dup2\n  add\n  0x40\n  mstore\n  dup2\n  add\n  swap1\n  tag_2\n  swap2\n  swap1\n  tag_3\n  jump\t// in\ntag_2:\n    /* \"contracts/ProtocolLaunchData.sol\":969:982  _cPrivateSale */\n  dup2\n    /* \"contracts/ProtocolLaunchData.sol\":947:966  ContractPrivateSale */\n  0x01\n  0x00\n    /* \"contracts/ProtocolLaunchData.sol\":947:982  ContractPrivateSale = _cPrivateSale */\n  0x0100\n  exp\n  dup2\n  sload\n  dup2\n  0xffffffffffffffffffffffffffffffffffffffff\n  mul\n  not\n  and\n  swap1\n  dup4\n  0xffffffffffffffffffffffffffffffffffffffff\n  and\n  mul\n  or\n  swap1\n  sstore\n  pop\n    /* \"contracts/ProtocolLaunchData.sol\":1013:1025  _cPublicSale */\n  dup1\n    /* \"contracts/ProtocolLaunchData.sol\":992:1010  ContractPublicSale */\n  0x02\n  0x00\n    /* \"contracts/ProtocolLaunchData.sol\":992:1025  ContractPublicSale = _cPublicSale */\n  0x0100\n  exp\n  dup2\n  sload\n  dup2\n  0xffffffffffffffffffffffffffffffffffffffff\n  mul\n  not\n  and\n  swap1\n  dup4\n  0xffffffffffffffffffffffffffffffffffffffff\n  and\n  mul\n  or\n  swap1\n  sstore\n  pop\n    /* \"contracts/ProtocolLaunchData.sol\":1044:1054  msg.sender */\n  caller\n    /* \"contracts/ProtocolLaunchData.sol\":1036:1041  owner */\n  0x00\n  dup1\n    /* \"contracts/ProtocolLaunchData.sol\":1036:1054  owner = msg.sender */\n  0x0100\n  exp\n  dup2\n  sload\n  dup2\n  0xffffffffffffffffffffffffffffffffffffffff\n  mul\n  not\n  and\n  swap1\n  dup4\n  0xffffffffffffffffffffffffffffffffffffffff\n  and\n  mul\n  or\n  swap1\n  sstore\n  pop\n    /* \"contracts/ProtocolLaunchData.sol\":856:1061  constructor(... */\n  pop\n  pop\n    /* \"contracts/ProtocolLaunchData.sol\":376:2155  contract ProtocolLaunchData {... */\n  jump(tag_6)\n    /* \"#utility.yul\":7:186   */\ntag_8:\n    /* \"#utility.yul\":82:87   */\n  0x00\n    /* \"#utility.yul\":113:119   */\n  dup2\n    /* \"#utility.yul\":107:120   */\n  mload\n    /* \"#utility.yul\":98:120   */\n  swap1\n  pop\n    /* \"#utility.yul\":129:180   */\n  tag_10\n    /* \"#utility.yul\":174:179   */\n  dup2\n    /* \"#utility.yul\":129:180   */\n  tag_11\n  jump\t// in\ntag_10:\n    /* \"#utility.yul\":7:186   */\n  swap3\n  swap2\n  pop\n  pop\n  jump\t// out\n    /* \"#utility.yul\":192:771   */\ntag_3:\n    /* \"#utility.yul\":307:313   */\n  0x00\n    /* \"#utility.yul\":315:321   */\n  dup1\n    /* \"#utility.yul\":364:366   */\n  0x40\n    /* \"#utility.yul\":352:361   */\n  dup4\n    /* \"#utility.yul\":343:350   */\n  dup6\n    /* \"#utility.yul\":339:362   */\n  sub\n    /* \"#utility.yul\":335:367   */\n  slt\n    /* \"#utility.yul\":332:451   */\n  iszero\n  tag_13\n  jumpi\n    /* \"#utility.yul\":370:449   */\n  tag_14\n  tag_15\n  jump\t// in\ntag_14:\n    /* \"#utility.yul\":332:451   */\ntag_13:\n    /* \"#utility.yul\":490:491   */\n  0x00\n    /* \"#utility.yul\":515:597   */\n  tag_16\n    /* \"#utility.yul\":589:596   */\n  dup6\n    /* \"#utility.yul\":580:586   */\n  dup3\n    /* \"#utility.yul\":569:578   */\n  dup7\n    /* \"#utility.yul\":565:587   */\n  add\n    /* \"#utility.yul\":515:597   */\n  tag_8\n  jump\t// in\ntag_16:\n    /* \"#utility.yul\":505:597   */\n  swap3\n  pop\n    /* \"#utility.yul\":461:607   */\n  pop\n    /* \"#utility.yul\":646:648   */\n  0x20\n    /* \"#utility.yul\":672:754   */\n  tag_17\n    /* \"#utility.yul\":746:753   */\n  dup6\n    /* \"#utility.yul\":737:743   */\n  dup3\n    /* \"#utility.yul\":726:735   */\n  dup7\n    /* \"#utility.yul\":722:744   */\n  add\n    /* \"#utility.yul\":672:754   */\n  tag_8\n  jump\t// in\ntag_17:\n    /* \"#utility.yul\":662:754   */\n  swap2\n  pop\n    /* \"#utility.yul\":617:764   */\n  pop\n    /* \"#utility.yul\":192:771   */\n  swap3\n  pop\n  swap3\n  swap1\n  pop\n  jump\t// out\n    /* \"#utility.yul\":858:954   */\ntag_20:\n    /* \"#utility.yul\":895:902   */\n  0x00\n    /* \"#utility.yul\":924:948   */\n  tag_22\n    /* \"#utility.yul\":942:947   */\n  dup3\n    /* \"#utility.yul\":924:948   */\n  tag_23\n  jump\t// in\ntag_22:\n    /* \"#utility.yul\":913:948   */\n  swap1\n  pop\n    /* \"#utility.yul\":858:954   */\n  swap2\n  swap1\n  pop\n  jump\t// out\n    /* \"#utility.yul\":960:1074   */\ntag_24:\n    /* \"#utility.yul\":1015:1022   */\n  0x00\n    /* \"#utility.yul\":1044:1068   */\n  tag_26\n    /* \"#utility.yul\":1062:1067   */\n  dup3\n    /* \"#utility.yul\":1044:1068   */\n  tag_20\n  jump\t// in\ntag_26:\n    /* \"#utility.yul\":1033:1068   */\n  swap1\n  pop\n    /* \"#utility.yul\":960:1074   */\n  swap2\n  swap1\n  pop\n  jump\t// out\n    /* \"#utility.yul\":1080:1206   */\ntag_23:\n    /* \"#utility.yul\":1117:1124   */\n  0x00\n    /* \"#utility.yul\":1157:1199   */\n  0xffffffffffffffffffffffffffffffffffffffff\n    /* \"#utility.yul\":1150:1155   */\n  dup3\n    /* \"#utility.yul\":1146:1200   */\n  and\n    /* \"#utility.yul\":1135:1200   */\n  swap1\n  pop\n    /* \"#utility.yul\":1080:1206   */\n  swap2\n  swap1\n  pop\n  jump\t// out\n    /* \"#utility.yul\":1335:1452   */\ntag_15:\n    /* \"#utility.yul\":1444:1445   */\n  0x00\n    /* \"#utility.yul\":1441:1442   */\n  dup1\n    /* \"#utility.yul\":1434:1446   */\n  revert\n    /* \"#utility.yul\":1458:1616   */\ntag_11:\n    /* \"#utility.yul\":1549:1591   */\n  tag_32\n    /* \"#utility.yul\":1585:1590   */\n  dup2\n    /* \"#utility.yul\":1549:1591   */\n  tag_24\n  jump\t// in\ntag_32:\n    /* \"#utility.yul\":1542:1547   */\n  dup2\n    /* \"#utility.yul\":1539:1592   */\n  eq\n    /* \"#utility.yul\":1529:1610   */\n  tag_33\n  jumpi\n    /* \"#utility.yul\":1606:1607   */\n  0x00\n    /* \"#utility.yul\":1603:1604   */\n  dup1\n    /* \"#utility.yul\":1596:1608   */\n  revert\n    /* \"#utility.yul\":1529:1610   */\ntag_33:\n    /* \"#utility.yul\":1458:1616   */\n  pop\n  jump\t// out\n    /* \"contracts/ProtocolLaunchData.sol\":376:2155  contract ProtocolLaunchData {... */\ntag_6:\n  dataSize(sub_0)\n  dup1\n  dataOffset(sub_0)\n  0x00\n  codecopy\n  0x00\n  return\nstop\n\nsub_0: assembly {\n        /* \"contracts/ProtocolLaunchData.sol\":376:2155  contract ProtocolLaunchData {... */\n      mstore(0x40, 0x80)\n      callvalue\n      dup1\n      iszero\n      tag_1\n      jumpi\n      0x00\n      dup1\n      revert\n    tag_1:\n      pop\n      jumpi(tag_2, lt(calldatasize, 0x04))\n      shr(0xe0, calldataload(0x00))\n      dup1\n      0xaf566cb4\n      gt\n      tag_10\n      jumpi\n      dup1\n      0xaf566cb4\n      eq\n      tag_6\n      jumpi\n      dup1\n      0xce9a0625\n      eq\n      tag_7\n      jumpi\n      dup1\n      0xf2fde38b\n      eq\n      tag_8\n      jumpi\n      dup1\n      0xfda18656\n      eq\n      tag_9\n      jumpi\n      jump(tag_2)\n    tag_10:\n      dup1\n      0x1cbcd1a8\n      eq\n      tag_3\n      jumpi\n      dup1\n      0x38266b22\n      eq\n      tag_4\n      jumpi\n      dup1\n      0x8da5cb5b\n      eq\n      tag_5\n      jumpi\n    tag_2:\n      0x00\n      dup1\n      revert\n        /* \"contracts/ProtocolLaunchData.sol\":670:708  ISaleLaunch public ContractPrivateSale */\n    tag_3:\n      tag_11\n      tag_12\n      jump\t// in\n    tag_11:\n      mload(0x40)\n      tag_13\n      swap2\n      swap1\n      tag_14\n      jump\t// in\n    tag_13:\n      mload(0x40)\n      dup1\n      swap2\n      sub\n      swap1\n      return\n        /* \"contracts/ProtocolLaunchData.sol\":1497:2153  function getData(address _user) external view returns(SaleLaunch[2] memory data_) {... */\n    tag_4:\n      tag_15\n      0x04\n      dup1\n      calldatasize\n      sub\n      dup2\n      add\n      swap1\n      tag_16\n      swap2\n      swap1\n      tag_17\n      jump\t// in\n    tag_16:\n      tag_18\n      jump\t// in\n    tag_15:\n      mload(0x40)\n      tag_19\n      swap2\n      swap1\n      tag_20\n      jump\t// in\n    tag_19:\n      mload(0x40)\n      dup1\n      swap2\n      sub\n      swap1\n      return\n        /* \"contracts/ProtocolLaunchData.sol\":407:427  address public owner */\n    tag_5:\n      tag_21\n      tag_22\n      jump\t// in\n    tag_21:\n      mload(0x40)\n      tag_23\n      swap2\n      swap1\n      tag_24\n      jump\t// in\n    tag_23:\n      mload(0x40)\n      dup1\n      swap2\n      sub\n      swap1\n      return\n        /* \"contracts/ProtocolLaunchData.sol\":711:748  ISaleLaunch public ContractPublicSale */\n    tag_6:\n      tag_25\n      tag_26\n      jump\t// in\n    tag_25:\n      mload(0x40)\n      tag_27\n      swap2\n      swap1\n      tag_14\n      jump\t// in\n    tag_27:\n      mload(0x40)\n      dup1\n      swap2\n      sub\n      swap1\n      return\n        /* \"contracts/ProtocolLaunchData.sol\":1066:1191  function setContractPrivateSale(ISaleLaunch _cPrivateSale) public onlyOwner {... */\n    tag_7:\n      tag_28\n      0x04\n      dup1\n      calldatasize\n      sub\n      dup2\n      add\n      swap1\n      tag_29\n      swap2\n      swap1\n      tag_30\n      jump\t// in\n    tag_29:\n      tag_31\n      jump\t// in\n    tag_28:\n      stop\n        /* \"contracts/ProtocolLaunchData.sol\":1322:1419  function transferOwnership(address _newOwner) public onlyOwner {... */\n    tag_8:\n      tag_32\n      0x04\n      dup1\n      calldatasize\n      sub\n      dup2\n      add\n      swap1\n      tag_33\n      swap2\n      swap1\n      tag_17\n      jump\t// in\n    tag_33:\n      tag_34\n      jump\t// in\n    tag_32:\n      stop\n        /* \"contracts/ProtocolLaunchData.sol\":1196:1317  function setContractPublicSale(ISaleLaunch _cPublicSale) public onlyOwner {... */\n    tag_9:\n      tag_35\n      0x04\n      dup1\n      calldatasize\n      sub\n      dup2\n      add\n      swap1\n      tag_36\n      swap2\n      swap1\n      tag_30\n      jump\t// in\n    tag_36:\n      tag_37\n      jump\t// in\n    tag_35:\n      stop\n        /* \"contracts/ProtocolLaunchData.sol\":670:708  ISaleLaunch public ContractPrivateSale */\n    tag_12:\n      0x01\n      0x00\n      swap1\n      sload\n      swap1\n      0x0100\n      exp\n      swap1\n      div\n      0xffffffffffffffffffffffffffffffffffffffff\n      and\n      dup2\n      jump\t// out\n        /* \"contracts/ProtocolLaunchData.sol\":1497:2153  function getData(address _user) external view returns(SaleLaunch[2] memory data_) {... */\n    tag_18:\n        /* \"contracts/ProtocolLaunchData.sol\":1551:1577  SaleLaunch[2] memory data_ */\n      tag_38\n      tag_39\n      jump\t// in\n    tag_38:\n        /* \"contracts/ProtocolLaunchData.sol\":1829:1848  ContractPrivateSale */\n      0x01\n      0x00\n      swap1\n      sload\n      swap1\n      0x0100\n      exp\n      swap1\n      div\n      0xffffffffffffffffffffffffffffffffffffffff\n      and\n        /* \"contracts/ProtocolLaunchData.sol\":1829:1856  ContractPrivateSale.getData */\n      0xffffffffffffffffffffffffffffffffffffffff\n      and\n      0x38266b22\n        /* \"contracts/ProtocolLaunchData.sol\":1857:1862  _user */\n      dup4\n        /* \"contracts/ProtocolLaunchData.sol\":1829:1863  ContractPrivateSale.getData(_user) */\n      mload(0x40)\n      dup3\n      0xffffffff\n      and\n      0xe0\n      shl\n      dup2\n      mstore\n      0x04\n      add\n      tag_41\n      swap2\n      swap1\n      tag_24\n      jump\t// in\n    tag_41:\n      0x0100\n      mload(0x40)\n      dup1\n      dup4\n      sub\n      dup2\n      dup7\n      dup1\n      extcodesize\n      iszero\n      dup1\n      iszero\n      tag_42\n      jumpi\n      0x00\n      dup1\n      revert\n    tag_42:\n      pop\n      gas\n      staticcall\n      iszero\n      dup1\n      iszero\n      tag_44\n      jumpi\n      returndatasize\n      0x00\n      dup1\n      returndatacopy\n      revert(0x00, returndatasize)\n    tag_44:\n      pop\n      pop\n      pop\n      pop\n      mload(0x40)\n      returndatasize\n      not(0x1f)\n      0x1f\n      dup3\n      add\n      and\n      dup3\n      add\n      dup1\n      0x40\n      mstore\n      pop\n      dup2\n      add\n      swap1\n      tag_45\n      swap2\n      swap1\n      tag_46\n      jump\t// in\n    tag_45:\n        /* \"contracts/ProtocolLaunchData.sol\":1594:1599  data_ */\n      dup9\n        /* \"contracts/ProtocolLaunchData.sol\":1600:1601  0 */\n      0x00\n        /* \"contracts/ProtocolLaunchData.sol\":1594:1602  data_[0] */\n      0x02\n      dup2\n      lt\n      tag_47\n      jumpi\n      tag_48\n      tag_49\n      jump\t// in\n    tag_48:\n    tag_47:\n      0x20\n      mul\n      add\n      mload\n        /* \"contracts/ProtocolLaunchData.sol\":1594:1611  data_[0].uUSDCBal */\n      0x00\n      add\n        /* \"contracts/ProtocolLaunchData.sol\":1622:1627  data_ */\n      dup10\n        /* \"contracts/ProtocolLaunchData.sol\":1628:1629  0 */\n      0x00\n        /* \"contracts/ProtocolLaunchData.sol\":1622:1630  data_[0] */\n      0x02\n      dup2\n      lt\n      tag_50\n      jumpi\n      tag_51\n      tag_49\n      jump\t// in\n    tag_51:\n    tag_50:\n      0x20\n      mul\n      add\n      mload\n        /* \"contracts/ProtocolLaunchData.sol\":1622:1641  data_[0].uMaxGrbBuy */\n      0x20\n      add\n        /* \"contracts/ProtocolLaunchData.sol\":1652:1657  data_ */\n      dup11\n        /* \"contracts/ProtocolLaunchData.sol\":1658:1659  0 */\n      0x00\n        /* \"contracts/ProtocolLaunchData.sol\":1652:1660  data_[0] */\n      0x02\n      dup2\n      lt\n      tag_52\n      jumpi\n      tag_53\n      tag_49\n      jump\t// in\n    tag_53:\n    tag_52:\n      0x20\n      mul\n      add\n      mload\n        /* \"contracts/ProtocolLaunchData.sol\":1652:1672  data_[0].uMaxUSDCPay */\n      0x40\n      add\n        /* \"contracts/ProtocolLaunchData.sol\":1683:1688  data_ */\n      dup12\n        /* \"contracts/ProtocolLaunchData.sol\":1689:1690  0 */\n      0x00\n        /* \"contracts/ProtocolLaunchData.sol\":1683:1691  data_[0] */\n      0x02\n      dup2\n      lt\n      tag_54\n      jumpi\n      tag_55\n      tag_49\n      jump\t// in\n    tag_55:\n    tag_54:\n      0x20\n      mul\n      add\n      mload\n        /* \"contracts/ProtocolLaunchData.sol\":1683:1700  data_[0].cUSDCBal */\n      0x60\n      add\n        /* \"contracts/ProtocolLaunchData.sol\":1711:1716  data_ */\n      dup13\n        /* \"contracts/ProtocolLaunchData.sol\":1717:1718  0 */\n      0x00\n        /* \"contracts/ProtocolLaunchData.sol\":1711:1719  data_[0] */\n      0x02\n      dup2\n      lt\n      tag_56\n      jumpi\n      tag_57\n      tag_49\n      jump\t// in\n    tag_57:\n    tag_56:\n      0x20\n      mul\n      add\n      mload\n        /* \"contracts/ProtocolLaunchData.sol\":1711:1729  data_[0].totalSale */\n      0x80\n      add\n        /* \"contracts/ProtocolLaunchData.sol\":1740:1745  data_ */\n      dup14\n        /* \"contracts/ProtocolLaunchData.sol\":1746:1747  0 */\n      0x00\n        /* \"contracts/ProtocolLaunchData.sol\":1740:1748  data_[0] */\n      0x02\n      dup2\n      lt\n      tag_58\n      jumpi\n      tag_59\n      tag_49\n      jump\t// in\n    tag_59:\n    tag_58:\n      0x20\n      mul\n      add\n      mload\n        /* \"contracts/ProtocolLaunchData.sol\":1740:1758  data_[0].salePrice */\n      0xa0\n      add\n        /* \"contracts/ProtocolLaunchData.sol\":1769:1774  data_ */\n      dup15\n        /* \"contracts/ProtocolLaunchData.sol\":1775:1776  0 */\n      0x00\n        /* \"contracts/ProtocolLaunchData.sol\":1769:1777  data_[0] */\n      0x02\n      dup2\n      lt\n      tag_60\n      jumpi\n      tag_61\n      tag_49\n      jump\t// in\n    tag_61:\n    tag_60:\n      0x20\n      mul\n      add\n      mload\n        /* \"contracts/ProtocolLaunchData.sol\":1769:1792  data_[0].totalPurchased */\n      0xc0\n      add\n        /* \"contracts/ProtocolLaunchData.sol\":1803:1808  data_ */\n      dup16\n        /* \"contracts/ProtocolLaunchData.sol\":1809:1810  0 */\n      0x00\n        /* \"contracts/ProtocolLaunchData.sol\":1803:1811  data_[0] */\n      0x02\n      dup2\n      lt\n      tag_62\n      jumpi\n      tag_63\n      tag_49\n      jump\t// in\n    tag_63:\n    tag_62:\n      0x20\n      mul\n      add\n      mload\n        /* \"contracts/ProtocolLaunchData.sol\":1803:1819  data_[0].allowed */\n      0xe0\n      add\n        /* \"contracts/ProtocolLaunchData.sol\":1586:1863  (... */\n      dup9\n      dup2\n      mstore\n      pop\n      dup9\n      dup2\n      mstore\n      pop\n      dup9\n      dup2\n      mstore\n      pop\n      dup9\n      dup2\n      mstore\n      pop\n      dup9\n      dup2\n      mstore\n      pop\n      dup9\n      dup2\n      mstore\n      pop\n      dup9\n      dup2\n      mstore\n      pop\n      dup9\n      dup2\n      mstore\n      pop\n      pop\n      pop\n      pop\n      pop\n      pop\n      pop\n      pop\n      pop\n        /* \"contracts/ProtocolLaunchData.sol\":2113:2131  ContractPublicSale */\n      0x02\n      0x00\n      swap1\n      sload\n      swap1\n      0x0100\n      exp\n      swap1\n      div\n      0xffffffffffffffffffffffffffffffffffffffff\n      and\n        /* \"contracts/ProtocolLaunchData.sol\":2113:2139  ContractPublicSale.getData */\n      0xffffffffffffffffffffffffffffffffffffffff\n      and\n      0x38266b22\n        /* \"contracts/ProtocolLaunchData.sol\":2140:2145  _user */\n      dup4\n        /* \"contracts/ProtocolLaunchData.sol\":2113:2146  ContractPublicSale.getData(_user) */\n      mload(0x40)\n      dup3\n      0xffffffff\n      and\n      0xe0\n      shl\n      dup2\n      mstore\n      0x04\n      add\n      tag_64\n      swap2\n      swap1\n      tag_24\n      jump\t// in\n    tag_64:\n      0x0100\n      mload(0x40)\n      dup1\n      dup4\n      sub\n      dup2\n      dup7\n      dup1\n      extcodesize\n      iszero\n      dup1\n      iszero\n      tag_65\n      jumpi\n      0x00\n      dup1\n      revert\n    tag_65:\n      pop\n      gas\n      staticcall\n      iszero\n      dup1\n      iszero\n      tag_67\n      jumpi\n      returndatasize\n      0x00\n      dup1\n      returndatacopy\n      revert(0x00, returndatasize)\n    tag_67:\n      pop\n      pop\n      pop\n      pop\n      mload(0x40)\n      returndatasize\n      not(0x1f)\n      0x1f\n      dup3\n      add\n      and\n      dup3\n      add\n      dup1\n      0x40\n      mstore\n      pop\n      dup2\n      add\n      swap1\n      tag_68\n      swap2\n      swap1\n      tag_46\n      jump\t// in\n    tag_68:\n        /* \"contracts/ProtocolLaunchData.sol\":1878:1883  data_ */\n      dup9\n        /* \"contracts/ProtocolLaunchData.sol\":1884:1885  1 */\n      0x01\n        /* \"contracts/ProtocolLaunchData.sol\":1878:1886  data_[1] */\n      0x02\n      dup2\n      lt\n      tag_69\n      jumpi\n      tag_70\n      tag_49\n      jump\t// in\n    tag_70:\n    tag_69:\n      0x20\n      mul\n      add\n      mload\n        /* \"contracts/ProtocolLaunchData.sol\":1878:1895  data_[1].uUSDCBal */\n      0x00\n      add\n        /* \"contracts/ProtocolLaunchData.sol\":1906:1911  data_ */\n      dup10\n        /* \"contracts/ProtocolLaunchData.sol\":1912:1913  1 */\n      0x01\n        /* \"contracts/ProtocolLaunchData.sol\":1906:1914  data_[1] */\n      0x02\n      dup2\n      lt\n      tag_71\n      jumpi\n      tag_72\n      tag_49\n      jump\t// in\n    tag_72:\n    tag_71:\n      0x20\n      mul\n      add\n      mload\n        /* \"contracts/ProtocolLaunchData.sol\":1906:1925  data_[1].uMaxGrbBuy */\n      0x20\n      add\n        /* \"contracts/ProtocolLaunchData.sol\":1936:1941  data_ */\n      dup11\n        /* \"contracts/ProtocolLaunchData.sol\":1942:1943  1 */\n      0x01\n        /* \"contracts/ProtocolLaunchData.sol\":1936:1944  data_[1] */\n      0x02\n      dup2\n      lt\n      tag_73\n      jumpi\n      tag_74\n      tag_49\n      jump\t// in\n    tag_74:\n    tag_73:\n      0x20\n      mul\n      add\n      mload\n        /* \"contracts/ProtocolLaunchData.sol\":1936:1956  data_[1].uMaxUSDCPay */\n      0x40\n      add\n        /* \"contracts/ProtocolLaunchData.sol\":1967:1972  data_ */\n      dup12\n        /* \"contracts/ProtocolLaunchData.sol\":1973:1974  1 */\n      0x01\n        /* \"contracts/ProtocolLaunchData.sol\":1967:1975  data_[1] */\n      0x02\n      dup2\n      lt\n      tag_75\n      jumpi\n      tag_76\n      tag_49\n      jump\t// in\n    tag_76:\n    tag_75:\n      0x20\n      mul\n      add\n      mload\n        /* \"contracts/ProtocolLaunchData.sol\":1967:1984  data_[1].cUSDCBal */\n      0x60\n      add\n        /* \"contracts/ProtocolLaunchData.sol\":1995:2000  data_ */\n      dup13\n        /* \"contracts/ProtocolLaunchData.sol\":2001:2002  1 */\n      0x01\n        /* \"contracts/ProtocolLaunchData.sol\":1995:2003  data_[1] */\n      0x02\n      dup2\n      lt\n      tag_77\n      jumpi\n      tag_78\n      tag_49\n      jump\t// in\n    tag_78:\n    tag_77:\n      0x20\n      mul\n      add\n      mload\n        /* \"contracts/ProtocolLaunchData.sol\":1995:2013  data_[1].totalSale */\n      0x80\n      add\n        /* \"contracts/ProtocolLaunchData.sol\":2024:2029  data_ */\n      dup14\n        /* \"contracts/ProtocolLaunchData.sol\":2030:2031  1 */\n      0x01\n        /* \"contracts/ProtocolLaunchData.sol\":2024:2032  data_[1] */\n      0x02\n      dup2\n      lt\n      tag_79\n      jumpi\n      tag_80\n      tag_49\n      jump\t// in\n    tag_80:\n    tag_79:\n      0x20\n      mul\n      add\n      mload\n        /* \"contracts/ProtocolLaunchData.sol\":2024:2042  data_[1].salePrice */\n      0xa0\n      add\n        /* \"contracts/ProtocolLaunchData.sol\":2053:2058  data_ */\n      dup15\n        /* \"contracts/ProtocolLaunchData.sol\":2059:2060  1 */\n      0x01\n        /* \"contracts/ProtocolLaunchData.sol\":2053:2061  data_[1] */\n      0x02\n      dup2\n      lt\n      tag_81\n      jumpi\n      tag_82\n      tag_49\n      jump\t// in\n    tag_82:\n    tag_81:\n      0x20\n      mul\n      add\n      mload\n        /* \"contracts/ProtocolLaunchData.sol\":2053:2076  data_[1].totalPurchased */\n      0xc0\n      add\n        /* \"contracts/ProtocolLaunchData.sol\":2087:2092  data_ */\n      dup16\n        /* \"contracts/ProtocolLaunchData.sol\":2093:2094  1 */\n      0x01\n        /* \"contracts/ProtocolLaunchData.sol\":2087:2095  data_[1] */\n      0x02\n      dup2\n      lt\n      tag_83\n      jumpi\n      tag_84\n      tag_49\n      jump\t// in\n    tag_84:\n    tag_83:\n      0x20\n      mul\n      add\n      mload\n        /* \"contracts/ProtocolLaunchData.sol\":2087:2103  data_[1].allowed */\n      0xe0\n      add\n        /* \"contracts/ProtocolLaunchData.sol\":1870:2146  (... */\n      dup9\n      dup2\n      mstore\n      pop\n      dup9\n      dup2\n      mstore\n      pop\n      dup9\n      dup2\n      mstore\n      pop\n      dup9\n      dup2\n      mstore\n      pop\n      dup9\n      dup2\n      mstore\n      pop\n      dup9\n      dup2\n      mstore\n      pop\n      dup9\n      dup2\n      mstore\n      pop\n      dup9\n      dup2\n      mstore\n      pop\n      pop\n      pop\n      pop\n      pop\n      pop\n      pop\n      pop\n      pop\n        /* \"contracts/ProtocolLaunchData.sol\":1497:2153  function getData(address _user) external view returns(SaleLaunch[2] memory data_) {... */\n      swap2\n      swap1\n      pop\n      jump\t// out\n        /* \"contracts/ProtocolLaunchData.sol\":407:427  address public owner */\n    tag_22:\n      0x00\n      dup1\n      sload\n      swap1\n      0x0100\n      exp\n      swap1\n      div\n      0xffffffffffffffffffffffffffffffffffffffff\n      and\n      dup2\n      jump\t// out\n        /* \"contracts/ProtocolLaunchData.sol\":711:748  ISaleLaunch public ContractPublicSale */\n    tag_26:\n      0x02\n      0x00\n      swap1\n      sload\n      swap1\n      0x0100\n      exp\n      swap1\n      div\n      0xffffffffffffffffffffffffffffffffffffffff\n      and\n      dup2\n      jump\t// out\n        /* \"contracts/ProtocolLaunchData.sol\":1066:1191  function setContractPrivateSale(ISaleLaunch _cPrivateSale) public onlyOwner {... */\n    tag_31:\n        /* \"contracts/ProtocolLaunchData.sol\":805:810  owner */\n      0x00\n      dup1\n      sload\n      swap1\n      0x0100\n      exp\n      swap1\n      div\n      0xffffffffffffffffffffffffffffffffffffffff\n      and\n        /* \"contracts/ProtocolLaunchData.sol\":791:810  msg.sender == owner */\n      0xffffffffffffffffffffffffffffffffffffffff\n      and\n        /* \"contracts/ProtocolLaunchData.sol\":791:801  msg.sender */\n      caller\n        /* \"contracts/ProtocolLaunchData.sol\":791:810  msg.sender == owner */\n      0xffffffffffffffffffffffffffffffffffffffff\n      and\n      eq\n        /* \"contracts/ProtocolLaunchData.sol\":783:833  require(msg.sender == owner, \"INVALID_PERMISSION\") */\n      tag_86\n      jumpi\n      mload(0x40)\n      0x08c379a000000000000000000000000000000000000000000000000000000000\n      dup2\n      mstore\n      0x04\n      add\n      tag_87\n      swap1\n      tag_88\n      jump\t// in\n    tag_87:\n      mload(0x40)\n      dup1\n      swap2\n      sub\n      swap1\n      revert\n    tag_86:\n        /* \"contracts/ProtocolLaunchData.sol\":1171:1184  _cPrivateSale */\n      dup1\n        /* \"contracts/ProtocolLaunchData.sol\":1149:1168  ContractPrivateSale */\n      0x01\n      0x00\n        /* \"contracts/ProtocolLaunchData.sol\":1149:1184  ContractPrivateSale = _cPrivateSale */\n      0x0100\n      exp\n      dup2\n      sload\n      dup2\n      0xffffffffffffffffffffffffffffffffffffffff\n      mul\n      not\n      and\n      swap1\n      dup4\n      0xffffffffffffffffffffffffffffffffffffffff\n      and\n      mul\n      or\n      swap1\n      sstore\n      pop\n        /* \"contracts/ProtocolLaunchData.sol\":1066:1191  function setContractPrivateSale(ISaleLaunch _cPrivateSale) public onlyOwner {... */\n      pop\n      jump\t// out\n        /* \"contracts/ProtocolLaunchData.sol\":1322:1419  function transferOwnership(address _newOwner) public onlyOwner {... */\n    tag_34:\n        /* \"contracts/ProtocolLaunchData.sol\":805:810  owner */\n      0x00\n      dup1\n      sload\n      swap1\n      0x0100\n      exp\n      swap1\n      div\n      0xffffffffffffffffffffffffffffffffffffffff\n      and\n        /* \"contracts/ProtocolLaunchData.sol\":791:810  msg.sender == owner */\n      0xffffffffffffffffffffffffffffffffffffffff\n      and\n        /* \"contracts/ProtocolLaunchData.sol\":791:801  msg.sender */\n      caller\n        /* \"contracts/ProtocolLaunchData.sol\":791:810  msg.sender == owner */\n      0xffffffffffffffffffffffffffffffffffffffff\n      and\n      eq\n        /* \"contracts/ProtocolLaunchData.sol\":783:833  require(msg.sender == owner, \"INVALID_PERMISSION\") */\n      tag_91\n      jumpi\n      mload(0x40)\n      0x08c379a000000000000000000000000000000000000000000000000000000000\n      dup2\n      mstore\n      0x04\n      add\n      tag_92\n      swap1\n      tag_88\n      jump\t// in\n    tag_92:\n      mload(0x40)\n      dup1\n      swap2\n      sub\n      swap1\n      revert\n    tag_91:\n        /* \"contracts/ProtocolLaunchData.sol\":1403:1412  _newOwner */\n      dup1\n        /* \"contracts/ProtocolLaunchData.sol\":1395:1400  owner */\n      0x00\n      dup1\n        /* \"contracts/ProtocolLaunchData.sol\":1395:1412  owner = _newOwner */\n      0x0100\n      exp\n      dup2\n      sload\n      dup2\n      0xffffffffffffffffffffffffffffffffffffffff\n      mul\n      not\n      and\n      swap1\n      dup4\n      0xffffffffffffffffffffffffffffffffffffffff\n      and\n      mul\n      or\n      swap1\n      sstore\n      pop\n        /* \"contracts/ProtocolLaunchData.sol\":1322:1419  function transferOwnership(address _newOwner) public onlyOwner {... */\n      pop\n      jump\t// out\n        /* \"contracts/ProtocolLaunchData.sol\":1196:1317  function setContractPublicSale(ISaleLaunch _cPublicSale) public onlyOwner {... */\n    tag_37:\n        /* \"contracts/ProtocolLaunchData.sol\":805:810  owner */\n      0x00\n      dup1\n      sload\n      swap1\n      0x0100\n      exp\n      swap1\n      div\n      0xffffffffffffffffffffffffffffffffffffffff\n      and\n        /* \"contracts/ProtocolLaunchData.sol\":791:810  msg.sender == owner */\n      0xffffffffffffffffffffffffffffffffffffffff\n      and\n        /* \"contracts/ProtocolLaunchData.sol\":791:801  msg.sender */\n      caller\n        /* \"contracts/ProtocolLaunchData.sol\":791:810  msg.sender == owner */\n      0xffffffffffffffffffffffffffffffffffffffff\n      and\n      eq\n        /* \"contracts/ProtocolLaunchData.sol\":783:833  require(msg.sender == owner, \"INVALID_PERMISSION\") */\n      tag_95\n      jumpi\n      mload(0x40)\n      0x08c379a000000000000000000000000000000000000000000000000000000000\n      dup2\n      mstore\n      0x04\n      add\n      tag_96\n      swap1\n      tag_88\n      jump\t// in\n    tag_96:\n      mload(0x40)\n      dup1\n      swap2\n      sub\n      swap1\n      revert\n    tag_95:\n        /* \"contracts/ProtocolLaunchData.sol\":1298:1310  _cPublicSale */\n      dup1\n        /* \"contracts/ProtocolLaunchData.sol\":1277:1295  ContractPublicSale */\n      0x02\n      0x00\n        /* \"contracts/ProtocolLaunchData.sol\":1277:1310  ContractPublicSale = _cPublicSale */\n      0x0100\n      exp\n      dup2\n      sload\n      dup2\n      0xffffffffffffffffffffffffffffffffffffffff\n      mul\n      not\n      and\n      swap1\n      dup4\n      0xffffffffffffffffffffffffffffffffffffffff\n      and\n      mul\n      or\n      swap1\n      sstore\n      pop\n        /* \"contracts/ProtocolLaunchData.sol\":1196:1317  function setContractPublicSale(ISaleLaunch _cPublicSale) public onlyOwner {... */\n      pop\n      jump\t// out\n    tag_39:\n      mload(0x40)\n      dup1\n      0x40\n      add\n      0x40\n      mstore\n      dup1\n      0x02\n      swap1\n    tag_98:\n      tag_99\n      tag_100\n      jump\t// in\n    tag_99:\n      dup2\n      mstore\n      0x20\n      add\n      swap1\n      0x01\n      swap1\n      sub\n      swap1\n      dup2\n      tag_98\n      jumpi\n      swap1\n      pop\n      pop\n      swap1\n      jump\t// out\n    tag_100:\n      mload(0x40)\n      dup1\n      0x0100\n      add\n      0x40\n      mstore\n      dup1\n      0x00\n      dup2\n      mstore\n      0x20\n      add\n      0x00\n      dup2\n      mstore\n      0x20\n      add\n      0x00\n      dup2\n      mstore\n      0x20\n      add\n      0x00\n      dup2\n      mstore\n      0x20\n      add\n      0x00\n      dup2\n      mstore\n      0x20\n      add\n      0x00\n      dup2\n      mstore\n      0x20\n      add\n      0x00\n      dup2\n      mstore\n      0x20\n      add\n      0x00\n      dup2\n      mstore\n      pop\n      swap1\n      jump\t// out\n        /* \"#utility.yul\":7:146   */\n    tag_102:\n        /* \"#utility.yul\":53:58   */\n      0x00\n        /* \"#utility.yul\":91:97   */\n      dup2\n        /* \"#utility.yul\":78:98   */\n      calldataload\n        /* \"#utility.yul\":69:98   */\n      swap1\n      pop\n        /* \"#utility.yul\":107:140   */\n      tag_104\n        /* \"#utility.yul\":134:139   */\n      dup2\n        /* \"#utility.yul\":107:140   */\n      tag_105\n      jump\t// in\n    tag_104:\n        /* \"#utility.yul\":7:146   */\n      swap3\n      swap2\n      pop\n      pop\n      jump\t// out\n        /* \"#utility.yul\":152:327   */\n    tag_106:\n        /* \"#utility.yul\":216:221   */\n      0x00\n        /* \"#utility.yul\":254:260   */\n      dup2\n        /* \"#utility.yul\":241:261   */\n      calldataload\n        /* \"#utility.yul\":232:261   */\n      swap1\n      pop\n        /* \"#utility.yul\":270:321   */\n      tag_108\n        /* \"#utility.yul\":315:320   */\n      dup2\n        /* \"#utility.yul\":270:321   */\n      tag_109\n      jump\t// in\n    tag_108:\n        /* \"#utility.yul\":152:327   */\n      swap3\n      swap2\n      pop\n      pop\n      jump\t// out\n        /* \"#utility.yul\":333:476   */\n    tag_110:\n        /* \"#utility.yul\":390:395   */\n      0x00\n        /* \"#utility.yul\":421:427   */\n      dup2\n        /* \"#utility.yul\":415:428   */\n      mload\n        /* \"#utility.yul\":406:428   */\n      swap1\n      pop\n        /* \"#utility.yul\":437:470   */\n      tag_112\n        /* \"#utility.yul\":464:469   */\n      dup2\n        /* \"#utility.yul\":437:470   */\n      tag_113\n      jump\t// in\n    tag_112:\n        /* \"#utility.yul\":333:476   */\n      swap3\n      swap2\n      pop\n      pop\n      jump\t// out\n        /* \"#utility.yul\":482:811   */\n    tag_17:\n        /* \"#utility.yul\":541:547   */\n      0x00\n        /* \"#utility.yul\":590:592   */\n      0x20\n        /* \"#utility.yul\":578:587   */\n      dup3\n        /* \"#utility.yul\":569:576   */\n      dup5\n        /* \"#utility.yul\":565:588   */\n      sub\n        /* \"#utility.yul\":561:593   */\n      slt\n        /* \"#utility.yul\":558:677   */\n      iszero\n      tag_115\n      jumpi\n        /* \"#utility.yul\":596:675   */\n      tag_116\n      tag_117\n      jump\t// in\n    tag_116:\n        /* \"#utility.yul\":558:677   */\n    tag_115:\n        /* \"#utility.yul\":716:717   */\n      0x00\n        /* \"#utility.yul\":741:794   */\n      tag_118\n        /* \"#utility.yul\":786:793   */\n      dup5\n        /* \"#utility.yul\":777:783   */\n      dup3\n        /* \"#utility.yul\":766:775   */\n      dup6\n        /* \"#utility.yul\":762:784   */\n      add\n        /* \"#utility.yul\":741:794   */\n      tag_102\n      jump\t// in\n    tag_118:\n        /* \"#utility.yul\":731:794   */\n      swap2\n      pop\n        /* \"#utility.yul\":687:804   */\n      pop\n        /* \"#utility.yul\":482:811   */\n      swap3\n      swap2\n      pop\n      pop\n      jump\t// out\n        /* \"#utility.yul\":817:1182   */\n    tag_30:\n        /* \"#utility.yul\":894:900   */\n      0x00\n        /* \"#utility.yul\":943:945   */\n      0x20\n        /* \"#utility.yul\":931:940   */\n      dup3\n        /* \"#utility.yul\":922:929   */\n      dup5\n        /* \"#utility.yul\":918:941   */\n      sub\n        /* \"#utility.yul\":914:946   */\n      slt\n        /* \"#utility.yul\":911:1030   */\n      iszero\n      tag_120\n      jumpi\n        /* \"#utility.yul\":949:1028   */\n      tag_121\n      tag_117\n      jump\t// in\n    tag_121:\n        /* \"#utility.yul\":911:1030   */\n    tag_120:\n        /* \"#utility.yul\":1069:1070   */\n      0x00\n        /* \"#utility.yul\":1094:1165   */\n      tag_122\n        /* \"#utility.yul\":1157:1164   */\n      dup5\n        /* \"#utility.yul\":1148:1154   */\n      dup3\n        /* \"#utility.yul\":1137:1146   */\n      dup6\n        /* \"#utility.yul\":1133:1155   */\n      add\n        /* \"#utility.yul\":1094:1165   */\n      tag_106\n      jump\t// in\n    tag_122:\n        /* \"#utility.yul\":1084:1165   */\n      swap2\n      pop\n        /* \"#utility.yul\":1040:1175   */\n      pop\n        /* \"#utility.yul\":817:1182   */\n      swap3\n      swap2\n      pop\n      pop\n      jump\t// out\n        /* \"#utility.yul\":1188:2636   */\n    tag_46:\n        /* \"#utility.yul\":1321:1327   */\n      0x00\n        /* \"#utility.yul\":1329:1335   */\n      dup1\n        /* \"#utility.yul\":1337:1343   */\n      0x00\n        /* \"#utility.yul\":1345:1351   */\n      dup1\n        /* \"#utility.yul\":1353:1359   */\n      0x00\n        /* \"#utility.yul\":1361:1367   */\n      dup1\n        /* \"#utility.yul\":1369:1375   */\n      0x00\n        /* \"#utility.yul\":1377:1383   */\n      dup1\n        /* \"#utility.yul\":1426:1429   */\n      0x0100\n        /* \"#utility.yul\":1414:1423   */\n      dup10\n        /* \"#utility.yul\":1405:1412   */\n      dup12\n        /* \"#utility.yul\":1401:1424   */\n      sub\n        /* \"#utility.yul\":1397:1430   */\n      slt\n        /* \"#utility.yul\":1394:1514   */\n      iszero\n      tag_124\n      jumpi\n        /* \"#utility.yul\":1433:1512   */\n      tag_125\n      tag_117\n      jump\t// in\n    tag_125:\n        /* \"#utility.yul\":1394:1514   */\n    tag_124:\n        /* \"#utility.yul\":1553:1554   */\n      0x00\n        /* \"#utility.yul\":1578:1642   */\n      tag_126\n        /* \"#utility.yul\":1634:1641   */\n      dup12\n        /* \"#utility.yul\":1625:1631   */\n      dup3\n        /* \"#utility.yul\":1614:1623   */\n      dup13\n        /* \"#utility.yul\":1610:1632   */\n      add\n        /* \"#utility.yul\":1578:1642   */\n      tag_110\n      jump\t// in\n    tag_126:\n        /* \"#utility.yul\":1568:1642   */\n      swap9\n      pop\n        /* \"#utility.yul\":1524:1652   */\n      pop\n        /* \"#utility.yul\":1691:1693   */\n      0x20\n        /* \"#utility.yul\":1717:1781   */\n      tag_127\n        /* \"#utility.yul\":1773:1780   */\n      dup12\n        /* \"#utility.yul\":1764:1770   */\n      dup3\n        /* \"#utility.yul\":1753:1762   */\n      dup13\n        /* \"#utility.yul\":1749:1771   */\n      add\n        /* \"#utility.yul\":1717:1781   */\n      tag_110\n      jump\t// in\n    tag_127:\n        /* \"#utility.yul\":1707:1781   */\n      swap8\n      pop\n        /* \"#utility.yul\":1662:1791   */\n      pop\n        /* \"#utility.yul\":1830:1832   */\n      0x40\n        /* \"#utility.yul\":1856:1920   */\n      tag_128\n        /* \"#utility.yul\":1912:1919   */\n      dup12\n        /* \"#utility.yul\":1903:1909   */\n      dup3\n        /* \"#utility.yul\":1892:1901   */\n      dup13\n        /* \"#utility.yul\":1888:1910   */\n      add\n        /* \"#utility.yul\":1856:1920   */\n      tag_110\n      jump\t// in\n    tag_128:\n        /* \"#utility.yul\":1846:1920   */\n      swap7\n      pop\n        /* \"#utility.yul\":1801:1930   */\n      pop\n        /* \"#utility.yul\":1969:1971   */\n      0x60\n        /* \"#utility.yul\":1995:2059   */\n      tag_129\n        /* \"#utility.yul\":2051:2058   */\n      dup12\n        /* \"#utility.yul\":2042:2048   */\n      dup3\n        /* \"#utility.yul\":2031:2040   */\n      dup13\n        /* \"#utility.yul\":2027:2049   */\n      add\n        /* \"#utility.yul\":1995:2059   */\n      tag_110\n      jump\t// in\n    tag_129:\n        /* \"#utility.yul\":1985:2059   */\n      swap6\n      pop\n        /* \"#utility.yul\":1940:2069   */\n      pop\n        /* \"#utility.yul\":2108:2111   */\n      0x80\n        /* \"#utility.yul\":2135:2199   */\n      tag_130\n        /* \"#utility.yul\":2191:2198   */\n      dup12\n        /* \"#utility.yul\":2182:2188   */\n      dup3\n        /* \"#utility.yul\":2171:2180   */\n      dup13\n        /* \"#utility.yul\":2167:2189   */\n      add\n        /* \"#utility.yul\":2135:2199   */\n      tag_110\n      jump\t// in\n    tag_130:\n        /* \"#utility.yul\":2125:2199   */\n      swap5\n      pop\n        /* \"#utility.yul\":2079:2209   */\n      pop\n        /* \"#utility.yul\":2248:2251   */\n      0xa0\n        /* \"#utility.yul\":2275:2339   */\n      tag_131\n        /* \"#utility.yul\":2331:2338   */\n      dup12\n        /* \"#utility.yul\":2322:2328   */\n      dup3\n        /* \"#utility.yul\":2311:2320   */\n      dup13\n        /* \"#utility.yul\":2307:2329   */\n      add\n        /* \"#utility.yul\":2275:2339   */\n      tag_110\n      jump\t// in\n    tag_131:\n        /* \"#utility.yul\":2265:2339   */\n      swap4\n      pop\n        /* \"#utility.yul\":2219:2349   */\n      pop\n        /* \"#utility.yul\":2388:2391   */\n      0xc0\n        /* \"#utility.yul\":2415:2479   */\n      tag_132\n        /* \"#utility.yul\":2471:2478   */\n      dup12\n        /* \"#utility.yul\":2462:2468   */\n      dup3\n        /* \"#utility.yul\":2451:2460   */\n      dup13\n        /* \"#utility.yul\":2447:2469   */\n      add\n        /* \"#utility.yul\":2415:2479   */\n      tag_110\n      jump\t// in\n    tag_132:\n        /* \"#utility.yul\":2405:2479   */\n      swap3\n      pop\n        /* \"#utility.yul\":2359:2489   */\n      pop\n        /* \"#utility.yul\":2528:2531   */\n      0xe0\n        /* \"#utility.yul\":2555:2619   */\n      tag_133\n        /* \"#utility.yul\":2611:2618   */\n      dup12\n        /* \"#utility.yul\":2602:2608   */\n      dup3\n        /* \"#utility.yul\":2591:2600   */\n      dup13\n        /* \"#utility.yul\":2587:2609   */\n      add\n        /* \"#utility.yul\":2555:2619   */\n      tag_110\n      jump\t// in\n    tag_133:\n        /* \"#utility.yul\":2545:2619   */\n      swap2\n      pop\n        /* \"#utility.yul\":2499:2629   */\n      pop\n        /* \"#utility.yul\":1188:2636   */\n      swap3\n      swap6\n      swap9\n      pop\n      swap3\n      swap6\n      swap9\n      swap1\n      swap4\n      swap7\n      pop\n      jump\t// out\n        /* \"#utility.yul\":2642:2927   */\n    tag_134:\n        /* \"#utility.yul\":2763:2773   */\n      0x00\n        /* \"#utility.yul\":2784:2882   */\n      tag_136\n        /* \"#utility.yul\":2878:2881   */\n      dup4\n        /* \"#utility.yul\":2870:2876   */\n      dup4\n        /* \"#utility.yul\":2784:2882   */\n      tag_137\n      jump\t// in\n    tag_136:\n        /* \"#utility.yul\":2914:2920   */\n      0x0100\n        /* \"#utility.yul\":2909:2912   */\n      dup4\n        /* \"#utility.yul\":2905:2921   */\n      add\n        /* \"#utility.yul\":2891:2921   */\n      swap1\n      pop\n        /* \"#utility.yul\":2642:2927   */\n      swap3\n      swap2\n      pop\n      pop\n      jump\t// out\n        /* \"#utility.yul\":2933:3051   */\n    tag_138:\n        /* \"#utility.yul\":3020:3044   */\n      tag_140\n        /* \"#utility.yul\":3038:3043   */\n      dup2\n        /* \"#utility.yul\":3020:3044   */\n      tag_141\n      jump\t// in\n    tag_140:\n        /* \"#utility.yul\":3015:3018   */\n      dup3\n        /* \"#utility.yul\":3008:3045   */\n      mstore\n        /* \"#utility.yul\":2933:3051   */\n      pop\n      pop\n      jump\t// out\n        /* \"#utility.yul\":3147:4049   */\n    tag_142:\n        /* \"#utility.yul\":3335:3413   */\n      tag_144\n        /* \"#utility.yul\":3407:3412   */\n      dup2\n        /* \"#utility.yul\":3335:3413   */\n      tag_145\n      jump\t// in\n    tag_144:\n        /* \"#utility.yul\":3429:3539   */\n      tag_146\n        /* \"#utility.yul\":3532:3538   */\n      dup2\n        /* \"#utility.yul\":3527:3530   */\n      dup5\n        /* \"#utility.yul\":3429:3539   */\n      tag_147\n      jump\t// in\n    tag_146:\n        /* \"#utility.yul\":3422:3539   */\n      swap3\n      pop\n        /* \"#utility.yul\":3563:3643   */\n      tag_148\n        /* \"#utility.yul\":3637:3642   */\n      dup3\n        /* \"#utility.yul\":3563:3643   */\n      tag_149\n      jump\t// in\n    tag_148:\n        /* \"#utility.yul\":3666:3673   */\n      dup1\n        /* \"#utility.yul\":3697:3698   */\n      0x00\n        /* \"#utility.yul\":3682:4042   */\n    tag_150:\n        /* \"#utility.yul\":3707:3713   */\n      dup4\n        /* \"#utility.yul\":3704:3705   */\n      dup2\n        /* \"#utility.yul\":3701:3714   */\n      lt\n        /* \"#utility.yul\":3682:4042   */\n      iszero\n      tag_152\n      jumpi\n        /* \"#utility.yul\":3783:3789   */\n      dup2\n        /* \"#utility.yul\":3777:3790   */\n      mload\n        /* \"#utility.yul\":3810:3925   */\n      tag_153\n        /* \"#utility.yul\":3921:3924   */\n      dup8\n        /* \"#utility.yul\":3906:3919   */\n      dup3\n        /* \"#utility.yul\":3810:3925   */\n      tag_134\n      jump\t// in\n    tag_153:\n        /* \"#utility.yul\":3803:3925   */\n      swap7\n      pop\n        /* \"#utility.yul\":3948:4032   */\n      tag_154\n        /* \"#utility.yul\":4025:4031   */\n      dup4\n        /* \"#utility.yul\":3948:4032   */\n      tag_155\n      jump\t// in\n    tag_154:\n        /* \"#utility.yul\":3938:4032   */\n      swap3\n      pop\n        /* \"#utility.yul\":3742:4042   */\n      pop\n        /* \"#utility.yul\":3729:3730   */\n      0x01\n        /* \"#utility.yul\":3726:3727   */\n      dup2\n        /* \"#utility.yul\":3722:3731   */\n      add\n        /* \"#utility.yul\":3717:3731   */\n      swap1\n      pop\n        /* \"#utility.yul\":3682:4042   */\n      jump(tag_150)\n    tag_152:\n        /* \"#utility.yul\":3686:3700   */\n      pop\n        /* \"#utility.yul\":3311:4049   */\n      pop\n      pop\n      pop\n        /* \"#utility.yul\":3147:4049   */\n      pop\n      pop\n      jump\t// out\n        /* \"#utility.yul\":4055:4222   */\n    tag_156:\n        /* \"#utility.yul\":4160:4215   */\n      tag_158\n        /* \"#utility.yul\":4209:4214   */\n      dup2\n        /* \"#utility.yul\":4160:4215   */\n      tag_159\n      jump\t// in\n    tag_158:\n        /* \"#utility.yul\":4155:4158   */\n      dup3\n        /* \"#utility.yul\":4148:4216   */\n      mstore\n        /* \"#utility.yul\":4055:4222   */\n      pop\n      pop\n      jump\t// out\n        /* \"#utility.yul\":4228:4594   */\n    tag_160:\n        /* \"#utility.yul\":4370:4373   */\n      0x00\n        /* \"#utility.yul\":4391:4458   */\n      tag_162\n        /* \"#utility.yul\":4455:4457   */\n      0x12\n        /* \"#utility.yul\":4450:4453   */\n      dup4\n        /* \"#utility.yul\":4391:4458   */\n      tag_163\n      jump\t// in\n    tag_162:\n        /* \"#utility.yul\":4384:4458   */\n      swap2\n      pop\n        /* \"#utility.yul\":4467:4560   */\n      tag_164\n        /* \"#utility.yul\":4556:4559   */\n      dup3\n        /* \"#utility.yul\":4467:4560   */\n      tag_165\n      jump\t// in\n    tag_164:\n        /* \"#utility.yul\":4585:4587   */\n      0x20\n        /* \"#utility.yul\":4580:4583   */\n      dup3\n        /* \"#utility.yul\":4576:4588   */\n      add\n        /* \"#utility.yul\":4569:4588   */\n      swap1\n      pop\n        /* \"#utility.yul\":4228:4594   */\n      swap2\n      swap1\n      pop\n      jump\t// out\n        /* \"#utility.yul\":4684:6273   */\n    tag_137:\n        /* \"#utility.yul\":4823:4829   */\n      0x0100\n        /* \"#utility.yul\":4818:4821   */\n      dup3\n        /* \"#utility.yul\":4814:4830   */\n      add\n        /* \"#utility.yul\":4916:4920   */\n      0x00\n        /* \"#utility.yul\":4909:4914   */\n      dup3\n        /* \"#utility.yul\":4905:4921   */\n      add\n        /* \"#utility.yul\":4899:4922   */\n      mload\n        /* \"#utility.yul\":4935:4998   */\n      tag_167\n        /* \"#utility.yul\":4992:4996   */\n      0x00\n        /* \"#utility.yul\":4987:4990   */\n      dup6\n        /* \"#utility.yul\":4983:4997   */\n      add\n        /* \"#utility.yul\":4969:4981   */\n      dup3\n        /* \"#utility.yul\":4935:4998   */\n      tag_168\n      jump\t// in\n    tag_167:\n        /* \"#utility.yul\":4840:5008   */\n      pop\n        /* \"#utility.yul\":5096:5100   */\n      0x20\n        /* \"#utility.yul\":5089:5094   */\n      dup3\n        /* \"#utility.yul\":5085:5101   */\n      add\n        /* \"#utility.yul\":5079:5102   */\n      mload\n        /* \"#utility.yul\":5115:5178   */\n      tag_169\n        /* \"#utility.yul\":5172:5176   */\n      0x20\n        /* \"#utility.yul\":5167:5170   */\n      dup6\n        /* \"#utility.yul\":5163:5177   */\n      add\n        /* \"#utility.yul\":5149:5161   */\n      dup3\n        /* \"#utility.yul\":5115:5178   */\n      tag_168\n      jump\t// in\n    tag_169:\n        /* \"#utility.yul\":5018:5188   */\n      pop\n        /* \"#utility.yul\":5277:5281   */\n      0x40\n        /* \"#utility.yul\":5270:5275   */\n      dup3\n        /* \"#utility.yul\":5266:5282   */\n      add\n        /* \"#utility.yul\":5260:5283   */\n      mload\n        /* \"#utility.yul\":5296:5359   */\n      tag_170\n        /* \"#utility.yul\":5353:5357   */\n      0x40\n        /* \"#utility.yul\":5348:5351   */\n      dup6\n        /* \"#utility.yul\":5344:5358   */\n      add\n        /* \"#utility.yul\":5330:5342   */\n      dup3\n        /* \"#utility.yul\":5296:5359   */\n      tag_168\n      jump\t// in\n    tag_170:\n        /* \"#utility.yul\":5198:5369   */\n      pop\n        /* \"#utility.yul\":5455:5459   */\n      0x60\n        /* \"#utility.yul\":5448:5453   */\n      dup3\n        /* \"#utility.yul\":5444:5460   */\n      add\n        /* \"#utility.yul\":5438:5461   */\n      mload\n        /* \"#utility.yul\":5474:5537   */\n      tag_171\n        /* \"#utility.yul\":5531:5535   */\n      0x60\n        /* \"#utility.yul\":5526:5529   */\n      dup6\n        /* \"#utility.yul\":5522:5536   */\n      add\n        /* \"#utility.yul\":5508:5520   */\n      dup3\n        /* \"#utility.yul\":5474:5537   */\n      tag_168\n      jump\t// in\n    tag_171:\n        /* \"#utility.yul\":5379:5547   */\n      pop\n        /* \"#utility.yul\":5634:5638   */\n      0x80\n        /* \"#utility.yul\":5627:5632   */\n      dup3\n        /* \"#utility.yul\":5623:5639   */\n      add\n        /* \"#utility.yul\":5617:5640   */\n      mload\n        /* \"#utility.yul\":5653:5716   */\n      tag_172\n        /* \"#utility.yul\":5710:5714   */\n      0x80\n        /* \"#utility.yul\":5705:5708   */\n      dup6\n        /* \"#utility.yul\":5701:5715   */\n      add\n        /* \"#utility.yul\":5687:5699   */\n      dup3\n        /* \"#utility.yul\":5653:5716   */\n      tag_168\n      jump\t// in\n    tag_172:\n        /* \"#utility.yul\":5557:5726   */\n      pop\n        /* \"#utility.yul\":5813:5817   */\n      0xa0\n        /* \"#utility.yul\":5806:5811   */\n      dup3\n        /* \"#utility.yul\":5802:5818   */\n      add\n        /* \"#utility.yul\":5796:5819   */\n      mload\n        /* \"#utility.yul\":5832:5895   */\n      tag_173\n        /* \"#utility.yul\":5889:5893   */\n      0xa0\n        /* \"#utility.yul\":5884:5887   */\n      dup6\n        /* \"#utility.yul\":5880:5894   */\n      add\n        /* \"#utility.yul\":5866:5878   */\n      dup3\n        /* \"#utility.yul\":5832:5895   */\n      tag_168\n      jump\t// in\n    tag_173:\n        /* \"#utility.yul\":5736:5905   */\n      pop\n        /* \"#utility.yul\":5997:6001   */\n      0xc0\n        /* \"#utility.yul\":5990:5995   */\n      dup3\n        /* \"#utility.yul\":5986:6002   */\n      add\n        /* \"#utility.yul\":5980:6003   */\n      mload\n        /* \"#utility.yul\":6016:6079   */\n      tag_174\n        /* \"#utility.yul\":6073:6077   */\n      0xc0\n        /* \"#utility.yul\":6068:6071   */\n      dup6\n        /* \"#utility.yul\":6064:6078   */\n      add\n        /* \"#utility.yul\":6050:6062   */\n      dup3\n        /* \"#utility.yul\":6016:6079   */\n      tag_168\n      jump\t// in\n    tag_174:\n        /* \"#utility.yul\":5915:6089   */\n      pop\n        /* \"#utility.yul\":6174:6178   */\n      0xe0\n        /* \"#utility.yul\":6167:6172   */\n      dup3\n        /* \"#utility.yul\":6163:6179   */\n      add\n        /* \"#utility.yul\":6157:6180   */\n      mload\n        /* \"#utility.yul\":6193:6256   */\n      tag_175\n        /* \"#utility.yul\":6250:6254   */\n      0xe0\n        /* \"#utility.yul\":6245:6248   */\n      dup6\n        /* \"#utility.yul\":6241:6255   */\n      add\n        /* \"#utility.yul\":6227:6239   */\n      dup3\n        /* \"#utility.yul\":6193:6256   */\n      tag_168\n      jump\t// in\n    tag_175:\n        /* \"#utility.yul\":6099:6266   */\n      pop\n        /* \"#utility.yul\":4792:6273   */\n      pop\n        /* \"#utility.yul\":4684:6273   */\n      pop\n      pop\n      jump\t// out\n        /* \"#utility.yul\":6279:6387   */\n    tag_168:\n        /* \"#utility.yul\":6356:6380   */\n      tag_177\n        /* \"#utility.yul\":6374:6379   */\n      dup2\n        /* \"#utility.yul\":6356:6380   */\n      tag_178\n      jump\t// in\n    tag_177:\n        /* \"#utility.yul\":6351:6354   */\n      dup3\n        /* \"#utility.yul\":6344:6381   */\n      mstore\n        /* \"#utility.yul\":6279:6387   */\n      pop\n      pop\n      jump\t// out\n        /* \"#utility.yul\":6393:6615   */\n    tag_24:\n        /* \"#utility.yul\":6486:6490   */\n      0x00\n        /* \"#utility.yul\":6524:6526   */\n      0x20\n        /* \"#utility.yul\":6513:6522   */\n      dup3\n        /* \"#utility.yul\":6509:6527   */\n      add\n        /* \"#utility.yul\":6501:6527   */\n      swap1\n      pop\n        /* \"#utility.yul\":6537:6608   */\n      tag_180\n        /* \"#utility.yul\":6605:6606   */\n      0x00\n        /* \"#utility.yul\":6594:6603   */\n      dup4\n        /* \"#utility.yul\":6590:6607   */\n      add\n        /* \"#utility.yul\":6581:6587   */\n      dup5\n        /* \"#utility.yul\":6537:6608   */\n      tag_138\n      jump\t// in\n    tag_180:\n        /* \"#utility.yul\":6393:6615   */\n      swap3\n      swap2\n      pop\n      pop\n      jump\t// out\n        /* \"#utility.yul\":6621:7040   */\n    tag_20:\n        /* \"#utility.yul\":6812:6816   */\n      0x00\n        /* \"#utility.yul\":6850:6853   */\n      0x0200\n        /* \"#utility.yul\":6839:6848   */\n      dup3\n        /* \"#utility.yul\":6835:6854   */\n      add\n        /* \"#utility.yul\":6827:6854   */\n      swap1\n      pop\n        /* \"#utility.yul\":6864:7033   */\n      tag_182\n        /* \"#utility.yul\":7030:7031   */\n      0x00\n        /* \"#utility.yul\":7019:7028   */\n      dup4\n        /* \"#utility.yul\":7015:7032   */\n      add\n        /* \"#utility.yul\":7006:7012   */\n      dup5\n        /* \"#utility.yul\":6864:7033   */\n      tag_142\n      jump\t// in\n    tag_182:\n        /* \"#utility.yul\":6621:7040   */\n      swap3\n      swap2\n      pop\n      pop\n      jump\t// out\n        /* \"#utility.yul\":7046:7304   */\n    tag_14:\n        /* \"#utility.yul\":7157:7161   */\n      0x00\n        /* \"#utility.yul\":7195:7197   */\n      0x20\n        /* \"#utility.yul\":7184:7193   */\n      dup3\n        /* \"#utility.yul\":7180:7198   */\n      add\n        /* \"#utility.yul\":7172:7198   */\n      swap1\n      pop\n        /* \"#utility.yul\":7208:7297   */\n      tag_184\n        /* \"#utility.yul\":7294:7295   */\n      0x00\n        /* \"#utility.yul\":7283:7292   */\n      dup4\n        /* \"#utility.yul\":7279:7296   */\n      add\n        /* \"#utility.yul\":7270:7276   */\n      dup5\n        /* \"#utility.yul\":7208:7297   */\n      tag_156\n      jump\t// in\n    tag_184:\n        /* \"#utility.yul\":7046:7304   */\n      swap3\n      swap2\n      pop\n      pop\n      jump\t// out\n        /* \"#utility.yul\":7310:7729   */\n    tag_88:\n        /* \"#utility.yul\":7476:7480   */\n      0x00\n        /* \"#utility.yul\":7514:7516   */\n      0x20\n        /* \"#utility.yul\":7503:7512   */\n      dup3\n        /* \"#utility.yul\":7499:7517   */\n      add\n        /* \"#utility.yul\":7491:7517   */\n      swap1\n      pop\n        /* \"#utility.yul\":7563:7572   */\n      dup2\n        /* \"#utility.yul\":7557:7561   */\n      dup2\n        /* \"#utility.yul\":7553:7573   */\n      sub\n        /* \"#utility.yul\":7549:7550   */\n      0x00\n        /* \"#utility.yul\":7538:7547   */\n      dup4\n        /* \"#utility.yul\":7534:7551   */\n      add\n        /* \"#utility.yul\":7527:7574   */\n      mstore\n        /* \"#utility.yul\":7591:7722   */\n      tag_186\n        /* \"#utility.yul\":7717:7721   */\n      dup2\n        /* \"#utility.yul\":7591:7722   */\n      tag_160\n      jump\t// in\n    tag_186:\n        /* \"#utility.yul\":7583:7722   */\n      swap1\n      pop\n        /* \"#utility.yul\":7310:7729   */\n      swap2\n      swap1\n      pop\n      jump\t// out\n        /* \"#utility.yul\":7816:7940   */\n    tag_149:\n        /* \"#utility.yul\":7907:7911   */\n      0x00\n        /* \"#utility.yul\":7930:7933   */\n      dup2\n        /* \"#utility.yul\":7922:7933   */\n      swap1\n      pop\n        /* \"#utility.yul\":7816:7940   */\n      swap2\n      swap1\n      pop\n      jump\t// out\n        /* \"#utility.yul\":7946:8076   */\n    tag_145:\n        /* \"#utility.yul\":8037:8043   */\n      0x00\n        /* \"#utility.yul\":8065:8069   */\n      0x02\n        /* \"#utility.yul\":8055:8069   */\n      swap1\n      pop\n        /* \"#utility.yul\":7946:8076   */\n      swap2\n      swap1\n      pop\n      jump\t// out\n        /* \"#utility.yul\":8082:8219   */\n    tag_155:\n        /* \"#utility.yul\":8176:8180   */\n      0x00\n        /* \"#utility.yul\":8208:8212   */\n      0x20\n        /* \"#utility.yul\":8203:8206   */\n      dup3\n        /* \"#utility.yul\":8199:8213   */\n      add\n        /* \"#utility.yul\":8191:8213   */\n      swap1\n      pop\n        /* \"#utility.yul\":8082:8219   */\n      swap2\n      swap1\n      pop\n      jump\t// out\n        /* \"#utility.yul\":8225:8394   */\n    tag_147:\n        /* \"#utility.yul\":8348:8359   */\n      0x00\n        /* \"#utility.yul\":8385:8388   */\n      dup2\n        /* \"#utility.yul\":8370:8388   */\n      swap1\n      pop\n        /* \"#utility.yul\":8225:8394   */\n      swap3\n      swap2\n      pop\n      pop\n      jump\t// out\n        /* \"#utility.yul\":8400:8569   */\n    tag_163:\n        /* \"#utility.yul\":8484:8495   */\n      0x00\n        /* \"#utility.yul\":8518:8524   */\n      dup3\n        /* \"#utility.yul\":8513:8516   */\n      dup3\n        /* \"#utility.yul\":8506:8525   */\n      mstore\n        /* \"#utility.yul\":8558:8562   */\n      0x20\n        /* \"#utility.yul\":8553:8556   */\n      dup3\n        /* \"#utility.yul\":8549:8563   */\n      add\n        /* \"#utility.yul\":8534:8563   */\n      swap1\n      pop\n        /* \"#utility.yul\":8400:8569   */\n      swap3\n      swap2\n      pop\n      pop\n      jump\t// out\n        /* \"#utility.yul\":8575:8671   */\n    tag_141:\n        /* \"#utility.yul\":8612:8619   */\n      0x00\n        /* \"#utility.yul\":8641:8665   */\n      tag_195\n        /* \"#utility.yul\":8659:8664   */\n      dup3\n        /* \"#utility.yul\":8641:8665   */\n      tag_196\n      jump\t// in\n    tag_195:\n        /* \"#utility.yul\":8630:8665   */\n      swap1\n      pop\n        /* \"#utility.yul\":8575:8671   */\n      swap2\n      swap1\n      pop\n      jump\t// out\n        /* \"#utility.yul\":8677:8791   */\n    tag_197:\n        /* \"#utility.yul\":8732:8739   */\n      0x00\n        /* \"#utility.yul\":8761:8785   */\n      tag_199\n        /* \"#utility.yul\":8779:8784   */\n      dup3\n        /* \"#utility.yul\":8761:8785   */\n      tag_141\n      jump\t// in\n    tag_199:\n        /* \"#utility.yul\":8750:8785   */\n      swap1\n      pop\n        /* \"#utility.yul\":8677:8791   */\n      swap2\n      swap1\n      pop\n      jump\t// out\n        /* \"#utility.yul\":8797:8923   */\n    tag_196:\n        /* \"#utility.yul\":8834:8841   */\n      0x00\n        /* \"#utility.yul\":8874:8916   */\n      0xffffffffffffffffffffffffffffffffffffffff\n        /* \"#utility.yul\":8867:8872   */\n      dup3\n        /* \"#utility.yul\":8863:8917   */\n      and\n        /* \"#utility.yul\":8852:8917   */\n      swap1\n      pop\n        /* \"#utility.yul\":8797:8923   */\n      swap2\n      swap1\n      pop\n      jump\t// out\n        /* \"#utility.yul\":8929:9006   */\n    tag_178:\n        /* \"#utility.yul\":8966:8973   */\n      0x00\n        /* \"#utility.yul\":8995:9000   */\n      dup2\n        /* \"#utility.yul\":8984:9000   */\n      swap1\n      pop\n        /* \"#utility.yul\":8929:9006   */\n      swap2\n      swap1\n      pop\n      jump\t// out\n        /* \"#utility.yul\":9012:9156   */\n    tag_159:\n        /* \"#utility.yul\":9080:9089   */\n      0x00\n        /* \"#utility.yul\":9113:9150   */\n      tag_203\n        /* \"#utility.yul\":9144:9149   */\n      dup3\n        /* \"#utility.yul\":9113:9150   */\n      tag_204\n      jump\t// in\n    tag_203:\n        /* \"#utility.yul\":9100:9150   */\n      swap1\n      pop\n        /* \"#utility.yul\":9012:9156   */\n      swap2\n      swap1\n      pop\n      jump\t// out\n        /* \"#utility.yul\":9162:9288   */\n    tag_204:\n        /* \"#utility.yul\":9212:9221   */\n      0x00\n        /* \"#utility.yul\":9245:9282   */\n      tag_206\n        /* \"#utility.yul\":9276:9281   */\n      dup3\n        /* \"#utility.yul\":9245:9282   */\n      tag_207\n      jump\t// in\n    tag_206:\n        /* \"#utility.yul\":9232:9282   */\n      swap1\n      pop\n        /* \"#utility.yul\":9162:9288   */\n      swap2\n      swap1\n      pop\n      jump\t// out\n        /* \"#utility.yul\":9294:9407   */\n    tag_207:\n        /* \"#utility.yul\":9344:9353   */\n      0x00\n        /* \"#utility.yul\":9377:9401   */\n      tag_209\n        /* \"#utility.yul\":9395:9400   */\n      dup3\n        /* \"#utility.yul\":9377:9401   */\n      tag_196\n      jump\t// in\n    tag_209:\n        /* \"#utility.yul\":9364:9401   */\n      swap1\n      pop\n        /* \"#utility.yul\":9294:9407   */\n      swap2\n      swap1\n      pop\n      jump\t// out\n        /* \"#utility.yul\":9413:9593   */\n    tag_49:\n        /* \"#utility.yul\":9461:9538   */\n      0x4e487b7100000000000000000000000000000000000000000000000000000000\n        /* \"#utility.yul\":9458:9459   */\n      0x00\n        /* \"#utility.yul\":9451:9539   */\n      mstore\n        /* \"#utility.yul\":9558:9562   */\n      0x32\n        /* \"#utility.yul\":9555:9556   */\n      0x04\n        /* \"#utility.yul\":9548:9563   */\n      mstore\n        /* \"#utility.yul\":9582:9586   */\n      0x24\n        /* \"#utility.yul\":9579:9580   */\n      0x00\n        /* \"#utility.yul\":9572:9587   */\n      revert\n        /* \"#utility.yul\":9722:9839   */\n    tag_117:\n        /* \"#utility.yul\":9831:9832   */\n      0x00\n        /* \"#utility.yul\":9828:9829   */\n      dup1\n        /* \"#utility.yul\":9821:9833   */\n      revert\n        /* \"#utility.yul\":9845:10013   */\n    tag_165:\n        /* \"#utility.yul\":9985:10005   */\n      0x494e56414c49445f5045524d495353494f4e0000000000000000000000000000\n        /* \"#utility.yul\":9981:9982   */\n      0x00\n        /* \"#utility.yul\":9973:9979   */\n      dup3\n        /* \"#utility.yul\":9969:9983   */\n      add\n        /* \"#utility.yul\":9962:10006   */\n      mstore\n        /* \"#utility.yul\":9845:10013   */\n      pop\n      jump\t// out\n        /* \"#utility.yul\":10019:10141   */\n    tag_105:\n        /* \"#utility.yul\":10092:10116   */\n      tag_216\n        /* \"#utility.yul\":10110:10115   */\n      dup2\n        /* \"#utility.yul\":10092:10116   */\n      tag_141\n      jump\t// in\n    tag_216:\n        /* \"#utility.yul\":10085:10090   */\n      dup2\n        /* \"#utility.yul\":10082:10117   */\n      eq\n        /* \"#utility.yul\":10072:10135   */\n      tag_217\n      jumpi\n        /* \"#utility.yul\":10131:10132   */\n      0x00\n        /* \"#utility.yul\":10128:10129   */\n      dup1\n        /* \"#utility.yul\":10121:10133   */\n      revert\n        /* \"#utility.yul\":10072:10135   */\n    tag_217:\n        /* \"#utility.yul\":10019:10141   */\n      pop\n      jump\t// out\n        /* \"#utility.yul\":10147:10305   */\n    tag_109:\n        /* \"#utility.yul\":10238:10280   */\n      tag_219\n        /* \"#utility.yul\":10274:10279   */\n      dup2\n        /* \"#utility.yul\":10238:10280   */\n      tag_197\n      jump\t// in\n    tag_219:\n        /* \"#utility.yul\":10231:10236   */\n      dup2\n        /* \"#utility.yul\":10228:10281   */\n      eq\n        /* \"#utility.yul\":10218:10299   */\n      tag_220\n      jumpi\n        /* \"#utility.yul\":10295:10296   */\n      0x00\n        /* \"#utility.yul\":10292:10293   */\n      dup1\n        /* \"#utility.yul\":10285:10297   */\n      revert\n        /* \"#utility.yul\":10218:10299   */\n    tag_220:\n        /* \"#utility.yul\":10147:10305   */\n      pop\n      jump\t// out\n        /* \"#utility.yul\":10311:10433   */\n    tag_113:\n        /* \"#utility.yul\":10384:10408   */\n      tag_222\n        /* \"#utility.yul\":10402:10407   */\n      dup2\n        /* \"#utility.yul\":10384:10408   */\n      tag_178\n      jump\t// in\n    tag_222:\n        /* \"#utility.yul\":10377:10382   */\n      dup2\n        /* \"#utility.yul\":10374:10409   */\n      eq\n        /* \"#utility.yul\":10364:10427   */\n      tag_223\n      jumpi\n        /* \"#utility.yul\":10423:10424   */\n      0x00\n        /* \"#utility.yul\":10420:10421   */\n      dup1\n        /* \"#utility.yul\":10413:10425   */\n      revert\n        /* \"#utility.yul\":10364:10427   */\n    tag_223:\n        /* \"#utility.yul\":10311:10433   */\n      pop\n      jump\t// out\n\n    auxdata: 0xa2646970667358221220a66395e8f61511d108d22b77a9952c14bdfc322a3662ab3591c6f0933d14130a64736f6c63430008070033\n}\n",
				"bytecode": {
					"linkReferences": {},
					"object": "60806040523480156200001157600080fd5b5060405162000ebf38038062000ebf833981810160405281019062000037919062000118565b81600160006101000a81548173ffffffffffffffffffffffffffffffffffffffff021916908373ffffffffffffffffffffffffffffffffffffffff16021790555080600260006101000a81548173ffffffffffffffffffffffffffffffffffffffff021916908373ffffffffffffffffffffffffffffffffffffffff160217905550336000806101000a81548173ffffffffffffffffffffffffffffffffffffffff021916908373ffffffffffffffffffffffffffffffffffffffff1602179055505050620001c6565b6000815190506200011281620001ac565b92915050565b60008060408385031215620001325762000131620001a7565b5b6000620001428582860162000101565b9250506020620001558582860162000101565b9150509250929050565b60006200016c8262000187565b9050919050565b600062000180826200015f565b9050919050565b600073ffffffffffffffffffffffffffffffffffffffff82169050919050565b600080fd5b620001b78162000173565b8114620001c357600080fd5b50565b610ce980620001d66000396000f3fe608060405234801561001057600080fd5b506004361061007d5760003560e01c8063af566cb41161005b578063af566cb4146100ee578063ce9a06251461010c578063f2fde38b14610128578063fda18656146101445761007d565b80631cbcd1a81461008257806338266b22146100a05780638da5cb5b146100d0575b600080fd5b61008a610160565b6040516100979190610b14565b60405180910390f35b6100ba60048036038101906100b5919061086b565b610186565b6040516100c79190610af8565b60405180910390f35b6100d86104fb565b6040516100e59190610add565b60405180910390f35b6100f661051f565b6040516101039190610b14565b60405180910390f35b61012660048036038101906101219190610898565b610545565b005b610142600480360381019061013d919061086b565b610617565b005b61015e60048036038101906101599190610898565b6106e8565b005b600160009054906101000a900473ffffffffffffffffffffffffffffffffffffffff1681565b61018e6107ba565b600160009054906101000a900473ffffffffffffffffffffffffffffffffffffffff1673ffffffffffffffffffffffffffffffffffffffff166338266b22836040518263ffffffff1660e01b81526004016101e99190610add565b6101006040518083038186803b15801561020257600080fd5b505afa158015610216573d6000803e3d6000fd5b505050506040513d601f19601f8201168201806040525081019061023a91906108c5565b8860006002811061024e5761024d610c11565b5b60200201516000018960006002811061026a57610269610c11565b5b60200201516020018a60006002811061028657610285610c11565b5b60200201516040018b6000600281106102a2576102a1610c11565b5b60200201516060018c6000600281106102be576102bd610c11565b5b60200201516080018d6000600281106102da576102d9610c11565b5b602002015160a0018e6000600281106102f6576102f5610c11565b5b602002015160c0018f60006002811061031257610311610c11565b5b602002015160e00188815250888152508881525088815250888152508881525088815250888152505050505050505050600260009054906101000a900473ffffffffffffffffffffffffffffffffffffffff1673ffffffffffffffffffffffffffffffffffffffff166338266b22836040518263ffffffff1660e01b815260040161039d9190610add565b6101006040518083038186803b1580156103b657600080fd5b505afa1580156103ca573d6000803e3d6000fd5b505050506040513d601f19601f820116820180604052508101906103ee91906108c5565b8860016002811061040257610401610c11565b5b60200201516000018960016002811061041e5761041d610c11565b5b60200201516020018a60016002811061043a57610439610c11565b5b60200201516040018b60016002811061045657610455610c11565b5b60200201516060018c60016002811061047257610471610c11565b5b60200201516080018d60016002811061048e5761048d610c11565b5b602002015160a0018e6001600281106104aa576104a9610c11565b5b602002015160c0018f6001600281106104c6576104c5610c11565b5b602002015160e00188815250888152508881525088815250888152508881525088815250888152505050505050505050919050565b60008054906101000a900473ffffffffffffffffffffffffffffffffffffffff1681565b600260009054906101000a900473ffffffffffffffffffffffffffffffffffffffff1681565b60008054906101000a900473ffffffffffffffffffffffffffffffffffffffff1673ffffffffffffffffffffffffffffffffffffffff163373ffffffffffffffffffffffffffffffffffffffff16146105d3576040517f08c379a00000000000000000000000000000000000000000000000000000000081526004016105ca90610b2f565b60405180910390fd5b80600160006101000a81548173ffffffffffffffffffffffffffffffffffffffff021916908373ffffffffffffffffffffffffffffffffffffffff16021790555050565b60008054906101000a900473ffffffffffffffffffffffffffffffffffffffff1673ffffffffffffffffffffffffffffffffffffffff163373ffffffffffffffffffffffffffffffffffffffff16146106a5576040517f08c379a000000000000000000000000000000000000000000000000000000000815260040161069c90610b2f565b60405180910390fd5b806000806101000a81548173ffffffffffffffffffffffffffffffffffffffff021916908373ffffffffffffffffffffffffffffffffffffffff16021790555050565b60008054906101000a900473ffffffffffffffffffffffffffffffffffffffff1673ffffffffffffffffffffffffffffffffffffffff163373ffffffffffffffffffffffffffffffffffffffff1614610776576040517f08c379a000000000000000000000000000000000000000000000000000000000815260040161076d90610b2f565b60405180910390fd5b80600260006101000a81548173ffffffffffffffffffffffffffffffffffffffff021916908373ffffffffffffffffffffffffffffffffffffffff16021790555050565b60405180604001604052806002905b6107d16107e7565b8152602001906001900390816107c95790505090565b60405180610100016040528060008152602001600081526020016000815260200160008152602001600081526020016000815260200160008152602001600081525090565b60008135905061083b81610c6e565b92915050565b60008135905061085081610c85565b92915050565b60008151905061086581610c9c565b92915050565b60006020828403121561088157610880610c40565b5b600061088f8482850161082c565b91505092915050565b6000602082840312156108ae576108ad610c40565b5b60006108bc84828501610841565b91505092915050565b600080600080600080600080610100898b0312156108e6576108e5610c40565b5b60006108f48b828c01610856565b98505060206109058b828c01610856565b97505060406109168b828c01610856565b96505060606109278b828c01610856565b95505060806109388b828c01610856565b94505060a06109498b828c01610856565b93505060c061095a8b828c01610856565b92505060e061096b8b828c01610856565b9150509295985092959890939650565b60006109878383610a2c565b6101008301905092915050565b61099d81610b8d565b82525050565b6109ac81610b59565b6109b68184610b71565b92506109c182610b4f565b8060005b838110156109f25781516109d9878261097b565b96506109e483610b64565b9250506001810190506109c5565b505050505050565b610a0381610bdb565b82525050565b6000610a16601283610b7c565b9150610a2182610c45565b602082019050919050565b61010082016000820151610a436000850182610ace565b506020820151610a566020850182610ace565b506040820151610a696040850182610ace565b506060820151610a7c6060850182610ace565b506080820151610a8f6080850182610ace565b5060a0820151610aa260a0850182610ace565b5060c0820151610ab560c0850182610ace565b5060e0820151610ac860e0850182610ace565b50505050565b610ad781610bd1565b82525050565b6000602082019050610af26000830184610994565b92915050565b600061020082019050610b0e60008301846109a3565b92915050565b6000602082019050610b2960008301846109fa565b92915050565b60006020820190508181036000830152610b4881610a09565b9050919050565b6000819050919050565b600060029050919050565b6000602082019050919050565b600081905092915050565b600082825260208201905092915050565b6000610b9882610bb1565b9050919050565b6000610baa82610b8d565b9050919050565b600073ffffffffffffffffffffffffffffffffffffffff82169050919050565b6000819050919050565b6000610be682610bed565b9050919050565b6000610bf882610bff565b9050919050565b6000610c0a82610bb1565b9050919050565b7f4e487b7100000000000000000000000000000000000000000000000000000000600052603260045260246000fd5b600080fd5b7f494e56414c49445f5045524d495353494f4e0000000000000000000000000000600082015250565b610c7781610b8d565b8114610c8257600080fd5b50565b610c8e81610b9f565b8114610c9957600080fd5b50565b610ca581610bd1565b8114610cb057600080fd5b5056fea2646970667358221220a66395e8f61511d108d22b77a9952c14bdfc322a3662ab3591c6f0933d14130a64736f6c63430008070033",
					"opcodes": "PUSH1 0x80 PUSH1 0x40 MSTORE CALLVALUE DUP1 ISZERO PUSH3 0x11 JUMPI PUSH1 0x0 DUP1 REVERT JUMPDEST POP PUSH1 0x40 MLOAD PUSH3 0xEBF CODESIZE SUB DUP1 PUSH3 0xEBF DUP4 CODECOPY DUP2 DUP2 ADD PUSH1 0x40 MSTORE DUP2 ADD SWAP1 PUSH3 0x37 SWAP2 SWAP1 PUSH3 0x118 JUMP JUMPDEST DUP2 PUSH1 0x1 PUSH1 0x0 PUSH2 0x100 EXP DUP2 SLOAD DUP2 PUSH20 0xFFFFFFFFFFFFFFFFFFFFFFFFFFFFFFFFFFFFFFFF MUL NOT AND SWAP1 DUP4 PUSH20 0xFFFFFFFFFFFFFFFFFFFFFFFFFFFFFFFFFFFFFFFF AND MUL OR SWAP1 SSTORE POP DUP1 PUSH1 0x2 PUSH1 0x0 PUSH2 0x100 EXP DUP2 SLOAD DUP2 PUSH20 0xFFFFFFFFFFFFFFFFFFFFFFFFFFFFFFFFFFFFFFFF MUL NOT AND SWAP1 DUP4 PUSH20 0xFFFFFFFFFFFFFFFFFFFFFFFFFFFFFFFFFFFFFFFF AND MUL OR SWAP1 SSTORE POP CALLER PUSH1 0x0 DUP1 PUSH2 0x100 EXP DUP2 SLOAD DUP2 PUSH20 0xFFFFFFFFFFFFFFFFFFFFFFFFFFFFFFFFFFFFFFFF MUL NOT AND SWAP1 DUP4 PUSH20 0xFFFFFFFFFFFFFFFFFFFFFFFFFFFFFFFFFFFFFFFF AND MUL OR SWAP1 SSTORE POP POP POP PUSH3 0x1C6 JUMP JUMPDEST PUSH1 0x0 DUP2 MLOAD SWAP1 POP PUSH3 0x112 DUP2 PUSH3 0x1AC JUMP JUMPDEST SWAP3 SWAP2 POP POP JUMP JUMPDEST PUSH1 0x0 DUP1 PUSH1 0x40 DUP4 DUP6 SUB SLT ISZERO PUSH3 0x132 JUMPI PUSH3 0x131 PUSH3 0x1A7 JUMP JUMPDEST JUMPDEST PUSH1 0x0 PUSH3 0x142 DUP6 DUP3 DUP7 ADD PUSH3 0x101 JUMP JUMPDEST SWAP3 POP POP PUSH1 0x20 PUSH3 0x155 DUP6 DUP3 DUP7 ADD PUSH3 0x101 JUMP JUMPDEST SWAP2 POP POP SWAP3 POP SWAP3 SWAP1 POP JUMP JUMPDEST PUSH1 0x0 PUSH3 0x16C DUP3 PUSH3 0x187 JUMP JUMPDEST SWAP1 POP SWAP2 SWAP1 POP JUMP JUMPDEST PUSH1 0x0 PUSH3 0x180 DUP3 PUSH3 0x15F JUMP JUMPDEST SWAP1 POP SWAP2 SWAP1 POP JUMP JUMPDEST PUSH1 0x0 PUSH20 0xFFFFFFFFFFFFFFFFFFFFFFFFFFFFFFFFFFFFFFFF DUP3 AND SWAP1 POP SWAP2 SWAP1 POP JUMP JUMPDEST PUSH1 0x0 DUP1 REVERT JUMPDEST PUSH3 0x1B7 DUP2 PUSH3 0x173 JUMP JUMPDEST DUP2 EQ PUSH3 0x1C3 JUMPI PUSH1 0x0 DUP1 REVERT JUMPDEST POP JUMP JUMPDEST PUSH2 0xCE9 DUP1 PUSH3 0x1D6 PUSH1 0x0 CODECOPY PUSH1 0x0 RETURN INVALID PUSH1 0x80 PUSH1 0x40 MSTORE CALLVALUE DUP1 ISZERO PUSH2 0x10 JUMPI PUSH1 0x0 DUP1 REVERT JUMPDEST POP PUSH1 0x4 CALLDATASIZE LT PUSH2 0x7D JUMPI PUSH1 0x0 CALLDATALOAD PUSH1 0xE0 SHR DUP1 PUSH4 0xAF566CB4 GT PUSH2 0x5B JUMPI DUP1 PUSH4 0xAF566CB4 EQ PUSH2 0xEE JUMPI DUP1 PUSH4 0xCE9A0625 EQ PUSH2 0x10C JUMPI DUP1 PUSH4 0xF2FDE38B EQ PUSH2 0x128 JUMPI DUP1 PUSH4 0xFDA18656 EQ PUSH2 0x144 JUMPI PUSH2 0x7D JUMP JUMPDEST DUP1 PUSH4 0x1CBCD1A8 EQ PUSH2 0x82 JUMPI DUP1 PUSH4 0x38266B22 EQ PUSH2 0xA0 JUMPI DUP1 PUSH4 0x8DA5CB5B EQ PUSH2 0xD0 JUMPI JUMPDEST PUSH1 0x0 DUP1 REVERT JUMPDEST PUSH2 0x8A PUSH2 0x160 JUMP JUMPDEST PUSH1 0x40 MLOAD PUSH2 0x97 SWAP2 SWAP1 PUSH2 0xB14 JUMP JUMPDEST PUSH1 0x40 MLOAD DUP1 SWAP2 SUB SWAP1 RETURN JUMPDEST PUSH2 0xBA PUSH1 0x4 DUP1 CALLDATASIZE SUB DUP2 ADD SWAP1 PUSH2 0xB5 SWAP2 SWAP1 PUSH2 0x86B JUMP JUMPDEST PUSH2 0x186 JUMP JUMPDEST PUSH1 0x40 MLOAD PUSH2 0xC7 SWAP2 SWAP1 PUSH2 0xAF8 JUMP JUMPDEST PUSH1 0x40 MLOAD DUP1 SWAP2 SUB SWAP1 RETURN JUMPDEST PUSH2 0xD8 PUSH2 0x4FB JUMP JUMPDEST PUSH1 0x40 MLOAD PUSH2 0xE5 SWAP2 SWAP1 PUSH2 0xADD JUMP JUMPDEST PUSH1 0x40 MLOAD DUP1 SWAP2 SUB SWAP1 RETURN JUMPDEST PUSH2 0xF6 PUSH2 0x51F JUMP JUMPDEST PUSH1 0x40 MLOAD PUSH2 0x103 SWAP2 SWAP1 PUSH2 0xB14 JUMP JUMPDEST PUSH1 0x40 MLOAD DUP1 SWAP2 SUB SWAP1 RETURN JUMPDEST PUSH2 0x126 PUSH1 0x4 DUP1 CALLDATASIZE SUB DUP2 ADD SWAP1 PUSH2 0x121 SWAP2 SWAP1 PUSH2 0x898 JUMP JUMPDEST PUSH2 0x545 JUMP JUMPDEST STOP JUMPDEST PUSH2 0x142 PUSH1 0x4 DUP1 CALLDATASIZE SUB DUP2 ADD SWAP1 PUSH2 0x13D SWAP2 SWAP1 PUSH2 0x86B JUMP JUMPDEST PUSH2 0x617 JUMP JUMPDEST STOP JUMPDEST PUSH2 0x15E PUSH1 0x4 DUP1 CALLDATASIZE SUB DUP2 ADD SWAP1 PUSH2 0x159 SWAP2 SWAP1 PUSH2 0x898 JUMP JUMPDEST PUSH2 0x6E8 JUMP JUMPDEST STOP JUMPDEST PUSH1 0x1 PUSH1 0x0 SWAP1 SLOAD SWAP1 PUSH2 0x100 EXP SWAP1 DIV PUSH20 0xFFFFFFFFFFFFFFFFFFFFFFFFFFFFFFFFFFFFFFFF AND DUP2 JUMP JUMPDEST PUSH2 0x18E PUSH2 0x7BA JUMP JUMPDEST PUSH1 0x1 PUSH1 0x0 SWAP1 SLOAD SWAP1 PUSH2 0x100 EXP SWAP1 DIV PUSH20 0xFFFFFFFFFFFFFFFFFFFFFFFFFFFFFFFFFFFFFFFF AND PUSH20 0xFFFFFFFFFFFFFFFFFFFFFFFFFFFFFFFFFFFFFFFF AND PUSH4 0x38266B22 DUP4 PUSH1 0x40 MLOAD DUP3 PUSH4 0xFFFFFFFF AND PUSH1 0xE0 SHL DUP2 MSTORE PUSH1 0x4 ADD PUSH2 0x1E9 SWAP2 SWAP1 PUSH2 0xADD JUMP JUMPDEST PUSH2 0x100 PUSH1 0x40 MLOAD DUP1 DUP4 SUB DUP2 DUP7 DUP1 EXTCODESIZE ISZERO DUP1 ISZERO PUSH2 0x202 JUMPI PUSH1 0x0 DUP1 REVERT JUMPDEST POP GAS STATICCALL ISZERO DUP1 ISZERO PUSH2 0x216 JUMPI RETURNDATASIZE PUSH1 0x0 DUP1 RETURNDATACOPY RETURNDATASIZE PUSH1 0x0 REVERT JUMPDEST POP POP POP POP PUSH1 0x40 MLOAD RETURNDATASIZE PUSH1 0x1F NOT PUSH1 0x1F DUP3 ADD AND DUP3 ADD DUP1 PUSH1 0x40 MSTORE POP DUP2 ADD SWAP1 PUSH2 0x23A SWAP2 SWAP1 PUSH2 0x8C5 JUMP JUMPDEST DUP9 PUSH1 0x0 PUSH1 0x2 DUP2 LT PUSH2 0x24E JUMPI PUSH2 0x24D PUSH2 0xC11 JUMP JUMPDEST JUMPDEST PUSH1 0x20 MUL ADD MLOAD PUSH1 0x0 ADD DUP10 PUSH1 0x0 PUSH1 0x2 DUP2 LT PUSH2 0x26A JUMPI PUSH2 0x269 PUSH2 0xC11 JUMP JUMPDEST JUMPDEST PUSH1 0x20 MUL ADD MLOAD PUSH1 0x20 ADD DUP11 PUSH1 0x0 PUSH1 0x2 DUP2 LT PUSH2 0x286 JUMPI PUSH2 0x285 PUSH2 0xC11 JUMP JUMPDEST JUMPDEST PUSH1 0x20 MUL ADD MLOAD PUSH1 0x40 ADD DUP12 PUSH1 0x0 PUSH1 0x2 DUP2 LT PUSH2 0x2A2 JUMPI PUSH2 0x2A1 PUSH2 0xC11 JUMP JUMPDEST JUMPDEST PUSH1 0x20 MUL ADD MLOAD PUSH1 0x60 ADD DUP13 PUSH1 0x0 PUSH1 0x2 DUP2 LT PUSH2 0x2BE JUMPI PUSH2 0x2BD PUSH2 0xC11 JUMP JUMPDEST JUMPDEST PUSH1 0x20 MUL ADD MLOAD PUSH1 0x80 ADD DUP14 PUSH1 0x0 PUSH1 0x2 DUP2 LT PUSH2 0x2DA JUMPI PUSH2 0x2D9 PUSH2 0xC11 JUMP JUMPDEST JUMPDEST PUSH1 0x20 MUL ADD MLOAD PUSH1 0xA0 ADD DUP15 PUSH1 0x0 PUSH1 0x2 DUP2 LT PUSH2 0x2F6 JUMPI PUSH2 0x2F5 PUSH2 0xC11 JUMP JUMPDEST JUMPDEST PUSH1 0x20 MUL ADD MLOAD PUSH1 0xC0 ADD DUP16 PUSH1 0x0 PUSH1 0x2 DUP2 LT PUSH2 0x312 JUMPI PUSH2 0x311 PUSH2 0xC11 JUMP JUMPDEST JUMPDEST PUSH1 0x20 MUL ADD MLOAD PUSH1 0xE0 ADD DUP9 DUP2 MSTORE POP DUP9 DUP2 MSTORE POP DUP9 DUP2 MSTORE POP DUP9 DUP2 MSTORE POP DUP9 DUP2 MSTORE POP DUP9 DUP2 MSTORE POP DUP9 DUP2 MSTORE POP DUP9 DUP2 MSTORE POP POP POP POP POP POP POP POP POP PUSH1 0x2 PUSH1 0x0 SWAP1 SLOAD SWAP1 PUSH2 0x100 EXP SWAP1 DIV PUSH20 0xFFFFFFFFFFFFFFFFFFFFFFFFFFFFFFFFFFFFFFFF AND PUSH20 0xFFFFFFFFFFFFFFFFFFFFFFFFFFFFFFFFFFFFFFFF AND PUSH4 0x38266B22 DUP4 PUSH1 0x40 MLOAD DUP3 PUSH4 0xFFFFFFFF AND PUSH1 0xE0 SHL DUP2 MSTORE PUSH1 0x4 ADD PUSH2 0x39D SWAP2 SWAP1 PUSH2 0xADD JUMP JUMPDEST PUSH2 0x100 PUSH1 0x40 MLOAD DUP1 DUP4 SUB DUP2 DUP7 DUP1 EXTCODESIZE ISZERO DUP1 ISZERO PUSH2 0x3B6 JUMPI PUSH1 0x0 DUP1 REVERT JUMPDEST POP GAS STATICCALL ISZERO DUP1 ISZERO PUSH2 0x3CA JUMPI RETURNDATASIZE PUSH1 0x0 DUP1 RETURNDATACOPY RETURNDATASIZE PUSH1 0x0 REVERT JUMPDEST POP POP POP POP PUSH1 0x40 MLOAD RETURNDATASIZE PUSH1 0x1F NOT PUSH1 0x1F DUP3 ADD AND DUP3 ADD DUP1 PUSH1 0x40 MSTORE POP DUP2 ADD SWAP1 PUSH2 0x3EE SWAP2 SWAP1 PUSH2 0x8C5 JUMP JUMPDEST DUP9 PUSH1 0x1 PUSH1 0x2 DUP2 LT PUSH2 0x402 JUMPI PUSH2 0x401 PUSH2 0xC11 JUMP JUMPDEST JUMPDEST PUSH1 0x20 MUL ADD MLOAD PUSH1 0x0 ADD DUP10 PUSH1 0x1 PUSH1 0x2 DUP2 LT PUSH2 0x41E JUMPI PUSH2 0x41D PUSH2 0xC11 JUMP JUMPDEST JUMPDEST PUSH1 0x20 MUL ADD MLOAD PUSH1 0x20 ADD DUP11 PUSH1 0x1 PUSH1 0x2 DUP2 LT PUSH2 0x43A JUMPI PUSH2 0x439 PUSH2 0xC11 JUMP JUMPDEST JUMPDEST PUSH1 0x20 MUL ADD MLOAD PUSH1 0x40 ADD DUP12 PUSH1 0x1 PUSH1 0x2 DUP2 LT PUSH2 0x456 JUMPI PUSH2 0x455 PUSH2 0xC11 JUMP JUMPDEST JUMPDEST PUSH1 0x20 MUL ADD MLOAD PUSH1 0x60 ADD DUP13 PUSH1 0x1 PUSH1 0x2 DUP2 LT PUSH2 0x472 JUMPI PUSH2 0x471 PUSH2 0xC11 JUMP JUMPDEST JUMPDEST PUSH1 0x20 MUL ADD MLOAD PUSH1 0x80 ADD DUP14 PUSH1 0x1 PUSH1 0x2 DUP2 LT PUSH2 0x48E JUMPI PUSH2 0x48D PUSH2 0xC11 JUMP JUMPDEST JUMPDEST PUSH1 0x20 MUL ADD MLOAD PUSH1 0xA0 ADD DUP15 PUSH1 0x1 PUSH1 0x2 DUP2 LT PUSH2 0x4AA JUMPI PUSH2 0x4A9 PUSH2 0xC11 JUMP JUMPDEST JUMPDEST PUSH1 0x20 MUL ADD MLOAD PUSH1 0xC0 ADD DUP16 PUSH1 0x1 PUSH1 0x2 DUP2 LT PUSH2 0x4C6 JUMPI PUSH2 0x4C5 PUSH2 0xC11 JUMP JUMPDEST JUMPDEST PUSH1 0x20 MUL ADD MLOAD PUSH1 0xE0 ADD DUP9 DUP2 MSTORE POP DUP9 DUP2 MSTORE POP DUP9 DUP2 MSTORE POP DUP9 DUP2 MSTORE POP DUP9 DUP2 MSTORE POP DUP9 DUP2 MSTORE POP DUP9 DUP2 MSTORE POP DUP9 DUP2 MSTORE POP POP POP POP POP POP POP POP POP SWAP2 SWAP1 POP JUMP JUMPDEST PUSH1 0x0 DUP1 SLOAD SWAP1 PUSH2 0x100 EXP SWAP1 DIV PUSH20 0xFFFFFFFFFFFFFFFFFFFFFFFFFFFFFFFFFFFFFFFF AND DUP2 JUMP JUMPDEST PUSH1 0x2 PUSH1 0x0 SWAP1 SLOAD SWAP1 PUSH2 0x100 EXP SWAP1 DIV PUSH20 0xFFFFFFFFFFFFFFFFFFFFFFFFFFFFFFFFFFFFFFFF AND DUP2 JUMP JUMPDEST PUSH1 0x0 DUP1 SLOAD SWAP1 PUSH2 0x100 EXP SWAP1 DIV PUSH20 0xFFFFFFFFFFFFFFFFFFFFFFFFFFFFFFFFFFFFFFFF AND PUSH20 0xFFFFFFFFFFFFFFFFFFFFFFFFFFFFFFFFFFFFFFFF AND CALLER PUSH20 0xFFFFFFFFFFFFFFFFFFFFFFFFFFFFFFFFFFFFFFFF AND EQ PUSH2 0x5D3 JUMPI PUSH1 0x40 MLOAD PUSH32 0x8C379A000000000000000000000000000000000000000000000000000000000 DUP2 MSTORE PUSH1 0x4 ADD PUSH2 0x5CA SWAP1 PUSH2 0xB2F JUMP JUMPDEST PUSH1 0x40 MLOAD DUP1 SWAP2 SUB SWAP1 REVERT JUMPDEST DUP1 PUSH1 0x1 PUSH1 0x0 PUSH2 0x100 EXP DUP2 SLOAD DUP2 PUSH20 0xFFFFFFFFFFFFFFFFFFFFFFFFFFFFFFFFFFFFFFFF MUL NOT AND SWAP1 DUP4 PUSH20 0xFFFFFFFFFFFFFFFFFFFFFFFFFFFFFFFFFFFFFFFF AND MUL OR SWAP1 SSTORE POP POP JUMP JUMPDEST PUSH1 0x0 DUP1 SLOAD SWAP1 PUSH2 0x100 EXP SWAP1 DIV PUSH20 0xFFFFFFFFFFFFFFFFFFFFFFFFFFFFFFFFFFFFFFFF AND PUSH20 0xFFFFFFFFFFFFFFFFFFFFFFFFFFFFFFFFFFFFFFFF AND CALLER PUSH20 0xFFFFFFFFFFFFFFFFFFFFFFFFFFFFFFFFFFFFFFFF AND EQ PUSH2 0x6A5 JUMPI PUSH1 0x40 MLOAD PUSH32 0x8C379A000000000000000000000000000000000000000000000000000000000 DUP2 MSTORE PUSH1 0x4 ADD PUSH2 0x69C SWAP1 PUSH2 0xB2F JUMP JUMPDEST PUSH1 0x40 MLOAD DUP1 SWAP2 SUB SWAP1 REVERT JUMPDEST DUP1 PUSH1 0x0 DUP1 PUSH2 0x100 EXP DUP2 SLOAD DUP2 PUSH20 0xFFFFFFFFFFFFFFFFFFFFFFFFFFFFFFFFFFFFFFFF MUL NOT AND SWAP1 DUP4 PUSH20 0xFFFFFFFFFFFFFFFFFFFFFFFFFFFFFFFFFFFFFFFF AND MUL OR SWAP1 SSTORE POP POP JUMP JUMPDEST PUSH1 0x0 DUP1 SLOAD SWAP1 PUSH2 0x100 EXP SWAP1 DIV PUSH20 0xFFFFFFFFFFFFFFFFFFFFFFFFFFFFFFFFFFFFFFFF AND PUSH20 0xFFFFFFFFFFFFFFFFFFFFFFFFFFFFFFFFFFFFFFFF AND CALLER PUSH20 0xFFFFFFFFFFFFFFFFFFFFFFFFFFFFFFFFFFFFFFFF AND EQ PUSH2 0x776 JUMPI PUSH1 0x40 MLOAD PUSH32 0x8C379A000000000000000000000000000000000000000000000000000000000 DUP2 MSTORE PUSH1 0x4 ADD PUSH2 0x76D SWAP1 PUSH2 0xB2F JUMP JUMPDEST PUSH1 0x40 MLOAD DUP1 SWAP2 SUB SWAP1 REVERT JUMPDEST DUP1 PUSH1 0x2 PUSH1 0x0 PUSH2 0x100 EXP DUP2 SLOAD DUP2 PUSH20 0xFFFFFFFFFFFFFFFFFFFFFFFFFFFFFFFFFFFFFFFF MUL NOT AND SWAP1 DUP4 PUSH20 0xFFFFFFFFFFFFFFFFFFFFFFFFFFFFFFFFFFFFFFFF AND MUL OR SWAP1 SSTORE POP POP JUMP JUMPDEST PUSH1 0x40 MLOAD DUP1 PUSH1 0x40 ADD PUSH1 0x40 MSTORE DUP1 PUSH1 0x2 SWAP1 JUMPDEST PUSH2 0x7D1 PUSH2 0x7E7 JUMP JUMPDEST DUP2 MSTORE PUSH1 0x20 ADD SWAP1 PUSH1 0x1 SWAP1 SUB SWAP1 DUP2 PUSH2 0x7C9 JUMPI SWAP1 POP POP SWAP1 JUMP JUMPDEST PUSH1 0x40 MLOAD DUP1 PUSH2 0x100 ADD PUSH1 0x40 MSTORE DUP1 PUSH1 0x0 DUP2 MSTORE PUSH1 0x20 ADD PUSH1 0x0 DUP2 MSTORE PUSH1 0x20 ADD PUSH1 0x0 DUP2 MSTORE PUSH1 0x20 ADD PUSH1 0x0 DUP2 MSTORE PUSH1 0x20 ADD PUSH1 0x0 DUP2 MSTORE PUSH1 0x20 ADD PUSH1 0x0 DUP2 MSTORE PUSH1 0x20 ADD PUSH1 0x0 DUP2 MSTORE PUSH1 0x20 ADD PUSH1 0x0 DUP2 MSTORE POP SWAP1 JUMP JUMPDEST PUSH1 0x0 DUP2 CALLDATALOAD SWAP1 POP PUSH2 0x83B DUP2 PUSH2 0xC6E JUMP JUMPDEST SWAP3 SWAP2 POP POP JUMP JUMPDEST PUSH1 0x0 DUP2 CALLDATALOAD SWAP1 POP PUSH2 0x850 DUP2 PUSH2 0xC85 JUMP JUMPDEST SWAP3 SWAP2 POP POP JUMP JUMPDEST PUSH1 0x0 DUP2 MLOAD SWAP1 POP PUSH2 0x865 DUP2 PUSH2 0xC9C JUMP JUMPDEST SWAP3 SWAP2 POP POP JUMP JUMPDEST PUSH1 0x0 PUSH1 0x20 DUP3 DUP5 SUB SLT ISZERO PUSH2 0x881 JUMPI PUSH2 0x880 PUSH2 0xC40 JUMP JUMPDEST JUMPDEST PUSH1 0x0 PUSH2 0x88F DUP5 DUP3 DUP6 ADD PUSH2 0x82C JUMP JUMPDEST SWAP2 POP POP SWAP3 SWAP2 POP POP JUMP JUMPDEST PUSH1 0x0 PUSH1 0x20 DUP3 DUP5 SUB SLT ISZERO PUSH2 0x8AE JUMPI PUSH2 0x8AD PUSH2 0xC40 JUMP JUMPDEST JUMPDEST PUSH1 0x0 PUSH2 0x8BC DUP5 DUP3 DUP6 ADD PUSH2 0x841 JUMP JUMPDEST SWAP2 POP POP SWAP3 SWAP2 POP POP JUMP JUMPDEST PUSH1 0x0 DUP1 PUSH1 0x0 DUP1 PUSH1 0x0 DUP1 PUSH1 0x0 DUP1 PUSH2 0x100 DUP10 DUP12 SUB SLT ISZERO PUSH2 0x8E6 JUMPI PUSH2 0x8E5 PUSH2 0xC40 JUMP JUMPDEST JUMPDEST PUSH1 0x0 PUSH2 0x8F4 DUP12 DUP3 DUP13 ADD PUSH2 0x856 JUMP JUMPDEST SWAP9 POP POP PUSH1 0x20 PUSH2 0x905 DUP12 DUP3 DUP13 ADD PUSH2 0x856 JUMP JUMPDEST SWAP8 POP POP PUSH1 0x40 PUSH2 0x916 DUP12 DUP3 DUP13 ADD PUSH2 0x856 JUMP JUMPDEST SWAP7 POP POP PUSH1 0x60 PUSH2 0x927 DUP12 DUP3 DUP13 ADD PUSH2 0x856 JUMP JUMPDEST SWAP6 POP POP PUSH1 0x80 PUSH2 0x938 DUP12 DUP3 DUP13 ADD PUSH2 0x856 JUMP JUMPDEST SWAP5 POP POP PUSH1 0xA0 PUSH2 0x949 DUP12 DUP3 DUP13 ADD PUSH2 0x856 JUMP JUMPDEST SWAP4 POP POP PUSH1 0xC0 PUSH2 0x95A DUP12 DUP3 DUP13 ADD PUSH2 0x856 JUMP JUMPDEST SWAP3 POP POP PUSH1 0xE0 PUSH2 0x96B DUP12 DUP3 DUP13 ADD PUSH2 0x856 JUMP JUMPDEST SWAP2 POP POP SWAP3 SWAP6 SWAP9 POP SWAP3 SWAP6 SWAP9 SWAP1 SWAP4 SWAP7 POP JUMP JUMPDEST PUSH1 0x0 PUSH2 0x987 DUP4 DUP4 PUSH2 0xA2C JUMP JUMPDEST PUSH2 0x100 DUP4 ADD SWAP1 POP SWAP3 SWAP2 POP POP JUMP JUMPDEST PUSH2 0x99D DUP2 PUSH2 0xB8D JUMP JUMPDEST DUP3 MSTORE POP POP JUMP JUMPDEST PUSH2 0x9AC DUP2 PUSH2 0xB59 JUMP JUMPDEST PUSH2 0x9B6 DUP2 DUP5 PUSH2 0xB71 JUMP JUMPDEST SWAP3 POP PUSH2 0x9C1 DUP3 PUSH2 0xB4F JUMP JUMPDEST DUP1 PUSH1 0x0 JUMPDEST DUP4 DUP2 LT ISZERO PUSH2 0x9F2 JUMPI DUP2 MLOAD PUSH2 0x9D9 DUP8 DUP3 PUSH2 0x97B JUMP JUMPDEST SWAP7 POP PUSH2 0x9E4 DUP4 PUSH2 0xB64 JUMP JUMPDEST SWAP3 POP POP PUSH1 0x1 DUP2 ADD SWAP1 POP PUSH2 0x9C5 JUMP JUMPDEST POP POP POP POP POP POP JUMP JUMPDEST PUSH2 0xA03 DUP2 PUSH2 0xBDB JUMP JUMPDEST DUP3 MSTORE POP POP JUMP JUMPDEST PUSH1 0x0 PUSH2 0xA16 PUSH1 0x12 DUP4 PUSH2 0xB7C JUMP JUMPDEST SWAP2 POP PUSH2 0xA21 DUP3 PUSH2 0xC45 JUMP JUMPDEST PUSH1 0x20 DUP3 ADD SWAP1 POP SWAP2 SWAP1 POP JUMP JUMPDEST PUSH2 0x100 DUP3 ADD PUSH1 0x0 DUP3 ADD MLOAD PUSH2 0xA43 PUSH1 0x0 DUP6 ADD DUP3 PUSH2 0xACE JUMP JUMPDEST POP PUSH1 0x20 DUP3 ADD MLOAD PUSH2 0xA56 PUSH1 0x20 DUP6 ADD DUP3 PUSH2 0xACE JUMP JUMPDEST POP PUSH1 0x40 DUP3 ADD MLOAD PUSH2 0xA69 PUSH1 0x40 DUP6 ADD DUP3 PUSH2 0xACE JUMP JUMPDEST POP PUSH1 0x60 DUP3 ADD MLOAD PUSH2 0xA7C PUSH1 0x60 DUP6 ADD DUP3 PUSH2 0xACE JUMP JUMPDEST POP PUSH1 0x80 DUP3 ADD MLOAD PUSH2 0xA8F PUSH1 0x80 DUP6 ADD DUP3 PUSH2 0xACE JUMP JUMPDEST POP PUSH1 0xA0 DUP3 ADD MLOAD PUSH2 0xAA2 PUSH1 0xA0 DUP6 ADD DUP3 PUSH2 0xACE JUMP JUMPDEST POP PUSH1 0xC0 DUP3 ADD MLOAD PUSH2 0xAB5 PUSH1 0xC0 DUP6 ADD DUP3 PUSH2 0xACE JUMP JUMPDEST POP PUSH1 0xE0 DUP3 ADD MLOAD PUSH2 0xAC8 PUSH1 0xE0 DUP6 ADD DUP3 PUSH2 0xACE JUMP JUMPDEST POP POP POP POP JUMP JUMPDEST PUSH2 0xAD7 DUP2 PUSH2 0xBD1 JUMP JUMPDEST DUP3 MSTORE POP POP JUMP JUMPDEST PUSH1 0x0 PUSH1 0x20 DUP3 ADD SWAP1 POP PUSH2 0xAF2 PUSH1 0x0 DUP4 ADD DUP5 PUSH2 0x994 JUMP JUMPDEST SWAP3 SWAP2 POP POP JUMP JUMPDEST PUSH1 0x0 PUSH2 0x200 DUP3 ADD SWAP1 POP PUSH2 0xB0E PUSH1 0x0 DUP4 ADD DUP5 PUSH2 0x9A3 JUMP JUMPDEST SWAP3 SWAP2 POP POP JUMP JUMPDEST PUSH1 0x0 PUSH1 0x20 DUP3 ADD SWAP1 POP PUSH2 0xB29 PUSH1 0x0 DUP4 ADD DUP5 PUSH2 0x9FA JUMP JUMPDEST SWAP3 SWAP2 POP POP JUMP JUMPDEST PUSH1 0x0 PUSH1 0x20 DUP3 ADD SWAP1 POP DUP2 DUP2 SUB PUSH1 0x0 DUP4 ADD MSTORE PUSH2 0xB48 DUP2 PUSH2 0xA09 JUMP JUMPDEST SWAP1 POP SWAP2 SWAP1 POP JUMP JUMPDEST PUSH1 0x0 DUP2 SWAP1 POP SWAP2 SWAP1 POP JUMP JUMPDEST PUSH1 0x0 PUSH1 0x2 SWAP1 POP SWAP2 SWAP1 POP JUMP JUMPDEST PUSH1 0x0 PUSH1 0x20 DUP3 ADD SWAP1 POP SWAP2 SWAP1 POP JUMP JUMPDEST PUSH1 0x0 DUP2 SWAP1 POP SWAP3 SWAP2 POP POP JUMP JUMPDEST PUSH1 0x0 DUP3 DUP3 MSTORE PUSH1 0x20 DUP3 ADD SWAP1 POP SWAP3 SWAP2 POP POP JUMP JUMPDEST PUSH1 0x0 PUSH2 0xB98 DUP3 PUSH2 0xBB1 JUMP JUMPDEST SWAP1 POP SWAP2 SWAP1 POP JUMP JUMPDEST PUSH1 0x0 PUSH2 0xBAA DUP3 PUSH2 0xB8D JUMP JUMPDEST SWAP1 POP SWAP2 SWAP1 POP JUMP JUMPDEST PUSH1 0x0 PUSH20 0xFFFFFFFFFFFFFFFFFFFFFFFFFFFFFFFFFFFFFFFF DUP3 AND SWAP1 POP SWAP2 SWAP1 POP JUMP JUMPDEST PUSH1 0x0 DUP2 SWAP1 POP SWAP2 SWAP1 POP JUMP JUMPDEST PUSH1 0x0 PUSH2 0xBE6 DUP3 PUSH2 0xBED JUMP JUMPDEST SWAP1 POP SWAP2 SWAP1 POP JUMP JUMPDEST PUSH1 0x0 PUSH2 0xBF8 DUP3 PUSH2 0xBFF JUMP JUMPDEST SWAP1 POP SWAP2 SWAP1 POP JUMP JUMPDEST PUSH1 0x0 PUSH2 0xC0A DUP3 PUSH2 0xBB1 JUMP JUMPDEST SWAP1 POP SWAP2 SWAP1 POP JUMP JUMPDEST PUSH32 0x4E487B7100000000000000000000000000000000000000000000000000000000 PUSH1 0x0 MSTORE PUSH1 0x32 PUSH1 0x4 MSTORE PUSH1 0x24 PUSH1 0x0 REVERT JUMPDEST PUSH1 0x0 DUP1 REVERT JUMPDEST PUSH32 0x494E56414C49445F5045524D495353494F4E0000000000000000000000000000 PUSH1 0x0 DUP3 ADD MSTORE POP JUMP JUMPDEST PUSH2 0xC77 DUP2 PUSH2 0xB8D JUMP JUMPDEST DUP2 EQ PUSH2 0xC82 JUMPI PUSH1 0x0 DUP1 REVERT JUMPDEST POP JUMP JUMPDEST PUSH2 0xC8E DUP2 PUSH2 0xB9F JUMP JUMPDEST DUP2 EQ PUSH2 0xC99 JUMPI PUSH1 0x0 DUP1 REVERT JUMPDEST POP JUMP JUMPDEST PUSH2 0xCA5 DUP2 PUSH2 0xBD1 JUMP JUMPDEST DUP2 EQ PUSH2 0xCB0 JUMPI PUSH1 0x0 DUP1 REVERT JUMPDEST POP JUMP INVALID LOG2 PUSH5 0x6970667358 0x22 SLT KECCAK256 0xA6 PUSH4 0x95E8F615 GT 0xD1 ADDMOD 0xD2 0x2B PUSH24 0xA9952C14BDFC322A3662AB3591C6F0933D14130A64736F6C PUSH4 0x43000807 STOP CALLER "
				},
				"gasEstimates": {
					"creation": {
						"codeDepositCost": "661000",
						"executionCost": "infinite",
						"totalCost": "infinite"
					},
					"external": {
						"ContractPrivateSale()": "2601",
						"ContractPublicSale()": "2600",
						"getData(address)": "infinite",
						"owner()": "2556",
						"setContractPrivateSale(address)": "26954",
						"setContractPublicSale(address)": "26998",
						"transferOwnership(address)": "26933"
					}
				},
				"methodIdentifiers": {
					"ContractPrivateSale()": "1cbcd1a8",
					"ContractPublicSale()": "af566cb4",
					"getData(address)": "38266b22",
					"owner()": "8da5cb5b",
					"setContractPrivateSale(address)": "ce9a0625",
					"setContractPublicSale(address)": "fda18656",
					"transferOwnership(address)": "f2fde38b"
				}
			},
			"storageLayout": {
				"storage": [
					{
						"astId": 25,
						"contract": "contracts/ProtocolLaunchData.sol:ProtocolLaunchData",
						"label": "owner",
						"offset": 0,
						"slot": "0",
						"type": "t_address"
					},
					{
						"astId": 45,
						"contract": "contracts/ProtocolLaunchData.sol:ProtocolLaunchData",
						"label": "ContractPrivateSale",
						"offset": 0,
						"slot": "1",
						"type": "t_contract(ISaleLaunch)23"
					},
					{
						"astId": 48,
						"contract": "contracts/ProtocolLaunchData.sol:ProtocolLaunchData",
						"label": "ContractPublicSale",
						"offset": 0,
						"slot": "2",
						"type": "t_contract(ISaleLaunch)23"
					}
				],
				"types": {
					"t_address": {
						"encoding": "inplace",
						"label": "address",
						"numberOfBytes": "20"
					},
					"t_contract(ISaleLaunch)23": {
						"encoding": "inplace",
						"label": "contract ISaleLaunch",
						"numberOfBytes": "20"
					}
				}
			},
			"userdoc": {
				"kind": "user",
				"methods": {
					"getData(address)": {
						"notice": "data_[0] private sale data_[1] public sale"
					}
				},
				"version": 1
			}
		}
	}
}