{
	"contracts/ProtocolLiquidityLaunch.sol": {
		"ProtocolLiquidityLaunch": {
			"abi": [
				{
					"inputs": [
						{
							"internalType": "contract IERC20",
							"name": "_gar",
							"type": "address"
						}
					],
					"stateMutability": "nonpayable",
					"type": "constructor"
				},
				{
					"anonymous": false,
					"inputs": [
						{
							"indexed": false,
							"internalType": "address",
							"name": "_user",
							"type": "address"
						},
						{
							"indexed": false,
							"internalType": "uint256",
							"name": "_payAmt",
							"type": "uint256"
						},
						{
							"indexed": false,
							"internalType": "uint256",
							"name": "_refundAmt",
							"type": "uint256"
						},
						{
							"indexed": false,
							"internalType": "uint256",
							"name": "_garReceive",
							"type": "uint256"
						}
					],
					"name": "onBuy",
					"type": "event"
				},
				{
					"inputs": [],
					"name": "ENABLE",
					"outputs": [
						{
							"internalType": "bool",
							"name": "",
							"type": "bool"
						}
					],
					"stateMutability": "view",
					"type": "function"
				},
				{
					"inputs": [],
					"name": "GAR",
					"outputs": [
						{
							"internalType": "contract IERC20",
							"name": "",
							"type": "address"
						}
					],
					"stateMutability": "view",
					"type": "function"
				},
				{
					"inputs": [],
					"name": "HARD_CAP_PER_USER",
					"outputs": [
						{
							"internalType": "uint256",
							"name": "",
							"type": "uint256"
						}
					],
					"stateMutability": "view",
					"type": "function"
				},
				{
					"inputs": [],
					"name": "VERSION",
					"outputs": [
						{
							"internalType": "uint8",
							"name": "",
							"type": "uint8"
						}
					],
					"stateMutability": "view",
					"type": "function"
				},
				{
					"inputs": [],
					"name": "buy",
					"outputs": [],
					"stateMutability": "payable",
					"type": "function"
				},
				{
					"inputs": [],
					"name": "disable",
					"outputs": [],
					"stateMutability": "nonpayable",
					"type": "function"
				},
				{
					"inputs": [],
					"name": "emergencyWithdraw",
					"outputs": [],
					"stateMutability": "nonpayable",
					"type": "function"
				},
				{
					"inputs": [],
					"name": "enable",
					"outputs": [],
					"stateMutability": "nonpayable",
					"type": "function"
				},
				{
					"inputs": [
						{
							"internalType": "address",
							"name": "_user",
							"type": "address"
						}
					],
					"name": "getData",
					"outputs": [
						{
							"internalType": "uint256[8]",
							"name": "data_",
							"type": "uint256[8]"
						}
					],
					"stateMutability": "view",
					"type": "function"
				},
				{
					"inputs": [],
					"name": "getETHBalance",
					"outputs": [
						{
							"internalType": "uint256",
							"name": "",
							"type": "uint256"
						}
					],
					"stateMutability": "view",
					"type": "function"
				},
				{
					"inputs": [
						{
							"internalType": "address",
							"name": "_user",
							"type": "address"
						}
					],
					"name": "getMaxBuyOf",
					"outputs": [
						{
							"internalType": "uint256",
							"name": "",
							"type": "uint256"
						}
					],
					"stateMutability": "view",
					"type": "function"
				},
				{
					"inputs": [],
					"name": "moveFund",
					"outputs": [],
					"stateMutability": "nonpayable",
					"type": "function"
				},
				{
					"inputs": [],
					"name": "owner",
					"outputs": [
						{
							"internalType": "address",
							"name": "",
							"type": "address"
						}
					],
					"stateMutability": "view",
					"type": "function"
				},
				{
					"inputs": [],
					"name": "salePrice",
					"outputs": [
						{
							"internalType": "uint256",
							"name": "",
							"type": "uint256"
						}
					],
					"stateMutability": "view",
					"type": "function"
				},
				{
					"inputs": [
						{
							"internalType": "contract IERC20",
							"name": "_gar",
							"type": "address"
						}
					],
					"name": "setGARToken",
					"outputs": [],
					"stateMutability": "nonpayable",
					"type": "function"
				},
				{
					"inputs": [
						{
							"internalType": "uint256",
							"name": "_value",
							"type": "uint256"
						}
					],
					"name": "setHardCapPerUser",
					"outputs": [],
					"stateMutability": "nonpayable",
					"type": "function"
				},
				{
					"inputs": [
						{
							"internalType": "uint256",
							"name": "_value",
							"type": "uint256"
						}
					],
					"name": "setSalePrice",
					"outputs": [],
					"stateMutability": "nonpayable",
					"type": "function"
				},
				{
					"inputs": [
						{
							"internalType": "uint256",
							"name": "_totalSale",
							"type": "uint256"
						}
					],
					"name": "setTotalSale",
					"outputs": [],
					"stateMutability": "nonpayable",
					"type": "function"
				},
				{
					"inputs": [
						{
							"internalType": "address",
							"name": "",
							"type": "address"
						}
					],
					"name": "totalBoughtOf",
					"outputs": [
						{
							"internalType": "uint256",
							"name": "",
							"type": "uint256"
						}
					],
					"stateMutability": "view",
					"type": "function"
				},
				{
					"inputs": [],
					"name": "totalPurchased",
					"outputs": [
						{
							"internalType": "uint256",
							"name": "",
							"type": "uint256"
						}
					],
					"stateMutability": "view",
					"type": "function"
				},
				{
					"inputs": [],
					"name": "totalSale",
					"outputs": [
						{
							"internalType": "uint256",
							"name": "",
							"type": "uint256"
						}
					],
					"stateMutability": "view",
					"type": "function"
				},
				{
					"inputs": [
						{
							"internalType": "address",
							"name": "_newOwner",
							"type": "address"
						}
					],
					"name": "transferOwnership",
					"outputs": [],
					"stateMutability": "nonpayable",
					"type": "function"
				},
				{
					"stateMutability": "payable",
					"type": "receive"
				}
			],
			"devdoc": {
				"kind": "dev",
				"methods": {},
				"version": 1
			},
			"evm": {
				"assembly": "    /* \"contracts/ProtocolLiquidityLaunch.sol\":8494:12996  contract ProtocolLiquidityLaunch {... */\n  mstore(0x40, 0x80)\n    /* \"contracts/ProtocolLiquidityLaunch.sol\":8556:8559  100 */\n  0x64\n    /* \"contracts/ProtocolLiquidityLaunch.sol\":8533:8559  uint8 public VERSION = 100 */\n  0x00\n  dup1\n  0x0100\n  exp\n  dup2\n  sload\n  dup2\n  0xff\n  mul\n  not\n  and\n  swap1\n  dup4\n  0xff\n  and\n  mul\n  or\n  swap1\n  sstore\n  pop\n    /* \"contracts/ProtocolLiquidityLaunch.sol\":8680:8684  1e15 */\n  0x038d7ea4c68000\n    /* \"contracts/ProtocolLiquidityLaunch.sol\":8653:8684  uint256 public salePrice = 1e15 */\n  0x02\n  sstore\n    /* \"contracts/ProtocolLiquidityLaunch.sol\":8738:8747  50 * 1e27 */\n  0xa18f07d736b90be550000000\n    /* \"contracts/ProtocolLiquidityLaunch.sol\":8711:8747  uint256 public totalSale = 50 * 1e27 */\n  0x03\n  sstore\n    /* \"contracts/ProtocolLiquidityLaunch.sol\":8796:8797  0 */\n  0x00\n    /* \"contracts/ProtocolLiquidityLaunch.sol\":8764:8797  uint256 public totalPurchased = 0 */\n  0x04\n  sstore\n    /* \"contracts/ProtocolLiquidityLaunch.sol\":8825:8829  true */\n  0x01\n    /* \"contracts/ProtocolLiquidityLaunch.sol\":8804:8829  bool public ENABLE = true */\n  0x05\n  exp(0x0100, 0x00)\n  dup2\n  sload\n  dup2\n  0xff\n  mul\n  not\n  and\n  swap1\n  dup4\n  iszero\n  iszero\n  mul\n  or\n  swap1\n  sstore\n  pop\n    /* \"contracts/ProtocolLiquidityLaunch.sol\":8874:8884  120 * 1e24 */\n  0x6342fd08f00f6378000000\n    /* \"contracts/ProtocolLiquidityLaunch.sol\":8839:8884  uint256 public HARD_CAP_PER_USER = 120 * 1e24 */\n  0x06\n  sstore\n    /* \"contracts/ProtocolLiquidityLaunch.sol\":9264:9359  constructor(... */\n  callvalue\n  dup1\n  iszero\n  tag_1\n  jumpi\n  0x00\n  dup1\n  revert\ntag_1:\n  pop\n  mload(0x40)\n  sub(codesize, bytecodeSize)\n  dup1\n  bytecodeSize\n  dup4\n  codecopy\n  dup2\n  dup2\n  add\n  0x40\n  mstore\n  dup2\n  add\n  swap1\n  tag_2\n  swap2\n  swap1\n  tag_3\n  jump\t// in\ntag_2:\n    /* \"contracts/ProtocolLiquidityLaunch.sol\":9319:9323  _gar */\n  dup1\n    /* \"contracts/ProtocolLiquidityLaunch.sol\":9313:9316  GAR */\n  0x01\n  0x00\n    /* \"contracts/ProtocolLiquidityLaunch.sol\":9313:9323  GAR = _gar */\n  0x0100\n  exp\n  dup2\n  sload\n  dup2\n  0xffffffffffffffffffffffffffffffffffffffff\n  mul\n  not\n  and\n  swap1\n  dup4\n  0xffffffffffffffffffffffffffffffffffffffff\n  and\n  mul\n  or\n  swap1\n  sstore\n  pop\n    /* \"contracts/ProtocolLiquidityLaunch.sol\":9342:9352  msg.sender */\n  caller\n    /* \"contracts/ProtocolLiquidityLaunch.sol\":9334:9339  owner */\n  0x00\n  0x01\n    /* \"contracts/ProtocolLiquidityLaunch.sol\":9334:9352  owner = msg.sender */\n  0x0100\n  exp\n  dup2\n  sload\n  dup2\n  0xffffffffffffffffffffffffffffffffffffffff\n  mul\n  not\n  and\n  swap1\n  dup4\n  0xffffffffffffffffffffffffffffffffffffffff\n  and\n  mul\n  or\n  swap1\n  sstore\n  pop\n    /* \"contracts/ProtocolLiquidityLaunch.sol\":9264:9359  constructor(... */\n  pop\n    /* \"contracts/ProtocolLiquidityLaunch.sol\":8494:12996  contract ProtocolLiquidityLaunch {... */\n  jump(tag_6)\n    /* \"#utility.yul\":7:178   */\ntag_8:\n    /* \"#utility.yul\":78:83   */\n  0x00\n    /* \"#utility.yul\":109:115   */\n  dup2\n    /* \"#utility.yul\":103:116   */\n  mload\n    /* \"#utility.yul\":94:116   */\n  swap1\n  pop\n    /* \"#utility.yul\":125:172   */\n  tag_10\n    /* \"#utility.yul\":166:171   */\n  dup2\n    /* \"#utility.yul\":125:172   */\n  tag_11\n  jump\t// in\ntag_10:\n    /* \"#utility.yul\":7:178   */\n  swap3\n  swap2\n  pop\n  pop\n  jump\t// out\n    /* \"#utility.yul\":184:563   */\ntag_3:\n    /* \"#utility.yul\":268:274   */\n  0x00\n    /* \"#utility.yul\":317:319   */\n  0x20\n    /* \"#utility.yul\":305:314   */\n  dup3\n    /* \"#utility.yul\":296:303   */\n  dup5\n    /* \"#utility.yul\":292:315   */\n  sub\n    /* \"#utility.yul\":288:320   */\n  slt\n    /* \"#utility.yul\":285:404   */\n  iszero\n  tag_13\n  jumpi\n    /* \"#utility.yul\":323:402   */\n  tag_14\n  tag_15\n  jump\t// in\ntag_14:\n    /* \"#utility.yul\":285:404   */\ntag_13:\n    /* \"#utility.yul\":443:444   */\n  0x00\n    /* \"#utility.yul\":468:546   */\n  tag_16\n    /* \"#utility.yul\":538:545   */\n  dup5\n    /* \"#utility.yul\":529:535   */\n  dup3\n    /* \"#utility.yul\":518:527   */\n  dup6\n    /* \"#utility.yul\":514:536   */\n  add\n    /* \"#utility.yul\":468:546   */\n  tag_8\n  jump\t// in\ntag_16:\n    /* \"#utility.yul\":458:546   */\n  swap2\n  pop\n    /* \"#utility.yul\":414:556   */\n  pop\n    /* \"#utility.yul\":184:563   */\n  swap3\n  swap2\n  pop\n  pop\n  jump\t// out\n    /* \"#utility.yul\":650:746   */\ntag_19:\n    /* \"#utility.yul\":687:694   */\n  0x00\n    /* \"#utility.yul\":716:740   */\n  tag_21\n    /* \"#utility.yul\":734:739   */\n  dup3\n    /* \"#utility.yul\":716:740   */\n  tag_22\n  jump\t// in\ntag_21:\n    /* \"#utility.yul\":705:740   */\n  swap1\n  pop\n    /* \"#utility.yul\":650:746   */\n  swap2\n  swap1\n  pop\n  jump\t// out\n    /* \"#utility.yul\":752:862   */\ntag_23:\n    /* \"#utility.yul\":803:810   */\n  0x00\n    /* \"#utility.yul\":832:856   */\n  tag_25\n    /* \"#utility.yul\":850:855   */\n  dup3\n    /* \"#utility.yul\":832:856   */\n  tag_19\n  jump\t// in\ntag_25:\n    /* \"#utility.yul\":821:856   */\n  swap1\n  pop\n    /* \"#utility.yul\":752:862   */\n  swap2\n  swap1\n  pop\n  jump\t// out\n    /* \"#utility.yul\":868:994   */\ntag_22:\n    /* \"#utility.yul\":905:912   */\n  0x00\n    /* \"#utility.yul\":945:987   */\n  0xffffffffffffffffffffffffffffffffffffffff\n    /* \"#utility.yul\":938:943   */\n  dup3\n    /* \"#utility.yul\":934:988   */\n  and\n    /* \"#utility.yul\":923:988   */\n  swap1\n  pop\n    /* \"#utility.yul\":868:994   */\n  swap2\n  swap1\n  pop\n  jump\t// out\n    /* \"#utility.yul\":1123:1240   */\ntag_15:\n    /* \"#utility.yul\":1232:1233   */\n  0x00\n    /* \"#utility.yul\":1229:1230   */\n  dup1\n    /* \"#utility.yul\":1222:1234   */\n  revert\n    /* \"#utility.yul\":1246:1396   */\ntag_11:\n    /* \"#utility.yul\":1333:1371   */\n  tag_31\n    /* \"#utility.yul\":1365:1370   */\n  dup2\n    /* \"#utility.yul\":1333:1371   */\n  tag_23\n  jump\t// in\ntag_31:\n    /* \"#utility.yul\":1326:1331   */\n  dup2\n    /* \"#utility.yul\":1323:1372   */\n  eq\n    /* \"#utility.yul\":1313:1390   */\n  tag_32\n  jumpi\n    /* \"#utility.yul\":1386:1387   */\n  0x00\n    /* \"#utility.yul\":1383:1384   */\n  dup1\n    /* \"#utility.yul\":1376:1388   */\n  revert\n    /* \"#utility.yul\":1313:1390   */\ntag_32:\n    /* \"#utility.yul\":1246:1396   */\n  pop\n  jump\t// out\n    /* \"contracts/ProtocolLiquidityLaunch.sol\":8494:12996  contract ProtocolLiquidityLaunch {... */\ntag_6:\n  dataSize(sub_0)\n  dup1\n  dataOffset(sub_0)\n  0x00\n  codecopy\n  0x00\n  return\nstop\n\nsub_0: assembly {\n        /* \"contracts/ProtocolLiquidityLaunch.sol\":8494:12996  contract ProtocolLiquidityLaunch {... */\n      mstore(0x40, 0x80)\n      jumpi(tag_1, lt(calldatasize, 0x04))\n      shr(0xe0, calldataload(0x00))\n      dup1\n      0xa2b0106b\n      gt\n      tag_25\n      jumpi\n      dup1\n      0xdb2e21bc\n      gt\n      tag_26\n      jumpi\n      dup1\n      0xdb2e21bc\n      eq\n      tag_19\n      jumpi\n      dup1\n      0xe632c2f3\n      eq\n      tag_20\n      jumpi\n      dup1\n      0xea4ce239\n      eq\n      tag_21\n      jumpi\n      dup1\n      0xf2fde38b\n      eq\n      tag_22\n      jumpi\n      dup1\n      0xf51f96dd\n      eq\n      tag_23\n      jumpi\n      dup1\n      0xffa1ad74\n      eq\n      tag_24\n      jumpi\n      jump(tag_2)\n    tag_26:\n      dup1\n      0xa2b0106b\n      eq\n      tag_14\n      jumpi\n      dup1\n      0xa3907d71\n      eq\n      tag_15\n      jumpi\n      dup1\n      0xa6f2ae3a\n      eq\n      tag_16\n      jumpi\n      dup1\n      0xbcaaf662\n      eq\n      tag_17\n      jumpi\n      dup1\n      0xda769176\n      eq\n      tag_18\n      jumpi\n      jump(tag_2)\n    tag_25:\n      dup1\n      0x4f079f57\n      gt\n      tag_27\n      jumpi\n      dup1\n      0x4f079f57\n      eq\n      tag_8\n      jumpi\n      dup1\n      0x50c19c0b\n      eq\n      tag_9\n      jumpi\n      dup1\n      0x6e947298\n      eq\n      tag_10\n      jumpi\n      dup1\n      0x8da5cb5b\n      eq\n      tag_11\n      jumpi\n      dup1\n      0x90c8dd17\n      eq\n      tag_12\n      jumpi\n      dup1\n      0x92f6386a\n      eq\n      tag_13\n      jumpi\n      jump(tag_2)\n    tag_27:\n      dup1\n      0x1919fed7\n      eq\n      tag_3\n      jumpi\n      dup1\n      0x2f2770db\n      eq\n      tag_4\n      jumpi\n      dup1\n      0x36a22e14\n      eq\n      tag_5\n      jumpi\n      dup1\n      0x38266b22\n      eq\n      tag_6\n      jumpi\n      dup1\n      0x4a860104\n      eq\n      tag_7\n      jumpi\n      jump(tag_2)\n    tag_1:\n      jumpi(tag_2, calldatasize)\n      stop\n    tag_2:\n      0x00\n      dup1\n      revert\n        /* \"contracts/ProtocolLiquidityLaunch.sol\":9795:9886  function setSalePrice(uint256 _value) public onlyOwner {... */\n    tag_3:\n      callvalue\n      dup1\n      iszero\n      tag_30\n      jumpi\n      0x00\n      dup1\n      revert\n    tag_30:\n      pop\n      tag_31\n      0x04\n      dup1\n      calldatasize\n      sub\n      dup2\n      add\n      swap1\n      tag_32\n      swap2\n      swap1\n      tag_33\n      jump\t// in\n    tag_32:\n      tag_34\n      jump\t// in\n    tag_31:\n      stop\n        /* \"contracts/ProtocolLiquidityLaunch.sol\":9470:9537  function disable() public onlyOwner {... */\n    tag_4:\n      callvalue\n      dup1\n      iszero\n      tag_35\n      jumpi\n      0x00\n      dup1\n      revert\n    tag_35:\n      pop\n      tag_36\n      tag_37\n      jump\t// in\n    tag_36:\n      stop\n        /* \"contracts/ProtocolLiquidityLaunch.sol\":11320:11500  function moveFund() public onlyOwner {... */\n    tag_5:\n      callvalue\n      dup1\n      iszero\n      tag_38\n      jumpi\n      0x00\n      dup1\n      revert\n    tag_38:\n      pop\n      tag_39\n      tag_40\n      jump\t// in\n    tag_39:\n      stop\n        /* \"contracts/ProtocolLiquidityLaunch.sol\":12611:12991  function getData(address _user) public view returns(uint256[8] memory data_) {... */\n    tag_6:\n      callvalue\n      dup1\n      iszero\n      tag_41\n      jumpi\n      0x00\n      dup1\n      revert\n    tag_41:\n      pop\n      tag_42\n      0x04\n      dup1\n      calldatasize\n      sub\n      dup2\n      add\n      swap1\n      tag_43\n      swap2\n      swap1\n      tag_44\n      jump\t// in\n    tag_43:\n      tag_45\n      jump\t// in\n    tag_42:\n      mload(0x40)\n      tag_46\n      swap2\n      swap1\n      tag_47\n      jump\t// in\n    tag_46:\n      mload(0x40)\n      dup1\n      swap2\n      sub\n      swap1\n      return\n        /* \"contracts/ProtocolLiquidityLaunch.sol\":9892:9990  function setTotalSale(uint256 _totalSale) public onlyOwner {... */\n    tag_7:\n      callvalue\n      dup1\n      iszero\n      tag_48\n      jumpi\n      0x00\n      dup1\n      revert\n    tag_48:\n      pop\n      tag_49\n      0x04\n      dup1\n      calldatasize\n      sub\n      dup2\n      add\n      swap1\n      tag_50\n      swap2\n      swap1\n      tag_33\n      jump\t// in\n    tag_50:\n      tag_51\n      jump\t// in\n    tag_49:\n      stop\n        /* \"contracts/ProtocolLiquidityLaunch.sol\":9646:9789  function setGARToken(IERC20 _gar) public onlyOwner {... */\n    tag_8:\n      callvalue\n      dup1\n      iszero\n      tag_52\n      jumpi\n      0x00\n      dup1\n      revert\n    tag_52:\n      pop\n      tag_53\n      0x04\n      dup1\n      calldatasize\n      sub\n      dup2\n      add\n      swap1\n      tag_54\n      swap2\n      swap1\n      tag_55\n      jump\t// in\n    tag_54:\n      tag_56\n      jump\t// in\n    tag_53:\n      stop\n        /* \"contracts/ProtocolLiquidityLaunch.sol\":8839:8884  uint256 public HARD_CAP_PER_USER = 120 * 1e24 */\n    tag_9:\n      callvalue\n      dup1\n      iszero\n      tag_57\n      jumpi\n      0x00\n      dup1\n      revert\n    tag_57:\n      pop\n      tag_58\n      tag_59\n      jump\t// in\n    tag_58:\n      mload(0x40)\n      tag_60\n      swap2\n      swap1\n      tag_61\n      jump\t// in\n    tag_60:\n      mload(0x40)\n      dup1\n      swap2\n      sub\n      swap1\n      return\n        /* \"contracts/ProtocolLiquidityLaunch.sol\":12181:12280  function getETHBalance() public view returns(uint256) {... */\n    tag_10:\n      callvalue\n      dup1\n      iszero\n      tag_62\n      jumpi\n      0x00\n      dup1\n      revert\n    tag_62:\n      pop\n      tag_63\n      tag_64\n      jump\t// in\n    tag_63:\n      mload(0x40)\n      tag_65\n      swap2\n      swap1\n      tag_61\n      jump\t// in\n    tag_65:\n      mload(0x40)\n      dup1\n      swap2\n      sub\n      swap1\n      return\n        /* \"contracts/ProtocolLiquidityLaunch.sol\":8602:8622  address public owner */\n    tag_11:\n      callvalue\n      dup1\n      iszero\n      tag_66\n      jumpi\n      0x00\n      dup1\n      revert\n    tag_66:\n      pop\n      tag_67\n      tag_68\n      jump\t// in\n    tag_67:\n      mload(0x40)\n      tag_69\n      swap2\n      swap1\n      tag_70\n      jump\t// in\n    tag_69:\n      mload(0x40)\n      dup1\n      swap2\n      sub\n      swap1\n      return\n        /* \"contracts/ProtocolLiquidityLaunch.sol\":11694:12171  function getMaxBuyOf(address _user) public view returns(uint256) {... */\n    tag_12:\n      callvalue\n      dup1\n      iszero\n      tag_71\n      jumpi\n      0x00\n      dup1\n      revert\n    tag_71:\n      pop\n      tag_72\n      0x04\n      dup1\n      calldatasize\n      sub\n      dup2\n      add\n      swap1\n      tag_73\n      swap2\n      swap1\n      tag_44\n      jump\t// in\n    tag_73:\n      tag_74\n      jump\t// in\n    tag_72:\n      mload(0x40)\n      tag_75\n      swap2\n      swap1\n      tag_61\n      jump\t// in\n    tag_75:\n      mload(0x40)\n      dup1\n      swap2\n      sub\n      swap1\n      return\n        /* \"contracts/ProtocolLiquidityLaunch.sol\":8804:8829  bool public ENABLE = true */\n    tag_13:\n      callvalue\n      dup1\n      iszero\n      tag_76\n      jumpi\n      0x00\n      dup1\n      revert\n    tag_76:\n      pop\n      tag_77\n      tag_78\n      jump\t// in\n    tag_77:\n      mload(0x40)\n      tag_79\n      swap2\n      swap1\n      tag_80\n      jump\t// in\n    tag_79:\n      mload(0x40)\n      dup1\n      swap2\n      sub\n      swap1\n      return\n        /* \"contracts/ProtocolLiquidityLaunch.sol\":9996:10099  function setHardCapPerUser(uint256 _value) public onlyOwner {... */\n    tag_14:\n      callvalue\n      dup1\n      iszero\n      tag_81\n      jumpi\n      0x00\n      dup1\n      revert\n    tag_81:\n      pop\n      tag_82\n      0x04\n      dup1\n      calldatasize\n      sub\n      dup2\n      add\n      swap1\n      tag_83\n      swap2\n      swap1\n      tag_33\n      jump\t// in\n    tag_83:\n      tag_84\n      jump\t// in\n    tag_82:\n      stop\n        /* \"contracts/ProtocolLiquidityLaunch.sol\":9400:9465  function enable() public onlyOwner {... */\n    tag_15:\n      callvalue\n      dup1\n      iszero\n      tag_85\n      jumpi\n      0x00\n      dup1\n      revert\n    tag_85:\n      pop\n      tag_86\n      tag_87\n      jump\t// in\n    tag_86:\n      stop\n        /* \"contracts/ProtocolLiquidityLaunch.sol\":10105:11314  function buy() public payable onlyWhitelisted {... */\n    tag_16:\n      tag_88\n      tag_89\n      jump\t// in\n    tag_88:\n      stop\n        /* \"contracts/ProtocolLiquidityLaunch.sol\":8899:8947  mapping(address => uint256) public totalBoughtOf */\n    tag_17:\n      callvalue\n      dup1\n      iszero\n      tag_90\n      jumpi\n      0x00\n      dup1\n      revert\n    tag_90:\n      pop\n      tag_91\n      0x04\n      dup1\n      calldatasize\n      sub\n      dup2\n      add\n      swap1\n      tag_92\n      swap2\n      swap1\n      tag_44\n      jump\t// in\n    tag_92:\n      tag_93\n      jump\t// in\n    tag_91:\n      mload(0x40)\n      tag_94\n      swap2\n      swap1\n      tag_61\n      jump\t// in\n    tag_94:\n      mload(0x40)\n      dup1\n      swap2\n      sub\n      swap1\n      return\n        /* \"contracts/ProtocolLiquidityLaunch.sol\":8629:8646  IERC20 public GAR */\n    tag_18:\n      callvalue\n      dup1\n      iszero\n      tag_95\n      jumpi\n      0x00\n      dup1\n      revert\n    tag_95:\n      pop\n      tag_96\n      tag_97\n      jump\t// in\n    tag_96:\n      mload(0x40)\n      tag_98\n      swap2\n      swap1\n      tag_99\n      jump\t// in\n    tag_98:\n      mload(0x40)\n      dup1\n      swap2\n      sub\n      swap1\n      return\n        /* \"contracts/ProtocolLiquidityLaunch.sol\":11506:11689  function emergencyWithdraw() public onlyOwner {... */\n    tag_19:\n      callvalue\n      dup1\n      iszero\n      tag_100\n      jumpi\n      0x00\n      dup1\n      revert\n    tag_100:\n      pop\n      tag_101\n      tag_102\n      jump\t// in\n    tag_101:\n      stop\n        /* \"contracts/ProtocolLiquidityLaunch.sol\":8764:8797  uint256 public totalPurchased = 0 */\n    tag_20:\n      callvalue\n      dup1\n      iszero\n      tag_103\n      jumpi\n      0x00\n      dup1\n      revert\n    tag_103:\n      pop\n      tag_104\n      tag_105\n      jump\t// in\n    tag_104:\n      mload(0x40)\n      tag_106\n      swap2\n      swap1\n      tag_61\n      jump\t// in\n    tag_106:\n      mload(0x40)\n      dup1\n      swap2\n      sub\n      swap1\n      return\n        /* \"contracts/ProtocolLiquidityLaunch.sol\":8711:8747  uint256 public totalSale = 50 * 1e27 */\n    tag_21:\n      callvalue\n      dup1\n      iszero\n      tag_107\n      jumpi\n      0x00\n      dup1\n      revert\n    tag_107:\n      pop\n      tag_108\n      tag_109\n      jump\t// in\n    tag_108:\n      mload(0x40)\n      tag_110\n      swap2\n      swap1\n      tag_61\n      jump\t// in\n    tag_110:\n      mload(0x40)\n      dup1\n      swap2\n      sub\n      swap1\n      return\n        /* \"contracts/ProtocolLiquidityLaunch.sol\":9543:9640  function transferOwnership(address _newOwner) public onlyOwner {... */\n    tag_22:\n      callvalue\n      dup1\n      iszero\n      tag_111\n      jumpi\n      0x00\n      dup1\n      revert\n    tag_111:\n      pop\n      tag_112\n      0x04\n      dup1\n      calldatasize\n      sub\n      dup2\n      add\n      swap1\n      tag_113\n      swap2\n      swap1\n      tag_44\n      jump\t// in\n    tag_113:\n      tag_114\n      jump\t// in\n    tag_112:\n      stop\n        /* \"contracts/ProtocolLiquidityLaunch.sol\":8653:8684  uint256 public salePrice = 1e15 */\n    tag_23:\n      callvalue\n      dup1\n      iszero\n      tag_115\n      jumpi\n      0x00\n      dup1\n      revert\n    tag_115:\n      pop\n      tag_116\n      tag_117\n      jump\t// in\n    tag_116:\n      mload(0x40)\n      tag_118\n      swap2\n      swap1\n      tag_61\n      jump\t// in\n    tag_118:\n      mload(0x40)\n      dup1\n      swap2\n      sub\n      swap1\n      return\n        /* \"contracts/ProtocolLiquidityLaunch.sol\":8533:8559  uint8 public VERSION = 100 */\n    tag_24:\n      callvalue\n      dup1\n      iszero\n      tag_119\n      jumpi\n      0x00\n      dup1\n      revert\n    tag_119:\n      pop\n      tag_120\n      tag_121\n      jump\t// in\n    tag_120:\n      mload(0x40)\n      tag_122\n      swap2\n      swap1\n      tag_123\n      jump\t// in\n    tag_122:\n      mload(0x40)\n      dup1\n      swap2\n      sub\n      swap1\n      return\n        /* \"contracts/ProtocolLiquidityLaunch.sol\":9795:9886  function setSalePrice(uint256 _value) public onlyOwner {... */\n    tag_34:\n        /* \"contracts/ProtocolLiquidityLaunch.sol\":9007:9012  owner */\n      0x00\n      0x01\n      swap1\n      sload\n      swap1\n      0x0100\n      exp\n      swap1\n      div\n      0xffffffffffffffffffffffffffffffffffffffff\n      and\n        /* \"contracts/ProtocolLiquidityLaunch.sol\":8993:9012  msg.sender == owner */\n      0xffffffffffffffffffffffffffffffffffffffff\n      and\n        /* \"contracts/ProtocolLiquidityLaunch.sol\":8993:9003  msg.sender */\n      caller\n        /* \"contracts/ProtocolLiquidityLaunch.sol\":8993:9012  msg.sender == owner */\n      0xffffffffffffffffffffffffffffffffffffffff\n      and\n      eq\n        /* \"contracts/ProtocolLiquidityLaunch.sol\":8985:9035  require(msg.sender == owner, 'INVALID_PERMISSION') */\n      tag_125\n      jumpi\n      mload(0x40)\n      0x08c379a000000000000000000000000000000000000000000000000000000000\n      dup2\n      mstore\n      0x04\n      add\n      tag_126\n      swap1\n      tag_127\n      jump\t// in\n    tag_126:\n      mload(0x40)\n      dup1\n      swap2\n      sub\n      swap1\n      revert\n    tag_125:\n        /* \"contracts/ProtocolLiquidityLaunch.sol\":9872:9878  _value */\n      dup1\n        /* \"contracts/ProtocolLiquidityLaunch.sol\":9860:9869  salePrice */\n      0x02\n        /* \"contracts/ProtocolLiquidityLaunch.sol\":9860:9878  salePrice = _value */\n      dup2\n      swap1\n      sstore\n      pop\n        /* \"contracts/ProtocolLiquidityLaunch.sol\":9795:9886  function setSalePrice(uint256 _value) public onlyOwner {... */\n      pop\n      jump\t// out\n        /* \"contracts/ProtocolLiquidityLaunch.sol\":9470:9537  function disable() public onlyOwner {... */\n    tag_37:\n        /* \"contracts/ProtocolLiquidityLaunch.sol\":9007:9012  owner */\n      0x00\n      0x01\n      swap1\n      sload\n      swap1\n      0x0100\n      exp\n      swap1\n      div\n      0xffffffffffffffffffffffffffffffffffffffff\n      and\n        /* \"contracts/ProtocolLiquidityLaunch.sol\":8993:9012  msg.sender == owner */\n      0xffffffffffffffffffffffffffffffffffffffff\n      and\n        /* \"contracts/ProtocolLiquidityLaunch.sol\":8993:9003  msg.sender */\n      caller\n        /* \"contracts/ProtocolLiquidityLaunch.sol\":8993:9012  msg.sender == owner */\n      0xffffffffffffffffffffffffffffffffffffffff\n      and\n      eq\n        /* \"contracts/ProtocolLiquidityLaunch.sol\":8985:9035  require(msg.sender == owner, 'INVALID_PERMISSION') */\n      tag_130\n      jumpi\n      mload(0x40)\n      0x08c379a000000000000000000000000000000000000000000000000000000000\n      dup2\n      mstore\n      0x04\n      add\n      tag_131\n      swap1\n      tag_127\n      jump\t// in\n    tag_131:\n      mload(0x40)\n      dup1\n      swap2\n      sub\n      swap1\n      revert\n    tag_130:\n        /* \"contracts/ProtocolLiquidityLaunch.sol\":9525:9530  false */\n      0x00\n        /* \"contracts/ProtocolLiquidityLaunch.sol\":9516:9522  ENABLE */\n      0x05\n      0x00\n        /* \"contracts/ProtocolLiquidityLaunch.sol\":9516:9530  ENABLE = false */\n      0x0100\n      exp\n      dup2\n      sload\n      dup2\n      0xff\n      mul\n      not\n      and\n      swap1\n      dup4\n      iszero\n      iszero\n      mul\n      or\n      swap1\n      sstore\n      pop\n        /* \"contracts/ProtocolLiquidityLaunch.sol\":9470:9537  function disable() public onlyOwner {... */\n      jump\t// out\n        /* \"contracts/ProtocolLiquidityLaunch.sol\":11320:11500  function moveFund() public onlyOwner {... */\n    tag_40:\n        /* \"contracts/ProtocolLiquidityLaunch.sol\":9007:9012  owner */\n      0x00\n      0x01\n      swap1\n      sload\n      swap1\n      0x0100\n      exp\n      swap1\n      div\n      0xffffffffffffffffffffffffffffffffffffffff\n      and\n        /* \"contracts/ProtocolLiquidityLaunch.sol\":8993:9012  msg.sender == owner */\n      0xffffffffffffffffffffffffffffffffffffffff\n      and\n        /* \"contracts/ProtocolLiquidityLaunch.sol\":8993:9003  msg.sender */\n      caller\n        /* \"contracts/ProtocolLiquidityLaunch.sol\":8993:9012  msg.sender == owner */\n      0xffffffffffffffffffffffffffffffffffffffff\n      and\n      eq\n        /* \"contracts/ProtocolLiquidityLaunch.sol\":8985:9035  require(msg.sender == owner, 'INVALID_PERMISSION') */\n      tag_134\n      jumpi\n      mload(0x40)\n      0x08c379a000000000000000000000000000000000000000000000000000000000\n      dup2\n      mstore\n      0x04\n      add\n      tag_135\n      swap1\n      tag_127\n      jump\t// in\n    tag_135:\n      mload(0x40)\n      dup1\n      swap2\n      sub\n      swap1\n      revert\n    tag_134:\n        /* \"contracts/ProtocolLiquidityLaunch.sol\":11367:11380  uint256 _cBal */\n      0x00\n        /* \"contracts/ProtocolLiquidityLaunch.sol\":11383:11398  getETHBalance() */\n      tag_137\n        /* \"contracts/ProtocolLiquidityLaunch.sol\":11383:11396  getETHBalance */\n      tag_64\n        /* \"contracts/ProtocolLiquidityLaunch.sol\":11383:11398  getETHBalance() */\n      jump\t// in\n    tag_137:\n        /* \"contracts/ProtocolLiquidityLaunch.sol\":11367:11398  uint256 _cBal = getETHBalance() */\n      swap1\n      pop\n        /* \"contracts/ProtocolLiquidityLaunch.sol\":11408:11417  bool sent */\n      0x00\n        /* \"contracts/ProtocolLiquidityLaunch.sol\":11428:11433  owner */\n      dup1\n      0x01\n      swap1\n      sload\n      swap1\n      0x0100\n      exp\n      swap1\n      div\n      0xffffffffffffffffffffffffffffffffffffffff\n      and\n        /* \"contracts/ProtocolLiquidityLaunch.sol\":11420:11439  payable(owner).send */\n      0xffffffffffffffffffffffffffffffffffffffff\n      and\n        /* \"contracts/ProtocolLiquidityLaunch.sol\":11420:11446  payable(owner).send(_cBal) */\n      0x08fc\n        /* \"contracts/ProtocolLiquidityLaunch.sol\":11440:11445  _cBal */\n      dup4\n        /* \"contracts/ProtocolLiquidityLaunch.sol\":11420:11446  payable(owner).send(_cBal) */\n      swap1\n      dup2\n      iszero\n      mul\n      swap1\n      mload(0x40)\n      0x00\n      mload(0x40)\n      dup1\n      dup4\n      sub\n      dup2\n      dup6\n      dup9\n      dup9\n      call\n      swap4\n      pop\n      pop\n      pop\n      pop\n        /* \"contracts/ProtocolLiquidityLaunch.sol\":11408:11446  bool sent = payable(owner).send(_cBal) */\n      swap1\n      pop\n        /* \"contracts/ProtocolLiquidityLaunch.sol\":11464:11468  sent */\n      dup1\n        /* \"contracts/ProtocolLiquidityLaunch.sol\":11456:11493  require(sent, \"Failed to send Ether\") */\n      tag_139\n      jumpi\n      mload(0x40)\n      0x08c379a000000000000000000000000000000000000000000000000000000000\n      dup2\n      mstore\n      0x04\n      add\n      tag_140\n      swap1\n      tag_141\n      jump\t// in\n    tag_140:\n      mload(0x40)\n      dup1\n      swap2\n      sub\n      swap1\n      revert\n    tag_139:\n        /* \"contracts/ProtocolLiquidityLaunch.sol\":11357:11500  {... */\n      pop\n      pop\n        /* \"contracts/ProtocolLiquidityLaunch.sol\":11320:11500  function moveFund() public onlyOwner {... */\n      jump\t// out\n        /* \"contracts/ProtocolLiquidityLaunch.sol\":12611:12991  function getData(address _user) public view returns(uint256[8] memory data_) {... */\n    tag_45:\n        /* \"contracts/ProtocolLiquidityLaunch.sol\":12663:12686  uint256[8] memory data_ */\n      tag_142\n      tag_143\n      jump\t// in\n    tag_142:\n        /* \"contracts/ProtocolLiquidityLaunch.sol\":12709:12714  _user */\n      dup2\n        /* \"contracts/ProtocolLiquidityLaunch.sol\":12709:12722  _user.balance */\n      0xffffffffffffffffffffffffffffffffffffffff\n      and\n      balance\n        /* \"contracts/ProtocolLiquidityLaunch.sol\":12698:12703  data_ */\n      dup2\n        /* \"contracts/ProtocolLiquidityLaunch.sol\":12704:12705  0 */\n      0x00\n        /* \"contracts/ProtocolLiquidityLaunch.sol\":12698:12706  data_[0] */\n      0x08\n      dup2\n      lt\n      tag_145\n      jumpi\n      tag_146\n      tag_147\n      jump\t// in\n    tag_146:\n    tag_145:\n      0x20\n      mul\n      add\n        /* \"contracts/ProtocolLiquidityLaunch.sol\":12698:12722  data_[0] = _user.balance */\n      dup2\n      dup2\n      mstore\n      pop\n      pop\n        /* \"contracts/ProtocolLiquidityLaunch.sol\":12743:12761  getMaxBuyOf(_user) */\n      tag_148\n        /* \"contracts/ProtocolLiquidityLaunch.sol\":12755:12760  _user */\n      dup3\n        /* \"contracts/ProtocolLiquidityLaunch.sol\":12743:12754  getMaxBuyOf */\n      tag_74\n        /* \"contracts/ProtocolLiquidityLaunch.sol\":12743:12761  getMaxBuyOf(_user) */\n      jump\t// in\n    tag_148:\n        /* \"contracts/ProtocolLiquidityLaunch.sol\":12732:12737  data_ */\n      dup2\n        /* \"contracts/ProtocolLiquidityLaunch.sol\":12738:12739  1 */\n      0x01\n        /* \"contracts/ProtocolLiquidityLaunch.sol\":12732:12740  data_[1] */\n      0x08\n      dup2\n      lt\n      tag_149\n      jumpi\n      tag_150\n      tag_147\n      jump\t// in\n    tag_150:\n    tag_149:\n      0x20\n      mul\n      add\n        /* \"contracts/ProtocolLiquidityLaunch.sol\":12732:12761  data_[1] = getMaxBuyOf(_user) */\n      dup2\n      dup2\n      mstore\n      pop\n      pop\n        /* \"contracts/ProtocolLiquidityLaunch.sol\":12782:12815  data_[1].mul(salePrice).div(1e18) */\n      tag_151\n        /* \"contracts/ProtocolLiquidityLaunch.sol\":12810:12814  1e18 */\n      0x0de0b6b3a7640000\n        /* \"contracts/ProtocolLiquidityLaunch.sol\":12782:12805  data_[1].mul(salePrice) */\n      tag_152\n        /* \"contracts/ProtocolLiquidityLaunch.sol\":12795:12804  salePrice */\n      sload(0x02)\n        /* \"contracts/ProtocolLiquidityLaunch.sol\":12782:12787  data_ */\n      dup5\n        /* \"contracts/ProtocolLiquidityLaunch.sol\":12788:12789  1 */\n      0x01\n        /* \"contracts/ProtocolLiquidityLaunch.sol\":12782:12790  data_[1] */\n      0x08\n      dup2\n      lt\n      tag_153\n      jumpi\n      tag_154\n      tag_147\n      jump\t// in\n    tag_154:\n    tag_153:\n      0x20\n      mul\n      add\n      mload\n        /* \"contracts/ProtocolLiquidityLaunch.sol\":12782:12794  data_[1].mul */\n      tag_155\n      swap1\n        /* \"contracts/ProtocolLiquidityLaunch.sol\":12782:12805  data_[1].mul(salePrice) */\n      swap2\n      swap1\n      0xffffffff\n      and\n      jump\t// in\n    tag_152:\n        /* \"contracts/ProtocolLiquidityLaunch.sol\":12782:12809  data_[1].mul(salePrice).div */\n      tag_156\n      swap1\n        /* \"contracts/ProtocolLiquidityLaunch.sol\":12782:12815  data_[1].mul(salePrice).div(1e18) */\n      swap2\n      swap1\n      0xffffffff\n      and\n      jump\t// in\n    tag_151:\n        /* \"contracts/ProtocolLiquidityLaunch.sol\":12771:12776  data_ */\n      dup2\n        /* \"contracts/ProtocolLiquidityLaunch.sol\":12777:12778  2 */\n      0x02\n        /* \"contracts/ProtocolLiquidityLaunch.sol\":12771:12779  data_[2] */\n      0x08\n      dup2\n      lt\n      tag_157\n      jumpi\n      tag_158\n      tag_147\n      jump\t// in\n    tag_158:\n    tag_157:\n      0x20\n      mul\n      add\n        /* \"contracts/ProtocolLiquidityLaunch.sol\":12771:12815  data_[2] = data_[1].mul(salePrice).div(1e18) */\n      dup2\n      dup2\n      mstore\n      pop\n      pop\n        /* \"contracts/ProtocolLiquidityLaunch.sol\":12836:12851  getETHBalance() */\n      tag_159\n        /* \"contracts/ProtocolLiquidityLaunch.sol\":12836:12849  getETHBalance */\n      tag_64\n        /* \"contracts/ProtocolLiquidityLaunch.sol\":12836:12851  getETHBalance() */\n      jump\t// in\n    tag_159:\n        /* \"contracts/ProtocolLiquidityLaunch.sol\":12825:12830  data_ */\n      dup2\n        /* \"contracts/ProtocolLiquidityLaunch.sol\":12831:12832  3 */\n      0x03\n        /* \"contracts/ProtocolLiquidityLaunch.sol\":12825:12833  data_[3] */\n      0x08\n      dup2\n      lt\n      tag_160\n      jumpi\n      tag_161\n      tag_147\n      jump\t// in\n    tag_161:\n    tag_160:\n      0x20\n      mul\n      add\n        /* \"contracts/ProtocolLiquidityLaunch.sol\":12825:12851  data_[3] = getETHBalance() */\n      dup2\n      dup2\n      mstore\n      pop\n      pop\n        /* \"contracts/ProtocolLiquidityLaunch.sol\":12872:12889  HARD_CAP_PER_USER */\n      sload(0x06)\n        /* \"contracts/ProtocolLiquidityLaunch.sol\":12861:12866  data_ */\n      dup2\n        /* \"contracts/ProtocolLiquidityLaunch.sol\":12867:12868  4 */\n      0x04\n        /* \"contracts/ProtocolLiquidityLaunch.sol\":12861:12869  data_[4] */\n      0x08\n      dup2\n      lt\n      tag_162\n      jumpi\n      tag_163\n      tag_147\n      jump\t// in\n    tag_163:\n    tag_162:\n      0x20\n      mul\n      add\n        /* \"contracts/ProtocolLiquidityLaunch.sol\":12861:12889  data_[4] = HARD_CAP_PER_USER */\n      dup2\n      dup2\n      mstore\n      pop\n      pop\n        /* \"contracts/ProtocolLiquidityLaunch.sol\":12910:12919  totalSale */\n      sload(0x03)\n        /* \"contracts/ProtocolLiquidityLaunch.sol\":12899:12904  data_ */\n      dup2\n        /* \"contracts/ProtocolLiquidityLaunch.sol\":12905:12906  5 */\n      0x05\n        /* \"contracts/ProtocolLiquidityLaunch.sol\":12899:12907  data_[5] */\n      0x08\n      dup2\n      lt\n      tag_164\n      jumpi\n      tag_165\n      tag_147\n      jump\t// in\n    tag_165:\n    tag_164:\n      0x20\n      mul\n      add\n        /* \"contracts/ProtocolLiquidityLaunch.sol\":12899:12919  data_[5] = totalSale */\n      dup2\n      dup2\n      mstore\n      pop\n      pop\n        /* \"contracts/ProtocolLiquidityLaunch.sol\":12940:12949  salePrice */\n      sload(0x02)\n        /* \"contracts/ProtocolLiquidityLaunch.sol\":12929:12934  data_ */\n      dup2\n        /* \"contracts/ProtocolLiquidityLaunch.sol\":12935:12936  6 */\n      0x06\n        /* \"contracts/ProtocolLiquidityLaunch.sol\":12929:12937  data_[6] */\n      0x08\n      dup2\n      lt\n      tag_166\n      jumpi\n      tag_167\n      tag_147\n      jump\t// in\n    tag_167:\n    tag_166:\n      0x20\n      mul\n      add\n        /* \"contracts/ProtocolLiquidityLaunch.sol\":12929:12949  data_[6] = salePrice */\n      dup2\n      dup2\n      mstore\n      pop\n      pop\n        /* \"contracts/ProtocolLiquidityLaunch.sol\":12970:12984  totalPurchased */\n      sload(0x04)\n        /* \"contracts/ProtocolLiquidityLaunch.sol\":12959:12964  data_ */\n      dup2\n        /* \"contracts/ProtocolLiquidityLaunch.sol\":12965:12966  7 */\n      0x07\n        /* \"contracts/ProtocolLiquidityLaunch.sol\":12959:12967  data_[7] */\n      0x08\n      dup2\n      lt\n      tag_168\n      jumpi\n      tag_169\n      tag_147\n      jump\t// in\n    tag_169:\n    tag_168:\n      0x20\n      mul\n      add\n        /* \"contracts/ProtocolLiquidityLaunch.sol\":12959:12984  data_[7] = totalPurchased */\n      dup2\n      dup2\n      mstore\n      pop\n      pop\n        /* \"contracts/ProtocolLiquidityLaunch.sol\":12611:12991  function getData(address _user) public view returns(uint256[8] memory data_) {... */\n      swap2\n      swap1\n      pop\n      jump\t// out\n        /* \"contracts/ProtocolLiquidityLaunch.sol\":9892:9990  function setTotalSale(uint256 _totalSale) public onlyOwner {... */\n    tag_51:\n        /* \"contracts/ProtocolLiquidityLaunch.sol\":9007:9012  owner */\n      0x00\n      0x01\n      swap1\n      sload\n      swap1\n      0x0100\n      exp\n      swap1\n      div\n      0xffffffffffffffffffffffffffffffffffffffff\n      and\n        /* \"contracts/ProtocolLiquidityLaunch.sol\":8993:9012  msg.sender == owner */\n      0xffffffffffffffffffffffffffffffffffffffff\n      and\n        /* \"contracts/ProtocolLiquidityLaunch.sol\":8993:9003  msg.sender */\n      caller\n        /* \"contracts/ProtocolLiquidityLaunch.sol\":8993:9012  msg.sender == owner */\n      0xffffffffffffffffffffffffffffffffffffffff\n      and\n      eq\n        /* \"contracts/ProtocolLiquidityLaunch.sol\":8985:9035  require(msg.sender == owner, 'INVALID_PERMISSION') */\n      tag_171\n      jumpi\n      mload(0x40)\n      0x08c379a000000000000000000000000000000000000000000000000000000000\n      dup2\n      mstore\n      0x04\n      add\n      tag_172\n      swap1\n      tag_127\n      jump\t// in\n    tag_172:\n      mload(0x40)\n      dup1\n      swap2\n      sub\n      swap1\n      revert\n    tag_171:\n        /* \"contracts/ProtocolLiquidityLaunch.sol\":9973:9983  _totalSale */\n      dup1\n        /* \"contracts/ProtocolLiquidityLaunch.sol\":9961:9970  totalSale */\n      0x03\n        /* \"contracts/ProtocolLiquidityLaunch.sol\":9961:9983  totalSale = _totalSale */\n      dup2\n      swap1\n      sstore\n      pop\n        /* \"contracts/ProtocolLiquidityLaunch.sol\":9892:9990  function setTotalSale(uint256 _totalSale) public onlyOwner {... */\n      pop\n      jump\t// out\n        /* \"contracts/ProtocolLiquidityLaunch.sol\":9646:9789  function setGARToken(IERC20 _gar) public onlyOwner {... */\n    tag_56:\n        /* \"contracts/ProtocolLiquidityLaunch.sol\":9007:9012  owner */\n      0x00\n      0x01\n      swap1\n      sload\n      swap1\n      0x0100\n      exp\n      swap1\n      div\n      0xffffffffffffffffffffffffffffffffffffffff\n      and\n        /* \"contracts/ProtocolLiquidityLaunch.sol\":8993:9012  msg.sender == owner */\n      0xffffffffffffffffffffffffffffffffffffffff\n      and\n        /* \"contracts/ProtocolLiquidityLaunch.sol\":8993:9003  msg.sender */\n      caller\n        /* \"contracts/ProtocolLiquidityLaunch.sol\":8993:9012  msg.sender == owner */\n      0xffffffffffffffffffffffffffffffffffffffff\n      and\n      eq\n        /* \"contracts/ProtocolLiquidityLaunch.sol\":8985:9035  require(msg.sender == owner, 'INVALID_PERMISSION') */\n      tag_175\n      jumpi\n      mload(0x40)\n      0x08c379a000000000000000000000000000000000000000000000000000000000\n      dup2\n      mstore\n      0x04\n      add\n      tag_176\n      swap1\n      tag_127\n      jump\t// in\n    tag_176:\n      mload(0x40)\n      dup1\n      swap2\n      sub\n      swap1\n      revert\n    tag_175:\n        /* \"contracts/ProtocolLiquidityLaunch.sol\":9740:9741  0 */\n      0x00\n        /* \"contracts/ProtocolLiquidityLaunch.sol\":9715:9742  address(_gar) != address(0) */\n      0xffffffffffffffffffffffffffffffffffffffff\n      and\n        /* \"contracts/ProtocolLiquidityLaunch.sol\":9723:9727  _gar */\n      dup2\n        /* \"contracts/ProtocolLiquidityLaunch.sol\":9715:9742  address(_gar) != address(0) */\n      0xffffffffffffffffffffffffffffffffffffffff\n      and\n      eq\n      iszero\n        /* \"contracts/ProtocolLiquidityLaunch.sol\":9707:9762  require(address(_gar) != address(0), \"INVALID_ADDRESS\") */\n      tag_178\n      jumpi\n      mload(0x40)\n      0x08c379a000000000000000000000000000000000000000000000000000000000\n      dup2\n      mstore\n      0x04\n      add\n      tag_179\n      swap1\n      tag_180\n      jump\t// in\n    tag_179:\n      mload(0x40)\n      dup1\n      swap2\n      sub\n      swap1\n      revert\n    tag_178:\n        /* \"contracts/ProtocolLiquidityLaunch.sol\":9778:9782  _gar */\n      dup1\n        /* \"contracts/ProtocolLiquidityLaunch.sol\":9772:9775  GAR */\n      0x01\n      0x00\n        /* \"contracts/ProtocolLiquidityLaunch.sol\":9772:9782  GAR = _gar */\n      0x0100\n      exp\n      dup2\n      sload\n      dup2\n      0xffffffffffffffffffffffffffffffffffffffff\n      mul\n      not\n      and\n      swap1\n      dup4\n      0xffffffffffffffffffffffffffffffffffffffff\n      and\n      mul\n      or\n      swap1\n      sstore\n      pop\n        /* \"contracts/ProtocolLiquidityLaunch.sol\":9646:9789  function setGARToken(IERC20 _gar) public onlyOwner {... */\n      pop\n      jump\t// out\n        /* \"contracts/ProtocolLiquidityLaunch.sol\":8839:8884  uint256 public HARD_CAP_PER_USER = 120 * 1e24 */\n    tag_59:\n      sload(0x06)\n      dup2\n      jump\t// out\n        /* \"contracts/ProtocolLiquidityLaunch.sol\":12181:12280  function getETHBalance() public view returns(uint256) {... */\n    tag_64:\n        /* \"contracts/ProtocolLiquidityLaunch.sol\":12226:12233  uint256 */\n      0x00\n        /* \"contracts/ProtocolLiquidityLaunch.sol\":12252:12273  address(this).balance */\n      selfbalance\n        /* \"contracts/ProtocolLiquidityLaunch.sol\":12245:12273  return address(this).balance */\n      swap1\n      pop\n        /* \"contracts/ProtocolLiquidityLaunch.sol\":12181:12280  function getETHBalance() public view returns(uint256) {... */\n      swap1\n      jump\t// out\n        /* \"contracts/ProtocolLiquidityLaunch.sol\":8602:8622  address public owner */\n    tag_68:\n      0x00\n      0x01\n      swap1\n      sload\n      swap1\n      0x0100\n      exp\n      swap1\n      div\n      0xffffffffffffffffffffffffffffffffffffffff\n      and\n      dup2\n      jump\t// out\n        /* \"contracts/ProtocolLiquidityLaunch.sol\":11694:12171  function getMaxBuyOf(address _user) public view returns(uint256) {... */\n    tag_74:\n        /* \"contracts/ProtocolLiquidityLaunch.sol\":11750:11757  uint256 */\n      0x00\n        /* \"contracts/ProtocolLiquidityLaunch.sol\":11810:11827  HARD_CAP_PER_USER */\n      sload(0x06)\n        /* \"contracts/ProtocolLiquidityLaunch.sol\":11786:11799  totalBoughtOf */\n      0x07\n        /* \"contracts/ProtocolLiquidityLaunch.sol\":11786:11806  totalBoughtOf[_user] */\n      0x00\n        /* \"contracts/ProtocolLiquidityLaunch.sol\":11800:11805  _user */\n      dup5\n        /* \"contracts/ProtocolLiquidityLaunch.sol\":11786:11806  totalBoughtOf[_user] */\n      0xffffffffffffffffffffffffffffffffffffffff\n      and\n      0xffffffffffffffffffffffffffffffffffffffff\n      and\n      dup2\n      mstore\n      0x20\n      add\n      swap1\n      dup2\n      mstore\n      0x20\n      add\n      0x00\n      keccak256\n      sload\n        /* \"contracts/ProtocolLiquidityLaunch.sol\":11786:11827  totalBoughtOf[_user] >= HARD_CAP_PER_USER */\n      lt\n      iszero\n        /* \"contracts/ProtocolLiquidityLaunch.sol\":11786:11857  totalBoughtOf[_user] >= HARD_CAP_PER_USER ||... */\n      dup1\n      tag_183\n      jumpi\n      pop\n        /* \"contracts/ProtocolLiquidityLaunch.sol\":11856:11857  0 */\n      0x00\n        /* \"contracts/ProtocolLiquidityLaunch.sol\":11843:11852  totalSale */\n      sload(0x03)\n        /* \"contracts/ProtocolLiquidityLaunch.sol\":11843:11857  totalSale <= 0 */\n      gt\n      iszero\n        /* \"contracts/ProtocolLiquidityLaunch.sol\":11786:11857  totalBoughtOf[_user] >= HARD_CAP_PER_USER ||... */\n    tag_183:\n        /* \"contracts/ProtocolLiquidityLaunch.sol\":11786:11888  totalBoughtOf[_user] >= HARD_CAP_PER_USER ||... */\n      dup1\n      tag_184\n      jumpi\n      pop\n        /* \"contracts/ProtocolLiquidityLaunch.sol\":11883:11888  false */\n      0x00\n        /* \"contracts/ProtocolLiquidityLaunch.sol\":11873:11888  ENABLE == false */\n      iszero\n      iszero\n        /* \"contracts/ProtocolLiquidityLaunch.sol\":11873:11879  ENABLE */\n      0x05\n      0x00\n      swap1\n      sload\n      swap1\n      0x0100\n      exp\n      swap1\n      div\n      0xff\n      and\n        /* \"contracts/ProtocolLiquidityLaunch.sol\":11873:11888  ENABLE == false */\n      iszero\n      iszero\n      eq\n        /* \"contracts/ProtocolLiquidityLaunch.sol\":11786:11888  totalBoughtOf[_user] >= HARD_CAP_PER_USER ||... */\n    tag_184:\n        /* \"contracts/ProtocolLiquidityLaunch.sol\":11769:11936  if (... */\n      iszero\n      tag_185\n      jumpi\n        /* \"contracts/ProtocolLiquidityLaunch.sol\":11924:11925  0 */\n      0x00\n        /* \"contracts/ProtocolLiquidityLaunch.sol\":11917:11925  return 0 */\n      swap1\n      pop\n      jump(tag_182)\n        /* \"contracts/ProtocolLiquidityLaunch.sol\":11769:11936  if (... */\n    tag_185:\n        /* \"contracts/ProtocolLiquidityLaunch.sol\":11970:11985  uint256 _maxBuy */\n      0x00\n        /* \"contracts/ProtocolLiquidityLaunch.sol\":11988:12031  HARD_CAP_PER_USER.sub(totalBoughtOf[_user]) */\n      tag_186\n        /* \"contracts/ProtocolLiquidityLaunch.sol\":12010:12023  totalBoughtOf */\n      0x07\n        /* \"contracts/ProtocolLiquidityLaunch.sol\":12010:12030  totalBoughtOf[_user] */\n      0x00\n        /* \"contracts/ProtocolLiquidityLaunch.sol\":12024:12029  _user */\n      dup6\n        /* \"contracts/ProtocolLiquidityLaunch.sol\":12010:12030  totalBoughtOf[_user] */\n      0xffffffffffffffffffffffffffffffffffffffff\n      and\n      0xffffffffffffffffffffffffffffffffffffffff\n      and\n      dup2\n      mstore\n      0x20\n      add\n      swap1\n      dup2\n      mstore\n      0x20\n      add\n      0x00\n      keccak256\n      sload\n        /* \"contracts/ProtocolLiquidityLaunch.sol\":11988:12005  HARD_CAP_PER_USER */\n      sload(0x06)\n        /* \"contracts/ProtocolLiquidityLaunch.sol\":11988:12009  HARD_CAP_PER_USER.sub */\n      tag_187\n      swap1\n        /* \"contracts/ProtocolLiquidityLaunch.sol\":11988:12031  HARD_CAP_PER_USER.sub(totalBoughtOf[_user]) */\n      swap2\n      swap1\n      0xffffffff\n      and\n      jump\t// in\n    tag_186:\n        /* \"contracts/ProtocolLiquidityLaunch.sol\":11970:12031  uint256 _maxBuy = HARD_CAP_PER_USER.sub(totalBoughtOf[_user]) */\n      swap1\n      pop\n        /* \"contracts/ProtocolLiquidityLaunch.sol\":12086:12095  totalSale */\n      sload(0x03)\n        /* \"contracts/ProtocolLiquidityLaunch.sol\":12076:12083  _maxBuy */\n      dup2\n        /* \"contracts/ProtocolLiquidityLaunch.sol\":12076:12095  _maxBuy > totalSale */\n      gt\n        /* \"contracts/ProtocolLiquidityLaunch.sol\":12072:12141  if (_maxBuy > totalSale) {... */\n      iszero\n      tag_188\n      jumpi\n        /* \"contracts/ProtocolLiquidityLaunch.sol\":12121:12130  totalSale */\n      sload(0x03)\n        /* \"contracts/ProtocolLiquidityLaunch.sol\":12111:12130  _maxBuy = totalSale */\n      swap1\n      pop\n        /* \"contracts/ProtocolLiquidityLaunch.sol\":12072:12141  if (_maxBuy > totalSale) {... */\n    tag_188:\n        /* \"contracts/ProtocolLiquidityLaunch.sol\":12157:12164  _maxBuy */\n      dup1\n        /* \"contracts/ProtocolLiquidityLaunch.sol\":12150:12164  return _maxBuy */\n      swap2\n      pop\n      pop\n        /* \"contracts/ProtocolLiquidityLaunch.sol\":11694:12171  function getMaxBuyOf(address _user) public view returns(uint256) {... */\n    tag_182:\n      swap2\n      swap1\n      pop\n      jump\t// out\n        /* \"contracts/ProtocolLiquidityLaunch.sol\":8804:8829  bool public ENABLE = true */\n    tag_78:\n      0x05\n      0x00\n      swap1\n      sload\n      swap1\n      0x0100\n      exp\n      swap1\n      div\n      0xff\n      and\n      dup2\n      jump\t// out\n        /* \"contracts/ProtocolLiquidityLaunch.sol\":9996:10099  function setHardCapPerUser(uint256 _value) public onlyOwner {... */\n    tag_84:\n        /* \"contracts/ProtocolLiquidityLaunch.sol\":9007:9012  owner */\n      0x00\n      0x01\n      swap1\n      sload\n      swap1\n      0x0100\n      exp\n      swap1\n      div\n      0xffffffffffffffffffffffffffffffffffffffff\n      and\n        /* \"contracts/ProtocolLiquidityLaunch.sol\":8993:9012  msg.sender == owner */\n      0xffffffffffffffffffffffffffffffffffffffff\n      and\n        /* \"contracts/ProtocolLiquidityLaunch.sol\":8993:9003  msg.sender */\n      caller\n        /* \"contracts/ProtocolLiquidityLaunch.sol\":8993:9012  msg.sender == owner */\n      0xffffffffffffffffffffffffffffffffffffffff\n      and\n      eq\n        /* \"contracts/ProtocolLiquidityLaunch.sol\":8985:9035  require(msg.sender == owner, 'INVALID_PERMISSION') */\n      tag_190\n      jumpi\n      mload(0x40)\n      0x08c379a000000000000000000000000000000000000000000000000000000000\n      dup2\n      mstore\n      0x04\n      add\n      tag_191\n      swap1\n      tag_127\n      jump\t// in\n    tag_191:\n      mload(0x40)\n      dup1\n      swap2\n      sub\n      swap1\n      revert\n    tag_190:\n        /* \"contracts/ProtocolLiquidityLaunch.sol\":10086:10092  _value */\n      dup1\n        /* \"contracts/ProtocolLiquidityLaunch.sol\":10066:10083  HARD_CAP_PER_USER */\n      0x06\n        /* \"contracts/ProtocolLiquidityLaunch.sol\":10066:10092  HARD_CAP_PER_USER = _value */\n      dup2\n      swap1\n      sstore\n      pop\n        /* \"contracts/ProtocolLiquidityLaunch.sol\":9996:10099  function setHardCapPerUser(uint256 _value) public onlyOwner {... */\n      pop\n      jump\t// out\n        /* \"contracts/ProtocolLiquidityLaunch.sol\":9400:9465  function enable() public onlyOwner {... */\n    tag_87:\n        /* \"contracts/ProtocolLiquidityLaunch.sol\":9007:9012  owner */\n      0x00\n      0x01\n      swap1\n      sload\n      swap1\n      0x0100\n      exp\n      swap1\n      div\n      0xffffffffffffffffffffffffffffffffffffffff\n      and\n        /* \"contracts/ProtocolLiquidityLaunch.sol\":8993:9012  msg.sender == owner */\n      0xffffffffffffffffffffffffffffffffffffffff\n      and\n        /* \"contracts/ProtocolLiquidityLaunch.sol\":8993:9003  msg.sender */\n      caller\n        /* \"contracts/ProtocolLiquidityLaunch.sol\":8993:9012  msg.sender == owner */\n      0xffffffffffffffffffffffffffffffffffffffff\n      and\n      eq\n        /* \"contracts/ProtocolLiquidityLaunch.sol\":8985:9035  require(msg.sender == owner, 'INVALID_PERMISSION') */\n      tag_194\n      jumpi\n      mload(0x40)\n      0x08c379a000000000000000000000000000000000000000000000000000000000\n      dup2\n      mstore\n      0x04\n      add\n      tag_195\n      swap1\n      tag_127\n      jump\t// in\n    tag_195:\n      mload(0x40)\n      dup1\n      swap2\n      sub\n      swap1\n      revert\n    tag_194:\n        /* \"contracts/ProtocolLiquidityLaunch.sol\":9454:9458  true */\n      0x01\n        /* \"contracts/ProtocolLiquidityLaunch.sol\":9445:9451  ENABLE */\n      0x05\n      0x00\n        /* \"contracts/ProtocolLiquidityLaunch.sol\":9445:9458  ENABLE = true */\n      0x0100\n      exp\n      dup2\n      sload\n      dup2\n      0xff\n      mul\n      not\n      and\n      swap1\n      dup4\n      iszero\n      iszero\n      mul\n      or\n      swap1\n      sstore\n      pop\n        /* \"contracts/ProtocolLiquidityLaunch.sol\":9400:9465  function enable() public onlyOwner {... */\n      jump\t// out\n        /* \"contracts/ProtocolLiquidityLaunch.sol\":10105:11314  function buy() public payable onlyWhitelisted {... */\n    tag_89:\n        /* \"contracts/ProtocolLiquidityLaunch.sol\":9118:9127  tx.origin */\n      origin\n        /* \"contracts/ProtocolLiquidityLaunch.sol\":9104:9127  msg.sender == tx.origin */\n      0xffffffffffffffffffffffffffffffffffffffff\n      and\n        /* \"contracts/ProtocolLiquidityLaunch.sol\":9104:9114  msg.sender */\n      caller\n        /* \"contracts/ProtocolLiquidityLaunch.sol\":9104:9127  msg.sender == tx.origin */\n      0xffffffffffffffffffffffffffffffffffffffff\n      and\n      eq\n        /* \"contracts/ProtocolLiquidityLaunch.sol\":9096:9149  require(msg.sender == tx.origin, \"INVALID_WHITElIST\") */\n      tag_198\n      jumpi\n      mload(0x40)\n      0x08c379a000000000000000000000000000000000000000000000000000000000\n      dup2\n      mstore\n      0x04\n      add\n      tag_199\n      swap1\n      tag_200\n      jump\t// in\n    tag_199:\n      mload(0x40)\n      dup1\n      swap2\n      sub\n      swap1\n      revert\n    tag_198:\n        /* \"contracts/ProtocolLiquidityLaunch.sol\":10179:10183  true */\n      0x01\n        /* \"contracts/ProtocolLiquidityLaunch.sol\":10169:10183  ENABLE == true */\n      iszero\n      iszero\n        /* \"contracts/ProtocolLiquidityLaunch.sol\":10169:10175  ENABLE */\n      0x05\n      0x00\n      swap1\n      sload\n      swap1\n      0x0100\n      exp\n      swap1\n      div\n      0xff\n      and\n        /* \"contracts/ProtocolLiquidityLaunch.sol\":10169:10183  ENABLE == true */\n      iszero\n      iszero\n      eq\n        /* \"contracts/ProtocolLiquidityLaunch.sol\":10161:10199  require(ENABLE == true, \"SYSTEM_STOP\") */\n      tag_202\n      jumpi\n      mload(0x40)\n      0x08c379a000000000000000000000000000000000000000000000000000000000\n      dup2\n      mstore\n      0x04\n      add\n      tag_203\n      swap1\n      tag_204\n      jump\t// in\n    tag_203:\n      mload(0x40)\n      dup1\n      swap2\n      sub\n      swap1\n      revert\n    tag_202:\n        /* \"contracts/ProtocolLiquidityLaunch.sol\":10229:10230  0 */\n      0x00\n        /* \"contracts/ProtocolLiquidityLaunch.sol\":10217:10226  msg.value */\n      callvalue\n        /* \"contracts/ProtocolLiquidityLaunch.sol\":10217:10230  msg.value > 0 */\n      gt\n        /* \"contracts/ProtocolLiquidityLaunch.sol\":10209:10251  require(msg.value > 0, \"INVALID_AMOUNT_1\") */\n      tag_205\n      jumpi\n      mload(0x40)\n      0x08c379a000000000000000000000000000000000000000000000000000000000\n      dup2\n      mstore\n      0x04\n      add\n      tag_206\n      swap1\n      tag_207\n      jump\t// in\n    tag_206:\n      mload(0x40)\n      dup1\n      swap2\n      sub\n      swap1\n      revert\n    tag_205:\n        /* \"contracts/ProtocolLiquidityLaunch.sol\":10262:10277  uint256 _maxBuy */\n      0x00\n        /* \"contracts/ProtocolLiquidityLaunch.sol\":10280:10303  getMaxBuyOf(msg.sender) */\n      tag_208\n        /* \"contracts/ProtocolLiquidityLaunch.sol\":10292:10302  msg.sender */\n      caller\n        /* \"contracts/ProtocolLiquidityLaunch.sol\":10280:10291  getMaxBuyOf */\n      tag_74\n        /* \"contracts/ProtocolLiquidityLaunch.sol\":10280:10303  getMaxBuyOf(msg.sender) */\n      jump\t// in\n    tag_208:\n        /* \"contracts/ProtocolLiquidityLaunch.sol\":10262:10303  uint256 _maxBuy = getMaxBuyOf(msg.sender) */\n      swap1\n      pop\n        /* \"contracts/ProtocolLiquidityLaunch.sol\":10331:10332  0 */\n      0x00\n        /* \"contracts/ProtocolLiquidityLaunch.sol\":10321:10328  _maxBuy */\n      dup2\n        /* \"contracts/ProtocolLiquidityLaunch.sol\":10321:10332  _maxBuy > 0 */\n      gt\n        /* \"contracts/ProtocolLiquidityLaunch.sol\":10313:10355  require(_maxBuy > 0, 'INVALID_PERMISSION') */\n      tag_209\n      jumpi\n      mload(0x40)\n      0x08c379a000000000000000000000000000000000000000000000000000000000\n      dup2\n      mstore\n      0x04\n      add\n      tag_210\n      swap1\n      tag_127\n      jump\t// in\n    tag_210:\n      mload(0x40)\n      dup1\n      swap2\n      sub\n      swap1\n      revert\n    tag_209:\n        /* \"contracts/ProtocolLiquidityLaunch.sol\":10366:10381  uint256 _payAmt */\n      0x00\n        /* \"contracts/ProtocolLiquidityLaunch.sol\":10386:10395  msg.value */\n      callvalue\n        /* \"contracts/ProtocolLiquidityLaunch.sol\":10366:10395  uint256 _payAmt   = msg.value */\n      swap1\n      pop\n        /* \"contracts/ProtocolLiquidityLaunch.sol\":10405:10423  uint256 _refundAmt */\n      0x00\n        /* \"contracts/ProtocolLiquidityLaunch.sol\":10437:10453  uint256 _quatity */\n      dup1\n        /* \"contracts/ProtocolLiquidityLaunch.sol\":10457:10489  _payAmt.mul(1e18).div(salePrice) */\n      tag_211\n        /* \"contracts/ProtocolLiquidityLaunch.sol\":10479:10488  salePrice */\n      sload(0x02)\n        /* \"contracts/ProtocolLiquidityLaunch.sol\":10457:10474  _payAmt.mul(1e18) */\n      tag_212\n        /* \"contracts/ProtocolLiquidityLaunch.sol\":10469:10473  1e18 */\n      0x0de0b6b3a7640000\n        /* \"contracts/ProtocolLiquidityLaunch.sol\":10457:10464  _payAmt */\n      dup7\n        /* \"contracts/ProtocolLiquidityLaunch.sol\":10457:10468  _payAmt.mul */\n      tag_155\n      swap1\n        /* \"contracts/ProtocolLiquidityLaunch.sol\":10457:10474  _payAmt.mul(1e18) */\n      swap2\n      swap1\n      0xffffffff\n      and\n      jump\t// in\n    tag_212:\n        /* \"contracts/ProtocolLiquidityLaunch.sol\":10457:10478  _payAmt.mul(1e18).div */\n      tag_156\n      swap1\n        /* \"contracts/ProtocolLiquidityLaunch.sol\":10457:10489  _payAmt.mul(1e18).div(salePrice) */\n      swap2\n      swap1\n      0xffffffff\n      and\n      jump\t// in\n    tag_211:\n        /* \"contracts/ProtocolLiquidityLaunch.sol\":10437:10489  uint256 _quatity  = _payAmt.mul(1e18).div(salePrice) */\n      swap1\n      pop\n        /* \"contracts/ProtocolLiquidityLaunch.sol\":10538:10545  _maxBuy */\n      dup4\n        /* \"contracts/ProtocolLiquidityLaunch.sol\":10527:10535  _quatity */\n      dup2\n        /* \"contracts/ProtocolLiquidityLaunch.sol\":10527:10545  _quatity > _maxBuy */\n      gt\n        /* \"contracts/ProtocolLiquidityLaunch.sol\":10524:10696  if(_quatity > _maxBuy) {... */\n      iszero\n      tag_213\n      jumpi\n        /* \"contracts/ProtocolLiquidityLaunch.sol\":10572:10579  _maxBuy */\n      dup4\n        /* \"contracts/ProtocolLiquidityLaunch.sol\":10561:10579  _quatity = _maxBuy */\n      swap1\n      pop\n        /* \"contracts/ProtocolLiquidityLaunch.sol\":10603:10636  _quatity.mul(salePrice).div(1e18) */\n      tag_214\n        /* \"contracts/ProtocolLiquidityLaunch.sol\":10631:10635  1e18 */\n      0x0de0b6b3a7640000\n        /* \"contracts/ProtocolLiquidityLaunch.sol\":10603:10626  _quatity.mul(salePrice) */\n      tag_215\n        /* \"contracts/ProtocolLiquidityLaunch.sol\":10616:10625  salePrice */\n      sload(0x02)\n        /* \"contracts/ProtocolLiquidityLaunch.sol\":10603:10611  _quatity */\n      dup5\n        /* \"contracts/ProtocolLiquidityLaunch.sol\":10603:10615  _quatity.mul */\n      tag_155\n      swap1\n        /* \"contracts/ProtocolLiquidityLaunch.sol\":10603:10626  _quatity.mul(salePrice) */\n      swap2\n      swap1\n      0xffffffff\n      and\n      jump\t// in\n    tag_215:\n        /* \"contracts/ProtocolLiquidityLaunch.sol\":10603:10630  _quatity.mul(salePrice).div */\n      tag_156\n      swap1\n        /* \"contracts/ProtocolLiquidityLaunch.sol\":10603:10636  _quatity.mul(salePrice).div(1e18) */\n      swap2\n      swap1\n      0xffffffff\n      and\n      jump\t// in\n    tag_214:\n        /* \"contracts/ProtocolLiquidityLaunch.sol\":10593:10636  _payAmt = _quatity.mul(salePrice).div(1e18) */\n      swap3\n      pop\n        /* \"contracts/ProtocolLiquidityLaunch.sol\":10663:10685  msg.value.sub(_payAmt) */\n      tag_216\n        /* \"contracts/ProtocolLiquidityLaunch.sol\":10677:10684  _payAmt */\n      dup4\n        /* \"contracts/ProtocolLiquidityLaunch.sol\":10663:10672  msg.value */\n      callvalue\n        /* \"contracts/ProtocolLiquidityLaunch.sol\":10663:10676  msg.value.sub */\n      tag_187\n      swap1\n        /* \"contracts/ProtocolLiquidityLaunch.sol\":10663:10685  msg.value.sub(_payAmt) */\n      swap2\n      swap1\n      0xffffffff\n      and\n      jump\t// in\n    tag_216:\n        /* \"contracts/ProtocolLiquidityLaunch.sol\":10650:10685  _refundAmt = msg.value.sub(_payAmt) */\n      swap2\n      pop\n        /* \"contracts/ProtocolLiquidityLaunch.sol\":10524:10696  if(_quatity > _maxBuy) {... */\n    tag_213:\n        /* \"contracts/ProtocolLiquidityLaunch.sol\":10724:10725  0 */\n      0x00\n        /* \"contracts/ProtocolLiquidityLaunch.sol\":10713:10721  _quatity */\n      dup2\n        /* \"contracts/ProtocolLiquidityLaunch.sol\":10713:10725  _quatity > 0 */\n      gt\n        /* \"contracts/ProtocolLiquidityLaunch.sol\":10705:10745  require(_quatity > 0, \"INVALID_QUATITY\") */\n      tag_217\n      jumpi\n      mload(0x40)\n      0x08c379a000000000000000000000000000000000000000000000000000000000\n      dup2\n      mstore\n      0x04\n      add\n      tag_218\n      swap1\n      tag_219\n      jump\t// in\n    tag_218:\n      mload(0x40)\n      dup1\n      swap2\n      sub\n      swap1\n      revert\n    tag_217:\n        /* \"contracts/ProtocolLiquidityLaunch.sol\":10773:10774  0 */\n      0x00\n        /* \"contracts/ProtocolLiquidityLaunch.sol\":10763:10770  _payAmt */\n      dup4\n        /* \"contracts/ProtocolLiquidityLaunch.sol\":10763:10774  _payAmt > 0 */\n      gt\n        /* \"contracts/ProtocolLiquidityLaunch.sol\":10755:10794  require(_payAmt > 0, \"INVALID_PAYMENT\") */\n      tag_220\n      jumpi\n      mload(0x40)\n      0x08c379a000000000000000000000000000000000000000000000000000000000\n      dup2\n      mstore\n      0x04\n      add\n      tag_221\n      swap1\n      tag_222\n      jump\t// in\n    tag_221:\n      mload(0x40)\n      dup1\n      swap2\n      sub\n      swap1\n      revert\n    tag_220:\n        /* \"contracts/ProtocolLiquidityLaunch.sol\":10839:10848  msg.value */\n      callvalue\n        /* \"contracts/ProtocolLiquidityLaunch.sol\":10812:10835  _payAmt.add(_refundAmt) */\n      tag_223\n        /* \"contracts/ProtocolLiquidityLaunch.sol\":10824:10834  _refundAmt */\n      dup4\n        /* \"contracts/ProtocolLiquidityLaunch.sol\":10812:10819  _payAmt */\n      dup6\n        /* \"contracts/ProtocolLiquidityLaunch.sol\":10812:10823  _payAmt.add */\n      tag_224\n      swap1\n        /* \"contracts/ProtocolLiquidityLaunch.sol\":10812:10835  _payAmt.add(_refundAmt) */\n      swap2\n      swap1\n      0xffffffff\n      and\n      jump\t// in\n    tag_223:\n        /* \"contracts/ProtocolLiquidityLaunch.sol\":10812:10848  _payAmt.add(_refundAmt) <= msg.value */\n      gt\n      iszero\n        /* \"contracts/ProtocolLiquidityLaunch.sol\":10804:10869  require(_payAmt.add(_refundAmt) <= msg.value, \"INVALID_AMOUNT_2\") */\n      tag_225\n      jumpi\n      mload(0x40)\n      0x08c379a000000000000000000000000000000000000000000000000000000000\n      dup2\n      mstore\n      0x04\n      add\n      tag_226\n      swap1\n      tag_227\n      jump\t// in\n    tag_226:\n      mload(0x40)\n      dup1\n      swap2\n      sub\n      swap1\n      revert\n    tag_225:\n        /* \"contracts/ProtocolLiquidityLaunch.sol\":10880:10883  GAR */\n      0x01\n      0x00\n      swap1\n      sload\n      swap1\n      0x0100\n      exp\n      swap1\n      div\n      0xffffffffffffffffffffffffffffffffffffffff\n      and\n        /* \"contracts/ProtocolLiquidityLaunch.sol\":10880:10892  GAR.transfer */\n      0xffffffffffffffffffffffffffffffffffffffff\n      and\n      0xa9059cbb\n        /* \"contracts/ProtocolLiquidityLaunch.sol\":10893:10903  msg.sender */\n      caller\n        /* \"contracts/ProtocolLiquidityLaunch.sol\":10905:10913  _quatity */\n      dup4\n        /* \"contracts/ProtocolLiquidityLaunch.sol\":10880:10914  GAR.transfer(msg.sender, _quatity) */\n      mload(0x40)\n      dup4\n      0xffffffff\n      and\n      0xe0\n      shl\n      dup2\n      mstore\n      0x04\n      add\n      tag_228\n      swap3\n      swap2\n      swap1\n      tag_229\n      jump\t// in\n    tag_228:\n      0x20\n      mload(0x40)\n      dup1\n      dup4\n      sub\n      dup2\n      0x00\n      dup8\n      dup1\n      extcodesize\n      iszero\n      dup1\n      iszero\n      tag_230\n      jumpi\n      0x00\n      dup1\n      revert\n    tag_230:\n      pop\n      gas\n      call\n      iszero\n      dup1\n      iszero\n      tag_232\n      jumpi\n      returndatasize\n      0x00\n      dup1\n      returndatacopy\n      revert(0x00, returndatasize)\n    tag_232:\n      pop\n      pop\n      pop\n      pop\n      mload(0x40)\n      returndatasize\n      not(0x1f)\n      0x1f\n      dup3\n      add\n      and\n      dup3\n      add\n      dup1\n      0x40\n      mstore\n      pop\n      dup2\n      add\n      swap1\n      tag_233\n      swap2\n      swap1\n      tag_234\n      jump\t// in\n    tag_233:\n      pop\n        /* \"contracts/ProtocolLiquidityLaunch.sol\":10941:10968  totalPurchased.add(_payAmt) */\n      tag_235\n        /* \"contracts/ProtocolLiquidityLaunch.sol\":10960:10967  _payAmt */\n      dup4\n        /* \"contracts/ProtocolLiquidityLaunch.sol\":10941:10955  totalPurchased */\n      sload(0x04)\n        /* \"contracts/ProtocolLiquidityLaunch.sol\":10941:10959  totalPurchased.add */\n      tag_224\n      swap1\n        /* \"contracts/ProtocolLiquidityLaunch.sol\":10941:10968  totalPurchased.add(_payAmt) */\n      swap2\n      swap1\n      0xffffffff\n      and\n      jump\t// in\n    tag_235:\n        /* \"contracts/ProtocolLiquidityLaunch.sol\":10924:10938  totalPurchased */\n      0x04\n        /* \"contracts/ProtocolLiquidityLaunch.sol\":10924:10968  totalPurchased = totalPurchased.add(_payAmt) */\n      dup2\n      swap1\n      sstore\n      pop\n        /* \"contracts/ProtocolLiquidityLaunch.sol\":10990:11013  totalSale.sub(_quatity) */\n      tag_236\n        /* \"contracts/ProtocolLiquidityLaunch.sol\":11004:11012  _quatity */\n      dup2\n        /* \"contracts/ProtocolLiquidityLaunch.sol\":10990:10999  totalSale */\n      sload(0x03)\n        /* \"contracts/ProtocolLiquidityLaunch.sol\":10990:11003  totalSale.sub */\n      tag_187\n      swap1\n        /* \"contracts/ProtocolLiquidityLaunch.sol\":10990:11013  totalSale.sub(_quatity) */\n      swap2\n      swap1\n      0xffffffff\n      and\n      jump\t// in\n    tag_236:\n        /* \"contracts/ProtocolLiquidityLaunch.sol\":10978:10987  totalSale */\n      0x03\n        /* \"contracts/ProtocolLiquidityLaunch.sol\":10978:11013  totalSale = totalSale.sub(_quatity) */\n      dup2\n      swap1\n      sstore\n      pop\n        /* \"contracts/ProtocolLiquidityLaunch.sol\":11051:11090  totalBoughtOf[msg.sender].add(_quatity) */\n      tag_237\n        /* \"contracts/ProtocolLiquidityLaunch.sol\":11081:11089  _quatity */\n      dup2\n        /* \"contracts/ProtocolLiquidityLaunch.sol\":11051:11064  totalBoughtOf */\n      0x07\n        /* \"contracts/ProtocolLiquidityLaunch.sol\":11051:11076  totalBoughtOf[msg.sender] */\n      0x00\n        /* \"contracts/ProtocolLiquidityLaunch.sol\":11065:11075  msg.sender */\n      caller\n        /* \"contracts/ProtocolLiquidityLaunch.sol\":11051:11076  totalBoughtOf[msg.sender] */\n      0xffffffffffffffffffffffffffffffffffffffff\n      and\n      0xffffffffffffffffffffffffffffffffffffffff\n      and\n      dup2\n      mstore\n      0x20\n      add\n      swap1\n      dup2\n      mstore\n      0x20\n      add\n      0x00\n      keccak256\n      sload\n        /* \"contracts/ProtocolLiquidityLaunch.sol\":11051:11080  totalBoughtOf[msg.sender].add */\n      tag_224\n      swap1\n        /* \"contracts/ProtocolLiquidityLaunch.sol\":11051:11090  totalBoughtOf[msg.sender].add(_quatity) */\n      swap2\n      swap1\n      0xffffffff\n      and\n      jump\t// in\n    tag_237:\n        /* \"contracts/ProtocolLiquidityLaunch.sol\":11023:11036  totalBoughtOf */\n      0x07\n        /* \"contracts/ProtocolLiquidityLaunch.sol\":11023:11048  totalBoughtOf[msg.sender] */\n      0x00\n        /* \"contracts/ProtocolLiquidityLaunch.sol\":11037:11047  msg.sender */\n      caller\n        /* \"contracts/ProtocolLiquidityLaunch.sol\":11023:11048  totalBoughtOf[msg.sender] */\n      0xffffffffffffffffffffffffffffffffffffffff\n      and\n      0xffffffffffffffffffffffffffffffffffffffff\n      and\n      dup2\n      mstore\n      0x20\n      add\n      swap1\n      dup2\n      mstore\n      0x20\n      add\n      0x00\n      keccak256\n        /* \"contracts/ProtocolLiquidityLaunch.sol\":11023:11090  totalBoughtOf[msg.sender] = totalBoughtOf[msg.sender].add(_quatity) */\n      dup2\n      swap1\n      sstore\n      pop\n        /* \"contracts/ProtocolLiquidityLaunch.sol\":11118:11119  0 */\n      0x00\n        /* \"contracts/ProtocolLiquidityLaunch.sol\":11104:11114  _refundAmt */\n      dup3\n        /* \"contracts/ProtocolLiquidityLaunch.sol\":11104:11119  _refundAmt >  0 */\n      gt\n        /* \"contracts/ProtocolLiquidityLaunch.sol\":11101:11245  if(_refundAmt >  0) {... */\n      iszero\n      tag_238\n      jumpi\n        /* \"contracts/ProtocolLiquidityLaunch.sol\":11135:11144  bool sent */\n      0x00\n        /* \"contracts/ProtocolLiquidityLaunch.sol\":11155:11165  msg.sender */\n      caller\n        /* \"contracts/ProtocolLiquidityLaunch.sol\":11147:11171  payable(msg.sender).send */\n      0xffffffffffffffffffffffffffffffffffffffff\n      and\n        /* \"contracts/ProtocolLiquidityLaunch.sol\":11147:11183  payable(msg.sender).send(_refundAmt) */\n      0x08fc\n        /* \"contracts/ProtocolLiquidityLaunch.sol\":11172:11182  _refundAmt */\n      dup5\n        /* \"contracts/ProtocolLiquidityLaunch.sol\":11147:11183  payable(msg.sender).send(_refundAmt) */\n      swap1\n      dup2\n      iszero\n      mul\n      swap1\n      mload(0x40)\n      0x00\n      mload(0x40)\n      dup1\n      dup4\n      sub\n      dup2\n      dup6\n      dup9\n      dup9\n      call\n      swap4\n      pop\n      pop\n      pop\n      pop\n        /* \"contracts/ProtocolLiquidityLaunch.sol\":11135:11183  bool sent = payable(msg.sender).send(_refundAmt) */\n      swap1\n      pop\n        /* \"contracts/ProtocolLiquidityLaunch.sol\":11205:11209  sent */\n      dup1\n        /* \"contracts/ProtocolLiquidityLaunch.sol\":11197:11234  require(sent, \"Failed to send Ether\") */\n      tag_240\n      jumpi\n      mload(0x40)\n      0x08c379a000000000000000000000000000000000000000000000000000000000\n      dup2\n      mstore\n      0x04\n      add\n      tag_241\n      swap1\n      tag_141\n      jump\t// in\n    tag_241:\n      mload(0x40)\n      dup1\n      swap2\n      sub\n      swap1\n      revert\n    tag_240:\n        /* \"contracts/ProtocolLiquidityLaunch.sol\":11121:11245  {... */\n      pop\n        /* \"contracts/ProtocolLiquidityLaunch.sol\":11101:11245  if(_refundAmt >  0) {... */\n    tag_238:\n        /* \"contracts/ProtocolLiquidityLaunch.sol\":11259:11307  onBuy(msg.sender, _payAmt, _refundAmt, _quatity) */\n      0xc6c6e695f1540e56fd28424d4074b79aec6507972bf1c9c31855357075965ea9\n        /* \"contracts/ProtocolLiquidityLaunch.sol\":11265:11275  msg.sender */\n      caller\n        /* \"contracts/ProtocolLiquidityLaunch.sol\":11277:11284  _payAmt */\n      dup5\n        /* \"contracts/ProtocolLiquidityLaunch.sol\":11286:11296  _refundAmt */\n      dup5\n        /* \"contracts/ProtocolLiquidityLaunch.sol\":11298:11306  _quatity */\n      dup5\n        /* \"contracts/ProtocolLiquidityLaunch.sol\":11259:11307  onBuy(msg.sender, _payAmt, _refundAmt, _quatity) */\n      mload(0x40)\n      tag_242\n      swap5\n      swap4\n      swap3\n      swap2\n      swap1\n      tag_243\n      jump\t// in\n    tag_242:\n      mload(0x40)\n      dup1\n      swap2\n      sub\n      swap1\n      log1\n        /* \"contracts/ProtocolLiquidityLaunch.sol\":10151:11314  {... */\n      pop\n      pop\n      pop\n      pop\n        /* \"contracts/ProtocolLiquidityLaunch.sol\":10105:11314  function buy() public payable onlyWhitelisted {... */\n      jump\t// out\n        /* \"contracts/ProtocolLiquidityLaunch.sol\":8899:8947  mapping(address => uint256) public totalBoughtOf */\n    tag_93:\n      mstore(0x20, 0x07)\n      dup1\n      0x00\n      mstore\n      keccak256(0x00, 0x40)\n      0x00\n      swap2\n      pop\n      swap1\n      pop\n      sload\n      dup2\n      jump\t// out\n        /* \"contracts/ProtocolLiquidityLaunch.sol\":8629:8646  IERC20 public GAR */\n    tag_97:\n      0x01\n      0x00\n      swap1\n      sload\n      swap1\n      0x0100\n      exp\n      swap1\n      div\n      0xffffffffffffffffffffffffffffffffffffffff\n      and\n      dup2\n      jump\t// out\n        /* \"contracts/ProtocolLiquidityLaunch.sol\":11506:11689  function emergencyWithdraw() public onlyOwner {... */\n    tag_102:\n        /* \"contracts/ProtocolLiquidityLaunch.sol\":9007:9012  owner */\n      0x00\n      0x01\n      swap1\n      sload\n      swap1\n      0x0100\n      exp\n      swap1\n      div\n      0xffffffffffffffffffffffffffffffffffffffff\n      and\n        /* \"contracts/ProtocolLiquidityLaunch.sol\":8993:9012  msg.sender == owner */\n      0xffffffffffffffffffffffffffffffffffffffff\n      and\n        /* \"contracts/ProtocolLiquidityLaunch.sol\":8993:9003  msg.sender */\n      caller\n        /* \"contracts/ProtocolLiquidityLaunch.sol\":8993:9012  msg.sender == owner */\n      0xffffffffffffffffffffffffffffffffffffffff\n      and\n      eq\n        /* \"contracts/ProtocolLiquidityLaunch.sol\":8985:9035  require(msg.sender == owner, 'INVALID_PERMISSION') */\n      tag_245\n      jumpi\n      mload(0x40)\n      0x08c379a000000000000000000000000000000000000000000000000000000000\n      dup2\n      mstore\n      0x04\n      add\n      tag_246\n      swap1\n      tag_127\n      jump\t// in\n    tag_246:\n      mload(0x40)\n      dup1\n      swap2\n      sub\n      swap1\n      revert\n    tag_245:\n        /* \"contracts/ProtocolLiquidityLaunch.sol\":11562:11575  uint256 _cBal */\n      0x00\n        /* \"contracts/ProtocolLiquidityLaunch.sol\":11578:11581  GAR */\n      0x01\n      0x00\n      swap1\n      sload\n      swap1\n      0x0100\n      exp\n      swap1\n      div\n      0xffffffffffffffffffffffffffffffffffffffff\n      and\n        /* \"contracts/ProtocolLiquidityLaunch.sol\":11578:11591  GAR.balanceOf */\n      0xffffffffffffffffffffffffffffffffffffffff\n      and\n      0x70a08231\n        /* \"contracts/ProtocolLiquidityLaunch.sol\":11600:11604  this */\n      address\n        /* \"contracts/ProtocolLiquidityLaunch.sol\":11578:11606  GAR.balanceOf(address(this)) */\n      mload(0x40)\n      dup3\n      0xffffffff\n      and\n      0xe0\n      shl\n      dup2\n      mstore\n      0x04\n      add\n      tag_248\n      swap2\n      swap1\n      tag_70\n      jump\t// in\n    tag_248:\n      0x20\n      mload(0x40)\n      dup1\n      dup4\n      sub\n      dup2\n      dup7\n      dup1\n      extcodesize\n      iszero\n      dup1\n      iszero\n      tag_249\n      jumpi\n      0x00\n      dup1\n      revert\n    tag_249:\n      pop\n      gas\n      staticcall\n      iszero\n      dup1\n      iszero\n      tag_251\n      jumpi\n      returndatasize\n      0x00\n      dup1\n      returndatacopy\n      revert(0x00, returndatasize)\n    tag_251:\n      pop\n      pop\n      pop\n      pop\n      mload(0x40)\n      returndatasize\n      not(0x1f)\n      0x1f\n      dup3\n      add\n      and\n      dup3\n      add\n      dup1\n      0x40\n      mstore\n      pop\n      dup2\n      add\n      swap1\n      tag_252\n      swap2\n      swap1\n      tag_253\n      jump\t// in\n    tag_252:\n        /* \"contracts/ProtocolLiquidityLaunch.sol\":11562:11606  uint256 _cBal = GAR.balanceOf(address(this)) */\n      swap1\n      pop\n        /* \"contracts/ProtocolLiquidityLaunch.sol\":11632:11633  0 */\n      0x00\n        /* \"contracts/ProtocolLiquidityLaunch.sol\":11624:11629  _cBal */\n      dup2\n        /* \"contracts/ProtocolLiquidityLaunch.sol\":11624:11633  _cBal > 0 */\n      gt\n        /* \"contracts/ProtocolLiquidityLaunch.sol\":11616:11646  require(_cBal > 0, \"NO ASSET\") */\n      tag_254\n      jumpi\n      mload(0x40)\n      0x08c379a000000000000000000000000000000000000000000000000000000000\n      dup2\n      mstore\n      0x04\n      add\n      tag_255\n      swap1\n      tag_256\n      jump\t// in\n    tag_255:\n      mload(0x40)\n      dup1\n      swap2\n      sub\n      swap1\n      revert\n    tag_254:\n        /* \"contracts/ProtocolLiquidityLaunch.sol\":11656:11659  GAR */\n      0x01\n      0x00\n      swap1\n      sload\n      swap1\n      0x0100\n      exp\n      swap1\n      div\n      0xffffffffffffffffffffffffffffffffffffffff\n      and\n        /* \"contracts/ProtocolLiquidityLaunch.sol\":11656:11668  GAR.transfer */\n      0xffffffffffffffffffffffffffffffffffffffff\n      and\n      0xa9059cbb\n        /* \"contracts/ProtocolLiquidityLaunch.sol\":11669:11674  owner */\n      0x00\n      0x01\n      swap1\n      sload\n      swap1\n      0x0100\n      exp\n      swap1\n      div\n      0xffffffffffffffffffffffffffffffffffffffff\n      and\n        /* \"contracts/ProtocolLiquidityLaunch.sol\":11676:11681  _cBal */\n      dup4\n        /* \"contracts/ProtocolLiquidityLaunch.sol\":11656:11682  GAR.transfer(owner, _cBal) */\n      mload(0x40)\n      dup4\n      0xffffffff\n      and\n      0xe0\n      shl\n      dup2\n      mstore\n      0x04\n      add\n      tag_257\n      swap3\n      swap2\n      swap1\n      tag_229\n      jump\t// in\n    tag_257:\n      0x20\n      mload(0x40)\n      dup1\n      dup4\n      sub\n      dup2\n      0x00\n      dup8\n      dup1\n      extcodesize\n      iszero\n      dup1\n      iszero\n      tag_258\n      jumpi\n      0x00\n      dup1\n      revert\n    tag_258:\n      pop\n      gas\n      call\n      iszero\n      dup1\n      iszero\n      tag_260\n      jumpi\n      returndatasize\n      0x00\n      dup1\n      returndatacopy\n      revert(0x00, returndatasize)\n    tag_260:\n      pop\n      pop\n      pop\n      pop\n      mload(0x40)\n      returndatasize\n      not(0x1f)\n      0x1f\n      dup3\n      add\n      and\n      dup3\n      add\n      dup1\n      0x40\n      mstore\n      pop\n      dup2\n      add\n      swap1\n      tag_261\n      swap2\n      swap1\n      tag_234\n      jump\t// in\n    tag_261:\n      pop\n        /* \"contracts/ProtocolLiquidityLaunch.sol\":11552:11689  {... */\n      pop\n        /* \"contracts/ProtocolLiquidityLaunch.sol\":11506:11689  function emergencyWithdraw() public onlyOwner {... */\n      jump\t// out\n        /* \"contracts/ProtocolLiquidityLaunch.sol\":8764:8797  uint256 public totalPurchased = 0 */\n    tag_105:\n      sload(0x04)\n      dup2\n      jump\t// out\n        /* \"contracts/ProtocolLiquidityLaunch.sol\":8711:8747  uint256 public totalSale = 50 * 1e27 */\n    tag_109:\n      sload(0x03)\n      dup2\n      jump\t// out\n        /* \"contracts/ProtocolLiquidityLaunch.sol\":9543:9640  function transferOwnership(address _newOwner) public onlyOwner {... */\n    tag_114:\n        /* \"contracts/ProtocolLiquidityLaunch.sol\":9007:9012  owner */\n      0x00\n      0x01\n      swap1\n      sload\n      swap1\n      0x0100\n      exp\n      swap1\n      div\n      0xffffffffffffffffffffffffffffffffffffffff\n      and\n        /* \"contracts/ProtocolLiquidityLaunch.sol\":8993:9012  msg.sender == owner */\n      0xffffffffffffffffffffffffffffffffffffffff\n      and\n        /* \"contracts/ProtocolLiquidityLaunch.sol\":8993:9003  msg.sender */\n      caller\n        /* \"contracts/ProtocolLiquidityLaunch.sol\":8993:9012  msg.sender == owner */\n      0xffffffffffffffffffffffffffffffffffffffff\n      and\n      eq\n        /* \"contracts/ProtocolLiquidityLaunch.sol\":8985:9035  require(msg.sender == owner, 'INVALID_PERMISSION') */\n      tag_263\n      jumpi\n      mload(0x40)\n      0x08c379a000000000000000000000000000000000000000000000000000000000\n      dup2\n      mstore\n      0x04\n      add\n      tag_264\n      swap1\n      tag_127\n      jump\t// in\n    tag_264:\n      mload(0x40)\n      dup1\n      swap2\n      sub\n      swap1\n      revert\n    tag_263:\n        /* \"contracts/ProtocolLiquidityLaunch.sol\":9624:9633  _newOwner */\n      dup1\n        /* \"contracts/ProtocolLiquidityLaunch.sol\":9616:9621  owner */\n      0x00\n      0x01\n        /* \"contracts/ProtocolLiquidityLaunch.sol\":9616:9633  owner = _newOwner */\n      0x0100\n      exp\n      dup2\n      sload\n      dup2\n      0xffffffffffffffffffffffffffffffffffffffff\n      mul\n      not\n      and\n      swap1\n      dup4\n      0xffffffffffffffffffffffffffffffffffffffff\n      and\n      mul\n      or\n      swap1\n      sstore\n      pop\n        /* \"contracts/ProtocolLiquidityLaunch.sol\":9543:9640  function transferOwnership(address _newOwner) public onlyOwner {... */\n      pop\n      jump\t// out\n        /* \"contracts/ProtocolLiquidityLaunch.sol\":8653:8684  uint256 public salePrice = 1e15 */\n    tag_117:\n      sload(0x02)\n      dup2\n      jump\t// out\n        /* \"contracts/ProtocolLiquidityLaunch.sol\":8533:8559  uint8 public VERSION = 100 */\n    tag_121:\n      0x00\n      dup1\n      sload\n      swap1\n      0x0100\n      exp\n      swap1\n      div\n      0xff\n      and\n      dup2\n      jump\t// out\n        /* \"contracts/ProtocolLiquidityLaunch.sol\":2154:2613  function mul(uint256 a, uint256 b) internal pure returns (uint256) {... */\n    tag_155:\n        /* \"contracts/ProtocolLiquidityLaunch.sol\":2212:2219  uint256 */\n      0x00\n        /* \"contracts/ProtocolLiquidityLaunch.sol\":2458:2459  0 */\n      dup1\n        /* \"contracts/ProtocolLiquidityLaunch.sol\":2453:2454  a */\n      dup4\n        /* \"contracts/ProtocolLiquidityLaunch.sol\":2453:2459  a == 0 */\n      eq\n        /* \"contracts/ProtocolLiquidityLaunch.sol\":2449:2494  if (a == 0) {... */\n      iszero\n      tag_267\n      jumpi\n        /* \"contracts/ProtocolLiquidityLaunch.sol\":2482:2483  0 */\n      0x00\n        /* \"contracts/ProtocolLiquidityLaunch.sol\":2475:2483  return 0 */\n      swap1\n      pop\n      jump(tag_266)\n        /* \"contracts/ProtocolLiquidityLaunch.sol\":2449:2494  if (a == 0) {... */\n    tag_267:\n        /* \"contracts/ProtocolLiquidityLaunch.sol\":2504:2513  uint256 c */\n      0x00\n        /* \"contracts/ProtocolLiquidityLaunch.sol\":2520:2521  b */\n      dup3\n        /* \"contracts/ProtocolLiquidityLaunch.sol\":2516:2517  a */\n      dup5\n        /* \"contracts/ProtocolLiquidityLaunch.sol\":2516:2521  a * b */\n      tag_268\n      swap2\n      swap1\n      tag_269\n      jump\t// in\n    tag_268:\n        /* \"contracts/ProtocolLiquidityLaunch.sol\":2504:2521  uint256 c = a * b */\n      swap1\n      pop\n        /* \"contracts/ProtocolLiquidityLaunch.sol\":2548:2549  b */\n      dup3\n        /* \"contracts/ProtocolLiquidityLaunch.sol\":2543:2544  a */\n      dup5\n        /* \"contracts/ProtocolLiquidityLaunch.sol\":2539:2540  c */\n      dup3\n        /* \"contracts/ProtocolLiquidityLaunch.sol\":2539:2544  c / a */\n      tag_270\n      swap2\n      swap1\n      tag_271\n      jump\t// in\n    tag_270:\n        /* \"contracts/ProtocolLiquidityLaunch.sol\":2539:2549  c / a == b */\n      eq\n        /* \"contracts/ProtocolLiquidityLaunch.sol\":2531:2587  require(c / a == b, \"SafeMath: multiplication overflow\") */\n      tag_272\n      jumpi\n      mload(0x40)\n      0x08c379a000000000000000000000000000000000000000000000000000000000\n      dup2\n      mstore\n      0x04\n      add\n      tag_273\n      swap1\n      tag_274\n      jump\t// in\n    tag_273:\n      mload(0x40)\n      dup1\n      swap2\n      sub\n      swap1\n      revert\n    tag_272:\n        /* \"contracts/ProtocolLiquidityLaunch.sol\":2605:2606  c */\n      dup1\n        /* \"contracts/ProtocolLiquidityLaunch.sol\":2598:2606  return c */\n      swap2\n      pop\n      pop\n        /* \"contracts/ProtocolLiquidityLaunch.sol\":2154:2613  function mul(uint256 a, uint256 b) internal pure returns (uint256) {... */\n    tag_266:\n      swap3\n      swap2\n      pop\n      pop\n      jump\t// out\n        /* \"contracts/ProtocolLiquidityLaunch.sol\":3069:3199  function div(uint256 a, uint256 b) internal pure returns (uint256) {... */\n    tag_156:\n        /* \"contracts/ProtocolLiquidityLaunch.sol\":3127:3134  uint256 */\n      0x00\n        /* \"contracts/ProtocolLiquidityLaunch.sol\":3153:3192  div(a, b, \"SafeMath: division by zero\") */\n      tag_276\n        /* \"contracts/ProtocolLiquidityLaunch.sol\":3157:3158  a */\n      dup4\n        /* \"contracts/ProtocolLiquidityLaunch.sol\":3160:3161  b */\n      dup4\n        /* \"contracts/ProtocolLiquidityLaunch.sol\":3153:3192  div(a, b, \"SafeMath: division by zero\") */\n      mload(0x40)\n      dup1\n      0x40\n      add\n      0x40\n      mstore\n      dup1\n      0x1a\n      dup2\n      mstore\n      0x20\n      add\n      0x536166654d6174683a206469766973696f6e206279207a65726f000000000000\n      dup2\n      mstore\n      pop\n        /* \"contracts/ProtocolLiquidityLaunch.sol\":3153:3156  div */\n      tag_277\n        /* \"contracts/ProtocolLiquidityLaunch.sol\":3153:3192  div(a, b, \"SafeMath: division by zero\") */\n      jump\t// in\n    tag_276:\n        /* \"contracts/ProtocolLiquidityLaunch.sol\":3146:3192  return div(a, b, \"SafeMath: division by zero\") */\n      swap1\n      pop\n        /* \"contracts/ProtocolLiquidityLaunch.sol\":3069:3199  function div(uint256 a, uint256 b) internal pure returns (uint256) {... */\n      swap3\n      swap2\n      pop\n      pop\n      jump\t// out\n        /* \"contracts/ProtocolLiquidityLaunch.sol\":1309:1443  function sub(uint256 a, uint256 b) internal pure returns (uint256) {... */\n    tag_187:\n        /* \"contracts/ProtocolLiquidityLaunch.sol\":1367:1374  uint256 */\n      0x00\n        /* \"contracts/ProtocolLiquidityLaunch.sol\":1393:1436  sub(a, b, \"SafeMath: subtraction overflow\") */\n      tag_279\n        /* \"contracts/ProtocolLiquidityLaunch.sol\":1397:1398  a */\n      dup4\n        /* \"contracts/ProtocolLiquidityLaunch.sol\":1400:1401  b */\n      dup4\n        /* \"contracts/ProtocolLiquidityLaunch.sol\":1393:1436  sub(a, b, \"SafeMath: subtraction overflow\") */\n      mload(0x40)\n      dup1\n      0x40\n      add\n      0x40\n      mstore\n      dup1\n      0x1e\n      dup2\n      mstore\n      0x20\n      add\n      0x536166654d6174683a207375627472616374696f6e206f766572666c6f770000\n      dup2\n      mstore\n      pop\n        /* \"contracts/ProtocolLiquidityLaunch.sol\":1393:1396  sub */\n      tag_280\n        /* \"contracts/ProtocolLiquidityLaunch.sol\":1393:1436  sub(a, b, \"SafeMath: subtraction overflow\") */\n      jump\t// in\n    tag_279:\n        /* \"contracts/ProtocolLiquidityLaunch.sol\":1386:1436  return sub(a, b, \"SafeMath: subtraction overflow\") */\n      swap1\n      pop\n        /* \"contracts/ProtocolLiquidityLaunch.sol\":1309:1443  function sub(uint256 a, uint256 b) internal pure returns (uint256) {... */\n      swap3\n      swap2\n      pop\n      pop\n      jump\t// out\n        /* \"contracts/ProtocolLiquidityLaunch.sol\":869:1045  function add(uint256 a, uint256 b) internal pure returns (uint256) {... */\n    tag_224:\n        /* \"contracts/ProtocolLiquidityLaunch.sol\":927:934  uint256 */\n      0x00\n        /* \"contracts/ProtocolLiquidityLaunch.sol\":946:955  uint256 c */\n      dup1\n        /* \"contracts/ProtocolLiquidityLaunch.sol\":962:963  b */\n      dup3\n        /* \"contracts/ProtocolLiquidityLaunch.sol\":958:959  a */\n      dup5\n        /* \"contracts/ProtocolLiquidityLaunch.sol\":958:963  a + b */\n      tag_282\n      swap2\n      swap1\n      tag_283\n      jump\t// in\n    tag_282:\n        /* \"contracts/ProtocolLiquidityLaunch.sol\":946:963  uint256 c = a + b */\n      swap1\n      pop\n        /* \"contracts/ProtocolLiquidityLaunch.sol\":986:987  a */\n      dup4\n        /* \"contracts/ProtocolLiquidityLaunch.sol\":981:982  c */\n      dup2\n        /* \"contracts/ProtocolLiquidityLaunch.sol\":981:987  c >= a */\n      lt\n      iszero\n        /* \"contracts/ProtocolLiquidityLaunch.sol\":973:1019  require(c >= a, \"SafeMath: addition overflow\") */\n      tag_284\n      jumpi\n      mload(0x40)\n      0x08c379a000000000000000000000000000000000000000000000000000000000\n      dup2\n      mstore\n      0x04\n      add\n      tag_285\n      swap1\n      tag_286\n      jump\t// in\n    tag_285:\n      mload(0x40)\n      dup1\n      swap2\n      sub\n      swap1\n      revert\n    tag_284:\n        /* \"contracts/ProtocolLiquidityLaunch.sol\":1037:1038  c */\n      dup1\n        /* \"contracts/ProtocolLiquidityLaunch.sol\":1030:1038  return c */\n      swap2\n      pop\n      pop\n        /* \"contracts/ProtocolLiquidityLaunch.sol\":869:1045  function add(uint256 a, uint256 b) internal pure returns (uint256) {... */\n      swap3\n      swap2\n      pop\n      pop\n      jump\t// out\n        /* \"contracts/ProtocolLiquidityLaunch.sol\":3674:4012  function div(uint256 a, uint256 b, string memory errorMessage) internal pure returns (uint256) {... */\n    tag_277:\n        /* \"contracts/ProtocolLiquidityLaunch.sol\":3760:3767  uint256 */\n      0x00\n        /* \"contracts/ProtocolLiquidityLaunch.sol\":3857:3858  0 */\n      dup1\n        /* \"contracts/ProtocolLiquidityLaunch.sol\":3853:3854  b */\n      dup4\n        /* \"contracts/ProtocolLiquidityLaunch.sol\":3853:3858  b > 0 */\n      gt\n        /* \"contracts/ProtocolLiquidityLaunch.sol\":3860:3872  errorMessage */\n      dup3\n        /* \"contracts/ProtocolLiquidityLaunch.sol\":3845:3873  require(b > 0, errorMessage) */\n      swap1\n      tag_288\n      jumpi\n      mload(0x40)\n      0x08c379a000000000000000000000000000000000000000000000000000000000\n      dup2\n      mstore\n      0x04\n      add\n      tag_289\n      swap2\n      swap1\n      tag_290\n      jump\t// in\n    tag_289:\n      mload(0x40)\n      dup1\n      swap2\n      sub\n      swap1\n      revert\n    tag_288:\n      pop\n        /* \"contracts/ProtocolLiquidityLaunch.sol\":3883:3892  uint256 c */\n      0x00\n        /* \"contracts/ProtocolLiquidityLaunch.sol\":3899:3900  b */\n      dup4\n        /* \"contracts/ProtocolLiquidityLaunch.sol\":3895:3896  a */\n      dup6\n        /* \"contracts/ProtocolLiquidityLaunch.sol\":3895:3900  a / b */\n      tag_291\n      swap2\n      swap1\n      tag_271\n      jump\t// in\n    tag_291:\n        /* \"contracts/ProtocolLiquidityLaunch.sol\":3883:3900  uint256 c = a / b */\n      swap1\n      pop\n        /* \"contracts/ProtocolLiquidityLaunch.sol\":4004:4005  c */\n      dup1\n        /* \"contracts/ProtocolLiquidityLaunch.sol\":3997:4005  return c */\n      swap2\n      pop\n      pop\n        /* \"contracts/ProtocolLiquidityLaunch.sol\":3674:4012  function div(uint256 a, uint256 b, string memory errorMessage) internal pure returns (uint256) {... */\n      swap4\n      swap3\n      pop\n      pop\n      pop\n      jump\t// out\n        /* \"contracts/ProtocolLiquidityLaunch.sol\":1727:1914  function sub(uint256 a, uint256 b, string memory errorMessage) internal pure returns (uint256) {... */\n    tag_280:\n        /* \"contracts/ProtocolLiquidityLaunch.sol\":1813:1820  uint256 */\n      0x00\n        /* \"contracts/ProtocolLiquidityLaunch.sol\":1845:1846  a */\n      dup4\n        /* \"contracts/ProtocolLiquidityLaunch.sol\":1840:1841  b */\n      dup4\n        /* \"contracts/ProtocolLiquidityLaunch.sol\":1840:1846  b <= a */\n      gt\n      iszero\n        /* \"contracts/ProtocolLiquidityLaunch.sol\":1848:1860  errorMessage */\n      dup3\n        /* \"contracts/ProtocolLiquidityLaunch.sol\":1832:1861  require(b <= a, errorMessage) */\n      swap1\n      tag_293\n      jumpi\n      mload(0x40)\n      0x08c379a000000000000000000000000000000000000000000000000000000000\n      dup2\n      mstore\n      0x04\n      add\n      tag_294\n      swap2\n      swap1\n      tag_290\n      jump\t// in\n    tag_294:\n      mload(0x40)\n      dup1\n      swap2\n      sub\n      swap1\n      revert\n    tag_293:\n      pop\n        /* \"contracts/ProtocolLiquidityLaunch.sol\":1871:1880  uint256 c */\n      0x00\n        /* \"contracts/ProtocolLiquidityLaunch.sol\":1887:1888  b */\n      dup4\n        /* \"contracts/ProtocolLiquidityLaunch.sol\":1883:1884  a */\n      dup6\n        /* \"contracts/ProtocolLiquidityLaunch.sol\":1883:1888  a - b */\n      tag_295\n      swap2\n      swap1\n      tag_296\n      jump\t// in\n    tag_295:\n        /* \"contracts/ProtocolLiquidityLaunch.sol\":1871:1888  uint256 c = a - b */\n      swap1\n      pop\n        /* \"contracts/ProtocolLiquidityLaunch.sol\":1906:1907  c */\n      dup1\n        /* \"contracts/ProtocolLiquidityLaunch.sol\":1899:1907  return c */\n      swap2\n      pop\n      pop\n        /* \"contracts/ProtocolLiquidityLaunch.sol\":1727:1914  function sub(uint256 a, uint256 b, string memory errorMessage) internal pure returns (uint256) {... */\n      swap4\n      swap3\n      pop\n      pop\n      pop\n      jump\t// out\n    tag_143:\n      mload(0x40)\n      dup1\n      0x0100\n      add\n      0x40\n      mstore\n      dup1\n      0x08\n      swap1\n      0x20\n      dup3\n      mul\n      dup1\n      calldatasize\n      dup4\n      calldatacopy\n      dup1\n      dup3\n      add\n      swap2\n      pop\n      pop\n      swap1\n      pop\n      pop\n      swap1\n      jump\t// out\n        /* \"#utility.yul\":7:146   */\n    tag_298:\n        /* \"#utility.yul\":53:58   */\n      0x00\n        /* \"#utility.yul\":91:97   */\n      dup2\n        /* \"#utility.yul\":78:98   */\n      calldataload\n        /* \"#utility.yul\":69:98   */\n      swap1\n      pop\n        /* \"#utility.yul\":107:140   */\n      tag_300\n        /* \"#utility.yul\":134:139   */\n      dup2\n        /* \"#utility.yul\":107:140   */\n      tag_301\n      jump\t// in\n    tag_300:\n        /* \"#utility.yul\":7:146   */\n      swap3\n      swap2\n      pop\n      pop\n      jump\t// out\n        /* \"#utility.yul\":152:289   */\n    tag_302:\n        /* \"#utility.yul\":206:211   */\n      0x00\n        /* \"#utility.yul\":237:243   */\n      dup2\n        /* \"#utility.yul\":231:244   */\n      mload\n        /* \"#utility.yul\":222:244   */\n      swap1\n      pop\n        /* \"#utility.yul\":253:283   */\n      tag_304\n        /* \"#utility.yul\":277:282   */\n      dup2\n        /* \"#utility.yul\":253:283   */\n      tag_305\n      jump\t// in\n    tag_304:\n        /* \"#utility.yul\":152:289   */\n      swap3\n      swap2\n      pop\n      pop\n      jump\t// out\n        /* \"#utility.yul\":295:462   */\n    tag_306:\n        /* \"#utility.yul\":355:360   */\n      0x00\n        /* \"#utility.yul\":393:399   */\n      dup2\n        /* \"#utility.yul\":380:400   */\n      calldataload\n        /* \"#utility.yul\":371:400   */\n      swap1\n      pop\n        /* \"#utility.yul\":409:456   */\n      tag_308\n        /* \"#utility.yul\":450:455   */\n      dup2\n        /* \"#utility.yul\":409:456   */\n      tag_309\n      jump\t// in\n    tag_308:\n        /* \"#utility.yul\":295:462   */\n      swap3\n      swap2\n      pop\n      pop\n      jump\t// out\n        /* \"#utility.yul\":468:607   */\n    tag_310:\n        /* \"#utility.yul\":514:519   */\n      0x00\n        /* \"#utility.yul\":552:558   */\n      dup2\n        /* \"#utility.yul\":539:559   */\n      calldataload\n        /* \"#utility.yul\":530:559   */\n      swap1\n      pop\n        /* \"#utility.yul\":568:601   */\n      tag_312\n        /* \"#utility.yul\":595:600   */\n      dup2\n        /* \"#utility.yul\":568:601   */\n      tag_313\n      jump\t// in\n    tag_312:\n        /* \"#utility.yul\":468:607   */\n      swap3\n      swap2\n      pop\n      pop\n      jump\t// out\n        /* \"#utility.yul\":613:756   */\n    tag_314:\n        /* \"#utility.yul\":670:675   */\n      0x00\n        /* \"#utility.yul\":701:707   */\n      dup2\n        /* \"#utility.yul\":695:708   */\n      mload\n        /* \"#utility.yul\":686:708   */\n      swap1\n      pop\n        /* \"#utility.yul\":717:750   */\n      tag_316\n        /* \"#utility.yul\":744:749   */\n      dup2\n        /* \"#utility.yul\":717:750   */\n      tag_313\n      jump\t// in\n    tag_316:\n        /* \"#utility.yul\":613:756   */\n      swap3\n      swap2\n      pop\n      pop\n      jump\t// out\n        /* \"#utility.yul\":762:1091   */\n    tag_44:\n        /* \"#utility.yul\":821:827   */\n      0x00\n        /* \"#utility.yul\":870:872   */\n      0x20\n        /* \"#utility.yul\":858:867   */\n      dup3\n        /* \"#utility.yul\":849:856   */\n      dup5\n        /* \"#utility.yul\":845:868   */\n      sub\n        /* \"#utility.yul\":841:873   */\n      slt\n        /* \"#utility.yul\":838:957   */\n      iszero\n      tag_318\n      jumpi\n        /* \"#utility.yul\":876:955   */\n      tag_319\n      tag_320\n      jump\t// in\n    tag_319:\n        /* \"#utility.yul\":838:957   */\n    tag_318:\n        /* \"#utility.yul\":996:997   */\n      0x00\n        /* \"#utility.yul\":1021:1074   */\n      tag_321\n        /* \"#utility.yul\":1066:1073   */\n      dup5\n        /* \"#utility.yul\":1057:1063   */\n      dup3\n        /* \"#utility.yul\":1046:1055   */\n      dup6\n        /* \"#utility.yul\":1042:1064   */\n      add\n        /* \"#utility.yul\":1021:1074   */\n      tag_298\n      jump\t// in\n    tag_321:\n        /* \"#utility.yul\":1011:1074   */\n      swap2\n      pop\n        /* \"#utility.yul\":967:1084   */\n      pop\n        /* \"#utility.yul\":762:1091   */\n      swap3\n      swap2\n      pop\n      pop\n      jump\t// out\n        /* \"#utility.yul\":1097:1442   */\n    tag_234:\n        /* \"#utility.yul\":1164:1170   */\n      0x00\n        /* \"#utility.yul\":1213:1215   */\n      0x20\n        /* \"#utility.yul\":1201:1210   */\n      dup3\n        /* \"#utility.yul\":1192:1199   */\n      dup5\n        /* \"#utility.yul\":1188:1211   */\n      sub\n        /* \"#utility.yul\":1184:1216   */\n      slt\n        /* \"#utility.yul\":1181:1300   */\n      iszero\n      tag_323\n      jumpi\n        /* \"#utility.yul\":1219:1298   */\n      tag_324\n      tag_320\n      jump\t// in\n    tag_324:\n        /* \"#utility.yul\":1181:1300   */\n    tag_323:\n        /* \"#utility.yul\":1339:1340   */\n      0x00\n        /* \"#utility.yul\":1364:1425   */\n      tag_325\n        /* \"#utility.yul\":1417:1424   */\n      dup5\n        /* \"#utility.yul\":1408:1414   */\n      dup3\n        /* \"#utility.yul\":1397:1406   */\n      dup6\n        /* \"#utility.yul\":1393:1415   */\n      add\n        /* \"#utility.yul\":1364:1425   */\n      tag_302\n      jump\t// in\n    tag_325:\n        /* \"#utility.yul\":1354:1425   */\n      swap2\n      pop\n        /* \"#utility.yul\":1310:1435   */\n      pop\n        /* \"#utility.yul\":1097:1442   */\n      swap3\n      swap2\n      pop\n      pop\n      jump\t// out\n        /* \"#utility.yul\":1448:1805   */\n    tag_55:\n        /* \"#utility.yul\":1521:1527   */\n      0x00\n        /* \"#utility.yul\":1570:1572   */\n      0x20\n        /* \"#utility.yul\":1558:1567   */\n      dup3\n        /* \"#utility.yul\":1549:1556   */\n      dup5\n        /* \"#utility.yul\":1545:1568   */\n      sub\n        /* \"#utility.yul\":1541:1573   */\n      slt\n        /* \"#utility.yul\":1538:1657   */\n      iszero\n      tag_327\n      jumpi\n        /* \"#utility.yul\":1576:1655   */\n      tag_328\n      tag_320\n      jump\t// in\n    tag_328:\n        /* \"#utility.yul\":1538:1657   */\n    tag_327:\n        /* \"#utility.yul\":1696:1697   */\n      0x00\n        /* \"#utility.yul\":1721:1788   */\n      tag_329\n        /* \"#utility.yul\":1780:1787   */\n      dup5\n        /* \"#utility.yul\":1771:1777   */\n      dup3\n        /* \"#utility.yul\":1760:1769   */\n      dup6\n        /* \"#utility.yul\":1756:1778   */\n      add\n        /* \"#utility.yul\":1721:1788   */\n      tag_306\n      jump\t// in\n    tag_329:\n        /* \"#utility.yul\":1711:1788   */\n      swap2\n      pop\n        /* \"#utility.yul\":1667:1798   */\n      pop\n        /* \"#utility.yul\":1448:1805   */\n      swap3\n      swap2\n      pop\n      pop\n      jump\t// out\n        /* \"#utility.yul\":1811:2140   */\n    tag_33:\n        /* \"#utility.yul\":1870:1876   */\n      0x00\n        /* \"#utility.yul\":1919:1921   */\n      0x20\n        /* \"#utility.yul\":1907:1916   */\n      dup3\n        /* \"#utility.yul\":1898:1905   */\n      dup5\n        /* \"#utility.yul\":1894:1917   */\n      sub\n        /* \"#utility.yul\":1890:1922   */\n      slt\n        /* \"#utility.yul\":1887:2006   */\n      iszero\n      tag_331\n      jumpi\n        /* \"#utility.yul\":1925:2004   */\n      tag_332\n      tag_320\n      jump\t// in\n    tag_332:\n        /* \"#utility.yul\":1887:2006   */\n    tag_331:\n        /* \"#utility.yul\":2045:2046   */\n      0x00\n        /* \"#utility.yul\":2070:2123   */\n      tag_333\n        /* \"#utility.yul\":2115:2122   */\n      dup5\n        /* \"#utility.yul\":2106:2112   */\n      dup3\n        /* \"#utility.yul\":2095:2104   */\n      dup6\n        /* \"#utility.yul\":2091:2113   */\n      add\n        /* \"#utility.yul\":2070:2123   */\n      tag_310\n      jump\t// in\n    tag_333:\n        /* \"#utility.yul\":2060:2123   */\n      swap2\n      pop\n        /* \"#utility.yul\":2016:2133   */\n      pop\n        /* \"#utility.yul\":1811:2140   */\n      swap3\n      swap2\n      pop\n      pop\n      jump\t// out\n        /* \"#utility.yul\":2146:2497   */\n    tag_253:\n        /* \"#utility.yul\":2216:2222   */\n      0x00\n        /* \"#utility.yul\":2265:2267   */\n      0x20\n        /* \"#utility.yul\":2253:2262   */\n      dup3\n        /* \"#utility.yul\":2244:2251   */\n      dup5\n        /* \"#utility.yul\":2240:2263   */\n      sub\n        /* \"#utility.yul\":2236:2268   */\n      slt\n        /* \"#utility.yul\":2233:2352   */\n      iszero\n      tag_335\n      jumpi\n        /* \"#utility.yul\":2271:2350   */\n      tag_336\n      tag_320\n      jump\t// in\n    tag_336:\n        /* \"#utility.yul\":2233:2352   */\n    tag_335:\n        /* \"#utility.yul\":2391:2392   */\n      0x00\n        /* \"#utility.yul\":2416:2480   */\n      tag_337\n        /* \"#utility.yul\":2472:2479   */\n      dup5\n        /* \"#utility.yul\":2463:2469   */\n      dup3\n        /* \"#utility.yul\":2452:2461   */\n      dup6\n        /* \"#utility.yul\":2448:2470   */\n      add\n        /* \"#utility.yul\":2416:2480   */\n      tag_314\n      jump\t// in\n    tag_337:\n        /* \"#utility.yul\":2406:2480   */\n      swap2\n      pop\n        /* \"#utility.yul\":2362:2490   */\n      pop\n        /* \"#utility.yul\":2146:2497   */\n      swap3\n      swap2\n      pop\n      pop\n      jump\t// out\n        /* \"#utility.yul\":2503:2682   */\n    tag_338:\n        /* \"#utility.yul\":2572:2582   */\n      0x00\n        /* \"#utility.yul\":2593:2639   */\n      tag_340\n        /* \"#utility.yul\":2635:2638   */\n      dup4\n        /* \"#utility.yul\":2627:2633   */\n      dup4\n        /* \"#utility.yul\":2593:2639   */\n      tag_341\n      jump\t// in\n    tag_340:\n        /* \"#utility.yul\":2671:2675   */\n      0x20\n        /* \"#utility.yul\":2666:2669   */\n      dup4\n        /* \"#utility.yul\":2662:2676   */\n      add\n        /* \"#utility.yul\":2648:2676   */\n      swap1\n      pop\n        /* \"#utility.yul\":2503:2682   */\n      swap3\n      swap2\n      pop\n      pop\n      jump\t// out\n        /* \"#utility.yul\":2688:2806   */\n    tag_342:\n        /* \"#utility.yul\":2775:2799   */\n      tag_344\n        /* \"#utility.yul\":2793:2798   */\n      dup2\n        /* \"#utility.yul\":2775:2799   */\n      tag_345\n      jump\t// in\n    tag_344:\n        /* \"#utility.yul\":2770:2773   */\n      dup3\n        /* \"#utility.yul\":2763:2800   */\n      mstore\n        /* \"#utility.yul\":2688:2806   */\n      pop\n      pop\n      jump\t// out\n        /* \"#utility.yul\":2844:3538   */\n    tag_346:\n        /* \"#utility.yul\":2980:3032   */\n      tag_348\n        /* \"#utility.yul\":3026:3031   */\n      dup2\n        /* \"#utility.yul\":2980:3032   */\n      tag_349\n      jump\t// in\n    tag_348:\n        /* \"#utility.yul\":3048:3132   */\n      tag_350\n        /* \"#utility.yul\":3125:3131   */\n      dup2\n        /* \"#utility.yul\":3120:3123   */\n      dup5\n        /* \"#utility.yul\":3048:3132   */\n      tag_351\n      jump\t// in\n    tag_350:\n        /* \"#utility.yul\":3041:3132   */\n      swap3\n      pop\n        /* \"#utility.yul\":3156:3210   */\n      tag_352\n        /* \"#utility.yul\":3204:3209   */\n      dup3\n        /* \"#utility.yul\":3156:3210   */\n      tag_353\n      jump\t// in\n    tag_352:\n        /* \"#utility.yul\":3233:3240   */\n      dup1\n        /* \"#utility.yul\":3264:3265   */\n      0x00\n        /* \"#utility.yul\":3249:3531   */\n    tag_354:\n        /* \"#utility.yul\":3274:3280   */\n      dup4\n        /* \"#utility.yul\":3271:3272   */\n      dup2\n        /* \"#utility.yul\":3268:3281   */\n      lt\n        /* \"#utility.yul\":3249:3531   */\n      iszero\n      tag_356\n      jumpi\n        /* \"#utility.yul\":3350:3356   */\n      dup2\n        /* \"#utility.yul\":3344:3357   */\n      mload\n        /* \"#utility.yul\":3377:3440   */\n      tag_357\n        /* \"#utility.yul\":3436:3439   */\n      dup8\n        /* \"#utility.yul\":3421:3434   */\n      dup3\n        /* \"#utility.yul\":3377:3440   */\n      tag_338\n      jump\t// in\n    tag_357:\n        /* \"#utility.yul\":3370:3440   */\n      swap7\n      pop\n        /* \"#utility.yul\":3463:3521   */\n      tag_358\n        /* \"#utility.yul\":3514:3520   */\n      dup4\n        /* \"#utility.yul\":3463:3521   */\n      tag_359\n      jump\t// in\n    tag_358:\n        /* \"#utility.yul\":3453:3521   */\n      swap3\n      pop\n        /* \"#utility.yul\":3309:3531   */\n      pop\n        /* \"#utility.yul\":3296:3297   */\n      0x01\n        /* \"#utility.yul\":3293:3294   */\n      dup2\n        /* \"#utility.yul\":3289:3298   */\n      add\n        /* \"#utility.yul\":3284:3298   */\n      swap1\n      pop\n        /* \"#utility.yul\":3249:3531   */\n      jump(tag_354)\n    tag_356:\n        /* \"#utility.yul\":3253:3267   */\n      pop\n        /* \"#utility.yul\":2956:3538   */\n      pop\n      pop\n      pop\n        /* \"#utility.yul\":2844:3538   */\n      pop\n      pop\n      jump\t// out\n        /* \"#utility.yul\":3544:3653   */\n    tag_360:\n        /* \"#utility.yul\":3625:3646   */\n      tag_362\n        /* \"#utility.yul\":3640:3645   */\n      dup2\n        /* \"#utility.yul\":3625:3646   */\n      tag_363\n      jump\t// in\n    tag_362:\n        /* \"#utility.yul\":3620:3623   */\n      dup3\n        /* \"#utility.yul\":3613:3647   */\n      mstore\n        /* \"#utility.yul\":3544:3653   */\n      pop\n      pop\n      jump\t// out\n        /* \"#utility.yul\":3659:3818   */\n    tag_364:\n        /* \"#utility.yul\":3760:3811   */\n      tag_366\n        /* \"#utility.yul\":3805:3810   */\n      dup2\n        /* \"#utility.yul\":3760:3811   */\n      tag_367\n      jump\t// in\n    tag_366:\n        /* \"#utility.yul\":3755:3758   */\n      dup3\n        /* \"#utility.yul\":3748:3812   */\n      mstore\n        /* \"#utility.yul\":3659:3818   */\n      pop\n      pop\n      jump\t// out\n        /* \"#utility.yul\":3824:4188   */\n    tag_368:\n        /* \"#utility.yul\":3912:3915   */\n      0x00\n        /* \"#utility.yul\":3940:3979   */\n      tag_370\n        /* \"#utility.yul\":3973:3978   */\n      dup3\n        /* \"#utility.yul\":3940:3979   */\n      tag_371\n      jump\t// in\n    tag_370:\n        /* \"#utility.yul\":3995:4066   */\n      tag_372\n        /* \"#utility.yul\":4059:4065   */\n      dup2\n        /* \"#utility.yul\":4054:4057   */\n      dup6\n        /* \"#utility.yul\":3995:4066   */\n      tag_373\n      jump\t// in\n    tag_372:\n        /* \"#utility.yul\":3988:4066   */\n      swap4\n      pop\n        /* \"#utility.yul\":4075:4127   */\n      tag_374\n        /* \"#utility.yul\":4120:4126   */\n      dup2\n        /* \"#utility.yul\":4115:4118   */\n      dup6\n        /* \"#utility.yul\":4108:4112   */\n      0x20\n        /* \"#utility.yul\":4101:4106   */\n      dup7\n        /* \"#utility.yul\":4097:4113   */\n      add\n        /* \"#utility.yul\":4075:4127   */\n      tag_375\n      jump\t// in\n    tag_374:\n        /* \"#utility.yul\":4152:4181   */\n      tag_376\n        /* \"#utility.yul\":4174:4180   */\n      dup2\n        /* \"#utility.yul\":4152:4181   */\n      tag_377\n      jump\t// in\n    tag_376:\n        /* \"#utility.yul\":4147:4150   */\n      dup5\n        /* \"#utility.yul\":4143:4182   */\n      add\n        /* \"#utility.yul\":4136:4182   */\n      swap2\n      pop\n        /* \"#utility.yul\":3916:4188   */\n      pop\n        /* \"#utility.yul\":3824:4188   */\n      swap3\n      swap2\n      pop\n      pop\n      jump\t// out\n        /* \"#utility.yul\":4194:4560   */\n    tag_378:\n        /* \"#utility.yul\":4336:4339   */\n      0x00\n        /* \"#utility.yul\":4357:4424   */\n      tag_380\n        /* \"#utility.yul\":4421:4423   */\n      0x0f\n        /* \"#utility.yul\":4416:4419   */\n      dup4\n        /* \"#utility.yul\":4357:4424   */\n      tag_373\n      jump\t// in\n    tag_380:\n        /* \"#utility.yul\":4350:4424   */\n      swap2\n      pop\n        /* \"#utility.yul\":4433:4526   */\n      tag_381\n        /* \"#utility.yul\":4522:4525   */\n      dup3\n        /* \"#utility.yul\":4433:4526   */\n      tag_382\n      jump\t// in\n    tag_381:\n        /* \"#utility.yul\":4551:4553   */\n      0x20\n        /* \"#utility.yul\":4546:4549   */\n      dup3\n        /* \"#utility.yul\":4542:4554   */\n      add\n        /* \"#utility.yul\":4535:4554   */\n      swap1\n      pop\n        /* \"#utility.yul\":4194:4560   */\n      swap2\n      swap1\n      pop\n      jump\t// out\n        /* \"#utility.yul\":4566:4932   */\n    tag_383:\n        /* \"#utility.yul\":4708:4711   */\n      0x00\n        /* \"#utility.yul\":4729:4796   */\n      tag_385\n        /* \"#utility.yul\":4793:4795   */\n      0x11\n        /* \"#utility.yul\":4788:4791   */\n      dup4\n        /* \"#utility.yul\":4729:4796   */\n      tag_373\n      jump\t// in\n    tag_385:\n        /* \"#utility.yul\":4722:4796   */\n      swap2\n      pop\n        /* \"#utility.yul\":4805:4898   */\n      tag_386\n        /* \"#utility.yul\":4894:4897   */\n      dup3\n        /* \"#utility.yul\":4805:4898   */\n      tag_387\n      jump\t// in\n    tag_386:\n        /* \"#utility.yul\":4923:4925   */\n      0x20\n        /* \"#utility.yul\":4918:4921   */\n      dup3\n        /* \"#utility.yul\":4914:4926   */\n      add\n        /* \"#utility.yul\":4907:4926   */\n      swap1\n      pop\n        /* \"#utility.yul\":4566:4932   */\n      swap2\n      swap1\n      pop\n      jump\t// out\n        /* \"#utility.yul\":4938:5303   */\n    tag_388:\n        /* \"#utility.yul\":5080:5083   */\n      0x00\n        /* \"#utility.yul\":5101:5167   */\n      tag_390\n        /* \"#utility.yul\":5165:5166   */\n      0x08\n        /* \"#utility.yul\":5160:5163   */\n      dup4\n        /* \"#utility.yul\":5101:5167   */\n      tag_373\n      jump\t// in\n    tag_390:\n        /* \"#utility.yul\":5094:5167   */\n      swap2\n      pop\n        /* \"#utility.yul\":5176:5269   */\n      tag_391\n        /* \"#utility.yul\":5265:5268   */\n      dup3\n        /* \"#utility.yul\":5176:5269   */\n      tag_392\n      jump\t// in\n    tag_391:\n        /* \"#utility.yul\":5294:5296   */\n      0x20\n        /* \"#utility.yul\":5289:5292   */\n      dup3\n        /* \"#utility.yul\":5285:5297   */\n      add\n        /* \"#utility.yul\":5278:5297   */\n      swap1\n      pop\n        /* \"#utility.yul\":4938:5303   */\n      swap2\n      swap1\n      pop\n      jump\t// out\n        /* \"#utility.yul\":5309:5675   */\n    tag_393:\n        /* \"#utility.yul\":5451:5454   */\n      0x00\n        /* \"#utility.yul\":5472:5539   */\n      tag_395\n        /* \"#utility.yul\":5536:5538   */\n      0x1b\n        /* \"#utility.yul\":5531:5534   */\n      dup4\n        /* \"#utility.yul\":5472:5539   */\n      tag_373\n      jump\t// in\n    tag_395:\n        /* \"#utility.yul\":5465:5539   */\n      swap2\n      pop\n        /* \"#utility.yul\":5548:5641   */\n      tag_396\n        /* \"#utility.yul\":5637:5640   */\n      dup3\n        /* \"#utility.yul\":5548:5641   */\n      tag_397\n      jump\t// in\n    tag_396:\n        /* \"#utility.yul\":5666:5668   */\n      0x20\n        /* \"#utility.yul\":5661:5664   */\n      dup3\n        /* \"#utility.yul\":5657:5669   */\n      add\n        /* \"#utility.yul\":5650:5669   */\n      swap1\n      pop\n        /* \"#utility.yul\":5309:5675   */\n      swap2\n      swap1\n      pop\n      jump\t// out\n        /* \"#utility.yul\":5681:6047   */\n    tag_398:\n        /* \"#utility.yul\":5823:5826   */\n      0x00\n        /* \"#utility.yul\":5844:5911   */\n      tag_400\n        /* \"#utility.yul\":5908:5910   */\n      0x14\n        /* \"#utility.yul\":5903:5906   */\n      dup4\n        /* \"#utility.yul\":5844:5911   */\n      tag_373\n      jump\t// in\n    tag_400:\n        /* \"#utility.yul\":5837:5911   */\n      swap2\n      pop\n        /* \"#utility.yul\":5920:6013   */\n      tag_401\n        /* \"#utility.yul\":6009:6012   */\n      dup3\n        /* \"#utility.yul\":5920:6013   */\n      tag_402\n      jump\t// in\n    tag_401:\n        /* \"#utility.yul\":6038:6040   */\n      0x20\n        /* \"#utility.yul\":6033:6036   */\n      dup3\n        /* \"#utility.yul\":6029:6041   */\n      add\n        /* \"#utility.yul\":6022:6041   */\n      swap1\n      pop\n        /* \"#utility.yul\":5681:6047   */\n      swap2\n      swap1\n      pop\n      jump\t// out\n        /* \"#utility.yul\":6053:6419   */\n    tag_403:\n        /* \"#utility.yul\":6195:6198   */\n      0x00\n        /* \"#utility.yul\":6216:6283   */\n      tag_405\n        /* \"#utility.yul\":6280:6282   */\n      0x10\n        /* \"#utility.yul\":6275:6278   */\n      dup4\n        /* \"#utility.yul\":6216:6283   */\n      tag_373\n      jump\t// in\n    tag_405:\n        /* \"#utility.yul\":6209:6283   */\n      swap2\n      pop\n        /* \"#utility.yul\":6292:6385   */\n      tag_406\n        /* \"#utility.yul\":6381:6384   */\n      dup3\n        /* \"#utility.yul\":6292:6385   */\n      tag_407\n      jump\t// in\n    tag_406:\n        /* \"#utility.yul\":6410:6412   */\n      0x20\n        /* \"#utility.yul\":6405:6408   */\n      dup3\n        /* \"#utility.yul\":6401:6413   */\n      add\n        /* \"#utility.yul\":6394:6413   */\n      swap1\n      pop\n        /* \"#utility.yul\":6053:6419   */\n      swap2\n      swap1\n      pop\n      jump\t// out\n        /* \"#utility.yul\":6425:6791   */\n    tag_408:\n        /* \"#utility.yul\":6567:6570   */\n      0x00\n        /* \"#utility.yul\":6588:6655   */\n      tag_410\n        /* \"#utility.yul\":6652:6654   */\n      0x21\n        /* \"#utility.yul\":6647:6650   */\n      dup4\n        /* \"#utility.yul\":6588:6655   */\n      tag_373\n      jump\t// in\n    tag_410:\n        /* \"#utility.yul\":6581:6655   */\n      swap2\n      pop\n        /* \"#utility.yul\":6664:6757   */\n      tag_411\n        /* \"#utility.yul\":6753:6756   */\n      dup3\n        /* \"#utility.yul\":6664:6757   */\n      tag_412\n      jump\t// in\n    tag_411:\n        /* \"#utility.yul\":6782:6784   */\n      0x40\n        /* \"#utility.yul\":6777:6780   */\n      dup3\n        /* \"#utility.yul\":6773:6785   */\n      add\n        /* \"#utility.yul\":6766:6785   */\n      swap1\n      pop\n        /* \"#utility.yul\":6425:6791   */\n      swap2\n      swap1\n      pop\n      jump\t// out\n        /* \"#utility.yul\":6797:7163   */\n    tag_413:\n        /* \"#utility.yul\":6939:6942   */\n      0x00\n        /* \"#utility.yul\":6960:7027   */\n      tag_415\n        /* \"#utility.yul\":7024:7026   */\n      0x0b\n        /* \"#utility.yul\":7019:7022   */\n      dup4\n        /* \"#utility.yul\":6960:7027   */\n      tag_373\n      jump\t// in\n    tag_415:\n        /* \"#utility.yul\":6953:7027   */\n      swap2\n      pop\n        /* \"#utility.yul\":7036:7129   */\n      tag_416\n        /* \"#utility.yul\":7125:7128   */\n      dup3\n        /* \"#utility.yul\":7036:7129   */\n      tag_417\n      jump\t// in\n    tag_416:\n        /* \"#utility.yul\":7154:7156   */\n      0x20\n        /* \"#utility.yul\":7149:7152   */\n      dup3\n        /* \"#utility.yul\":7145:7157   */\n      add\n        /* \"#utility.yul\":7138:7157   */\n      swap1\n      pop\n        /* \"#utility.yul\":6797:7163   */\n      swap2\n      swap1\n      pop\n      jump\t// out\n        /* \"#utility.yul\":7169:7535   */\n    tag_418:\n        /* \"#utility.yul\":7311:7314   */\n      0x00\n        /* \"#utility.yul\":7332:7399   */\n      tag_420\n        /* \"#utility.yul\":7396:7398   */\n      0x10\n        /* \"#utility.yul\":7391:7394   */\n      dup4\n        /* \"#utility.yul\":7332:7399   */\n      tag_373\n      jump\t// in\n    tag_420:\n        /* \"#utility.yul\":7325:7399   */\n      swap2\n      pop\n        /* \"#utility.yul\":7408:7501   */\n      tag_421\n        /* \"#utility.yul\":7497:7500   */\n      dup3\n        /* \"#utility.yul\":7408:7501   */\n      tag_422\n      jump\t// in\n    tag_421:\n        /* \"#utility.yul\":7526:7528   */\n      0x20\n        /* \"#utility.yul\":7521:7524   */\n      dup3\n        /* \"#utility.yul\":7517:7529   */\n      add\n        /* \"#utility.yul\":7510:7529   */\n      swap1\n      pop\n        /* \"#utility.yul\":7169:7535   */\n      swap2\n      swap1\n      pop\n      jump\t// out\n        /* \"#utility.yul\":7541:7907   */\n    tag_423:\n        /* \"#utility.yul\":7683:7686   */\n      0x00\n        /* \"#utility.yul\":7704:7771   */\n      tag_425\n        /* \"#utility.yul\":7768:7770   */\n      0x0f\n        /* \"#utility.yul\":7763:7766   */\n      dup4\n        /* \"#utility.yul\":7704:7771   */\n      tag_373\n      jump\t// in\n    tag_425:\n        /* \"#utility.yul\":7697:7771   */\n      swap2\n      pop\n        /* \"#utility.yul\":7780:7873   */\n      tag_426\n        /* \"#utility.yul\":7869:7872   */\n      dup3\n        /* \"#utility.yul\":7780:7873   */\n      tag_427\n      jump\t// in\n    tag_426:\n        /* \"#utility.yul\":7898:7900   */\n      0x20\n        /* \"#utility.yul\":7893:7896   */\n      dup3\n        /* \"#utility.yul\":7889:7901   */\n      add\n        /* \"#utility.yul\":7882:7901   */\n      swap1\n      pop\n        /* \"#utility.yul\":7541:7907   */\n      swap2\n      swap1\n      pop\n      jump\t// out\n        /* \"#utility.yul\":7913:8279   */\n    tag_428:\n        /* \"#utility.yul\":8055:8058   */\n      0x00\n        /* \"#utility.yul\":8076:8143   */\n      tag_430\n        /* \"#utility.yul\":8140:8142   */\n      0x0f\n        /* \"#utility.yul\":8135:8138   */\n      dup4\n        /* \"#utility.yul\":8076:8143   */\n      tag_373\n      jump\t// in\n    tag_430:\n        /* \"#utility.yul\":8069:8143   */\n      swap2\n      pop\n        /* \"#utility.yul\":8152:8245   */\n      tag_431\n        /* \"#utility.yul\":8241:8244   */\n      dup3\n        /* \"#utility.yul\":8152:8245   */\n      tag_432\n      jump\t// in\n    tag_431:\n        /* \"#utility.yul\":8270:8272   */\n      0x20\n        /* \"#utility.yul\":8265:8268   */\n      dup3\n        /* \"#utility.yul\":8261:8273   */\n      add\n        /* \"#utility.yul\":8254:8273   */\n      swap1\n      pop\n        /* \"#utility.yul\":7913:8279   */\n      swap2\n      swap1\n      pop\n      jump\t// out\n        /* \"#utility.yul\":8285:8651   */\n    tag_433:\n        /* \"#utility.yul\":8427:8430   */\n      0x00\n        /* \"#utility.yul\":8448:8515   */\n      tag_435\n        /* \"#utility.yul\":8512:8514   */\n      0x12\n        /* \"#utility.yul\":8507:8510   */\n      dup4\n        /* \"#utility.yul\":8448:8515   */\n      tag_373\n      jump\t// in\n    tag_435:\n        /* \"#utility.yul\":8441:8515   */\n      swap2\n      pop\n        /* \"#utility.yul\":8524:8617   */\n      tag_436\n        /* \"#utility.yul\":8613:8616   */\n      dup3\n        /* \"#utility.yul\":8524:8617   */\n      tag_437\n      jump\t// in\n    tag_436:\n        /* \"#utility.yul\":8642:8644   */\n      0x20\n        /* \"#utility.yul\":8637:8640   */\n      dup3\n        /* \"#utility.yul\":8633:8645   */\n      add\n        /* \"#utility.yul\":8626:8645   */\n      swap1\n      pop\n        /* \"#utility.yul\":8285:8651   */\n      swap2\n      swap1\n      pop\n      jump\t// out\n        /* \"#utility.yul\":8657:8765   */\n    tag_341:\n        /* \"#utility.yul\":8734:8758   */\n      tag_439\n        /* \"#utility.yul\":8752:8757   */\n      dup2\n        /* \"#utility.yul\":8734:8758   */\n      tag_440\n      jump\t// in\n    tag_439:\n        /* \"#utility.yul\":8729:8732   */\n      dup3\n        /* \"#utility.yul\":8722:8759   */\n      mstore\n        /* \"#utility.yul\":8657:8765   */\n      pop\n      pop\n      jump\t// out\n        /* \"#utility.yul\":8771:8889   */\n    tag_441:\n        /* \"#utility.yul\":8858:8882   */\n      tag_443\n        /* \"#utility.yul\":8876:8881   */\n      dup2\n        /* \"#utility.yul\":8858:8882   */\n      tag_440\n      jump\t// in\n    tag_443:\n        /* \"#utility.yul\":8853:8856   */\n      dup3\n        /* \"#utility.yul\":8846:8883   */\n      mstore\n        /* \"#utility.yul\":8771:8889   */\n      pop\n      pop\n      jump\t// out\n        /* \"#utility.yul\":8895:9007   */\n    tag_444:\n        /* \"#utility.yul\":8978:9000   */\n      tag_446\n        /* \"#utility.yul\":8994:8999   */\n      dup2\n        /* \"#utility.yul\":8978:9000   */\n      tag_447\n      jump\t// in\n    tag_446:\n        /* \"#utility.yul\":8973:8976   */\n      dup3\n        /* \"#utility.yul\":8966:9001   */\n      mstore\n        /* \"#utility.yul\":8895:9007   */\n      pop\n      pop\n      jump\t// out\n        /* \"#utility.yul\":9013:9235   */\n    tag_70:\n        /* \"#utility.yul\":9106:9110   */\n      0x00\n        /* \"#utility.yul\":9144:9146   */\n      0x20\n        /* \"#utility.yul\":9133:9142   */\n      dup3\n        /* \"#utility.yul\":9129:9147   */\n      add\n        /* \"#utility.yul\":9121:9147   */\n      swap1\n      pop\n        /* \"#utility.yul\":9157:9228   */\n      tag_449\n        /* \"#utility.yul\":9225:9226   */\n      0x00\n        /* \"#utility.yul\":9214:9223   */\n      dup4\n        /* \"#utility.yul\":9210:9227   */\n      add\n        /* \"#utility.yul\":9201:9207   */\n      dup5\n        /* \"#utility.yul\":9157:9228   */\n      tag_342\n      jump\t// in\n    tag_449:\n        /* \"#utility.yul\":9013:9235   */\n      swap3\n      swap2\n      pop\n      pop\n      jump\t// out\n        /* \"#utility.yul\":9241:9573   */\n    tag_229:\n        /* \"#utility.yul\":9362:9366   */\n      0x00\n        /* \"#utility.yul\":9400:9402   */\n      0x40\n        /* \"#utility.yul\":9389:9398   */\n      dup3\n        /* \"#utility.yul\":9385:9403   */\n      add\n        /* \"#utility.yul\":9377:9403   */\n      swap1\n      pop\n        /* \"#utility.yul\":9413:9484   */\n      tag_451\n        /* \"#utility.yul\":9481:9482   */\n      0x00\n        /* \"#utility.yul\":9470:9479   */\n      dup4\n        /* \"#utility.yul\":9466:9483   */\n      add\n        /* \"#utility.yul\":9457:9463   */\n      dup6\n        /* \"#utility.yul\":9413:9484   */\n      tag_342\n      jump\t// in\n    tag_451:\n        /* \"#utility.yul\":9494:9566   */\n      tag_452\n        /* \"#utility.yul\":9562:9564   */\n      0x20\n        /* \"#utility.yul\":9551:9560   */\n      dup4\n        /* \"#utility.yul\":9547:9565   */\n      add\n        /* \"#utility.yul\":9538:9544   */\n      dup5\n        /* \"#utility.yul\":9494:9566   */\n      tag_441\n      jump\t// in\n    tag_452:\n        /* \"#utility.yul\":9241:9573   */\n      swap4\n      swap3\n      pop\n      pop\n      pop\n      jump\t// out\n        /* \"#utility.yul\":9579:10132   */\n    tag_243:\n        /* \"#utility.yul\":9756:9760   */\n      0x00\n        /* \"#utility.yul\":9794:9797   */\n      0x80\n        /* \"#utility.yul\":9783:9792   */\n      dup3\n        /* \"#utility.yul\":9779:9798   */\n      add\n        /* \"#utility.yul\":9771:9798   */\n      swap1\n      pop\n        /* \"#utility.yul\":9808:9879   */\n      tag_454\n        /* \"#utility.yul\":9876:9877   */\n      0x00\n        /* \"#utility.yul\":9865:9874   */\n      dup4\n        /* \"#utility.yul\":9861:9878   */\n      add\n        /* \"#utility.yul\":9852:9858   */\n      dup8\n        /* \"#utility.yul\":9808:9879   */\n      tag_342\n      jump\t// in\n    tag_454:\n        /* \"#utility.yul\":9889:9961   */\n      tag_455\n        /* \"#utility.yul\":9957:9959   */\n      0x20\n        /* \"#utility.yul\":9946:9955   */\n      dup4\n        /* \"#utility.yul\":9942:9960   */\n      add\n        /* \"#utility.yul\":9933:9939   */\n      dup7\n        /* \"#utility.yul\":9889:9961   */\n      tag_441\n      jump\t// in\n    tag_455:\n        /* \"#utility.yul\":9971:10043   */\n      tag_456\n        /* \"#utility.yul\":10039:10041   */\n      0x40\n        /* \"#utility.yul\":10028:10037   */\n      dup4\n        /* \"#utility.yul\":10024:10042   */\n      add\n        /* \"#utility.yul\":10015:10021   */\n      dup6\n        /* \"#utility.yul\":9971:10043   */\n      tag_441\n      jump\t// in\n    tag_456:\n        /* \"#utility.yul\":10053:10125   */\n      tag_457\n        /* \"#utility.yul\":10121:10123   */\n      0x60\n        /* \"#utility.yul\":10110:10119   */\n      dup4\n        /* \"#utility.yul\":10106:10124   */\n      add\n        /* \"#utility.yul\":10097:10103   */\n      dup5\n        /* \"#utility.yul\":10053:10125   */\n      tag_441\n      jump\t// in\n    tag_457:\n        /* \"#utility.yul\":9579:10132   */\n      swap6\n      swap5\n      pop\n      pop\n      pop\n      pop\n      pop\n      jump\t// out\n        /* \"#utility.yul\":10138:10453   */\n    tag_47:\n        /* \"#utility.yul\":10277:10281   */\n      0x00\n        /* \"#utility.yul\":10315:10318   */\n      0x0100\n        /* \"#utility.yul\":10304:10313   */\n      dup3\n        /* \"#utility.yul\":10300:10319   */\n      add\n        /* \"#utility.yul\":10292:10319   */\n      swap1\n      pop\n        /* \"#utility.yul\":10329:10446   */\n      tag_459\n        /* \"#utility.yul\":10443:10444   */\n      0x00\n        /* \"#utility.yul\":10432:10441   */\n      dup4\n        /* \"#utility.yul\":10428:10445   */\n      add\n        /* \"#utility.yul\":10419:10425   */\n      dup5\n        /* \"#utility.yul\":10329:10446   */\n      tag_346\n      jump\t// in\n    tag_459:\n        /* \"#utility.yul\":10138:10453   */\n      swap3\n      swap2\n      pop\n      pop\n      jump\t// out\n        /* \"#utility.yul\":10459:10669   */\n    tag_80:\n        /* \"#utility.yul\":10546:10550   */\n      0x00\n        /* \"#utility.yul\":10584:10586   */\n      0x20\n        /* \"#utility.yul\":10573:10582   */\n      dup3\n        /* \"#utility.yul\":10569:10587   */\n      add\n        /* \"#utility.yul\":10561:10587   */\n      swap1\n      pop\n        /* \"#utility.yul\":10597:10662   */\n      tag_461\n        /* \"#utility.yul\":10659:10660   */\n      0x00\n        /* \"#utility.yul\":10648:10657   */\n      dup4\n        /* \"#utility.yul\":10644:10661   */\n      add\n        /* \"#utility.yul\":10635:10641   */\n      dup5\n        /* \"#utility.yul\":10597:10662   */\n      tag_360\n      jump\t// in\n    tag_461:\n        /* \"#utility.yul\":10459:10669   */\n      swap3\n      swap2\n      pop\n      pop\n      jump\t// out\n        /* \"#utility.yul\":10675:10925   */\n    tag_99:\n        /* \"#utility.yul\":10782:10786   */\n      0x00\n        /* \"#utility.yul\":10820:10822   */\n      0x20\n        /* \"#utility.yul\":10809:10818   */\n      dup3\n        /* \"#utility.yul\":10805:10823   */\n      add\n        /* \"#utility.yul\":10797:10823   */\n      swap1\n      pop\n        /* \"#utility.yul\":10833:10918   */\n      tag_463\n        /* \"#utility.yul\":10915:10916   */\n      0x00\n        /* \"#utility.yul\":10904:10913   */\n      dup4\n        /* \"#utility.yul\":10900:10917   */\n      add\n        /* \"#utility.yul\":10891:10897   */\n      dup5\n        /* \"#utility.yul\":10833:10918   */\n      tag_364\n      jump\t// in\n    tag_463:\n        /* \"#utility.yul\":10675:10925   */\n      swap3\n      swap2\n      pop\n      pop\n      jump\t// out\n        /* \"#utility.yul\":10931:11244   */\n    tag_290:\n        /* \"#utility.yul\":11044:11048   */\n      0x00\n        /* \"#utility.yul\":11082:11084   */\n      0x20\n        /* \"#utility.yul\":11071:11080   */\n      dup3\n        /* \"#utility.yul\":11067:11085   */\n      add\n        /* \"#utility.yul\":11059:11085   */\n      swap1\n      pop\n        /* \"#utility.yul\":11131:11140   */\n      dup2\n        /* \"#utility.yul\":11125:11129   */\n      dup2\n        /* \"#utility.yul\":11121:11141   */\n      sub\n        /* \"#utility.yul\":11117:11118   */\n      0x00\n        /* \"#utility.yul\":11106:11115   */\n      dup4\n        /* \"#utility.yul\":11102:11119   */\n      add\n        /* \"#utility.yul\":11095:11142   */\n      mstore\n        /* \"#utility.yul\":11159:11237   */\n      tag_465\n        /* \"#utility.yul\":11232:11236   */\n      dup2\n        /* \"#utility.yul\":11223:11229   */\n      dup5\n        /* \"#utility.yul\":11159:11237   */\n      tag_368\n      jump\t// in\n    tag_465:\n        /* \"#utility.yul\":11151:11237   */\n      swap1\n      pop\n        /* \"#utility.yul\":10931:11244   */\n      swap3\n      swap2\n      pop\n      pop\n      jump\t// out\n        /* \"#utility.yul\":11250:11669   */\n    tag_180:\n        /* \"#utility.yul\":11416:11420   */\n      0x00\n        /* \"#utility.yul\":11454:11456   */\n      0x20\n        /* \"#utility.yul\":11443:11452   */\n      dup3\n        /* \"#utility.yul\":11439:11457   */\n      add\n        /* \"#utility.yul\":11431:11457   */\n      swap1\n      pop\n        /* \"#utility.yul\":11503:11512   */\n      dup2\n        /* \"#utility.yul\":11497:11501   */\n      dup2\n        /* \"#utility.yul\":11493:11513   */\n      sub\n        /* \"#utility.yul\":11489:11490   */\n      0x00\n        /* \"#utility.yul\":11478:11487   */\n      dup4\n        /* \"#utility.yul\":11474:11491   */\n      add\n        /* \"#utility.yul\":11467:11514   */\n      mstore\n        /* \"#utility.yul\":11531:11662   */\n      tag_467\n        /* \"#utility.yul\":11657:11661   */\n      dup2\n        /* \"#utility.yul\":11531:11662   */\n      tag_378\n      jump\t// in\n    tag_467:\n        /* \"#utility.yul\":11523:11662   */\n      swap1\n      pop\n        /* \"#utility.yul\":11250:11669   */\n      swap2\n      swap1\n      pop\n      jump\t// out\n        /* \"#utility.yul\":11675:12094   */\n    tag_200:\n        /* \"#utility.yul\":11841:11845   */\n      0x00\n        /* \"#utility.yul\":11879:11881   */\n      0x20\n        /* \"#utility.yul\":11868:11877   */\n      dup3\n        /* \"#utility.yul\":11864:11882   */\n      add\n        /* \"#utility.yul\":11856:11882   */\n      swap1\n      pop\n        /* \"#utility.yul\":11928:11937   */\n      dup2\n        /* \"#utility.yul\":11922:11926   */\n      dup2\n        /* \"#utility.yul\":11918:11938   */\n      sub\n        /* \"#utility.yul\":11914:11915   */\n      0x00\n        /* \"#utility.yul\":11903:11912   */\n      dup4\n        /* \"#utility.yul\":11899:11916   */\n      add\n        /* \"#utility.yul\":11892:11939   */\n      mstore\n        /* \"#utility.yul\":11956:12087   */\n      tag_469\n        /* \"#utility.yul\":12082:12086   */\n      dup2\n        /* \"#utility.yul\":11956:12087   */\n      tag_383\n      jump\t// in\n    tag_469:\n        /* \"#utility.yul\":11948:12087   */\n      swap1\n      pop\n        /* \"#utility.yul\":11675:12094   */\n      swap2\n      swap1\n      pop\n      jump\t// out\n        /* \"#utility.yul\":12100:12519   */\n    tag_256:\n        /* \"#utility.yul\":12266:12270   */\n      0x00\n        /* \"#utility.yul\":12304:12306   */\n      0x20\n        /* \"#utility.yul\":12293:12302   */\n      dup3\n        /* \"#utility.yul\":12289:12307   */\n      add\n        /* \"#utility.yul\":12281:12307   */\n      swap1\n      pop\n        /* \"#utility.yul\":12353:12362   */\n      dup2\n        /* \"#utility.yul\":12347:12351   */\n      dup2\n        /* \"#utility.yul\":12343:12363   */\n      sub\n        /* \"#utility.yul\":12339:12340   */\n      0x00\n        /* \"#utility.yul\":12328:12337   */\n      dup4\n        /* \"#utility.yul\":12324:12341   */\n      add\n        /* \"#utility.yul\":12317:12364   */\n      mstore\n        /* \"#utility.yul\":12381:12512   */\n      tag_471\n        /* \"#utility.yul\":12507:12511   */\n      dup2\n        /* \"#utility.yul\":12381:12512   */\n      tag_388\n      jump\t// in\n    tag_471:\n        /* \"#utility.yul\":12373:12512   */\n      swap1\n      pop\n        /* \"#utility.yul\":12100:12519   */\n      swap2\n      swap1\n      pop\n      jump\t// out\n        /* \"#utility.yul\":12525:12944   */\n    tag_286:\n        /* \"#utility.yul\":12691:12695   */\n      0x00\n        /* \"#utility.yul\":12729:12731   */\n      0x20\n        /* \"#utility.yul\":12718:12727   */\n      dup3\n        /* \"#utility.yul\":12714:12732   */\n      add\n        /* \"#utility.yul\":12706:12732   */\n      swap1\n      pop\n        /* \"#utility.yul\":12778:12787   */\n      dup2\n        /* \"#utility.yul\":12772:12776   */\n      dup2\n        /* \"#utility.yul\":12768:12788   */\n      sub\n        /* \"#utility.yul\":12764:12765   */\n      0x00\n        /* \"#utility.yul\":12753:12762   */\n      dup4\n        /* \"#utility.yul\":12749:12766   */\n      add\n        /* \"#utility.yul\":12742:12789   */\n      mstore\n        /* \"#utility.yul\":12806:12937   */\n      tag_473\n        /* \"#utility.yul\":12932:12936   */\n      dup2\n        /* \"#utility.yul\":12806:12937   */\n      tag_393\n      jump\t// in\n    tag_473:\n        /* \"#utility.yul\":12798:12937   */\n      swap1\n      pop\n        /* \"#utility.yul\":12525:12944   */\n      swap2\n      swap1\n      pop\n      jump\t// out\n        /* \"#utility.yul\":12950:13369   */\n    tag_141:\n        /* \"#utility.yul\":13116:13120   */\n      0x00\n        /* \"#utility.yul\":13154:13156   */\n      0x20\n        /* \"#utility.yul\":13143:13152   */\n      dup3\n        /* \"#utility.yul\":13139:13157   */\n      add\n        /* \"#utility.yul\":13131:13157   */\n      swap1\n      pop\n        /* \"#utility.yul\":13203:13212   */\n      dup2\n        /* \"#utility.yul\":13197:13201   */\n      dup2\n        /* \"#utility.yul\":13193:13213   */\n      sub\n        /* \"#utility.yul\":13189:13190   */\n      0x00\n        /* \"#utility.yul\":13178:13187   */\n      dup4\n        /* \"#utility.yul\":13174:13191   */\n      add\n        /* \"#utility.yul\":13167:13214   */\n      mstore\n        /* \"#utility.yul\":13231:13362   */\n      tag_475\n        /* \"#utility.yul\":13357:13361   */\n      dup2\n        /* \"#utility.yul\":13231:13362   */\n      tag_398\n      jump\t// in\n    tag_475:\n        /* \"#utility.yul\":13223:13362   */\n      swap1\n      pop\n        /* \"#utility.yul\":12950:13369   */\n      swap2\n      swap1\n      pop\n      jump\t// out\n        /* \"#utility.yul\":13375:13794   */\n    tag_227:\n        /* \"#utility.yul\":13541:13545   */\n      0x00\n        /* \"#utility.yul\":13579:13581   */\n      0x20\n        /* \"#utility.yul\":13568:13577   */\n      dup3\n        /* \"#utility.yul\":13564:13582   */\n      add\n        /* \"#utility.yul\":13556:13582   */\n      swap1\n      pop\n        /* \"#utility.yul\":13628:13637   */\n      dup2\n        /* \"#utility.yul\":13622:13626   */\n      dup2\n        /* \"#utility.yul\":13618:13638   */\n      sub\n        /* \"#utility.yul\":13614:13615   */\n      0x00\n        /* \"#utility.yul\":13603:13612   */\n      dup4\n        /* \"#utility.yul\":13599:13616   */\n      add\n        /* \"#utility.yul\":13592:13639   */\n      mstore\n        /* \"#utility.yul\":13656:13787   */\n      tag_477\n        /* \"#utility.yul\":13782:13786   */\n      dup2\n        /* \"#utility.yul\":13656:13787   */\n      tag_403\n      jump\t// in\n    tag_477:\n        /* \"#utility.yul\":13648:13787   */\n      swap1\n      pop\n        /* \"#utility.yul\":13375:13794   */\n      swap2\n      swap1\n      pop\n      jump\t// out\n        /* \"#utility.yul\":13800:14219   */\n    tag_274:\n        /* \"#utility.yul\":13966:13970   */\n      0x00\n        /* \"#utility.yul\":14004:14006   */\n      0x20\n        /* \"#utility.yul\":13993:14002   */\n      dup3\n        /* \"#utility.yul\":13989:14007   */\n      add\n        /* \"#utility.yul\":13981:14007   */\n      swap1\n      pop\n        /* \"#utility.yul\":14053:14062   */\n      dup2\n        /* \"#utility.yul\":14047:14051   */\n      dup2\n        /* \"#utility.yul\":14043:14063   */\n      sub\n        /* \"#utility.yul\":14039:14040   */\n      0x00\n        /* \"#utility.yul\":14028:14037   */\n      dup4\n        /* \"#utility.yul\":14024:14041   */\n      add\n        /* \"#utility.yul\":14017:14064   */\n      mstore\n        /* \"#utility.yul\":14081:14212   */\n      tag_479\n        /* \"#utility.yul\":14207:14211   */\n      dup2\n        /* \"#utility.yul\":14081:14212   */\n      tag_408\n      jump\t// in\n    tag_479:\n        /* \"#utility.yul\":14073:14212   */\n      swap1\n      pop\n        /* \"#utility.yul\":13800:14219   */\n      swap2\n      swap1\n      pop\n      jump\t// out\n        /* \"#utility.yul\":14225:14644   */\n    tag_204:\n        /* \"#utility.yul\":14391:14395   */\n      0x00\n        /* \"#utility.yul\":14429:14431   */\n      0x20\n        /* \"#utility.yul\":14418:14427   */\n      dup3\n        /* \"#utility.yul\":14414:14432   */\n      add\n        /* \"#utility.yul\":14406:14432   */\n      swap1\n      pop\n        /* \"#utility.yul\":14478:14487   */\n      dup2\n        /* \"#utility.yul\":14472:14476   */\n      dup2\n        /* \"#utility.yul\":14468:14488   */\n      sub\n        /* \"#utility.yul\":14464:14465   */\n      0x00\n        /* \"#utility.yul\":14453:14462   */\n      dup4\n        /* \"#utility.yul\":14449:14466   */\n      add\n        /* \"#utility.yul\":14442:14489   */\n      mstore\n        /* \"#utility.yul\":14506:14637   */\n      tag_481\n        /* \"#utility.yul\":14632:14636   */\n      dup2\n        /* \"#utility.yul\":14506:14637   */\n      tag_413\n      jump\t// in\n    tag_481:\n        /* \"#utility.yul\":14498:14637   */\n      swap1\n      pop\n        /* \"#utility.yul\":14225:14644   */\n      swap2\n      swap1\n      pop\n      jump\t// out\n        /* \"#utility.yul\":14650:15069   */\n    tag_207:\n        /* \"#utility.yul\":14816:14820   */\n      0x00\n        /* \"#utility.yul\":14854:14856   */\n      0x20\n        /* \"#utility.yul\":14843:14852   */\n      dup3\n        /* \"#utility.yul\":14839:14857   */\n      add\n        /* \"#utility.yul\":14831:14857   */\n      swap1\n      pop\n        /* \"#utility.yul\":14903:14912   */\n      dup2\n        /* \"#utility.yul\":14897:14901   */\n      dup2\n        /* \"#utility.yul\":14893:14913   */\n      sub\n        /* \"#utility.yul\":14889:14890   */\n      0x00\n        /* \"#utility.yul\":14878:14887   */\n      dup4\n        /* \"#utility.yul\":14874:14891   */\n      add\n        /* \"#utility.yul\":14867:14914   */\n      mstore\n        /* \"#utility.yul\":14931:15062   */\n      tag_483\n        /* \"#utility.yul\":15057:15061   */\n      dup2\n        /* \"#utility.yul\":14931:15062   */\n      tag_418\n      jump\t// in\n    tag_483:\n        /* \"#utility.yul\":14923:15062   */\n      swap1\n      pop\n        /* \"#utility.yul\":14650:15069   */\n      swap2\n      swap1\n      pop\n      jump\t// out\n        /* \"#utility.yul\":15075:15494   */\n    tag_222:\n        /* \"#utility.yul\":15241:15245   */\n      0x00\n        /* \"#utility.yul\":15279:15281   */\n      0x20\n        /* \"#utility.yul\":15268:15277   */\n      dup3\n        /* \"#utility.yul\":15264:15282   */\n      add\n        /* \"#utility.yul\":15256:15282   */\n      swap1\n      pop\n        /* \"#utility.yul\":15328:15337   */\n      dup2\n        /* \"#utility.yul\":15322:15326   */\n      dup2\n        /* \"#utility.yul\":15318:15338   */\n      sub\n        /* \"#utility.yul\":15314:15315   */\n      0x00\n        /* \"#utility.yul\":15303:15312   */\n      dup4\n        /* \"#utility.yul\":15299:15316   */\n      add\n        /* \"#utility.yul\":15292:15339   */\n      mstore\n        /* \"#utility.yul\":15356:15487   */\n      tag_485\n        /* \"#utility.yul\":15482:15486   */\n      dup2\n        /* \"#utility.yul\":15356:15487   */\n      tag_423\n      jump\t// in\n    tag_485:\n        /* \"#utility.yul\":15348:15487   */\n      swap1\n      pop\n        /* \"#utility.yul\":15075:15494   */\n      swap2\n      swap1\n      pop\n      jump\t// out\n        /* \"#utility.yul\":15500:15919   */\n    tag_219:\n        /* \"#utility.yul\":15666:15670   */\n      0x00\n        /* \"#utility.yul\":15704:15706   */\n      0x20\n        /* \"#utility.yul\":15693:15702   */\n      dup3\n        /* \"#utility.yul\":15689:15707   */\n      add\n        /* \"#utility.yul\":15681:15707   */\n      swap1\n      pop\n        /* \"#utility.yul\":15753:15762   */\n      dup2\n        /* \"#utility.yul\":15747:15751   */\n      dup2\n        /* \"#utility.yul\":15743:15763   */\n      sub\n        /* \"#utility.yul\":15739:15740   */\n      0x00\n        /* \"#utility.yul\":15728:15737   */\n      dup4\n        /* \"#utility.yul\":15724:15741   */\n      add\n        /* \"#utility.yul\":15717:15764   */\n      mstore\n        /* \"#utility.yul\":15781:15912   */\n      tag_487\n        /* \"#utility.yul\":15907:15911   */\n      dup2\n        /* \"#utility.yul\":15781:15912   */\n      tag_428\n      jump\t// in\n    tag_487:\n        /* \"#utility.yul\":15773:15912   */\n      swap1\n      pop\n        /* \"#utility.yul\":15500:15919   */\n      swap2\n      swap1\n      pop\n      jump\t// out\n        /* \"#utility.yul\":15925:16344   */\n    tag_127:\n        /* \"#utility.yul\":16091:16095   */\n      0x00\n        /* \"#utility.yul\":16129:16131   */\n      0x20\n        /* \"#utility.yul\":16118:16127   */\n      dup3\n        /* \"#utility.yul\":16114:16132   */\n      add\n        /* \"#utility.yul\":16106:16132   */\n      swap1\n      pop\n        /* \"#utility.yul\":16178:16187   */\n      dup2\n        /* \"#utility.yul\":16172:16176   */\n      dup2\n        /* \"#utility.yul\":16168:16188   */\n      sub\n        /* \"#utility.yul\":16164:16165   */\n      0x00\n        /* \"#utility.yul\":16153:16162   */\n      dup4\n        /* \"#utility.yul\":16149:16166   */\n      add\n        /* \"#utility.yul\":16142:16189   */\n      mstore\n        /* \"#utility.yul\":16206:16337   */\n      tag_489\n        /* \"#utility.yul\":16332:16336   */\n      dup2\n        /* \"#utility.yul\":16206:16337   */\n      tag_433\n      jump\t// in\n    tag_489:\n        /* \"#utility.yul\":16198:16337   */\n      swap1\n      pop\n        /* \"#utility.yul\":15925:16344   */\n      swap2\n      swap1\n      pop\n      jump\t// out\n        /* \"#utility.yul\":16350:16572   */\n    tag_61:\n        /* \"#utility.yul\":16443:16447   */\n      0x00\n        /* \"#utility.yul\":16481:16483   */\n      0x20\n        /* \"#utility.yul\":16470:16479   */\n      dup3\n        /* \"#utility.yul\":16466:16484   */\n      add\n        /* \"#utility.yul\":16458:16484   */\n      swap1\n      pop\n        /* \"#utility.yul\":16494:16565   */\n      tag_491\n        /* \"#utility.yul\":16562:16563   */\n      0x00\n        /* \"#utility.yul\":16551:16560   */\n      dup4\n        /* \"#utility.yul\":16547:16564   */\n      add\n        /* \"#utility.yul\":16538:16544   */\n      dup5\n        /* \"#utility.yul\":16494:16565   */\n      tag_441\n      jump\t// in\n    tag_491:\n        /* \"#utility.yul\":16350:16572   */\n      swap3\n      swap2\n      pop\n      pop\n      jump\t// out\n        /* \"#utility.yul\":16578:16792   */\n    tag_123:\n        /* \"#utility.yul\":16667:16671   */\n      0x00\n        /* \"#utility.yul\":16705:16707   */\n      0x20\n        /* \"#utility.yul\":16694:16703   */\n      dup3\n        /* \"#utility.yul\":16690:16708   */\n      add\n        /* \"#utility.yul\":16682:16708   */\n      swap1\n      pop\n        /* \"#utility.yul\":16718:16785   */\n      tag_493\n        /* \"#utility.yul\":16782:16783   */\n      0x00\n        /* \"#utility.yul\":16771:16780   */\n      dup4\n        /* \"#utility.yul\":16767:16784   */\n      add\n        /* \"#utility.yul\":16758:16764   */\n      dup5\n        /* \"#utility.yul\":16718:16785   */\n      tag_444\n      jump\t// in\n    tag_493:\n        /* \"#utility.yul\":16578:16792   */\n      swap3\n      swap2\n      pop\n      pop\n      jump\t// out\n        /* \"#utility.yul\":16879:16977   */\n    tag_353:\n        /* \"#utility.yul\":16944:16948   */\n      0x00\n        /* \"#utility.yul\":16967:16970   */\n      dup2\n        /* \"#utility.yul\":16959:16970   */\n      swap1\n      pop\n        /* \"#utility.yul\":16879:16977   */\n      swap2\n      swap1\n      pop\n      jump\t// out\n        /* \"#utility.yul\":16983:17087   */\n    tag_349:\n        /* \"#utility.yul\":17048:17054   */\n      0x00\n        /* \"#utility.yul\":17076:17080   */\n      0x08\n        /* \"#utility.yul\":17066:17080   */\n      swap1\n      pop\n        /* \"#utility.yul\":16983:17087   */\n      swap2\n      swap1\n      pop\n      jump\t// out\n        /* \"#utility.yul\":17093:17192   */\n    tag_371:\n        /* \"#utility.yul\":17145:17151   */\n      0x00\n        /* \"#utility.yul\":17179:17184   */\n      dup2\n        /* \"#utility.yul\":17173:17185   */\n      mload\n        /* \"#utility.yul\":17163:17185   */\n      swap1\n      pop\n        /* \"#utility.yul\":17093:17192   */\n      swap2\n      swap1\n      pop\n      jump\t// out\n        /* \"#utility.yul\":17198:17309   */\n    tag_359:\n        /* \"#utility.yul\":17266:17270   */\n      0x00\n        /* \"#utility.yul\":17298:17302   */\n      0x20\n        /* \"#utility.yul\":17293:17296   */\n      dup3\n        /* \"#utility.yul\":17289:17303   */\n      add\n        /* \"#utility.yul\":17281:17303   */\n      swap1\n      pop\n        /* \"#utility.yul\":17198:17309   */\n      swap2\n      swap1\n      pop\n      jump\t// out\n        /* \"#utility.yul\":17315:17458   */\n    tag_351:\n        /* \"#utility.yul\":17412:17423   */\n      0x00\n        /* \"#utility.yul\":17449:17452   */\n      dup2\n        /* \"#utility.yul\":17434:17452   */\n      swap1\n      pop\n        /* \"#utility.yul\":17315:17458   */\n      swap3\n      swap2\n      pop\n      pop\n      jump\t// out\n        /* \"#utility.yul\":17464:17633   */\n    tag_373:\n        /* \"#utility.yul\":17548:17559   */\n      0x00\n        /* \"#utility.yul\":17582:17588   */\n      dup3\n        /* \"#utility.yul\":17577:17580   */\n      dup3\n        /* \"#utility.yul\":17570:17589   */\n      mstore\n        /* \"#utility.yul\":17622:17626   */\n      0x20\n        /* \"#utility.yul\":17617:17620   */\n      dup3\n        /* \"#utility.yul\":17613:17627   */\n      add\n        /* \"#utility.yul\":17598:17627   */\n      swap1\n      pop\n        /* \"#utility.yul\":17464:17633   */\n      swap3\n      swap2\n      pop\n      pop\n      jump\t// out\n        /* \"#utility.yul\":17639:17944   */\n    tag_283:\n        /* \"#utility.yul\":17679:17682   */\n      0x00\n        /* \"#utility.yul\":17698:17718   */\n      tag_503\n        /* \"#utility.yul\":17716:17717   */\n      dup3\n        /* \"#utility.yul\":17698:17718   */\n      tag_440\n      jump\t// in\n    tag_503:\n        /* \"#utility.yul\":17693:17718   */\n      swap2\n      pop\n        /* \"#utility.yul\":17732:17752   */\n      tag_504\n        /* \"#utility.yul\":17750:17751   */\n      dup4\n        /* \"#utility.yul\":17732:17752   */\n      tag_440\n      jump\t// in\n    tag_504:\n        /* \"#utility.yul\":17727:17752   */\n      swap3\n      pop\n        /* \"#utility.yul\":17886:17887   */\n      dup3\n        /* \"#utility.yul\":17818:17884   */\n      0xffffffffffffffffffffffffffffffffffffffffffffffffffffffffffffffff\n        /* \"#utility.yul\":17814:17888   */\n      sub\n        /* \"#utility.yul\":17811:17812   */\n      dup3\n        /* \"#utility.yul\":17808:17889   */\n      gt\n        /* \"#utility.yul\":17805:17912   */\n      iszero\n      tag_505\n      jumpi\n        /* \"#utility.yul\":17892:17910   */\n      tag_506\n      tag_507\n      jump\t// in\n    tag_506:\n        /* \"#utility.yul\":17805:17912   */\n    tag_505:\n        /* \"#utility.yul\":17936:17937   */\n      dup3\n        /* \"#utility.yul\":17933:17934   */\n      dup3\n        /* \"#utility.yul\":17929:17938   */\n      add\n        /* \"#utility.yul\":17922:17938   */\n      swap1\n      pop\n        /* \"#utility.yul\":17639:17944   */\n      swap3\n      swap2\n      pop\n      pop\n      jump\t// out\n        /* \"#utility.yul\":17950:18135   */\n    tag_271:\n        /* \"#utility.yul\":17990:17991   */\n      0x00\n        /* \"#utility.yul\":18007:18027   */\n      tag_509\n        /* \"#utility.yul\":18025:18026   */\n      dup3\n        /* \"#utility.yul\":18007:18027   */\n      tag_440\n      jump\t// in\n    tag_509:\n        /* \"#utility.yul\":18002:18027   */\n      swap2\n      pop\n        /* \"#utility.yul\":18041:18061   */\n      tag_510\n        /* \"#utility.yul\":18059:18060   */\n      dup4\n        /* \"#utility.yul\":18041:18061   */\n      tag_440\n      jump\t// in\n    tag_510:\n        /* \"#utility.yul\":18036:18061   */\n      swap3\n      pop\n        /* \"#utility.yul\":18080:18081   */\n      dup3\n        /* \"#utility.yul\":18070:18105   */\n      tag_511\n      jumpi\n        /* \"#utility.yul\":18085:18103   */\n      tag_512\n      tag_513\n      jump\t// in\n    tag_512:\n        /* \"#utility.yul\":18070:18105   */\n    tag_511:\n        /* \"#utility.yul\":18127:18128   */\n      dup3\n        /* \"#utility.yul\":18124:18125   */\n      dup3\n        /* \"#utility.yul\":18120:18129   */\n      div\n        /* \"#utility.yul\":18115:18129   */\n      swap1\n      pop\n        /* \"#utility.yul\":17950:18135   */\n      swap3\n      swap2\n      pop\n      pop\n      jump\t// out\n        /* \"#utility.yul\":18141:18489   */\n    tag_269:\n        /* \"#utility.yul\":18181:18188   */\n      0x00\n        /* \"#utility.yul\":18204:18224   */\n      tag_515\n        /* \"#utility.yul\":18222:18223   */\n      dup3\n        /* \"#utility.yul\":18204:18224   */\n      tag_440\n      jump\t// in\n    tag_515:\n        /* \"#utility.yul\":18199:18224   */\n      swap2\n      pop\n        /* \"#utility.yul\":18238:18258   */\n      tag_516\n        /* \"#utility.yul\":18256:18257   */\n      dup4\n        /* \"#utility.yul\":18238:18258   */\n      tag_440\n      jump\t// in\n    tag_516:\n        /* \"#utility.yul\":18233:18258   */\n      swap3\n      pop\n        /* \"#utility.yul\":18426:18427   */\n      dup2\n        /* \"#utility.yul\":18358:18424   */\n      0xffffffffffffffffffffffffffffffffffffffffffffffffffffffffffffffff\n        /* \"#utility.yul\":18354:18428   */\n      div\n        /* \"#utility.yul\":18351:18352   */\n      dup4\n        /* \"#utility.yul\":18348:18429   */\n      gt\n        /* \"#utility.yul\":18343:18344   */\n      dup3\n        /* \"#utility.yul\":18336:18345   */\n      iszero\n        /* \"#utility.yul\":18329:18346   */\n      iszero\n        /* \"#utility.yul\":18325:18430   */\n      and\n        /* \"#utility.yul\":18322:18453   */\n      iszero\n      tag_517\n      jumpi\n        /* \"#utility.yul\":18433:18451   */\n      tag_518\n      tag_507\n      jump\t// in\n    tag_518:\n        /* \"#utility.yul\":18322:18453   */\n    tag_517:\n        /* \"#utility.yul\":18481:18482   */\n      dup3\n        /* \"#utility.yul\":18478:18479   */\n      dup3\n        /* \"#utility.yul\":18474:18483   */\n      mul\n        /* \"#utility.yul\":18463:18483   */\n      swap1\n      pop\n        /* \"#utility.yul\":18141:18489   */\n      swap3\n      swap2\n      pop\n      pop\n      jump\t// out\n        /* \"#utility.yul\":18495:18686   */\n    tag_296:\n        /* \"#utility.yul\":18535:18539   */\n      0x00\n        /* \"#utility.yul\":18555:18575   */\n      tag_520\n        /* \"#utility.yul\":18573:18574   */\n      dup3\n        /* \"#utility.yul\":18555:18575   */\n      tag_440\n      jump\t// in\n    tag_520:\n        /* \"#utility.yul\":18550:18575   */\n      swap2\n      pop\n        /* \"#utility.yul\":18589:18609   */\n      tag_521\n        /* \"#utility.yul\":18607:18608   */\n      dup4\n        /* \"#utility.yul\":18589:18609   */\n      tag_440\n      jump\t// in\n    tag_521:\n        /* \"#utility.yul\":18584:18609   */\n      swap3\n      pop\n        /* \"#utility.yul\":18628:18629   */\n      dup3\n        /* \"#utility.yul\":18625:18626   */\n      dup3\n        /* \"#utility.yul\":18622:18630   */\n      lt\n        /* \"#utility.yul\":18619:18653   */\n      iszero\n      tag_522\n      jumpi\n        /* \"#utility.yul\":18633:18651   */\n      tag_523\n      tag_507\n      jump\t// in\n    tag_523:\n        /* \"#utility.yul\":18619:18653   */\n    tag_522:\n        /* \"#utility.yul\":18678:18679   */\n      dup3\n        /* \"#utility.yul\":18675:18676   */\n      dup3\n        /* \"#utility.yul\":18671:18680   */\n      sub\n        /* \"#utility.yul\":18663:18680   */\n      swap1\n      pop\n        /* \"#utility.yul\":18495:18686   */\n      swap3\n      swap2\n      pop\n      pop\n      jump\t// out\n        /* \"#utility.yul\":18692:18788   */\n    tag_345:\n        /* \"#utility.yul\":18729:18736   */\n      0x00\n        /* \"#utility.yul\":18758:18782   */\n      tag_525\n        /* \"#utility.yul\":18776:18781   */\n      dup3\n        /* \"#utility.yul\":18758:18782   */\n      tag_526\n      jump\t// in\n    tag_525:\n        /* \"#utility.yul\":18747:18782   */\n      swap1\n      pop\n        /* \"#utility.yul\":18692:18788   */\n      swap2\n      swap1\n      pop\n      jump\t// out\n        /* \"#utility.yul\":18794:18884   */\n    tag_363:\n        /* \"#utility.yul\":18828:18835   */\n      0x00\n        /* \"#utility.yul\":18871:18876   */\n      dup2\n        /* \"#utility.yul\":18864:18877   */\n      iszero\n        /* \"#utility.yul\":18857:18878   */\n      iszero\n        /* \"#utility.yul\":18846:18878   */\n      swap1\n      pop\n        /* \"#utility.yul\":18794:18884   */\n      swap2\n      swap1\n      pop\n      jump\t// out\n        /* \"#utility.yul\":18890:19000   */\n    tag_528:\n        /* \"#utility.yul\":18941:18948   */\n      0x00\n        /* \"#utility.yul\":18970:18994   */\n      tag_530\n        /* \"#utility.yul\":18988:18993   */\n      dup3\n        /* \"#utility.yul\":18970:18994   */\n      tag_345\n      jump\t// in\n    tag_530:\n        /* \"#utility.yul\":18959:18994   */\n      swap1\n      pop\n        /* \"#utility.yul\":18890:19000   */\n      swap2\n      swap1\n      pop\n      jump\t// out\n        /* \"#utility.yul\":19006:19132   */\n    tag_526:\n        /* \"#utility.yul\":19043:19050   */\n      0x00\n        /* \"#utility.yul\":19083:19125   */\n      0xffffffffffffffffffffffffffffffffffffffff\n        /* \"#utility.yul\":19076:19081   */\n      dup3\n        /* \"#utility.yul\":19072:19126   */\n      and\n        /* \"#utility.yul\":19061:19126   */\n      swap1\n      pop\n        /* \"#utility.yul\":19006:19132   */\n      swap2\n      swap1\n      pop\n      jump\t// out\n        /* \"#utility.yul\":19138:19215   */\n    tag_440:\n        /* \"#utility.yul\":19175:19182   */\n      0x00\n        /* \"#utility.yul\":19204:19209   */\n      dup2\n        /* \"#utility.yul\":19193:19209   */\n      swap1\n      pop\n        /* \"#utility.yul\":19138:19215   */\n      swap2\n      swap1\n      pop\n      jump\t// out\n        /* \"#utility.yul\":19221:19307   */\n    tag_447:\n        /* \"#utility.yul\":19256:19263   */\n      0x00\n        /* \"#utility.yul\":19296:19300   */\n      0xff\n        /* \"#utility.yul\":19289:19294   */\n      dup3\n        /* \"#utility.yul\":19285:19301   */\n      and\n        /* \"#utility.yul\":19274:19301   */\n      swap1\n      pop\n        /* \"#utility.yul\":19221:19307   */\n      swap2\n      swap1\n      pop\n      jump\t// out\n        /* \"#utility.yul\":19313:19453   */\n    tag_367:\n        /* \"#utility.yul\":19377:19386   */\n      0x00\n        /* \"#utility.yul\":19410:19447   */\n      tag_535\n        /* \"#utility.yul\":19441:19446   */\n      dup3\n        /* \"#utility.yul\":19410:19447   */\n      tag_536\n      jump\t// in\n    tag_535:\n        /* \"#utility.yul\":19397:19447   */\n      swap1\n      pop\n        /* \"#utility.yul\":19313:19453   */\n      swap2\n      swap1\n      pop\n      jump\t// out\n        /* \"#utility.yul\":19459:19585   */\n    tag_536:\n        /* \"#utility.yul\":19509:19518   */\n      0x00\n        /* \"#utility.yul\":19542:19579   */\n      tag_538\n        /* \"#utility.yul\":19573:19578   */\n      dup3\n        /* \"#utility.yul\":19542:19579   */\n      tag_539\n      jump\t// in\n    tag_538:\n        /* \"#utility.yul\":19529:19579   */\n      swap1\n      pop\n        /* \"#utility.yul\":19459:19585   */\n      swap2\n      swap1\n      pop\n      jump\t// out\n        /* \"#utility.yul\":19591:19704   */\n    tag_539:\n        /* \"#utility.yul\":19641:19650   */\n      0x00\n        /* \"#utility.yul\":19674:19698   */\n      tag_541\n        /* \"#utility.yul\":19692:19697   */\n      dup3\n        /* \"#utility.yul\":19674:19698   */\n      tag_526\n      jump\t// in\n    tag_541:\n        /* \"#utility.yul\":19661:19698   */\n      swap1\n      pop\n        /* \"#utility.yul\":19591:19704   */\n      swap2\n      swap1\n      pop\n      jump\t// out\n        /* \"#utility.yul\":19710:20017   */\n    tag_375:\n        /* \"#utility.yul\":19778:19779   */\n      0x00\n        /* \"#utility.yul\":19788:19901   */\n    tag_543:\n        /* \"#utility.yul\":19802:19808   */\n      dup4\n        /* \"#utility.yul\":19799:19800   */\n      dup2\n        /* \"#utility.yul\":19796:19809   */\n      lt\n        /* \"#utility.yul\":19788:19901   */\n      iszero\n      tag_545\n      jumpi\n        /* \"#utility.yul\":19887:19888   */\n      dup1\n        /* \"#utility.yul\":19882:19885   */\n      dup3\n        /* \"#utility.yul\":19878:19889   */\n      add\n        /* \"#utility.yul\":19872:19890   */\n      mload\n        /* \"#utility.yul\":19868:19869   */\n      dup2\n        /* \"#utility.yul\":19863:19866   */\n      dup5\n        /* \"#utility.yul\":19859:19870   */\n      add\n        /* \"#utility.yul\":19852:19891   */\n      mstore\n        /* \"#utility.yul\":19824:19826   */\n      0x20\n        /* \"#utility.yul\":19821:19822   */\n      dup2\n        /* \"#utility.yul\":19817:19827   */\n      add\n        /* \"#utility.yul\":19812:19827   */\n      swap1\n      pop\n        /* \"#utility.yul\":19788:19901   */\n      jump(tag_543)\n    tag_545:\n        /* \"#utility.yul\":19919:19925   */\n      dup4\n        /* \"#utility.yul\":19916:19917   */\n      dup2\n        /* \"#utility.yul\":19913:19926   */\n      gt\n        /* \"#utility.yul\":19910:20011   */\n      iszero\n      tag_546\n      jumpi\n        /* \"#utility.yul\":19999:20000   */\n      0x00\n        /* \"#utility.yul\":19990:19996   */\n      dup5\n        /* \"#utility.yul\":19985:19988   */\n      dup5\n        /* \"#utility.yul\":19981:19997   */\n      add\n        /* \"#utility.yul\":19974:20001   */\n      mstore\n        /* \"#utility.yul\":19910:20011   */\n    tag_546:\n        /* \"#utility.yul\":19759:20017   */\n      pop\n        /* \"#utility.yul\":19710:20017   */\n      pop\n      pop\n      pop\n      jump\t// out\n        /* \"#utility.yul\":20023:20203   */\n    tag_507:\n        /* \"#utility.yul\":20071:20148   */\n      0x4e487b7100000000000000000000000000000000000000000000000000000000\n        /* \"#utility.yul\":20068:20069   */\n      0x00\n        /* \"#utility.yul\":20061:20149   */\n      mstore\n        /* \"#utility.yul\":20168:20172   */\n      0x11\n        /* \"#utility.yul\":20165:20166   */\n      0x04\n        /* \"#utility.yul\":20158:20173   */\n      mstore\n        /* \"#utility.yul\":20192:20196   */\n      0x24\n        /* \"#utility.yul\":20189:20190   */\n      0x00\n        /* \"#utility.yul\":20182:20197   */\n      revert\n        /* \"#utility.yul\":20209:20389   */\n    tag_513:\n        /* \"#utility.yul\":20257:20334   */\n      0x4e487b7100000000000000000000000000000000000000000000000000000000\n        /* \"#utility.yul\":20254:20255   */\n      0x00\n        /* \"#utility.yul\":20247:20335   */\n      mstore\n        /* \"#utility.yul\":20354:20358   */\n      0x12\n        /* \"#utility.yul\":20351:20352   */\n      0x04\n        /* \"#utility.yul\":20344:20359   */\n      mstore\n        /* \"#utility.yul\":20378:20382   */\n      0x24\n        /* \"#utility.yul\":20375:20376   */\n      0x00\n        /* \"#utility.yul\":20368:20383   */\n      revert\n        /* \"#utility.yul\":20395:20575   */\n    tag_147:\n        /* \"#utility.yul\":20443:20520   */\n      0x4e487b7100000000000000000000000000000000000000000000000000000000\n        /* \"#utility.yul\":20440:20441   */\n      0x00\n        /* \"#utility.yul\":20433:20521   */\n      mstore\n        /* \"#utility.yul\":20540:20544   */\n      0x32\n        /* \"#utility.yul\":20537:20538   */\n      0x04\n        /* \"#utility.yul\":20530:20545   */\n      mstore\n        /* \"#utility.yul\":20564:20568   */\n      0x24\n        /* \"#utility.yul\":20561:20562   */\n      0x00\n        /* \"#utility.yul\":20554:20569   */\n      revert\n        /* \"#utility.yul\":20704:20821   */\n    tag_320:\n        /* \"#utility.yul\":20813:20814   */\n      0x00\n        /* \"#utility.yul\":20810:20811   */\n      dup1\n        /* \"#utility.yul\":20803:20815   */\n      revert\n        /* \"#utility.yul\":20827:20929   */\n    tag_377:\n        /* \"#utility.yul\":20868:20874   */\n      0x00\n        /* \"#utility.yul\":20919:20921   */\n      0x1f\n        /* \"#utility.yul\":20915:20922   */\n      not\n        /* \"#utility.yul\":20910:20912   */\n      0x1f\n        /* \"#utility.yul\":20903:20908   */\n      dup4\n        /* \"#utility.yul\":20899:20913   */\n      add\n        /* \"#utility.yul\":20895:20923   */\n      and\n        /* \"#utility.yul\":20885:20923   */\n      swap1\n      pop\n        /* \"#utility.yul\":20827:20929   */\n      swap2\n      swap1\n      pop\n      jump\t// out\n        /* \"#utility.yul\":20935:21100   */\n    tag_382:\n        /* \"#utility.yul\":21075:21092   */\n      0x494e56414c49445f414444524553530000000000000000000000000000000000\n        /* \"#utility.yul\":21071:21072   */\n      0x00\n        /* \"#utility.yul\":21063:21069   */\n      dup3\n        /* \"#utility.yul\":21059:21073   */\n      add\n        /* \"#utility.yul\":21052:21093   */\n      mstore\n        /* \"#utility.yul\":20935:21100   */\n      pop\n      jump\t// out\n        /* \"#utility.yul\":21106:21273   */\n    tag_387:\n        /* \"#utility.yul\":21246:21265   */\n      0x494e56414c49445f57484954456c495354000000000000000000000000000000\n        /* \"#utility.yul\":21242:21243   */\n      0x00\n        /* \"#utility.yul\":21234:21240   */\n      dup3\n        /* \"#utility.yul\":21230:21244   */\n      add\n        /* \"#utility.yul\":21223:21266   */\n      mstore\n        /* \"#utility.yul\":21106:21273   */\n      pop\n      jump\t// out\n        /* \"#utility.yul\":21279:21437   */\n    tag_392:\n        /* \"#utility.yul\":21419:21429   */\n      0x4e4f204153534554000000000000000000000000000000000000000000000000\n        /* \"#utility.yul\":21415:21416   */\n      0x00\n        /* \"#utility.yul\":21407:21413   */\n      dup3\n        /* \"#utility.yul\":21403:21417   */\n      add\n        /* \"#utility.yul\":21396:21430   */\n      mstore\n        /* \"#utility.yul\":21279:21437   */\n      pop\n      jump\t// out\n        /* \"#utility.yul\":21443:21620   */\n    tag_397:\n        /* \"#utility.yul\":21583:21612   */\n      0x536166654d6174683a206164646974696f6e206f766572666c6f770000000000\n        /* \"#utility.yul\":21579:21580   */\n      0x00\n        /* \"#utility.yul\":21571:21577   */\n      dup3\n        /* \"#utility.yul\":21567:21581   */\n      add\n        /* \"#utility.yul\":21560:21613   */\n      mstore\n        /* \"#utility.yul\":21443:21620   */\n      pop\n      jump\t// out\n        /* \"#utility.yul\":21626:21796   */\n    tag_402:\n        /* \"#utility.yul\":21766:21788   */\n      0x4661696c656420746f2073656e64204574686572000000000000000000000000\n        /* \"#utility.yul\":21762:21763   */\n      0x00\n        /* \"#utility.yul\":21754:21760   */\n      dup3\n        /* \"#utility.yul\":21750:21764   */\n      add\n        /* \"#utility.yul\":21743:21789   */\n      mstore\n        /* \"#utility.yul\":21626:21796   */\n      pop\n      jump\t// out\n        /* \"#utility.yul\":21802:21968   */\n    tag_407:\n        /* \"#utility.yul\":21942:21960   */\n      0x494e56414c49445f414d4f554e545f3200000000000000000000000000000000\n        /* \"#utility.yul\":21938:21939   */\n      0x00\n        /* \"#utility.yul\":21930:21936   */\n      dup3\n        /* \"#utility.yul\":21926:21940   */\n      add\n        /* \"#utility.yul\":21919:21961   */\n      mstore\n        /* \"#utility.yul\":21802:21968   */\n      pop\n      jump\t// out\n        /* \"#utility.yul\":21974:22194   */\n    tag_412:\n        /* \"#utility.yul\":22114:22148   */\n      0x536166654d6174683a206d756c7469706c69636174696f6e206f766572666c6f\n        /* \"#utility.yul\":22110:22111   */\n      0x00\n        /* \"#utility.yul\":22102:22108   */\n      dup3\n        /* \"#utility.yul\":22098:22112   */\n      add\n        /* \"#utility.yul\":22091:22149   */\n      mstore\n        /* \"#utility.yul\":22183:22186   */\n      0x7700000000000000000000000000000000000000000000000000000000000000\n        /* \"#utility.yul\":22178:22180   */\n      0x20\n        /* \"#utility.yul\":22170:22176   */\n      dup3\n        /* \"#utility.yul\":22166:22181   */\n      add\n        /* \"#utility.yul\":22159:22187   */\n      mstore\n        /* \"#utility.yul\":21974:22194   */\n      pop\n      jump\t// out\n        /* \"#utility.yul\":22200:22361   */\n    tag_417:\n        /* \"#utility.yul\":22340:22353   */\n      0x53595354454d5f53544f50000000000000000000000000000000000000000000\n        /* \"#utility.yul\":22336:22337   */\n      0x00\n        /* \"#utility.yul\":22328:22334   */\n      dup3\n        /* \"#utility.yul\":22324:22338   */\n      add\n        /* \"#utility.yul\":22317:22354   */\n      mstore\n        /* \"#utility.yul\":22200:22361   */\n      pop\n      jump\t// out\n        /* \"#utility.yul\":22367:22533   */\n    tag_422:\n        /* \"#utility.yul\":22507:22525   */\n      0x494e56414c49445f414d4f554e545f3100000000000000000000000000000000\n        /* \"#utility.yul\":22503:22504   */\n      0x00\n        /* \"#utility.yul\":22495:22501   */\n      dup3\n        /* \"#utility.yul\":22491:22505   */\n      add\n        /* \"#utility.yul\":22484:22526   */\n      mstore\n        /* \"#utility.yul\":22367:22533   */\n      pop\n      jump\t// out\n        /* \"#utility.yul\":22539:22704   */\n    tag_427:\n        /* \"#utility.yul\":22679:22696   */\n      0x494e56414c49445f5041594d454e540000000000000000000000000000000000\n        /* \"#utility.yul\":22675:22676   */\n      0x00\n        /* \"#utility.yul\":22667:22673   */\n      dup3\n        /* \"#utility.yul\":22663:22677   */\n      add\n        /* \"#utility.yul\":22656:22697   */\n      mstore\n        /* \"#utility.yul\":22539:22704   */\n      pop\n      jump\t// out\n        /* \"#utility.yul\":22710:22875   */\n    tag_432:\n        /* \"#utility.yul\":22850:22867   */\n      0x494e56414c49445f515541544954590000000000000000000000000000000000\n        /* \"#utility.yul\":22846:22847   */\n      0x00\n        /* \"#utility.yul\":22838:22844   */\n      dup3\n        /* \"#utility.yul\":22834:22848   */\n      add\n        /* \"#utility.yul\":22827:22868   */\n      mstore\n        /* \"#utility.yul\":22710:22875   */\n      pop\n      jump\t// out\n        /* \"#utility.yul\":22881:23049   */\n    tag_437:\n        /* \"#utility.yul\":23021:23041   */\n      0x494e56414c49445f5045524d495353494f4e0000000000000000000000000000\n        /* \"#utility.yul\":23017:23018   */\n      0x00\n        /* \"#utility.yul\":23009:23015   */\n      dup3\n        /* \"#utility.yul\":23005:23019   */\n      add\n        /* \"#utility.yul\":22998:23042   */\n      mstore\n        /* \"#utility.yul\":22881:23049   */\n      pop\n      jump\t// out\n        /* \"#utility.yul\":23055:23177   */\n    tag_301:\n        /* \"#utility.yul\":23128:23152   */\n      tag_567\n        /* \"#utility.yul\":23146:23151   */\n      dup2\n        /* \"#utility.yul\":23128:23152   */\n      tag_345\n      jump\t// in\n    tag_567:\n        /* \"#utility.yul\":23121:23126   */\n      dup2\n        /* \"#utility.yul\":23118:23153   */\n      eq\n        /* \"#utility.yul\":23108:23171   */\n      tag_568\n      jumpi\n        /* \"#utility.yul\":23167:23168   */\n      0x00\n        /* \"#utility.yul\":23164:23165   */\n      dup1\n        /* \"#utility.yul\":23157:23169   */\n      revert\n        /* \"#utility.yul\":23108:23171   */\n    tag_568:\n        /* \"#utility.yul\":23055:23177   */\n      pop\n      jump\t// out\n        /* \"#utility.yul\":23183:23299   */\n    tag_305:\n        /* \"#utility.yul\":23253:23274   */\n      tag_570\n        /* \"#utility.yul\":23268:23273   */\n      dup2\n        /* \"#utility.yul\":23253:23274   */\n      tag_363\n      jump\t// in\n    tag_570:\n        /* \"#utility.yul\":23246:23251   */\n      dup2\n        /* \"#utility.yul\":23243:23275   */\n      eq\n        /* \"#utility.yul\":23233:23293   */\n      tag_571\n      jumpi\n        /* \"#utility.yul\":23289:23290   */\n      0x00\n        /* \"#utility.yul\":23286:23287   */\n      dup1\n        /* \"#utility.yul\":23279:23291   */\n      revert\n        /* \"#utility.yul\":23233:23293   */\n    tag_571:\n        /* \"#utility.yul\":23183:23299   */\n      pop\n      jump\t// out\n        /* \"#utility.yul\":23305:23455   */\n    tag_309:\n        /* \"#utility.yul\":23392:23430   */\n      tag_573\n        /* \"#utility.yul\":23424:23429   */\n      dup2\n        /* \"#utility.yul\":23392:23430   */\n      tag_528\n      jump\t// in\n    tag_573:\n        /* \"#utility.yul\":23385:23390   */\n      dup2\n        /* \"#utility.yul\":23382:23431   */\n      eq\n        /* \"#utility.yul\":23372:23449   */\n      tag_574\n      jumpi\n        /* \"#utility.yul\":23445:23446   */\n      0x00\n        /* \"#utility.yul\":23442:23443   */\n      dup1\n        /* \"#utility.yul\":23435:23447   */\n      revert\n        /* \"#utility.yul\":23372:23449   */\n    tag_574:\n        /* \"#utility.yul\":23305:23455   */\n      pop\n      jump\t// out\n        /* \"#utility.yul\":23461:23583   */\n    tag_313:\n        /* \"#utility.yul\":23534:23558   */\n      tag_576\n        /* \"#utility.yul\":23552:23557   */\n      dup2\n        /* \"#utility.yul\":23534:23558   */\n      tag_440\n      jump\t// in\n    tag_576:\n        /* \"#utility.yul\":23527:23532   */\n      dup2\n        /* \"#utility.yul\":23524:23559   */\n      eq\n        /* \"#utility.yul\":23514:23577   */\n      tag_577\n      jumpi\n        /* \"#utility.yul\":23573:23574   */\n      0x00\n        /* \"#utility.yul\":23570:23571   */\n      dup1\n        /* \"#utility.yul\":23563:23575   */\n      revert\n        /* \"#utility.yul\":23514:23577   */\n    tag_577:\n        /* \"#utility.yul\":23461:23583   */\n      pop\n      jump\t// out\n\n    auxdata: 0xa264697066735822122097d497cb570da778ef0d6283be4c173eaf82ba3f5e14d16e5c873e4339f5106b64736f6c63430008070033\n}\n",
				"bytecode": {
					"linkReferences": {},
					"object": "608060405260646000806101000a81548160ff021916908360ff16021790555066038d7ea4c680006002556ba18f07d736b90be55000000060035560006004556001600560006101000a81548160ff0219169083151502179055506a6342fd08f00f63780000006006553480156200007657600080fd5b50604051620025e2380380620025e283398181016040528101906200009c91906200013c565b80600160006101000a81548173ffffffffffffffffffffffffffffffffffffffff021916908373ffffffffffffffffffffffffffffffffffffffff16021790555033600060016101000a81548173ffffffffffffffffffffffffffffffffffffffff021916908373ffffffffffffffffffffffffffffffffffffffff16021790555050620001d5565b6000815190506200013681620001bb565b92915050565b600060208284031215620001555762000154620001b6565b5b6000620001658482850162000125565b91505092915050565b60006200017b8262000196565b9050919050565b60006200018f826200016e565b9050919050565b600073ffffffffffffffffffffffffffffffffffffffff82169050919050565b600080fd5b620001c68162000182565b8114620001d257600080fd5b50565b6123fd80620001e56000396000f3fe6080604052600436106101395760003560e01c8063a2b0106b116100ab578063db2e21bc1161006f578063db2e21bc146103c6578063e632c2f3146103dd578063ea4ce23914610408578063f2fde38b14610433578063f51f96dd1461045c578063ffa1ad741461048757610140565b8063a2b0106b14610314578063a3907d711461033d578063a6f2ae3a14610354578063bcaaf6621461035e578063da7691761461039b57610140565b80634f079f57116100fd5780634f079f571461020257806350c19c0b1461022b5780636e947298146102565780638da5cb5b1461028157806390c8dd17146102ac57806392f6386a146102e957610140565b80631919fed7146101455780632f2770db1461016e57806336a22e141461018557806338266b221461019c5780634a860104146101d957610140565b3661014057005b600080fd5b34801561015157600080fd5b5061016c600480360381019061016791906118d5565b6104b2565b005b34801561017a57600080fd5b5061018361054c565b005b34801561019157600080fd5b5061019a6105f9565b005b3480156101a857600080fd5b506101c360048036038101906101be919061184e565b610733565b6040516101d09190611c5e565b60405180910390f35b3480156101e557600080fd5b5061020060048036038101906101fb91906118d5565b6108a4565b005b34801561020e57600080fd5b50610229600480360381019061022491906118a8565b61093e565b005b34801561023757600080fd5b50610240610a82565b60405161024d9190611e52565b60405180910390f35b34801561026257600080fd5b5061026b610a88565b6040516102789190611e52565b60405180910390f35b34801561028d57600080fd5b50610296610a90565b6040516102a39190611bd5565b60405180910390f35b3480156102b857600080fd5b506102d360048036038101906102ce919061184e565b610ab6565b6040516102e09190611e52565b60405180910390f35b3480156102f557600080fd5b506102fe610ba9565b60405161030b9190611c7a565b60405180910390f35b34801561032057600080fd5b5061033b600480360381019061033691906118d5565b610bbc565b005b34801561034957600080fd5b50610352610c56565b005b61035c610d03565b005b34801561036a57600080fd5b506103856004803603810190610380919061184e565b611202565b6040516103929190611e52565b60405180910390f35b3480156103a757600080fd5b506103b061121a565b6040516103bd9190611c95565b60405180910390f35b3480156103d257600080fd5b506103db611240565b005b3480156103e957600080fd5b506103f2611497565b6040516103ff9190611e52565b60405180910390f35b34801561041457600080fd5b5061041d61149d565b60405161042a9190611e52565b60405180910390f35b34801561043f57600080fd5b5061045a6004803603810190610455919061184e565b6114a3565b005b34801561046857600080fd5b50610471611577565b60405161047e9190611e52565b60405180910390f35b34801561049357600080fd5b5061049c61157d565b6040516104a99190611e6d565b60405180910390f35b600060019054906101000a900473ffffffffffffffffffffffffffffffffffffffff1673ffffffffffffffffffffffffffffffffffffffff163373ffffffffffffffffffffffffffffffffffffffff1614610542576040517f08c379a000000000000000000000000000000000000000000000000000000000815260040161053990611e32565b60405180910390fd5b8060028190555050565b600060019054906101000a900473ffffffffffffffffffffffffffffffffffffffff1673ffffffffffffffffffffffffffffffffffffffff163373ffffffffffffffffffffffffffffffffffffffff16146105dc576040517f08c379a00000000000000000000000000000000000000000000000000000000081526004016105d390611e32565b60405180910390fd5b6000600560006101000a81548160ff021916908315150217905550565b600060019054906101000a900473ffffffffffffffffffffffffffffffffffffffff1673ffffffffffffffffffffffffffffffffffffffff163373ffffffffffffffffffffffffffffffffffffffff1614610689576040517f08c379a000000000000000000000000000000000000000000000000000000000815260040161068090611e32565b60405180910390fd5b6000610693610a88565b905060008060019054906101000a900473ffffffffffffffffffffffffffffffffffffffff1673ffffffffffffffffffffffffffffffffffffffff166108fc839081150290604051600060405180830381858888f1935050505090508061072f576040517f08c379a000000000000000000000000000000000000000000000000000000000815260040161072690611d52565b60405180910390fd5b5050565b61073b6117c2565b8173ffffffffffffffffffffffffffffffffffffffff16318160006008811061076757610766612114565b5b60200201818152505061077982610ab6565b8160016008811061078d5761078c612114565b5b6020020181815250506107dd670de0b6b3a76400006107cf600254846001600881106107bc576107bb612114565b5b602002015161158e90919063ffffffff16565b61160990919063ffffffff16565b816002600881106107f1576107f0612114565b5b602002018181525050610802610a88565b8160036008811061081657610815612114565b5b6020020181815250506006548160046008811061083657610835612114565b5b6020020181815250506003548160056008811061085657610855612114565b5b6020020181815250506002548160066008811061087657610875612114565b5b6020020181815250506004548160076008811061089657610895612114565b5b602002018181525050919050565b600060019054906101000a900473ffffffffffffffffffffffffffffffffffffffff1673ffffffffffffffffffffffffffffffffffffffff163373ffffffffffffffffffffffffffffffffffffffff1614610934576040517f08c379a000000000000000000000000000000000000000000000000000000000815260040161092b90611e32565b60405180910390fd5b8060038190555050565b600060019054906101000a900473ffffffffffffffffffffffffffffffffffffffff1673ffffffffffffffffffffffffffffffffffffffff163373ffffffffffffffffffffffffffffffffffffffff16146109ce576040517f08c379a00000000000000000000000000000000000000000000000000000000081526004016109c590611e32565b60405180910390fd5b600073ffffffffffffffffffffffffffffffffffffffff168173ffffffffffffffffffffffffffffffffffffffff161415610a3e576040517f08c379a0000000000000000000000000000000000000000000000000000000008152600401610a3590611cd2565b60405180910390fd5b80600160006101000a81548173ffffffffffffffffffffffffffffffffffffffff021916908373ffffffffffffffffffffffffffffffffffffffff16021790555050565b60065481565b600047905090565b600060019054906101000a900473ffffffffffffffffffffffffffffffffffffffff1681565b6000600654600760008473ffffffffffffffffffffffffffffffffffffffff1673ffffffffffffffffffffffffffffffffffffffff16815260200190815260200160002054101580610b0b5750600060035411155b80610b29575060001515600560009054906101000a900460ff161515145b15610b375760009050610ba4565b6000610b8d600760008573ffffffffffffffffffffffffffffffffffffffff1673ffffffffffffffffffffffffffffffffffffffff1681526020019081526020016000205460065461165390919063ffffffff16565b9050600354811115610b9f5760035490505b809150505b919050565b600560009054906101000a900460ff1681565b600060019054906101000a900473ffffffffffffffffffffffffffffffffffffffff1673ffffffffffffffffffffffffffffffffffffffff163373ffffffffffffffffffffffffffffffffffffffff1614610c4c576040517f08c379a0000000000000000000000000000000000000000000000000000000008152600401610c4390611e32565b60405180910390fd5b8060068190555050565b600060019054906101000a900473ffffffffffffffffffffffffffffffffffffffff1673ffffffffffffffffffffffffffffffffffffffff163373ffffffffffffffffffffffffffffffffffffffff1614610ce6576040517f08c379a0000000000000000000000000000000000000000000000000000000008152600401610cdd90611e32565b60405180910390fd5b6001600560006101000a81548160ff021916908315150217905550565b3273ffffffffffffffffffffffffffffffffffffffff163373ffffffffffffffffffffffffffffffffffffffff1614610d71576040517f08c379a0000000000000000000000000000000000000000000000000000000008152600401610d6890611cf2565b60405180910390fd5b60011515600560009054906101000a900460ff16151514610dc7576040517f08c379a0000000000000000000000000000000000000000000000000000000008152600401610dbe90611db2565b60405180910390fd5b60003411610e0a576040517f08c379a0000000000000000000000000000000000000000000000000000000008152600401610e0190611dd2565b60405180910390fd5b6000610e1533610ab6565b905060008111610e5a576040517f08c379a0000000000000000000000000000000000000000000000000000000008152600401610e5190611e32565b60405180910390fd5b6000349050600080610e91600254610e83670de0b6b3a76400008661158e90919063ffffffff16565b61160990919063ffffffff16565b905083811115610ee557839050610ecd670de0b6b3a7640000610ebf6002548461158e90919063ffffffff16565b61160990919063ffffffff16565b9250610ee2833461165390919063ffffffff16565b91505b60008111610f28576040517f08c379a0000000000000000000000000000000000000000000000000000000008152600401610f1f90611e12565b60405180910390fd5b60008311610f6b576040517f08c379a0000000000000000000000000000000000000000000000000000000008152600401610f6290611df2565b60405180910390fd5b34610f7f838561169d90919063ffffffff16565b1115610fc0576040517f08c379a0000000000000000000000000000000000000000000000000000000008152600401610fb790611d72565b60405180910390fd5b600160009054906101000a900473ffffffffffffffffffffffffffffffffffffffff1673ffffffffffffffffffffffffffffffffffffffff1663a9059cbb33836040518363ffffffff1660e01b815260040161101d929190611bf0565b602060405180830381600087803b15801561103757600080fd5b505af115801561104b573d6000803e3d6000fd5b505050506040513d601f19601f8201168201806040525081019061106f919061187b565b506110858360045461169d90919063ffffffff16565b6004819055506110a08160035461165390919063ffffffff16565b6003819055506110f881600760003373ffffffffffffffffffffffffffffffffffffffff1673ffffffffffffffffffffffffffffffffffffffff1681526020019081526020016000205461169d90919063ffffffff16565b600760003373ffffffffffffffffffffffffffffffffffffffff1673ffffffffffffffffffffffffffffffffffffffff1681526020019081526020016000208190555060008211156111bf5760003373ffffffffffffffffffffffffffffffffffffffff166108fc849081150290604051600060405180830381858888f193505050509050806111bd576040517f08c379a00000000000000000000000000000000000000000000000000000000081526004016111b490611d52565b60405180910390fd5b505b7fc6c6e695f1540e56fd28424d4074b79aec6507972bf1c9c31855357075965ea9338484846040516111f49493929190611c19565b60405180910390a150505050565b60076020528060005260406000206000915090505481565b600160009054906101000a900473ffffffffffffffffffffffffffffffffffffffff1681565b600060019054906101000a900473ffffffffffffffffffffffffffffffffffffffff1673ffffffffffffffffffffffffffffffffffffffff163373ffffffffffffffffffffffffffffffffffffffff16146112d0576040517f08c379a00000000000000000000000000000000000000000000000000000000081526004016112c790611e32565b60405180910390fd5b6000600160009054906101000a900473ffffffffffffffffffffffffffffffffffffffff1673ffffffffffffffffffffffffffffffffffffffff166370a08231306040518263ffffffff1660e01b815260040161132d9190611bd5565b60206040518083038186803b15801561134557600080fd5b505afa158015611359573d6000803e3d6000fd5b505050506040513d601f19601f8201168201806040525081019061137d9190611902565b9050600081116113c2576040517f08c379a00000000000000000000000000000000000000000000000000000000081526004016113b990611d12565b60405180910390fd5b600160009054906101000a900473ffffffffffffffffffffffffffffffffffffffff1673ffffffffffffffffffffffffffffffffffffffff1663a9059cbb600060019054906101000a900473ffffffffffffffffffffffffffffffffffffffff16836040518363ffffffff1660e01b8152600401611441929190611bf0565b602060405180830381600087803b15801561145b57600080fd5b505af115801561146f573d6000803e3d6000fd5b505050506040513d601f19601f82011682018060405250810190611493919061187b565b5050565b60045481565b60035481565b600060019054906101000a900473ffffffffffffffffffffffffffffffffffffffff1673ffffffffffffffffffffffffffffffffffffffff163373ffffffffffffffffffffffffffffffffffffffff1614611533576040517f08c379a000000000000000000000000000000000000000000000000000000000815260040161152a90611e32565b60405180910390fd5b80600060016101000a81548173ffffffffffffffffffffffffffffffffffffffff021916908373ffffffffffffffffffffffffffffffffffffffff16021790555050565b60025481565b60008054906101000a900460ff1681565b6000808314156115a15760009050611603565b600082846115af9190611f58565b90508284826115be9190611f27565b146115fe576040517f08c379a00000000000000000000000000000000000000000000000000000000081526004016115f590611d92565b60405180910390fd5b809150505b92915050565b600061164b83836040518060400160405280601a81526020017f536166654d6174683a206469766973696f6e206279207a65726f0000000000008152506116fb565b905092915050565b600061169583836040518060400160405280601e81526020017f536166654d6174683a207375627472616374696f6e206f766572666c6f77000081525061175e565b905092915050565b60008082846116ac9190611ed1565b9050838110156116f1576040517f08c379a00000000000000000000000000000000000000000000000000000000081526004016116e890611d32565b60405180910390fd5b8091505092915050565b60008083118290611742576040517f08c379a00000000000000000000000000000000000000000000000000000000081526004016117399190611cb0565b60405180910390fd5b50600083856117519190611f27565b9050809150509392505050565b60008383111582906117a6576040517f08c379a000000000000000000000000000000000000000000000000000000000815260040161179d9190611cb0565b60405180910390fd5b50600083856117b59190611fb2565b9050809150509392505050565b604051806101000160405280600890602082028036833780820191505090505090565b6000813590506117f48161236b565b92915050565b60008151905061180981612382565b92915050565b60008135905061181e81612399565b92915050565b600081359050611833816123b0565b92915050565b600081519050611848816123b0565b92915050565b60006020828403121561186457611863612143565b5b6000611872848285016117e5565b91505092915050565b60006020828403121561189157611890612143565b5b600061189f848285016117fa565b91505092915050565b6000602082840312156118be576118bd612143565b5b60006118cc8482850161180f565b91505092915050565b6000602082840312156118eb576118ea612143565b5b60006118f984828501611824565b91505092915050565b60006020828403121561191857611917612143565b5b600061192684828501611839565b91505092915050565b600061193b8383611ba8565b60208301905092915050565b61195081611fe6565b82525050565b61195f81611e92565b6119698184611eb5565b925061197482611e88565b8060005b838110156119a557815161198c878261192f565b965061199783611ea8565b925050600181019050611978565b505050505050565b6119b681611ff8565b82525050565b6119c58161204d565b82525050565b60006119d682611e9d565b6119e08185611ec0565b93506119f0818560208601612083565b6119f981612148565b840191505092915050565b6000611a11600f83611ec0565b9150611a1c82612159565b602082019050919050565b6000611a34601183611ec0565b9150611a3f82612182565b602082019050919050565b6000611a57600883611ec0565b9150611a62826121ab565b602082019050919050565b6000611a7a601b83611ec0565b9150611a85826121d4565b602082019050919050565b6000611a9d601483611ec0565b9150611aa8826121fd565b602082019050919050565b6000611ac0601083611ec0565b9150611acb82612226565b602082019050919050565b6000611ae3602183611ec0565b9150611aee8261224f565b604082019050919050565b6000611b06600b83611ec0565b9150611b118261229e565b602082019050919050565b6000611b29601083611ec0565b9150611b34826122c7565b602082019050919050565b6000611b4c600f83611ec0565b9150611b57826122f0565b602082019050919050565b6000611b6f600f83611ec0565b9150611b7a82612319565b602082019050919050565b6000611b92601283611ec0565b9150611b9d82612342565b602082019050919050565b611bb181612036565b82525050565b611bc081612036565b82525050565b611bcf81612040565b82525050565b6000602082019050611bea6000830184611947565b92915050565b6000604082019050611c056000830185611947565b611c126020830184611bb7565b9392505050565b6000608082019050611c2e6000830187611947565b611c3b6020830186611bb7565b611c486040830185611bb7565b611c556060830184611bb7565b95945050505050565b600061010082019050611c746000830184611956565b92915050565b6000602082019050611c8f60008301846119ad565b92915050565b6000602082019050611caa60008301846119bc565b92915050565b60006020820190508181036000830152611cca81846119cb565b905092915050565b60006020820190508181036000830152611ceb81611a04565b9050919050565b60006020820190508181036000830152611d0b81611a27565b9050919050565b60006020820190508181036000830152611d2b81611a4a565b9050919050565b60006020820190508181036000830152611d4b81611a6d565b9050919050565b60006020820190508181036000830152611d6b81611a90565b9050919050565b60006020820190508181036000830152611d8b81611ab3565b9050919050565b60006020820190508181036000830152611dab81611ad6565b9050919050565b60006020820190508181036000830152611dcb81611af9565b9050919050565b60006020820190508181036000830152611deb81611b1c565b9050919050565b60006020820190508181036000830152611e0b81611b3f565b9050919050565b60006020820190508181036000830152611e2b81611b62565b9050919050565b60006020820190508181036000830152611e4b81611b85565b9050919050565b6000602082019050611e676000830184611bb7565b92915050565b6000602082019050611e826000830184611bc6565b92915050565b6000819050919050565b600060089050919050565b600081519050919050565b6000602082019050919050565b600081905092915050565b600082825260208201905092915050565b6000611edc82612036565b9150611ee783612036565b9250827fffffffffffffffffffffffffffffffffffffffffffffffffffffffffffffffff03821115611f1c57611f1b6120b6565b5b828201905092915050565b6000611f3282612036565b9150611f3d83612036565b925082611f4d57611f4c6120e5565b5b828204905092915050565b6000611f6382612036565b9150611f6e83612036565b9250817fffffffffffffffffffffffffffffffffffffffffffffffffffffffffffffffff0483118215151615611fa757611fa66120b6565b5b828202905092915050565b6000611fbd82612036565b9150611fc883612036565b925082821015611fdb57611fda6120b6565b5b828203905092915050565b6000611ff182612016565b9050919050565b60008115159050919050565b600061200f82611fe6565b9050919050565b600073ffffffffffffffffffffffffffffffffffffffff82169050919050565b6000819050919050565b600060ff82169050919050565b60006120588261205f565b9050919050565b600061206a82612071565b9050919050565b600061207c82612016565b9050919050565b60005b838110156120a1578082015181840152602081019050612086565b838111156120b0576000848401525b50505050565b7f4e487b7100000000000000000000000000000000000000000000000000000000600052601160045260246000fd5b7f4e487b7100000000000000000000000000000000000000000000000000000000600052601260045260246000fd5b7f4e487b7100000000000000000000000000000000000000000000000000000000600052603260045260246000fd5b600080fd5b6000601f19601f8301169050919050565b7f494e56414c49445f414444524553530000000000000000000000000000000000600082015250565b7f494e56414c49445f57484954456c495354000000000000000000000000000000600082015250565b7f4e4f204153534554000000000000000000000000000000000000000000000000600082015250565b7f536166654d6174683a206164646974696f6e206f766572666c6f770000000000600082015250565b7f4661696c656420746f2073656e64204574686572000000000000000000000000600082015250565b7f494e56414c49445f414d4f554e545f3200000000000000000000000000000000600082015250565b7f536166654d6174683a206d756c7469706c69636174696f6e206f766572666c6f60008201527f7700000000000000000000000000000000000000000000000000000000000000602082015250565b7f53595354454d5f53544f50000000000000000000000000000000000000000000600082015250565b7f494e56414c49445f414d4f554e545f3100000000000000000000000000000000600082015250565b7f494e56414c49445f5041594d454e540000000000000000000000000000000000600082015250565b7f494e56414c49445f515541544954590000000000000000000000000000000000600082015250565b7f494e56414c49445f5045524d495353494f4e0000000000000000000000000000600082015250565b61237481611fe6565b811461237f57600080fd5b50565b61238b81611ff8565b811461239657600080fd5b50565b6123a281612004565b81146123ad57600080fd5b50565b6123b981612036565b81146123c457600080fd5b5056fea264697066735822122097d497cb570da778ef0d6283be4c173eaf82ba3f5e14d16e5c873e4339f5106b64736f6c63430008070033",
					"opcodes": "PUSH1 0x80 PUSH1 0x40 MSTORE PUSH1 0x64 PUSH1 0x0 DUP1 PUSH2 0x100 EXP DUP2 SLOAD DUP2 PUSH1 0xFF MUL NOT AND SWAP1 DUP4 PUSH1 0xFF AND MUL OR SWAP1 SSTORE POP PUSH7 0x38D7EA4C68000 PUSH1 0x2 SSTORE PUSH12 0xA18F07D736B90BE550000000 PUSH1 0x3 SSTORE PUSH1 0x0 PUSH1 0x4 SSTORE PUSH1 0x1 PUSH1 0x5 PUSH1 0x0 PUSH2 0x100 EXP DUP2 SLOAD DUP2 PUSH1 0xFF MUL NOT AND SWAP1 DUP4 ISZERO ISZERO MUL OR SWAP1 SSTORE POP PUSH11 0x6342FD08F00F6378000000 PUSH1 0x6 SSTORE CALLVALUE DUP1 ISZERO PUSH3 0x76 JUMPI PUSH1 0x0 DUP1 REVERT JUMPDEST POP PUSH1 0x40 MLOAD PUSH3 0x25E2 CODESIZE SUB DUP1 PUSH3 0x25E2 DUP4 CODECOPY DUP2 DUP2 ADD PUSH1 0x40 MSTORE DUP2 ADD SWAP1 PUSH3 0x9C SWAP2 SWAP1 PUSH3 0x13C JUMP JUMPDEST DUP1 PUSH1 0x1 PUSH1 0x0 PUSH2 0x100 EXP DUP2 SLOAD DUP2 PUSH20 0xFFFFFFFFFFFFFFFFFFFFFFFFFFFFFFFFFFFFFFFF MUL NOT AND SWAP1 DUP4 PUSH20 0xFFFFFFFFFFFFFFFFFFFFFFFFFFFFFFFFFFFFFFFF AND MUL OR SWAP1 SSTORE POP CALLER PUSH1 0x0 PUSH1 0x1 PUSH2 0x100 EXP DUP2 SLOAD DUP2 PUSH20 0xFFFFFFFFFFFFFFFFFFFFFFFFFFFFFFFFFFFFFFFF MUL NOT AND SWAP1 DUP4 PUSH20 0xFFFFFFFFFFFFFFFFFFFFFFFFFFFFFFFFFFFFFFFF AND MUL OR SWAP1 SSTORE POP POP PUSH3 0x1D5 JUMP JUMPDEST PUSH1 0x0 DUP2 MLOAD SWAP1 POP PUSH3 0x136 DUP2 PUSH3 0x1BB JUMP JUMPDEST SWAP3 SWAP2 POP POP JUMP JUMPDEST PUSH1 0x0 PUSH1 0x20 DUP3 DUP5 SUB SLT ISZERO PUSH3 0x155 JUMPI PUSH3 0x154 PUSH3 0x1B6 JUMP JUMPDEST JUMPDEST PUSH1 0x0 PUSH3 0x165 DUP5 DUP3 DUP6 ADD PUSH3 0x125 JUMP JUMPDEST SWAP2 POP POP SWAP3 SWAP2 POP POP JUMP JUMPDEST PUSH1 0x0 PUSH3 0x17B DUP3 PUSH3 0x196 JUMP JUMPDEST SWAP1 POP SWAP2 SWAP1 POP JUMP JUMPDEST PUSH1 0x0 PUSH3 0x18F DUP3 PUSH3 0x16E JUMP JUMPDEST SWAP1 POP SWAP2 SWAP1 POP JUMP JUMPDEST PUSH1 0x0 PUSH20 0xFFFFFFFFFFFFFFFFFFFFFFFFFFFFFFFFFFFFFFFF DUP3 AND SWAP1 POP SWAP2 SWAP1 POP JUMP JUMPDEST PUSH1 0x0 DUP1 REVERT JUMPDEST PUSH3 0x1C6 DUP2 PUSH3 0x182 JUMP JUMPDEST DUP2 EQ PUSH3 0x1D2 JUMPI PUSH1 0x0 DUP1 REVERT JUMPDEST POP JUMP JUMPDEST PUSH2 0x23FD DUP1 PUSH3 0x1E5 PUSH1 0x0 CODECOPY PUSH1 0x0 RETURN INVALID PUSH1 0x80 PUSH1 0x40 MSTORE PUSH1 0x4 CALLDATASIZE LT PUSH2 0x139 JUMPI PUSH1 0x0 CALLDATALOAD PUSH1 0xE0 SHR DUP1 PUSH4 0xA2B0106B GT PUSH2 0xAB JUMPI DUP1 PUSH4 0xDB2E21BC GT PUSH2 0x6F JUMPI DUP1 PUSH4 0xDB2E21BC EQ PUSH2 0x3C6 JUMPI DUP1 PUSH4 0xE632C2F3 EQ PUSH2 0x3DD JUMPI DUP1 PUSH4 0xEA4CE239 EQ PUSH2 0x408 JUMPI DUP1 PUSH4 0xF2FDE38B EQ PUSH2 0x433 JUMPI DUP1 PUSH4 0xF51F96DD EQ PUSH2 0x45C JUMPI DUP1 PUSH4 0xFFA1AD74 EQ PUSH2 0x487 JUMPI PUSH2 0x140 JUMP JUMPDEST DUP1 PUSH4 0xA2B0106B EQ PUSH2 0x314 JUMPI DUP1 PUSH4 0xA3907D71 EQ PUSH2 0x33D JUMPI DUP1 PUSH4 0xA6F2AE3A EQ PUSH2 0x354 JUMPI DUP1 PUSH4 0xBCAAF662 EQ PUSH2 0x35E JUMPI DUP1 PUSH4 0xDA769176 EQ PUSH2 0x39B JUMPI PUSH2 0x140 JUMP JUMPDEST DUP1 PUSH4 0x4F079F57 GT PUSH2 0xFD JUMPI DUP1 PUSH4 0x4F079F57 EQ PUSH2 0x202 JUMPI DUP1 PUSH4 0x50C19C0B EQ PUSH2 0x22B JUMPI DUP1 PUSH4 0x6E947298 EQ PUSH2 0x256 JUMPI DUP1 PUSH4 0x8DA5CB5B EQ PUSH2 0x281 JUMPI DUP1 PUSH4 0x90C8DD17 EQ PUSH2 0x2AC JUMPI DUP1 PUSH4 0x92F6386A EQ PUSH2 0x2E9 JUMPI PUSH2 0x140 JUMP JUMPDEST DUP1 PUSH4 0x1919FED7 EQ PUSH2 0x145 JUMPI DUP1 PUSH4 0x2F2770DB EQ PUSH2 0x16E JUMPI DUP1 PUSH4 0x36A22E14 EQ PUSH2 0x185 JUMPI DUP1 PUSH4 0x38266B22 EQ PUSH2 0x19C JUMPI DUP1 PUSH4 0x4A860104 EQ PUSH2 0x1D9 JUMPI PUSH2 0x140 JUMP JUMPDEST CALLDATASIZE PUSH2 0x140 JUMPI STOP JUMPDEST PUSH1 0x0 DUP1 REVERT JUMPDEST CALLVALUE DUP1 ISZERO PUSH2 0x151 JUMPI PUSH1 0x0 DUP1 REVERT JUMPDEST POP PUSH2 0x16C PUSH1 0x4 DUP1 CALLDATASIZE SUB DUP2 ADD SWAP1 PUSH2 0x167 SWAP2 SWAP1 PUSH2 0x18D5 JUMP JUMPDEST PUSH2 0x4B2 JUMP JUMPDEST STOP JUMPDEST CALLVALUE DUP1 ISZERO PUSH2 0x17A JUMPI PUSH1 0x0 DUP1 REVERT JUMPDEST POP PUSH2 0x183 PUSH2 0x54C JUMP JUMPDEST STOP JUMPDEST CALLVALUE DUP1 ISZERO PUSH2 0x191 JUMPI PUSH1 0x0 DUP1 REVERT JUMPDEST POP PUSH2 0x19A PUSH2 0x5F9 JUMP JUMPDEST STOP JUMPDEST CALLVALUE DUP1 ISZERO PUSH2 0x1A8 JUMPI PUSH1 0x0 DUP1 REVERT JUMPDEST POP PUSH2 0x1C3 PUSH1 0x4 DUP1 CALLDATASIZE SUB DUP2 ADD SWAP1 PUSH2 0x1BE SWAP2 SWAP1 PUSH2 0x184E JUMP JUMPDEST PUSH2 0x733 JUMP JUMPDEST PUSH1 0x40 MLOAD PUSH2 0x1D0 SWAP2 SWAP1 PUSH2 0x1C5E JUMP JUMPDEST PUSH1 0x40 MLOAD DUP1 SWAP2 SUB SWAP1 RETURN JUMPDEST CALLVALUE DUP1 ISZERO PUSH2 0x1E5 JUMPI PUSH1 0x0 DUP1 REVERT JUMPDEST POP PUSH2 0x200 PUSH1 0x4 DUP1 CALLDATASIZE SUB DUP2 ADD SWAP1 PUSH2 0x1FB SWAP2 SWAP1 PUSH2 0x18D5 JUMP JUMPDEST PUSH2 0x8A4 JUMP JUMPDEST STOP JUMPDEST CALLVALUE DUP1 ISZERO PUSH2 0x20E JUMPI PUSH1 0x0 DUP1 REVERT JUMPDEST POP PUSH2 0x229 PUSH1 0x4 DUP1 CALLDATASIZE SUB DUP2 ADD SWAP1 PUSH2 0x224 SWAP2 SWAP1 PUSH2 0x18A8 JUMP JUMPDEST PUSH2 0x93E JUMP JUMPDEST STOP JUMPDEST CALLVALUE DUP1 ISZERO PUSH2 0x237 JUMPI PUSH1 0x0 DUP1 REVERT JUMPDEST POP PUSH2 0x240 PUSH2 0xA82 JUMP JUMPDEST PUSH1 0x40 MLOAD PUSH2 0x24D SWAP2 SWAP1 PUSH2 0x1E52 JUMP JUMPDEST PUSH1 0x40 MLOAD DUP1 SWAP2 SUB SWAP1 RETURN JUMPDEST CALLVALUE DUP1 ISZERO PUSH2 0x262 JUMPI PUSH1 0x0 DUP1 REVERT JUMPDEST POP PUSH2 0x26B PUSH2 0xA88 JUMP JUMPDEST PUSH1 0x40 MLOAD PUSH2 0x278 SWAP2 SWAP1 PUSH2 0x1E52 JUMP JUMPDEST PUSH1 0x40 MLOAD DUP1 SWAP2 SUB SWAP1 RETURN JUMPDEST CALLVALUE DUP1 ISZERO PUSH2 0x28D JUMPI PUSH1 0x0 DUP1 REVERT JUMPDEST POP PUSH2 0x296 PUSH2 0xA90 JUMP JUMPDEST PUSH1 0x40 MLOAD PUSH2 0x2A3 SWAP2 SWAP1 PUSH2 0x1BD5 JUMP JUMPDEST PUSH1 0x40 MLOAD DUP1 SWAP2 SUB SWAP1 RETURN JUMPDEST CALLVALUE DUP1 ISZERO PUSH2 0x2B8 JUMPI PUSH1 0x0 DUP1 REVERT JUMPDEST POP PUSH2 0x2D3 PUSH1 0x4 DUP1 CALLDATASIZE SUB DUP2 ADD SWAP1 PUSH2 0x2CE SWAP2 SWAP1 PUSH2 0x184E JUMP JUMPDEST PUSH2 0xAB6 JUMP JUMPDEST PUSH1 0x40 MLOAD PUSH2 0x2E0 SWAP2 SWAP1 PUSH2 0x1E52 JUMP JUMPDEST PUSH1 0x40 MLOAD DUP1 SWAP2 SUB SWAP1 RETURN JUMPDEST CALLVALUE DUP1 ISZERO PUSH2 0x2F5 JUMPI PUSH1 0x0 DUP1 REVERT JUMPDEST POP PUSH2 0x2FE PUSH2 0xBA9 JUMP JUMPDEST PUSH1 0x40 MLOAD PUSH2 0x30B SWAP2 SWAP1 PUSH2 0x1C7A JUMP JUMPDEST PUSH1 0x40 MLOAD DUP1 SWAP2 SUB SWAP1 RETURN JUMPDEST CALLVALUE DUP1 ISZERO PUSH2 0x320 JUMPI PUSH1 0x0 DUP1 REVERT JUMPDEST POP PUSH2 0x33B PUSH1 0x4 DUP1 CALLDATASIZE SUB DUP2 ADD SWAP1 PUSH2 0x336 SWAP2 SWAP1 PUSH2 0x18D5 JUMP JUMPDEST PUSH2 0xBBC JUMP JUMPDEST STOP JUMPDEST CALLVALUE DUP1 ISZERO PUSH2 0x349 JUMPI PUSH1 0x0 DUP1 REVERT JUMPDEST POP PUSH2 0x352 PUSH2 0xC56 JUMP JUMPDEST STOP JUMPDEST PUSH2 0x35C PUSH2 0xD03 JUMP JUMPDEST STOP JUMPDEST CALLVALUE DUP1 ISZERO PUSH2 0x36A JUMPI PUSH1 0x0 DUP1 REVERT JUMPDEST POP PUSH2 0x385 PUSH1 0x4 DUP1 CALLDATASIZE SUB DUP2 ADD SWAP1 PUSH2 0x380 SWAP2 SWAP1 PUSH2 0x184E JUMP JUMPDEST PUSH2 0x1202 JUMP JUMPDEST PUSH1 0x40 MLOAD PUSH2 0x392 SWAP2 SWAP1 PUSH2 0x1E52 JUMP JUMPDEST PUSH1 0x40 MLOAD DUP1 SWAP2 SUB SWAP1 RETURN JUMPDEST CALLVALUE DUP1 ISZERO PUSH2 0x3A7 JUMPI PUSH1 0x0 DUP1 REVERT JUMPDEST POP PUSH2 0x3B0 PUSH2 0x121A JUMP JUMPDEST PUSH1 0x40 MLOAD PUSH2 0x3BD SWAP2 SWAP1 PUSH2 0x1C95 JUMP JUMPDEST PUSH1 0x40 MLOAD DUP1 SWAP2 SUB SWAP1 RETURN JUMPDEST CALLVALUE DUP1 ISZERO PUSH2 0x3D2 JUMPI PUSH1 0x0 DUP1 REVERT JUMPDEST POP PUSH2 0x3DB PUSH2 0x1240 JUMP JUMPDEST STOP JUMPDEST CALLVALUE DUP1 ISZERO PUSH2 0x3E9 JUMPI PUSH1 0x0 DUP1 REVERT JUMPDEST POP PUSH2 0x3F2 PUSH2 0x1497 JUMP JUMPDEST PUSH1 0x40 MLOAD PUSH2 0x3FF SWAP2 SWAP1 PUSH2 0x1E52 JUMP JUMPDEST PUSH1 0x40 MLOAD DUP1 SWAP2 SUB SWAP1 RETURN JUMPDEST CALLVALUE DUP1 ISZERO PUSH2 0x414 JUMPI PUSH1 0x0 DUP1 REVERT JUMPDEST POP PUSH2 0x41D PUSH2 0x149D JUMP JUMPDEST PUSH1 0x40 MLOAD PUSH2 0x42A SWAP2 SWAP1 PUSH2 0x1E52 JUMP JUMPDEST PUSH1 0x40 MLOAD DUP1 SWAP2 SUB SWAP1 RETURN JUMPDEST CALLVALUE DUP1 ISZERO PUSH2 0x43F JUMPI PUSH1 0x0 DUP1 REVERT JUMPDEST POP PUSH2 0x45A PUSH1 0x4 DUP1 CALLDATASIZE SUB DUP2 ADD SWAP1 PUSH2 0x455 SWAP2 SWAP1 PUSH2 0x184E JUMP JUMPDEST PUSH2 0x14A3 JUMP JUMPDEST STOP JUMPDEST CALLVALUE DUP1 ISZERO PUSH2 0x468 JUMPI PUSH1 0x0 DUP1 REVERT JUMPDEST POP PUSH2 0x471 PUSH2 0x1577 JUMP JUMPDEST PUSH1 0x40 MLOAD PUSH2 0x47E SWAP2 SWAP1 PUSH2 0x1E52 JUMP JUMPDEST PUSH1 0x40 MLOAD DUP1 SWAP2 SUB SWAP1 RETURN JUMPDEST CALLVALUE DUP1 ISZERO PUSH2 0x493 JUMPI PUSH1 0x0 DUP1 REVERT JUMPDEST POP PUSH2 0x49C PUSH2 0x157D JUMP JUMPDEST PUSH1 0x40 MLOAD PUSH2 0x4A9 SWAP2 SWAP1 PUSH2 0x1E6D JUMP JUMPDEST PUSH1 0x40 MLOAD DUP1 SWAP2 SUB SWAP1 RETURN JUMPDEST PUSH1 0x0 PUSH1 0x1 SWAP1 SLOAD SWAP1 PUSH2 0x100 EXP SWAP1 DIV PUSH20 0xFFFFFFFFFFFFFFFFFFFFFFFFFFFFFFFFFFFFFFFF AND PUSH20 0xFFFFFFFFFFFFFFFFFFFFFFFFFFFFFFFFFFFFFFFF AND CALLER PUSH20 0xFFFFFFFFFFFFFFFFFFFFFFFFFFFFFFFFFFFFFFFF AND EQ PUSH2 0x542 JUMPI PUSH1 0x40 MLOAD PUSH32 0x8C379A000000000000000000000000000000000000000000000000000000000 DUP2 MSTORE PUSH1 0x4 ADD PUSH2 0x539 SWAP1 PUSH2 0x1E32 JUMP JUMPDEST PUSH1 0x40 MLOAD DUP1 SWAP2 SUB SWAP1 REVERT JUMPDEST DUP1 PUSH1 0x2 DUP2 SWAP1 SSTORE POP POP JUMP JUMPDEST PUSH1 0x0 PUSH1 0x1 SWAP1 SLOAD SWAP1 PUSH2 0x100 EXP SWAP1 DIV PUSH20 0xFFFFFFFFFFFFFFFFFFFFFFFFFFFFFFFFFFFFFFFF AND PUSH20 0xFFFFFFFFFFFFFFFFFFFFFFFFFFFFFFFFFFFFFFFF AND CALLER PUSH20 0xFFFFFFFFFFFFFFFFFFFFFFFFFFFFFFFFFFFFFFFF AND EQ PUSH2 0x5DC JUMPI PUSH1 0x40 MLOAD PUSH32 0x8C379A000000000000000000000000000000000000000000000000000000000 DUP2 MSTORE PUSH1 0x4 ADD PUSH2 0x5D3 SWAP1 PUSH2 0x1E32 JUMP JUMPDEST PUSH1 0x40 MLOAD DUP1 SWAP2 SUB SWAP1 REVERT JUMPDEST PUSH1 0x0 PUSH1 0x5 PUSH1 0x0 PUSH2 0x100 EXP DUP2 SLOAD DUP2 PUSH1 0xFF MUL NOT AND SWAP1 DUP4 ISZERO ISZERO MUL OR SWAP1 SSTORE POP JUMP JUMPDEST PUSH1 0x0 PUSH1 0x1 SWAP1 SLOAD SWAP1 PUSH2 0x100 EXP SWAP1 DIV PUSH20 0xFFFFFFFFFFFFFFFFFFFFFFFFFFFFFFFFFFFFFFFF AND PUSH20 0xFFFFFFFFFFFFFFFFFFFFFFFFFFFFFFFFFFFFFFFF AND CALLER PUSH20 0xFFFFFFFFFFFFFFFFFFFFFFFFFFFFFFFFFFFFFFFF AND EQ PUSH2 0x689 JUMPI PUSH1 0x40 MLOAD PUSH32 0x8C379A000000000000000000000000000000000000000000000000000000000 DUP2 MSTORE PUSH1 0x4 ADD PUSH2 0x680 SWAP1 PUSH2 0x1E32 JUMP JUMPDEST PUSH1 0x40 MLOAD DUP1 SWAP2 SUB SWAP1 REVERT JUMPDEST PUSH1 0x0 PUSH2 0x693 PUSH2 0xA88 JUMP JUMPDEST SWAP1 POP PUSH1 0x0 DUP1 PUSH1 0x1 SWAP1 SLOAD SWAP1 PUSH2 0x100 EXP SWAP1 DIV PUSH20 0xFFFFFFFFFFFFFFFFFFFFFFFFFFFFFFFFFFFFFFFF AND PUSH20 0xFFFFFFFFFFFFFFFFFFFFFFFFFFFFFFFFFFFFFFFF AND PUSH2 0x8FC DUP4 SWAP1 DUP2 ISZERO MUL SWAP1 PUSH1 0x40 MLOAD PUSH1 0x0 PUSH1 0x40 MLOAD DUP1 DUP4 SUB DUP2 DUP6 DUP9 DUP9 CALL SWAP4 POP POP POP POP SWAP1 POP DUP1 PUSH2 0x72F JUMPI PUSH1 0x40 MLOAD PUSH32 0x8C379A000000000000000000000000000000000000000000000000000000000 DUP2 MSTORE PUSH1 0x4 ADD PUSH2 0x726 SWAP1 PUSH2 0x1D52 JUMP JUMPDEST PUSH1 0x40 MLOAD DUP1 SWAP2 SUB SWAP1 REVERT JUMPDEST POP POP JUMP JUMPDEST PUSH2 0x73B PUSH2 0x17C2 JUMP JUMPDEST DUP2 PUSH20 0xFFFFFFFFFFFFFFFFFFFFFFFFFFFFFFFFFFFFFFFF AND BALANCE DUP2 PUSH1 0x0 PUSH1 0x8 DUP2 LT PUSH2 0x767 JUMPI PUSH2 0x766 PUSH2 0x2114 JUMP JUMPDEST JUMPDEST PUSH1 0x20 MUL ADD DUP2 DUP2 MSTORE POP POP PUSH2 0x779 DUP3 PUSH2 0xAB6 JUMP JUMPDEST DUP2 PUSH1 0x1 PUSH1 0x8 DUP2 LT PUSH2 0x78D JUMPI PUSH2 0x78C PUSH2 0x2114 JUMP JUMPDEST JUMPDEST PUSH1 0x20 MUL ADD DUP2 DUP2 MSTORE POP POP PUSH2 0x7DD PUSH8 0xDE0B6B3A7640000 PUSH2 0x7CF PUSH1 0x2 SLOAD DUP5 PUSH1 0x1 PUSH1 0x8 DUP2 LT PUSH2 0x7BC JUMPI PUSH2 0x7BB PUSH2 0x2114 JUMP JUMPDEST JUMPDEST PUSH1 0x20 MUL ADD MLOAD PUSH2 0x158E SWAP1 SWAP2 SWAP1 PUSH4 0xFFFFFFFF AND JUMP JUMPDEST PUSH2 0x1609 SWAP1 SWAP2 SWAP1 PUSH4 0xFFFFFFFF AND JUMP JUMPDEST DUP2 PUSH1 0x2 PUSH1 0x8 DUP2 LT PUSH2 0x7F1 JUMPI PUSH2 0x7F0 PUSH2 0x2114 JUMP JUMPDEST JUMPDEST PUSH1 0x20 MUL ADD DUP2 DUP2 MSTORE POP POP PUSH2 0x802 PUSH2 0xA88 JUMP JUMPDEST DUP2 PUSH1 0x3 PUSH1 0x8 DUP2 LT PUSH2 0x816 JUMPI PUSH2 0x815 PUSH2 0x2114 JUMP JUMPDEST JUMPDEST PUSH1 0x20 MUL ADD DUP2 DUP2 MSTORE POP POP PUSH1 0x6 SLOAD DUP2 PUSH1 0x4 PUSH1 0x8 DUP2 LT PUSH2 0x836 JUMPI PUSH2 0x835 PUSH2 0x2114 JUMP JUMPDEST JUMPDEST PUSH1 0x20 MUL ADD DUP2 DUP2 MSTORE POP POP PUSH1 0x3 SLOAD DUP2 PUSH1 0x5 PUSH1 0x8 DUP2 LT PUSH2 0x856 JUMPI PUSH2 0x855 PUSH2 0x2114 JUMP JUMPDEST JUMPDEST PUSH1 0x20 MUL ADD DUP2 DUP2 MSTORE POP POP PUSH1 0x2 SLOAD DUP2 PUSH1 0x6 PUSH1 0x8 DUP2 LT PUSH2 0x876 JUMPI PUSH2 0x875 PUSH2 0x2114 JUMP JUMPDEST JUMPDEST PUSH1 0x20 MUL ADD DUP2 DUP2 MSTORE POP POP PUSH1 0x4 SLOAD DUP2 PUSH1 0x7 PUSH1 0x8 DUP2 LT PUSH2 0x896 JUMPI PUSH2 0x895 PUSH2 0x2114 JUMP JUMPDEST JUMPDEST PUSH1 0x20 MUL ADD DUP2 DUP2 MSTORE POP POP SWAP2 SWAP1 POP JUMP JUMPDEST PUSH1 0x0 PUSH1 0x1 SWAP1 SLOAD SWAP1 PUSH2 0x100 EXP SWAP1 DIV PUSH20 0xFFFFFFFFFFFFFFFFFFFFFFFFFFFFFFFFFFFFFFFF AND PUSH20 0xFFFFFFFFFFFFFFFFFFFFFFFFFFFFFFFFFFFFFFFF AND CALLER PUSH20 0xFFFFFFFFFFFFFFFFFFFFFFFFFFFFFFFFFFFFFFFF AND EQ PUSH2 0x934 JUMPI PUSH1 0x40 MLOAD PUSH32 0x8C379A000000000000000000000000000000000000000000000000000000000 DUP2 MSTORE PUSH1 0x4 ADD PUSH2 0x92B SWAP1 PUSH2 0x1E32 JUMP JUMPDEST PUSH1 0x40 MLOAD DUP1 SWAP2 SUB SWAP1 REVERT JUMPDEST DUP1 PUSH1 0x3 DUP2 SWAP1 SSTORE POP POP JUMP JUMPDEST PUSH1 0x0 PUSH1 0x1 SWAP1 SLOAD SWAP1 PUSH2 0x100 EXP SWAP1 DIV PUSH20 0xFFFFFFFFFFFFFFFFFFFFFFFFFFFFFFFFFFFFFFFF AND PUSH20 0xFFFFFFFFFFFFFFFFFFFFFFFFFFFFFFFFFFFFFFFF AND CALLER PUSH20 0xFFFFFFFFFFFFFFFFFFFFFFFFFFFFFFFFFFFFFFFF AND EQ PUSH2 0x9CE JUMPI PUSH1 0x40 MLOAD PUSH32 0x8C379A000000000000000000000000000000000000000000000000000000000 DUP2 MSTORE PUSH1 0x4 ADD PUSH2 0x9C5 SWAP1 PUSH2 0x1E32 JUMP JUMPDEST PUSH1 0x40 MLOAD DUP1 SWAP2 SUB SWAP1 REVERT JUMPDEST PUSH1 0x0 PUSH20 0xFFFFFFFFFFFFFFFFFFFFFFFFFFFFFFFFFFFFFFFF AND DUP2 PUSH20 0xFFFFFFFFFFFFFFFFFFFFFFFFFFFFFFFFFFFFFFFF AND EQ ISZERO PUSH2 0xA3E JUMPI PUSH1 0x40 MLOAD PUSH32 0x8C379A000000000000000000000000000000000000000000000000000000000 DUP2 MSTORE PUSH1 0x4 ADD PUSH2 0xA35 SWAP1 PUSH2 0x1CD2 JUMP JUMPDEST PUSH1 0x40 MLOAD DUP1 SWAP2 SUB SWAP1 REVERT JUMPDEST DUP1 PUSH1 0x1 PUSH1 0x0 PUSH2 0x100 EXP DUP2 SLOAD DUP2 PUSH20 0xFFFFFFFFFFFFFFFFFFFFFFFFFFFFFFFFFFFFFFFF MUL NOT AND SWAP1 DUP4 PUSH20 0xFFFFFFFFFFFFFFFFFFFFFFFFFFFFFFFFFFFFFFFF AND MUL OR SWAP1 SSTORE POP POP JUMP JUMPDEST PUSH1 0x6 SLOAD DUP2 JUMP JUMPDEST PUSH1 0x0 SELFBALANCE SWAP1 POP SWAP1 JUMP JUMPDEST PUSH1 0x0 PUSH1 0x1 SWAP1 SLOAD SWAP1 PUSH2 0x100 EXP SWAP1 DIV PUSH20 0xFFFFFFFFFFFFFFFFFFFFFFFFFFFFFFFFFFFFFFFF AND DUP2 JUMP JUMPDEST PUSH1 0x0 PUSH1 0x6 SLOAD PUSH1 0x7 PUSH1 0x0 DUP5 PUSH20 0xFFFFFFFFFFFFFFFFFFFFFFFFFFFFFFFFFFFFFFFF AND PUSH20 0xFFFFFFFFFFFFFFFFFFFFFFFFFFFFFFFFFFFFFFFF AND DUP2 MSTORE PUSH1 0x20 ADD SWAP1 DUP2 MSTORE PUSH1 0x20 ADD PUSH1 0x0 KECCAK256 SLOAD LT ISZERO DUP1 PUSH2 0xB0B JUMPI POP PUSH1 0x0 PUSH1 0x3 SLOAD GT ISZERO JUMPDEST DUP1 PUSH2 0xB29 JUMPI POP PUSH1 0x0 ISZERO ISZERO PUSH1 0x5 PUSH1 0x0 SWAP1 SLOAD SWAP1 PUSH2 0x100 EXP SWAP1 DIV PUSH1 0xFF AND ISZERO ISZERO EQ JUMPDEST ISZERO PUSH2 0xB37 JUMPI PUSH1 0x0 SWAP1 POP PUSH2 0xBA4 JUMP JUMPDEST PUSH1 0x0 PUSH2 0xB8D PUSH1 0x7 PUSH1 0x0 DUP6 PUSH20 0xFFFFFFFFFFFFFFFFFFFFFFFFFFFFFFFFFFFFFFFF AND PUSH20 0xFFFFFFFFFFFFFFFFFFFFFFFFFFFFFFFFFFFFFFFF AND DUP2 MSTORE PUSH1 0x20 ADD SWAP1 DUP2 MSTORE PUSH1 0x20 ADD PUSH1 0x0 KECCAK256 SLOAD PUSH1 0x6 SLOAD PUSH2 0x1653 SWAP1 SWAP2 SWAP1 PUSH4 0xFFFFFFFF AND JUMP JUMPDEST SWAP1 POP PUSH1 0x3 SLOAD DUP2 GT ISZERO PUSH2 0xB9F JUMPI PUSH1 0x3 SLOAD SWAP1 POP JUMPDEST DUP1 SWAP2 POP POP JUMPDEST SWAP2 SWAP1 POP JUMP JUMPDEST PUSH1 0x5 PUSH1 0x0 SWAP1 SLOAD SWAP1 PUSH2 0x100 EXP SWAP1 DIV PUSH1 0xFF AND DUP2 JUMP JUMPDEST PUSH1 0x0 PUSH1 0x1 SWAP1 SLOAD SWAP1 PUSH2 0x100 EXP SWAP1 DIV PUSH20 0xFFFFFFFFFFFFFFFFFFFFFFFFFFFFFFFFFFFFFFFF AND PUSH20 0xFFFFFFFFFFFFFFFFFFFFFFFFFFFFFFFFFFFFFFFF AND CALLER PUSH20 0xFFFFFFFFFFFFFFFFFFFFFFFFFFFFFFFFFFFFFFFF AND EQ PUSH2 0xC4C JUMPI PUSH1 0x40 MLOAD PUSH32 0x8C379A000000000000000000000000000000000000000000000000000000000 DUP2 MSTORE PUSH1 0x4 ADD PUSH2 0xC43 SWAP1 PUSH2 0x1E32 JUMP JUMPDEST PUSH1 0x40 MLOAD DUP1 SWAP2 SUB SWAP1 REVERT JUMPDEST DUP1 PUSH1 0x6 DUP2 SWAP1 SSTORE POP POP JUMP JUMPDEST PUSH1 0x0 PUSH1 0x1 SWAP1 SLOAD SWAP1 PUSH2 0x100 EXP SWAP1 DIV PUSH20 0xFFFFFFFFFFFFFFFFFFFFFFFFFFFFFFFFFFFFFFFF AND PUSH20 0xFFFFFFFFFFFFFFFFFFFFFFFFFFFFFFFFFFFFFFFF AND CALLER PUSH20 0xFFFFFFFFFFFFFFFFFFFFFFFFFFFFFFFFFFFFFFFF AND EQ PUSH2 0xCE6 JUMPI PUSH1 0x40 MLOAD PUSH32 0x8C379A000000000000000000000000000000000000000000000000000000000 DUP2 MSTORE PUSH1 0x4 ADD PUSH2 0xCDD SWAP1 PUSH2 0x1E32 JUMP JUMPDEST PUSH1 0x40 MLOAD DUP1 SWAP2 SUB SWAP1 REVERT JUMPDEST PUSH1 0x1 PUSH1 0x5 PUSH1 0x0 PUSH2 0x100 EXP DUP2 SLOAD DUP2 PUSH1 0xFF MUL NOT AND SWAP1 DUP4 ISZERO ISZERO MUL OR SWAP1 SSTORE POP JUMP JUMPDEST ORIGIN PUSH20 0xFFFFFFFFFFFFFFFFFFFFFFFFFFFFFFFFFFFFFFFF AND CALLER PUSH20 0xFFFFFFFFFFFFFFFFFFFFFFFFFFFFFFFFFFFFFFFF AND EQ PUSH2 0xD71 JUMPI PUSH1 0x40 MLOAD PUSH32 0x8C379A000000000000000000000000000000000000000000000000000000000 DUP2 MSTORE PUSH1 0x4 ADD PUSH2 0xD68 SWAP1 PUSH2 0x1CF2 JUMP JUMPDEST PUSH1 0x40 MLOAD DUP1 SWAP2 SUB SWAP1 REVERT JUMPDEST PUSH1 0x1 ISZERO ISZERO PUSH1 0x5 PUSH1 0x0 SWAP1 SLOAD SWAP1 PUSH2 0x100 EXP SWAP1 DIV PUSH1 0xFF AND ISZERO ISZERO EQ PUSH2 0xDC7 JUMPI PUSH1 0x40 MLOAD PUSH32 0x8C379A000000000000000000000000000000000000000000000000000000000 DUP2 MSTORE PUSH1 0x4 ADD PUSH2 0xDBE SWAP1 PUSH2 0x1DB2 JUMP JUMPDEST PUSH1 0x40 MLOAD DUP1 SWAP2 SUB SWAP1 REVERT JUMPDEST PUSH1 0x0 CALLVALUE GT PUSH2 0xE0A JUMPI PUSH1 0x40 MLOAD PUSH32 0x8C379A000000000000000000000000000000000000000000000000000000000 DUP2 MSTORE PUSH1 0x4 ADD PUSH2 0xE01 SWAP1 PUSH2 0x1DD2 JUMP JUMPDEST PUSH1 0x40 MLOAD DUP1 SWAP2 SUB SWAP1 REVERT JUMPDEST PUSH1 0x0 PUSH2 0xE15 CALLER PUSH2 0xAB6 JUMP JUMPDEST SWAP1 POP PUSH1 0x0 DUP2 GT PUSH2 0xE5A JUMPI PUSH1 0x40 MLOAD PUSH32 0x8C379A000000000000000000000000000000000000000000000000000000000 DUP2 MSTORE PUSH1 0x4 ADD PUSH2 0xE51 SWAP1 PUSH2 0x1E32 JUMP JUMPDEST PUSH1 0x40 MLOAD DUP1 SWAP2 SUB SWAP1 REVERT JUMPDEST PUSH1 0x0 CALLVALUE SWAP1 POP PUSH1 0x0 DUP1 PUSH2 0xE91 PUSH1 0x2 SLOAD PUSH2 0xE83 PUSH8 0xDE0B6B3A7640000 DUP7 PUSH2 0x158E SWAP1 SWAP2 SWAP1 PUSH4 0xFFFFFFFF AND JUMP JUMPDEST PUSH2 0x1609 SWAP1 SWAP2 SWAP1 PUSH4 0xFFFFFFFF AND JUMP JUMPDEST SWAP1 POP DUP4 DUP2 GT ISZERO PUSH2 0xEE5 JUMPI DUP4 SWAP1 POP PUSH2 0xECD PUSH8 0xDE0B6B3A7640000 PUSH2 0xEBF PUSH1 0x2 SLOAD DUP5 PUSH2 0x158E SWAP1 SWAP2 SWAP1 PUSH4 0xFFFFFFFF AND JUMP JUMPDEST PUSH2 0x1609 SWAP1 SWAP2 SWAP1 PUSH4 0xFFFFFFFF AND JUMP JUMPDEST SWAP3 POP PUSH2 0xEE2 DUP4 CALLVALUE PUSH2 0x1653 SWAP1 SWAP2 SWAP1 PUSH4 0xFFFFFFFF AND JUMP JUMPDEST SWAP2 POP JUMPDEST PUSH1 0x0 DUP2 GT PUSH2 0xF28 JUMPI PUSH1 0x40 MLOAD PUSH32 0x8C379A000000000000000000000000000000000000000000000000000000000 DUP2 MSTORE PUSH1 0x4 ADD PUSH2 0xF1F SWAP1 PUSH2 0x1E12 JUMP JUMPDEST PUSH1 0x40 MLOAD DUP1 SWAP2 SUB SWAP1 REVERT JUMPDEST PUSH1 0x0 DUP4 GT PUSH2 0xF6B JUMPI PUSH1 0x40 MLOAD PUSH32 0x8C379A000000000000000000000000000000000000000000000000000000000 DUP2 MSTORE PUSH1 0x4 ADD PUSH2 0xF62 SWAP1 PUSH2 0x1DF2 JUMP JUMPDEST PUSH1 0x40 MLOAD DUP1 SWAP2 SUB SWAP1 REVERT JUMPDEST CALLVALUE PUSH2 0xF7F DUP4 DUP6 PUSH2 0x169D SWAP1 SWAP2 SWAP1 PUSH4 0xFFFFFFFF AND JUMP JUMPDEST GT ISZERO PUSH2 0xFC0 JUMPI PUSH1 0x40 MLOAD PUSH32 0x8C379A000000000000000000000000000000000000000000000000000000000 DUP2 MSTORE PUSH1 0x4 ADD PUSH2 0xFB7 SWAP1 PUSH2 0x1D72 JUMP JUMPDEST PUSH1 0x40 MLOAD DUP1 SWAP2 SUB SWAP1 REVERT JUMPDEST PUSH1 0x1 PUSH1 0x0 SWAP1 SLOAD SWAP1 PUSH2 0x100 EXP SWAP1 DIV PUSH20 0xFFFFFFFFFFFFFFFFFFFFFFFFFFFFFFFFFFFFFFFF AND PUSH20 0xFFFFFFFFFFFFFFFFFFFFFFFFFFFFFFFFFFFFFFFF AND PUSH4 0xA9059CBB CALLER DUP4 PUSH1 0x40 MLOAD DUP4 PUSH4 0xFFFFFFFF AND PUSH1 0xE0 SHL DUP2 MSTORE PUSH1 0x4 ADD PUSH2 0x101D SWAP3 SWAP2 SWAP1 PUSH2 0x1BF0 JUMP JUMPDEST PUSH1 0x20 PUSH1 0x40 MLOAD DUP1 DUP4 SUB DUP2 PUSH1 0x0 DUP8 DUP1 EXTCODESIZE ISZERO DUP1 ISZERO PUSH2 0x1037 JUMPI PUSH1 0x0 DUP1 REVERT JUMPDEST POP GAS CALL ISZERO DUP1 ISZERO PUSH2 0x104B JUMPI RETURNDATASIZE PUSH1 0x0 DUP1 RETURNDATACOPY RETURNDATASIZE PUSH1 0x0 REVERT JUMPDEST POP POP POP POP PUSH1 0x40 MLOAD RETURNDATASIZE PUSH1 0x1F NOT PUSH1 0x1F DUP3 ADD AND DUP3 ADD DUP1 PUSH1 0x40 MSTORE POP DUP2 ADD SWAP1 PUSH2 0x106F SWAP2 SWAP1 PUSH2 0x187B JUMP JUMPDEST POP PUSH2 0x1085 DUP4 PUSH1 0x4 SLOAD PUSH2 0x169D SWAP1 SWAP2 SWAP1 PUSH4 0xFFFFFFFF AND JUMP JUMPDEST PUSH1 0x4 DUP2 SWAP1 SSTORE POP PUSH2 0x10A0 DUP2 PUSH1 0x3 SLOAD PUSH2 0x1653 SWAP1 SWAP2 SWAP1 PUSH4 0xFFFFFFFF AND JUMP JUMPDEST PUSH1 0x3 DUP2 SWAP1 SSTORE POP PUSH2 0x10F8 DUP2 PUSH1 0x7 PUSH1 0x0 CALLER PUSH20 0xFFFFFFFFFFFFFFFFFFFFFFFFFFFFFFFFFFFFFFFF AND PUSH20 0xFFFFFFFFFFFFFFFFFFFFFFFFFFFFFFFFFFFFFFFF AND DUP2 MSTORE PUSH1 0x20 ADD SWAP1 DUP2 MSTORE PUSH1 0x20 ADD PUSH1 0x0 KECCAK256 SLOAD PUSH2 0x169D SWAP1 SWAP2 SWAP1 PUSH4 0xFFFFFFFF AND JUMP JUMPDEST PUSH1 0x7 PUSH1 0x0 CALLER PUSH20 0xFFFFFFFFFFFFFFFFFFFFFFFFFFFFFFFFFFFFFFFF AND PUSH20 0xFFFFFFFFFFFFFFFFFFFFFFFFFFFFFFFFFFFFFFFF AND DUP2 MSTORE PUSH1 0x20 ADD SWAP1 DUP2 MSTORE PUSH1 0x20 ADD PUSH1 0x0 KECCAK256 DUP2 SWAP1 SSTORE POP PUSH1 0x0 DUP3 GT ISZERO PUSH2 0x11BF JUMPI PUSH1 0x0 CALLER PUSH20 0xFFFFFFFFFFFFFFFFFFFFFFFFFFFFFFFFFFFFFFFF AND PUSH2 0x8FC DUP5 SWAP1 DUP2 ISZERO MUL SWAP1 PUSH1 0x40 MLOAD PUSH1 0x0 PUSH1 0x40 MLOAD DUP1 DUP4 SUB DUP2 DUP6 DUP9 DUP9 CALL SWAP4 POP POP POP POP SWAP1 POP DUP1 PUSH2 0x11BD JUMPI PUSH1 0x40 MLOAD PUSH32 0x8C379A000000000000000000000000000000000000000000000000000000000 DUP2 MSTORE PUSH1 0x4 ADD PUSH2 0x11B4 SWAP1 PUSH2 0x1D52 JUMP JUMPDEST PUSH1 0x40 MLOAD DUP1 SWAP2 SUB SWAP1 REVERT JUMPDEST POP JUMPDEST PUSH32 0xC6C6E695F1540E56FD28424D4074B79AEC6507972BF1C9C31855357075965EA9 CALLER DUP5 DUP5 DUP5 PUSH1 0x40 MLOAD PUSH2 0x11F4 SWAP5 SWAP4 SWAP3 SWAP2 SWAP1 PUSH2 0x1C19 JUMP JUMPDEST PUSH1 0x40 MLOAD DUP1 SWAP2 SUB SWAP1 LOG1 POP POP POP POP JUMP JUMPDEST PUSH1 0x7 PUSH1 0x20 MSTORE DUP1 PUSH1 0x0 MSTORE PUSH1 0x40 PUSH1 0x0 KECCAK256 PUSH1 0x0 SWAP2 POP SWAP1 POP SLOAD DUP2 JUMP JUMPDEST PUSH1 0x1 PUSH1 0x0 SWAP1 SLOAD SWAP1 PUSH2 0x100 EXP SWAP1 DIV PUSH20 0xFFFFFFFFFFFFFFFFFFFFFFFFFFFFFFFFFFFFFFFF AND DUP2 JUMP JUMPDEST PUSH1 0x0 PUSH1 0x1 SWAP1 SLOAD SWAP1 PUSH2 0x100 EXP SWAP1 DIV PUSH20 0xFFFFFFFFFFFFFFFFFFFFFFFFFFFFFFFFFFFFFFFF AND PUSH20 0xFFFFFFFFFFFFFFFFFFFFFFFFFFFFFFFFFFFFFFFF AND CALLER PUSH20 0xFFFFFFFFFFFFFFFFFFFFFFFFFFFFFFFFFFFFFFFF AND EQ PUSH2 0x12D0 JUMPI PUSH1 0x40 MLOAD PUSH32 0x8C379A000000000000000000000000000000000000000000000000000000000 DUP2 MSTORE PUSH1 0x4 ADD PUSH2 0x12C7 SWAP1 PUSH2 0x1E32 JUMP JUMPDEST PUSH1 0x40 MLOAD DUP1 SWAP2 SUB SWAP1 REVERT JUMPDEST PUSH1 0x0 PUSH1 0x1 PUSH1 0x0 SWAP1 SLOAD SWAP1 PUSH2 0x100 EXP SWAP1 DIV PUSH20 0xFFFFFFFFFFFFFFFFFFFFFFFFFFFFFFFFFFFFFFFF AND PUSH20 0xFFFFFFFFFFFFFFFFFFFFFFFFFFFFFFFFFFFFFFFF AND PUSH4 0x70A08231 ADDRESS PUSH1 0x40 MLOAD DUP3 PUSH4 0xFFFFFFFF AND PUSH1 0xE0 SHL DUP2 MSTORE PUSH1 0x4 ADD PUSH2 0x132D SWAP2 SWAP1 PUSH2 0x1BD5 JUMP JUMPDEST PUSH1 0x20 PUSH1 0x40 MLOAD DUP1 DUP4 SUB DUP2 DUP7 DUP1 EXTCODESIZE ISZERO DUP1 ISZERO PUSH2 0x1345 JUMPI PUSH1 0x0 DUP1 REVERT JUMPDEST POP GAS STATICCALL ISZERO DUP1 ISZERO PUSH2 0x1359 JUMPI RETURNDATASIZE PUSH1 0x0 DUP1 RETURNDATACOPY RETURNDATASIZE PUSH1 0x0 REVERT JUMPDEST POP POP POP POP PUSH1 0x40 MLOAD RETURNDATASIZE PUSH1 0x1F NOT PUSH1 0x1F DUP3 ADD AND DUP3 ADD DUP1 PUSH1 0x40 MSTORE POP DUP2 ADD SWAP1 PUSH2 0x137D SWAP2 SWAP1 PUSH2 0x1902 JUMP JUMPDEST SWAP1 POP PUSH1 0x0 DUP2 GT PUSH2 0x13C2 JUMPI PUSH1 0x40 MLOAD PUSH32 0x8C379A000000000000000000000000000000000000000000000000000000000 DUP2 MSTORE PUSH1 0x4 ADD PUSH2 0x13B9 SWAP1 PUSH2 0x1D12 JUMP JUMPDEST PUSH1 0x40 MLOAD DUP1 SWAP2 SUB SWAP1 REVERT JUMPDEST PUSH1 0x1 PUSH1 0x0 SWAP1 SLOAD SWAP1 PUSH2 0x100 EXP SWAP1 DIV PUSH20 0xFFFFFFFFFFFFFFFFFFFFFFFFFFFFFFFFFFFFFFFF AND PUSH20 0xFFFFFFFFFFFFFFFFFFFFFFFFFFFFFFFFFFFFFFFF AND PUSH4 0xA9059CBB PUSH1 0x0 PUSH1 0x1 SWAP1 SLOAD SWAP1 PUSH2 0x100 EXP SWAP1 DIV PUSH20 0xFFFFFFFFFFFFFFFFFFFFFFFFFFFFFFFFFFFFFFFF AND DUP4 PUSH1 0x40 MLOAD DUP4 PUSH4 0xFFFFFFFF AND PUSH1 0xE0 SHL DUP2 MSTORE PUSH1 0x4 ADD PUSH2 0x1441 SWAP3 SWAP2 SWAP1 PUSH2 0x1BF0 JUMP JUMPDEST PUSH1 0x20 PUSH1 0x40 MLOAD DUP1 DUP4 SUB DUP2 PUSH1 0x0 DUP8 DUP1 EXTCODESIZE ISZERO DUP1 ISZERO PUSH2 0x145B JUMPI PUSH1 0x0 DUP1 REVERT JUMPDEST POP GAS CALL ISZERO DUP1 ISZERO PUSH2 0x146F JUMPI RETURNDATASIZE PUSH1 0x0 DUP1 RETURNDATACOPY RETURNDATASIZE PUSH1 0x0 REVERT JUMPDEST POP POP POP POP PUSH1 0x40 MLOAD RETURNDATASIZE PUSH1 0x1F NOT PUSH1 0x1F DUP3 ADD AND DUP3 ADD DUP1 PUSH1 0x40 MSTORE POP DUP2 ADD SWAP1 PUSH2 0x1493 SWAP2 SWAP1 PUSH2 0x187B JUMP JUMPDEST POP POP JUMP JUMPDEST PUSH1 0x4 SLOAD DUP2 JUMP JUMPDEST PUSH1 0x3 SLOAD DUP2 JUMP JUMPDEST PUSH1 0x0 PUSH1 0x1 SWAP1 SLOAD SWAP1 PUSH2 0x100 EXP SWAP1 DIV PUSH20 0xFFFFFFFFFFFFFFFFFFFFFFFFFFFFFFFFFFFFFFFF AND PUSH20 0xFFFFFFFFFFFFFFFFFFFFFFFFFFFFFFFFFFFFFFFF AND CALLER PUSH20 0xFFFFFFFFFFFFFFFFFFFFFFFFFFFFFFFFFFFFFFFF AND EQ PUSH2 0x1533 JUMPI PUSH1 0x40 MLOAD PUSH32 0x8C379A000000000000000000000000000000000000000000000000000000000 DUP2 MSTORE PUSH1 0x4 ADD PUSH2 0x152A SWAP1 PUSH2 0x1E32 JUMP JUMPDEST PUSH1 0x40 MLOAD DUP1 SWAP2 SUB SWAP1 REVERT JUMPDEST DUP1 PUSH1 0x0 PUSH1 0x1 PUSH2 0x100 EXP DUP2 SLOAD DUP2 PUSH20 0xFFFFFFFFFFFFFFFFFFFFFFFFFFFFFFFFFFFFFFFF MUL NOT AND SWAP1 DUP4 PUSH20 0xFFFFFFFFFFFFFFFFFFFFFFFFFFFFFFFFFFFFFFFF AND MUL OR SWAP1 SSTORE POP POP JUMP JUMPDEST PUSH1 0x2 SLOAD DUP2 JUMP JUMPDEST PUSH1 0x0 DUP1 SLOAD SWAP1 PUSH2 0x100 EXP SWAP1 DIV PUSH1 0xFF AND DUP2 JUMP JUMPDEST PUSH1 0x0 DUP1 DUP4 EQ ISZERO PUSH2 0x15A1 JUMPI PUSH1 0x0 SWAP1 POP PUSH2 0x1603 JUMP JUMPDEST PUSH1 0x0 DUP3 DUP5 PUSH2 0x15AF SWAP2 SWAP1 PUSH2 0x1F58 JUMP JUMPDEST SWAP1 POP DUP3 DUP5 DUP3 PUSH2 0x15BE SWAP2 SWAP1 PUSH2 0x1F27 JUMP JUMPDEST EQ PUSH2 0x15FE JUMPI PUSH1 0x40 MLOAD PUSH32 0x8C379A000000000000000000000000000000000000000000000000000000000 DUP2 MSTORE PUSH1 0x4 ADD PUSH2 0x15F5 SWAP1 PUSH2 0x1D92 JUMP JUMPDEST PUSH1 0x40 MLOAD DUP1 SWAP2 SUB SWAP1 REVERT JUMPDEST DUP1 SWAP2 POP POP JUMPDEST SWAP3 SWAP2 POP POP JUMP JUMPDEST PUSH1 0x0 PUSH2 0x164B DUP4 DUP4 PUSH1 0x40 MLOAD DUP1 PUSH1 0x40 ADD PUSH1 0x40 MSTORE DUP1 PUSH1 0x1A DUP2 MSTORE PUSH1 0x20 ADD PUSH32 0x536166654D6174683A206469766973696F6E206279207A65726F000000000000 DUP2 MSTORE POP PUSH2 0x16FB JUMP JUMPDEST SWAP1 POP SWAP3 SWAP2 POP POP JUMP JUMPDEST PUSH1 0x0 PUSH2 0x1695 DUP4 DUP4 PUSH1 0x40 MLOAD DUP1 PUSH1 0x40 ADD PUSH1 0x40 MSTORE DUP1 PUSH1 0x1E DUP2 MSTORE PUSH1 0x20 ADD PUSH32 0x536166654D6174683A207375627472616374696F6E206F766572666C6F770000 DUP2 MSTORE POP PUSH2 0x175E JUMP JUMPDEST SWAP1 POP SWAP3 SWAP2 POP POP JUMP JUMPDEST PUSH1 0x0 DUP1 DUP3 DUP5 PUSH2 0x16AC SWAP2 SWAP1 PUSH2 0x1ED1 JUMP JUMPDEST SWAP1 POP DUP4 DUP2 LT ISZERO PUSH2 0x16F1 JUMPI PUSH1 0x40 MLOAD PUSH32 0x8C379A000000000000000000000000000000000000000000000000000000000 DUP2 MSTORE PUSH1 0x4 ADD PUSH2 0x16E8 SWAP1 PUSH2 0x1D32 JUMP JUMPDEST PUSH1 0x40 MLOAD DUP1 SWAP2 SUB SWAP1 REVERT JUMPDEST DUP1 SWAP2 POP POP SWAP3 SWAP2 POP POP JUMP JUMPDEST PUSH1 0x0 DUP1 DUP4 GT DUP3 SWAP1 PUSH2 0x1742 JUMPI PUSH1 0x40 MLOAD PUSH32 0x8C379A000000000000000000000000000000000000000000000000000000000 DUP2 MSTORE PUSH1 0x4 ADD PUSH2 0x1739 SWAP2 SWAP1 PUSH2 0x1CB0 JUMP JUMPDEST PUSH1 0x40 MLOAD DUP1 SWAP2 SUB SWAP1 REVERT JUMPDEST POP PUSH1 0x0 DUP4 DUP6 PUSH2 0x1751 SWAP2 SWAP1 PUSH2 0x1F27 JUMP JUMPDEST SWAP1 POP DUP1 SWAP2 POP POP SWAP4 SWAP3 POP POP POP JUMP JUMPDEST PUSH1 0x0 DUP4 DUP4 GT ISZERO DUP3 SWAP1 PUSH2 0x17A6 JUMPI PUSH1 0x40 MLOAD PUSH32 0x8C379A000000000000000000000000000000000000000000000000000000000 DUP2 MSTORE PUSH1 0x4 ADD PUSH2 0x179D SWAP2 SWAP1 PUSH2 0x1CB0 JUMP JUMPDEST PUSH1 0x40 MLOAD DUP1 SWAP2 SUB SWAP1 REVERT JUMPDEST POP PUSH1 0x0 DUP4 DUP6 PUSH2 0x17B5 SWAP2 SWAP1 PUSH2 0x1FB2 JUMP JUMPDEST SWAP1 POP DUP1 SWAP2 POP POP SWAP4 SWAP3 POP POP POP JUMP JUMPDEST PUSH1 0x40 MLOAD DUP1 PUSH2 0x100 ADD PUSH1 0x40 MSTORE DUP1 PUSH1 0x8 SWAP1 PUSH1 0x20 DUP3 MUL DUP1 CALLDATASIZE DUP4 CALLDATACOPY DUP1 DUP3 ADD SWAP2 POP POP SWAP1 POP POP SWAP1 JUMP JUMPDEST PUSH1 0x0 DUP2 CALLDATALOAD SWAP1 POP PUSH2 0x17F4 DUP2 PUSH2 0x236B JUMP JUMPDEST SWAP3 SWAP2 POP POP JUMP JUMPDEST PUSH1 0x0 DUP2 MLOAD SWAP1 POP PUSH2 0x1809 DUP2 PUSH2 0x2382 JUMP JUMPDEST SWAP3 SWAP2 POP POP JUMP JUMPDEST PUSH1 0x0 DUP2 CALLDATALOAD SWAP1 POP PUSH2 0x181E DUP2 PUSH2 0x2399 JUMP JUMPDEST SWAP3 SWAP2 POP POP JUMP JUMPDEST PUSH1 0x0 DUP2 CALLDATALOAD SWAP1 POP PUSH2 0x1833 DUP2 PUSH2 0x23B0 JUMP JUMPDEST SWAP3 SWAP2 POP POP JUMP JUMPDEST PUSH1 0x0 DUP2 MLOAD SWAP1 POP PUSH2 0x1848 DUP2 PUSH2 0x23B0 JUMP JUMPDEST SWAP3 SWAP2 POP POP JUMP JUMPDEST PUSH1 0x0 PUSH1 0x20 DUP3 DUP5 SUB SLT ISZERO PUSH2 0x1864 JUMPI PUSH2 0x1863 PUSH2 0x2143 JUMP JUMPDEST JUMPDEST PUSH1 0x0 PUSH2 0x1872 DUP5 DUP3 DUP6 ADD PUSH2 0x17E5 JUMP JUMPDEST SWAP2 POP POP SWAP3 SWAP2 POP POP JUMP JUMPDEST PUSH1 0x0 PUSH1 0x20 DUP3 DUP5 SUB SLT ISZERO PUSH2 0x1891 JUMPI PUSH2 0x1890 PUSH2 0x2143 JUMP JUMPDEST JUMPDEST PUSH1 0x0 PUSH2 0x189F DUP5 DUP3 DUP6 ADD PUSH2 0x17FA JUMP JUMPDEST SWAP2 POP POP SWAP3 SWAP2 POP POP JUMP JUMPDEST PUSH1 0x0 PUSH1 0x20 DUP3 DUP5 SUB SLT ISZERO PUSH2 0x18BE JUMPI PUSH2 0x18BD PUSH2 0x2143 JUMP JUMPDEST JUMPDEST PUSH1 0x0 PUSH2 0x18CC DUP5 DUP3 DUP6 ADD PUSH2 0x180F JUMP JUMPDEST SWAP2 POP POP SWAP3 SWAP2 POP POP JUMP JUMPDEST PUSH1 0x0 PUSH1 0x20 DUP3 DUP5 SUB SLT ISZERO PUSH2 0x18EB JUMPI PUSH2 0x18EA PUSH2 0x2143 JUMP JUMPDEST JUMPDEST PUSH1 0x0 PUSH2 0x18F9 DUP5 DUP3 DUP6 ADD PUSH2 0x1824 JUMP JUMPDEST SWAP2 POP POP SWAP3 SWAP2 POP POP JUMP JUMPDEST PUSH1 0x0 PUSH1 0x20 DUP3 DUP5 SUB SLT ISZERO PUSH2 0x1918 JUMPI PUSH2 0x1917 PUSH2 0x2143 JUMP JUMPDEST JUMPDEST PUSH1 0x0 PUSH2 0x1926 DUP5 DUP3 DUP6 ADD PUSH2 0x1839 JUMP JUMPDEST SWAP2 POP POP SWAP3 SWAP2 POP POP JUMP JUMPDEST PUSH1 0x0 PUSH2 0x193B DUP4 DUP4 PUSH2 0x1BA8 JUMP JUMPDEST PUSH1 0x20 DUP4 ADD SWAP1 POP SWAP3 SWAP2 POP POP JUMP JUMPDEST PUSH2 0x1950 DUP2 PUSH2 0x1FE6 JUMP JUMPDEST DUP3 MSTORE POP POP JUMP JUMPDEST PUSH2 0x195F DUP2 PUSH2 0x1E92 JUMP JUMPDEST PUSH2 0x1969 DUP2 DUP5 PUSH2 0x1EB5 JUMP JUMPDEST SWAP3 POP PUSH2 0x1974 DUP3 PUSH2 0x1E88 JUMP JUMPDEST DUP1 PUSH1 0x0 JUMPDEST DUP4 DUP2 LT ISZERO PUSH2 0x19A5 JUMPI DUP2 MLOAD PUSH2 0x198C DUP8 DUP3 PUSH2 0x192F JUMP JUMPDEST SWAP7 POP PUSH2 0x1997 DUP4 PUSH2 0x1EA8 JUMP JUMPDEST SWAP3 POP POP PUSH1 0x1 DUP2 ADD SWAP1 POP PUSH2 0x1978 JUMP JUMPDEST POP POP POP POP POP POP JUMP JUMPDEST PUSH2 0x19B6 DUP2 PUSH2 0x1FF8 JUMP JUMPDEST DUP3 MSTORE POP POP JUMP JUMPDEST PUSH2 0x19C5 DUP2 PUSH2 0x204D JUMP JUMPDEST DUP3 MSTORE POP POP JUMP JUMPDEST PUSH1 0x0 PUSH2 0x19D6 DUP3 PUSH2 0x1E9D JUMP JUMPDEST PUSH2 0x19E0 DUP2 DUP6 PUSH2 0x1EC0 JUMP JUMPDEST SWAP4 POP PUSH2 0x19F0 DUP2 DUP6 PUSH1 0x20 DUP7 ADD PUSH2 0x2083 JUMP JUMPDEST PUSH2 0x19F9 DUP2 PUSH2 0x2148 JUMP JUMPDEST DUP5 ADD SWAP2 POP POP SWAP3 SWAP2 POP POP JUMP JUMPDEST PUSH1 0x0 PUSH2 0x1A11 PUSH1 0xF DUP4 PUSH2 0x1EC0 JUMP JUMPDEST SWAP2 POP PUSH2 0x1A1C DUP3 PUSH2 0x2159 JUMP JUMPDEST PUSH1 0x20 DUP3 ADD SWAP1 POP SWAP2 SWAP1 POP JUMP JUMPDEST PUSH1 0x0 PUSH2 0x1A34 PUSH1 0x11 DUP4 PUSH2 0x1EC0 JUMP JUMPDEST SWAP2 POP PUSH2 0x1A3F DUP3 PUSH2 0x2182 JUMP JUMPDEST PUSH1 0x20 DUP3 ADD SWAP1 POP SWAP2 SWAP1 POP JUMP JUMPDEST PUSH1 0x0 PUSH2 0x1A57 PUSH1 0x8 DUP4 PUSH2 0x1EC0 JUMP JUMPDEST SWAP2 POP PUSH2 0x1A62 DUP3 PUSH2 0x21AB JUMP JUMPDEST PUSH1 0x20 DUP3 ADD SWAP1 POP SWAP2 SWAP1 POP JUMP JUMPDEST PUSH1 0x0 PUSH2 0x1A7A PUSH1 0x1B DUP4 PUSH2 0x1EC0 JUMP JUMPDEST SWAP2 POP PUSH2 0x1A85 DUP3 PUSH2 0x21D4 JUMP JUMPDEST PUSH1 0x20 DUP3 ADD SWAP1 POP SWAP2 SWAP1 POP JUMP JUMPDEST PUSH1 0x0 PUSH2 0x1A9D PUSH1 0x14 DUP4 PUSH2 0x1EC0 JUMP JUMPDEST SWAP2 POP PUSH2 0x1AA8 DUP3 PUSH2 0x21FD JUMP JUMPDEST PUSH1 0x20 DUP3 ADD SWAP1 POP SWAP2 SWAP1 POP JUMP JUMPDEST PUSH1 0x0 PUSH2 0x1AC0 PUSH1 0x10 DUP4 PUSH2 0x1EC0 JUMP JUMPDEST SWAP2 POP PUSH2 0x1ACB DUP3 PUSH2 0x2226 JUMP JUMPDEST PUSH1 0x20 DUP3 ADD SWAP1 POP SWAP2 SWAP1 POP JUMP JUMPDEST PUSH1 0x0 PUSH2 0x1AE3 PUSH1 0x21 DUP4 PUSH2 0x1EC0 JUMP JUMPDEST SWAP2 POP PUSH2 0x1AEE DUP3 PUSH2 0x224F JUMP JUMPDEST PUSH1 0x40 DUP3 ADD SWAP1 POP SWAP2 SWAP1 POP JUMP JUMPDEST PUSH1 0x0 PUSH2 0x1B06 PUSH1 0xB DUP4 PUSH2 0x1EC0 JUMP JUMPDEST SWAP2 POP PUSH2 0x1B11 DUP3 PUSH2 0x229E JUMP JUMPDEST PUSH1 0x20 DUP3 ADD SWAP1 POP SWAP2 SWAP1 POP JUMP JUMPDEST PUSH1 0x0 PUSH2 0x1B29 PUSH1 0x10 DUP4 PUSH2 0x1EC0 JUMP JUMPDEST SWAP2 POP PUSH2 0x1B34 DUP3 PUSH2 0x22C7 JUMP JUMPDEST PUSH1 0x20 DUP3 ADD SWAP1 POP SWAP2 SWAP1 POP JUMP JUMPDEST PUSH1 0x0 PUSH2 0x1B4C PUSH1 0xF DUP4 PUSH2 0x1EC0 JUMP JUMPDEST SWAP2 POP PUSH2 0x1B57 DUP3 PUSH2 0x22F0 JUMP JUMPDEST PUSH1 0x20 DUP3 ADD SWAP1 POP SWAP2 SWAP1 POP JUMP JUMPDEST PUSH1 0x0 PUSH2 0x1B6F PUSH1 0xF DUP4 PUSH2 0x1EC0 JUMP JUMPDEST SWAP2 POP PUSH2 0x1B7A DUP3 PUSH2 0x2319 JUMP JUMPDEST PUSH1 0x20 DUP3 ADD SWAP1 POP SWAP2 SWAP1 POP JUMP JUMPDEST PUSH1 0x0 PUSH2 0x1B92 PUSH1 0x12 DUP4 PUSH2 0x1EC0 JUMP JUMPDEST SWAP2 POP PUSH2 0x1B9D DUP3 PUSH2 0x2342 JUMP JUMPDEST PUSH1 0x20 DUP3 ADD SWAP1 POP SWAP2 SWAP1 POP JUMP JUMPDEST PUSH2 0x1BB1 DUP2 PUSH2 0x2036 JUMP JUMPDEST DUP3 MSTORE POP POP JUMP JUMPDEST PUSH2 0x1BC0 DUP2 PUSH2 0x2036 JUMP JUMPDEST DUP3 MSTORE POP POP JUMP JUMPDEST PUSH2 0x1BCF DUP2 PUSH2 0x2040 JUMP JUMPDEST DUP3 MSTORE POP POP JUMP JUMPDEST PUSH1 0x0 PUSH1 0x20 DUP3 ADD SWAP1 POP PUSH2 0x1BEA PUSH1 0x0 DUP4 ADD DUP5 PUSH2 0x1947 JUMP JUMPDEST SWAP3 SWAP2 POP POP JUMP JUMPDEST PUSH1 0x0 PUSH1 0x40 DUP3 ADD SWAP1 POP PUSH2 0x1C05 PUSH1 0x0 DUP4 ADD DUP6 PUSH2 0x1947 JUMP JUMPDEST PUSH2 0x1C12 PUSH1 0x20 DUP4 ADD DUP5 PUSH2 0x1BB7 JUMP JUMPDEST SWAP4 SWAP3 POP POP POP JUMP JUMPDEST PUSH1 0x0 PUSH1 0x80 DUP3 ADD SWAP1 POP PUSH2 0x1C2E PUSH1 0x0 DUP4 ADD DUP8 PUSH2 0x1947 JUMP JUMPDEST PUSH2 0x1C3B PUSH1 0x20 DUP4 ADD DUP7 PUSH2 0x1BB7 JUMP JUMPDEST PUSH2 0x1C48 PUSH1 0x40 DUP4 ADD DUP6 PUSH2 0x1BB7 JUMP JUMPDEST PUSH2 0x1C55 PUSH1 0x60 DUP4 ADD DUP5 PUSH2 0x1BB7 JUMP JUMPDEST SWAP6 SWAP5 POP POP POP POP POP JUMP JUMPDEST PUSH1 0x0 PUSH2 0x100 DUP3 ADD SWAP1 POP PUSH2 0x1C74 PUSH1 0x0 DUP4 ADD DUP5 PUSH2 0x1956 JUMP JUMPDEST SWAP3 SWAP2 POP POP JUMP JUMPDEST PUSH1 0x0 PUSH1 0x20 DUP3 ADD SWAP1 POP PUSH2 0x1C8F PUSH1 0x0 DUP4 ADD DUP5 PUSH2 0x19AD JUMP JUMPDEST SWAP3 SWAP2 POP POP JUMP JUMPDEST PUSH1 0x0 PUSH1 0x20 DUP3 ADD SWAP1 POP PUSH2 0x1CAA PUSH1 0x0 DUP4 ADD DUP5 PUSH2 0x19BC JUMP JUMPDEST SWAP3 SWAP2 POP POP JUMP JUMPDEST PUSH1 0x0 PUSH1 0x20 DUP3 ADD SWAP1 POP DUP2 DUP2 SUB PUSH1 0x0 DUP4 ADD MSTORE PUSH2 0x1CCA DUP2 DUP5 PUSH2 0x19CB JUMP JUMPDEST SWAP1 POP SWAP3 SWAP2 POP POP JUMP JUMPDEST PUSH1 0x0 PUSH1 0x20 DUP3 ADD SWAP1 POP DUP2 DUP2 SUB PUSH1 0x0 DUP4 ADD MSTORE PUSH2 0x1CEB DUP2 PUSH2 0x1A04 JUMP JUMPDEST SWAP1 POP SWAP2 SWAP1 POP JUMP JUMPDEST PUSH1 0x0 PUSH1 0x20 DUP3 ADD SWAP1 POP DUP2 DUP2 SUB PUSH1 0x0 DUP4 ADD MSTORE PUSH2 0x1D0B DUP2 PUSH2 0x1A27 JUMP JUMPDEST SWAP1 POP SWAP2 SWAP1 POP JUMP JUMPDEST PUSH1 0x0 PUSH1 0x20 DUP3 ADD SWAP1 POP DUP2 DUP2 SUB PUSH1 0x0 DUP4 ADD MSTORE PUSH2 0x1D2B DUP2 PUSH2 0x1A4A JUMP JUMPDEST SWAP1 POP SWAP2 SWAP1 POP JUMP JUMPDEST PUSH1 0x0 PUSH1 0x20 DUP3 ADD SWAP1 POP DUP2 DUP2 SUB PUSH1 0x0 DUP4 ADD MSTORE PUSH2 0x1D4B DUP2 PUSH2 0x1A6D JUMP JUMPDEST SWAP1 POP SWAP2 SWAP1 POP JUMP JUMPDEST PUSH1 0x0 PUSH1 0x20 DUP3 ADD SWAP1 POP DUP2 DUP2 SUB PUSH1 0x0 DUP4 ADD MSTORE PUSH2 0x1D6B DUP2 PUSH2 0x1A90 JUMP JUMPDEST SWAP1 POP SWAP2 SWAP1 POP JUMP JUMPDEST PUSH1 0x0 PUSH1 0x20 DUP3 ADD SWAP1 POP DUP2 DUP2 SUB PUSH1 0x0 DUP4 ADD MSTORE PUSH2 0x1D8B DUP2 PUSH2 0x1AB3 JUMP JUMPDEST SWAP1 POP SWAP2 SWAP1 POP JUMP JUMPDEST PUSH1 0x0 PUSH1 0x20 DUP3 ADD SWAP1 POP DUP2 DUP2 SUB PUSH1 0x0 DUP4 ADD MSTORE PUSH2 0x1DAB DUP2 PUSH2 0x1AD6 JUMP JUMPDEST SWAP1 POP SWAP2 SWAP1 POP JUMP JUMPDEST PUSH1 0x0 PUSH1 0x20 DUP3 ADD SWAP1 POP DUP2 DUP2 SUB PUSH1 0x0 DUP4 ADD MSTORE PUSH2 0x1DCB DUP2 PUSH2 0x1AF9 JUMP JUMPDEST SWAP1 POP SWAP2 SWAP1 POP JUMP JUMPDEST PUSH1 0x0 PUSH1 0x20 DUP3 ADD SWAP1 POP DUP2 DUP2 SUB PUSH1 0x0 DUP4 ADD MSTORE PUSH2 0x1DEB DUP2 PUSH2 0x1B1C JUMP JUMPDEST SWAP1 POP SWAP2 SWAP1 POP JUMP JUMPDEST PUSH1 0x0 PUSH1 0x20 DUP3 ADD SWAP1 POP DUP2 DUP2 SUB PUSH1 0x0 DUP4 ADD MSTORE PUSH2 0x1E0B DUP2 PUSH2 0x1B3F JUMP JUMPDEST SWAP1 POP SWAP2 SWAP1 POP JUMP JUMPDEST PUSH1 0x0 PUSH1 0x20 DUP3 ADD SWAP1 POP DUP2 DUP2 SUB PUSH1 0x0 DUP4 ADD MSTORE PUSH2 0x1E2B DUP2 PUSH2 0x1B62 JUMP JUMPDEST SWAP1 POP SWAP2 SWAP1 POP JUMP JUMPDEST PUSH1 0x0 PUSH1 0x20 DUP3 ADD SWAP1 POP DUP2 DUP2 SUB PUSH1 0x0 DUP4 ADD MSTORE PUSH2 0x1E4B DUP2 PUSH2 0x1B85 JUMP JUMPDEST SWAP1 POP SWAP2 SWAP1 POP JUMP JUMPDEST PUSH1 0x0 PUSH1 0x20 DUP3 ADD SWAP1 POP PUSH2 0x1E67 PUSH1 0x0 DUP4 ADD DUP5 PUSH2 0x1BB7 JUMP JUMPDEST SWAP3 SWAP2 POP POP JUMP JUMPDEST PUSH1 0x0 PUSH1 0x20 DUP3 ADD SWAP1 POP PUSH2 0x1E82 PUSH1 0x0 DUP4 ADD DUP5 PUSH2 0x1BC6 JUMP JUMPDEST SWAP3 SWAP2 POP POP JUMP JUMPDEST PUSH1 0x0 DUP2 SWAP1 POP SWAP2 SWAP1 POP JUMP JUMPDEST PUSH1 0x0 PUSH1 0x8 SWAP1 POP SWAP2 SWAP1 POP JUMP JUMPDEST PUSH1 0x0 DUP2 MLOAD SWAP1 POP SWAP2 SWAP1 POP JUMP JUMPDEST PUSH1 0x0 PUSH1 0x20 DUP3 ADD SWAP1 POP SWAP2 SWAP1 POP JUMP JUMPDEST PUSH1 0x0 DUP2 SWAP1 POP SWAP3 SWAP2 POP POP JUMP JUMPDEST PUSH1 0x0 DUP3 DUP3 MSTORE PUSH1 0x20 DUP3 ADD SWAP1 POP SWAP3 SWAP2 POP POP JUMP JUMPDEST PUSH1 0x0 PUSH2 0x1EDC DUP3 PUSH2 0x2036 JUMP JUMPDEST SWAP2 POP PUSH2 0x1EE7 DUP4 PUSH2 0x2036 JUMP JUMPDEST SWAP3 POP DUP3 PUSH32 0xFFFFFFFFFFFFFFFFFFFFFFFFFFFFFFFFFFFFFFFFFFFFFFFFFFFFFFFFFFFFFFFF SUB DUP3 GT ISZERO PUSH2 0x1F1C JUMPI PUSH2 0x1F1B PUSH2 0x20B6 JUMP JUMPDEST JUMPDEST DUP3 DUP3 ADD SWAP1 POP SWAP3 SWAP2 POP POP JUMP JUMPDEST PUSH1 0x0 PUSH2 0x1F32 DUP3 PUSH2 0x2036 JUMP JUMPDEST SWAP2 POP PUSH2 0x1F3D DUP4 PUSH2 0x2036 JUMP JUMPDEST SWAP3 POP DUP3 PUSH2 0x1F4D JUMPI PUSH2 0x1F4C PUSH2 0x20E5 JUMP JUMPDEST JUMPDEST DUP3 DUP3 DIV SWAP1 POP SWAP3 SWAP2 POP POP JUMP JUMPDEST PUSH1 0x0 PUSH2 0x1F63 DUP3 PUSH2 0x2036 JUMP JUMPDEST SWAP2 POP PUSH2 0x1F6E DUP4 PUSH2 0x2036 JUMP JUMPDEST SWAP3 POP DUP2 PUSH32 0xFFFFFFFFFFFFFFFFFFFFFFFFFFFFFFFFFFFFFFFFFFFFFFFFFFFFFFFFFFFFFFFF DIV DUP4 GT DUP3 ISZERO ISZERO AND ISZERO PUSH2 0x1FA7 JUMPI PUSH2 0x1FA6 PUSH2 0x20B6 JUMP JUMPDEST JUMPDEST DUP3 DUP3 MUL SWAP1 POP SWAP3 SWAP2 POP POP JUMP JUMPDEST PUSH1 0x0 PUSH2 0x1FBD DUP3 PUSH2 0x2036 JUMP JUMPDEST SWAP2 POP PUSH2 0x1FC8 DUP4 PUSH2 0x2036 JUMP JUMPDEST SWAP3 POP DUP3 DUP3 LT ISZERO PUSH2 0x1FDB JUMPI PUSH2 0x1FDA PUSH2 0x20B6 JUMP JUMPDEST JUMPDEST DUP3 DUP3 SUB SWAP1 POP SWAP3 SWAP2 POP POP JUMP JUMPDEST PUSH1 0x0 PUSH2 0x1FF1 DUP3 PUSH2 0x2016 JUMP JUMPDEST SWAP1 POP SWAP2 SWAP1 POP JUMP JUMPDEST PUSH1 0x0 DUP2 ISZERO ISZERO SWAP1 POP SWAP2 SWAP1 POP JUMP JUMPDEST PUSH1 0x0 PUSH2 0x200F DUP3 PUSH2 0x1FE6 JUMP JUMPDEST SWAP1 POP SWAP2 SWAP1 POP JUMP JUMPDEST PUSH1 0x0 PUSH20 0xFFFFFFFFFFFFFFFFFFFFFFFFFFFFFFFFFFFFFFFF DUP3 AND SWAP1 POP SWAP2 SWAP1 POP JUMP JUMPDEST PUSH1 0x0 DUP2 SWAP1 POP SWAP2 SWAP1 POP JUMP JUMPDEST PUSH1 0x0 PUSH1 0xFF DUP3 AND SWAP1 POP SWAP2 SWAP1 POP JUMP JUMPDEST PUSH1 0x0 PUSH2 0x2058 DUP3 PUSH2 0x205F JUMP JUMPDEST SWAP1 POP SWAP2 SWAP1 POP JUMP JUMPDEST PUSH1 0x0 PUSH2 0x206A DUP3 PUSH2 0x2071 JUMP JUMPDEST SWAP1 POP SWAP2 SWAP1 POP JUMP JUMPDEST PUSH1 0x0 PUSH2 0x207C DUP3 PUSH2 0x2016 JUMP JUMPDEST SWAP1 POP SWAP2 SWAP1 POP JUMP JUMPDEST PUSH1 0x0 JUMPDEST DUP4 DUP2 LT ISZERO PUSH2 0x20A1 JUMPI DUP1 DUP3 ADD MLOAD DUP2 DUP5 ADD MSTORE PUSH1 0x20 DUP2 ADD SWAP1 POP PUSH2 0x2086 JUMP JUMPDEST DUP4 DUP2 GT ISZERO PUSH2 0x20B0 JUMPI PUSH1 0x0 DUP5 DUP5 ADD MSTORE JUMPDEST POP POP POP POP JUMP JUMPDEST PUSH32 0x4E487B7100000000000000000000000000000000000000000000000000000000 PUSH1 0x0 MSTORE PUSH1 0x11 PUSH1 0x4 MSTORE PUSH1 0x24 PUSH1 0x0 REVERT JUMPDEST PUSH32 0x4E487B7100000000000000000000000000000000000000000000000000000000 PUSH1 0x0 MSTORE PUSH1 0x12 PUSH1 0x4 MSTORE PUSH1 0x24 PUSH1 0x0 REVERT JUMPDEST PUSH32 0x4E487B7100000000000000000000000000000000000000000000000000000000 PUSH1 0x0 MSTORE PUSH1 0x32 PUSH1 0x4 MSTORE PUSH1 0x24 PUSH1 0x0 REVERT JUMPDEST PUSH1 0x0 DUP1 REVERT JUMPDEST PUSH1 0x0 PUSH1 0x1F NOT PUSH1 0x1F DUP4 ADD AND SWAP1 POP SWAP2 SWAP1 POP JUMP JUMPDEST PUSH32 0x494E56414C49445F414444524553530000000000000000000000000000000000 PUSH1 0x0 DUP3 ADD MSTORE POP JUMP JUMPDEST PUSH32 0x494E56414C49445F57484954456C495354000000000000000000000000000000 PUSH1 0x0 DUP3 ADD MSTORE POP JUMP JUMPDEST PUSH32 0x4E4F204153534554000000000000000000000000000000000000000000000000 PUSH1 0x0 DUP3 ADD MSTORE POP JUMP JUMPDEST PUSH32 0x536166654D6174683A206164646974696F6E206F766572666C6F770000000000 PUSH1 0x0 DUP3 ADD MSTORE POP JUMP JUMPDEST PUSH32 0x4661696C656420746F2073656E64204574686572000000000000000000000000 PUSH1 0x0 DUP3 ADD MSTORE POP JUMP JUMPDEST PUSH32 0x494E56414C49445F414D4F554E545F3200000000000000000000000000000000 PUSH1 0x0 DUP3 ADD MSTORE POP JUMP JUMPDEST PUSH32 0x536166654D6174683A206D756C7469706C69636174696F6E206F766572666C6F PUSH1 0x0 DUP3 ADD MSTORE PUSH32 0x7700000000000000000000000000000000000000000000000000000000000000 PUSH1 0x20 DUP3 ADD MSTORE POP JUMP JUMPDEST PUSH32 0x53595354454D5F53544F50000000000000000000000000000000000000000000 PUSH1 0x0 DUP3 ADD MSTORE POP JUMP JUMPDEST PUSH32 0x494E56414C49445F414D4F554E545F3100000000000000000000000000000000 PUSH1 0x0 DUP3 ADD MSTORE POP JUMP JUMPDEST PUSH32 0x494E56414C49445F5041594D454E540000000000000000000000000000000000 PUSH1 0x0 DUP3 ADD MSTORE POP JUMP JUMPDEST PUSH32 0x494E56414C49445F515541544954590000000000000000000000000000000000 PUSH1 0x0 DUP3 ADD MSTORE POP JUMP JUMPDEST PUSH32 0x494E56414C49445F5045524D495353494F4E0000000000000000000000000000 PUSH1 0x0 DUP3 ADD MSTORE POP JUMP JUMPDEST PUSH2 0x2374 DUP2 PUSH2 0x1FE6 JUMP JUMPDEST DUP2 EQ PUSH2 0x237F JUMPI PUSH1 0x0 DUP1 REVERT JUMPDEST POP JUMP JUMPDEST PUSH2 0x238B DUP2 PUSH2 0x1FF8 JUMP JUMPDEST DUP2 EQ PUSH2 0x2396 JUMPI PUSH1 0x0 DUP1 REVERT JUMPDEST POP JUMP JUMPDEST PUSH2 0x23A2 DUP2 PUSH2 0x2004 JUMP JUMPDEST DUP2 EQ PUSH2 0x23AD JUMPI PUSH1 0x0 DUP1 REVERT JUMPDEST POP JUMP JUMPDEST PUSH2 0x23B9 DUP2 PUSH2 0x2036 JUMP JUMPDEST DUP2 EQ PUSH2 0x23C4 JUMPI PUSH1 0x0 DUP1 REVERT JUMPDEST POP JUMP INVALID LOG2 PUSH5 0x6970667358 0x22 SLT KECCAK256 SWAP8 0xD4 SWAP8 0xCB JUMPI 0xD 0xA7 PUSH25 0xEF0D6283BE4C173EAF82BA3F5E14D16E5C873E4339F5106B64 PUSH20 0x6F6C634300080700330000000000000000000000 "
				},
				"gasEstimates": {
					"creation": {
						"codeDepositCost": "1842600",
						"executionCost": "infinite",
						"totalCost": "infinite"
					},
					"external": {
						"ENABLE()": "2604",
						"GAR()": "2711",
						"HARD_CAP_PER_USER()": "2474",
						"VERSION()": "2600",
						"buy()": "infinite",
						"disable()": "26677",
						"emergencyWithdraw()": "infinite",
						"enable()": "26676",
						"getData(address)": "infinite",
						"getETHBalance()": "406",
						"getMaxBuyOf(address)": "infinite",
						"moveFund()": "infinite",
						"owner()": "2653",
						"salePrice()": "2539",
						"setGARToken(address)": "27046",
						"setHardCapPerUser(uint256)": "24763",
						"setSalePrice(uint256)": "24764",
						"setTotalSale(uint256)": "24852",
						"totalBoughtOf(address)": "2903",
						"totalPurchased()": "2473",
						"totalSale()": "2495",
						"transferOwnership(address)": "27080"
					}
				},
				"methodIdentifiers": {
					"ENABLE()": "92f6386a",
					"GAR()": "da769176",
					"HARD_CAP_PER_USER()": "50c19c0b",
					"VERSION()": "ffa1ad74",
					"buy()": "a6f2ae3a",
					"disable()": "2f2770db",
					"emergencyWithdraw()": "db2e21bc",
					"enable()": "a3907d71",
					"getData(address)": "38266b22",
					"getETHBalance()": "6e947298",
					"getMaxBuyOf(address)": "90c8dd17",
					"moveFund()": "36a22e14",
					"owner()": "8da5cb5b",
					"salePrice()": "f51f96dd",
					"setGARToken(address)": "4f079f57",
					"setHardCapPerUser(uint256)": "a2b0106b",
					"setSalePrice(uint256)": "1919fed7",
					"setTotalSale(uint256)": "4a860104",
					"totalBoughtOf(address)": "bcaaf662",
					"totalPurchased()": "e632c2f3",
					"totalSale()": "ea4ce239",
					"transferOwnership(address)": "f2fde38b"
				}
			},
			"storageLayout": {
				"storage": [
					{
						"astId": 297,
						"contract": "contracts/ProtocolLiquidityLaunch.sol:ProtocolLiquidityLaunch",
						"label": "VERSION",
						"offset": 0,
						"slot": "0",
						"type": "t_uint8"
					},
					{
						"astId": 302,
						"contract": "contracts/ProtocolLiquidityLaunch.sol:ProtocolLiquidityLaunch",
						"label": "owner",
						"offset": 1,
						"slot": "0",
						"type": "t_address"
					},
					{
						"astId": 305,
						"contract": "contracts/ProtocolLiquidityLaunch.sol:ProtocolLiquidityLaunch",
						"label": "GAR",
						"offset": 0,
						"slot": "1",
						"type": "t_contract(IERC20)294"
					},
					{
						"astId": 308,
						"contract": "contracts/ProtocolLiquidityLaunch.sol:ProtocolLiquidityLaunch",
						"label": "salePrice",
						"offset": 0,
						"slot": "2",
						"type": "t_uint256"
					},
					{
						"astId": 313,
						"contract": "contracts/ProtocolLiquidityLaunch.sol:ProtocolLiquidityLaunch",
						"label": "totalSale",
						"offset": 0,
						"slot": "3",
						"type": "t_uint256"
					},
					{
						"astId": 316,
						"contract": "contracts/ProtocolLiquidityLaunch.sol:ProtocolLiquidityLaunch",
						"label": "totalPurchased",
						"offset": 0,
						"slot": "4",
						"type": "t_uint256"
					},
					{
						"astId": 319,
						"contract": "contracts/ProtocolLiquidityLaunch.sol:ProtocolLiquidityLaunch",
						"label": "ENABLE",
						"offset": 0,
						"slot": "5",
						"type": "t_bool"
					},
					{
						"astId": 324,
						"contract": "contracts/ProtocolLiquidityLaunch.sol:ProtocolLiquidityLaunch",
						"label": "HARD_CAP_PER_USER",
						"offset": 0,
						"slot": "6",
						"type": "t_uint256"
					},
					{
						"astId": 328,
						"contract": "contracts/ProtocolLiquidityLaunch.sol:ProtocolLiquidityLaunch",
						"label": "totalBoughtOf",
						"offset": 0,
						"slot": "7",
						"type": "t_mapping(t_address,t_uint256)"
					}
				],
				"types": {
					"t_address": {
						"encoding": "inplace",
						"label": "address",
						"numberOfBytes": "20"
					},
					"t_bool": {
						"encoding": "inplace",
						"label": "bool",
						"numberOfBytes": "1"
					},
					"t_contract(IERC20)294": {
						"encoding": "inplace",
						"label": "contract IERC20",
						"numberOfBytes": "20"
					},
					"t_mapping(t_address,t_uint256)": {
						"encoding": "mapping",
						"key": "t_address",
						"label": "mapping(address => uint256)",
						"numberOfBytes": "32",
						"value": "t_uint256"
					},
					"t_uint256": {
						"encoding": "inplace",
						"label": "uint256",
						"numberOfBytes": "32"
					},
					"t_uint8": {
						"encoding": "inplace",
						"label": "uint8",
						"numberOfBytes": "1"
					}
				}
			},
			"userdoc": {
				"kind": "user",
				"methods": {
					"getData(address)": {
						"notice": "data_[0] = uint256 userETHBalance; data_[1] = uint256 userMaxGabBuy; data_[2] = uint256 userMaxETHPay; data_[3] = uint256 contractETHBalance; data_[4] = uint256 HARD_CAP_PER_USER; data_[5] = uint256 totalSaleGab; data_[6] = uint256 salePrice; data_[7] = uint256 totalPurchased;"
					}
				},
				"version": 1
			}
		}
	}
}