{
	"contracts/GRB.sol": {
		"GRB": {
			"abi": [
				{
					"inputs": [],
					"stateMutability": "nonpayable",
					"type": "constructor"
				},
				{
					"anonymous": false,
					"inputs": [
						{
							"indexed": true,
							"internalType": "address",
							"name": "owner",
							"type": "address"
						},
						{
							"indexed": true,
							"internalType": "address",
							"name": "spender",
							"type": "address"
						},
						{
							"indexed": false,
							"internalType": "uint256",
							"name": "value",
							"type": "uint256"
						}
					],
					"name": "Approval",
					"type": "event"
				},
				{
					"anonymous": false,
					"inputs": [
						{
							"indexed": true,
							"internalType": "address",
							"name": "from",
							"type": "address"
						},
						{
							"indexed": true,
							"internalType": "address",
							"name": "to",
							"type": "address"
						},
						{
							"indexed": false,
							"internalType": "uint256",
							"name": "value",
							"type": "uint256"
						}
					],
					"name": "Transfer",
					"type": "event"
				},
				{
					"anonymous": false,
					"inputs": [
						{
							"indexed": false,
							"internalType": "string",
							"name": "_functionName",
							"type": "string"
						}
					],
					"name": "onCancelTransactions",
					"type": "event"
				},
				{
					"anonymous": false,
					"inputs": [
						{
							"indexed": false,
							"internalType": "string",
							"name": "_functionName",
							"type": "string"
						},
						{
							"indexed": false,
							"internalType": "string",
							"name": "_fieldName",
							"type": "string"
						},
						{
							"indexed": false,
							"internalType": "address",
							"name": "_value",
							"type": "address"
						}
					],
					"name": "onQueuedTransactionsChangeAddress",
					"type": "event"
				},
				{
					"anonymous": false,
					"inputs": [
						{
							"indexed": false,
							"internalType": "string",
							"name": "_functionName",
							"type": "string"
						},
						{
							"indexed": false,
							"internalType": "string",
							"name": "_fieldName",
							"type": "string"
						},
						{
							"indexed": false,
							"internalType": "uint256",
							"name": "_value",
							"type": "uint256"
						}
					],
					"name": "onQueuedTransactionsChangeUint",
					"type": "event"
				},
				{
					"inputs": [],
					"name": "GRACE_PERIOD",
					"outputs": [
						{
							"internalType": "uint256",
							"name": "",
							"type": "uint256"
						}
					],
					"stateMutability": "view",
					"type": "function"
				},
				{
					"inputs": [],
					"name": "MAXIMUM_DELAY",
					"outputs": [
						{
							"internalType": "uint256",
							"name": "",
							"type": "uint256"
						}
					],
					"stateMutability": "view",
					"type": "function"
				},
				{
					"inputs": [],
					"name": "MINIMUM_DELAY",
					"outputs": [
						{
							"internalType": "uint256",
							"name": "",
							"type": "uint256"
						}
					],
					"stateMutability": "view",
					"type": "function"
				},
				{
					"inputs": [
						{
							"internalType": "address",
							"name": "_owner",
							"type": "address"
						},
						{
							"internalType": "address",
							"name": "_spender",
							"type": "address"
						}
					],
					"name": "allowance",
					"outputs": [
						{
							"internalType": "uint256",
							"name": "",
							"type": "uint256"
						}
					],
					"stateMutability": "view",
					"type": "function"
				},
				{
					"inputs": [
						{
							"internalType": "address",
							"name": "_spender",
							"type": "address"
						},
						{
							"internalType": "uint256",
							"name": "_amount",
							"type": "uint256"
						}
					],
					"name": "approve",
					"outputs": [
						{
							"internalType": "bool",
							"name": "",
							"type": "bool"
						}
					],
					"stateMutability": "nonpayable",
					"type": "function"
				},
				{
					"inputs": [
						{
							"internalType": "address",
							"name": "_addr",
							"type": "address"
						}
					],
					"name": "balanceOf",
					"outputs": [
						{
							"internalType": "uint256",
							"name": "",
							"type": "uint256"
						}
					],
					"stateMutability": "view",
					"type": "function"
				},
				{
					"inputs": [
						{
							"internalType": "address",
							"name": "account",
							"type": "address"
						},
						{
							"internalType": "uint256",
							"name": "amount",
							"type": "uint256"
						}
					],
					"name": "burn",
					"outputs": [],
					"stateMutability": "nonpayable",
					"type": "function"
				},
				{
					"inputs": [],
					"name": "burnMachine",
					"outputs": [
						{
							"internalType": "address",
							"name": "",
							"type": "address"
						}
					],
					"stateMutability": "view",
					"type": "function"
				},
				{
					"inputs": [
						{
							"internalType": "string",
							"name": "_functionName",
							"type": "string"
						}
					],
					"name": "cancelTransactions",
					"outputs": [],
					"stateMutability": "nonpayable",
					"type": "function"
				},
				{
					"inputs": [],
					"name": "decimals",
					"outputs": [
						{
							"internalType": "uint8",
							"name": "",
							"type": "uint8"
						}
					],
					"stateMutability": "view",
					"type": "function"
				},
				{
					"inputs": [],
					"name": "delay",
					"outputs": [
						{
							"internalType": "uint256",
							"name": "",
							"type": "uint256"
						}
					],
					"stateMutability": "view",
					"type": "function"
				},
				{
					"inputs": [
						{
							"internalType": "string",
							"name": "_functionName",
							"type": "string"
						},
						{
							"internalType": "string",
							"name": "_fieldName",
							"type": "string"
						}
					],
					"name": "getAddressChangeOnTimeLock",
					"outputs": [
						{
							"internalType": "address",
							"name": "",
							"type": "address"
						}
					],
					"stateMutability": "view",
					"type": "function"
				},
				{
					"inputs": [],
					"name": "getOwner",
					"outputs": [
						{
							"internalType": "address",
							"name": "",
							"type": "address"
						}
					],
					"stateMutability": "view",
					"type": "function"
				},
				{
					"inputs": [
						{
							"internalType": "string",
							"name": "_functionName",
							"type": "string"
						},
						{
							"internalType": "string",
							"name": "_fieldName",
							"type": "string"
						}
					],
					"name": "getUintChangeOnTimeLock",
					"outputs": [
						{
							"internalType": "uint256",
							"name": "",
							"type": "uint256"
						}
					],
					"stateMutability": "view",
					"type": "function"
				},
				{
					"inputs": [],
					"name": "maxTotalSupply",
					"outputs": [
						{
							"internalType": "uint256",
							"name": "",
							"type": "uint256"
						}
					],
					"stateMutability": "view",
					"type": "function"
				},
				{
					"inputs": [],
					"name": "miningMachine",
					"outputs": [
						{
							"internalType": "address",
							"name": "",
							"type": "address"
						}
					],
					"stateMutability": "view",
					"type": "function"
				},
				{
					"inputs": [
						{
							"internalType": "address",
							"name": "account",
							"type": "address"
						},
						{
							"internalType": "uint256",
							"name": "amount",
							"type": "uint256"
						}
					],
					"name": "mint",
					"outputs": [],
					"stateMutability": "nonpayable",
					"type": "function"
				},
				{
					"inputs": [],
					"name": "name",
					"outputs": [
						{
							"internalType": "string",
							"name": "",
							"type": "string"
						}
					],
					"stateMutability": "view",
					"type": "function"
				},
				{
					"inputs": [],
					"name": "owner",
					"outputs": [
						{
							"internalType": "address",
							"name": "",
							"type": "address"
						}
					],
					"stateMutability": "view",
					"type": "function"
				},
				{
					"inputs": [
						{
							"internalType": "string",
							"name": "_functionName",
							"type": "string"
						},
						{
							"internalType": "string",
							"name": "_fieldName",
							"type": "string"
						},
						{
							"internalType": "address",
							"name": "_newAddr",
							"type": "address"
						}
					],
					"name": "queuedTransactionsChangeAddress",
					"outputs": [],
					"stateMutability": "nonpayable",
					"type": "function"
				},
				{
					"inputs": [
						{
							"internalType": "string",
							"name": "_functionName",
							"type": "string"
						},
						{
							"internalType": "string",
							"name": "_fieldName",
							"type": "string"
						},
						{
							"internalType": "uint256",
							"name": "_value",
							"type": "uint256"
						}
					],
					"name": "queuedTransactionsChangeUint",
					"outputs": [],
					"stateMutability": "nonpayable",
					"type": "function"
				},
				{
					"inputs": [],
					"name": "setBurnMachine",
					"outputs": [],
					"stateMutability": "nonpayable",
					"type": "function"
				},
				{
					"inputs": [
						{
							"internalType": "uint256",
							"name": "delay_",
							"type": "uint256"
						}
					],
					"name": "setDelay",
					"outputs": [],
					"stateMutability": "nonpayable",
					"type": "function"
				},
				{
					"inputs": [],
					"name": "setMaxTotalSupply",
					"outputs": [],
					"stateMutability": "nonpayable",
					"type": "function"
				},
				{
					"inputs": [],
					"name": "setMiningMachine",
					"outputs": [],
					"stateMutability": "nonpayable",
					"type": "function"
				},
				{
					"inputs": [],
					"name": "symbol",
					"outputs": [
						{
							"internalType": "string",
							"name": "",
							"type": "string"
						}
					],
					"stateMutability": "view",
					"type": "function"
				},
				{
					"inputs": [
						{
							"internalType": "bytes32",
							"name": "",
							"type": "bytes32"
						}
					],
					"name": "timeLockOf",
					"outputs": [
						{
							"internalType": "bool",
							"name": "queuedTransactions",
							"type": "bool"
						},
						{
							"internalType": "uint256",
							"name": "timeOfExecute",
							"type": "uint256"
						}
					],
					"stateMutability": "view",
					"type": "function"
				},
				{
					"inputs": [],
					"name": "totalSupply",
					"outputs": [
						{
							"internalType": "uint256",
							"name": "",
							"type": "uint256"
						}
					],
					"stateMutability": "view",
					"type": "function"
				},
				{
					"inputs": [
						{
							"internalType": "address",
							"name": "_to",
							"type": "address"
						},
						{
							"internalType": "uint256",
							"name": "_amount",
							"type": "uint256"
						}
					],
					"name": "transfer",
					"outputs": [
						{
							"internalType": "bool",
							"name": "",
							"type": "bool"
						}
					],
					"stateMutability": "nonpayable",
					"type": "function"
				},
				{
					"inputs": [
						{
							"internalType": "address",
							"name": "_from",
							"type": "address"
						},
						{
							"internalType": "address",
							"name": "_to",
							"type": "address"
						},
						{
							"internalType": "uint256",
							"name": "_amount",
							"type": "uint256"
						}
					],
					"name": "transferFrom",
					"outputs": [
						{
							"internalType": "bool",
							"name": "",
							"type": "bool"
						}
					],
					"stateMutability": "nonpayable",
					"type": "function"
				},
				{
					"inputs": [],
					"name": "transferOwnership",
					"outputs": [],
					"stateMutability": "nonpayable",
					"type": "function"
				}
			],
			"devdoc": {
				"kind": "dev",
				"methods": {
					"getOwner()": {
						"details": "Returns the bep token owner."
					},
					"totalSupply()": {
						"details": "Returns the amount of tokens in existence."
					}
				},
				"stateVariables": {
					"decimals": {
						"details": "Returns the token decimals."
					},
					"name": {
						"details": "Returns the token name."
					},
					"symbol": {
						"details": "Returns the token symbol."
					}
				},
				"version": 1
			},
			"evm": {
				"assembly": "    /* \"contracts/GRB.sol\":7930:17113  contract GRB is IERC20 {... */\n  mstore(0x40, 0x80)\n    /* \"contracts/GRB.sol\":8267:8281  1000000 * 1e18 */\n  0xd3c21bcecceda1000000\n    /* \"contracts/GRB.sol\":8233:8281  uint256 private _maxTotalSupply = 1000000 * 1e18 */\n  0x05\n  sstore\n    /* \"contracts/GRB.sol\":8288:8330  string public override name = \"GRB  Token\" */\n  mload(0x40)\n  dup1\n  0x40\n  add\n  0x40\n  mstore\n  dup1\n  0x0a\n  dup2\n  mstore\n  0x20\n  add\n  0x4752422020546f6b656e00000000000000000000000000000000000000000000\n  dup2\n  mstore\n  pop\n  0x06\n  swap1\n  dup1\n  mload\n  swap1\n  0x20\n  add\n  swap1\n  tag_1\n  swap3\n  swap2\n  swap1\n  tag_2\n  jump\t// in\ntag_1:\n  pop\n    /* \"contracts/GRB.sol\":8336:8373  string public override symbol = \"GRB\" */\n  mload(0x40)\n  dup1\n  0x40\n  add\n  0x40\n  mstore\n  dup1\n  0x03\n  dup2\n  mstore\n  0x20\n  add\n  0x4752420000000000000000000000000000000000000000000000000000000000\n  dup2\n  mstore\n  pop\n  0x07\n  swap1\n  dup1\n  mload\n  swap1\n  0x20\n  add\n  swap1\n  tag_3\n  swap3\n  swap2\n  swap1\n  tag_2\n  jump\t// in\ntag_3:\n  pop\n    /* \"contracts/GRB.sol\":8412:8414  18 */\n  0x12\n    /* \"contracts/GRB.sol\":8379:8414  uint8 public override decimals = 18 */\n  0x08\n  exp(0x0100, 0x00)\n  dup2\n  sload\n  dup2\n  0xff\n  mul\n  not\n  and\n  swap1\n  dup4\n  0xff\n  and\n  mul\n  or\n  swap1\n  sstore\n  pop\n    /* \"contracts/GRB.sol\":9456:9505  constructor() {... */\n  callvalue\n  dup1\n  iszero\n  tag_4\n  jumpi\n  0x00\n  dup1\n  revert\ntag_4:\n  pop\n    /* \"contracts/GRB.sol\":9488:9498  msg.sender */\n  caller\n    /* \"contracts/GRB.sol\":9480:9485  owner */\n  0x00\n  dup1\n    /* \"contracts/GRB.sol\":9480:9498  owner = msg.sender */\n  0x0100\n  exp\n  dup2\n  sload\n  dup2\n  0xffffffffffffffffffffffffffffffffffffffff\n  mul\n  not\n  and\n  swap1\n  dup4\n  0xffffffffffffffffffffffffffffffffffffffff\n  and\n  mul\n  or\n  swap1\n  sstore\n  pop\n    /* \"contracts/GRB.sol\":7930:17113  contract GRB is IERC20 {... */\n  jump(tag_7)\ntag_2:\n  dup3\n  dup1\n  sload\n  tag_8\n  swap1\n  tag_9\n  jump\t// in\ntag_8:\n  swap1\n  0x00\n  mstore\n  keccak256(0x00, 0x20)\n  swap1\n  0x1f\n  add\n  0x20\n  swap1\n  div\n  dup2\n  add\n  swap3\n  dup3\n  tag_11\n  jumpi\n  0x00\n  dup6\n  sstore\n  jump(tag_10)\ntag_11:\n  dup3\n  0x1f\n  lt\n  tag_12\n  jumpi\n  dup1\n  mload\n  not(0xff)\n  and\n  dup4\n  dup1\n  add\n  or\n  dup6\n  sstore\n  jump(tag_10)\ntag_12:\n  dup3\n  dup1\n  add\n  0x01\n  add\n  dup6\n  sstore\n  dup3\n  iszero\n  tag_10\n  jumpi\n  swap2\n  dup3\n  add\ntag_13:\n  dup3\n  dup2\n  gt\n  iszero\n  tag_14\n  jumpi\n  dup3\n  mload\n  dup3\n  sstore\n  swap2\n  0x20\n  add\n  swap2\n  swap1\n  0x01\n  add\n  swap1\n  jump(tag_13)\ntag_14:\ntag_10:\n  pop\n  swap1\n  pop\n  tag_15\n  swap2\n  swap1\n  tag_16\n  jump\t// in\ntag_15:\n  pop\n  swap1\n  jump\t// out\ntag_16:\ntag_17:\n  dup1\n  dup3\n  gt\n  iszero\n  tag_18\n  jumpi\n  0x00\n  dup2\n  0x00\n  swap1\n  sstore\n  pop\n  0x01\n  add\n  jump(tag_17)\ntag_18:\n  pop\n  swap1\n  jump\t// out\n    /* \"#utility.yul\":7:327   */\ntag_9:\n    /* \"#utility.yul\":51:57   */\n  0x00\n    /* \"#utility.yul\":88:89   */\n  0x02\n    /* \"#utility.yul\":82:86   */\n  dup3\n    /* \"#utility.yul\":78:90   */\n  div\n    /* \"#utility.yul\":68:90   */\n  swap1\n  pop\n    /* \"#utility.yul\":135:136   */\n  0x01\n    /* \"#utility.yul\":129:133   */\n  dup3\n    /* \"#utility.yul\":125:137   */\n  and\n    /* \"#utility.yul\":156:174   */\n  dup1\n    /* \"#utility.yul\":146:227   */\n  tag_21\n  jumpi\n    /* \"#utility.yul\":212:216   */\n  0x7f\n    /* \"#utility.yul\":204:210   */\n  dup3\n    /* \"#utility.yul\":200:217   */\n  and\n    /* \"#utility.yul\":190:217   */\n  swap2\n  pop\n    /* \"#utility.yul\":146:227   */\ntag_21:\n    /* \"#utility.yul\":274:276   */\n  0x20\n    /* \"#utility.yul\":266:272   */\n  dup3\n    /* \"#utility.yul\":263:277   */\n  lt\n    /* \"#utility.yul\":243:261   */\n  dup2\n    /* \"#utility.yul\":240:278   */\n  eq\n    /* \"#utility.yul\":237:321   */\n  iszero\n  tag_22\n  jumpi\n    /* \"#utility.yul\":293:311   */\n  tag_23\n  tag_24\n  jump\t// in\ntag_23:\n    /* \"#utility.yul\":237:321   */\ntag_22:\n    /* \"#utility.yul\":58:327   */\n  pop\n    /* \"#utility.yul\":7:327   */\n  swap2\n  swap1\n  pop\n  jump\t// out\n    /* \"#utility.yul\":333:513   */\ntag_24:\n    /* \"#utility.yul\":381:458   */\n  0x4e487b7100000000000000000000000000000000000000000000000000000000\n    /* \"#utility.yul\":378:379   */\n  0x00\n    /* \"#utility.yul\":371:459   */\n  mstore\n    /* \"#utility.yul\":478:482   */\n  0x22\n    /* \"#utility.yul\":475:476   */\n  0x04\n    /* \"#utility.yul\":468:483   */\n  mstore\n    /* \"#utility.yul\":502:506   */\n  0x24\n    /* \"#utility.yul\":499:500   */\n  0x00\n    /* \"#utility.yul\":492:507   */\n  revert\n    /* \"contracts/GRB.sol\":7930:17113  contract GRB is IERC20 {... */\ntag_7:\n  dataSize(sub_0)\n  dup1\n  dataOffset(sub_0)\n  0x00\n  codecopy\n  0x00\n  return\nstop\n\nsub_0: assembly {\n        /* \"contracts/GRB.sol\":7930:17113  contract GRB is IERC20 {... */\n      mstore(0x40, 0x80)\n      callvalue\n      dup1\n      iszero\n      tag_1\n      jumpi\n      0x00\n      dup1\n      revert\n    tag_1:\n      pop\n      jumpi(tag_2, lt(calldatasize, 0x04))\n      shr(0xe0, calldataload(0x00))\n      dup1\n      0x8cac8f03\n      gt\n      tag_34\n      jumpi\n      dup1\n      0xa7667957\n      gt\n      tag_35\n      jumpi\n      dup1\n      0xbd0c5a9d\n      gt\n      tag_36\n      jumpi\n      dup1\n      0xbd0c5a9d\n      eq\n      tag_30\n      jumpi\n      dup1\n      0xc1a287e2\n      eq\n      tag_31\n      jumpi\n      dup1\n      0xdd62ed3e\n      eq\n      tag_32\n      jumpi\n      dup1\n      0xe177246e\n      eq\n      tag_33\n      jumpi\n      jump(tag_2)\n    tag_36:\n      dup1\n      0xa7667957\n      eq\n      tag_26\n      jumpi\n      dup1\n      0xa9059cbb\n      eq\n      tag_27\n      jumpi\n      dup1\n      0xb1b43ae5\n      eq\n      tag_28\n      jumpi\n      dup1\n      0xbce645db\n      eq\n      tag_29\n      jumpi\n      jump(tag_2)\n    tag_35:\n      dup1\n      0x9312dc5f\n      gt\n      tag_37\n      jumpi\n      dup1\n      0x9312dc5f\n      eq\n      tag_22\n      jumpi\n      dup1\n      0x95d89b41\n      eq\n      tag_23\n      jumpi\n      dup1\n      0x9dc29fac\n      eq\n      tag_24\n      jumpi\n      dup1\n      0xa41e9c90\n      eq\n      tag_25\n      jumpi\n      jump(tag_2)\n    tag_37:\n      dup1\n      0x8cac8f03\n      eq\n      tag_18\n      jumpi\n      dup1\n      0x8da5cb5b\n      eq\n      tag_19\n      jumpi\n      dup1\n      0x8e0b0db5\n      eq\n      tag_20\n      jumpi\n      dup1\n      0x8ecc676f\n      eq\n      tag_21\n      jumpi\n      jump(tag_2)\n    tag_34:\n      dup1\n      0x40c10f19\n      gt\n      tag_38\n      jumpi\n      dup1\n      0x72596873\n      gt\n      tag_39\n      jumpi\n      dup1\n      0x72596873\n      eq\n      tag_14\n      jumpi\n      dup1\n      0x7d645fab\n      eq\n      tag_15\n      jumpi\n      dup1\n      0x880ad0af\n      eq\n      tag_16\n      jumpi\n      dup1\n      0x893d20e8\n      eq\n      tag_17\n      jumpi\n      jump(tag_2)\n    tag_39:\n      dup1\n      0x40c10f19\n      eq\n      tag_10\n      jumpi\n      dup1\n      0x6a42b8f8\n      eq\n      tag_11\n      jumpi\n      dup1\n      0x6edc28fd\n      eq\n      tag_12\n      jumpi\n      dup1\n      0x70a08231\n      eq\n      tag_13\n      jumpi\n      jump(tag_2)\n    tag_38:\n      dup1\n      0x18160ddd\n      gt\n      tag_40\n      jumpi\n      dup1\n      0x18160ddd\n      eq\n      tag_6\n      jumpi\n      dup1\n      0x23b872dd\n      eq\n      tag_7\n      jumpi\n      dup1\n      0x2ab4d052\n      eq\n      tag_8\n      jumpi\n      dup1\n      0x313ce567\n      eq\n      tag_9\n      jumpi\n      jump(tag_2)\n    tag_40:\n      dup1\n      0x06fdde03\n      eq\n      tag_3\n      jumpi\n      dup1\n      0x095ea7b3\n      eq\n      tag_4\n      jumpi\n      dup1\n      0x14ca81ed\n      eq\n      tag_5\n      jumpi\n    tag_2:\n      0x00\n      dup1\n      revert\n        /* \"contracts/GRB.sol\":8288:8330  string public override name = \"GRB  Token\" */\n    tag_3:\n      tag_41\n      tag_42\n      jump\t// in\n    tag_41:\n      mload(0x40)\n      tag_43\n      swap2\n      swap1\n      tag_44\n      jump\t// in\n    tag_43:\n      mload(0x40)\n      dup1\n      swap2\n      sub\n      swap1\n      return\n        /* \"contracts/GRB.sol\":15406:15731  function approve(address _spender, uint256 _amount)... */\n    tag_4:\n      tag_45\n      0x04\n      dup1\n      calldatasize\n      sub\n      dup2\n      add\n      swap1\n      tag_46\n      swap2\n      swap1\n      tag_47\n      jump\t// in\n    tag_46:\n      tag_48\n      jump\t// in\n    tag_45:\n      mload(0x40)\n      tag_49\n      swap2\n      swap1\n      tag_50\n      jump\t// in\n    tag_49:\n      mload(0x40)\n      dup1\n      swap2\n      sub\n      swap1\n      return\n        /* \"contracts/GRB.sol\":10069:10568  function queuedTransactionsChangeAddress(string memory _functionName, string memory _fieldName, address _newAddr) public onlyOwner ... */\n    tag_5:\n      tag_51\n      0x04\n      dup1\n      calldatasize\n      sub\n      dup2\n      add\n      swap1\n      tag_52\n      swap2\n      swap1\n      tag_53\n      jump\t// in\n    tag_52:\n      tag_54\n      jump\t// in\n    tag_51:\n      stop\n        /* \"contracts/GRB.sol\":13909:14007  function totalSupply() public override view returns (uint256) {... */\n    tag_6:\n      tag_55\n      tag_56\n      jump\t// in\n    tag_55:\n      mload(0x40)\n      tag_57\n      swap2\n      swap1\n      tag_58\n      jump\t// in\n    tag_57:\n      mload(0x40)\n      dup1\n      swap2\n      sub\n      swap1\n      return\n        /* \"contracts/GRB.sol\":16337:17111  function transferFrom(... */\n    tag_7:\n      tag_59\n      0x04\n      dup1\n      calldatasize\n      sub\n      dup2\n      add\n      swap1\n      tag_60\n      swap2\n      swap1\n      tag_61\n      jump\t// in\n    tag_60:\n      tag_62\n      jump\t// in\n    tag_59:\n      mload(0x40)\n      tag_63\n      swap2\n      swap1\n      tag_50\n      jump\t// in\n    tag_63:\n      mload(0x40)\n      dup1\n      swap2\n      sub\n      swap1\n      return\n        /* \"contracts/GRB.sol\":14013:14108  function maxTotalSupply() public view returns (uint256) {... */\n    tag_8:\n      tag_64\n      tag_65\n      jump\t// in\n    tag_64:\n      mload(0x40)\n      tag_66\n      swap2\n      swap1\n      tag_58\n      jump\t// in\n    tag_66:\n      mload(0x40)\n      dup1\n      swap2\n      sub\n      swap1\n      return\n        /* \"contracts/GRB.sol\":8379:8414  uint8 public override decimals = 18 */\n    tag_9:\n      tag_67\n      tag_68\n      jump\t// in\n    tag_67:\n      mload(0x40)\n      tag_69\n      swap2\n      swap1\n      tag_70\n      jump\t// in\n    tag_69:\n      mload(0x40)\n      dup1\n      swap2\n      sub\n      swap1\n      return\n        /* \"contracts/GRB.sol\":14528:15144  function mint(address account, uint256 amount) public virtual onlyMiningMachine {... */\n    tag_10:\n      tag_71\n      0x04\n      dup1\n      calldatasize\n      sub\n      dup2\n      add\n      swap1\n      tag_72\n      swap2\n      swap1\n      tag_47\n      jump\t// in\n    tag_72:\n      tag_73\n      jump\t// in\n    tag_71:\n      stop\n        /* \"contracts/GRB.sol\":8636:8653  uint public delay */\n    tag_11:\n      tag_74\n      tag_75\n      jump\t// in\n    tag_74:\n      mload(0x40)\n      tag_76\n      swap2\n      swap1\n      tag_58\n      jump\t// in\n    tag_76:\n      mload(0x40)\n      dup1\n      swap2\n      sub\n      swap1\n      return\n        /* \"contracts/GRB.sol\":8020:8066  mapping(bytes32 => TimeLock) public timeLockOf */\n    tag_12:\n      tag_77\n      0x04\n      dup1\n      calldatasize\n      sub\n      dup2\n      add\n      swap1\n      tag_78\n      swap2\n      swap1\n      tag_79\n      jump\t// in\n    tag_78:\n      tag_80\n      jump\t// in\n    tag_77:\n      mload(0x40)\n      tag_81\n      swap3\n      swap2\n      swap1\n      tag_82\n      jump\t// in\n    tag_81:\n      mload(0x40)\n      dup1\n      swap2\n      sub\n      swap1\n      return\n        /* \"contracts/GRB.sol\":14114:14227  function balanceOf(address _addr) public override view returns (uint256) {... */\n    tag_13:\n      tag_83\n      0x04\n      dup1\n      calldatasize\n      sub\n      dup2\n      add\n      swap1\n      tag_84\n      swap2\n      swap1\n      tag_85\n      jump\t// in\n    tag_84:\n      tag_86\n      jump\t// in\n    tag_83:\n      mload(0x40)\n      tag_87\n      swap2\n      swap1\n      tag_58\n      jump\t// in\n    tag_87:\n      mload(0x40)\n      dup1\n      swap2\n      sub\n      swap1\n      return\n        /* \"contracts/GRB.sol\":13672:13903  function getUintChangeOnTimeLock(string memory _functionName, string memory _fieldName) public view returns(uint256) {... */\n    tag_14:\n      tag_88\n      0x04\n      dup1\n      calldatasize\n      sub\n      dup2\n      add\n      swap1\n      tag_89\n      swap2\n      swap1\n      tag_90\n      jump\t// in\n    tag_89:\n      tag_91\n      jump\t// in\n    tag_88:\n      mload(0x40)\n      tag_92\n      swap2\n      swap1\n      tag_58\n      jump\t// in\n    tag_92:\n      mload(0x40)\n      dup1\n      swap2\n      sub\n      swap1\n      return\n        /* \"contracts/GRB.sol\":8586:8630  uint public constant MAXIMUM_DELAY = 30 days */\n    tag_15:\n      tag_93\n      tag_94\n      jump\t// in\n    tag_93:\n      mload(0x40)\n      tag_95\n      swap2\n      swap1\n      tag_58\n      jump\t// in\n    tag_95:\n      mload(0x40)\n      dup1\n      swap2\n      sub\n      swap1\n      return\n        /* \"contracts/GRB.sol\":11064:11537  function transferOwnership() public onlyOwner {... */\n    tag_16:\n      tag_96\n      tag_97\n      jump\t// in\n    tag_96:\n      stop\n        /* \"contracts/GRB.sol\":14232:14320  function getOwner() public override view returns (address) {... */\n    tag_17:\n      tag_98\n      tag_99\n      jump\t// in\n    tag_98:\n      mload(0x40)\n      tag_100\n      swap2\n      swap1\n      tag_101\n      jump\t// in\n    tag_100:\n      mload(0x40)\n      dup1\n      swap2\n      sub\n      swap1\n      return\n        /* \"contracts/GRB.sol\":9797:10063  function cancelTransactions(string memory _functionName) public onlyOwner {... */\n    tag_18:\n      tag_102\n      0x04\n      dup1\n      calldatasize\n      sub\n      dup2\n      add\n      swap1\n      tag_103\n      swap2\n      swap1\n      tag_104\n      jump\t// in\n    tag_103:\n      tag_105\n      jump\t// in\n    tag_102:\n      stop\n        /* \"contracts/GRB.sol\":7993:8013  address public owner */\n    tag_19:\n      tag_106\n      tag_107\n      jump\t// in\n    tag_106:\n      mload(0x40)\n      tag_108\n      swap2\n      swap1\n      tag_101\n      jump\t// in\n    tag_108:\n      mload(0x40)\n      dup1\n      swap2\n      sub\n      swap1\n      return\n        /* \"contracts/GRB.sol\":12551:13044  function setMaxTotalSupply() public onlyOwner {... */\n    tag_20:\n      tag_109\n      tag_110\n      jump\t// in\n    tag_109:\n      stop\n        /* \"contracts/GRB.sol\":11543:12045  function setMiningMachine() public onlyOwner {... */\n    tag_21:\n      tag_111\n      tag_112\n      jump\t// in\n    tag_111:\n      stop\n        /* \"contracts/GRB.sol\":10574:11058  function queuedTransactionsChangeUint(string memory _functionName, string memory _fieldName, uint256 _value) public onlyOwner ... */\n    tag_22:\n      tag_113\n      0x04\n      dup1\n      calldatasize\n      sub\n      dup2\n      add\n      swap1\n      tag_114\n      swap2\n      swap1\n      tag_115\n      jump\t// in\n    tag_114:\n      tag_116\n      jump\t// in\n    tag_113:\n      stop\n        /* \"contracts/GRB.sol\":8336:8373  string public override symbol = \"GRB\" */\n    tag_23:\n      tag_117\n      tag_118\n      jump\t// in\n    tag_117:\n      mload(0x40)\n      tag_119\n      swap2\n      swap1\n      tag_44\n      jump\t// in\n    tag_119:\n      mload(0x40)\n      dup1\n      swap2\n      sub\n      swap1\n      return\n        /* \"contracts/GRB.sol\":15150:15400  function burn(address account, uint256 amount) public virtual onlyBurnMachine {... */\n    tag_24:\n      tag_120\n      0x04\n      dup1\n      calldatasize\n      sub\n      dup2\n      add\n      swap1\n      tag_121\n      swap2\n      swap1\n      tag_47\n      jump\t// in\n    tag_121:\n      tag_122\n      jump\t// in\n    tag_120:\n      stop\n        /* \"contracts/GRB.sol\":8455:8481  address public burnMachine */\n    tag_25:\n      tag_123\n      tag_124\n      jump\t// in\n    tag_123:\n      mload(0x40)\n      tag_125\n      swap2\n      swap1\n      tag_101\n      jump\t// in\n    tag_125:\n      mload(0x40)\n      dup1\n      swap2\n      sub\n      swap1\n      return\n        /* \"contracts/GRB.sol\":12051:12545  function setBurnMachine() public onlyOwner {... */\n    tag_26:\n      tag_126\n      tag_127\n      jump\t// in\n    tag_126:\n      stop\n        /* \"contracts/GRB.sol\":15737:16331  function transfer(address _to, uint256 _amount)... */\n    tag_27:\n      tag_128\n      0x04\n      dup1\n      calldatasize\n      sub\n      dup2\n      add\n      swap1\n      tag_129\n      swap2\n      swap1\n      tag_47\n      jump\t// in\n    tag_129:\n      tag_130\n      jump\t// in\n    tag_128:\n      mload(0x40)\n      tag_131\n      swap2\n      swap1\n      tag_50\n      jump\t// in\n    tag_131:\n      mload(0x40)\n      dup1\n      swap2\n      sub\n      swap1\n      return\n        /* \"contracts/GRB.sol\":8537:8580  uint public constant MINIMUM_DELAY = 2 days */\n    tag_28:\n      tag_132\n      tag_133\n      jump\t// in\n    tag_132:\n      mload(0x40)\n      tag_134\n      swap2\n      swap1\n      tag_58\n      jump\t// in\n    tag_134:\n      mload(0x40)\n      dup1\n      swap2\n      sub\n      swap1\n      return\n        /* \"contracts/GRB.sol\":8421:8449  address public miningMachine */\n    tag_29:\n      tag_135\n      tag_136\n      jump\t// in\n    tag_135:\n      mload(0x40)\n      tag_137\n      swap2\n      swap1\n      tag_101\n      jump\t// in\n    tag_137:\n      mload(0x40)\n      dup1\n      swap2\n      sub\n      swap1\n      return\n        /* \"contracts/GRB.sol\":13429:13666  function getAddressChangeOnTimeLock(string memory _functionName, string memory _fieldName) public view returns(address) {... */\n    tag_30:\n      tag_138\n      0x04\n      dup1\n      calldatasize\n      sub\n      dup2\n      add\n      swap1\n      tag_139\n      swap2\n      swap1\n      tag_90\n      jump\t// in\n    tag_139:\n      tag_140\n      jump\t// in\n    tag_138:\n      mload(0x40)\n      tag_141\n      swap2\n      swap1\n      tag_101\n      jump\t// in\n    tag_141:\n      mload(0x40)\n      dup1\n      swap2\n      sub\n      swap1\n      return\n        /* \"contracts/GRB.sol\":8488:8531  uint public constant GRACE_PERIOD = 30 days */\n    tag_31:\n      tag_142\n      tag_143\n      jump\t// in\n    tag_142:\n      mload(0x40)\n      tag_144\n      swap2\n      swap1\n      tag_58\n      jump\t// in\n    tag_144:\n      mload(0x40)\n      dup1\n      swap2\n      sub\n      swap1\n      return\n        /* \"contracts/GRB.sol\":14325:14522  function allowance(address _owner, address _spender)... */\n    tag_32:\n      tag_145\n      0x04\n      dup1\n      calldatasize\n      sub\n      dup2\n      add\n      swap1\n      tag_146\n      swap2\n      swap1\n      tag_147\n      jump\t// in\n    tag_146:\n      tag_148\n      jump\t// in\n    tag_145:\n      mload(0x40)\n      tag_149\n      swap2\n      swap1\n      tag_58\n      jump\t// in\n    tag_149:\n      mload(0x40)\n      dup1\n      swap2\n      sub\n      swap1\n      return\n        /* \"contracts/GRB.sol\":9511:9791  function setDelay(uint delay_) public onlyOwner {... */\n    tag_33:\n      tag_150\n      0x04\n      dup1\n      calldatasize\n      sub\n      dup2\n      add\n      swap1\n      tag_151\n      swap2\n      swap1\n      tag_152\n      jump\t// in\n    tag_151:\n      tag_153\n      jump\t// in\n    tag_150:\n      stop\n        /* \"contracts/GRB.sol\":8288:8330  string public override name = \"GRB  Token\" */\n    tag_42:\n      0x06\n      dup1\n      sload\n      tag_154\n      swap1\n      tag_155\n      jump\t// in\n    tag_154:\n      dup1\n      0x1f\n      add\n      0x20\n      dup1\n      swap2\n      div\n      mul\n      0x20\n      add\n      mload(0x40)\n      swap1\n      dup2\n      add\n      0x40\n      mstore\n      dup1\n      swap3\n      swap2\n      swap1\n      dup2\n      dup2\n      mstore\n      0x20\n      add\n      dup3\n      dup1\n      sload\n      tag_156\n      swap1\n      tag_155\n      jump\t// in\n    tag_156:\n      dup1\n      iszero\n      tag_157\n      jumpi\n      dup1\n      0x1f\n      lt\n      tag_158\n      jumpi\n      0x0100\n      dup1\n      dup4\n      sload\n      div\n      mul\n      dup4\n      mstore\n      swap2\n      0x20\n      add\n      swap2\n      jump(tag_157)\n    tag_158:\n      dup3\n      add\n      swap2\n      swap1\n      0x00\n      mstore\n      keccak256(0x00, 0x20)\n      swap1\n    tag_159:\n      dup2\n      sload\n      dup2\n      mstore\n      swap1\n      0x01\n      add\n      swap1\n      0x20\n      add\n      dup1\n      dup4\n      gt\n      tag_159\n      jumpi\n      dup3\n      swap1\n      sub\n      0x1f\n      and\n      dup3\n      add\n      swap2\n    tag_157:\n      pop\n      pop\n      pop\n      pop\n      pop\n      dup2\n      jump\t// out\n        /* \"contracts/GRB.sol\":15406:15731  function approve(address _spender, uint256 _amount)... */\n    tag_48:\n        /* \"contracts/GRB.sol\":15523:15527  bool */\n      0x00\n        /* \"contracts/GRB.sol\":15571:15572  0 */\n      dup1\n        /* \"contracts/GRB.sol\":15551:15573  _spender != address(0) */\n      0xffffffffffffffffffffffffffffffffffffffff\n      and\n        /* \"contracts/GRB.sol\":15551:15559  _spender */\n      dup4\n        /* \"contracts/GRB.sol\":15551:15573  _spender != address(0) */\n      0xffffffffffffffffffffffffffffffffffffffff\n      and\n      eq\n      iszero\n        /* \"contracts/GRB.sol\":15543:15593  require(_spender != address(0), \"INVALID_SPENDER\") */\n      tag_161\n      jumpi\n      mload(0x40)\n      0x08c379a000000000000000000000000000000000000000000000000000000000\n      dup2\n      mstore\n      0x04\n      add\n      tag_162\n      swap1\n      tag_163\n      jump\t// in\n    tag_162:\n      mload(0x40)\n      dup1\n      swap2\n      sub\n      swap1\n      revert\n    tag_161:\n        /* \"contracts/GRB.sol\":15640:15647  _amount */\n      dup2\n        /* \"contracts/GRB.sol\":15604:15615  _allowances */\n      0x03\n        /* \"contracts/GRB.sol\":15604:15627  _allowances[msg.sender] */\n      0x00\n        /* \"contracts/GRB.sol\":15616:15626  msg.sender */\n      caller\n        /* \"contracts/GRB.sol\":15604:15627  _allowances[msg.sender] */\n      0xffffffffffffffffffffffffffffffffffffffff\n      and\n      0xffffffffffffffffffffffffffffffffffffffff\n      and\n      dup2\n      mstore\n      0x20\n      add\n      swap1\n      dup2\n      mstore\n      0x20\n      add\n      0x00\n      keccak256\n        /* \"contracts/GRB.sol\":15604:15637  _allowances[msg.sender][_spender] */\n      0x00\n        /* \"contracts/GRB.sol\":15628:15636  _spender */\n      dup6\n        /* \"contracts/GRB.sol\":15604:15637  _allowances[msg.sender][_spender] */\n      0xffffffffffffffffffffffffffffffffffffffff\n      and\n      0xffffffffffffffffffffffffffffffffffffffff\n      and\n      dup2\n      mstore\n      0x20\n      add\n      swap1\n      dup2\n      mstore\n      0x20\n      add\n      0x00\n      keccak256\n        /* \"contracts/GRB.sol\":15604:15647  _allowances[msg.sender][_spender] = _amount */\n      dup2\n      swap1\n      sstore\n      pop\n        /* \"contracts/GRB.sol\":15684:15692  _spender */\n      dup3\n        /* \"contracts/GRB.sol\":15663:15702  Approval(msg.sender, _spender, _amount) */\n      0xffffffffffffffffffffffffffffffffffffffff\n      and\n        /* \"contracts/GRB.sol\":15672:15682  msg.sender */\n      caller\n        /* \"contracts/GRB.sol\":15663:15702  Approval(msg.sender, _spender, _amount) */\n      0xffffffffffffffffffffffffffffffffffffffff\n      and\n      0x8c5be1e5ebec7d5bd14f71427d1e84f3dd0314c0f7b2291e5b200ac8c7c3b925\n        /* \"contracts/GRB.sol\":15694:15701  _amount */\n      dup5\n        /* \"contracts/GRB.sol\":15663:15702  Approval(msg.sender, _spender, _amount) */\n      mload(0x40)\n      tag_164\n      swap2\n      swap1\n      tag_58\n      jump\t// in\n    tag_164:\n      mload(0x40)\n      dup1\n      swap2\n      sub\n      swap1\n      log3\n        /* \"contracts/GRB.sol\":15720:15724  true */\n      0x01\n        /* \"contracts/GRB.sol\":15713:15724  return true */\n      swap1\n      pop\n        /* \"contracts/GRB.sol\":15406:15731  function approve(address _spender, uint256 _amount)... */\n      swap3\n      swap2\n      pop\n      pop\n      jump\t// out\n        /* \"contracts/GRB.sol\":10069:10568  function queuedTransactionsChangeAddress(string memory _functionName, string memory _fieldName, address _newAddr) public onlyOwner ... */\n    tag_54:\n        /* \"contracts/GRB.sol\":8901:8906  owner */\n      0x00\n      dup1\n      sload\n      swap1\n      0x0100\n      exp\n      swap1\n      div\n      0xffffffffffffffffffffffffffffffffffffffff\n      and\n        /* \"contracts/GRB.sol\":8887:8906  msg.sender == owner */\n      0xffffffffffffffffffffffffffffffffffffffff\n      and\n        /* \"contracts/GRB.sol\":8887:8897  msg.sender */\n      caller\n        /* \"contracts/GRB.sol\":8887:8906  msg.sender == owner */\n      0xffffffffffffffffffffffffffffffffffffffff\n      and\n      eq\n        /* \"contracts/GRB.sol\":8879:8929  require(msg.sender == owner, \"INVALID_PERMISSION\") */\n      tag_166\n      jumpi\n      mload(0x40)\n      0x08c379a000000000000000000000000000000000000000000000000000000000\n      dup2\n      mstore\n      0x04\n      add\n      tag_167\n      swap1\n      tag_168\n      jump\t// in\n    tag_167:\n      mload(0x40)\n      dup1\n      swap2\n      sub\n      swap1\n      revert\n    tag_166:\n        /* \"contracts/GRB.sol\":10215:10241  TimeLock storage _timelock */\n      0x00\n        /* \"contracts/GRB.sol\":10244:10254  timeLockOf */\n      0x01\n        /* \"contracts/GRB.sol\":10244:10292  timeLockOf[keccak256(abi.encode(_functionName))] */\n      0x00\n        /* \"contracts/GRB.sol\":10276:10289  _functionName */\n      dup6\n        /* \"contracts/GRB.sol\":10265:10290  abi.encode(_functionName) */\n      add(0x20, mload(0x40))\n      tag_170\n      swap2\n      swap1\n      tag_44\n      jump\t// in\n    tag_170:\n      mload(0x40)\n      0x20\n      dup2\n      dup4\n      sub\n      sub\n      dup2\n      mstore\n      swap1\n      0x40\n      mstore\n        /* \"contracts/GRB.sol\":10255:10291  keccak256(abi.encode(_functionName)) */\n      dup1\n      mload\n      swap1\n      0x20\n      add\n      keccak256\n        /* \"contracts/GRB.sol\":10244:10292  timeLockOf[keccak256(abi.encode(_functionName))] */\n      dup2\n      mstore\n      0x20\n      add\n      swap1\n      dup2\n      mstore\n      0x20\n      add\n      0x00\n      keccak256\n        /* \"contracts/GRB.sol\":10215:10292  TimeLock storage _timelock = timeLockOf[keccak256(abi.encode(_functionName))] */\n      swap1\n      pop\n        /* \"contracts/GRB.sol\":10360:10368  _newAddr */\n      dup2\n        /* \"contracts/GRB.sol\":10303:10312  _timelock */\n      dup2\n        /* \"contracts/GRB.sol\":10303:10322  _timelock.addressOf */\n      0x02\n      add\n        /* \"contracts/GRB.sol\":10303:10357  _timelock.addressOf[keccak256(abi.encode(_fieldName))] */\n      0x00\n        /* \"contracts/GRB.sol\":10344:10354  _fieldName */\n      dup6\n        /* \"contracts/GRB.sol\":10333:10355  abi.encode(_fieldName) */\n      add(0x20, mload(0x40))\n      tag_171\n      swap2\n      swap1\n      tag_44\n      jump\t// in\n    tag_171:\n      mload(0x40)\n      0x20\n      dup2\n      dup4\n      sub\n      sub\n      dup2\n      mstore\n      swap1\n      0x40\n      mstore\n        /* \"contracts/GRB.sol\":10323:10356  keccak256(abi.encode(_fieldName)) */\n      dup1\n      mload\n      swap1\n      0x20\n      add\n      keccak256\n        /* \"contracts/GRB.sol\":10303:10357  _timelock.addressOf[keccak256(abi.encode(_fieldName))] */\n      dup2\n      mstore\n      0x20\n      add\n      swap1\n      dup2\n      mstore\n      0x20\n      add\n      0x00\n      keccak256\n      0x00\n        /* \"contracts/GRB.sol\":10303:10368  _timelock.addressOf[keccak256(abi.encode(_fieldName))] = _newAddr */\n      0x0100\n      exp\n      dup2\n      sload\n      dup2\n      0xffffffffffffffffffffffffffffffffffffffff\n      mul\n      not\n      and\n      swap1\n      dup4\n      0xffffffffffffffffffffffffffffffffffffffff\n      and\n      mul\n      or\n      swap1\n      sstore\n      pop\n        /* \"contracts/GRB.sol\":10409:10413  true */\n      0x01\n        /* \"contracts/GRB.sol\":10378:10387  _timelock */\n      dup2\n        /* \"contracts/GRB.sol\":10378:10406  _timelock.queuedTransactions */\n      0x00\n      add\n      0x00\n        /* \"contracts/GRB.sol\":10378:10413  _timelock.queuedTransactions = true */\n      0x0100\n      exp\n      dup2\n      sload\n      dup2\n      0xff\n      mul\n      not\n      and\n      swap1\n      dup4\n      iszero\n      iszero\n      mul\n      or\n      swap1\n      sstore\n      pop\n        /* \"contracts/GRB.sol\":10449:10475  block.timestamp.add(delay) */\n      tag_172\n        /* \"contracts/GRB.sol\":10469:10474  delay */\n      sload(0x0a)\n        /* \"contracts/GRB.sol\":10449:10464  block.timestamp */\n      timestamp\n        /* \"contracts/GRB.sol\":10449:10468  block.timestamp.add */\n      tag_173\n      swap1\n        /* \"contracts/GRB.sol\":10449:10475  block.timestamp.add(delay) */\n      swap2\n      swap1\n      0xffffffff\n      and\n      jump\t// in\n    tag_172:\n        /* \"contracts/GRB.sol\":10423:10432  _timelock */\n      dup2\n        /* \"contracts/GRB.sol\":10423:10446  _timelock.timeOfExecute */\n      0x01\n      add\n        /* \"contracts/GRB.sol\":10423:10475  _timelock.timeOfExecute = block.timestamp.add(delay) */\n      dup2\n      swap1\n      sstore\n      pop\n        /* \"contracts/GRB.sol\":10491:10561  onQueuedTransactionsChangeAddress(_functionName, _fieldName, _newAddr) */\n      0x1bd33efd68d2824f5f0f2519ce7c9ca0ddff6234523468e89077a0dca7b73970\n        /* \"contracts/GRB.sol\":10525:10538  _functionName */\n      dup5\n        /* \"contracts/GRB.sol\":10540:10550  _fieldName */\n      dup5\n        /* \"contracts/GRB.sol\":10552:10560  _newAddr */\n      dup5\n        /* \"contracts/GRB.sol\":10491:10561  onQueuedTransactionsChangeAddress(_functionName, _fieldName, _newAddr) */\n      mload(0x40)\n      tag_174\n      swap4\n      swap3\n      swap2\n      swap1\n      tag_175\n      jump\t// in\n    tag_174:\n      mload(0x40)\n      dup1\n      swap2\n      sub\n      swap1\n      log1\n        /* \"contracts/GRB.sol\":10205:10568  {... */\n      pop\n        /* \"contracts/GRB.sol\":10069:10568  function queuedTransactionsChangeAddress(string memory _functionName, string memory _fieldName, address _newAddr) public onlyOwner ... */\n      pop\n      pop\n      pop\n      jump\t// out\n        /* \"contracts/GRB.sol\":13909:14007  function totalSupply() public override view returns (uint256) {... */\n    tag_56:\n        /* \"contracts/GRB.sol\":13962:13969  uint256 */\n      0x00\n        /* \"contracts/GRB.sol\":13988:14000  _totalSupply */\n      sload(0x04)\n        /* \"contracts/GRB.sol\":13981:14000  return _totalSupply */\n      swap1\n      pop\n        /* \"contracts/GRB.sol\":13909:14007  function totalSupply() public override view returns (uint256) {... */\n      swap1\n      jump\t// out\n        /* \"contracts/GRB.sol\":16337:17111  function transferFrom(... */\n    tag_62:\n        /* \"contracts/GRB.sol\":16467:16471  bool */\n      0x00\n        /* \"contracts/GRB.sol\":16501:16502  0 */\n      dup1\n        /* \"contracts/GRB.sol\":16491:16498  _amount */\n      dup3\n        /* \"contracts/GRB.sol\":16491:16502  _amount > 0 */\n      gt\n        /* \"contracts/GRB.sol\":16483:16521  require(_amount > 0, \"INVALID_AMOUNT\") */\n      tag_178\n      jumpi\n      mload(0x40)\n      0x08c379a000000000000000000000000000000000000000000000000000000000\n      dup2\n      mstore\n      0x04\n      add\n      tag_179\n      swap1\n      tag_180\n      jump\t// in\n    tag_179:\n      mload(0x40)\n      dup1\n      swap2\n      sub\n      swap1\n      revert\n    tag_178:\n        /* \"contracts/GRB.sol\":16559:16566  _amount */\n      dup2\n        /* \"contracts/GRB.sol\":16539:16548  _balances */\n      0x02\n        /* \"contracts/GRB.sol\":16539:16555  _balances[_from] */\n      0x00\n        /* \"contracts/GRB.sol\":16549:16554  _from */\n      dup7\n        /* \"contracts/GRB.sol\":16539:16555  _balances[_from] */\n      0xffffffffffffffffffffffffffffffffffffffff\n      and\n      0xffffffffffffffffffffffffffffffffffffffff\n      and\n      dup2\n      mstore\n      0x20\n      add\n      swap1\n      dup2\n      mstore\n      0x20\n      add\n      0x00\n      keccak256\n      sload\n        /* \"contracts/GRB.sol\":16539:16566  _balances[_from] >= _amount */\n      lt\n      iszero\n        /* \"contracts/GRB.sol\":16531:16586  require(_balances[_from] >= _amount, \"INVALID_BALANCE\") */\n      tag_181\n      jumpi\n      mload(0x40)\n      0x08c379a000000000000000000000000000000000000000000000000000000000\n      dup2\n      mstore\n      0x04\n      add\n      tag_182\n      swap1\n      tag_183\n      jump\t// in\n    tag_182:\n      mload(0x40)\n      dup1\n      swap2\n      sub\n      swap1\n      revert\n    tag_181:\n        /* \"contracts/GRB.sol\":16638:16645  _amount */\n      dup2\n        /* \"contracts/GRB.sol\":16604:16615  _allowances */\n      0x03\n        /* \"contracts/GRB.sol\":16604:16622  _allowances[_from] */\n      0x00\n        /* \"contracts/GRB.sol\":16616:16621  _from */\n      dup7\n        /* \"contracts/GRB.sol\":16604:16622  _allowances[_from] */\n      0xffffffffffffffffffffffffffffffffffffffff\n      and\n      0xffffffffffffffffffffffffffffffffffffffff\n      and\n      dup2\n      mstore\n      0x20\n      add\n      swap1\n      dup2\n      mstore\n      0x20\n      add\n      0x00\n      keccak256\n        /* \"contracts/GRB.sol\":16604:16634  _allowances[_from][msg.sender] */\n      0x00\n        /* \"contracts/GRB.sol\":16623:16633  msg.sender */\n      caller\n        /* \"contracts/GRB.sol\":16604:16634  _allowances[_from][msg.sender] */\n      0xffffffffffffffffffffffffffffffffffffffff\n      and\n      0xffffffffffffffffffffffffffffffffffffffff\n      and\n      dup2\n      mstore\n      0x20\n      add\n      swap1\n      dup2\n      mstore\n      0x20\n      add\n      0x00\n      keccak256\n      sload\n        /* \"contracts/GRB.sol\":16604:16645  _allowances[_from][msg.sender] >= _amount */\n      lt\n      iszero\n        /* \"contracts/GRB.sol\":16596:16668  require(_allowances[_from][msg.sender] >= _amount, \"INVALID_PERMISSION\") */\n      tag_184\n      jumpi\n      mload(0x40)\n      0x08c379a000000000000000000000000000000000000000000000000000000000\n      dup2\n      mstore\n      0x04\n      add\n      tag_185\n      swap1\n      tag_168\n      jump\t// in\n    tag_185:\n      mload(0x40)\n      dup1\n      swap2\n      sub\n      swap1\n      revert\n    tag_184:\n        /* \"contracts/GRB.sol\":16720:16763  _allowances[_from][msg.sender].sub(_amount) */\n      tag_186\n        /* \"contracts/GRB.sol\":16755:16762  _amount */\n      dup3\n        /* \"contracts/GRB.sol\":16720:16731  _allowances */\n      0x03\n        /* \"contracts/GRB.sol\":16720:16738  _allowances[_from] */\n      0x00\n        /* \"contracts/GRB.sol\":16732:16737  _from */\n      dup8\n        /* \"contracts/GRB.sol\":16720:16738  _allowances[_from] */\n      0xffffffffffffffffffffffffffffffffffffffff\n      and\n      0xffffffffffffffffffffffffffffffffffffffff\n      and\n      dup2\n      mstore\n      0x20\n      add\n      swap1\n      dup2\n      mstore\n      0x20\n      add\n      0x00\n      keccak256\n        /* \"contracts/GRB.sol\":16720:16750  _allowances[_from][msg.sender] */\n      0x00\n        /* \"contracts/GRB.sol\":16739:16749  msg.sender */\n      caller\n        /* \"contracts/GRB.sol\":16720:16750  _allowances[_from][msg.sender] */\n      0xffffffffffffffffffffffffffffffffffffffff\n      and\n      0xffffffffffffffffffffffffffffffffffffffff\n      and\n      dup2\n      mstore\n      0x20\n      add\n      swap1\n      dup2\n      mstore\n      0x20\n      add\n      0x00\n      keccak256\n      sload\n        /* \"contracts/GRB.sol\":16720:16754  _allowances[_from][msg.sender].sub */\n      tag_187\n      swap1\n        /* \"contracts/GRB.sol\":16720:16763  _allowances[_from][msg.sender].sub(_amount) */\n      swap2\n      swap1\n      0xffffffff\n      and\n      jump\t// in\n    tag_186:\n        /* \"contracts/GRB.sol\":16687:16698  _allowances */\n      0x03\n        /* \"contracts/GRB.sol\":16687:16705  _allowances[_from] */\n      0x00\n        /* \"contracts/GRB.sol\":16699:16704  _from */\n      dup7\n        /* \"contracts/GRB.sol\":16687:16705  _allowances[_from] */\n      0xffffffffffffffffffffffffffffffffffffffff\n      and\n      0xffffffffffffffffffffffffffffffffffffffff\n      and\n      dup2\n      mstore\n      0x20\n      add\n      swap1\n      dup2\n      mstore\n      0x20\n      add\n      0x00\n      keccak256\n        /* \"contracts/GRB.sol\":16687:16717  _allowances[_from][msg.sender] */\n      0x00\n        /* \"contracts/GRB.sol\":16706:16716  msg.sender */\n      caller\n        /* \"contracts/GRB.sol\":16687:16717  _allowances[_from][msg.sender] */\n      0xffffffffffffffffffffffffffffffffffffffff\n      and\n      0xffffffffffffffffffffffffffffffffffffffff\n      and\n      dup2\n      mstore\n      0x20\n      add\n      swap1\n      dup2\n      mstore\n      0x20\n      add\n      0x00\n      keccak256\n        /* \"contracts/GRB.sol\":16687:16763  _allowances[_from][msg.sender] = _allowances[_from][msg.sender].sub(_amount) */\n      dup2\n      swap1\n      sstore\n      pop\n        /* \"contracts/GRB.sol\":16804:16833  _balances[_from].sub(_amount) */\n      tag_188\n        /* \"contracts/GRB.sol\":16825:16832  _amount */\n      dup3\n        /* \"contracts/GRB.sol\":16804:16813  _balances */\n      0x02\n        /* \"contracts/GRB.sol\":16804:16820  _balances[_from] */\n      0x00\n        /* \"contracts/GRB.sol\":16814:16819  _from */\n      dup8\n        /* \"contracts/GRB.sol\":16804:16820  _balances[_from] */\n      0xffffffffffffffffffffffffffffffffffffffff\n      and\n      0xffffffffffffffffffffffffffffffffffffffff\n      and\n      dup2\n      mstore\n      0x20\n      add\n      swap1\n      dup2\n      mstore\n      0x20\n      add\n      0x00\n      keccak256\n      sload\n        /* \"contracts/GRB.sol\":16804:16824  _balances[_from].sub */\n      tag_187\n      swap1\n        /* \"contracts/GRB.sol\":16804:16833  _balances[_from].sub(_amount) */\n      swap2\n      swap1\n      0xffffffff\n      and\n      jump\t// in\n    tag_188:\n        /* \"contracts/GRB.sol\":16782:16791  _balances */\n      0x02\n        /* \"contracts/GRB.sol\":16782:16798  _balances[_from] */\n      0x00\n        /* \"contracts/GRB.sol\":16792:16797  _from */\n      dup7\n        /* \"contracts/GRB.sol\":16782:16798  _balances[_from] */\n      0xffffffffffffffffffffffffffffffffffffffff\n      and\n      0xffffffffffffffffffffffffffffffffffffffff\n      and\n      dup2\n      mstore\n      0x20\n      add\n      swap1\n      dup2\n      mstore\n      0x20\n      add\n      0x00\n      keccak256\n        /* \"contracts/GRB.sol\":16782:16833  _balances[_from]    = _balances[_from].sub(_amount) */\n      dup2\n      swap1\n      sstore\n      pop\n        /* \"contracts/GRB.sol\":16865:16893  _balances[_to].add( _amount) */\n      tag_189\n        /* \"contracts/GRB.sol\":16885:16892  _amount */\n      dup3\n        /* \"contracts/GRB.sol\":16865:16874  _balances */\n      0x02\n        /* \"contracts/GRB.sol\":16865:16879  _balances[_to] */\n      0x00\n        /* \"contracts/GRB.sol\":16875:16878  _to */\n      dup7\n        /* \"contracts/GRB.sol\":16865:16879  _balances[_to] */\n      0xffffffffffffffffffffffffffffffffffffffff\n      and\n      0xffffffffffffffffffffffffffffffffffffffff\n      and\n      dup2\n      mstore\n      0x20\n      add\n      swap1\n      dup2\n      mstore\n      0x20\n      add\n      0x00\n      keccak256\n      sload\n        /* \"contracts/GRB.sol\":16865:16883  _balances[_to].add */\n      tag_173\n      swap1\n        /* \"contracts/GRB.sol\":16865:16893  _balances[_to].add( _amount) */\n      swap2\n      swap1\n      0xffffffff\n      and\n      jump\t// in\n    tag_189:\n        /* \"contracts/GRB.sol\":16843:16852  _balances */\n      0x02\n        /* \"contracts/GRB.sol\":16843:16857  _balances[_to] */\n      0x00\n        /* \"contracts/GRB.sol\":16853:16856  _to */\n      dup6\n        /* \"contracts/GRB.sol\":16843:16857  _balances[_to] */\n      0xffffffffffffffffffffffffffffffffffffffff\n      and\n      0xffffffffffffffffffffffffffffffffffffffff\n      and\n      dup2\n      mstore\n      0x20\n      add\n      swap1\n      dup2\n      mstore\n      0x20\n      add\n      0x00\n      keccak256\n        /* \"contracts/GRB.sol\":16843:16893  _balances[_to]      = _balances[_to].add( _amount) */\n      dup2\n      swap1\n      sstore\n      pop\n        /* \"contracts/GRB.sol\":16997:17000  _to */\n      dup3\n        /* \"contracts/GRB.sol\":16981:17010  Transfer(_from, _to, _amount) */\n      0xffffffffffffffffffffffffffffffffffffffff\n      and\n        /* \"contracts/GRB.sol\":16990:16995  _from */\n      dup5\n        /* \"contracts/GRB.sol\":16981:17010  Transfer(_from, _to, _amount) */\n      0xffffffffffffffffffffffffffffffffffffffff\n      and\n      0xddf252ad1be2c89b69c2b068fc378daa952ba7f163c4a11628f55a4df523b3ef\n        /* \"contracts/GRB.sol\":17002:17009  _amount */\n      dup5\n        /* \"contracts/GRB.sol\":16981:17010  Transfer(_from, _to, _amount) */\n      mload(0x40)\n      tag_190\n      swap2\n      swap1\n      tag_58\n      jump\t// in\n    tag_190:\n      mload(0x40)\n      dup1\n      swap2\n      sub\n      swap1\n      log3\n        /* \"contracts/GRB.sol\":17100:17104  true */\n      0x01\n        /* \"contracts/GRB.sol\":17093:17104  return true */\n      swap1\n      pop\n        /* \"contracts/GRB.sol\":16337:17111  function transferFrom(... */\n      swap4\n      swap3\n      pop\n      pop\n      pop\n      jump\t// out\n        /* \"contracts/GRB.sol\":14013:14108  function maxTotalSupply() public view returns (uint256) {... */\n    tag_65:\n        /* \"contracts/GRB.sol\":14060:14067  uint256 */\n      0x00\n        /* \"contracts/GRB.sol\":14086:14101  _maxTotalSupply */\n      sload(0x05)\n        /* \"contracts/GRB.sol\":14079:14101  return _maxTotalSupply */\n      swap1\n      pop\n        /* \"contracts/GRB.sol\":14013:14108  function maxTotalSupply() public view returns (uint256) {... */\n      swap1\n      jump\t// out\n        /* \"contracts/GRB.sol\":8379:8414  uint8 public override decimals = 18 */\n    tag_68:\n      0x08\n      0x00\n      swap1\n      sload\n      swap1\n      0x0100\n      exp\n      swap1\n      div\n      0xff\n      and\n      dup2\n      jump\t// out\n        /* \"contracts/GRB.sol\":14528:15144  function mint(address account, uint256 amount) public virtual onlyMiningMachine {... */\n    tag_73:\n        /* \"contracts/GRB.sol\":9018:9031  miningMachine */\n      0x08\n      0x01\n      swap1\n      sload\n      swap1\n      0x0100\n      exp\n      swap1\n      div\n      0xffffffffffffffffffffffffffffffffffffffff\n      and\n        /* \"contracts/GRB.sol\":9004:9031  msg.sender == miningMachine */\n      0xffffffffffffffffffffffffffffffffffffffff\n      and\n        /* \"contracts/GRB.sol\":9004:9014  msg.sender */\n      caller\n        /* \"contracts/GRB.sol\":9004:9031  msg.sender == miningMachine */\n      0xffffffffffffffffffffffffffffffffffffffff\n      and\n      eq\n        /* \"contracts/GRB.sol\":8996:9054  require(msg.sender == miningMachine, \"INVALID_PERMISSION\") */\n      tag_193\n      jumpi\n      mload(0x40)\n      0x08c379a000000000000000000000000000000000000000000000000000000000\n      dup2\n      mstore\n      0x04\n      add\n      tag_194\n      swap1\n      tag_168\n      jump\t// in\n    tag_194:\n      mload(0x40)\n      dup1\n      swap2\n      sub\n      swap1\n      revert\n    tag_193:\n        /* \"contracts/GRB.sol\":14646:14647  0 */\n      0x00\n        /* \"contracts/GRB.sol\":14627:14648  account != address(0) */\n      0xffffffffffffffffffffffffffffffffffffffff\n      and\n        /* \"contracts/GRB.sol\":14627:14634  account */\n      dup3\n        /* \"contracts/GRB.sol\":14627:14648  account != address(0) */\n      0xffffffffffffffffffffffffffffffffffffffff\n      and\n      eq\n      iszero\n        /* \"contracts/GRB.sol\":14619:14684  require(account != address(0), \"ERC20: mint to the zero address\") */\n      tag_196\n      jumpi\n      mload(0x40)\n      0x08c379a000000000000000000000000000000000000000000000000000000000\n      dup2\n      mstore\n      0x04\n      add\n      tag_197\n      swap1\n      tag_198\n      jump\t// in\n    tag_197:\n      mload(0x40)\n      dup1\n      swap2\n      sub\n      swap1\n      revert\n    tag_196:\n        /* \"contracts/GRB.sol\":14714:14729  _maxTotalSupply */\n      sload(0x05)\n        /* \"contracts/GRB.sol\":14699:14711  _totalSupply */\n      sload(0x04)\n        /* \"contracts/GRB.sol\":14699:14729  _totalSupply > _maxTotalSupply */\n      gt\n        /* \"contracts/GRB.sol\":14695:14887  if (_totalSupply > _maxTotalSupply) {... */\n      iszero\n      tag_199\n      jumpi\n        /* \"contracts/GRB.sol\":14754:14755  0 */\n      0x00\n        /* \"contracts/GRB.sol\":14745:14755  amount = 0 */\n      swap1\n      pop\n        /* \"contracts/GRB.sol\":14695:14887  if (_totalSupply > _maxTotalSupply) {... */\n      jump(tag_200)\n    tag_199:\n        /* \"contracts/GRB.sol\":14803:14818  _maxTotalSupply */\n      sload(0x05)\n        /* \"contracts/GRB.sol\":14776:14800  _totalSupply.add(amount) */\n      tag_201\n        /* \"contracts/GRB.sol\":14793:14799  amount */\n      dup3\n        /* \"contracts/GRB.sol\":14776:14788  _totalSupply */\n      sload(0x04)\n        /* \"contracts/GRB.sol\":14776:14792  _totalSupply.add */\n      tag_173\n      swap1\n        /* \"contracts/GRB.sol\":14776:14800  _totalSupply.add(amount) */\n      swap2\n      swap1\n      0xffffffff\n      and\n      jump\t// in\n    tag_201:\n        /* \"contracts/GRB.sol\":14776:14818  _totalSupply.add(amount) > _maxTotalSupply */\n      gt\n        /* \"contracts/GRB.sol\":14772:14887  if (_totalSupply.add(amount) > _maxTotalSupply) {... */\n      iszero\n      tag_202\n      jumpi\n        /* \"contracts/GRB.sol\":14843:14876  _maxTotalSupply.sub(_totalSupply) */\n      tag_203\n        /* \"contracts/GRB.sol\":14863:14875  _totalSupply */\n      sload(0x04)\n        /* \"contracts/GRB.sol\":14843:14858  _maxTotalSupply */\n      sload(0x05)\n        /* \"contracts/GRB.sol\":14843:14862  _maxTotalSupply.sub */\n      tag_187\n      swap1\n        /* \"contracts/GRB.sol\":14843:14876  _maxTotalSupply.sub(_totalSupply) */\n      swap2\n      swap1\n      0xffffffff\n      and\n      jump\t// in\n    tag_203:\n        /* \"contracts/GRB.sol\":14834:14876  amount = _maxTotalSupply.sub(_totalSupply) */\n      swap1\n      pop\n        /* \"contracts/GRB.sol\":14772:14887  if (_totalSupply.add(amount) > _maxTotalSupply) {... */\n    tag_202:\n        /* \"contracts/GRB.sol\":14695:14887  if (_totalSupply > _maxTotalSupply) {... */\n    tag_200:\n        /* \"contracts/GRB.sol\":14933:14948  _maxTotalSupply */\n      sload(0x05)\n        /* \"contracts/GRB.sol\":14905:14929  _totalSupply.add(amount) */\n      tag_204\n        /* \"contracts/GRB.sol\":14922:14928  amount */\n      dup3\n        /* \"contracts/GRB.sol\":14905:14917  _totalSupply */\n      sload(0x04)\n        /* \"contracts/GRB.sol\":14905:14921  _totalSupply.add */\n      tag_173\n      swap1\n        /* \"contracts/GRB.sol\":14905:14929  _totalSupply.add(amount) */\n      swap2\n      swap1\n      0xffffffff\n      and\n      jump\t// in\n    tag_204:\n        /* \"contracts/GRB.sol\":14905:14948  _totalSupply.add(amount) <= _maxTotalSupply */\n      gt\n      iszero\n        /* \"contracts/GRB.sol\":14897:14972  require(_totalSupply.add(amount) <= _maxTotalSupply, \"over maxTotalSupply\") */\n      tag_205\n      jumpi\n      mload(0x40)\n      0x08c379a000000000000000000000000000000000000000000000000000000000\n      dup2\n      mstore\n      0x04\n      add\n      tag_206\n      swap1\n      tag_207\n      jump\t// in\n    tag_206:\n      mload(0x40)\n      dup1\n      swap2\n      sub\n      swap1\n      revert\n    tag_205:\n        /* \"contracts/GRB.sol\":14998:15022  _totalSupply.add(amount) */\n      tag_208\n        /* \"contracts/GRB.sol\":15015:15021  amount */\n      dup2\n        /* \"contracts/GRB.sol\":14998:15010  _totalSupply */\n      sload(0x04)\n        /* \"contracts/GRB.sol\":14998:15014  _totalSupply.add */\n      tag_173\n      swap1\n        /* \"contracts/GRB.sol\":14998:15022  _totalSupply.add(amount) */\n      swap2\n      swap1\n      0xffffffff\n      and\n      jump\t// in\n    tag_208:\n        /* \"contracts/GRB.sol\":14983:14995  _totalSupply */\n      0x04\n        /* \"contracts/GRB.sol\":14983:15022  _totalSupply = _totalSupply.add(amount) */\n      dup2\n      swap1\n      sstore\n      pop\n        /* \"contracts/GRB.sol\":15054:15084  _balances[account].add(amount) */\n      tag_209\n        /* \"contracts/GRB.sol\":15077:15083  amount */\n      dup2\n        /* \"contracts/GRB.sol\":15054:15063  _balances */\n      0x02\n        /* \"contracts/GRB.sol\":15054:15072  _balances[account] */\n      0x00\n        /* \"contracts/GRB.sol\":15064:15071  account */\n      dup6\n        /* \"contracts/GRB.sol\":15054:15072  _balances[account] */\n      0xffffffffffffffffffffffffffffffffffffffff\n      and\n      0xffffffffffffffffffffffffffffffffffffffff\n      and\n      dup2\n      mstore\n      0x20\n      add\n      swap1\n      dup2\n      mstore\n      0x20\n      add\n      0x00\n      keccak256\n      sload\n        /* \"contracts/GRB.sol\":15054:15076  _balances[account].add */\n      tag_173\n      swap1\n        /* \"contracts/GRB.sol\":15054:15084  _balances[account].add(amount) */\n      swap2\n      swap1\n      0xffffffff\n      and\n      jump\t// in\n    tag_209:\n        /* \"contracts/GRB.sol\":15033:15042  _balances */\n      0x02\n        /* \"contracts/GRB.sol\":15033:15051  _balances[account] */\n      0x00\n        /* \"contracts/GRB.sol\":15043:15050  account */\n      dup5\n        /* \"contracts/GRB.sol\":15033:15051  _balances[account] */\n      0xffffffffffffffffffffffffffffffffffffffff\n      and\n      0xffffffffffffffffffffffffffffffffffffffff\n      and\n      dup2\n      mstore\n      0x20\n      add\n      swap1\n      dup2\n      mstore\n      0x20\n      add\n      0x00\n      keccak256\n        /* \"contracts/GRB.sol\":15033:15084  _balances[account] = _balances[account].add(amount) */\n      dup2\n      swap1\n      sstore\n      pop\n        /* \"contracts/GRB.sol\":15121:15128  account */\n      dup2\n        /* \"contracts/GRB.sol\":15100:15137  Transfer(address(0), account, amount) */\n      0xffffffffffffffffffffffffffffffffffffffff\n      and\n        /* \"contracts/GRB.sol\":15117:15118  0 */\n      0x00\n        /* \"contracts/GRB.sol\":15100:15137  Transfer(address(0), account, amount) */\n      0xffffffffffffffffffffffffffffffffffffffff\n      and\n      0xddf252ad1be2c89b69c2b068fc378daa952ba7f163c4a11628f55a4df523b3ef\n        /* \"contracts/GRB.sol\":15130:15136  amount */\n      dup4\n        /* \"contracts/GRB.sol\":15100:15137  Transfer(address(0), account, amount) */\n      mload(0x40)\n      tag_210\n      swap2\n      swap1\n      tag_58\n      jump\t// in\n    tag_210:\n      mload(0x40)\n      dup1\n      swap2\n      sub\n      swap1\n      log3\n        /* \"contracts/GRB.sol\":14528:15144  function mint(address account, uint256 amount) public virtual onlyMiningMachine {... */\n      pop\n      pop\n      jump\t// out\n        /* \"contracts/GRB.sol\":8636:8653  uint public delay */\n    tag_75:\n      sload(0x0a)\n      dup2\n      jump\t// out\n        /* \"contracts/GRB.sol\":8020:8066  mapping(bytes32 => TimeLock) public timeLockOf */\n    tag_80:\n      mstore(0x20, 0x01)\n      dup1\n      0x00\n      mstore\n      keccak256(0x00, 0x40)\n      0x00\n      swap2\n      pop\n      swap1\n      pop\n      dup1\n      0x00\n      add\n      0x00\n      swap1\n      sload\n      swap1\n      0x0100\n      exp\n      swap1\n      div\n      0xff\n      and\n      swap1\n      dup1\n      0x01\n      add\n      sload\n      swap1\n      pop\n      dup3\n      jump\t// out\n        /* \"contracts/GRB.sol\":14114:14227  function balanceOf(address _addr) public override view returns (uint256) {... */\n    tag_86:\n        /* \"contracts/GRB.sol\":14178:14185  uint256 */\n      0x00\n        /* \"contracts/GRB.sol\":14204:14213  _balances */\n      0x02\n        /* \"contracts/GRB.sol\":14204:14220  _balances[_addr] */\n      0x00\n        /* \"contracts/GRB.sol\":14214:14219  _addr */\n      dup4\n        /* \"contracts/GRB.sol\":14204:14220  _balances[_addr] */\n      0xffffffffffffffffffffffffffffffffffffffff\n      and\n      0xffffffffffffffffffffffffffffffffffffffff\n      and\n      dup2\n      mstore\n      0x20\n      add\n      swap1\n      dup2\n      mstore\n      0x20\n      add\n      0x00\n      keccak256\n      sload\n        /* \"contracts/GRB.sol\":14197:14220  return _balances[_addr] */\n      swap1\n      pop\n        /* \"contracts/GRB.sol\":14114:14227  function balanceOf(address _addr) public override view returns (uint256) {... */\n      swap2\n      swap1\n      pop\n      jump\t// out\n        /* \"contracts/GRB.sol\":13672:13903  function getUintChangeOnTimeLock(string memory _functionName, string memory _fieldName) public view returns(uint256) {... */\n    tag_91:\n        /* \"contracts/GRB.sol\":13780:13787  uint256 */\n      0x00\n        /* \"contracts/GRB.sol\":13806:13816  timeLockOf */\n      0x01\n        /* \"contracts/GRB.sol\":13806:13854  timeLockOf[keccak256(abi.encode(_functionName))] */\n      0x00\n        /* \"contracts/GRB.sol\":13838:13851  _functionName */\n      dup5\n        /* \"contracts/GRB.sol\":13827:13852  abi.encode(_functionName) */\n      add(0x20, mload(0x40))\n      tag_213\n      swap2\n      swap1\n      tag_44\n      jump\t// in\n    tag_213:\n      mload(0x40)\n      0x20\n      dup2\n      dup4\n      sub\n      sub\n      dup2\n      mstore\n      swap1\n      0x40\n      mstore\n        /* \"contracts/GRB.sol\":13817:13853  keccak256(abi.encode(_functionName)) */\n      dup1\n      mload\n      swap1\n      0x20\n      add\n      keccak256\n        /* \"contracts/GRB.sol\":13806:13854  timeLockOf[keccak256(abi.encode(_functionName))] */\n      dup2\n      mstore\n      0x20\n      add\n      swap1\n      dup2\n      mstore\n      0x20\n      add\n      0x00\n      keccak256\n        /* \"contracts/GRB.sol\":13806:13861  timeLockOf[keccak256(abi.encode(_functionName))].uintOf */\n      0x03\n      add\n        /* \"contracts/GRB.sol\":13806:13896  timeLockOf[keccak256(abi.encode(_functionName))].uintOf[keccak256(abi.encode(_fieldName))] */\n      0x00\n        /* \"contracts/GRB.sol\":13883:13893  _fieldName */\n      dup4\n        /* \"contracts/GRB.sol\":13872:13894  abi.encode(_fieldName) */\n      add(0x20, mload(0x40))\n      tag_214\n      swap2\n      swap1\n      tag_44\n      jump\t// in\n    tag_214:\n      mload(0x40)\n      0x20\n      dup2\n      dup4\n      sub\n      sub\n      dup2\n      mstore\n      swap1\n      0x40\n      mstore\n        /* \"contracts/GRB.sol\":13862:13895  keccak256(abi.encode(_fieldName)) */\n      dup1\n      mload\n      swap1\n      0x20\n      add\n      keccak256\n        /* \"contracts/GRB.sol\":13806:13896  timeLockOf[keccak256(abi.encode(_functionName))].uintOf[keccak256(abi.encode(_fieldName))] */\n      dup2\n      mstore\n      0x20\n      add\n      swap1\n      dup2\n      mstore\n      0x20\n      add\n      0x00\n      keccak256\n      sload\n        /* \"contracts/GRB.sol\":13799:13896  return timeLockOf[keccak256(abi.encode(_functionName))].uintOf[keccak256(abi.encode(_fieldName))] */\n      swap1\n      pop\n        /* \"contracts/GRB.sol\":13672:13903  function getUintChangeOnTimeLock(string memory _functionName, string memory _fieldName) public view returns(uint256) {... */\n      swap3\n      swap2\n      pop\n      pop\n      jump\t// out\n        /* \"contracts/GRB.sol\":8586:8630  uint public constant MAXIMUM_DELAY = 30 days */\n    tag_94:\n        /* \"contracts/GRB.sol\":8623:8630  30 days */\n      0x278d00\n        /* \"contracts/GRB.sol\":8586:8630  uint public constant MAXIMUM_DELAY = 30 days */\n      dup2\n      jump\t// out\n        /* \"contracts/GRB.sol\":11064:11537  function transferOwnership() public onlyOwner {... */\n    tag_97:\n        /* \"contracts/GRB.sol\":8901:8906  owner */\n      0x00\n      dup1\n      sload\n      swap1\n      0x0100\n      exp\n      swap1\n      div\n      0xffffffffffffffffffffffffffffffffffffffff\n      and\n        /* \"contracts/GRB.sol\":8887:8906  msg.sender == owner */\n      0xffffffffffffffffffffffffffffffffffffffff\n      and\n        /* \"contracts/GRB.sol\":8887:8897  msg.sender */\n      caller\n        /* \"contracts/GRB.sol\":8887:8906  msg.sender == owner */\n      0xffffffffffffffffffffffffffffffffffffffff\n      and\n      eq\n        /* \"contracts/GRB.sol\":8879:8929  require(msg.sender == owner, \"INVALID_PERMISSION\") */\n      tag_216\n      jumpi\n      mload(0x40)\n      0x08c379a000000000000000000000000000000000000000000000000000000000\n      dup2\n      mstore\n      0x04\n      add\n      tag_217\n      swap1\n      tag_168\n      jump\t// in\n    tag_217:\n      mload(0x40)\n      dup1\n      swap2\n      sub\n      swap1\n      revert\n    tag_216:\n        /* \"contracts/GRB.sol\":11121:11147  TimeLock storage _timelock */\n      0x00\n        /* \"contracts/GRB.sol\":11150:11160  timeLockOf */\n      0x01\n        /* \"contracts/GRB.sol\":11150:11204  timeLockOf[keccak256(abi.encode(\"transferOwnership\"))] */\n      0x00\n        /* \"contracts/GRB.sol\":11171:11202  abi.encode(\"transferOwnership\") */\n      add(0x20, mload(0x40))\n      tag_219\n      swap1\n      tag_220\n      jump\t// in\n    tag_219:\n      mload(0x40)\n      0x20\n      dup2\n      dup4\n      sub\n      sub\n      dup2\n      mstore\n      swap1\n      0x40\n      mstore\n        /* \"contracts/GRB.sol\":11161:11203  keccak256(abi.encode(\"transferOwnership\")) */\n      dup1\n      mload\n      swap1\n      0x20\n      add\n      keccak256\n        /* \"contracts/GRB.sol\":11150:11204  timeLockOf[keccak256(abi.encode(\"transferOwnership\"))] */\n      dup2\n      mstore\n      0x20\n      add\n      swap1\n      dup2\n      mstore\n      0x20\n      add\n      0x00\n      keccak256\n        /* \"contracts/GRB.sol\":11121:11204  TimeLock storage _timelock = timeLockOf[keccak256(abi.encode(\"transferOwnership\"))] */\n      swap1\n      pop\n        /* \"contracts/GRB.sol\":11215:11243  _validateTimelock(_timelock) */\n      tag_221\n        /* \"contracts/GRB.sol\":11233:11242  _timelock */\n      dup2\n        /* \"contracts/GRB.sol\":11215:11232  _validateTimelock */\n      tag_222\n        /* \"contracts/GRB.sol\":11215:11243  _validateTimelock(_timelock) */\n      jump\t// in\n    tag_221:\n        /* \"contracts/GRB.sol\":11324:11325  0 */\n      0x00\n        /* \"contracts/GRB.sol\":11261:11326  _timelock.addressOf[keccak256(abi.encode(\"owner\"))] != address(0) */\n      0xffffffffffffffffffffffffffffffffffffffff\n      and\n        /* \"contracts/GRB.sol\":11261:11270  _timelock */\n      dup2\n        /* \"contracts/GRB.sol\":11261:11280  _timelock.addressOf */\n      0x02\n      add\n        /* \"contracts/GRB.sol\":11261:11312  _timelock.addressOf[keccak256(abi.encode(\"owner\"))] */\n      0x00\n        /* \"contracts/GRB.sol\":11291:11310  abi.encode(\"owner\") */\n      add(0x20, mload(0x40))\n      tag_223\n      swap1\n      tag_224\n      jump\t// in\n    tag_223:\n      mload(0x40)\n      0x20\n      dup2\n      dup4\n      sub\n      sub\n      dup2\n      mstore\n      swap1\n      0x40\n      mstore\n        /* \"contracts/GRB.sol\":11281:11311  keccak256(abi.encode(\"owner\")) */\n      dup1\n      mload\n      swap1\n      0x20\n      add\n      keccak256\n        /* \"contracts/GRB.sol\":11261:11312  _timelock.addressOf[keccak256(abi.encode(\"owner\"))] */\n      dup2\n      mstore\n      0x20\n      add\n      swap1\n      dup2\n      mstore\n      0x20\n      add\n      0x00\n      keccak256\n      0x00\n      swap1\n      sload\n      swap1\n      0x0100\n      exp\n      swap1\n      div\n      0xffffffffffffffffffffffffffffffffffffffff\n      and\n        /* \"contracts/GRB.sol\":11261:11326  _timelock.addressOf[keccak256(abi.encode(\"owner\"))] != address(0) */\n      0xffffffffffffffffffffffffffffffffffffffff\n      and\n      eq\n      iszero\n        /* \"contracts/GRB.sol\":11253:11346  require(_timelock.addressOf[keccak256(abi.encode(\"owner\"))] != address(0), \"INVALID_ADDRESS\") */\n      tag_225\n      jumpi\n      mload(0x40)\n      0x08c379a000000000000000000000000000000000000000000000000000000000\n      dup2\n      mstore\n      0x04\n      add\n      tag_226\n      swap1\n      tag_227\n      jump\t// in\n    tag_226:\n      mload(0x40)\n      dup1\n      swap2\n      sub\n      swap1\n      revert\n    tag_225:\n        /* \"contracts/GRB.sol\":11365:11374  _timelock */\n      dup1\n        /* \"contracts/GRB.sol\":11365:11384  _timelock.addressOf */\n      0x02\n      add\n        /* \"contracts/GRB.sol\":11365:11416  _timelock.addressOf[keccak256(abi.encode(\"owner\"))] */\n      0x00\n        /* \"contracts/GRB.sol\":11395:11414  abi.encode(\"owner\") */\n      add(0x20, mload(0x40))\n      tag_228\n      swap1\n      tag_224\n      jump\t// in\n    tag_228:\n      mload(0x40)\n      0x20\n      dup2\n      dup4\n      sub\n      sub\n      dup2\n      mstore\n      swap1\n      0x40\n      mstore\n        /* \"contracts/GRB.sol\":11385:11415  keccak256(abi.encode(\"owner\")) */\n      dup1\n      mload\n      swap1\n      0x20\n      add\n      keccak256\n        /* \"contracts/GRB.sol\":11365:11416  _timelock.addressOf[keccak256(abi.encode(\"owner\"))] */\n      dup2\n      mstore\n      0x20\n      add\n      swap1\n      dup2\n      mstore\n      0x20\n      add\n      0x00\n      keccak256\n      0x00\n      swap1\n      sload\n      swap1\n      0x0100\n      exp\n      swap1\n      div\n      0xffffffffffffffffffffffffffffffffffffffff\n      and\n        /* \"contracts/GRB.sol\":11357:11362  owner */\n      0x00\n      dup1\n        /* \"contracts/GRB.sol\":11357:11416  owner = _timelock.addressOf[keccak256(abi.encode(\"owner\"))] */\n      0x0100\n      exp\n      dup2\n      sload\n      dup2\n      0xffffffffffffffffffffffffffffffffffffffff\n      mul\n      not\n      and\n      swap1\n      dup4\n      0xffffffffffffffffffffffffffffffffffffffff\n      and\n      mul\n      or\n      swap1\n      sstore\n      pop\n        /* \"contracts/GRB.sol\":11433:11442  _timelock */\n      dup1\n        /* \"contracts/GRB.sol\":11433:11452  _timelock.addressOf */\n      0x02\n      add\n        /* \"contracts/GRB.sol\":11433:11484  _timelock.addressOf[keccak256(abi.encode(\"owner\"))] */\n      0x00\n        /* \"contracts/GRB.sol\":11463:11482  abi.encode(\"owner\") */\n      add(0x20, mload(0x40))\n      tag_229\n      swap1\n      tag_224\n      jump\t// in\n    tag_229:\n      mload(0x40)\n      0x20\n      dup2\n      dup4\n      sub\n      sub\n      dup2\n      mstore\n      swap1\n      0x40\n      mstore\n        /* \"contracts/GRB.sol\":11453:11483  keccak256(abi.encode(\"owner\")) */\n      dup1\n      mload\n      swap1\n      0x20\n      add\n      keccak256\n        /* \"contracts/GRB.sol\":11433:11484  _timelock.addressOf[keccak256(abi.encode(\"owner\"))] */\n      dup2\n      mstore\n      0x20\n      add\n      swap1\n      dup2\n      mstore\n      0x20\n      add\n      0x00\n      keccak256\n      0x00\n        /* \"contracts/GRB.sol\":11426:11484  delete _timelock.addressOf[keccak256(abi.encode(\"owner\"))] */\n      0x0100\n      exp\n      dup2\n      sload\n      swap1\n      0xffffffffffffffffffffffffffffffffffffffff\n      mul\n      not\n      and\n      swap1\n      sstore\n        /* \"contracts/GRB.sol\":11525:11530  false */\n      0x00\n        /* \"contracts/GRB.sol\":11494:11503  _timelock */\n      dup2\n        /* \"contracts/GRB.sol\":11494:11522  _timelock.queuedTransactions */\n      0x00\n      add\n      0x00\n        /* \"contracts/GRB.sol\":11494:11530  _timelock.queuedTransactions = false */\n      0x0100\n      exp\n      dup2\n      sload\n      dup2\n      0xff\n      mul\n      not\n      and\n      swap1\n      dup4\n      iszero\n      iszero\n      mul\n      or\n      swap1\n      sstore\n      pop\n        /* \"contracts/GRB.sol\":11110:11537  {... */\n      pop\n        /* \"contracts/GRB.sol\":11064:11537  function transferOwnership() public onlyOwner {... */\n      jump\t// out\n        /* \"contracts/GRB.sol\":14232:14320  function getOwner() public override view returns (address) {... */\n    tag_99:\n        /* \"contracts/GRB.sol\":14282:14289  address */\n      0x00\n        /* \"contracts/GRB.sol\":14308:14313  owner */\n      dup1\n      0x00\n      swap1\n      sload\n      swap1\n      0x0100\n      exp\n      swap1\n      div\n      0xffffffffffffffffffffffffffffffffffffffff\n      and\n        /* \"contracts/GRB.sol\":14301:14313  return owner */\n      swap1\n      pop\n        /* \"contracts/GRB.sol\":14232:14320  function getOwner() public override view returns (address) {... */\n      swap1\n      jump\t// out\n        /* \"contracts/GRB.sol\":9797:10063  function cancelTransactions(string memory _functionName) public onlyOwner {... */\n    tag_105:\n        /* \"contracts/GRB.sol\":8901:8906  owner */\n      0x00\n      dup1\n      sload\n      swap1\n      0x0100\n      exp\n      swap1\n      div\n      0xffffffffffffffffffffffffffffffffffffffff\n      and\n        /* \"contracts/GRB.sol\":8887:8906  msg.sender == owner */\n      0xffffffffffffffffffffffffffffffffffffffff\n      and\n        /* \"contracts/GRB.sol\":8887:8897  msg.sender */\n      caller\n        /* \"contracts/GRB.sol\":8887:8906  msg.sender == owner */\n      0xffffffffffffffffffffffffffffffffffffffff\n      and\n      eq\n        /* \"contracts/GRB.sol\":8879:8929  require(msg.sender == owner, \"INVALID_PERMISSION\") */\n      tag_232\n      jumpi\n      mload(0x40)\n      0x08c379a000000000000000000000000000000000000000000000000000000000\n      dup2\n      mstore\n      0x04\n      add\n      tag_233\n      swap1\n      tag_168\n      jump\t// in\n    tag_233:\n      mload(0x40)\n      dup1\n      swap2\n      sub\n      swap1\n      revert\n    tag_232:\n        /* \"contracts/GRB.sol\":9882:9908  TimeLock storage _timelock */\n      0x00\n        /* \"contracts/GRB.sol\":9911:9921  timeLockOf */\n      0x01\n        /* \"contracts/GRB.sol\":9911:9959  timeLockOf[keccak256(abi.encode(_functionName))] */\n      0x00\n        /* \"contracts/GRB.sol\":9943:9956  _functionName */\n      dup4\n        /* \"contracts/GRB.sol\":9932:9957  abi.encode(_functionName) */\n      add(0x20, mload(0x40))\n      tag_235\n      swap2\n      swap1\n      tag_44\n      jump\t// in\n    tag_235:\n      mload(0x40)\n      0x20\n      dup2\n      dup4\n      sub\n      sub\n      dup2\n      mstore\n      swap1\n      0x40\n      mstore\n        /* \"contracts/GRB.sol\":9922:9958  keccak256(abi.encode(_functionName)) */\n      dup1\n      mload\n      swap1\n      0x20\n      add\n      keccak256\n        /* \"contracts/GRB.sol\":9911:9959  timeLockOf[keccak256(abi.encode(_functionName))] */\n      dup2\n      mstore\n      0x20\n      add\n      swap1\n      dup2\n      mstore\n      0x20\n      add\n      0x00\n      keccak256\n        /* \"contracts/GRB.sol\":9882:9959  TimeLock storage _timelock = timeLockOf[keccak256(abi.encode(_functionName))] */\n      swap1\n      pop\n        /* \"contracts/GRB.sol\":10000:10005  false */\n      0x00\n        /* \"contracts/GRB.sol\":9969:9978  _timelock */\n      dup2\n        /* \"contracts/GRB.sol\":9969:9997  _timelock.queuedTransactions */\n      0x00\n      add\n      0x00\n        /* \"contracts/GRB.sol\":9969:10005  _timelock.queuedTransactions = false */\n      0x0100\n      exp\n      dup2\n      sload\n      dup2\n      0xff\n      mul\n      not\n      and\n      swap1\n      dup4\n      iszero\n      iszero\n      mul\n      or\n      swap1\n      sstore\n      pop\n        /* \"contracts/GRB.sol\":10021:10056  onCancelTransactions(_functionName) */\n      0xce369f91d52b663114643c430217b52530c2cc7318cac7a3e9d46241cbc354a8\n        /* \"contracts/GRB.sol\":10042:10055  _functionName */\n      dup3\n        /* \"contracts/GRB.sol\":10021:10056  onCancelTransactions(_functionName) */\n      mload(0x40)\n      tag_236\n      swap2\n      swap1\n      tag_44\n      jump\t// in\n    tag_236:\n      mload(0x40)\n      dup1\n      swap2\n      sub\n      swap1\n      log1\n        /* \"contracts/GRB.sol\":9871:10063  {... */\n      pop\n        /* \"contracts/GRB.sol\":9797:10063  function cancelTransactions(string memory _functionName) public onlyOwner {... */\n      pop\n      jump\t// out\n        /* \"contracts/GRB.sol\":7993:8013  address public owner */\n    tag_107:\n      0x00\n      dup1\n      sload\n      swap1\n      0x0100\n      exp\n      swap1\n      div\n      0xffffffffffffffffffffffffffffffffffffffff\n      and\n      dup2\n      jump\t// out\n        /* \"contracts/GRB.sol\":12551:13044  function setMaxTotalSupply() public onlyOwner {... */\n    tag_110:\n        /* \"contracts/GRB.sol\":8901:8906  owner */\n      0x00\n      dup1\n      sload\n      swap1\n      0x0100\n      exp\n      swap1\n      div\n      0xffffffffffffffffffffffffffffffffffffffff\n      and\n        /* \"contracts/GRB.sol\":8887:8906  msg.sender == owner */\n      0xffffffffffffffffffffffffffffffffffffffff\n      and\n        /* \"contracts/GRB.sol\":8887:8897  msg.sender */\n      caller\n        /* \"contracts/GRB.sol\":8887:8906  msg.sender == owner */\n      0xffffffffffffffffffffffffffffffffffffffff\n      and\n      eq\n        /* \"contracts/GRB.sol\":8879:8929  require(msg.sender == owner, \"INVALID_PERMISSION\") */\n      tag_238\n      jumpi\n      mload(0x40)\n      0x08c379a000000000000000000000000000000000000000000000000000000000\n      dup2\n      mstore\n      0x04\n      add\n      tag_239\n      swap1\n      tag_168\n      jump\t// in\n    tag_239:\n      mload(0x40)\n      dup1\n      swap2\n      sub\n      swap1\n      revert\n    tag_238:\n        /* \"contracts/GRB.sol\":12608:12634  TimeLock storage _timelock */\n      0x00\n        /* \"contracts/GRB.sol\":12637:12647  timeLockOf */\n      0x01\n        /* \"contracts/GRB.sol\":12637:12691  timeLockOf[keccak256(abi.encode(\"setMaxTotalSupply\"))] */\n      0x00\n        /* \"contracts/GRB.sol\":12658:12689  abi.encode(\"setMaxTotalSupply\") */\n      add(0x20, mload(0x40))\n      tag_241\n      swap1\n      tag_242\n      jump\t// in\n    tag_241:\n      mload(0x40)\n      0x20\n      dup2\n      dup4\n      sub\n      sub\n      dup2\n      mstore\n      swap1\n      0x40\n      mstore\n        /* \"contracts/GRB.sol\":12648:12690  keccak256(abi.encode(\"setMaxTotalSupply\")) */\n      dup1\n      mload\n      swap1\n      0x20\n      add\n      keccak256\n        /* \"contracts/GRB.sol\":12637:12691  timeLockOf[keccak256(abi.encode(\"setMaxTotalSupply\"))] */\n      dup2\n      mstore\n      0x20\n      add\n      swap1\n      dup2\n      mstore\n      0x20\n      add\n      0x00\n      keccak256\n        /* \"contracts/GRB.sol\":12608:12691  TimeLock storage _timelock = timeLockOf[keccak256(abi.encode(\"setMaxTotalSupply\"))] */\n      swap1\n      pop\n        /* \"contracts/GRB.sol\":12702:12730  _validateTimelock(_timelock) */\n      tag_243\n        /* \"contracts/GRB.sol\":12720:12729  _timelock */\n      dup2\n        /* \"contracts/GRB.sol\":12702:12719  _validateTimelock */\n      tag_222\n        /* \"contracts/GRB.sol\":12702:12730  _validateTimelock(_timelock) */\n      jump\t// in\n    tag_243:\n        /* \"contracts/GRB.sol\":12809:12810  0 */\n      0x00\n        /* \"contracts/GRB.sol\":12748:12757  _timelock */\n      dup2\n        /* \"contracts/GRB.sol\":12748:12764  _timelock.uintOf */\n      0x03\n      add\n        /* \"contracts/GRB.sol\":12748:12806  _timelock.uintOf[keccak256(abi.encode(\"_maxTotalSupply\"))] */\n      0x00\n        /* \"contracts/GRB.sol\":12775:12804  abi.encode(\"_maxTotalSupply\") */\n      add(0x20, mload(0x40))\n      tag_244\n      swap1\n      tag_245\n      jump\t// in\n    tag_244:\n      mload(0x40)\n      0x20\n      dup2\n      dup4\n      sub\n      sub\n      dup2\n      mstore\n      swap1\n      0x40\n      mstore\n        /* \"contracts/GRB.sol\":12765:12805  keccak256(abi.encode(\"_maxTotalSupply\")) */\n      dup1\n      mload\n      swap1\n      0x20\n      add\n      keccak256\n        /* \"contracts/GRB.sol\":12748:12806  _timelock.uintOf[keccak256(abi.encode(\"_maxTotalSupply\"))] */\n      dup2\n      mstore\n      0x20\n      add\n      swap1\n      dup2\n      mstore\n      0x20\n      add\n      0x00\n      keccak256\n      sload\n        /* \"contracts/GRB.sol\":12748:12810  _timelock.uintOf[keccak256(abi.encode(\"_maxTotalSupply\"))] > 0 */\n      gt\n        /* \"contracts/GRB.sol\":12740:12829  require(_timelock.uintOf[keccak256(abi.encode(\"_maxTotalSupply\"))] > 0, \"INVALID_AMOUNT\") */\n      tag_246\n      jumpi\n      mload(0x40)\n      0x08c379a000000000000000000000000000000000000000000000000000000000\n      dup2\n      mstore\n      0x04\n      add\n      tag_247\n      swap1\n      tag_180\n      jump\t// in\n    tag_247:\n      mload(0x40)\n      dup1\n      swap2\n      sub\n      swap1\n      revert\n    tag_246:\n        /* \"contracts/GRB.sol\":12858:12867  _timelock */\n      dup1\n        /* \"contracts/GRB.sol\":12858:12874  _timelock.uintOf */\n      0x03\n      add\n        /* \"contracts/GRB.sol\":12858:12916  _timelock.uintOf[keccak256(abi.encode(\"_maxTotalSupply\"))] */\n      0x00\n        /* \"contracts/GRB.sol\":12885:12914  abi.encode(\"_maxTotalSupply\") */\n      add(0x20, mload(0x40))\n      tag_248\n      swap1\n      tag_245\n      jump\t// in\n    tag_248:\n      mload(0x40)\n      0x20\n      dup2\n      dup4\n      sub\n      sub\n      dup2\n      mstore\n      swap1\n      0x40\n      mstore\n        /* \"contracts/GRB.sol\":12875:12915  keccak256(abi.encode(\"_maxTotalSupply\")) */\n      dup1\n      mload\n      swap1\n      0x20\n      add\n      keccak256\n        /* \"contracts/GRB.sol\":12858:12916  _timelock.uintOf[keccak256(abi.encode(\"_maxTotalSupply\"))] */\n      dup2\n      mstore\n      0x20\n      add\n      swap1\n      dup2\n      mstore\n      0x20\n      add\n      0x00\n      keccak256\n      sload\n        /* \"contracts/GRB.sol\":12840:12855  _maxTotalSupply */\n      0x05\n        /* \"contracts/GRB.sol\":12840:12916  _maxTotalSupply = _timelock.uintOf[keccak256(abi.encode(\"_maxTotalSupply\"))] */\n      dup2\n      swap1\n      sstore\n      pop\n        /* \"contracts/GRB.sol\":12933:12942  _timelock */\n      dup1\n        /* \"contracts/GRB.sol\":12933:12949  _timelock.uintOf */\n      0x03\n      add\n        /* \"contracts/GRB.sol\":12933:12991  _timelock.uintOf[keccak256(abi.encode(\"_maxTotalSupply\"))] */\n      0x00\n        /* \"contracts/GRB.sol\":12960:12989  abi.encode(\"_maxTotalSupply\") */\n      add(0x20, mload(0x40))\n      tag_249\n      swap1\n      tag_245\n      jump\t// in\n    tag_249:\n      mload(0x40)\n      0x20\n      dup2\n      dup4\n      sub\n      sub\n      dup2\n      mstore\n      swap1\n      0x40\n      mstore\n        /* \"contracts/GRB.sol\":12950:12990  keccak256(abi.encode(\"_maxTotalSupply\")) */\n      dup1\n      mload\n      swap1\n      0x20\n      add\n      keccak256\n        /* \"contracts/GRB.sol\":12933:12991  _timelock.uintOf[keccak256(abi.encode(\"_maxTotalSupply\"))] */\n      dup2\n      mstore\n      0x20\n      add\n      swap1\n      dup2\n      mstore\n      0x20\n      add\n      0x00\n      keccak256\n        /* \"contracts/GRB.sol\":12926:12991  delete _timelock.uintOf[keccak256(abi.encode(\"_maxTotalSupply\"))] */\n      0x00\n      swap1\n      sstore\n        /* \"contracts/GRB.sol\":13032:13037  false */\n      0x00\n        /* \"contracts/GRB.sol\":13001:13010  _timelock */\n      dup2\n        /* \"contracts/GRB.sol\":13001:13029  _timelock.queuedTransactions */\n      0x00\n      add\n      0x00\n        /* \"contracts/GRB.sol\":13001:13037  _timelock.queuedTransactions = false */\n      0x0100\n      exp\n      dup2\n      sload\n      dup2\n      0xff\n      mul\n      not\n      and\n      swap1\n      dup4\n      iszero\n      iszero\n      mul\n      or\n      swap1\n      sstore\n      pop\n        /* \"contracts/GRB.sol\":12597:13044  {... */\n      pop\n        /* \"contracts/GRB.sol\":12551:13044  function setMaxTotalSupply() public onlyOwner {... */\n      jump\t// out\n        /* \"contracts/GRB.sol\":11543:12045  function setMiningMachine() public onlyOwner {... */\n    tag_112:\n        /* \"contracts/GRB.sol\":8901:8906  owner */\n      0x00\n      dup1\n      sload\n      swap1\n      0x0100\n      exp\n      swap1\n      div\n      0xffffffffffffffffffffffffffffffffffffffff\n      and\n        /* \"contracts/GRB.sol\":8887:8906  msg.sender == owner */\n      0xffffffffffffffffffffffffffffffffffffffff\n      and\n        /* \"contracts/GRB.sol\":8887:8897  msg.sender */\n      caller\n        /* \"contracts/GRB.sol\":8887:8906  msg.sender == owner */\n      0xffffffffffffffffffffffffffffffffffffffff\n      and\n      eq\n        /* \"contracts/GRB.sol\":8879:8929  require(msg.sender == owner, \"INVALID_PERMISSION\") */\n      tag_251\n      jumpi\n      mload(0x40)\n      0x08c379a000000000000000000000000000000000000000000000000000000000\n      dup2\n      mstore\n      0x04\n      add\n      tag_252\n      swap1\n      tag_168\n      jump\t// in\n    tag_252:\n      mload(0x40)\n      dup1\n      swap2\n      sub\n      swap1\n      revert\n    tag_251:\n        /* \"contracts/GRB.sol\":11598:11624  TimeLock storage _timelock */\n      0x00\n        /* \"contracts/GRB.sol\":11627:11637  timeLockOf */\n      0x01\n        /* \"contracts/GRB.sol\":11627:11680  timeLockOf[keccak256(abi.encode(\"setMiningMachine\"))] */\n      0x00\n        /* \"contracts/GRB.sol\":11648:11678  abi.encode(\"setMiningMachine\") */\n      add(0x20, mload(0x40))\n      tag_254\n      swap1\n      tag_255\n      jump\t// in\n    tag_254:\n      mload(0x40)\n      0x20\n      dup2\n      dup4\n      sub\n      sub\n      dup2\n      mstore\n      swap1\n      0x40\n      mstore\n        /* \"contracts/GRB.sol\":11638:11679  keccak256(abi.encode(\"setMiningMachine\")) */\n      dup1\n      mload\n      swap1\n      0x20\n      add\n      keccak256\n        /* \"contracts/GRB.sol\":11627:11680  timeLockOf[keccak256(abi.encode(\"setMiningMachine\"))] */\n      dup2\n      mstore\n      0x20\n      add\n      swap1\n      dup2\n      mstore\n      0x20\n      add\n      0x00\n      keccak256\n        /* \"contracts/GRB.sol\":11598:11680  TimeLock storage _timelock = timeLockOf[keccak256(abi.encode(\"setMiningMachine\"))] */\n      swap1\n      pop\n        /* \"contracts/GRB.sol\":11691:11719  _validateTimelock(_timelock) */\n      tag_256\n        /* \"contracts/GRB.sol\":11709:11718  _timelock */\n      dup2\n        /* \"contracts/GRB.sol\":11691:11708  _validateTimelock */\n      tag_222\n        /* \"contracts/GRB.sol\":11691:11719  _validateTimelock(_timelock) */\n      jump\t// in\n    tag_256:\n        /* \"contracts/GRB.sol\":11808:11809  0 */\n      0x00\n        /* \"contracts/GRB.sol\":11737:11810  _timelock.addressOf[keccak256(abi.encode(\"miningMachine\"))] != address(0) */\n      0xffffffffffffffffffffffffffffffffffffffff\n      and\n        /* \"contracts/GRB.sol\":11737:11746  _timelock */\n      dup2\n        /* \"contracts/GRB.sol\":11737:11756  _timelock.addressOf */\n      0x02\n      add\n        /* \"contracts/GRB.sol\":11737:11796  _timelock.addressOf[keccak256(abi.encode(\"miningMachine\"))] */\n      0x00\n        /* \"contracts/GRB.sol\":11767:11794  abi.encode(\"miningMachine\") */\n      add(0x20, mload(0x40))\n      tag_257\n      swap1\n      tag_258\n      jump\t// in\n    tag_257:\n      mload(0x40)\n      0x20\n      dup2\n      dup4\n      sub\n      sub\n      dup2\n      mstore\n      swap1\n      0x40\n      mstore\n        /* \"contracts/GRB.sol\":11757:11795  keccak256(abi.encode(\"miningMachine\")) */\n      dup1\n      mload\n      swap1\n      0x20\n      add\n      keccak256\n        /* \"contracts/GRB.sol\":11737:11796  _timelock.addressOf[keccak256(abi.encode(\"miningMachine\"))] */\n      dup2\n      mstore\n      0x20\n      add\n      swap1\n      dup2\n      mstore\n      0x20\n      add\n      0x00\n      keccak256\n      0x00\n      swap1\n      sload\n      swap1\n      0x0100\n      exp\n      swap1\n      div\n      0xffffffffffffffffffffffffffffffffffffffff\n      and\n        /* \"contracts/GRB.sol\":11737:11810  _timelock.addressOf[keccak256(abi.encode(\"miningMachine\"))] != address(0) */\n      0xffffffffffffffffffffffffffffffffffffffff\n      and\n      eq\n      iszero\n        /* \"contracts/GRB.sol\":11729:11830  require(_timelock.addressOf[keccak256(abi.encode(\"miningMachine\"))] != address(0), \"INVALID_ADDRESS\") */\n      tag_259\n      jumpi\n      mload(0x40)\n      0x08c379a000000000000000000000000000000000000000000000000000000000\n      dup2\n      mstore\n      0x04\n      add\n      tag_260\n      swap1\n      tag_227\n      jump\t// in\n    tag_260:\n      mload(0x40)\n      dup1\n      swap2\n      sub\n      swap1\n      revert\n    tag_259:\n        /* \"contracts/GRB.sol\":11857:11866  _timelock */\n      dup1\n        /* \"contracts/GRB.sol\":11857:11876  _timelock.addressOf */\n      0x02\n      add\n        /* \"contracts/GRB.sol\":11857:11916  _timelock.addressOf[keccak256(abi.encode(\"miningMachine\"))] */\n      0x00\n        /* \"contracts/GRB.sol\":11887:11914  abi.encode(\"miningMachine\") */\n      add(0x20, mload(0x40))\n      tag_261\n      swap1\n      tag_258\n      jump\t// in\n    tag_261:\n      mload(0x40)\n      0x20\n      dup2\n      dup4\n      sub\n      sub\n      dup2\n      mstore\n      swap1\n      0x40\n      mstore\n        /* \"contracts/GRB.sol\":11877:11915  keccak256(abi.encode(\"miningMachine\")) */\n      dup1\n      mload\n      swap1\n      0x20\n      add\n      keccak256\n        /* \"contracts/GRB.sol\":11857:11916  _timelock.addressOf[keccak256(abi.encode(\"miningMachine\"))] */\n      dup2\n      mstore\n      0x20\n      add\n      swap1\n      dup2\n      mstore\n      0x20\n      add\n      0x00\n      keccak256\n      0x00\n      swap1\n      sload\n      swap1\n      0x0100\n      exp\n      swap1\n      div\n      0xffffffffffffffffffffffffffffffffffffffff\n      and\n        /* \"contracts/GRB.sol\":11841:11854  miningMachine */\n      0x08\n      0x01\n        /* \"contracts/GRB.sol\":11841:11916  miningMachine = _timelock.addressOf[keccak256(abi.encode(\"miningMachine\"))] */\n      0x0100\n      exp\n      dup2\n      sload\n      dup2\n      0xffffffffffffffffffffffffffffffffffffffff\n      mul\n      not\n      and\n      swap1\n      dup4\n      0xffffffffffffffffffffffffffffffffffffffff\n      and\n      mul\n      or\n      swap1\n      sstore\n      pop\n        /* \"contracts/GRB.sol\":11933:11942  _timelock */\n      dup1\n        /* \"contracts/GRB.sol\":11933:11952  _timelock.addressOf */\n      0x02\n      add\n        /* \"contracts/GRB.sol\":11933:11992  _timelock.addressOf[keccak256(abi.encode(\"miningMachine\"))] */\n      0x00\n        /* \"contracts/GRB.sol\":11963:11990  abi.encode(\"miningMachine\") */\n      add(0x20, mload(0x40))\n      tag_262\n      swap1\n      tag_258\n      jump\t// in\n    tag_262:\n      mload(0x40)\n      0x20\n      dup2\n      dup4\n      sub\n      sub\n      dup2\n      mstore\n      swap1\n      0x40\n      mstore\n        /* \"contracts/GRB.sol\":11953:11991  keccak256(abi.encode(\"miningMachine\")) */\n      dup1\n      mload\n      swap1\n      0x20\n      add\n      keccak256\n        /* \"contracts/GRB.sol\":11933:11992  _timelock.addressOf[keccak256(abi.encode(\"miningMachine\"))] */\n      dup2\n      mstore\n      0x20\n      add\n      swap1\n      dup2\n      mstore\n      0x20\n      add\n      0x00\n      keccak256\n      0x00\n        /* \"contracts/GRB.sol\":11926:11992  delete _timelock.addressOf[keccak256(abi.encode(\"miningMachine\"))] */\n      0x0100\n      exp\n      dup2\n      sload\n      swap1\n      0xffffffffffffffffffffffffffffffffffffffff\n      mul\n      not\n      and\n      swap1\n      sstore\n        /* \"contracts/GRB.sol\":12033:12038  false */\n      0x00\n        /* \"contracts/GRB.sol\":12002:12011  _timelock */\n      dup2\n        /* \"contracts/GRB.sol\":12002:12030  _timelock.queuedTransactions */\n      0x00\n      add\n      0x00\n        /* \"contracts/GRB.sol\":12002:12038  _timelock.queuedTransactions = false */\n      0x0100\n      exp\n      dup2\n      sload\n      dup2\n      0xff\n      mul\n      not\n      and\n      swap1\n      dup4\n      iszero\n      iszero\n      mul\n      or\n      swap1\n      sstore\n      pop\n        /* \"contracts/GRB.sol\":11588:12045  {... */\n      pop\n        /* \"contracts/GRB.sol\":11543:12045  function setMiningMachine() public onlyOwner {... */\n      jump\t// out\n        /* \"contracts/GRB.sol\":10574:11058  function queuedTransactionsChangeUint(string memory _functionName, string memory _fieldName, uint256 _value) public onlyOwner ... */\n    tag_116:\n        /* \"contracts/GRB.sol\":8901:8906  owner */\n      0x00\n      dup1\n      sload\n      swap1\n      0x0100\n      exp\n      swap1\n      div\n      0xffffffffffffffffffffffffffffffffffffffff\n      and\n        /* \"contracts/GRB.sol\":8887:8906  msg.sender == owner */\n      0xffffffffffffffffffffffffffffffffffffffff\n      and\n        /* \"contracts/GRB.sol\":8887:8897  msg.sender */\n      caller\n        /* \"contracts/GRB.sol\":8887:8906  msg.sender == owner */\n      0xffffffffffffffffffffffffffffffffffffffff\n      and\n      eq\n        /* \"contracts/GRB.sol\":8879:8929  require(msg.sender == owner, \"INVALID_PERMISSION\") */\n      tag_264\n      jumpi\n      mload(0x40)\n      0x08c379a000000000000000000000000000000000000000000000000000000000\n      dup2\n      mstore\n      0x04\n      add\n      tag_265\n      swap1\n      tag_168\n      jump\t// in\n    tag_265:\n      mload(0x40)\n      dup1\n      swap2\n      sub\n      swap1\n      revert\n    tag_264:\n        /* \"contracts/GRB.sol\":10715:10741  TimeLock storage _timelock */\n      0x00\n        /* \"contracts/GRB.sol\":10744:10754  timeLockOf */\n      0x01\n        /* \"contracts/GRB.sol\":10744:10792  timeLockOf[keccak256(abi.encode(_functionName))] */\n      0x00\n        /* \"contracts/GRB.sol\":10776:10789  _functionName */\n      dup6\n        /* \"contracts/GRB.sol\":10765:10790  abi.encode(_functionName) */\n      add(0x20, mload(0x40))\n      tag_267\n      swap2\n      swap1\n      tag_44\n      jump\t// in\n    tag_267:\n      mload(0x40)\n      0x20\n      dup2\n      dup4\n      sub\n      sub\n      dup2\n      mstore\n      swap1\n      0x40\n      mstore\n        /* \"contracts/GRB.sol\":10755:10791  keccak256(abi.encode(_functionName)) */\n      dup1\n      mload\n      swap1\n      0x20\n      add\n      keccak256\n        /* \"contracts/GRB.sol\":10744:10792  timeLockOf[keccak256(abi.encode(_functionName))] */\n      dup2\n      mstore\n      0x20\n      add\n      swap1\n      dup2\n      mstore\n      0x20\n      add\n      0x00\n      keccak256\n        /* \"contracts/GRB.sol\":10715:10792  TimeLock storage _timelock = timeLockOf[keccak256(abi.encode(_functionName))] */\n      swap1\n      pop\n        /* \"contracts/GRB.sol\":10857:10863  _value */\n      dup2\n        /* \"contracts/GRB.sol\":10803:10812  _timelock */\n      dup2\n        /* \"contracts/GRB.sol\":10803:10819  _timelock.uintOf */\n      0x03\n      add\n        /* \"contracts/GRB.sol\":10803:10854  _timelock.uintOf[keccak256(abi.encode(_fieldName))] */\n      0x00\n        /* \"contracts/GRB.sol\":10841:10851  _fieldName */\n      dup6\n        /* \"contracts/GRB.sol\":10830:10852  abi.encode(_fieldName) */\n      add(0x20, mload(0x40))\n      tag_268\n      swap2\n      swap1\n      tag_44\n      jump\t// in\n    tag_268:\n      mload(0x40)\n      0x20\n      dup2\n      dup4\n      sub\n      sub\n      dup2\n      mstore\n      swap1\n      0x40\n      mstore\n        /* \"contracts/GRB.sol\":10820:10853  keccak256(abi.encode(_fieldName)) */\n      dup1\n      mload\n      swap1\n      0x20\n      add\n      keccak256\n        /* \"contracts/GRB.sol\":10803:10854  _timelock.uintOf[keccak256(abi.encode(_fieldName))] */\n      dup2\n      mstore\n      0x20\n      add\n      swap1\n      dup2\n      mstore\n      0x20\n      add\n      0x00\n      keccak256\n        /* \"contracts/GRB.sol\":10803:10863  _timelock.uintOf[keccak256(abi.encode(_fieldName))] = _value */\n      dup2\n      swap1\n      sstore\n      pop\n        /* \"contracts/GRB.sol\":10904:10908  true */\n      0x01\n        /* \"contracts/GRB.sol\":10873:10882  _timelock */\n      dup2\n        /* \"contracts/GRB.sol\":10873:10901  _timelock.queuedTransactions */\n      0x00\n      add\n      0x00\n        /* \"contracts/GRB.sol\":10873:10908  _timelock.queuedTransactions = true */\n      0x0100\n      exp\n      dup2\n      sload\n      dup2\n      0xff\n      mul\n      not\n      and\n      swap1\n      dup4\n      iszero\n      iszero\n      mul\n      or\n      swap1\n      sstore\n      pop\n        /* \"contracts/GRB.sol\":10944:10970  block.timestamp.add(delay) */\n      tag_269\n        /* \"contracts/GRB.sol\":10964:10969  delay */\n      sload(0x0a)\n        /* \"contracts/GRB.sol\":10944:10959  block.timestamp */\n      timestamp\n        /* \"contracts/GRB.sol\":10944:10963  block.timestamp.add */\n      tag_173\n      swap1\n        /* \"contracts/GRB.sol\":10944:10970  block.timestamp.add(delay) */\n      swap2\n      swap1\n      0xffffffff\n      and\n      jump\t// in\n    tag_269:\n        /* \"contracts/GRB.sol\":10918:10927  _timelock */\n      dup2\n        /* \"contracts/GRB.sol\":10918:10941  _timelock.timeOfExecute */\n      0x01\n      add\n        /* \"contracts/GRB.sol\":10918:10970  _timelock.timeOfExecute = block.timestamp.add(delay) */\n      dup2\n      swap1\n      sstore\n      pop\n        /* \"contracts/GRB.sol\":10986:11051  onQueuedTransactionsChangeUint(_functionName, _fieldName, _value) */\n      0x860699cc7b0f3cb3d034fd31cdfe0816887a9f55d10993224d77c359c3d55551\n        /* \"contracts/GRB.sol\":11017:11030  _functionName */\n      dup5\n        /* \"contracts/GRB.sol\":11032:11042  _fieldName */\n      dup5\n        /* \"contracts/GRB.sol\":11044:11050  _value */\n      dup5\n        /* \"contracts/GRB.sol\":10986:11051  onQueuedTransactionsChangeUint(_functionName, _fieldName, _value) */\n      mload(0x40)\n      tag_270\n      swap4\n      swap3\n      swap2\n      swap1\n      tag_271\n      jump\t// in\n    tag_270:\n      mload(0x40)\n      dup1\n      swap2\n      sub\n      swap1\n      log1\n        /* \"contracts/GRB.sol\":10705:11058  {... */\n      pop\n        /* \"contracts/GRB.sol\":10574:11058  function queuedTransactionsChangeUint(string memory _functionName, string memory _fieldName, uint256 _value) public onlyOwner ... */\n      pop\n      pop\n      pop\n      jump\t// out\n        /* \"contracts/GRB.sol\":8336:8373  string public override symbol = \"GRB\" */\n    tag_118:\n      0x07\n      dup1\n      sload\n      tag_272\n      swap1\n      tag_155\n      jump\t// in\n    tag_272:\n      dup1\n      0x1f\n      add\n      0x20\n      dup1\n      swap2\n      div\n      mul\n      0x20\n      add\n      mload(0x40)\n      swap1\n      dup2\n      add\n      0x40\n      mstore\n      dup1\n      swap3\n      swap2\n      swap1\n      dup2\n      dup2\n      mstore\n      0x20\n      add\n      dup3\n      dup1\n      sload\n      tag_273\n      swap1\n      tag_155\n      jump\t// in\n    tag_273:\n      dup1\n      iszero\n      tag_274\n      jumpi\n      dup1\n      0x1f\n      lt\n      tag_275\n      jumpi\n      0x0100\n      dup1\n      dup4\n      sload\n      div\n      mul\n      dup4\n      mstore\n      swap2\n      0x20\n      add\n      swap2\n      jump(tag_274)\n    tag_275:\n      dup3\n      add\n      swap2\n      swap1\n      0x00\n      mstore\n      keccak256(0x00, 0x20)\n      swap1\n    tag_276:\n      dup2\n      sload\n      dup2\n      mstore\n      swap1\n      0x01\n      add\n      swap1\n      0x20\n      add\n      dup1\n      dup4\n      gt\n      tag_276\n      jumpi\n      dup3\n      swap1\n      sub\n      0x1f\n      and\n      dup3\n      add\n      swap2\n    tag_274:\n      pop\n      pop\n      pop\n      pop\n      pop\n      dup2\n      jump\t// out\n        /* \"contracts/GRB.sol\":15150:15400  function burn(address account, uint256 amount) public virtual onlyBurnMachine {... */\n    tag_122:\n        /* \"contracts/GRB.sol\":9142:9153  burnMachine */\n      0x09\n      0x00\n      swap1\n      sload\n      swap1\n      0x0100\n      exp\n      swap1\n      div\n      0xffffffffffffffffffffffffffffffffffffffff\n      and\n        /* \"contracts/GRB.sol\":9128:9153  msg.sender == burnMachine */\n      0xffffffffffffffffffffffffffffffffffffffff\n      and\n        /* \"contracts/GRB.sol\":9128:9138  msg.sender */\n      caller\n        /* \"contracts/GRB.sol\":9128:9153  msg.sender == burnMachine */\n      0xffffffffffffffffffffffffffffffffffffffff\n      and\n      eq\n        /* \"contracts/GRB.sol\":9120:9176  require(msg.sender == burnMachine, \"INVALID_PERMISSION\") */\n      tag_278\n      jumpi\n      mload(0x40)\n      0x08c379a000000000000000000000000000000000000000000000000000000000\n      dup2\n      mstore\n      0x04\n      add\n      tag_279\n      swap1\n      tag_168\n      jump\t// in\n    tag_279:\n      mload(0x40)\n      dup1\n      swap2\n      sub\n      swap1\n      revert\n    tag_278:\n        /* \"contracts/GRB.sol\":15260:15290  _balances[account].sub(amount) */\n      tag_281\n        /* \"contracts/GRB.sol\":15283:15289  amount */\n      dup2\n        /* \"contracts/GRB.sol\":15260:15269  _balances */\n      0x02\n        /* \"contracts/GRB.sol\":15260:15278  _balances[account] */\n      0x00\n        /* \"contracts/GRB.sol\":15270:15277  account */\n      dup6\n        /* \"contracts/GRB.sol\":15260:15278  _balances[account] */\n      0xffffffffffffffffffffffffffffffffffffffff\n      and\n      0xffffffffffffffffffffffffffffffffffffffff\n      and\n      dup2\n      mstore\n      0x20\n      add\n      swap1\n      dup2\n      mstore\n      0x20\n      add\n      0x00\n      keccak256\n      sload\n        /* \"contracts/GRB.sol\":15260:15282  _balances[account].sub */\n      tag_187\n      swap1\n        /* \"contracts/GRB.sol\":15260:15290  _balances[account].sub(amount) */\n      swap2\n      swap1\n      0xffffffff\n      and\n      jump\t// in\n    tag_281:\n        /* \"contracts/GRB.sol\":15239:15248  _balances */\n      0x02\n        /* \"contracts/GRB.sol\":15239:15257  _balances[account] */\n      0x00\n        /* \"contracts/GRB.sol\":15249:15256  account */\n      dup5\n        /* \"contracts/GRB.sol\":15239:15257  _balances[account] */\n      0xffffffffffffffffffffffffffffffffffffffff\n      and\n      0xffffffffffffffffffffffffffffffffffffffff\n      and\n      dup2\n      mstore\n      0x20\n      add\n      swap1\n      dup2\n      mstore\n      0x20\n      add\n      0x00\n      keccak256\n        /* \"contracts/GRB.sol\":15239:15290  _balances[account] = _balances[account].sub(amount) */\n      dup2\n      swap1\n      sstore\n      pop\n        /* \"contracts/GRB.sol\":15316:15340  _totalSupply.sub(amount) */\n      tag_282\n        /* \"contracts/GRB.sol\":15333:15339  amount */\n      dup2\n        /* \"contracts/GRB.sol\":15316:15328  _totalSupply */\n      sload(0x04)\n        /* \"contracts/GRB.sol\":15316:15332  _totalSupply.sub */\n      tag_187\n      swap1\n        /* \"contracts/GRB.sol\":15316:15340  _totalSupply.sub(amount) */\n      swap2\n      swap1\n      0xffffffff\n      and\n      jump\t// in\n    tag_282:\n        /* \"contracts/GRB.sol\":15301:15313  _totalSupply */\n      0x04\n        /* \"contracts/GRB.sol\":15301:15340  _totalSupply = _totalSupply.sub(amount) */\n      dup2\n      swap1\n      sstore\n      pop\n        /* \"contracts/GRB.sol\":15382:15383  0 */\n      0x00\n        /* \"contracts/GRB.sol\":15356:15393  Transfer(account, address(0), amount) */\n      0xffffffffffffffffffffffffffffffffffffffff\n      and\n        /* \"contracts/GRB.sol\":15365:15372  account */\n      dup3\n        /* \"contracts/GRB.sol\":15356:15393  Transfer(account, address(0), amount) */\n      0xffffffffffffffffffffffffffffffffffffffff\n      and\n      0xddf252ad1be2c89b69c2b068fc378daa952ba7f163c4a11628f55a4df523b3ef\n        /* \"contracts/GRB.sol\":15386:15392  amount */\n      dup4\n        /* \"contracts/GRB.sol\":15356:15393  Transfer(account, address(0), amount) */\n      mload(0x40)\n      tag_283\n      swap2\n      swap1\n      tag_58\n      jump\t// in\n    tag_283:\n      mload(0x40)\n      dup1\n      swap2\n      sub\n      swap1\n      log3\n        /* \"contracts/GRB.sol\":15150:15400  function burn(address account, uint256 amount) public virtual onlyBurnMachine {... */\n      pop\n      pop\n      jump\t// out\n        /* \"contracts/GRB.sol\":8455:8481  address public burnMachine */\n    tag_124:\n      0x09\n      0x00\n      swap1\n      sload\n      swap1\n      0x0100\n      exp\n      swap1\n      div\n      0xffffffffffffffffffffffffffffffffffffffff\n      and\n      dup2\n      jump\t// out\n        /* \"contracts/GRB.sol\":12051:12545  function setBurnMachine() public onlyOwner {... */\n    tag_127:\n        /* \"contracts/GRB.sol\":8901:8906  owner */\n      0x00\n      dup1\n      sload\n      swap1\n      0x0100\n      exp\n      swap1\n      div\n      0xffffffffffffffffffffffffffffffffffffffff\n      and\n        /* \"contracts/GRB.sol\":8887:8906  msg.sender == owner */\n      0xffffffffffffffffffffffffffffffffffffffff\n      and\n        /* \"contracts/GRB.sol\":8887:8897  msg.sender */\n      caller\n        /* \"contracts/GRB.sol\":8887:8906  msg.sender == owner */\n      0xffffffffffffffffffffffffffffffffffffffff\n      and\n      eq\n        /* \"contracts/GRB.sol\":8879:8929  require(msg.sender == owner, \"INVALID_PERMISSION\") */\n      tag_285\n      jumpi\n      mload(0x40)\n      0x08c379a000000000000000000000000000000000000000000000000000000000\n      dup2\n      mstore\n      0x04\n      add\n      tag_286\n      swap1\n      tag_168\n      jump\t// in\n    tag_286:\n      mload(0x40)\n      dup1\n      swap2\n      sub\n      swap1\n      revert\n    tag_285:\n        /* \"contracts/GRB.sol\":12105:12131  TimeLock storage _timelock */\n      0x00\n        /* \"contracts/GRB.sol\":12134:12144  timeLockOf */\n      0x01\n        /* \"contracts/GRB.sol\":12134:12185  timeLockOf[keccak256(abi.encode(\"setBurnMachine\"))] */\n      0x00\n        /* \"contracts/GRB.sol\":12155:12183  abi.encode(\"setBurnMachine\") */\n      add(0x20, mload(0x40))\n      tag_288\n      swap1\n      tag_289\n      jump\t// in\n    tag_288:\n      mload(0x40)\n      0x20\n      dup2\n      dup4\n      sub\n      sub\n      dup2\n      mstore\n      swap1\n      0x40\n      mstore\n        /* \"contracts/GRB.sol\":12145:12184  keccak256(abi.encode(\"setBurnMachine\")) */\n      dup1\n      mload\n      swap1\n      0x20\n      add\n      keccak256\n        /* \"contracts/GRB.sol\":12134:12185  timeLockOf[keccak256(abi.encode(\"setBurnMachine\"))] */\n      dup2\n      mstore\n      0x20\n      add\n      swap1\n      dup2\n      mstore\n      0x20\n      add\n      0x00\n      keccak256\n        /* \"contracts/GRB.sol\":12105:12185  TimeLock storage _timelock = timeLockOf[keccak256(abi.encode(\"setBurnMachine\"))] */\n      swap1\n      pop\n        /* \"contracts/GRB.sol\":12196:12224  _validateTimelock(_timelock) */\n      tag_290\n        /* \"contracts/GRB.sol\":12214:12223  _timelock */\n      dup2\n        /* \"contracts/GRB.sol\":12196:12213  _validateTimelock */\n      tag_222\n        /* \"contracts/GRB.sol\":12196:12224  _validateTimelock(_timelock) */\n      jump\t// in\n    tag_290:\n        /* \"contracts/GRB.sol\":12314:12315  0 */\n      0x00\n        /* \"contracts/GRB.sol\":12242:12316  _timelock.addressOf[keccak256(abi.encode(\"setBurnMachine\"))] != address(0) */\n      0xffffffffffffffffffffffffffffffffffffffff\n      and\n        /* \"contracts/GRB.sol\":12242:12251  _timelock */\n      dup2\n        /* \"contracts/GRB.sol\":12242:12261  _timelock.addressOf */\n      0x02\n      add\n        /* \"contracts/GRB.sol\":12242:12302  _timelock.addressOf[keccak256(abi.encode(\"setBurnMachine\"))] */\n      0x00\n        /* \"contracts/GRB.sol\":12272:12300  abi.encode(\"setBurnMachine\") */\n      add(0x20, mload(0x40))\n      tag_291\n      swap1\n      tag_289\n      jump\t// in\n    tag_291:\n      mload(0x40)\n      0x20\n      dup2\n      dup4\n      sub\n      sub\n      dup2\n      mstore\n      swap1\n      0x40\n      mstore\n        /* \"contracts/GRB.sol\":12262:12301  keccak256(abi.encode(\"setBurnMachine\")) */\n      dup1\n      mload\n      swap1\n      0x20\n      add\n      keccak256\n        /* \"contracts/GRB.sol\":12242:12302  _timelock.addressOf[keccak256(abi.encode(\"setBurnMachine\"))] */\n      dup2\n      mstore\n      0x20\n      add\n      swap1\n      dup2\n      mstore\n      0x20\n      add\n      0x00\n      keccak256\n      0x00\n      swap1\n      sload\n      swap1\n      0x0100\n      exp\n      swap1\n      div\n      0xffffffffffffffffffffffffffffffffffffffff\n      and\n        /* \"contracts/GRB.sol\":12242:12316  _timelock.addressOf[keccak256(abi.encode(\"setBurnMachine\"))] != address(0) */\n      0xffffffffffffffffffffffffffffffffffffffff\n      and\n      eq\n      iszero\n        /* \"contracts/GRB.sol\":12234:12336  require(_timelock.addressOf[keccak256(abi.encode(\"setBurnMachine\"))] != address(0), \"INVALID_ADDRESS\") */\n      tag_292\n      jumpi\n      mload(0x40)\n      0x08c379a000000000000000000000000000000000000000000000000000000000\n      dup2\n      mstore\n      0x04\n      add\n      tag_293\n      swap1\n      tag_227\n      jump\t// in\n    tag_293:\n      mload(0x40)\n      dup1\n      swap2\n      sub\n      swap1\n      revert\n    tag_292:\n        /* \"contracts/GRB.sol\":12361:12370  _timelock */\n      dup1\n        /* \"contracts/GRB.sol\":12361:12380  _timelock.addressOf */\n      0x02\n      add\n        /* \"contracts/GRB.sol\":12361:12418  _timelock.addressOf[keccak256(abi.encode(\"burnMachine\"))] */\n      0x00\n        /* \"contracts/GRB.sol\":12391:12416  abi.encode(\"burnMachine\") */\n      add(0x20, mload(0x40))\n      tag_294\n      swap1\n      tag_295\n      jump\t// in\n    tag_294:\n      mload(0x40)\n      0x20\n      dup2\n      dup4\n      sub\n      sub\n      dup2\n      mstore\n      swap1\n      0x40\n      mstore\n        /* \"contracts/GRB.sol\":12381:12417  keccak256(abi.encode(\"burnMachine\")) */\n      dup1\n      mload\n      swap1\n      0x20\n      add\n      keccak256\n        /* \"contracts/GRB.sol\":12361:12418  _timelock.addressOf[keccak256(abi.encode(\"burnMachine\"))] */\n      dup2\n      mstore\n      0x20\n      add\n      swap1\n      dup2\n      mstore\n      0x20\n      add\n      0x00\n      keccak256\n      0x00\n      swap1\n      sload\n      swap1\n      0x0100\n      exp\n      swap1\n      div\n      0xffffffffffffffffffffffffffffffffffffffff\n      and\n        /* \"contracts/GRB.sol\":12347:12358  burnMachine */\n      0x09\n      0x00\n        /* \"contracts/GRB.sol\":12347:12418  burnMachine = _timelock.addressOf[keccak256(abi.encode(\"burnMachine\"))] */\n      0x0100\n      exp\n      dup2\n      sload\n      dup2\n      0xffffffffffffffffffffffffffffffffffffffff\n      mul\n      not\n      and\n      swap1\n      dup4\n      0xffffffffffffffffffffffffffffffffffffffff\n      and\n      mul\n      or\n      swap1\n      sstore\n      pop\n        /* \"contracts/GRB.sol\":12435:12444  _timelock */\n      dup1\n        /* \"contracts/GRB.sol\":12435:12454  _timelock.addressOf */\n      0x02\n      add\n        /* \"contracts/GRB.sol\":12435:12492  _timelock.addressOf[keccak256(abi.encode(\"burnMachine\"))] */\n      0x00\n        /* \"contracts/GRB.sol\":12465:12490  abi.encode(\"burnMachine\") */\n      add(0x20, mload(0x40))\n      tag_296\n      swap1\n      tag_295\n      jump\t// in\n    tag_296:\n      mload(0x40)\n      0x20\n      dup2\n      dup4\n      sub\n      sub\n      dup2\n      mstore\n      swap1\n      0x40\n      mstore\n        /* \"contracts/GRB.sol\":12455:12491  keccak256(abi.encode(\"burnMachine\")) */\n      dup1\n      mload\n      swap1\n      0x20\n      add\n      keccak256\n        /* \"contracts/GRB.sol\":12435:12492  _timelock.addressOf[keccak256(abi.encode(\"burnMachine\"))] */\n      dup2\n      mstore\n      0x20\n      add\n      swap1\n      dup2\n      mstore\n      0x20\n      add\n      0x00\n      keccak256\n      0x00\n        /* \"contracts/GRB.sol\":12428:12492  delete _timelock.addressOf[keccak256(abi.encode(\"burnMachine\"))] */\n      0x0100\n      exp\n      dup2\n      sload\n      swap1\n      0xffffffffffffffffffffffffffffffffffffffff\n      mul\n      not\n      and\n      swap1\n      sstore\n        /* \"contracts/GRB.sol\":12533:12538  false */\n      0x00\n        /* \"contracts/GRB.sol\":12502:12511  _timelock */\n      dup2\n        /* \"contracts/GRB.sol\":12502:12530  _timelock.queuedTransactions */\n      0x00\n      add\n      0x00\n        /* \"contracts/GRB.sol\":12502:12538  _timelock.queuedTransactions = false */\n      0x0100\n      exp\n      dup2\n      sload\n      dup2\n      0xff\n      mul\n      not\n      and\n      swap1\n      dup4\n      iszero\n      iszero\n      mul\n      or\n      swap1\n      sstore\n      pop\n        /* \"contracts/GRB.sol\":12094:12545  {... */\n      pop\n        /* \"contracts/GRB.sol\":12051:12545  function setBurnMachine() public onlyOwner {... */\n      jump\t// out\n        /* \"contracts/GRB.sol\":15737:16331  function transfer(address _to, uint256 _amount)... */\n    tag_130:\n        /* \"contracts/GRB.sol\":15850:15854  bool */\n      0x00\n        /* \"contracts/GRB.sol\":15888:15889  0 */\n      dup1\n        /* \"contracts/GRB.sol\":15878:15885  _amount */\n      dup3\n        /* \"contracts/GRB.sol\":15878:15889  _amount > 0 */\n      gt\n        /* \"contracts/GRB.sol\":15870:15908  require(_amount > 0, \"INVALID_AMOUNT\") */\n      tag_298\n      jumpi\n      mload(0x40)\n      0x08c379a000000000000000000000000000000000000000000000000000000000\n      dup2\n      mstore\n      0x04\n      add\n      tag_299\n      swap1\n      tag_180\n      jump\t// in\n    tag_299:\n      mload(0x40)\n      dup1\n      swap2\n      sub\n      swap1\n      revert\n    tag_298:\n        /* \"contracts/GRB.sol\":15951:15958  _amount */\n      dup2\n        /* \"contracts/GRB.sol\":15926:15935  _balances */\n      0x02\n        /* \"contracts/GRB.sol\":15926:15947  _balances[msg.sender] */\n      0x00\n        /* \"contracts/GRB.sol\":15936:15946  msg.sender */\n      caller\n        /* \"contracts/GRB.sol\":15926:15947  _balances[msg.sender] */\n      0xffffffffffffffffffffffffffffffffffffffff\n      and\n      0xffffffffffffffffffffffffffffffffffffffff\n      and\n      dup2\n      mstore\n      0x20\n      add\n      swap1\n      dup2\n      mstore\n      0x20\n      add\n      0x00\n      keccak256\n      sload\n        /* \"contracts/GRB.sol\":15926:15958  _balances[msg.sender] >= _amount */\n      lt\n      iszero\n        /* \"contracts/GRB.sol\":15918:15978  require(_balances[msg.sender] >= _amount, \"INVALID_BALANCE\") */\n      tag_300\n      jumpi\n      mload(0x40)\n      0x08c379a000000000000000000000000000000000000000000000000000000000\n      dup2\n      mstore\n      0x04\n      add\n      tag_301\n      swap1\n      tag_183\n      jump\t// in\n    tag_301:\n      mload(0x40)\n      dup1\n      swap2\n      sub\n      swap1\n      revert\n    tag_300:\n        /* \"contracts/GRB.sol\":16013:16047  _balances[msg.sender].sub(_amount) */\n      tag_302\n        /* \"contracts/GRB.sol\":16039:16046  _amount */\n      dup3\n        /* \"contracts/GRB.sol\":16013:16022  _balances */\n      0x02\n        /* \"contracts/GRB.sol\":16013:16034  _balances[msg.sender] */\n      0x00\n        /* \"contracts/GRB.sol\":16023:16033  msg.sender */\n      caller\n        /* \"contracts/GRB.sol\":16013:16034  _balances[msg.sender] */\n      0xffffffffffffffffffffffffffffffffffffffff\n      and\n      0xffffffffffffffffffffffffffffffffffffffff\n      and\n      dup2\n      mstore\n      0x20\n      add\n      swap1\n      dup2\n      mstore\n      0x20\n      add\n      0x00\n      keccak256\n      sload\n        /* \"contracts/GRB.sol\":16013:16038  _balances[msg.sender].sub */\n      tag_187\n      swap1\n        /* \"contracts/GRB.sol\":16013:16047  _balances[msg.sender].sub(_amount) */\n      swap2\n      swap1\n      0xffffffff\n      and\n      jump\t// in\n    tag_302:\n        /* \"contracts/GRB.sol\":15989:15998  _balances */\n      0x02\n        /* \"contracts/GRB.sol\":15989:16010  _balances[msg.sender] */\n      0x00\n        /* \"contracts/GRB.sol\":15999:16009  msg.sender */\n      caller\n        /* \"contracts/GRB.sol\":15989:16010  _balances[msg.sender] */\n      0xffffffffffffffffffffffffffffffffffffffff\n      and\n      0xffffffffffffffffffffffffffffffffffffffff\n      and\n      dup2\n      mstore\n      0x20\n      add\n      swap1\n      dup2\n      mstore\n      0x20\n      add\n      0x00\n      keccak256\n        /* \"contracts/GRB.sol\":15989:16047  _balances[msg.sender] = _balances[msg.sender].sub(_amount) */\n      dup2\n      swap1\n      sstore\n      pop\n        /* \"contracts/GRB.sol\":16081:16108  _balances[_to].add(_amount) */\n      tag_303\n        /* \"contracts/GRB.sol\":16100:16107  _amount */\n      dup3\n        /* \"contracts/GRB.sol\":16081:16090  _balances */\n      0x02\n        /* \"contracts/GRB.sol\":16081:16095  _balances[_to] */\n      0x00\n        /* \"contracts/GRB.sol\":16091:16094  _to */\n      dup7\n        /* \"contracts/GRB.sol\":16081:16095  _balances[_to] */\n      0xffffffffffffffffffffffffffffffffffffffff\n      and\n      0xffffffffffffffffffffffffffffffffffffffff\n      and\n      dup2\n      mstore\n      0x20\n      add\n      swap1\n      dup2\n      mstore\n      0x20\n      add\n      0x00\n      keccak256\n      sload\n        /* \"contracts/GRB.sol\":16081:16099  _balances[_to].add */\n      tag_173\n      swap1\n        /* \"contracts/GRB.sol\":16081:16108  _balances[_to].add(_amount) */\n      swap2\n      swap1\n      0xffffffff\n      and\n      jump\t// in\n    tag_303:\n        /* \"contracts/GRB.sol\":16057:16066  _balances */\n      0x02\n        /* \"contracts/GRB.sol\":16057:16071  _balances[_to] */\n      0x00\n        /* \"contracts/GRB.sol\":16067:16070  _to */\n      dup6\n        /* \"contracts/GRB.sol\":16057:16071  _balances[_to] */\n      0xffffffffffffffffffffffffffffffffffffffff\n      and\n      0xffffffffffffffffffffffffffffffffffffffff\n      and\n      dup2\n      mstore\n      0x20\n      add\n      swap1\n      dup2\n      mstore\n      0x20\n      add\n      0x00\n      keccak256\n        /* \"contracts/GRB.sol\":16057:16108  _balances[_to]        = _balances[_to].add(_amount) */\n      dup2\n      swap1\n      sstore\n      pop\n        /* \"contracts/GRB.sol\":16217:16220  _to */\n      dup3\n        /* \"contracts/GRB.sol\":16196:16230  Transfer(msg.sender, _to, _amount) */\n      0xffffffffffffffffffffffffffffffffffffffff\n      and\n        /* \"contracts/GRB.sol\":16205:16215  msg.sender */\n      caller\n        /* \"contracts/GRB.sol\":16196:16230  Transfer(msg.sender, _to, _amount) */\n      0xffffffffffffffffffffffffffffffffffffffff\n      and\n      0xddf252ad1be2c89b69c2b068fc378daa952ba7f163c4a11628f55a4df523b3ef\n        /* \"contracts/GRB.sol\":16222:16229  _amount */\n      dup5\n        /* \"contracts/GRB.sol\":16196:16230  Transfer(msg.sender, _to, _amount) */\n      mload(0x40)\n      tag_304\n      swap2\n      swap1\n      tag_58\n      jump\t// in\n    tag_304:\n      mload(0x40)\n      dup1\n      swap2\n      sub\n      swap1\n      log3\n        /* \"contracts/GRB.sol\":16320:16324  true */\n      0x01\n        /* \"contracts/GRB.sol\":16313:16324  return true */\n      swap1\n      pop\n        /* \"contracts/GRB.sol\":15737:16331  function transfer(address _to, uint256 _amount)... */\n      swap3\n      swap2\n      pop\n      pop\n      jump\t// out\n        /* \"contracts/GRB.sol\":8537:8580  uint public constant MINIMUM_DELAY = 2 days */\n    tag_133:\n        /* \"contracts/GRB.sol\":8574:8580  2 days */\n      0x02a300\n        /* \"contracts/GRB.sol\":8537:8580  uint public constant MINIMUM_DELAY = 2 days */\n      dup2\n      jump\t// out\n        /* \"contracts/GRB.sol\":8421:8449  address public miningMachine */\n    tag_136:\n      0x08\n      0x01\n      swap1\n      sload\n      swap1\n      0x0100\n      exp\n      swap1\n      div\n      0xffffffffffffffffffffffffffffffffffffffff\n      and\n      dup2\n      jump\t// out\n        /* \"contracts/GRB.sol\":13429:13666  function getAddressChangeOnTimeLock(string memory _functionName, string memory _fieldName) public view returns(address) {... */\n    tag_140:\n        /* \"contracts/GRB.sol\":13540:13547  address */\n      0x00\n        /* \"contracts/GRB.sol\":13566:13576  timeLockOf */\n      0x01\n        /* \"contracts/GRB.sol\":13566:13614  timeLockOf[keccak256(abi.encode(_functionName))] */\n      0x00\n        /* \"contracts/GRB.sol\":13598:13611  _functionName */\n      dup5\n        /* \"contracts/GRB.sol\":13587:13612  abi.encode(_functionName) */\n      add(0x20, mload(0x40))\n      tag_306\n      swap2\n      swap1\n      tag_44\n      jump\t// in\n    tag_306:\n      mload(0x40)\n      0x20\n      dup2\n      dup4\n      sub\n      sub\n      dup2\n      mstore\n      swap1\n      0x40\n      mstore\n        /* \"contracts/GRB.sol\":13577:13613  keccak256(abi.encode(_functionName)) */\n      dup1\n      mload\n      swap1\n      0x20\n      add\n      keccak256\n        /* \"contracts/GRB.sol\":13566:13614  timeLockOf[keccak256(abi.encode(_functionName))] */\n      dup2\n      mstore\n      0x20\n      add\n      swap1\n      dup2\n      mstore\n      0x20\n      add\n      0x00\n      keccak256\n        /* \"contracts/GRB.sol\":13566:13624  timeLockOf[keccak256(abi.encode(_functionName))].addressOf */\n      0x02\n      add\n        /* \"contracts/GRB.sol\":13566:13659  timeLockOf[keccak256(abi.encode(_functionName))].addressOf[keccak256(abi.encode(_fieldName))] */\n      0x00\n        /* \"contracts/GRB.sol\":13646:13656  _fieldName */\n      dup4\n        /* \"contracts/GRB.sol\":13635:13657  abi.encode(_fieldName) */\n      add(0x20, mload(0x40))\n      tag_307\n      swap2\n      swap1\n      tag_44\n      jump\t// in\n    tag_307:\n      mload(0x40)\n      0x20\n      dup2\n      dup4\n      sub\n      sub\n      dup2\n      mstore\n      swap1\n      0x40\n      mstore\n        /* \"contracts/GRB.sol\":13625:13658  keccak256(abi.encode(_fieldName)) */\n      dup1\n      mload\n      swap1\n      0x20\n      add\n      keccak256\n        /* \"contracts/GRB.sol\":13566:13659  timeLockOf[keccak256(abi.encode(_functionName))].addressOf[keccak256(abi.encode(_fieldName))] */\n      dup2\n      mstore\n      0x20\n      add\n      swap1\n      dup2\n      mstore\n      0x20\n      add\n      0x00\n      keccak256\n      0x00\n      swap1\n      sload\n      swap1\n      0x0100\n      exp\n      swap1\n      div\n      0xffffffffffffffffffffffffffffffffffffffff\n      and\n        /* \"contracts/GRB.sol\":13559:13659  return timeLockOf[keccak256(abi.encode(_functionName))].addressOf[keccak256(abi.encode(_fieldName))] */\n      swap1\n      pop\n        /* \"contracts/GRB.sol\":13429:13666  function getAddressChangeOnTimeLock(string memory _functionName, string memory _fieldName) public view returns(address) {... */\n      swap3\n      swap2\n      pop\n      pop\n      jump\t// out\n        /* \"contracts/GRB.sol\":8488:8531  uint public constant GRACE_PERIOD = 30 days */\n    tag_143:\n        /* \"contracts/GRB.sol\":8524:8531  30 days */\n      0x278d00\n        /* \"contracts/GRB.sol\":8488:8531  uint public constant GRACE_PERIOD = 30 days */\n      dup2\n      jump\t// out\n        /* \"contracts/GRB.sol\":14325:14522  function allowance(address _owner, address _spender)... */\n    tag_148:\n        /* \"contracts/GRB.sol\":14456:14463  uint256 */\n      0x00\n        /* \"contracts/GRB.sol\":14486:14497  _allowances */\n      0x03\n        /* \"contracts/GRB.sol\":14486:14505  _allowances[_owner] */\n      0x00\n        /* \"contracts/GRB.sol\":14498:14504  _owner */\n      dup5\n        /* \"contracts/GRB.sol\":14486:14505  _allowances[_owner] */\n      0xffffffffffffffffffffffffffffffffffffffff\n      and\n      0xffffffffffffffffffffffffffffffffffffffff\n      and\n      dup2\n      mstore\n      0x20\n      add\n      swap1\n      dup2\n      mstore\n      0x20\n      add\n      0x00\n      keccak256\n        /* \"contracts/GRB.sol\":14486:14515  _allowances[_owner][_spender] */\n      0x00\n        /* \"contracts/GRB.sol\":14506:14514  _spender */\n      dup4\n        /* \"contracts/GRB.sol\":14486:14515  _allowances[_owner][_spender] */\n      0xffffffffffffffffffffffffffffffffffffffff\n      and\n      0xffffffffffffffffffffffffffffffffffffffff\n      and\n      dup2\n      mstore\n      0x20\n      add\n      swap1\n      dup2\n      mstore\n      0x20\n      add\n      0x00\n      keccak256\n      sload\n        /* \"contracts/GRB.sol\":14479:14515  return _allowances[_owner][_spender] */\n      swap1\n      pop\n        /* \"contracts/GRB.sol\":14325:14522  function allowance(address _owner, address _spender)... */\n      swap3\n      swap2\n      pop\n      pop\n      jump\t// out\n        /* \"contracts/GRB.sol\":9511:9791  function setDelay(uint delay_) public onlyOwner {... */\n    tag_153:\n        /* \"contracts/GRB.sol\":8901:8906  owner */\n      0x00\n      dup1\n      sload\n      swap1\n      0x0100\n      exp\n      swap1\n      div\n      0xffffffffffffffffffffffffffffffffffffffff\n      and\n        /* \"contracts/GRB.sol\":8887:8906  msg.sender == owner */\n      0xffffffffffffffffffffffffffffffffffffffff\n      and\n        /* \"contracts/GRB.sol\":8887:8897  msg.sender */\n      caller\n        /* \"contracts/GRB.sol\":8887:8906  msg.sender == owner */\n      0xffffffffffffffffffffffffffffffffffffffff\n      and\n      eq\n        /* \"contracts/GRB.sol\":8879:8929  require(msg.sender == owner, \"INVALID_PERMISSION\") */\n      tag_310\n      jumpi\n      mload(0x40)\n      0x08c379a000000000000000000000000000000000000000000000000000000000\n      dup2\n      mstore\n      0x04\n      add\n      tag_311\n      swap1\n      tag_168\n      jump\t// in\n    tag_311:\n      mload(0x40)\n      dup1\n      swap2\n      sub\n      swap1\n      revert\n    tag_310:\n        /* \"contracts/GRB.sol\":8574:8580  2 days */\n      0x02a300\n        /* \"contracts/GRB.sol\":9577:9583  delay_ */\n      dup2\n        /* \"contracts/GRB.sol\":9577:9600  delay_ >= MINIMUM_DELAY */\n      lt\n      iszero\n        /* \"contracts/GRB.sol\":9569:9657  require(delay_ >= MINIMUM_DELAY, \"Timelock::setDelay: Delay must exceed minimum delay.\") */\n      tag_313\n      jumpi\n      mload(0x40)\n      0x08c379a000000000000000000000000000000000000000000000000000000000\n      dup2\n      mstore\n      0x04\n      add\n      tag_314\n      swap1\n      tag_315\n      jump\t// in\n    tag_314:\n      mload(0x40)\n      dup1\n      swap2\n      sub\n      swap1\n      revert\n    tag_313:\n        /* \"contracts/GRB.sol\":8623:8630  30 days */\n      0x278d00\n        /* \"contracts/GRB.sol\":9675:9681  delay_ */\n      dup2\n        /* \"contracts/GRB.sol\":9675:9698  delay_ <= MAXIMUM_DELAY */\n      gt\n      iszero\n        /* \"contracts/GRB.sol\":9667:9759  require(delay_ <= MAXIMUM_DELAY, \"Timelock::setDelay: Delay must not exceed maximum delay.\") */\n      tag_316\n      jumpi\n      mload(0x40)\n      0x08c379a000000000000000000000000000000000000000000000000000000000\n      dup2\n      mstore\n      0x04\n      add\n      tag_317\n      swap1\n      tag_318\n      jump\t// in\n    tag_317:\n      mload(0x40)\n      dup1\n      swap2\n      sub\n      swap1\n      revert\n    tag_316:\n        /* \"contracts/GRB.sol\":9778:9784  delay_ */\n      dup1\n        /* \"contracts/GRB.sol\":9770:9775  delay */\n      0x0a\n        /* \"contracts/GRB.sol\":9770:9784  delay = delay_ */\n      dup2\n      swap1\n      sstore\n      pop\n        /* \"contracts/GRB.sol\":9511:9791  function setDelay(uint delay_) public onlyOwner {... */\n      pop\n      jump\t// out\n        /* \"contracts/GRB.sol\":3584:3760  function add(uint256 a, uint256 b) internal pure returns (uint256) {... */\n    tag_173:\n        /* \"contracts/GRB.sol\":3642:3649  uint256 */\n      0x00\n        /* \"contracts/GRB.sol\":3661:3670  uint256 c */\n      dup1\n        /* \"contracts/GRB.sol\":3677:3678  b */\n      dup3\n        /* \"contracts/GRB.sol\":3673:3674  a */\n      dup5\n        /* \"contracts/GRB.sol\":3673:3678  a + b */\n      tag_320\n      swap2\n      swap1\n      tag_321\n      jump\t// in\n    tag_320:\n        /* \"contracts/GRB.sol\":3661:3678  uint256 c = a + b */\n      swap1\n      pop\n        /* \"contracts/GRB.sol\":3701:3702  a */\n      dup4\n        /* \"contracts/GRB.sol\":3696:3697  c */\n      dup2\n        /* \"contracts/GRB.sol\":3696:3702  c >= a */\n      lt\n      iszero\n        /* \"contracts/GRB.sol\":3688:3734  require(c >= a, \"SafeMath: addition overflow\") */\n      tag_322\n      jumpi\n      mload(0x40)\n      0x08c379a000000000000000000000000000000000000000000000000000000000\n      dup2\n      mstore\n      0x04\n      add\n      tag_323\n      swap1\n      tag_324\n      jump\t// in\n    tag_323:\n      mload(0x40)\n      dup1\n      swap2\n      sub\n      swap1\n      revert\n    tag_322:\n        /* \"contracts/GRB.sol\":3752:3753  c */\n      dup1\n        /* \"contracts/GRB.sol\":3745:3753  return c */\n      swap2\n      pop\n      pop\n        /* \"contracts/GRB.sol\":3584:3760  function add(uint256 a, uint256 b) internal pure returns (uint256) {... */\n      swap3\n      swap2\n      pop\n      pop\n      jump\t// out\n        /* \"contracts/GRB.sol\":4024:4158  function sub(uint256 a, uint256 b) internal pure returns (uint256) {... */\n    tag_187:\n        /* \"contracts/GRB.sol\":4082:4089  uint256 */\n      0x00\n        /* \"contracts/GRB.sol\":4108:4151  sub(a, b, \"SafeMath: subtraction overflow\") */\n      tag_326\n        /* \"contracts/GRB.sol\":4112:4113  a */\n      dup4\n        /* \"contracts/GRB.sol\":4115:4116  b */\n      dup4\n        /* \"contracts/GRB.sol\":4108:4151  sub(a, b, \"SafeMath: subtraction overflow\") */\n      mload(0x40)\n      dup1\n      0x40\n      add\n      0x40\n      mstore\n      dup1\n      0x1e\n      dup2\n      mstore\n      0x20\n      add\n      0x536166654d6174683a207375627472616374696f6e206f766572666c6f770000\n      dup2\n      mstore\n      pop\n        /* \"contracts/GRB.sol\":4108:4111  sub */\n      tag_327\n        /* \"contracts/GRB.sol\":4108:4151  sub(a, b, \"SafeMath: subtraction overflow\") */\n      jump\t// in\n    tag_326:\n        /* \"contracts/GRB.sol\":4101:4151  return sub(a, b, \"SafeMath: subtraction overflow\") */\n      swap1\n      pop\n        /* \"contracts/GRB.sol\":4024:4158  function sub(uint256 a, uint256 b) internal pure returns (uint256) {... */\n      swap3\n      swap2\n      pop\n      pop\n      jump\t// out\n        /* \"contracts/GRB.sol\":13050:13423  function _validateTimelock(TimeLock storage _timelock) private view {... */\n    tag_222:\n        /* \"contracts/GRB.sol\":13168:13172  true */\n      0x01\n        /* \"contracts/GRB.sol\":13136:13172  _timelock.queuedTransactions == true */\n      iszero\n      iszero\n        /* \"contracts/GRB.sol\":13136:13145  _timelock */\n      dup2\n        /* \"contracts/GRB.sol\":13136:13164  _timelock.queuedTransactions */\n      0x00\n      add\n      0x00\n      swap1\n      sload\n      swap1\n      0x0100\n      exp\n      swap1\n      div\n      0xff\n      and\n        /* \"contracts/GRB.sol\":13136:13172  _timelock.queuedTransactions == true */\n      iszero\n      iszero\n      eq\n        /* \"contracts/GRB.sol\":13128:13208  require(_timelock.queuedTransactions == true, \"Transaction hasn't been queued.\") */\n      tag_329\n      jumpi\n      mload(0x40)\n      0x08c379a000000000000000000000000000000000000000000000000000000000\n      dup2\n      mstore\n      0x04\n      add\n      tag_330\n      swap1\n      tag_331\n      jump\t// in\n    tag_330:\n      mload(0x40)\n      dup1\n      swap2\n      sub\n      swap1\n      revert\n    tag_329:\n        /* \"contracts/GRB.sol\":13253:13268  block.timestamp */\n      timestamp\n        /* \"contracts/GRB.sol\":13226:13235  _timelock */\n      dup2\n        /* \"contracts/GRB.sol\":13226:13249  _timelock.timeOfExecute */\n      0x01\n      add\n      sload\n        /* \"contracts/GRB.sol\":13226:13268  _timelock.timeOfExecute <= block.timestamp */\n      gt\n      iszero\n        /* \"contracts/GRB.sol\":13218:13312  require(_timelock.timeOfExecute <= block.timestamp, \"Transaction hasn't surpassed time lock.\") */\n      tag_332\n      jumpi\n      mload(0x40)\n      0x08c379a000000000000000000000000000000000000000000000000000000000\n      dup2\n      mstore\n      0x04\n      add\n      tag_333\n      swap1\n      tag_334\n      jump\t// in\n    tag_333:\n      mload(0x40)\n      dup1\n      swap2\n      sub\n      swap1\n      revert\n    tag_332:\n        /* \"contracts/GRB.sol\":13375:13390  block.timestamp */\n      timestamp\n        /* \"contracts/GRB.sol\":13330:13371  _timelock.timeOfExecute.add(GRACE_PERIOD) */\n      tag_335\n        /* \"contracts/GRB.sol\":8524:8531  30 days */\n      0x278d00\n        /* \"contracts/GRB.sol\":13330:13339  _timelock */\n      dup4\n        /* \"contracts/GRB.sol\":13330:13353  _timelock.timeOfExecute */\n      0x01\n      add\n      sload\n        /* \"contracts/GRB.sol\":13330:13357  _timelock.timeOfExecute.add */\n      tag_173\n      swap1\n        /* \"contracts/GRB.sol\":13330:13371  _timelock.timeOfExecute.add(GRACE_PERIOD) */\n      swap2\n      swap1\n      0xffffffff\n      and\n      jump\t// in\n    tag_335:\n        /* \"contracts/GRB.sol\":13330:13390  _timelock.timeOfExecute.add(GRACE_PERIOD) >= block.timestamp */\n      lt\n      iszero\n        /* \"contracts/GRB.sol\":13322:13416  require(_timelock.timeOfExecute.add(GRACE_PERIOD) >= block.timestamp, \"Transaction is stale.\") */\n      tag_336\n      jumpi\n      mload(0x40)\n      0x08c379a000000000000000000000000000000000000000000000000000000000\n      dup2\n      mstore\n      0x04\n      add\n      tag_337\n      swap1\n      tag_338\n      jump\t// in\n    tag_337:\n      mload(0x40)\n      dup1\n      swap2\n      sub\n      swap1\n      revert\n    tag_336:\n        /* \"contracts/GRB.sol\":13050:13423  function _validateTimelock(TimeLock storage _timelock) private view {... */\n      pop\n      jump\t// out\n        /* \"contracts/GRB.sol\":4442:4629  function sub(uint256 a, uint256 b, string memory errorMessage) internal pure returns (uint256) {... */\n    tag_327:\n        /* \"contracts/GRB.sol\":4528:4535  uint256 */\n      0x00\n        /* \"contracts/GRB.sol\":4560:4561  a */\n      dup4\n        /* \"contracts/GRB.sol\":4555:4556  b */\n      dup4\n        /* \"contracts/GRB.sol\":4555:4561  b <= a */\n      gt\n      iszero\n        /* \"contracts/GRB.sol\":4563:4575  errorMessage */\n      dup3\n        /* \"contracts/GRB.sol\":4547:4576  require(b <= a, errorMessage) */\n      swap1\n      tag_340\n      jumpi\n      mload(0x40)\n      0x08c379a000000000000000000000000000000000000000000000000000000000\n      dup2\n      mstore\n      0x04\n      add\n      tag_341\n      swap2\n      swap1\n      tag_44\n      jump\t// in\n    tag_341:\n      mload(0x40)\n      dup1\n      swap2\n      sub\n      swap1\n      revert\n    tag_340:\n      pop\n        /* \"contracts/GRB.sol\":4586:4595  uint256 c */\n      0x00\n        /* \"contracts/GRB.sol\":4602:4603  b */\n      dup4\n        /* \"contracts/GRB.sol\":4598:4599  a */\n      dup6\n        /* \"contracts/GRB.sol\":4598:4603  a - b */\n      tag_342\n      swap2\n      swap1\n      tag_343\n      jump\t// in\n    tag_342:\n        /* \"contracts/GRB.sol\":4586:4603  uint256 c = a - b */\n      swap1\n      pop\n        /* \"contracts/GRB.sol\":4621:4622  c */\n      dup1\n        /* \"contracts/GRB.sol\":4614:4622  return c */\n      swap2\n      pop\n      pop\n        /* \"contracts/GRB.sol\":4442:4629  function sub(uint256 a, uint256 b, string memory errorMessage) internal pure returns (uint256) {... */\n      swap4\n      swap3\n      pop\n      pop\n      pop\n      jump\t// out\n        /* \"#utility.yul\":7:419   */\n    tag_345:\n        /* \"#utility.yul\":85:90   */\n      0x00\n        /* \"#utility.yul\":110:176   */\n      tag_347\n        /* \"#utility.yul\":126:175   */\n      tag_348\n        /* \"#utility.yul\":168:174   */\n      dup5\n        /* \"#utility.yul\":126:175   */\n      tag_349\n      jump\t// in\n    tag_348:\n        /* \"#utility.yul\":110:176   */\n      tag_350\n      jump\t// in\n    tag_347:\n        /* \"#utility.yul\":101:176   */\n      swap1\n      pop\n        /* \"#utility.yul\":199:205   */\n      dup3\n        /* \"#utility.yul\":192:197   */\n      dup2\n        /* \"#utility.yul\":185:206   */\n      mstore\n        /* \"#utility.yul\":237:241   */\n      0x20\n        /* \"#utility.yul\":230:235   */\n      dup2\n        /* \"#utility.yul\":226:242   */\n      add\n        /* \"#utility.yul\":275:278   */\n      dup5\n        /* \"#utility.yul\":266:272   */\n      dup5\n        /* \"#utility.yul\":261:264   */\n      dup5\n        /* \"#utility.yul\":257:273   */\n      add\n        /* \"#utility.yul\":254:279   */\n      gt\n        /* \"#utility.yul\":251:363   */\n      iszero\n      tag_351\n      jumpi\n        /* \"#utility.yul\":282:361   */\n      tag_352\n      tag_353\n      jump\t// in\n    tag_352:\n        /* \"#utility.yul\":251:363   */\n    tag_351:\n        /* \"#utility.yul\":372:413   */\n      tag_354\n        /* \"#utility.yul\":406:412   */\n      dup5\n        /* \"#utility.yul\":401:404   */\n      dup3\n        /* \"#utility.yul\":396:399   */\n      dup6\n        /* \"#utility.yul\":372:413   */\n      tag_355\n      jump\t// in\n    tag_354:\n        /* \"#utility.yul\":91:419   */\n      pop\n        /* \"#utility.yul\":7:419   */\n      swap4\n      swap3\n      pop\n      pop\n      pop\n      jump\t// out\n        /* \"#utility.yul\":425:564   */\n    tag_356:\n        /* \"#utility.yul\":471:476   */\n      0x00\n        /* \"#utility.yul\":509:515   */\n      dup2\n        /* \"#utility.yul\":496:516   */\n      calldataload\n        /* \"#utility.yul\":487:516   */\n      swap1\n      pop\n        /* \"#utility.yul\":525:558   */\n      tag_358\n        /* \"#utility.yul\":552:557   */\n      dup2\n        /* \"#utility.yul\":525:558   */\n      tag_359\n      jump\t// in\n    tag_358:\n        /* \"#utility.yul\":425:564   */\n      swap3\n      swap2\n      pop\n      pop\n      jump\t// out\n        /* \"#utility.yul\":570:709   */\n    tag_360:\n        /* \"#utility.yul\":616:621   */\n      0x00\n        /* \"#utility.yul\":654:660   */\n      dup2\n        /* \"#utility.yul\":641:661   */\n      calldataload\n        /* \"#utility.yul\":632:661   */\n      swap1\n      pop\n        /* \"#utility.yul\":670:703   */\n      tag_362\n        /* \"#utility.yul\":697:702   */\n      dup2\n        /* \"#utility.yul\":670:703   */\n      tag_363\n      jump\t// in\n    tag_362:\n        /* \"#utility.yul\":570:709   */\n      swap3\n      swap2\n      pop\n      pop\n      jump\t// out\n        /* \"#utility.yul\":729:1069   */\n    tag_364:\n        /* \"#utility.yul\":785:790   */\n      0x00\n        /* \"#utility.yul\":834:837   */\n      dup3\n        /* \"#utility.yul\":827:831   */\n      0x1f\n        /* \"#utility.yul\":819:825   */\n      dup4\n        /* \"#utility.yul\":815:832   */\n      add\n        /* \"#utility.yul\":811:838   */\n      slt\n        /* \"#utility.yul\":801:923   */\n      tag_366\n      jumpi\n        /* \"#utility.yul\":842:921   */\n      tag_367\n      tag_368\n      jump\t// in\n    tag_367:\n        /* \"#utility.yul\":801:923   */\n    tag_366:\n        /* \"#utility.yul\":959:965   */\n      dup2\n        /* \"#utility.yul\":946:966   */\n      calldataload\n        /* \"#utility.yul\":984:1063   */\n      tag_369\n        /* \"#utility.yul\":1059:1062   */\n      dup5\n        /* \"#utility.yul\":1051:1057   */\n      dup3\n        /* \"#utility.yul\":1044:1048   */\n      0x20\n        /* \"#utility.yul\":1036:1042   */\n      dup7\n        /* \"#utility.yul\":1032:1049   */\n      add\n        /* \"#utility.yul\":984:1063   */\n      tag_345\n      jump\t// in\n    tag_369:\n        /* \"#utility.yul\":975:1063   */\n      swap2\n      pop\n        /* \"#utility.yul\":791:1069   */\n      pop\n        /* \"#utility.yul\":729:1069   */\n      swap3\n      swap2\n      pop\n      pop\n      jump\t// out\n        /* \"#utility.yul\":1075:1214   */\n    tag_370:\n        /* \"#utility.yul\":1121:1126   */\n      0x00\n        /* \"#utility.yul\":1159:1165   */\n      dup2\n        /* \"#utility.yul\":1146:1166   */\n      calldataload\n        /* \"#utility.yul\":1137:1166   */\n      swap1\n      pop\n        /* \"#utility.yul\":1175:1208   */\n      tag_372\n        /* \"#utility.yul\":1202:1207   */\n      dup2\n        /* \"#utility.yul\":1175:1208   */\n      tag_373\n      jump\t// in\n    tag_372:\n        /* \"#utility.yul\":1075:1214   */\n      swap3\n      swap2\n      pop\n      pop\n      jump\t// out\n        /* \"#utility.yul\":1220:1549   */\n    tag_85:\n        /* \"#utility.yul\":1279:1285   */\n      0x00\n        /* \"#utility.yul\":1328:1330   */\n      0x20\n        /* \"#utility.yul\":1316:1325   */\n      dup3\n        /* \"#utility.yul\":1307:1314   */\n      dup5\n        /* \"#utility.yul\":1303:1326   */\n      sub\n        /* \"#utility.yul\":1299:1331   */\n      slt\n        /* \"#utility.yul\":1296:1415   */\n      iszero\n      tag_375\n      jumpi\n        /* \"#utility.yul\":1334:1413   */\n      tag_376\n      tag_377\n      jump\t// in\n    tag_376:\n        /* \"#utility.yul\":1296:1415   */\n    tag_375:\n        /* \"#utility.yul\":1454:1455   */\n      0x00\n        /* \"#utility.yul\":1479:1532   */\n      tag_378\n        /* \"#utility.yul\":1524:1531   */\n      dup5\n        /* \"#utility.yul\":1515:1521   */\n      dup3\n        /* \"#utility.yul\":1504:1513   */\n      dup6\n        /* \"#utility.yul\":1500:1522   */\n      add\n        /* \"#utility.yul\":1479:1532   */\n      tag_356\n      jump\t// in\n    tag_378:\n        /* \"#utility.yul\":1469:1532   */\n      swap2\n      pop\n        /* \"#utility.yul\":1425:1542   */\n      pop\n        /* \"#utility.yul\":1220:1549   */\n      swap3\n      swap2\n      pop\n      pop\n      jump\t// out\n        /* \"#utility.yul\":1555:2029   */\n    tag_147:\n        /* \"#utility.yul\":1623:1629   */\n      0x00\n        /* \"#utility.yul\":1631:1637   */\n      dup1\n        /* \"#utility.yul\":1680:1682   */\n      0x40\n        /* \"#utility.yul\":1668:1677   */\n      dup4\n        /* \"#utility.yul\":1659:1666   */\n      dup6\n        /* \"#utility.yul\":1655:1678   */\n      sub\n        /* \"#utility.yul\":1651:1683   */\n      slt\n        /* \"#utility.yul\":1648:1767   */\n      iszero\n      tag_380\n      jumpi\n        /* \"#utility.yul\":1686:1765   */\n      tag_381\n      tag_377\n      jump\t// in\n    tag_381:\n        /* \"#utility.yul\":1648:1767   */\n    tag_380:\n        /* \"#utility.yul\":1806:1807   */\n      0x00\n        /* \"#utility.yul\":1831:1884   */\n      tag_382\n        /* \"#utility.yul\":1876:1883   */\n      dup6\n        /* \"#utility.yul\":1867:1873   */\n      dup3\n        /* \"#utility.yul\":1856:1865   */\n      dup7\n        /* \"#utility.yul\":1852:1874   */\n      add\n        /* \"#utility.yul\":1831:1884   */\n      tag_356\n      jump\t// in\n    tag_382:\n        /* \"#utility.yul\":1821:1884   */\n      swap3\n      pop\n        /* \"#utility.yul\":1777:1894   */\n      pop\n        /* \"#utility.yul\":1933:1935   */\n      0x20\n        /* \"#utility.yul\":1959:2012   */\n      tag_383\n        /* \"#utility.yul\":2004:2011   */\n      dup6\n        /* \"#utility.yul\":1995:2001   */\n      dup3\n        /* \"#utility.yul\":1984:1993   */\n      dup7\n        /* \"#utility.yul\":1980:2002   */\n      add\n        /* \"#utility.yul\":1959:2012   */\n      tag_356\n      jump\t// in\n    tag_383:\n        /* \"#utility.yul\":1949:2012   */\n      swap2\n      pop\n        /* \"#utility.yul\":1904:2022   */\n      pop\n        /* \"#utility.yul\":1555:2029   */\n      swap3\n      pop\n      swap3\n      swap1\n      pop\n      jump\t// out\n        /* \"#utility.yul\":2035:2654   */\n    tag_61:\n        /* \"#utility.yul\":2112:2118   */\n      0x00\n        /* \"#utility.yul\":2120:2126   */\n      dup1\n        /* \"#utility.yul\":2128:2134   */\n      0x00\n        /* \"#utility.yul\":2177:2179   */\n      0x60\n        /* \"#utility.yul\":2165:2174   */\n      dup5\n        /* \"#utility.yul\":2156:2163   */\n      dup7\n        /* \"#utility.yul\":2152:2175   */\n      sub\n        /* \"#utility.yul\":2148:2180   */\n      slt\n        /* \"#utility.yul\":2145:2264   */\n      iszero\n      tag_385\n      jumpi\n        /* \"#utility.yul\":2183:2262   */\n      tag_386\n      tag_377\n      jump\t// in\n    tag_386:\n        /* \"#utility.yul\":2145:2264   */\n    tag_385:\n        /* \"#utility.yul\":2303:2304   */\n      0x00\n        /* \"#utility.yul\":2328:2381   */\n      tag_387\n        /* \"#utility.yul\":2373:2380   */\n      dup7\n        /* \"#utility.yul\":2364:2370   */\n      dup3\n        /* \"#utility.yul\":2353:2362   */\n      dup8\n        /* \"#utility.yul\":2349:2371   */\n      add\n        /* \"#utility.yul\":2328:2381   */\n      tag_356\n      jump\t// in\n    tag_387:\n        /* \"#utility.yul\":2318:2381   */\n      swap4\n      pop\n        /* \"#utility.yul\":2274:2391   */\n      pop\n        /* \"#utility.yul\":2430:2432   */\n      0x20\n        /* \"#utility.yul\":2456:2509   */\n      tag_388\n        /* \"#utility.yul\":2501:2508   */\n      dup7\n        /* \"#utility.yul\":2492:2498   */\n      dup3\n        /* \"#utility.yul\":2481:2490   */\n      dup8\n        /* \"#utility.yul\":2477:2499   */\n      add\n        /* \"#utility.yul\":2456:2509   */\n      tag_356\n      jump\t// in\n    tag_388:\n        /* \"#utility.yul\":2446:2509   */\n      swap3\n      pop\n        /* \"#utility.yul\":2401:2519   */\n      pop\n        /* \"#utility.yul\":2558:2560   */\n      0x40\n        /* \"#utility.yul\":2584:2637   */\n      tag_389\n        /* \"#utility.yul\":2629:2636   */\n      dup7\n        /* \"#utility.yul\":2620:2626   */\n      dup3\n        /* \"#utility.yul\":2609:2618   */\n      dup8\n        /* \"#utility.yul\":2605:2627   */\n      add\n        /* \"#utility.yul\":2584:2637   */\n      tag_370\n      jump\t// in\n    tag_389:\n        /* \"#utility.yul\":2574:2637   */\n      swap2\n      pop\n        /* \"#utility.yul\":2529:2647   */\n      pop\n        /* \"#utility.yul\":2035:2654   */\n      swap3\n      pop\n      swap3\n      pop\n      swap3\n      jump\t// out\n        /* \"#utility.yul\":2660:3134   */\n    tag_47:\n        /* \"#utility.yul\":2728:2734   */\n      0x00\n        /* \"#utility.yul\":2736:2742   */\n      dup1\n        /* \"#utility.yul\":2785:2787   */\n      0x40\n        /* \"#utility.yul\":2773:2782   */\n      dup4\n        /* \"#utility.yul\":2764:2771   */\n      dup6\n        /* \"#utility.yul\":2760:2783   */\n      sub\n        /* \"#utility.yul\":2756:2788   */\n      slt\n        /* \"#utility.yul\":2753:2872   */\n      iszero\n      tag_391\n      jumpi\n        /* \"#utility.yul\":2791:2870   */\n      tag_392\n      tag_377\n      jump\t// in\n    tag_392:\n        /* \"#utility.yul\":2753:2872   */\n    tag_391:\n        /* \"#utility.yul\":2911:2912   */\n      0x00\n        /* \"#utility.yul\":2936:2989   */\n      tag_393\n        /* \"#utility.yul\":2981:2988   */\n      dup6\n        /* \"#utility.yul\":2972:2978   */\n      dup3\n        /* \"#utility.yul\":2961:2970   */\n      dup7\n        /* \"#utility.yul\":2957:2979   */\n      add\n        /* \"#utility.yul\":2936:2989   */\n      tag_356\n      jump\t// in\n    tag_393:\n        /* \"#utility.yul\":2926:2989   */\n      swap3\n      pop\n        /* \"#utility.yul\":2882:2999   */\n      pop\n        /* \"#utility.yul\":3038:3040   */\n      0x20\n        /* \"#utility.yul\":3064:3117   */\n      tag_394\n        /* \"#utility.yul\":3109:3116   */\n      dup6\n        /* \"#utility.yul\":3100:3106   */\n      dup3\n        /* \"#utility.yul\":3089:3098   */\n      dup7\n        /* \"#utility.yul\":3085:3107   */\n      add\n        /* \"#utility.yul\":3064:3117   */\n      tag_370\n      jump\t// in\n    tag_394:\n        /* \"#utility.yul\":3054:3117   */\n      swap2\n      pop\n        /* \"#utility.yul\":3009:3127   */\n      pop\n        /* \"#utility.yul\":2660:3134   */\n      swap3\n      pop\n      swap3\n      swap1\n      pop\n      jump\t// out\n        /* \"#utility.yul\":3140:3469   */\n    tag_79:\n        /* \"#utility.yul\":3199:3205   */\n      0x00\n        /* \"#utility.yul\":3248:3250   */\n      0x20\n        /* \"#utility.yul\":3236:3245   */\n      dup3\n        /* \"#utility.yul\":3227:3234   */\n      dup5\n        /* \"#utility.yul\":3223:3246   */\n      sub\n        /* \"#utility.yul\":3219:3251   */\n      slt\n        /* \"#utility.yul\":3216:3335   */\n      iszero\n      tag_396\n      jumpi\n        /* \"#utility.yul\":3254:3333   */\n      tag_397\n      tag_377\n      jump\t// in\n    tag_397:\n        /* \"#utility.yul\":3216:3335   */\n    tag_396:\n        /* \"#utility.yul\":3374:3375   */\n      0x00\n        /* \"#utility.yul\":3399:3452   */\n      tag_398\n        /* \"#utility.yul\":3444:3451   */\n      dup5\n        /* \"#utility.yul\":3435:3441   */\n      dup3\n        /* \"#utility.yul\":3424:3433   */\n      dup6\n        /* \"#utility.yul\":3420:3442   */\n      add\n        /* \"#utility.yul\":3399:3452   */\n      tag_360\n      jump\t// in\n    tag_398:\n        /* \"#utility.yul\":3389:3452   */\n      swap2\n      pop\n        /* \"#utility.yul\":3345:3462   */\n      pop\n        /* \"#utility.yul\":3140:3469   */\n      swap3\n      swap2\n      pop\n      pop\n      jump\t// out\n        /* \"#utility.yul\":3475:3984   */\n    tag_104:\n        /* \"#utility.yul\":3544:3550   */\n      0x00\n        /* \"#utility.yul\":3593:3595   */\n      0x20\n        /* \"#utility.yul\":3581:3590   */\n      dup3\n        /* \"#utility.yul\":3572:3579   */\n      dup5\n        /* \"#utility.yul\":3568:3591   */\n      sub\n        /* \"#utility.yul\":3564:3596   */\n      slt\n        /* \"#utility.yul\":3561:3680   */\n      iszero\n      tag_400\n      jumpi\n        /* \"#utility.yul\":3599:3678   */\n      tag_401\n      tag_377\n      jump\t// in\n    tag_401:\n        /* \"#utility.yul\":3561:3680   */\n    tag_400:\n        /* \"#utility.yul\":3747:3748   */\n      0x00\n        /* \"#utility.yul\":3736:3745   */\n      dup3\n        /* \"#utility.yul\":3732:3749   */\n      add\n        /* \"#utility.yul\":3719:3750   */\n      calldataload\n        /* \"#utility.yul\":3777:3795   */\n      0xffffffffffffffff\n        /* \"#utility.yul\":3769:3775   */\n      dup2\n        /* \"#utility.yul\":3766:3796   */\n      gt\n        /* \"#utility.yul\":3763:3880   */\n      iszero\n      tag_402\n      jumpi\n        /* \"#utility.yul\":3799:3878   */\n      tag_403\n      tag_404\n      jump\t// in\n    tag_403:\n        /* \"#utility.yul\":3763:3880   */\n    tag_402:\n        /* \"#utility.yul\":3904:3967   */\n      tag_405\n        /* \"#utility.yul\":3959:3966   */\n      dup5\n        /* \"#utility.yul\":3950:3956   */\n      dup3\n        /* \"#utility.yul\":3939:3948   */\n      dup6\n        /* \"#utility.yul\":3935:3957   */\n      add\n        /* \"#utility.yul\":3904:3967   */\n      tag_364\n      jump\t// in\n    tag_405:\n        /* \"#utility.yul\":3894:3967   */\n      swap2\n      pop\n        /* \"#utility.yul\":3690:3977   */\n      pop\n        /* \"#utility.yul\":3475:3984   */\n      swap3\n      swap2\n      pop\n      pop\n      jump\t// out\n        /* \"#utility.yul\":3990:4824   */\n    tag_90:\n        /* \"#utility.yul\":4078:4084   */\n      0x00\n        /* \"#utility.yul\":4086:4092   */\n      dup1\n        /* \"#utility.yul\":4135:4137   */\n      0x40\n        /* \"#utility.yul\":4123:4132   */\n      dup4\n        /* \"#utility.yul\":4114:4121   */\n      dup6\n        /* \"#utility.yul\":4110:4133   */\n      sub\n        /* \"#utility.yul\":4106:4138   */\n      slt\n        /* \"#utility.yul\":4103:4222   */\n      iszero\n      tag_407\n      jumpi\n        /* \"#utility.yul\":4141:4220   */\n      tag_408\n      tag_377\n      jump\t// in\n    tag_408:\n        /* \"#utility.yul\":4103:4222   */\n    tag_407:\n        /* \"#utility.yul\":4289:4290   */\n      0x00\n        /* \"#utility.yul\":4278:4287   */\n      dup4\n        /* \"#utility.yul\":4274:4291   */\n      add\n        /* \"#utility.yul\":4261:4292   */\n      calldataload\n        /* \"#utility.yul\":4319:4337   */\n      0xffffffffffffffff\n        /* \"#utility.yul\":4311:4317   */\n      dup2\n        /* \"#utility.yul\":4308:4338   */\n      gt\n        /* \"#utility.yul\":4305:4422   */\n      iszero\n      tag_409\n      jumpi\n        /* \"#utility.yul\":4341:4420   */\n      tag_410\n      tag_404\n      jump\t// in\n    tag_410:\n        /* \"#utility.yul\":4305:4422   */\n    tag_409:\n        /* \"#utility.yul\":4446:4509   */\n      tag_411\n        /* \"#utility.yul\":4501:4508   */\n      dup6\n        /* \"#utility.yul\":4492:4498   */\n      dup3\n        /* \"#utility.yul\":4481:4490   */\n      dup7\n        /* \"#utility.yul\":4477:4499   */\n      add\n        /* \"#utility.yul\":4446:4509   */\n      tag_364\n      jump\t// in\n    tag_411:\n        /* \"#utility.yul\":4436:4509   */\n      swap3\n      pop\n        /* \"#utility.yul\":4232:4519   */\n      pop\n        /* \"#utility.yul\":4586:4588   */\n      0x20\n        /* \"#utility.yul\":4575:4584   */\n      dup4\n        /* \"#utility.yul\":4571:4589   */\n      add\n        /* \"#utility.yul\":4558:4590   */\n      calldataload\n        /* \"#utility.yul\":4617:4635   */\n      0xffffffffffffffff\n        /* \"#utility.yul\":4609:4615   */\n      dup2\n        /* \"#utility.yul\":4606:4636   */\n      gt\n        /* \"#utility.yul\":4603:4720   */\n      iszero\n      tag_412\n      jumpi\n        /* \"#utility.yul\":4639:4718   */\n      tag_413\n      tag_404\n      jump\t// in\n    tag_413:\n        /* \"#utility.yul\":4603:4720   */\n    tag_412:\n        /* \"#utility.yul\":4744:4807   */\n      tag_414\n        /* \"#utility.yul\":4799:4806   */\n      dup6\n        /* \"#utility.yul\":4790:4796   */\n      dup3\n        /* \"#utility.yul\":4779:4788   */\n      dup7\n        /* \"#utility.yul\":4775:4797   */\n      add\n        /* \"#utility.yul\":4744:4807   */\n      tag_364\n      jump\t// in\n    tag_414:\n        /* \"#utility.yul\":4734:4807   */\n      swap2\n      pop\n        /* \"#utility.yul\":4529:4817   */\n      pop\n        /* \"#utility.yul\":3990:4824   */\n      swap3\n      pop\n      swap3\n      swap1\n      pop\n      jump\t// out\n        /* \"#utility.yul\":4830:5809   */\n    tag_53:\n        /* \"#utility.yul\":4927:4933   */\n      0x00\n        /* \"#utility.yul\":4935:4941   */\n      dup1\n        /* \"#utility.yul\":4943:4949   */\n      0x00\n        /* \"#utility.yul\":4992:4994   */\n      0x60\n        /* \"#utility.yul\":4980:4989   */\n      dup5\n        /* \"#utility.yul\":4971:4978   */\n      dup7\n        /* \"#utility.yul\":4967:4990   */\n      sub\n        /* \"#utility.yul\":4963:4995   */\n      slt\n        /* \"#utility.yul\":4960:5079   */\n      iszero\n      tag_416\n      jumpi\n        /* \"#utility.yul\":4998:5077   */\n      tag_417\n      tag_377\n      jump\t// in\n    tag_417:\n        /* \"#utility.yul\":4960:5079   */\n    tag_416:\n        /* \"#utility.yul\":5146:5147   */\n      0x00\n        /* \"#utility.yul\":5135:5144   */\n      dup5\n        /* \"#utility.yul\":5131:5148   */\n      add\n        /* \"#utility.yul\":5118:5149   */\n      calldataload\n        /* \"#utility.yul\":5176:5194   */\n      0xffffffffffffffff\n        /* \"#utility.yul\":5168:5174   */\n      dup2\n        /* \"#utility.yul\":5165:5195   */\n      gt\n        /* \"#utility.yul\":5162:5279   */\n      iszero\n      tag_418\n      jumpi\n        /* \"#utility.yul\":5198:5277   */\n      tag_419\n      tag_404\n      jump\t// in\n    tag_419:\n        /* \"#utility.yul\":5162:5279   */\n    tag_418:\n        /* \"#utility.yul\":5303:5366   */\n      tag_420\n        /* \"#utility.yul\":5358:5365   */\n      dup7\n        /* \"#utility.yul\":5349:5355   */\n      dup3\n        /* \"#utility.yul\":5338:5347   */\n      dup8\n        /* \"#utility.yul\":5334:5356   */\n      add\n        /* \"#utility.yul\":5303:5366   */\n      tag_364\n      jump\t// in\n    tag_420:\n        /* \"#utility.yul\":5293:5366   */\n      swap4\n      pop\n        /* \"#utility.yul\":5089:5376   */\n      pop\n        /* \"#utility.yul\":5443:5445   */\n      0x20\n        /* \"#utility.yul\":5432:5441   */\n      dup5\n        /* \"#utility.yul\":5428:5446   */\n      add\n        /* \"#utility.yul\":5415:5447   */\n      calldataload\n        /* \"#utility.yul\":5474:5492   */\n      0xffffffffffffffff\n        /* \"#utility.yul\":5466:5472   */\n      dup2\n        /* \"#utility.yul\":5463:5493   */\n      gt\n        /* \"#utility.yul\":5460:5577   */\n      iszero\n      tag_421\n      jumpi\n        /* \"#utility.yul\":5496:5575   */\n      tag_422\n      tag_404\n      jump\t// in\n    tag_422:\n        /* \"#utility.yul\":5460:5577   */\n    tag_421:\n        /* \"#utility.yul\":5601:5664   */\n      tag_423\n        /* \"#utility.yul\":5656:5663   */\n      dup7\n        /* \"#utility.yul\":5647:5653   */\n      dup3\n        /* \"#utility.yul\":5636:5645   */\n      dup8\n        /* \"#utility.yul\":5632:5654   */\n      add\n        /* \"#utility.yul\":5601:5664   */\n      tag_364\n      jump\t// in\n    tag_423:\n        /* \"#utility.yul\":5591:5664   */\n      swap3\n      pop\n        /* \"#utility.yul\":5386:5674   */\n      pop\n        /* \"#utility.yul\":5713:5715   */\n      0x40\n        /* \"#utility.yul\":5739:5792   */\n      tag_424\n        /* \"#utility.yul\":5784:5791   */\n      dup7\n        /* \"#utility.yul\":5775:5781   */\n      dup3\n        /* \"#utility.yul\":5764:5773   */\n      dup8\n        /* \"#utility.yul\":5760:5782   */\n      add\n        /* \"#utility.yul\":5739:5792   */\n      tag_356\n      jump\t// in\n    tag_424:\n        /* \"#utility.yul\":5729:5792   */\n      swap2\n      pop\n        /* \"#utility.yul\":5684:5802   */\n      pop\n        /* \"#utility.yul\":4830:5809   */\n      swap3\n      pop\n      swap3\n      pop\n      swap3\n      jump\t// out\n        /* \"#utility.yul\":5815:6794   */\n    tag_115:\n        /* \"#utility.yul\":5912:5918   */\n      0x00\n        /* \"#utility.yul\":5920:5926   */\n      dup1\n        /* \"#utility.yul\":5928:5934   */\n      0x00\n        /* \"#utility.yul\":5977:5979   */\n      0x60\n        /* \"#utility.yul\":5965:5974   */\n      dup5\n        /* \"#utility.yul\":5956:5963   */\n      dup7\n        /* \"#utility.yul\":5952:5975   */\n      sub\n        /* \"#utility.yul\":5948:5980   */\n      slt\n        /* \"#utility.yul\":5945:6064   */\n      iszero\n      tag_426\n      jumpi\n        /* \"#utility.yul\":5983:6062   */\n      tag_427\n      tag_377\n      jump\t// in\n    tag_427:\n        /* \"#utility.yul\":5945:6064   */\n    tag_426:\n        /* \"#utility.yul\":6131:6132   */\n      0x00\n        /* \"#utility.yul\":6120:6129   */\n      dup5\n        /* \"#utility.yul\":6116:6133   */\n      add\n        /* \"#utility.yul\":6103:6134   */\n      calldataload\n        /* \"#utility.yul\":6161:6179   */\n      0xffffffffffffffff\n        /* \"#utility.yul\":6153:6159   */\n      dup2\n        /* \"#utility.yul\":6150:6180   */\n      gt\n        /* \"#utility.yul\":6147:6264   */\n      iszero\n      tag_428\n      jumpi\n        /* \"#utility.yul\":6183:6262   */\n      tag_429\n      tag_404\n      jump\t// in\n    tag_429:\n        /* \"#utility.yul\":6147:6264   */\n    tag_428:\n        /* \"#utility.yul\":6288:6351   */\n      tag_430\n        /* \"#utility.yul\":6343:6350   */\n      dup7\n        /* \"#utility.yul\":6334:6340   */\n      dup3\n        /* \"#utility.yul\":6323:6332   */\n      dup8\n        /* \"#utility.yul\":6319:6341   */\n      add\n        /* \"#utility.yul\":6288:6351   */\n      tag_364\n      jump\t// in\n    tag_430:\n        /* \"#utility.yul\":6278:6351   */\n      swap4\n      pop\n        /* \"#utility.yul\":6074:6361   */\n      pop\n        /* \"#utility.yul\":6428:6430   */\n      0x20\n        /* \"#utility.yul\":6417:6426   */\n      dup5\n        /* \"#utility.yul\":6413:6431   */\n      add\n        /* \"#utility.yul\":6400:6432   */\n      calldataload\n        /* \"#utility.yul\":6459:6477   */\n      0xffffffffffffffff\n        /* \"#utility.yul\":6451:6457   */\n      dup2\n        /* \"#utility.yul\":6448:6478   */\n      gt\n        /* \"#utility.yul\":6445:6562   */\n      iszero\n      tag_431\n      jumpi\n        /* \"#utility.yul\":6481:6560   */\n      tag_432\n      tag_404\n      jump\t// in\n    tag_432:\n        /* \"#utility.yul\":6445:6562   */\n    tag_431:\n        /* \"#utility.yul\":6586:6649   */\n      tag_433\n        /* \"#utility.yul\":6641:6648   */\n      dup7\n        /* \"#utility.yul\":6632:6638   */\n      dup3\n        /* \"#utility.yul\":6621:6630   */\n      dup8\n        /* \"#utility.yul\":6617:6639   */\n      add\n        /* \"#utility.yul\":6586:6649   */\n      tag_364\n      jump\t// in\n    tag_433:\n        /* \"#utility.yul\":6576:6649   */\n      swap3\n      pop\n        /* \"#utility.yul\":6371:6659   */\n      pop\n        /* \"#utility.yul\":6698:6700   */\n      0x40\n        /* \"#utility.yul\":6724:6777   */\n      tag_434\n        /* \"#utility.yul\":6769:6776   */\n      dup7\n        /* \"#utility.yul\":6760:6766   */\n      dup3\n        /* \"#utility.yul\":6749:6758   */\n      dup8\n        /* \"#utility.yul\":6745:6767   */\n      add\n        /* \"#utility.yul\":6724:6777   */\n      tag_370\n      jump\t// in\n    tag_434:\n        /* \"#utility.yul\":6714:6777   */\n      swap2\n      pop\n        /* \"#utility.yul\":6669:6787   */\n      pop\n        /* \"#utility.yul\":5815:6794   */\n      swap3\n      pop\n      swap3\n      pop\n      swap3\n      jump\t// out\n        /* \"#utility.yul\":6800:7129   */\n    tag_152:\n        /* \"#utility.yul\":6859:6865   */\n      0x00\n        /* \"#utility.yul\":6908:6910   */\n      0x20\n        /* \"#utility.yul\":6896:6905   */\n      dup3\n        /* \"#utility.yul\":6887:6894   */\n      dup5\n        /* \"#utility.yul\":6883:6906   */\n      sub\n        /* \"#utility.yul\":6879:6911   */\n      slt\n        /* \"#utility.yul\":6876:6995   */\n      iszero\n      tag_436\n      jumpi\n        /* \"#utility.yul\":6914:6993   */\n      tag_437\n      tag_377\n      jump\t// in\n    tag_437:\n        /* \"#utility.yul\":6876:6995   */\n    tag_436:\n        /* \"#utility.yul\":7034:7035   */\n      0x00\n        /* \"#utility.yul\":7059:7112   */\n      tag_438\n        /* \"#utility.yul\":7104:7111   */\n      dup5\n        /* \"#utility.yul\":7095:7101   */\n      dup3\n        /* \"#utility.yul\":7084:7093   */\n      dup6\n        /* \"#utility.yul\":7080:7102   */\n      add\n        /* \"#utility.yul\":7059:7112   */\n      tag_370\n      jump\t// in\n    tag_438:\n        /* \"#utility.yul\":7049:7112   */\n      swap2\n      pop\n        /* \"#utility.yul\":7005:7122   */\n      pop\n        /* \"#utility.yul\":6800:7129   */\n      swap3\n      swap2\n      pop\n      pop\n      jump\t// out\n        /* \"#utility.yul\":7135:7253   */\n    tag_439:\n        /* \"#utility.yul\":7222:7246   */\n      tag_441\n        /* \"#utility.yul\":7240:7245   */\n      dup2\n        /* \"#utility.yul\":7222:7246   */\n      tag_442\n      jump\t// in\n    tag_441:\n        /* \"#utility.yul\":7217:7220   */\n      dup3\n        /* \"#utility.yul\":7210:7247   */\n      mstore\n        /* \"#utility.yul\":7135:7253   */\n      pop\n      pop\n      jump\t// out\n        /* \"#utility.yul\":7259:7368   */\n    tag_443:\n        /* \"#utility.yul\":7340:7361   */\n      tag_445\n        /* \"#utility.yul\":7355:7360   */\n      dup2\n        /* \"#utility.yul\":7340:7361   */\n      tag_446\n      jump\t// in\n    tag_445:\n        /* \"#utility.yul\":7335:7338   */\n      dup3\n        /* \"#utility.yul\":7328:7362   */\n      mstore\n        /* \"#utility.yul\":7259:7368   */\n      pop\n      pop\n      jump\t// out\n        /* \"#utility.yul\":7374:7738   */\n    tag_447:\n        /* \"#utility.yul\":7462:7465   */\n      0x00\n        /* \"#utility.yul\":7490:7529   */\n      tag_449\n        /* \"#utility.yul\":7523:7528   */\n      dup3\n        /* \"#utility.yul\":7490:7529   */\n      tag_450\n      jump\t// in\n    tag_449:\n        /* \"#utility.yul\":7545:7616   */\n      tag_451\n        /* \"#utility.yul\":7609:7615   */\n      dup2\n        /* \"#utility.yul\":7604:7607   */\n      dup6\n        /* \"#utility.yul\":7545:7616   */\n      tag_452\n      jump\t// in\n    tag_451:\n        /* \"#utility.yul\":7538:7616   */\n      swap4\n      pop\n        /* \"#utility.yul\":7625:7677   */\n      tag_453\n        /* \"#utility.yul\":7670:7676   */\n      dup2\n        /* \"#utility.yul\":7665:7668   */\n      dup6\n        /* \"#utility.yul\":7658:7662   */\n      0x20\n        /* \"#utility.yul\":7651:7656   */\n      dup7\n        /* \"#utility.yul\":7647:7663   */\n      add\n        /* \"#utility.yul\":7625:7677   */\n      tag_454\n      jump\t// in\n    tag_453:\n        /* \"#utility.yul\":7702:7731   */\n      tag_455\n        /* \"#utility.yul\":7724:7730   */\n      dup2\n        /* \"#utility.yul\":7702:7731   */\n      tag_456\n      jump\t// in\n    tag_455:\n        /* \"#utility.yul\":7697:7700   */\n      dup5\n        /* \"#utility.yul\":7693:7732   */\n      add\n        /* \"#utility.yul\":7686:7732   */\n      swap2\n      pop\n        /* \"#utility.yul\":7466:7738   */\n      pop\n        /* \"#utility.yul\":7374:7738   */\n      swap3\n      swap2\n      pop\n      pop\n      jump\t// out\n        /* \"#utility.yul\":7744:8110   */\n    tag_457:\n        /* \"#utility.yul\":7886:7889   */\n      0x00\n        /* \"#utility.yul\":7907:7974   */\n      tag_459\n        /* \"#utility.yul\":7971:7973   */\n      0x0f\n        /* \"#utility.yul\":7966:7969   */\n      dup4\n        /* \"#utility.yul\":7907:7974   */\n      tag_452\n      jump\t// in\n    tag_459:\n        /* \"#utility.yul\":7900:7974   */\n      swap2\n      pop\n        /* \"#utility.yul\":7983:8076   */\n      tag_460\n        /* \"#utility.yul\":8072:8075   */\n      dup3\n        /* \"#utility.yul\":7983:8076   */\n      tag_461\n      jump\t// in\n    tag_460:\n        /* \"#utility.yul\":8101:8103   */\n      0x20\n        /* \"#utility.yul\":8096:8099   */\n      dup3\n        /* \"#utility.yul\":8092:8104   */\n      add\n        /* \"#utility.yul\":8085:8104   */\n      swap1\n      pop\n        /* \"#utility.yul\":7744:8110   */\n      swap2\n      swap1\n      pop\n      jump\t// out\n        /* \"#utility.yul\":8116:8481   */\n    tag_462:\n        /* \"#utility.yul\":8258:8261   */\n      0x00\n        /* \"#utility.yul\":8279:8345   */\n      tag_464\n        /* \"#utility.yul\":8343:8344   */\n      0x05\n        /* \"#utility.yul\":8338:8341   */\n      dup4\n        /* \"#utility.yul\":8279:8345   */\n      tag_452\n      jump\t// in\n    tag_464:\n        /* \"#utility.yul\":8272:8345   */\n      swap2\n      pop\n        /* \"#utility.yul\":8354:8447   */\n      tag_465\n        /* \"#utility.yul\":8443:8446   */\n      dup3\n        /* \"#utility.yul\":8354:8447   */\n      tag_466\n      jump\t// in\n    tag_465:\n        /* \"#utility.yul\":8472:8474   */\n      0x20\n        /* \"#utility.yul\":8467:8470   */\n      dup3\n        /* \"#utility.yul\":8463:8475   */\n      add\n        /* \"#utility.yul\":8456:8475   */\n      swap1\n      pop\n        /* \"#utility.yul\":8116:8481   */\n      swap2\n      swap1\n      pop\n      jump\t// out\n        /* \"#utility.yul\":8487:8853   */\n    tag_467:\n        /* \"#utility.yul\":8629:8632   */\n      0x00\n        /* \"#utility.yul\":8650:8717   */\n      tag_469\n        /* \"#utility.yul\":8714:8716   */\n      0x13\n        /* \"#utility.yul\":8709:8712   */\n      dup4\n        /* \"#utility.yul\":8650:8717   */\n      tag_452\n      jump\t// in\n    tag_469:\n        /* \"#utility.yul\":8643:8717   */\n      swap2\n      pop\n        /* \"#utility.yul\":8726:8819   */\n      tag_470\n        /* \"#utility.yul\":8815:8818   */\n      dup3\n        /* \"#utility.yul\":8726:8819   */\n      tag_471\n      jump\t// in\n    tag_470:\n        /* \"#utility.yul\":8844:8846   */\n      0x20\n        /* \"#utility.yul\":8839:8842   */\n      dup3\n        /* \"#utility.yul\":8835:8847   */\n      add\n        /* \"#utility.yul\":8828:8847   */\n      swap1\n      pop\n        /* \"#utility.yul\":8487:8853   */\n      swap2\n      swap1\n      pop\n      jump\t// out\n        /* \"#utility.yul\":8859:9225   */\n    tag_472:\n        /* \"#utility.yul\":9001:9004   */\n      0x00\n        /* \"#utility.yul\":9022:9089   */\n      tag_474\n        /* \"#utility.yul\":9086:9088   */\n      0x0f\n        /* \"#utility.yul\":9081:9084   */\n      dup4\n        /* \"#utility.yul\":9022:9089   */\n      tag_452\n      jump\t// in\n    tag_474:\n        /* \"#utility.yul\":9015:9089   */\n      swap2\n      pop\n        /* \"#utility.yul\":9098:9191   */\n      tag_475\n        /* \"#utility.yul\":9187:9190   */\n      dup3\n        /* \"#utility.yul\":9098:9191   */\n      tag_476\n      jump\t// in\n    tag_475:\n        /* \"#utility.yul\":9216:9218   */\n      0x20\n        /* \"#utility.yul\":9211:9214   */\n      dup3\n        /* \"#utility.yul\":9207:9219   */\n      add\n        /* \"#utility.yul\":9200:9219   */\n      swap1\n      pop\n        /* \"#utility.yul\":8859:9225   */\n      swap2\n      swap1\n      pop\n      jump\t// out\n        /* \"#utility.yul\":9231:9597   */\n    tag_477:\n        /* \"#utility.yul\":9373:9376   */\n      0x00\n        /* \"#utility.yul\":9394:9461   */\n      tag_479\n        /* \"#utility.yul\":9458:9460   */\n      0x0b\n        /* \"#utility.yul\":9453:9456   */\n      dup4\n        /* \"#utility.yul\":9394:9461   */\n      tag_452\n      jump\t// in\n    tag_479:\n        /* \"#utility.yul\":9387:9461   */\n      swap2\n      pop\n        /* \"#utility.yul\":9470:9563   */\n      tag_480\n        /* \"#utility.yul\":9559:9562   */\n      dup3\n        /* \"#utility.yul\":9470:9563   */\n      tag_481\n      jump\t// in\n    tag_480:\n        /* \"#utility.yul\":9588:9590   */\n      0x20\n        /* \"#utility.yul\":9583:9586   */\n      dup3\n        /* \"#utility.yul\":9579:9591   */\n      add\n        /* \"#utility.yul\":9572:9591   */\n      swap1\n      pop\n        /* \"#utility.yul\":9231:9597   */\n      swap2\n      swap1\n      pop\n      jump\t// out\n        /* \"#utility.yul\":9603:9969   */\n    tag_482:\n        /* \"#utility.yul\":9745:9748   */\n      0x00\n        /* \"#utility.yul\":9766:9833   */\n      tag_484\n        /* \"#utility.yul\":9830:9832   */\n      0x11\n        /* \"#utility.yul\":9825:9828   */\n      dup4\n        /* \"#utility.yul\":9766:9833   */\n      tag_452\n      jump\t// in\n    tag_484:\n        /* \"#utility.yul\":9759:9833   */\n      swap2\n      pop\n        /* \"#utility.yul\":9842:9935   */\n      tag_485\n        /* \"#utility.yul\":9931:9934   */\n      dup3\n        /* \"#utility.yul\":9842:9935   */\n      tag_486\n      jump\t// in\n    tag_485:\n        /* \"#utility.yul\":9960:9962   */\n      0x20\n        /* \"#utility.yul\":9955:9958   */\n      dup3\n        /* \"#utility.yul\":9951:9963   */\n      add\n        /* \"#utility.yul\":9944:9963   */\n      swap1\n      pop\n        /* \"#utility.yul\":9603:9969   */\n      swap2\n      swap1\n      pop\n      jump\t// out\n        /* \"#utility.yul\":9975:10341   */\n    tag_487:\n        /* \"#utility.yul\":10117:10120   */\n      0x00\n        /* \"#utility.yul\":10138:10205   */\n      tag_489\n        /* \"#utility.yul\":10202:10204   */\n      0x1f\n        /* \"#utility.yul\":10197:10200   */\n      dup4\n        /* \"#utility.yul\":10138:10205   */\n      tag_452\n      jump\t// in\n    tag_489:\n        /* \"#utility.yul\":10131:10205   */\n      swap2\n      pop\n        /* \"#utility.yul\":10214:10307   */\n      tag_490\n        /* \"#utility.yul\":10303:10306   */\n      dup3\n        /* \"#utility.yul\":10214:10307   */\n      tag_491\n      jump\t// in\n    tag_490:\n        /* \"#utility.yul\":10332:10334   */\n      0x20\n        /* \"#utility.yul\":10327:10330   */\n      dup3\n        /* \"#utility.yul\":10323:10335   */\n      add\n        /* \"#utility.yul\":10316:10335   */\n      swap1\n      pop\n        /* \"#utility.yul\":9975:10341   */\n      swap2\n      swap1\n      pop\n      jump\t// out\n        /* \"#utility.yul\":10347:10713   */\n    tag_492:\n        /* \"#utility.yul\":10489:10492   */\n      0x00\n        /* \"#utility.yul\":10510:10577   */\n      tag_494\n        /* \"#utility.yul\":10574:10576   */\n      0x1b\n        /* \"#utility.yul\":10569:10572   */\n      dup4\n        /* \"#utility.yul\":10510:10577   */\n      tag_452\n      jump\t// in\n    tag_494:\n        /* \"#utility.yul\":10503:10577   */\n      swap2\n      pop\n        /* \"#utility.yul\":10586:10679   */\n      tag_495\n        /* \"#utility.yul\":10675:10678   */\n      dup3\n        /* \"#utility.yul\":10586:10679   */\n      tag_496\n      jump\t// in\n    tag_495:\n        /* \"#utility.yul\":10704:10706   */\n      0x20\n        /* \"#utility.yul\":10699:10702   */\n      dup3\n        /* \"#utility.yul\":10695:10707   */\n      add\n        /* \"#utility.yul\":10688:10707   */\n      swap1\n      pop\n        /* \"#utility.yul\":10347:10713   */\n      swap2\n      swap1\n      pop\n      jump\t// out\n        /* \"#utility.yul\":10719:11085   */\n    tag_497:\n        /* \"#utility.yul\":10861:10864   */\n      0x00\n        /* \"#utility.yul\":10882:10949   */\n      tag_499\n        /* \"#utility.yul\":10946:10948   */\n      0x34\n        /* \"#utility.yul\":10941:10944   */\n      dup4\n        /* \"#utility.yul\":10882:10949   */\n      tag_452\n      jump\t// in\n    tag_499:\n        /* \"#utility.yul\":10875:10949   */\n      swap2\n      pop\n        /* \"#utility.yul\":10958:11051   */\n      tag_500\n        /* \"#utility.yul\":11047:11050   */\n      dup3\n        /* \"#utility.yul\":10958:11051   */\n      tag_501\n      jump\t// in\n    tag_500:\n        /* \"#utility.yul\":11076:11078   */\n      0x40\n        /* \"#utility.yul\":11071:11074   */\n      dup3\n        /* \"#utility.yul\":11067:11079   */\n      add\n        /* \"#utility.yul\":11060:11079   */\n      swap1\n      pop\n        /* \"#utility.yul\":10719:11085   */\n      swap2\n      swap1\n      pop\n      jump\t// out\n        /* \"#utility.yul\":11091:11457   */\n    tag_502:\n        /* \"#utility.yul\":11233:11236   */\n      0x00\n        /* \"#utility.yul\":11254:11321   */\n      tag_504\n        /* \"#utility.yul\":11318:11320   */\n      0x0e\n        /* \"#utility.yul\":11313:11316   */\n      dup4\n        /* \"#utility.yul\":11254:11321   */\n      tag_452\n      jump\t// in\n    tag_504:\n        /* \"#utility.yul\":11247:11321   */\n      swap2\n      pop\n        /* \"#utility.yul\":11330:11423   */\n      tag_505\n        /* \"#utility.yul\":11419:11422   */\n      dup3\n        /* \"#utility.yul\":11330:11423   */\n      tag_506\n      jump\t// in\n    tag_505:\n        /* \"#utility.yul\":11448:11450   */\n      0x20\n        /* \"#utility.yul\":11443:11446   */\n      dup3\n        /* \"#utility.yul\":11439:11451   */\n      add\n        /* \"#utility.yul\":11432:11451   */\n      swap1\n      pop\n        /* \"#utility.yul\":11091:11457   */\n      swap2\n      swap1\n      pop\n      jump\t// out\n        /* \"#utility.yul\":11463:11829   */\n    tag_507:\n        /* \"#utility.yul\":11605:11608   */\n      0x00\n        /* \"#utility.yul\":11626:11693   */\n      tag_509\n        /* \"#utility.yul\":11690:11692   */\n      0x0d\n        /* \"#utility.yul\":11685:11688   */\n      dup4\n        /* \"#utility.yul\":11626:11693   */\n      tag_452\n      jump\t// in\n    tag_509:\n        /* \"#utility.yul\":11619:11693   */\n      swap2\n      pop\n        /* \"#utility.yul\":11702:11795   */\n      tag_510\n        /* \"#utility.yul\":11791:11794   */\n      dup3\n        /* \"#utility.yul\":11702:11795   */\n      tag_511\n      jump\t// in\n    tag_510:\n        /* \"#utility.yul\":11820:11822   */\n      0x20\n        /* \"#utility.yul\":11815:11818   */\n      dup3\n        /* \"#utility.yul\":11811:11823   */\n      add\n        /* \"#utility.yul\":11804:11823   */\n      swap1\n      pop\n        /* \"#utility.yul\":11463:11829   */\n      swap2\n      swap1\n      pop\n      jump\t// out\n        /* \"#utility.yul\":11835:12201   */\n    tag_512:\n        /* \"#utility.yul\":11977:11980   */\n      0x00\n        /* \"#utility.yul\":11998:12065   */\n      tag_514\n        /* \"#utility.yul\":12062:12064   */\n      0x10\n        /* \"#utility.yul\":12057:12060   */\n      dup4\n        /* \"#utility.yul\":11998:12065   */\n      tag_452\n      jump\t// in\n    tag_514:\n        /* \"#utility.yul\":11991:12065   */\n      swap2\n      pop\n        /* \"#utility.yul\":12074:12167   */\n      tag_515\n        /* \"#utility.yul\":12163:12166   */\n      dup3\n        /* \"#utility.yul\":12074:12167   */\n      tag_516\n      jump\t// in\n    tag_515:\n        /* \"#utility.yul\":12192:12194   */\n      0x20\n        /* \"#utility.yul\":12187:12190   */\n      dup3\n        /* \"#utility.yul\":12183:12195   */\n      add\n        /* \"#utility.yul\":12176:12195   */\n      swap1\n      pop\n        /* \"#utility.yul\":11835:12201   */\n      swap2\n      swap1\n      pop\n      jump\t// out\n        /* \"#utility.yul\":12207:12573   */\n    tag_517:\n        /* \"#utility.yul\":12349:12352   */\n      0x00\n        /* \"#utility.yul\":12370:12437   */\n      tag_519\n        /* \"#utility.yul\":12434:12436   */\n      0x38\n        /* \"#utility.yul\":12429:12432   */\n      dup4\n        /* \"#utility.yul\":12370:12437   */\n      tag_452\n      jump\t// in\n    tag_519:\n        /* \"#utility.yul\":12363:12437   */\n      swap2\n      pop\n        /* \"#utility.yul\":12446:12539   */\n      tag_520\n        /* \"#utility.yul\":12535:12538   */\n      dup3\n        /* \"#utility.yul\":12446:12539   */\n      tag_521\n      jump\t// in\n    tag_520:\n        /* \"#utility.yul\":12564:12566   */\n      0x40\n        /* \"#utility.yul\":12559:12562   */\n      dup3\n        /* \"#utility.yul\":12555:12567   */\n      add\n        /* \"#utility.yul\":12548:12567   */\n      swap1\n      pop\n        /* \"#utility.yul\":12207:12573   */\n      swap2\n      swap1\n      pop\n      jump\t// out\n        /* \"#utility.yul\":12579:12945   */\n    tag_522:\n        /* \"#utility.yul\":12721:12724   */\n      0x00\n        /* \"#utility.yul\":12742:12809   */\n      tag_524\n        /* \"#utility.yul\":12806:12808   */\n      0x27\n        /* \"#utility.yul\":12801:12804   */\n      dup4\n        /* \"#utility.yul\":12742:12809   */\n      tag_452\n      jump\t// in\n    tag_524:\n        /* \"#utility.yul\":12735:12809   */\n      swap2\n      pop\n        /* \"#utility.yul\":12818:12911   */\n      tag_525\n        /* \"#utility.yul\":12907:12910   */\n      dup3\n        /* \"#utility.yul\":12818:12911   */\n      tag_526\n      jump\t// in\n    tag_525:\n        /* \"#utility.yul\":12936:12938   */\n      0x40\n        /* \"#utility.yul\":12931:12934   */\n      dup3\n        /* \"#utility.yul\":12927:12939   */\n      add\n        /* \"#utility.yul\":12920:12939   */\n      swap1\n      pop\n        /* \"#utility.yul\":12579:12945   */\n      swap2\n      swap1\n      pop\n      jump\t// out\n        /* \"#utility.yul\":12951:13317   */\n    tag_527:\n        /* \"#utility.yul\":13093:13096   */\n      0x00\n        /* \"#utility.yul\":13114:13181   */\n      tag_529\n        /* \"#utility.yul\":13178:13180   */\n      0x0f\n        /* \"#utility.yul\":13173:13176   */\n      dup4\n        /* \"#utility.yul\":13114:13181   */\n      tag_452\n      jump\t// in\n    tag_529:\n        /* \"#utility.yul\":13107:13181   */\n      swap2\n      pop\n        /* \"#utility.yul\":13190:13283   */\n      tag_530\n        /* \"#utility.yul\":13279:13282   */\n      dup3\n        /* \"#utility.yul\":13190:13283   */\n      tag_531\n      jump\t// in\n    tag_530:\n        /* \"#utility.yul\":13308:13310   */\n      0x20\n        /* \"#utility.yul\":13303:13306   */\n      dup3\n        /* \"#utility.yul\":13299:13311   */\n      add\n        /* \"#utility.yul\":13292:13311   */\n      swap1\n      pop\n        /* \"#utility.yul\":12951:13317   */\n      swap2\n      swap1\n      pop\n      jump\t// out\n        /* \"#utility.yul\":13323:13689   */\n    tag_532:\n        /* \"#utility.yul\":13465:13468   */\n      0x00\n        /* \"#utility.yul\":13486:13553   */\n      tag_534\n        /* \"#utility.yul\":13550:13552   */\n      0x11\n        /* \"#utility.yul\":13545:13548   */\n      dup4\n        /* \"#utility.yul\":13486:13553   */\n      tag_452\n      jump\t// in\n    tag_534:\n        /* \"#utility.yul\":13479:13553   */\n      swap2\n      pop\n        /* \"#utility.yul\":13562:13655   */\n      tag_535\n        /* \"#utility.yul\":13651:13654   */\n      dup3\n        /* \"#utility.yul\":13562:13655   */\n      tag_536\n      jump\t// in\n    tag_535:\n        /* \"#utility.yul\":13680:13682   */\n      0x20\n        /* \"#utility.yul\":13675:13678   */\n      dup3\n        /* \"#utility.yul\":13671:13683   */\n      add\n        /* \"#utility.yul\":13664:13683   */\n      swap1\n      pop\n        /* \"#utility.yul\":13323:13689   */\n      swap2\n      swap1\n      pop\n      jump\t// out\n        /* \"#utility.yul\":13695:14061   */\n    tag_537:\n        /* \"#utility.yul\":13837:13840   */\n      0x00\n        /* \"#utility.yul\":13858:13925   */\n      tag_539\n        /* \"#utility.yul\":13922:13924   */\n      0x12\n        /* \"#utility.yul\":13917:13920   */\n      dup4\n        /* \"#utility.yul\":13858:13925   */\n      tag_452\n      jump\t// in\n    tag_539:\n        /* \"#utility.yul\":13851:13925   */\n      swap2\n      pop\n        /* \"#utility.yul\":13934:14027   */\n      tag_540\n        /* \"#utility.yul\":14023:14026   */\n      dup3\n        /* \"#utility.yul\":13934:14027   */\n      tag_541\n      jump\t// in\n    tag_540:\n        /* \"#utility.yul\":14052:14054   */\n      0x20\n        /* \"#utility.yul\":14047:14050   */\n      dup3\n        /* \"#utility.yul\":14043:14055   */\n      add\n        /* \"#utility.yul\":14036:14055   */\n      swap1\n      pop\n        /* \"#utility.yul\":13695:14061   */\n      swap2\n      swap1\n      pop\n      jump\t// out\n        /* \"#utility.yul\":14067:14433   */\n    tag_542:\n        /* \"#utility.yul\":14209:14212   */\n      0x00\n        /* \"#utility.yul\":14230:14297   */\n      tag_544\n        /* \"#utility.yul\":14294:14296   */\n      0x0e\n        /* \"#utility.yul\":14289:14292   */\n      dup4\n        /* \"#utility.yul\":14230:14297   */\n      tag_452\n      jump\t// in\n    tag_544:\n        /* \"#utility.yul\":14223:14297   */\n      swap2\n      pop\n        /* \"#utility.yul\":14306:14399   */\n      tag_545\n        /* \"#utility.yul\":14395:14398   */\n      dup3\n        /* \"#utility.yul\":14306:14399   */\n      tag_546\n      jump\t// in\n    tag_545:\n        /* \"#utility.yul\":14424:14426   */\n      0x20\n        /* \"#utility.yul\":14419:14422   */\n      dup3\n        /* \"#utility.yul\":14415:14427   */\n      add\n        /* \"#utility.yul\":14408:14427   */\n      swap1\n      pop\n        /* \"#utility.yul\":14067:14433   */\n      swap2\n      swap1\n      pop\n      jump\t// out\n        /* \"#utility.yul\":14439:14805   */\n    tag_547:\n        /* \"#utility.yul\":14581:14584   */\n      0x00\n        /* \"#utility.yul\":14602:14669   */\n      tag_549\n        /* \"#utility.yul\":14666:14668   */\n      0x0f\n        /* \"#utility.yul\":14661:14664   */\n      dup4\n        /* \"#utility.yul\":14602:14669   */\n      tag_452\n      jump\t// in\n    tag_549:\n        /* \"#utility.yul\":14595:14669   */\n      swap2\n      pop\n        /* \"#utility.yul\":14678:14771   */\n      tag_550\n        /* \"#utility.yul\":14767:14770   */\n      dup3\n        /* \"#utility.yul\":14678:14771   */\n      tag_551\n      jump\t// in\n    tag_550:\n        /* \"#utility.yul\":14796:14798   */\n      0x20\n        /* \"#utility.yul\":14791:14794   */\n      dup3\n        /* \"#utility.yul\":14787:14799   */\n      add\n        /* \"#utility.yul\":14780:14799   */\n      swap1\n      pop\n        /* \"#utility.yul\":14439:14805   */\n      swap2\n      swap1\n      pop\n      jump\t// out\n        /* \"#utility.yul\":14811:15177   */\n    tag_552:\n        /* \"#utility.yul\":14953:14956   */\n      0x00\n        /* \"#utility.yul\":14974:15041   */\n      tag_554\n        /* \"#utility.yul\":15038:15040   */\n      0x15\n        /* \"#utility.yul\":15033:15036   */\n      dup4\n        /* \"#utility.yul\":14974:15041   */\n      tag_452\n      jump\t// in\n    tag_554:\n        /* \"#utility.yul\":14967:15041   */\n      swap2\n      pop\n        /* \"#utility.yul\":15050:15143   */\n      tag_555\n        /* \"#utility.yul\":15139:15142   */\n      dup3\n        /* \"#utility.yul\":15050:15143   */\n      tag_556\n      jump\t// in\n    tag_555:\n        /* \"#utility.yul\":15168:15170   */\n      0x20\n        /* \"#utility.yul\":15163:15166   */\n      dup3\n        /* \"#utility.yul\":15159:15171   */\n      add\n        /* \"#utility.yul\":15152:15171   */\n      swap1\n      pop\n        /* \"#utility.yul\":14811:15177   */\n      swap2\n      swap1\n      pop\n      jump\t// out\n        /* \"#utility.yul\":15183:15549   */\n    tag_557:\n        /* \"#utility.yul\":15325:15328   */\n      0x00\n        /* \"#utility.yul\":15346:15413   */\n      tag_559\n        /* \"#utility.yul\":15410:15412   */\n      0x1f\n        /* \"#utility.yul\":15405:15408   */\n      dup4\n        /* \"#utility.yul\":15346:15413   */\n      tag_452\n      jump\t// in\n    tag_559:\n        /* \"#utility.yul\":15339:15413   */\n      swap2\n      pop\n        /* \"#utility.yul\":15422:15515   */\n      tag_560\n        /* \"#utility.yul\":15511:15514   */\n      dup3\n        /* \"#utility.yul\":15422:15515   */\n      tag_561\n      jump\t// in\n    tag_560:\n        /* \"#utility.yul\":15540:15542   */\n      0x20\n        /* \"#utility.yul\":15535:15538   */\n      dup3\n        /* \"#utility.yul\":15531:15543   */\n      add\n        /* \"#utility.yul\":15524:15543   */\n      swap1\n      pop\n        /* \"#utility.yul\":15183:15549   */\n      swap2\n      swap1\n      pop\n      jump\t// out\n        /* \"#utility.yul\":15555:15673   */\n    tag_562:\n        /* \"#utility.yul\":15642:15666   */\n      tag_564\n        /* \"#utility.yul\":15660:15665   */\n      dup2\n        /* \"#utility.yul\":15642:15666   */\n      tag_565\n      jump\t// in\n    tag_564:\n        /* \"#utility.yul\":15637:15640   */\n      dup3\n        /* \"#utility.yul\":15630:15667   */\n      mstore\n        /* \"#utility.yul\":15555:15673   */\n      pop\n      pop\n      jump\t// out\n        /* \"#utility.yul\":15679:15791   */\n    tag_566:\n        /* \"#utility.yul\":15762:15784   */\n      tag_568\n        /* \"#utility.yul\":15778:15783   */\n      dup2\n        /* \"#utility.yul\":15762:15784   */\n      tag_569\n      jump\t// in\n    tag_568:\n        /* \"#utility.yul\":15757:15760   */\n      dup3\n        /* \"#utility.yul\":15750:15785   */\n      mstore\n        /* \"#utility.yul\":15679:15791   */\n      pop\n      pop\n      jump\t// out\n        /* \"#utility.yul\":15797:16019   */\n    tag_101:\n        /* \"#utility.yul\":15890:15894   */\n      0x00\n        /* \"#utility.yul\":15928:15930   */\n      0x20\n        /* \"#utility.yul\":15917:15926   */\n      dup3\n        /* \"#utility.yul\":15913:15931   */\n      add\n        /* \"#utility.yul\":15905:15931   */\n      swap1\n      pop\n        /* \"#utility.yul\":15941:16012   */\n      tag_571\n        /* \"#utility.yul\":16009:16010   */\n      0x00\n        /* \"#utility.yul\":15998:16007   */\n      dup4\n        /* \"#utility.yul\":15994:16011   */\n      add\n        /* \"#utility.yul\":15985:15991   */\n      dup5\n        /* \"#utility.yul\":15941:16012   */\n      tag_439\n      jump\t// in\n    tag_571:\n        /* \"#utility.yul\":15797:16019   */\n      swap3\n      swap2\n      pop\n      pop\n      jump\t// out\n        /* \"#utility.yul\":16025:16235   */\n    tag_50:\n        /* \"#utility.yul\":16112:16116   */\n      0x00\n        /* \"#utility.yul\":16150:16152   */\n      0x20\n        /* \"#utility.yul\":16139:16148   */\n      dup3\n        /* \"#utility.yul\":16135:16153   */\n      add\n        /* \"#utility.yul\":16127:16153   */\n      swap1\n      pop\n        /* \"#utility.yul\":16163:16228   */\n      tag_573\n        /* \"#utility.yul\":16225:16226   */\n      0x00\n        /* \"#utility.yul\":16214:16223   */\n      dup4\n        /* \"#utility.yul\":16210:16227   */\n      add\n        /* \"#utility.yul\":16201:16207   */\n      dup5\n        /* \"#utility.yul\":16163:16228   */\n      tag_443\n      jump\t// in\n    tag_573:\n        /* \"#utility.yul\":16025:16235   */\n      swap3\n      swap2\n      pop\n      pop\n      jump\t// out\n        /* \"#utility.yul\":16241:16561   */\n    tag_82:\n        /* \"#utility.yul\":16356:16360   */\n      0x00\n        /* \"#utility.yul\":16394:16396   */\n      0x40\n        /* \"#utility.yul\":16383:16392   */\n      dup3\n        /* \"#utility.yul\":16379:16397   */\n      add\n        /* \"#utility.yul\":16371:16397   */\n      swap1\n      pop\n        /* \"#utility.yul\":16407:16472   */\n      tag_575\n        /* \"#utility.yul\":16469:16470   */\n      0x00\n        /* \"#utility.yul\":16458:16467   */\n      dup4\n        /* \"#utility.yul\":16454:16471   */\n      add\n        /* \"#utility.yul\":16445:16451   */\n      dup6\n        /* \"#utility.yul\":16407:16472   */\n      tag_443\n      jump\t// in\n    tag_575:\n        /* \"#utility.yul\":16482:16554   */\n      tag_576\n        /* \"#utility.yul\":16550:16552   */\n      0x20\n        /* \"#utility.yul\":16539:16548   */\n      dup4\n        /* \"#utility.yul\":16535:16553   */\n      add\n        /* \"#utility.yul\":16526:16532   */\n      dup5\n        /* \"#utility.yul\":16482:16554   */\n      tag_562\n      jump\t// in\n    tag_576:\n        /* \"#utility.yul\":16241:16561   */\n      swap4\n      swap3\n      pop\n      pop\n      pop\n      jump\t// out\n        /* \"#utility.yul\":16567:16880   */\n    tag_44:\n        /* \"#utility.yul\":16680:16684   */\n      0x00\n        /* \"#utility.yul\":16718:16720   */\n      0x20\n        /* \"#utility.yul\":16707:16716   */\n      dup3\n        /* \"#utility.yul\":16703:16721   */\n      add\n        /* \"#utility.yul\":16695:16721   */\n      swap1\n      pop\n        /* \"#utility.yul\":16767:16776   */\n      dup2\n        /* \"#utility.yul\":16761:16765   */\n      dup2\n        /* \"#utility.yul\":16757:16777   */\n      sub\n        /* \"#utility.yul\":16753:16754   */\n      0x00\n        /* \"#utility.yul\":16742:16751   */\n      dup4\n        /* \"#utility.yul\":16738:16755   */\n      add\n        /* \"#utility.yul\":16731:16778   */\n      mstore\n        /* \"#utility.yul\":16795:16873   */\n      tag_578\n        /* \"#utility.yul\":16868:16872   */\n      dup2\n        /* \"#utility.yul\":16859:16865   */\n      dup5\n        /* \"#utility.yul\":16795:16873   */\n      tag_447\n      jump\t// in\n    tag_578:\n        /* \"#utility.yul\":16787:16873   */\n      swap1\n      pop\n        /* \"#utility.yul\":16567:16880   */\n      swap3\n      swap2\n      pop\n      pop\n      jump\t// out\n        /* \"#utility.yul\":16886:17510   */\n    tag_175:\n        /* \"#utility.yul\":17075:17079   */\n      0x00\n        /* \"#utility.yul\":17113:17115   */\n      0x60\n        /* \"#utility.yul\":17102:17111   */\n      dup3\n        /* \"#utility.yul\":17098:17116   */\n      add\n        /* \"#utility.yul\":17090:17116   */\n      swap1\n      pop\n        /* \"#utility.yul\":17162:17171   */\n      dup2\n        /* \"#utility.yul\":17156:17160   */\n      dup2\n        /* \"#utility.yul\":17152:17172   */\n      sub\n        /* \"#utility.yul\":17148:17149   */\n      0x00\n        /* \"#utility.yul\":17137:17146   */\n      dup4\n        /* \"#utility.yul\":17133:17150   */\n      add\n        /* \"#utility.yul\":17126:17173   */\n      mstore\n        /* \"#utility.yul\":17190:17268   */\n      tag_580\n        /* \"#utility.yul\":17263:17267   */\n      dup2\n        /* \"#utility.yul\":17254:17260   */\n      dup7\n        /* \"#utility.yul\":17190:17268   */\n      tag_447\n      jump\t// in\n    tag_580:\n        /* \"#utility.yul\":17182:17268   */\n      swap1\n      pop\n        /* \"#utility.yul\":17315:17324   */\n      dup2\n        /* \"#utility.yul\":17309:17313   */\n      dup2\n        /* \"#utility.yul\":17305:17325   */\n      sub\n        /* \"#utility.yul\":17300:17302   */\n      0x20\n        /* \"#utility.yul\":17289:17298   */\n      dup4\n        /* \"#utility.yul\":17285:17303   */\n      add\n        /* \"#utility.yul\":17278:17326   */\n      mstore\n        /* \"#utility.yul\":17343:17421   */\n      tag_581\n        /* \"#utility.yul\":17416:17420   */\n      dup2\n        /* \"#utility.yul\":17407:17413   */\n      dup6\n        /* \"#utility.yul\":17343:17421   */\n      tag_447\n      jump\t// in\n    tag_581:\n        /* \"#utility.yul\":17335:17421   */\n      swap1\n      pop\n        /* \"#utility.yul\":17431:17503   */\n      tag_582\n        /* \"#utility.yul\":17499:17501   */\n      0x40\n        /* \"#utility.yul\":17488:17497   */\n      dup4\n        /* \"#utility.yul\":17484:17502   */\n      add\n        /* \"#utility.yul\":17475:17481   */\n      dup5\n        /* \"#utility.yul\":17431:17503   */\n      tag_439\n      jump\t// in\n    tag_582:\n        /* \"#utility.yul\":16886:17510   */\n      swap5\n      swap4\n      pop\n      pop\n      pop\n      pop\n      jump\t// out\n        /* \"#utility.yul\":17516:18140   */\n    tag_271:\n        /* \"#utility.yul\":17705:17709   */\n      0x00\n        /* \"#utility.yul\":17743:17745   */\n      0x60\n        /* \"#utility.yul\":17732:17741   */\n      dup3\n        /* \"#utility.yul\":17728:17746   */\n      add\n        /* \"#utility.yul\":17720:17746   */\n      swap1\n      pop\n        /* \"#utility.yul\":17792:17801   */\n      dup2\n        /* \"#utility.yul\":17786:17790   */\n      dup2\n        /* \"#utility.yul\":17782:17802   */\n      sub\n        /* \"#utility.yul\":17778:17779   */\n      0x00\n        /* \"#utility.yul\":17767:17776   */\n      dup4\n        /* \"#utility.yul\":17763:17780   */\n      add\n        /* \"#utility.yul\":17756:17803   */\n      mstore\n        /* \"#utility.yul\":17820:17898   */\n      tag_584\n        /* \"#utility.yul\":17893:17897   */\n      dup2\n        /* \"#utility.yul\":17884:17890   */\n      dup7\n        /* \"#utility.yul\":17820:17898   */\n      tag_447\n      jump\t// in\n    tag_584:\n        /* \"#utility.yul\":17812:17898   */\n      swap1\n      pop\n        /* \"#utility.yul\":17945:17954   */\n      dup2\n        /* \"#utility.yul\":17939:17943   */\n      dup2\n        /* \"#utility.yul\":17935:17955   */\n      sub\n        /* \"#utility.yul\":17930:17932   */\n      0x20\n        /* \"#utility.yul\":17919:17928   */\n      dup4\n        /* \"#utility.yul\":17915:17933   */\n      add\n        /* \"#utility.yul\":17908:17956   */\n      mstore\n        /* \"#utility.yul\":17973:18051   */\n      tag_585\n        /* \"#utility.yul\":18046:18050   */\n      dup2\n        /* \"#utility.yul\":18037:18043   */\n      dup6\n        /* \"#utility.yul\":17973:18051   */\n      tag_447\n      jump\t// in\n    tag_585:\n        /* \"#utility.yul\":17965:18051   */\n      swap1\n      pop\n        /* \"#utility.yul\":18061:18133   */\n      tag_586\n        /* \"#utility.yul\":18129:18131   */\n      0x40\n        /* \"#utility.yul\":18118:18127   */\n      dup4\n        /* \"#utility.yul\":18114:18132   */\n      add\n        /* \"#utility.yul\":18105:18111   */\n      dup5\n        /* \"#utility.yul\":18061:18133   */\n      tag_562\n      jump\t// in\n    tag_586:\n        /* \"#utility.yul\":17516:18140   */\n      swap5\n      swap4\n      pop\n      pop\n      pop\n      pop\n      jump\t// out\n        /* \"#utility.yul\":18146:18565   */\n    tag_163:\n        /* \"#utility.yul\":18312:18316   */\n      0x00\n        /* \"#utility.yul\":18350:18352   */\n      0x20\n        /* \"#utility.yul\":18339:18348   */\n      dup3\n        /* \"#utility.yul\":18335:18353   */\n      add\n        /* \"#utility.yul\":18327:18353   */\n      swap1\n      pop\n        /* \"#utility.yul\":18399:18408   */\n      dup2\n        /* \"#utility.yul\":18393:18397   */\n      dup2\n        /* \"#utility.yul\":18389:18409   */\n      sub\n        /* \"#utility.yul\":18385:18386   */\n      0x00\n        /* \"#utility.yul\":18374:18383   */\n      dup4\n        /* \"#utility.yul\":18370:18387   */\n      add\n        /* \"#utility.yul\":18363:18410   */\n      mstore\n        /* \"#utility.yul\":18427:18558   */\n      tag_588\n        /* \"#utility.yul\":18553:18557   */\n      dup2\n        /* \"#utility.yul\":18427:18558   */\n      tag_457\n      jump\t// in\n    tag_588:\n        /* \"#utility.yul\":18419:18558   */\n      swap1\n      pop\n        /* \"#utility.yul\":18146:18565   */\n      swap2\n      swap1\n      pop\n      jump\t// out\n        /* \"#utility.yul\":18571:18990   */\n    tag_224:\n        /* \"#utility.yul\":18737:18741   */\n      0x00\n        /* \"#utility.yul\":18775:18777   */\n      0x20\n        /* \"#utility.yul\":18764:18773   */\n      dup3\n        /* \"#utility.yul\":18760:18778   */\n      add\n        /* \"#utility.yul\":18752:18778   */\n      swap1\n      pop\n        /* \"#utility.yul\":18824:18833   */\n      dup2\n        /* \"#utility.yul\":18818:18822   */\n      dup2\n        /* \"#utility.yul\":18814:18834   */\n      sub\n        /* \"#utility.yul\":18810:18811   */\n      0x00\n        /* \"#utility.yul\":18799:18808   */\n      dup4\n        /* \"#utility.yul\":18795:18812   */\n      add\n        /* \"#utility.yul\":18788:18835   */\n      mstore\n        /* \"#utility.yul\":18852:18983   */\n      tag_590\n        /* \"#utility.yul\":18978:18982   */\n      dup2\n        /* \"#utility.yul\":18852:18983   */\n      tag_462\n      jump\t// in\n    tag_590:\n        /* \"#utility.yul\":18844:18983   */\n      swap1\n      pop\n        /* \"#utility.yul\":18571:18990   */\n      swap2\n      swap1\n      pop\n      jump\t// out\n        /* \"#utility.yul\":18996:19415   */\n    tag_207:\n        /* \"#utility.yul\":19162:19166   */\n      0x00\n        /* \"#utility.yul\":19200:19202   */\n      0x20\n        /* \"#utility.yul\":19189:19198   */\n      dup3\n        /* \"#utility.yul\":19185:19203   */\n      add\n        /* \"#utility.yul\":19177:19203   */\n      swap1\n      pop\n        /* \"#utility.yul\":19249:19258   */\n      dup2\n        /* \"#utility.yul\":19243:19247   */\n      dup2\n        /* \"#utility.yul\":19239:19259   */\n      sub\n        /* \"#utility.yul\":19235:19236   */\n      0x00\n        /* \"#utility.yul\":19224:19233   */\n      dup4\n        /* \"#utility.yul\":19220:19237   */\n      add\n        /* \"#utility.yul\":19213:19260   */\n      mstore\n        /* \"#utility.yul\":19277:19408   */\n      tag_592\n        /* \"#utility.yul\":19403:19407   */\n      dup2\n        /* \"#utility.yul\":19277:19408   */\n      tag_467\n      jump\t// in\n    tag_592:\n        /* \"#utility.yul\":19269:19408   */\n      swap1\n      pop\n        /* \"#utility.yul\":18996:19415   */\n      swap2\n      swap1\n      pop\n      jump\t// out\n        /* \"#utility.yul\":19421:19840   */\n    tag_227:\n        /* \"#utility.yul\":19587:19591   */\n      0x00\n        /* \"#utility.yul\":19625:19627   */\n      0x20\n        /* \"#utility.yul\":19614:19623   */\n      dup3\n        /* \"#utility.yul\":19610:19628   */\n      add\n        /* \"#utility.yul\":19602:19628   */\n      swap1\n      pop\n        /* \"#utility.yul\":19674:19683   */\n      dup2\n        /* \"#utility.yul\":19668:19672   */\n      dup2\n        /* \"#utility.yul\":19664:19684   */\n      sub\n        /* \"#utility.yul\":19660:19661   */\n      0x00\n        /* \"#utility.yul\":19649:19658   */\n      dup4\n        /* \"#utility.yul\":19645:19662   */\n      add\n        /* \"#utility.yul\":19638:19685   */\n      mstore\n        /* \"#utility.yul\":19702:19833   */\n      tag_594\n        /* \"#utility.yul\":19828:19832   */\n      dup2\n        /* \"#utility.yul\":19702:19833   */\n      tag_472\n      jump\t// in\n    tag_594:\n        /* \"#utility.yul\":19694:19833   */\n      swap1\n      pop\n        /* \"#utility.yul\":19421:19840   */\n      swap2\n      swap1\n      pop\n      jump\t// out\n        /* \"#utility.yul\":19846:20265   */\n    tag_295:\n        /* \"#utility.yul\":20012:20016   */\n      0x00\n        /* \"#utility.yul\":20050:20052   */\n      0x20\n        /* \"#utility.yul\":20039:20048   */\n      dup3\n        /* \"#utility.yul\":20035:20053   */\n      add\n        /* \"#utility.yul\":20027:20053   */\n      swap1\n      pop\n        /* \"#utility.yul\":20099:20108   */\n      dup2\n        /* \"#utility.yul\":20093:20097   */\n      dup2\n        /* \"#utility.yul\":20089:20109   */\n      sub\n        /* \"#utility.yul\":20085:20086   */\n      0x00\n        /* \"#utility.yul\":20074:20083   */\n      dup4\n        /* \"#utility.yul\":20070:20087   */\n      add\n        /* \"#utility.yul\":20063:20110   */\n      mstore\n        /* \"#utility.yul\":20127:20258   */\n      tag_596\n        /* \"#utility.yul\":20253:20257   */\n      dup2\n        /* \"#utility.yul\":20127:20258   */\n      tag_477\n      jump\t// in\n    tag_596:\n        /* \"#utility.yul\":20119:20258   */\n      swap1\n      pop\n        /* \"#utility.yul\":19846:20265   */\n      swap2\n      swap1\n      pop\n      jump\t// out\n        /* \"#utility.yul\":20271:20690   */\n    tag_220:\n        /* \"#utility.yul\":20437:20441   */\n      0x00\n        /* \"#utility.yul\":20475:20477   */\n      0x20\n        /* \"#utility.yul\":20464:20473   */\n      dup3\n        /* \"#utility.yul\":20460:20478   */\n      add\n        /* \"#utility.yul\":20452:20478   */\n      swap1\n      pop\n        /* \"#utility.yul\":20524:20533   */\n      dup2\n        /* \"#utility.yul\":20518:20522   */\n      dup2\n        /* \"#utility.yul\":20514:20534   */\n      sub\n        /* \"#utility.yul\":20510:20511   */\n      0x00\n        /* \"#utility.yul\":20499:20508   */\n      dup4\n        /* \"#utility.yul\":20495:20512   */\n      add\n        /* \"#utility.yul\":20488:20535   */\n      mstore\n        /* \"#utility.yul\":20552:20683   */\n      tag_598\n        /* \"#utility.yul\":20678:20682   */\n      dup2\n        /* \"#utility.yul\":20552:20683   */\n      tag_482\n      jump\t// in\n    tag_598:\n        /* \"#utility.yul\":20544:20683   */\n      swap1\n      pop\n        /* \"#utility.yul\":20271:20690   */\n      swap2\n      swap1\n      pop\n      jump\t// out\n        /* \"#utility.yul\":20696:21115   */\n    tag_331:\n        /* \"#utility.yul\":20862:20866   */\n      0x00\n        /* \"#utility.yul\":20900:20902   */\n      0x20\n        /* \"#utility.yul\":20889:20898   */\n      dup3\n        /* \"#utility.yul\":20885:20903   */\n      add\n        /* \"#utility.yul\":20877:20903   */\n      swap1\n      pop\n        /* \"#utility.yul\":20949:20958   */\n      dup2\n        /* \"#utility.yul\":20943:20947   */\n      dup2\n        /* \"#utility.yul\":20939:20959   */\n      sub\n        /* \"#utility.yul\":20935:20936   */\n      0x00\n        /* \"#utility.yul\":20924:20933   */\n      dup4\n        /* \"#utility.yul\":20920:20937   */\n      add\n        /* \"#utility.yul\":20913:20960   */\n      mstore\n        /* \"#utility.yul\":20977:21108   */\n      tag_600\n        /* \"#utility.yul\":21103:21107   */\n      dup2\n        /* \"#utility.yul\":20977:21108   */\n      tag_487\n      jump\t// in\n    tag_600:\n        /* \"#utility.yul\":20969:21108   */\n      swap1\n      pop\n        /* \"#utility.yul\":20696:21115   */\n      swap2\n      swap1\n      pop\n      jump\t// out\n        /* \"#utility.yul\":21121:21540   */\n    tag_324:\n        /* \"#utility.yul\":21287:21291   */\n      0x00\n        /* \"#utility.yul\":21325:21327   */\n      0x20\n        /* \"#utility.yul\":21314:21323   */\n      dup3\n        /* \"#utility.yul\":21310:21328   */\n      add\n        /* \"#utility.yul\":21302:21328   */\n      swap1\n      pop\n        /* \"#utility.yul\":21374:21383   */\n      dup2\n        /* \"#utility.yul\":21368:21372   */\n      dup2\n        /* \"#utility.yul\":21364:21384   */\n      sub\n        /* \"#utility.yul\":21360:21361   */\n      0x00\n        /* \"#utility.yul\":21349:21358   */\n      dup4\n        /* \"#utility.yul\":21345:21362   */\n      add\n        /* \"#utility.yul\":21338:21385   */\n      mstore\n        /* \"#utility.yul\":21402:21533   */\n      tag_602\n        /* \"#utility.yul\":21528:21532   */\n      dup2\n        /* \"#utility.yul\":21402:21533   */\n      tag_492\n      jump\t// in\n    tag_602:\n        /* \"#utility.yul\":21394:21533   */\n      swap1\n      pop\n        /* \"#utility.yul\":21121:21540   */\n      swap2\n      swap1\n      pop\n      jump\t// out\n        /* \"#utility.yul\":21546:21965   */\n    tag_315:\n        /* \"#utility.yul\":21712:21716   */\n      0x00\n        /* \"#utility.yul\":21750:21752   */\n      0x20\n        /* \"#utility.yul\":21739:21748   */\n      dup3\n        /* \"#utility.yul\":21735:21753   */\n      add\n        /* \"#utility.yul\":21727:21753   */\n      swap1\n      pop\n        /* \"#utility.yul\":21799:21808   */\n      dup2\n        /* \"#utility.yul\":21793:21797   */\n      dup2\n        /* \"#utility.yul\":21789:21809   */\n      sub\n        /* \"#utility.yul\":21785:21786   */\n      0x00\n        /* \"#utility.yul\":21774:21783   */\n      dup4\n        /* \"#utility.yul\":21770:21787   */\n      add\n        /* \"#utility.yul\":21763:21810   */\n      mstore\n        /* \"#utility.yul\":21827:21958   */\n      tag_604\n        /* \"#utility.yul\":21953:21957   */\n      dup2\n        /* \"#utility.yul\":21827:21958   */\n      tag_497\n      jump\t// in\n    tag_604:\n        /* \"#utility.yul\":21819:21958   */\n      swap1\n      pop\n        /* \"#utility.yul\":21546:21965   */\n      swap2\n      swap1\n      pop\n      jump\t// out\n        /* \"#utility.yul\":21971:22390   */\n    tag_289:\n        /* \"#utility.yul\":22137:22141   */\n      0x00\n        /* \"#utility.yul\":22175:22177   */\n      0x20\n        /* \"#utility.yul\":22164:22173   */\n      dup3\n        /* \"#utility.yul\":22160:22178   */\n      add\n        /* \"#utility.yul\":22152:22178   */\n      swap1\n      pop\n        /* \"#utility.yul\":22224:22233   */\n      dup2\n        /* \"#utility.yul\":22218:22222   */\n      dup2\n        /* \"#utility.yul\":22214:22234   */\n      sub\n        /* \"#utility.yul\":22210:22211   */\n      0x00\n        /* \"#utility.yul\":22199:22208   */\n      dup4\n        /* \"#utility.yul\":22195:22212   */\n      add\n        /* \"#utility.yul\":22188:22235   */\n      mstore\n        /* \"#utility.yul\":22252:22383   */\n      tag_606\n        /* \"#utility.yul\":22378:22382   */\n      dup2\n        /* \"#utility.yul\":22252:22383   */\n      tag_502\n      jump\t// in\n    tag_606:\n        /* \"#utility.yul\":22244:22383   */\n      swap1\n      pop\n        /* \"#utility.yul\":21971:22390   */\n      swap2\n      swap1\n      pop\n      jump\t// out\n        /* \"#utility.yul\":22396:22815   */\n    tag_258:\n        /* \"#utility.yul\":22562:22566   */\n      0x00\n        /* \"#utility.yul\":22600:22602   */\n      0x20\n        /* \"#utility.yul\":22589:22598   */\n      dup3\n        /* \"#utility.yul\":22585:22603   */\n      add\n        /* \"#utility.yul\":22577:22603   */\n      swap1\n      pop\n        /* \"#utility.yul\":22649:22658   */\n      dup2\n        /* \"#utility.yul\":22643:22647   */\n      dup2\n        /* \"#utility.yul\":22639:22659   */\n      sub\n        /* \"#utility.yul\":22635:22636   */\n      0x00\n        /* \"#utility.yul\":22624:22633   */\n      dup4\n        /* \"#utility.yul\":22620:22637   */\n      add\n        /* \"#utility.yul\":22613:22660   */\n      mstore\n        /* \"#utility.yul\":22677:22808   */\n      tag_608\n        /* \"#utility.yul\":22803:22807   */\n      dup2\n        /* \"#utility.yul\":22677:22808   */\n      tag_507\n      jump\t// in\n    tag_608:\n        /* \"#utility.yul\":22669:22808   */\n      swap1\n      pop\n        /* \"#utility.yul\":22396:22815   */\n      swap2\n      swap1\n      pop\n      jump\t// out\n        /* \"#utility.yul\":22821:23240   */\n    tag_255:\n        /* \"#utility.yul\":22987:22991   */\n      0x00\n        /* \"#utility.yul\":23025:23027   */\n      0x20\n        /* \"#utility.yul\":23014:23023   */\n      dup3\n        /* \"#utility.yul\":23010:23028   */\n      add\n        /* \"#utility.yul\":23002:23028   */\n      swap1\n      pop\n        /* \"#utility.yul\":23074:23083   */\n      dup2\n        /* \"#utility.yul\":23068:23072   */\n      dup2\n        /* \"#utility.yul\":23064:23084   */\n      sub\n        /* \"#utility.yul\":23060:23061   */\n      0x00\n        /* \"#utility.yul\":23049:23058   */\n      dup4\n        /* \"#utility.yul\":23045:23062   */\n      add\n        /* \"#utility.yul\":23038:23085   */\n      mstore\n        /* \"#utility.yul\":23102:23233   */\n      tag_610\n        /* \"#utility.yul\":23228:23232   */\n      dup2\n        /* \"#utility.yul\":23102:23233   */\n      tag_512\n      jump\t// in\n    tag_610:\n        /* \"#utility.yul\":23094:23233   */\n      swap1\n      pop\n        /* \"#utility.yul\":22821:23240   */\n      swap2\n      swap1\n      pop\n      jump\t// out\n        /* \"#utility.yul\":23246:23665   */\n    tag_318:\n        /* \"#utility.yul\":23412:23416   */\n      0x00\n        /* \"#utility.yul\":23450:23452   */\n      0x20\n        /* \"#utility.yul\":23439:23448   */\n      dup3\n        /* \"#utility.yul\":23435:23453   */\n      add\n        /* \"#utility.yul\":23427:23453   */\n      swap1\n      pop\n        /* \"#utility.yul\":23499:23508   */\n      dup2\n        /* \"#utility.yul\":23493:23497   */\n      dup2\n        /* \"#utility.yul\":23489:23509   */\n      sub\n        /* \"#utility.yul\":23485:23486   */\n      0x00\n        /* \"#utility.yul\":23474:23483   */\n      dup4\n        /* \"#utility.yul\":23470:23487   */\n      add\n        /* \"#utility.yul\":23463:23510   */\n      mstore\n        /* \"#utility.yul\":23527:23658   */\n      tag_612\n        /* \"#utility.yul\":23653:23657   */\n      dup2\n        /* \"#utility.yul\":23527:23658   */\n      tag_517\n      jump\t// in\n    tag_612:\n        /* \"#utility.yul\":23519:23658   */\n      swap1\n      pop\n        /* \"#utility.yul\":23246:23665   */\n      swap2\n      swap1\n      pop\n      jump\t// out\n        /* \"#utility.yul\":23671:24090   */\n    tag_334:\n        /* \"#utility.yul\":23837:23841   */\n      0x00\n        /* \"#utility.yul\":23875:23877   */\n      0x20\n        /* \"#utility.yul\":23864:23873   */\n      dup3\n        /* \"#utility.yul\":23860:23878   */\n      add\n        /* \"#utility.yul\":23852:23878   */\n      swap1\n      pop\n        /* \"#utility.yul\":23924:23933   */\n      dup2\n        /* \"#utility.yul\":23918:23922   */\n      dup2\n        /* \"#utility.yul\":23914:23934   */\n      sub\n        /* \"#utility.yul\":23910:23911   */\n      0x00\n        /* \"#utility.yul\":23899:23908   */\n      dup4\n        /* \"#utility.yul\":23895:23912   */\n      add\n        /* \"#utility.yul\":23888:23935   */\n      mstore\n        /* \"#utility.yul\":23952:24083   */\n      tag_614\n        /* \"#utility.yul\":24078:24082   */\n      dup2\n        /* \"#utility.yul\":23952:24083   */\n      tag_522\n      jump\t// in\n    tag_614:\n        /* \"#utility.yul\":23944:24083   */\n      swap1\n      pop\n        /* \"#utility.yul\":23671:24090   */\n      swap2\n      swap1\n      pop\n      jump\t// out\n        /* \"#utility.yul\":24096:24515   */\n    tag_245:\n        /* \"#utility.yul\":24262:24266   */\n      0x00\n        /* \"#utility.yul\":24300:24302   */\n      0x20\n        /* \"#utility.yul\":24289:24298   */\n      dup3\n        /* \"#utility.yul\":24285:24303   */\n      add\n        /* \"#utility.yul\":24277:24303   */\n      swap1\n      pop\n        /* \"#utility.yul\":24349:24358   */\n      dup2\n        /* \"#utility.yul\":24343:24347   */\n      dup2\n        /* \"#utility.yul\":24339:24359   */\n      sub\n        /* \"#utility.yul\":24335:24336   */\n      0x00\n        /* \"#utility.yul\":24324:24333   */\n      dup4\n        /* \"#utility.yul\":24320:24337   */\n      add\n        /* \"#utility.yul\":24313:24360   */\n      mstore\n        /* \"#utility.yul\":24377:24508   */\n      tag_616\n        /* \"#utility.yul\":24503:24507   */\n      dup2\n        /* \"#utility.yul\":24377:24508   */\n      tag_527\n      jump\t// in\n    tag_616:\n        /* \"#utility.yul\":24369:24508   */\n      swap1\n      pop\n        /* \"#utility.yul\":24096:24515   */\n      swap2\n      swap1\n      pop\n      jump\t// out\n        /* \"#utility.yul\":24521:24940   */\n    tag_242:\n        /* \"#utility.yul\":24687:24691   */\n      0x00\n        /* \"#utility.yul\":24725:24727   */\n      0x20\n        /* \"#utility.yul\":24714:24723   */\n      dup3\n        /* \"#utility.yul\":24710:24728   */\n      add\n        /* \"#utility.yul\":24702:24728   */\n      swap1\n      pop\n        /* \"#utility.yul\":24774:24783   */\n      dup2\n        /* \"#utility.yul\":24768:24772   */\n      dup2\n        /* \"#utility.yul\":24764:24784   */\n      sub\n        /* \"#utility.yul\":24760:24761   */\n      0x00\n        /* \"#utility.yul\":24749:24758   */\n      dup4\n        /* \"#utility.yul\":24745:24762   */\n      add\n        /* \"#utility.yul\":24738:24785   */\n      mstore\n        /* \"#utility.yul\":24802:24933   */\n      tag_618\n        /* \"#utility.yul\":24928:24932   */\n      dup2\n        /* \"#utility.yul\":24802:24933   */\n      tag_532\n      jump\t// in\n    tag_618:\n        /* \"#utility.yul\":24794:24933   */\n      swap1\n      pop\n        /* \"#utility.yul\":24521:24940   */\n      swap2\n      swap1\n      pop\n      jump\t// out\n        /* \"#utility.yul\":24946:25365   */\n    tag_168:\n        /* \"#utility.yul\":25112:25116   */\n      0x00\n        /* \"#utility.yul\":25150:25152   */\n      0x20\n        /* \"#utility.yul\":25139:25148   */\n      dup3\n        /* \"#utility.yul\":25135:25153   */\n      add\n        /* \"#utility.yul\":25127:25153   */\n      swap1\n      pop\n        /* \"#utility.yul\":25199:25208   */\n      dup2\n        /* \"#utility.yul\":25193:25197   */\n      dup2\n        /* \"#utility.yul\":25189:25209   */\n      sub\n        /* \"#utility.yul\":25185:25186   */\n      0x00\n        /* \"#utility.yul\":25174:25183   */\n      dup4\n        /* \"#utility.yul\":25170:25187   */\n      add\n        /* \"#utility.yul\":25163:25210   */\n      mstore\n        /* \"#utility.yul\":25227:25358   */\n      tag_620\n        /* \"#utility.yul\":25353:25357   */\n      dup2\n        /* \"#utility.yul\":25227:25358   */\n      tag_537\n      jump\t// in\n    tag_620:\n        /* \"#utility.yul\":25219:25358   */\n      swap1\n      pop\n        /* \"#utility.yul\":24946:25365   */\n      swap2\n      swap1\n      pop\n      jump\t// out\n        /* \"#utility.yul\":25371:25790   */\n    tag_180:\n        /* \"#utility.yul\":25537:25541   */\n      0x00\n        /* \"#utility.yul\":25575:25577   */\n      0x20\n        /* \"#utility.yul\":25564:25573   */\n      dup3\n        /* \"#utility.yul\":25560:25578   */\n      add\n        /* \"#utility.yul\":25552:25578   */\n      swap1\n      pop\n        /* \"#utility.yul\":25624:25633   */\n      dup2\n        /* \"#utility.yul\":25618:25622   */\n      dup2\n        /* \"#utility.yul\":25614:25634   */\n      sub\n        /* \"#utility.yul\":25610:25611   */\n      0x00\n        /* \"#utility.yul\":25599:25608   */\n      dup4\n        /* \"#utility.yul\":25595:25612   */\n      add\n        /* \"#utility.yul\":25588:25635   */\n      mstore\n        /* \"#utility.yul\":25652:25783   */\n      tag_622\n        /* \"#utility.yul\":25778:25782   */\n      dup2\n        /* \"#utility.yul\":25652:25783   */\n      tag_542\n      jump\t// in\n    tag_622:\n        /* \"#utility.yul\":25644:25783   */\n      swap1\n      pop\n        /* \"#utility.yul\":25371:25790   */\n      swap2\n      swap1\n      pop\n      jump\t// out\n        /* \"#utility.yul\":25796:26215   */\n    tag_183:\n        /* \"#utility.yul\":25962:25966   */\n      0x00\n        /* \"#utility.yul\":26000:26002   */\n      0x20\n        /* \"#utility.yul\":25989:25998   */\n      dup3\n        /* \"#utility.yul\":25985:26003   */\n      add\n        /* \"#utility.yul\":25977:26003   */\n      swap1\n      pop\n        /* \"#utility.yul\":26049:26058   */\n      dup2\n        /* \"#utility.yul\":26043:26047   */\n      dup2\n        /* \"#utility.yul\":26039:26059   */\n      sub\n        /* \"#utility.yul\":26035:26036   */\n      0x00\n        /* \"#utility.yul\":26024:26033   */\n      dup4\n        /* \"#utility.yul\":26020:26037   */\n      add\n        /* \"#utility.yul\":26013:26060   */\n      mstore\n        /* \"#utility.yul\":26077:26208   */\n      tag_624\n        /* \"#utility.yul\":26203:26207   */\n      dup2\n        /* \"#utility.yul\":26077:26208   */\n      tag_547\n      jump\t// in\n    tag_624:\n        /* \"#utility.yul\":26069:26208   */\n      swap1\n      pop\n        /* \"#utility.yul\":25796:26215   */\n      swap2\n      swap1\n      pop\n      jump\t// out\n        /* \"#utility.yul\":26221:26640   */\n    tag_338:\n        /* \"#utility.yul\":26387:26391   */\n      0x00\n        /* \"#utility.yul\":26425:26427   */\n      0x20\n        /* \"#utility.yul\":26414:26423   */\n      dup3\n        /* \"#utility.yul\":26410:26428   */\n      add\n        /* \"#utility.yul\":26402:26428   */\n      swap1\n      pop\n        /* \"#utility.yul\":26474:26483   */\n      dup2\n        /* \"#utility.yul\":26468:26472   */\n      dup2\n        /* \"#utility.yul\":26464:26484   */\n      sub\n        /* \"#utility.yul\":26460:26461   */\n      0x00\n        /* \"#utility.yul\":26449:26458   */\n      dup4\n        /* \"#utility.yul\":26445:26462   */\n      add\n        /* \"#utility.yul\":26438:26485   */\n      mstore\n        /* \"#utility.yul\":26502:26633   */\n      tag_626\n        /* \"#utility.yul\":26628:26632   */\n      dup2\n        /* \"#utility.yul\":26502:26633   */\n      tag_552\n      jump\t// in\n    tag_626:\n        /* \"#utility.yul\":26494:26633   */\n      swap1\n      pop\n        /* \"#utility.yul\":26221:26640   */\n      swap2\n      swap1\n      pop\n      jump\t// out\n        /* \"#utility.yul\":26646:27065   */\n    tag_198:\n        /* \"#utility.yul\":26812:26816   */\n      0x00\n        /* \"#utility.yul\":26850:26852   */\n      0x20\n        /* \"#utility.yul\":26839:26848   */\n      dup3\n        /* \"#utility.yul\":26835:26853   */\n      add\n        /* \"#utility.yul\":26827:26853   */\n      swap1\n      pop\n        /* \"#utility.yul\":26899:26908   */\n      dup2\n        /* \"#utility.yul\":26893:26897   */\n      dup2\n        /* \"#utility.yul\":26889:26909   */\n      sub\n        /* \"#utility.yul\":26885:26886   */\n      0x00\n        /* \"#utility.yul\":26874:26883   */\n      dup4\n        /* \"#utility.yul\":26870:26887   */\n      add\n        /* \"#utility.yul\":26863:26910   */\n      mstore\n        /* \"#utility.yul\":26927:27058   */\n      tag_628\n        /* \"#utility.yul\":27053:27057   */\n      dup2\n        /* \"#utility.yul\":26927:27058   */\n      tag_557\n      jump\t// in\n    tag_628:\n        /* \"#utility.yul\":26919:27058   */\n      swap1\n      pop\n        /* \"#utility.yul\":26646:27065   */\n      swap2\n      swap1\n      pop\n      jump\t// out\n        /* \"#utility.yul\":27071:27293   */\n    tag_58:\n        /* \"#utility.yul\":27164:27168   */\n      0x00\n        /* \"#utility.yul\":27202:27204   */\n      0x20\n        /* \"#utility.yul\":27191:27200   */\n      dup3\n        /* \"#utility.yul\":27187:27205   */\n      add\n        /* \"#utility.yul\":27179:27205   */\n      swap1\n      pop\n        /* \"#utility.yul\":27215:27286   */\n      tag_630\n        /* \"#utility.yul\":27283:27284   */\n      0x00\n        /* \"#utility.yul\":27272:27281   */\n      dup4\n        /* \"#utility.yul\":27268:27285   */\n      add\n        /* \"#utility.yul\":27259:27265   */\n      dup5\n        /* \"#utility.yul\":27215:27286   */\n      tag_562\n      jump\t// in\n    tag_630:\n        /* \"#utility.yul\":27071:27293   */\n      swap3\n      swap2\n      pop\n      pop\n      jump\t// out\n        /* \"#utility.yul\":27299:27513   */\n    tag_70:\n        /* \"#utility.yul\":27388:27392   */\n      0x00\n        /* \"#utility.yul\":27426:27428   */\n      0x20\n        /* \"#utility.yul\":27415:27424   */\n      dup3\n        /* \"#utility.yul\":27411:27429   */\n      add\n        /* \"#utility.yul\":27403:27429   */\n      swap1\n      pop\n        /* \"#utility.yul\":27439:27506   */\n      tag_632\n        /* \"#utility.yul\":27503:27504   */\n      0x00\n        /* \"#utility.yul\":27492:27501   */\n      dup4\n        /* \"#utility.yul\":27488:27505   */\n      add\n        /* \"#utility.yul\":27479:27485   */\n      dup5\n        /* \"#utility.yul\":27439:27506   */\n      tag_566\n      jump\t// in\n    tag_632:\n        /* \"#utility.yul\":27299:27513   */\n      swap3\n      swap2\n      pop\n      pop\n      jump\t// out\n        /* \"#utility.yul\":27519:27648   */\n    tag_350:\n        /* \"#utility.yul\":27553:27559   */\n      0x00\n        /* \"#utility.yul\":27580:27600   */\n      tag_634\n      tag_635\n      jump\t// in\n    tag_634:\n        /* \"#utility.yul\":27570:27600   */\n      swap1\n      pop\n        /* \"#utility.yul\":27609:27642   */\n      tag_636\n        /* \"#utility.yul\":27637:27641   */\n      dup3\n        /* \"#utility.yul\":27629:27635   */\n      dup3\n        /* \"#utility.yul\":27609:27642   */\n      tag_637\n      jump\t// in\n    tag_636:\n        /* \"#utility.yul\":27519:27648   */\n      swap2\n      swap1\n      pop\n      jump\t// out\n        /* \"#utility.yul\":27654:27729   */\n    tag_635:\n        /* \"#utility.yul\":27687:27693   */\n      0x00\n        /* \"#utility.yul\":27720:27722   */\n      0x40\n        /* \"#utility.yul\":27714:27723   */\n      mload\n        /* \"#utility.yul\":27704:27723   */\n      swap1\n      pop\n        /* \"#utility.yul\":27654:27729   */\n      swap1\n      jump\t// out\n        /* \"#utility.yul\":27735:28043   */\n    tag_349:\n        /* \"#utility.yul\":27797:27801   */\n      0x00\n        /* \"#utility.yul\":27887:27905   */\n      0xffffffffffffffff\n        /* \"#utility.yul\":27879:27885   */\n      dup3\n        /* \"#utility.yul\":27876:27906   */\n      gt\n        /* \"#utility.yul\":27873:27929   */\n      iszero\n      tag_640\n      jumpi\n        /* \"#utility.yul\":27909:27927   */\n      tag_641\n      tag_642\n      jump\t// in\n    tag_641:\n        /* \"#utility.yul\":27873:27929   */\n    tag_640:\n        /* \"#utility.yul\":27947:27976   */\n      tag_643\n        /* \"#utility.yul\":27969:27975   */\n      dup3\n        /* \"#utility.yul\":27947:27976   */\n      tag_456\n      jump\t// in\n    tag_643:\n        /* \"#utility.yul\":27939:27976   */\n      swap1\n      pop\n        /* \"#utility.yul\":28031:28035   */\n      0x20\n        /* \"#utility.yul\":28025:28029   */\n      dup2\n        /* \"#utility.yul\":28021:28036   */\n      add\n        /* \"#utility.yul\":28013:28036   */\n      swap1\n      pop\n        /* \"#utility.yul\":27735:28043   */\n      swap2\n      swap1\n      pop\n      jump\t// out\n        /* \"#utility.yul\":28049:28148   */\n    tag_450:\n        /* \"#utility.yul\":28101:28107   */\n      0x00\n        /* \"#utility.yul\":28135:28140   */\n      dup2\n        /* \"#utility.yul\":28129:28141   */\n      mload\n        /* \"#utility.yul\":28119:28141   */\n      swap1\n      pop\n        /* \"#utility.yul\":28049:28148   */\n      swap2\n      swap1\n      pop\n      jump\t// out\n        /* \"#utility.yul\":28154:28323   */\n    tag_452:\n        /* \"#utility.yul\":28238:28249   */\n      0x00\n        /* \"#utility.yul\":28272:28278   */\n      dup3\n        /* \"#utility.yul\":28267:28270   */\n      dup3\n        /* \"#utility.yul\":28260:28279   */\n      mstore\n        /* \"#utility.yul\":28312:28316   */\n      0x20\n        /* \"#utility.yul\":28307:28310   */\n      dup3\n        /* \"#utility.yul\":28303:28317   */\n      add\n        /* \"#utility.yul\":28288:28317   */\n      swap1\n      pop\n        /* \"#utility.yul\":28154:28323   */\n      swap3\n      swap2\n      pop\n      pop\n      jump\t// out\n        /* \"#utility.yul\":28329:28634   */\n    tag_321:\n        /* \"#utility.yul\":28369:28372   */\n      0x00\n        /* \"#utility.yul\":28388:28408   */\n      tag_647\n        /* \"#utility.yul\":28406:28407   */\n      dup3\n        /* \"#utility.yul\":28388:28408   */\n      tag_565\n      jump\t// in\n    tag_647:\n        /* \"#utility.yul\":28383:28408   */\n      swap2\n      pop\n        /* \"#utility.yul\":28422:28442   */\n      tag_648\n        /* \"#utility.yul\":28440:28441   */\n      dup4\n        /* \"#utility.yul\":28422:28442   */\n      tag_565\n      jump\t// in\n    tag_648:\n        /* \"#utility.yul\":28417:28442   */\n      swap3\n      pop\n        /* \"#utility.yul\":28576:28577   */\n      dup3\n        /* \"#utility.yul\":28508:28574   */\n      0xffffffffffffffffffffffffffffffffffffffffffffffffffffffffffffffff\n        /* \"#utility.yul\":28504:28578   */\n      sub\n        /* \"#utility.yul\":28501:28502   */\n      dup3\n        /* \"#utility.yul\":28498:28579   */\n      gt\n        /* \"#utility.yul\":28495:28602   */\n      iszero\n      tag_649\n      jumpi\n        /* \"#utility.yul\":28582:28600   */\n      tag_650\n      tag_651\n      jump\t// in\n    tag_650:\n        /* \"#utility.yul\":28495:28602   */\n    tag_649:\n        /* \"#utility.yul\":28626:28627   */\n      dup3\n        /* \"#utility.yul\":28623:28624   */\n      dup3\n        /* \"#utility.yul\":28619:28628   */\n      add\n        /* \"#utility.yul\":28612:28628   */\n      swap1\n      pop\n        /* \"#utility.yul\":28329:28634   */\n      swap3\n      swap2\n      pop\n      pop\n      jump\t// out\n        /* \"#utility.yul\":28640:28831   */\n    tag_343:\n        /* \"#utility.yul\":28680:28684   */\n      0x00\n        /* \"#utility.yul\":28700:28720   */\n      tag_653\n        /* \"#utility.yul\":28718:28719   */\n      dup3\n        /* \"#utility.yul\":28700:28720   */\n      tag_565\n      jump\t// in\n    tag_653:\n        /* \"#utility.yul\":28695:28720   */\n      swap2\n      pop\n        /* \"#utility.yul\":28734:28754   */\n      tag_654\n        /* \"#utility.yul\":28752:28753   */\n      dup4\n        /* \"#utility.yul\":28734:28754   */\n      tag_565\n      jump\t// in\n    tag_654:\n        /* \"#utility.yul\":28729:28754   */\n      swap3\n      pop\n        /* \"#utility.yul\":28773:28774   */\n      dup3\n        /* \"#utility.yul\":28770:28771   */\n      dup3\n        /* \"#utility.yul\":28767:28775   */\n      lt\n        /* \"#utility.yul\":28764:28798   */\n      iszero\n      tag_655\n      jumpi\n        /* \"#utility.yul\":28778:28796   */\n      tag_656\n      tag_651\n      jump\t// in\n    tag_656:\n        /* \"#utility.yul\":28764:28798   */\n    tag_655:\n        /* \"#utility.yul\":28823:28824   */\n      dup3\n        /* \"#utility.yul\":28820:28821   */\n      dup3\n        /* \"#utility.yul\":28816:28825   */\n      sub\n        /* \"#utility.yul\":28808:28825   */\n      swap1\n      pop\n        /* \"#utility.yul\":28640:28831   */\n      swap3\n      swap2\n      pop\n      pop\n      jump\t// out\n        /* \"#utility.yul\":28837:28933   */\n    tag_442:\n        /* \"#utility.yul\":28874:28881   */\n      0x00\n        /* \"#utility.yul\":28903:28927   */\n      tag_658\n        /* \"#utility.yul\":28921:28926   */\n      dup3\n        /* \"#utility.yul\":28903:28927   */\n      tag_659\n      jump\t// in\n    tag_658:\n        /* \"#utility.yul\":28892:28927   */\n      swap1\n      pop\n        /* \"#utility.yul\":28837:28933   */\n      swap2\n      swap1\n      pop\n      jump\t// out\n        /* \"#utility.yul\":28939:29029   */\n    tag_446:\n        /* \"#utility.yul\":28973:28980   */\n      0x00\n        /* \"#utility.yul\":29016:29021   */\n      dup2\n        /* \"#utility.yul\":29009:29022   */\n      iszero\n        /* \"#utility.yul\":29002:29023   */\n      iszero\n        /* \"#utility.yul\":28991:29023   */\n      swap1\n      pop\n        /* \"#utility.yul\":28939:29029   */\n      swap2\n      swap1\n      pop\n      jump\t// out\n        /* \"#utility.yul\":29035:29112   */\n    tag_661:\n        /* \"#utility.yul\":29072:29079   */\n      0x00\n        /* \"#utility.yul\":29101:29106   */\n      dup2\n        /* \"#utility.yul\":29090:29106   */\n      swap1\n      pop\n        /* \"#utility.yul\":29035:29112   */\n      swap2\n      swap1\n      pop\n      jump\t// out\n        /* \"#utility.yul\":29118:29244   */\n    tag_659:\n        /* \"#utility.yul\":29155:29162   */\n      0x00\n        /* \"#utility.yul\":29195:29237   */\n      0xffffffffffffffffffffffffffffffffffffffff\n        /* \"#utility.yul\":29188:29193   */\n      dup3\n        /* \"#utility.yul\":29184:29238   */\n      and\n        /* \"#utility.yul\":29173:29238   */\n      swap1\n      pop\n        /* \"#utility.yul\":29118:29244   */\n      swap2\n      swap1\n      pop\n      jump\t// out\n        /* \"#utility.yul\":29250:29327   */\n    tag_565:\n        /* \"#utility.yul\":29287:29294   */\n      0x00\n        /* \"#utility.yul\":29316:29321   */\n      dup2\n        /* \"#utility.yul\":29305:29321   */\n      swap1\n      pop\n        /* \"#utility.yul\":29250:29327   */\n      swap2\n      swap1\n      pop\n      jump\t// out\n        /* \"#utility.yul\":29333:29419   */\n    tag_569:\n        /* \"#utility.yul\":29368:29375   */\n      0x00\n        /* \"#utility.yul\":29408:29412   */\n      0xff\n        /* \"#utility.yul\":29401:29406   */\n      dup3\n        /* \"#utility.yul\":29397:29413   */\n      and\n        /* \"#utility.yul\":29386:29413   */\n      swap1\n      pop\n        /* \"#utility.yul\":29333:29419   */\n      swap2\n      swap1\n      pop\n      jump\t// out\n        /* \"#utility.yul\":29425:29579   */\n    tag_355:\n        /* \"#utility.yul\":29509:29515   */\n      dup3\n        /* \"#utility.yul\":29504:29507   */\n      dup2\n        /* \"#utility.yul\":29499:29502   */\n      dup4\n        /* \"#utility.yul\":29486:29516   */\n      calldatacopy\n        /* \"#utility.yul\":29571:29572   */\n      0x00\n        /* \"#utility.yul\":29562:29568   */\n      dup4\n        /* \"#utility.yul\":29557:29560   */\n      dup4\n        /* \"#utility.yul\":29553:29569   */\n      add\n        /* \"#utility.yul\":29546:29573   */\n      mstore\n        /* \"#utility.yul\":29425:29579   */\n      pop\n      pop\n      pop\n      jump\t// out\n        /* \"#utility.yul\":29585:29892   */\n    tag_454:\n        /* \"#utility.yul\":29653:29654   */\n      0x00\n        /* \"#utility.yul\":29663:29776   */\n    tag_668:\n        /* \"#utility.yul\":29677:29683   */\n      dup4\n        /* \"#utility.yul\":29674:29675   */\n      dup2\n        /* \"#utility.yul\":29671:29684   */\n      lt\n        /* \"#utility.yul\":29663:29776   */\n      iszero\n      tag_670\n      jumpi\n        /* \"#utility.yul\":29762:29763   */\n      dup1\n        /* \"#utility.yul\":29757:29760   */\n      dup3\n        /* \"#utility.yul\":29753:29764   */\n      add\n        /* \"#utility.yul\":29747:29765   */\n      mload\n        /* \"#utility.yul\":29743:29744   */\n      dup2\n        /* \"#utility.yul\":29738:29741   */\n      dup5\n        /* \"#utility.yul\":29734:29745   */\n      add\n        /* \"#utility.yul\":29727:29766   */\n      mstore\n        /* \"#utility.yul\":29699:29701   */\n      0x20\n        /* \"#utility.yul\":29696:29697   */\n      dup2\n        /* \"#utility.yul\":29692:29702   */\n      add\n        /* \"#utility.yul\":29687:29702   */\n      swap1\n      pop\n        /* \"#utility.yul\":29663:29776   */\n      jump(tag_668)\n    tag_670:\n        /* \"#utility.yul\":29794:29800   */\n      dup4\n        /* \"#utility.yul\":29791:29792   */\n      dup2\n        /* \"#utility.yul\":29788:29801   */\n      gt\n        /* \"#utility.yul\":29785:29886   */\n      iszero\n      tag_671\n      jumpi\n        /* \"#utility.yul\":29874:29875   */\n      0x00\n        /* \"#utility.yul\":29865:29871   */\n      dup5\n        /* \"#utility.yul\":29860:29863   */\n      dup5\n        /* \"#utility.yul\":29856:29872   */\n      add\n        /* \"#utility.yul\":29849:29876   */\n      mstore\n        /* \"#utility.yul\":29785:29886   */\n    tag_671:\n        /* \"#utility.yul\":29634:29892   */\n      pop\n        /* \"#utility.yul\":29585:29892   */\n      pop\n      pop\n      pop\n      jump\t// out\n        /* \"#utility.yul\":29898:30218   */\n    tag_155:\n        /* \"#utility.yul\":29942:29948   */\n      0x00\n        /* \"#utility.yul\":29979:29980   */\n      0x02\n        /* \"#utility.yul\":29973:29977   */\n      dup3\n        /* \"#utility.yul\":29969:29981   */\n      div\n        /* \"#utility.yul\":29959:29981   */\n      swap1\n      pop\n        /* \"#utility.yul\":30026:30027   */\n      0x01\n        /* \"#utility.yul\":30020:30024   */\n      dup3\n        /* \"#utility.yul\":30016:30028   */\n      and\n        /* \"#utility.yul\":30047:30065   */\n      dup1\n        /* \"#utility.yul\":30037:30118   */\n      tag_673\n      jumpi\n        /* \"#utility.yul\":30103:30107   */\n      0x7f\n        /* \"#utility.yul\":30095:30101   */\n      dup3\n        /* \"#utility.yul\":30091:30108   */\n      and\n        /* \"#utility.yul\":30081:30108   */\n      swap2\n      pop\n        /* \"#utility.yul\":30037:30118   */\n    tag_673:\n        /* \"#utility.yul\":30165:30167   */\n      0x20\n        /* \"#utility.yul\":30157:30163   */\n      dup3\n        /* \"#utility.yul\":30154:30168   */\n      lt\n        /* \"#utility.yul\":30134:30152   */\n      dup2\n        /* \"#utility.yul\":30131:30169   */\n      eq\n        /* \"#utility.yul\":30128:30212   */\n      iszero\n      tag_674\n      jumpi\n        /* \"#utility.yul\":30184:30202   */\n      tag_675\n      tag_676\n      jump\t// in\n    tag_675:\n        /* \"#utility.yul\":30128:30212   */\n    tag_674:\n        /* \"#utility.yul\":29949:30218   */\n      pop\n        /* \"#utility.yul\":29898:30218   */\n      swap2\n      swap1\n      pop\n      jump\t// out\n        /* \"#utility.yul\":30224:30505   */\n    tag_637:\n        /* \"#utility.yul\":30307:30334   */\n      tag_678\n        /* \"#utility.yul\":30329:30333   */\n      dup3\n        /* \"#utility.yul\":30307:30334   */\n      tag_456\n      jump\t// in\n    tag_678:\n        /* \"#utility.yul\":30299:30305   */\n      dup2\n        /* \"#utility.yul\":30295:30335   */\n      add\n        /* \"#utility.yul\":30437:30443   */\n      dup2\n        /* \"#utility.yul\":30425:30435   */\n      dup2\n        /* \"#utility.yul\":30422:30444   */\n      lt\n        /* \"#utility.yul\":30401:30419   */\n      0xffffffffffffffff\n        /* \"#utility.yul\":30389:30399   */\n      dup3\n        /* \"#utility.yul\":30386:30420   */\n      gt\n        /* \"#utility.yul\":30383:30445   */\n      or\n        /* \"#utility.yul\":30380:30468   */\n      iszero\n      tag_679\n      jumpi\n        /* \"#utility.yul\":30448:30466   */\n      tag_680\n      tag_642\n      jump\t// in\n    tag_680:\n        /* \"#utility.yul\":30380:30468   */\n    tag_679:\n        /* \"#utility.yul\":30488:30498   */\n      dup1\n        /* \"#utility.yul\":30484:30486   */\n      0x40\n        /* \"#utility.yul\":30477:30499   */\n      mstore\n        /* \"#utility.yul\":30267:30505   */\n      pop\n        /* \"#utility.yul\":30224:30505   */\n      pop\n      pop\n      jump\t// out\n        /* \"#utility.yul\":30511:30691   */\n    tag_651:\n        /* \"#utility.yul\":30559:30636   */\n      0x4e487b7100000000000000000000000000000000000000000000000000000000\n        /* \"#utility.yul\":30556:30557   */\n      0x00\n        /* \"#utility.yul\":30549:30637   */\n      mstore\n        /* \"#utility.yul\":30656:30660   */\n      0x11\n        /* \"#utility.yul\":30653:30654   */\n      0x04\n        /* \"#utility.yul\":30646:30661   */\n      mstore\n        /* \"#utility.yul\":30680:30684   */\n      0x24\n        /* \"#utility.yul\":30677:30678   */\n      0x00\n        /* \"#utility.yul\":30670:30685   */\n      revert\n        /* \"#utility.yul\":30697:30877   */\n    tag_676:\n        /* \"#utility.yul\":30745:30822   */\n      0x4e487b7100000000000000000000000000000000000000000000000000000000\n        /* \"#utility.yul\":30742:30743   */\n      0x00\n        /* \"#utility.yul\":30735:30823   */\n      mstore\n        /* \"#utility.yul\":30842:30846   */\n      0x22\n        /* \"#utility.yul\":30839:30840   */\n      0x04\n        /* \"#utility.yul\":30832:30847   */\n      mstore\n        /* \"#utility.yul\":30866:30870   */\n      0x24\n        /* \"#utility.yul\":30863:30864   */\n      0x00\n        /* \"#utility.yul\":30856:30871   */\n      revert\n        /* \"#utility.yul\":30883:31063   */\n    tag_642:\n        /* \"#utility.yul\":30931:31008   */\n      0x4e487b7100000000000000000000000000000000000000000000000000000000\n        /* \"#utility.yul\":30928:30929   */\n      0x00\n        /* \"#utility.yul\":30921:31009   */\n      mstore\n        /* \"#utility.yul\":31028:31032   */\n      0x41\n        /* \"#utility.yul\":31025:31026   */\n      0x04\n        /* \"#utility.yul\":31018:31033   */\n      mstore\n        /* \"#utility.yul\":31052:31056   */\n      0x24\n        /* \"#utility.yul\":31049:31050   */\n      0x00\n        /* \"#utility.yul\":31042:31057   */\n      revert\n        /* \"#utility.yul\":31069:31186   */\n    tag_368:\n        /* \"#utility.yul\":31178:31179   */\n      0x00\n        /* \"#utility.yul\":31175:31176   */\n      dup1\n        /* \"#utility.yul\":31168:31180   */\n      revert\n        /* \"#utility.yul\":31192:31309   */\n    tag_353:\n        /* \"#utility.yul\":31301:31302   */\n      0x00\n        /* \"#utility.yul\":31298:31299   */\n      dup1\n        /* \"#utility.yul\":31291:31303   */\n      revert\n        /* \"#utility.yul\":31315:31432   */\n    tag_404:\n        /* \"#utility.yul\":31424:31425   */\n      0x00\n        /* \"#utility.yul\":31421:31422   */\n      dup1\n        /* \"#utility.yul\":31414:31426   */\n      revert\n        /* \"#utility.yul\":31438:31555   */\n    tag_377:\n        /* \"#utility.yul\":31547:31548   */\n      0x00\n        /* \"#utility.yul\":31544:31545   */\n      dup1\n        /* \"#utility.yul\":31537:31549   */\n      revert\n        /* \"#utility.yul\":31561:31663   */\n    tag_456:\n        /* \"#utility.yul\":31602:31608   */\n      0x00\n        /* \"#utility.yul\":31653:31655   */\n      0x1f\n        /* \"#utility.yul\":31649:31656   */\n      not\n        /* \"#utility.yul\":31644:31646   */\n      0x1f\n        /* \"#utility.yul\":31637:31642   */\n      dup4\n        /* \"#utility.yul\":31633:31647   */\n      add\n        /* \"#utility.yul\":31629:31657   */\n      and\n        /* \"#utility.yul\":31619:31657   */\n      swap1\n      pop\n        /* \"#utility.yul\":31561:31663   */\n      swap2\n      swap1\n      pop\n      jump\t// out\n        /* \"#utility.yul\":31669:31834   */\n    tag_461:\n        /* \"#utility.yul\":31809:31826   */\n      0x494e56414c49445f5350454e4445520000000000000000000000000000000000\n        /* \"#utility.yul\":31805:31806   */\n      0x00\n        /* \"#utility.yul\":31797:31803   */\n      dup3\n        /* \"#utility.yul\":31793:31807   */\n      add\n        /* \"#utility.yul\":31786:31827   */\n      mstore\n        /* \"#utility.yul\":31669:31834   */\n      pop\n      jump\t// out\n        /* \"#utility.yul\":31840:31995   */\n    tag_466:\n        /* \"#utility.yul\":31980:31987   */\n      0x6f776e6572000000000000000000000000000000000000000000000000000000\n        /* \"#utility.yul\":31976:31977   */\n      0x00\n        /* \"#utility.yul\":31968:31974   */\n      dup3\n        /* \"#utility.yul\":31964:31978   */\n      add\n        /* \"#utility.yul\":31957:31988   */\n      mstore\n        /* \"#utility.yul\":31840:31995   */\n      pop\n      jump\t// out\n        /* \"#utility.yul\":32001:32170   */\n    tag_471:\n        /* \"#utility.yul\":32141:32162   */\n      0x6f766572206d6178546f74616c537570706c7900000000000000000000000000\n        /* \"#utility.yul\":32137:32138   */\n      0x00\n        /* \"#utility.yul\":32129:32135   */\n      dup3\n        /* \"#utility.yul\":32125:32139   */\n      add\n        /* \"#utility.yul\":32118:32163   */\n      mstore\n        /* \"#utility.yul\":32001:32170   */\n      pop\n      jump\t// out\n        /* \"#utility.yul\":32176:32341   */\n    tag_476:\n        /* \"#utility.yul\":32316:32333   */\n      0x494e56414c49445f414444524553530000000000000000000000000000000000\n        /* \"#utility.yul\":32312:32313   */\n      0x00\n        /* \"#utility.yul\":32304:32310   */\n      dup3\n        /* \"#utility.yul\":32300:32314   */\n      add\n        /* \"#utility.yul\":32293:32334   */\n      mstore\n        /* \"#utility.yul\":32176:32341   */\n      pop\n      jump\t// out\n        /* \"#utility.yul\":32347:32508   */\n    tag_481:\n        /* \"#utility.yul\":32487:32500   */\n      0x6275726e4d616368696e65000000000000000000000000000000000000000000\n        /* \"#utility.yul\":32483:32484   */\n      0x00\n        /* \"#utility.yul\":32475:32481   */\n      dup3\n        /* \"#utility.yul\":32471:32485   */\n      add\n        /* \"#utility.yul\":32464:32501   */\n      mstore\n        /* \"#utility.yul\":32347:32508   */\n      pop\n      jump\t// out\n        /* \"#utility.yul\":32514:32681   */\n    tag_486:\n        /* \"#utility.yul\":32654:32673   */\n      0x7472616e736665724f776e657273686970000000000000000000000000000000\n        /* \"#utility.yul\":32650:32651   */\n      0x00\n        /* \"#utility.yul\":32642:32648   */\n      dup3\n        /* \"#utility.yul\":32638:32652   */\n      add\n        /* \"#utility.yul\":32631:32674   */\n      mstore\n        /* \"#utility.yul\":32514:32681   */\n      pop\n      jump\t// out\n        /* \"#utility.yul\":32687:32868   */\n    tag_491:\n        /* \"#utility.yul\":32827:32860   */\n      0x5472616e73616374696f6e206861736e2774206265656e207175657565642e00\n        /* \"#utility.yul\":32823:32824   */\n      0x00\n        /* \"#utility.yul\":32815:32821   */\n      dup3\n        /* \"#utility.yul\":32811:32825   */\n      add\n        /* \"#utility.yul\":32804:32861   */\n      mstore\n        /* \"#utility.yul\":32687:32868   */\n      pop\n      jump\t// out\n        /* \"#utility.yul\":32874:33051   */\n    tag_496:\n        /* \"#utility.yul\":33014:33043   */\n      0x536166654d6174683a206164646974696f6e206f766572666c6f770000000000\n        /* \"#utility.yul\":33010:33011   */\n      0x00\n        /* \"#utility.yul\":33002:33008   */\n      dup3\n        /* \"#utility.yul\":32998:33012   */\n      add\n        /* \"#utility.yul\":32991:33044   */\n      mstore\n        /* \"#utility.yul\":32874:33051   */\n      pop\n      jump\t// out\n        /* \"#utility.yul\":33057:33296   */\n    tag_501:\n        /* \"#utility.yul\":33197:33231   */\n      0x54696d656c6f636b3a3a73657444656c61793a2044656c6179206d7573742065\n        /* \"#utility.yul\":33193:33194   */\n      0x00\n        /* \"#utility.yul\":33185:33191   */\n      dup3\n        /* \"#utility.yul\":33181:33195   */\n      add\n        /* \"#utility.yul\":33174:33232   */\n      mstore\n        /* \"#utility.yul\":33266:33288   */\n      0x7863656564206d696e696d756d2064656c61792e000000000000000000000000\n        /* \"#utility.yul\":33261:33263   */\n      0x20\n        /* \"#utility.yul\":33253:33259   */\n      dup3\n        /* \"#utility.yul\":33249:33264   */\n      add\n        /* \"#utility.yul\":33242:33289   */\n      mstore\n        /* \"#utility.yul\":33057:33296   */\n      pop\n      jump\t// out\n        /* \"#utility.yul\":33302:33466   */\n    tag_506:\n        /* \"#utility.yul\":33442:33458   */\n      0x7365744275726e4d616368696e65000000000000000000000000000000000000\n        /* \"#utility.yul\":33438:33439   */\n      0x00\n        /* \"#utility.yul\":33430:33436   */\n      dup3\n        /* \"#utility.yul\":33426:33440   */\n      add\n        /* \"#utility.yul\":33419:33459   */\n      mstore\n        /* \"#utility.yul\":33302:33466   */\n      pop\n      jump\t// out\n        /* \"#utility.yul\":33472:33635   */\n    tag_511:\n        /* \"#utility.yul\":33612:33627   */\n      0x6d696e696e674d616368696e6500000000000000000000000000000000000000\n        /* \"#utility.yul\":33608:33609   */\n      0x00\n        /* \"#utility.yul\":33600:33606   */\n      dup3\n        /* \"#utility.yul\":33596:33610   */\n      add\n        /* \"#utility.yul\":33589:33628   */\n      mstore\n        /* \"#utility.yul\":33472:33635   */\n      pop\n      jump\t// out\n        /* \"#utility.yul\":33641:33807   */\n    tag_516:\n        /* \"#utility.yul\":33781:33799   */\n      0x7365744d696e696e674d616368696e6500000000000000000000000000000000\n        /* \"#utility.yul\":33777:33778   */\n      0x00\n        /* \"#utility.yul\":33769:33775   */\n      dup3\n        /* \"#utility.yul\":33765:33779   */\n      add\n        /* \"#utility.yul\":33758:33800   */\n      mstore\n        /* \"#utility.yul\":33641:33807   */\n      pop\n      jump\t// out\n        /* \"#utility.yul\":33813:34056   */\n    tag_521:\n        /* \"#utility.yul\":33953:33987   */\n      0x54696d656c6f636b3a3a73657444656c61793a2044656c6179206d757374206e\n        /* \"#utility.yul\":33949:33950   */\n      0x00\n        /* \"#utility.yul\":33941:33947   */\n      dup3\n        /* \"#utility.yul\":33937:33951   */\n      add\n        /* \"#utility.yul\":33930:33988   */\n      mstore\n        /* \"#utility.yul\":34022:34048   */\n      0x6f7420657863656564206d6178696d756d2064656c61792e0000000000000000\n        /* \"#utility.yul\":34017:34019   */\n      0x20\n        /* \"#utility.yul\":34009:34015   */\n      dup3\n        /* \"#utility.yul\":34005:34020   */\n      add\n        /* \"#utility.yul\":33998:34049   */\n      mstore\n        /* \"#utility.yul\":33813:34056   */\n      pop\n      jump\t// out\n        /* \"#utility.yul\":34062:34288   */\n    tag_526:\n        /* \"#utility.yul\":34202:34236   */\n      0x5472616e73616374696f6e206861736e2774207375727061737365642074696d\n        /* \"#utility.yul\":34198:34199   */\n      0x00\n        /* \"#utility.yul\":34190:34196   */\n      dup3\n        /* \"#utility.yul\":34186:34200   */\n      add\n        /* \"#utility.yul\":34179:34237   */\n      mstore\n        /* \"#utility.yul\":34271:34280   */\n      0x65206c6f636b2e00000000000000000000000000000000000000000000000000\n        /* \"#utility.yul\":34266:34268   */\n      0x20\n        /* \"#utility.yul\":34258:34264   */\n      dup3\n        /* \"#utility.yul\":34254:34269   */\n      add\n        /* \"#utility.yul\":34247:34281   */\n      mstore\n        /* \"#utility.yul\":34062:34288   */\n      pop\n      jump\t// out\n        /* \"#utility.yul\":34294:34459   */\n    tag_531:\n        /* \"#utility.yul\":34434:34451   */\n      0x5f6d6178546f74616c537570706c790000000000000000000000000000000000\n        /* \"#utility.yul\":34430:34431   */\n      0x00\n        /* \"#utility.yul\":34422:34428   */\n      dup3\n        /* \"#utility.yul\":34418:34432   */\n      add\n        /* \"#utility.yul\":34411:34452   */\n      mstore\n        /* \"#utility.yul\":34294:34459   */\n      pop\n      jump\t// out\n        /* \"#utility.yul\":34465:34632   */\n    tag_536:\n        /* \"#utility.yul\":34605:34624   */\n      0x7365744d6178546f74616c537570706c79000000000000000000000000000000\n        /* \"#utility.yul\":34601:34602   */\n      0x00\n        /* \"#utility.yul\":34593:34599   */\n      dup3\n        /* \"#utility.yul\":34589:34603   */\n      add\n        /* \"#utility.yul\":34582:34625   */\n      mstore\n        /* \"#utility.yul\":34465:34632   */\n      pop\n      jump\t// out\n        /* \"#utility.yul\":34638:34806   */\n    tag_541:\n        /* \"#utility.yul\":34778:34798   */\n      0x494e56414c49445f5045524d495353494f4e0000000000000000000000000000\n        /* \"#utility.yul\":34774:34775   */\n      0x00\n        /* \"#utility.yul\":34766:34772   */\n      dup3\n        /* \"#utility.yul\":34762:34776   */\n      add\n        /* \"#utility.yul\":34755:34799   */\n      mstore\n        /* \"#utility.yul\":34638:34806   */\n      pop\n      jump\t// out\n        /* \"#utility.yul\":34812:34976   */\n    tag_546:\n        /* \"#utility.yul\":34952:34968   */\n      0x494e56414c49445f414d4f554e54000000000000000000000000000000000000\n        /* \"#utility.yul\":34948:34949   */\n      0x00\n        /* \"#utility.yul\":34940:34946   */\n      dup3\n        /* \"#utility.yul\":34936:34950   */\n      add\n        /* \"#utility.yul\":34929:34969   */\n      mstore\n        /* \"#utility.yul\":34812:34976   */\n      pop\n      jump\t// out\n        /* \"#utility.yul\":34982:35147   */\n    tag_551:\n        /* \"#utility.yul\":35122:35139   */\n      0x494e56414c49445f42414c414e43450000000000000000000000000000000000\n        /* \"#utility.yul\":35118:35119   */\n      0x00\n        /* \"#utility.yul\":35110:35116   */\n      dup3\n        /* \"#utility.yul\":35106:35120   */\n      add\n        /* \"#utility.yul\":35099:35140   */\n      mstore\n        /* \"#utility.yul\":34982:35147   */\n      pop\n      jump\t// out\n        /* \"#utility.yul\":35153:35324   */\n    tag_556:\n        /* \"#utility.yul\":35293:35316   */\n      0x5472616e73616374696f6e206973207374616c652e0000000000000000000000\n        /* \"#utility.yul\":35289:35290   */\n      0x00\n        /* \"#utility.yul\":35281:35287   */\n      dup3\n        /* \"#utility.yul\":35277:35291   */\n      add\n        /* \"#utility.yul\":35270:35317   */\n      mstore\n        /* \"#utility.yul\":35153:35324   */\n      pop\n      jump\t// out\n        /* \"#utility.yul\":35330:35511   */\n    tag_561:\n        /* \"#utility.yul\":35470:35503   */\n      0x45524332303a206d696e7420746f20746865207a65726f206164647265737300\n        /* \"#utility.yul\":35466:35467   */\n      0x00\n        /* \"#utility.yul\":35458:35464   */\n      dup3\n        /* \"#utility.yul\":35454:35468   */\n      add\n        /* \"#utility.yul\":35447:35504   */\n      mstore\n        /* \"#utility.yul\":35330:35511   */\n      pop\n      jump\t// out\n        /* \"#utility.yul\":35517:35639   */\n    tag_359:\n        /* \"#utility.yul\":35590:35614   */\n      tag_711\n        /* \"#utility.yul\":35608:35613   */\n      dup2\n        /* \"#utility.yul\":35590:35614   */\n      tag_442\n      jump\t// in\n    tag_711:\n        /* \"#utility.yul\":35583:35588   */\n      dup2\n        /* \"#utility.yul\":35580:35615   */\n      eq\n        /* \"#utility.yul\":35570:35633   */\n      tag_712\n      jumpi\n        /* \"#utility.yul\":35629:35630   */\n      0x00\n        /* \"#utility.yul\":35626:35627   */\n      dup1\n        /* \"#utility.yul\":35619:35631   */\n      revert\n        /* \"#utility.yul\":35570:35633   */\n    tag_712:\n        /* \"#utility.yul\":35517:35639   */\n      pop\n      jump\t// out\n        /* \"#utility.yul\":35645:35767   */\n    tag_363:\n        /* \"#utility.yul\":35718:35742   */\n      tag_714\n        /* \"#utility.yul\":35736:35741   */\n      dup2\n        /* \"#utility.yul\":35718:35742   */\n      tag_661\n      jump\t// in\n    tag_714:\n        /* \"#utility.yul\":35711:35716   */\n      dup2\n        /* \"#utility.yul\":35708:35743   */\n      eq\n        /* \"#utility.yul\":35698:35761   */\n      tag_715\n      jumpi\n        /* \"#utility.yul\":35757:35758   */\n      0x00\n        /* \"#utility.yul\":35754:35755   */\n      dup1\n        /* \"#utility.yul\":35747:35759   */\n      revert\n        /* \"#utility.yul\":35698:35761   */\n    tag_715:\n        /* \"#utility.yul\":35645:35767   */\n      pop\n      jump\t// out\n        /* \"#utility.yul\":35773:35895   */\n    tag_373:\n        /* \"#utility.yul\":35846:35870   */\n      tag_717\n        /* \"#utility.yul\":35864:35869   */\n      dup2\n        /* \"#utility.yul\":35846:35870   */\n      tag_565\n      jump\t// in\n    tag_717:\n        /* \"#utility.yul\":35839:35844   */\n      dup2\n        /* \"#utility.yul\":35836:35871   */\n      eq\n        /* \"#utility.yul\":35826:35889   */\n      tag_718\n      jumpi\n        /* \"#utility.yul\":35885:35886   */\n      0x00\n        /* \"#utility.yul\":35882:35883   */\n      dup1\n        /* \"#utility.yul\":35875:35887   */\n      revert\n        /* \"#utility.yul\":35826:35889   */\n    tag_718:\n        /* \"#utility.yul\":35773:35895   */\n      pop\n      jump\t// out\n\n    auxdata: 0xa2646970667358221220ec68b74814d9ead7d7dfd48c5eaa24a4cded2b214023a5a40f47c7c5d432853f64736f6c63430008070033\n}\n",
				"bytecode": {
					"linkReferences": {},
					"object": "608060405269d3c21bcecceda10000006005556040518060400160405280600a81526020017f4752422020546f6b656e00000000000000000000000000000000000000000000815250600690805190602001906200005f9291906200011e565b506040518060400160405280600381526020017f475242000000000000000000000000000000000000000000000000000000000081525060079080519060200190620000ad9291906200011e565b506012600860006101000a81548160ff021916908360ff160217905550348015620000d757600080fd5b50336000806101000a81548173ffffffffffffffffffffffffffffffffffffffff021916908373ffffffffffffffffffffffffffffffffffffffff16021790555062000233565b8280546200012c90620001ce565b90600052602060002090601f0160209004810192826200015057600085556200019c565b82601f106200016b57805160ff19168380011785556200019c565b828001600101855582156200019c579182015b828111156200019b5782518255916020019190600101906200017e565b5b509050620001ab9190620001af565b5090565b5b80821115620001ca576000816000905550600101620001b0565b5090565b60006002820490506001821680620001e757607f821691505b60208210811415620001fe57620001fd62000204565b5b50919050565b7f4e487b7100000000000000000000000000000000000000000000000000000000600052602260045260246000fd5b6139d380620002436000396000f3fe608060405234801561001057600080fd5b50600436106101e55760003560e01c80638cac8f031161010f578063a7667957116100a2578063bd0c5a9d11610071578063bd0c5a9d14610527578063c1a287e214610557578063dd62ed3e14610575578063e177246e146105a5576101e5565b8063a7667957146104b1578063a9059cbb146104bb578063b1b43ae5146104eb578063bce645db14610509576101e5565b80639312dc5f116100de5780639312dc5f1461043d57806395d89b41146104595780639dc29fac14610477578063a41e9c9014610493576101e5565b80638cac8f03146103ef5780638da5cb5b1461040b5780638e0b0db5146104295780638ecc676f14610433576101e5565b806340c10f1911610187578063725968731161015657806372596873146103795780637d645fab146103a9578063880ad0af146103c7578063893d20e8146103d1576101e5565b806340c10f19146102de5780636a42b8f8146102fa5780636edc28fd1461031857806370a0823114610349576101e5565b806318160ddd116101c357806318160ddd1461025457806323b872dd146102725780632ab4d052146102a2578063313ce567146102c0576101e5565b806306fdde03146101ea578063095ea7b31461020857806314ca81ed14610238575b600080fd5b6101f26105c1565b6040516101ff9190612f55565b60405180910390f35b610222600480360381019061021d9190612931565b61064f565b60405161022f9190612f11565b60405180910390f35b610252600480360381019061024d9190612a5f565b6107b0565b005b61025c610970565b60405161026991906132a1565b60405180910390f35b61028c600480360381019061028791906128de565b61097a565b6040516102999190612f11565b60405180910390f35b6102aa610da8565b6040516102b791906132a1565b60405180910390f35b6102c8610db2565b6040516102d591906132bc565b60405180910390f35b6102f860048036038101906102f39190612931565b610dc5565b005b610302611086565b60405161030f91906132a1565b60405180910390f35b610332600480360381019061032d9190612971565b61108c565b604051610340929190612f2c565b60405180910390f35b610363600480360381019061035e9190612871565b6110bd565b60405161037091906132a1565b60405180910390f35b610393600480360381019061038e91906129e7565b611106565b6040516103a091906132a1565b60405180910390f35b6103b1611184565b6040516103be91906132a1565b60405180910390f35b6103cf61118b565b005b6103d961143b565b6040516103e69190612ef6565b60405180910390f35b6104096004803603810190610404919061299e565b611464565b005b610413611587565b6040516104209190612ef6565b60405180910390f35b6104316115ab565b005b61043b611796565b005b61045760048036038101906104529190612aea565b611a47565b005b610461611bcd565b60405161046e9190612f55565b60405180910390f35b610491600480360381019061048c9190612931565b611c5b565b005b61049b611e05565b6040516104a89190612ef6565b60405180910390f35b6104b9611e2b565b005b6104d560048036038101906104d09190612931565b6120dc565b6040516104e29190612f11565b60405180910390f35b6104f361233b565b60405161050091906132a1565b60405180910390f35b610511612342565b60405161051e9190612ef6565b60405180910390f35b610541600480360381019061053c91906129e7565b612368565b60405161054e9190612ef6565b60405180910390f35b61055f612406565b60405161056c91906132a1565b60405180910390f35b61058f600480360381019061058a919061289e565b61240d565b60405161059c91906132a1565b60405180910390f35b6105bf60048036038101906105ba9190612b75565b612494565b005b600680546105ce90613474565b80601f01602080910402602001604051908101604052809291908181526020018280546105fa90613474565b80156106475780601f1061061c57610100808354040283529160200191610647565b820191906000526020600020905b81548152906001019060200180831161062a57829003601f168201915b505050505081565b60008073ffffffffffffffffffffffffffffffffffffffff168373ffffffffffffffffffffffffffffffffffffffff1614156106c0576040517f08c379a00000000000000000000000000000000000000000000000000000000081526004016106b790613001565b60405180910390fd5b81600360003373ffffffffffffffffffffffffffffffffffffffff1673ffffffffffffffffffffffffffffffffffffffff16815260200190815260200160002060008573ffffffffffffffffffffffffffffffffffffffff1673ffffffffffffffffffffffffffffffffffffffff168152602001908152602001600020819055508273ffffffffffffffffffffffffffffffffffffffff163373ffffffffffffffffffffffffffffffffffffffff167f8c5be1e5ebec7d5bd14f71427d1e84f3dd0314c0f7b2291e5b200ac8c7c3b9258460405161079e91906132a1565b60405180910390a36001905092915050565b60008054906101000a900473ffffffffffffffffffffffffffffffffffffffff1673ffffffffffffffffffffffffffffffffffffffff163373ffffffffffffffffffffffffffffffffffffffff161461083e576040517f08c379a000000000000000000000000000000000000000000000000000000000815260040161083590613201565b60405180910390fd5b600060016000856040516020016108559190612f55565b604051602081830303815290604052805190602001208152602001908152602001600020905081816002016000856040516020016108939190612f55565b60405160208183030381529060405280519060200120815260200190815260200160002060006101000a81548173ffffffffffffffffffffffffffffffffffffffff021916908373ffffffffffffffffffffffffffffffffffffffff16021790555060018160000160006101000a81548160ff021916908315150217905550610927600a54426125b890919063ffffffff16565b81600101819055507f1bd33efd68d2824f5f0f2519ce7c9ca0ddff6234523468e89077a0dca7b7397084848460405161096293929190612f77565b60405180910390a150505050565b6000600454905090565b60008082116109be576040517f08c379a00000000000000000000000000000000000000000000000000000000081526004016109b590613221565b60405180910390fd5b81600260008673ffffffffffffffffffffffffffffffffffffffff1673ffffffffffffffffffffffffffffffffffffffff168152602001908152602001600020541015610a40576040517f08c379a0000000000000000000000000000000000000000000000000000000008152600401610a3790613241565b60405180910390fd5b81600360008673ffffffffffffffffffffffffffffffffffffffff1673ffffffffffffffffffffffffffffffffffffffff16815260200190815260200160002060003373ffffffffffffffffffffffffffffffffffffffff1673ffffffffffffffffffffffffffffffffffffffff168152602001908152602001600020541015610aff576040517f08c379a0000000000000000000000000000000000000000000000000000000008152600401610af690613201565b60405180910390fd5b610b8e82600360008773ffffffffffffffffffffffffffffffffffffffff1673ffffffffffffffffffffffffffffffffffffffff16815260200190815260200160002060003373ffffffffffffffffffffffffffffffffffffffff1673ffffffffffffffffffffffffffffffffffffffff1681526020019081526020016000205461261690919063ffffffff16565b600360008673ffffffffffffffffffffffffffffffffffffffff1673ffffffffffffffffffffffffffffffffffffffff16815260200190815260200160002060003373ffffffffffffffffffffffffffffffffffffffff1673ffffffffffffffffffffffffffffffffffffffff16815260200190815260200160002081905550610c6082600260008773ffffffffffffffffffffffffffffffffffffffff1673ffffffffffffffffffffffffffffffffffffffff1681526020019081526020016000205461261690919063ffffffff16565b600260008673ffffffffffffffffffffffffffffffffffffffff1673ffffffffffffffffffffffffffffffffffffffff16815260200190815260200160002081905550610cf582600260008673ffffffffffffffffffffffffffffffffffffffff1673ffffffffffffffffffffffffffffffffffffffff168152602001908152602001600020546125b890919063ffffffff16565b600260008573ffffffffffffffffffffffffffffffffffffffff1673ffffffffffffffffffffffffffffffffffffffff168152602001908152602001600020819055508273ffffffffffffffffffffffffffffffffffffffff168473ffffffffffffffffffffffffffffffffffffffff167fddf252ad1be2c89b69c2b068fc378daa952ba7f163c4a11628f55a4df523b3ef84604051610d9591906132a1565b60405180910390a3600190509392505050565b6000600554905090565b600860009054906101000a900460ff1681565b600860019054906101000a900473ffffffffffffffffffffffffffffffffffffffff1673ffffffffffffffffffffffffffffffffffffffff163373ffffffffffffffffffffffffffffffffffffffff1614610e55576040517f08c379a0000000000000000000000000000000000000000000000000000000008152600401610e4c90613201565b60405180910390fd5b600073ffffffffffffffffffffffffffffffffffffffff168273ffffffffffffffffffffffffffffffffffffffff161415610ec5576040517f08c379a0000000000000000000000000000000000000000000000000000000008152600401610ebc90613281565b60405180910390fd5b6005546004541115610eda5760009050610f13565b600554610ef2826004546125b890919063ffffffff16565b1115610f1257610f0f60045460055461261690919063ffffffff16565b90505b5b600554610f2b826004546125b890919063ffffffff16565b1115610f6c576040517f08c379a0000000000000000000000000000000000000000000000000000000008152600401610f6390613041565b60405180910390fd5b610f81816004546125b890919063ffffffff16565b600481905550610fd981600260008573ffffffffffffffffffffffffffffffffffffffff1673ffffffffffffffffffffffffffffffffffffffff168152602001908152602001600020546125b890919063ffffffff16565b600260008473ffffffffffffffffffffffffffffffffffffffff1673ffffffffffffffffffffffffffffffffffffffff168152602001908152602001600020819055508173ffffffffffffffffffffffffffffffffffffffff16600073ffffffffffffffffffffffffffffffffffffffff167fddf252ad1be2c89b69c2b068fc378daa952ba7f163c4a11628f55a4df523b3ef8360405161107a91906132a1565b60405180910390a35050565b600a5481565b60016020528060005260406000206000915090508060000160009054906101000a900460ff16908060010154905082565b6000600260008373ffffffffffffffffffffffffffffffffffffffff1673ffffffffffffffffffffffffffffffffffffffff168152602001908152602001600020549050919050565b6000600160008460405160200161111d9190612f55565b6040516020818303038152906040528051906020012081526020019081526020016000206003016000836040516020016111579190612f55565b60405160208183030381529060405280519060200120815260200190815260200160002054905092915050565b62278d0081565b60008054906101000a900473ffffffffffffffffffffffffffffffffffffffff1673ffffffffffffffffffffffffffffffffffffffff163373ffffffffffffffffffffffffffffffffffffffff1614611219576040517f08c379a000000000000000000000000000000000000000000000000000000000815260040161121090613201565b60405180910390fd5b60006001600060405160200161122e906130a1565b604051602081830303815290604052805190602001208152602001908152602001600020905061125d81612660565b600073ffffffffffffffffffffffffffffffffffffffff1681600201600060405160200161128a90613021565b60405160208183030381529060405280519060200120815260200190815260200160002060009054906101000a900473ffffffffffffffffffffffffffffffffffffffff1673ffffffffffffffffffffffffffffffffffffffff161415611326576040517f08c379a000000000000000000000000000000000000000000000000000000000815260040161131d90613061565b60405180910390fd5b80600201600060405160200161133b90613021565b60405160208183030381529060405280519060200120815260200190815260200160002060009054906101000a900473ffffffffffffffffffffffffffffffffffffffff166000806101000a81548173ffffffffffffffffffffffffffffffffffffffff021916908373ffffffffffffffffffffffffffffffffffffffff1602179055508060020160006040516020016113d490613021565b60405160208183030381529060405280519060200120815260200190815260200160002060006101000a81549073ffffffffffffffffffffffffffffffffffffffff021916905560008160000160006101000a81548160ff02191690831515021790555050565b60008060009054906101000a900473ffffffffffffffffffffffffffffffffffffffff16905090565b60008054906101000a900473ffffffffffffffffffffffffffffffffffffffff1673ffffffffffffffffffffffffffffffffffffffff163373ffffffffffffffffffffffffffffffffffffffff16146114f2576040517f08c379a00000000000000000000000000000000000000000000000000000000081526004016114e990613201565b60405180910390fd5b600060016000836040516020016115099190612f55565b604051602081830303815290604052805190602001208152602001908152602001600020905060008160000160006101000a81548160ff0219169083151502179055507fce369f91d52b663114643c430217b52530c2cc7318cac7a3e9d46241cbc354a88260405161157b9190612f55565b60405180910390a15050565b60008054906101000a900473ffffffffffffffffffffffffffffffffffffffff1681565b60008054906101000a900473ffffffffffffffffffffffffffffffffffffffff1673ffffffffffffffffffffffffffffffffffffffff163373ffffffffffffffffffffffffffffffffffffffff1614611639576040517f08c379a000000000000000000000000000000000000000000000000000000000815260040161163090613201565b60405180910390fd5b60006001600060405160200161164e906131e1565b604051602081830303815290604052805190602001208152602001908152602001600020905061167d81612660565b6000816003016000604051602001611694906131c1565b60405160208183030381529060405280519060200120815260200190815260200160002054116116f9576040517f08c379a00000000000000000000000000000000000000000000000000000000081526004016116f090613221565b60405180910390fd5b80600301600060405160200161170e906131c1565b6040516020818303038152906040528051906020012081526020019081526020016000205460058190555080600301600060405160200161174e906131c1565b6040516020818303038152906040528051906020012081526020019081526020016000206000905560008160000160006101000a81548160ff02191690831515021790555050565b60008054906101000a900473ffffffffffffffffffffffffffffffffffffffff1673ffffffffffffffffffffffffffffffffffffffff163373ffffffffffffffffffffffffffffffffffffffff1614611824576040517f08c379a000000000000000000000000000000000000000000000000000000000815260040161181b90613201565b60405180910390fd5b60006001600060405160200161183990613161565b604051602081830303815290604052805190602001208152602001908152602001600020905061186881612660565b600073ffffffffffffffffffffffffffffffffffffffff1681600201600060405160200161189590613141565b60405160208183030381529060405280519060200120815260200190815260200160002060009054906101000a900473ffffffffffffffffffffffffffffffffffffffff1673ffffffffffffffffffffffffffffffffffffffff161415611931576040517f08c379a000000000000000000000000000000000000000000000000000000000815260040161192890613061565b60405180910390fd5b80600201600060405160200161194690613141565b60405160208183030381529060405280519060200120815260200190815260200160002060009054906101000a900473ffffffffffffffffffffffffffffffffffffffff16600860016101000a81548173ffffffffffffffffffffffffffffffffffffffff021916908373ffffffffffffffffffffffffffffffffffffffff1602179055508060020160006040516020016119e090613141565b60405160208183030381529060405280519060200120815260200190815260200160002060006101000a81549073ffffffffffffffffffffffffffffffffffffffff021916905560008160000160006101000a81548160ff02191690831515021790555050565b60008054906101000a900473ffffffffffffffffffffffffffffffffffffffff1673ffffffffffffffffffffffffffffffffffffffff163373ffffffffffffffffffffffffffffffffffffffff1614611ad5576040517f08c379a0000000000000000000000000000000000000000000000000000000008152600401611acc90613201565b60405180910390fd5b60006001600085604051602001611aec9190612f55565b60405160208183030381529060405280519060200120815260200190815260200160002090508181600301600085604051602001611b2a9190612f55565b6040516020818303038152906040528051906020012081526020019081526020016000208190555060018160000160006101000a81548160ff021916908315150217905550611b84600a54426125b890919063ffffffff16565b81600101819055507f860699cc7b0f3cb3d034fd31cdfe0816887a9f55d10993224d77c359c3d55551848484604051611bbf93929190612fbc565b60405180910390a150505050565b60078054611bda90613474565b80601f0160208091040260200160405190810160405280929190818152602001828054611c0690613474565b8015611c535780601f10611c2857610100808354040283529160200191611c53565b820191906000526020600020905b815481529060010190602001808311611c3657829003601f168201915b505050505081565b600960009054906101000a900473ffffffffffffffffffffffffffffffffffffffff1673ffffffffffffffffffffffffffffffffffffffff163373ffffffffffffffffffffffffffffffffffffffff1614611ceb576040517f08c379a0000000000000000000000000000000000000000000000000000000008152600401611ce290613201565b60405180910390fd5b611d3d81600260008573ffffffffffffffffffffffffffffffffffffffff1673ffffffffffffffffffffffffffffffffffffffff1681526020019081526020016000205461261690919063ffffffff16565b600260008473ffffffffffffffffffffffffffffffffffffffff1673ffffffffffffffffffffffffffffffffffffffff16815260200190815260200160002081905550611d958160045461261690919063ffffffff16565b600481905550600073ffffffffffffffffffffffffffffffffffffffff168273ffffffffffffffffffffffffffffffffffffffff167fddf252ad1be2c89b69c2b068fc378daa952ba7f163c4a11628f55a4df523b3ef83604051611df991906132a1565b60405180910390a35050565b600960009054906101000a900473ffffffffffffffffffffffffffffffffffffffff1681565b60008054906101000a900473ffffffffffffffffffffffffffffffffffffffff1673ffffffffffffffffffffffffffffffffffffffff163373ffffffffffffffffffffffffffffffffffffffff1614611eb9576040517f08c379a0000000000000000000000000000000000000000000000000000000008152600401611eb090613201565b60405180910390fd5b600060016000604051602001611ece90613121565b6040516020818303038152906040528051906020012081526020019081526020016000209050611efd81612660565b600073ffffffffffffffffffffffffffffffffffffffff16816002016000604051602001611f2a90613121565b60405160208183030381529060405280519060200120815260200190815260200160002060009054906101000a900473ffffffffffffffffffffffffffffffffffffffff1673ffffffffffffffffffffffffffffffffffffffff161415611fc6576040517f08c379a0000000000000000000000000000000000000000000000000000000008152600401611fbd90613061565b60405180910390fd5b806002016000604051602001611fdb90613081565b60405160208183030381529060405280519060200120815260200190815260200160002060009054906101000a900473ffffffffffffffffffffffffffffffffffffffff16600960006101000a81548173ffffffffffffffffffffffffffffffffffffffff021916908373ffffffffffffffffffffffffffffffffffffffff16021790555080600201600060405160200161207590613081565b60405160208183030381529060405280519060200120815260200190815260200160002060006101000a81549073ffffffffffffffffffffffffffffffffffffffff021916905560008160000160006101000a81548160ff02191690831515021790555050565b6000808211612120576040517f08c379a000000000000000000000000000000000000000000000000000000000815260040161211790613221565b60405180910390fd5b81600260003373ffffffffffffffffffffffffffffffffffffffff1673ffffffffffffffffffffffffffffffffffffffff1681526020019081526020016000205410156121a2576040517f08c379a000000000000000000000000000000000000000000000000000000000815260040161219990613241565b60405180910390fd5b6121f482600260003373ffffffffffffffffffffffffffffffffffffffff1673ffffffffffffffffffffffffffffffffffffffff1681526020019081526020016000205461261690919063ffffffff16565b600260003373ffffffffffffffffffffffffffffffffffffffff1673ffffffffffffffffffffffffffffffffffffffff1681526020019081526020016000208190555061228982600260008673ffffffffffffffffffffffffffffffffffffffff1673ffffffffffffffffffffffffffffffffffffffff168152602001908152602001600020546125b890919063ffffffff16565b600260008573ffffffffffffffffffffffffffffffffffffffff1673ffffffffffffffffffffffffffffffffffffffff168152602001908152602001600020819055508273ffffffffffffffffffffffffffffffffffffffff163373ffffffffffffffffffffffffffffffffffffffff167fddf252ad1be2c89b69c2b068fc378daa952ba7f163c4a11628f55a4df523b3ef8460405161232991906132a1565b60405180910390a36001905092915050565b6202a30081565b600860019054906101000a900473ffffffffffffffffffffffffffffffffffffffff1681565b6000600160008460405160200161237f9190612f55565b6040516020818303038152906040528051906020012081526020019081526020016000206002016000836040516020016123b99190612f55565b60405160208183030381529060405280519060200120815260200190815260200160002060009054906101000a900473ffffffffffffffffffffffffffffffffffffffff16905092915050565b62278d0081565b6000600360008473ffffffffffffffffffffffffffffffffffffffff1673ffffffffffffffffffffffffffffffffffffffff16815260200190815260200160002060008373ffffffffffffffffffffffffffffffffffffffff1673ffffffffffffffffffffffffffffffffffffffff16815260200190815260200160002054905092915050565b60008054906101000a900473ffffffffffffffffffffffffffffffffffffffff1673ffffffffffffffffffffffffffffffffffffffff163373ffffffffffffffffffffffffffffffffffffffff1614612522576040517f08c379a000000000000000000000000000000000000000000000000000000000815260040161251990613201565b60405180910390fd5b6202a300811015612568576040517f08c379a000000000000000000000000000000000000000000000000000000000815260040161255f90613101565b60405180910390fd5b62278d008111156125ae576040517f08c379a00000000000000000000000000000000000000000000000000000000081526004016125a590613181565b60405180910390fd5b80600a8190555050565b60008082846125c79190613349565b90508381101561260c576040517f08c379a0000000000000000000000000000000000000000000000000000000008152600401612603906130e1565b60405180910390fd5b8091505092915050565b600061265883836040518060400160405280601e81526020017f536166654d6174683a207375627472616374696f6e206f766572666c6f77000081525061275e565b905092915050565b600115158160000160009054906101000a900460ff161515146126b8576040517f08c379a00000000000000000000000000000000000000000000000000000000081526004016126af906130c1565b60405180910390fd5b42816001015411156126ff576040517f08c379a00000000000000000000000000000000000000000000000000000000081526004016126f6906131a1565b60405180910390fd5b4261271a62278d0083600101546125b890919063ffffffff16565b101561275b576040517f08c379a000000000000000000000000000000000000000000000000000000000815260040161275290613261565b60405180910390fd5b50565b60008383111582906127a6576040517f08c379a000000000000000000000000000000000000000000000000000000000815260040161279d9190612f55565b60405180910390fd5b50600083856127b5919061339f565b9050809150509392505050565b60006127d56127d0846132fc565b6132d7565b9050828152602081018484840111156127f1576127f0613569565b5b6127fc848285613432565b509392505050565b60008135905061281381613958565b92915050565b6000813590506128288161396f565b92915050565b600082601f83011261284357612842613564565b5b81356128538482602086016127c2565b91505092915050565b60008135905061286b81613986565b92915050565b60006020828403121561288757612886613573565b5b600061289584828501612804565b91505092915050565b600080604083850312156128b5576128b4613573565b5b60006128c385828601612804565b92505060206128d485828601612804565b9150509250929050565b6000806000606084860312156128f7576128f6613573565b5b600061290586828701612804565b935050602061291686828701612804565b92505060406129278682870161285c565b9150509250925092565b6000806040838503121561294857612947613573565b5b600061295685828601612804565b92505060206129678582860161285c565b9150509250929050565b60006020828403121561298757612986613573565b5b600061299584828501612819565b91505092915050565b6000602082840312156129b4576129b3613573565b5b600082013567ffffffffffffffff8111156129d2576129d161356e565b5b6129de8482850161282e565b91505092915050565b600080604083850312156129fe576129fd613573565b5b600083013567ffffffffffffffff811115612a1c57612a1b61356e565b5b612a288582860161282e565b925050602083013567ffffffffffffffff811115612a4957612a4861356e565b5b612a558582860161282e565b9150509250929050565b600080600060608486031215612a7857612a77613573565b5b600084013567ffffffffffffffff811115612a9657612a9561356e565b5b612aa28682870161282e565b935050602084013567ffffffffffffffff811115612ac357612ac261356e565b5b612acf8682870161282e565b9250506040612ae086828701612804565b9150509250925092565b600080600060608486031215612b0357612b02613573565b5b600084013567ffffffffffffffff811115612b2157612b2061356e565b5b612b2d8682870161282e565b935050602084013567ffffffffffffffff811115612b4e57612b4d61356e565b5b612b5a8682870161282e565b9250506040612b6b8682870161285c565b9150509250925092565b600060208284031215612b8b57612b8a613573565b5b6000612b998482850161285c565b91505092915050565b612bab816133d3565b82525050565b612bba816133e5565b82525050565b6000612bcb8261332d565b612bd58185613338565b9350612be5818560208601613441565b612bee81613578565b840191505092915050565b6000612c06600f83613338565b9150612c1182613589565b602082019050919050565b6000612c29600583613338565b9150612c34826135b2565b602082019050919050565b6000612c4c601383613338565b9150612c57826135db565b602082019050919050565b6000612c6f600f83613338565b9150612c7a82613604565b602082019050919050565b6000612c92600b83613338565b9150612c9d8261362d565b602082019050919050565b6000612cb5601183613338565b9150612cc082613656565b602082019050919050565b6000612cd8601f83613338565b9150612ce38261367f565b602082019050919050565b6000612cfb601b83613338565b9150612d06826136a8565b602082019050919050565b6000612d1e603483613338565b9150612d29826136d1565b604082019050919050565b6000612d41600e83613338565b9150612d4c82613720565b602082019050919050565b6000612d64600d83613338565b9150612d6f82613749565b602082019050919050565b6000612d87601083613338565b9150612d9282613772565b602082019050919050565b6000612daa603883613338565b9150612db58261379b565b604082019050919050565b6000612dcd602783613338565b9150612dd8826137ea565b604082019050919050565b6000612df0600f83613338565b9150612dfb82613839565b602082019050919050565b6000612e13601183613338565b9150612e1e82613862565b602082019050919050565b6000612e36601283613338565b9150612e418261388b565b602082019050919050565b6000612e59600e83613338565b9150612e64826138b4565b602082019050919050565b6000612e7c600f83613338565b9150612e87826138dd565b602082019050919050565b6000612e9f601583613338565b9150612eaa82613906565b602082019050919050565b6000612ec2601f83613338565b9150612ecd8261392f565b602082019050919050565b612ee18161341b565b82525050565b612ef081613425565b82525050565b6000602082019050612f0b6000830184612ba2565b92915050565b6000602082019050612f266000830184612bb1565b92915050565b6000604082019050612f416000830185612bb1565b612f4e6020830184612ed8565b9392505050565b60006020820190508181036000830152612f6f8184612bc0565b905092915050565b60006060820190508181036000830152612f918186612bc0565b90508181036020830152612fa58185612bc0565b9050612fb46040830184612ba2565b949350505050565b60006060820190508181036000830152612fd68186612bc0565b90508181036020830152612fea8185612bc0565b9050612ff96040830184612ed8565b949350505050565b6000602082019050818103600083015261301a81612bf9565b9050919050565b6000602082019050818103600083015261303a81612c1c565b9050919050565b6000602082019050818103600083015261305a81612c3f565b9050919050565b6000602082019050818103600083015261307a81612c62565b9050919050565b6000602082019050818103600083015261309a81612c85565b9050919050565b600060208201905081810360008301526130ba81612ca8565b9050919050565b600060208201905081810360008301526130da81612ccb565b9050919050565b600060208201905081810360008301526130fa81612cee565b9050919050565b6000602082019050818103600083015261311a81612d11565b9050919050565b6000602082019050818103600083015261313a81612d34565b9050919050565b6000602082019050818103600083015261315a81612d57565b9050919050565b6000602082019050818103600083015261317a81612d7a565b9050919050565b6000602082019050818103600083015261319a81612d9d565b9050919050565b600060208201905081810360008301526131ba81612dc0565b9050919050565b600060208201905081810360008301526131da81612de3565b9050919050565b600060208201905081810360008301526131fa81612e06565b9050919050565b6000602082019050818103600083015261321a81612e29565b9050919050565b6000602082019050818103600083015261323a81612e4c565b9050919050565b6000602082019050818103600083015261325a81612e6f565b9050919050565b6000602082019050818103600083015261327a81612e92565b9050919050565b6000602082019050818103600083015261329a81612eb5565b9050919050565b60006020820190506132b66000830184612ed8565b92915050565b60006020820190506132d16000830184612ee7565b92915050565b60006132e16132f2565b90506132ed82826134a6565b919050565b6000604051905090565b600067ffffffffffffffff82111561331757613316613535565b5b61332082613578565b9050602081019050919050565b600081519050919050565b600082825260208201905092915050565b60006133548261341b565b915061335f8361341b565b9250827fffffffffffffffffffffffffffffffffffffffffffffffffffffffffffffffff03821115613394576133936134d7565b5b828201905092915050565b60006133aa8261341b565b91506133b58361341b565b9250828210156133c8576133c76134d7565b5b828203905092915050565b60006133de826133fb565b9050919050565b60008115159050919050565b6000819050919050565b600073ffffffffffffffffffffffffffffffffffffffff82169050919050565b6000819050919050565b600060ff82169050919050565b82818337600083830152505050565b60005b8381101561345f578082015181840152602081019050613444565b8381111561346e576000848401525b50505050565b6000600282049050600182168061348c57607f821691505b602082108114156134a05761349f613506565b5b50919050565b6134af82613578565b810181811067ffffffffffffffff821117156134ce576134cd613535565b5b80604052505050565b7f4e487b7100000000000000000000000000000000000000000000000000000000600052601160045260246000fd5b7f4e487b7100000000000000000000000000000000000000000000000000000000600052602260045260246000fd5b7f4e487b7100000000000000000000000000000000000000000000000000000000600052604160045260246000fd5b600080fd5b600080fd5b600080fd5b600080fd5b6000601f19601f8301169050919050565b7f494e56414c49445f5350454e4445520000000000000000000000000000000000600082015250565b7f6f776e6572000000000000000000000000000000000000000000000000000000600082015250565b7f6f766572206d6178546f74616c537570706c7900000000000000000000000000600082015250565b7f494e56414c49445f414444524553530000000000000000000000000000000000600082015250565b7f6275726e4d616368696e65000000000000000000000000000000000000000000600082015250565b7f7472616e736665724f776e657273686970000000000000000000000000000000600082015250565b7f5472616e73616374696f6e206861736e2774206265656e207175657565642e00600082015250565b7f536166654d6174683a206164646974696f6e206f766572666c6f770000000000600082015250565b7f54696d656c6f636b3a3a73657444656c61793a2044656c6179206d757374206560008201527f7863656564206d696e696d756d2064656c61792e000000000000000000000000602082015250565b7f7365744275726e4d616368696e65000000000000000000000000000000000000600082015250565b7f6d696e696e674d616368696e6500000000000000000000000000000000000000600082015250565b7f7365744d696e696e674d616368696e6500000000000000000000000000000000600082015250565b7f54696d656c6f636b3a3a73657444656c61793a2044656c6179206d757374206e60008201527f6f7420657863656564206d6178696d756d2064656c61792e0000000000000000602082015250565b7f5472616e73616374696f6e206861736e2774207375727061737365642074696d60008201527f65206c6f636b2e00000000000000000000000000000000000000000000000000602082015250565b7f5f6d6178546f74616c537570706c790000000000000000000000000000000000600082015250565b7f7365744d6178546f74616c537570706c79000000000000000000000000000000600082015250565b7f494e56414c49445f5045524d495353494f4e0000000000000000000000000000600082015250565b7f494e56414c49445f414d4f554e54000000000000000000000000000000000000600082015250565b7f494e56414c49445f42414c414e43450000000000000000000000000000000000600082015250565b7f5472616e73616374696f6e206973207374616c652e0000000000000000000000600082015250565b7f45524332303a206d696e7420746f20746865207a65726f206164647265737300600082015250565b613961816133d3565b811461396c57600080fd5b50565b613978816133f1565b811461398357600080fd5b50565b61398f8161341b565b811461399a57600080fd5b5056fea2646970667358221220ec68b74814d9ead7d7dfd48c5eaa24a4cded2b214023a5a40f47c7c5d432853f64736f6c63430008070033",
					"opcodes": "PUSH1 0x80 PUSH1 0x40 MSTORE PUSH10 0xD3C21BCECCEDA1000000 PUSH1 0x5 SSTORE PUSH1 0x40 MLOAD DUP1 PUSH1 0x40 ADD PUSH1 0x40 MSTORE DUP1 PUSH1 0xA DUP2 MSTORE PUSH1 0x20 ADD PUSH32 0x4752422020546F6B656E00000000000000000000000000000000000000000000 DUP2 MSTORE POP PUSH1 0x6 SWAP1 DUP1 MLOAD SWAP1 PUSH1 0x20 ADD SWAP1 PUSH3 0x5F SWAP3 SWAP2 SWAP1 PUSH3 0x11E JUMP JUMPDEST POP PUSH1 0x40 MLOAD DUP1 PUSH1 0x40 ADD PUSH1 0x40 MSTORE DUP1 PUSH1 0x3 DUP2 MSTORE PUSH1 0x20 ADD PUSH32 0x4752420000000000000000000000000000000000000000000000000000000000 DUP2 MSTORE POP PUSH1 0x7 SWAP1 DUP1 MLOAD SWAP1 PUSH1 0x20 ADD SWAP1 PUSH3 0xAD SWAP3 SWAP2 SWAP1 PUSH3 0x11E JUMP JUMPDEST POP PUSH1 0x12 PUSH1 0x8 PUSH1 0x0 PUSH2 0x100 EXP DUP2 SLOAD DUP2 PUSH1 0xFF MUL NOT AND SWAP1 DUP4 PUSH1 0xFF AND MUL OR SWAP1 SSTORE POP CALLVALUE DUP1 ISZERO PUSH3 0xD7 JUMPI PUSH1 0x0 DUP1 REVERT JUMPDEST POP CALLER PUSH1 0x0 DUP1 PUSH2 0x100 EXP DUP2 SLOAD DUP2 PUSH20 0xFFFFFFFFFFFFFFFFFFFFFFFFFFFFFFFFFFFFFFFF MUL NOT AND SWAP1 DUP4 PUSH20 0xFFFFFFFFFFFFFFFFFFFFFFFFFFFFFFFFFFFFFFFF AND MUL OR SWAP1 SSTORE POP PUSH3 0x233 JUMP JUMPDEST DUP3 DUP1 SLOAD PUSH3 0x12C SWAP1 PUSH3 0x1CE JUMP JUMPDEST SWAP1 PUSH1 0x0 MSTORE PUSH1 0x20 PUSH1 0x0 KECCAK256 SWAP1 PUSH1 0x1F ADD PUSH1 0x20 SWAP1 DIV DUP2 ADD SWAP3 DUP3 PUSH3 0x150 JUMPI PUSH1 0x0 DUP6 SSTORE PUSH3 0x19C JUMP JUMPDEST DUP3 PUSH1 0x1F LT PUSH3 0x16B JUMPI DUP1 MLOAD PUSH1 0xFF NOT AND DUP4 DUP1 ADD OR DUP6 SSTORE PUSH3 0x19C JUMP JUMPDEST DUP3 DUP1 ADD PUSH1 0x1 ADD DUP6 SSTORE DUP3 ISZERO PUSH3 0x19C JUMPI SWAP2 DUP3 ADD JUMPDEST DUP3 DUP2 GT ISZERO PUSH3 0x19B JUMPI DUP3 MLOAD DUP3 SSTORE SWAP2 PUSH1 0x20 ADD SWAP2 SWAP1 PUSH1 0x1 ADD SWAP1 PUSH3 0x17E JUMP JUMPDEST JUMPDEST POP SWAP1 POP PUSH3 0x1AB SWAP2 SWAP1 PUSH3 0x1AF JUMP JUMPDEST POP SWAP1 JUMP JUMPDEST JUMPDEST DUP1 DUP3 GT ISZERO PUSH3 0x1CA JUMPI PUSH1 0x0 DUP2 PUSH1 0x0 SWAP1 SSTORE POP PUSH1 0x1 ADD PUSH3 0x1B0 JUMP JUMPDEST POP SWAP1 JUMP JUMPDEST PUSH1 0x0 PUSH1 0x2 DUP3 DIV SWAP1 POP PUSH1 0x1 DUP3 AND DUP1 PUSH3 0x1E7 JUMPI PUSH1 0x7F DUP3 AND SWAP2 POP JUMPDEST PUSH1 0x20 DUP3 LT DUP2 EQ ISZERO PUSH3 0x1FE JUMPI PUSH3 0x1FD PUSH3 0x204 JUMP JUMPDEST JUMPDEST POP SWAP2 SWAP1 POP JUMP JUMPDEST PUSH32 0x4E487B7100000000000000000000000000000000000000000000000000000000 PUSH1 0x0 MSTORE PUSH1 0x22 PUSH1 0x4 MSTORE PUSH1 0x24 PUSH1 0x0 REVERT JUMPDEST PUSH2 0x39D3 DUP1 PUSH3 0x243 PUSH1 0x0 CODECOPY PUSH1 0x0 RETURN INVALID PUSH1 0x80 PUSH1 0x40 MSTORE CALLVALUE DUP1 ISZERO PUSH2 0x10 JUMPI PUSH1 0x0 DUP1 REVERT JUMPDEST POP PUSH1 0x4 CALLDATASIZE LT PUSH2 0x1E5 JUMPI PUSH1 0x0 CALLDATALOAD PUSH1 0xE0 SHR DUP1 PUSH4 0x8CAC8F03 GT PUSH2 0x10F JUMPI DUP1 PUSH4 0xA7667957 GT PUSH2 0xA2 JUMPI DUP1 PUSH4 0xBD0C5A9D GT PUSH2 0x71 JUMPI DUP1 PUSH4 0xBD0C5A9D EQ PUSH2 0x527 JUMPI DUP1 PUSH4 0xC1A287E2 EQ PUSH2 0x557 JUMPI DUP1 PUSH4 0xDD62ED3E EQ PUSH2 0x575 JUMPI DUP1 PUSH4 0xE177246E EQ PUSH2 0x5A5 JUMPI PUSH2 0x1E5 JUMP JUMPDEST DUP1 PUSH4 0xA7667957 EQ PUSH2 0x4B1 JUMPI DUP1 PUSH4 0xA9059CBB EQ PUSH2 0x4BB JUMPI DUP1 PUSH4 0xB1B43AE5 EQ PUSH2 0x4EB JUMPI DUP1 PUSH4 0xBCE645DB EQ PUSH2 0x509 JUMPI PUSH2 0x1E5 JUMP JUMPDEST DUP1 PUSH4 0x9312DC5F GT PUSH2 0xDE JUMPI DUP1 PUSH4 0x9312DC5F EQ PUSH2 0x43D JUMPI DUP1 PUSH4 0x95D89B41 EQ PUSH2 0x459 JUMPI DUP1 PUSH4 0x9DC29FAC EQ PUSH2 0x477 JUMPI DUP1 PUSH4 0xA41E9C90 EQ PUSH2 0x493 JUMPI PUSH2 0x1E5 JUMP JUMPDEST DUP1 PUSH4 0x8CAC8F03 EQ PUSH2 0x3EF JUMPI DUP1 PUSH4 0x8DA5CB5B EQ PUSH2 0x40B JUMPI DUP1 PUSH4 0x8E0B0DB5 EQ PUSH2 0x429 JUMPI DUP1 PUSH4 0x8ECC676F EQ PUSH2 0x433 JUMPI PUSH2 0x1E5 JUMP JUMPDEST DUP1 PUSH4 0x40C10F19 GT PUSH2 0x187 JUMPI DUP1 PUSH4 0x72596873 GT PUSH2 0x156 JUMPI DUP1 PUSH4 0x72596873 EQ PUSH2 0x379 JUMPI DUP1 PUSH4 0x7D645FAB EQ PUSH2 0x3A9 JUMPI DUP1 PUSH4 0x880AD0AF EQ PUSH2 0x3C7 JUMPI DUP1 PUSH4 0x893D20E8 EQ PUSH2 0x3D1 JUMPI PUSH2 0x1E5 JUMP JUMPDEST DUP1 PUSH4 0x40C10F19 EQ PUSH2 0x2DE JUMPI DUP1 PUSH4 0x6A42B8F8 EQ PUSH2 0x2FA JUMPI DUP1 PUSH4 0x6EDC28FD EQ PUSH2 0x318 JUMPI DUP1 PUSH4 0x70A08231 EQ PUSH2 0x349 JUMPI PUSH2 0x1E5 JUMP JUMPDEST DUP1 PUSH4 0x18160DDD GT PUSH2 0x1C3 JUMPI DUP1 PUSH4 0x18160DDD EQ PUSH2 0x254 JUMPI DUP1 PUSH4 0x23B872DD EQ PUSH2 0x272 JUMPI DUP1 PUSH4 0x2AB4D052 EQ PUSH2 0x2A2 JUMPI DUP1 PUSH4 0x313CE567 EQ PUSH2 0x2C0 JUMPI PUSH2 0x1E5 JUMP JUMPDEST DUP1 PUSH4 0x6FDDE03 EQ PUSH2 0x1EA JUMPI DUP1 PUSH4 0x95EA7B3 EQ PUSH2 0x208 JUMPI DUP1 PUSH4 0x14CA81ED EQ PUSH2 0x238 JUMPI JUMPDEST PUSH1 0x0 DUP1 REVERT JUMPDEST PUSH2 0x1F2 PUSH2 0x5C1 JUMP JUMPDEST PUSH1 0x40 MLOAD PUSH2 0x1FF SWAP2 SWAP1 PUSH2 0x2F55 JUMP JUMPDEST PUSH1 0x40 MLOAD DUP1 SWAP2 SUB SWAP1 RETURN JUMPDEST PUSH2 0x222 PUSH1 0x4 DUP1 CALLDATASIZE SUB DUP2 ADD SWAP1 PUSH2 0x21D SWAP2 SWAP1 PUSH2 0x2931 JUMP JUMPDEST PUSH2 0x64F JUMP JUMPDEST PUSH1 0x40 MLOAD PUSH2 0x22F SWAP2 SWAP1 PUSH2 0x2F11 JUMP JUMPDEST PUSH1 0x40 MLOAD DUP1 SWAP2 SUB SWAP1 RETURN JUMPDEST PUSH2 0x252 PUSH1 0x4 DUP1 CALLDATASIZE SUB DUP2 ADD SWAP1 PUSH2 0x24D SWAP2 SWAP1 PUSH2 0x2A5F JUMP JUMPDEST PUSH2 0x7B0 JUMP JUMPDEST STOP JUMPDEST PUSH2 0x25C PUSH2 0x970 JUMP JUMPDEST PUSH1 0x40 MLOAD PUSH2 0x269 SWAP2 SWAP1 PUSH2 0x32A1 JUMP JUMPDEST PUSH1 0x40 MLOAD DUP1 SWAP2 SUB SWAP1 RETURN JUMPDEST PUSH2 0x28C PUSH1 0x4 DUP1 CALLDATASIZE SUB DUP2 ADD SWAP1 PUSH2 0x287 SWAP2 SWAP1 PUSH2 0x28DE JUMP JUMPDEST PUSH2 0x97A JUMP JUMPDEST PUSH1 0x40 MLOAD PUSH2 0x299 SWAP2 SWAP1 PUSH2 0x2F11 JUMP JUMPDEST PUSH1 0x40 MLOAD DUP1 SWAP2 SUB SWAP1 RETURN JUMPDEST PUSH2 0x2AA PUSH2 0xDA8 JUMP JUMPDEST PUSH1 0x40 MLOAD PUSH2 0x2B7 SWAP2 SWAP1 PUSH2 0x32A1 JUMP JUMPDEST PUSH1 0x40 MLOAD DUP1 SWAP2 SUB SWAP1 RETURN JUMPDEST PUSH2 0x2C8 PUSH2 0xDB2 JUMP JUMPDEST PUSH1 0x40 MLOAD PUSH2 0x2D5 SWAP2 SWAP1 PUSH2 0x32BC JUMP JUMPDEST PUSH1 0x40 MLOAD DUP1 SWAP2 SUB SWAP1 RETURN JUMPDEST PUSH2 0x2F8 PUSH1 0x4 DUP1 CALLDATASIZE SUB DUP2 ADD SWAP1 PUSH2 0x2F3 SWAP2 SWAP1 PUSH2 0x2931 JUMP JUMPDEST PUSH2 0xDC5 JUMP JUMPDEST STOP JUMPDEST PUSH2 0x302 PUSH2 0x1086 JUMP JUMPDEST PUSH1 0x40 MLOAD PUSH2 0x30F SWAP2 SWAP1 PUSH2 0x32A1 JUMP JUMPDEST PUSH1 0x40 MLOAD DUP1 SWAP2 SUB SWAP1 RETURN JUMPDEST PUSH2 0x332 PUSH1 0x4 DUP1 CALLDATASIZE SUB DUP2 ADD SWAP1 PUSH2 0x32D SWAP2 SWAP1 PUSH2 0x2971 JUMP JUMPDEST PUSH2 0x108C JUMP JUMPDEST PUSH1 0x40 MLOAD PUSH2 0x340 SWAP3 SWAP2 SWAP1 PUSH2 0x2F2C JUMP JUMPDEST PUSH1 0x40 MLOAD DUP1 SWAP2 SUB SWAP1 RETURN JUMPDEST PUSH2 0x363 PUSH1 0x4 DUP1 CALLDATASIZE SUB DUP2 ADD SWAP1 PUSH2 0x35E SWAP2 SWAP1 PUSH2 0x2871 JUMP JUMPDEST PUSH2 0x10BD JUMP JUMPDEST PUSH1 0x40 MLOAD PUSH2 0x370 SWAP2 SWAP1 PUSH2 0x32A1 JUMP JUMPDEST PUSH1 0x40 MLOAD DUP1 SWAP2 SUB SWAP1 RETURN JUMPDEST PUSH2 0x393 PUSH1 0x4 DUP1 CALLDATASIZE SUB DUP2 ADD SWAP1 PUSH2 0x38E SWAP2 SWAP1 PUSH2 0x29E7 JUMP JUMPDEST PUSH2 0x1106 JUMP JUMPDEST PUSH1 0x40 MLOAD PUSH2 0x3A0 SWAP2 SWAP1 PUSH2 0x32A1 JUMP JUMPDEST PUSH1 0x40 MLOAD DUP1 SWAP2 SUB SWAP1 RETURN JUMPDEST PUSH2 0x3B1 PUSH2 0x1184 JUMP JUMPDEST PUSH1 0x40 MLOAD PUSH2 0x3BE SWAP2 SWAP1 PUSH2 0x32A1 JUMP JUMPDEST PUSH1 0x40 MLOAD DUP1 SWAP2 SUB SWAP1 RETURN JUMPDEST PUSH2 0x3CF PUSH2 0x118B JUMP JUMPDEST STOP JUMPDEST PUSH2 0x3D9 PUSH2 0x143B JUMP JUMPDEST PUSH1 0x40 MLOAD PUSH2 0x3E6 SWAP2 SWAP1 PUSH2 0x2EF6 JUMP JUMPDEST PUSH1 0x40 MLOAD DUP1 SWAP2 SUB SWAP1 RETURN JUMPDEST PUSH2 0x409 PUSH1 0x4 DUP1 CALLDATASIZE SUB DUP2 ADD SWAP1 PUSH2 0x404 SWAP2 SWAP1 PUSH2 0x299E JUMP JUMPDEST PUSH2 0x1464 JUMP JUMPDEST STOP JUMPDEST PUSH2 0x413 PUSH2 0x1587 JUMP JUMPDEST PUSH1 0x40 MLOAD PUSH2 0x420 SWAP2 SWAP1 PUSH2 0x2EF6 JUMP JUMPDEST PUSH1 0x40 MLOAD DUP1 SWAP2 SUB SWAP1 RETURN JUMPDEST PUSH2 0x431 PUSH2 0x15AB JUMP JUMPDEST STOP JUMPDEST PUSH2 0x43B PUSH2 0x1796 JUMP JUMPDEST STOP JUMPDEST PUSH2 0x457 PUSH1 0x4 DUP1 CALLDATASIZE SUB DUP2 ADD SWAP1 PUSH2 0x452 SWAP2 SWAP1 PUSH2 0x2AEA JUMP JUMPDEST PUSH2 0x1A47 JUMP JUMPDEST STOP JUMPDEST PUSH2 0x461 PUSH2 0x1BCD JUMP JUMPDEST PUSH1 0x40 MLOAD PUSH2 0x46E SWAP2 SWAP1 PUSH2 0x2F55 JUMP JUMPDEST PUSH1 0x40 MLOAD DUP1 SWAP2 SUB SWAP1 RETURN JUMPDEST PUSH2 0x491 PUSH1 0x4 DUP1 CALLDATASIZE SUB DUP2 ADD SWAP1 PUSH2 0x48C SWAP2 SWAP1 PUSH2 0x2931 JUMP JUMPDEST PUSH2 0x1C5B JUMP JUMPDEST STOP JUMPDEST PUSH2 0x49B PUSH2 0x1E05 JUMP JUMPDEST PUSH1 0x40 MLOAD PUSH2 0x4A8 SWAP2 SWAP1 PUSH2 0x2EF6 JUMP JUMPDEST PUSH1 0x40 MLOAD DUP1 SWAP2 SUB SWAP1 RETURN JUMPDEST PUSH2 0x4B9 PUSH2 0x1E2B JUMP JUMPDEST STOP JUMPDEST PUSH2 0x4D5 PUSH1 0x4 DUP1 CALLDATASIZE SUB DUP2 ADD SWAP1 PUSH2 0x4D0 SWAP2 SWAP1 PUSH2 0x2931 JUMP JUMPDEST PUSH2 0x20DC JUMP JUMPDEST PUSH1 0x40 MLOAD PUSH2 0x4E2 SWAP2 SWAP1 PUSH2 0x2F11 JUMP JUMPDEST PUSH1 0x40 MLOAD DUP1 SWAP2 SUB SWAP1 RETURN JUMPDEST PUSH2 0x4F3 PUSH2 0x233B JUMP JUMPDEST PUSH1 0x40 MLOAD PUSH2 0x500 SWAP2 SWAP1 PUSH2 0x32A1 JUMP JUMPDEST PUSH1 0x40 MLOAD DUP1 SWAP2 SUB SWAP1 RETURN JUMPDEST PUSH2 0x511 PUSH2 0x2342 JUMP JUMPDEST PUSH1 0x40 MLOAD PUSH2 0x51E SWAP2 SWAP1 PUSH2 0x2EF6 JUMP JUMPDEST PUSH1 0x40 MLOAD DUP1 SWAP2 SUB SWAP1 RETURN JUMPDEST PUSH2 0x541 PUSH1 0x4 DUP1 CALLDATASIZE SUB DUP2 ADD SWAP1 PUSH2 0x53C SWAP2 SWAP1 PUSH2 0x29E7 JUMP JUMPDEST PUSH2 0x2368 JUMP JUMPDEST PUSH1 0x40 MLOAD PUSH2 0x54E SWAP2 SWAP1 PUSH2 0x2EF6 JUMP JUMPDEST PUSH1 0x40 MLOAD DUP1 SWAP2 SUB SWAP1 RETURN JUMPDEST PUSH2 0x55F PUSH2 0x2406 JUMP JUMPDEST PUSH1 0x40 MLOAD PUSH2 0x56C SWAP2 SWAP1 PUSH2 0x32A1 JUMP JUMPDEST PUSH1 0x40 MLOAD DUP1 SWAP2 SUB SWAP1 RETURN JUMPDEST PUSH2 0x58F PUSH1 0x4 DUP1 CALLDATASIZE SUB DUP2 ADD SWAP1 PUSH2 0x58A SWAP2 SWAP1 PUSH2 0x289E JUMP JUMPDEST PUSH2 0x240D JUMP JUMPDEST PUSH1 0x40 MLOAD PUSH2 0x59C SWAP2 SWAP1 PUSH2 0x32A1 JUMP JUMPDEST PUSH1 0x40 MLOAD DUP1 SWAP2 SUB SWAP1 RETURN JUMPDEST PUSH2 0x5BF PUSH1 0x4 DUP1 CALLDATASIZE SUB DUP2 ADD SWAP1 PUSH2 0x5BA SWAP2 SWAP1 PUSH2 0x2B75 JUMP JUMPDEST PUSH2 0x2494 JUMP JUMPDEST STOP JUMPDEST PUSH1 0x6 DUP1 SLOAD PUSH2 0x5CE SWAP1 PUSH2 0x3474 JUMP JUMPDEST DUP1 PUSH1 0x1F ADD PUSH1 0x20 DUP1 SWAP2 DIV MUL PUSH1 0x20 ADD PUSH1 0x40 MLOAD SWAP1 DUP2 ADD PUSH1 0x40 MSTORE DUP1 SWAP3 SWAP2 SWAP1 DUP2 DUP2 MSTORE PUSH1 0x20 ADD DUP3 DUP1 SLOAD PUSH2 0x5FA SWAP1 PUSH2 0x3474 JUMP JUMPDEST DUP1 ISZERO PUSH2 0x647 JUMPI DUP1 PUSH1 0x1F LT PUSH2 0x61C JUMPI PUSH2 0x100 DUP1 DUP4 SLOAD DIV MUL DUP4 MSTORE SWAP2 PUSH1 0x20 ADD SWAP2 PUSH2 0x647 JUMP JUMPDEST DUP3 ADD SWAP2 SWAP1 PUSH1 0x0 MSTORE PUSH1 0x20 PUSH1 0x0 KECCAK256 SWAP1 JUMPDEST DUP2 SLOAD DUP2 MSTORE SWAP1 PUSH1 0x1 ADD SWAP1 PUSH1 0x20 ADD DUP1 DUP4 GT PUSH2 0x62A JUMPI DUP3 SWAP1 SUB PUSH1 0x1F AND DUP3 ADD SWAP2 JUMPDEST POP POP POP POP POP DUP2 JUMP JUMPDEST PUSH1 0x0 DUP1 PUSH20 0xFFFFFFFFFFFFFFFFFFFFFFFFFFFFFFFFFFFFFFFF AND DUP4 PUSH20 0xFFFFFFFFFFFFFFFFFFFFFFFFFFFFFFFFFFFFFFFF AND EQ ISZERO PUSH2 0x6C0 JUMPI PUSH1 0x40 MLOAD PUSH32 0x8C379A000000000000000000000000000000000000000000000000000000000 DUP2 MSTORE PUSH1 0x4 ADD PUSH2 0x6B7 SWAP1 PUSH2 0x3001 JUMP JUMPDEST PUSH1 0x40 MLOAD DUP1 SWAP2 SUB SWAP1 REVERT JUMPDEST DUP2 PUSH1 0x3 PUSH1 0x0 CALLER PUSH20 0xFFFFFFFFFFFFFFFFFFFFFFFFFFFFFFFFFFFFFFFF AND PUSH20 0xFFFFFFFFFFFFFFFFFFFFFFFFFFFFFFFFFFFFFFFF AND DUP2 MSTORE PUSH1 0x20 ADD SWAP1 DUP2 MSTORE PUSH1 0x20 ADD PUSH1 0x0 KECCAK256 PUSH1 0x0 DUP6 PUSH20 0xFFFFFFFFFFFFFFFFFFFFFFFFFFFFFFFFFFFFFFFF AND PUSH20 0xFFFFFFFFFFFFFFFFFFFFFFFFFFFFFFFFFFFFFFFF AND DUP2 MSTORE PUSH1 0x20 ADD SWAP1 DUP2 MSTORE PUSH1 0x20 ADD PUSH1 0x0 KECCAK256 DUP2 SWAP1 SSTORE POP DUP3 PUSH20 0xFFFFFFFFFFFFFFFFFFFFFFFFFFFFFFFFFFFFFFFF AND CALLER PUSH20 0xFFFFFFFFFFFFFFFFFFFFFFFFFFFFFFFFFFFFFFFF AND PUSH32 0x8C5BE1E5EBEC7D5BD14F71427D1E84F3DD0314C0F7B2291E5B200AC8C7C3B925 DUP5 PUSH1 0x40 MLOAD PUSH2 0x79E SWAP2 SWAP1 PUSH2 0x32A1 JUMP JUMPDEST PUSH1 0x40 MLOAD DUP1 SWAP2 SUB SWAP1 LOG3 PUSH1 0x1 SWAP1 POP SWAP3 SWAP2 POP POP JUMP JUMPDEST PUSH1 0x0 DUP1 SLOAD SWAP1 PUSH2 0x100 EXP SWAP1 DIV PUSH20 0xFFFFFFFFFFFFFFFFFFFFFFFFFFFFFFFFFFFFFFFF AND PUSH20 0xFFFFFFFFFFFFFFFFFFFFFFFFFFFFFFFFFFFFFFFF AND CALLER PUSH20 0xFFFFFFFFFFFFFFFFFFFFFFFFFFFFFFFFFFFFFFFF AND EQ PUSH2 0x83E JUMPI PUSH1 0x40 MLOAD PUSH32 0x8C379A000000000000000000000000000000000000000000000000000000000 DUP2 MSTORE PUSH1 0x4 ADD PUSH2 0x835 SWAP1 PUSH2 0x3201 JUMP JUMPDEST PUSH1 0x40 MLOAD DUP1 SWAP2 SUB SWAP1 REVERT JUMPDEST PUSH1 0x0 PUSH1 0x1 PUSH1 0x0 DUP6 PUSH1 0x40 MLOAD PUSH1 0x20 ADD PUSH2 0x855 SWAP2 SWAP1 PUSH2 0x2F55 JUMP JUMPDEST PUSH1 0x40 MLOAD PUSH1 0x20 DUP2 DUP4 SUB SUB DUP2 MSTORE SWAP1 PUSH1 0x40 MSTORE DUP1 MLOAD SWAP1 PUSH1 0x20 ADD KECCAK256 DUP2 MSTORE PUSH1 0x20 ADD SWAP1 DUP2 MSTORE PUSH1 0x20 ADD PUSH1 0x0 KECCAK256 SWAP1 POP DUP2 DUP2 PUSH1 0x2 ADD PUSH1 0x0 DUP6 PUSH1 0x40 MLOAD PUSH1 0x20 ADD PUSH2 0x893 SWAP2 SWAP1 PUSH2 0x2F55 JUMP JUMPDEST PUSH1 0x40 MLOAD PUSH1 0x20 DUP2 DUP4 SUB SUB DUP2 MSTORE SWAP1 PUSH1 0x40 MSTORE DUP1 MLOAD SWAP1 PUSH1 0x20 ADD KECCAK256 DUP2 MSTORE PUSH1 0x20 ADD SWAP1 DUP2 MSTORE PUSH1 0x20 ADD PUSH1 0x0 KECCAK256 PUSH1 0x0 PUSH2 0x100 EXP DUP2 SLOAD DUP2 PUSH20 0xFFFFFFFFFFFFFFFFFFFFFFFFFFFFFFFFFFFFFFFF MUL NOT AND SWAP1 DUP4 PUSH20 0xFFFFFFFFFFFFFFFFFFFFFFFFFFFFFFFFFFFFFFFF AND MUL OR SWAP1 SSTORE POP PUSH1 0x1 DUP2 PUSH1 0x0 ADD PUSH1 0x0 PUSH2 0x100 EXP DUP2 SLOAD DUP2 PUSH1 0xFF MUL NOT AND SWAP1 DUP4 ISZERO ISZERO MUL OR SWAP1 SSTORE POP PUSH2 0x927 PUSH1 0xA SLOAD TIMESTAMP PUSH2 0x25B8 SWAP1 SWAP2 SWAP1 PUSH4 0xFFFFFFFF AND JUMP JUMPDEST DUP2 PUSH1 0x1 ADD DUP2 SWAP1 SSTORE POP PUSH32 0x1BD33EFD68D2824F5F0F2519CE7C9CA0DDFF6234523468E89077A0DCA7B73970 DUP5 DUP5 DUP5 PUSH1 0x40 MLOAD PUSH2 0x962 SWAP4 SWAP3 SWAP2 SWAP1 PUSH2 0x2F77 JUMP JUMPDEST PUSH1 0x40 MLOAD DUP1 SWAP2 SUB SWAP1 LOG1 POP POP POP POP JUMP JUMPDEST PUSH1 0x0 PUSH1 0x4 SLOAD SWAP1 POP SWAP1 JUMP JUMPDEST PUSH1 0x0 DUP1 DUP3 GT PUSH2 0x9BE JUMPI PUSH1 0x40 MLOAD PUSH32 0x8C379A000000000000000000000000000000000000000000000000000000000 DUP2 MSTORE PUSH1 0x4 ADD PUSH2 0x9B5 SWAP1 PUSH2 0x3221 JUMP JUMPDEST PUSH1 0x40 MLOAD DUP1 SWAP2 SUB SWAP1 REVERT JUMPDEST DUP2 PUSH1 0x2 PUSH1 0x0 DUP7 PUSH20 0xFFFFFFFFFFFFFFFFFFFFFFFFFFFFFFFFFFFFFFFF AND PUSH20 0xFFFFFFFFFFFFFFFFFFFFFFFFFFFFFFFFFFFFFFFF AND DUP2 MSTORE PUSH1 0x20 ADD SWAP1 DUP2 MSTORE PUSH1 0x20 ADD PUSH1 0x0 KECCAK256 SLOAD LT ISZERO PUSH2 0xA40 JUMPI PUSH1 0x40 MLOAD PUSH32 0x8C379A000000000000000000000000000000000000000000000000000000000 DUP2 MSTORE PUSH1 0x4 ADD PUSH2 0xA37 SWAP1 PUSH2 0x3241 JUMP JUMPDEST PUSH1 0x40 MLOAD DUP1 SWAP2 SUB SWAP1 REVERT JUMPDEST DUP2 PUSH1 0x3 PUSH1 0x0 DUP7 PUSH20 0xFFFFFFFFFFFFFFFFFFFFFFFFFFFFFFFFFFFFFFFF AND PUSH20 0xFFFFFFFFFFFFFFFFFFFFFFFFFFFFFFFFFFFFFFFF AND DUP2 MSTORE PUSH1 0x20 ADD SWAP1 DUP2 MSTORE PUSH1 0x20 ADD PUSH1 0x0 KECCAK256 PUSH1 0x0 CALLER PUSH20 0xFFFFFFFFFFFFFFFFFFFFFFFFFFFFFFFFFFFFFFFF AND PUSH20 0xFFFFFFFFFFFFFFFFFFFFFFFFFFFFFFFFFFFFFFFF AND DUP2 MSTORE PUSH1 0x20 ADD SWAP1 DUP2 MSTORE PUSH1 0x20 ADD PUSH1 0x0 KECCAK256 SLOAD LT ISZERO PUSH2 0xAFF JUMPI PUSH1 0x40 MLOAD PUSH32 0x8C379A000000000000000000000000000000000000000000000000000000000 DUP2 MSTORE PUSH1 0x4 ADD PUSH2 0xAF6 SWAP1 PUSH2 0x3201 JUMP JUMPDEST PUSH1 0x40 MLOAD DUP1 SWAP2 SUB SWAP1 REVERT JUMPDEST PUSH2 0xB8E DUP3 PUSH1 0x3 PUSH1 0x0 DUP8 PUSH20 0xFFFFFFFFFFFFFFFFFFFFFFFFFFFFFFFFFFFFFFFF AND PUSH20 0xFFFFFFFFFFFFFFFFFFFFFFFFFFFFFFFFFFFFFFFF AND DUP2 MSTORE PUSH1 0x20 ADD SWAP1 DUP2 MSTORE PUSH1 0x20 ADD PUSH1 0x0 KECCAK256 PUSH1 0x0 CALLER PUSH20 0xFFFFFFFFFFFFFFFFFFFFFFFFFFFFFFFFFFFFFFFF AND PUSH20 0xFFFFFFFFFFFFFFFFFFFFFFFFFFFFFFFFFFFFFFFF AND DUP2 MSTORE PUSH1 0x20 ADD SWAP1 DUP2 MSTORE PUSH1 0x20 ADD PUSH1 0x0 KECCAK256 SLOAD PUSH2 0x2616 SWAP1 SWAP2 SWAP1 PUSH4 0xFFFFFFFF AND JUMP JUMPDEST PUSH1 0x3 PUSH1 0x0 DUP7 PUSH20 0xFFFFFFFFFFFFFFFFFFFFFFFFFFFFFFFFFFFFFFFF AND PUSH20 0xFFFFFFFFFFFFFFFFFFFFFFFFFFFFFFFFFFFFFFFF AND DUP2 MSTORE PUSH1 0x20 ADD SWAP1 DUP2 MSTORE PUSH1 0x20 ADD PUSH1 0x0 KECCAK256 PUSH1 0x0 CALLER PUSH20 0xFFFFFFFFFFFFFFFFFFFFFFFFFFFFFFFFFFFFFFFF AND PUSH20 0xFFFFFFFFFFFFFFFFFFFFFFFFFFFFFFFFFFFFFFFF AND DUP2 MSTORE PUSH1 0x20 ADD SWAP1 DUP2 MSTORE PUSH1 0x20 ADD PUSH1 0x0 KECCAK256 DUP2 SWAP1 SSTORE POP PUSH2 0xC60 DUP3 PUSH1 0x2 PUSH1 0x0 DUP8 PUSH20 0xFFFFFFFFFFFFFFFFFFFFFFFFFFFFFFFFFFFFFFFF AND PUSH20 0xFFFFFFFFFFFFFFFFFFFFFFFFFFFFFFFFFFFFFFFF AND DUP2 MSTORE PUSH1 0x20 ADD SWAP1 DUP2 MSTORE PUSH1 0x20 ADD PUSH1 0x0 KECCAK256 SLOAD PUSH2 0x2616 SWAP1 SWAP2 SWAP1 PUSH4 0xFFFFFFFF AND JUMP JUMPDEST PUSH1 0x2 PUSH1 0x0 DUP7 PUSH20 0xFFFFFFFFFFFFFFFFFFFFFFFFFFFFFFFFFFFFFFFF AND PUSH20 0xFFFFFFFFFFFFFFFFFFFFFFFFFFFFFFFFFFFFFFFF AND DUP2 MSTORE PUSH1 0x20 ADD SWAP1 DUP2 MSTORE PUSH1 0x20 ADD PUSH1 0x0 KECCAK256 DUP2 SWAP1 SSTORE POP PUSH2 0xCF5 DUP3 PUSH1 0x2 PUSH1 0x0 DUP7 PUSH20 0xFFFFFFFFFFFFFFFFFFFFFFFFFFFFFFFFFFFFFFFF AND PUSH20 0xFFFFFFFFFFFFFFFFFFFFFFFFFFFFFFFFFFFFFFFF AND DUP2 MSTORE PUSH1 0x20 ADD SWAP1 DUP2 MSTORE PUSH1 0x20 ADD PUSH1 0x0 KECCAK256 SLOAD PUSH2 0x25B8 SWAP1 SWAP2 SWAP1 PUSH4 0xFFFFFFFF AND JUMP JUMPDEST PUSH1 0x2 PUSH1 0x0 DUP6 PUSH20 0xFFFFFFFFFFFFFFFFFFFFFFFFFFFFFFFFFFFFFFFF AND PUSH20 0xFFFFFFFFFFFFFFFFFFFFFFFFFFFFFFFFFFFFFFFF AND DUP2 MSTORE PUSH1 0x20 ADD SWAP1 DUP2 MSTORE PUSH1 0x20 ADD PUSH1 0x0 KECCAK256 DUP2 SWAP1 SSTORE POP DUP3 PUSH20 0xFFFFFFFFFFFFFFFFFFFFFFFFFFFFFFFFFFFFFFFF AND DUP5 PUSH20 0xFFFFFFFFFFFFFFFFFFFFFFFFFFFFFFFFFFFFFFFF AND PUSH32 0xDDF252AD1BE2C89B69C2B068FC378DAA952BA7F163C4A11628F55A4DF523B3EF DUP5 PUSH1 0x40 MLOAD PUSH2 0xD95 SWAP2 SWAP1 PUSH2 0x32A1 JUMP JUMPDEST PUSH1 0x40 MLOAD DUP1 SWAP2 SUB SWAP1 LOG3 PUSH1 0x1 SWAP1 POP SWAP4 SWAP3 POP POP POP JUMP JUMPDEST PUSH1 0x0 PUSH1 0x5 SLOAD SWAP1 POP SWAP1 JUMP JUMPDEST PUSH1 0x8 PUSH1 0x0 SWAP1 SLOAD SWAP1 PUSH2 0x100 EXP SWAP1 DIV PUSH1 0xFF AND DUP2 JUMP JUMPDEST PUSH1 0x8 PUSH1 0x1 SWAP1 SLOAD SWAP1 PUSH2 0x100 EXP SWAP1 DIV PUSH20 0xFFFFFFFFFFFFFFFFFFFFFFFFFFFFFFFFFFFFFFFF AND PUSH20 0xFFFFFFFFFFFFFFFFFFFFFFFFFFFFFFFFFFFFFFFF AND CALLER PUSH20 0xFFFFFFFFFFFFFFFFFFFFFFFFFFFFFFFFFFFFFFFF AND EQ PUSH2 0xE55 JUMPI PUSH1 0x40 MLOAD PUSH32 0x8C379A000000000000000000000000000000000000000000000000000000000 DUP2 MSTORE PUSH1 0x4 ADD PUSH2 0xE4C SWAP1 PUSH2 0x3201 JUMP JUMPDEST PUSH1 0x40 MLOAD DUP1 SWAP2 SUB SWAP1 REVERT JUMPDEST PUSH1 0x0 PUSH20 0xFFFFFFFFFFFFFFFFFFFFFFFFFFFFFFFFFFFFFFFF AND DUP3 PUSH20 0xFFFFFFFFFFFFFFFFFFFFFFFFFFFFFFFFFFFFFFFF AND EQ ISZERO PUSH2 0xEC5 JUMPI PUSH1 0x40 MLOAD PUSH32 0x8C379A000000000000000000000000000000000000000000000000000000000 DUP2 MSTORE PUSH1 0x4 ADD PUSH2 0xEBC SWAP1 PUSH2 0x3281 JUMP JUMPDEST PUSH1 0x40 MLOAD DUP1 SWAP2 SUB SWAP1 REVERT JUMPDEST PUSH1 0x5 SLOAD PUSH1 0x4 SLOAD GT ISZERO PUSH2 0xEDA JUMPI PUSH1 0x0 SWAP1 POP PUSH2 0xF13 JUMP JUMPDEST PUSH1 0x5 SLOAD PUSH2 0xEF2 DUP3 PUSH1 0x4 SLOAD PUSH2 0x25B8 SWAP1 SWAP2 SWAP1 PUSH4 0xFFFFFFFF AND JUMP JUMPDEST GT ISZERO PUSH2 0xF12 JUMPI PUSH2 0xF0F PUSH1 0x4 SLOAD PUSH1 0x5 SLOAD PUSH2 0x2616 SWAP1 SWAP2 SWAP1 PUSH4 0xFFFFFFFF AND JUMP JUMPDEST SWAP1 POP JUMPDEST JUMPDEST PUSH1 0x5 SLOAD PUSH2 0xF2B DUP3 PUSH1 0x4 SLOAD PUSH2 0x25B8 SWAP1 SWAP2 SWAP1 PUSH4 0xFFFFFFFF AND JUMP JUMPDEST GT ISZERO PUSH2 0xF6C JUMPI PUSH1 0x40 MLOAD PUSH32 0x8C379A000000000000000000000000000000000000000000000000000000000 DUP2 MSTORE PUSH1 0x4 ADD PUSH2 0xF63 SWAP1 PUSH2 0x3041 JUMP JUMPDEST PUSH1 0x40 MLOAD DUP1 SWAP2 SUB SWAP1 REVERT JUMPDEST PUSH2 0xF81 DUP2 PUSH1 0x4 SLOAD PUSH2 0x25B8 SWAP1 SWAP2 SWAP1 PUSH4 0xFFFFFFFF AND JUMP JUMPDEST PUSH1 0x4 DUP2 SWAP1 SSTORE POP PUSH2 0xFD9 DUP2 PUSH1 0x2 PUSH1 0x0 DUP6 PUSH20 0xFFFFFFFFFFFFFFFFFFFFFFFFFFFFFFFFFFFFFFFF AND PUSH20 0xFFFFFFFFFFFFFFFFFFFFFFFFFFFFFFFFFFFFFFFF AND DUP2 MSTORE PUSH1 0x20 ADD SWAP1 DUP2 MSTORE PUSH1 0x20 ADD PUSH1 0x0 KECCAK256 SLOAD PUSH2 0x25B8 SWAP1 SWAP2 SWAP1 PUSH4 0xFFFFFFFF AND JUMP JUMPDEST PUSH1 0x2 PUSH1 0x0 DUP5 PUSH20 0xFFFFFFFFFFFFFFFFFFFFFFFFFFFFFFFFFFFFFFFF AND PUSH20 0xFFFFFFFFFFFFFFFFFFFFFFFFFFFFFFFFFFFFFFFF AND DUP2 MSTORE PUSH1 0x20 ADD SWAP1 DUP2 MSTORE PUSH1 0x20 ADD PUSH1 0x0 KECCAK256 DUP2 SWAP1 SSTORE POP DUP2 PUSH20 0xFFFFFFFFFFFFFFFFFFFFFFFFFFFFFFFFFFFFFFFF AND PUSH1 0x0 PUSH20 0xFFFFFFFFFFFFFFFFFFFFFFFFFFFFFFFFFFFFFFFF AND PUSH32 0xDDF252AD1BE2C89B69C2B068FC378DAA952BA7F163C4A11628F55A4DF523B3EF DUP4 PUSH1 0x40 MLOAD PUSH2 0x107A SWAP2 SWAP1 PUSH2 0x32A1 JUMP JUMPDEST PUSH1 0x40 MLOAD DUP1 SWAP2 SUB SWAP1 LOG3 POP POP JUMP JUMPDEST PUSH1 0xA SLOAD DUP2 JUMP JUMPDEST PUSH1 0x1 PUSH1 0x20 MSTORE DUP1 PUSH1 0x0 MSTORE PUSH1 0x40 PUSH1 0x0 KECCAK256 PUSH1 0x0 SWAP2 POP SWAP1 POP DUP1 PUSH1 0x0 ADD PUSH1 0x0 SWAP1 SLOAD SWAP1 PUSH2 0x100 EXP SWAP1 DIV PUSH1 0xFF AND SWAP1 DUP1 PUSH1 0x1 ADD SLOAD SWAP1 POP DUP3 JUMP JUMPDEST PUSH1 0x0 PUSH1 0x2 PUSH1 0x0 DUP4 PUSH20 0xFFFFFFFFFFFFFFFFFFFFFFFFFFFFFFFFFFFFFFFF AND PUSH20 0xFFFFFFFFFFFFFFFFFFFFFFFFFFFFFFFFFFFFFFFF AND DUP2 MSTORE PUSH1 0x20 ADD SWAP1 DUP2 MSTORE PUSH1 0x20 ADD PUSH1 0x0 KECCAK256 SLOAD SWAP1 POP SWAP2 SWAP1 POP JUMP JUMPDEST PUSH1 0x0 PUSH1 0x1 PUSH1 0x0 DUP5 PUSH1 0x40 MLOAD PUSH1 0x20 ADD PUSH2 0x111D SWAP2 SWAP1 PUSH2 0x2F55 JUMP JUMPDEST PUSH1 0x40 MLOAD PUSH1 0x20 DUP2 DUP4 SUB SUB DUP2 MSTORE SWAP1 PUSH1 0x40 MSTORE DUP1 MLOAD SWAP1 PUSH1 0x20 ADD KECCAK256 DUP2 MSTORE PUSH1 0x20 ADD SWAP1 DUP2 MSTORE PUSH1 0x20 ADD PUSH1 0x0 KECCAK256 PUSH1 0x3 ADD PUSH1 0x0 DUP4 PUSH1 0x40 MLOAD PUSH1 0x20 ADD PUSH2 0x1157 SWAP2 SWAP1 PUSH2 0x2F55 JUMP JUMPDEST PUSH1 0x40 MLOAD PUSH1 0x20 DUP2 DUP4 SUB SUB DUP2 MSTORE SWAP1 PUSH1 0x40 MSTORE DUP1 MLOAD SWAP1 PUSH1 0x20 ADD KECCAK256 DUP2 MSTORE PUSH1 0x20 ADD SWAP1 DUP2 MSTORE PUSH1 0x20 ADD PUSH1 0x0 KECCAK256 SLOAD SWAP1 POP SWAP3 SWAP2 POP POP JUMP JUMPDEST PUSH3 0x278D00 DUP2 JUMP JUMPDEST PUSH1 0x0 DUP1 SLOAD SWAP1 PUSH2 0x100 EXP SWAP1 DIV PUSH20 0xFFFFFFFFFFFFFFFFFFFFFFFFFFFFFFFFFFFFFFFF AND PUSH20 0xFFFFFFFFFFFFFFFFFFFFFFFFFFFFFFFFFFFFFFFF AND CALLER PUSH20 0xFFFFFFFFFFFFFFFFFFFFFFFFFFFFFFFFFFFFFFFF AND EQ PUSH2 0x1219 JUMPI PUSH1 0x40 MLOAD PUSH32 0x8C379A000000000000000000000000000000000000000000000000000000000 DUP2 MSTORE PUSH1 0x4 ADD PUSH2 0x1210 SWAP1 PUSH2 0x3201 JUMP JUMPDEST PUSH1 0x40 MLOAD DUP1 SWAP2 SUB SWAP1 REVERT JUMPDEST PUSH1 0x0 PUSH1 0x1 PUSH1 0x0 PUSH1 0x40 MLOAD PUSH1 0x20 ADD PUSH2 0x122E SWAP1 PUSH2 0x30A1 JUMP JUMPDEST PUSH1 0x40 MLOAD PUSH1 0x20 DUP2 DUP4 SUB SUB DUP2 MSTORE SWAP1 PUSH1 0x40 MSTORE DUP1 MLOAD SWAP1 PUSH1 0x20 ADD KECCAK256 DUP2 MSTORE PUSH1 0x20 ADD SWAP1 DUP2 MSTORE PUSH1 0x20 ADD PUSH1 0x0 KECCAK256 SWAP1 POP PUSH2 0x125D DUP2 PUSH2 0x2660 JUMP JUMPDEST PUSH1 0x0 PUSH20 0xFFFFFFFFFFFFFFFFFFFFFFFFFFFFFFFFFFFFFFFF AND DUP2 PUSH1 0x2 ADD PUSH1 0x0 PUSH1 0x40 MLOAD PUSH1 0x20 ADD PUSH2 0x128A SWAP1 PUSH2 0x3021 JUMP JUMPDEST PUSH1 0x40 MLOAD PUSH1 0x20 DUP2 DUP4 SUB SUB DUP2 MSTORE SWAP1 PUSH1 0x40 MSTORE DUP1 MLOAD SWAP1 PUSH1 0x20 ADD KECCAK256 DUP2 MSTORE PUSH1 0x20 ADD SWAP1 DUP2 MSTORE PUSH1 0x20 ADD PUSH1 0x0 KECCAK256 PUSH1 0x0 SWAP1 SLOAD SWAP1 PUSH2 0x100 EXP SWAP1 DIV PUSH20 0xFFFFFFFFFFFFFFFFFFFFFFFFFFFFFFFFFFFFFFFF AND PUSH20 0xFFFFFFFFFFFFFFFFFFFFFFFFFFFFFFFFFFFFFFFF AND EQ ISZERO PUSH2 0x1326 JUMPI PUSH1 0x40 MLOAD PUSH32 0x8C379A000000000000000000000000000000000000000000000000000000000 DUP2 MSTORE PUSH1 0x4 ADD PUSH2 0x131D SWAP1 PUSH2 0x3061 JUMP JUMPDEST PUSH1 0x40 MLOAD DUP1 SWAP2 SUB SWAP1 REVERT JUMPDEST DUP1 PUSH1 0x2 ADD PUSH1 0x0 PUSH1 0x40 MLOAD PUSH1 0x20 ADD PUSH2 0x133B SWAP1 PUSH2 0x3021 JUMP JUMPDEST PUSH1 0x40 MLOAD PUSH1 0x20 DUP2 DUP4 SUB SUB DUP2 MSTORE SWAP1 PUSH1 0x40 MSTORE DUP1 MLOAD SWAP1 PUSH1 0x20 ADD KECCAK256 DUP2 MSTORE PUSH1 0x20 ADD SWAP1 DUP2 MSTORE PUSH1 0x20 ADD PUSH1 0x0 KECCAK256 PUSH1 0x0 SWAP1 SLOAD SWAP1 PUSH2 0x100 EXP SWAP1 DIV PUSH20 0xFFFFFFFFFFFFFFFFFFFFFFFFFFFFFFFFFFFFFFFF AND PUSH1 0x0 DUP1 PUSH2 0x100 EXP DUP2 SLOAD DUP2 PUSH20 0xFFFFFFFFFFFFFFFFFFFFFFFFFFFFFFFFFFFFFFFF MUL NOT AND SWAP1 DUP4 PUSH20 0xFFFFFFFFFFFFFFFFFFFFFFFFFFFFFFFFFFFFFFFF AND MUL OR SWAP1 SSTORE POP DUP1 PUSH1 0x2 ADD PUSH1 0x0 PUSH1 0x40 MLOAD PUSH1 0x20 ADD PUSH2 0x13D4 SWAP1 PUSH2 0x3021 JUMP JUMPDEST PUSH1 0x40 MLOAD PUSH1 0x20 DUP2 DUP4 SUB SUB DUP2 MSTORE SWAP1 PUSH1 0x40 MSTORE DUP1 MLOAD SWAP1 PUSH1 0x20 ADD KECCAK256 DUP2 MSTORE PUSH1 0x20 ADD SWAP1 DUP2 MSTORE PUSH1 0x20 ADD PUSH1 0x0 KECCAK256 PUSH1 0x0 PUSH2 0x100 EXP DUP2 SLOAD SWAP1 PUSH20 0xFFFFFFFFFFFFFFFFFFFFFFFFFFFFFFFFFFFFFFFF MUL NOT AND SWAP1 SSTORE PUSH1 0x0 DUP2 PUSH1 0x0 ADD PUSH1 0x0 PUSH2 0x100 EXP DUP2 SLOAD DUP2 PUSH1 0xFF MUL NOT AND SWAP1 DUP4 ISZERO ISZERO MUL OR SWAP1 SSTORE POP POP JUMP JUMPDEST PUSH1 0x0 DUP1 PUSH1 0x0 SWAP1 SLOAD SWAP1 PUSH2 0x100 EXP SWAP1 DIV PUSH20 0xFFFFFFFFFFFFFFFFFFFFFFFFFFFFFFFFFFFFFFFF AND SWAP1 POP SWAP1 JUMP JUMPDEST PUSH1 0x0 DUP1 SLOAD SWAP1 PUSH2 0x100 EXP SWAP1 DIV PUSH20 0xFFFFFFFFFFFFFFFFFFFFFFFFFFFFFFFFFFFFFFFF AND PUSH20 0xFFFFFFFFFFFFFFFFFFFFFFFFFFFFFFFFFFFFFFFF AND CALLER PUSH20 0xFFFFFFFFFFFFFFFFFFFFFFFFFFFFFFFFFFFFFFFF AND EQ PUSH2 0x14F2 JUMPI PUSH1 0x40 MLOAD PUSH32 0x8C379A000000000000000000000000000000000000000000000000000000000 DUP2 MSTORE PUSH1 0x4 ADD PUSH2 0x14E9 SWAP1 PUSH2 0x3201 JUMP JUMPDEST PUSH1 0x40 MLOAD DUP1 SWAP2 SUB SWAP1 REVERT JUMPDEST PUSH1 0x0 PUSH1 0x1 PUSH1 0x0 DUP4 PUSH1 0x40 MLOAD PUSH1 0x20 ADD PUSH2 0x1509 SWAP2 SWAP1 PUSH2 0x2F55 JUMP JUMPDEST PUSH1 0x40 MLOAD PUSH1 0x20 DUP2 DUP4 SUB SUB DUP2 MSTORE SWAP1 PUSH1 0x40 MSTORE DUP1 MLOAD SWAP1 PUSH1 0x20 ADD KECCAK256 DUP2 MSTORE PUSH1 0x20 ADD SWAP1 DUP2 MSTORE PUSH1 0x20 ADD PUSH1 0x0 KECCAK256 SWAP1 POP PUSH1 0x0 DUP2 PUSH1 0x0 ADD PUSH1 0x0 PUSH2 0x100 EXP DUP2 SLOAD DUP2 PUSH1 0xFF MUL NOT AND SWAP1 DUP4 ISZERO ISZERO MUL OR SWAP1 SSTORE POP PUSH32 0xCE369F91D52B663114643C430217B52530C2CC7318CAC7A3E9D46241CBC354A8 DUP3 PUSH1 0x40 MLOAD PUSH2 0x157B SWAP2 SWAP1 PUSH2 0x2F55 JUMP JUMPDEST PUSH1 0x40 MLOAD DUP1 SWAP2 SUB SWAP1 LOG1 POP POP JUMP JUMPDEST PUSH1 0x0 DUP1 SLOAD SWAP1 PUSH2 0x100 EXP SWAP1 DIV PUSH20 0xFFFFFFFFFFFFFFFFFFFFFFFFFFFFFFFFFFFFFFFF AND DUP2 JUMP JUMPDEST PUSH1 0x0 DUP1 SLOAD SWAP1 PUSH2 0x100 EXP SWAP1 DIV PUSH20 0xFFFFFFFFFFFFFFFFFFFFFFFFFFFFFFFFFFFFFFFF AND PUSH20 0xFFFFFFFFFFFFFFFFFFFFFFFFFFFFFFFFFFFFFFFF AND CALLER PUSH20 0xFFFFFFFFFFFFFFFFFFFFFFFFFFFFFFFFFFFFFFFF AND EQ PUSH2 0x1639 JUMPI PUSH1 0x40 MLOAD PUSH32 0x8C379A000000000000000000000000000000000000000000000000000000000 DUP2 MSTORE PUSH1 0x4 ADD PUSH2 0x1630 SWAP1 PUSH2 0x3201 JUMP JUMPDEST PUSH1 0x40 MLOAD DUP1 SWAP2 SUB SWAP1 REVERT JUMPDEST PUSH1 0x0 PUSH1 0x1 PUSH1 0x0 PUSH1 0x40 MLOAD PUSH1 0x20 ADD PUSH2 0x164E SWAP1 PUSH2 0x31E1 JUMP JUMPDEST PUSH1 0x40 MLOAD PUSH1 0x20 DUP2 DUP4 SUB SUB DUP2 MSTORE SWAP1 PUSH1 0x40 MSTORE DUP1 MLOAD SWAP1 PUSH1 0x20 ADD KECCAK256 DUP2 MSTORE PUSH1 0x20 ADD SWAP1 DUP2 MSTORE PUSH1 0x20 ADD PUSH1 0x0 KECCAK256 SWAP1 POP PUSH2 0x167D DUP2 PUSH2 0x2660 JUMP JUMPDEST PUSH1 0x0 DUP2 PUSH1 0x3 ADD PUSH1 0x0 PUSH1 0x40 MLOAD PUSH1 0x20 ADD PUSH2 0x1694 SWAP1 PUSH2 0x31C1 JUMP JUMPDEST PUSH1 0x40 MLOAD PUSH1 0x20 DUP2 DUP4 SUB SUB DUP2 MSTORE SWAP1 PUSH1 0x40 MSTORE DUP1 MLOAD SWAP1 PUSH1 0x20 ADD KECCAK256 DUP2 MSTORE PUSH1 0x20 ADD SWAP1 DUP2 MSTORE PUSH1 0x20 ADD PUSH1 0x0 KECCAK256 SLOAD GT PUSH2 0x16F9 JUMPI PUSH1 0x40 MLOAD PUSH32 0x8C379A000000000000000000000000000000000000000000000000000000000 DUP2 MSTORE PUSH1 0x4 ADD PUSH2 0x16F0 SWAP1 PUSH2 0x3221 JUMP JUMPDEST PUSH1 0x40 MLOAD DUP1 SWAP2 SUB SWAP1 REVERT JUMPDEST DUP1 PUSH1 0x3 ADD PUSH1 0x0 PUSH1 0x40 MLOAD PUSH1 0x20 ADD PUSH2 0x170E SWAP1 PUSH2 0x31C1 JUMP JUMPDEST PUSH1 0x40 MLOAD PUSH1 0x20 DUP2 DUP4 SUB SUB DUP2 MSTORE SWAP1 PUSH1 0x40 MSTORE DUP1 MLOAD SWAP1 PUSH1 0x20 ADD KECCAK256 DUP2 MSTORE PUSH1 0x20 ADD SWAP1 DUP2 MSTORE PUSH1 0x20 ADD PUSH1 0x0 KECCAK256 SLOAD PUSH1 0x5 DUP2 SWAP1 SSTORE POP DUP1 PUSH1 0x3 ADD PUSH1 0x0 PUSH1 0x40 MLOAD PUSH1 0x20 ADD PUSH2 0x174E SWAP1 PUSH2 0x31C1 JUMP JUMPDEST PUSH1 0x40 MLOAD PUSH1 0x20 DUP2 DUP4 SUB SUB DUP2 MSTORE SWAP1 PUSH1 0x40 MSTORE DUP1 MLOAD SWAP1 PUSH1 0x20 ADD KECCAK256 DUP2 MSTORE PUSH1 0x20 ADD SWAP1 DUP2 MSTORE PUSH1 0x20 ADD PUSH1 0x0 KECCAK256 PUSH1 0x0 SWAP1 SSTORE PUSH1 0x0 DUP2 PUSH1 0x0 ADD PUSH1 0x0 PUSH2 0x100 EXP DUP2 SLOAD DUP2 PUSH1 0xFF MUL NOT AND SWAP1 DUP4 ISZERO ISZERO MUL OR SWAP1 SSTORE POP POP JUMP JUMPDEST PUSH1 0x0 DUP1 SLOAD SWAP1 PUSH2 0x100 EXP SWAP1 DIV PUSH20 0xFFFFFFFFFFFFFFFFFFFFFFFFFFFFFFFFFFFFFFFF AND PUSH20 0xFFFFFFFFFFFFFFFFFFFFFFFFFFFFFFFFFFFFFFFF AND CALLER PUSH20 0xFFFFFFFFFFFFFFFFFFFFFFFFFFFFFFFFFFFFFFFF AND EQ PUSH2 0x1824 JUMPI PUSH1 0x40 MLOAD PUSH32 0x8C379A000000000000000000000000000000000000000000000000000000000 DUP2 MSTORE PUSH1 0x4 ADD PUSH2 0x181B SWAP1 PUSH2 0x3201 JUMP JUMPDEST PUSH1 0x40 MLOAD DUP1 SWAP2 SUB SWAP1 REVERT JUMPDEST PUSH1 0x0 PUSH1 0x1 PUSH1 0x0 PUSH1 0x40 MLOAD PUSH1 0x20 ADD PUSH2 0x1839 SWAP1 PUSH2 0x3161 JUMP JUMPDEST PUSH1 0x40 MLOAD PUSH1 0x20 DUP2 DUP4 SUB SUB DUP2 MSTORE SWAP1 PUSH1 0x40 MSTORE DUP1 MLOAD SWAP1 PUSH1 0x20 ADD KECCAK256 DUP2 MSTORE PUSH1 0x20 ADD SWAP1 DUP2 MSTORE PUSH1 0x20 ADD PUSH1 0x0 KECCAK256 SWAP1 POP PUSH2 0x1868 DUP2 PUSH2 0x2660 JUMP JUMPDEST PUSH1 0x0 PUSH20 0xFFFFFFFFFFFFFFFFFFFFFFFFFFFFFFFFFFFFFFFF AND DUP2 PUSH1 0x2 ADD PUSH1 0x0 PUSH1 0x40 MLOAD PUSH1 0x20 ADD PUSH2 0x1895 SWAP1 PUSH2 0x3141 JUMP JUMPDEST PUSH1 0x40 MLOAD PUSH1 0x20 DUP2 DUP4 SUB SUB DUP2 MSTORE SWAP1 PUSH1 0x40 MSTORE DUP1 MLOAD SWAP1 PUSH1 0x20 ADD KECCAK256 DUP2 MSTORE PUSH1 0x20 ADD SWAP1 DUP2 MSTORE PUSH1 0x20 ADD PUSH1 0x0 KECCAK256 PUSH1 0x0 SWAP1 SLOAD SWAP1 PUSH2 0x100 EXP SWAP1 DIV PUSH20 0xFFFFFFFFFFFFFFFFFFFFFFFFFFFFFFFFFFFFFFFF AND PUSH20 0xFFFFFFFFFFFFFFFFFFFFFFFFFFFFFFFFFFFFFFFF AND EQ ISZERO PUSH2 0x1931 JUMPI PUSH1 0x40 MLOAD PUSH32 0x8C379A000000000000000000000000000000000000000000000000000000000 DUP2 MSTORE PUSH1 0x4 ADD PUSH2 0x1928 SWAP1 PUSH2 0x3061 JUMP JUMPDEST PUSH1 0x40 MLOAD DUP1 SWAP2 SUB SWAP1 REVERT JUMPDEST DUP1 PUSH1 0x2 ADD PUSH1 0x0 PUSH1 0x40 MLOAD PUSH1 0x20 ADD PUSH2 0x1946 SWAP1 PUSH2 0x3141 JUMP JUMPDEST PUSH1 0x40 MLOAD PUSH1 0x20 DUP2 DUP4 SUB SUB DUP2 MSTORE SWAP1 PUSH1 0x40 MSTORE DUP1 MLOAD SWAP1 PUSH1 0x20 ADD KECCAK256 DUP2 MSTORE PUSH1 0x20 ADD SWAP1 DUP2 MSTORE PUSH1 0x20 ADD PUSH1 0x0 KECCAK256 PUSH1 0x0 SWAP1 SLOAD SWAP1 PUSH2 0x100 EXP SWAP1 DIV PUSH20 0xFFFFFFFFFFFFFFFFFFFFFFFFFFFFFFFFFFFFFFFF AND PUSH1 0x8 PUSH1 0x1 PUSH2 0x100 EXP DUP2 SLOAD DUP2 PUSH20 0xFFFFFFFFFFFFFFFFFFFFFFFFFFFFFFFFFFFFFFFF MUL NOT AND SWAP1 DUP4 PUSH20 0xFFFFFFFFFFFFFFFFFFFFFFFFFFFFFFFFFFFFFFFF AND MUL OR SWAP1 SSTORE POP DUP1 PUSH1 0x2 ADD PUSH1 0x0 PUSH1 0x40 MLOAD PUSH1 0x20 ADD PUSH2 0x19E0 SWAP1 PUSH2 0x3141 JUMP JUMPDEST PUSH1 0x40 MLOAD PUSH1 0x20 DUP2 DUP4 SUB SUB DUP2 MSTORE SWAP1 PUSH1 0x40 MSTORE DUP1 MLOAD SWAP1 PUSH1 0x20 ADD KECCAK256 DUP2 MSTORE PUSH1 0x20 ADD SWAP1 DUP2 MSTORE PUSH1 0x20 ADD PUSH1 0x0 KECCAK256 PUSH1 0x0 PUSH2 0x100 EXP DUP2 SLOAD SWAP1 PUSH20 0xFFFFFFFFFFFFFFFFFFFFFFFFFFFFFFFFFFFFFFFF MUL NOT AND SWAP1 SSTORE PUSH1 0x0 DUP2 PUSH1 0x0 ADD PUSH1 0x0 PUSH2 0x100 EXP DUP2 SLOAD DUP2 PUSH1 0xFF MUL NOT AND SWAP1 DUP4 ISZERO ISZERO MUL OR SWAP1 SSTORE POP POP JUMP JUMPDEST PUSH1 0x0 DUP1 SLOAD SWAP1 PUSH2 0x100 EXP SWAP1 DIV PUSH20 0xFFFFFFFFFFFFFFFFFFFFFFFFFFFFFFFFFFFFFFFF AND PUSH20 0xFFFFFFFFFFFFFFFFFFFFFFFFFFFFFFFFFFFFFFFF AND CALLER PUSH20 0xFFFFFFFFFFFFFFFFFFFFFFFFFFFFFFFFFFFFFFFF AND EQ PUSH2 0x1AD5 JUMPI PUSH1 0x40 MLOAD PUSH32 0x8C379A000000000000000000000000000000000000000000000000000000000 DUP2 MSTORE PUSH1 0x4 ADD PUSH2 0x1ACC SWAP1 PUSH2 0x3201 JUMP JUMPDEST PUSH1 0x40 MLOAD DUP1 SWAP2 SUB SWAP1 REVERT JUMPDEST PUSH1 0x0 PUSH1 0x1 PUSH1 0x0 DUP6 PUSH1 0x40 MLOAD PUSH1 0x20 ADD PUSH2 0x1AEC SWAP2 SWAP1 PUSH2 0x2F55 JUMP JUMPDEST PUSH1 0x40 MLOAD PUSH1 0x20 DUP2 DUP4 SUB SUB DUP2 MSTORE SWAP1 PUSH1 0x40 MSTORE DUP1 MLOAD SWAP1 PUSH1 0x20 ADD KECCAK256 DUP2 MSTORE PUSH1 0x20 ADD SWAP1 DUP2 MSTORE PUSH1 0x20 ADD PUSH1 0x0 KECCAK256 SWAP1 POP DUP2 DUP2 PUSH1 0x3 ADD PUSH1 0x0 DUP6 PUSH1 0x40 MLOAD PUSH1 0x20 ADD PUSH2 0x1B2A SWAP2 SWAP1 PUSH2 0x2F55 JUMP JUMPDEST PUSH1 0x40 MLOAD PUSH1 0x20 DUP2 DUP4 SUB SUB DUP2 MSTORE SWAP1 PUSH1 0x40 MSTORE DUP1 MLOAD SWAP1 PUSH1 0x20 ADD KECCAK256 DUP2 MSTORE PUSH1 0x20 ADD SWAP1 DUP2 MSTORE PUSH1 0x20 ADD PUSH1 0x0 KECCAK256 DUP2 SWAP1 SSTORE POP PUSH1 0x1 DUP2 PUSH1 0x0 ADD PUSH1 0x0 PUSH2 0x100 EXP DUP2 SLOAD DUP2 PUSH1 0xFF MUL NOT AND SWAP1 DUP4 ISZERO ISZERO MUL OR SWAP1 SSTORE POP PUSH2 0x1B84 PUSH1 0xA SLOAD TIMESTAMP PUSH2 0x25B8 SWAP1 SWAP2 SWAP1 PUSH4 0xFFFFFFFF AND JUMP JUMPDEST DUP2 PUSH1 0x1 ADD DUP2 SWAP1 SSTORE POP PUSH32 0x860699CC7B0F3CB3D034FD31CDFE0816887A9F55D10993224D77C359C3D55551 DUP5 DUP5 DUP5 PUSH1 0x40 MLOAD PUSH2 0x1BBF SWAP4 SWAP3 SWAP2 SWAP1 PUSH2 0x2FBC JUMP JUMPDEST PUSH1 0x40 MLOAD DUP1 SWAP2 SUB SWAP1 LOG1 POP POP POP POP JUMP JUMPDEST PUSH1 0x7 DUP1 SLOAD PUSH2 0x1BDA SWAP1 PUSH2 0x3474 JUMP JUMPDEST DUP1 PUSH1 0x1F ADD PUSH1 0x20 DUP1 SWAP2 DIV MUL PUSH1 0x20 ADD PUSH1 0x40 MLOAD SWAP1 DUP2 ADD PUSH1 0x40 MSTORE DUP1 SWAP3 SWAP2 SWAP1 DUP2 DUP2 MSTORE PUSH1 0x20 ADD DUP3 DUP1 SLOAD PUSH2 0x1C06 SWAP1 PUSH2 0x3474 JUMP JUMPDEST DUP1 ISZERO PUSH2 0x1C53 JUMPI DUP1 PUSH1 0x1F LT PUSH2 0x1C28 JUMPI PUSH2 0x100 DUP1 DUP4 SLOAD DIV MUL DUP4 MSTORE SWAP2 PUSH1 0x20 ADD SWAP2 PUSH2 0x1C53 JUMP JUMPDEST DUP3 ADD SWAP2 SWAP1 PUSH1 0x0 MSTORE PUSH1 0x20 PUSH1 0x0 KECCAK256 SWAP1 JUMPDEST DUP2 SLOAD DUP2 MSTORE SWAP1 PUSH1 0x1 ADD SWAP1 PUSH1 0x20 ADD DUP1 DUP4 GT PUSH2 0x1C36 JUMPI DUP3 SWAP1 SUB PUSH1 0x1F AND DUP3 ADD SWAP2 JUMPDEST POP POP POP POP POP DUP2 JUMP JUMPDEST PUSH1 0x9 PUSH1 0x0 SWAP1 SLOAD SWAP1 PUSH2 0x100 EXP SWAP1 DIV PUSH20 0xFFFFFFFFFFFFFFFFFFFFFFFFFFFFFFFFFFFFFFFF AND PUSH20 0xFFFFFFFFFFFFFFFFFFFFFFFFFFFFFFFFFFFFFFFF AND CALLER PUSH20 0xFFFFFFFFFFFFFFFFFFFFFFFFFFFFFFFFFFFFFFFF AND EQ PUSH2 0x1CEB JUMPI PUSH1 0x40 MLOAD PUSH32 0x8C379A000000000000000000000000000000000000000000000000000000000 DUP2 MSTORE PUSH1 0x4 ADD PUSH2 0x1CE2 SWAP1 PUSH2 0x3201 JUMP JUMPDEST PUSH1 0x40 MLOAD DUP1 SWAP2 SUB SWAP1 REVERT JUMPDEST PUSH2 0x1D3D DUP2 PUSH1 0x2 PUSH1 0x0 DUP6 PUSH20 0xFFFFFFFFFFFFFFFFFFFFFFFFFFFFFFFFFFFFFFFF AND PUSH20 0xFFFFFFFFFFFFFFFFFFFFFFFFFFFFFFFFFFFFFFFF AND DUP2 MSTORE PUSH1 0x20 ADD SWAP1 DUP2 MSTORE PUSH1 0x20 ADD PUSH1 0x0 KECCAK256 SLOAD PUSH2 0x2616 SWAP1 SWAP2 SWAP1 PUSH4 0xFFFFFFFF AND JUMP JUMPDEST PUSH1 0x2 PUSH1 0x0 DUP5 PUSH20 0xFFFFFFFFFFFFFFFFFFFFFFFFFFFFFFFFFFFFFFFF AND PUSH20 0xFFFFFFFFFFFFFFFFFFFFFFFFFFFFFFFFFFFFFFFF AND DUP2 MSTORE PUSH1 0x20 ADD SWAP1 DUP2 MSTORE PUSH1 0x20 ADD PUSH1 0x0 KECCAK256 DUP2 SWAP1 SSTORE POP PUSH2 0x1D95 DUP2 PUSH1 0x4 SLOAD PUSH2 0x2616 SWAP1 SWAP2 SWAP1 PUSH4 0xFFFFFFFF AND JUMP JUMPDEST PUSH1 0x4 DUP2 SWAP1 SSTORE POP PUSH1 0x0 PUSH20 0xFFFFFFFFFFFFFFFFFFFFFFFFFFFFFFFFFFFFFFFF AND DUP3 PUSH20 0xFFFFFFFFFFFFFFFFFFFFFFFFFFFFFFFFFFFFFFFF AND PUSH32 0xDDF252AD1BE2C89B69C2B068FC378DAA952BA7F163C4A11628F55A4DF523B3EF DUP4 PUSH1 0x40 MLOAD PUSH2 0x1DF9 SWAP2 SWAP1 PUSH2 0x32A1 JUMP JUMPDEST PUSH1 0x40 MLOAD DUP1 SWAP2 SUB SWAP1 LOG3 POP POP JUMP JUMPDEST PUSH1 0x9 PUSH1 0x0 SWAP1 SLOAD SWAP1 PUSH2 0x100 EXP SWAP1 DIV PUSH20 0xFFFFFFFFFFFFFFFFFFFFFFFFFFFFFFFFFFFFFFFF AND DUP2 JUMP JUMPDEST PUSH1 0x0 DUP1 SLOAD SWAP1 PUSH2 0x100 EXP SWAP1 DIV PUSH20 0xFFFFFFFFFFFFFFFFFFFFFFFFFFFFFFFFFFFFFFFF AND PUSH20 0xFFFFFFFFFFFFFFFFFFFFFFFFFFFFFFFFFFFFFFFF AND CALLER PUSH20 0xFFFFFFFFFFFFFFFFFFFFFFFFFFFFFFFFFFFFFFFF AND EQ PUSH2 0x1EB9 JUMPI PUSH1 0x40 MLOAD PUSH32 0x8C379A000000000000000000000000000000000000000000000000000000000 DUP2 MSTORE PUSH1 0x4 ADD PUSH2 0x1EB0 SWAP1 PUSH2 0x3201 JUMP JUMPDEST PUSH1 0x40 MLOAD DUP1 SWAP2 SUB SWAP1 REVERT JUMPDEST PUSH1 0x0 PUSH1 0x1 PUSH1 0x0 PUSH1 0x40 MLOAD PUSH1 0x20 ADD PUSH2 0x1ECE SWAP1 PUSH2 0x3121 JUMP JUMPDEST PUSH1 0x40 MLOAD PUSH1 0x20 DUP2 DUP4 SUB SUB DUP2 MSTORE SWAP1 PUSH1 0x40 MSTORE DUP1 MLOAD SWAP1 PUSH1 0x20 ADD KECCAK256 DUP2 MSTORE PUSH1 0x20 ADD SWAP1 DUP2 MSTORE PUSH1 0x20 ADD PUSH1 0x0 KECCAK256 SWAP1 POP PUSH2 0x1EFD DUP2 PUSH2 0x2660 JUMP JUMPDEST PUSH1 0x0 PUSH20 0xFFFFFFFFFFFFFFFFFFFFFFFFFFFFFFFFFFFFFFFF AND DUP2 PUSH1 0x2 ADD PUSH1 0x0 PUSH1 0x40 MLOAD PUSH1 0x20 ADD PUSH2 0x1F2A SWAP1 PUSH2 0x3121 JUMP JUMPDEST PUSH1 0x40 MLOAD PUSH1 0x20 DUP2 DUP4 SUB SUB DUP2 MSTORE SWAP1 PUSH1 0x40 MSTORE DUP1 MLOAD SWAP1 PUSH1 0x20 ADD KECCAK256 DUP2 MSTORE PUSH1 0x20 ADD SWAP1 DUP2 MSTORE PUSH1 0x20 ADD PUSH1 0x0 KECCAK256 PUSH1 0x0 SWAP1 SLOAD SWAP1 PUSH2 0x100 EXP SWAP1 DIV PUSH20 0xFFFFFFFFFFFFFFFFFFFFFFFFFFFFFFFFFFFFFFFF AND PUSH20 0xFFFFFFFFFFFFFFFFFFFFFFFFFFFFFFFFFFFFFFFF AND EQ ISZERO PUSH2 0x1FC6 JUMPI PUSH1 0x40 MLOAD PUSH32 0x8C379A000000000000000000000000000000000000000000000000000000000 DUP2 MSTORE PUSH1 0x4 ADD PUSH2 0x1FBD SWAP1 PUSH2 0x3061 JUMP JUMPDEST PUSH1 0x40 MLOAD DUP1 SWAP2 SUB SWAP1 REVERT JUMPDEST DUP1 PUSH1 0x2 ADD PUSH1 0x0 PUSH1 0x40 MLOAD PUSH1 0x20 ADD PUSH2 0x1FDB SWAP1 PUSH2 0x3081 JUMP JUMPDEST PUSH1 0x40 MLOAD PUSH1 0x20 DUP2 DUP4 SUB SUB DUP2 MSTORE SWAP1 PUSH1 0x40 MSTORE DUP1 MLOAD SWAP1 PUSH1 0x20 ADD KECCAK256 DUP2 MSTORE PUSH1 0x20 ADD SWAP1 DUP2 MSTORE PUSH1 0x20 ADD PUSH1 0x0 KECCAK256 PUSH1 0x0 SWAP1 SLOAD SWAP1 PUSH2 0x100 EXP SWAP1 DIV PUSH20 0xFFFFFFFFFFFFFFFFFFFFFFFFFFFFFFFFFFFFFFFF AND PUSH1 0x9 PUSH1 0x0 PUSH2 0x100 EXP DUP2 SLOAD DUP2 PUSH20 0xFFFFFFFFFFFFFFFFFFFFFFFFFFFFFFFFFFFFFFFF MUL NOT AND SWAP1 DUP4 PUSH20 0xFFFFFFFFFFFFFFFFFFFFFFFFFFFFFFFFFFFFFFFF AND MUL OR SWAP1 SSTORE POP DUP1 PUSH1 0x2 ADD PUSH1 0x0 PUSH1 0x40 MLOAD PUSH1 0x20 ADD PUSH2 0x2075 SWAP1 PUSH2 0x3081 JUMP JUMPDEST PUSH1 0x40 MLOAD PUSH1 0x20 DUP2 DUP4 SUB SUB DUP2 MSTORE SWAP1 PUSH1 0x40 MSTORE DUP1 MLOAD SWAP1 PUSH1 0x20 ADD KECCAK256 DUP2 MSTORE PUSH1 0x20 ADD SWAP1 DUP2 MSTORE PUSH1 0x20 ADD PUSH1 0x0 KECCAK256 PUSH1 0x0 PUSH2 0x100 EXP DUP2 SLOAD SWAP1 PUSH20 0xFFFFFFFFFFFFFFFFFFFFFFFFFFFFFFFFFFFFFFFF MUL NOT AND SWAP1 SSTORE PUSH1 0x0 DUP2 PUSH1 0x0 ADD PUSH1 0x0 PUSH2 0x100 EXP DUP2 SLOAD DUP2 PUSH1 0xFF MUL NOT AND SWAP1 DUP4 ISZERO ISZERO MUL OR SWAP1 SSTORE POP POP JUMP JUMPDEST PUSH1 0x0 DUP1 DUP3 GT PUSH2 0x2120 JUMPI PUSH1 0x40 MLOAD PUSH32 0x8C379A000000000000000000000000000000000000000000000000000000000 DUP2 MSTORE PUSH1 0x4 ADD PUSH2 0x2117 SWAP1 PUSH2 0x3221 JUMP JUMPDEST PUSH1 0x40 MLOAD DUP1 SWAP2 SUB SWAP1 REVERT JUMPDEST DUP2 PUSH1 0x2 PUSH1 0x0 CALLER PUSH20 0xFFFFFFFFFFFFFFFFFFFFFFFFFFFFFFFFFFFFFFFF AND PUSH20 0xFFFFFFFFFFFFFFFFFFFFFFFFFFFFFFFFFFFFFFFF AND DUP2 MSTORE PUSH1 0x20 ADD SWAP1 DUP2 MSTORE PUSH1 0x20 ADD PUSH1 0x0 KECCAK256 SLOAD LT ISZERO PUSH2 0x21A2 JUMPI PUSH1 0x40 MLOAD PUSH32 0x8C379A000000000000000000000000000000000000000000000000000000000 DUP2 MSTORE PUSH1 0x4 ADD PUSH2 0x2199 SWAP1 PUSH2 0x3241 JUMP JUMPDEST PUSH1 0x40 MLOAD DUP1 SWAP2 SUB SWAP1 REVERT JUMPDEST PUSH2 0x21F4 DUP3 PUSH1 0x2 PUSH1 0x0 CALLER PUSH20 0xFFFFFFFFFFFFFFFFFFFFFFFFFFFFFFFFFFFFFFFF AND PUSH20 0xFFFFFFFFFFFFFFFFFFFFFFFFFFFFFFFFFFFFFFFF AND DUP2 MSTORE PUSH1 0x20 ADD SWAP1 DUP2 MSTORE PUSH1 0x20 ADD PUSH1 0x0 KECCAK256 SLOAD PUSH2 0x2616 SWAP1 SWAP2 SWAP1 PUSH4 0xFFFFFFFF AND JUMP JUMPDEST PUSH1 0x2 PUSH1 0x0 CALLER PUSH20 0xFFFFFFFFFFFFFFFFFFFFFFFFFFFFFFFFFFFFFFFF AND PUSH20 0xFFFFFFFFFFFFFFFFFFFFFFFFFFFFFFFFFFFFFFFF AND DUP2 MSTORE PUSH1 0x20 ADD SWAP1 DUP2 MSTORE PUSH1 0x20 ADD PUSH1 0x0 KECCAK256 DUP2 SWAP1 SSTORE POP PUSH2 0x2289 DUP3 PUSH1 0x2 PUSH1 0x0 DUP7 PUSH20 0xFFFFFFFFFFFFFFFFFFFFFFFFFFFFFFFFFFFFFFFF AND PUSH20 0xFFFFFFFFFFFFFFFFFFFFFFFFFFFFFFFFFFFFFFFF AND DUP2 MSTORE PUSH1 0x20 ADD SWAP1 DUP2 MSTORE PUSH1 0x20 ADD PUSH1 0x0 KECCAK256 SLOAD PUSH2 0x25B8 SWAP1 SWAP2 SWAP1 PUSH4 0xFFFFFFFF AND JUMP JUMPDEST PUSH1 0x2 PUSH1 0x0 DUP6 PUSH20 0xFFFFFFFFFFFFFFFFFFFFFFFFFFFFFFFFFFFFFFFF AND PUSH20 0xFFFFFFFFFFFFFFFFFFFFFFFFFFFFFFFFFFFFFFFF AND DUP2 MSTORE PUSH1 0x20 ADD SWAP1 DUP2 MSTORE PUSH1 0x20 ADD PUSH1 0x0 KECCAK256 DUP2 SWAP1 SSTORE POP DUP3 PUSH20 0xFFFFFFFFFFFFFFFFFFFFFFFFFFFFFFFFFFFFFFFF AND CALLER PUSH20 0xFFFFFFFFFFFFFFFFFFFFFFFFFFFFFFFFFFFFFFFF AND PUSH32 0xDDF252AD1BE2C89B69C2B068FC378DAA952BA7F163C4A11628F55A4DF523B3EF DUP5 PUSH1 0x40 MLOAD PUSH2 0x2329 SWAP2 SWAP1 PUSH2 0x32A1 JUMP JUMPDEST PUSH1 0x40 MLOAD DUP1 SWAP2 SUB SWAP1 LOG3 PUSH1 0x1 SWAP1 POP SWAP3 SWAP2 POP POP JUMP JUMPDEST PUSH3 0x2A300 DUP2 JUMP JUMPDEST PUSH1 0x8 PUSH1 0x1 SWAP1 SLOAD SWAP1 PUSH2 0x100 EXP SWAP1 DIV PUSH20 0xFFFFFFFFFFFFFFFFFFFFFFFFFFFFFFFFFFFFFFFF AND DUP2 JUMP JUMPDEST PUSH1 0x0 PUSH1 0x1 PUSH1 0x0 DUP5 PUSH1 0x40 MLOAD PUSH1 0x20 ADD PUSH2 0x237F SWAP2 SWAP1 PUSH2 0x2F55 JUMP JUMPDEST PUSH1 0x40 MLOAD PUSH1 0x20 DUP2 DUP4 SUB SUB DUP2 MSTORE SWAP1 PUSH1 0x40 MSTORE DUP1 MLOAD SWAP1 PUSH1 0x20 ADD KECCAK256 DUP2 MSTORE PUSH1 0x20 ADD SWAP1 DUP2 MSTORE PUSH1 0x20 ADD PUSH1 0x0 KECCAK256 PUSH1 0x2 ADD PUSH1 0x0 DUP4 PUSH1 0x40 MLOAD PUSH1 0x20 ADD PUSH2 0x23B9 SWAP2 SWAP1 PUSH2 0x2F55 JUMP JUMPDEST PUSH1 0x40 MLOAD PUSH1 0x20 DUP2 DUP4 SUB SUB DUP2 MSTORE SWAP1 PUSH1 0x40 MSTORE DUP1 MLOAD SWAP1 PUSH1 0x20 ADD KECCAK256 DUP2 MSTORE PUSH1 0x20 ADD SWAP1 DUP2 MSTORE PUSH1 0x20 ADD PUSH1 0x0 KECCAK256 PUSH1 0x0 SWAP1 SLOAD SWAP1 PUSH2 0x100 EXP SWAP1 DIV PUSH20 0xFFFFFFFFFFFFFFFFFFFFFFFFFFFFFFFFFFFFFFFF AND SWAP1 POP SWAP3 SWAP2 POP POP JUMP JUMPDEST PUSH3 0x278D00 DUP2 JUMP JUMPDEST PUSH1 0x0 PUSH1 0x3 PUSH1 0x0 DUP5 PUSH20 0xFFFFFFFFFFFFFFFFFFFFFFFFFFFFFFFFFFFFFFFF AND PUSH20 0xFFFFFFFFFFFFFFFFFFFFFFFFFFFFFFFFFFFFFFFF AND DUP2 MSTORE PUSH1 0x20 ADD SWAP1 DUP2 MSTORE PUSH1 0x20 ADD PUSH1 0x0 KECCAK256 PUSH1 0x0 DUP4 PUSH20 0xFFFFFFFFFFFFFFFFFFFFFFFFFFFFFFFFFFFFFFFF AND PUSH20 0xFFFFFFFFFFFFFFFFFFFFFFFFFFFFFFFFFFFFFFFF AND DUP2 MSTORE PUSH1 0x20 ADD SWAP1 DUP2 MSTORE PUSH1 0x20 ADD PUSH1 0x0 KECCAK256 SLOAD SWAP1 POP SWAP3 SWAP2 POP POP JUMP JUMPDEST PUSH1 0x0 DUP1 SLOAD SWAP1 PUSH2 0x100 EXP SWAP1 DIV PUSH20 0xFFFFFFFFFFFFFFFFFFFFFFFFFFFFFFFFFFFFFFFF AND PUSH20 0xFFFFFFFFFFFFFFFFFFFFFFFFFFFFFFFFFFFFFFFF AND CALLER PUSH20 0xFFFFFFFFFFFFFFFFFFFFFFFFFFFFFFFFFFFFFFFF AND EQ PUSH2 0x2522 JUMPI PUSH1 0x40 MLOAD PUSH32 0x8C379A000000000000000000000000000000000000000000000000000000000 DUP2 MSTORE PUSH1 0x4 ADD PUSH2 0x2519 SWAP1 PUSH2 0x3201 JUMP JUMPDEST PUSH1 0x40 MLOAD DUP1 SWAP2 SUB SWAP1 REVERT JUMPDEST PUSH3 0x2A300 DUP2 LT ISZERO PUSH2 0x2568 JUMPI PUSH1 0x40 MLOAD PUSH32 0x8C379A000000000000000000000000000000000000000000000000000000000 DUP2 MSTORE PUSH1 0x4 ADD PUSH2 0x255F SWAP1 PUSH2 0x3101 JUMP JUMPDEST PUSH1 0x40 MLOAD DUP1 SWAP2 SUB SWAP1 REVERT JUMPDEST PUSH3 0x278D00 DUP2 GT ISZERO PUSH2 0x25AE JUMPI PUSH1 0x40 MLOAD PUSH32 0x8C379A000000000000000000000000000000000000000000000000000000000 DUP2 MSTORE PUSH1 0x4 ADD PUSH2 0x25A5 SWAP1 PUSH2 0x3181 JUMP JUMPDEST PUSH1 0x40 MLOAD DUP1 SWAP2 SUB SWAP1 REVERT JUMPDEST DUP1 PUSH1 0xA DUP2 SWAP1 SSTORE POP POP JUMP JUMPDEST PUSH1 0x0 DUP1 DUP3 DUP5 PUSH2 0x25C7 SWAP2 SWAP1 PUSH2 0x3349 JUMP JUMPDEST SWAP1 POP DUP4 DUP2 LT ISZERO PUSH2 0x260C JUMPI PUSH1 0x40 MLOAD PUSH32 0x8C379A000000000000000000000000000000000000000000000000000000000 DUP2 MSTORE PUSH1 0x4 ADD PUSH2 0x2603 SWAP1 PUSH2 0x30E1 JUMP JUMPDEST PUSH1 0x40 MLOAD DUP1 SWAP2 SUB SWAP1 REVERT JUMPDEST DUP1 SWAP2 POP POP SWAP3 SWAP2 POP POP JUMP JUMPDEST PUSH1 0x0 PUSH2 0x2658 DUP4 DUP4 PUSH1 0x40 MLOAD DUP1 PUSH1 0x40 ADD PUSH1 0x40 MSTORE DUP1 PUSH1 0x1E DUP2 MSTORE PUSH1 0x20 ADD PUSH32 0x536166654D6174683A207375627472616374696F6E206F766572666C6F770000 DUP2 MSTORE POP PUSH2 0x275E JUMP JUMPDEST SWAP1 POP SWAP3 SWAP2 POP POP JUMP JUMPDEST PUSH1 0x1 ISZERO ISZERO DUP2 PUSH1 0x0 ADD PUSH1 0x0 SWAP1 SLOAD SWAP1 PUSH2 0x100 EXP SWAP1 DIV PUSH1 0xFF AND ISZERO ISZERO EQ PUSH2 0x26B8 JUMPI PUSH1 0x40 MLOAD PUSH32 0x8C379A000000000000000000000000000000000000000000000000000000000 DUP2 MSTORE PUSH1 0x4 ADD PUSH2 0x26AF SWAP1 PUSH2 0x30C1 JUMP JUMPDEST PUSH1 0x40 MLOAD DUP1 SWAP2 SUB SWAP1 REVERT JUMPDEST TIMESTAMP DUP2 PUSH1 0x1 ADD SLOAD GT ISZERO PUSH2 0x26FF JUMPI PUSH1 0x40 MLOAD PUSH32 0x8C379A000000000000000000000000000000000000000000000000000000000 DUP2 MSTORE PUSH1 0x4 ADD PUSH2 0x26F6 SWAP1 PUSH2 0x31A1 JUMP JUMPDEST PUSH1 0x40 MLOAD DUP1 SWAP2 SUB SWAP1 REVERT JUMPDEST TIMESTAMP PUSH2 0x271A PUSH3 0x278D00 DUP4 PUSH1 0x1 ADD SLOAD PUSH2 0x25B8 SWAP1 SWAP2 SWAP1 PUSH4 0xFFFFFFFF AND JUMP JUMPDEST LT ISZERO PUSH2 0x275B JUMPI PUSH1 0x40 MLOAD PUSH32 0x8C379A000000000000000000000000000000000000000000000000000000000 DUP2 MSTORE PUSH1 0x4 ADD PUSH2 0x2752 SWAP1 PUSH2 0x3261 JUMP JUMPDEST PUSH1 0x40 MLOAD DUP1 SWAP2 SUB SWAP1 REVERT JUMPDEST POP JUMP JUMPDEST PUSH1 0x0 DUP4 DUP4 GT ISZERO DUP3 SWAP1 PUSH2 0x27A6 JUMPI PUSH1 0x40 MLOAD PUSH32 0x8C379A000000000000000000000000000000000000000000000000000000000 DUP2 MSTORE PUSH1 0x4 ADD PUSH2 0x279D SWAP2 SWAP1 PUSH2 0x2F55 JUMP JUMPDEST PUSH1 0x40 MLOAD DUP1 SWAP2 SUB SWAP1 REVERT JUMPDEST POP PUSH1 0x0 DUP4 DUP6 PUSH2 0x27B5 SWAP2 SWAP1 PUSH2 0x339F JUMP JUMPDEST SWAP1 POP DUP1 SWAP2 POP POP SWAP4 SWAP3 POP POP POP JUMP JUMPDEST PUSH1 0x0 PUSH2 0x27D5 PUSH2 0x27D0 DUP5 PUSH2 0x32FC JUMP JUMPDEST PUSH2 0x32D7 JUMP JUMPDEST SWAP1 POP DUP3 DUP2 MSTORE PUSH1 0x20 DUP2 ADD DUP5 DUP5 DUP5 ADD GT ISZERO PUSH2 0x27F1 JUMPI PUSH2 0x27F0 PUSH2 0x3569 JUMP JUMPDEST JUMPDEST PUSH2 0x27FC DUP5 DUP3 DUP6 PUSH2 0x3432 JUMP JUMPDEST POP SWAP4 SWAP3 POP POP POP JUMP JUMPDEST PUSH1 0x0 DUP2 CALLDATALOAD SWAP1 POP PUSH2 0x2813 DUP2 PUSH2 0x3958 JUMP JUMPDEST SWAP3 SWAP2 POP POP JUMP JUMPDEST PUSH1 0x0 DUP2 CALLDATALOAD SWAP1 POP PUSH2 0x2828 DUP2 PUSH2 0x396F JUMP JUMPDEST SWAP3 SWAP2 POP POP JUMP JUMPDEST PUSH1 0x0 DUP3 PUSH1 0x1F DUP4 ADD SLT PUSH2 0x2843 JUMPI PUSH2 0x2842 PUSH2 0x3564 JUMP JUMPDEST JUMPDEST DUP2 CALLDATALOAD PUSH2 0x2853 DUP5 DUP3 PUSH1 0x20 DUP7 ADD PUSH2 0x27C2 JUMP JUMPDEST SWAP2 POP POP SWAP3 SWAP2 POP POP JUMP JUMPDEST PUSH1 0x0 DUP2 CALLDATALOAD SWAP1 POP PUSH2 0x286B DUP2 PUSH2 0x3986 JUMP JUMPDEST SWAP3 SWAP2 POP POP JUMP JUMPDEST PUSH1 0x0 PUSH1 0x20 DUP3 DUP5 SUB SLT ISZERO PUSH2 0x2887 JUMPI PUSH2 0x2886 PUSH2 0x3573 JUMP JUMPDEST JUMPDEST PUSH1 0x0 PUSH2 0x2895 DUP5 DUP3 DUP6 ADD PUSH2 0x2804 JUMP JUMPDEST SWAP2 POP POP SWAP3 SWAP2 POP POP JUMP JUMPDEST PUSH1 0x0 DUP1 PUSH1 0x40 DUP4 DUP6 SUB SLT ISZERO PUSH2 0x28B5 JUMPI PUSH2 0x28B4 PUSH2 0x3573 JUMP JUMPDEST JUMPDEST PUSH1 0x0 PUSH2 0x28C3 DUP6 DUP3 DUP7 ADD PUSH2 0x2804 JUMP JUMPDEST SWAP3 POP POP PUSH1 0x20 PUSH2 0x28D4 DUP6 DUP3 DUP7 ADD PUSH2 0x2804 JUMP JUMPDEST SWAP2 POP POP SWAP3 POP SWAP3 SWAP1 POP JUMP JUMPDEST PUSH1 0x0 DUP1 PUSH1 0x0 PUSH1 0x60 DUP5 DUP7 SUB SLT ISZERO PUSH2 0x28F7 JUMPI PUSH2 0x28F6 PUSH2 0x3573 JUMP JUMPDEST JUMPDEST PUSH1 0x0 PUSH2 0x2905 DUP7 DUP3 DUP8 ADD PUSH2 0x2804 JUMP JUMPDEST SWAP4 POP POP PUSH1 0x20 PUSH2 0x2916 DUP7 DUP3 DUP8 ADD PUSH2 0x2804 JUMP JUMPDEST SWAP3 POP POP PUSH1 0x40 PUSH2 0x2927 DUP7 DUP3 DUP8 ADD PUSH2 0x285C JUMP JUMPDEST SWAP2 POP POP SWAP3 POP SWAP3 POP SWAP3 JUMP JUMPDEST PUSH1 0x0 DUP1 PUSH1 0x40 DUP4 DUP6 SUB SLT ISZERO PUSH2 0x2948 JUMPI PUSH2 0x2947 PUSH2 0x3573 JUMP JUMPDEST JUMPDEST PUSH1 0x0 PUSH2 0x2956 DUP6 DUP3 DUP7 ADD PUSH2 0x2804 JUMP JUMPDEST SWAP3 POP POP PUSH1 0x20 PUSH2 0x2967 DUP6 DUP3 DUP7 ADD PUSH2 0x285C JUMP JUMPDEST SWAP2 POP POP SWAP3 POP SWAP3 SWAP1 POP JUMP JUMPDEST PUSH1 0x0 PUSH1 0x20 DUP3 DUP5 SUB SLT ISZERO PUSH2 0x2987 JUMPI PUSH2 0x2986 PUSH2 0x3573 JUMP JUMPDEST JUMPDEST PUSH1 0x0 PUSH2 0x2995 DUP5 DUP3 DUP6 ADD PUSH2 0x2819 JUMP JUMPDEST SWAP2 POP POP SWAP3 SWAP2 POP POP JUMP JUMPDEST PUSH1 0x0 PUSH1 0x20 DUP3 DUP5 SUB SLT ISZERO PUSH2 0x29B4 JUMPI PUSH2 0x29B3 PUSH2 0x3573 JUMP JUMPDEST JUMPDEST PUSH1 0x0 DUP3 ADD CALLDATALOAD PUSH8 0xFFFFFFFFFFFFFFFF DUP2 GT ISZERO PUSH2 0x29D2 JUMPI PUSH2 0x29D1 PUSH2 0x356E JUMP JUMPDEST JUMPDEST PUSH2 0x29DE DUP5 DUP3 DUP6 ADD PUSH2 0x282E JUMP JUMPDEST SWAP2 POP POP SWAP3 SWAP2 POP POP JUMP JUMPDEST PUSH1 0x0 DUP1 PUSH1 0x40 DUP4 DUP6 SUB SLT ISZERO PUSH2 0x29FE JUMPI PUSH2 0x29FD PUSH2 0x3573 JUMP JUMPDEST JUMPDEST PUSH1 0x0 DUP4 ADD CALLDATALOAD PUSH8 0xFFFFFFFFFFFFFFFF DUP2 GT ISZERO PUSH2 0x2A1C JUMPI PUSH2 0x2A1B PUSH2 0x356E JUMP JUMPDEST JUMPDEST PUSH2 0x2A28 DUP6 DUP3 DUP7 ADD PUSH2 0x282E JUMP JUMPDEST SWAP3 POP POP PUSH1 0x20 DUP4 ADD CALLDATALOAD PUSH8 0xFFFFFFFFFFFFFFFF DUP2 GT ISZERO PUSH2 0x2A49 JUMPI PUSH2 0x2A48 PUSH2 0x356E JUMP JUMPDEST JUMPDEST PUSH2 0x2A55 DUP6 DUP3 DUP7 ADD PUSH2 0x282E JUMP JUMPDEST SWAP2 POP POP SWAP3 POP SWAP3 SWAP1 POP JUMP JUMPDEST PUSH1 0x0 DUP1 PUSH1 0x0 PUSH1 0x60 DUP5 DUP7 SUB SLT ISZERO PUSH2 0x2A78 JUMPI PUSH2 0x2A77 PUSH2 0x3573 JUMP JUMPDEST JUMPDEST PUSH1 0x0 DUP5 ADD CALLDATALOAD PUSH8 0xFFFFFFFFFFFFFFFF DUP2 GT ISZERO PUSH2 0x2A96 JUMPI PUSH2 0x2A95 PUSH2 0x356E JUMP JUMPDEST JUMPDEST PUSH2 0x2AA2 DUP7 DUP3 DUP8 ADD PUSH2 0x282E JUMP JUMPDEST SWAP4 POP POP PUSH1 0x20 DUP5 ADD CALLDATALOAD PUSH8 0xFFFFFFFFFFFFFFFF DUP2 GT ISZERO PUSH2 0x2AC3 JUMPI PUSH2 0x2AC2 PUSH2 0x356E JUMP JUMPDEST JUMPDEST PUSH2 0x2ACF DUP7 DUP3 DUP8 ADD PUSH2 0x282E JUMP JUMPDEST SWAP3 POP POP PUSH1 0x40 PUSH2 0x2AE0 DUP7 DUP3 DUP8 ADD PUSH2 0x2804 JUMP JUMPDEST SWAP2 POP POP SWAP3 POP SWAP3 POP SWAP3 JUMP JUMPDEST PUSH1 0x0 DUP1 PUSH1 0x0 PUSH1 0x60 DUP5 DUP7 SUB SLT ISZERO PUSH2 0x2B03 JUMPI PUSH2 0x2B02 PUSH2 0x3573 JUMP JUMPDEST JUMPDEST PUSH1 0x0 DUP5 ADD CALLDATALOAD PUSH8 0xFFFFFFFFFFFFFFFF DUP2 GT ISZERO PUSH2 0x2B21 JUMPI PUSH2 0x2B20 PUSH2 0x356E JUMP JUMPDEST JUMPDEST PUSH2 0x2B2D DUP7 DUP3 DUP8 ADD PUSH2 0x282E JUMP JUMPDEST SWAP4 POP POP PUSH1 0x20 DUP5 ADD CALLDATALOAD PUSH8 0xFFFFFFFFFFFFFFFF DUP2 GT ISZERO PUSH2 0x2B4E JUMPI PUSH2 0x2B4D PUSH2 0x356E JUMP JUMPDEST JUMPDEST PUSH2 0x2B5A DUP7 DUP3 DUP8 ADD PUSH2 0x282E JUMP JUMPDEST SWAP3 POP POP PUSH1 0x40 PUSH2 0x2B6B DUP7 DUP3 DUP8 ADD PUSH2 0x285C JUMP JUMPDEST SWAP2 POP POP SWAP3 POP SWAP3 POP SWAP3 JUMP JUMPDEST PUSH1 0x0 PUSH1 0x20 DUP3 DUP5 SUB SLT ISZERO PUSH2 0x2B8B JUMPI PUSH2 0x2B8A PUSH2 0x3573 JUMP JUMPDEST JUMPDEST PUSH1 0x0 PUSH2 0x2B99 DUP5 DUP3 DUP6 ADD PUSH2 0x285C JUMP JUMPDEST SWAP2 POP POP SWAP3 SWAP2 POP POP JUMP JUMPDEST PUSH2 0x2BAB DUP2 PUSH2 0x33D3 JUMP JUMPDEST DUP3 MSTORE POP POP JUMP JUMPDEST PUSH2 0x2BBA DUP2 PUSH2 0x33E5 JUMP JUMPDEST DUP3 MSTORE POP POP JUMP JUMPDEST PUSH1 0x0 PUSH2 0x2BCB DUP3 PUSH2 0x332D JUMP JUMPDEST PUSH2 0x2BD5 DUP2 DUP6 PUSH2 0x3338 JUMP JUMPDEST SWAP4 POP PUSH2 0x2BE5 DUP2 DUP6 PUSH1 0x20 DUP7 ADD PUSH2 0x3441 JUMP JUMPDEST PUSH2 0x2BEE DUP2 PUSH2 0x3578 JUMP JUMPDEST DUP5 ADD SWAP2 POP POP SWAP3 SWAP2 POP POP JUMP JUMPDEST PUSH1 0x0 PUSH2 0x2C06 PUSH1 0xF DUP4 PUSH2 0x3338 JUMP JUMPDEST SWAP2 POP PUSH2 0x2C11 DUP3 PUSH2 0x3589 JUMP JUMPDEST PUSH1 0x20 DUP3 ADD SWAP1 POP SWAP2 SWAP1 POP JUMP JUMPDEST PUSH1 0x0 PUSH2 0x2C29 PUSH1 0x5 DUP4 PUSH2 0x3338 JUMP JUMPDEST SWAP2 POP PUSH2 0x2C34 DUP3 PUSH2 0x35B2 JUMP JUMPDEST PUSH1 0x20 DUP3 ADD SWAP1 POP SWAP2 SWAP1 POP JUMP JUMPDEST PUSH1 0x0 PUSH2 0x2C4C PUSH1 0x13 DUP4 PUSH2 0x3338 JUMP JUMPDEST SWAP2 POP PUSH2 0x2C57 DUP3 PUSH2 0x35DB JUMP JUMPDEST PUSH1 0x20 DUP3 ADD SWAP1 POP SWAP2 SWAP1 POP JUMP JUMPDEST PUSH1 0x0 PUSH2 0x2C6F PUSH1 0xF DUP4 PUSH2 0x3338 JUMP JUMPDEST SWAP2 POP PUSH2 0x2C7A DUP3 PUSH2 0x3604 JUMP JUMPDEST PUSH1 0x20 DUP3 ADD SWAP1 POP SWAP2 SWAP1 POP JUMP JUMPDEST PUSH1 0x0 PUSH2 0x2C92 PUSH1 0xB DUP4 PUSH2 0x3338 JUMP JUMPDEST SWAP2 POP PUSH2 0x2C9D DUP3 PUSH2 0x362D JUMP JUMPDEST PUSH1 0x20 DUP3 ADD SWAP1 POP SWAP2 SWAP1 POP JUMP JUMPDEST PUSH1 0x0 PUSH2 0x2CB5 PUSH1 0x11 DUP4 PUSH2 0x3338 JUMP JUMPDEST SWAP2 POP PUSH2 0x2CC0 DUP3 PUSH2 0x3656 JUMP JUMPDEST PUSH1 0x20 DUP3 ADD SWAP1 POP SWAP2 SWAP1 POP JUMP JUMPDEST PUSH1 0x0 PUSH2 0x2CD8 PUSH1 0x1F DUP4 PUSH2 0x3338 JUMP JUMPDEST SWAP2 POP PUSH2 0x2CE3 DUP3 PUSH2 0x367F JUMP JUMPDEST PUSH1 0x20 DUP3 ADD SWAP1 POP SWAP2 SWAP1 POP JUMP JUMPDEST PUSH1 0x0 PUSH2 0x2CFB PUSH1 0x1B DUP4 PUSH2 0x3338 JUMP JUMPDEST SWAP2 POP PUSH2 0x2D06 DUP3 PUSH2 0x36A8 JUMP JUMPDEST PUSH1 0x20 DUP3 ADD SWAP1 POP SWAP2 SWAP1 POP JUMP JUMPDEST PUSH1 0x0 PUSH2 0x2D1E PUSH1 0x34 DUP4 PUSH2 0x3338 JUMP JUMPDEST SWAP2 POP PUSH2 0x2D29 DUP3 PUSH2 0x36D1 JUMP JUMPDEST PUSH1 0x40 DUP3 ADD SWAP1 POP SWAP2 SWAP1 POP JUMP JUMPDEST PUSH1 0x0 PUSH2 0x2D41 PUSH1 0xE DUP4 PUSH2 0x3338 JUMP JUMPDEST SWAP2 POP PUSH2 0x2D4C DUP3 PUSH2 0x3720 JUMP JUMPDEST PUSH1 0x20 DUP3 ADD SWAP1 POP SWAP2 SWAP1 POP JUMP JUMPDEST PUSH1 0x0 PUSH2 0x2D64 PUSH1 0xD DUP4 PUSH2 0x3338 JUMP JUMPDEST SWAP2 POP PUSH2 0x2D6F DUP3 PUSH2 0x3749 JUMP JUMPDEST PUSH1 0x20 DUP3 ADD SWAP1 POP SWAP2 SWAP1 POP JUMP JUMPDEST PUSH1 0x0 PUSH2 0x2D87 PUSH1 0x10 DUP4 PUSH2 0x3338 JUMP JUMPDEST SWAP2 POP PUSH2 0x2D92 DUP3 PUSH2 0x3772 JUMP JUMPDEST PUSH1 0x20 DUP3 ADD SWAP1 POP SWAP2 SWAP1 POP JUMP JUMPDEST PUSH1 0x0 PUSH2 0x2DAA PUSH1 0x38 DUP4 PUSH2 0x3338 JUMP JUMPDEST SWAP2 POP PUSH2 0x2DB5 DUP3 PUSH2 0x379B JUMP JUMPDEST PUSH1 0x40 DUP3 ADD SWAP1 POP SWAP2 SWAP1 POP JUMP JUMPDEST PUSH1 0x0 PUSH2 0x2DCD PUSH1 0x27 DUP4 PUSH2 0x3338 JUMP JUMPDEST SWAP2 POP PUSH2 0x2DD8 DUP3 PUSH2 0x37EA JUMP JUMPDEST PUSH1 0x40 DUP3 ADD SWAP1 POP SWAP2 SWAP1 POP JUMP JUMPDEST PUSH1 0x0 PUSH2 0x2DF0 PUSH1 0xF DUP4 PUSH2 0x3338 JUMP JUMPDEST SWAP2 POP PUSH2 0x2DFB DUP3 PUSH2 0x3839 JUMP JUMPDEST PUSH1 0x20 DUP3 ADD SWAP1 POP SWAP2 SWAP1 POP JUMP JUMPDEST PUSH1 0x0 PUSH2 0x2E13 PUSH1 0x11 DUP4 PUSH2 0x3338 JUMP JUMPDEST SWAP2 POP PUSH2 0x2E1E DUP3 PUSH2 0x3862 JUMP JUMPDEST PUSH1 0x20 DUP3 ADD SWAP1 POP SWAP2 SWAP1 POP JUMP JUMPDEST PUSH1 0x0 PUSH2 0x2E36 PUSH1 0x12 DUP4 PUSH2 0x3338 JUMP JUMPDEST SWAP2 POP PUSH2 0x2E41 DUP3 PUSH2 0x388B JUMP JUMPDEST PUSH1 0x20 DUP3 ADD SWAP1 POP SWAP2 SWAP1 POP JUMP JUMPDEST PUSH1 0x0 PUSH2 0x2E59 PUSH1 0xE DUP4 PUSH2 0x3338 JUMP JUMPDEST SWAP2 POP PUSH2 0x2E64 DUP3 PUSH2 0x38B4 JUMP JUMPDEST PUSH1 0x20 DUP3 ADD SWAP1 POP SWAP2 SWAP1 POP JUMP JUMPDEST PUSH1 0x0 PUSH2 0x2E7C PUSH1 0xF DUP4 PUSH2 0x3338 JUMP JUMPDEST SWAP2 POP PUSH2 0x2E87 DUP3 PUSH2 0x38DD JUMP JUMPDEST PUSH1 0x20 DUP3 ADD SWAP1 POP SWAP2 SWAP1 POP JUMP JUMPDEST PUSH1 0x0 PUSH2 0x2E9F PUSH1 0x15 DUP4 PUSH2 0x3338 JUMP JUMPDEST SWAP2 POP PUSH2 0x2EAA DUP3 PUSH2 0x3906 JUMP JUMPDEST PUSH1 0x20 DUP3 ADD SWAP1 POP SWAP2 SWAP1 POP JUMP JUMPDEST PUSH1 0x0 PUSH2 0x2EC2 PUSH1 0x1F DUP4 PUSH2 0x3338 JUMP JUMPDEST SWAP2 POP PUSH2 0x2ECD DUP3 PUSH2 0x392F JUMP JUMPDEST PUSH1 0x20 DUP3 ADD SWAP1 POP SWAP2 SWAP1 POP JUMP JUMPDEST PUSH2 0x2EE1 DUP2 PUSH2 0x341B JUMP JUMPDEST DUP3 MSTORE POP POP JUMP JUMPDEST PUSH2 0x2EF0 DUP2 PUSH2 0x3425 JUMP JUMPDEST DUP3 MSTORE POP POP JUMP JUMPDEST PUSH1 0x0 PUSH1 0x20 DUP3 ADD SWAP1 POP PUSH2 0x2F0B PUSH1 0x0 DUP4 ADD DUP5 PUSH2 0x2BA2 JUMP JUMPDEST SWAP3 SWAP2 POP POP JUMP JUMPDEST PUSH1 0x0 PUSH1 0x20 DUP3 ADD SWAP1 POP PUSH2 0x2F26 PUSH1 0x0 DUP4 ADD DUP5 PUSH2 0x2BB1 JUMP JUMPDEST SWAP3 SWAP2 POP POP JUMP JUMPDEST PUSH1 0x0 PUSH1 0x40 DUP3 ADD SWAP1 POP PUSH2 0x2F41 PUSH1 0x0 DUP4 ADD DUP6 PUSH2 0x2BB1 JUMP JUMPDEST PUSH2 0x2F4E PUSH1 0x20 DUP4 ADD DUP5 PUSH2 0x2ED8 JUMP JUMPDEST SWAP4 SWAP3 POP POP POP JUMP JUMPDEST PUSH1 0x0 PUSH1 0x20 DUP3 ADD SWAP1 POP DUP2 DUP2 SUB PUSH1 0x0 DUP4 ADD MSTORE PUSH2 0x2F6F DUP2 DUP5 PUSH2 0x2BC0 JUMP JUMPDEST SWAP1 POP SWAP3 SWAP2 POP POP JUMP JUMPDEST PUSH1 0x0 PUSH1 0x60 DUP3 ADD SWAP1 POP DUP2 DUP2 SUB PUSH1 0x0 DUP4 ADD MSTORE PUSH2 0x2F91 DUP2 DUP7 PUSH2 0x2BC0 JUMP JUMPDEST SWAP1 POP DUP2 DUP2 SUB PUSH1 0x20 DUP4 ADD MSTORE PUSH2 0x2FA5 DUP2 DUP6 PUSH2 0x2BC0 JUMP JUMPDEST SWAP1 POP PUSH2 0x2FB4 PUSH1 0x40 DUP4 ADD DUP5 PUSH2 0x2BA2 JUMP JUMPDEST SWAP5 SWAP4 POP POP POP POP JUMP JUMPDEST PUSH1 0x0 PUSH1 0x60 DUP3 ADD SWAP1 POP DUP2 DUP2 SUB PUSH1 0x0 DUP4 ADD MSTORE PUSH2 0x2FD6 DUP2 DUP7 PUSH2 0x2BC0 JUMP JUMPDEST SWAP1 POP DUP2 DUP2 SUB PUSH1 0x20 DUP4 ADD MSTORE PUSH2 0x2FEA DUP2 DUP6 PUSH2 0x2BC0 JUMP JUMPDEST SWAP1 POP PUSH2 0x2FF9 PUSH1 0x40 DUP4 ADD DUP5 PUSH2 0x2ED8 JUMP JUMPDEST SWAP5 SWAP4 POP POP POP POP JUMP JUMPDEST PUSH1 0x0 PUSH1 0x20 DUP3 ADD SWAP1 POP DUP2 DUP2 SUB PUSH1 0x0 DUP4 ADD MSTORE PUSH2 0x301A DUP2 PUSH2 0x2BF9 JUMP JUMPDEST SWAP1 POP SWAP2 SWAP1 POP JUMP JUMPDEST PUSH1 0x0 PUSH1 0x20 DUP3 ADD SWAP1 POP DUP2 DUP2 SUB PUSH1 0x0 DUP4 ADD MSTORE PUSH2 0x303A DUP2 PUSH2 0x2C1C JUMP JUMPDEST SWAP1 POP SWAP2 SWAP1 POP JUMP JUMPDEST PUSH1 0x0 PUSH1 0x20 DUP3 ADD SWAP1 POP DUP2 DUP2 SUB PUSH1 0x0 DUP4 ADD MSTORE PUSH2 0x305A DUP2 PUSH2 0x2C3F JUMP JUMPDEST SWAP1 POP SWAP2 SWAP1 POP JUMP JUMPDEST PUSH1 0x0 PUSH1 0x20 DUP3 ADD SWAP1 POP DUP2 DUP2 SUB PUSH1 0x0 DUP4 ADD MSTORE PUSH2 0x307A DUP2 PUSH2 0x2C62 JUMP JUMPDEST SWAP1 POP SWAP2 SWAP1 POP JUMP JUMPDEST PUSH1 0x0 PUSH1 0x20 DUP3 ADD SWAP1 POP DUP2 DUP2 SUB PUSH1 0x0 DUP4 ADD MSTORE PUSH2 0x309A DUP2 PUSH2 0x2C85 JUMP JUMPDEST SWAP1 POP SWAP2 SWAP1 POP JUMP JUMPDEST PUSH1 0x0 PUSH1 0x20 DUP3 ADD SWAP1 POP DUP2 DUP2 SUB PUSH1 0x0 DUP4 ADD MSTORE PUSH2 0x30BA DUP2 PUSH2 0x2CA8 JUMP JUMPDEST SWAP1 POP SWAP2 SWAP1 POP JUMP JUMPDEST PUSH1 0x0 PUSH1 0x20 DUP3 ADD SWAP1 POP DUP2 DUP2 SUB PUSH1 0x0 DUP4 ADD MSTORE PUSH2 0x30DA DUP2 PUSH2 0x2CCB JUMP JUMPDEST SWAP1 POP SWAP2 SWAP1 POP JUMP JUMPDEST PUSH1 0x0 PUSH1 0x20 DUP3 ADD SWAP1 POP DUP2 DUP2 SUB PUSH1 0x0 DUP4 ADD MSTORE PUSH2 0x30FA DUP2 PUSH2 0x2CEE JUMP JUMPDEST SWAP1 POP SWAP2 SWAP1 POP JUMP JUMPDEST PUSH1 0x0 PUSH1 0x20 DUP3 ADD SWAP1 POP DUP2 DUP2 SUB PUSH1 0x0 DUP4 ADD MSTORE PUSH2 0x311A DUP2 PUSH2 0x2D11 JUMP JUMPDEST SWAP1 POP SWAP2 SWAP1 POP JUMP JUMPDEST PUSH1 0x0 PUSH1 0x20 DUP3 ADD SWAP1 POP DUP2 DUP2 SUB PUSH1 0x0 DUP4 ADD MSTORE PUSH2 0x313A DUP2 PUSH2 0x2D34 JUMP JUMPDEST SWAP1 POP SWAP2 SWAP1 POP JUMP JUMPDEST PUSH1 0x0 PUSH1 0x20 DUP3 ADD SWAP1 POP DUP2 DUP2 SUB PUSH1 0x0 DUP4 ADD MSTORE PUSH2 0x315A DUP2 PUSH2 0x2D57 JUMP JUMPDEST SWAP1 POP SWAP2 SWAP1 POP JUMP JUMPDEST PUSH1 0x0 PUSH1 0x20 DUP3 ADD SWAP1 POP DUP2 DUP2 SUB PUSH1 0x0 DUP4 ADD MSTORE PUSH2 0x317A DUP2 PUSH2 0x2D7A JUMP JUMPDEST SWAP1 POP SWAP2 SWAP1 POP JUMP JUMPDEST PUSH1 0x0 PUSH1 0x20 DUP3 ADD SWAP1 POP DUP2 DUP2 SUB PUSH1 0x0 DUP4 ADD MSTORE PUSH2 0x319A DUP2 PUSH2 0x2D9D JUMP JUMPDEST SWAP1 POP SWAP2 SWAP1 POP JUMP JUMPDEST PUSH1 0x0 PUSH1 0x20 DUP3 ADD SWAP1 POP DUP2 DUP2 SUB PUSH1 0x0 DUP4 ADD MSTORE PUSH2 0x31BA DUP2 PUSH2 0x2DC0 JUMP JUMPDEST SWAP1 POP SWAP2 SWAP1 POP JUMP JUMPDEST PUSH1 0x0 PUSH1 0x20 DUP3 ADD SWAP1 POP DUP2 DUP2 SUB PUSH1 0x0 DUP4 ADD MSTORE PUSH2 0x31DA DUP2 PUSH2 0x2DE3 JUMP JUMPDEST SWAP1 POP SWAP2 SWAP1 POP JUMP JUMPDEST PUSH1 0x0 PUSH1 0x20 DUP3 ADD SWAP1 POP DUP2 DUP2 SUB PUSH1 0x0 DUP4 ADD MSTORE PUSH2 0x31FA DUP2 PUSH2 0x2E06 JUMP JUMPDEST SWAP1 POP SWAP2 SWAP1 POP JUMP JUMPDEST PUSH1 0x0 PUSH1 0x20 DUP3 ADD SWAP1 POP DUP2 DUP2 SUB PUSH1 0x0 DUP4 ADD MSTORE PUSH2 0x321A DUP2 PUSH2 0x2E29 JUMP JUMPDEST SWAP1 POP SWAP2 SWAP1 POP JUMP JUMPDEST PUSH1 0x0 PUSH1 0x20 DUP3 ADD SWAP1 POP DUP2 DUP2 SUB PUSH1 0x0 DUP4 ADD MSTORE PUSH2 0x323A DUP2 PUSH2 0x2E4C JUMP JUMPDEST SWAP1 POP SWAP2 SWAP1 POP JUMP JUMPDEST PUSH1 0x0 PUSH1 0x20 DUP3 ADD SWAP1 POP DUP2 DUP2 SUB PUSH1 0x0 DUP4 ADD MSTORE PUSH2 0x325A DUP2 PUSH2 0x2E6F JUMP JUMPDEST SWAP1 POP SWAP2 SWAP1 POP JUMP JUMPDEST PUSH1 0x0 PUSH1 0x20 DUP3 ADD SWAP1 POP DUP2 DUP2 SUB PUSH1 0x0 DUP4 ADD MSTORE PUSH2 0x327A DUP2 PUSH2 0x2E92 JUMP JUMPDEST SWAP1 POP SWAP2 SWAP1 POP JUMP JUMPDEST PUSH1 0x0 PUSH1 0x20 DUP3 ADD SWAP1 POP DUP2 DUP2 SUB PUSH1 0x0 DUP4 ADD MSTORE PUSH2 0x329A DUP2 PUSH2 0x2EB5 JUMP JUMPDEST SWAP1 POP SWAP2 SWAP1 POP JUMP JUMPDEST PUSH1 0x0 PUSH1 0x20 DUP3 ADD SWAP1 POP PUSH2 0x32B6 PUSH1 0x0 DUP4 ADD DUP5 PUSH2 0x2ED8 JUMP JUMPDEST SWAP3 SWAP2 POP POP JUMP JUMPDEST PUSH1 0x0 PUSH1 0x20 DUP3 ADD SWAP1 POP PUSH2 0x32D1 PUSH1 0x0 DUP4 ADD DUP5 PUSH2 0x2EE7 JUMP JUMPDEST SWAP3 SWAP2 POP POP JUMP JUMPDEST PUSH1 0x0 PUSH2 0x32E1 PUSH2 0x32F2 JUMP JUMPDEST SWAP1 POP PUSH2 0x32ED DUP3 DUP3 PUSH2 0x34A6 JUMP JUMPDEST SWAP2 SWAP1 POP JUMP JUMPDEST PUSH1 0x0 PUSH1 0x40 MLOAD SWAP1 POP SWAP1 JUMP JUMPDEST PUSH1 0x0 PUSH8 0xFFFFFFFFFFFFFFFF DUP3 GT ISZERO PUSH2 0x3317 JUMPI PUSH2 0x3316 PUSH2 0x3535 JUMP JUMPDEST JUMPDEST PUSH2 0x3320 DUP3 PUSH2 0x3578 JUMP JUMPDEST SWAP1 POP PUSH1 0x20 DUP2 ADD SWAP1 POP SWAP2 SWAP1 POP JUMP JUMPDEST PUSH1 0x0 DUP2 MLOAD SWAP1 POP SWAP2 SWAP1 POP JUMP JUMPDEST PUSH1 0x0 DUP3 DUP3 MSTORE PUSH1 0x20 DUP3 ADD SWAP1 POP SWAP3 SWAP2 POP POP JUMP JUMPDEST PUSH1 0x0 PUSH2 0x3354 DUP3 PUSH2 0x341B JUMP JUMPDEST SWAP2 POP PUSH2 0x335F DUP4 PUSH2 0x341B JUMP JUMPDEST SWAP3 POP DUP3 PUSH32 0xFFFFFFFFFFFFFFFFFFFFFFFFFFFFFFFFFFFFFFFFFFFFFFFFFFFFFFFFFFFFFFFF SUB DUP3 GT ISZERO PUSH2 0x3394 JUMPI PUSH2 0x3393 PUSH2 0x34D7 JUMP JUMPDEST JUMPDEST DUP3 DUP3 ADD SWAP1 POP SWAP3 SWAP2 POP POP JUMP JUMPDEST PUSH1 0x0 PUSH2 0x33AA DUP3 PUSH2 0x341B JUMP JUMPDEST SWAP2 POP PUSH2 0x33B5 DUP4 PUSH2 0x341B JUMP JUMPDEST SWAP3 POP DUP3 DUP3 LT ISZERO PUSH2 0x33C8 JUMPI PUSH2 0x33C7 PUSH2 0x34D7 JUMP JUMPDEST JUMPDEST DUP3 DUP3 SUB SWAP1 POP SWAP3 SWAP2 POP POP JUMP JUMPDEST PUSH1 0x0 PUSH2 0x33DE DUP3 PUSH2 0x33FB JUMP JUMPDEST SWAP1 POP SWAP2 SWAP1 POP JUMP JUMPDEST PUSH1 0x0 DUP2 ISZERO ISZERO SWAP1 POP SWAP2 SWAP1 POP JUMP JUMPDEST PUSH1 0x0 DUP2 SWAP1 POP SWAP2 SWAP1 POP JUMP JUMPDEST PUSH1 0x0 PUSH20 0xFFFFFFFFFFFFFFFFFFFFFFFFFFFFFFFFFFFFFFFF DUP3 AND SWAP1 POP SWAP2 SWAP1 POP JUMP JUMPDEST PUSH1 0x0 DUP2 SWAP1 POP SWAP2 SWAP1 POP JUMP JUMPDEST PUSH1 0x0 PUSH1 0xFF DUP3 AND SWAP1 POP SWAP2 SWAP1 POP JUMP JUMPDEST DUP3 DUP2 DUP4 CALLDATACOPY PUSH1 0x0 DUP4 DUP4 ADD MSTORE POP POP POP JUMP JUMPDEST PUSH1 0x0 JUMPDEST DUP4 DUP2 LT ISZERO PUSH2 0x345F JUMPI DUP1 DUP3 ADD MLOAD DUP2 DUP5 ADD MSTORE PUSH1 0x20 DUP2 ADD SWAP1 POP PUSH2 0x3444 JUMP JUMPDEST DUP4 DUP2 GT ISZERO PUSH2 0x346E JUMPI PUSH1 0x0 DUP5 DUP5 ADD MSTORE JUMPDEST POP POP POP POP JUMP JUMPDEST PUSH1 0x0 PUSH1 0x2 DUP3 DIV SWAP1 POP PUSH1 0x1 DUP3 AND DUP1 PUSH2 0x348C JUMPI PUSH1 0x7F DUP3 AND SWAP2 POP JUMPDEST PUSH1 0x20 DUP3 LT DUP2 EQ ISZERO PUSH2 0x34A0 JUMPI PUSH2 0x349F PUSH2 0x3506 JUMP JUMPDEST JUMPDEST POP SWAP2 SWAP1 POP JUMP JUMPDEST PUSH2 0x34AF DUP3 PUSH2 0x3578 JUMP JUMPDEST DUP2 ADD DUP2 DUP2 LT PUSH8 0xFFFFFFFFFFFFFFFF DUP3 GT OR ISZERO PUSH2 0x34CE JUMPI PUSH2 0x34CD PUSH2 0x3535 JUMP JUMPDEST JUMPDEST DUP1 PUSH1 0x40 MSTORE POP POP POP JUMP JUMPDEST PUSH32 0x4E487B7100000000000000000000000000000000000000000000000000000000 PUSH1 0x0 MSTORE PUSH1 0x11 PUSH1 0x4 MSTORE PUSH1 0x24 PUSH1 0x0 REVERT JUMPDEST PUSH32 0x4E487B7100000000000000000000000000000000000000000000000000000000 PUSH1 0x0 MSTORE PUSH1 0x22 PUSH1 0x4 MSTORE PUSH1 0x24 PUSH1 0x0 REVERT JUMPDEST PUSH32 0x4E487B7100000000000000000000000000000000000000000000000000000000 PUSH1 0x0 MSTORE PUSH1 0x41 PUSH1 0x4 MSTORE PUSH1 0x24 PUSH1 0x0 REVERT JUMPDEST PUSH1 0x0 DUP1 REVERT JUMPDEST PUSH1 0x0 DUP1 REVERT JUMPDEST PUSH1 0x0 DUP1 REVERT JUMPDEST PUSH1 0x0 DUP1 REVERT JUMPDEST PUSH1 0x0 PUSH1 0x1F NOT PUSH1 0x1F DUP4 ADD AND SWAP1 POP SWAP2 SWAP1 POP JUMP JUMPDEST PUSH32 0x494E56414C49445F5350454E4445520000000000000000000000000000000000 PUSH1 0x0 DUP3 ADD MSTORE POP JUMP JUMPDEST PUSH32 0x6F776E6572000000000000000000000000000000000000000000000000000000 PUSH1 0x0 DUP3 ADD MSTORE POP JUMP JUMPDEST PUSH32 0x6F766572206D6178546F74616C537570706C7900000000000000000000000000 PUSH1 0x0 DUP3 ADD MSTORE POP JUMP JUMPDEST PUSH32 0x494E56414C49445F414444524553530000000000000000000000000000000000 PUSH1 0x0 DUP3 ADD MSTORE POP JUMP JUMPDEST PUSH32 0x6275726E4D616368696E65000000000000000000000000000000000000000000 PUSH1 0x0 DUP3 ADD MSTORE POP JUMP JUMPDEST PUSH32 0x7472616E736665724F776E657273686970000000000000000000000000000000 PUSH1 0x0 DUP3 ADD MSTORE POP JUMP JUMPDEST PUSH32 0x5472616E73616374696F6E206861736E2774206265656E207175657565642E00 PUSH1 0x0 DUP3 ADD MSTORE POP JUMP JUMPDEST PUSH32 0x536166654D6174683A206164646974696F6E206F766572666C6F770000000000 PUSH1 0x0 DUP3 ADD MSTORE POP JUMP JUMPDEST PUSH32 0x54696D656C6F636B3A3A73657444656C61793A2044656C6179206D7573742065 PUSH1 0x0 DUP3 ADD MSTORE PUSH32 0x7863656564206D696E696D756D2064656C61792E000000000000000000000000 PUSH1 0x20 DUP3 ADD MSTORE POP JUMP JUMPDEST PUSH32 0x7365744275726E4D616368696E65000000000000000000000000000000000000 PUSH1 0x0 DUP3 ADD MSTORE POP JUMP JUMPDEST PUSH32 0x6D696E696E674D616368696E6500000000000000000000000000000000000000 PUSH1 0x0 DUP3 ADD MSTORE POP JUMP JUMPDEST PUSH32 0x7365744D696E696E674D616368696E6500000000000000000000000000000000 PUSH1 0x0 DUP3 ADD MSTORE POP JUMP JUMPDEST PUSH32 0x54696D656C6F636B3A3A73657444656C61793A2044656C6179206D757374206E PUSH1 0x0 DUP3 ADD MSTORE PUSH32 0x6F7420657863656564206D6178696D756D2064656C61792E0000000000000000 PUSH1 0x20 DUP3 ADD MSTORE POP JUMP JUMPDEST PUSH32 0x5472616E73616374696F6E206861736E2774207375727061737365642074696D PUSH1 0x0 DUP3 ADD MSTORE PUSH32 0x65206C6F636B2E00000000000000000000000000000000000000000000000000 PUSH1 0x20 DUP3 ADD MSTORE POP JUMP JUMPDEST PUSH32 0x5F6D6178546F74616C537570706C790000000000000000000000000000000000 PUSH1 0x0 DUP3 ADD MSTORE POP JUMP JUMPDEST PUSH32 0x7365744D6178546F74616C537570706C79000000000000000000000000000000 PUSH1 0x0 DUP3 ADD MSTORE POP JUMP JUMPDEST PUSH32 0x494E56414C49445F5045524D495353494F4E0000000000000000000000000000 PUSH1 0x0 DUP3 ADD MSTORE POP JUMP JUMPDEST PUSH32 0x494E56414C49445F414D4F554E54000000000000000000000000000000000000 PUSH1 0x0 DUP3 ADD MSTORE POP JUMP JUMPDEST PUSH32 0x494E56414C49445F42414C414E43450000000000000000000000000000000000 PUSH1 0x0 DUP3 ADD MSTORE POP JUMP JUMPDEST PUSH32 0x5472616E73616374696F6E206973207374616C652E0000000000000000000000 PUSH1 0x0 DUP3 ADD MSTORE POP JUMP JUMPDEST PUSH32 0x45524332303A206D696E7420746F20746865207A65726F206164647265737300 PUSH1 0x0 DUP3 ADD MSTORE POP JUMP JUMPDEST PUSH2 0x3961 DUP2 PUSH2 0x33D3 JUMP JUMPDEST DUP2 EQ PUSH2 0x396C JUMPI PUSH1 0x0 DUP1 REVERT JUMPDEST POP JUMP JUMPDEST PUSH2 0x3978 DUP2 PUSH2 0x33F1 JUMP JUMPDEST DUP2 EQ PUSH2 0x3983 JUMPI PUSH1 0x0 DUP1 REVERT JUMPDEST POP JUMP JUMPDEST PUSH2 0x398F DUP2 PUSH2 0x341B JUMP JUMPDEST DUP2 EQ PUSH2 0x399A JUMPI PUSH1 0x0 DUP1 REVERT JUMPDEST POP JUMP INVALID LOG2 PUSH5 0x6970667358 0x22 SLT KECCAK256 0xEC PUSH9 0xB74814D9EAD7D7DFD4 DUP13 0x5E 0xAA 0x24 LOG4 0xCD 0xED 0x2B 0x21 BLOCKHASH 0x23 0xA5 LOG4 0xF SELFBALANCE 0xC7 0xC5 0xD4 ORIGIN DUP6 EXTCODEHASH PUSH5 0x736F6C6343 STOP ADDMOD SMOD STOP CALLER "
				},
				"gasEstimates": {
					"creation": {
						"codeDepositCost": "2960600",
						"executionCost": "infinite",
						"totalCost": "infinite"
					},
					"external": {
						"GRACE_PERIOD()": "395",
						"MAXIMUM_DELAY()": "396",
						"MINIMUM_DELAY()": "418",
						"allowance(address,address)": "infinite",
						"approve(address,uint256)": "infinite",
						"balanceOf(address)": "2953",
						"burn(address,uint256)": "infinite",
						"burnMachine()": "2625",
						"cancelTransactions(string)": "infinite",
						"decimals()": "2583",
						"delay()": "2497",
						"getAddressChangeOnTimeLock(string,string)": "infinite",
						"getOwner()": "2633",
						"getUintChangeOnTimeLock(string,string)": "infinite",
						"maxTotalSupply()": "2527",
						"miningMachine()": "2675",
						"mint(address,uint256)": "infinite",
						"name()": "infinite",
						"owner()": "2579",
						"queuedTransactionsChangeAddress(string,string,address)": "infinite",
						"queuedTransactionsChangeUint(string,string,uint256)": "infinite",
						"setBurnMachine()": "infinite",
						"setDelay(uint256)": "24849",
						"setMaxTotalSupply()": "infinite",
						"setMiningMachine()": "infinite",
						"symbol()": "infinite",
						"timeLockOf(bytes32)": "5123",
						"totalSupply()": "2483",
						"transfer(address,uint256)": "infinite",
						"transferFrom(address,address,uint256)": "infinite",
						"transferOwnership()": "infinite"
					},
					"internal": {
						"_validateTimelock(struct GRB.TimeLock storage pointer)": "infinite"
					}
				},
				"methodIdentifiers": {
					"GRACE_PERIOD()": "c1a287e2",
					"MAXIMUM_DELAY()": "7d645fab",
					"MINIMUM_DELAY()": "b1b43ae5",
					"allowance(address,address)": "dd62ed3e",
					"approve(address,uint256)": "095ea7b3",
					"balanceOf(address)": "70a08231",
					"burn(address,uint256)": "9dc29fac",
					"burnMachine()": "a41e9c90",
					"cancelTransactions(string)": "8cac8f03",
					"decimals()": "313ce567",
					"delay()": "6a42b8f8",
					"getAddressChangeOnTimeLock(string,string)": "bd0c5a9d",
					"getOwner()": "893d20e8",
					"getUintChangeOnTimeLock(string,string)": "72596873",
					"maxTotalSupply()": "2ab4d052",
					"miningMachine()": "bce645db",
					"mint(address,uint256)": "40c10f19",
					"name()": "06fdde03",
					"owner()": "8da5cb5b",
					"queuedTransactionsChangeAddress(string,string,address)": "14ca81ed",
					"queuedTransactionsChangeUint(string,string,uint256)": "9312dc5f",
					"setBurnMachine()": "a7667957",
					"setDelay(uint256)": "e177246e",
					"setMaxTotalSupply()": "8e0b0db5",
					"setMiningMachine()": "8ecc676f",
					"symbol()": "95d89b41",
					"timeLockOf(bytes32)": "6edc28fd",
					"totalSupply()": "18160ddd",
					"transfer(address,uint256)": "a9059cbb",
					"transferFrom(address,address,uint256)": "23b872dd",
					"transferOwnership()": "880ad0af"
				}
			},
			"storageLayout": {
				"storage": [
					{
						"astId": 300,
						"contract": "contracts/GRB.sol:GRB",
						"label": "owner",
						"offset": 0,
						"slot": "0",
						"type": "t_address"
					},
					{
						"astId": 305,
						"contract": "contracts/GRB.sol:GRB",
						"label": "timeLockOf",
						"offset": 0,
						"slot": "1",
						"type": "t_mapping(t_bytes32,t_struct(TimeLock)362_storage)"
					},
					{
						"astId": 309,
						"contract": "contracts/GRB.sol:GRB",
						"label": "_balances",
						"offset": 0,
						"slot": "2",
						"type": "t_mapping(t_address,t_uint256)"
					},
					{
						"astId": 315,
						"contract": "contracts/GRB.sol:GRB",
						"label": "_allowances",
						"offset": 0,
						"slot": "3",
						"type": "t_mapping(t_address,t_mapping(t_address,t_uint256))"
					},
					{
						"astId": 317,
						"contract": "contracts/GRB.sol:GRB",
						"label": "_totalSupply",
						"offset": 0,
						"slot": "4",
						"type": "t_uint256"
					},
					{
						"astId": 322,
						"contract": "contracts/GRB.sol:GRB",
						"label": "_maxTotalSupply",
						"offset": 0,
						"slot": "5",
						"type": "t_uint256"
					},
					{
						"astId": 326,
						"contract": "contracts/GRB.sol:GRB",
						"label": "name",
						"offset": 0,
						"slot": "6",
						"type": "t_string_storage"
					},
					{
						"astId": 330,
						"contract": "contracts/GRB.sol:GRB",
						"label": "symbol",
						"offset": 0,
						"slot": "7",
						"type": "t_string_storage"
					},
					{
						"astId": 334,
						"contract": "contracts/GRB.sol:GRB",
						"label": "decimals",
						"offset": 0,
						"slot": "8",
						"type": "t_uint8"
					},
					{
						"astId": 336,
						"contract": "contracts/GRB.sol:GRB",
						"label": "miningMachine",
						"offset": 1,
						"slot": "8",
						"type": "t_address"
					},
					{
						"astId": 338,
						"contract": "contracts/GRB.sol:GRB",
						"label": "burnMachine",
						"offset": 0,
						"slot": "9",
						"type": "t_address"
					},
					{
						"astId": 349,
						"contract": "contracts/GRB.sol:GRB",
						"label": "delay",
						"offset": 0,
						"slot": "10",
						"type": "t_uint256"
					}
				],
				"types": {
					"t_address": {
						"encoding": "inplace",
						"label": "address",
						"numberOfBytes": "20"
					},
					"t_bool": {
						"encoding": "inplace",
						"label": "bool",
						"numberOfBytes": "1"
					},
					"t_bytes32": {
						"encoding": "inplace",
						"label": "bytes32",
						"numberOfBytes": "32"
					},
					"t_mapping(t_address,t_mapping(t_address,t_uint256))": {
						"encoding": "mapping",
						"key": "t_address",
						"label": "mapping(address => mapping(address => uint256))",
						"numberOfBytes": "32",
						"value": "t_mapping(t_address,t_uint256)"
					},
					"t_mapping(t_address,t_uint256)": {
						"encoding": "mapping",
						"key": "t_address",
						"label": "mapping(address => uint256)",
						"numberOfBytes": "32",
						"value": "t_uint256"
					},
					"t_mapping(t_bytes32,t_address)": {
						"encoding": "mapping",
						"key": "t_bytes32",
						"label": "mapping(bytes32 => address)",
						"numberOfBytes": "32",
						"value": "t_address"
					},
					"t_mapping(t_bytes32,t_struct(TimeLock)362_storage)": {
						"encoding": "mapping",
						"key": "t_bytes32",
						"label": "mapping(bytes32 => struct GRB.TimeLock)",
						"numberOfBytes": "32",
						"value": "t_struct(TimeLock)362_storage"
					},
					"t_mapping(t_bytes32,t_uint256)": {
						"encoding": "mapping",
						"key": "t_bytes32",
						"label": "mapping(bytes32 => uint256)",
						"numberOfBytes": "32",
						"value": "t_uint256"
					},
					"t_string_storage": {
						"encoding": "bytes",
						"label": "string",
						"numberOfBytes": "32"
					},
					"t_struct(TimeLock)362_storage": {
						"encoding": "inplace",
						"label": "struct GRB.TimeLock",
						"members": [
							{
								"astId": 351,
								"contract": "contracts/GRB.sol:GRB",
								"label": "queuedTransactions",
								"offset": 0,
								"slot": "0",
								"type": "t_bool"
							},
							{
								"astId": 353,
								"contract": "contracts/GRB.sol:GRB",
								"label": "timeOfExecute",
								"offset": 0,
								"slot": "1",
								"type": "t_uint256"
							},
							{
								"astId": 357,
								"contract": "contracts/GRB.sol:GRB",
								"label": "addressOf",
								"offset": 0,
								"slot": "2",
								"type": "t_mapping(t_bytes32,t_address)"
							},
							{
								"astId": 361,
								"contract": "contracts/GRB.sol:GRB",
								"label": "uintOf",
								"offset": 0,
								"slot": "3",
								"type": "t_mapping(t_bytes32,t_uint256)"
							}
						],
						"numberOfBytes": "128"
					},
					"t_uint256": {
						"encoding": "inplace",
						"label": "uint256",
						"numberOfBytes": "32"
					},
					"t_uint8": {
						"encoding": "inplace",
						"label": "uint8",
						"numberOfBytes": "1"
					}
				}
			},
			"userdoc": {
				"kind": "user",
				"methods": {},
				"version": 1
			}
		}
	}
}