{
	"contracts/GRB.sol": {
		"GRP": {
			"abi": [
				{
					"inputs": [
						{
							"internalType": "uint256",
							"name": "_maxSupply",
							"type": "uint256"
						},
						{
							"internalType": "uint256",
							"name": "_initialSupply",
							"type": "uint256"
						}
					],
					"stateMutability": "nonpayable",
					"type": "constructor"
				},
				{
					"anonymous": false,
					"inputs": [
						{
							"indexed": true,
							"internalType": "address",
							"name": "owner",
							"type": "address"
						},
						{
							"indexed": true,
							"internalType": "address",
							"name": "spender",
							"type": "address"
						},
						{
							"indexed": false,
							"internalType": "uint256",
							"name": "value",
							"type": "uint256"
						}
					],
					"name": "Approval",
					"type": "event"
				},
				{
					"anonymous": false,
					"inputs": [
						{
							"indexed": true,
							"internalType": "address",
							"name": "_user",
							"type": "address"
						},
						{
							"indexed": true,
							"internalType": "address",
							"name": "_account",
							"type": "address"
						}
					],
					"name": "MinterRoleAssigned",
					"type": "event"
				},
				{
					"anonymous": false,
					"inputs": [
						{
							"indexed": true,
							"internalType": "address",
							"name": "_user",
							"type": "address"
						},
						{
							"indexed": true,
							"internalType": "address",
							"name": "_account",
							"type": "address"
						}
					],
					"name": "MinterRoleRevoked",
					"type": "event"
				},
				{
					"anonymous": false,
					"inputs": [
						{
							"indexed": true,
							"internalType": "address",
							"name": "previousOwner",
							"type": "address"
						},
						{
							"indexed": true,
							"internalType": "address",
							"name": "newOwner",
							"type": "address"
						}
					],
					"name": "OwnershipTransferred",
					"type": "event"
				},
				{
					"anonymous": false,
					"inputs": [
						{
							"indexed": true,
							"internalType": "address",
							"name": "from",
							"type": "address"
						},
						{
							"indexed": true,
							"internalType": "address",
							"name": "to",
							"type": "address"
						},
						{
							"indexed": false,
							"internalType": "uint256",
							"name": "value",
							"type": "uint256"
						}
					],
					"name": "Transfer",
					"type": "event"
				},
				{
					"inputs": [],
					"name": "MAX_SUPPLY",
					"outputs": [
						{
							"internalType": "uint256",
							"name": "",
							"type": "uint256"
						}
					],
					"stateMutability": "view",
					"type": "function"
				},
				{
					"inputs": [
						{
							"internalType": "address",
							"name": "owner",
							"type": "address"
						},
						{
							"internalType": "address",
							"name": "spender",
							"type": "address"
						}
					],
					"name": "allowance",
					"outputs": [
						{
							"internalType": "uint256",
							"name": "",
							"type": "uint256"
						}
					],
					"stateMutability": "view",
					"type": "function"
				},
				{
					"inputs": [
						{
							"internalType": "address",
							"name": "spender",
							"type": "address"
						},
						{
							"internalType": "uint256",
							"name": "amount",
							"type": "uint256"
						}
					],
					"name": "approve",
					"outputs": [
						{
							"internalType": "bool",
							"name": "",
							"type": "bool"
						}
					],
					"stateMutability": "nonpayable",
					"type": "function"
				},
				{
					"inputs": [
						{
							"internalType": "address",
							"name": "_account",
							"type": "address"
						}
					],
					"name": "assignMinterRole",
					"outputs": [],
					"stateMutability": "nonpayable",
					"type": "function"
				},
				{
					"inputs": [
						{
							"internalType": "address",
							"name": "account",
							"type": "address"
						}
					],
					"name": "balanceOf",
					"outputs": [
						{
							"internalType": "uint256",
							"name": "",
							"type": "uint256"
						}
					],
					"stateMutability": "view",
					"type": "function"
				},
				{
					"inputs": [
						{
							"internalType": "uint256",
							"name": "amount",
							"type": "uint256"
						}
					],
					"name": "burn",
					"outputs": [],
					"stateMutability": "nonpayable",
					"type": "function"
				},
				{
					"inputs": [
						{
							"internalType": "address",
							"name": "account",
							"type": "address"
						},
						{
							"internalType": "uint256",
							"name": "amount",
							"type": "uint256"
						}
					],
					"name": "burnFrom",
					"outputs": [],
					"stateMutability": "nonpayable",
					"type": "function"
				},
				{
					"inputs": [],
					"name": "decimals",
					"outputs": [
						{
							"internalType": "uint8",
							"name": "",
							"type": "uint8"
						}
					],
					"stateMutability": "view",
					"type": "function"
				},
				{
					"inputs": [
						{
							"internalType": "address",
							"name": "spender",
							"type": "address"
						},
						{
							"internalType": "uint256",
							"name": "subtractedValue",
							"type": "uint256"
						}
					],
					"name": "decreaseAllowance",
					"outputs": [
						{
							"internalType": "bool",
							"name": "",
							"type": "bool"
						}
					],
					"stateMutability": "nonpayable",
					"type": "function"
				},
				{
					"inputs": [
						{
							"internalType": "address",
							"name": "spender",
							"type": "address"
						},
						{
							"internalType": "uint256",
							"name": "addedValue",
							"type": "uint256"
						}
					],
					"name": "increaseAllowance",
					"outputs": [
						{
							"internalType": "bool",
							"name": "",
							"type": "bool"
						}
					],
					"stateMutability": "nonpayable",
					"type": "function"
				},
				{
					"inputs": [
						{
							"internalType": "address",
							"name": "",
							"type": "address"
						}
					],
					"name": "isMinter",
					"outputs": [
						{
							"internalType": "bool",
							"name": "",
							"type": "bool"
						}
					],
					"stateMutability": "view",
					"type": "function"
				},
				{
					"inputs": [
						{
							"internalType": "address",
							"name": "_user",
							"type": "address"
						},
						{
							"internalType": "uint256",
							"name": "_amount",
							"type": "uint256"
						}
					],
					"name": "mint",
					"outputs": [],
					"stateMutability": "nonpayable",
					"type": "function"
				},
				{
					"inputs": [],
					"name": "name",
					"outputs": [
						{
							"internalType": "string",
							"name": "",
							"type": "string"
						}
					],
					"stateMutability": "view",
					"type": "function"
				},
				{
					"inputs": [],
					"name": "owner",
					"outputs": [
						{
							"internalType": "address",
							"name": "",
							"type": "address"
						}
					],
					"stateMutability": "view",
					"type": "function"
				},
				{
					"inputs": [],
					"name": "renounceOwnership",
					"outputs": [],
					"stateMutability": "nonpayable",
					"type": "function"
				},
				{
					"inputs": [
						{
							"internalType": "address",
							"name": "_account",
							"type": "address"
						}
					],
					"name": "revokeMinterRole",
					"outputs": [],
					"stateMutability": "nonpayable",
					"type": "function"
				},
				{
					"inputs": [],
					"name": "symbol",
					"outputs": [
						{
							"internalType": "string",
							"name": "",
							"type": "string"
						}
					],
					"stateMutability": "view",
					"type": "function"
				},
				{
					"inputs": [],
					"name": "totalBurned",
					"outputs": [
						{
							"internalType": "uint256",
							"name": "",
							"type": "uint256"
						}
					],
					"stateMutability": "view",
					"type": "function"
				},
				{
					"inputs": [],
					"name": "totalSupply",
					"outputs": [
						{
							"internalType": "uint256",
							"name": "",
							"type": "uint256"
						}
					],
					"stateMutability": "view",
					"type": "function"
				},
				{
					"inputs": [
						{
							"internalType": "address",
							"name": "recipient",
							"type": "address"
						},
						{
							"internalType": "uint256",
							"name": "amount",
							"type": "uint256"
						}
					],
					"name": "transfer",
					"outputs": [
						{
							"internalType": "bool",
							"name": "",
							"type": "bool"
						}
					],
					"stateMutability": "nonpayable",
					"type": "function"
				},
				{
					"inputs": [
						{
							"internalType": "address",
							"name": "sender",
							"type": "address"
						},
						{
							"internalType": "address",
							"name": "recipient",
							"type": "address"
						},
						{
							"internalType": "uint256",
							"name": "amount",
							"type": "uint256"
						}
					],
					"name": "transferFrom",
					"outputs": [
						{
							"internalType": "bool",
							"name": "",
							"type": "bool"
						}
					],
					"stateMutability": "nonpayable",
					"type": "function"
				},
				{
					"inputs": [
						{
							"internalType": "address",
							"name": "newOwner",
							"type": "address"
						}
					],
					"name": "transferOwnership",
					"outputs": [],
					"stateMutability": "nonpayable",
					"type": "function"
				}
			],
			"devdoc": {
				"kind": "dev",
				"methods": {
					"allowance(address,address)": {
						"details": "See {IERC20-allowance}."
					},
					"approve(address,uint256)": {
						"details": "See {IERC20-approve}. Requirements: - `spender` cannot be the zero address."
					},
					"balanceOf(address)": {
						"details": "See {IERC20-balanceOf}."
					},
					"burn(uint256)": {
						"details": "Destroys `amount` tokens from the caller. See {ERC20-_burn}."
					},
					"burnFrom(address,uint256)": {
						"details": "Destroys `amount` tokens from `account`, deducting from the caller's allowance. See {ERC20-_burn} and {ERC20-allowance}. Requirements: - the caller must have allowance for ``accounts``'s tokens of at least `amount`."
					},
					"decimals()": {
						"details": "Returns the number of decimals used to get its user representation. For example, if `decimals` equals `2`, a balance of `505` tokens should be displayed to a user as `5,05` (`505 / 10 ** 2`). Tokens usually opt for a value of 18, imitating the relationship between Ether and Wei. This is the value {ERC20} uses, unless {_setupDecimals} is called. NOTE: This information is only used for _display_ purposes: it in no way affects any of the arithmetic of the contract, including {IERC20-balanceOf} and {IERC20-transfer}."
					},
					"decreaseAllowance(address,uint256)": {
						"details": "Atomically decreases the allowance granted to `spender` by the caller. This is an alternative to {approve} that can be used as a mitigation for problems described in {IERC20-approve}. Emits an {Approval} event indicating the updated allowance. Requirements: - `spender` cannot be the zero address. - `spender` must have allowance for the caller of at least `subtractedValue`."
					},
					"increaseAllowance(address,uint256)": {
						"details": "Atomically increases the allowance granted to `spender` by the caller. This is an alternative to {approve} that can be used as a mitigation for problems described in {IERC20-approve}. Emits an {Approval} event indicating the updated allowance. Requirements: - `spender` cannot be the zero address."
					},
					"name()": {
						"details": "Returns the name of the token."
					},
					"owner()": {
						"details": "Returns the address of the current owner."
					},
					"renounceOwnership()": {
						"details": "Leaves the contract without owner. It will not be possible to call `onlyOwner` functions anymore. Can only be called by the current owner. NOTE: Renouncing ownership will leave the contract without an owner, thereby removing any functionality that is only available to the owner."
					},
					"symbol()": {
						"details": "Returns the symbol of the token, usually a shorter version of the name."
					},
					"totalSupply()": {
						"details": "See {IERC20-totalSupply}."
					},
					"transfer(address,uint256)": {
						"details": "See {IERC20-transfer}. Requirements: - `recipient` cannot be the zero address. - the caller must have a balance of at least `amount`."
					},
					"transferFrom(address,address,uint256)": {
						"details": "See {IERC20-transferFrom}. Emits an {Approval} event indicating the updated allowance. This is not required by the EIP. See the note at the beginning of {ERC20}. Requirements: - `sender` and `recipient` cannot be the zero address. - `sender` must have a balance of at least `amount`. - the caller must have allowance for ``sender``'s tokens of at least `amount`."
					},
					"transferOwnership(address)": {
						"details": "Transfers ownership of the contract to a new account (`newOwner`). Can only be called by the current owner."
					}
				},
				"version": 1
			},
			"evm": {
				"assembly": "    /* \"contracts/GRB.sol\":23171:24995  contract GRP is ERC20Burnable, Ownable {... */\n  mstore(0x40, 0xa0)\n    /* \"contracts/GRB.sol\":23365:23366  0 */\n  0x00\n    /* \"contracts/GRB.sol\":23336:23366  uint256 public totalBurned = 0 */\n  0x07\n  sstore\n    /* \"contracts/GRB.sol\":23531:23876  constructor(... */\n  callvalue\n  dup1\n  iszero\n  tag_1\n  jumpi\n  0x00\n  dup1\n  revert\ntag_1:\n  pop\n  mload(0x40)\n  sub(codesize, bytecodeSize)\n  dup1\n  bytecodeSize\n  dup4\n  codecopy\n  dup2\n  dup2\n  add\n  0x40\n  mstore\n  dup2\n  add\n  swap1\n  tag_2\n  swap2\n  swap1\n  tag_3\n  jump\t// in\ntag_2:\n    /* \"contracts/GRB.sol\":13453:13596  constructor (string memory name_, string memory symbol_) ... */\n  mload(0x40)\n  dup1\n  0x40\n  add\n  0x40\n  mstore\n  dup1\n  0x09\n  dup2\n  mstore\n  0x20\n  add\n  0x47524220546f6b656e0000000000000000000000000000000000000000000000\n  dup2\n  mstore\n  pop\n  mload(0x40)\n  dup1\n  0x40\n  add\n  0x40\n  mstore\n  dup1\n  0x03\n  dup2\n  mstore\n  0x20\n  add\n  0x4752420000000000000000000000000000000000000000000000000000000000\n  dup2\n  mstore\n  pop\n    /* \"contracts/GRB.sol\":13533:13538  name_ */\n  dup2\n    /* \"contracts/GRB.sol\":13525:13530  _name */\n  0x03\n    /* \"contracts/GRB.sol\":13525:13538  _name = name_ */\n  swap1\n  dup1\n  mload\n  swap1\n  0x20\n  add\n  swap1\n  tag_8\n  swap3\n  swap2\n  swap1\n  tag_9\n  jump\t// in\ntag_8:\n  pop\n    /* \"contracts/GRB.sol\":13558:13565  symbol_ */\n  dup1\n    /* \"contracts/GRB.sol\":13548:13555  _symbol */\n  0x04\n    /* \"contracts/GRB.sol\":13548:13565  _symbol = symbol_ */\n  swap1\n  dup1\n  mload\n  swap1\n  0x20\n  add\n  swap1\n  tag_10\n  swap3\n  swap2\n  swap1\n  tag_9\n  jump\t// in\ntag_10:\n  pop\n    /* \"contracts/GRB.sol\":13587:13589  18 */\n  0x12\n    /* \"contracts/GRB.sol\":13575:13584  _decimals */\n  0x05\n  0x00\n    /* \"contracts/GRB.sol\":13575:13589  _decimals = 18 */\n  0x0100\n  exp\n  dup2\n  sload\n  dup2\n  0xff\n  mul\n  not\n  and\n  swap1\n  dup4\n  0xff\n  and\n  mul\n  or\n  swap1\n  sstore\n  pop\n    /* \"contracts/GRB.sol\":13453:13596  constructor (string memory name_, string memory symbol_) ... */\n  pop\n  pop\n    /* \"contracts/GRB.sol\":11446:11463  address msgSender */\n  0x00\n    /* \"contracts/GRB.sol\":11466:11478  _msgSender() */\n  tag_12\n    /* \"contracts/GRB.sol\":11466:11476  _msgSender */\n  shl(0x20, tag_13)\n    /* \"contracts/GRB.sol\":11466:11478  _msgSender() */\n  0x20\n  shr\n  jump\t// in\ntag_12:\n    /* \"contracts/GRB.sol\":11446:11478  address msgSender = _msgSender() */\n  swap1\n  pop\n    /* \"contracts/GRB.sol\":11497:11506  msgSender */\n  dup1\n    /* \"contracts/GRB.sol\":11488:11494  _owner */\n  0x05\n  0x01\n    /* \"contracts/GRB.sol\":11488:11506  _owner = msgSender */\n  0x0100\n  exp\n  dup2\n  sload\n  dup2\n  0xffffffffffffffffffffffffffffffffffffffff\n  mul\n  not\n  and\n  swap1\n  dup4\n  0xffffffffffffffffffffffffffffffffffffffff\n  and\n  mul\n  or\n  swap1\n  sstore\n  pop\n    /* \"contracts/GRB.sol\":11554:11563  msgSender */\n  dup1\n    /* \"contracts/GRB.sol\":11521:11564  OwnershipTransferred(address(0), msgSender) */\n  0xffffffffffffffffffffffffffffffffffffffff\n  and\n    /* \"contracts/GRB.sol\":11550:11551  0 */\n  0x00\n    /* \"contracts/GRB.sol\":11521:11564  OwnershipTransferred(address(0), msgSender) */\n  0xffffffffffffffffffffffffffffffffffffffff\n  and\n  0x8be0079c531659141344cd1fd0a4f28419497f9722a3daafe3b4186f6b6457e0\n  mload(0x40)\n  mload(0x40)\n  dup1\n  swap2\n  sub\n  swap1\n  log3\n    /* \"contracts/GRB.sol\":11436:11571  {... */\n  pop\n    /* \"contracts/GRB.sol\":23671:23681  _maxSupply */\n  dup2\n    /* \"contracts/GRB.sol\":23653:23667  _initialSupply */\n  dup2\n    /* \"contracts/GRB.sol\":23653:23681  _initialSupply <= _maxSupply */\n  gt\n  iszero\n    /* \"contracts/GRB.sol\":23645:23742  require(_initialSupply <= _maxSupply, \"GRB: The _initialSupply should not exceed the _maxSupply\") */\n  tag_15\n  jumpi\n  mload(0x40)\n  0x08c379a000000000000000000000000000000000000000000000000000000000\n  dup2\n  mstore\n  0x04\n  add\n  tag_16\n  swap1\n  tag_17\n  jump\t// in\ntag_16:\n  mload(0x40)\n  dup1\n  swap2\n  sub\n  swap1\n  revert\ntag_15:\n    /* \"contracts/GRB.sol\":23765:23775  _maxSupply */\n  dup2\n    /* \"contracts/GRB.sol\":23752:23775  MAX_SUPPLY = _maxSupply */\n  0x80\n  dup2\n  dup2\n  mstore\n  pop\n  pop\n    /* \"contracts/GRB.sol\":23807:23808  0 */\n  0x00\n    /* \"contracts/GRB.sol\":23790:23804  _initialSupply */\n  dup2\n    /* \"contracts/GRB.sol\":23790:23808  _initialSupply > 0 */\n  gt\n    /* \"contracts/GRB.sol\":23786:23870  if (_initialSupply > 0) {... */\n  iszero\n  tag_18\n  jumpi\n    /* \"contracts/GRB.sol\":23824:23859  _mint(_msgSender(), _initialSupply) */\n  tag_19\n    /* \"contracts/GRB.sol\":23830:23842  _msgSender() */\n  tag_20\n    /* \"contracts/GRB.sol\":23830:23840  _msgSender */\n  shl(0x20, tag_13)\n    /* \"contracts/GRB.sol\":23830:23842  _msgSender() */\n  0x20\n  shr\n  jump\t// in\ntag_20:\n    /* \"contracts/GRB.sol\":23844:23858  _initialSupply */\n  dup3\n    /* \"contracts/GRB.sol\":23824:23829  _mint */\n  shl(0x20, tag_21)\n    /* \"contracts/GRB.sol\":23824:23859  _mint(_msgSender(), _initialSupply) */\n  0x20\n  shr\n  jump\t// in\ntag_19:\n    /* \"contracts/GRB.sol\":23786:23870  if (_initialSupply > 0) {... */\ntag_18:\n    /* \"contracts/GRB.sol\":23531:23876  constructor(... */\n  pop\n  pop\n    /* \"contracts/GRB.sol\":23171:24995  contract GRP is ERC20Burnable, Ownable {... */\n  jump(tag_22)\n    /* \"contracts/GRB.sol\":10316:10429  function _msgSender() internal view virtual returns (address payable) {... */\ntag_13:\n    /* \"contracts/GRB.sol\":10369:10384  address payable */\n  0x00\n    /* \"contracts/GRB.sol\":10411:10421  msg.sender */\n  caller\n    /* \"contracts/GRB.sol\":10396:10422  return payable(msg.sender) */\n  swap1\n  pop\n    /* \"contracts/GRB.sol\":10316:10429  function _msgSender() internal view virtual returns (address payable) {... */\n  swap1\n  jump\t// out\n    /* \"contracts/GRB.sol\":19325:19695  function _mint(address account, uint256 amount) internal virtual {... */\ntag_21:\n    /* \"contracts/GRB.sol\":19427:19428  0 */\n  0x00\n    /* \"contracts/GRB.sol\":19408:19429  account != address(0) */\n  0xffffffffffffffffffffffffffffffffffffffff\n  and\n    /* \"contracts/GRB.sol\":19408:19415  account */\n  dup3\n    /* \"contracts/GRB.sol\":19408:19429  account != address(0) */\n  0xffffffffffffffffffffffffffffffffffffffff\n  and\n  eq\n  iszero\n    /* \"contracts/GRB.sol\":19400:19465  require(account != address(0), \"ERC20: mint to the zero address\") */\n  tag_25\n  jumpi\n  mload(0x40)\n  0x08c379a000000000000000000000000000000000000000000000000000000000\n  dup2\n  mstore\n  0x04\n  add\n  tag_26\n  swap1\n  tag_27\n  jump\t// in\ntag_26:\n  mload(0x40)\n  dup1\n  swap2\n  sub\n  swap1\n  revert\ntag_25:\n    /* \"contracts/GRB.sol\":19476:19525  _beforeTokenTransfer(address(0), account, amount) */\n  tag_28\n    /* \"contracts/GRB.sol\":19505:19506  0 */\n  0x00\n    /* \"contracts/GRB.sol\":19509:19516  account */\n  dup4\n    /* \"contracts/GRB.sol\":19518:19524  amount */\n  dup4\n    /* \"contracts/GRB.sol\":19476:19496  _beforeTokenTransfer */\n  shl(0x20, tag_29)\n    /* \"contracts/GRB.sol\":19476:19525  _beforeTokenTransfer(address(0), account, amount) */\n  0x20\n  shr\n  jump\t// in\ntag_28:\n    /* \"contracts/GRB.sol\":19551:19575  _totalSupply.add(amount) */\n  tag_30\n    /* \"contracts/GRB.sol\":19568:19574  amount */\n  dup2\n    /* \"contracts/GRB.sol\":19551:19563  _totalSupply */\n  sload(0x02)\n    /* \"contracts/GRB.sol\":19551:19567  _totalSupply.add */\n  or(tag_0_111, shl(0x20, tag_31))\n  swap1\n    /* \"contracts/GRB.sol\":19551:19575  _totalSupply.add(amount) */\n  swap2\n  swap1\n  0x20\n  shr\n  jump\t// in\ntag_30:\n    /* \"contracts/GRB.sol\":19536:19548  _totalSupply */\n  0x02\n    /* \"contracts/GRB.sol\":19536:19575  _totalSupply = _totalSupply.add(amount) */\n  dup2\n  swap1\n  sstore\n  pop\n    /* \"contracts/GRB.sol\":19606:19636  _balances[account].add(amount) */\n  tag_32\n    /* \"contracts/GRB.sol\":19629:19635  amount */\n  dup2\n    /* \"contracts/GRB.sol\":19606:19615  _balances */\n  0x00\n    /* \"contracts/GRB.sol\":19606:19624  _balances[account] */\n  dup1\n    /* \"contracts/GRB.sol\":19616:19623  account */\n  dup6\n    /* \"contracts/GRB.sol\":19606:19624  _balances[account] */\n  0xffffffffffffffffffffffffffffffffffffffff\n  and\n  0xffffffffffffffffffffffffffffffffffffffff\n  and\n  dup2\n  mstore\n  0x20\n  add\n  swap1\n  dup2\n  mstore\n  0x20\n  add\n  0x00\n  keccak256\n  sload\n    /* \"contracts/GRB.sol\":19606:19628  _balances[account].add */\n  or(tag_0_111, shl(0x20, tag_31))\n  swap1\n    /* \"contracts/GRB.sol\":19606:19636  _balances[account].add(amount) */\n  swap2\n  swap1\n  0x20\n  shr\n  jump\t// in\ntag_32:\n    /* \"contracts/GRB.sol\":19585:19594  _balances */\n  0x00\n    /* \"contracts/GRB.sol\":19585:19603  _balances[account] */\n  dup1\n    /* \"contracts/GRB.sol\":19595:19602  account */\n  dup5\n    /* \"contracts/GRB.sol\":19585:19603  _balances[account] */\n  0xffffffffffffffffffffffffffffffffffffffff\n  and\n  0xffffffffffffffffffffffffffffffffffffffff\n  and\n  dup2\n  mstore\n  0x20\n  add\n  swap1\n  dup2\n  mstore\n  0x20\n  add\n  0x00\n  keccak256\n    /* \"contracts/GRB.sol\":19585:19636  _balances[account] = _balances[account].add(amount) */\n  dup2\n  swap1\n  sstore\n  pop\n    /* \"contracts/GRB.sol\":19672:19679  account */\n  dup2\n    /* \"contracts/GRB.sol\":19651:19688  Transfer(address(0), account, amount) */\n  0xffffffffffffffffffffffffffffffffffffffff\n  and\n    /* \"contracts/GRB.sol\":19668:19669  0 */\n  0x00\n    /* \"contracts/GRB.sol\":19651:19688  Transfer(address(0), account, amount) */\n  0xffffffffffffffffffffffffffffffffffffffff\n  and\n  0xddf252ad1be2c89b69c2b068fc378daa952ba7f163c4a11628f55a4df523b3ef\n    /* \"contracts/GRB.sol\":19681:19687  amount */\n  dup4\n    /* \"contracts/GRB.sol\":19651:19688  Transfer(address(0), account, amount) */\n  mload(0x40)\n  tag_33\n  swap2\n  swap1\n  tag_34\n  jump\t// in\ntag_33:\n  mload(0x40)\n  dup1\n  swap2\n  sub\n  swap1\n  log3\n    /* \"contracts/GRB.sol\":19325:19695  function _mint(address account, uint256 amount) internal virtual {... */\n  pop\n  pop\n  jump\t// out\n    /* \"contracts/GRB.sol\":22194:22286  function _beforeTokenTransfer(address from, address to, uint256 amount) internal virtual { } */\ntag_29:\n  pop\n  pop\n  pop\n  jump\t// out\n    /* \"contracts/GRB.sol\":2682:2857  function add(uint256 a, uint256 b) internal pure returns (uint256) {... */\ntag_31:\n    /* \"contracts/GRB.sol\":2740:2747  uint256 */\n  0x00\n    /* \"contracts/GRB.sol\":2759:2768  uint256 c */\n  dup1\n    /* \"contracts/GRB.sol\":2775:2776  b */\n  dup3\n    /* \"contracts/GRB.sol\":2771:2772  a */\n  dup5\n    /* \"contracts/GRB.sol\":2771:2776  a + b */\n  tag_37\n  swap2\n  swap1\n  tag_38\n  jump\t// in\ntag_37:\n    /* \"contracts/GRB.sol\":2759:2776  uint256 c = a + b */\n  swap1\n  pop\n    /* \"contracts/GRB.sol\":2799:2800  a */\n  dup4\n    /* \"contracts/GRB.sol\":2794:2795  c */\n  dup2\n    /* \"contracts/GRB.sol\":2794:2800  c >= a */\n  lt\n  iszero\n    /* \"contracts/GRB.sol\":2786:2832  require(c >= a, \"SafeMath: addition overflow\") */\n  tag_39\n  jumpi\n  mload(0x40)\n  0x08c379a000000000000000000000000000000000000000000000000000000000\n  dup2\n  mstore\n  0x04\n  add\n  tag_40\n  swap1\n  tag_41\n  jump\t// in\ntag_40:\n  mload(0x40)\n  dup1\n  swap2\n  sub\n  swap1\n  revert\ntag_39:\n    /* \"contracts/GRB.sol\":2849:2850  c */\n  dup1\n    /* \"contracts/GRB.sol\":2842:2850  return c */\n  swap2\n  pop\n  pop\n    /* \"contracts/GRB.sol\":2682:2857  function add(uint256 a, uint256 b) internal pure returns (uint256) {... */\n  swap3\n  swap2\n  pop\n  pop\n  jump\t// out\n    /* \"contracts/GRB.sol\":23171:24995  contract GRP is ERC20Burnable, Ownable {... */\ntag_9:\n  dup3\n  dup1\n  sload\n  tag_42\n  swap1\n  tag_43\n  jump\t// in\ntag_42:\n  swap1\n  0x00\n  mstore\n  keccak256(0x00, 0x20)\n  swap1\n  0x1f\n  add\n  0x20\n  swap1\n  div\n  dup2\n  add\n  swap3\n  dup3\n  tag_45\n  jumpi\n  0x00\n  dup6\n  sstore\n  jump(tag_44)\ntag_45:\n  dup3\n  0x1f\n  lt\n  tag_46\n  jumpi\n  dup1\n  mload\n  not(0xff)\n  and\n  dup4\n  dup1\n  add\n  or\n  dup6\n  sstore\n  jump(tag_44)\ntag_46:\n  dup3\n  dup1\n  add\n  0x01\n  add\n  dup6\n  sstore\n  dup3\n  iszero\n  tag_44\n  jumpi\n  swap2\n  dup3\n  add\ntag_47:\n  dup3\n  dup2\n  gt\n  iszero\n  tag_48\n  jumpi\n  dup3\n  mload\n  dup3\n  sstore\n  swap2\n  0x20\n  add\n  swap2\n  swap1\n  0x01\n  add\n  swap1\n  jump(tag_47)\ntag_48:\ntag_44:\n  pop\n  swap1\n  pop\n  tag_49\n  swap2\n  swap1\n  tag_50\n  jump\t// in\ntag_49:\n  pop\n  swap1\n  jump\t// out\ntag_50:\ntag_51:\n  dup1\n  dup3\n  gt\n  iszero\n  tag_52\n  jumpi\n  0x00\n  dup2\n  0x00\n  swap1\n  sstore\n  pop\n  0x01\n  add\n  jump(tag_51)\ntag_52:\n  pop\n  swap1\n  jump\t// out\n    /* \"#utility.yul\":7:150   */\ntag_54:\n    /* \"#utility.yul\":64:69   */\n  0x00\n    /* \"#utility.yul\":95:101   */\n  dup2\n    /* \"#utility.yul\":89:102   */\n  mload\n    /* \"#utility.yul\":80:102   */\n  swap1\n  pop\n    /* \"#utility.yul\":111:144   */\n  tag_56\n    /* \"#utility.yul\":138:143   */\n  dup2\n    /* \"#utility.yul\":111:144   */\n  tag_57\n  jump\t// in\ntag_56:\n    /* \"#utility.yul\":7:150   */\n  swap3\n  swap2\n  pop\n  pop\n  jump\t// out\n    /* \"#utility.yul\":156:663   */\ntag_3:\n    /* \"#utility.yul\":235:241   */\n  0x00\n    /* \"#utility.yul\":243:249   */\n  dup1\n    /* \"#utility.yul\":292:294   */\n  0x40\n    /* \"#utility.yul\":280:289   */\n  dup4\n    /* \"#utility.yul\":271:278   */\n  dup6\n    /* \"#utility.yul\":267:290   */\n  sub\n    /* \"#utility.yul\":263:295   */\n  slt\n    /* \"#utility.yul\":260:379   */\n  iszero\n  tag_59\n  jumpi\n    /* \"#utility.yul\":298:377   */\n  tag_60\n  tag_61\n  jump\t// in\ntag_60:\n    /* \"#utility.yul\":260:379   */\ntag_59:\n    /* \"#utility.yul\":418:419   */\n  0x00\n    /* \"#utility.yul\":443:507   */\n  tag_62\n    /* \"#utility.yul\":499:506   */\n  dup6\n    /* \"#utility.yul\":490:496   */\n  dup3\n    /* \"#utility.yul\":479:488   */\n  dup7\n    /* \"#utility.yul\":475:497   */\n  add\n    /* \"#utility.yul\":443:507   */\n  tag_54\n  jump\t// in\ntag_62:\n    /* \"#utility.yul\":433:507   */\n  swap3\n  pop\n    /* \"#utility.yul\":389:517   */\n  pop\n    /* \"#utility.yul\":556:558   */\n  0x20\n    /* \"#utility.yul\":582:646   */\n  tag_63\n    /* \"#utility.yul\":638:645   */\n  dup6\n    /* \"#utility.yul\":629:635   */\n  dup3\n    /* \"#utility.yul\":618:627   */\n  dup7\n    /* \"#utility.yul\":614:636   */\n  add\n    /* \"#utility.yul\":582:646   */\n  tag_54\n  jump\t// in\ntag_63:\n    /* \"#utility.yul\":572:646   */\n  swap2\n  pop\n    /* \"#utility.yul\":527:656   */\n  pop\n    /* \"#utility.yul\":156:663   */\n  swap3\n  pop\n  swap3\n  swap1\n  pop\n  jump\t// out\n    /* \"#utility.yul\":669:1035   */\ntag_64:\n    /* \"#utility.yul\":811:814   */\n  0x00\n    /* \"#utility.yul\":832:899   */\n  tag_66\n    /* \"#utility.yul\":896:898   */\n  0x1b\n    /* \"#utility.yul\":891:894   */\n  dup4\n    /* \"#utility.yul\":832:899   */\n  tag_67\n  jump\t// in\ntag_66:\n    /* \"#utility.yul\":825:899   */\n  swap2\n  pop\n    /* \"#utility.yul\":908:1001   */\n  tag_68\n    /* \"#utility.yul\":997:1000   */\n  dup3\n    /* \"#utility.yul\":908:1001   */\n  tag_69\n  jump\t// in\ntag_68:\n    /* \"#utility.yul\":1026:1028   */\n  0x20\n    /* \"#utility.yul\":1021:1024   */\n  dup3\n    /* \"#utility.yul\":1017:1029   */\n  add\n    /* \"#utility.yul\":1010:1029   */\n  swap1\n  pop\n    /* \"#utility.yul\":669:1035   */\n  swap2\n  swap1\n  pop\n  jump\t// out\n    /* \"#utility.yul\":1041:1407   */\ntag_70:\n    /* \"#utility.yul\":1183:1186   */\n  0x00\n    /* \"#utility.yul\":1204:1271   */\n  tag_72\n    /* \"#utility.yul\":1268:1270   */\n  0x38\n    /* \"#utility.yul\":1263:1266   */\n  dup4\n    /* \"#utility.yul\":1204:1271   */\n  tag_67\n  jump\t// in\ntag_72:\n    /* \"#utility.yul\":1197:1271   */\n  swap2\n  pop\n    /* \"#utility.yul\":1280:1373   */\n  tag_73\n    /* \"#utility.yul\":1369:1372   */\n  dup3\n    /* \"#utility.yul\":1280:1373   */\n  tag_74\n  jump\t// in\ntag_73:\n    /* \"#utility.yul\":1398:1400   */\n  0x40\n    /* \"#utility.yul\":1393:1396   */\n  dup3\n    /* \"#utility.yul\":1389:1401   */\n  add\n    /* \"#utility.yul\":1382:1401   */\n  swap1\n  pop\n    /* \"#utility.yul\":1041:1407   */\n  swap2\n  swap1\n  pop\n  jump\t// out\n    /* \"#utility.yul\":1413:1779   */\ntag_75:\n    /* \"#utility.yul\":1555:1558   */\n  0x00\n    /* \"#utility.yul\":1576:1643   */\n  tag_77\n    /* \"#utility.yul\":1640:1642   */\n  0x1f\n    /* \"#utility.yul\":1635:1638   */\n  dup4\n    /* \"#utility.yul\":1576:1643   */\n  tag_67\n  jump\t// in\ntag_77:\n    /* \"#utility.yul\":1569:1643   */\n  swap2\n  pop\n    /* \"#utility.yul\":1652:1745   */\n  tag_78\n    /* \"#utility.yul\":1741:1744   */\n  dup3\n    /* \"#utility.yul\":1652:1745   */\n  tag_79\n  jump\t// in\ntag_78:\n    /* \"#utility.yul\":1770:1772   */\n  0x20\n    /* \"#utility.yul\":1765:1768   */\n  dup3\n    /* \"#utility.yul\":1761:1773   */\n  add\n    /* \"#utility.yul\":1754:1773   */\n  swap1\n  pop\n    /* \"#utility.yul\":1413:1779   */\n  swap2\n  swap1\n  pop\n  jump\t// out\n    /* \"#utility.yul\":1785:1903   */\ntag_80:\n    /* \"#utility.yul\":1872:1896   */\n  tag_82\n    /* \"#utility.yul\":1890:1895   */\n  dup2\n    /* \"#utility.yul\":1872:1896   */\n  tag_83\n  jump\t// in\ntag_82:\n    /* \"#utility.yul\":1867:1870   */\n  dup3\n    /* \"#utility.yul\":1860:1897   */\n  mstore\n    /* \"#utility.yul\":1785:1903   */\n  pop\n  pop\n  jump\t// out\n    /* \"#utility.yul\":1909:2328   */\ntag_41:\n    /* \"#utility.yul\":2075:2079   */\n  0x00\n    /* \"#utility.yul\":2113:2115   */\n  0x20\n    /* \"#utility.yul\":2102:2111   */\n  dup3\n    /* \"#utility.yul\":2098:2116   */\n  add\n    /* \"#utility.yul\":2090:2116   */\n  swap1\n  pop\n    /* \"#utility.yul\":2162:2171   */\n  dup2\n    /* \"#utility.yul\":2156:2160   */\n  dup2\n    /* \"#utility.yul\":2152:2172   */\n  sub\n    /* \"#utility.yul\":2148:2149   */\n  0x00\n    /* \"#utility.yul\":2137:2146   */\n  dup4\n    /* \"#utility.yul\":2133:2150   */\n  add\n    /* \"#utility.yul\":2126:2173   */\n  mstore\n    /* \"#utility.yul\":2190:2321   */\n  tag_85\n    /* \"#utility.yul\":2316:2320   */\n  dup2\n    /* \"#utility.yul\":2190:2321   */\n  tag_64\n  jump\t// in\ntag_85:\n    /* \"#utility.yul\":2182:2321   */\n  swap1\n  pop\n    /* \"#utility.yul\":1909:2328   */\n  swap2\n  swap1\n  pop\n  jump\t// out\n    /* \"#utility.yul\":2334:2753   */\ntag_17:\n    /* \"#utility.yul\":2500:2504   */\n  0x00\n    /* \"#utility.yul\":2538:2540   */\n  0x20\n    /* \"#utility.yul\":2527:2536   */\n  dup3\n    /* \"#utility.yul\":2523:2541   */\n  add\n    /* \"#utility.yul\":2515:2541   */\n  swap1\n  pop\n    /* \"#utility.yul\":2587:2596   */\n  dup2\n    /* \"#utility.yul\":2581:2585   */\n  dup2\n    /* \"#utility.yul\":2577:2597   */\n  sub\n    /* \"#utility.yul\":2573:2574   */\n  0x00\n    /* \"#utility.yul\":2562:2571   */\n  dup4\n    /* \"#utility.yul\":2558:2575   */\n  add\n    /* \"#utility.yul\":2551:2598   */\n  mstore\n    /* \"#utility.yul\":2615:2746   */\n  tag_87\n    /* \"#utility.yul\":2741:2745   */\n  dup2\n    /* \"#utility.yul\":2615:2746   */\n  tag_70\n  jump\t// in\ntag_87:\n    /* \"#utility.yul\":2607:2746   */\n  swap1\n  pop\n    /* \"#utility.yul\":2334:2753   */\n  swap2\n  swap1\n  pop\n  jump\t// out\n    /* \"#utility.yul\":2759:3178   */\ntag_27:\n    /* \"#utility.yul\":2925:2929   */\n  0x00\n    /* \"#utility.yul\":2963:2965   */\n  0x20\n    /* \"#utility.yul\":2952:2961   */\n  dup3\n    /* \"#utility.yul\":2948:2966   */\n  add\n    /* \"#utility.yul\":2940:2966   */\n  swap1\n  pop\n    /* \"#utility.yul\":3012:3021   */\n  dup2\n    /* \"#utility.yul\":3006:3010   */\n  dup2\n    /* \"#utility.yul\":3002:3022   */\n  sub\n    /* \"#utility.yul\":2998:2999   */\n  0x00\n    /* \"#utility.yul\":2987:2996   */\n  dup4\n    /* \"#utility.yul\":2983:3000   */\n  add\n    /* \"#utility.yul\":2976:3023   */\n  mstore\n    /* \"#utility.yul\":3040:3171   */\n  tag_89\n    /* \"#utility.yul\":3166:3170   */\n  dup2\n    /* \"#utility.yul\":3040:3171   */\n  tag_75\n  jump\t// in\ntag_89:\n    /* \"#utility.yul\":3032:3171   */\n  swap1\n  pop\n    /* \"#utility.yul\":2759:3178   */\n  swap2\n  swap1\n  pop\n  jump\t// out\n    /* \"#utility.yul\":3184:3406   */\ntag_34:\n    /* \"#utility.yul\":3277:3281   */\n  0x00\n    /* \"#utility.yul\":3315:3317   */\n  0x20\n    /* \"#utility.yul\":3304:3313   */\n  dup3\n    /* \"#utility.yul\":3300:3318   */\n  add\n    /* \"#utility.yul\":3292:3318   */\n  swap1\n  pop\n    /* \"#utility.yul\":3328:3399   */\n  tag_91\n    /* \"#utility.yul\":3396:3397   */\n  0x00\n    /* \"#utility.yul\":3385:3394   */\n  dup4\n    /* \"#utility.yul\":3381:3398   */\n  add\n    /* \"#utility.yul\":3372:3378   */\n  dup5\n    /* \"#utility.yul\":3328:3399   */\n  tag_80\n  jump\t// in\ntag_91:\n    /* \"#utility.yul\":3184:3406   */\n  swap3\n  swap2\n  pop\n  pop\n  jump\t// out\n    /* \"#utility.yul\":3493:3662   */\ntag_67:\n    /* \"#utility.yul\":3577:3588   */\n  0x00\n    /* \"#utility.yul\":3611:3617   */\n  dup3\n    /* \"#utility.yul\":3606:3609   */\n  dup3\n    /* \"#utility.yul\":3599:3618   */\n  mstore\n    /* \"#utility.yul\":3651:3655   */\n  0x20\n    /* \"#utility.yul\":3646:3649   */\n  dup3\n    /* \"#utility.yul\":3642:3656   */\n  add\n    /* \"#utility.yul\":3627:3656   */\n  swap1\n  pop\n    /* \"#utility.yul\":3493:3662   */\n  swap3\n  swap2\n  pop\n  pop\n  jump\t// out\n    /* \"#utility.yul\":3668:3973   */\ntag_38:\n    /* \"#utility.yul\":3708:3711   */\n  0x00\n    /* \"#utility.yul\":3727:3747   */\n  tag_96\n    /* \"#utility.yul\":3745:3746   */\n  dup3\n    /* \"#utility.yul\":3727:3747   */\n  tag_83\n  jump\t// in\ntag_96:\n    /* \"#utility.yul\":3722:3747   */\n  swap2\n  pop\n    /* \"#utility.yul\":3761:3781   */\n  tag_97\n    /* \"#utility.yul\":3779:3780   */\n  dup4\n    /* \"#utility.yul\":3761:3781   */\n  tag_83\n  jump\t// in\ntag_97:\n    /* \"#utility.yul\":3756:3781   */\n  swap3\n  pop\n    /* \"#utility.yul\":3915:3916   */\n  dup3\n    /* \"#utility.yul\":3847:3913   */\n  0xffffffffffffffffffffffffffffffffffffffffffffffffffffffffffffffff\n    /* \"#utility.yul\":3843:3917   */\n  sub\n    /* \"#utility.yul\":3840:3841   */\n  dup3\n    /* \"#utility.yul\":3837:3918   */\n  gt\n    /* \"#utility.yul\":3834:3941   */\n  iszero\n  tag_98\n  jumpi\n    /* \"#utility.yul\":3921:3939   */\n  tag_99\n  tag_100\n  jump\t// in\ntag_99:\n    /* \"#utility.yul\":3834:3941   */\ntag_98:\n    /* \"#utility.yul\":3965:3966   */\n  dup3\n    /* \"#utility.yul\":3962:3963   */\n  dup3\n    /* \"#utility.yul\":3958:3967   */\n  add\n    /* \"#utility.yul\":3951:3967   */\n  swap1\n  pop\n    /* \"#utility.yul\":3668:3973   */\n  swap3\n  swap2\n  pop\n  pop\n  jump\t// out\n    /* \"#utility.yul\":3979:4056   */\ntag_83:\n    /* \"#utility.yul\":4016:4023   */\n  0x00\n    /* \"#utility.yul\":4045:4050   */\n  dup2\n    /* \"#utility.yul\":4034:4050   */\n  swap1\n  pop\n    /* \"#utility.yul\":3979:4056   */\n  swap2\n  swap1\n  pop\n  jump\t// out\n    /* \"#utility.yul\":4062:4382   */\ntag_43:\n    /* \"#utility.yul\":4106:4112   */\n  0x00\n    /* \"#utility.yul\":4143:4144   */\n  0x02\n    /* \"#utility.yul\":4137:4141   */\n  dup3\n    /* \"#utility.yul\":4133:4145   */\n  div\n    /* \"#utility.yul\":4123:4145   */\n  swap1\n  pop\n    /* \"#utility.yul\":4190:4191   */\n  0x01\n    /* \"#utility.yul\":4184:4188   */\n  dup3\n    /* \"#utility.yul\":4180:4192   */\n  and\n    /* \"#utility.yul\":4211:4229   */\n  dup1\n    /* \"#utility.yul\":4201:4282   */\n  tag_103\n  jumpi\n    /* \"#utility.yul\":4267:4271   */\n  0x7f\n    /* \"#utility.yul\":4259:4265   */\n  dup3\n    /* \"#utility.yul\":4255:4272   */\n  and\n    /* \"#utility.yul\":4245:4272   */\n  swap2\n  pop\n    /* \"#utility.yul\":4201:4282   */\ntag_103:\n    /* \"#utility.yul\":4329:4331   */\n  0x20\n    /* \"#utility.yul\":4321:4327   */\n  dup3\n    /* \"#utility.yul\":4318:4332   */\n  lt\n    /* \"#utility.yul\":4298:4316   */\n  dup2\n    /* \"#utility.yul\":4295:4333   */\n  eq\n    /* \"#utility.yul\":4292:4376   */\n  iszero\n  tag_104\n  jumpi\n    /* \"#utility.yul\":4348:4366   */\n  tag_105\n  tag_106\n  jump\t// in\ntag_105:\n    /* \"#utility.yul\":4292:4376   */\ntag_104:\n    /* \"#utility.yul\":4113:4382   */\n  pop\n    /* \"#utility.yul\":4062:4382   */\n  swap2\n  swap1\n  pop\n  jump\t// out\n    /* \"#utility.yul\":4388:4568   */\ntag_100:\n    /* \"#utility.yul\":4436:4513   */\n  0x4e487b7100000000000000000000000000000000000000000000000000000000\n    /* \"#utility.yul\":4433:4434   */\n  0x00\n    /* \"#utility.yul\":4426:4514   */\n  mstore\n    /* \"#utility.yul\":4533:4537   */\n  0x11\n    /* \"#utility.yul\":4530:4531   */\n  0x04\n    /* \"#utility.yul\":4523:4538   */\n  mstore\n    /* \"#utility.yul\":4557:4561   */\n  0x24\n    /* \"#utility.yul\":4554:4555   */\n  0x00\n    /* \"#utility.yul\":4547:4562   */\n  revert\n    /* \"#utility.yul\":4574:4754   */\ntag_106:\n    /* \"#utility.yul\":4622:4699   */\n  0x4e487b7100000000000000000000000000000000000000000000000000000000\n    /* \"#utility.yul\":4619:4620   */\n  0x00\n    /* \"#utility.yul\":4612:4700   */\n  mstore\n    /* \"#utility.yul\":4719:4723   */\n  0x22\n    /* \"#utility.yul\":4716:4717   */\n  0x04\n    /* \"#utility.yul\":4709:4724   */\n  mstore\n    /* \"#utility.yul\":4743:4747   */\n  0x24\n    /* \"#utility.yul\":4740:4741   */\n  0x00\n    /* \"#utility.yul\":4733:4748   */\n  revert\n    /* \"#utility.yul\":4883:5000   */\ntag_61:\n    /* \"#utility.yul\":4992:4993   */\n  0x00\n    /* \"#utility.yul\":4989:4990   */\n  dup1\n    /* \"#utility.yul\":4982:4994   */\n  revert\n    /* \"#utility.yul\":5006:5183   */\ntag_69:\n    /* \"#utility.yul\":5146:5175   */\n  0x536166654d6174683a206164646974696f6e206f766572666c6f770000000000\n    /* \"#utility.yul\":5142:5143   */\n  0x00\n    /* \"#utility.yul\":5134:5140   */\n  dup3\n    /* \"#utility.yul\":5130:5144   */\n  add\n    /* \"#utility.yul\":5123:5176   */\n  mstore\n    /* \"#utility.yul\":5006:5183   */\n  pop\n  jump\t// out\n    /* \"#utility.yul\":5189:5432   */\ntag_74:\n    /* \"#utility.yul\":5329:5363   */\n  0x4752423a20546865205f696e697469616c537570706c792073686f756c64206e\n    /* \"#utility.yul\":5325:5326   */\n  0x00\n    /* \"#utility.yul\":5317:5323   */\n  dup3\n    /* \"#utility.yul\":5313:5327   */\n  add\n    /* \"#utility.yul\":5306:5364   */\n  mstore\n    /* \"#utility.yul\":5398:5424   */\n  0x6f742065786365656420746865205f6d6178537570706c790000000000000000\n    /* \"#utility.yul\":5393:5395   */\n  0x20\n    /* \"#utility.yul\":5385:5391   */\n  dup3\n    /* \"#utility.yul\":5381:5396   */\n  add\n    /* \"#utility.yul\":5374:5425   */\n  mstore\n    /* \"#utility.yul\":5189:5432   */\n  pop\n  jump\t// out\n    /* \"#utility.yul\":5438:5619   */\ntag_79:\n    /* \"#utility.yul\":5578:5611   */\n  0x45524332303a206d696e7420746f20746865207a65726f206164647265737300\n    /* \"#utility.yul\":5574:5575   */\n  0x00\n    /* \"#utility.yul\":5566:5572   */\n  dup3\n    /* \"#utility.yul\":5562:5576   */\n  add\n    /* \"#utility.yul\":5555:5612   */\n  mstore\n    /* \"#utility.yul\":5438:5619   */\n  pop\n  jump\t// out\n    /* \"#utility.yul\":5625:5747   */\ntag_57:\n    /* \"#utility.yul\":5698:5722   */\n  tag_116\n    /* \"#utility.yul\":5716:5721   */\n  dup2\n    /* \"#utility.yul\":5698:5722   */\n  tag_83\n  jump\t// in\ntag_116:\n    /* \"#utility.yul\":5691:5696   */\n  dup2\n    /* \"#utility.yul\":5688:5723   */\n  eq\n    /* \"#utility.yul\":5678:5741   */\n  tag_117\n  jumpi\n    /* \"#utility.yul\":5737:5738   */\n  0x00\n    /* \"#utility.yul\":5734:5735   */\n  dup1\n    /* \"#utility.yul\":5727:5739   */\n  revert\n    /* \"#utility.yul\":5678:5741   */\ntag_117:\n    /* \"#utility.yul\":5625:5747   */\n  pop\n  jump\t// out\n    /* \"contracts/GRB.sol\":23171:24995  contract GRP is ERC20Burnable, Ownable {... */\ntag_22:\n  mload(0x80)\n  codecopy(0x00, dataOffset(sub_0), dataSize(sub_0))\n  0x00\n  assignImmutable(\"0x9b67abc7a7f76ccc26ad76abed83eb7d77aa7a9a12352409554da899fc785375\")\n  return(0x00, dataSize(sub_0))\nstop\n\nsub_0: assembly {\n        /* \"contracts/GRB.sol\":23171:24995  contract GRP is ERC20Burnable, Ownable {... */\n      mstore(0x40, 0x80)\n      callvalue\n      dup1\n      iszero\n      tag_1\n      jumpi\n      0x00\n      dup1\n      revert\n    tag_1:\n      pop\n      jumpi(tag_2, lt(calldatasize, 0x04))\n      shr(0xe0, calldataload(0x00))\n      dup1\n      0x715018a6\n      gt\n      tag_25\n      jumpi\n      dup1\n      0xa9059cbb\n      gt\n      tag_26\n      jumpi\n      dup1\n      0xa9059cbb\n      eq\n      tag_19\n      jumpi\n      dup1\n      0xaa271e1a\n      eq\n      tag_20\n      jumpi\n      dup1\n      0xb366d613\n      eq\n      tag_21\n      jumpi\n      dup1\n      0xd89135cd\n      eq\n      tag_22\n      jumpi\n      dup1\n      0xdd62ed3e\n      eq\n      tag_23\n      jumpi\n      dup1\n      0xf2fde38b\n      eq\n      tag_24\n      jumpi\n      jump(tag_2)\n    tag_26:\n      dup1\n      0x715018a6\n      eq\n      tag_14\n      jumpi\n      dup1\n      0x79cc6790\n      eq\n      tag_15\n      jumpi\n      dup1\n      0x8da5cb5b\n      eq\n      tag_16\n      jumpi\n      dup1\n      0x95d89b41\n      eq\n      tag_17\n      jumpi\n      dup1\n      0xa457c2d7\n      eq\n      tag_18\n      jumpi\n      jump(tag_2)\n    tag_25:\n      dup1\n      0x32cb6b0c\n      gt\n      tag_27\n      jumpi\n      dup1\n      0x32cb6b0c\n      eq\n      tag_8\n      jumpi\n      dup1\n      0x39509351\n      eq\n      tag_9\n      jumpi\n      dup1\n      0x40c10f19\n      eq\n      tag_10\n      jumpi\n      dup1\n      0x42966c68\n      eq\n      tag_11\n      jumpi\n      dup1\n      0x69e2f0fb\n      eq\n      tag_12\n      jumpi\n      dup1\n      0x70a08231\n      eq\n      tag_13\n      jumpi\n      jump(tag_2)\n    tag_27:\n      dup1\n      0x06fdde03\n      eq\n      tag_3\n      jumpi\n      dup1\n      0x095ea7b3\n      eq\n      tag_4\n      jumpi\n      dup1\n      0x18160ddd\n      eq\n      tag_5\n      jumpi\n      dup1\n      0x23b872dd\n      eq\n      tag_6\n      jumpi\n      dup1\n      0x313ce567\n      eq\n      tag_7\n      jumpi\n    tag_2:\n      0x00\n      dup1\n      revert\n        /* \"contracts/GRB.sol\":13661:13750  function name() public view virtual returns (string memory) {... */\n    tag_3:\n      tag_28\n      tag_29\n      jump\t// in\n    tag_28:\n      mload(0x40)\n      tag_30\n      swap2\n      swap1\n      tag_31\n      jump\t// in\n    tag_30:\n      mload(0x40)\n      dup1\n      swap2\n      sub\n      swap1\n      return\n        /* \"contracts/GRB.sol\":15737:15903  function approve(address spender, uint256 amount) public virtual override returns (bool) {... */\n    tag_4:\n      tag_32\n      0x04\n      dup1\n      calldatasize\n      sub\n      dup2\n      add\n      swap1\n      tag_33\n      swap2\n      swap1\n      tag_34\n      jump\t// in\n    tag_33:\n      tag_35\n      jump\t// in\n    tag_32:\n      mload(0x40)\n      tag_36\n      swap2\n      swap1\n      tag_37\n      jump\t// in\n    tag_36:\n      mload(0x40)\n      dup1\n      swap2\n      sub\n      swap1\n      return\n        /* \"contracts/GRB.sol\":14728:14834  function totalSupply() public view virtual override returns (uint256) {... */\n    tag_5:\n      tag_38\n      tag_39\n      jump\t// in\n    tag_38:\n      mload(0x40)\n      tag_40\n      swap2\n      swap1\n      tag_41\n      jump\t// in\n    tag_40:\n      mload(0x40)\n      dup1\n      swap2\n      sub\n      swap1\n      return\n        /* \"contracts/GRB.sol\":16370:16687  function transferFrom(address sender, address recipient, uint256 amount) public virtual override returns (bool) {... */\n    tag_6:\n      tag_42\n      0x04\n      dup1\n      calldatasize\n      sub\n      dup2\n      add\n      swap1\n      tag_43\n      swap2\n      swap1\n      tag_44\n      jump\t// in\n    tag_43:\n      tag_45\n      jump\t// in\n    tag_42:\n      mload(0x40)\n      tag_46\n      swap2\n      swap1\n      tag_37\n      jump\t// in\n    tag_46:\n      mload(0x40)\n      dup1\n      swap2\n      sub\n      swap1\n      return\n        /* \"contracts/GRB.sol\":14579:14668  function decimals() public view virtual returns (uint8) {... */\n    tag_7:\n      tag_47\n      tag_48\n      jump\t// in\n    tag_47:\n      mload(0x40)\n      tag_49\n      swap2\n      swap1\n      tag_50\n      jump\t// in\n    tag_49:\n      mload(0x40)\n      dup1\n      swap2\n      sub\n      swap1\n      return\n        /* \"contracts/GRB.sol\":23294:23329  uint256 public immutable MAX_SUPPLY */\n    tag_8:\n      tag_51\n      tag_52\n      jump\t// in\n    tag_51:\n      mload(0x40)\n      tag_53\n      swap2\n      swap1\n      tag_41\n      jump\t// in\n    tag_53:\n      mload(0x40)\n      dup1\n      swap2\n      sub\n      swap1\n      return\n        /* \"contracts/GRB.sol\":17082:17297  function increaseAllowance(address spender, uint256 addedValue) public virtual returns (bool) {... */\n    tag_9:\n      tag_54\n      0x04\n      dup1\n      calldatasize\n      sub\n      dup2\n      add\n      swap1\n      tag_55\n      swap2\n      swap1\n      tag_34\n      jump\t// in\n    tag_55:\n      tag_56\n      jump\t// in\n    tag_54:\n      mload(0x40)\n      tag_57\n      swap2\n      swap1\n      tag_37\n      jump\t// in\n    tag_57:\n      mload(0x40)\n      dup1\n      swap2\n      sub\n      swap1\n      return\n        /* \"contracts/GRB.sol\":24332:24577  function mint(address _user, uint256 _amount) external hasMinterRole {... */\n    tag_10:\n      tag_58\n      0x04\n      dup1\n      calldatasize\n      sub\n      dup2\n      add\n      swap1\n      tag_59\n      swap2\n      swap1\n      tag_34\n      jump\t// in\n    tag_59:\n      tag_60\n      jump\t// in\n    tag_58:\n      stop\n        /* \"contracts/GRB.sol\":22482:22571  function burn(uint256 amount) public virtual {... */\n    tag_11:\n      tag_61\n      0x04\n      dup1\n      calldatasize\n      sub\n      dup2\n      add\n      swap1\n      tag_62\n      swap2\n      swap1\n      tag_63\n      jump\t// in\n    tag_62:\n      tag_64\n      jump\t// in\n    tag_61:\n      stop\n        /* \"contracts/GRB.sol\":24832:24993  function revokeMinterRole(address _account) public onlyOwner {... */\n    tag_12:\n      tag_65\n      0x04\n      dup1\n      calldatasize\n      sub\n      dup2\n      add\n      swap1\n      tag_66\n      swap2\n      swap1\n      tag_67\n      jump\t// in\n    tag_66:\n      tag_68\n      jump\t// in\n    tag_65:\n      stop\n        /* \"contracts/GRB.sol\":14892:15017  function balanceOf(address account) public view virtual override returns (uint256) {... */\n    tag_13:\n      tag_69\n      0x04\n      dup1\n      calldatasize\n      sub\n      dup2\n      add\n      swap1\n      tag_70\n      swap2\n      swap1\n      tag_67\n      jump\t// in\n    tag_70:\n      tag_71\n      jump\t// in\n    tag_69:\n      mload(0x40)\n      tag_72\n      swap2\n      swap1\n      tag_41\n      jump\t// in\n    tag_72:\n      mload(0x40)\n      dup1\n      swap2\n      sub\n      swap1\n      return\n        /* \"contracts/GRB.sol\":12279:12424  function renounceOwnership() public virtual onlyOwner {... */\n    tag_14:\n      tag_73\n      tag_74\n      jump\t// in\n    tag_73:\n      stop\n        /* \"contracts/GRB.sol\":22877:23167  function burnFrom(address account, uint256 amount) public virtual {... */\n    tag_15:\n      tag_75\n      0x04\n      dup1\n      calldatasize\n      sub\n      dup2\n      add\n      swap1\n      tag_76\n      swap2\n      swap1\n      tag_34\n      jump\t// in\n    tag_76:\n      tag_77\n      jump\t// in\n    tag_75:\n      stop\n        /* \"contracts/GRB.sol\":11647:11732  function owner() public view virtual returns (address) {... */\n    tag_16:\n      tag_78\n      tag_79\n      jump\t// in\n    tag_78:\n      mload(0x40)\n      tag_80\n      swap2\n      swap1\n      tag_81\n      jump\t// in\n    tag_80:\n      mload(0x40)\n      dup1\n      swap2\n      sub\n      swap1\n      return\n        /* \"contracts/GRB.sol\":13863:13956  function symbol() public view virtual returns (string memory) {... */\n    tag_17:\n      tag_82\n      tag_83\n      jump\t// in\n    tag_82:\n      mload(0x40)\n      tag_84\n      swap2\n      swap1\n      tag_31\n      jump\t// in\n    tag_84:\n      mload(0x40)\n      dup1\n      swap2\n      sub\n      swap1\n      return\n        /* \"contracts/GRB.sol\":17784:18050  function decreaseAllowance(address spender, uint256 subtractedValue) public virtual returns (bool) {... */\n    tag_18:\n      tag_85\n      0x04\n      dup1\n      calldatasize\n      sub\n      dup2\n      add\n      swap1\n      tag_86\n      swap2\n      swap1\n      tag_34\n      jump\t// in\n    tag_86:\n      tag_87\n      jump\t// in\n    tag_85:\n      mload(0x40)\n      tag_88\n      swap2\n      swap1\n      tag_37\n      jump\t// in\n    tag_88:\n      mload(0x40)\n      dup1\n      swap2\n      sub\n      swap1\n      return\n        /* \"contracts/GRB.sol\":15220:15392  function transfer(address recipient, uint256 amount) public virtual override returns (bool) {... */\n    tag_19:\n      tag_89\n      0x04\n      dup1\n      calldatasize\n      sub\n      dup2\n      add\n      swap1\n      tag_90\n      swap2\n      swap1\n      tag_34\n      jump\t// in\n    tag_90:\n      tag_91\n      jump\t// in\n    tag_89:\n      mload(0x40)\n      tag_92\n      swap2\n      swap1\n      tag_37\n      jump\t// in\n    tag_92:\n      mload(0x40)\n      dup1\n      swap2\n      sub\n      swap1\n      return\n        /* \"contracts/GRB.sol\":23248:23288  mapping(address => bool) public isMinter */\n    tag_20:\n      tag_93\n      0x04\n      dup1\n      calldatasize\n      sub\n      dup2\n      add\n      swap1\n      tag_94\n      swap2\n      swap1\n      tag_67\n      jump\t// in\n    tag_94:\n      tag_95\n      jump\t// in\n    tag_93:\n      mload(0x40)\n      tag_96\n      swap2\n      swap1\n      tag_37\n      jump\t// in\n    tag_96:\n      mload(0x40)\n      dup1\n      swap2\n      sub\n      swap1\n      return\n        /* \"contracts/GRB.sol\":24665:24826  function assignMinterRole(address _account) public onlyOwner {... */\n    tag_21:\n      tag_97\n      0x04\n      dup1\n      calldatasize\n      sub\n      dup2\n      add\n      swap1\n      tag_98\n      swap2\n      swap1\n      tag_67\n      jump\t// in\n    tag_98:\n      tag_99\n      jump\t// in\n    tag_97:\n      stop\n        /* \"contracts/GRB.sol\":23336:23366  uint256 public totalBurned = 0 */\n    tag_22:\n      tag_100\n      tag_101\n      jump\t// in\n    tag_100:\n      mload(0x40)\n      tag_102\n      swap2\n      swap1\n      tag_41\n      jump\t// in\n    tag_102:\n      mload(0x40)\n      dup1\n      swap2\n      sub\n      swap1\n      return\n        /* \"contracts/GRB.sol\":15450:15599  function allowance(address owner, address spender) public view virtual override returns (uint256) {... */\n    tag_23:\n      tag_103\n      0x04\n      dup1\n      calldatasize\n      sub\n      dup2\n      add\n      swap1\n      tag_104\n      swap2\n      swap1\n      tag_105\n      jump\t// in\n    tag_104:\n      tag_106\n      jump\t// in\n    tag_103:\n      mload(0x40)\n      tag_107\n      swap2\n      swap1\n      tag_41\n      jump\t// in\n    tag_107:\n      mload(0x40)\n      dup1\n      swap2\n      sub\n      swap1\n      return\n        /* \"contracts/GRB.sol\":12573:12813  function transferOwnership(address newOwner) public virtual onlyOwner {... */\n    tag_24:\n      tag_108\n      0x04\n      dup1\n      calldatasize\n      sub\n      dup2\n      add\n      swap1\n      tag_109\n      swap2\n      swap1\n      tag_67\n      jump\t// in\n    tag_109:\n      tag_110\n      jump\t// in\n    tag_108:\n      stop\n        /* \"contracts/GRB.sol\":13661:13750  function name() public view virtual returns (string memory) {... */\n    tag_29:\n        /* \"contracts/GRB.sol\":13706:13719  string memory */\n      0x60\n        /* \"contracts/GRB.sol\":13738:13743  _name */\n      0x03\n        /* \"contracts/GRB.sol\":13731:13743  return _name */\n      dup1\n      sload\n      tag_113\n      swap1\n      tag_114\n      jump\t// in\n    tag_113:\n      dup1\n      0x1f\n      add\n      0x20\n      dup1\n      swap2\n      div\n      mul\n      0x20\n      add\n      mload(0x40)\n      swap1\n      dup2\n      add\n      0x40\n      mstore\n      dup1\n      swap3\n      swap2\n      swap1\n      dup2\n      dup2\n      mstore\n      0x20\n      add\n      dup3\n      dup1\n      sload\n      tag_115\n      swap1\n      tag_114\n      jump\t// in\n    tag_115:\n      dup1\n      iszero\n      tag_116\n      jumpi\n      dup1\n      0x1f\n      lt\n      tag_117\n      jumpi\n      0x0100\n      dup1\n      dup4\n      sload\n      div\n      mul\n      dup4\n      mstore\n      swap2\n      0x20\n      add\n      swap2\n      jump(tag_116)\n    tag_117:\n      dup3\n      add\n      swap2\n      swap1\n      0x00\n      mstore\n      keccak256(0x00, 0x20)\n      swap1\n    tag_118:\n      dup2\n      sload\n      dup2\n      mstore\n      swap1\n      0x01\n      add\n      swap1\n      0x20\n      add\n      dup1\n      dup4\n      gt\n      tag_118\n      jumpi\n      dup3\n      swap1\n      sub\n      0x1f\n      and\n      dup3\n      add\n      swap2\n    tag_116:\n      pop\n      pop\n      pop\n      pop\n      pop\n      swap1\n      pop\n        /* \"contracts/GRB.sol\":13661:13750  function name() public view virtual returns (string memory) {... */\n      swap1\n      jump\t// out\n        /* \"contracts/GRB.sol\":15737:15903  function approve(address spender, uint256 amount) public virtual override returns (bool) {... */\n    tag_35:\n        /* \"contracts/GRB.sol\":15820:15824  bool */\n      0x00\n        /* \"contracts/GRB.sol\":15836:15875  _approve(_msgSender(), spender, amount) */\n      tag_120\n        /* \"contracts/GRB.sol\":15845:15857  _msgSender() */\n      tag_121\n        /* \"contracts/GRB.sol\":15845:15855  _msgSender */\n      tag_122\n        /* \"contracts/GRB.sol\":15845:15857  _msgSender() */\n      jump\t// in\n    tag_121:\n        /* \"contracts/GRB.sol\":15859:15866  spender */\n      dup5\n        /* \"contracts/GRB.sol\":15868:15874  amount */\n      dup5\n        /* \"contracts/GRB.sol\":15836:15844  _approve */\n      tag_123\n        /* \"contracts/GRB.sol\":15836:15875  _approve(_msgSender(), spender, amount) */\n      jump\t// in\n    tag_120:\n        /* \"contracts/GRB.sol\":15892:15896  true */\n      0x01\n        /* \"contracts/GRB.sol\":15885:15896  return true */\n      swap1\n      pop\n        /* \"contracts/GRB.sol\":15737:15903  function approve(address spender, uint256 amount) public virtual override returns (bool) {... */\n      swap3\n      swap2\n      pop\n      pop\n      jump\t// out\n        /* \"contracts/GRB.sol\":14728:14834  function totalSupply() public view virtual override returns (uint256) {... */\n    tag_39:\n        /* \"contracts/GRB.sol\":14789:14796  uint256 */\n      0x00\n        /* \"contracts/GRB.sol\":14815:14827  _totalSupply */\n      sload(0x02)\n        /* \"contracts/GRB.sol\":14808:14827  return _totalSupply */\n      swap1\n      pop\n        /* \"contracts/GRB.sol\":14728:14834  function totalSupply() public view virtual override returns (uint256) {... */\n      swap1\n      jump\t// out\n        /* \"contracts/GRB.sol\":16370:16687  function transferFrom(address sender, address recipient, uint256 amount) public virtual override returns (bool) {... */\n    tag_45:\n        /* \"contracts/GRB.sol\":16476:16480  bool */\n      0x00\n        /* \"contracts/GRB.sol\":16492:16528  _transfer(sender, recipient, amount) */\n      tag_126\n        /* \"contracts/GRB.sol\":16502:16508  sender */\n      dup5\n        /* \"contracts/GRB.sol\":16510:16519  recipient */\n      dup5\n        /* \"contracts/GRB.sol\":16521:16527  amount */\n      dup5\n        /* \"contracts/GRB.sol\":16492:16501  _transfer */\n      tag_127\n        /* \"contracts/GRB.sol\":16492:16528  _transfer(sender, recipient, amount) */\n      jump\t// in\n    tag_126:\n        /* \"contracts/GRB.sol\":16538:16659  _approve(sender, _msgSender(), _allowances[sender][_msgSender()].sub(amount, \"ERC20: transfer amount exceeds allowance\")) */\n      tag_128\n        /* \"contracts/GRB.sol\":16547:16553  sender */\n      dup5\n        /* \"contracts/GRB.sol\":16555:16567  _msgSender() */\n      tag_129\n        /* \"contracts/GRB.sol\":16555:16565  _msgSender */\n      tag_122\n        /* \"contracts/GRB.sol\":16555:16567  _msgSender() */\n      jump\t// in\n    tag_129:\n        /* \"contracts/GRB.sol\":16569:16658  _allowances[sender][_msgSender()].sub(amount, \"ERC20: transfer amount exceeds allowance\") */\n      tag_130\n        /* \"contracts/GRB.sol\":16607:16613  amount */\n      dup6\n        /* \"contracts/GRB.sol\":16569:16658  _allowances[sender][_msgSender()].sub(amount, \"ERC20: transfer amount exceeds allowance\") */\n      mload(0x40)\n      dup1\n      0x60\n      add\n      0x40\n      mstore\n      dup1\n      0x28\n      dup2\n      mstore\n      0x20\n      add\n      data_974d1b4421da69cc60b481194f0dad36a5bb4e23da810da7a7fb30cdba178330\n      0x28\n      swap2\n      codecopy\n        /* \"contracts/GRB.sol\":16569:16580  _allowances */\n      0x01\n        /* \"contracts/GRB.sol\":16569:16588  _allowances[sender] */\n      0x00\n        /* \"contracts/GRB.sol\":16581:16587  sender */\n      dup12\n        /* \"contracts/GRB.sol\":16569:16588  _allowances[sender] */\n      0xffffffffffffffffffffffffffffffffffffffff\n      and\n      0xffffffffffffffffffffffffffffffffffffffff\n      and\n      dup2\n      mstore\n      0x20\n      add\n      swap1\n      dup2\n      mstore\n      0x20\n      add\n      0x00\n      keccak256\n        /* \"contracts/GRB.sol\":16569:16602  _allowances[sender][_msgSender()] */\n      0x00\n        /* \"contracts/GRB.sol\":16589:16601  _msgSender() */\n      tag_131\n        /* \"contracts/GRB.sol\":16589:16599  _msgSender */\n      tag_122\n        /* \"contracts/GRB.sol\":16589:16601  _msgSender() */\n      jump\t// in\n    tag_131:\n        /* \"contracts/GRB.sol\":16569:16602  _allowances[sender][_msgSender()] */\n      0xffffffffffffffffffffffffffffffffffffffff\n      and\n      0xffffffffffffffffffffffffffffffffffffffff\n      and\n      dup2\n      mstore\n      0x20\n      add\n      swap1\n      dup2\n      mstore\n      0x20\n      add\n      0x00\n      keccak256\n      sload\n        /* \"contracts/GRB.sol\":16569:16606  _allowances[sender][_msgSender()].sub */\n      tag_132\n      swap1\n        /* \"contracts/GRB.sol\":16569:16658  _allowances[sender][_msgSender()].sub(amount, \"ERC20: transfer amount exceeds allowance\") */\n      swap3\n      swap2\n      swap1\n      0xffffffff\n      and\n      jump\t// in\n    tag_130:\n        /* \"contracts/GRB.sol\":16538:16546  _approve */\n      tag_123\n        /* \"contracts/GRB.sol\":16538:16659  _approve(sender, _msgSender(), _allowances[sender][_msgSender()].sub(amount, \"ERC20: transfer amount exceeds allowance\")) */\n      jump\t// in\n    tag_128:\n        /* \"contracts/GRB.sol\":16676:16680  true */\n      0x01\n        /* \"contracts/GRB.sol\":16669:16680  return true */\n      swap1\n      pop\n        /* \"contracts/GRB.sol\":16370:16687  function transferFrom(address sender, address recipient, uint256 amount) public virtual override returns (bool) {... */\n      swap4\n      swap3\n      pop\n      pop\n      pop\n      jump\t// out\n        /* \"contracts/GRB.sol\":14579:14668  function decimals() public view virtual returns (uint8) {... */\n    tag_48:\n        /* \"contracts/GRB.sol\":14628:14633  uint8 */\n      0x00\n        /* \"contracts/GRB.sol\":14652:14661  _decimals */\n      0x05\n      0x00\n      swap1\n      sload\n      swap1\n      0x0100\n      exp\n      swap1\n      div\n      0xff\n      and\n        /* \"contracts/GRB.sol\":14645:14661  return _decimals */\n      swap1\n      pop\n        /* \"contracts/GRB.sol\":14579:14668  function decimals() public view virtual returns (uint8) {... */\n      swap1\n      jump\t// out\n        /* \"contracts/GRB.sol\":23294:23329  uint256 public immutable MAX_SUPPLY */\n    tag_52:\n      immutable(\"0x9b67abc7a7f76ccc26ad76abed83eb7d77aa7a9a12352409554da899fc785375\")\n      dup2\n      jump\t// out\n        /* \"contracts/GRB.sol\":17082:17297  function increaseAllowance(address spender, uint256 addedValue) public virtual returns (bool) {... */\n    tag_56:\n        /* \"contracts/GRB.sol\":17170:17174  bool */\n      0x00\n        /* \"contracts/GRB.sol\":17186:17269  _approve(_msgSender(), spender, _allowances[_msgSender()][spender].add(addedValue)) */\n      tag_135\n        /* \"contracts/GRB.sol\":17195:17207  _msgSender() */\n      tag_136\n        /* \"contracts/GRB.sol\":17195:17205  _msgSender */\n      tag_122\n        /* \"contracts/GRB.sol\":17195:17207  _msgSender() */\n      jump\t// in\n    tag_136:\n        /* \"contracts/GRB.sol\":17209:17216  spender */\n      dup5\n        /* \"contracts/GRB.sol\":17218:17268  _allowances[_msgSender()][spender].add(addedValue) */\n      tag_137\n        /* \"contracts/GRB.sol\":17257:17267  addedValue */\n      dup6\n        /* \"contracts/GRB.sol\":17218:17229  _allowances */\n      0x01\n        /* \"contracts/GRB.sol\":17218:17243  _allowances[_msgSender()] */\n      0x00\n        /* \"contracts/GRB.sol\":17230:17242  _msgSender() */\n      tag_138\n        /* \"contracts/GRB.sol\":17230:17240  _msgSender */\n      tag_122\n        /* \"contracts/GRB.sol\":17230:17242  _msgSender() */\n      jump\t// in\n    tag_138:\n        /* \"contracts/GRB.sol\":17218:17243  _allowances[_msgSender()] */\n      0xffffffffffffffffffffffffffffffffffffffff\n      and\n      0xffffffffffffffffffffffffffffffffffffffff\n      and\n      dup2\n      mstore\n      0x20\n      add\n      swap1\n      dup2\n      mstore\n      0x20\n      add\n      0x00\n      keccak256\n        /* \"contracts/GRB.sol\":17218:17252  _allowances[_msgSender()][spender] */\n      0x00\n        /* \"contracts/GRB.sol\":17244:17251  spender */\n      dup10\n        /* \"contracts/GRB.sol\":17218:17252  _allowances[_msgSender()][spender] */\n      0xffffffffffffffffffffffffffffffffffffffff\n      and\n      0xffffffffffffffffffffffffffffffffffffffff\n      and\n      dup2\n      mstore\n      0x20\n      add\n      swap1\n      dup2\n      mstore\n      0x20\n      add\n      0x00\n      keccak256\n      sload\n        /* \"contracts/GRB.sol\":17218:17256  _allowances[_msgSender()][spender].add */\n      tag_111\n      swap1\n        /* \"contracts/GRB.sol\":17218:17268  _allowances[_msgSender()][spender].add(addedValue) */\n      swap2\n      swap1\n      0xffffffff\n      and\n      jump\t// in\n    tag_137:\n        /* \"contracts/GRB.sol\":17186:17194  _approve */\n      tag_123\n        /* \"contracts/GRB.sol\":17186:17269  _approve(_msgSender(), spender, _allowances[_msgSender()][spender].add(addedValue)) */\n      jump\t// in\n    tag_135:\n        /* \"contracts/GRB.sol\":17286:17290  true */\n      0x01\n        /* \"contracts/GRB.sol\":17279:17290  return true */\n      swap1\n      pop\n        /* \"contracts/GRB.sol\":17082:17297  function increaseAllowance(address spender, uint256 addedValue) public virtual returns (bool) {... */\n      swap3\n      swap2\n      pop\n      pop\n      jump\t// out\n        /* \"contracts/GRB.sol\":24332:24577  function mint(address _user, uint256 _amount) external hasMinterRole {... */\n    tag_60:\n        /* \"contracts/GRB.sol\":23924:23932  isMinter */\n      0x06\n        /* \"contracts/GRB.sol\":23924:23946  isMinter[_msgSender()] */\n      0x00\n        /* \"contracts/GRB.sol\":23933:23945  _msgSender() */\n      tag_140\n        /* \"contracts/GRB.sol\":23933:23943  _msgSender */\n      tag_122\n        /* \"contracts/GRB.sol\":23933:23945  _msgSender() */\n      jump\t// in\n    tag_140:\n        /* \"contracts/GRB.sol\":23924:23946  isMinter[_msgSender()] */\n      0xffffffffffffffffffffffffffffffffffffffff\n      and\n      0xffffffffffffffffffffffffffffffffffffffff\n      and\n      dup2\n      mstore\n      0x20\n      add\n      swap1\n      dup2\n      mstore\n      0x20\n      add\n      0x00\n      keccak256\n      0x00\n      swap1\n      sload\n      swap1\n      0x0100\n      exp\n      swap1\n      div\n      0xff\n      and\n        /* \"contracts/GRB.sol\":23916:23986  require(isMinter[_msgSender()], \"GRB: You don't have the permission!\") */\n      tag_141\n      jumpi\n      mload(0x40)\n      0x08c379a000000000000000000000000000000000000000000000000000000000\n      dup2\n      mstore\n      0x04\n      add\n      tag_142\n      swap1\n      tag_143\n      jump\t// in\n    tag_142:\n      mload(0x40)\n      dup1\n      swap2\n      sub\n      swap1\n      revert\n    tag_141:\n        /* \"contracts/GRB.sol\":24411:24431  uint256 _totalSupply */\n      0x00\n        /* \"contracts/GRB.sol\":24434:24447  totalSupply() */\n      tag_145\n        /* \"contracts/GRB.sol\":24434:24445  totalSupply */\n      tag_39\n        /* \"contracts/GRB.sol\":24434:24447  totalSupply() */\n      jump\t// in\n    tag_145:\n        /* \"contracts/GRB.sol\":24411:24447  uint256 _totalSupply = totalSupply() */\n      swap1\n      pop\n        /* \"contracts/GRB.sol\":24494:24504  MAX_SUPPLY */\n      immutable(\"0x9b67abc7a7f76ccc26ad76abed83eb7d77aa7a9a12352409554da899fc785375\")\n        /* \"contracts/GRB.sol\":24465:24490  _totalSupply.add(_amount) */\n      tag_146\n        /* \"contracts/GRB.sol\":24482:24489  _amount */\n      dup4\n        /* \"contracts/GRB.sol\":24465:24477  _totalSupply */\n      dup4\n        /* \"contracts/GRB.sol\":24465:24481  _totalSupply.add */\n      tag_111\n      swap1\n        /* \"contracts/GRB.sol\":24465:24490  _totalSupply.add(_amount) */\n      swap2\n      swap1\n      0xffffffff\n      and\n      jump\t// in\n    tag_146:\n        /* \"contracts/GRB.sol\":24465:24504  _totalSupply.add(_amount) <= MAX_SUPPLY */\n      gt\n      iszero\n        /* \"contracts/GRB.sol\":24457:24538  require(_totalSupply.add(_amount) <= MAX_SUPPLY, \"GRB: No more minting allowed!\") */\n      tag_147\n      jumpi\n      mload(0x40)\n      0x08c379a000000000000000000000000000000000000000000000000000000000\n      dup2\n      mstore\n      0x04\n      add\n      tag_148\n      swap1\n      tag_149\n      jump\t// in\n    tag_148:\n      mload(0x40)\n      dup1\n      swap2\n      sub\n      swap1\n      revert\n    tag_147:\n        /* \"contracts/GRB.sol\":24549:24570  _mint(_user, _amount) */\n      tag_150\n        /* \"contracts/GRB.sol\":24555:24560  _user */\n      dup4\n        /* \"contracts/GRB.sol\":24562:24569  _amount */\n      dup4\n        /* \"contracts/GRB.sol\":24549:24554  _mint */\n      tag_151\n        /* \"contracts/GRB.sol\":24549:24570  _mint(_user, _amount) */\n      jump\t// in\n    tag_150:\n        /* \"contracts/GRB.sol\":24401:24577  {... */\n      pop\n        /* \"contracts/GRB.sol\":24332:24577  function mint(address _user, uint256 _amount) external hasMinterRole {... */\n      pop\n      pop\n      jump\t// out\n        /* \"contracts/GRB.sol\":22482:22571  function burn(uint256 amount) public virtual {... */\n    tag_64:\n        /* \"contracts/GRB.sol\":22537:22564  _burn(_msgSender(), amount) */\n      tag_153\n        /* \"contracts/GRB.sol\":22543:22555  _msgSender() */\n      tag_154\n        /* \"contracts/GRB.sol\":22543:22553  _msgSender */\n      tag_122\n        /* \"contracts/GRB.sol\":22543:22555  _msgSender() */\n      jump\t// in\n    tag_154:\n        /* \"contracts/GRB.sol\":22557:22563  amount */\n      dup3\n        /* \"contracts/GRB.sol\":22537:22542  _burn */\n      tag_155\n        /* \"contracts/GRB.sol\":22537:22564  _burn(_msgSender(), amount) */\n      jump\t// in\n    tag_153:\n        /* \"contracts/GRB.sol\":22482:22571  function burn(uint256 amount) public virtual {... */\n      pop\n      jump\t// out\n        /* \"contracts/GRB.sol\":24832:24993  function revokeMinterRole(address _account) public onlyOwner {... */\n    tag_68:\n        /* \"contracts/GRB.sol\":11870:11882  _msgSender() */\n      tag_157\n        /* \"contracts/GRB.sol\":11870:11880  _msgSender */\n      tag_122\n        /* \"contracts/GRB.sol\":11870:11882  _msgSender() */\n      jump\t// in\n    tag_157:\n        /* \"contracts/GRB.sol\":11859:11882  owner() == _msgSender() */\n      0xffffffffffffffffffffffffffffffffffffffff\n      and\n        /* \"contracts/GRB.sol\":11859:11866  owner() */\n      tag_158\n        /* \"contracts/GRB.sol\":11859:11864  owner */\n      tag_79\n        /* \"contracts/GRB.sol\":11859:11866  owner() */\n      jump\t// in\n    tag_158:\n        /* \"contracts/GRB.sol\":11859:11882  owner() == _msgSender() */\n      0xffffffffffffffffffffffffffffffffffffffff\n      and\n      eq\n        /* \"contracts/GRB.sol\":11851:11919  require(owner() == _msgSender(), \"Ownable: caller is not the owner\") */\n      tag_159\n      jumpi\n      mload(0x40)\n      0x08c379a000000000000000000000000000000000000000000000000000000000\n      dup2\n      mstore\n      0x04\n      add\n      tag_160\n      swap1\n      tag_161\n      jump\t// in\n    tag_160:\n      mload(0x40)\n      dup1\n      swap2\n      sub\n      swap1\n      revert\n    tag_159:\n        /* \"contracts/GRB.sol\":24924:24929  false */\n      0x00\n        /* \"contracts/GRB.sol\":24903:24911  isMinter */\n      0x06\n        /* \"contracts/GRB.sol\":24903:24921  isMinter[_account] */\n      0x00\n        /* \"contracts/GRB.sol\":24912:24920  _account */\n      dup4\n        /* \"contracts/GRB.sol\":24903:24921  isMinter[_account] */\n      0xffffffffffffffffffffffffffffffffffffffff\n      and\n      0xffffffffffffffffffffffffffffffffffffffff\n      and\n      dup2\n      mstore\n      0x20\n      add\n      swap1\n      dup2\n      mstore\n      0x20\n      add\n      0x00\n      keccak256\n      0x00\n        /* \"contracts/GRB.sol\":24903:24929  isMinter[_account] = false */\n      0x0100\n      exp\n      dup2\n      sload\n      dup2\n      0xff\n      mul\n      not\n      and\n      swap1\n      dup4\n      iszero\n      iszero\n      mul\n      or\n      swap1\n      sstore\n      pop\n        /* \"contracts/GRB.sol\":24977:24985  _account */\n      dup1\n        /* \"contracts/GRB.sol\":24945:24986  MinterRoleRevoked(_msgSender(), _account) */\n      0xffffffffffffffffffffffffffffffffffffffff\n      and\n        /* \"contracts/GRB.sol\":24963:24975  _msgSender() */\n      tag_163\n        /* \"contracts/GRB.sol\":24963:24973  _msgSender */\n      tag_122\n        /* \"contracts/GRB.sol\":24963:24975  _msgSender() */\n      jump\t// in\n    tag_163:\n        /* \"contracts/GRB.sol\":24945:24986  MinterRoleRevoked(_msgSender(), _account) */\n      0xffffffffffffffffffffffffffffffffffffffff\n      and\n      0x73dc04f997208e28ceeffcd1317c714ef242da548c360f2f65be1f3e5e5777bb\n      mload(0x40)\n      mload(0x40)\n      dup1\n      swap2\n      sub\n      swap1\n      log3\n        /* \"contracts/GRB.sol\":24832:24993  function revokeMinterRole(address _account) public onlyOwner {... */\n      pop\n      jump\t// out\n        /* \"contracts/GRB.sol\":14892:15017  function balanceOf(address account) public view virtual override returns (uint256) {... */\n    tag_71:\n        /* \"contracts/GRB.sol\":14966:14973  uint256 */\n      0x00\n        /* \"contracts/GRB.sol\":14992:15001  _balances */\n      dup1\n        /* \"contracts/GRB.sol\":14992:15010  _balances[account] */\n      0x00\n        /* \"contracts/GRB.sol\":15002:15009  account */\n      dup4\n        /* \"contracts/GRB.sol\":14992:15010  _balances[account] */\n      0xffffffffffffffffffffffffffffffffffffffff\n      and\n      0xffffffffffffffffffffffffffffffffffffffff\n      and\n      dup2\n      mstore\n      0x20\n      add\n      swap1\n      dup2\n      mstore\n      0x20\n      add\n      0x00\n      keccak256\n      sload\n        /* \"contracts/GRB.sol\":14985:15010  return _balances[account] */\n      swap1\n      pop\n        /* \"contracts/GRB.sol\":14892:15017  function balanceOf(address account) public view virtual override returns (uint256) {... */\n      swap2\n      swap1\n      pop\n      jump\t// out\n        /* \"contracts/GRB.sol\":12279:12424  function renounceOwnership() public virtual onlyOwner {... */\n    tag_74:\n        /* \"contracts/GRB.sol\":11870:11882  _msgSender() */\n      tag_166\n        /* \"contracts/GRB.sol\":11870:11880  _msgSender */\n      tag_122\n        /* \"contracts/GRB.sol\":11870:11882  _msgSender() */\n      jump\t// in\n    tag_166:\n        /* \"contracts/GRB.sol\":11859:11882  owner() == _msgSender() */\n      0xffffffffffffffffffffffffffffffffffffffff\n      and\n        /* \"contracts/GRB.sol\":11859:11866  owner() */\n      tag_167\n        /* \"contracts/GRB.sol\":11859:11864  owner */\n      tag_79\n        /* \"contracts/GRB.sol\":11859:11866  owner() */\n      jump\t// in\n    tag_167:\n        /* \"contracts/GRB.sol\":11859:11882  owner() == _msgSender() */\n      0xffffffffffffffffffffffffffffffffffffffff\n      and\n      eq\n        /* \"contracts/GRB.sol\":11851:11919  require(owner() == _msgSender(), \"Ownable: caller is not the owner\") */\n      tag_168\n      jumpi\n      mload(0x40)\n      0x08c379a000000000000000000000000000000000000000000000000000000000\n      dup2\n      mstore\n      0x04\n      add\n      tag_169\n      swap1\n      tag_161\n      jump\t// in\n    tag_169:\n      mload(0x40)\n      dup1\n      swap2\n      sub\n      swap1\n      revert\n    tag_168:\n        /* \"contracts/GRB.sol\":12385:12386  0 */\n      0x00\n        /* \"contracts/GRB.sol\":12348:12388  OwnershipTransferred(_owner, address(0)) */\n      0xffffffffffffffffffffffffffffffffffffffff\n      and\n        /* \"contracts/GRB.sol\":12369:12375  _owner */\n      0x05\n      0x01\n      swap1\n      sload\n      swap1\n      0x0100\n      exp\n      swap1\n      div\n      0xffffffffffffffffffffffffffffffffffffffff\n      and\n        /* \"contracts/GRB.sol\":12348:12388  OwnershipTransferred(_owner, address(0)) */\n      0xffffffffffffffffffffffffffffffffffffffff\n      and\n      0x8be0079c531659141344cd1fd0a4f28419497f9722a3daafe3b4186f6b6457e0\n      mload(0x40)\n      mload(0x40)\n      dup1\n      swap2\n      sub\n      swap1\n      log3\n        /* \"contracts/GRB.sol\":12415:12416  0 */\n      0x00\n        /* \"contracts/GRB.sol\":12398:12404  _owner */\n      0x05\n      0x01\n        /* \"contracts/GRB.sol\":12398:12417  _owner = address(0) */\n      0x0100\n      exp\n      dup2\n      sload\n      dup2\n      0xffffffffffffffffffffffffffffffffffffffff\n      mul\n      not\n      and\n      swap1\n      dup4\n      0xffffffffffffffffffffffffffffffffffffffff\n      and\n      mul\n      or\n      swap1\n      sstore\n      pop\n        /* \"contracts/GRB.sol\":12279:12424  function renounceOwnership() public virtual onlyOwner {... */\n      jump\t// out\n        /* \"contracts/GRB.sol\":22877:23167  function burnFrom(address account, uint256 amount) public virtual {... */\n    tag_77:\n        /* \"contracts/GRB.sol\":22953:22979  uint256 decreasedAllowance */\n      0x00\n        /* \"contracts/GRB.sol\":22982:23066  allowance(account, _msgSender()).sub(amount, \"ERC20: burn amount exceeds allowance\") */\n      tag_172\n        /* \"contracts/GRB.sol\":23019:23025  amount */\n      dup3\n        /* \"contracts/GRB.sol\":22982:23066  allowance(account, _msgSender()).sub(amount, \"ERC20: burn amount exceeds allowance\") */\n      mload(0x40)\n      dup1\n      0x60\n      add\n      0x40\n      mstore\n      dup1\n      0x24\n      dup2\n      mstore\n      0x20\n      add\n      data_a287c363786607a1457a2d9d12fa61c0073358e02d76b4035fc2c2d86a19c0db\n      0x24\n      swap2\n      codecopy\n        /* \"contracts/GRB.sol\":22982:23014  allowance(account, _msgSender()) */\n      tag_173\n        /* \"contracts/GRB.sol\":22992:22999  account */\n      dup7\n        /* \"contracts/GRB.sol\":23001:23013  _msgSender() */\n      tag_174\n        /* \"contracts/GRB.sol\":23001:23011  _msgSender */\n      tag_122\n        /* \"contracts/GRB.sol\":23001:23013  _msgSender() */\n      jump\t// in\n    tag_174:\n        /* \"contracts/GRB.sol\":22982:22991  allowance */\n      tag_106\n        /* \"contracts/GRB.sol\":22982:23014  allowance(account, _msgSender()) */\n      jump\t// in\n    tag_173:\n        /* \"contracts/GRB.sol\":22982:23018  allowance(account, _msgSender()).sub */\n      tag_132\n      swap1\n        /* \"contracts/GRB.sol\":22982:23066  allowance(account, _msgSender()).sub(amount, \"ERC20: burn amount exceeds allowance\") */\n      swap3\n      swap2\n      swap1\n      0xffffffff\n      and\n      jump\t// in\n    tag_172:\n        /* \"contracts/GRB.sol\":22953:23066  uint256 decreasedAllowance = allowance(account, _msgSender()).sub(amount, \"ERC20: burn amount exceeds allowance\") */\n      swap1\n      pop\n        /* \"contracts/GRB.sol\":23077:23128  _approve(account, _msgSender(), decreasedAllowance) */\n      tag_175\n        /* \"contracts/GRB.sol\":23086:23093  account */\n      dup4\n        /* \"contracts/GRB.sol\":23095:23107  _msgSender() */\n      tag_176\n        /* \"contracts/GRB.sol\":23095:23105  _msgSender */\n      tag_122\n        /* \"contracts/GRB.sol\":23095:23107  _msgSender() */\n      jump\t// in\n    tag_176:\n        /* \"contracts/GRB.sol\":23109:23127  decreasedAllowance */\n      dup4\n        /* \"contracts/GRB.sol\":23077:23085  _approve */\n      tag_123\n        /* \"contracts/GRB.sol\":23077:23128  _approve(account, _msgSender(), decreasedAllowance) */\n      jump\t// in\n    tag_175:\n        /* \"contracts/GRB.sol\":23138:23160  _burn(account, amount) */\n      tag_177\n        /* \"contracts/GRB.sol\":23144:23151  account */\n      dup4\n        /* \"contracts/GRB.sol\":23153:23159  amount */\n      dup4\n        /* \"contracts/GRB.sol\":23138:23143  _burn */\n      tag_155\n        /* \"contracts/GRB.sol\":23138:23160  _burn(account, amount) */\n      jump\t// in\n    tag_177:\n        /* \"contracts/GRB.sol\":22943:23167  {... */\n      pop\n        /* \"contracts/GRB.sol\":22877:23167  function burnFrom(address account, uint256 amount) public virtual {... */\n      pop\n      pop\n      jump\t// out\n        /* \"contracts/GRB.sol\":11647:11732  function owner() public view virtual returns (address) {... */\n    tag_79:\n        /* \"contracts/GRB.sol\":11693:11700  address */\n      0x00\n        /* \"contracts/GRB.sol\":11719:11725  _owner */\n      0x05\n      0x01\n      swap1\n      sload\n      swap1\n      0x0100\n      exp\n      swap1\n      div\n      0xffffffffffffffffffffffffffffffffffffffff\n      and\n        /* \"contracts/GRB.sol\":11712:11725  return _owner */\n      swap1\n      pop\n        /* \"contracts/GRB.sol\":11647:11732  function owner() public view virtual returns (address) {... */\n      swap1\n      jump\t// out\n        /* \"contracts/GRB.sol\":13863:13956  function symbol() public view virtual returns (string memory) {... */\n    tag_83:\n        /* \"contracts/GRB.sol\":13910:13923  string memory */\n      0x60\n        /* \"contracts/GRB.sol\":13942:13949  _symbol */\n      0x04\n        /* \"contracts/GRB.sol\":13935:13949  return _symbol */\n      dup1\n      sload\n      tag_180\n      swap1\n      tag_114\n      jump\t// in\n    tag_180:\n      dup1\n      0x1f\n      add\n      0x20\n      dup1\n      swap2\n      div\n      mul\n      0x20\n      add\n      mload(0x40)\n      swap1\n      dup2\n      add\n      0x40\n      mstore\n      dup1\n      swap3\n      swap2\n      swap1\n      dup2\n      dup2\n      mstore\n      0x20\n      add\n      dup3\n      dup1\n      sload\n      tag_181\n      swap1\n      tag_114\n      jump\t// in\n    tag_181:\n      dup1\n      iszero\n      tag_182\n      jumpi\n      dup1\n      0x1f\n      lt\n      tag_183\n      jumpi\n      0x0100\n      dup1\n      dup4\n      sload\n      div\n      mul\n      dup4\n      mstore\n      swap2\n      0x20\n      add\n      swap2\n      jump(tag_182)\n    tag_183:\n      dup3\n      add\n      swap2\n      swap1\n      0x00\n      mstore\n      keccak256(0x00, 0x20)\n      swap1\n    tag_184:\n      dup2\n      sload\n      dup2\n      mstore\n      swap1\n      0x01\n      add\n      swap1\n      0x20\n      add\n      dup1\n      dup4\n      gt\n      tag_184\n      jumpi\n      dup3\n      swap1\n      sub\n      0x1f\n      and\n      dup3\n      add\n      swap2\n    tag_182:\n      pop\n      pop\n      pop\n      pop\n      pop\n      swap1\n      pop\n        /* \"contracts/GRB.sol\":13863:13956  function symbol() public view virtual returns (string memory) {... */\n      swap1\n      jump\t// out\n        /* \"contracts/GRB.sol\":17784:18050  function decreaseAllowance(address spender, uint256 subtractedValue) public virtual returns (bool) {... */\n    tag_87:\n        /* \"contracts/GRB.sol\":17877:17881  bool */\n      0x00\n        /* \"contracts/GRB.sol\":17893:18022  _approve(_msgSender(), spender, _allowances[_msgSender()][spender].sub(subtractedValue, \"ERC20: decreased allowance below zero\")) */\n      tag_186\n        /* \"contracts/GRB.sol\":17902:17914  _msgSender() */\n      tag_187\n        /* \"contracts/GRB.sol\":17902:17912  _msgSender */\n      tag_122\n        /* \"contracts/GRB.sol\":17902:17914  _msgSender() */\n      jump\t// in\n    tag_187:\n        /* \"contracts/GRB.sol\":17916:17923  spender */\n      dup5\n        /* \"contracts/GRB.sol\":17925:18021  _allowances[_msgSender()][spender].sub(subtractedValue, \"ERC20: decreased allowance below zero\") */\n      tag_188\n        /* \"contracts/GRB.sol\":17964:17979  subtractedValue */\n      dup6\n        /* \"contracts/GRB.sol\":17925:18021  _allowances[_msgSender()][spender].sub(subtractedValue, \"ERC20: decreased allowance below zero\") */\n      mload(0x40)\n      dup1\n      0x60\n      add\n      0x40\n      mstore\n      dup1\n      0x25\n      dup2\n      mstore\n      0x20\n      add\n      data_f8b476f7d28209d77d4a4ac1fe36b9f8259aa1bb6bddfa6e89de7e51615cf8a8\n      0x25\n      swap2\n      codecopy\n        /* \"contracts/GRB.sol\":17925:17936  _allowances */\n      0x01\n        /* \"contracts/GRB.sol\":17925:17950  _allowances[_msgSender()] */\n      0x00\n        /* \"contracts/GRB.sol\":17937:17949  _msgSender() */\n      tag_189\n        /* \"contracts/GRB.sol\":17937:17947  _msgSender */\n      tag_122\n        /* \"contracts/GRB.sol\":17937:17949  _msgSender() */\n      jump\t// in\n    tag_189:\n        /* \"contracts/GRB.sol\":17925:17950  _allowances[_msgSender()] */\n      0xffffffffffffffffffffffffffffffffffffffff\n      and\n      0xffffffffffffffffffffffffffffffffffffffff\n      and\n      dup2\n      mstore\n      0x20\n      add\n      swap1\n      dup2\n      mstore\n      0x20\n      add\n      0x00\n      keccak256\n        /* \"contracts/GRB.sol\":17925:17959  _allowances[_msgSender()][spender] */\n      0x00\n        /* \"contracts/GRB.sol\":17951:17958  spender */\n      dup11\n        /* \"contracts/GRB.sol\":17925:17959  _allowances[_msgSender()][spender] */\n      0xffffffffffffffffffffffffffffffffffffffff\n      and\n      0xffffffffffffffffffffffffffffffffffffffff\n      and\n      dup2\n      mstore\n      0x20\n      add\n      swap1\n      dup2\n      mstore\n      0x20\n      add\n      0x00\n      keccak256\n      sload\n        /* \"contracts/GRB.sol\":17925:17963  _allowances[_msgSender()][spender].sub */\n      tag_132\n      swap1\n        /* \"contracts/GRB.sol\":17925:18021  _allowances[_msgSender()][spender].sub(subtractedValue, \"ERC20: decreased allowance below zero\") */\n      swap3\n      swap2\n      swap1\n      0xffffffff\n      and\n      jump\t// in\n    tag_188:\n        /* \"contracts/GRB.sol\":17893:17901  _approve */\n      tag_123\n        /* \"contracts/GRB.sol\":17893:18022  _approve(_msgSender(), spender, _allowances[_msgSender()][spender].sub(subtractedValue, \"ERC20: decreased allowance below zero\")) */\n      jump\t// in\n    tag_186:\n        /* \"contracts/GRB.sol\":18039:18043  true */\n      0x01\n        /* \"contracts/GRB.sol\":18032:18043  return true */\n      swap1\n      pop\n        /* \"contracts/GRB.sol\":17784:18050  function decreaseAllowance(address spender, uint256 subtractedValue) public virtual returns (bool) {... */\n      swap3\n      swap2\n      pop\n      pop\n      jump\t// out\n        /* \"contracts/GRB.sol\":15220:15392  function transfer(address recipient, uint256 amount) public virtual override returns (bool) {... */\n    tag_91:\n        /* \"contracts/GRB.sol\":15306:15310  bool */\n      0x00\n        /* \"contracts/GRB.sol\":15322:15364  _transfer(_msgSender(), recipient, amount) */\n      tag_191\n        /* \"contracts/GRB.sol\":15332:15344  _msgSender() */\n      tag_192\n        /* \"contracts/GRB.sol\":15332:15342  _msgSender */\n      tag_122\n        /* \"contracts/GRB.sol\":15332:15344  _msgSender() */\n      jump\t// in\n    tag_192:\n        /* \"contracts/GRB.sol\":15346:15355  recipient */\n      dup5\n        /* \"contracts/GRB.sol\":15357:15363  amount */\n      dup5\n        /* \"contracts/GRB.sol\":15322:15331  _transfer */\n      tag_127\n        /* \"contracts/GRB.sol\":15322:15364  _transfer(_msgSender(), recipient, amount) */\n      jump\t// in\n    tag_191:\n        /* \"contracts/GRB.sol\":15381:15385  true */\n      0x01\n        /* \"contracts/GRB.sol\":15374:15385  return true */\n      swap1\n      pop\n        /* \"contracts/GRB.sol\":15220:15392  function transfer(address recipient, uint256 amount) public virtual override returns (bool) {... */\n      swap3\n      swap2\n      pop\n      pop\n      jump\t// out\n        /* \"contracts/GRB.sol\":23248:23288  mapping(address => bool) public isMinter */\n    tag_95:\n      mstore(0x20, 0x06)\n      dup1\n      0x00\n      mstore\n      keccak256(0x00, 0x40)\n      0x00\n      swap2\n      pop\n      sload\n      swap1\n      0x0100\n      exp\n      swap1\n      div\n      0xff\n      and\n      dup2\n      jump\t// out\n        /* \"contracts/GRB.sol\":24665:24826  function assignMinterRole(address _account) public onlyOwner {... */\n    tag_99:\n        /* \"contracts/GRB.sol\":11870:11882  _msgSender() */\n      tag_194\n        /* \"contracts/GRB.sol\":11870:11880  _msgSender */\n      tag_122\n        /* \"contracts/GRB.sol\":11870:11882  _msgSender() */\n      jump\t// in\n    tag_194:\n        /* \"contracts/GRB.sol\":11859:11882  owner() == _msgSender() */\n      0xffffffffffffffffffffffffffffffffffffffff\n      and\n        /* \"contracts/GRB.sol\":11859:11866  owner() */\n      tag_195\n        /* \"contracts/GRB.sol\":11859:11864  owner */\n      tag_79\n        /* \"contracts/GRB.sol\":11859:11866  owner() */\n      jump\t// in\n    tag_195:\n        /* \"contracts/GRB.sol\":11859:11882  owner() == _msgSender() */\n      0xffffffffffffffffffffffffffffffffffffffff\n      and\n      eq\n        /* \"contracts/GRB.sol\":11851:11919  require(owner() == _msgSender(), \"Ownable: caller is not the owner\") */\n      tag_196\n      jumpi\n      mload(0x40)\n      0x08c379a000000000000000000000000000000000000000000000000000000000\n      dup2\n      mstore\n      0x04\n      add\n      tag_197\n      swap1\n      tag_161\n      jump\t// in\n    tag_197:\n      mload(0x40)\n      dup1\n      swap2\n      sub\n      swap1\n      revert\n    tag_196:\n        /* \"contracts/GRB.sol\":24757:24761  true */\n      0x01\n        /* \"contracts/GRB.sol\":24736:24744  isMinter */\n      0x06\n        /* \"contracts/GRB.sol\":24736:24754  isMinter[_account] */\n      0x00\n        /* \"contracts/GRB.sol\":24745:24753  _account */\n      dup4\n        /* \"contracts/GRB.sol\":24736:24754  isMinter[_account] */\n      0xffffffffffffffffffffffffffffffffffffffff\n      and\n      0xffffffffffffffffffffffffffffffffffffffff\n      and\n      dup2\n      mstore\n      0x20\n      add\n      swap1\n      dup2\n      mstore\n      0x20\n      add\n      0x00\n      keccak256\n      0x00\n        /* \"contracts/GRB.sol\":24736:24761  isMinter[_account] = true */\n      0x0100\n      exp\n      dup2\n      sload\n      dup2\n      0xff\n      mul\n      not\n      and\n      swap1\n      dup4\n      iszero\n      iszero\n      mul\n      or\n      swap1\n      sstore\n      pop\n        /* \"contracts/GRB.sol\":24810:24818  _account */\n      dup1\n        /* \"contracts/GRB.sol\":24777:24819  MinterRoleAssigned(_msgSender(), _account) */\n      0xffffffffffffffffffffffffffffffffffffffff\n      and\n        /* \"contracts/GRB.sol\":24796:24808  _msgSender() */\n      tag_199\n        /* \"contracts/GRB.sol\":24796:24806  _msgSender */\n      tag_122\n        /* \"contracts/GRB.sol\":24796:24808  _msgSender() */\n      jump\t// in\n    tag_199:\n        /* \"contracts/GRB.sol\":24777:24819  MinterRoleAssigned(_msgSender(), _account) */\n      0xffffffffffffffffffffffffffffffffffffffff\n      and\n      0x3d897ffa5fd59890ed4634aba2661baba4671f396e0050bbe8cc6549a4f14c44\n      mload(0x40)\n      mload(0x40)\n      dup1\n      swap2\n      sub\n      swap1\n      log3\n        /* \"contracts/GRB.sol\":24665:24826  function assignMinterRole(address _account) public onlyOwner {... */\n      pop\n      jump\t// out\n        /* \"contracts/GRB.sol\":23336:23366  uint256 public totalBurned = 0 */\n    tag_101:\n      sload(0x07)\n      dup2\n      jump\t// out\n        /* \"contracts/GRB.sol\":15450:15599  function allowance(address owner, address spender) public view virtual override returns (uint256) {... */\n    tag_106:\n        /* \"contracts/GRB.sol\":15539:15546  uint256 */\n      0x00\n        /* \"contracts/GRB.sol\":15565:15576  _allowances */\n      0x01\n        /* \"contracts/GRB.sol\":15565:15583  _allowances[owner] */\n      0x00\n        /* \"contracts/GRB.sol\":15577:15582  owner */\n      dup5\n        /* \"contracts/GRB.sol\":15565:15583  _allowances[owner] */\n      0xffffffffffffffffffffffffffffffffffffffff\n      and\n      0xffffffffffffffffffffffffffffffffffffffff\n      and\n      dup2\n      mstore\n      0x20\n      add\n      swap1\n      dup2\n      mstore\n      0x20\n      add\n      0x00\n      keccak256\n        /* \"contracts/GRB.sol\":15565:15592  _allowances[owner][spender] */\n      0x00\n        /* \"contracts/GRB.sol\":15584:15591  spender */\n      dup4\n        /* \"contracts/GRB.sol\":15565:15592  _allowances[owner][spender] */\n      0xffffffffffffffffffffffffffffffffffffffff\n      and\n      0xffffffffffffffffffffffffffffffffffffffff\n      and\n      dup2\n      mstore\n      0x20\n      add\n      swap1\n      dup2\n      mstore\n      0x20\n      add\n      0x00\n      keccak256\n      sload\n        /* \"contracts/GRB.sol\":15558:15592  return _allowances[owner][spender] */\n      swap1\n      pop\n        /* \"contracts/GRB.sol\":15450:15599  function allowance(address owner, address spender) public view virtual override returns (uint256) {... */\n      swap3\n      swap2\n      pop\n      pop\n      jump\t// out\n        /* \"contracts/GRB.sol\":12573:12813  function transferOwnership(address newOwner) public virtual onlyOwner {... */\n    tag_110:\n        /* \"contracts/GRB.sol\":11870:11882  _msgSender() */\n      tag_202\n        /* \"contracts/GRB.sol\":11870:11880  _msgSender */\n      tag_122\n        /* \"contracts/GRB.sol\":11870:11882  _msgSender() */\n      jump\t// in\n    tag_202:\n        /* \"contracts/GRB.sol\":11859:11882  owner() == _msgSender() */\n      0xffffffffffffffffffffffffffffffffffffffff\n      and\n        /* \"contracts/GRB.sol\":11859:11866  owner() */\n      tag_203\n        /* \"contracts/GRB.sol\":11859:11864  owner */\n      tag_79\n        /* \"contracts/GRB.sol\":11859:11866  owner() */\n      jump\t// in\n    tag_203:\n        /* \"contracts/GRB.sol\":11859:11882  owner() == _msgSender() */\n      0xffffffffffffffffffffffffffffffffffffffff\n      and\n      eq\n        /* \"contracts/GRB.sol\":11851:11919  require(owner() == _msgSender(), \"Ownable: caller is not the owner\") */\n      tag_204\n      jumpi\n      mload(0x40)\n      0x08c379a000000000000000000000000000000000000000000000000000000000\n      dup2\n      mstore\n      0x04\n      add\n      tag_205\n      swap1\n      tag_161\n      jump\t// in\n    tag_205:\n      mload(0x40)\n      dup1\n      swap2\n      sub\n      swap1\n      revert\n    tag_204:\n        /* \"contracts/GRB.sol\":12681:12682  0 */\n      0x00\n        /* \"contracts/GRB.sol\":12661:12683  newOwner != address(0) */\n      0xffffffffffffffffffffffffffffffffffffffff\n      and\n        /* \"contracts/GRB.sol\":12661:12669  newOwner */\n      dup2\n        /* \"contracts/GRB.sol\":12661:12683  newOwner != address(0) */\n      0xffffffffffffffffffffffffffffffffffffffff\n      and\n      eq\n      iszero\n        /* \"contracts/GRB.sol\":12653:12726  require(newOwner != address(0), \"Ownable: new owner is the zero address\") */\n      tag_207\n      jumpi\n      mload(0x40)\n      0x08c379a000000000000000000000000000000000000000000000000000000000\n      dup2\n      mstore\n      0x04\n      add\n      tag_208\n      swap1\n      tag_209\n      jump\t// in\n    tag_208:\n      mload(0x40)\n      dup1\n      swap2\n      sub\n      swap1\n      revert\n    tag_207:\n        /* \"contracts/GRB.sol\":12770:12778  newOwner */\n      dup1\n        /* \"contracts/GRB.sol\":12741:12779  OwnershipTransferred(_owner, newOwner) */\n      0xffffffffffffffffffffffffffffffffffffffff\n      and\n        /* \"contracts/GRB.sol\":12762:12768  _owner */\n      0x05\n      0x01\n      swap1\n      sload\n      swap1\n      0x0100\n      exp\n      swap1\n      div\n      0xffffffffffffffffffffffffffffffffffffffff\n      and\n        /* \"contracts/GRB.sol\":12741:12779  OwnershipTransferred(_owner, newOwner) */\n      0xffffffffffffffffffffffffffffffffffffffff\n      and\n      0x8be0079c531659141344cd1fd0a4f28419497f9722a3daafe3b4186f6b6457e0\n      mload(0x40)\n      mload(0x40)\n      dup1\n      swap2\n      sub\n      swap1\n      log3\n        /* \"contracts/GRB.sol\":12798:12806  newOwner */\n      dup1\n        /* \"contracts/GRB.sol\":12789:12795  _owner */\n      0x05\n      0x01\n        /* \"contracts/GRB.sol\":12789:12806  _owner = newOwner */\n      0x0100\n      exp\n      dup2\n      sload\n      dup2\n      0xffffffffffffffffffffffffffffffffffffffff\n      mul\n      not\n      and\n      swap1\n      dup4\n      0xffffffffffffffffffffffffffffffffffffffff\n      and\n      mul\n      or\n      swap1\n      sstore\n      pop\n        /* \"contracts/GRB.sol\":12573:12813  function transferOwnership(address newOwner) public virtual onlyOwner {... */\n      pop\n      jump\t// out\n        /* \"contracts/GRB.sol\":2682:2857  function add(uint256 a, uint256 b) internal pure returns (uint256) {... */\n    tag_111:\n        /* \"contracts/GRB.sol\":2740:2747  uint256 */\n      0x00\n        /* \"contracts/GRB.sol\":2759:2768  uint256 c */\n      dup1\n        /* \"contracts/GRB.sol\":2775:2776  b */\n      dup3\n        /* \"contracts/GRB.sol\":2771:2772  a */\n      dup5\n        /* \"contracts/GRB.sol\":2771:2776  a + b */\n      tag_211\n      swap2\n      swap1\n      tag_212\n      jump\t// in\n    tag_211:\n        /* \"contracts/GRB.sol\":2759:2776  uint256 c = a + b */\n      swap1\n      pop\n        /* \"contracts/GRB.sol\":2799:2800  a */\n      dup4\n        /* \"contracts/GRB.sol\":2794:2795  c */\n      dup2\n        /* \"contracts/GRB.sol\":2794:2800  c >= a */\n      lt\n      iszero\n        /* \"contracts/GRB.sol\":2786:2832  require(c >= a, \"SafeMath: addition overflow\") */\n      tag_213\n      jumpi\n      mload(0x40)\n      0x08c379a000000000000000000000000000000000000000000000000000000000\n      dup2\n      mstore\n      0x04\n      add\n      tag_214\n      swap1\n      tag_215\n      jump\t// in\n    tag_214:\n      mload(0x40)\n      dup1\n      swap2\n      sub\n      swap1\n      revert\n    tag_213:\n        /* \"contracts/GRB.sol\":2849:2850  c */\n      dup1\n        /* \"contracts/GRB.sol\":2842:2850  return c */\n      swap2\n      pop\n      pop\n        /* \"contracts/GRB.sol\":2682:2857  function add(uint256 a, uint256 b) internal pure returns (uint256) {... */\n      swap3\n      swap2\n      pop\n      pop\n      jump\t// out\n        /* \"contracts/GRB.sol\":10316:10429  function _msgSender() internal view virtual returns (address payable) {... */\n    tag_122:\n        /* \"contracts/GRB.sol\":10369:10384  address payable */\n      0x00\n        /* \"contracts/GRB.sol\":10411:10421  msg.sender */\n      caller\n        /* \"contracts/GRB.sol\":10396:10422  return payable(msg.sender) */\n      swap1\n      pop\n        /* \"contracts/GRB.sol\":10316:10429  function _msgSender() internal view virtual returns (address payable) {... */\n      swap1\n      jump\t// out\n        /* \"contracts/GRB.sol\":20848:21188  function _approve(address owner, address spender, uint256 amount) internal virtual {... */\n    tag_123:\n        /* \"contracts/GRB.sol\":20966:20967  0 */\n      0x00\n        /* \"contracts/GRB.sol\":20949:20968  owner != address(0) */\n      0xffffffffffffffffffffffffffffffffffffffff\n      and\n        /* \"contracts/GRB.sol\":20949:20954  owner */\n      dup4\n        /* \"contracts/GRB.sol\":20949:20968  owner != address(0) */\n      0xffffffffffffffffffffffffffffffffffffffff\n      and\n      eq\n      iszero\n        /* \"contracts/GRB.sol\":20941:21009  require(owner != address(0), \"ERC20: approve from the zero address\") */\n      tag_218\n      jumpi\n      mload(0x40)\n      0x08c379a000000000000000000000000000000000000000000000000000000000\n      dup2\n      mstore\n      0x04\n      add\n      tag_219\n      swap1\n      tag_220\n      jump\t// in\n    tag_219:\n      mload(0x40)\n      dup1\n      swap2\n      sub\n      swap1\n      revert\n    tag_218:\n        /* \"contracts/GRB.sol\":21046:21047  0 */\n      0x00\n        /* \"contracts/GRB.sol\":21027:21048  spender != address(0) */\n      0xffffffffffffffffffffffffffffffffffffffff\n      and\n        /* \"contracts/GRB.sol\":21027:21034  spender */\n      dup3\n        /* \"contracts/GRB.sol\":21027:21048  spender != address(0) */\n      0xffffffffffffffffffffffffffffffffffffffff\n      and\n      eq\n      iszero\n        /* \"contracts/GRB.sol\":21019:21087  require(spender != address(0), \"ERC20: approve to the zero address\") */\n      tag_221\n      jumpi\n      mload(0x40)\n      0x08c379a000000000000000000000000000000000000000000000000000000000\n      dup2\n      mstore\n      0x04\n      add\n      tag_222\n      swap1\n      tag_223\n      jump\t// in\n    tag_222:\n      mload(0x40)\n      dup1\n      swap2\n      sub\n      swap1\n      revert\n    tag_221:\n        /* \"contracts/GRB.sol\":21128:21134  amount */\n      dup1\n        /* \"contracts/GRB.sol\":21098:21109  _allowances */\n      0x01\n        /* \"contracts/GRB.sol\":21098:21116  _allowances[owner] */\n      0x00\n        /* \"contracts/GRB.sol\":21110:21115  owner */\n      dup6\n        /* \"contracts/GRB.sol\":21098:21116  _allowances[owner] */\n      0xffffffffffffffffffffffffffffffffffffffff\n      and\n      0xffffffffffffffffffffffffffffffffffffffff\n      and\n      dup2\n      mstore\n      0x20\n      add\n      swap1\n      dup2\n      mstore\n      0x20\n      add\n      0x00\n      keccak256\n        /* \"contracts/GRB.sol\":21098:21125  _allowances[owner][spender] */\n      0x00\n        /* \"contracts/GRB.sol\":21117:21124  spender */\n      dup5\n        /* \"contracts/GRB.sol\":21098:21125  _allowances[owner][spender] */\n      0xffffffffffffffffffffffffffffffffffffffff\n      and\n      0xffffffffffffffffffffffffffffffffffffffff\n      and\n      dup2\n      mstore\n      0x20\n      add\n      swap1\n      dup2\n      mstore\n      0x20\n      add\n      0x00\n      keccak256\n        /* \"contracts/GRB.sol\":21098:21134  _allowances[owner][spender] = amount */\n      dup2\n      swap1\n      sstore\n      pop\n        /* \"contracts/GRB.sol\":21165:21172  spender */\n      dup2\n        /* \"contracts/GRB.sol\":21149:21181  Approval(owner, spender, amount) */\n      0xffffffffffffffffffffffffffffffffffffffff\n      and\n        /* \"contracts/GRB.sol\":21158:21163  owner */\n      dup4\n        /* \"contracts/GRB.sol\":21149:21181  Approval(owner, spender, amount) */\n      0xffffffffffffffffffffffffffffffffffffffff\n      and\n      0x8c5be1e5ebec7d5bd14f71427d1e84f3dd0314c0f7b2291e5b200ac8c7c3b925\n        /* \"contracts/GRB.sol\":21174:21180  amount */\n      dup4\n        /* \"contracts/GRB.sol\":21149:21181  Approval(owner, spender, amount) */\n      mload(0x40)\n      tag_224\n      swap2\n      swap1\n      tag_41\n      jump\t// in\n    tag_224:\n      mload(0x40)\n      dup1\n      swap2\n      sub\n      swap1\n      log3\n        /* \"contracts/GRB.sol\":20848:21188  function _approve(address owner, address spender, uint256 amount) internal virtual {... */\n      pop\n      pop\n      pop\n      jump\t// out\n        /* \"contracts/GRB.sol\":18524:19054  function _transfer(address sender, address recipient, uint256 amount) internal virtual {... */\n    tag_127:\n        /* \"contracts/GRB.sol\":18647:18648  0 */\n      0x00\n        /* \"contracts/GRB.sol\":18629:18649  sender != address(0) */\n      0xffffffffffffffffffffffffffffffffffffffff\n      and\n        /* \"contracts/GRB.sol\":18629:18635  sender */\n      dup4\n        /* \"contracts/GRB.sol\":18629:18649  sender != address(0) */\n      0xffffffffffffffffffffffffffffffffffffffff\n      and\n      eq\n      iszero\n        /* \"contracts/GRB.sol\":18621:18691  require(sender != address(0), \"ERC20: transfer from the zero address\") */\n      tag_226\n      jumpi\n      mload(0x40)\n      0x08c379a000000000000000000000000000000000000000000000000000000000\n      dup2\n      mstore\n      0x04\n      add\n      tag_227\n      swap1\n      tag_228\n      jump\t// in\n    tag_227:\n      mload(0x40)\n      dup1\n      swap2\n      sub\n      swap1\n      revert\n    tag_226:\n        /* \"contracts/GRB.sol\":18730:18731  0 */\n      0x00\n        /* \"contracts/GRB.sol\":18709:18732  recipient != address(0) */\n      0xffffffffffffffffffffffffffffffffffffffff\n      and\n        /* \"contracts/GRB.sol\":18709:18718  recipient */\n      dup3\n        /* \"contracts/GRB.sol\":18709:18732  recipient != address(0) */\n      0xffffffffffffffffffffffffffffffffffffffff\n      and\n      eq\n      iszero\n        /* \"contracts/GRB.sol\":18701:18772  require(recipient != address(0), \"ERC20: transfer to the zero address\") */\n      tag_229\n      jumpi\n      mload(0x40)\n      0x08c379a000000000000000000000000000000000000000000000000000000000\n      dup2\n      mstore\n      0x04\n      add\n      tag_230\n      swap1\n      tag_231\n      jump\t// in\n    tag_230:\n      mload(0x40)\n      dup1\n      swap2\n      sub\n      swap1\n      revert\n    tag_229:\n        /* \"contracts/GRB.sol\":18783:18830  _beforeTokenTransfer(sender, recipient, amount) */\n      tag_232\n        /* \"contracts/GRB.sol\":18804:18810  sender */\n      dup4\n        /* \"contracts/GRB.sol\":18812:18821  recipient */\n      dup4\n        /* \"contracts/GRB.sol\":18823:18829  amount */\n      dup4\n        /* \"contracts/GRB.sol\":18783:18803  _beforeTokenTransfer */\n      tag_233\n        /* \"contracts/GRB.sol\":18783:18830  _beforeTokenTransfer(sender, recipient, amount) */\n      jump\t// in\n    tag_232:\n        /* \"contracts/GRB.sol\":18861:18932  _balances[sender].sub(amount, \"ERC20: transfer amount exceeds balance\") */\n      tag_234\n        /* \"contracts/GRB.sol\":18883:18889  amount */\n      dup2\n        /* \"contracts/GRB.sol\":18861:18932  _balances[sender].sub(amount, \"ERC20: transfer amount exceeds balance\") */\n      mload(0x40)\n      dup1\n      0x60\n      add\n      0x40\n      mstore\n      dup1\n      0x26\n      dup2\n      mstore\n      0x20\n      add\n      data_4107e8a8b9e94bf8ff83080ddec1c0bffe897ebc2241b89d44f66b3d274088b6\n      0x26\n      swap2\n      codecopy\n        /* \"contracts/GRB.sol\":18861:18870  _balances */\n      0x00\n        /* \"contracts/GRB.sol\":18861:18878  _balances[sender] */\n      dup1\n        /* \"contracts/GRB.sol\":18871:18877  sender */\n      dup8\n        /* \"contracts/GRB.sol\":18861:18878  _balances[sender] */\n      0xffffffffffffffffffffffffffffffffffffffff\n      and\n      0xffffffffffffffffffffffffffffffffffffffff\n      and\n      dup2\n      mstore\n      0x20\n      add\n      swap1\n      dup2\n      mstore\n      0x20\n      add\n      0x00\n      keccak256\n      sload\n        /* \"contracts/GRB.sol\":18861:18882  _balances[sender].sub */\n      tag_132\n      swap1\n        /* \"contracts/GRB.sol\":18861:18932  _balances[sender].sub(amount, \"ERC20: transfer amount exceeds balance\") */\n      swap3\n      swap2\n      swap1\n      0xffffffff\n      and\n      jump\t// in\n    tag_234:\n        /* \"contracts/GRB.sol\":18841:18850  _balances */\n      0x00\n        /* \"contracts/GRB.sol\":18841:18858  _balances[sender] */\n      dup1\n        /* \"contracts/GRB.sol\":18851:18857  sender */\n      dup6\n        /* \"contracts/GRB.sol\":18841:18858  _balances[sender] */\n      0xffffffffffffffffffffffffffffffffffffffff\n      and\n      0xffffffffffffffffffffffffffffffffffffffff\n      and\n      dup2\n      mstore\n      0x20\n      add\n      swap1\n      dup2\n      mstore\n      0x20\n      add\n      0x00\n      keccak256\n        /* \"contracts/GRB.sol\":18841:18932  _balances[sender] = _balances[sender].sub(amount, \"ERC20: transfer amount exceeds balance\") */\n      dup2\n      swap1\n      sstore\n      pop\n        /* \"contracts/GRB.sol\":18965:18997  _balances[recipient].add(amount) */\n      tag_235\n        /* \"contracts/GRB.sol\":18990:18996  amount */\n      dup2\n        /* \"contracts/GRB.sol\":18965:18974  _balances */\n      0x00\n        /* \"contracts/GRB.sol\":18965:18985  _balances[recipient] */\n      dup1\n        /* \"contracts/GRB.sol\":18975:18984  recipient */\n      dup6\n        /* \"contracts/GRB.sol\":18965:18985  _balances[recipient] */\n      0xffffffffffffffffffffffffffffffffffffffff\n      and\n      0xffffffffffffffffffffffffffffffffffffffff\n      and\n      dup2\n      mstore\n      0x20\n      add\n      swap1\n      dup2\n      mstore\n      0x20\n      add\n      0x00\n      keccak256\n      sload\n        /* \"contracts/GRB.sol\":18965:18989  _balances[recipient].add */\n      tag_111\n      swap1\n        /* \"contracts/GRB.sol\":18965:18997  _balances[recipient].add(amount) */\n      swap2\n      swap1\n      0xffffffff\n      and\n      jump\t// in\n    tag_235:\n        /* \"contracts/GRB.sol\":18942:18951  _balances */\n      0x00\n        /* \"contracts/GRB.sol\":18942:18962  _balances[recipient] */\n      dup1\n        /* \"contracts/GRB.sol\":18952:18961  recipient */\n      dup5\n        /* \"contracts/GRB.sol\":18942:18962  _balances[recipient] */\n      0xffffffffffffffffffffffffffffffffffffffff\n      and\n      0xffffffffffffffffffffffffffffffffffffffff\n      and\n      dup2\n      mstore\n      0x20\n      add\n      swap1\n      dup2\n      mstore\n      0x20\n      add\n      0x00\n      keccak256\n        /* \"contracts/GRB.sol\":18942:18997  _balances[recipient] = _balances[recipient].add(amount) */\n      dup2\n      swap1\n      sstore\n      pop\n        /* \"contracts/GRB.sol\":19029:19038  recipient */\n      dup2\n        /* \"contracts/GRB.sol\":19012:19047  Transfer(sender, recipient, amount) */\n      0xffffffffffffffffffffffffffffffffffffffff\n      and\n        /* \"contracts/GRB.sol\":19021:19027  sender */\n      dup4\n        /* \"contracts/GRB.sol\":19012:19047  Transfer(sender, recipient, amount) */\n      0xffffffffffffffffffffffffffffffffffffffff\n      and\n      0xddf252ad1be2c89b69c2b068fc378daa952ba7f163c4a11628f55a4df523b3ef\n        /* \"contracts/GRB.sol\":19040:19046  amount */\n      dup4\n        /* \"contracts/GRB.sol\":19012:19047  Transfer(sender, recipient, amount) */\n      mload(0x40)\n      tag_236\n      swap2\n      swap1\n      tag_41\n      jump\t// in\n    tag_236:\n      mload(0x40)\n      dup1\n      swap2\n      sub\n      swap1\n      log3\n        /* \"contracts/GRB.sol\":18524:19054  function _transfer(address sender, address recipient, uint256 amount) internal virtual {... */\n      pop\n      pop\n      pop\n      jump\t// out\n        /* \"contracts/GRB.sol\":5424:5587  function sub(uint256 a, uint256 b, string memory errorMessage) internal pure returns (uint256) {... */\n    tag_132:\n        /* \"contracts/GRB.sol\":5510:5517  uint256 */\n      0x00\n        /* \"contracts/GRB.sol\":5542:5543  a */\n      dup4\n        /* \"contracts/GRB.sol\":5537:5538  b */\n      dup4\n        /* \"contracts/GRB.sol\":5537:5543  b <= a */\n      gt\n      iszero\n        /* \"contracts/GRB.sol\":5545:5557  errorMessage */\n      dup3\n        /* \"contracts/GRB.sol\":5529:5558  require(b <= a, errorMessage) */\n      swap1\n      tag_238\n      jumpi\n      mload(0x40)\n      0x08c379a000000000000000000000000000000000000000000000000000000000\n      dup2\n      mstore\n      0x04\n      add\n      tag_239\n      swap2\n      swap1\n      tag_31\n      jump\t// in\n    tag_239:\n      mload(0x40)\n      dup1\n      swap2\n      sub\n      swap1\n      revert\n    tag_238:\n      pop\n        /* \"contracts/GRB.sol\":5579:5580  b */\n      dup3\n        /* \"contracts/GRB.sol\":5575:5576  a */\n      dup5\n        /* \"contracts/GRB.sol\":5575:5580  a - b */\n      tag_240\n      swap2\n      swap1\n      tag_241\n      jump\t// in\n    tag_240:\n        /* \"contracts/GRB.sol\":5568:5580  return a - b */\n      swap1\n      pop\n        /* \"contracts/GRB.sol\":5424:5587  function sub(uint256 a, uint256 b, string memory errorMessage) internal pure returns (uint256) {... */\n      swap4\n      swap3\n      pop\n      pop\n      pop\n      jump\t// out\n        /* \"contracts/GRB.sol\":19325:19695  function _mint(address account, uint256 amount) internal virtual {... */\n    tag_151:\n        /* \"contracts/GRB.sol\":19427:19428  0 */\n      0x00\n        /* \"contracts/GRB.sol\":19408:19429  account != address(0) */\n      0xffffffffffffffffffffffffffffffffffffffff\n      and\n        /* \"contracts/GRB.sol\":19408:19415  account */\n      dup3\n        /* \"contracts/GRB.sol\":19408:19429  account != address(0) */\n      0xffffffffffffffffffffffffffffffffffffffff\n      and\n      eq\n      iszero\n        /* \"contracts/GRB.sol\":19400:19465  require(account != address(0), \"ERC20: mint to the zero address\") */\n      tag_243\n      jumpi\n      mload(0x40)\n      0x08c379a000000000000000000000000000000000000000000000000000000000\n      dup2\n      mstore\n      0x04\n      add\n      tag_244\n      swap1\n      tag_245\n      jump\t// in\n    tag_244:\n      mload(0x40)\n      dup1\n      swap2\n      sub\n      swap1\n      revert\n    tag_243:\n        /* \"contracts/GRB.sol\":19476:19525  _beforeTokenTransfer(address(0), account, amount) */\n      tag_246\n        /* \"contracts/GRB.sol\":19505:19506  0 */\n      0x00\n        /* \"contracts/GRB.sol\":19509:19516  account */\n      dup4\n        /* \"contracts/GRB.sol\":19518:19524  amount */\n      dup4\n        /* \"contracts/GRB.sol\":19476:19496  _beforeTokenTransfer */\n      tag_233\n        /* \"contracts/GRB.sol\":19476:19525  _beforeTokenTransfer(address(0), account, amount) */\n      jump\t// in\n    tag_246:\n        /* \"contracts/GRB.sol\":19551:19575  _totalSupply.add(amount) */\n      tag_247\n        /* \"contracts/GRB.sol\":19568:19574  amount */\n      dup2\n        /* \"contracts/GRB.sol\":19551:19563  _totalSupply */\n      sload(0x02)\n        /* \"contracts/GRB.sol\":19551:19567  _totalSupply.add */\n      tag_111\n      swap1\n        /* \"contracts/GRB.sol\":19551:19575  _totalSupply.add(amount) */\n      swap2\n      swap1\n      0xffffffff\n      and\n      jump\t// in\n    tag_247:\n        /* \"contracts/GRB.sol\":19536:19548  _totalSupply */\n      0x02\n        /* \"contracts/GRB.sol\":19536:19575  _totalSupply = _totalSupply.add(amount) */\n      dup2\n      swap1\n      sstore\n      pop\n        /* \"contracts/GRB.sol\":19606:19636  _balances[account].add(amount) */\n      tag_248\n        /* \"contracts/GRB.sol\":19629:19635  amount */\n      dup2\n        /* \"contracts/GRB.sol\":19606:19615  _balances */\n      0x00\n        /* \"contracts/GRB.sol\":19606:19624  _balances[account] */\n      dup1\n        /* \"contracts/GRB.sol\":19616:19623  account */\n      dup6\n        /* \"contracts/GRB.sol\":19606:19624  _balances[account] */\n      0xffffffffffffffffffffffffffffffffffffffff\n      and\n      0xffffffffffffffffffffffffffffffffffffffff\n      and\n      dup2\n      mstore\n      0x20\n      add\n      swap1\n      dup2\n      mstore\n      0x20\n      add\n      0x00\n      keccak256\n      sload\n        /* \"contracts/GRB.sol\":19606:19628  _balances[account].add */\n      tag_111\n      swap1\n        /* \"contracts/GRB.sol\":19606:19636  _balances[account].add(amount) */\n      swap2\n      swap1\n      0xffffffff\n      and\n      jump\t// in\n    tag_248:\n        /* \"contracts/GRB.sol\":19585:19594  _balances */\n      0x00\n        /* \"contracts/GRB.sol\":19585:19603  _balances[account] */\n      dup1\n        /* \"contracts/GRB.sol\":19595:19602  account */\n      dup5\n        /* \"contracts/GRB.sol\":19585:19603  _balances[account] */\n      0xffffffffffffffffffffffffffffffffffffffff\n      and\n      0xffffffffffffffffffffffffffffffffffffffff\n      and\n      dup2\n      mstore\n      0x20\n      add\n      swap1\n      dup2\n      mstore\n      0x20\n      add\n      0x00\n      keccak256\n        /* \"contracts/GRB.sol\":19585:19636  _balances[account] = _balances[account].add(amount) */\n      dup2\n      swap1\n      sstore\n      pop\n        /* \"contracts/GRB.sol\":19672:19679  account */\n      dup2\n        /* \"contracts/GRB.sol\":19651:19688  Transfer(address(0), account, amount) */\n      0xffffffffffffffffffffffffffffffffffffffff\n      and\n        /* \"contracts/GRB.sol\":19668:19669  0 */\n      0x00\n        /* \"contracts/GRB.sol\":19651:19688  Transfer(address(0), account, amount) */\n      0xffffffffffffffffffffffffffffffffffffffff\n      and\n      0xddf252ad1be2c89b69c2b068fc378daa952ba7f163c4a11628f55a4df523b3ef\n        /* \"contracts/GRB.sol\":19681:19687  amount */\n      dup4\n        /* \"contracts/GRB.sol\":19651:19688  Transfer(address(0), account, amount) */\n      mload(0x40)\n      tag_249\n      swap2\n      swap1\n      tag_41\n      jump\t// in\n    tag_249:\n      mload(0x40)\n      dup1\n      swap2\n      sub\n      swap1\n      log3\n        /* \"contracts/GRB.sol\":19325:19695  function _mint(address account, uint256 amount) internal virtual {... */\n      pop\n      pop\n      jump\t// out\n        /* \"contracts/GRB.sol\":24089:24247  function _burn(address account, uint256 amount) internal override {... */\n    tag_155:\n        /* \"contracts/GRB.sol\":24165:24193  super._burn(account, amount) */\n      tag_251\n        /* \"contracts/GRB.sol\":24177:24184  account */\n      dup3\n        /* \"contracts/GRB.sol\":24186:24192  amount */\n      dup3\n        /* \"contracts/GRB.sol\":24165:24176  super._burn */\n      tag_252\n        /* \"contracts/GRB.sol\":24165:24193  super._burn(account, amount) */\n      jump\t// in\n    tag_251:\n        /* \"contracts/GRB.sol\":24217:24240  totalBurned.add(amount) */\n      tag_253\n        /* \"contracts/GRB.sol\":24233:24239  amount */\n      dup2\n        /* \"contracts/GRB.sol\":24217:24228  totalBurned */\n      sload(0x07)\n        /* \"contracts/GRB.sol\":24217:24232  totalBurned.add */\n      tag_111\n      swap1\n        /* \"contracts/GRB.sol\":24217:24240  totalBurned.add(amount) */\n      swap2\n      swap1\n      0xffffffff\n      and\n      jump\t// in\n    tag_253:\n        /* \"contracts/GRB.sol\":24203:24214  totalBurned */\n      0x07\n        /* \"contracts/GRB.sol\":24203:24240  totalBurned = totalBurned.add(amount) */\n      dup2\n      swap1\n      sstore\n      pop\n        /* \"contracts/GRB.sol\":24089:24247  function _burn(address account, uint256 amount) internal override {... */\n      pop\n      pop\n      jump\t// out\n        /* \"contracts/GRB.sol\":22194:22286  function _beforeTokenTransfer(address from, address to, uint256 amount) internal virtual { } */\n    tag_233:\n      pop\n      pop\n      pop\n      jump\t// out\n        /* \"contracts/GRB.sol\":20015:20425  function _burn(address account, uint256 amount) internal virtual {... */\n    tag_252:\n        /* \"contracts/GRB.sol\":20117:20118  0 */\n      0x00\n        /* \"contracts/GRB.sol\":20098:20119  account != address(0) */\n      0xffffffffffffffffffffffffffffffffffffffff\n      and\n        /* \"contracts/GRB.sol\":20098:20105  account */\n      dup3\n        /* \"contracts/GRB.sol\":20098:20119  account != address(0) */\n      0xffffffffffffffffffffffffffffffffffffffff\n      and\n      eq\n      iszero\n        /* \"contracts/GRB.sol\":20090:20157  require(account != address(0), \"ERC20: burn from the zero address\") */\n      tag_256\n      jumpi\n      mload(0x40)\n      0x08c379a000000000000000000000000000000000000000000000000000000000\n      dup2\n      mstore\n      0x04\n      add\n      tag_257\n      swap1\n      tag_258\n      jump\t// in\n    tag_257:\n      mload(0x40)\n      dup1\n      swap2\n      sub\n      swap1\n      revert\n    tag_256:\n        /* \"contracts/GRB.sol\":20168:20217  _beforeTokenTransfer(account, address(0), amount) */\n      tag_259\n        /* \"contracts/GRB.sol\":20189:20196  account */\n      dup3\n        /* \"contracts/GRB.sol\":20206:20207  0 */\n      0x00\n        /* \"contracts/GRB.sol\":20210:20216  amount */\n      dup4\n        /* \"contracts/GRB.sol\":20168:20188  _beforeTokenTransfer */\n      tag_233\n        /* \"contracts/GRB.sol\":20168:20217  _beforeTokenTransfer(account, address(0), amount) */\n      jump\t// in\n    tag_259:\n        /* \"contracts/GRB.sol\":20249:20317  _balances[account].sub(amount, \"ERC20: burn amount exceeds balance\") */\n      tag_260\n        /* \"contracts/GRB.sol\":20272:20278  amount */\n      dup2\n        /* \"contracts/GRB.sol\":20249:20317  _balances[account].sub(amount, \"ERC20: burn amount exceeds balance\") */\n      mload(0x40)\n      dup1\n      0x60\n      add\n      0x40\n      mstore\n      dup1\n      0x22\n      dup2\n      mstore\n      0x20\n      add\n      data_149b126e7125232b4200af45303d04fba8b74653b1a295a6a561a528c33fefdd\n      0x22\n      swap2\n      codecopy\n        /* \"contracts/GRB.sol\":20249:20258  _balances */\n      0x00\n        /* \"contracts/GRB.sol\":20249:20267  _balances[account] */\n      dup1\n        /* \"contracts/GRB.sol\":20259:20266  account */\n      dup7\n        /* \"contracts/GRB.sol\":20249:20267  _balances[account] */\n      0xffffffffffffffffffffffffffffffffffffffff\n      and\n      0xffffffffffffffffffffffffffffffffffffffff\n      and\n      dup2\n      mstore\n      0x20\n      add\n      swap1\n      dup2\n      mstore\n      0x20\n      add\n      0x00\n      keccak256\n      sload\n        /* \"contracts/GRB.sol\":20249:20271  _balances[account].sub */\n      tag_132\n      swap1\n        /* \"contracts/GRB.sol\":20249:20317  _balances[account].sub(amount, \"ERC20: burn amount exceeds balance\") */\n      swap3\n      swap2\n      swap1\n      0xffffffff\n      and\n      jump\t// in\n    tag_260:\n        /* \"contracts/GRB.sol\":20228:20237  _balances */\n      0x00\n        /* \"contracts/GRB.sol\":20228:20246  _balances[account] */\n      dup1\n        /* \"contracts/GRB.sol\":20238:20245  account */\n      dup5\n        /* \"contracts/GRB.sol\":20228:20246  _balances[account] */\n      0xffffffffffffffffffffffffffffffffffffffff\n      and\n      0xffffffffffffffffffffffffffffffffffffffff\n      and\n      dup2\n      mstore\n      0x20\n      add\n      swap1\n      dup2\n      mstore\n      0x20\n      add\n      0x00\n      keccak256\n        /* \"contracts/GRB.sol\":20228:20317  _balances[account] = _balances[account].sub(amount, \"ERC20: burn amount exceeds balance\") */\n      dup2\n      swap1\n      sstore\n      pop\n        /* \"contracts/GRB.sol\":20342:20366  _totalSupply.sub(amount) */\n      tag_261\n        /* \"contracts/GRB.sol\":20359:20365  amount */\n      dup2\n        /* \"contracts/GRB.sol\":20342:20354  _totalSupply */\n      sload(0x02)\n        /* \"contracts/GRB.sol\":20342:20358  _totalSupply.sub */\n      tag_262\n      swap1\n        /* \"contracts/GRB.sol\":20342:20366  _totalSupply.sub(amount) */\n      swap2\n      swap1\n      0xffffffff\n      and\n      jump\t// in\n    tag_261:\n        /* \"contracts/GRB.sol\":20327:20339  _totalSupply */\n      0x02\n        /* \"contracts/GRB.sol\":20327:20366  _totalSupply = _totalSupply.sub(amount) */\n      dup2\n      swap1\n      sstore\n      pop\n        /* \"contracts/GRB.sol\":20407:20408  0 */\n      0x00\n        /* \"contracts/GRB.sol\":20381:20418  Transfer(account, address(0), amount) */\n      0xffffffffffffffffffffffffffffffffffffffff\n      and\n        /* \"contracts/GRB.sol\":20390:20397  account */\n      dup3\n        /* \"contracts/GRB.sol\":20381:20418  Transfer(account, address(0), amount) */\n      0xffffffffffffffffffffffffffffffffffffffff\n      and\n      0xddf252ad1be2c89b69c2b068fc378daa952ba7f163c4a11628f55a4df523b3ef\n        /* \"contracts/GRB.sol\":20411:20417  amount */\n      dup4\n        /* \"contracts/GRB.sol\":20381:20418  Transfer(account, address(0), amount) */\n      mload(0x40)\n      tag_263\n      swap2\n      swap1\n      tag_41\n      jump\t// in\n    tag_263:\n      mload(0x40)\n      dup1\n      swap2\n      sub\n      swap1\n      log3\n        /* \"contracts/GRB.sol\":20015:20425  function _burn(address account, uint256 amount) internal virtual {... */\n      pop\n      pop\n      jump\t// out\n        /* \"contracts/GRB.sol\":3128:3283  function sub(uint256 a, uint256 b) internal pure returns (uint256) {... */\n    tag_262:\n        /* \"contracts/GRB.sol\":3186:3193  uint256 */\n      0x00\n        /* \"contracts/GRB.sol\":3218:3219  a */\n      dup3\n        /* \"contracts/GRB.sol\":3213:3214  b */\n      dup3\n        /* \"contracts/GRB.sol\":3213:3219  b <= a */\n      gt\n      iszero\n        /* \"contracts/GRB.sol\":3205:3254  require(b <= a, \"SafeMath: subtraction overflow\") */\n      tag_265\n      jumpi\n      mload(0x40)\n      0x08c379a000000000000000000000000000000000000000000000000000000000\n      dup2\n      mstore\n      0x04\n      add\n      tag_266\n      swap1\n      tag_267\n      jump\t// in\n    tag_266:\n      mload(0x40)\n      dup1\n      swap2\n      sub\n      swap1\n      revert\n    tag_265:\n        /* \"contracts/GRB.sol\":3275:3276  b */\n      dup2\n        /* \"contracts/GRB.sol\":3271:3272  a */\n      dup4\n        /* \"contracts/GRB.sol\":3271:3276  a - b */\n      tag_268\n      swap2\n      swap1\n      tag_241\n      jump\t// in\n    tag_268:\n        /* \"contracts/GRB.sol\":3264:3276  return a - b */\n      swap1\n      pop\n        /* \"contracts/GRB.sol\":3128:3283  function sub(uint256 a, uint256 b) internal pure returns (uint256) {... */\n      swap3\n      swap2\n      pop\n      pop\n      jump\t// out\n        /* \"#utility.yul\":7:146   */\n    tag_270:\n        /* \"#utility.yul\":53:58   */\n      0x00\n        /* \"#utility.yul\":91:97   */\n      dup2\n        /* \"#utility.yul\":78:98   */\n      calldataload\n        /* \"#utility.yul\":69:98   */\n      swap1\n      pop\n        /* \"#utility.yul\":107:140   */\n      tag_272\n        /* \"#utility.yul\":134:139   */\n      dup2\n        /* \"#utility.yul\":107:140   */\n      tag_273\n      jump\t// in\n    tag_272:\n        /* \"#utility.yul\":7:146   */\n      swap3\n      swap2\n      pop\n      pop\n      jump\t// out\n        /* \"#utility.yul\":152:291   */\n    tag_274:\n        /* \"#utility.yul\":198:203   */\n      0x00\n        /* \"#utility.yul\":236:242   */\n      dup2\n        /* \"#utility.yul\":223:243   */\n      calldataload\n        /* \"#utility.yul\":214:243   */\n      swap1\n      pop\n        /* \"#utility.yul\":252:285   */\n      tag_276\n        /* \"#utility.yul\":279:284   */\n      dup2\n        /* \"#utility.yul\":252:285   */\n      tag_277\n      jump\t// in\n    tag_276:\n        /* \"#utility.yul\":152:291   */\n      swap3\n      swap2\n      pop\n      pop\n      jump\t// out\n        /* \"#utility.yul\":297:626   */\n    tag_67:\n        /* \"#utility.yul\":356:362   */\n      0x00\n        /* \"#utility.yul\":405:407   */\n      0x20\n        /* \"#utility.yul\":393:402   */\n      dup3\n        /* \"#utility.yul\":384:391   */\n      dup5\n        /* \"#utility.yul\":380:403   */\n      sub\n        /* \"#utility.yul\":376:408   */\n      slt\n        /* \"#utility.yul\":373:492   */\n      iszero\n      tag_279\n      jumpi\n        /* \"#utility.yul\":411:490   */\n      tag_280\n      tag_281\n      jump\t// in\n    tag_280:\n        /* \"#utility.yul\":373:492   */\n    tag_279:\n        /* \"#utility.yul\":531:532   */\n      0x00\n        /* \"#utility.yul\":556:609   */\n      tag_282\n        /* \"#utility.yul\":601:608   */\n      dup5\n        /* \"#utility.yul\":592:598   */\n      dup3\n        /* \"#utility.yul\":581:590   */\n      dup6\n        /* \"#utility.yul\":577:599   */\n      add\n        /* \"#utility.yul\":556:609   */\n      tag_270\n      jump\t// in\n    tag_282:\n        /* \"#utility.yul\":546:609   */\n      swap2\n      pop\n        /* \"#utility.yul\":502:619   */\n      pop\n        /* \"#utility.yul\":297:626   */\n      swap3\n      swap2\n      pop\n      pop\n      jump\t// out\n        /* \"#utility.yul\":632:1106   */\n    tag_105:\n        /* \"#utility.yul\":700:706   */\n      0x00\n        /* \"#utility.yul\":708:714   */\n      dup1\n        /* \"#utility.yul\":757:759   */\n      0x40\n        /* \"#utility.yul\":745:754   */\n      dup4\n        /* \"#utility.yul\":736:743   */\n      dup6\n        /* \"#utility.yul\":732:755   */\n      sub\n        /* \"#utility.yul\":728:760   */\n      slt\n        /* \"#utility.yul\":725:844   */\n      iszero\n      tag_284\n      jumpi\n        /* \"#utility.yul\":763:842   */\n      tag_285\n      tag_281\n      jump\t// in\n    tag_285:\n        /* \"#utility.yul\":725:844   */\n    tag_284:\n        /* \"#utility.yul\":883:884   */\n      0x00\n        /* \"#utility.yul\":908:961   */\n      tag_286\n        /* \"#utility.yul\":953:960   */\n      dup6\n        /* \"#utility.yul\":944:950   */\n      dup3\n        /* \"#utility.yul\":933:942   */\n      dup7\n        /* \"#utility.yul\":929:951   */\n      add\n        /* \"#utility.yul\":908:961   */\n      tag_270\n      jump\t// in\n    tag_286:\n        /* \"#utility.yul\":898:961   */\n      swap3\n      pop\n        /* \"#utility.yul\":854:971   */\n      pop\n        /* \"#utility.yul\":1010:1012   */\n      0x20\n        /* \"#utility.yul\":1036:1089   */\n      tag_287\n        /* \"#utility.yul\":1081:1088   */\n      dup6\n        /* \"#utility.yul\":1072:1078   */\n      dup3\n        /* \"#utility.yul\":1061:1070   */\n      dup7\n        /* \"#utility.yul\":1057:1079   */\n      add\n        /* \"#utility.yul\":1036:1089   */\n      tag_270\n      jump\t// in\n    tag_287:\n        /* \"#utility.yul\":1026:1089   */\n      swap2\n      pop\n        /* \"#utility.yul\":981:1099   */\n      pop\n        /* \"#utility.yul\":632:1106   */\n      swap3\n      pop\n      swap3\n      swap1\n      pop\n      jump\t// out\n        /* \"#utility.yul\":1112:1731   */\n    tag_44:\n        /* \"#utility.yul\":1189:1195   */\n      0x00\n        /* \"#utility.yul\":1197:1203   */\n      dup1\n        /* \"#utility.yul\":1205:1211   */\n      0x00\n        /* \"#utility.yul\":1254:1256   */\n      0x60\n        /* \"#utility.yul\":1242:1251   */\n      dup5\n        /* \"#utility.yul\":1233:1240   */\n      dup7\n        /* \"#utility.yul\":1229:1252   */\n      sub\n        /* \"#utility.yul\":1225:1257   */\n      slt\n        /* \"#utility.yul\":1222:1341   */\n      iszero\n      tag_289\n      jumpi\n        /* \"#utility.yul\":1260:1339   */\n      tag_290\n      tag_281\n      jump\t// in\n    tag_290:\n        /* \"#utility.yul\":1222:1341   */\n    tag_289:\n        /* \"#utility.yul\":1380:1381   */\n      0x00\n        /* \"#utility.yul\":1405:1458   */\n      tag_291\n        /* \"#utility.yul\":1450:1457   */\n      dup7\n        /* \"#utility.yul\":1441:1447   */\n      dup3\n        /* \"#utility.yul\":1430:1439   */\n      dup8\n        /* \"#utility.yul\":1426:1448   */\n      add\n        /* \"#utility.yul\":1405:1458   */\n      tag_270\n      jump\t// in\n    tag_291:\n        /* \"#utility.yul\":1395:1458   */\n      swap4\n      pop\n        /* \"#utility.yul\":1351:1468   */\n      pop\n        /* \"#utility.yul\":1507:1509   */\n      0x20\n        /* \"#utility.yul\":1533:1586   */\n      tag_292\n        /* \"#utility.yul\":1578:1585   */\n      dup7\n        /* \"#utility.yul\":1569:1575   */\n      dup3\n        /* \"#utility.yul\":1558:1567   */\n      dup8\n        /* \"#utility.yul\":1554:1576   */\n      add\n        /* \"#utility.yul\":1533:1586   */\n      tag_270\n      jump\t// in\n    tag_292:\n        /* \"#utility.yul\":1523:1586   */\n      swap3\n      pop\n        /* \"#utility.yul\":1478:1596   */\n      pop\n        /* \"#utility.yul\":1635:1637   */\n      0x40\n        /* \"#utility.yul\":1661:1714   */\n      tag_293\n        /* \"#utility.yul\":1706:1713   */\n      dup7\n        /* \"#utility.yul\":1697:1703   */\n      dup3\n        /* \"#utility.yul\":1686:1695   */\n      dup8\n        /* \"#utility.yul\":1682:1704   */\n      add\n        /* \"#utility.yul\":1661:1714   */\n      tag_274\n      jump\t// in\n    tag_293:\n        /* \"#utility.yul\":1651:1714   */\n      swap2\n      pop\n        /* \"#utility.yul\":1606:1724   */\n      pop\n        /* \"#utility.yul\":1112:1731   */\n      swap3\n      pop\n      swap3\n      pop\n      swap3\n      jump\t// out\n        /* \"#utility.yul\":1737:2211   */\n    tag_34:\n        /* \"#utility.yul\":1805:1811   */\n      0x00\n        /* \"#utility.yul\":1813:1819   */\n      dup1\n        /* \"#utility.yul\":1862:1864   */\n      0x40\n        /* \"#utility.yul\":1850:1859   */\n      dup4\n        /* \"#utility.yul\":1841:1848   */\n      dup6\n        /* \"#utility.yul\":1837:1860   */\n      sub\n        /* \"#utility.yul\":1833:1865   */\n      slt\n        /* \"#utility.yul\":1830:1949   */\n      iszero\n      tag_295\n      jumpi\n        /* \"#utility.yul\":1868:1947   */\n      tag_296\n      tag_281\n      jump\t// in\n    tag_296:\n        /* \"#utility.yul\":1830:1949   */\n    tag_295:\n        /* \"#utility.yul\":1988:1989   */\n      0x00\n        /* \"#utility.yul\":2013:2066   */\n      tag_297\n        /* \"#utility.yul\":2058:2065   */\n      dup6\n        /* \"#utility.yul\":2049:2055   */\n      dup3\n        /* \"#utility.yul\":2038:2047   */\n      dup7\n        /* \"#utility.yul\":2034:2056   */\n      add\n        /* \"#utility.yul\":2013:2066   */\n      tag_270\n      jump\t// in\n    tag_297:\n        /* \"#utility.yul\":2003:2066   */\n      swap3\n      pop\n        /* \"#utility.yul\":1959:2076   */\n      pop\n        /* \"#utility.yul\":2115:2117   */\n      0x20\n        /* \"#utility.yul\":2141:2194   */\n      tag_298\n        /* \"#utility.yul\":2186:2193   */\n      dup6\n        /* \"#utility.yul\":2177:2183   */\n      dup3\n        /* \"#utility.yul\":2166:2175   */\n      dup7\n        /* \"#utility.yul\":2162:2184   */\n      add\n        /* \"#utility.yul\":2141:2194   */\n      tag_274\n      jump\t// in\n    tag_298:\n        /* \"#utility.yul\":2131:2194   */\n      swap2\n      pop\n        /* \"#utility.yul\":2086:2204   */\n      pop\n        /* \"#utility.yul\":1737:2211   */\n      swap3\n      pop\n      swap3\n      swap1\n      pop\n      jump\t// out\n        /* \"#utility.yul\":2217:2546   */\n    tag_63:\n        /* \"#utility.yul\":2276:2282   */\n      0x00\n        /* \"#utility.yul\":2325:2327   */\n      0x20\n        /* \"#utility.yul\":2313:2322   */\n      dup3\n        /* \"#utility.yul\":2304:2311   */\n      dup5\n        /* \"#utility.yul\":2300:2323   */\n      sub\n        /* \"#utility.yul\":2296:2328   */\n      slt\n        /* \"#utility.yul\":2293:2412   */\n      iszero\n      tag_300\n      jumpi\n        /* \"#utility.yul\":2331:2410   */\n      tag_301\n      tag_281\n      jump\t// in\n    tag_301:\n        /* \"#utility.yul\":2293:2412   */\n    tag_300:\n        /* \"#utility.yul\":2451:2452   */\n      0x00\n        /* \"#utility.yul\":2476:2529   */\n      tag_302\n        /* \"#utility.yul\":2521:2528   */\n      dup5\n        /* \"#utility.yul\":2512:2518   */\n      dup3\n        /* \"#utility.yul\":2501:2510   */\n      dup6\n        /* \"#utility.yul\":2497:2519   */\n      add\n        /* \"#utility.yul\":2476:2529   */\n      tag_274\n      jump\t// in\n    tag_302:\n        /* \"#utility.yul\":2466:2529   */\n      swap2\n      pop\n        /* \"#utility.yul\":2422:2539   */\n      pop\n        /* \"#utility.yul\":2217:2546   */\n      swap3\n      swap2\n      pop\n      pop\n      jump\t// out\n        /* \"#utility.yul\":2552:2670   */\n    tag_303:\n        /* \"#utility.yul\":2639:2663   */\n      tag_305\n        /* \"#utility.yul\":2657:2662   */\n      dup2\n        /* \"#utility.yul\":2639:2663   */\n      tag_306\n      jump\t// in\n    tag_305:\n        /* \"#utility.yul\":2634:2637   */\n      dup3\n        /* \"#utility.yul\":2627:2664   */\n      mstore\n        /* \"#utility.yul\":2552:2670   */\n      pop\n      pop\n      jump\t// out\n        /* \"#utility.yul\":2676:2785   */\n    tag_307:\n        /* \"#utility.yul\":2757:2778   */\n      tag_309\n        /* \"#utility.yul\":2772:2777   */\n      dup2\n        /* \"#utility.yul\":2757:2778   */\n      tag_310\n      jump\t// in\n    tag_309:\n        /* \"#utility.yul\":2752:2755   */\n      dup3\n        /* \"#utility.yul\":2745:2779   */\n      mstore\n        /* \"#utility.yul\":2676:2785   */\n      pop\n      pop\n      jump\t// out\n        /* \"#utility.yul\":2791:3155   */\n    tag_311:\n        /* \"#utility.yul\":2879:2882   */\n      0x00\n        /* \"#utility.yul\":2907:2946   */\n      tag_313\n        /* \"#utility.yul\":2940:2945   */\n      dup3\n        /* \"#utility.yul\":2907:2946   */\n      tag_314\n      jump\t// in\n    tag_313:\n        /* \"#utility.yul\":2962:3033   */\n      tag_315\n        /* \"#utility.yul\":3026:3032   */\n      dup2\n        /* \"#utility.yul\":3021:3024   */\n      dup6\n        /* \"#utility.yul\":2962:3033   */\n      tag_316\n      jump\t// in\n    tag_315:\n        /* \"#utility.yul\":2955:3033   */\n      swap4\n      pop\n        /* \"#utility.yul\":3042:3094   */\n      tag_317\n        /* \"#utility.yul\":3087:3093   */\n      dup2\n        /* \"#utility.yul\":3082:3085   */\n      dup6\n        /* \"#utility.yul\":3075:3079   */\n      0x20\n        /* \"#utility.yul\":3068:3073   */\n      dup7\n        /* \"#utility.yul\":3064:3080   */\n      add\n        /* \"#utility.yul\":3042:3094   */\n      tag_318\n      jump\t// in\n    tag_317:\n        /* \"#utility.yul\":3119:3148   */\n      tag_319\n        /* \"#utility.yul\":3141:3147   */\n      dup2\n        /* \"#utility.yul\":3119:3148   */\n      tag_320\n      jump\t// in\n    tag_319:\n        /* \"#utility.yul\":3114:3117   */\n      dup5\n        /* \"#utility.yul\":3110:3149   */\n      add\n        /* \"#utility.yul\":3103:3149   */\n      swap2\n      pop\n        /* \"#utility.yul\":2883:3155   */\n      pop\n        /* \"#utility.yul\":2791:3155   */\n      swap3\n      swap2\n      pop\n      pop\n      jump\t// out\n        /* \"#utility.yul\":3161:3527   */\n    tag_321:\n        /* \"#utility.yul\":3303:3306   */\n      0x00\n        /* \"#utility.yul\":3324:3391   */\n      tag_323\n        /* \"#utility.yul\":3388:3390   */\n      0x23\n        /* \"#utility.yul\":3383:3386   */\n      dup4\n        /* \"#utility.yul\":3324:3391   */\n      tag_316\n      jump\t// in\n    tag_323:\n        /* \"#utility.yul\":3317:3391   */\n      swap2\n      pop\n        /* \"#utility.yul\":3400:3493   */\n      tag_324\n        /* \"#utility.yul\":3489:3492   */\n      dup3\n        /* \"#utility.yul\":3400:3493   */\n      tag_325\n      jump\t// in\n    tag_324:\n        /* \"#utility.yul\":3518:3520   */\n      0x40\n        /* \"#utility.yul\":3513:3516   */\n      dup3\n        /* \"#utility.yul\":3509:3521   */\n      add\n        /* \"#utility.yul\":3502:3521   */\n      swap1\n      pop\n        /* \"#utility.yul\":3161:3527   */\n      swap2\n      swap1\n      pop\n      jump\t// out\n        /* \"#utility.yul\":3533:3899   */\n    tag_326:\n        /* \"#utility.yul\":3675:3678   */\n      0x00\n        /* \"#utility.yul\":3696:3763   */\n      tag_328\n        /* \"#utility.yul\":3760:3762   */\n      0x26\n        /* \"#utility.yul\":3755:3758   */\n      dup4\n        /* \"#utility.yul\":3696:3763   */\n      tag_316\n      jump\t// in\n    tag_328:\n        /* \"#utility.yul\":3689:3763   */\n      swap2\n      pop\n        /* \"#utility.yul\":3772:3865   */\n      tag_329\n        /* \"#utility.yul\":3861:3864   */\n      dup3\n        /* \"#utility.yul\":3772:3865   */\n      tag_330\n      jump\t// in\n    tag_329:\n        /* \"#utility.yul\":3890:3892   */\n      0x40\n        /* \"#utility.yul\":3885:3888   */\n      dup3\n        /* \"#utility.yul\":3881:3893   */\n      add\n        /* \"#utility.yul\":3874:3893   */\n      swap1\n      pop\n        /* \"#utility.yul\":3533:3899   */\n      swap2\n      swap1\n      pop\n      jump\t// out\n        /* \"#utility.yul\":3905:4271   */\n    tag_331:\n        /* \"#utility.yul\":4047:4050   */\n      0x00\n        /* \"#utility.yul\":4068:4135   */\n      tag_333\n        /* \"#utility.yul\":4132:4134   */\n      0x22\n        /* \"#utility.yul\":4127:4130   */\n      dup4\n        /* \"#utility.yul\":4068:4135   */\n      tag_316\n      jump\t// in\n    tag_333:\n        /* \"#utility.yul\":4061:4135   */\n      swap2\n      pop\n        /* \"#utility.yul\":4144:4237   */\n      tag_334\n        /* \"#utility.yul\":4233:4236   */\n      dup3\n        /* \"#utility.yul\":4144:4237   */\n      tag_335\n      jump\t// in\n    tag_334:\n        /* \"#utility.yul\":4262:4264   */\n      0x40\n        /* \"#utility.yul\":4257:4260   */\n      dup3\n        /* \"#utility.yul\":4253:4265   */\n      add\n        /* \"#utility.yul\":4246:4265   */\n      swap1\n      pop\n        /* \"#utility.yul\":3905:4271   */\n      swap2\n      swap1\n      pop\n      jump\t// out\n        /* \"#utility.yul\":4277:4643   */\n    tag_336:\n        /* \"#utility.yul\":4419:4422   */\n      0x00\n        /* \"#utility.yul\":4440:4507   */\n      tag_338\n        /* \"#utility.yul\":4504:4506   */\n      0x1b\n        /* \"#utility.yul\":4499:4502   */\n      dup4\n        /* \"#utility.yul\":4440:4507   */\n      tag_316\n      jump\t// in\n    tag_338:\n        /* \"#utility.yul\":4433:4507   */\n      swap2\n      pop\n        /* \"#utility.yul\":4516:4609   */\n      tag_339\n        /* \"#utility.yul\":4605:4608   */\n      dup3\n        /* \"#utility.yul\":4516:4609   */\n      tag_340\n      jump\t// in\n    tag_339:\n        /* \"#utility.yul\":4634:4636   */\n      0x20\n        /* \"#utility.yul\":4629:4632   */\n      dup3\n        /* \"#utility.yul\":4625:4637   */\n      add\n        /* \"#utility.yul\":4618:4637   */\n      swap1\n      pop\n        /* \"#utility.yul\":4277:4643   */\n      swap2\n      swap1\n      pop\n      jump\t// out\n        /* \"#utility.yul\":4649:5015   */\n    tag_341:\n        /* \"#utility.yul\":4791:4794   */\n      0x00\n        /* \"#utility.yul\":4812:4879   */\n      tag_343\n        /* \"#utility.yul\":4876:4878   */\n      0x1e\n        /* \"#utility.yul\":4871:4874   */\n      dup4\n        /* \"#utility.yul\":4812:4879   */\n      tag_316\n      jump\t// in\n    tag_343:\n        /* \"#utility.yul\":4805:4879   */\n      swap2\n      pop\n        /* \"#utility.yul\":4888:4981   */\n      tag_344\n        /* \"#utility.yul\":4977:4980   */\n      dup3\n        /* \"#utility.yul\":4888:4981   */\n      tag_345\n      jump\t// in\n    tag_344:\n        /* \"#utility.yul\":5006:5008   */\n      0x20\n        /* \"#utility.yul\":5001:5004   */\n      dup3\n        /* \"#utility.yul\":4997:5009   */\n      add\n        /* \"#utility.yul\":4990:5009   */\n      swap1\n      pop\n        /* \"#utility.yul\":4649:5015   */\n      swap2\n      swap1\n      pop\n      jump\t// out\n        /* \"#utility.yul\":5021:5387   */\n    tag_346:\n        /* \"#utility.yul\":5163:5166   */\n      0x00\n        /* \"#utility.yul\":5184:5251   */\n      tag_348\n        /* \"#utility.yul\":5248:5250   */\n      0x1d\n        /* \"#utility.yul\":5243:5246   */\n      dup4\n        /* \"#utility.yul\":5184:5251   */\n      tag_316\n      jump\t// in\n    tag_348:\n        /* \"#utility.yul\":5177:5251   */\n      swap2\n      pop\n        /* \"#utility.yul\":5260:5353   */\n      tag_349\n        /* \"#utility.yul\":5349:5352   */\n      dup3\n        /* \"#utility.yul\":5260:5353   */\n      tag_350\n      jump\t// in\n    tag_349:\n        /* \"#utility.yul\":5378:5380   */\n      0x20\n        /* \"#utility.yul\":5373:5376   */\n      dup3\n        /* \"#utility.yul\":5369:5381   */\n      add\n        /* \"#utility.yul\":5362:5381   */\n      swap1\n      pop\n        /* \"#utility.yul\":5021:5387   */\n      swap2\n      swap1\n      pop\n      jump\t// out\n        /* \"#utility.yul\":5393:5759   */\n    tag_351:\n        /* \"#utility.yul\":5535:5538   */\n      0x00\n        /* \"#utility.yul\":5556:5623   */\n      tag_353\n        /* \"#utility.yul\":5620:5622   */\n      0x23\n        /* \"#utility.yul\":5615:5618   */\n      dup4\n        /* \"#utility.yul\":5556:5623   */\n      tag_316\n      jump\t// in\n    tag_353:\n        /* \"#utility.yul\":5549:5623   */\n      swap2\n      pop\n        /* \"#utility.yul\":5632:5725   */\n      tag_354\n        /* \"#utility.yul\":5721:5724   */\n      dup3\n        /* \"#utility.yul\":5632:5725   */\n      tag_355\n      jump\t// in\n    tag_354:\n        /* \"#utility.yul\":5750:5752   */\n      0x40\n        /* \"#utility.yul\":5745:5748   */\n      dup3\n        /* \"#utility.yul\":5741:5753   */\n      add\n        /* \"#utility.yul\":5734:5753   */\n      swap1\n      pop\n        /* \"#utility.yul\":5393:5759   */\n      swap2\n      swap1\n      pop\n      jump\t// out\n        /* \"#utility.yul\":5765:6131   */\n    tag_356:\n        /* \"#utility.yul\":5907:5910   */\n      0x00\n        /* \"#utility.yul\":5928:5995   */\n      tag_358\n        /* \"#utility.yul\":5992:5994   */\n      0x20\n        /* \"#utility.yul\":5987:5990   */\n      dup4\n        /* \"#utility.yul\":5928:5995   */\n      tag_316\n      jump\t// in\n    tag_358:\n        /* \"#utility.yul\":5921:5995   */\n      swap2\n      pop\n        /* \"#utility.yul\":6004:6097   */\n      tag_359\n        /* \"#utility.yul\":6093:6096   */\n      dup3\n        /* \"#utility.yul\":6004:6097   */\n      tag_360\n      jump\t// in\n    tag_359:\n        /* \"#utility.yul\":6122:6124   */\n      0x20\n        /* \"#utility.yul\":6117:6120   */\n      dup3\n        /* \"#utility.yul\":6113:6125   */\n      add\n        /* \"#utility.yul\":6106:6125   */\n      swap1\n      pop\n        /* \"#utility.yul\":5765:6131   */\n      swap2\n      swap1\n      pop\n      jump\t// out\n        /* \"#utility.yul\":6137:6503   */\n    tag_361:\n        /* \"#utility.yul\":6279:6282   */\n      0x00\n        /* \"#utility.yul\":6300:6367   */\n      tag_363\n        /* \"#utility.yul\":6364:6366   */\n      0x21\n        /* \"#utility.yul\":6359:6362   */\n      dup4\n        /* \"#utility.yul\":6300:6367   */\n      tag_316\n      jump\t// in\n    tag_363:\n        /* \"#utility.yul\":6293:6367   */\n      swap2\n      pop\n        /* \"#utility.yul\":6376:6469   */\n      tag_364\n        /* \"#utility.yul\":6465:6468   */\n      dup3\n        /* \"#utility.yul\":6376:6469   */\n      tag_365\n      jump\t// in\n    tag_364:\n        /* \"#utility.yul\":6494:6496   */\n      0x40\n        /* \"#utility.yul\":6489:6492   */\n      dup3\n        /* \"#utility.yul\":6485:6497   */\n      add\n        /* \"#utility.yul\":6478:6497   */\n      swap1\n      pop\n        /* \"#utility.yul\":6137:6503   */\n      swap2\n      swap1\n      pop\n      jump\t// out\n        /* \"#utility.yul\":6509:6875   */\n    tag_366:\n        /* \"#utility.yul\":6651:6654   */\n      0x00\n        /* \"#utility.yul\":6672:6739   */\n      tag_368\n        /* \"#utility.yul\":6736:6738   */\n      0x25\n        /* \"#utility.yul\":6731:6734   */\n      dup4\n        /* \"#utility.yul\":6672:6739   */\n      tag_316\n      jump\t// in\n    tag_368:\n        /* \"#utility.yul\":6665:6739   */\n      swap2\n      pop\n        /* \"#utility.yul\":6748:6841   */\n      tag_369\n        /* \"#utility.yul\":6837:6840   */\n      dup3\n        /* \"#utility.yul\":6748:6841   */\n      tag_370\n      jump\t// in\n    tag_369:\n        /* \"#utility.yul\":6866:6868   */\n      0x40\n        /* \"#utility.yul\":6861:6864   */\n      dup3\n        /* \"#utility.yul\":6857:6869   */\n      add\n        /* \"#utility.yul\":6850:6869   */\n      swap1\n      pop\n        /* \"#utility.yul\":6509:6875   */\n      swap2\n      swap1\n      pop\n      jump\t// out\n        /* \"#utility.yul\":6881:7247   */\n    tag_371:\n        /* \"#utility.yul\":7023:7026   */\n      0x00\n        /* \"#utility.yul\":7044:7111   */\n      tag_373\n        /* \"#utility.yul\":7108:7110   */\n      0x24\n        /* \"#utility.yul\":7103:7106   */\n      dup4\n        /* \"#utility.yul\":7044:7111   */\n      tag_316\n      jump\t// in\n    tag_373:\n        /* \"#utility.yul\":7037:7111   */\n      swap2\n      pop\n        /* \"#utility.yul\":7120:7213   */\n      tag_374\n        /* \"#utility.yul\":7209:7212   */\n      dup3\n        /* \"#utility.yul\":7120:7213   */\n      tag_375\n      jump\t// in\n    tag_374:\n        /* \"#utility.yul\":7238:7240   */\n      0x40\n        /* \"#utility.yul\":7233:7236   */\n      dup3\n        /* \"#utility.yul\":7229:7241   */\n      add\n        /* \"#utility.yul\":7222:7241   */\n      swap1\n      pop\n        /* \"#utility.yul\":6881:7247   */\n      swap2\n      swap1\n      pop\n      jump\t// out\n        /* \"#utility.yul\":7253:7619   */\n    tag_376:\n        /* \"#utility.yul\":7395:7398   */\n      0x00\n        /* \"#utility.yul\":7416:7483   */\n      tag_378\n        /* \"#utility.yul\":7480:7482   */\n      0x1f\n        /* \"#utility.yul\":7475:7478   */\n      dup4\n        /* \"#utility.yul\":7416:7483   */\n      tag_316\n      jump\t// in\n    tag_378:\n        /* \"#utility.yul\":7409:7483   */\n      swap2\n      pop\n        /* \"#utility.yul\":7492:7585   */\n      tag_379\n        /* \"#utility.yul\":7581:7584   */\n      dup3\n        /* \"#utility.yul\":7492:7585   */\n      tag_380\n      jump\t// in\n    tag_379:\n        /* \"#utility.yul\":7610:7612   */\n      0x20\n        /* \"#utility.yul\":7605:7608   */\n      dup3\n        /* \"#utility.yul\":7601:7613   */\n      add\n        /* \"#utility.yul\":7594:7613   */\n      swap1\n      pop\n        /* \"#utility.yul\":7253:7619   */\n      swap2\n      swap1\n      pop\n      jump\t// out\n        /* \"#utility.yul\":7625:7743   */\n    tag_381:\n        /* \"#utility.yul\":7712:7736   */\n      tag_383\n        /* \"#utility.yul\":7730:7735   */\n      dup2\n        /* \"#utility.yul\":7712:7736   */\n      tag_384\n      jump\t// in\n    tag_383:\n        /* \"#utility.yul\":7707:7710   */\n      dup3\n        /* \"#utility.yul\":7700:7737   */\n      mstore\n        /* \"#utility.yul\":7625:7743   */\n      pop\n      pop\n      jump\t// out\n        /* \"#utility.yul\":7749:7861   */\n    tag_385:\n        /* \"#utility.yul\":7832:7854   */\n      tag_387\n        /* \"#utility.yul\":7848:7853   */\n      dup2\n        /* \"#utility.yul\":7832:7854   */\n      tag_388\n      jump\t// in\n    tag_387:\n        /* \"#utility.yul\":7827:7830   */\n      dup3\n        /* \"#utility.yul\":7820:7855   */\n      mstore\n        /* \"#utility.yul\":7749:7861   */\n      pop\n      pop\n      jump\t// out\n        /* \"#utility.yul\":7867:8089   */\n    tag_81:\n        /* \"#utility.yul\":7960:7964   */\n      0x00\n        /* \"#utility.yul\":7998:8000   */\n      0x20\n        /* \"#utility.yul\":7987:7996   */\n      dup3\n        /* \"#utility.yul\":7983:8001   */\n      add\n        /* \"#utility.yul\":7975:8001   */\n      swap1\n      pop\n        /* \"#utility.yul\":8011:8082   */\n      tag_390\n        /* \"#utility.yul\":8079:8080   */\n      0x00\n        /* \"#utility.yul\":8068:8077   */\n      dup4\n        /* \"#utility.yul\":8064:8081   */\n      add\n        /* \"#utility.yul\":8055:8061   */\n      dup5\n        /* \"#utility.yul\":8011:8082   */\n      tag_303\n      jump\t// in\n    tag_390:\n        /* \"#utility.yul\":7867:8089   */\n      swap3\n      swap2\n      pop\n      pop\n      jump\t// out\n        /* \"#utility.yul\":8095:8305   */\n    tag_37:\n        /* \"#utility.yul\":8182:8186   */\n      0x00\n        /* \"#utility.yul\":8220:8222   */\n      0x20\n        /* \"#utility.yul\":8209:8218   */\n      dup3\n        /* \"#utility.yul\":8205:8223   */\n      add\n        /* \"#utility.yul\":8197:8223   */\n      swap1\n      pop\n        /* \"#utility.yul\":8233:8298   */\n      tag_392\n        /* \"#utility.yul\":8295:8296   */\n      0x00\n        /* \"#utility.yul\":8284:8293   */\n      dup4\n        /* \"#utility.yul\":8280:8297   */\n      add\n        /* \"#utility.yul\":8271:8277   */\n      dup5\n        /* \"#utility.yul\":8233:8298   */\n      tag_307\n      jump\t// in\n    tag_392:\n        /* \"#utility.yul\":8095:8305   */\n      swap3\n      swap2\n      pop\n      pop\n      jump\t// out\n        /* \"#utility.yul\":8311:8624   */\n    tag_31:\n        /* \"#utility.yul\":8424:8428   */\n      0x00\n        /* \"#utility.yul\":8462:8464   */\n      0x20\n        /* \"#utility.yul\":8451:8460   */\n      dup3\n        /* \"#utility.yul\":8447:8465   */\n      add\n        /* \"#utility.yul\":8439:8465   */\n      swap1\n      pop\n        /* \"#utility.yul\":8511:8520   */\n      dup2\n        /* \"#utility.yul\":8505:8509   */\n      dup2\n        /* \"#utility.yul\":8501:8521   */\n      sub\n        /* \"#utility.yul\":8497:8498   */\n      0x00\n        /* \"#utility.yul\":8486:8495   */\n      dup4\n        /* \"#utility.yul\":8482:8499   */\n      add\n        /* \"#utility.yul\":8475:8522   */\n      mstore\n        /* \"#utility.yul\":8539:8617   */\n      tag_394\n        /* \"#utility.yul\":8612:8616   */\n      dup2\n        /* \"#utility.yul\":8603:8609   */\n      dup5\n        /* \"#utility.yul\":8539:8617   */\n      tag_311\n      jump\t// in\n    tag_394:\n        /* \"#utility.yul\":8531:8617   */\n      swap1\n      pop\n        /* \"#utility.yul\":8311:8624   */\n      swap3\n      swap2\n      pop\n      pop\n      jump\t// out\n        /* \"#utility.yul\":8630:9049   */\n    tag_231:\n        /* \"#utility.yul\":8796:8800   */\n      0x00\n        /* \"#utility.yul\":8834:8836   */\n      0x20\n        /* \"#utility.yul\":8823:8832   */\n      dup3\n        /* \"#utility.yul\":8819:8837   */\n      add\n        /* \"#utility.yul\":8811:8837   */\n      swap1\n      pop\n        /* \"#utility.yul\":8883:8892   */\n      dup2\n        /* \"#utility.yul\":8877:8881   */\n      dup2\n        /* \"#utility.yul\":8873:8893   */\n      sub\n        /* \"#utility.yul\":8869:8870   */\n      0x00\n        /* \"#utility.yul\":8858:8867   */\n      dup4\n        /* \"#utility.yul\":8854:8871   */\n      add\n        /* \"#utility.yul\":8847:8894   */\n      mstore\n        /* \"#utility.yul\":8911:9042   */\n      tag_396\n        /* \"#utility.yul\":9037:9041   */\n      dup2\n        /* \"#utility.yul\":8911:9042   */\n      tag_321\n      jump\t// in\n    tag_396:\n        /* \"#utility.yul\":8903:9042   */\n      swap1\n      pop\n        /* \"#utility.yul\":8630:9049   */\n      swap2\n      swap1\n      pop\n      jump\t// out\n        /* \"#utility.yul\":9055:9474   */\n    tag_209:\n        /* \"#utility.yul\":9221:9225   */\n      0x00\n        /* \"#utility.yul\":9259:9261   */\n      0x20\n        /* \"#utility.yul\":9248:9257   */\n      dup3\n        /* \"#utility.yul\":9244:9262   */\n      add\n        /* \"#utility.yul\":9236:9262   */\n      swap1\n      pop\n        /* \"#utility.yul\":9308:9317   */\n      dup2\n        /* \"#utility.yul\":9302:9306   */\n      dup2\n        /* \"#utility.yul\":9298:9318   */\n      sub\n        /* \"#utility.yul\":9294:9295   */\n      0x00\n        /* \"#utility.yul\":9283:9292   */\n      dup4\n        /* \"#utility.yul\":9279:9296   */\n      add\n        /* \"#utility.yul\":9272:9319   */\n      mstore\n        /* \"#utility.yul\":9336:9467   */\n      tag_398\n        /* \"#utility.yul\":9462:9466   */\n      dup2\n        /* \"#utility.yul\":9336:9467   */\n      tag_326\n      jump\t// in\n    tag_398:\n        /* \"#utility.yul\":9328:9467   */\n      swap1\n      pop\n        /* \"#utility.yul\":9055:9474   */\n      swap2\n      swap1\n      pop\n      jump\t// out\n        /* \"#utility.yul\":9480:9899   */\n    tag_223:\n        /* \"#utility.yul\":9646:9650   */\n      0x00\n        /* \"#utility.yul\":9684:9686   */\n      0x20\n        /* \"#utility.yul\":9673:9682   */\n      dup3\n        /* \"#utility.yul\":9669:9687   */\n      add\n        /* \"#utility.yul\":9661:9687   */\n      swap1\n      pop\n        /* \"#utility.yul\":9733:9742   */\n      dup2\n        /* \"#utility.yul\":9727:9731   */\n      dup2\n        /* \"#utility.yul\":9723:9743   */\n      sub\n        /* \"#utility.yul\":9719:9720   */\n      0x00\n        /* \"#utility.yul\":9708:9717   */\n      dup4\n        /* \"#utility.yul\":9704:9721   */\n      add\n        /* \"#utility.yul\":9697:9744   */\n      mstore\n        /* \"#utility.yul\":9761:9892   */\n      tag_400\n        /* \"#utility.yul\":9887:9891   */\n      dup2\n        /* \"#utility.yul\":9761:9892   */\n      tag_331\n      jump\t// in\n    tag_400:\n        /* \"#utility.yul\":9753:9892   */\n      swap1\n      pop\n        /* \"#utility.yul\":9480:9899   */\n      swap2\n      swap1\n      pop\n      jump\t// out\n        /* \"#utility.yul\":9905:10324   */\n    tag_215:\n        /* \"#utility.yul\":10071:10075   */\n      0x00\n        /* \"#utility.yul\":10109:10111   */\n      0x20\n        /* \"#utility.yul\":10098:10107   */\n      dup3\n        /* \"#utility.yul\":10094:10112   */\n      add\n        /* \"#utility.yul\":10086:10112   */\n      swap1\n      pop\n        /* \"#utility.yul\":10158:10167   */\n      dup2\n        /* \"#utility.yul\":10152:10156   */\n      dup2\n        /* \"#utility.yul\":10148:10168   */\n      sub\n        /* \"#utility.yul\":10144:10145   */\n      0x00\n        /* \"#utility.yul\":10133:10142   */\n      dup4\n        /* \"#utility.yul\":10129:10146   */\n      add\n        /* \"#utility.yul\":10122:10169   */\n      mstore\n        /* \"#utility.yul\":10186:10317   */\n      tag_402\n        /* \"#utility.yul\":10312:10316   */\n      dup2\n        /* \"#utility.yul\":10186:10317   */\n      tag_336\n      jump\t// in\n    tag_402:\n        /* \"#utility.yul\":10178:10317   */\n      swap1\n      pop\n        /* \"#utility.yul\":9905:10324   */\n      swap2\n      swap1\n      pop\n      jump\t// out\n        /* \"#utility.yul\":10330:10749   */\n    tag_267:\n        /* \"#utility.yul\":10496:10500   */\n      0x00\n        /* \"#utility.yul\":10534:10536   */\n      0x20\n        /* \"#utility.yul\":10523:10532   */\n      dup3\n        /* \"#utility.yul\":10519:10537   */\n      add\n        /* \"#utility.yul\":10511:10537   */\n      swap1\n      pop\n        /* \"#utility.yul\":10583:10592   */\n      dup2\n        /* \"#utility.yul\":10577:10581   */\n      dup2\n        /* \"#utility.yul\":10573:10593   */\n      sub\n        /* \"#utility.yul\":10569:10570   */\n      0x00\n        /* \"#utility.yul\":10558:10567   */\n      dup4\n        /* \"#utility.yul\":10554:10571   */\n      add\n        /* \"#utility.yul\":10547:10594   */\n      mstore\n        /* \"#utility.yul\":10611:10742   */\n      tag_404\n        /* \"#utility.yul\":10737:10741   */\n      dup2\n        /* \"#utility.yul\":10611:10742   */\n      tag_341\n      jump\t// in\n    tag_404:\n        /* \"#utility.yul\":10603:10742   */\n      swap1\n      pop\n        /* \"#utility.yul\":10330:10749   */\n      swap2\n      swap1\n      pop\n      jump\t// out\n        /* \"#utility.yul\":10755:11174   */\n    tag_149:\n        /* \"#utility.yul\":10921:10925   */\n      0x00\n        /* \"#utility.yul\":10959:10961   */\n      0x20\n        /* \"#utility.yul\":10948:10957   */\n      dup3\n        /* \"#utility.yul\":10944:10962   */\n      add\n        /* \"#utility.yul\":10936:10962   */\n      swap1\n      pop\n        /* \"#utility.yul\":11008:11017   */\n      dup2\n        /* \"#utility.yul\":11002:11006   */\n      dup2\n        /* \"#utility.yul\":10998:11018   */\n      sub\n        /* \"#utility.yul\":10994:10995   */\n      0x00\n        /* \"#utility.yul\":10983:10992   */\n      dup4\n        /* \"#utility.yul\":10979:10996   */\n      add\n        /* \"#utility.yul\":10972:11019   */\n      mstore\n        /* \"#utility.yul\":11036:11167   */\n      tag_406\n        /* \"#utility.yul\":11162:11166   */\n      dup2\n        /* \"#utility.yul\":11036:11167   */\n      tag_346\n      jump\t// in\n    tag_406:\n        /* \"#utility.yul\":11028:11167   */\n      swap1\n      pop\n        /* \"#utility.yul\":10755:11174   */\n      swap2\n      swap1\n      pop\n      jump\t// out\n        /* \"#utility.yul\":11180:11599   */\n    tag_143:\n        /* \"#utility.yul\":11346:11350   */\n      0x00\n        /* \"#utility.yul\":11384:11386   */\n      0x20\n        /* \"#utility.yul\":11373:11382   */\n      dup3\n        /* \"#utility.yul\":11369:11387   */\n      add\n        /* \"#utility.yul\":11361:11387   */\n      swap1\n      pop\n        /* \"#utility.yul\":11433:11442   */\n      dup2\n        /* \"#utility.yul\":11427:11431   */\n      dup2\n        /* \"#utility.yul\":11423:11443   */\n      sub\n        /* \"#utility.yul\":11419:11420   */\n      0x00\n        /* \"#utility.yul\":11408:11417   */\n      dup4\n        /* \"#utility.yul\":11404:11421   */\n      add\n        /* \"#utility.yul\":11397:11444   */\n      mstore\n        /* \"#utility.yul\":11461:11592   */\n      tag_408\n        /* \"#utility.yul\":11587:11591   */\n      dup2\n        /* \"#utility.yul\":11461:11592   */\n      tag_351\n      jump\t// in\n    tag_408:\n        /* \"#utility.yul\":11453:11592   */\n      swap1\n      pop\n        /* \"#utility.yul\":11180:11599   */\n      swap2\n      swap1\n      pop\n      jump\t// out\n        /* \"#utility.yul\":11605:12024   */\n    tag_161:\n        /* \"#utility.yul\":11771:11775   */\n      0x00\n        /* \"#utility.yul\":11809:11811   */\n      0x20\n        /* \"#utility.yul\":11798:11807   */\n      dup3\n        /* \"#utility.yul\":11794:11812   */\n      add\n        /* \"#utility.yul\":11786:11812   */\n      swap1\n      pop\n        /* \"#utility.yul\":11858:11867   */\n      dup2\n        /* \"#utility.yul\":11852:11856   */\n      dup2\n        /* \"#utility.yul\":11848:11868   */\n      sub\n        /* \"#utility.yul\":11844:11845   */\n      0x00\n        /* \"#utility.yul\":11833:11842   */\n      dup4\n        /* \"#utility.yul\":11829:11846   */\n      add\n        /* \"#utility.yul\":11822:11869   */\n      mstore\n        /* \"#utility.yul\":11886:12017   */\n      tag_410\n        /* \"#utility.yul\":12012:12016   */\n      dup2\n        /* \"#utility.yul\":11886:12017   */\n      tag_356\n      jump\t// in\n    tag_410:\n        /* \"#utility.yul\":11878:12017   */\n      swap1\n      pop\n        /* \"#utility.yul\":11605:12024   */\n      swap2\n      swap1\n      pop\n      jump\t// out\n        /* \"#utility.yul\":12030:12449   */\n    tag_258:\n        /* \"#utility.yul\":12196:12200   */\n      0x00\n        /* \"#utility.yul\":12234:12236   */\n      0x20\n        /* \"#utility.yul\":12223:12232   */\n      dup3\n        /* \"#utility.yul\":12219:12237   */\n      add\n        /* \"#utility.yul\":12211:12237   */\n      swap1\n      pop\n        /* \"#utility.yul\":12283:12292   */\n      dup2\n        /* \"#utility.yul\":12277:12281   */\n      dup2\n        /* \"#utility.yul\":12273:12293   */\n      sub\n        /* \"#utility.yul\":12269:12270   */\n      0x00\n        /* \"#utility.yul\":12258:12267   */\n      dup4\n        /* \"#utility.yul\":12254:12271   */\n      add\n        /* \"#utility.yul\":12247:12294   */\n      mstore\n        /* \"#utility.yul\":12311:12442   */\n      tag_412\n        /* \"#utility.yul\":12437:12441   */\n      dup2\n        /* \"#utility.yul\":12311:12442   */\n      tag_361\n      jump\t// in\n    tag_412:\n        /* \"#utility.yul\":12303:12442   */\n      swap1\n      pop\n        /* \"#utility.yul\":12030:12449   */\n      swap2\n      swap1\n      pop\n      jump\t// out\n        /* \"#utility.yul\":12455:12874   */\n    tag_228:\n        /* \"#utility.yul\":12621:12625   */\n      0x00\n        /* \"#utility.yul\":12659:12661   */\n      0x20\n        /* \"#utility.yul\":12648:12657   */\n      dup3\n        /* \"#utility.yul\":12644:12662   */\n      add\n        /* \"#utility.yul\":12636:12662   */\n      swap1\n      pop\n        /* \"#utility.yul\":12708:12717   */\n      dup2\n        /* \"#utility.yul\":12702:12706   */\n      dup2\n        /* \"#utility.yul\":12698:12718   */\n      sub\n        /* \"#utility.yul\":12694:12695   */\n      0x00\n        /* \"#utility.yul\":12683:12692   */\n      dup4\n        /* \"#utility.yul\":12679:12696   */\n      add\n        /* \"#utility.yul\":12672:12719   */\n      mstore\n        /* \"#utility.yul\":12736:12867   */\n      tag_414\n        /* \"#utility.yul\":12862:12866   */\n      dup2\n        /* \"#utility.yul\":12736:12867   */\n      tag_366\n      jump\t// in\n    tag_414:\n        /* \"#utility.yul\":12728:12867   */\n      swap1\n      pop\n        /* \"#utility.yul\":12455:12874   */\n      swap2\n      swap1\n      pop\n      jump\t// out\n        /* \"#utility.yul\":12880:13299   */\n    tag_220:\n        /* \"#utility.yul\":13046:13050   */\n      0x00\n        /* \"#utility.yul\":13084:13086   */\n      0x20\n        /* \"#utility.yul\":13073:13082   */\n      dup3\n        /* \"#utility.yul\":13069:13087   */\n      add\n        /* \"#utility.yul\":13061:13087   */\n      swap1\n      pop\n        /* \"#utility.yul\":13133:13142   */\n      dup2\n        /* \"#utility.yul\":13127:13131   */\n      dup2\n        /* \"#utility.yul\":13123:13143   */\n      sub\n        /* \"#utility.yul\":13119:13120   */\n      0x00\n        /* \"#utility.yul\":13108:13117   */\n      dup4\n        /* \"#utility.yul\":13104:13121   */\n      add\n        /* \"#utility.yul\":13097:13144   */\n      mstore\n        /* \"#utility.yul\":13161:13292   */\n      tag_416\n        /* \"#utility.yul\":13287:13291   */\n      dup2\n        /* \"#utility.yul\":13161:13292   */\n      tag_371\n      jump\t// in\n    tag_416:\n        /* \"#utility.yul\":13153:13292   */\n      swap1\n      pop\n        /* \"#utility.yul\":12880:13299   */\n      swap2\n      swap1\n      pop\n      jump\t// out\n        /* \"#utility.yul\":13305:13724   */\n    tag_245:\n        /* \"#utility.yul\":13471:13475   */\n      0x00\n        /* \"#utility.yul\":13509:13511   */\n      0x20\n        /* \"#utility.yul\":13498:13507   */\n      dup3\n        /* \"#utility.yul\":13494:13512   */\n      add\n        /* \"#utility.yul\":13486:13512   */\n      swap1\n      pop\n        /* \"#utility.yul\":13558:13567   */\n      dup2\n        /* \"#utility.yul\":13552:13556   */\n      dup2\n        /* \"#utility.yul\":13548:13568   */\n      sub\n        /* \"#utility.yul\":13544:13545   */\n      0x00\n        /* \"#utility.yul\":13533:13542   */\n      dup4\n        /* \"#utility.yul\":13529:13546   */\n      add\n        /* \"#utility.yul\":13522:13569   */\n      mstore\n        /* \"#utility.yul\":13586:13717   */\n      tag_418\n        /* \"#utility.yul\":13712:13716   */\n      dup2\n        /* \"#utility.yul\":13586:13717   */\n      tag_376\n      jump\t// in\n    tag_418:\n        /* \"#utility.yul\":13578:13717   */\n      swap1\n      pop\n        /* \"#utility.yul\":13305:13724   */\n      swap2\n      swap1\n      pop\n      jump\t// out\n        /* \"#utility.yul\":13730:13952   */\n    tag_41:\n        /* \"#utility.yul\":13823:13827   */\n      0x00\n        /* \"#utility.yul\":13861:13863   */\n      0x20\n        /* \"#utility.yul\":13850:13859   */\n      dup3\n        /* \"#utility.yul\":13846:13864   */\n      add\n        /* \"#utility.yul\":13838:13864   */\n      swap1\n      pop\n        /* \"#utility.yul\":13874:13945   */\n      tag_420\n        /* \"#utility.yul\":13942:13943   */\n      0x00\n        /* \"#utility.yul\":13931:13940   */\n      dup4\n        /* \"#utility.yul\":13927:13944   */\n      add\n        /* \"#utility.yul\":13918:13924   */\n      dup5\n        /* \"#utility.yul\":13874:13945   */\n      tag_381\n      jump\t// in\n    tag_420:\n        /* \"#utility.yul\":13730:13952   */\n      swap3\n      swap2\n      pop\n      pop\n      jump\t// out\n        /* \"#utility.yul\":13958:14172   */\n    tag_50:\n        /* \"#utility.yul\":14047:14051   */\n      0x00\n        /* \"#utility.yul\":14085:14087   */\n      0x20\n        /* \"#utility.yul\":14074:14083   */\n      dup3\n        /* \"#utility.yul\":14070:14088   */\n      add\n        /* \"#utility.yul\":14062:14088   */\n      swap1\n      pop\n        /* \"#utility.yul\":14098:14165   */\n      tag_422\n        /* \"#utility.yul\":14162:14163   */\n      0x00\n        /* \"#utility.yul\":14151:14160   */\n      dup4\n        /* \"#utility.yul\":14147:14164   */\n      add\n        /* \"#utility.yul\":14138:14144   */\n      dup5\n        /* \"#utility.yul\":14098:14165   */\n      tag_385\n      jump\t// in\n    tag_422:\n        /* \"#utility.yul\":13958:14172   */\n      swap3\n      swap2\n      pop\n      pop\n      jump\t// out\n        /* \"#utility.yul\":14259:14358   */\n    tag_314:\n        /* \"#utility.yul\":14311:14317   */\n      0x00\n        /* \"#utility.yul\":14345:14350   */\n      dup2\n        /* \"#utility.yul\":14339:14351   */\n      mload\n        /* \"#utility.yul\":14329:14351   */\n      swap1\n      pop\n        /* \"#utility.yul\":14259:14358   */\n      swap2\n      swap1\n      pop\n      jump\t// out\n        /* \"#utility.yul\":14364:14533   */\n    tag_316:\n        /* \"#utility.yul\":14448:14459   */\n      0x00\n        /* \"#utility.yul\":14482:14488   */\n      dup3\n        /* \"#utility.yul\":14477:14480   */\n      dup3\n        /* \"#utility.yul\":14470:14489   */\n      mstore\n        /* \"#utility.yul\":14522:14526   */\n      0x20\n        /* \"#utility.yul\":14517:14520   */\n      dup3\n        /* \"#utility.yul\":14513:14527   */\n      add\n        /* \"#utility.yul\":14498:14527   */\n      swap1\n      pop\n        /* \"#utility.yul\":14364:14533   */\n      swap3\n      swap2\n      pop\n      pop\n      jump\t// out\n        /* \"#utility.yul\":14539:14844   */\n    tag_212:\n        /* \"#utility.yul\":14579:14582   */\n      0x00\n        /* \"#utility.yul\":14598:14618   */\n      tag_428\n        /* \"#utility.yul\":14616:14617   */\n      dup3\n        /* \"#utility.yul\":14598:14618   */\n      tag_384\n      jump\t// in\n    tag_428:\n        /* \"#utility.yul\":14593:14618   */\n      swap2\n      pop\n        /* \"#utility.yul\":14632:14652   */\n      tag_429\n        /* \"#utility.yul\":14650:14651   */\n      dup4\n        /* \"#utility.yul\":14632:14652   */\n      tag_384\n      jump\t// in\n    tag_429:\n        /* \"#utility.yul\":14627:14652   */\n      swap3\n      pop\n        /* \"#utility.yul\":14786:14787   */\n      dup3\n        /* \"#utility.yul\":14718:14784   */\n      0xffffffffffffffffffffffffffffffffffffffffffffffffffffffffffffffff\n        /* \"#utility.yul\":14714:14788   */\n      sub\n        /* \"#utility.yul\":14711:14712   */\n      dup3\n        /* \"#utility.yul\":14708:14789   */\n      gt\n        /* \"#utility.yul\":14705:14812   */\n      iszero\n      tag_430\n      jumpi\n        /* \"#utility.yul\":14792:14810   */\n      tag_431\n      tag_432\n      jump\t// in\n    tag_431:\n        /* \"#utility.yul\":14705:14812   */\n    tag_430:\n        /* \"#utility.yul\":14836:14837   */\n      dup3\n        /* \"#utility.yul\":14833:14834   */\n      dup3\n        /* \"#utility.yul\":14829:14838   */\n      add\n        /* \"#utility.yul\":14822:14838   */\n      swap1\n      pop\n        /* \"#utility.yul\":14539:14844   */\n      swap3\n      swap2\n      pop\n      pop\n      jump\t// out\n        /* \"#utility.yul\":14850:15041   */\n    tag_241:\n        /* \"#utility.yul\":14890:14894   */\n      0x00\n        /* \"#utility.yul\":14910:14930   */\n      tag_434\n        /* \"#utility.yul\":14928:14929   */\n      dup3\n        /* \"#utility.yul\":14910:14930   */\n      tag_384\n      jump\t// in\n    tag_434:\n        /* \"#utility.yul\":14905:14930   */\n      swap2\n      pop\n        /* \"#utility.yul\":14944:14964   */\n      tag_435\n        /* \"#utility.yul\":14962:14963   */\n      dup4\n        /* \"#utility.yul\":14944:14964   */\n      tag_384\n      jump\t// in\n    tag_435:\n        /* \"#utility.yul\":14939:14964   */\n      swap3\n      pop\n        /* \"#utility.yul\":14983:14984   */\n      dup3\n        /* \"#utility.yul\":14980:14981   */\n      dup3\n        /* \"#utility.yul\":14977:14985   */\n      lt\n        /* \"#utility.yul\":14974:15008   */\n      iszero\n      tag_436\n      jumpi\n        /* \"#utility.yul\":14988:15006   */\n      tag_437\n      tag_432\n      jump\t// in\n    tag_437:\n        /* \"#utility.yul\":14974:15008   */\n    tag_436:\n        /* \"#utility.yul\":15033:15034   */\n      dup3\n        /* \"#utility.yul\":15030:15031   */\n      dup3\n        /* \"#utility.yul\":15026:15035   */\n      sub\n        /* \"#utility.yul\":15018:15035   */\n      swap1\n      pop\n        /* \"#utility.yul\":14850:15041   */\n      swap3\n      swap2\n      pop\n      pop\n      jump\t// out\n        /* \"#utility.yul\":15047:15143   */\n    tag_306:\n        /* \"#utility.yul\":15084:15091   */\n      0x00\n        /* \"#utility.yul\":15113:15137   */\n      tag_439\n        /* \"#utility.yul\":15131:15136   */\n      dup3\n        /* \"#utility.yul\":15113:15137   */\n      tag_440\n      jump\t// in\n    tag_439:\n        /* \"#utility.yul\":15102:15137   */\n      swap1\n      pop\n        /* \"#utility.yul\":15047:15143   */\n      swap2\n      swap1\n      pop\n      jump\t// out\n        /* \"#utility.yul\":15149:15239   */\n    tag_310:\n        /* \"#utility.yul\":15183:15190   */\n      0x00\n        /* \"#utility.yul\":15226:15231   */\n      dup2\n        /* \"#utility.yul\":15219:15232   */\n      iszero\n        /* \"#utility.yul\":15212:15233   */\n      iszero\n        /* \"#utility.yul\":15201:15233   */\n      swap1\n      pop\n        /* \"#utility.yul\":15149:15239   */\n      swap2\n      swap1\n      pop\n      jump\t// out\n        /* \"#utility.yul\":15245:15371   */\n    tag_440:\n        /* \"#utility.yul\":15282:15289   */\n      0x00\n        /* \"#utility.yul\":15322:15364   */\n      0xffffffffffffffffffffffffffffffffffffffff\n        /* \"#utility.yul\":15315:15320   */\n      dup3\n        /* \"#utility.yul\":15311:15365   */\n      and\n        /* \"#utility.yul\":15300:15365   */\n      swap1\n      pop\n        /* \"#utility.yul\":15245:15371   */\n      swap2\n      swap1\n      pop\n      jump\t// out\n        /* \"#utility.yul\":15377:15454   */\n    tag_384:\n        /* \"#utility.yul\":15414:15421   */\n      0x00\n        /* \"#utility.yul\":15443:15448   */\n      dup2\n        /* \"#utility.yul\":15432:15448   */\n      swap1\n      pop\n        /* \"#utility.yul\":15377:15454   */\n      swap2\n      swap1\n      pop\n      jump\t// out\n        /* \"#utility.yul\":15460:15546   */\n    tag_388:\n        /* \"#utility.yul\":15495:15502   */\n      0x00\n        /* \"#utility.yul\":15535:15539   */\n      0xff\n        /* \"#utility.yul\":15528:15533   */\n      dup3\n        /* \"#utility.yul\":15524:15540   */\n      and\n        /* \"#utility.yul\":15513:15540   */\n      swap1\n      pop\n        /* \"#utility.yul\":15460:15546   */\n      swap2\n      swap1\n      pop\n      jump\t// out\n        /* \"#utility.yul\":15552:15859   */\n    tag_318:\n        /* \"#utility.yul\":15620:15621   */\n      0x00\n        /* \"#utility.yul\":15630:15743   */\n    tag_446:\n        /* \"#utility.yul\":15644:15650   */\n      dup4\n        /* \"#utility.yul\":15641:15642   */\n      dup2\n        /* \"#utility.yul\":15638:15651   */\n      lt\n        /* \"#utility.yul\":15630:15743   */\n      iszero\n      tag_448\n      jumpi\n        /* \"#utility.yul\":15729:15730   */\n      dup1\n        /* \"#utility.yul\":15724:15727   */\n      dup3\n        /* \"#utility.yul\":15720:15731   */\n      add\n        /* \"#utility.yul\":15714:15732   */\n      mload\n        /* \"#utility.yul\":15710:15711   */\n      dup2\n        /* \"#utility.yul\":15705:15708   */\n      dup5\n        /* \"#utility.yul\":15701:15712   */\n      add\n        /* \"#utility.yul\":15694:15733   */\n      mstore\n        /* \"#utility.yul\":15666:15668   */\n      0x20\n        /* \"#utility.yul\":15663:15664   */\n      dup2\n        /* \"#utility.yul\":15659:15669   */\n      add\n        /* \"#utility.yul\":15654:15669   */\n      swap1\n      pop\n        /* \"#utility.yul\":15630:15743   */\n      jump(tag_446)\n    tag_448:\n        /* \"#utility.yul\":15761:15767   */\n      dup4\n        /* \"#utility.yul\":15758:15759   */\n      dup2\n        /* \"#utility.yul\":15755:15768   */\n      gt\n        /* \"#utility.yul\":15752:15853   */\n      iszero\n      tag_449\n      jumpi\n        /* \"#utility.yul\":15841:15842   */\n      0x00\n        /* \"#utility.yul\":15832:15838   */\n      dup5\n        /* \"#utility.yul\":15827:15830   */\n      dup5\n        /* \"#utility.yul\":15823:15839   */\n      add\n        /* \"#utility.yul\":15816:15843   */\n      mstore\n        /* \"#utility.yul\":15752:15853   */\n    tag_449:\n        /* \"#utility.yul\":15601:15859   */\n      pop\n        /* \"#utility.yul\":15552:15859   */\n      pop\n      pop\n      pop\n      jump\t// out\n        /* \"#utility.yul\":15865:16185   */\n    tag_114:\n        /* \"#utility.yul\":15909:15915   */\n      0x00\n        /* \"#utility.yul\":15946:15947   */\n      0x02\n        /* \"#utility.yul\":15940:15944   */\n      dup3\n        /* \"#utility.yul\":15936:15948   */\n      div\n        /* \"#utility.yul\":15926:15948   */\n      swap1\n      pop\n        /* \"#utility.yul\":15993:15994   */\n      0x01\n        /* \"#utility.yul\":15987:15991   */\n      dup3\n        /* \"#utility.yul\":15983:15995   */\n      and\n        /* \"#utility.yul\":16014:16032   */\n      dup1\n        /* \"#utility.yul\":16004:16085   */\n      tag_451\n      jumpi\n        /* \"#utility.yul\":16070:16074   */\n      0x7f\n        /* \"#utility.yul\":16062:16068   */\n      dup3\n        /* \"#utility.yul\":16058:16075   */\n      and\n        /* \"#utility.yul\":16048:16075   */\n      swap2\n      pop\n        /* \"#utility.yul\":16004:16085   */\n    tag_451:\n        /* \"#utility.yul\":16132:16134   */\n      0x20\n        /* \"#utility.yul\":16124:16130   */\n      dup3\n        /* \"#utility.yul\":16121:16135   */\n      lt\n        /* \"#utility.yul\":16101:16119   */\n      dup2\n        /* \"#utility.yul\":16098:16136   */\n      eq\n        /* \"#utility.yul\":16095:16179   */\n      iszero\n      tag_452\n      jumpi\n        /* \"#utility.yul\":16151:16169   */\n      tag_453\n      tag_454\n      jump\t// in\n    tag_453:\n        /* \"#utility.yul\":16095:16179   */\n    tag_452:\n        /* \"#utility.yul\":15916:16185   */\n      pop\n        /* \"#utility.yul\":15865:16185   */\n      swap2\n      swap1\n      pop\n      jump\t// out\n        /* \"#utility.yul\":16191:16371   */\n    tag_432:\n        /* \"#utility.yul\":16239:16316   */\n      0x4e487b7100000000000000000000000000000000000000000000000000000000\n        /* \"#utility.yul\":16236:16237   */\n      0x00\n        /* \"#utility.yul\":16229:16317   */\n      mstore\n        /* \"#utility.yul\":16336:16340   */\n      0x11\n        /* \"#utility.yul\":16333:16334   */\n      0x04\n        /* \"#utility.yul\":16326:16341   */\n      mstore\n        /* \"#utility.yul\":16360:16364   */\n      0x24\n        /* \"#utility.yul\":16357:16358   */\n      0x00\n        /* \"#utility.yul\":16350:16365   */\n      revert\n        /* \"#utility.yul\":16377:16557   */\n    tag_454:\n        /* \"#utility.yul\":16425:16502   */\n      0x4e487b7100000000000000000000000000000000000000000000000000000000\n        /* \"#utility.yul\":16422:16423   */\n      0x00\n        /* \"#utility.yul\":16415:16503   */\n      mstore\n        /* \"#utility.yul\":16522:16526   */\n      0x22\n        /* \"#utility.yul\":16519:16520   */\n      0x04\n        /* \"#utility.yul\":16512:16527   */\n      mstore\n        /* \"#utility.yul\":16546:16550   */\n      0x24\n        /* \"#utility.yul\":16543:16544   */\n      0x00\n        /* \"#utility.yul\":16536:16551   */\n      revert\n        /* \"#utility.yul\":16686:16803   */\n    tag_281:\n        /* \"#utility.yul\":16795:16796   */\n      0x00\n        /* \"#utility.yul\":16792:16793   */\n      dup1\n        /* \"#utility.yul\":16785:16797   */\n      revert\n        /* \"#utility.yul\":16809:16911   */\n    tag_320:\n        /* \"#utility.yul\":16850:16856   */\n      0x00\n        /* \"#utility.yul\":16901:16903   */\n      0x1f\n        /* \"#utility.yul\":16897:16904   */\n      not\n        /* \"#utility.yul\":16892:16894   */\n      0x1f\n        /* \"#utility.yul\":16885:16890   */\n      dup4\n        /* \"#utility.yul\":16881:16895   */\n      add\n        /* \"#utility.yul\":16877:16905   */\n      and\n        /* \"#utility.yul\":16867:16905   */\n      swap1\n      pop\n        /* \"#utility.yul\":16809:16911   */\n      swap2\n      swap1\n      pop\n      jump\t// out\n        /* \"#utility.yul\":16917:17139   */\n    tag_325:\n        /* \"#utility.yul\":17057:17091   */\n      0x45524332303a207472616e7366657220746f20746865207a65726f2061646472\n        /* \"#utility.yul\":17053:17054   */\n      0x00\n        /* \"#utility.yul\":17045:17051   */\n      dup3\n        /* \"#utility.yul\":17041:17055   */\n      add\n        /* \"#utility.yul\":17034:17092   */\n      mstore\n        /* \"#utility.yul\":17126:17131   */\n      0x6573730000000000000000000000000000000000000000000000000000000000\n        /* \"#utility.yul\":17121:17123   */\n      0x20\n        /* \"#utility.yul\":17113:17119   */\n      dup3\n        /* \"#utility.yul\":17109:17124   */\n      add\n        /* \"#utility.yul\":17102:17132   */\n      mstore\n        /* \"#utility.yul\":16917:17139   */\n      pop\n      jump\t// out\n        /* \"#utility.yul\":17145:17370   */\n    tag_330:\n        /* \"#utility.yul\":17285:17319   */\n      0x4f776e61626c653a206e6577206f776e657220697320746865207a65726f2061\n        /* \"#utility.yul\":17281:17282   */\n      0x00\n        /* \"#utility.yul\":17273:17279   */\n      dup3\n        /* \"#utility.yul\":17269:17283   */\n      add\n        /* \"#utility.yul\":17262:17320   */\n      mstore\n        /* \"#utility.yul\":17354:17362   */\n      0x6464726573730000000000000000000000000000000000000000000000000000\n        /* \"#utility.yul\":17349:17351   */\n      0x20\n        /* \"#utility.yul\":17341:17347   */\n      dup3\n        /* \"#utility.yul\":17337:17352   */\n      add\n        /* \"#utility.yul\":17330:17363   */\n      mstore\n        /* \"#utility.yul\":17145:17370   */\n      pop\n      jump\t// out\n        /* \"#utility.yul\":17376:17597   */\n    tag_335:\n        /* \"#utility.yul\":17516:17550   */\n      0x45524332303a20617070726f766520746f20746865207a65726f206164647265\n        /* \"#utility.yul\":17512:17513   */\n      0x00\n        /* \"#utility.yul\":17504:17510   */\n      dup3\n        /* \"#utility.yul\":17500:17514   */\n      add\n        /* \"#utility.yul\":17493:17551   */\n      mstore\n        /* \"#utility.yul\":17585:17589   */\n      0x7373000000000000000000000000000000000000000000000000000000000000\n        /* \"#utility.yul\":17580:17582   */\n      0x20\n        /* \"#utility.yul\":17572:17578   */\n      dup3\n        /* \"#utility.yul\":17568:17583   */\n      add\n        /* \"#utility.yul\":17561:17590   */\n      mstore\n        /* \"#utility.yul\":17376:17597   */\n      pop\n      jump\t// out\n        /* \"#utility.yul\":17603:17780   */\n    tag_340:\n        /* \"#utility.yul\":17743:17772   */\n      0x536166654d6174683a206164646974696f6e206f766572666c6f770000000000\n        /* \"#utility.yul\":17739:17740   */\n      0x00\n        /* \"#utility.yul\":17731:17737   */\n      dup3\n        /* \"#utility.yul\":17727:17741   */\n      add\n        /* \"#utility.yul\":17720:17773   */\n      mstore\n        /* \"#utility.yul\":17603:17780   */\n      pop\n      jump\t// out\n        /* \"#utility.yul\":17786:17966   */\n    tag_345:\n        /* \"#utility.yul\":17926:17958   */\n      0x536166654d6174683a207375627472616374696f6e206f766572666c6f770000\n        /* \"#utility.yul\":17922:17923   */\n      0x00\n        /* \"#utility.yul\":17914:17920   */\n      dup3\n        /* \"#utility.yul\":17910:17924   */\n      add\n        /* \"#utility.yul\":17903:17959   */\n      mstore\n        /* \"#utility.yul\":17786:17966   */\n      pop\n      jump\t// out\n        /* \"#utility.yul\":17972:18151   */\n    tag_350:\n        /* \"#utility.yul\":18112:18143   */\n      0x4752423a204e6f206d6f7265206d696e74696e6720616c6c6f77656421000000\n        /* \"#utility.yul\":18108:18109   */\n      0x00\n        /* \"#utility.yul\":18100:18106   */\n      dup3\n        /* \"#utility.yul\":18096:18110   */\n      add\n        /* \"#utility.yul\":18089:18144   */\n      mstore\n        /* \"#utility.yul\":17972:18151   */\n      pop\n      jump\t// out\n        /* \"#utility.yul\":18157:18379   */\n    tag_355:\n        /* \"#utility.yul\":18297:18331   */\n      0x4752423a20596f7520646f6e2774206861766520746865207065726d69737369\n        /* \"#utility.yul\":18293:18294   */\n      0x00\n        /* \"#utility.yul\":18285:18291   */\n      dup3\n        /* \"#utility.yul\":18281:18295   */\n      add\n        /* \"#utility.yul\":18274:18332   */\n      mstore\n        /* \"#utility.yul\":18366:18371   */\n      0x6f6e210000000000000000000000000000000000000000000000000000000000\n        /* \"#utility.yul\":18361:18363   */\n      0x20\n        /* \"#utility.yul\":18353:18359   */\n      dup3\n        /* \"#utility.yul\":18349:18364   */\n      add\n        /* \"#utility.yul\":18342:18372   */\n      mstore\n        /* \"#utility.yul\":18157:18379   */\n      pop\n      jump\t// out\n        /* \"#utility.yul\":18385:18567   */\n    tag_360:\n        /* \"#utility.yul\":18525:18559   */\n      0x4f776e61626c653a2063616c6c6572206973206e6f7420746865206f776e6572\n        /* \"#utility.yul\":18521:18522   */\n      0x00\n        /* \"#utility.yul\":18513:18519   */\n      dup3\n        /* \"#utility.yul\":18509:18523   */\n      add\n        /* \"#utility.yul\":18502:18560   */\n      mstore\n        /* \"#utility.yul\":18385:18567   */\n      pop\n      jump\t// out\n        /* \"#utility.yul\":18573:18793   */\n    tag_365:\n        /* \"#utility.yul\":18713:18747   */\n      0x45524332303a206275726e2066726f6d20746865207a65726f20616464726573\n        /* \"#utility.yul\":18709:18710   */\n      0x00\n        /* \"#utility.yul\":18701:18707   */\n      dup3\n        /* \"#utility.yul\":18697:18711   */\n      add\n        /* \"#utility.yul\":18690:18748   */\n      mstore\n        /* \"#utility.yul\":18782:18785   */\n      0x7300000000000000000000000000000000000000000000000000000000000000\n        /* \"#utility.yul\":18777:18779   */\n      0x20\n        /* \"#utility.yul\":18769:18775   */\n      dup3\n        /* \"#utility.yul\":18765:18780   */\n      add\n        /* \"#utility.yul\":18758:18786   */\n      mstore\n        /* \"#utility.yul\":18573:18793   */\n      pop\n      jump\t// out\n        /* \"#utility.yul\":18799:19023   */\n    tag_370:\n        /* \"#utility.yul\":18939:18973   */\n      0x45524332303a207472616e736665722066726f6d20746865207a65726f206164\n        /* \"#utility.yul\":18935:18936   */\n      0x00\n        /* \"#utility.yul\":18927:18933   */\n      dup3\n        /* \"#utility.yul\":18923:18937   */\n      add\n        /* \"#utility.yul\":18916:18974   */\n      mstore\n        /* \"#utility.yul\":19008:19015   */\n      0x6472657373000000000000000000000000000000000000000000000000000000\n        /* \"#utility.yul\":19003:19005   */\n      0x20\n        /* \"#utility.yul\":18995:19001   */\n      dup3\n        /* \"#utility.yul\":18991:19006   */\n      add\n        /* \"#utility.yul\":18984:19016   */\n      mstore\n        /* \"#utility.yul\":18799:19023   */\n      pop\n      jump\t// out\n        /* \"#utility.yul\":19029:19252   */\n    tag_375:\n        /* \"#utility.yul\":19169:19203   */\n      0x45524332303a20617070726f76652066726f6d20746865207a65726f20616464\n        /* \"#utility.yul\":19165:19166   */\n      0x00\n        /* \"#utility.yul\":19157:19163   */\n      dup3\n        /* \"#utility.yul\":19153:19167   */\n      add\n        /* \"#utility.yul\":19146:19204   */\n      mstore\n        /* \"#utility.yul\":19238:19244   */\n      0x7265737300000000000000000000000000000000000000000000000000000000\n        /* \"#utility.yul\":19233:19235   */\n      0x20\n        /* \"#utility.yul\":19225:19231   */\n      dup3\n        /* \"#utility.yul\":19221:19236   */\n      add\n        /* \"#utility.yul\":19214:19245   */\n      mstore\n        /* \"#utility.yul\":19029:19252   */\n      pop\n      jump\t// out\n        /* \"#utility.yul\":19258:19439   */\n    tag_380:\n        /* \"#utility.yul\":19398:19431   */\n      0x45524332303a206d696e7420746f20746865207a65726f206164647265737300\n        /* \"#utility.yul\":19394:19395   */\n      0x00\n        /* \"#utility.yul\":19386:19392   */\n      dup3\n        /* \"#utility.yul\":19382:19396   */\n      add\n        /* \"#utility.yul\":19375:19432   */\n      mstore\n        /* \"#utility.yul\":19258:19439   */\n      pop\n      jump\t// out\n        /* \"#utility.yul\":19445:19567   */\n    tag_273:\n        /* \"#utility.yul\":19518:19542   */\n      tag_474\n        /* \"#utility.yul\":19536:19541   */\n      dup2\n        /* \"#utility.yul\":19518:19542   */\n      tag_306\n      jump\t// in\n    tag_474:\n        /* \"#utility.yul\":19511:19516   */\n      dup2\n        /* \"#utility.yul\":19508:19543   */\n      eq\n        /* \"#utility.yul\":19498:19561   */\n      tag_475\n      jumpi\n        /* \"#utility.yul\":19557:19558   */\n      0x00\n        /* \"#utility.yul\":19554:19555   */\n      dup1\n        /* \"#utility.yul\":19547:19559   */\n      revert\n        /* \"#utility.yul\":19498:19561   */\n    tag_475:\n        /* \"#utility.yul\":19445:19567   */\n      pop\n      jump\t// out\n        /* \"#utility.yul\":19573:19695   */\n    tag_277:\n        /* \"#utility.yul\":19646:19670   */\n      tag_477\n        /* \"#utility.yul\":19664:19669   */\n      dup2\n        /* \"#utility.yul\":19646:19670   */\n      tag_384\n      jump\t// in\n    tag_477:\n        /* \"#utility.yul\":19639:19644   */\n      dup2\n        /* \"#utility.yul\":19636:19671   */\n      eq\n        /* \"#utility.yul\":19626:19689   */\n      tag_478\n      jumpi\n        /* \"#utility.yul\":19685:19686   */\n      0x00\n        /* \"#utility.yul\":19682:19683   */\n      dup1\n        /* \"#utility.yul\":19675:19687   */\n      revert\n        /* \"#utility.yul\":19626:19689   */\n    tag_478:\n        /* \"#utility.yul\":19573:19695   */\n      pop\n      jump\t// out\n    stop\n    data_149b126e7125232b4200af45303d04fba8b74653b1a295a6a561a528c33fefdd 45524332303a206275726e20616d6f756e7420657863656564732062616c616e6365\n    data_4107e8a8b9e94bf8ff83080ddec1c0bffe897ebc2241b89d44f66b3d274088b6 45524332303a207472616e7366657220616d6f756e7420657863656564732062616c616e6365\n    data_974d1b4421da69cc60b481194f0dad36a5bb4e23da810da7a7fb30cdba178330 45524332303a207472616e7366657220616d6f756e74206578636565647320616c6c6f77616e6365\n    data_a287c363786607a1457a2d9d12fa61c0073358e02d76b4035fc2c2d86a19c0db 45524332303a206275726e20616d6f756e74206578636565647320616c6c6f77616e6365\n    data_f8b476f7d28209d77d4a4ac1fe36b9f8259aa1bb6bddfa6e89de7e51615cf8a8 45524332303a2064656372656173656420616c6c6f77616e63652062656c6f77207a65726f\n\n    auxdata: 0xa264697066735822122036bccf0164f41d6aca2c176f89fb9bed0aa1aab5551abb7a1830f46402dde2df64736f6c63430008070033\n}\n",
				"bytecode": {
					"linkReferences": {},
					"object": "60a060405260006007553480156200001657600080fd5b5060405162002cfc38038062002cfc83398181016040528101906200003c919062000511565b6040518060400160405280600981526020017f47524220546f6b656e00000000000000000000000000000000000000000000008152506040518060400160405280600381526020017f47524200000000000000000000000000000000000000000000000000000000008152508160039080519060200190620000c09291906200044a565b508060049080519060200190620000d99291906200044a565b506012600560006101000a81548160ff021916908360ff160217905550505060006200010a6200022b60201b60201c565b905080600560016101000a81548173ffffffffffffffffffffffffffffffffffffffff021916908373ffffffffffffffffffffffffffffffffffffffff1602179055508073ffffffffffffffffffffffffffffffffffffffff16600073ffffffffffffffffffffffffffffffffffffffff167f8be0079c531659141344cd1fd0a4f28419497f9722a3daafe3b4186f6b6457e060405160405180910390a35081811115620001ef576040517f08c379a0000000000000000000000000000000000000000000000000000000008152600401620001e69062000600565b60405180910390fd5b81608081815250506000811115620002235762000222620002156200022b60201b60201c565b826200023360201b60201c565b5b50506200082d565b600033905090565b600073ffffffffffffffffffffffffffffffffffffffff168273ffffffffffffffffffffffffffffffffffffffff161415620002a6576040517f08c379a00000000000000000000000000000000000000000000000000000000081526004016200029d9062000622565b60405180910390fd5b620002ba60008383620003e260201b60201c565b620002d681600254620003e760201b6200105a1790919060201c565b60028190555062000334816000808573ffffffffffffffffffffffffffffffffffffffff1673ffffffffffffffffffffffffffffffffffffffff16815260200190815260200160002054620003e760201b6200105a1790919060201c565b6000808473ffffffffffffffffffffffffffffffffffffffff1673ffffffffffffffffffffffffffffffffffffffff168152602001908152602001600020819055508173ffffffffffffffffffffffffffffffffffffffff16600073ffffffffffffffffffffffffffffffffffffffff167fddf252ad1be2c89b69c2b068fc378daa952ba7f163c4a11628f55a4df523b3ef83604051620003d6919062000644565b60405180910390a35050565b505050565b6000808284620003f8919062000672565b90508381101562000440576040517f08c379a00000000000000000000000000000000000000000000000000000000081526004016200043790620005de565b60405180910390fd5b8091505092915050565b8280546200045890620006d9565b90600052602060002090601f0160209004810192826200047c5760008555620004c8565b82601f106200049757805160ff1916838001178555620004c8565b82800160010185558215620004c8579182015b82811115620004c7578251825591602001919060010190620004aa565b5b509050620004d79190620004db565b5090565b5b80821115620004f6576000816000905550600101620004dc565b5090565b6000815190506200050b8162000813565b92915050565b600080604083850312156200052b576200052a6200076d565b5b60006200053b85828601620004fa565b92505060206200054e85828601620004fa565b9150509250929050565b600062000567601b8362000661565b9150620005748262000772565b602082019050919050565b60006200058e60388362000661565b91506200059b826200079b565b604082019050919050565b6000620005b5601f8362000661565b9150620005c282620007ea565b602082019050919050565b620005d881620006cf565b82525050565b60006020820190508181036000830152620005f98162000558565b9050919050565b600060208201905081810360008301526200061b816200057f565b9050919050565b600060208201905081810360008301526200063d81620005a6565b9050919050565b60006020820190506200065b6000830184620005cd565b92915050565b600082825260208201905092915050565b60006200067f82620006cf565b91506200068c83620006cf565b9250827fffffffffffffffffffffffffffffffffffffffffffffffffffffffffffffffff03821115620006c457620006c36200070f565b5b828201905092915050565b6000819050919050565b60006002820490506001821680620006f257607f821691505b602082108114156200070957620007086200073e565b5b50919050565b7f4e487b7100000000000000000000000000000000000000000000000000000000600052601160045260246000fd5b7f4e487b7100000000000000000000000000000000000000000000000000000000600052602260045260246000fd5b600080fd5b7f536166654d6174683a206164646974696f6e206f766572666c6f770000000000600082015250565b7f4752423a20546865205f696e697469616c537570706c792073686f756c64206e60008201527f6f742065786365656420746865205f6d6178537570706c790000000000000000602082015250565b7f45524332303a206d696e7420746f20746865207a65726f206164647265737300600082015250565b6200081e81620006cf565b81146200082a57600080fd5b50565b6080516124ac62000850600039600081816105f7015261076d01526124ac6000f3fe608060405234801561001057600080fd5b50600436106101425760003560e01c8063715018a6116100b8578063a9059cbb1161007c578063a9059cbb14610365578063aa271e1a14610395578063b366d613146103c5578063d89135cd146103e1578063dd62ed3e146103ff578063f2fde38b1461042f57610142565b8063715018a6146102d357806379cc6790146102dd5780638da5cb5b146102f957806395d89b4114610317578063a457c2d71461033557610142565b806332cb6b0c1161010a57806332cb6b0c14610201578063395093511461021f57806340c10f191461024f57806342966c681461026b57806369e2f0fb1461028757806370a08231146102a357610142565b806306fdde0314610147578063095ea7b31461016557806318160ddd1461019557806323b872dd146101b3578063313ce567146101e3575b600080fd5b61014f61044b565b60405161015c9190611ced565b60405180910390f35b61017f600480360381019061017a9190611a31565b6104dd565b60405161018c9190611cd2565b60405180910390f35b61019d6104fb565b6040516101aa9190611e8f565b60405180910390f35b6101cd60048036038101906101c891906119de565b610505565b6040516101da9190611cd2565b60405180910390f35b6101eb6105de565b6040516101f89190611eaa565b60405180910390f35b6102096105f5565b6040516102169190611e8f565b60405180910390f35b61023960048036038101906102349190611a31565b610619565b6040516102469190611cd2565b60405180910390f35b61026960048036038101906102649190611a31565b6106cc565b005b61028560048036038101906102809190611a71565b6107ef565b005b6102a1600480360381019061029c9190611971565b610803565b005b6102bd60048036038101906102b89190611971565b61093b565b6040516102ca9190611e8f565b60405180910390f35b6102db610983565b005b6102f760048036038101906102f29190611a31565b610ac0565b005b610301610b22565b60405161030e9190611cb7565b60405180910390f35b61031f610b4c565b60405161032c9190611ced565b60405180910390f35b61034f600480360381019061034a9190611a31565b610bde565b60405161035c9190611cd2565b60405180910390f35b61037f600480360381019061037a9190611a31565b610cab565b60405161038c9190611cd2565b60405180910390f35b6103af60048036038101906103aa9190611971565b610cc9565b6040516103bc9190611cd2565b60405180910390f35b6103df60048036038101906103da9190611971565b610ce9565b005b6103e9610e21565b6040516103f69190611e8f565b60405180910390f35b6104196004803603810190610414919061199e565b610e27565b6040516104269190611e8f565b60405180910390f35b61044960048036038101906104449190611971565b610eae565b005b60606003805461045a90611ff3565b80601f016020809104026020016040519081016040528092919081815260200182805461048690611ff3565b80156104d35780601f106104a8576101008083540402835291602001916104d3565b820191906000526020600020905b8154815290600101906020018083116104b657829003601f168201915b5050505050905090565b60006104f16104ea6110b8565b84846110c0565b6001905092915050565b6000600254905090565b600061051284848461128b565b6105d38461051e6110b8565b6105ce8560405180606001604052806028815260200161240660289139600160008b73ffffffffffffffffffffffffffffffffffffffff1673ffffffffffffffffffffffffffffffffffffffff16815260200190815260200160002060006105846110b8565b73ffffffffffffffffffffffffffffffffffffffff1673ffffffffffffffffffffffffffffffffffffffff168152602001908152602001600020546115209092919063ffffffff16565b6110c0565b600190509392505050565b6000600560009054906101000a900460ff16905090565b7f000000000000000000000000000000000000000000000000000000000000000081565b60006106c26106266110b8565b846106bd85600160006106376110b8565b73ffffffffffffffffffffffffffffffffffffffff1673ffffffffffffffffffffffffffffffffffffffff16815260200190815260200160002060008973ffffffffffffffffffffffffffffffffffffffff1673ffffffffffffffffffffffffffffffffffffffff1681526020019081526020016000205461105a90919063ffffffff16565b6110c0565b6001905092915050565b600660006106d86110b8565b73ffffffffffffffffffffffffffffffffffffffff1673ffffffffffffffffffffffffffffffffffffffff16815260200190815260200160002060009054906101000a900460ff1661075f576040517f08c379a000000000000000000000000000000000000000000000000000000000815260040161075690611dcf565b60405180910390fd5b60006107696104fb565b90507f000000000000000000000000000000000000000000000000000000000000000061079f838361105a90919063ffffffff16565b11156107e0576040517f08c379a00000000000000000000000000000000000000000000000000000000081526004016107d790611daf565b60405180910390fd5b6107ea838361157e565b505050565b6108006107fa6110b8565b82611712565b50565b61080b6110b8565b73ffffffffffffffffffffffffffffffffffffffff16610829610b22565b73ffffffffffffffffffffffffffffffffffffffff161461087f576040517f08c379a000000000000000000000000000000000000000000000000000000000815260040161087690611def565b60405180910390fd5b6000600660008373ffffffffffffffffffffffffffffffffffffffff1673ffffffffffffffffffffffffffffffffffffffff16815260200190815260200160002060006101000a81548160ff0219169083151502179055508073ffffffffffffffffffffffffffffffffffffffff166108f66110b8565b73ffffffffffffffffffffffffffffffffffffffff167f73dc04f997208e28ceeffcd1317c714ef242da548c360f2f65be1f3e5e5777bb60405160405180910390a350565b60008060008373ffffffffffffffffffffffffffffffffffffffff1673ffffffffffffffffffffffffffffffffffffffff168152602001908152602001600020549050919050565b61098b6110b8565b73ffffffffffffffffffffffffffffffffffffffff166109a9610b22565b73ffffffffffffffffffffffffffffffffffffffff16146109ff576040517f08c379a00000000000000000000000000000000000000000000000000000000081526004016109f690611def565b60405180910390fd5b600073ffffffffffffffffffffffffffffffffffffffff16600560019054906101000a900473ffffffffffffffffffffffffffffffffffffffff1673ffffffffffffffffffffffffffffffffffffffff167f8be0079c531659141344cd1fd0a4f28419497f9722a3daafe3b4186f6b6457e060405160405180910390a36000600560016101000a81548173ffffffffffffffffffffffffffffffffffffffff021916908373ffffffffffffffffffffffffffffffffffffffff160217905550565b6000610aff8260405180606001604052806024815260200161242e60249139610af086610aeb6110b8565b610e27565b6115209092919063ffffffff16565b9050610b1383610b0d6110b8565b836110c0565b610b1d8383611712565b505050565b6000600560019054906101000a900473ffffffffffffffffffffffffffffffffffffffff16905090565b606060048054610b5b90611ff3565b80601f0160208091040260200160405190810160405280929190818152602001828054610b8790611ff3565b8015610bd45780601f10610ba957610100808354040283529160200191610bd4565b820191906000526020600020905b815481529060010190602001808311610bb757829003601f168201915b5050505050905090565b6000610ca1610beb6110b8565b84610c9c856040518060600160405280602581526020016124526025913960016000610c156110b8565b73ffffffffffffffffffffffffffffffffffffffff1673ffffffffffffffffffffffffffffffffffffffff16815260200190815260200160002060008a73ffffffffffffffffffffffffffffffffffffffff1673ffffffffffffffffffffffffffffffffffffffff168152602001908152602001600020546115209092919063ffffffff16565b6110c0565b6001905092915050565b6000610cbf610cb86110b8565b848461128b565b6001905092915050565b60066020528060005260406000206000915054906101000a900460ff1681565b610cf16110b8565b73ffffffffffffffffffffffffffffffffffffffff16610d0f610b22565b73ffffffffffffffffffffffffffffffffffffffff1614610d65576040517f08c379a0000000000000000000000000000000000000000000000000000000008152600401610d5c90611def565b60405180910390fd5b6001600660008373ffffffffffffffffffffffffffffffffffffffff1673ffffffffffffffffffffffffffffffffffffffff16815260200190815260200160002060006101000a81548160ff0219169083151502179055508073ffffffffffffffffffffffffffffffffffffffff16610ddc6110b8565b73ffffffffffffffffffffffffffffffffffffffff167f3d897ffa5fd59890ed4634aba2661baba4671f396e0050bbe8cc6549a4f14c4460405160405180910390a350565b60075481565b6000600160008473ffffffffffffffffffffffffffffffffffffffff1673ffffffffffffffffffffffffffffffffffffffff16815260200190815260200160002060008373ffffffffffffffffffffffffffffffffffffffff1673ffffffffffffffffffffffffffffffffffffffff16815260200190815260200160002054905092915050565b610eb66110b8565b73ffffffffffffffffffffffffffffffffffffffff16610ed4610b22565b73ffffffffffffffffffffffffffffffffffffffff1614610f2a576040517f08c379a0000000000000000000000000000000000000000000000000000000008152600401610f2190611def565b60405180910390fd5b600073ffffffffffffffffffffffffffffffffffffffff168173ffffffffffffffffffffffffffffffffffffffff161415610f9a576040517f08c379a0000000000000000000000000000000000000000000000000000000008152600401610f9190611d2f565b60405180910390fd5b8073ffffffffffffffffffffffffffffffffffffffff16600560019054906101000a900473ffffffffffffffffffffffffffffffffffffffff1673ffffffffffffffffffffffffffffffffffffffff167f8be0079c531659141344cd1fd0a4f28419497f9722a3daafe3b4186f6b6457e060405160405180910390a380600560016101000a81548173ffffffffffffffffffffffffffffffffffffffff021916908373ffffffffffffffffffffffffffffffffffffffff16021790555050565b60008082846110699190611ee1565b9050838110156110ae576040517f08c379a00000000000000000000000000000000000000000000000000000000081526004016110a590611d6f565b60405180910390fd5b8091505092915050565b600033905090565b600073ffffffffffffffffffffffffffffffffffffffff168373ffffffffffffffffffffffffffffffffffffffff161415611130576040517f08c379a000000000000000000000000000000000000000000000000000000000815260040161112790611e4f565b60405180910390fd5b600073ffffffffffffffffffffffffffffffffffffffff168273ffffffffffffffffffffffffffffffffffffffff1614156111a0576040517f08c379a000000000000000000000000000000000000000000000000000000000815260040161119790611d4f565b60405180910390fd5b80600160008573ffffffffffffffffffffffffffffffffffffffff1673ffffffffffffffffffffffffffffffffffffffff16815260200190815260200160002060008473ffffffffffffffffffffffffffffffffffffffff1673ffffffffffffffffffffffffffffffffffffffff168152602001908152602001600020819055508173ffffffffffffffffffffffffffffffffffffffff168373ffffffffffffffffffffffffffffffffffffffff167f8c5be1e5ebec7d5bd14f71427d1e84f3dd0314c0f7b2291e5b200ac8c7c3b9258360405161127e9190611e8f565b60405180910390a3505050565b600073ffffffffffffffffffffffffffffffffffffffff168373ffffffffffffffffffffffffffffffffffffffff1614156112fb576040517f08c379a00000000000000000000000000000000000000000000000000000000081526004016112f290611e2f565b60405180910390fd5b600073ffffffffffffffffffffffffffffffffffffffff168273ffffffffffffffffffffffffffffffffffffffff16141561136b576040517f08c379a000000000000000000000000000000000000000000000000000000000815260040161136290611d0f565b60405180910390fd5b61137683838361173b565b6113e1816040518060600160405280602681526020016123e0602691396000808773ffffffffffffffffffffffffffffffffffffffff1673ffffffffffffffffffffffffffffffffffffffff168152602001908152602001600020546115209092919063ffffffff16565b6000808573ffffffffffffffffffffffffffffffffffffffff1673ffffffffffffffffffffffffffffffffffffffff16815260200190815260200160002081905550611474816000808573ffffffffffffffffffffffffffffffffffffffff1673ffffffffffffffffffffffffffffffffffffffff1681526020019081526020016000205461105a90919063ffffffff16565b6000808473ffffffffffffffffffffffffffffffffffffffff1673ffffffffffffffffffffffffffffffffffffffff168152602001908152602001600020819055508173ffffffffffffffffffffffffffffffffffffffff168373ffffffffffffffffffffffffffffffffffffffff167fddf252ad1be2c89b69c2b068fc378daa952ba7f163c4a11628f55a4df523b3ef836040516115139190611e8f565b60405180910390a3505050565b6000838311158290611568576040517f08c379a000000000000000000000000000000000000000000000000000000000815260040161155f9190611ced565b60405180910390fd5b5082846115759190611f37565b90509392505050565b600073ffffffffffffffffffffffffffffffffffffffff168273ffffffffffffffffffffffffffffffffffffffff1614156115ee576040517f08c379a00000000000000000000000000000000000000000000000000000000081526004016115e590611e6f565b60405180910390fd5b6115fa6000838361173b565b61160f8160025461105a90919063ffffffff16565b600281905550611666816000808573ffffffffffffffffffffffffffffffffffffffff1673ffffffffffffffffffffffffffffffffffffffff1681526020019081526020016000205461105a90919063ffffffff16565b6000808473ffffffffffffffffffffffffffffffffffffffff1673ffffffffffffffffffffffffffffffffffffffff168152602001908152602001600020819055508173ffffffffffffffffffffffffffffffffffffffff16600073ffffffffffffffffffffffffffffffffffffffff167fddf252ad1be2c89b69c2b068fc378daa952ba7f163c4a11628f55a4df523b3ef836040516117069190611e8f565b60405180910390a35050565b61171c8282611740565b6117318160075461105a90919063ffffffff16565b6007819055505050565b505050565b600073ffffffffffffffffffffffffffffffffffffffff168273ffffffffffffffffffffffffffffffffffffffff1614156117b0576040517f08c379a00000000000000000000000000000000000000000000000000000000081526004016117a790611e0f565b60405180910390fd5b6117bc8260008361173b565b611827816040518060600160405280602281526020016123be602291396000808673ffffffffffffffffffffffffffffffffffffffff1673ffffffffffffffffffffffffffffffffffffffff168152602001908152602001600020546115209092919063ffffffff16565b6000808473ffffffffffffffffffffffffffffffffffffffff1673ffffffffffffffffffffffffffffffffffffffff1681526020019081526020016000208190555061187e816002546118ee90919063ffffffff16565b600281905550600073ffffffffffffffffffffffffffffffffffffffff168273ffffffffffffffffffffffffffffffffffffffff167fddf252ad1be2c89b69c2b068fc378daa952ba7f163c4a11628f55a4df523b3ef836040516118e29190611e8f565b60405180910390a35050565b600082821115611933576040517f08c379a000000000000000000000000000000000000000000000000000000000815260040161192a90611d8f565b60405180910390fd5b818361193f9190611f37565b905092915050565b6000813590506119568161238f565b92915050565b60008135905061196b816123a6565b92915050565b60006020828403121561198757611986612083565b5b600061199584828501611947565b91505092915050565b600080604083850312156119b5576119b4612083565b5b60006119c385828601611947565b92505060206119d485828601611947565b9150509250929050565b6000806000606084860312156119f7576119f6612083565b5b6000611a0586828701611947565b9350506020611a1686828701611947565b9250506040611a278682870161195c565b9150509250925092565b60008060408385031215611a4857611a47612083565b5b6000611a5685828601611947565b9250506020611a678582860161195c565b9150509250929050565b600060208284031215611a8757611a86612083565b5b6000611a958482850161195c565b91505092915050565b611aa781611f6b565b82525050565b611ab681611f7d565b82525050565b6000611ac782611ec5565b611ad18185611ed0565b9350611ae1818560208601611fc0565b611aea81612088565b840191505092915050565b6000611b02602383611ed0565b9150611b0d82612099565b604082019050919050565b6000611b25602683611ed0565b9150611b30826120e8565b604082019050919050565b6000611b48602283611ed0565b9150611b5382612137565b604082019050919050565b6000611b6b601b83611ed0565b9150611b7682612186565b602082019050919050565b6000611b8e601e83611ed0565b9150611b99826121af565b602082019050919050565b6000611bb1601d83611ed0565b9150611bbc826121d8565b602082019050919050565b6000611bd4602383611ed0565b9150611bdf82612201565b604082019050919050565b6000611bf7602083611ed0565b9150611c0282612250565b602082019050919050565b6000611c1a602183611ed0565b9150611c2582612279565b604082019050919050565b6000611c3d602583611ed0565b9150611c48826122c8565b604082019050919050565b6000611c60602483611ed0565b9150611c6b82612317565b604082019050919050565b6000611c83601f83611ed0565b9150611c8e82612366565b602082019050919050565b611ca281611fa9565b82525050565b611cb181611fb3565b82525050565b6000602082019050611ccc6000830184611a9e565b92915050565b6000602082019050611ce76000830184611aad565b92915050565b60006020820190508181036000830152611d078184611abc565b905092915050565b60006020820190508181036000830152611d2881611af5565b9050919050565b60006020820190508181036000830152611d4881611b18565b9050919050565b60006020820190508181036000830152611d6881611b3b565b9050919050565b60006020820190508181036000830152611d8881611b5e565b9050919050565b60006020820190508181036000830152611da881611b81565b9050919050565b60006020820190508181036000830152611dc881611ba4565b9050919050565b60006020820190508181036000830152611de881611bc7565b9050919050565b60006020820190508181036000830152611e0881611bea565b9050919050565b60006020820190508181036000830152611e2881611c0d565b9050919050565b60006020820190508181036000830152611e4881611c30565b9050919050565b60006020820190508181036000830152611e6881611c53565b9050919050565b60006020820190508181036000830152611e8881611c76565b9050919050565b6000602082019050611ea46000830184611c99565b92915050565b6000602082019050611ebf6000830184611ca8565b92915050565b600081519050919050565b600082825260208201905092915050565b6000611eec82611fa9565b9150611ef783611fa9565b9250827fffffffffffffffffffffffffffffffffffffffffffffffffffffffffffffffff03821115611f2c57611f2b612025565b5b828201905092915050565b6000611f4282611fa9565b9150611f4d83611fa9565b925082821015611f6057611f5f612025565b5b828203905092915050565b6000611f7682611f89565b9050919050565b60008115159050919050565b600073ffffffffffffffffffffffffffffffffffffffff82169050919050565b6000819050919050565b600060ff82169050919050565b60005b83811015611fde578082015181840152602081019050611fc3565b83811115611fed576000848401525b50505050565b6000600282049050600182168061200b57607f821691505b6020821081141561201f5761201e612054565b5b50919050565b7f4e487b7100000000000000000000000000000000000000000000000000000000600052601160045260246000fd5b7f4e487b7100000000000000000000000000000000000000000000000000000000600052602260045260246000fd5b600080fd5b6000601f19601f8301169050919050565b7f45524332303a207472616e7366657220746f20746865207a65726f206164647260008201527f6573730000000000000000000000000000000000000000000000000000000000602082015250565b7f4f776e61626c653a206e6577206f776e657220697320746865207a65726f206160008201527f6464726573730000000000000000000000000000000000000000000000000000602082015250565b7f45524332303a20617070726f766520746f20746865207a65726f20616464726560008201527f7373000000000000000000000000000000000000000000000000000000000000602082015250565b7f536166654d6174683a206164646974696f6e206f766572666c6f770000000000600082015250565b7f536166654d6174683a207375627472616374696f6e206f766572666c6f770000600082015250565b7f4752423a204e6f206d6f7265206d696e74696e6720616c6c6f77656421000000600082015250565b7f4752423a20596f7520646f6e2774206861766520746865207065726d6973736960008201527f6f6e210000000000000000000000000000000000000000000000000000000000602082015250565b7f4f776e61626c653a2063616c6c6572206973206e6f7420746865206f776e6572600082015250565b7f45524332303a206275726e2066726f6d20746865207a65726f2061646472657360008201527f7300000000000000000000000000000000000000000000000000000000000000602082015250565b7f45524332303a207472616e736665722066726f6d20746865207a65726f20616460008201527f6472657373000000000000000000000000000000000000000000000000000000602082015250565b7f45524332303a20617070726f76652066726f6d20746865207a65726f2061646460008201527f7265737300000000000000000000000000000000000000000000000000000000602082015250565b7f45524332303a206d696e7420746f20746865207a65726f206164647265737300600082015250565b61239881611f6b565b81146123a357600080fd5b50565b6123af81611fa9565b81146123ba57600080fd5b5056fe45524332303a206275726e20616d6f756e7420657863656564732062616c616e636545524332303a207472616e7366657220616d6f756e7420657863656564732062616c616e636545524332303a207472616e7366657220616d6f756e74206578636565647320616c6c6f77616e636545524332303a206275726e20616d6f756e74206578636565647320616c6c6f77616e636545524332303a2064656372656173656420616c6c6f77616e63652062656c6f77207a65726fa264697066735822122036bccf0164f41d6aca2c176f89fb9bed0aa1aab5551abb7a1830f46402dde2df64736f6c63430008070033",
					"opcodes": "PUSH1 0xA0 PUSH1 0x40 MSTORE PUSH1 0x0 PUSH1 0x7 SSTORE CALLVALUE DUP1 ISZERO PUSH3 0x16 JUMPI PUSH1 0x0 DUP1 REVERT JUMPDEST POP PUSH1 0x40 MLOAD PUSH3 0x2CFC CODESIZE SUB DUP1 PUSH3 0x2CFC DUP4 CODECOPY DUP2 DUP2 ADD PUSH1 0x40 MSTORE DUP2 ADD SWAP1 PUSH3 0x3C SWAP2 SWAP1 PUSH3 0x511 JUMP JUMPDEST PUSH1 0x40 MLOAD DUP1 PUSH1 0x40 ADD PUSH1 0x40 MSTORE DUP1 PUSH1 0x9 DUP2 MSTORE PUSH1 0x20 ADD PUSH32 0x47524220546F6B656E0000000000000000000000000000000000000000000000 DUP2 MSTORE POP PUSH1 0x40 MLOAD DUP1 PUSH1 0x40 ADD PUSH1 0x40 MSTORE DUP1 PUSH1 0x3 DUP2 MSTORE PUSH1 0x20 ADD PUSH32 0x4752420000000000000000000000000000000000000000000000000000000000 DUP2 MSTORE POP DUP2 PUSH1 0x3 SWAP1 DUP1 MLOAD SWAP1 PUSH1 0x20 ADD SWAP1 PUSH3 0xC0 SWAP3 SWAP2 SWAP1 PUSH3 0x44A JUMP JUMPDEST POP DUP1 PUSH1 0x4 SWAP1 DUP1 MLOAD SWAP1 PUSH1 0x20 ADD SWAP1 PUSH3 0xD9 SWAP3 SWAP2 SWAP1 PUSH3 0x44A JUMP JUMPDEST POP PUSH1 0x12 PUSH1 0x5 PUSH1 0x0 PUSH2 0x100 EXP DUP2 SLOAD DUP2 PUSH1 0xFF MUL NOT AND SWAP1 DUP4 PUSH1 0xFF AND MUL OR SWAP1 SSTORE POP POP POP PUSH1 0x0 PUSH3 0x10A PUSH3 0x22B PUSH1 0x20 SHL PUSH1 0x20 SHR JUMP JUMPDEST SWAP1 POP DUP1 PUSH1 0x5 PUSH1 0x1 PUSH2 0x100 EXP DUP2 SLOAD DUP2 PUSH20 0xFFFFFFFFFFFFFFFFFFFFFFFFFFFFFFFFFFFFFFFF MUL NOT AND SWAP1 DUP4 PUSH20 0xFFFFFFFFFFFFFFFFFFFFFFFFFFFFFFFFFFFFFFFF AND MUL OR SWAP1 SSTORE POP DUP1 PUSH20 0xFFFFFFFFFFFFFFFFFFFFFFFFFFFFFFFFFFFFFFFF AND PUSH1 0x0 PUSH20 0xFFFFFFFFFFFFFFFFFFFFFFFFFFFFFFFFFFFFFFFF AND PUSH32 0x8BE0079C531659141344CD1FD0A4F28419497F9722A3DAAFE3B4186F6B6457E0 PUSH1 0x40 MLOAD PUSH1 0x40 MLOAD DUP1 SWAP2 SUB SWAP1 LOG3 POP DUP2 DUP2 GT ISZERO PUSH3 0x1EF JUMPI PUSH1 0x40 MLOAD PUSH32 0x8C379A000000000000000000000000000000000000000000000000000000000 DUP2 MSTORE PUSH1 0x4 ADD PUSH3 0x1E6 SWAP1 PUSH3 0x600 JUMP JUMPDEST PUSH1 0x40 MLOAD DUP1 SWAP2 SUB SWAP1 REVERT JUMPDEST DUP2 PUSH1 0x80 DUP2 DUP2 MSTORE POP POP PUSH1 0x0 DUP2 GT ISZERO PUSH3 0x223 JUMPI PUSH3 0x222 PUSH3 0x215 PUSH3 0x22B PUSH1 0x20 SHL PUSH1 0x20 SHR JUMP JUMPDEST DUP3 PUSH3 0x233 PUSH1 0x20 SHL PUSH1 0x20 SHR JUMP JUMPDEST JUMPDEST POP POP PUSH3 0x82D JUMP JUMPDEST PUSH1 0x0 CALLER SWAP1 POP SWAP1 JUMP JUMPDEST PUSH1 0x0 PUSH20 0xFFFFFFFFFFFFFFFFFFFFFFFFFFFFFFFFFFFFFFFF AND DUP3 PUSH20 0xFFFFFFFFFFFFFFFFFFFFFFFFFFFFFFFFFFFFFFFF AND EQ ISZERO PUSH3 0x2A6 JUMPI PUSH1 0x40 MLOAD PUSH32 0x8C379A000000000000000000000000000000000000000000000000000000000 DUP2 MSTORE PUSH1 0x4 ADD PUSH3 0x29D SWAP1 PUSH3 0x622 JUMP JUMPDEST PUSH1 0x40 MLOAD DUP1 SWAP2 SUB SWAP1 REVERT JUMPDEST PUSH3 0x2BA PUSH1 0x0 DUP4 DUP4 PUSH3 0x3E2 PUSH1 0x20 SHL PUSH1 0x20 SHR JUMP JUMPDEST PUSH3 0x2D6 DUP2 PUSH1 0x2 SLOAD PUSH3 0x3E7 PUSH1 0x20 SHL PUSH3 0x105A OR SWAP1 SWAP2 SWAP1 PUSH1 0x20 SHR JUMP JUMPDEST PUSH1 0x2 DUP2 SWAP1 SSTORE POP PUSH3 0x334 DUP2 PUSH1 0x0 DUP1 DUP6 PUSH20 0xFFFFFFFFFFFFFFFFFFFFFFFFFFFFFFFFFFFFFFFF AND PUSH20 0xFFFFFFFFFFFFFFFFFFFFFFFFFFFFFFFFFFFFFFFF AND DUP2 MSTORE PUSH1 0x20 ADD SWAP1 DUP2 MSTORE PUSH1 0x20 ADD PUSH1 0x0 KECCAK256 SLOAD PUSH3 0x3E7 PUSH1 0x20 SHL PUSH3 0x105A OR SWAP1 SWAP2 SWAP1 PUSH1 0x20 SHR JUMP JUMPDEST PUSH1 0x0 DUP1 DUP5 PUSH20 0xFFFFFFFFFFFFFFFFFFFFFFFFFFFFFFFFFFFFFFFF AND PUSH20 0xFFFFFFFFFFFFFFFFFFFFFFFFFFFFFFFFFFFFFFFF AND DUP2 MSTORE PUSH1 0x20 ADD SWAP1 DUP2 MSTORE PUSH1 0x20 ADD PUSH1 0x0 KECCAK256 DUP2 SWAP1 SSTORE POP DUP2 PUSH20 0xFFFFFFFFFFFFFFFFFFFFFFFFFFFFFFFFFFFFFFFF AND PUSH1 0x0 PUSH20 0xFFFFFFFFFFFFFFFFFFFFFFFFFFFFFFFFFFFFFFFF AND PUSH32 0xDDF252AD1BE2C89B69C2B068FC378DAA952BA7F163C4A11628F55A4DF523B3EF DUP4 PUSH1 0x40 MLOAD PUSH3 0x3D6 SWAP2 SWAP1 PUSH3 0x644 JUMP JUMPDEST PUSH1 0x40 MLOAD DUP1 SWAP2 SUB SWAP1 LOG3 POP POP JUMP JUMPDEST POP POP POP JUMP JUMPDEST PUSH1 0x0 DUP1 DUP3 DUP5 PUSH3 0x3F8 SWAP2 SWAP1 PUSH3 0x672 JUMP JUMPDEST SWAP1 POP DUP4 DUP2 LT ISZERO PUSH3 0x440 JUMPI PUSH1 0x40 MLOAD PUSH32 0x8C379A000000000000000000000000000000000000000000000000000000000 DUP2 MSTORE PUSH1 0x4 ADD PUSH3 0x437 SWAP1 PUSH3 0x5DE JUMP JUMPDEST PUSH1 0x40 MLOAD DUP1 SWAP2 SUB SWAP1 REVERT JUMPDEST DUP1 SWAP2 POP POP SWAP3 SWAP2 POP POP JUMP JUMPDEST DUP3 DUP1 SLOAD PUSH3 0x458 SWAP1 PUSH3 0x6D9 JUMP JUMPDEST SWAP1 PUSH1 0x0 MSTORE PUSH1 0x20 PUSH1 0x0 KECCAK256 SWAP1 PUSH1 0x1F ADD PUSH1 0x20 SWAP1 DIV DUP2 ADD SWAP3 DUP3 PUSH3 0x47C JUMPI PUSH1 0x0 DUP6 SSTORE PUSH3 0x4C8 JUMP JUMPDEST DUP3 PUSH1 0x1F LT PUSH3 0x497 JUMPI DUP1 MLOAD PUSH1 0xFF NOT AND DUP4 DUP1 ADD OR DUP6 SSTORE PUSH3 0x4C8 JUMP JUMPDEST DUP3 DUP1 ADD PUSH1 0x1 ADD DUP6 SSTORE DUP3 ISZERO PUSH3 0x4C8 JUMPI SWAP2 DUP3 ADD JUMPDEST DUP3 DUP2 GT ISZERO PUSH3 0x4C7 JUMPI DUP3 MLOAD DUP3 SSTORE SWAP2 PUSH1 0x20 ADD SWAP2 SWAP1 PUSH1 0x1 ADD SWAP1 PUSH3 0x4AA JUMP JUMPDEST JUMPDEST POP SWAP1 POP PUSH3 0x4D7 SWAP2 SWAP1 PUSH3 0x4DB JUMP JUMPDEST POP SWAP1 JUMP JUMPDEST JUMPDEST DUP1 DUP3 GT ISZERO PUSH3 0x4F6 JUMPI PUSH1 0x0 DUP2 PUSH1 0x0 SWAP1 SSTORE POP PUSH1 0x1 ADD PUSH3 0x4DC JUMP JUMPDEST POP SWAP1 JUMP JUMPDEST PUSH1 0x0 DUP2 MLOAD SWAP1 POP PUSH3 0x50B DUP2 PUSH3 0x813 JUMP JUMPDEST SWAP3 SWAP2 POP POP JUMP JUMPDEST PUSH1 0x0 DUP1 PUSH1 0x40 DUP4 DUP6 SUB SLT ISZERO PUSH3 0x52B JUMPI PUSH3 0x52A PUSH3 0x76D JUMP JUMPDEST JUMPDEST PUSH1 0x0 PUSH3 0x53B DUP6 DUP3 DUP7 ADD PUSH3 0x4FA JUMP JUMPDEST SWAP3 POP POP PUSH1 0x20 PUSH3 0x54E DUP6 DUP3 DUP7 ADD PUSH3 0x4FA JUMP JUMPDEST SWAP2 POP POP SWAP3 POP SWAP3 SWAP1 POP JUMP JUMPDEST PUSH1 0x0 PUSH3 0x567 PUSH1 0x1B DUP4 PUSH3 0x661 JUMP JUMPDEST SWAP2 POP PUSH3 0x574 DUP3 PUSH3 0x772 JUMP JUMPDEST PUSH1 0x20 DUP3 ADD SWAP1 POP SWAP2 SWAP1 POP JUMP JUMPDEST PUSH1 0x0 PUSH3 0x58E PUSH1 0x38 DUP4 PUSH3 0x661 JUMP JUMPDEST SWAP2 POP PUSH3 0x59B DUP3 PUSH3 0x79B JUMP JUMPDEST PUSH1 0x40 DUP3 ADD SWAP1 POP SWAP2 SWAP1 POP JUMP JUMPDEST PUSH1 0x0 PUSH3 0x5B5 PUSH1 0x1F DUP4 PUSH3 0x661 JUMP JUMPDEST SWAP2 POP PUSH3 0x5C2 DUP3 PUSH3 0x7EA JUMP JUMPDEST PUSH1 0x20 DUP3 ADD SWAP1 POP SWAP2 SWAP1 POP JUMP JUMPDEST PUSH3 0x5D8 DUP2 PUSH3 0x6CF JUMP JUMPDEST DUP3 MSTORE POP POP JUMP JUMPDEST PUSH1 0x0 PUSH1 0x20 DUP3 ADD SWAP1 POP DUP2 DUP2 SUB PUSH1 0x0 DUP4 ADD MSTORE PUSH3 0x5F9 DUP2 PUSH3 0x558 JUMP JUMPDEST SWAP1 POP SWAP2 SWAP1 POP JUMP JUMPDEST PUSH1 0x0 PUSH1 0x20 DUP3 ADD SWAP1 POP DUP2 DUP2 SUB PUSH1 0x0 DUP4 ADD MSTORE PUSH3 0x61B DUP2 PUSH3 0x57F JUMP JUMPDEST SWAP1 POP SWAP2 SWAP1 POP JUMP JUMPDEST PUSH1 0x0 PUSH1 0x20 DUP3 ADD SWAP1 POP DUP2 DUP2 SUB PUSH1 0x0 DUP4 ADD MSTORE PUSH3 0x63D DUP2 PUSH3 0x5A6 JUMP JUMPDEST SWAP1 POP SWAP2 SWAP1 POP JUMP JUMPDEST PUSH1 0x0 PUSH1 0x20 DUP3 ADD SWAP1 POP PUSH3 0x65B PUSH1 0x0 DUP4 ADD DUP5 PUSH3 0x5CD JUMP JUMPDEST SWAP3 SWAP2 POP POP JUMP JUMPDEST PUSH1 0x0 DUP3 DUP3 MSTORE PUSH1 0x20 DUP3 ADD SWAP1 POP SWAP3 SWAP2 POP POP JUMP JUMPDEST PUSH1 0x0 PUSH3 0x67F DUP3 PUSH3 0x6CF JUMP JUMPDEST SWAP2 POP PUSH3 0x68C DUP4 PUSH3 0x6CF JUMP JUMPDEST SWAP3 POP DUP3 PUSH32 0xFFFFFFFFFFFFFFFFFFFFFFFFFFFFFFFFFFFFFFFFFFFFFFFFFFFFFFFFFFFFFFFF SUB DUP3 GT ISZERO PUSH3 0x6C4 JUMPI PUSH3 0x6C3 PUSH3 0x70F JUMP JUMPDEST JUMPDEST DUP3 DUP3 ADD SWAP1 POP SWAP3 SWAP2 POP POP JUMP JUMPDEST PUSH1 0x0 DUP2 SWAP1 POP SWAP2 SWAP1 POP JUMP JUMPDEST PUSH1 0x0 PUSH1 0x2 DUP3 DIV SWAP1 POP PUSH1 0x1 DUP3 AND DUP1 PUSH3 0x6F2 JUMPI PUSH1 0x7F DUP3 AND SWAP2 POP JUMPDEST PUSH1 0x20 DUP3 LT DUP2 EQ ISZERO PUSH3 0x709 JUMPI PUSH3 0x708 PUSH3 0x73E JUMP JUMPDEST JUMPDEST POP SWAP2 SWAP1 POP JUMP JUMPDEST PUSH32 0x4E487B7100000000000000000000000000000000000000000000000000000000 PUSH1 0x0 MSTORE PUSH1 0x11 PUSH1 0x4 MSTORE PUSH1 0x24 PUSH1 0x0 REVERT JUMPDEST PUSH32 0x4E487B7100000000000000000000000000000000000000000000000000000000 PUSH1 0x0 MSTORE PUSH1 0x22 PUSH1 0x4 MSTORE PUSH1 0x24 PUSH1 0x0 REVERT JUMPDEST PUSH1 0x0 DUP1 REVERT JUMPDEST PUSH32 0x536166654D6174683A206164646974696F6E206F766572666C6F770000000000 PUSH1 0x0 DUP3 ADD MSTORE POP JUMP JUMPDEST PUSH32 0x4752423A20546865205F696E697469616C537570706C792073686F756C64206E PUSH1 0x0 DUP3 ADD MSTORE PUSH32 0x6F742065786365656420746865205F6D6178537570706C790000000000000000 PUSH1 0x20 DUP3 ADD MSTORE POP JUMP JUMPDEST PUSH32 0x45524332303A206D696E7420746F20746865207A65726F206164647265737300 PUSH1 0x0 DUP3 ADD MSTORE POP JUMP JUMPDEST PUSH3 0x81E DUP2 PUSH3 0x6CF JUMP JUMPDEST DUP2 EQ PUSH3 0x82A JUMPI PUSH1 0x0 DUP1 REVERT JUMPDEST POP JUMP JUMPDEST PUSH1 0x80 MLOAD PUSH2 0x24AC PUSH3 0x850 PUSH1 0x0 CODECOPY PUSH1 0x0 DUP2 DUP2 PUSH2 0x5F7 ADD MSTORE PUSH2 0x76D ADD MSTORE PUSH2 0x24AC PUSH1 0x0 RETURN INVALID PUSH1 0x80 PUSH1 0x40 MSTORE CALLVALUE DUP1 ISZERO PUSH2 0x10 JUMPI PUSH1 0x0 DUP1 REVERT JUMPDEST POP PUSH1 0x4 CALLDATASIZE LT PUSH2 0x142 JUMPI PUSH1 0x0 CALLDATALOAD PUSH1 0xE0 SHR DUP1 PUSH4 0x715018A6 GT PUSH2 0xB8 JUMPI DUP1 PUSH4 0xA9059CBB GT PUSH2 0x7C JUMPI DUP1 PUSH4 0xA9059CBB EQ PUSH2 0x365 JUMPI DUP1 PUSH4 0xAA271E1A EQ PUSH2 0x395 JUMPI DUP1 PUSH4 0xB366D613 EQ PUSH2 0x3C5 JUMPI DUP1 PUSH4 0xD89135CD EQ PUSH2 0x3E1 JUMPI DUP1 PUSH4 0xDD62ED3E EQ PUSH2 0x3FF JUMPI DUP1 PUSH4 0xF2FDE38B EQ PUSH2 0x42F JUMPI PUSH2 0x142 JUMP JUMPDEST DUP1 PUSH4 0x715018A6 EQ PUSH2 0x2D3 JUMPI DUP1 PUSH4 0x79CC6790 EQ PUSH2 0x2DD JUMPI DUP1 PUSH4 0x8DA5CB5B EQ PUSH2 0x2F9 JUMPI DUP1 PUSH4 0x95D89B41 EQ PUSH2 0x317 JUMPI DUP1 PUSH4 0xA457C2D7 EQ PUSH2 0x335 JUMPI PUSH2 0x142 JUMP JUMPDEST DUP1 PUSH4 0x32CB6B0C GT PUSH2 0x10A JUMPI DUP1 PUSH4 0x32CB6B0C EQ PUSH2 0x201 JUMPI DUP1 PUSH4 0x39509351 EQ PUSH2 0x21F JUMPI DUP1 PUSH4 0x40C10F19 EQ PUSH2 0x24F JUMPI DUP1 PUSH4 0x42966C68 EQ PUSH2 0x26B JUMPI DUP1 PUSH4 0x69E2F0FB EQ PUSH2 0x287 JUMPI DUP1 PUSH4 0x70A08231 EQ PUSH2 0x2A3 JUMPI PUSH2 0x142 JUMP JUMPDEST DUP1 PUSH4 0x6FDDE03 EQ PUSH2 0x147 JUMPI DUP1 PUSH4 0x95EA7B3 EQ PUSH2 0x165 JUMPI DUP1 PUSH4 0x18160DDD EQ PUSH2 0x195 JUMPI DUP1 PUSH4 0x23B872DD EQ PUSH2 0x1B3 JUMPI DUP1 PUSH4 0x313CE567 EQ PUSH2 0x1E3 JUMPI JUMPDEST PUSH1 0x0 DUP1 REVERT JUMPDEST PUSH2 0x14F PUSH2 0x44B JUMP JUMPDEST PUSH1 0x40 MLOAD PUSH2 0x15C SWAP2 SWAP1 PUSH2 0x1CED JUMP JUMPDEST PUSH1 0x40 MLOAD DUP1 SWAP2 SUB SWAP1 RETURN JUMPDEST PUSH2 0x17F PUSH1 0x4 DUP1 CALLDATASIZE SUB DUP2 ADD SWAP1 PUSH2 0x17A SWAP2 SWAP1 PUSH2 0x1A31 JUMP JUMPDEST PUSH2 0x4DD JUMP JUMPDEST PUSH1 0x40 MLOAD PUSH2 0x18C SWAP2 SWAP1 PUSH2 0x1CD2 JUMP JUMPDEST PUSH1 0x40 MLOAD DUP1 SWAP2 SUB SWAP1 RETURN JUMPDEST PUSH2 0x19D PUSH2 0x4FB JUMP JUMPDEST PUSH1 0x40 MLOAD PUSH2 0x1AA SWAP2 SWAP1 PUSH2 0x1E8F JUMP JUMPDEST PUSH1 0x40 MLOAD DUP1 SWAP2 SUB SWAP1 RETURN JUMPDEST PUSH2 0x1CD PUSH1 0x4 DUP1 CALLDATASIZE SUB DUP2 ADD SWAP1 PUSH2 0x1C8 SWAP2 SWAP1 PUSH2 0x19DE JUMP JUMPDEST PUSH2 0x505 JUMP JUMPDEST PUSH1 0x40 MLOAD PUSH2 0x1DA SWAP2 SWAP1 PUSH2 0x1CD2 JUMP JUMPDEST PUSH1 0x40 MLOAD DUP1 SWAP2 SUB SWAP1 RETURN JUMPDEST PUSH2 0x1EB PUSH2 0x5DE JUMP JUMPDEST PUSH1 0x40 MLOAD PUSH2 0x1F8 SWAP2 SWAP1 PUSH2 0x1EAA JUMP JUMPDEST PUSH1 0x40 MLOAD DUP1 SWAP2 SUB SWAP1 RETURN JUMPDEST PUSH2 0x209 PUSH2 0x5F5 JUMP JUMPDEST PUSH1 0x40 MLOAD PUSH2 0x216 SWAP2 SWAP1 PUSH2 0x1E8F JUMP JUMPDEST PUSH1 0x40 MLOAD DUP1 SWAP2 SUB SWAP1 RETURN JUMPDEST PUSH2 0x239 PUSH1 0x4 DUP1 CALLDATASIZE SUB DUP2 ADD SWAP1 PUSH2 0x234 SWAP2 SWAP1 PUSH2 0x1A31 JUMP JUMPDEST PUSH2 0x619 JUMP JUMPDEST PUSH1 0x40 MLOAD PUSH2 0x246 SWAP2 SWAP1 PUSH2 0x1CD2 JUMP JUMPDEST PUSH1 0x40 MLOAD DUP1 SWAP2 SUB SWAP1 RETURN JUMPDEST PUSH2 0x269 PUSH1 0x4 DUP1 CALLDATASIZE SUB DUP2 ADD SWAP1 PUSH2 0x264 SWAP2 SWAP1 PUSH2 0x1A31 JUMP JUMPDEST PUSH2 0x6CC JUMP JUMPDEST STOP JUMPDEST PUSH2 0x285 PUSH1 0x4 DUP1 CALLDATASIZE SUB DUP2 ADD SWAP1 PUSH2 0x280 SWAP2 SWAP1 PUSH2 0x1A71 JUMP JUMPDEST PUSH2 0x7EF JUMP JUMPDEST STOP JUMPDEST PUSH2 0x2A1 PUSH1 0x4 DUP1 CALLDATASIZE SUB DUP2 ADD SWAP1 PUSH2 0x29C SWAP2 SWAP1 PUSH2 0x1971 JUMP JUMPDEST PUSH2 0x803 JUMP JUMPDEST STOP JUMPDEST PUSH2 0x2BD PUSH1 0x4 DUP1 CALLDATASIZE SUB DUP2 ADD SWAP1 PUSH2 0x2B8 SWAP2 SWAP1 PUSH2 0x1971 JUMP JUMPDEST PUSH2 0x93B JUMP JUMPDEST PUSH1 0x40 MLOAD PUSH2 0x2CA SWAP2 SWAP1 PUSH2 0x1E8F JUMP JUMPDEST PUSH1 0x40 MLOAD DUP1 SWAP2 SUB SWAP1 RETURN JUMPDEST PUSH2 0x2DB PUSH2 0x983 JUMP JUMPDEST STOP JUMPDEST PUSH2 0x2F7 PUSH1 0x4 DUP1 CALLDATASIZE SUB DUP2 ADD SWAP1 PUSH2 0x2F2 SWAP2 SWAP1 PUSH2 0x1A31 JUMP JUMPDEST PUSH2 0xAC0 JUMP JUMPDEST STOP JUMPDEST PUSH2 0x301 PUSH2 0xB22 JUMP JUMPDEST PUSH1 0x40 MLOAD PUSH2 0x30E SWAP2 SWAP1 PUSH2 0x1CB7 JUMP JUMPDEST PUSH1 0x40 MLOAD DUP1 SWAP2 SUB SWAP1 RETURN JUMPDEST PUSH2 0x31F PUSH2 0xB4C JUMP JUMPDEST PUSH1 0x40 MLOAD PUSH2 0x32C SWAP2 SWAP1 PUSH2 0x1CED JUMP JUMPDEST PUSH1 0x40 MLOAD DUP1 SWAP2 SUB SWAP1 RETURN JUMPDEST PUSH2 0x34F PUSH1 0x4 DUP1 CALLDATASIZE SUB DUP2 ADD SWAP1 PUSH2 0x34A SWAP2 SWAP1 PUSH2 0x1A31 JUMP JUMPDEST PUSH2 0xBDE JUMP JUMPDEST PUSH1 0x40 MLOAD PUSH2 0x35C SWAP2 SWAP1 PUSH2 0x1CD2 JUMP JUMPDEST PUSH1 0x40 MLOAD DUP1 SWAP2 SUB SWAP1 RETURN JUMPDEST PUSH2 0x37F PUSH1 0x4 DUP1 CALLDATASIZE SUB DUP2 ADD SWAP1 PUSH2 0x37A SWAP2 SWAP1 PUSH2 0x1A31 JUMP JUMPDEST PUSH2 0xCAB JUMP JUMPDEST PUSH1 0x40 MLOAD PUSH2 0x38C SWAP2 SWAP1 PUSH2 0x1CD2 JUMP JUMPDEST PUSH1 0x40 MLOAD DUP1 SWAP2 SUB SWAP1 RETURN JUMPDEST PUSH2 0x3AF PUSH1 0x4 DUP1 CALLDATASIZE SUB DUP2 ADD SWAP1 PUSH2 0x3AA SWAP2 SWAP1 PUSH2 0x1971 JUMP JUMPDEST PUSH2 0xCC9 JUMP JUMPDEST PUSH1 0x40 MLOAD PUSH2 0x3BC SWAP2 SWAP1 PUSH2 0x1CD2 JUMP JUMPDEST PUSH1 0x40 MLOAD DUP1 SWAP2 SUB SWAP1 RETURN JUMPDEST PUSH2 0x3DF PUSH1 0x4 DUP1 CALLDATASIZE SUB DUP2 ADD SWAP1 PUSH2 0x3DA SWAP2 SWAP1 PUSH2 0x1971 JUMP JUMPDEST PUSH2 0xCE9 JUMP JUMPDEST STOP JUMPDEST PUSH2 0x3E9 PUSH2 0xE21 JUMP JUMPDEST PUSH1 0x40 MLOAD PUSH2 0x3F6 SWAP2 SWAP1 PUSH2 0x1E8F JUMP JUMPDEST PUSH1 0x40 MLOAD DUP1 SWAP2 SUB SWAP1 RETURN JUMPDEST PUSH2 0x419 PUSH1 0x4 DUP1 CALLDATASIZE SUB DUP2 ADD SWAP1 PUSH2 0x414 SWAP2 SWAP1 PUSH2 0x199E JUMP JUMPDEST PUSH2 0xE27 JUMP JUMPDEST PUSH1 0x40 MLOAD PUSH2 0x426 SWAP2 SWAP1 PUSH2 0x1E8F JUMP JUMPDEST PUSH1 0x40 MLOAD DUP1 SWAP2 SUB SWAP1 RETURN JUMPDEST PUSH2 0x449 PUSH1 0x4 DUP1 CALLDATASIZE SUB DUP2 ADD SWAP1 PUSH2 0x444 SWAP2 SWAP1 PUSH2 0x1971 JUMP JUMPDEST PUSH2 0xEAE JUMP JUMPDEST STOP JUMPDEST PUSH1 0x60 PUSH1 0x3 DUP1 SLOAD PUSH2 0x45A SWAP1 PUSH2 0x1FF3 JUMP JUMPDEST DUP1 PUSH1 0x1F ADD PUSH1 0x20 DUP1 SWAP2 DIV MUL PUSH1 0x20 ADD PUSH1 0x40 MLOAD SWAP1 DUP2 ADD PUSH1 0x40 MSTORE DUP1 SWAP3 SWAP2 SWAP1 DUP2 DUP2 MSTORE PUSH1 0x20 ADD DUP3 DUP1 SLOAD PUSH2 0x486 SWAP1 PUSH2 0x1FF3 JUMP JUMPDEST DUP1 ISZERO PUSH2 0x4D3 JUMPI DUP1 PUSH1 0x1F LT PUSH2 0x4A8 JUMPI PUSH2 0x100 DUP1 DUP4 SLOAD DIV MUL DUP4 MSTORE SWAP2 PUSH1 0x20 ADD SWAP2 PUSH2 0x4D3 JUMP JUMPDEST DUP3 ADD SWAP2 SWAP1 PUSH1 0x0 MSTORE PUSH1 0x20 PUSH1 0x0 KECCAK256 SWAP1 JUMPDEST DUP2 SLOAD DUP2 MSTORE SWAP1 PUSH1 0x1 ADD SWAP1 PUSH1 0x20 ADD DUP1 DUP4 GT PUSH2 0x4B6 JUMPI DUP3 SWAP1 SUB PUSH1 0x1F AND DUP3 ADD SWAP2 JUMPDEST POP POP POP POP POP SWAP1 POP SWAP1 JUMP JUMPDEST PUSH1 0x0 PUSH2 0x4F1 PUSH2 0x4EA PUSH2 0x10B8 JUMP JUMPDEST DUP5 DUP5 PUSH2 0x10C0 JUMP JUMPDEST PUSH1 0x1 SWAP1 POP SWAP3 SWAP2 POP POP JUMP JUMPDEST PUSH1 0x0 PUSH1 0x2 SLOAD SWAP1 POP SWAP1 JUMP JUMPDEST PUSH1 0x0 PUSH2 0x512 DUP5 DUP5 DUP5 PUSH2 0x128B JUMP JUMPDEST PUSH2 0x5D3 DUP5 PUSH2 0x51E PUSH2 0x10B8 JUMP JUMPDEST PUSH2 0x5CE DUP6 PUSH1 0x40 MLOAD DUP1 PUSH1 0x60 ADD PUSH1 0x40 MSTORE DUP1 PUSH1 0x28 DUP2 MSTORE PUSH1 0x20 ADD PUSH2 0x2406 PUSH1 0x28 SWAP2 CODECOPY PUSH1 0x1 PUSH1 0x0 DUP12 PUSH20 0xFFFFFFFFFFFFFFFFFFFFFFFFFFFFFFFFFFFFFFFF AND PUSH20 0xFFFFFFFFFFFFFFFFFFFFFFFFFFFFFFFFFFFFFFFF AND DUP2 MSTORE PUSH1 0x20 ADD SWAP1 DUP2 MSTORE PUSH1 0x20 ADD PUSH1 0x0 KECCAK256 PUSH1 0x0 PUSH2 0x584 PUSH2 0x10B8 JUMP JUMPDEST PUSH20 0xFFFFFFFFFFFFFFFFFFFFFFFFFFFFFFFFFFFFFFFF AND PUSH20 0xFFFFFFFFFFFFFFFFFFFFFFFFFFFFFFFFFFFFFFFF AND DUP2 MSTORE PUSH1 0x20 ADD SWAP1 DUP2 MSTORE PUSH1 0x20 ADD PUSH1 0x0 KECCAK256 SLOAD PUSH2 0x1520 SWAP1 SWAP3 SWAP2 SWAP1 PUSH4 0xFFFFFFFF AND JUMP JUMPDEST PUSH2 0x10C0 JUMP JUMPDEST PUSH1 0x1 SWAP1 POP SWAP4 SWAP3 POP POP POP JUMP JUMPDEST PUSH1 0x0 PUSH1 0x5 PUSH1 0x0 SWAP1 SLOAD SWAP1 PUSH2 0x100 EXP SWAP1 DIV PUSH1 0xFF AND SWAP1 POP SWAP1 JUMP JUMPDEST PUSH32 0x0 DUP2 JUMP JUMPDEST PUSH1 0x0 PUSH2 0x6C2 PUSH2 0x626 PUSH2 0x10B8 JUMP JUMPDEST DUP5 PUSH2 0x6BD DUP6 PUSH1 0x1 PUSH1 0x0 PUSH2 0x637 PUSH2 0x10B8 JUMP JUMPDEST PUSH20 0xFFFFFFFFFFFFFFFFFFFFFFFFFFFFFFFFFFFFFFFF AND PUSH20 0xFFFFFFFFFFFFFFFFFFFFFFFFFFFFFFFFFFFFFFFF AND DUP2 MSTORE PUSH1 0x20 ADD SWAP1 DUP2 MSTORE PUSH1 0x20 ADD PUSH1 0x0 KECCAK256 PUSH1 0x0 DUP10 PUSH20 0xFFFFFFFFFFFFFFFFFFFFFFFFFFFFFFFFFFFFFFFF AND PUSH20 0xFFFFFFFFFFFFFFFFFFFFFFFFFFFFFFFFFFFFFFFF AND DUP2 MSTORE PUSH1 0x20 ADD SWAP1 DUP2 MSTORE PUSH1 0x20 ADD PUSH1 0x0 KECCAK256 SLOAD PUSH2 0x105A SWAP1 SWAP2 SWAP1 PUSH4 0xFFFFFFFF AND JUMP JUMPDEST PUSH2 0x10C0 JUMP JUMPDEST PUSH1 0x1 SWAP1 POP SWAP3 SWAP2 POP POP JUMP JUMPDEST PUSH1 0x6 PUSH1 0x0 PUSH2 0x6D8 PUSH2 0x10B8 JUMP JUMPDEST PUSH20 0xFFFFFFFFFFFFFFFFFFFFFFFFFFFFFFFFFFFFFFFF AND PUSH20 0xFFFFFFFFFFFFFFFFFFFFFFFFFFFFFFFFFFFFFFFF AND DUP2 MSTORE PUSH1 0x20 ADD SWAP1 DUP2 MSTORE PUSH1 0x20 ADD PUSH1 0x0 KECCAK256 PUSH1 0x0 SWAP1 SLOAD SWAP1 PUSH2 0x100 EXP SWAP1 DIV PUSH1 0xFF AND PUSH2 0x75F JUMPI PUSH1 0x40 MLOAD PUSH32 0x8C379A000000000000000000000000000000000000000000000000000000000 DUP2 MSTORE PUSH1 0x4 ADD PUSH2 0x756 SWAP1 PUSH2 0x1DCF JUMP JUMPDEST PUSH1 0x40 MLOAD DUP1 SWAP2 SUB SWAP1 REVERT JUMPDEST PUSH1 0x0 PUSH2 0x769 PUSH2 0x4FB JUMP JUMPDEST SWAP1 POP PUSH32 0x0 PUSH2 0x79F DUP4 DUP4 PUSH2 0x105A SWAP1 SWAP2 SWAP1 PUSH4 0xFFFFFFFF AND JUMP JUMPDEST GT ISZERO PUSH2 0x7E0 JUMPI PUSH1 0x40 MLOAD PUSH32 0x8C379A000000000000000000000000000000000000000000000000000000000 DUP2 MSTORE PUSH1 0x4 ADD PUSH2 0x7D7 SWAP1 PUSH2 0x1DAF JUMP JUMPDEST PUSH1 0x40 MLOAD DUP1 SWAP2 SUB SWAP1 REVERT JUMPDEST PUSH2 0x7EA DUP4 DUP4 PUSH2 0x157E JUMP JUMPDEST POP POP POP JUMP JUMPDEST PUSH2 0x800 PUSH2 0x7FA PUSH2 0x10B8 JUMP JUMPDEST DUP3 PUSH2 0x1712 JUMP JUMPDEST POP JUMP JUMPDEST PUSH2 0x80B PUSH2 0x10B8 JUMP JUMPDEST PUSH20 0xFFFFFFFFFFFFFFFFFFFFFFFFFFFFFFFFFFFFFFFF AND PUSH2 0x829 PUSH2 0xB22 JUMP JUMPDEST PUSH20 0xFFFFFFFFFFFFFFFFFFFFFFFFFFFFFFFFFFFFFFFF AND EQ PUSH2 0x87F JUMPI PUSH1 0x40 MLOAD PUSH32 0x8C379A000000000000000000000000000000000000000000000000000000000 DUP2 MSTORE PUSH1 0x4 ADD PUSH2 0x876 SWAP1 PUSH2 0x1DEF JUMP JUMPDEST PUSH1 0x40 MLOAD DUP1 SWAP2 SUB SWAP1 REVERT JUMPDEST PUSH1 0x0 PUSH1 0x6 PUSH1 0x0 DUP4 PUSH20 0xFFFFFFFFFFFFFFFFFFFFFFFFFFFFFFFFFFFFFFFF AND PUSH20 0xFFFFFFFFFFFFFFFFFFFFFFFFFFFFFFFFFFFFFFFF AND DUP2 MSTORE PUSH1 0x20 ADD SWAP1 DUP2 MSTORE PUSH1 0x20 ADD PUSH1 0x0 KECCAK256 PUSH1 0x0 PUSH2 0x100 EXP DUP2 SLOAD DUP2 PUSH1 0xFF MUL NOT AND SWAP1 DUP4 ISZERO ISZERO MUL OR SWAP1 SSTORE POP DUP1 PUSH20 0xFFFFFFFFFFFFFFFFFFFFFFFFFFFFFFFFFFFFFFFF AND PUSH2 0x8F6 PUSH2 0x10B8 JUMP JUMPDEST PUSH20 0xFFFFFFFFFFFFFFFFFFFFFFFFFFFFFFFFFFFFFFFF AND PUSH32 0x73DC04F997208E28CEEFFCD1317C714EF242DA548C360F2F65BE1F3E5E5777BB PUSH1 0x40 MLOAD PUSH1 0x40 MLOAD DUP1 SWAP2 SUB SWAP1 LOG3 POP JUMP JUMPDEST PUSH1 0x0 DUP1 PUSH1 0x0 DUP4 PUSH20 0xFFFFFFFFFFFFFFFFFFFFFFFFFFFFFFFFFFFFFFFF AND PUSH20 0xFFFFFFFFFFFFFFFFFFFFFFFFFFFFFFFFFFFFFFFF AND DUP2 MSTORE PUSH1 0x20 ADD SWAP1 DUP2 MSTORE PUSH1 0x20 ADD PUSH1 0x0 KECCAK256 SLOAD SWAP1 POP SWAP2 SWAP1 POP JUMP JUMPDEST PUSH2 0x98B PUSH2 0x10B8 JUMP JUMPDEST PUSH20 0xFFFFFFFFFFFFFFFFFFFFFFFFFFFFFFFFFFFFFFFF AND PUSH2 0x9A9 PUSH2 0xB22 JUMP JUMPDEST PUSH20 0xFFFFFFFFFFFFFFFFFFFFFFFFFFFFFFFFFFFFFFFF AND EQ PUSH2 0x9FF JUMPI PUSH1 0x40 MLOAD PUSH32 0x8C379A000000000000000000000000000000000000000000000000000000000 DUP2 MSTORE PUSH1 0x4 ADD PUSH2 0x9F6 SWAP1 PUSH2 0x1DEF JUMP JUMPDEST PUSH1 0x40 MLOAD DUP1 SWAP2 SUB SWAP1 REVERT JUMPDEST PUSH1 0x0 PUSH20 0xFFFFFFFFFFFFFFFFFFFFFFFFFFFFFFFFFFFFFFFF AND PUSH1 0x5 PUSH1 0x1 SWAP1 SLOAD SWAP1 PUSH2 0x100 EXP SWAP1 DIV PUSH20 0xFFFFFFFFFFFFFFFFFFFFFFFFFFFFFFFFFFFFFFFF AND PUSH20 0xFFFFFFFFFFFFFFFFFFFFFFFFFFFFFFFFFFFFFFFF AND PUSH32 0x8BE0079C531659141344CD1FD0A4F28419497F9722A3DAAFE3B4186F6B6457E0 PUSH1 0x40 MLOAD PUSH1 0x40 MLOAD DUP1 SWAP2 SUB SWAP1 LOG3 PUSH1 0x0 PUSH1 0x5 PUSH1 0x1 PUSH2 0x100 EXP DUP2 SLOAD DUP2 PUSH20 0xFFFFFFFFFFFFFFFFFFFFFFFFFFFFFFFFFFFFFFFF MUL NOT AND SWAP1 DUP4 PUSH20 0xFFFFFFFFFFFFFFFFFFFFFFFFFFFFFFFFFFFFFFFF AND MUL OR SWAP1 SSTORE POP JUMP JUMPDEST PUSH1 0x0 PUSH2 0xAFF DUP3 PUSH1 0x40 MLOAD DUP1 PUSH1 0x60 ADD PUSH1 0x40 MSTORE DUP1 PUSH1 0x24 DUP2 MSTORE PUSH1 0x20 ADD PUSH2 0x242E PUSH1 0x24 SWAP2 CODECOPY PUSH2 0xAF0 DUP7 PUSH2 0xAEB PUSH2 0x10B8 JUMP JUMPDEST PUSH2 0xE27 JUMP JUMPDEST PUSH2 0x1520 SWAP1 SWAP3 SWAP2 SWAP1 PUSH4 0xFFFFFFFF AND JUMP JUMPDEST SWAP1 POP PUSH2 0xB13 DUP4 PUSH2 0xB0D PUSH2 0x10B8 JUMP JUMPDEST DUP4 PUSH2 0x10C0 JUMP JUMPDEST PUSH2 0xB1D DUP4 DUP4 PUSH2 0x1712 JUMP JUMPDEST POP POP POP JUMP JUMPDEST PUSH1 0x0 PUSH1 0x5 PUSH1 0x1 SWAP1 SLOAD SWAP1 PUSH2 0x100 EXP SWAP1 DIV PUSH20 0xFFFFFFFFFFFFFFFFFFFFFFFFFFFFFFFFFFFFFFFF AND SWAP1 POP SWAP1 JUMP JUMPDEST PUSH1 0x60 PUSH1 0x4 DUP1 SLOAD PUSH2 0xB5B SWAP1 PUSH2 0x1FF3 JUMP JUMPDEST DUP1 PUSH1 0x1F ADD PUSH1 0x20 DUP1 SWAP2 DIV MUL PUSH1 0x20 ADD PUSH1 0x40 MLOAD SWAP1 DUP2 ADD PUSH1 0x40 MSTORE DUP1 SWAP3 SWAP2 SWAP1 DUP2 DUP2 MSTORE PUSH1 0x20 ADD DUP3 DUP1 SLOAD PUSH2 0xB87 SWAP1 PUSH2 0x1FF3 JUMP JUMPDEST DUP1 ISZERO PUSH2 0xBD4 JUMPI DUP1 PUSH1 0x1F LT PUSH2 0xBA9 JUMPI PUSH2 0x100 DUP1 DUP4 SLOAD DIV MUL DUP4 MSTORE SWAP2 PUSH1 0x20 ADD SWAP2 PUSH2 0xBD4 JUMP JUMPDEST DUP3 ADD SWAP2 SWAP1 PUSH1 0x0 MSTORE PUSH1 0x20 PUSH1 0x0 KECCAK256 SWAP1 JUMPDEST DUP2 SLOAD DUP2 MSTORE SWAP1 PUSH1 0x1 ADD SWAP1 PUSH1 0x20 ADD DUP1 DUP4 GT PUSH2 0xBB7 JUMPI DUP3 SWAP1 SUB PUSH1 0x1F AND DUP3 ADD SWAP2 JUMPDEST POP POP POP POP POP SWAP1 POP SWAP1 JUMP JUMPDEST PUSH1 0x0 PUSH2 0xCA1 PUSH2 0xBEB PUSH2 0x10B8 JUMP JUMPDEST DUP5 PUSH2 0xC9C DUP6 PUSH1 0x40 MLOAD DUP1 PUSH1 0x60 ADD PUSH1 0x40 MSTORE DUP1 PUSH1 0x25 DUP2 MSTORE PUSH1 0x20 ADD PUSH2 0x2452 PUSH1 0x25 SWAP2 CODECOPY PUSH1 0x1 PUSH1 0x0 PUSH2 0xC15 PUSH2 0x10B8 JUMP JUMPDEST PUSH20 0xFFFFFFFFFFFFFFFFFFFFFFFFFFFFFFFFFFFFFFFF AND PUSH20 0xFFFFFFFFFFFFFFFFFFFFFFFFFFFFFFFFFFFFFFFF AND DUP2 MSTORE PUSH1 0x20 ADD SWAP1 DUP2 MSTORE PUSH1 0x20 ADD PUSH1 0x0 KECCAK256 PUSH1 0x0 DUP11 PUSH20 0xFFFFFFFFFFFFFFFFFFFFFFFFFFFFFFFFFFFFFFFF AND PUSH20 0xFFFFFFFFFFFFFFFFFFFFFFFFFFFFFFFFFFFFFFFF AND DUP2 MSTORE PUSH1 0x20 ADD SWAP1 DUP2 MSTORE PUSH1 0x20 ADD PUSH1 0x0 KECCAK256 SLOAD PUSH2 0x1520 SWAP1 SWAP3 SWAP2 SWAP1 PUSH4 0xFFFFFFFF AND JUMP JUMPDEST PUSH2 0x10C0 JUMP JUMPDEST PUSH1 0x1 SWAP1 POP SWAP3 SWAP2 POP POP JUMP JUMPDEST PUSH1 0x0 PUSH2 0xCBF PUSH2 0xCB8 PUSH2 0x10B8 JUMP JUMPDEST DUP5 DUP5 PUSH2 0x128B JUMP JUMPDEST PUSH1 0x1 SWAP1 POP SWAP3 SWAP2 POP POP JUMP JUMPDEST PUSH1 0x6 PUSH1 0x20 MSTORE DUP1 PUSH1 0x0 MSTORE PUSH1 0x40 PUSH1 0x0 KECCAK256 PUSH1 0x0 SWAP2 POP SLOAD SWAP1 PUSH2 0x100 EXP SWAP1 DIV PUSH1 0xFF AND DUP2 JUMP JUMPDEST PUSH2 0xCF1 PUSH2 0x10B8 JUMP JUMPDEST PUSH20 0xFFFFFFFFFFFFFFFFFFFFFFFFFFFFFFFFFFFFFFFF AND PUSH2 0xD0F PUSH2 0xB22 JUMP JUMPDEST PUSH20 0xFFFFFFFFFFFFFFFFFFFFFFFFFFFFFFFFFFFFFFFF AND EQ PUSH2 0xD65 JUMPI PUSH1 0x40 MLOAD PUSH32 0x8C379A000000000000000000000000000000000000000000000000000000000 DUP2 MSTORE PUSH1 0x4 ADD PUSH2 0xD5C SWAP1 PUSH2 0x1DEF JUMP JUMPDEST PUSH1 0x40 MLOAD DUP1 SWAP2 SUB SWAP1 REVERT JUMPDEST PUSH1 0x1 PUSH1 0x6 PUSH1 0x0 DUP4 PUSH20 0xFFFFFFFFFFFFFFFFFFFFFFFFFFFFFFFFFFFFFFFF AND PUSH20 0xFFFFFFFFFFFFFFFFFFFFFFFFFFFFFFFFFFFFFFFF AND DUP2 MSTORE PUSH1 0x20 ADD SWAP1 DUP2 MSTORE PUSH1 0x20 ADD PUSH1 0x0 KECCAK256 PUSH1 0x0 PUSH2 0x100 EXP DUP2 SLOAD DUP2 PUSH1 0xFF MUL NOT AND SWAP1 DUP4 ISZERO ISZERO MUL OR SWAP1 SSTORE POP DUP1 PUSH20 0xFFFFFFFFFFFFFFFFFFFFFFFFFFFFFFFFFFFFFFFF AND PUSH2 0xDDC PUSH2 0x10B8 JUMP JUMPDEST PUSH20 0xFFFFFFFFFFFFFFFFFFFFFFFFFFFFFFFFFFFFFFFF AND PUSH32 0x3D897FFA5FD59890ED4634ABA2661BABA4671F396E0050BBE8CC6549A4F14C44 PUSH1 0x40 MLOAD PUSH1 0x40 MLOAD DUP1 SWAP2 SUB SWAP1 LOG3 POP JUMP JUMPDEST PUSH1 0x7 SLOAD DUP2 JUMP JUMPDEST PUSH1 0x0 PUSH1 0x1 PUSH1 0x0 DUP5 PUSH20 0xFFFFFFFFFFFFFFFFFFFFFFFFFFFFFFFFFFFFFFFF AND PUSH20 0xFFFFFFFFFFFFFFFFFFFFFFFFFFFFFFFFFFFFFFFF AND DUP2 MSTORE PUSH1 0x20 ADD SWAP1 DUP2 MSTORE PUSH1 0x20 ADD PUSH1 0x0 KECCAK256 PUSH1 0x0 DUP4 PUSH20 0xFFFFFFFFFFFFFFFFFFFFFFFFFFFFFFFFFFFFFFFF AND PUSH20 0xFFFFFFFFFFFFFFFFFFFFFFFFFFFFFFFFFFFFFFFF AND DUP2 MSTORE PUSH1 0x20 ADD SWAP1 DUP2 MSTORE PUSH1 0x20 ADD PUSH1 0x0 KECCAK256 SLOAD SWAP1 POP SWAP3 SWAP2 POP POP JUMP JUMPDEST PUSH2 0xEB6 PUSH2 0x10B8 JUMP JUMPDEST PUSH20 0xFFFFFFFFFFFFFFFFFFFFFFFFFFFFFFFFFFFFFFFF AND PUSH2 0xED4 PUSH2 0xB22 JUMP JUMPDEST PUSH20 0xFFFFFFFFFFFFFFFFFFFFFFFFFFFFFFFFFFFFFFFF AND EQ PUSH2 0xF2A JUMPI PUSH1 0x40 MLOAD PUSH32 0x8C379A000000000000000000000000000000000000000000000000000000000 DUP2 MSTORE PUSH1 0x4 ADD PUSH2 0xF21 SWAP1 PUSH2 0x1DEF JUMP JUMPDEST PUSH1 0x40 MLOAD DUP1 SWAP2 SUB SWAP1 REVERT JUMPDEST PUSH1 0x0 PUSH20 0xFFFFFFFFFFFFFFFFFFFFFFFFFFFFFFFFFFFFFFFF AND DUP2 PUSH20 0xFFFFFFFFFFFFFFFFFFFFFFFFFFFFFFFFFFFFFFFF AND EQ ISZERO PUSH2 0xF9A JUMPI PUSH1 0x40 MLOAD PUSH32 0x8C379A000000000000000000000000000000000000000000000000000000000 DUP2 MSTORE PUSH1 0x4 ADD PUSH2 0xF91 SWAP1 PUSH2 0x1D2F JUMP JUMPDEST PUSH1 0x40 MLOAD DUP1 SWAP2 SUB SWAP1 REVERT JUMPDEST DUP1 PUSH20 0xFFFFFFFFFFFFFFFFFFFFFFFFFFFFFFFFFFFFFFFF AND PUSH1 0x5 PUSH1 0x1 SWAP1 SLOAD SWAP1 PUSH2 0x100 EXP SWAP1 DIV PUSH20 0xFFFFFFFFFFFFFFFFFFFFFFFFFFFFFFFFFFFFFFFF AND PUSH20 0xFFFFFFFFFFFFFFFFFFFFFFFFFFFFFFFFFFFFFFFF AND PUSH32 0x8BE0079C531659141344CD1FD0A4F28419497F9722A3DAAFE3B4186F6B6457E0 PUSH1 0x40 MLOAD PUSH1 0x40 MLOAD DUP1 SWAP2 SUB SWAP1 LOG3 DUP1 PUSH1 0x5 PUSH1 0x1 PUSH2 0x100 EXP DUP2 SLOAD DUP2 PUSH20 0xFFFFFFFFFFFFFFFFFFFFFFFFFFFFFFFFFFFFFFFF MUL NOT AND SWAP1 DUP4 PUSH20 0xFFFFFFFFFFFFFFFFFFFFFFFFFFFFFFFFFFFFFFFF AND MUL OR SWAP1 SSTORE POP POP JUMP JUMPDEST PUSH1 0x0 DUP1 DUP3 DUP5 PUSH2 0x1069 SWAP2 SWAP1 PUSH2 0x1EE1 JUMP JUMPDEST SWAP1 POP DUP4 DUP2 LT ISZERO PUSH2 0x10AE JUMPI PUSH1 0x40 MLOAD PUSH32 0x8C379A000000000000000000000000000000000000000000000000000000000 DUP2 MSTORE PUSH1 0x4 ADD PUSH2 0x10A5 SWAP1 PUSH2 0x1D6F JUMP JUMPDEST PUSH1 0x40 MLOAD DUP1 SWAP2 SUB SWAP1 REVERT JUMPDEST DUP1 SWAP2 POP POP SWAP3 SWAP2 POP POP JUMP JUMPDEST PUSH1 0x0 CALLER SWAP1 POP SWAP1 JUMP JUMPDEST PUSH1 0x0 PUSH20 0xFFFFFFFFFFFFFFFFFFFFFFFFFFFFFFFFFFFFFFFF AND DUP4 PUSH20 0xFFFFFFFFFFFFFFFFFFFFFFFFFFFFFFFFFFFFFFFF AND EQ ISZERO PUSH2 0x1130 JUMPI PUSH1 0x40 MLOAD PUSH32 0x8C379A000000000000000000000000000000000000000000000000000000000 DUP2 MSTORE PUSH1 0x4 ADD PUSH2 0x1127 SWAP1 PUSH2 0x1E4F JUMP JUMPDEST PUSH1 0x40 MLOAD DUP1 SWAP2 SUB SWAP1 REVERT JUMPDEST PUSH1 0x0 PUSH20 0xFFFFFFFFFFFFFFFFFFFFFFFFFFFFFFFFFFFFFFFF AND DUP3 PUSH20 0xFFFFFFFFFFFFFFFFFFFFFFFFFFFFFFFFFFFFFFFF AND EQ ISZERO PUSH2 0x11A0 JUMPI PUSH1 0x40 MLOAD PUSH32 0x8C379A000000000000000000000000000000000000000000000000000000000 DUP2 MSTORE PUSH1 0x4 ADD PUSH2 0x1197 SWAP1 PUSH2 0x1D4F JUMP JUMPDEST PUSH1 0x40 MLOAD DUP1 SWAP2 SUB SWAP1 REVERT JUMPDEST DUP1 PUSH1 0x1 PUSH1 0x0 DUP6 PUSH20 0xFFFFFFFFFFFFFFFFFFFFFFFFFFFFFFFFFFFFFFFF AND PUSH20 0xFFFFFFFFFFFFFFFFFFFFFFFFFFFFFFFFFFFFFFFF AND DUP2 MSTORE PUSH1 0x20 ADD SWAP1 DUP2 MSTORE PUSH1 0x20 ADD PUSH1 0x0 KECCAK256 PUSH1 0x0 DUP5 PUSH20 0xFFFFFFFFFFFFFFFFFFFFFFFFFFFFFFFFFFFFFFFF AND PUSH20 0xFFFFFFFFFFFFFFFFFFFFFFFFFFFFFFFFFFFFFFFF AND DUP2 MSTORE PUSH1 0x20 ADD SWAP1 DUP2 MSTORE PUSH1 0x20 ADD PUSH1 0x0 KECCAK256 DUP2 SWAP1 SSTORE POP DUP2 PUSH20 0xFFFFFFFFFFFFFFFFFFFFFFFFFFFFFFFFFFFFFFFF AND DUP4 PUSH20 0xFFFFFFFFFFFFFFFFFFFFFFFFFFFFFFFFFFFFFFFF AND PUSH32 0x8C5BE1E5EBEC7D5BD14F71427D1E84F3DD0314C0F7B2291E5B200AC8C7C3B925 DUP4 PUSH1 0x40 MLOAD PUSH2 0x127E SWAP2 SWAP1 PUSH2 0x1E8F JUMP JUMPDEST PUSH1 0x40 MLOAD DUP1 SWAP2 SUB SWAP1 LOG3 POP POP POP JUMP JUMPDEST PUSH1 0x0 PUSH20 0xFFFFFFFFFFFFFFFFFFFFFFFFFFFFFFFFFFFFFFFF AND DUP4 PUSH20 0xFFFFFFFFFFFFFFFFFFFFFFFFFFFFFFFFFFFFFFFF AND EQ ISZERO PUSH2 0x12FB JUMPI PUSH1 0x40 MLOAD PUSH32 0x8C379A000000000000000000000000000000000000000000000000000000000 DUP2 MSTORE PUSH1 0x4 ADD PUSH2 0x12F2 SWAP1 PUSH2 0x1E2F JUMP JUMPDEST PUSH1 0x40 MLOAD DUP1 SWAP2 SUB SWAP1 REVERT JUMPDEST PUSH1 0x0 PUSH20 0xFFFFFFFFFFFFFFFFFFFFFFFFFFFFFFFFFFFFFFFF AND DUP3 PUSH20 0xFFFFFFFFFFFFFFFFFFFFFFFFFFFFFFFFFFFFFFFF AND EQ ISZERO PUSH2 0x136B JUMPI PUSH1 0x40 MLOAD PUSH32 0x8C379A000000000000000000000000000000000000000000000000000000000 DUP2 MSTORE PUSH1 0x4 ADD PUSH2 0x1362 SWAP1 PUSH2 0x1D0F JUMP JUMPDEST PUSH1 0x40 MLOAD DUP1 SWAP2 SUB SWAP1 REVERT JUMPDEST PUSH2 0x1376 DUP4 DUP4 DUP4 PUSH2 0x173B JUMP JUMPDEST PUSH2 0x13E1 DUP2 PUSH1 0x40 MLOAD DUP1 PUSH1 0x60 ADD PUSH1 0x40 MSTORE DUP1 PUSH1 0x26 DUP2 MSTORE PUSH1 0x20 ADD PUSH2 0x23E0 PUSH1 0x26 SWAP2 CODECOPY PUSH1 0x0 DUP1 DUP8 PUSH20 0xFFFFFFFFFFFFFFFFFFFFFFFFFFFFFFFFFFFFFFFF AND PUSH20 0xFFFFFFFFFFFFFFFFFFFFFFFFFFFFFFFFFFFFFFFF AND DUP2 MSTORE PUSH1 0x20 ADD SWAP1 DUP2 MSTORE PUSH1 0x20 ADD PUSH1 0x0 KECCAK256 SLOAD PUSH2 0x1520 SWAP1 SWAP3 SWAP2 SWAP1 PUSH4 0xFFFFFFFF AND JUMP JUMPDEST PUSH1 0x0 DUP1 DUP6 PUSH20 0xFFFFFFFFFFFFFFFFFFFFFFFFFFFFFFFFFFFFFFFF AND PUSH20 0xFFFFFFFFFFFFFFFFFFFFFFFFFFFFFFFFFFFFFFFF AND DUP2 MSTORE PUSH1 0x20 ADD SWAP1 DUP2 MSTORE PUSH1 0x20 ADD PUSH1 0x0 KECCAK256 DUP2 SWAP1 SSTORE POP PUSH2 0x1474 DUP2 PUSH1 0x0 DUP1 DUP6 PUSH20 0xFFFFFFFFFFFFFFFFFFFFFFFFFFFFFFFFFFFFFFFF AND PUSH20 0xFFFFFFFFFFFFFFFFFFFFFFFFFFFFFFFFFFFFFFFF AND DUP2 MSTORE PUSH1 0x20 ADD SWAP1 DUP2 MSTORE PUSH1 0x20 ADD PUSH1 0x0 KECCAK256 SLOAD PUSH2 0x105A SWAP1 SWAP2 SWAP1 PUSH4 0xFFFFFFFF AND JUMP JUMPDEST PUSH1 0x0 DUP1 DUP5 PUSH20 0xFFFFFFFFFFFFFFFFFFFFFFFFFFFFFFFFFFFFFFFF AND PUSH20 0xFFFFFFFFFFFFFFFFFFFFFFFFFFFFFFFFFFFFFFFF AND DUP2 MSTORE PUSH1 0x20 ADD SWAP1 DUP2 MSTORE PUSH1 0x20 ADD PUSH1 0x0 KECCAK256 DUP2 SWAP1 SSTORE POP DUP2 PUSH20 0xFFFFFFFFFFFFFFFFFFFFFFFFFFFFFFFFFFFFFFFF AND DUP4 PUSH20 0xFFFFFFFFFFFFFFFFFFFFFFFFFFFFFFFFFFFFFFFF AND PUSH32 0xDDF252AD1BE2C89B69C2B068FC378DAA952BA7F163C4A11628F55A4DF523B3EF DUP4 PUSH1 0x40 MLOAD PUSH2 0x1513 SWAP2 SWAP1 PUSH2 0x1E8F JUMP JUMPDEST PUSH1 0x40 MLOAD DUP1 SWAP2 SUB SWAP1 LOG3 POP POP POP JUMP JUMPDEST PUSH1 0x0 DUP4 DUP4 GT ISZERO DUP3 SWAP1 PUSH2 0x1568 JUMPI PUSH1 0x40 MLOAD PUSH32 0x8C379A000000000000000000000000000000000000000000000000000000000 DUP2 MSTORE PUSH1 0x4 ADD PUSH2 0x155F SWAP2 SWAP1 PUSH2 0x1CED JUMP JUMPDEST PUSH1 0x40 MLOAD DUP1 SWAP2 SUB SWAP1 REVERT JUMPDEST POP DUP3 DUP5 PUSH2 0x1575 SWAP2 SWAP1 PUSH2 0x1F37 JUMP JUMPDEST SWAP1 POP SWAP4 SWAP3 POP POP POP JUMP JUMPDEST PUSH1 0x0 PUSH20 0xFFFFFFFFFFFFFFFFFFFFFFFFFFFFFFFFFFFFFFFF AND DUP3 PUSH20 0xFFFFFFFFFFFFFFFFFFFFFFFFFFFFFFFFFFFFFFFF AND EQ ISZERO PUSH2 0x15EE JUMPI PUSH1 0x40 MLOAD PUSH32 0x8C379A000000000000000000000000000000000000000000000000000000000 DUP2 MSTORE PUSH1 0x4 ADD PUSH2 0x15E5 SWAP1 PUSH2 0x1E6F JUMP JUMPDEST PUSH1 0x40 MLOAD DUP1 SWAP2 SUB SWAP1 REVERT JUMPDEST PUSH2 0x15FA PUSH1 0x0 DUP4 DUP4 PUSH2 0x173B JUMP JUMPDEST PUSH2 0x160F DUP2 PUSH1 0x2 SLOAD PUSH2 0x105A SWAP1 SWAP2 SWAP1 PUSH4 0xFFFFFFFF AND JUMP JUMPDEST PUSH1 0x2 DUP2 SWAP1 SSTORE POP PUSH2 0x1666 DUP2 PUSH1 0x0 DUP1 DUP6 PUSH20 0xFFFFFFFFFFFFFFFFFFFFFFFFFFFFFFFFFFFFFFFF AND PUSH20 0xFFFFFFFFFFFFFFFFFFFFFFFFFFFFFFFFFFFFFFFF AND DUP2 MSTORE PUSH1 0x20 ADD SWAP1 DUP2 MSTORE PUSH1 0x20 ADD PUSH1 0x0 KECCAK256 SLOAD PUSH2 0x105A SWAP1 SWAP2 SWAP1 PUSH4 0xFFFFFFFF AND JUMP JUMPDEST PUSH1 0x0 DUP1 DUP5 PUSH20 0xFFFFFFFFFFFFFFFFFFFFFFFFFFFFFFFFFFFFFFFF AND PUSH20 0xFFFFFFFFFFFFFFFFFFFFFFFFFFFFFFFFFFFFFFFF AND DUP2 MSTORE PUSH1 0x20 ADD SWAP1 DUP2 MSTORE PUSH1 0x20 ADD PUSH1 0x0 KECCAK256 DUP2 SWAP1 SSTORE POP DUP2 PUSH20 0xFFFFFFFFFFFFFFFFFFFFFFFFFFFFFFFFFFFFFFFF AND PUSH1 0x0 PUSH20 0xFFFFFFFFFFFFFFFFFFFFFFFFFFFFFFFFFFFFFFFF AND PUSH32 0xDDF252AD1BE2C89B69C2B068FC378DAA952BA7F163C4A11628F55A4DF523B3EF DUP4 PUSH1 0x40 MLOAD PUSH2 0x1706 SWAP2 SWAP1 PUSH2 0x1E8F JUMP JUMPDEST PUSH1 0x40 MLOAD DUP1 SWAP2 SUB SWAP1 LOG3 POP POP JUMP JUMPDEST PUSH2 0x171C DUP3 DUP3 PUSH2 0x1740 JUMP JUMPDEST PUSH2 0x1731 DUP2 PUSH1 0x7 SLOAD PUSH2 0x105A SWAP1 SWAP2 SWAP1 PUSH4 0xFFFFFFFF AND JUMP JUMPDEST PUSH1 0x7 DUP2 SWAP1 SSTORE POP POP POP JUMP JUMPDEST POP POP POP JUMP JUMPDEST PUSH1 0x0 PUSH20 0xFFFFFFFFFFFFFFFFFFFFFFFFFFFFFFFFFFFFFFFF AND DUP3 PUSH20 0xFFFFFFFFFFFFFFFFFFFFFFFFFFFFFFFFFFFFFFFF AND EQ ISZERO PUSH2 0x17B0 JUMPI PUSH1 0x40 MLOAD PUSH32 0x8C379A000000000000000000000000000000000000000000000000000000000 DUP2 MSTORE PUSH1 0x4 ADD PUSH2 0x17A7 SWAP1 PUSH2 0x1E0F JUMP JUMPDEST PUSH1 0x40 MLOAD DUP1 SWAP2 SUB SWAP1 REVERT JUMPDEST PUSH2 0x17BC DUP3 PUSH1 0x0 DUP4 PUSH2 0x173B JUMP JUMPDEST PUSH2 0x1827 DUP2 PUSH1 0x40 MLOAD DUP1 PUSH1 0x60 ADD PUSH1 0x40 MSTORE DUP1 PUSH1 0x22 DUP2 MSTORE PUSH1 0x20 ADD PUSH2 0x23BE PUSH1 0x22 SWAP2 CODECOPY PUSH1 0x0 DUP1 DUP7 PUSH20 0xFFFFFFFFFFFFFFFFFFFFFFFFFFFFFFFFFFFFFFFF AND PUSH20 0xFFFFFFFFFFFFFFFFFFFFFFFFFFFFFFFFFFFFFFFF AND DUP2 MSTORE PUSH1 0x20 ADD SWAP1 DUP2 MSTORE PUSH1 0x20 ADD PUSH1 0x0 KECCAK256 SLOAD PUSH2 0x1520 SWAP1 SWAP3 SWAP2 SWAP1 PUSH4 0xFFFFFFFF AND JUMP JUMPDEST PUSH1 0x0 DUP1 DUP5 PUSH20 0xFFFFFFFFFFFFFFFFFFFFFFFFFFFFFFFFFFFFFFFF AND PUSH20 0xFFFFFFFFFFFFFFFFFFFFFFFFFFFFFFFFFFFFFFFF AND DUP2 MSTORE PUSH1 0x20 ADD SWAP1 DUP2 MSTORE PUSH1 0x20 ADD PUSH1 0x0 KECCAK256 DUP2 SWAP1 SSTORE POP PUSH2 0x187E DUP2 PUSH1 0x2 SLOAD PUSH2 0x18EE SWAP1 SWAP2 SWAP1 PUSH4 0xFFFFFFFF AND JUMP JUMPDEST PUSH1 0x2 DUP2 SWAP1 SSTORE POP PUSH1 0x0 PUSH20 0xFFFFFFFFFFFFFFFFFFFFFFFFFFFFFFFFFFFFFFFF AND DUP3 PUSH20 0xFFFFFFFFFFFFFFFFFFFFFFFFFFFFFFFFFFFFFFFF AND PUSH32 0xDDF252AD1BE2C89B69C2B068FC378DAA952BA7F163C4A11628F55A4DF523B3EF DUP4 PUSH1 0x40 MLOAD PUSH2 0x18E2 SWAP2 SWAP1 PUSH2 0x1E8F JUMP JUMPDEST PUSH1 0x40 MLOAD DUP1 SWAP2 SUB SWAP1 LOG3 POP POP JUMP JUMPDEST PUSH1 0x0 DUP3 DUP3 GT ISZERO PUSH2 0x1933 JUMPI PUSH1 0x40 MLOAD PUSH32 0x8C379A000000000000000000000000000000000000000000000000000000000 DUP2 MSTORE PUSH1 0x4 ADD PUSH2 0x192A SWAP1 PUSH2 0x1D8F JUMP JUMPDEST PUSH1 0x40 MLOAD DUP1 SWAP2 SUB SWAP1 REVERT JUMPDEST DUP2 DUP4 PUSH2 0x193F SWAP2 SWAP1 PUSH2 0x1F37 JUMP JUMPDEST SWAP1 POP SWAP3 SWAP2 POP POP JUMP JUMPDEST PUSH1 0x0 DUP2 CALLDATALOAD SWAP1 POP PUSH2 0x1956 DUP2 PUSH2 0x238F JUMP JUMPDEST SWAP3 SWAP2 POP POP JUMP JUMPDEST PUSH1 0x0 DUP2 CALLDATALOAD SWAP1 POP PUSH2 0x196B DUP2 PUSH2 0x23A6 JUMP JUMPDEST SWAP3 SWAP2 POP POP JUMP JUMPDEST PUSH1 0x0 PUSH1 0x20 DUP3 DUP5 SUB SLT ISZERO PUSH2 0x1987 JUMPI PUSH2 0x1986 PUSH2 0x2083 JUMP JUMPDEST JUMPDEST PUSH1 0x0 PUSH2 0x1995 DUP5 DUP3 DUP6 ADD PUSH2 0x1947 JUMP JUMPDEST SWAP2 POP POP SWAP3 SWAP2 POP POP JUMP JUMPDEST PUSH1 0x0 DUP1 PUSH1 0x40 DUP4 DUP6 SUB SLT ISZERO PUSH2 0x19B5 JUMPI PUSH2 0x19B4 PUSH2 0x2083 JUMP JUMPDEST JUMPDEST PUSH1 0x0 PUSH2 0x19C3 DUP6 DUP3 DUP7 ADD PUSH2 0x1947 JUMP JUMPDEST SWAP3 POP POP PUSH1 0x20 PUSH2 0x19D4 DUP6 DUP3 DUP7 ADD PUSH2 0x1947 JUMP JUMPDEST SWAP2 POP POP SWAP3 POP SWAP3 SWAP1 POP JUMP JUMPDEST PUSH1 0x0 DUP1 PUSH1 0x0 PUSH1 0x60 DUP5 DUP7 SUB SLT ISZERO PUSH2 0x19F7 JUMPI PUSH2 0x19F6 PUSH2 0x2083 JUMP JUMPDEST JUMPDEST PUSH1 0x0 PUSH2 0x1A05 DUP7 DUP3 DUP8 ADD PUSH2 0x1947 JUMP JUMPDEST SWAP4 POP POP PUSH1 0x20 PUSH2 0x1A16 DUP7 DUP3 DUP8 ADD PUSH2 0x1947 JUMP JUMPDEST SWAP3 POP POP PUSH1 0x40 PUSH2 0x1A27 DUP7 DUP3 DUP8 ADD PUSH2 0x195C JUMP JUMPDEST SWAP2 POP POP SWAP3 POP SWAP3 POP SWAP3 JUMP JUMPDEST PUSH1 0x0 DUP1 PUSH1 0x40 DUP4 DUP6 SUB SLT ISZERO PUSH2 0x1A48 JUMPI PUSH2 0x1A47 PUSH2 0x2083 JUMP JUMPDEST JUMPDEST PUSH1 0x0 PUSH2 0x1A56 DUP6 DUP3 DUP7 ADD PUSH2 0x1947 JUMP JUMPDEST SWAP3 POP POP PUSH1 0x20 PUSH2 0x1A67 DUP6 DUP3 DUP7 ADD PUSH2 0x195C JUMP JUMPDEST SWAP2 POP POP SWAP3 POP SWAP3 SWAP1 POP JUMP JUMPDEST PUSH1 0x0 PUSH1 0x20 DUP3 DUP5 SUB SLT ISZERO PUSH2 0x1A87 JUMPI PUSH2 0x1A86 PUSH2 0x2083 JUMP JUMPDEST JUMPDEST PUSH1 0x0 PUSH2 0x1A95 DUP5 DUP3 DUP6 ADD PUSH2 0x195C JUMP JUMPDEST SWAP2 POP POP SWAP3 SWAP2 POP POP JUMP JUMPDEST PUSH2 0x1AA7 DUP2 PUSH2 0x1F6B JUMP JUMPDEST DUP3 MSTORE POP POP JUMP JUMPDEST PUSH2 0x1AB6 DUP2 PUSH2 0x1F7D JUMP JUMPDEST DUP3 MSTORE POP POP JUMP JUMPDEST PUSH1 0x0 PUSH2 0x1AC7 DUP3 PUSH2 0x1EC5 JUMP JUMPDEST PUSH2 0x1AD1 DUP2 DUP6 PUSH2 0x1ED0 JUMP JUMPDEST SWAP4 POP PUSH2 0x1AE1 DUP2 DUP6 PUSH1 0x20 DUP7 ADD PUSH2 0x1FC0 JUMP JUMPDEST PUSH2 0x1AEA DUP2 PUSH2 0x2088 JUMP JUMPDEST DUP5 ADD SWAP2 POP POP SWAP3 SWAP2 POP POP JUMP JUMPDEST PUSH1 0x0 PUSH2 0x1B02 PUSH1 0x23 DUP4 PUSH2 0x1ED0 JUMP JUMPDEST SWAP2 POP PUSH2 0x1B0D DUP3 PUSH2 0x2099 JUMP JUMPDEST PUSH1 0x40 DUP3 ADD SWAP1 POP SWAP2 SWAP1 POP JUMP JUMPDEST PUSH1 0x0 PUSH2 0x1B25 PUSH1 0x26 DUP4 PUSH2 0x1ED0 JUMP JUMPDEST SWAP2 POP PUSH2 0x1B30 DUP3 PUSH2 0x20E8 JUMP JUMPDEST PUSH1 0x40 DUP3 ADD SWAP1 POP SWAP2 SWAP1 POP JUMP JUMPDEST PUSH1 0x0 PUSH2 0x1B48 PUSH1 0x22 DUP4 PUSH2 0x1ED0 JUMP JUMPDEST SWAP2 POP PUSH2 0x1B53 DUP3 PUSH2 0x2137 JUMP JUMPDEST PUSH1 0x40 DUP3 ADD SWAP1 POP SWAP2 SWAP1 POP JUMP JUMPDEST PUSH1 0x0 PUSH2 0x1B6B PUSH1 0x1B DUP4 PUSH2 0x1ED0 JUMP JUMPDEST SWAP2 POP PUSH2 0x1B76 DUP3 PUSH2 0x2186 JUMP JUMPDEST PUSH1 0x20 DUP3 ADD SWAP1 POP SWAP2 SWAP1 POP JUMP JUMPDEST PUSH1 0x0 PUSH2 0x1B8E PUSH1 0x1E DUP4 PUSH2 0x1ED0 JUMP JUMPDEST SWAP2 POP PUSH2 0x1B99 DUP3 PUSH2 0x21AF JUMP JUMPDEST PUSH1 0x20 DUP3 ADD SWAP1 POP SWAP2 SWAP1 POP JUMP JUMPDEST PUSH1 0x0 PUSH2 0x1BB1 PUSH1 0x1D DUP4 PUSH2 0x1ED0 JUMP JUMPDEST SWAP2 POP PUSH2 0x1BBC DUP3 PUSH2 0x21D8 JUMP JUMPDEST PUSH1 0x20 DUP3 ADD SWAP1 POP SWAP2 SWAP1 POP JUMP JUMPDEST PUSH1 0x0 PUSH2 0x1BD4 PUSH1 0x23 DUP4 PUSH2 0x1ED0 JUMP JUMPDEST SWAP2 POP PUSH2 0x1BDF DUP3 PUSH2 0x2201 JUMP JUMPDEST PUSH1 0x40 DUP3 ADD SWAP1 POP SWAP2 SWAP1 POP JUMP JUMPDEST PUSH1 0x0 PUSH2 0x1BF7 PUSH1 0x20 DUP4 PUSH2 0x1ED0 JUMP JUMPDEST SWAP2 POP PUSH2 0x1C02 DUP3 PUSH2 0x2250 JUMP JUMPDEST PUSH1 0x20 DUP3 ADD SWAP1 POP SWAP2 SWAP1 POP JUMP JUMPDEST PUSH1 0x0 PUSH2 0x1C1A PUSH1 0x21 DUP4 PUSH2 0x1ED0 JUMP JUMPDEST SWAP2 POP PUSH2 0x1C25 DUP3 PUSH2 0x2279 JUMP JUMPDEST PUSH1 0x40 DUP3 ADD SWAP1 POP SWAP2 SWAP1 POP JUMP JUMPDEST PUSH1 0x0 PUSH2 0x1C3D PUSH1 0x25 DUP4 PUSH2 0x1ED0 JUMP JUMPDEST SWAP2 POP PUSH2 0x1C48 DUP3 PUSH2 0x22C8 JUMP JUMPDEST PUSH1 0x40 DUP3 ADD SWAP1 POP SWAP2 SWAP1 POP JUMP JUMPDEST PUSH1 0x0 PUSH2 0x1C60 PUSH1 0x24 DUP4 PUSH2 0x1ED0 JUMP JUMPDEST SWAP2 POP PUSH2 0x1C6B DUP3 PUSH2 0x2317 JUMP JUMPDEST PUSH1 0x40 DUP3 ADD SWAP1 POP SWAP2 SWAP1 POP JUMP JUMPDEST PUSH1 0x0 PUSH2 0x1C83 PUSH1 0x1F DUP4 PUSH2 0x1ED0 JUMP JUMPDEST SWAP2 POP PUSH2 0x1C8E DUP3 PUSH2 0x2366 JUMP JUMPDEST PUSH1 0x20 DUP3 ADD SWAP1 POP SWAP2 SWAP1 POP JUMP JUMPDEST PUSH2 0x1CA2 DUP2 PUSH2 0x1FA9 JUMP JUMPDEST DUP3 MSTORE POP POP JUMP JUMPDEST PUSH2 0x1CB1 DUP2 PUSH2 0x1FB3 JUMP JUMPDEST DUP3 MSTORE POP POP JUMP JUMPDEST PUSH1 0x0 PUSH1 0x20 DUP3 ADD SWAP1 POP PUSH2 0x1CCC PUSH1 0x0 DUP4 ADD DUP5 PUSH2 0x1A9E JUMP JUMPDEST SWAP3 SWAP2 POP POP JUMP JUMPDEST PUSH1 0x0 PUSH1 0x20 DUP3 ADD SWAP1 POP PUSH2 0x1CE7 PUSH1 0x0 DUP4 ADD DUP5 PUSH2 0x1AAD JUMP JUMPDEST SWAP3 SWAP2 POP POP JUMP JUMPDEST PUSH1 0x0 PUSH1 0x20 DUP3 ADD SWAP1 POP DUP2 DUP2 SUB PUSH1 0x0 DUP4 ADD MSTORE PUSH2 0x1D07 DUP2 DUP5 PUSH2 0x1ABC JUMP JUMPDEST SWAP1 POP SWAP3 SWAP2 POP POP JUMP JUMPDEST PUSH1 0x0 PUSH1 0x20 DUP3 ADD SWAP1 POP DUP2 DUP2 SUB PUSH1 0x0 DUP4 ADD MSTORE PUSH2 0x1D28 DUP2 PUSH2 0x1AF5 JUMP JUMPDEST SWAP1 POP SWAP2 SWAP1 POP JUMP JUMPDEST PUSH1 0x0 PUSH1 0x20 DUP3 ADD SWAP1 POP DUP2 DUP2 SUB PUSH1 0x0 DUP4 ADD MSTORE PUSH2 0x1D48 DUP2 PUSH2 0x1B18 JUMP JUMPDEST SWAP1 POP SWAP2 SWAP1 POP JUMP JUMPDEST PUSH1 0x0 PUSH1 0x20 DUP3 ADD SWAP1 POP DUP2 DUP2 SUB PUSH1 0x0 DUP4 ADD MSTORE PUSH2 0x1D68 DUP2 PUSH2 0x1B3B JUMP JUMPDEST SWAP1 POP SWAP2 SWAP1 POP JUMP JUMPDEST PUSH1 0x0 PUSH1 0x20 DUP3 ADD SWAP1 POP DUP2 DUP2 SUB PUSH1 0x0 DUP4 ADD MSTORE PUSH2 0x1D88 DUP2 PUSH2 0x1B5E JUMP JUMPDEST SWAP1 POP SWAP2 SWAP1 POP JUMP JUMPDEST PUSH1 0x0 PUSH1 0x20 DUP3 ADD SWAP1 POP DUP2 DUP2 SUB PUSH1 0x0 DUP4 ADD MSTORE PUSH2 0x1DA8 DUP2 PUSH2 0x1B81 JUMP JUMPDEST SWAP1 POP SWAP2 SWAP1 POP JUMP JUMPDEST PUSH1 0x0 PUSH1 0x20 DUP3 ADD SWAP1 POP DUP2 DUP2 SUB PUSH1 0x0 DUP4 ADD MSTORE PUSH2 0x1DC8 DUP2 PUSH2 0x1BA4 JUMP JUMPDEST SWAP1 POP SWAP2 SWAP1 POP JUMP JUMPDEST PUSH1 0x0 PUSH1 0x20 DUP3 ADD SWAP1 POP DUP2 DUP2 SUB PUSH1 0x0 DUP4 ADD MSTORE PUSH2 0x1DE8 DUP2 PUSH2 0x1BC7 JUMP JUMPDEST SWAP1 POP SWAP2 SWAP1 POP JUMP JUMPDEST PUSH1 0x0 PUSH1 0x20 DUP3 ADD SWAP1 POP DUP2 DUP2 SUB PUSH1 0x0 DUP4 ADD MSTORE PUSH2 0x1E08 DUP2 PUSH2 0x1BEA JUMP JUMPDEST SWAP1 POP SWAP2 SWAP1 POP JUMP JUMPDEST PUSH1 0x0 PUSH1 0x20 DUP3 ADD SWAP1 POP DUP2 DUP2 SUB PUSH1 0x0 DUP4 ADD MSTORE PUSH2 0x1E28 DUP2 PUSH2 0x1C0D JUMP JUMPDEST SWAP1 POP SWAP2 SWAP1 POP JUMP JUMPDEST PUSH1 0x0 PUSH1 0x20 DUP3 ADD SWAP1 POP DUP2 DUP2 SUB PUSH1 0x0 DUP4 ADD MSTORE PUSH2 0x1E48 DUP2 PUSH2 0x1C30 JUMP JUMPDEST SWAP1 POP SWAP2 SWAP1 POP JUMP JUMPDEST PUSH1 0x0 PUSH1 0x20 DUP3 ADD SWAP1 POP DUP2 DUP2 SUB PUSH1 0x0 DUP4 ADD MSTORE PUSH2 0x1E68 DUP2 PUSH2 0x1C53 JUMP JUMPDEST SWAP1 POP SWAP2 SWAP1 POP JUMP JUMPDEST PUSH1 0x0 PUSH1 0x20 DUP3 ADD SWAP1 POP DUP2 DUP2 SUB PUSH1 0x0 DUP4 ADD MSTORE PUSH2 0x1E88 DUP2 PUSH2 0x1C76 JUMP JUMPDEST SWAP1 POP SWAP2 SWAP1 POP JUMP JUMPDEST PUSH1 0x0 PUSH1 0x20 DUP3 ADD SWAP1 POP PUSH2 0x1EA4 PUSH1 0x0 DUP4 ADD DUP5 PUSH2 0x1C99 JUMP JUMPDEST SWAP3 SWAP2 POP POP JUMP JUMPDEST PUSH1 0x0 PUSH1 0x20 DUP3 ADD SWAP1 POP PUSH2 0x1EBF PUSH1 0x0 DUP4 ADD DUP5 PUSH2 0x1CA8 JUMP JUMPDEST SWAP3 SWAP2 POP POP JUMP JUMPDEST PUSH1 0x0 DUP2 MLOAD SWAP1 POP SWAP2 SWAP1 POP JUMP JUMPDEST PUSH1 0x0 DUP3 DUP3 MSTORE PUSH1 0x20 DUP3 ADD SWAP1 POP SWAP3 SWAP2 POP POP JUMP JUMPDEST PUSH1 0x0 PUSH2 0x1EEC DUP3 PUSH2 0x1FA9 JUMP JUMPDEST SWAP2 POP PUSH2 0x1EF7 DUP4 PUSH2 0x1FA9 JUMP JUMPDEST SWAP3 POP DUP3 PUSH32 0xFFFFFFFFFFFFFFFFFFFFFFFFFFFFFFFFFFFFFFFFFFFFFFFFFFFFFFFFFFFFFFFF SUB DUP3 GT ISZERO PUSH2 0x1F2C JUMPI PUSH2 0x1F2B PUSH2 0x2025 JUMP JUMPDEST JUMPDEST DUP3 DUP3 ADD SWAP1 POP SWAP3 SWAP2 POP POP JUMP JUMPDEST PUSH1 0x0 PUSH2 0x1F42 DUP3 PUSH2 0x1FA9 JUMP JUMPDEST SWAP2 POP PUSH2 0x1F4D DUP4 PUSH2 0x1FA9 JUMP JUMPDEST SWAP3 POP DUP3 DUP3 LT ISZERO PUSH2 0x1F60 JUMPI PUSH2 0x1F5F PUSH2 0x2025 JUMP JUMPDEST JUMPDEST DUP3 DUP3 SUB SWAP1 POP SWAP3 SWAP2 POP POP JUMP JUMPDEST PUSH1 0x0 PUSH2 0x1F76 DUP3 PUSH2 0x1F89 JUMP JUMPDEST SWAP1 POP SWAP2 SWAP1 POP JUMP JUMPDEST PUSH1 0x0 DUP2 ISZERO ISZERO SWAP1 POP SWAP2 SWAP1 POP JUMP JUMPDEST PUSH1 0x0 PUSH20 0xFFFFFFFFFFFFFFFFFFFFFFFFFFFFFFFFFFFFFFFF DUP3 AND SWAP1 POP SWAP2 SWAP1 POP JUMP JUMPDEST PUSH1 0x0 DUP2 SWAP1 POP SWAP2 SWAP1 POP JUMP JUMPDEST PUSH1 0x0 PUSH1 0xFF DUP3 AND SWAP1 POP SWAP2 SWAP1 POP JUMP JUMPDEST PUSH1 0x0 JUMPDEST DUP4 DUP2 LT ISZERO PUSH2 0x1FDE JUMPI DUP1 DUP3 ADD MLOAD DUP2 DUP5 ADD MSTORE PUSH1 0x20 DUP2 ADD SWAP1 POP PUSH2 0x1FC3 JUMP JUMPDEST DUP4 DUP2 GT ISZERO PUSH2 0x1FED JUMPI PUSH1 0x0 DUP5 DUP5 ADD MSTORE JUMPDEST POP POP POP POP JUMP JUMPDEST PUSH1 0x0 PUSH1 0x2 DUP3 DIV SWAP1 POP PUSH1 0x1 DUP3 AND DUP1 PUSH2 0x200B JUMPI PUSH1 0x7F DUP3 AND SWAP2 POP JUMPDEST PUSH1 0x20 DUP3 LT DUP2 EQ ISZERO PUSH2 0x201F JUMPI PUSH2 0x201E PUSH2 0x2054 JUMP JUMPDEST JUMPDEST POP SWAP2 SWAP1 POP JUMP JUMPDEST PUSH32 0x4E487B7100000000000000000000000000000000000000000000000000000000 PUSH1 0x0 MSTORE PUSH1 0x11 PUSH1 0x4 MSTORE PUSH1 0x24 PUSH1 0x0 REVERT JUMPDEST PUSH32 0x4E487B7100000000000000000000000000000000000000000000000000000000 PUSH1 0x0 MSTORE PUSH1 0x22 PUSH1 0x4 MSTORE PUSH1 0x24 PUSH1 0x0 REVERT JUMPDEST PUSH1 0x0 DUP1 REVERT JUMPDEST PUSH1 0x0 PUSH1 0x1F NOT PUSH1 0x1F DUP4 ADD AND SWAP1 POP SWAP2 SWAP1 POP JUMP JUMPDEST PUSH32 0x45524332303A207472616E7366657220746F20746865207A65726F2061646472 PUSH1 0x0 DUP3 ADD MSTORE PUSH32 0x6573730000000000000000000000000000000000000000000000000000000000 PUSH1 0x20 DUP3 ADD MSTORE POP JUMP JUMPDEST PUSH32 0x4F776E61626C653A206E6577206F776E657220697320746865207A65726F2061 PUSH1 0x0 DUP3 ADD MSTORE PUSH32 0x6464726573730000000000000000000000000000000000000000000000000000 PUSH1 0x20 DUP3 ADD MSTORE POP JUMP JUMPDEST PUSH32 0x45524332303A20617070726F766520746F20746865207A65726F206164647265 PUSH1 0x0 DUP3 ADD MSTORE PUSH32 0x7373000000000000000000000000000000000000000000000000000000000000 PUSH1 0x20 DUP3 ADD MSTORE POP JUMP JUMPDEST PUSH32 0x536166654D6174683A206164646974696F6E206F766572666C6F770000000000 PUSH1 0x0 DUP3 ADD MSTORE POP JUMP JUMPDEST PUSH32 0x536166654D6174683A207375627472616374696F6E206F766572666C6F770000 PUSH1 0x0 DUP3 ADD MSTORE POP JUMP JUMPDEST PUSH32 0x4752423A204E6F206D6F7265206D696E74696E6720616C6C6F77656421000000 PUSH1 0x0 DUP3 ADD MSTORE POP JUMP JUMPDEST PUSH32 0x4752423A20596F7520646F6E2774206861766520746865207065726D69737369 PUSH1 0x0 DUP3 ADD MSTORE PUSH32 0x6F6E210000000000000000000000000000000000000000000000000000000000 PUSH1 0x20 DUP3 ADD MSTORE POP JUMP JUMPDEST PUSH32 0x4F776E61626C653A2063616C6C6572206973206E6F7420746865206F776E6572 PUSH1 0x0 DUP3 ADD MSTORE POP JUMP JUMPDEST PUSH32 0x45524332303A206275726E2066726F6D20746865207A65726F20616464726573 PUSH1 0x0 DUP3 ADD MSTORE PUSH32 0x7300000000000000000000000000000000000000000000000000000000000000 PUSH1 0x20 DUP3 ADD MSTORE POP JUMP JUMPDEST PUSH32 0x45524332303A207472616E736665722066726F6D20746865207A65726F206164 PUSH1 0x0 DUP3 ADD MSTORE PUSH32 0x6472657373000000000000000000000000000000000000000000000000000000 PUSH1 0x20 DUP3 ADD MSTORE POP JUMP JUMPDEST PUSH32 0x45524332303A20617070726F76652066726F6D20746865207A65726F20616464 PUSH1 0x0 DUP3 ADD MSTORE PUSH32 0x7265737300000000000000000000000000000000000000000000000000000000 PUSH1 0x20 DUP3 ADD MSTORE POP JUMP JUMPDEST PUSH32 0x45524332303A206D696E7420746F20746865207A65726F206164647265737300 PUSH1 0x0 DUP3 ADD MSTORE POP JUMP JUMPDEST PUSH2 0x2398 DUP2 PUSH2 0x1F6B JUMP JUMPDEST DUP2 EQ PUSH2 0x23A3 JUMPI PUSH1 0x0 DUP1 REVERT JUMPDEST POP JUMP JUMPDEST PUSH2 0x23AF DUP2 PUSH2 0x1FA9 JUMP JUMPDEST DUP2 EQ PUSH2 0x23BA JUMPI PUSH1 0x0 DUP1 REVERT JUMPDEST POP JUMP INVALID GASLIMIT MSTORE NUMBER ORIGIN ADDRESS GASPRICE KECCAK256 PUSH3 0x75726E KECCAK256 PUSH2 0x6D6F PUSH22 0x6E7420657863656564732062616C616E636545524332 ADDRESS GASPRICE KECCAK256 PUSH21 0x72616E7366657220616D6F756E7420657863656564 PUSH20 0x2062616C616E636545524332303A207472616E73 PUSH7 0x657220616D6F75 PUSH15 0x74206578636565647320616C6C6F77 PUSH2 0x6E63 PUSH6 0x45524332303A KECCAK256 PUSH3 0x75726E KECCAK256 PUSH2 0x6D6F PUSH22 0x6E74206578636565647320616C6C6F77616E63654552 NUMBER ORIGIN ADDRESS GASPRICE KECCAK256 PUSH5 0x6563726561 PUSH20 0x656420616C6C6F77616E63652062656C6F77207A PUSH6 0x726FA2646970 PUSH7 0x735822122036BC 0xCF ADD PUSH5 0xF41D6ACA2C OR PUSH16 0x89FB9BED0AA1AAB5551ABB7A1830F464 MUL 0xDD 0xE2 0xDF PUSH5 0x736F6C6343 STOP ADDMOD SMOD STOP CALLER "
				},
				"gasEstimates": {
					"creation": {
						"codeDepositCost": "1877600",
						"executionCost": "infinite",
						"totalCost": "infinite"
					},
					"external": {
						"MAX_SUPPLY()": "infinite",
						"allowance(address,address)": "infinite",
						"approve(address,uint256)": "infinite",
						"assignMinterRole(address)": "infinite",
						"balanceOf(address)": "2974",
						"burn(uint256)": "infinite",
						"burnFrom(address,uint256)": "infinite",
						"decimals()": "2591",
						"decreaseAllowance(address,uint256)": "infinite",
						"increaseAllowance(address,uint256)": "infinite",
						"isMinter(address)": "2889",
						"mint(address,uint256)": "infinite",
						"name()": "infinite",
						"owner()": "2639",
						"renounceOwnership()": "30505",
						"revokeMinterRole(address)": "infinite",
						"symbol()": "infinite",
						"totalBurned()": "2517",
						"totalSupply()": "2505",
						"transfer(address,uint256)": "infinite",
						"transferFrom(address,address,uint256)": "infinite",
						"transferOwnership(address)": "30963"
					},
					"internal": {
						"_burn(address,uint256)": "infinite"
					}
				},
				"methodIdentifiers": {
					"MAX_SUPPLY()": "32cb6b0c",
					"allowance(address,address)": "dd62ed3e",
					"approve(address,uint256)": "095ea7b3",
					"assignMinterRole(address)": "b366d613",
					"balanceOf(address)": "70a08231",
					"burn(uint256)": "42966c68",
					"burnFrom(address,uint256)": "79cc6790",
					"decimals()": "313ce567",
					"decreaseAllowance(address,uint256)": "a457c2d7",
					"increaseAllowance(address,uint256)": "39509351",
					"isMinter(address)": "aa271e1a",
					"mint(address,uint256)": "40c10f19",
					"name()": "06fdde03",
					"owner()": "8da5cb5b",
					"renounceOwnership()": "715018a6",
					"revokeMinterRole(address)": "69e2f0fb",
					"symbol()": "95d89b41",
					"totalBurned()": "d89135cd",
					"totalSupply()": "18160ddd",
					"transfer(address,uint256)": "a9059cbb",
					"transferFrom(address,address,uint256)": "23b872dd",
					"transferOwnership(address)": "f2fde38b"
				}
			},
			"storageLayout": {
				"storage": [
					{
						"astId": 571,
						"contract": "contracts/GRB.sol:GRP",
						"label": "_balances",
						"offset": 0,
						"slot": "0",
						"type": "t_mapping(t_address,t_uint256)"
					},
					{
						"astId": 577,
						"contract": "contracts/GRB.sol:GRP",
						"label": "_allowances",
						"offset": 0,
						"slot": "1",
						"type": "t_mapping(t_address,t_mapping(t_address,t_uint256))"
					},
					{
						"astId": 579,
						"contract": "contracts/GRB.sol:GRP",
						"label": "_totalSupply",
						"offset": 0,
						"slot": "2",
						"type": "t_uint256"
					},
					{
						"astId": 581,
						"contract": "contracts/GRB.sol:GRP",
						"label": "_name",
						"offset": 0,
						"slot": "3",
						"type": "t_string_storage"
					},
					{
						"astId": 583,
						"contract": "contracts/GRB.sol:GRP",
						"label": "_symbol",
						"offset": 0,
						"slot": "4",
						"type": "t_string_storage"
					},
					{
						"astId": 585,
						"contract": "contracts/GRB.sol:GRP",
						"label": "_decimals",
						"offset": 0,
						"slot": "5",
						"type": "t_uint8"
					},
					{
						"astId": 458,
						"contract": "contracts/GRB.sol:GRP",
						"label": "_owner",
						"offset": 1,
						"slot": "5",
						"type": "t_address"
					},
					{
						"astId": 1122,
						"contract": "contracts/GRB.sol:GRP",
						"label": "isMinter",
						"offset": 0,
						"slot": "6",
						"type": "t_mapping(t_address,t_bool)"
					},
					{
						"astId": 1127,
						"contract": "contracts/GRB.sol:GRP",
						"label": "totalBurned",
						"offset": 0,
						"slot": "7",
						"type": "t_uint256"
					}
				],
				"types": {
					"t_address": {
						"encoding": "inplace",
						"label": "address",
						"numberOfBytes": "20"
					},
					"t_bool": {
						"encoding": "inplace",
						"label": "bool",
						"numberOfBytes": "1"
					},
					"t_mapping(t_address,t_bool)": {
						"encoding": "mapping",
						"key": "t_address",
						"label": "mapping(address => bool)",
						"numberOfBytes": "32",
						"value": "t_bool"
					},
					"t_mapping(t_address,t_mapping(t_address,t_uint256))": {
						"encoding": "mapping",
						"key": "t_address",
						"label": "mapping(address => mapping(address => uint256))",
						"numberOfBytes": "32",
						"value": "t_mapping(t_address,t_uint256)"
					},
					"t_mapping(t_address,t_uint256)": {
						"encoding": "mapping",
						"key": "t_address",
						"label": "mapping(address => uint256)",
						"numberOfBytes": "32",
						"value": "t_uint256"
					},
					"t_string_storage": {
						"encoding": "bytes",
						"label": "string",
						"numberOfBytes": "32"
					},
					"t_uint256": {
						"encoding": "inplace",
						"label": "uint256",
						"numberOfBytes": "32"
					},
					"t_uint8": {
						"encoding": "inplace",
						"label": "uint8",
						"numberOfBytes": "1"
					}
				}
			},
			"userdoc": {
				"kind": "user",
				"methods": {},
				"version": 1
			}
		}
	}
}