{
  "contractName": "AllowTransferInfo",
  "abi": [
    {
      "inputs": [
        {
          "internalType": "address",
          "name": "_owner",
          "type": "address"
        },
        {
          "internalType": "address",
          "name": "_spender",
          "type": "address"
        },
        {
          "internalType": "contract IERC20[]",
          "name": "_tokens",
          "type": "address[]"
        }
      ],
      "name": "getData",
      "outputs": [
        {
          "components": [
            {
              "internalType": "address",
              "name": "token",
              "type": "address"
            },
            {
              "internalType": "uint256",
              "name": "amount",
              "type": "uint256"
            }
          ],
          "internalType": "struct AllowTransferInfo.Allow[]",
          "name": "data_",
          "type": "tuple[]"
        }
      ],
      "stateMutability": "view",
      "type": "function"
    }
  ],
  "bytecode": "0x608060405234801561001057600080fd5b506103b9806100206000396000f3fe608060405234801561001057600080fd5b506004361061002b5760003560e01c8063d5e16c2a14610030575b600080fd5b61004361003e366004610206565b610059565b604051610050919061029b565b60405180910390f35b60608167ffffffffffffffff811115610074576100746102f3565b6040519080825280602002602001820160405280156100b957816020015b60408051808201909152600080825260208201528152602001906001900390816100925790505b50905060005b828110156101e5578383828181106100d9576100d9610309565b90506020020160208101906100ee919061031f565b82828151811061010057610100610309565b60209081029190910101516001600160a01b03909116905283838281811061012a5761012a610309565b905060200201602081019061013f919061031f565b604051636eb1769f60e11b81526001600160a01b0388811660048301528781166024830152919091169063dd62ed3e90604401602060405180830381865afa15801561018f573d6000803e3d6000fd5b505050506040513d601f19601f820116820180604052508101906101b39190610343565b8282815181106101c5576101c5610309565b6020908102919091018101510152806101dd8161035c565b9150506100bf565b50949350505050565b6001600160a01b038116811461020357600080fd5b50565b6000806000806060858703121561021c57600080fd5b8435610227816101ee565b93506020850135610237816101ee565b9250604085013567ffffffffffffffff8082111561025457600080fd5b818701915087601f83011261026857600080fd5b81358181111561027757600080fd5b8860208260051b850101111561028c57600080fd5b95989497505060200194505050565b602080825282518282018190526000919060409081850190868401855b828110156102e657815180516001600160a01b031685528601518685015292840192908501906001016102b8565b5091979650505050505050565b634e487b7160e01b600052604160045260246000fd5b634e487b7160e01b600052603260045260246000fd5b60006020828403121561033157600080fd5b813561033c816101ee565b9392505050565b60006020828403121561035557600080fd5b5051919050565b60006001820161037c57634e487b7160e01b600052601160045260246000fd5b506001019056fea26469706673582212203eb5e1a34299ed5495c905352589a111d6791cabcf28d18ac5e233cac82af31d64736f6c63430008110033",
  "immutableReferences": {},
  "source": "// SPDX-License-Identifier: MIT\npragma solidity >=0.8.0;\nimport \"@openzeppelin/contracts/token/ERC20/IERC20.sol\";\ncontract AllowTransferInfo {\n\tstruct Allow {\n\t\taddress token;\n\t\tuint256 amount;\n\t}\n\tfunction getData(address _owner, address _spender, IERC20[] calldata _tokens) public view returns(Allow[] memory data_)\n\t{\n\t\tdata_ = new Allow[](_tokens.length);\n\t\tfor (uint256 idx = 0; idx < _tokens.length; idx++) {\n\t\t\tdata_[idx].token = address(_tokens[idx]);\n\t\t\tdata_[idx].amount = _tokens[idx].allowance(_owner, _spender);\n\t\t}\n\t}\n}\n",
  "sourcePath": "/Applications/projects/garbiprotocol.github.io/garbi_contracts/contracts/AllowTransferInfo.sol",
  "compiler": {
    "name": "solc",
    "version": "0.8.17+commit.8df45f5f.Emscripten.clang"
  },
  "schemaVersion": "3.4.11",
  "updatedAt": "2023-03-21T18:57:30.742Z",
  "devdoc": {
    "kind": "dev",
    "methods": {},
    "version": 1
  },
  "userdoc": {
    "kind": "user",
    "methods": {},
    "version": 1
  }
}