{
  "contractName": "BalanceInfo",
  "abi": [
    {
      "inputs": [
        {
          "internalType": "address",
          "name": "_account",
          "type": "address"
        },
        {
          "internalType": "contract IERC20[]",
          "name": "_tokens",
          "type": "address[]"
        }
      ],
      "name": "getData",
      "outputs": [
        {
          "components": [
            {
              "internalType": "address",
              "name": "token",
              "type": "address"
            },
            {
              "internalType": "uint256",
              "name": "amount",
              "type": "uint256"
            }
          ],
          "internalType": "struct BalanceInfo.TokenBALANCE[]",
          "name": "tokensBal_",
          "type": "tuple[]"
        },
        {
          "internalType": "uint256",
          "name": "nativeBal_",
          "type": "uint256"
        }
      ],
      "stateMutability": "view",
      "type": "function"
    }
  ],
  "bytecode": "0x608060405234801561001057600080fd5b506103df806100206000396000f3fe608060405234801561001057600080fd5b506004361061002b5760003560e01c806325cface314610030575b600080fd5b61004361003e36600461021d565b61005a565b6040516100519291906102f7565b60405180910390f35b80516060906001600160a01b038416319067ffffffffffffffff811115610083576100836101f7565b6040519080825280602002602001820160405280156100c857816020015b60408051808201909152600080825260208201528152602001906001900390816100a15790505b50915060005b83518110156101d7578381815181106100e9576100e9610353565b602002602001015183828151811061010357610103610353565b60209081029190910101516001600160a01b039091169052835184908290811061012f5761012f610353565b60209081029190910101516040516370a0823160e01b81526001600160a01b038781166004830152909116906370a0823190602401602060405180830381865afa158015610181573d6000803e3d6000fd5b505050506040513d601f19601f820116820180604052508101906101a59190610369565b8382815181106101b7576101b7610353565b6020908102919091018101510152806101cf81610382565b9150506100ce565b509250929050565b6001600160a01b03811681146101f457600080fd5b50565b634e487b7160e01b600052604160045260246000fd5b8035610218816101df565b919050565b6000806040838503121561023057600080fd5b823561023b816101df565b915060208381013567ffffffffffffffff8082111561025957600080fd5b818601915086601f83011261026d57600080fd5b81358181111561027f5761027f6101f7565b8060051b604051601f19603f830116810181811085821117156102a4576102a46101f7565b6040529182528482019250838101850191898311156102c257600080fd5b938501935b828510156102e7576102d88561020d565b845293850193928501926102c7565b8096505050505050509250929050565b60408082528351828201819052600091906020906060850190828801855b8281101561034357815180516001600160a01b03168552850151858501529285019290840190600101610315565b5050509301939093525092915050565b634e487b7160e01b600052603260045260246000fd5b60006020828403121561037b57600080fd5b5051919050565b6000600182016103a257634e487b7160e01b600052601160045260246000fd5b506001019056fea2646970667358221220b8d347cda859492d916ed5e3154e3f8ec6f333c489e33cbe79641a225416291264736f6c63430008110033",
  "immutableReferences": {},
  "source": "// SPDX-License-Identifier: MIT\r\npragma solidity >=0.8.0;\r\nimport \"@openzeppelin/contracts/token/ERC20/IERC20.sol\";\r\ncontract BalanceInfo {\r\n        struct TokenBALANCE {\r\n                address token;\r\n                uint256 amount;\r\n        }\r\n\tfunction getData(address _account, IERC20[] memory _tokens) public view returns(TokenBALANCE[] memory tokensBal_, uint256 nativeBal_)\r\n\t{\r\n\t\tnativeBal_ = address(_account).balance;\r\n\t\ttokensBal_ = new TokenBALANCE[](_tokens.length);\r\n\t\tfor (uint256 idx = 0; idx < _tokens.length; idx++) {\r\n\t\t\ttokensBal_[idx].token = address(_tokens[idx]);\r\n\t\t\ttokensBal_[idx].amount = _tokens[idx].balanceOf(_account);\r\n\t\t}\r\n\t}\r\n}",
  "sourcePath": "C:\\Users\\David\\Documents\\NetBeansProjects\\garbiprotocol.github.io\\garbi_contracts\\contracts\\BalanceInfo.sol",
  "compiler": {
    "name": "solc",
    "version": "0.8.17+commit.8df45f5f.Emscripten.clang"
  },
  "schemaVersion": "3.4.11",
  "updatedAt": "2023-04-10T09:04:31.612Z",
  "devdoc": {
    "kind": "dev",
    "methods": {},
    "version": 1
  },
  "userdoc": {
    "kind": "user",
    "methods": {},
    "version": 1
  }
}