{
  "contractName": "GarbiswapTradeInfo",
  "abi": [
    {
      "inputs": [
        {
          "internalType": "address",
          "name": "_owner",
          "type": "address"
        },
        {
          "internalType": "address",
          "name": "_tradeMachine",
          "type": "address"
        },
        {
          "internalType": "contract IGarbiswapTrade[]",
          "name": "_lps",
          "type": "address[]"
        }
      ],
      "name": "getData",
      "outputs": [
        {
          "components": [
            {
              "internalType": "uint256",
              "name": "baseReserve",
              "type": "uint256"
            },
            {
              "internalType": "uint256",
              "name": "tokenReserve",
              "type": "uint256"
            },
            {
              "internalType": "uint256",
              "name": "totalLP",
              "type": "uint256"
            },
            {
              "internalType": "uint256",
              "name": "uLPBal",
              "type": "uint256"
            },
            {
              "internalType": "uint256",
              "name": "uBaseAllowedToPair",
              "type": "uint256"
            },
            {
              "internalType": "uint256",
              "name": "uTokenAllowedToPair",
              "type": "uint256"
            },
            {
              "internalType": "uint256",
              "name": "uBaseAllowedToTradeMachine",
              "type": "uint256"
            },
            {
              "internalType": "uint256",
              "name": "uTokenAllowedToTradeMachine",
              "type": "uint256"
            }
          ],
          "internalType": "struct GarbiswapTradeInfo.LP[]",
          "name": "data_",
          "type": "tuple[]"
        }
      ],
      "stateMutability": "view",
      "type": "function"
    }
  ],
  "bytecode": "0x608060405234801561001057600080fd5b506109dc806100206000396000f3fe608060405234801561001057600080fd5b506004361061002b5760003560e01c8063d5e16c2a14610030575b600080fd5b61004361003e3660046107d7565b610059565b604051610050919061086c565b60405180910390f35b60608167ffffffffffffffff811115610074576100746108f9565b6040519080825280602002602001820160405280156100ed57816020015b6100da60405180610100016040528060008152602001600081526020016000815260200160008152602001600081526020016000815260200160008152602001600081525090565b8152602001906001900390816100925790505b50905060008060005b848110156107b4578585828181106101105761011061090f565b90506020020160208101906101259190610925565b6001600160a01b0316635001f3b56040518163ffffffff1660e01b8152600401602060405180830381865afa158015610162573d6000803e3d6000fd5b505050506040513d601f19601f820116820180604052508101906101869190610949565b925085858281811061019a5761019a61090f565b90506020020160208101906101af9190610925565b6001600160a01b031663fc0c546a6040518163ffffffff1660e01b8152600401602060405180830381865afa1580156101ec573d6000803e3d6000fd5b505050506040513d601f19601f820116820180604052508101906102109190610949565b9150826001600160a01b03166370a082318787848181106102335761023361090f565b90506020020160208101906102489190610925565b6040516001600160e01b031960e084901b1681526001600160a01b039091166004820152602401602060405180830381865afa15801561028c573d6000803e3d6000fd5b505050506040513d601f19601f820116820180604052508101906102b09190610966565b8482815181106102c2576102c261090f565b6020908102919091010151526001600160a01b0382166370a082318787848181106102ef576102ef61090f565b90506020020160208101906103049190610925565b6040516001600160e01b031960e084901b1681526001600160a01b039091166004820152602401602060405180830381865afa158015610348573d6000803e3d6000fd5b505050506040513d601f19601f8201168201806040525081019061036c9190610966565b84828151811061037e5761037e61090f565b602002602001015160200181815250508585828181106103a0576103a061090f565b90506020020160208101906103b59190610925565b6001600160a01b03166318160ddd6040518163ffffffff1660e01b8152600401602060405180830381865afa1580156103f2573d6000803e3d6000fd5b505050506040513d601f19601f820116820180604052508101906104169190610966565b8482815181106104285761042861090f565b6020026020010151604001818152505085858281811061044a5761044a61090f565b905060200201602081019061045f9190610925565b6040516370a0823160e01b81526001600160a01b038a8116600483015291909116906370a0823190602401602060405180830381865afa1580156104a7573d6000803e3d6000fd5b505050506040513d601f19601f820116820180604052508101906104cb9190610966565b8482815181106104dd576104dd61090f565b60200260200101516060018181525050826001600160a01b031663dd62ed3e8988888581811061050f5761050f61090f565b90506020020160208101906105249190610925565b6040516001600160e01b031960e085901b1681526001600160a01b03928316600482015291166024820152604401602060405180830381865afa15801561056f573d6000803e3d6000fd5b505050506040513d601f19601f820116820180604052508101906105939190610966565b8482815181106105a5576105a561090f565b60200260200101516080018181525050816001600160a01b031663dd62ed3e898888858181106105d7576105d761090f565b90506020020160208101906105ec9190610925565b6040516001600160e01b031960e085901b1681526001600160a01b03928316600482015291166024820152604401602060405180830381865afa158015610637573d6000803e3d6000fd5b505050506040513d601f19601f8201168201806040525081019061065b9190610966565b84828151811061066d5761066d61090f565b602090810291909101015160a00152604051636eb1769f60e11b81526001600160a01b038981166004830152888116602483015284169063dd62ed3e90604401602060405180830381865afa1580156106ca573d6000803e3d6000fd5b505050506040513d601f19601f820116820180604052508101906106ee9190610966565b8482815181106107005761070061090f565b602090810291909101015160c00152604051636eb1769f60e11b81526001600160a01b038981166004830152888116602483015283169063dd62ed3e90604401602060405180830381865afa15801561075d573d6000803e3d6000fd5b505050506040513d601f19601f820116820180604052508101906107819190610966565b8482815181106107935761079361090f565b602090810291909101015160e00152806107ac8161097f565b9150506100f6565b505050949350505050565b6001600160a01b03811681146107d457600080fd5b50565b600080600080606085870312156107ed57600080fd5b84356107f8816107bf565b93506020850135610808816107bf565b9250604085013567ffffffffffffffff8082111561082557600080fd5b818701915087601f83011261083957600080fd5b81358181111561084857600080fd5b8860208260051b850101111561085d57600080fd5b95989497505060200194505050565b602080825282518282018190526000919060409081850190868401855b828110156108ec5781518051855286810151878601528581015186860152606080820151908601526080808201519086015260a0808201519086015260c0808201519086015260e090810151908501526101009093019290850190600101610889565b5091979650505050505050565b634e487b7160e01b600052604160045260246000fd5b634e487b7160e01b600052603260045260246000fd5b60006020828403121561093757600080fd5b8135610942816107bf565b9392505050565b60006020828403121561095b57600080fd5b8151610942816107bf565b60006020828403121561097857600080fd5b5051919050565b60006001820161099f57634e487b7160e01b600052601160045260246000fd5b506001019056fea2646970667358221220033de9af4bf5177680c74883d221e645bccf891e6a681fa6cb6a73d4b501ef3164736f6c63430008110033",
  "immutableReferences": {},
  "source": "// SPDX-License-Identifier: MIT\r\npragma solidity >=0.8.0;\r\n\r\nimport \"@openzeppelin/contracts/token/ERC20/IERC20.sol\";\r\ninterface IGarbiswapTrade {\r\n\tfunction base() external view returns (address);\r\n\tfunction token() external view returns (address);\r\n\tfunction totalSupply() external view returns (uint256);\r\n    function balanceOf(address account) external view returns (uint256);\r\n\tfunction getTotalReserve() external view returns (uint256, uint256);\r\n}\r\ncontract GarbiswapTradeInfo {\r\n\tstruct LP {\r\n\t\tuint256 baseReserve;\r\n\t\tuint256 tokenReserve;\r\n\t\tuint256 totalLP;\r\n\t\tuint256 uLPBal;\r\n\t\tuint256 uBaseAllowedToPair;\r\n\t\tuint256 uTokenAllowedToPair; \r\n\t\tuint256 uBaseAllowedToTradeMachine;\r\n\t\tuint256 uTokenAllowedToTradeMachine; \r\n\t}\r\n\tfunction getData(address _owner, address _tradeMachine, IGarbiswapTrade[] calldata _lps) public view returns(LP[] memory data_)\r\n\t{\r\n\t\tdata_ = new LP[](_lps.length);\r\n\t\taddress _base;\r\n\t\taddress _token;\r\n\t\tfor (uint256 idx = 0; idx < _lps.length; idx++) {\r\n\t\t\t_base = _lps[idx].base();\r\n\t\t\t_token = _lps[idx].token();\r\n            data_[idx].baseReserve = IERC20(_base).balanceOf(address(_lps[idx]));\r\n            data_[idx].tokenReserve = IERC20(_token).balanceOf(address(_lps[idx]));\r\n\t\t\tdata_[idx].totalLP = _lps[idx].totalSupply();\r\n\t\t\tdata_[idx].uLPBal = _lps[idx].balanceOf(_owner);\r\n\t\t\tdata_[idx].uBaseAllowedToPair = IERC20(_base).allowance(_owner, address(_lps[idx]));\r\n\t\t\tdata_[idx].uTokenAllowedToPair = IERC20(_token).allowance(_owner, address(_lps[idx]));\r\n\t\t\tdata_[idx].uBaseAllowedToTradeMachine = IERC20(_base).allowance(_owner, _tradeMachine);\r\n\t\t\tdata_[idx].uTokenAllowedToTradeMachine = IERC20(_token).allowance(_owner, _tradeMachine);\r\n\t\t}\r\n\t}\r\n}",
  "sourcePath": "C:\\Users\\David\\Documents\\NetBeansProjects\\garbiprotocol.github.io\\garbi_contracts\\contracts\\GarbiswapTradeInfo.sol",
  "compiler": {
    "name": "solc",
    "version": "0.8.17+commit.8df45f5f.Emscripten.clang"
  },
  "schemaVersion": "3.4.11",
  "updatedAt": "2023-03-21T11:34:56.278Z",
  "devdoc": {
    "kind": "dev",
    "methods": {},
    "version": 1
  },
  "userdoc": {
    "kind": "user",
    "methods": {},
    "version": 1
  }
}