{
  "contractName": "GarbiRepository",
  "abi": [
    {
      "inputs": [
        {
          "internalType": "contract IERC20Metadata",
          "name": "baseContract",
          "type": "address"
        },
        {
          "internalType": "contract IGarbiOracle",
          "name": "garbiOracleContract",
          "type": "address"
        },
        {
          "internalType": "address",
          "name": "repositoryManagerContract",
          "type": "address"
        }
      ],
      "stateMutability": "nonpayable",
      "type": "constructor"
    },
    {
      "anonymous": false,
      "inputs": [
        {
          "indexed": true,
          "internalType": "address",
          "name": "previousOwner",
          "type": "address"
        },
        {
          "indexed": true,
          "internalType": "address",
          "name": "newOwner",
          "type": "address"
        }
      ],
      "name": "OwnershipTransferred",
      "type": "event"
    },
    {
      "anonymous": false,
      "inputs": [
        {
          "indexed": false,
          "internalType": "address",
          "name": "addressWithdraw",
          "type": "address"
        },
        {
          "indexed": false,
          "internalType": "uint256",
          "name": "amount",
          "type": "uint256"
        }
      ],
      "name": "onWithdrawBase",
      "type": "event"
    },
    {
      "inputs": [],
      "name": "base",
      "outputs": [
        {
          "internalType": "contract IERC20Metadata",
          "name": "",
          "type": "address"
        }
      ],
      "stateMutability": "view",
      "type": "function",
      "constant": true
    },
    {
      "inputs": [],
      "name": "baseDecimal",
      "outputs": [
        {
          "internalType": "uint256",
          "name": "",
          "type": "uint256"
        }
      ],
      "stateMutability": "view",
      "type": "function",
      "constant": true
    },
    {
      "inputs": [],
      "name": "garbiOracle",
      "outputs": [
        {
          "internalType": "contract IGarbiOracle",
          "name": "",
          "type": "address"
        }
      ],
      "stateMutability": "view",
      "type": "function",
      "constant": true
    },
    {
      "inputs": [],
      "name": "oraclePriceDecimal",
      "outputs": [
        {
          "internalType": "uint256",
          "name": "",
          "type": "uint256"
        }
      ],
      "stateMutability": "view",
      "type": "function",
      "constant": true
    },
    {
      "inputs": [],
      "name": "owner",
      "outputs": [
        {
          "internalType": "address",
          "name": "",
          "type": "address"
        }
      ],
      "stateMutability": "view",
      "type": "function",
      "constant": true
    },
    {
      "inputs": [],
      "name": "renounceOwnership",
      "outputs": [],
      "stateMutability": "nonpayable",
      "type": "function"
    },
    {
      "inputs": [],
      "name": "repositoryManagerAddress",
      "outputs": [
        {
          "internalType": "address",
          "name": "",
          "type": "address"
        }
      ],
      "stateMutability": "view",
      "type": "function",
      "constant": true
    },
    {
      "inputs": [
        {
          "internalType": "address",
          "name": "newOwner",
          "type": "address"
        }
      ],
      "name": "transferOwnership",
      "outputs": [],
      "stateMutability": "nonpayable",
      "type": "function"
    },
    {
      "inputs": [
        {
          "internalType": "address",
          "name": "newAddress",
          "type": "address"
        }
      ],
      "name": "setRepositoryManagerAddress",
      "outputs": [],
      "stateMutability": "nonpayable",
      "type": "function"
    },
    {
      "inputs": [],
      "name": "setDecimals",
      "outputs": [],
      "stateMutability": "nonpayable",
      "type": "function"
    },
    {
      "inputs": [
        {
          "internalType": "contract IERC20Metadata",
          "name": "newContract",
          "type": "address"
        }
      ],
      "name": "setBaseContract",
      "outputs": [],
      "stateMutability": "nonpayable",
      "type": "function"
    },
    {
      "inputs": [],
      "name": "getCapacityByToken",
      "outputs": [
        {
          "internalType": "uint256",
          "name": "repoCapacityInToken",
          "type": "uint256"
        }
      ],
      "stateMutability": "view",
      "type": "function",
      "constant": true
    },
    {
      "inputs": [],
      "name": "getCapacityByUSD",
      "outputs": [
        {
          "internalType": "uint256",
          "name": "repoCapacityInUSD",
          "type": "uint256"
        }
      ],
      "stateMutability": "view",
      "type": "function",
      "constant": true
    },
    {
      "inputs": [],
      "name": "getBasePrice",
      "outputs": [
        {
          "internalType": "uint256",
          "name": "basePriceFromOracle",
          "type": "uint256"
        }
      ],
      "stateMutability": "view",
      "type": "function",
      "constant": true
    },
    {
      "inputs": [
        {
          "internalType": "uint256",
          "name": "baseOutAmount",
          "type": "uint256"
        }
      ],
      "name": "withdrawBaseToRepositoryManager",
      "outputs": [],
      "stateMutability": "nonpayable",
      "type": "function"
    },
    {
      "inputs": [
        {
          "internalType": "uint256",
          "name": "number",
          "type": "uint256"
        },
        {
          "internalType": "uint256",
          "name": "numberDecimal",
          "type": "uint256"
        }
      ],
      "name": "convertDecimalTo18",
      "outputs": [
        {
          "internalType": "uint256",
          "name": "",
          "type": "uint256"
        }
      ],
      "stateMutability": "pure",
      "type": "function",
      "constant": true
    },
    {
      "inputs": [
        {
          "internalType": "uint256",
          "name": "number",
          "type": "uint256"
        },
        {
          "internalType": "uint256",
          "name": "numberDecimal",
          "type": "uint256"
        }
      ],
      "name": "convertToBaseDecimal",
      "outputs": [
        {
          "internalType": "uint256",
          "name": "",
          "type": "uint256"
        }
      ],
      "stateMutability": "view",
      "type": "function",
      "constant": true
    }
  ],
  "bytecode": "0x608060405234801561001057600080fd5b50604051610bff380380610bff83398101604081905261002f916100e2565b6100383361007a565b600280546001600160a01b039485166001600160a01b03199182161790915560018054938516938216939093179092556005805491909316911617905561012f565b600080546001600160a01b038381166001600160a01b0319831681178455604051919092169283917f8be0079c531659141344cd1fd0a4f28419497f9722a3daafe3b4186f6b6457e09190a35050565b6001600160a01b03811681146100df57600080fd5b50565b6000806000606084860312156100f757600080fd5b8351610102816100ca565b6020850151909350610113816100ca565b6040850151909250610124816100ca565b809150509250925092565b610ac18061013e6000396000f3fe608060405234801561001057600080fd5b506004361061010b5760003560e01c80638da5cb5b116100a2578063b49f4afd11610071578063b49f4afd146101e9578063ca414dd7146101f1578063d12feeb514610204578063db7b373e14610217578063f2fde38b1461022057600080fd5b80638da5cb5b1461019f5780639a8cbfb1146101b0578063a2701b4a146101c3578063af7dfc83146101d657600080fd5b80635001f3b5116100de5780635001f3b514610168578063715018a61461017b578063737b84c7146101835780637cf77b9e1461018c57600080fd5b80631f14036c1461011057806329b315d71461014057806335a226641461015657806347b83d7d1461015e575b600080fd5b600154610123906001600160a01b031681565b6040516001600160a01b0390911681526020015b60405180910390f35b610148610233565b604051908152602001610137565b6101486102b4565b61016661038c565b005b600254610123906001600160a01b031681565b610166610486565b61014860045481565b61014861019a366004610881565b61049a565b6000546001600160a01b0316610123565b6101666101be3660046108b8565b6104cf565b6101666101d13660046108d5565b6104f9565b6101486101e4366004610881565b610675565b610148610697565b6101666101ff3660046108b8565b610715565b600554610123906001600160a01b031681565b61014860035481565b61016661022e3660046108b8565b61073f565b6002546040516370a0823160e01b81523060048201526000916102af916001600160a01b03909116906370a08231906024015b602060405180830381865afa158015610283573d6000803e3d6000fd5b505050506040513d601f19601f820116820180604052508101906102a791906108ee565b600354610675565b905090565b6002546040516370a0823160e01b815230600482015260009182916102eb916001600160a01b0316906370a0823190602401610266565b6001546002546040516302c68be360e31b81526001600160a01b0391821660048201529293506000929116906316345f1890602401602060405180830381865afa15801561033d573d6000803e3d6000fd5b505050506040513d601f19601f8201168201806040525081019061036191906108ee565b9050610385600454600a6103759190610a01565b61037f84846107b8565b906107cb565b9250505090565b6103946107d7565b600260009054906101000a90046001600160a01b03166001600160a01b031663313ce5676040518163ffffffff1660e01b8152600401602060405180830381865afa1580156103e7573d6000803e3d6000fd5b505050506040513d601f19601f8201168201806040525081019061040b9190610a0d565b60ff16600355600154600254604051638b1b64bd60e01b81526001600160a01b039182166004820152911690638b1b64bd90602401602060405180830381865afa15801561045d573d6000803e3d6000fd5b505050506040513d601f19601f8201168201806040525081019061048191906108ee565b600455565b61048e6107d7565b6104986000610831565b565b60006104c36104aa83600a610a01565b61037f600354600a6104bc9190610a01565b86906107b8565b92508290505b92915050565b6104d76107d7565b600280546001600160a01b0319166001600160a01b0392909216919091179055565b6005546001600160a01b0316331461054d5760405162461bcd60e51b815260206004820152601260248201527124a72b20a624a22fa822a926a4a9a9a4a7a760711b60448201526064015b60405180910390fd5b6000811161058c5760405162461bcd60e51b815260206004820152600c60248201526b494e56414c49445f4441544160a01b6044820152606401610544565b6000610596610233565b9050808211156105a4578091505b6105af82601261049a565b60025460055460405163a9059cbb60e01b81526001600160a01b03918216600482015260248101849052929450169063a9059cbb906044016020604051808303816000875af1158015610606573d6000803e3d6000fd5b505050506040513d601f19601f8201168201806040525081019061062a9190610a30565b50600554604080516001600160a01b039092168252602082018490527fb32fa994dea240a71e857474752d134624dbeda5cf5fec60aac9de1481218853910160405180910390a15050565b60006104c361068583600a610a01565b61037f85670de0b6b3a76400006107b8565b6001546002546040516302c68be360e31b81526001600160a01b0391821660048201526000926102af9216906316345f1890602401602060405180830381865afa1580156106e9573d6000803e3d6000fd5b505050506040513d601f19601f8201168201806040525081019061070d91906108ee565b600454610675565b61071d6107d7565b600580546001600160a01b0319166001600160a01b0392909216919091179055565b6107476107d7565b6001600160a01b0381166107ac5760405162461bcd60e51b815260206004820152602660248201527f4f776e61626c653a206e6577206f776e657220697320746865207a65726f206160448201526564647265737360d01b6064820152608401610544565b6107b581610831565b50565b60006107c48284610a52565b9392505050565b60006107c48284610a69565b6000546001600160a01b031633146104985760405162461bcd60e51b815260206004820181905260248201527f4f776e61626c653a2063616c6c6572206973206e6f7420746865206f776e65726044820152606401610544565b600080546001600160a01b038381166001600160a01b0319831681178455604051919092169283917f8be0079c531659141344cd1fd0a4f28419497f9722a3daafe3b4186f6b6457e09190a35050565b6000806040838503121561089457600080fd5b50508035926020909101359150565b6001600160a01b03811681146107b557600080fd5b6000602082840312156108ca57600080fd5b81356107c4816108a3565b6000602082840312156108e757600080fd5b5035919050565b60006020828403121561090057600080fd5b5051919050565b634e487b7160e01b600052601160045260246000fd5b600181815b8085111561095857816000190482111561093e5761093e610907565b8085161561094b57918102915b93841c9390800290610922565b509250929050565b60008261096f575060016104c9565b8161097c575060006104c9565b8160018114610992576002811461099c576109b8565b60019150506104c9565b60ff8411156109ad576109ad610907565b50506001821b6104c9565b5060208310610133831016604e8410600b84101617156109db575081810a6104c9565b6109e5838361091d565b80600019048211156109f9576109f9610907565b029392505050565b60006107c48383610960565b600060208284031215610a1f57600080fd5b815160ff811681146107c457600080fd5b600060208284031215610a4257600080fd5b815180151581146107c457600080fd5b80820281158282048414176104c9576104c9610907565b600082610a8657634e487b7160e01b600052601260045260246000fd5b50049056fea264697066735822122093b87690e38a653dbf35ade721073c2c0cca9039e9407ae49e2109491bcb343664736f6c63430008110033",
  "immutableReferences": {},
  "source": "// SPDX-License-Identifier: MIT\r\npragma solidity >=0.6.12;\r\n\r\nimport \"@openzeppelin/contracts/utils/math/SafeMath.sol\";\r\nimport \"@openzeppelin/contracts/token/ERC20/extensions/IERC20Metadata.sol\";\r\nimport \"@openzeppelin/contracts/access/Ownable.sol\";\r\n\r\nimport '../interfaces/IGarbiOracle.sol';\r\n\r\ncontract GarbiRepository is Ownable {\r\n    using SafeMath for uint256;\r\n\r\n    IGarbiOracle public garbiOracle;\r\n\r\n    IERC20Metadata public base;\r\n\r\n    uint256 public baseDecimal;\r\n\r\n    uint256 public oraclePriceDecimal;\r\n\r\n    address public repositoryManagerAddress;\r\n\r\n    modifier onlyRepositoryManager()\r\n    {\r\n        require(repositoryManagerAddress == msg.sender, \"INVALID_PERMISSION\");\r\n        _;\r\n    }\r\n\r\n    // Events\r\n    event onWithdrawBase(address addressWithdraw, uint256 amount);\r\n\r\n    constructor(\r\n        IERC20Metadata baseContract,\r\n        IGarbiOracle garbiOracleContract,\r\n        address repositoryManagerContract\r\n    ) {\r\n        base = baseContract;\r\n        garbiOracle = garbiOracleContract;\r\n        repositoryManagerAddress = repositoryManagerContract;\r\n    }\r\n\r\n    function setRepositoryManagerAddress(address newAddress) public onlyOwner {\r\n        repositoryManagerAddress = newAddress;\r\n    }\r\n\r\n    function setDecimals() public onlyOwner {\r\n        baseDecimal = base.decimals();\r\n        oraclePriceDecimal = garbiOracle.getPriceDecimals(address(base));\r\n    }\r\n\r\n    function setBaseContract(IERC20Metadata newContract) public onlyOwner {\r\n        base = newContract;\r\n    }\r\n    \r\n    function getCapacityByToken() public view returns (uint256 repoCapacityInToken) {\r\n       repoCapacityInToken = convertDecimalTo18(base.balanceOf(address(this)), baseDecimal);\r\n    }\r\n\r\n    function getCapacityByUSD() public view returns (uint256 repoCapacityInUSD) {\r\n       uint256 baseBalance = convertDecimalTo18(base.balanceOf(address(this)), baseDecimal);\r\n       uint256 basePriceFromOracle = garbiOracle.getLatestPrice(address(base));\r\n\r\n       repoCapacityInUSD = baseBalance.mul(basePriceFromOracle).div(10**oraclePriceDecimal);\r\n    }\r\n\r\n    function getBasePrice() public view returns (uint256 basePriceFromOracle) {\r\n       basePriceFromOracle = convertDecimalTo18(garbiOracle.getLatestPrice(address(base)), oraclePriceDecimal);\r\n    }\r\n\r\n    function withdrawBaseToRepositoryManager(uint256 baseOutAmount) public onlyRepositoryManager {\r\n        require(baseOutAmount > 0, 'INVALID_DATA');\r\n        uint256 repoCapacityInToken = getCapacityByToken();\r\n        \r\n        if(baseOutAmount > repoCapacityInToken) {\r\n            baseOutAmount = repoCapacityInToken;\r\n        }\r\n        \r\n        baseOutAmount = convertToBaseDecimal(baseOutAmount, 18);\r\n        base.transfer(repositoryManagerAddress, baseOutAmount);\r\n\r\n        emit onWithdrawBase(repositoryManagerAddress, baseOutAmount);\r\n    }\r\n\r\n    function convertDecimalTo18(uint256 number, uint256 numberDecimal) public pure returns (uint256) { \r\n        number = number.mul(1e18).div(10**numberDecimal);\r\n        return number;\r\n    }\r\n\r\n    function convertToBaseDecimal(uint256 number, uint256 numberDecimal) public view returns (uint256) { \r\n        number = number.mul(10**baseDecimal).div(10**numberDecimal);\r\n        return number;\r\n    }\r\n}",
  "sourcePath": "C:\\Users\\David\\Documents\\NetBeansProjects\\garbiprotocol.github.io\\garbi_contracts\\contracts\\GarbiSwap2\\GarbiRepository.sol",
  "compiler": {
    "name": "solc",
    "version": "0.8.17+commit.8df45f5f.Emscripten.clang"
  },
  "schemaVersion": "3.4.11",
  "updatedAt": "2023-02-17T09:20:27.570Z",
  "networkType": "ethereum",
  "devdoc": {
    "kind": "dev",
    "methods": {
      "owner()": {
        "details": "Returns the address of the current owner."
      },
      "renounceOwnership()": {
        "details": "Leaves the contract without owner. It will not be possible to call `onlyOwner` functions anymore. Can only be called by the current owner. NOTE: Renouncing ownership will leave the contract without an owner, thereby removing any functionality that is only available to the owner."
      },
      "transferOwnership(address)": {
        "details": "Transfers ownership of the contract to a new account (`newOwner`). Can only be called by the current owner."
      }
    },
    "version": 1
  },
  "userdoc": {
    "kind": "user",
    "methods": {},
    "version": 1
  }
}