{
  "contractName": "GarbiswapTradeGRBWETH",
  "abi": [
    {
      "inputs": [
        {
          "internalType": "contract IERC20",
          "name": "_base",
          "type": "address"
        },
        {
          "internalType": "contract IERC20",
          "name": "_token",
          "type": "address"
        },
        {
          "internalType": "contract IGarbiTimeLock",
          "name": "_garbiTimeLockContract",
          "type": "address"
        },
        {
          "internalType": "contract IGarbiswapFeeMachine",
          "name": "_feeMachineContract",
          "type": "address"
        },
        {
          "internalType": "contract IGarbiswapWhitelist",
          "name": "_whitelistContract",
          "type": "address"
        },
        {
          "internalType": "contract IGarbiOracle",
          "name": "_garbiOracle",
          "type": "address"
        },
        {
          "internalType": "string",
          "name": "name",
          "type": "string"
        },
        {
          "internalType": "string",
          "name": "symbol",
          "type": "string"
        }
      ],
      "stateMutability": "nonpayable",
      "type": "constructor"
    },
    {
      "anonymous": false,
      "inputs": [
        {
          "indexed": true,
          "internalType": "address",
          "name": "owner",
          "type": "address"
        },
        {
          "indexed": true,
          "internalType": "address",
          "name": "spender",
          "type": "address"
        },
        {
          "indexed": false,
          "internalType": "uint256",
          "name": "value",
          "type": "uint256"
        }
      ],
      "name": "Approval",
      "type": "event"
    },
    {
      "anonymous": false,
      "inputs": [
        {
          "indexed": true,
          "internalType": "address",
          "name": "previousOwner",
          "type": "address"
        },
        {
          "indexed": true,
          "internalType": "address",
          "name": "newOwner",
          "type": "address"
        }
      ],
      "name": "OwnershipTransferred",
      "type": "event"
    },
    {
      "anonymous": false,
      "inputs": [
        {
          "indexed": true,
          "internalType": "address",
          "name": "from",
          "type": "address"
        },
        {
          "indexed": true,
          "internalType": "address",
          "name": "to",
          "type": "address"
        },
        {
          "indexed": false,
          "internalType": "uint256",
          "name": "value",
          "type": "uint256"
        }
      ],
      "name": "Transfer",
      "type": "event"
    },
    {
      "anonymous": false,
      "inputs": [
        {
          "indexed": false,
          "internalType": "address",
          "name": "sender",
          "type": "address"
        },
        {
          "indexed": false,
          "internalType": "uint256",
          "name": "mintLP",
          "type": "uint256"
        },
        {
          "indexed": false,
          "internalType": "uint256",
          "name": "baseInputAmount",
          "type": "uint256"
        },
        {
          "indexed": false,
          "internalType": "uint256",
          "name": "tokenInputAmount",
          "type": "uint256"
        },
        {
          "indexed": false,
          "internalType": "uint256",
          "name": "poolBaseBalance",
          "type": "uint256"
        },
        {
          "indexed": false,
          "internalType": "uint256",
          "name": "poolTokenBalance",
          "type": "uint256"
        }
      ],
      "name": "onAddLP",
      "type": "event"
    },
    {
      "anonymous": false,
      "inputs": [
        {
          "indexed": false,
          "internalType": "address",
          "name": "sender",
          "type": "address"
        },
        {
          "indexed": false,
          "internalType": "uint256",
          "name": "amountLP",
          "type": "uint256"
        },
        {
          "indexed": false,
          "internalType": "uint256",
          "name": "baseOutputAmout",
          "type": "uint256"
        },
        {
          "indexed": false,
          "internalType": "uint256",
          "name": "tokenOutputAmount",
          "type": "uint256"
        },
        {
          "indexed": false,
          "internalType": "uint256",
          "name": "poolBaseBalance",
          "type": "uint256"
        },
        {
          "indexed": false,
          "internalType": "uint256",
          "name": "poolTokenBalance",
          "type": "uint256"
        }
      ],
      "name": "onRemoveLP",
      "type": "event"
    },
    {
      "anonymous": false,
      "inputs": [
        {
          "indexed": false,
          "internalType": "address",
          "name": "sender",
          "type": "address"
        },
        {
          "indexed": false,
          "internalType": "uint256",
          "name": "minTokenOutput",
          "type": "uint256"
        },
        {
          "indexed": false,
          "internalType": "uint256",
          "name": "baseInputAmount",
          "type": "uint256"
        },
        {
          "indexed": false,
          "internalType": "uint256",
          "name": "tokenOutputAmount",
          "type": "uint256"
        },
        {
          "indexed": false,
          "internalType": "uint256",
          "name": "poolBaseBalance",
          "type": "uint256"
        },
        {
          "indexed": false,
          "internalType": "uint256",
          "name": "poolTokenBalance",
          "type": "uint256"
        }
      ],
      "name": "onSwapBaseToTokenWithBaseInput",
      "type": "event"
    },
    {
      "anonymous": false,
      "inputs": [
        {
          "indexed": false,
          "internalType": "address",
          "name": "sender",
          "type": "address"
        },
        {
          "indexed": false,
          "internalType": "uint256",
          "name": "maxBaseInput",
          "type": "uint256"
        },
        {
          "indexed": false,
          "internalType": "uint256",
          "name": "baseInputAmount",
          "type": "uint256"
        },
        {
          "indexed": false,
          "internalType": "uint256",
          "name": "tokenOutputAmount",
          "type": "uint256"
        },
        {
          "indexed": false,
          "internalType": "uint256",
          "name": "poolBaseBalance",
          "type": "uint256"
        },
        {
          "indexed": false,
          "internalType": "uint256",
          "name": "poolTokenBalance",
          "type": "uint256"
        }
      ],
      "name": "onSwapBaseToTokenWithTokenOutput",
      "type": "event"
    },
    {
      "anonymous": false,
      "inputs": [
        {
          "indexed": false,
          "internalType": "address",
          "name": "sender",
          "type": "address"
        },
        {
          "indexed": false,
          "internalType": "uint256",
          "name": "maxTokenInput",
          "type": "uint256"
        },
        {
          "indexed": false,
          "internalType": "uint256",
          "name": "tokenInputAmount",
          "type": "uint256"
        },
        {
          "indexed": false,
          "internalType": "uint256",
          "name": "baseOutputAmount",
          "type": "uint256"
        },
        {
          "indexed": false,
          "internalType": "uint256",
          "name": "poolBaseBalance",
          "type": "uint256"
        },
        {
          "indexed": false,
          "internalType": "uint256",
          "name": "poolTokenBalance",
          "type": "uint256"
        }
      ],
      "name": "onSwapTokenToBaseWithBaseOutput",
      "type": "event"
    },
    {
      "anonymous": false,
      "inputs": [
        {
          "indexed": false,
          "internalType": "address",
          "name": "sender",
          "type": "address"
        },
        {
          "indexed": false,
          "internalType": "uint256",
          "name": "minBaseOutput",
          "type": "uint256"
        },
        {
          "indexed": false,
          "internalType": "uint256",
          "name": "tokenInputAmount",
          "type": "uint256"
        },
        {
          "indexed": false,
          "internalType": "uint256",
          "name": "baseOutputAmount",
          "type": "uint256"
        },
        {
          "indexed": false,
          "internalType": "uint256",
          "name": "poolBaseBalance",
          "type": "uint256"
        },
        {
          "indexed": false,
          "internalType": "uint256",
          "name": "poolTokenBalance",
          "type": "uint256"
        }
      ],
      "name": "onSwapTokenToBaseWithTokenInput",
      "type": "event"
    },
    {
      "inputs": [],
      "name": "PLATFORM_FEE",
      "outputs": [
        {
          "internalType": "uint256",
          "name": "",
          "type": "uint256"
        }
      ],
      "stateMutability": "view",
      "type": "function"
    },
    {
      "inputs": [],
      "name": "TRADE_FEE",
      "outputs": [
        {
          "internalType": "uint256",
          "name": "",
          "type": "uint256"
        }
      ],
      "stateMutability": "view",
      "type": "function"
    },
    {
      "inputs": [
        {
          "internalType": "address",
          "name": "owner",
          "type": "address"
        },
        {
          "internalType": "address",
          "name": "spender",
          "type": "address"
        }
      ],
      "name": "allowance",
      "outputs": [
        {
          "internalType": "uint256",
          "name": "",
          "type": "uint256"
        }
      ],
      "stateMutability": "view",
      "type": "function"
    },
    {
      "inputs": [
        {
          "internalType": "address",
          "name": "spender",
          "type": "address"
        },
        {
          "internalType": "uint256",
          "name": "amount",
          "type": "uint256"
        }
      ],
      "name": "approve",
      "outputs": [
        {
          "internalType": "bool",
          "name": "",
          "type": "bool"
        }
      ],
      "stateMutability": "nonpayable",
      "type": "function"
    },
    {
      "inputs": [
        {
          "internalType": "address",
          "name": "account",
          "type": "address"
        }
      ],
      "name": "balanceOf",
      "outputs": [
        {
          "internalType": "uint256",
          "name": "",
          "type": "uint256"
        }
      ],
      "stateMutability": "view",
      "type": "function"
    },
    {
      "inputs": [],
      "name": "base",
      "outputs": [
        {
          "internalType": "contract IERC20",
          "name": "",
          "type": "address"
        }
      ],
      "stateMutability": "view",
      "type": "function"
    },
    {
      "inputs": [
        {
          "internalType": "uint256",
          "name": "amount",
          "type": "uint256"
        }
      ],
      "name": "burn",
      "outputs": [],
      "stateMutability": "nonpayable",
      "type": "function"
    },
    {
      "inputs": [
        {
          "internalType": "address",
          "name": "account",
          "type": "address"
        },
        {
          "internalType": "uint256",
          "name": "amount",
          "type": "uint256"
        }
      ],
      "name": "burnFrom",
      "outputs": [],
      "stateMutability": "nonpayable",
      "type": "function"
    },
    {
      "inputs": [],
      "name": "decimals",
      "outputs": [
        {
          "internalType": "uint8",
          "name": "",
          "type": "uint8"
        }
      ],
      "stateMutability": "view",
      "type": "function"
    },
    {
      "inputs": [
        {
          "internalType": "address",
          "name": "spender",
          "type": "address"
        },
        {
          "internalType": "uint256",
          "name": "subtractedValue",
          "type": "uint256"
        }
      ],
      "name": "decreaseAllowance",
      "outputs": [
        {
          "internalType": "bool",
          "name": "",
          "type": "bool"
        }
      ],
      "stateMutability": "nonpayable",
      "type": "function"
    },
    {
      "inputs": [],
      "name": "feeMachineContract",
      "outputs": [
        {
          "internalType": "contract IGarbiswapFeeMachine",
          "name": "",
          "type": "address"
        }
      ],
      "stateMutability": "view",
      "type": "function"
    },
    {
      "inputs": [],
      "name": "garbiOracle",
      "outputs": [
        {
          "internalType": "contract IGarbiOracle",
          "name": "",
          "type": "address"
        }
      ],
      "stateMutability": "view",
      "type": "function"
    },
    {
      "inputs": [],
      "name": "garbiTimeLockContract",
      "outputs": [
        {
          "internalType": "contract IGarbiTimeLock",
          "name": "",
          "type": "address"
        }
      ],
      "stateMutability": "view",
      "type": "function"
    },
    {
      "inputs": [
        {
          "internalType": "address",
          "name": "spender",
          "type": "address"
        },
        {
          "internalType": "uint256",
          "name": "addedValue",
          "type": "uint256"
        }
      ],
      "name": "increaseAllowance",
      "outputs": [
        {
          "internalType": "bool",
          "name": "",
          "type": "bool"
        }
      ],
      "stateMutability": "nonpayable",
      "type": "function"
    },
    {
      "inputs": [],
      "name": "name",
      "outputs": [
        {
          "internalType": "string",
          "name": "",
          "type": "string"
        }
      ],
      "stateMutability": "view",
      "type": "function"
    },
    {
      "inputs": [],
      "name": "owner",
      "outputs": [
        {
          "internalType": "address",
          "name": "",
          "type": "address"
        }
      ],
      "stateMutability": "view",
      "type": "function"
    },
    {
      "inputs": [],
      "name": "platformFundAddress",
      "outputs": [
        {
          "internalType": "address",
          "name": "",
          "type": "address"
        }
      ],
      "stateMutability": "view",
      "type": "function"
    },
    {
      "inputs": [],
      "name": "renounceOwnership",
      "outputs": [],
      "stateMutability": "nonpayable",
      "type": "function"
    },
    {
      "inputs": [],
      "name": "symbol",
      "outputs": [
        {
          "internalType": "string",
          "name": "",
          "type": "string"
        }
      ],
      "stateMutability": "view",
      "type": "function"
    },
    {
      "inputs": [],
      "name": "token",
      "outputs": [
        {
          "internalType": "contract IERC20",
          "name": "",
          "type": "address"
        }
      ],
      "stateMutability": "view",
      "type": "function"
    },
    {
      "inputs": [],
      "name": "totalSupply",
      "outputs": [
        {
          "internalType": "uint256",
          "name": "",
          "type": "uint256"
        }
      ],
      "stateMutability": "view",
      "type": "function"
    },
    {
      "inputs": [
        {
          "internalType": "address",
          "name": "to",
          "type": "address"
        },
        {
          "internalType": "uint256",
          "name": "amount",
          "type": "uint256"
        }
      ],
      "name": "transfer",
      "outputs": [
        {
          "internalType": "bool",
          "name": "",
          "type": "bool"
        }
      ],
      "stateMutability": "nonpayable",
      "type": "function"
    },
    {
      "inputs": [
        {
          "internalType": "address",
          "name": "from",
          "type": "address"
        },
        {
          "internalType": "address",
          "name": "to",
          "type": "address"
        },
        {
          "internalType": "uint256",
          "name": "amount",
          "type": "uint256"
        }
      ],
      "name": "transferFrom",
      "outputs": [
        {
          "internalType": "bool",
          "name": "",
          "type": "bool"
        }
      ],
      "stateMutability": "nonpayable",
      "type": "function"
    },
    {
      "inputs": [
        {
          "internalType": "address",
          "name": "newOwner",
          "type": "address"
        }
      ],
      "name": "transferOwnership",
      "outputs": [],
      "stateMutability": "nonpayable",
      "type": "function"
    },
    {
      "inputs": [],
      "name": "whitelistContract",
      "outputs": [
        {
          "internalType": "contract IGarbiswapWhitelist",
          "name": "",
          "type": "address"
        }
      ],
      "stateMutability": "view",
      "type": "function"
    },
    {
      "inputs": [],
      "name": "setWhitelistContract",
      "outputs": [],
      "stateMutability": "nonpayable",
      "type": "function"
    },
    {
      "inputs": [],
      "name": "setFeeMachineContract",
      "outputs": [],
      "stateMutability": "nonpayable",
      "type": "function"
    },
    {
      "inputs": [],
      "name": "setTradeFee",
      "outputs": [],
      "stateMutability": "nonpayable",
      "type": "function"
    },
    {
      "inputs": [],
      "name": "setPlatformFee",
      "outputs": [],
      "stateMutability": "nonpayable",
      "type": "function"
    },
    {
      "inputs": [
        {
          "internalType": "address",
          "name": "newAddress",
          "type": "address"
        }
      ],
      "name": "setPlatformFundAdress",
      "outputs": [],
      "stateMutability": "nonpayable",
      "type": "function"
    },
    {
      "inputs": [],
      "name": "getK",
      "outputs": [
        {
          "internalType": "uint256",
          "name": "",
          "type": "uint256"
        }
      ],
      "stateMutability": "view",
      "type": "function"
    },
    {
      "inputs": [
        {
          "internalType": "uint256",
          "name": "baseInputAmount",
          "type": "uint256"
        }
      ],
      "name": "getTokenOutput",
      "outputs": [
        {
          "internalType": "uint256",
          "name": "",
          "type": "uint256"
        }
      ],
      "stateMutability": "view",
      "type": "function"
    },
    {
      "inputs": [
        {
          "internalType": "uint256",
          "name": "tokenInputAmount",
          "type": "uint256"
        }
      ],
      "name": "getBaseOutput",
      "outputs": [
        {
          "internalType": "uint256",
          "name": "",
          "type": "uint256"
        }
      ],
      "stateMutability": "view",
      "type": "function"
    },
    {
      "inputs": [
        {
          "internalType": "uint256",
          "name": "baseInputAmount",
          "type": "uint256"
        }
      ],
      "name": "getDataFromBaseInputToAddLp",
      "outputs": [
        {
          "internalType": "uint256",
          "name": "",
          "type": "uint256"
        },
        {
          "internalType": "uint256",
          "name": "",
          "type": "uint256"
        }
      ],
      "stateMutability": "view",
      "type": "function"
    },
    {
      "inputs": [
        {
          "internalType": "uint256",
          "name": "tokenInputAmount",
          "type": "uint256"
        }
      ],
      "name": "getDataFromTokenInputToAddLp",
      "outputs": [
        {
          "internalType": "uint256",
          "name": "",
          "type": "uint256"
        },
        {
          "internalType": "uint256",
          "name": "",
          "type": "uint256"
        }
      ],
      "stateMutability": "view",
      "type": "function"
    },
    {
      "inputs": [
        {
          "internalType": "uint256",
          "name": "amountLP",
          "type": "uint256"
        }
      ],
      "name": "getDataToRemoveLP",
      "outputs": [
        {
          "internalType": "uint256",
          "name": "",
          "type": "uint256"
        },
        {
          "internalType": "uint256",
          "name": "",
          "type": "uint256"
        }
      ],
      "stateMutability": "view",
      "type": "function"
    },
    {
      "inputs": [
        {
          "internalType": "uint256",
          "name": "baseInputAmount",
          "type": "uint256"
        },
        {
          "internalType": "uint256",
          "name": "baseReserve",
          "type": "uint256"
        },
        {
          "internalType": "uint256",
          "name": "tokenReserve",
          "type": "uint256"
        }
      ],
      "name": "getTokenOutputAmountFromBaseInput",
      "outputs": [
        {
          "internalType": "uint256",
          "name": "",
          "type": "uint256"
        }
      ],
      "stateMutability": "pure",
      "type": "function"
    },
    {
      "inputs": [
        {
          "internalType": "uint256",
          "name": "tokenOutputAmount",
          "type": "uint256"
        },
        {
          "internalType": "uint256",
          "name": "baseReserve",
          "type": "uint256"
        },
        {
          "internalType": "uint256",
          "name": "tokenReserve",
          "type": "uint256"
        }
      ],
      "name": "getBaseInputAmountFromTokenOutput",
      "outputs": [
        {
          "internalType": "uint256",
          "name": "",
          "type": "uint256"
        }
      ],
      "stateMutability": "pure",
      "type": "function"
    },
    {
      "inputs": [
        {
          "internalType": "uint256",
          "name": "tokenInputAmount",
          "type": "uint256"
        },
        {
          "internalType": "uint256",
          "name": "baseReserve",
          "type": "uint256"
        },
        {
          "internalType": "uint256",
          "name": "tokenReserve",
          "type": "uint256"
        }
      ],
      "name": "getBaseOutputAmountFromTokenInput",
      "outputs": [
        {
          "internalType": "uint256",
          "name": "",
          "type": "uint256"
        }
      ],
      "stateMutability": "pure",
      "type": "function"
    },
    {
      "inputs": [
        {
          "internalType": "uint256",
          "name": "baseOutputAmount",
          "type": "uint256"
        },
        {
          "internalType": "uint256",
          "name": "baseReserve",
          "type": "uint256"
        },
        {
          "internalType": "uint256",
          "name": "tokenReserve",
          "type": "uint256"
        }
      ],
      "name": "getTokenInputAmountFromBaseOutput",
      "outputs": [
        {
          "internalType": "uint256",
          "name": "",
          "type": "uint256"
        }
      ],
      "stateMutability": "pure",
      "type": "function"
    },
    {
      "inputs": [
        {
          "internalType": "uint256",
          "name": "baseInputAmount",
          "type": "uint256"
        },
        {
          "internalType": "uint256",
          "name": "minTokenOutput",
          "type": "uint256"
        },
        {
          "internalType": "uint256",
          "name": "deadline",
          "type": "uint256"
        }
      ],
      "name": "swapBaseToTokenWithBaseInput",
      "outputs": [],
      "stateMutability": "nonpayable",
      "type": "function"
    },
    {
      "inputs": [
        {
          "internalType": "uint256",
          "name": "maxBaseInput",
          "type": "uint256"
        },
        {
          "internalType": "uint256",
          "name": "tokenOutputAmount",
          "type": "uint256"
        },
        {
          "internalType": "uint256",
          "name": "deadline",
          "type": "uint256"
        }
      ],
      "name": "swapBaseToTokenWithTokenOutput",
      "outputs": [],
      "stateMutability": "nonpayable",
      "type": "function"
    },
    {
      "inputs": [
        {
          "internalType": "uint256",
          "name": "tokenInputAmount",
          "type": "uint256"
        },
        {
          "internalType": "uint256",
          "name": "minBaseOutput",
          "type": "uint256"
        },
        {
          "internalType": "uint256",
          "name": "deadline",
          "type": "uint256"
        }
      ],
      "name": "swapTokenToBaseWithTokenInput",
      "outputs": [],
      "stateMutability": "nonpayable",
      "type": "function"
    },
    {
      "inputs": [
        {
          "internalType": "uint256",
          "name": "maxTokenInput",
          "type": "uint256"
        },
        {
          "internalType": "uint256",
          "name": "baseOutputAmount",
          "type": "uint256"
        },
        {
          "internalType": "uint256",
          "name": "deadline",
          "type": "uint256"
        }
      ],
      "name": "swapTokenToBaseWithBaseOutput",
      "outputs": [],
      "stateMutability": "nonpayable",
      "type": "function"
    },
    {
      "inputs": [
        {
          "internalType": "uint256",
          "name": "minLP",
          "type": "uint256"
        },
        {
          "internalType": "uint256",
          "name": "baseInputAmount",
          "type": "uint256"
        },
        {
          "internalType": "uint256",
          "name": "maxTokenInputAmount",
          "type": "uint256"
        },
        {
          "internalType": "uint256",
          "name": "deadline",
          "type": "uint256"
        }
      ],
      "name": "addLP",
      "outputs": [
        {
          "internalType": "uint256",
          "name": "",
          "type": "uint256"
        }
      ],
      "stateMutability": "nonpayable",
      "type": "function"
    },
    {
      "inputs": [
        {
          "internalType": "uint256",
          "name": "amountLP",
          "type": "uint256"
        },
        {
          "internalType": "uint256",
          "name": "minBaseOutput",
          "type": "uint256"
        },
        {
          "internalType": "uint256",
          "name": "minTokenOutput",
          "type": "uint256"
        },
        {
          "internalType": "uint256",
          "name": "deadline",
          "type": "uint256"
        }
      ],
      "name": "removeLP",
      "outputs": [
        {
          "internalType": "uint256",
          "name": "",
          "type": "uint256"
        },
        {
          "internalType": "uint256",
          "name": "",
          "type": "uint256"
        }
      ],
      "stateMutability": "nonpayable",
      "type": "function"
    },
    {
      "inputs": [],
      "name": "getTotalReserve",
      "outputs": [
        {
          "internalType": "uint256",
          "name": "",
          "type": "uint256"
        },
        {
          "internalType": "uint256",
          "name": "",
          "type": "uint256"
        }
      ],
      "stateMutability": "view",
      "type": "function"
    }
  ],
  "bytecode": "0x60806040526023600c556019600d553480156200001b57600080fd5b5060405162004e4238038062004e428339810160408190526200003e9162000259565b818160036200004e8382620003d1565b5060046200005d8282620003d1565b5050506200007a620000746200011360201b60201c565b62000117565b600680546001600160a01b03199081166001600160a01b038b8116919091179092556007805482168a8416179055600a80548216898416179055600980548216878416179055600880548216888416179055600b8054909116918516919091179055620000e43390565b600e80546001600160a01b0319166001600160a01b0392909216919091179055506200049d9650505050505050565b3390565b600580546001600160a01b038381166001600160a01b0319831681179093556040519116919082907f8be0079c531659141344cd1fd0a4f28419497f9722a3daafe3b4186f6b6457e090600090a35050565b6001600160a01b03811681146200017f57600080fd5b50565b80516200018f8162000169565b919050565b634e487b7160e01b600052604160045260246000fd5b600082601f830112620001bc57600080fd5b81516001600160401b0380821115620001d957620001d962000194565b604051601f8301601f19908116603f0116810190828211818310171562000204576200020462000194565b816040528381526020925086838588010111156200022157600080fd5b600091505b8382101562000245578582018301518183018401529082019062000226565b600093810190920192909252949350505050565b600080600080600080600080610100898b0312156200027757600080fd5b8851620002848162000169565b60208a0151909850620002978162000169565b60408a0151909750620002aa8162000169565b60608a0151909650620002bd8162000169565b60808a0151909550620002d08162000169565b9350620002e060a08a0162000182565b60c08a01519093506001600160401b0380821115620002fe57600080fd5b6200030c8c838d01620001aa565b935060e08b01519150808211156200032357600080fd5b50620003328b828c01620001aa565b9150509295985092959890939650565b600181811c908216806200035757607f821691505b6020821081036200037857634e487b7160e01b600052602260045260246000fd5b50919050565b601f821115620003cc57600081815260208120601f850160051c81016020861015620003a75750805b601f850160051c820191505b81811015620003c857828155600101620003b3565b5050505b505050565b81516001600160401b03811115620003ed57620003ed62000194565b6200040581620003fe845462000342565b846200037e565b602080601f8311600181146200043d5760008415620004245750858301515b600019600386901b1c1916600185901b178555620003c8565b600085815260208120601f198616915b828110156200046e578886015182559484019460019091019084016200044d565b50858210156200048d5787850151600019600388901b60f8161c191681555b5050505050600190811b01905550565b61499580620004ad6000396000f3fe608060405234801561001057600080fd5b50600436106102955760003560e01c806373dd25a311610167578063b7c3ba45116100ce578063e50a38d711610087578063e50a38d7146105b7578063ead915e3146105ca578063ec022918146105d2578063ee39e7a0146105da578063f2fde38b146105e2578063fc0c546a146105f557600080fd5b8063b7c3ba451461054f578063c6e842fc14610562578063d0e9de6c14610575578063d132296214610588578063dbcfbf2f14610591578063dd62ed3e146105a457600080fd5b806395d89b411161012057806395d89b41146104f357806397bb21c6146104fb5780639fa5e63e1461050e578063a457c2d714610521578063a9059cbb14610534578063ac7343bd1461054757600080fd5b806373dd25a31461048357806376125deb1461049657806379cc6790146104a957806384900b04146104bc5780638da5cb5b146104cf5780638fe6041d146104e057600080fd5b806334fbc9a11161020b57806360b1765c116101c457806360b1765c146103f1578063635f95ff146104045780636662d1771461041757806370a082311461043f578063711f614214610468578063715018a61461047b57600080fd5b806334fbc9a114610394578063395093511461039d57806342966c68146103b057806342eba2ce146103c357806344dca562146103d65780635001f3b5146103de57600080fd5b80631279732c1161025d5780631279732c1461033c57806318160ddd146103445780631f14036c1461034c57806323b872dd1461035f5780632916bc1014610372578063313ce5671461038557600080fd5b806303bf04c11461029a57806306fdde03146102af578063095ea7b3146102cd57806310a57f3a146102f057806311fbded31461031b575b600080fd5b6102ad6102a8366004614057565b610608565b005b6102b7610b80565b6040516102c49190614083565b60405180910390f35b6102e06102db3660046140e6565b610c12565b60405190151581526020016102c4565b600a54610303906001600160a01b031681565b6040516001600160a01b0390911681526020016102c4565b61032e610329366004614112565b610c2c565b6040519081526020016102c4565b6102ad610c7f565b60025461032e565b600b54610303906001600160a01b031681565b6102e061036d36600461412b565b610e52565b61032e610380366004614057565b610e76565b604051601281526020016102c4565b61032e600d5481565b6102e06103ab3660046140e6565b610ed5565b6102ad6103be366004614112565b610ef7565b600854610303906001600160a01b031681565b6102ad610f04565b600654610303906001600160a01b031681565b61032e6103ff36600461416c565b6110a2565b61032e610412366004614112565b6119b8565b61042a610425366004614112565b611a00565b604080519283526020830191909152016102c4565b61032e61044d36600461419e565b6001600160a01b031660009081526020819052604090205490565b61042a610476366004614112565b611a94565b6102ad611b49565b6102ad610491366004614057565b611b5d565b61042a6104a436600461416c565b6120a9565b6102ad6104b73660046140e6565b6127ad565b600954610303906001600160a01b031681565b6005546001600160a01b0316610303565b6102ad6104ee36600461419e565b6127c6565b6102b76127f0565b61032e610509366004614057565b6127ff565b600e54610303906001600160a01b031681565b6102e061052f3660046140e6565b612858565b6102e06105423660046140e6565b6128d3565b6102ad6128e1565b61032e61055d366004614057565b612ada565b61042a610570366004614112565b612b33565b6102ad610583366004614057565b612bb6565b61032e600c5481565b61032e61059f366004614057565b6130f1565b61032e6105b23660046141bb565b613150565b6102ad6105c5366004614057565b61317b565b6102ad6136ce565b61042a6138c7565b61032e6139b5565b6102ad6105f036600461419e565b6139d2565b600754610303906001600160a01b031681565b3332146106a557600954604051636c9b2a3f60e11b81523360048201526001600160a01b039091169063d936547e90602401602060405180830381865afa158015610657573d6000803e3d6000fd5b505050506040513d601f19601f8201168201806040525081019061067b91906141f4565b15156001146106a55760405162461bcd60e51b815260040161069c90614216565b60405180910390fd5b428110156106c55760405162461bcd60e51b815260040161069c90614241565b6000821161070f5760405162461bcd60e51b81526020600482015260176024820152761253959053125117d3525397d09054d157d3d555141555604a1b604482015260640161069c565b6000831161072f5760405162461bcd60e51b815260040161069c9061426b565b6007546040516370a0823160e01b81523360048201526001600160a01b03909116906370a0823190602401602060405180830381865afa158015610777573d6000803e3d6000fd5b505050506040513d601f19601f8201168201806040525081019061079b9190614298565b8311156107ea5760405162461bcd60e51b815260206004820152601f60248201527f544f4b454e5f494e5055545f4849474845525f555345525f42414c414e434500604482015260640161069c565b6000806107f56138c7565b909250905081841061085a5760405162461bcd60e51b815260206004820152602860248201527f4d494e5f424153455f4f55545055545f4849474845525f504f4f4c5f424153456044820152675f42414c414e434560c01b606482015260840161069c565b600061087e620186a0610878600c5489613a4890919063ffffffff16565b90613a5b565b9050600061088c8783613a67565b9050600061089b8286866130f1565b9050868110156108bd5760405162461bcd60e51b815260040161069c906142b1565b8481106108dc5760405162461bcd60e51b815260040161069c906142dd565b6006546040516370a0823160e01b81523060048201526001600160a01b03909116906370a0823190602401602060405180830381865afa158015610924573d6000803e3d6000fd5b505050506040513d601f19601f820116820180604052508101906109489190614298565b81106109665760405162461bcd60e51b815260040161069c90614321565b6007546040516323b872dd60e01b81526001600160a01b03909116906323b872dd9061099a90339030908d90600401614369565b6020604051808303816000875af11580156109b9573d6000803e3d6000fd5b505050506040513d601f19601f820116820180604052508101906109dd91906141f4565b5060065460405163a9059cbb60e01b81526001600160a01b039091169063a9059cbb90610a10903390859060040161438d565b6020604051808303816000875af1158015610a2f573d6000803e3d6000fd5b505050506040513d601f19601f82011682018060405250810190610a5391906141f4565b5060075460085460405163a9059cbb60e01b81526001600160a01b039283169263a9059cbb92610a8a92911690879060040161438d565b6020604051808303816000875af1158015610aa9573d6000803e3d6000fd5b505050506040513d601f19601f82011682018060405250810190610acd91906141f4565b50600854600754604051632054895360e21b81526001600160a01b039182166004820152336024820152911690638152254c90604401600060405180830381600087803b158015610b1d57600080fd5b505af1158015610b31573d6000803e3d6000fd5b505050507fb1b8c525a87e01fd3cda717635c4b24d56deba9f9d95c4f650c022bcd0bf8f5033888a848989604051610b6e969594939291906143a6565b60405180910390a15050505050505050565b606060038054610b8f906143d9565b80601f0160208091040260200160405190810160405280929190818152602001828054610bbb906143d9565b8015610c085780601f10610bdd57610100808354040283529160200191610c08565b820191906000526020600020905b815481529060010190602001808311610beb57829003601f168201915b5050505050905090565b600033610c20818585613a73565b60019150505b92915050565b60008080610c386138c7565b600c549193509150600090610c5790620186a090610878908890613a48565b90506000610c658683613a67565b90506000610c74828686610e76565b979650505050505050565b610c87613b98565b600a5460405163109cc30b60e21b81526001600160a01b03909116906342730c2c90610cb7903090600401614431565b602060405180830381865afa158015610cd4573d6000803e3d6000fd5b505050506040513d601f19601f82011682018060405250810190610cf891906141f4565b610d145760405162461bcd60e51b815260040161069c90614454565b600a54604051636076dea560e11b81526000916001600160a01b03169063c0edbd4a90610d45903090600401614480565b602060405180830381865afa158015610d62573d6000803e3d6000fd5b505050506040513d601f19601f82011682018060405250810190610d869190614298565b600c819055600a54604051636e977f0b60e01b81529192506001600160a01b031690636e977f0b90610dbd906002906004016144ca565b600060405180830381600087803b158015610dd757600080fd5b505af1158015610deb573d6000803e3d6000fd5b5050600a546040516345503fcb60e11b81526001600160a01b039091169250638aa07f969150610e1d90600401614515565b600060405180830381600087803b158015610e3757600080fd5b505af1158015610e4b573d6000803e3d6000fd5b5050505050565b600033610e60858285613bf2565b610e6b858585613c6c565b506001949350505050565b60008083118015610e875750600082115b610ea35760405162461bcd60e51b815260040161069c90614527565b6000610eaf8385613a48565b90506000610ebd8587613e10565b90506000610c74610ece8484613a5b565b8690613a67565b600033610c20818585610ee88383613150565b610ef29190614564565b613a73565b610f013382613e1c565b50565b610f0c613b98565b600a5460405163109cc30b60e21b81526001600160a01b03909116906342730c2c90610f3c903090600401614598565b602060405180830381865afa158015610f59573d6000803e3d6000fd5b505050506040513d601f19601f82011682018060405250810190610f7d91906141f4565b610f995760405162461bcd60e51b815260040161069c90614454565b600a54604051636076dea560e11b81526000916001600160a01b03169063c0edbd4a90610fca9030906004016145bb565b602060405180830381865afa158015610fe7573d6000803e3d6000fd5b505050506040513d601f19601f8201168201806040525081019061100b9190614298565b600d819055600a54604051636e977f0b60e01b81529192506001600160a01b031690636e977f0b9061104290600290600401614608565b600060405180830381600087803b15801561105c57600080fd5b505af1158015611070573d6000803e3d6000fd5b5050600a546040516345503fcb60e11b81526001600160a01b039091169250638aa07f969150610e1d90600401614644565b600033321461113857600954604051636c9b2a3f60e11b81523360048201526001600160a01b039091169063d936547e90602401602060405180830381865afa1580156110f3573d6000803e3d6000fd5b505050506040513d601f19601f8201168201806040525081019061111791906141f4565b15156001146111385760405162461bcd60e51b815260040161069c90614216565b428210156111585760405162461bcd60e51b815260040161069c90614241565b600085116111995760405162461bcd60e51b815260206004820152600e60248201526d0494e56414c49445f4d494e5f4c560941b604482015260640161069c565b600084116111b95760405162461bcd60e51b815260040161069c90614656565b600083116112035760405162461bcd60e51b81526020600482015260176024820152761253959053125117d3505617d513d2d15397d253941555604a1b604482015260640161069c565b600061120e60025490565b905080600003611577576006546040516323b872dd60e01b81526001600160a01b03909116906323b872dd9061124c90339030908a90600401614369565b6020604051808303816000875af115801561126b573d6000803e3d6000fd5b505050506040513d601f19601f8201168201806040525081019061128f91906141f4565b506007546040516323b872dd60e01b81526001600160a01b03909116906323b872dd906112c490339030908990600401614369565b6020604051808303816000875af11580156112e3573d6000803e3d6000fd5b505050506040513d601f19601f8201168201806040525081019061130791906141f4565b5060006113256103e8610878600d5489613a4890919063ffffffff16565b905060006113446103e8610878600d5489613a4890919063ffffffff16565b600654600e5460405163a9059cbb60e01b81529293506001600160a01b039182169263a9059cbb9261137c921690869060040161438d565b6020604051808303816000875af115801561139b573d6000803e3d6000fd5b505050506040513d601f19601f820116820180604052508101906113bf91906141f4565b50600754600e5460405163a9059cbb60e01b81526001600160a01b039283169263a9059cbb926113f692911690859060040161438d565b6020604051808303816000875af1158015611415573d6000803e3d6000fd5b505050506040513d601f19601f8201168201806040525081019061143991906141f4565b5060006114468884613a67565b90506114523382613f46565b6006546040516370a0823160e01b81523060048201527f28e12afd967cc11b786f1b1547f5e0da96ccc91ebb09bdd406248111a634e7e591339184918c918c916001600160a01b0316906370a0823190602401602060405180830381865afa1580156114c2573d6000803e3d6000fd5b505050506040513d601f19601f820116820180604052508101906114e69190614298565b6007546040516370a0823160e01b81523060048201526001600160a01b03909116906370a0823190602401602060405180830381865afa15801561152e573d6000803e3d6000fd5b505050506040513d601f19601f820116820180604052508101906115529190614298565b604051611564969594939291906143a6565b60405180910390a193506119b092505050565b6000806115826138c7565b909250905060006115ab826115a58561087861159e828e613e10565b8790613a48565b90613a67565b905060006115ca6103e8610878600d548c613a4890919063ffffffff16565b905060006115e96103e8610878600d5486613a4890919063ffffffff16565b90506000611605866108786115fe8e87613a67565b8a90613a48565b9050600084116116275760405162461bcd60e51b815260040161069c9061426b565b898411156116475760405162461bcd60e51b815260040161069c9061426b565b8b8110156116895760405162461bcd60e51b815260206004820152600f60248201526e0494e56414c49445f4d494e545f4c5608c1b604482015260640161069c565b600660009054906101000a90046001600160a01b03166001600160a01b03166323b872dd33308e6040518463ffffffff1660e01b81526004016116ce93929190614369565b6020604051808303816000875af11580156116ed573d6000803e3d6000fd5b505050506040513d601f19601f8201168201806040525081019061171191906141f4565b506007546040516323b872dd60e01b81526001600160a01b03909116906323b872dd9061174690339030908990600401614369565b6020604051808303816000875af1158015611765573d6000803e3d6000fd5b505050506040513d601f19601f8201168201806040525081019061178991906141f4565b50600654600e5460405163a9059cbb60e01b81526001600160a01b039283169263a9059cbb926117c092911690879060040161438d565b6020604051808303816000875af11580156117df573d6000803e3d6000fd5b505050506040513d601f19601f8201168201806040525081019061180391906141f4565b50600754600e5460405163a9059cbb60e01b81526001600160a01b039283169263a9059cbb9261183a92911690869060040161438d565b6020604051808303816000875af1158015611859573d6000803e3d6000fd5b505050506040513d601f19601f8201168201806040525081019061187d91906141f4565b506118883382613f46565b6006546040516370a0823160e01b81523060048201527f28e12afd967cc11b786f1b1547f5e0da96ccc91ebb09bdd406248111a634e7e591339184918f9189916001600160a01b0316906370a0823190602401602060405180830381865afa1580156118f8573d6000803e3d6000fd5b505050506040513d601f19601f8201168201806040525081019061191c9190614298565b6007546040516370a0823160e01b81523060048201526001600160a01b03909116906370a0823190602401602060405180830381865afa158015611964573d6000803e3d6000fd5b505050506040513d601f19601f820116820180604052508101906119889190614298565b60405161199a969594939291906143a6565b60405180910390a196506119b095505050505050565b949350505050565b600080806119c46138c7565b600c5491935091506000906119e390620186a090610878908890613a48565b905060006119f18683613a67565b90506000610c748286866130f1565b6000806000611a0e60025490565b905060008082600003611a25575084905080611a89565b600080611a306138c7565b9092509050611a4a826115a58361087861159e828e613e10565b92506000611a696103e8610878600d5487613a4890919063ffffffff16565b9050611a8383610878611a7c8785613a67565b8990613a48565b94505050505b909590945092505050565b6000806000611aa260025490565b905080841115611ab0578093505b600080611abb6138c7565b90925090506000611ad0846108788986613a48565b90506000611ae2856108788a86613a48565b90506000611b016103e8610878600d5486613a4890919063ffffffff16565b90506000611b206103e8610878600d5486613a4890919063ffffffff16565b9050611b2c8483613a67565b9350611b388382613a67565b939a93995092975050505050505050565b611b51613b98565b611b5b6000614005565b565b333214611bf157600954604051636c9b2a3f60e11b81523360048201526001600160a01b039091169063d936547e90602401602060405180830381865afa158015611bac573d6000803e3d6000fd5b505050506040513d601f19601f82011682018060405250810190611bd091906141f4565b1515600114611bf15760405162461bcd60e51b815260040161069c90614216565b42811015611c115760405162461bcd60e51b815260040161069c90614241565b60008311611c5b5760405162461bcd60e51b81526020600482015260176024820152761253959053125117d3505617d513d2d15397d253941555604a1b604482015260640161069c565b60008211611ca15760405162461bcd60e51b81526020600482015260136024820152721253959053125117d09054d157d3d555141555606a1b604482015260640161069c565b6006546040516370a0823160e01b81523060048201526001600160a01b03909116906370a0823190602401602060405180830381865afa158015611ce9573d6000803e3d6000fd5b505050506040513d601f19601f82011682018060405250810190611d0d9190614298565b8210611d2b5760405162461bcd60e51b815260040161069c90614321565b600080611d366138c7565b9092509050818410611d5a5760405162461bcd60e51b815260040161069c906142dd565b6000611d678584846127ff565b90506000611d87620186a0610878600c5485613a4890919063ffffffff16565b9050611d938282613e10565b915086821115611db55760405162461bcd60e51b815260040161069c906142b1565b60008211611dd55760405162461bcd60e51b815260040161069c9061426b565b6007546040516370a0823160e01b81523360048201526001600160a01b03909116906370a0823190602401602060405180830381865afa158015611e1d573d6000803e3d6000fd5b505050506040513d601f19601f82011682018060405250810190611e419190614298565b821115611e905760405162461bcd60e51b815260206004820152601f60248201527f544f4b454e5f494e5055545f4849474845525f555345525f42414c414e434500604482015260640161069c565b6007546040516323b872dd60e01b81526001600160a01b03909116906323b872dd90611ec490339030908790600401614369565b6020604051808303816000875af1158015611ee3573d6000803e3d6000fd5b505050506040513d601f19601f82011682018060405250810190611f0791906141f4565b5060065460405163a9059cbb60e01b81526001600160a01b039091169063a9059cbb90611f3a9033908a9060040161438d565b6020604051808303816000875af1158015611f59573d6000803e3d6000fd5b505050506040513d601f19601f82011682018060405250810190611f7d91906141f4565b5060075460085460405163a9059cbb60e01b81526001600160a01b039283169263a9059cbb92611fb492911690859060040161438d565b6020604051808303816000875af1158015611fd3573d6000803e3d6000fd5b505050506040513d601f19601f82011682018060405250810190611ff791906141f4565b50600854600754604051632054895360e21b81526001600160a01b039182166004820152336024820152911690638152254c90604401600060405180830381600087803b15801561204757600080fd5b505af115801561205b573d6000803e3d6000fd5b505050507ff116a588cdba1b14c04ffd8bca7fee39286e7c8d9da59d77c036430e4b415dbc338884898888604051612098969594939291906143a6565b60405180910390a150505050505050565b60008033321461214057600954604051636c9b2a3f60e11b81523360048201526001600160a01b039091169063d936547e90602401602060405180830381865afa1580156120fb573d6000803e3d6000fd5b505050506040513d601f19601f8201168201806040525081019061211f91906141f4565b15156001146121405760405162461bcd60e51b815260040161069c90614216565b428310156121605760405162461bcd60e51b815260040161069c90614241565b600086116121a45760405162461bcd60e51b81526020600482015260116024820152700494e56414c49445f414d4f554e545f4c5607c1b604482015260640161069c565b600085116121ee5760405162461bcd60e51b81526020600482015260176024820152761253959053125117d3525397d09054d157d3d555141555604a1b604482015260640161069c565b600084116122395760405162461bcd60e51b81526020600482015260186024820152771253959053125117d3525397d513d2d15397d3d55514155560421b604482015260640161069c565b600061224460025490565b3360009081526020819052604090205490915080881115612263578097505b818811156122b35760405162461bcd60e51b815260206004820152601e60248201527f494e56414c49445f414d4f554e545f4c505f544f54414c5f535550504c590000604482015260640161069c565b6000806122be6138c7565b909250905060006122d3856108788d86613a48565b905060006122e5866108788e86613a48565b905060006123046103e8610878600d5486613a4890919063ffffffff16565b905060006123236103e8610878600d5486613a4890919063ffffffff16565b905061232f8483613a67565b935061233b8382613a67565b92508c8410156123835760405162461bcd60e51b81526020600482015260136024820152721253959053125117d09054d157d3d555141555606a1b604482015260640161069c565b8b8310156123ca5760405162461bcd60e51b81526020600482015260146024820152731253959053125117d513d2d15397d3d55514155560621b604482015260640161069c565b8584111561241a5760405162461bcd60e51b815260206004820152601f60248201527f424153455f4f55545055545f4849474845525f424153455f42414c414e434500604482015260640161069c565b848311156124745760405162461bcd60e51b815260206004820152602160248201527f544f4b454e5f4f55545055545f4849474845525f544f4b454e5f42414c414e436044820152604560f81b606482015260840161069c565b61247e338f613e1c565b60065460405163a9059cbb60e01b81526001600160a01b039091169063a9059cbb906124b0903390889060040161438d565b6020604051808303816000875af11580156124cf573d6000803e3d6000fd5b505050506040513d601f19601f820116820180604052508101906124f391906141f4565b5060075460405163a9059cbb60e01b81526001600160a01b039091169063a9059cbb90612526903390879060040161438d565b6020604051808303816000875af1158015612545573d6000803e3d6000fd5b505050506040513d601f19601f8201168201806040525081019061256991906141f4565b50600654600e5460405163a9059cbb60e01b81526001600160a01b039283169263a9059cbb926125a092911690869060040161438d565b6020604051808303816000875af11580156125bf573d6000803e3d6000fd5b505050506040513d601f19601f820116820180604052508101906125e391906141f4565b50600754600e5460405163a9059cbb60e01b81526001600160a01b039283169263a9059cbb9261261a92911690859060040161438d565b6020604051808303816000875af1158015612639573d6000803e3d6000fd5b505050506040513d601f19601f8201168201806040525081019061265d91906141f4565b507f555901717744791e9e27303c0df147d5a5eea5b7098591b2c5f2138ed6a605de338f8686600660009054906101000a90046001600160a01b03166001600160a01b03166370a08231306040518263ffffffff1660e01b81526004016126d391906001600160a01b0391909116815260200190565b602060405180830381865afa1580156126f0573d6000803e3d6000fd5b505050506040513d601f19601f820116820180604052508101906127149190614298565b6007546040516370a0823160e01b81523060048201526001600160a01b03909116906370a0823190602401602060405180830381865afa15801561275c573d6000803e3d6000fd5b505050506040513d601f19601f820116820180604052508101906127809190614298565b604051612792969594939291906143a6565b60405180910390a150919c909b509950505050505050505050565b6127b8823383613bf2565b6127c28282613e1c565b5050565b6127ce613b98565b600e80546001600160a01b0319166001600160a01b0392909216919091179055565b606060048054610b8f906143d9565b600080831180156128105750600082115b61282c5760405162461bcd60e51b815260040161069c90614527565b60006128388385613a48565b905060006128468587613a67565b90506000610c74856115a58585613a5b565b600033816128668286613150565b9050838110156128c65760405162461bcd60e51b815260206004820152602560248201527f45524332303a2064656372656173656420616c6c6f77616e63652062656c6f77604482015264207a65726f60d81b606482015260840161069c565b610e6b8286868403613a73565b600033610c20818585613c6c565b6128e9613b98565b600a5460405163109cc30b60e21b81526001600160a01b03909116906342730c2c906129199030906004016146a9565b602060405180830381865afa158015612936573d6000803e3d6000fd5b505050506040513d601f19601f8201168201806040525081019061295a91906141f4565b6129765760405162461bcd60e51b815260040161069c90614454565b600a54604051636bfb078d60e01b81526000916001600160a01b031690636bfb078d906129a79030906004016146cc565b602060405180830381865afa1580156129c4573d6000803e3d6000fd5b505050506040513d601f19601f820116820180604052508101906129e8919061471f565b90506001600160a01b038116612a325760405162461bcd60e51b815260206004820152600f60248201526e494e56414c49445f4144445245535360881b604482015260640161069c565b600980546001600160a01b0319166001600160a01b0383811691909117909155600a54604051636e977f0b60e01b8152911690636e977f0b90612a7a9060019060040161473c565b600060405180830381600087803b158015612a9457600080fd5b505af1158015612aa8573d6000803e3d6000fd5b5050600a546040516345503fcb60e11b81526001600160a01b039091169250638aa07f969150610e1d9060040161477e565b60008083118015612aeb5750600082115b612b075760405162461bcd60e51b815260040161069c90614527565b6000612b138385613a48565b90506000612b218487613a67565b90506000610c74866115a58585613a5b565b6000806000612b4160025490565b905060008082600003612b58575084905080611a89565b600080612b636138c7565b9092509050612b84816115a584610878612b7d828e613e10565b8690613a48565b92506000612ba36103e8610878600d548c613a4890919063ffffffff16565b9050611a8383610878611a7c8c85613a67565b333214612c4a57600954604051636c9b2a3f60e11b81523360048201526001600160a01b039091169063d936547e90602401602060405180830381865afa158015612c05573d6000803e3d6000fd5b505050506040513d601f19601f82011682018060405250810190612c2991906141f4565b1515600114612c4a5760405162461bcd60e51b815260040161069c90614216565b42811015612c6a5760405162461bcd60e51b815260040161069c90614241565b60008311612cb35760405162461bcd60e51b81526020600482015260166024820152751253959053125117d3505617d09054d157d25394155560521b604482015260640161069c565b60008211612cfa5760405162461bcd60e51b81526020600482015260146024820152731253959053125117d513d2d15397d3d55514155560621b604482015260640161069c565b6007546040516370a0823160e01b81523060048201526001600160a01b03909116906370a0823190602401602060405180830381865afa158015612d42573d6000803e3d6000fd5b505050506040513d601f19601f82011682018060405250810190612d669190614298565b8210612d845760405162461bcd60e51b815260040161069c90614790565b600080612d8f6138c7565b9092509050808410612db35760405162461bcd60e51b815260040161069c906147d9565b6000612dc0858484612ada565b90506000612de0620186a0610878600c5485613a4890919063ffffffff16565b9050612dec8282613e10565b915086821115612e0e5760405162461bcd60e51b815260040161069c906142b1565b60008211612e2e5760405162461bcd60e51b815260040161069c90614656565b6006546040516370a0823160e01b81523360048201526001600160a01b03909116906370a0823190602401602060405180830381865afa158015612e76573d6000803e3d6000fd5b505050506040513d601f19601f82011682018060405250810190612e9a9190614298565b821115612ee95760405162461bcd60e51b815260206004820152601e60248201527f424153455f494e5055545f4849474845525f555345525f42414c414e43450000604482015260640161069c565b6006546040516323b872dd60e01b81526001600160a01b03909116906323b872dd90612f1d90339030908790600401614369565b6020604051808303816000875af1158015612f3c573d6000803e3d6000fd5b505050506040513d601f19601f82011682018060405250810190612f6091906141f4565b5060075460405163a9059cbb60e01b81526001600160a01b039091169063a9059cbb90612f939033908a9060040161438d565b6020604051808303816000875af1158015612fb2573d6000803e3d6000fd5b505050506040513d601f19601f82011682018060405250810190612fd691906141f4565b5060065460085460405163a9059cbb60e01b81526001600160a01b039283169263a9059cbb9261300d92911690859060040161438d565b6020604051808303816000875af115801561302c573d6000803e3d6000fd5b505050506040513d601f19601f8201168201806040525081019061305091906141f4565b50600854600654604051632054895360e21b81526001600160a01b039182166004820152336024820152911690638152254c90604401600060405180830381600087803b1580156130a057600080fd5b505af11580156130b4573d6000803e3d6000fd5b505050507f6e9d5a0202c67970b52b10deb68f1641a9408d90db857bc984d008c1be70383a338884898888604051612098969594939291906143a6565b600080831180156131025750600082115b61311e5760405162461bcd60e51b815260040161069c90614527565b600061312a8385613a48565b905060006131388487613e10565b90506000610c746131498484613a5b565b8790613a67565b6001600160a01b03918216600090815260016020908152604080832093909416825291909152205490565b33321461320f57600954604051636c9b2a3f60e11b81523360048201526001600160a01b039091169063d936547e90602401602060405180830381865afa1580156131ca573d6000803e3d6000fd5b505050506040513d601f19601f820116820180604052508101906131ee91906141f4565b151560011461320f5760405162461bcd60e51b815260040161069c90614216565b4281101561322f5760405162461bcd60e51b815260040161069c90614241565b6000831161324f5760405162461bcd60e51b815260040161069c90614656565b6000821161329a5760405162461bcd60e51b81526020600482015260186024820152771253959053125117d3525397d513d2d15397d3d55514155560421b604482015260640161069c565b6006546040516370a0823160e01b81523360048201526001600160a01b03909116906370a0823190602401602060405180830381865afa1580156132e2573d6000803e3d6000fd5b505050506040513d601f19601f820116820180604052508101906133069190614298565b8311156133555760405162461bcd60e51b815260206004820152601e60248201527f424153455f494e5055545f4849474845525f555345525f42414c414e43450000604482015260640161069c565b6000806133606138c7565b90925090508084106133c05760405162461bcd60e51b815260206004820152602360248201527f4d494e5f544f4b454e5f4849474845525f504f4f4c5f544f4b454e5f42414c416044820152624e434560e81b606482015260840161069c565b60006133de620186a0610878600c5489613a4890919063ffffffff16565b905060006133ec8783613a67565b905060006133fb828686610e76565b90508681101561341d5760405162461bcd60e51b815260040161069c906142b1565b83811061343c5760405162461bcd60e51b815260040161069c906147d9565b6007546040516370a0823160e01b81523060048201526001600160a01b03909116906370a0823190602401602060405180830381865afa158015613484573d6000803e3d6000fd5b505050506040513d601f19601f820116820180604052508101906134a89190614298565b81106134c65760405162461bcd60e51b815260040161069c90614790565b6006546040516323b872dd60e01b81526001600160a01b03909116906323b872dd906134fa90339030908d90600401614369565b6020604051808303816000875af1158015613519573d6000803e3d6000fd5b505050506040513d601f19601f8201168201806040525081019061353d91906141f4565b5060075460405163a9059cbb60e01b81526001600160a01b039091169063a9059cbb90613570903390859060040161438d565b6020604051808303816000875af115801561358f573d6000803e3d6000fd5b505050506040513d601f19601f820116820180604052508101906135b391906141f4565b5060065460085460405163a9059cbb60e01b81526001600160a01b039283169263a9059cbb926135ea92911690879060040161438d565b6020604051808303816000875af1158015613609573d6000803e3d6000fd5b505050506040513d601f19601f8201168201806040525081019061362d91906141f4565b50600854600654604051632054895360e21b81526001600160a01b039182166004820152336024820152911690638152254c90604401600060405180830381600087803b15801561367d57600080fd5b505af1158015613691573d6000803e3d6000fd5b505050507fd294be030e23d0862312f418541ec01d571908715169f1cb1109bba3212b8c2d33888a848989604051610b6e969594939291906143a6565b6136d6613b98565b600a5460405163109cc30b60e21b81526001600160a01b03909116906342730c2c90613706903090600401614847565b602060405180830381865afa158015613723573d6000803e3d6000fd5b505050506040513d601f19601f8201168201806040525081019061374791906141f4565b6137635760405162461bcd60e51b815260040161069c90614454565b600a54604051636bfb078d60e01b81526000916001600160a01b031690636bfb078d9061379490309060040161486a565b602060405180830381865afa1580156137b1573d6000803e3d6000fd5b505050506040513d601f19601f820116820180604052508101906137d5919061471f565b90506001600160a01b03811661381f5760405162461bcd60e51b815260206004820152600f60248201526e494e56414c49445f4144445245535360881b604482015260640161069c565b600880546001600160a01b0319166001600160a01b0383811691909117909155600a54604051636e977f0b60e01b8152911690636e977f0b90613867906001906004016148be565b600060405180830381600087803b15801561388157600080fd5b505af1158015613895573d6000803e3d6000fd5b5050600a546040516345503fcb60e11b81526001600160a01b039091169250638aa07f969150610e1d90600401614901565b6006546040516370a0823160e01b8152306004820152600091829182916001600160a01b0316906370a0823190602401602060405180830381865afa158015613914573d6000803e3d6000fd5b505050506040513d601f19601f820116820180604052508101906139389190614298565b6007546040516370a0823160e01b81523060048201529192506000916001600160a01b03909116906370a0823190602401602060405180830381865afa158015613986573d6000803e3d6000fd5b505050506040513d601f19601f820116820180604052508101906139aa9190614298565b919491935090915050565b600080806139c16138c7565b909250905060006119b08284613a48565b6139da613b98565b6001600160a01b038116613a3f5760405162461bcd60e51b815260206004820152602660248201527f4f776e61626c653a206e6577206f776e657220697320746865207a65726f206160448201526564647265737360d01b606482015260840161069c565b610f0181614005565b6000613a548284614913565b9392505050565b6000613a54828461492a565b6000613a54828461494c565b6001600160a01b038316613ad55760405162461bcd60e51b8152602060048201526024808201527f45524332303a20617070726f76652066726f6d20746865207a65726f206164646044820152637265737360e01b606482015260840161069c565b6001600160a01b038216613b365760405162461bcd60e51b815260206004820152602260248201527f45524332303a20617070726f766520746f20746865207a65726f206164647265604482015261737360f01b606482015260840161069c565b6001600160a01b0383811660008181526001602090815260408083209487168084529482529182902085905590518481527f8c5be1e5ebec7d5bd14f71427d1e84f3dd0314c0f7b2291e5b200ac8c7c3b92591015b60405180910390a3505050565b6005546001600160a01b03163314611b5b5760405162461bcd60e51b815260206004820181905260248201527f4f776e61626c653a2063616c6c6572206973206e6f7420746865206f776e6572604482015260640161069c565b6000613bfe8484613150565b90506000198114613c665781811015613c595760405162461bcd60e51b815260206004820152601d60248201527f45524332303a20696e73756666696369656e7420616c6c6f77616e6365000000604482015260640161069c565b613c668484848403613a73565b50505050565b6001600160a01b038316613cd05760405162461bcd60e51b815260206004820152602560248201527f45524332303a207472616e736665722066726f6d20746865207a65726f206164604482015264647265737360d81b606482015260840161069c565b6001600160a01b038216613d325760405162461bcd60e51b815260206004820152602360248201527f45524332303a207472616e7366657220746f20746865207a65726f206164647260448201526265737360e81b606482015260840161069c565b6001600160a01b03831660009081526020819052604090205481811015613daa5760405162461bcd60e51b815260206004820152602660248201527f45524332303a207472616e7366657220616d6f756e7420657863656564732062604482015265616c616e636560d01b606482015260840161069c565b6001600160a01b03848116600081815260208181526040808320878703905593871680835291849020805487019055925185815290927fddf252ad1be2c89b69c2b068fc378daa952ba7f163c4a11628f55a4df523b3ef910160405180910390a3613c66565b6000613a548284614564565b6001600160a01b038216613e7c5760405162461bcd60e51b815260206004820152602160248201527f45524332303a206275726e2066726f6d20746865207a65726f206164647265736044820152607360f81b606482015260840161069c565b6001600160a01b03821660009081526020819052604090205481811015613ef05760405162461bcd60e51b815260206004820152602260248201527f45524332303a206275726e20616d6f756e7420657863656564732062616c616e604482015261636560f01b606482015260840161069c565b6001600160a01b0383166000818152602081815260408083208686039055600280548790039055518581529192917fddf252ad1be2c89b69c2b068fc378daa952ba7f163c4a11628f55a4df523b3ef9101613b8b565b6001600160a01b038216613f9c5760405162461bcd60e51b815260206004820152601f60248201527f45524332303a206d696e7420746f20746865207a65726f206164647265737300604482015260640161069c565b8060026000828254613fae9190614564565b90915550506001600160a01b038216600081815260208181526040808320805486019055518481527fddf252ad1be2c89b69c2b068fc378daa952ba7f163c4a11628f55a4df523b3ef910160405180910390a35050565b600580546001600160a01b038381166001600160a01b0319831681179093556040519116919082907f8be0079c531659141344cd1fd0a4f28419497f9722a3daafe3b4186f6b6457e090600090a35050565b60008060006060848603121561406c57600080fd5b505081359360208301359350604090920135919050565b600060208083528351808285015260005b818110156140b057858101830151858201604001528201614094565b506000604082860101526040601f19601f8301168501019250505092915050565b6001600160a01b0381168114610f0157600080fd5b600080604083850312156140f957600080fd5b8235614104816140d1565b946020939093013593505050565b60006020828403121561412457600080fd5b5035919050565b60008060006060848603121561414057600080fd5b833561414b816140d1565b9250602084013561415b816140d1565b929592945050506040919091013590565b6000806000806080858703121561418257600080fd5b5050823594602084013594506040840135936060013592509050565b6000602082840312156141b057600080fd5b8135613a54816140d1565b600080604083850312156141ce57600080fd5b82356141d9816140d1565b915060208301356141e9816140d1565b809150509250929050565b60006020828403121561420657600080fd5b81518015158114613a5457600080fd5b6020808252601190820152701253959053125117d5d2125511531254d5607a1b604082015260600190565b60208082526010908201526f494e56414c49445f444541444c494e4560801b604082015260600190565b6020808252601390820152721253959053125117d513d2d15397d253941555606a1b604082015260600190565b6000602082840312156142aa57600080fd5b5051919050565b60208082526012908201527143414e5f4e4f545f4d414b455f545241444560701b604082015260600190565b60208082526024908201527f424153455f4f55545055545f4849474845525f504f4f4c5f424153455f42414c604082015263414e434560e01b606082015260800190565b60208082526028908201527f424153455f4f55545055545f4849474845525f43555252454e545f54524144456040820152675f42414c414e434560c01b606082015260800190565b6001600160a01b039384168152919092166020820152604081019190915260600190565b6001600160a01b03929092168252602082015260400190565b6001600160a01b03969096168652602086019490945260408501929092526060840152608083015260a082015260c00190565b600181811c908216806143ed57607f821691505b60208210810361440d57634e487b7160e01b600052602260045260246000fd5b50919050565b600b81526a736574547261646546656560a81b602082015260400190565b6001600160a01b0382168152604060208201819052600090613a54908301614413565b60208082526012908201527124a72b20a624a22fa822a926a4a9a9a4a7a760711b604082015260600190565b6001600160a01b03821681526060602082018190526000906144a3908301614413565b82810360408401526119b0816008815267747261646546656560c01b602082015260400190565b6060815260006144dc60608301614413565b8281036020840152614503816008815267747261646546656560c01b602082015260400190565b91505060ff8316604083015292915050565b602081526000610c2660208301614413565b6020808252600d908201526c494e56414c49445f56414c554560981b604082015260600190565b634e487b7160e01b600052601160045260246000fd5b80820180821115610c2657610c2661454e565b600e81526d736574506c6174666f726d46656560901b602082015260400190565b6001600160a01b0382168152604060208201819052600090613a54908301614577565b6001600160a01b03821681526060602082018190526000906145de908301614577565b82810360408401526119b081600b81526a706c6174666f726d46656560a81b602082015260400190565b60608152600061461a60608301614577565b828103602084015261450381600b81526a706c6174666f726d46656560a81b602082015260400190565b602081526000610c2660208301614577565b6020808252601290820152711253959053125117d09054d157d25394155560721b604082015260600190565b60148152731cd95d15da1a5d195b1a5cdd10dbdb9d1c9858dd60621b602082015260400190565b6001600160a01b0382168152604060208201819052600090613a54908301614682565b6001600160a01b03821681526060602082018190526000906146ef908301614682565b82810360408401526119b08160118152701dda1a5d195b1a5cdd10dbdb9d1c9858dd607a1b602082015260400190565b60006020828403121561473157600080fd5b8151613a54816140d1565b60608152600061474e60608301614682565b82810360208401526145038160118152701dda1a5d195b1a5cdd10dbdb9d1c9858dd607a1b602082015260400190565b602081526000610c2660208301614682565b60208082526029908201527f544f4b454e5f4f55545055545f4849474845525f43555252454e545f54524144604082015268455f42414c414e434560b81b606082015260800190565b60208082526026908201527f544f4b454e5f4f55545055545f4849474845525f504f4f4c5f544f4b454e5f42604082015265414c414e434560d01b606082015260800190565b60158152741cd95d119959535858da1a5b9950dbdb9d1c9858dd605a1b602082015260400190565b6001600160a01b0382168152604060208201819052600090613a5490830161481f565b6001600160a01b038216815260606020820181905260009061488d90830161481f565b82810360408401526119b0816012815271199959535858da1a5b9950dbdb9d1c9858dd60721b602082015260400190565b6060815260006148d06060830161481f565b8281036020840152614503816012815271199959535858da1a5b9950dbdb9d1c9858dd60721b602082015260400190565b602081526000610c266020830161481f565b8082028115828204841417610c2657610c2661454e565b60008261494757634e487b7160e01b600052601260045260246000fd5b500490565b81810381811115610c2657610c2661454e56fea2646970667358221220557061e526082f3f7fbee54930178289579416668cb5e3baa50f611d8f77397464736f6c63430008110033",
  "immutableReferences": {},
  "source": "// SPDX-License-Identifier: MIT\r\npragma solidity >=0.6.12;\r\n\r\nimport \"@openzeppelin/contracts/utils/math/SafeMath.sol\";\r\nimport \"@openzeppelin/contracts/token/ERC20/IERC20.sol\";\r\nimport \"@openzeppelin/contracts/token/ERC20/ERC20.sol\";\r\nimport \"@openzeppelin/contracts/token/ERC20/extensions/ERC20Burnable.sol\";\r\nimport \"@openzeppelin/contracts/utils/Context.sol\";\r\nimport \"@openzeppelin/contracts/access/Ownable.sol\";\r\n\r\nimport './interfaces/IGarbiswapFeeMachine.sol';\r\nimport './interfaces/IGarbiswapWhitelist.sol';\r\nimport './interfaces/IGarbiTimeLock.sol';\r\nimport './interfaces/IGarbiOracle.sol';\r\n\r\ncontract GarbiswapTradeGRBWETH is ERC20Burnable, Ownable {\r\n    \r\n    using SafeMath for uint256;\r\n\r\n    IERC20 public base; // Stable coin base token (USDC)\r\n    IERC20 public token; // Token to trade in this pair\r\n\r\n    // Fee Machine Contract.\r\n    IGarbiswapFeeMachine public feeMachineContract; \r\n\r\n    IGarbiswapWhitelist public whitelistContract; \r\n\r\n    IGarbiTimeLock public garbiTimeLockContract;\r\n\r\n    IGarbiOracle public garbiOracle;\r\n\r\n    uint256 public TRADE_FEE = 35; //0.035% 35/100000\r\n\r\n    uint256 public PLATFORM_FEE = 25; //2.5% 25/1000\r\n\r\n    address public platformFundAddress;\r\n\r\n    modifier onlyWhitelist()\r\n    {\r\n        if (msg.sender != tx.origin) {\r\n            require(whitelistContract.whitelisted(msg.sender) == true, 'INVALID_WHITELIST');\r\n        }\r\n        _;\r\n    }\r\n\r\n    // Events\r\n\r\n    event onSwapBaseToTokenWithBaseInput(address sender, uint256 minTokenOutput, uint256 baseInputAmount, uint256 tokenOutputAmount, uint256 poolBaseBalance, uint256 poolTokenBalance);\r\n    event onSwapBaseToTokenWithTokenOutput(address sender, uint256 maxBaseInput, uint256 baseInputAmount, uint256 tokenOutputAmount, uint256 poolBaseBalance, uint256 poolTokenBalance);\r\n    \r\n    event onSwapTokenToBaseWithTokenInput(address sender, uint256 minBaseOutput, uint256 tokenInputAmount, uint256 baseOutputAmount, uint256 poolBaseBalance, uint256 poolTokenBalance);\r\n    event onSwapTokenToBaseWithBaseOutput(address sender, uint256 maxTokenInput, uint256 tokenInputAmount, uint256 baseOutputAmount, uint256 poolBaseBalance, uint256 poolTokenBalance);\r\n\r\n    event onAddLP(address sender, uint256 mintLP, uint256 baseInputAmount, uint256 tokenInputAmount, uint256 poolBaseBalance, uint256 poolTokenBalance);\r\n    event onRemoveLP(address sender, uint256 amountLP, uint256 baseOutputAmout, uint256 tokenOutputAmount, uint256 poolBaseBalance, uint256 poolTokenBalance);\r\n\r\n    constructor(\r\n        IERC20 _base,\r\n        IERC20 _token,\r\n        IGarbiTimeLock _garbiTimeLockContract,\r\n        IGarbiswapFeeMachine _feeMachineContract,\r\n        IGarbiswapWhitelist _whitelistContract,\r\n        IGarbiOracle _garbiOracle,\r\n        string memory name, \r\n        string memory symbol\r\n        ) ERC20(name, symbol) {\r\n        base = _base;\r\n        token = _token;\r\n        garbiTimeLockContract = _garbiTimeLockContract;\r\n        whitelistContract = _whitelistContract;\r\n        feeMachineContract = _feeMachineContract;\r\n        garbiOracle = _garbiOracle;\r\n        platformFundAddress = _msgSender();\r\n    }\r\n\r\n    function setWhitelistContract() public onlyOwner {\r\n        require(garbiTimeLockContract.isQueuedTransaction(address(this), 'setWhitelistContract'), \"INVALID_PERMISSION\");\r\n\r\n        address _whitelistContract = garbiTimeLockContract.getAddressChangeOnTimeLock(address(this), 'setWhitelistContract', 'whitelistContract');\r\n\r\n        require(_whitelistContract != address(0), \"INVALID_ADDRESS\");\r\n\r\n        whitelistContract = IGarbiswapWhitelist(_whitelistContract);\r\n\r\n        garbiTimeLockContract.clearFieldValue('setWhitelistContract', 'whitelistContract', 1);\r\n        garbiTimeLockContract.doneTransactions('setWhitelistContract');\r\n    }\r\n\r\n    function setFeeMachineContract() public onlyOwner {\r\n\r\n        require(garbiTimeLockContract.isQueuedTransaction(address(this), 'setFeeMachineContract'), \"INVALID_PERMISSION\");\r\n\r\n        address _feeMachineContract = garbiTimeLockContract.getAddressChangeOnTimeLock(address(this), 'setFeeMachineContract', 'feeMachineContract');\r\n\r\n        require(_feeMachineContract != address(0), \"INVALID_ADDRESS\");\r\n\r\n        feeMachineContract = IGarbiswapFeeMachine(_feeMachineContract);\r\n\r\n        garbiTimeLockContract.clearFieldValue('setFeeMachineContract', 'feeMachineContract', 1);\r\n        garbiTimeLockContract.doneTransactions('setFeeMachineContract');\r\n    }\r\n\r\n    function setTradeFee() public onlyOwner {\r\n\r\n        require(garbiTimeLockContract.isQueuedTransaction(address(this), 'setTradeFee'), \"INVALID_PERMISSION\");\r\n\r\n        uint256 _tradeFee = garbiTimeLockContract.getUintChangeOnTimeLock(address(this), 'setTradeFee', 'tradeFee');\r\n\r\n        TRADE_FEE = _tradeFee;\r\n\r\n        garbiTimeLockContract.clearFieldValue('setTradeFee', 'tradeFee', 2);\r\n        garbiTimeLockContract.doneTransactions('setTradeFee');\r\n    }\r\n\r\n    function setPlatformFee() public onlyOwner {\r\n\r\n        require(garbiTimeLockContract.isQueuedTransaction(address(this), 'setPlatformFee'), \"INVALID_PERMISSION\");\r\n\r\n        uint256 _platformFee = garbiTimeLockContract.getUintChangeOnTimeLock(address(this), 'setPlatformFee', 'platformFee');\r\n\r\n        PLATFORM_FEE = _platformFee;\r\n\r\n        garbiTimeLockContract.clearFieldValue('setPlatformFee', 'platformFee', 2);\r\n        garbiTimeLockContract.doneTransactions('setPlatformFee');\r\n    }\r\n\r\n    function setPlatformFundAdress(address newAddress) public onlyOwner {\r\n        platformFundAddress = newAddress;\r\n    }\r\n\r\n    function getK() public view returns(uint256) {\r\n        uint256 baseReserve = 0;\r\n        uint256 tokenReserve = 0;\r\n        (baseReserve, tokenReserve) = getTotalReserve();\r\n        uint256 k = tokenReserve.mul(baseReserve);\r\n        return k;\r\n    }\r\n\r\n    function getTokenOutput(uint256 baseInputAmount) public view returns (uint256) {\r\n        uint256 baseReserve = 0;\r\n        uint256 tokenReserve = 0;\r\n        (baseReserve, tokenReserve) = getTotalReserve();\r\n\r\n        uint256 tradeFee = baseInputAmount.mul(TRADE_FEE).div(100000);\r\n        uint256 baseInputAmountAfterFee = baseInputAmount.sub(tradeFee); // cut the TRADE_FEE from base input\r\n\r\n        uint256 tokenOutputAmount = getTokenOutputAmountFromBaseInput(baseInputAmountAfterFee, baseReserve, tokenReserve);\r\n        return tokenOutputAmount;\r\n    }\r\n\r\n    function getBaseOutput(uint256 tokenInputAmount) public view returns (uint256) {\r\n        uint256 baseReserve = 0;\r\n        uint256 tokenReserve = 0;\r\n        (baseReserve, tokenReserve) = getTotalReserve();\r\n\r\n        uint256 tradeFee = tokenInputAmount.mul(TRADE_FEE).div(100000);\r\n        uint256 tokenInputAmountAfterFee = tokenInputAmount.sub(tradeFee); // cut the TRADE_FEE from token input\r\n\r\n        uint256 baseOutputAmount = getBaseOutputAmountFromTokenInput(tokenInputAmountAfterFee, baseReserve, tokenReserve);\r\n        return baseOutputAmount;\r\n    }\r\n\r\n    function getDataFromBaseInputToAddLp(uint256 baseInputAmount) public view returns (uint256, uint256) {\r\n        uint256 totalSupply = totalSupply();\r\n        uint256 mintLP = 0;\r\n        uint256 tokenInputAmount = 0;\r\n        if(totalSupply == 0) {\r\n            mintLP = baseInputAmount;\r\n            tokenInputAmount = baseInputAmount;\r\n        }\r\n        else { \r\n            // tokenReserve/baseReserve = (tokenReserve+tokenInputAmount)/(baseReserve+baseInputAmount)\r\n            // => tokenReserve+tokenInputAmount = tokenReserve*(baseReserve+baseInputAmount)/baseReserve\r\n            // => tokenInputAmount = tokenReserve*(baseReserve+baseInputAmount)/baseReserve - tokenReserve;\r\n            uint256 baseReserve = 0;\r\n            uint256 tokenReserve = 0;\r\n            (baseReserve, tokenReserve) = getTotalReserve();\r\n            tokenInputAmount = tokenReserve.mul(baseReserve.add(baseInputAmount)).div(baseReserve).sub(tokenReserve);\r\n\r\n            uint256 platformFeeOnBase = baseInputAmount.mul(PLATFORM_FEE).div(1000);\r\n\r\n            // mintLP/totalLP =  baseInputAmount/baseReserve\r\n            // mintLP = totalLP*baseInputAmount/baseReserve\r\n            mintLP = totalSupply.mul(baseInputAmount.sub(platformFeeOnBase)).div(baseReserve);\r\n        }\r\n        return (mintLP, tokenInputAmount);\r\n    }\r\n\r\n    function getDataFromTokenInputToAddLp(uint256 tokenInputAmount) public view returns (uint256, uint256) {\r\n        uint256 totalSupply = totalSupply();\r\n        uint256 mintLP;\r\n        uint256 baseInputAmount;\r\n        if(totalSupply == 0) {\r\n            mintLP = tokenInputAmount;\r\n            baseInputAmount = tokenInputAmount;\r\n        }\r\n        else { \r\n            // tokenReserve/baseReserve = (tokenReserve+tokenInputAmount)/(baseReserve+baseInputAmount)\r\n            // => (baseReserve+baseInputAmount) = (tokenReserve+tokenInputAmount) * baseReserve / tokenReserve\r\n            //  => baseInputAmount = (tokenReserve+tokenInputAmount) * baseReserve / tokenReserve - baseReserve\r\n            uint256 baseReserve = 0;\r\n            uint256 tokenReserve = 0;\r\n            (baseReserve, tokenReserve) = getTotalReserve();\r\n\r\n            baseInputAmount = baseReserve.mul(tokenReserve.add(tokenInputAmount)).div(tokenReserve).sub(baseReserve);\r\n\r\n            uint256 platformFeeOnBase = baseInputAmount.mul(PLATFORM_FEE).div(1000);\r\n\r\n            // mintLP/totalLP =  baseInputAmount/baseReserve\r\n            // mintLP = totalLP*baseInputAmount/baseReserve\r\n            mintLP = totalSupply.mul(baseInputAmount.sub(platformFeeOnBase)).div(baseReserve);\r\n        }\r\n        return (mintLP, baseInputAmount);\r\n    }\r\n\r\n    function getDataToRemoveLP(uint256 amountLP) public view returns (uint256, uint256){\r\n        \r\n        uint256 totalSupply = totalSupply();\r\n\r\n        if (amountLP > totalSupply) {\r\n            amountLP = totalSupply;\r\n        } \r\n        uint256 baseReserve = 0;\r\n        uint256 tokenReserve = 0;\r\n        (baseReserve, tokenReserve) = getTotalReserve();\r\n        \r\n        // amountLP/totalSupply = baseOutputAmount/baseReserve\r\n        // => baseOutputAmount = amountLP*baseReserve/totalSupply\r\n        uint256 baseOutputAmount = amountLP.mul(baseReserve).div(totalSupply);\r\n        uint256 tokenOutputAmount = amountLP.mul(tokenReserve).div(totalSupply);\r\n        \r\n        uint256 platformFeeOnBase = baseOutputAmount.mul(PLATFORM_FEE).div(1000);\r\n        uint256 platformFeeOnToken = tokenOutputAmount.mul(PLATFORM_FEE).div(1000);\r\n        \r\n        baseOutputAmount = baseOutputAmount.sub(platformFeeOnBase);\r\n        tokenOutputAmount = tokenOutputAmount.sub(platformFeeOnToken);\r\n        \r\n        return (baseOutputAmount, tokenOutputAmount);\r\n    }\r\n    \r\n    // token*base=(token-tokenOutputAmount)*(base+baseInputAmount)\r\n    //token-tokenOutputAmount = token*base/(base+baseInputAmount)\r\n    // => tokenOutputAmount=token - token*base/(base+baseInputAmount)\r\n    function getTokenOutputAmountFromBaseInput(uint256 baseInputAmount, uint256 baseReserve, uint256 tokenReserve) public pure returns (uint256) {\r\n      require(baseReserve > 0 && tokenReserve > 0, \"INVALID_VALUE\");\r\n      uint256 numerator = tokenReserve.mul(baseReserve);\r\n      uint256 denominator = baseReserve.add(baseInputAmount);\r\n      uint256 tokenOutputAmount = tokenReserve.sub(numerator.div(denominator));\r\n      return tokenOutputAmount;\r\n    }\r\n    \r\n    // token*base=(token-tokenOutputAmount)*(base+baseInputAmount)\r\n    // base+baseInputAmount = token*base/(token-tokenOutputAmount)\r\n    //baseInputAmount = token*base/(token-tokenOutputAmount) - base;\r\n    function getBaseInputAmountFromTokenOutput(uint256 tokenOutputAmount, uint256 baseReserve, uint256 tokenReserve) public pure  returns (uint256) {\r\n      require(baseReserve > 0 && tokenReserve > 0, \"INVALID_VALUE\");\r\n      uint256 numerator = tokenReserve.mul(baseReserve);\r\n      uint256 denominator = tokenReserve.sub(tokenOutputAmount);\r\n      uint256 baseInputAmount = numerator.div(denominator).sub(baseReserve);\r\n      return baseInputAmount;\r\n    }\r\n    \r\n    // token*base=(token+tokenInputAmount)*(base-baseOutputAmount)\r\n    // => base - baseOutputAmount=token*base/(token+tokenInputAmount)\r\n    // => baseOutputAmount = base - token*base/(token+tokenInputAmount)\r\n    function getBaseOutputAmountFromTokenInput(uint256 tokenInputAmount, uint256 baseReserve, uint256 tokenReserve) public pure returns (uint256) {\r\n      require(baseReserve > 0 && tokenReserve > 0, \"INVALID_VALUE\");\r\n      uint256 numerator = tokenReserve.mul(baseReserve);\r\n      uint256 denominator = tokenReserve.add(tokenInputAmount);\r\n      uint256 baseOutputAmount = baseReserve.sub(numerator.div(denominator));\r\n      return baseOutputAmount;\r\n    }\r\n\r\n    // token*base=(token+tokenInputAmount)*(base-baseOutputAmount)\r\n    // => token+tokenInputAmount = token*base/(base-baseOutputAmount)\r\n    // => tokenInputAmount = token*base/(base-baseOutputAmount) - token\r\n    function getTokenInputAmountFromBaseOutput(uint256 baseOutputAmount, uint256 baseReserve, uint256 tokenReserve) public pure returns (uint256) {\r\n      require(baseReserve > 0 && tokenReserve > 0, \"INVALID_VALUE\");\r\n      uint256 numerator = tokenReserve.mul(baseReserve);\r\n      uint256 denominator = baseReserve.sub(baseOutputAmount);\r\n      uint256 tokenInputAmount = numerator.div(denominator).sub(tokenReserve);\r\n      return tokenInputAmount;\r\n    }\r\n\r\n    function swapBaseToTokenWithBaseInput(uint256 baseInputAmount, uint256 minTokenOutput, uint256 deadline) public onlyWhitelist {\r\n        require(deadline >= block.timestamp, 'INVALID_DEADLINE');\r\n        require(baseInputAmount > 0, 'INVALID_BASE_INPUT');\r\n        require(minTokenOutput > 0, 'INVALID_MIN_TOKEN_OUTPUT');\r\n        require(baseInputAmount <= base.balanceOf(msg.sender), 'BASE_INPUT_HIGHER_USER_BALANCE');\r\n        \r\n        uint256 baseReserve = 0;\r\n        uint256 tokenReserve = 0;\r\n        (baseReserve, tokenReserve) = getTotalReserve();\r\n        require(minTokenOutput < tokenReserve, \"MIN_TOKEN_HIGHER_POOL_TOKEN_BALANCE\");\r\n\r\n        uint256 tradeFee = baseInputAmount.mul(TRADE_FEE).div(100000);\r\n        uint256 baseInputAmountAfterFee = baseInputAmount.sub(tradeFee); // cut the TRADE_FEE from base input\r\n        \r\n        uint256 tokenOutputAmount = getTokenOutputAmountFromBaseInput(baseInputAmountAfterFee, baseReserve, tokenReserve);\r\n\r\n        require(tokenOutputAmount >= minTokenOutput, 'CAN_NOT_MAKE_TRADE');\r\n        require(tokenOutputAmount < tokenReserve, 'TOKEN_OUTPUT_HIGHER_POOL_TOKEN_BALANCE');\r\n        require(tokenOutputAmount < token.balanceOf(address(this)), 'TOKEN_OUTPUT_HIGHER_CURRENT_TRADE_BALANCE'); // output is higher than the trade contract balance\r\n        \r\n        //make trade\r\n        base.transferFrom(msg.sender, address(this), baseInputAmount);\r\n        token.transfer(msg.sender, tokenOutputAmount);\r\n\r\n        //transfer fee\r\n        base.transfer(address(feeMachineContract), tradeFee);\r\n        feeMachineContract.processTradeFee(base, msg.sender); \r\n\r\n        emit onSwapBaseToTokenWithBaseInput(msg.sender, minTokenOutput, baseInputAmount, tokenOutputAmount, baseReserve, tokenReserve);\r\n    }\r\n\r\n    function swapBaseToTokenWithTokenOutput(uint256 maxBaseInput, uint256 tokenOutputAmount, uint256 deadline) public onlyWhitelist {\r\n        require(deadline >= block.timestamp, 'INVALID_DEADLINE');\r\n        require(maxBaseInput > 0, 'INVALID_MAX_BASE_INPUT');\r\n        require(tokenOutputAmount > 0, 'INVALID_TOKEN_OUTPUT');\r\n        require(tokenOutputAmount < token.balanceOf(address(this)), 'TOKEN_OUTPUT_HIGHER_CURRENT_TRADE_BALANCE'); // output is higher than the trade contract balance\r\n        \r\n        uint256 baseReserve = 0;\r\n        uint256 tokenReserve = 0;\r\n        (baseReserve, tokenReserve) = getTotalReserve();\r\n        require(tokenOutputAmount < tokenReserve, \"TOKEN_OUTPUT_HIGHER_POOL_TOKEN_BALANCE\");\r\n\r\n        uint256 baseInputAmount = getBaseInputAmountFromTokenOutput(tokenOutputAmount, baseReserve, tokenReserve);\r\n        \r\n        uint256 tradeFee = baseInputAmount.mul(TRADE_FEE).div(100000);\r\n        baseInputAmount = baseInputAmount.add(tradeFee); // add the TRADE_FEE to base input\r\n\r\n        require(baseInputAmount <= maxBaseInput, 'CAN_NOT_MAKE_TRADE');\r\n        require(baseInputAmount > 0, 'INVALID_BASE_INPUT');\r\n        require(baseInputAmount <= base.balanceOf(msg.sender), 'BASE_INPUT_HIGHER_USER_BALANCE');\r\n        \r\n        //make trade\r\n        base.transferFrom(msg.sender, address(this), baseInputAmount);\r\n        token.transfer(msg.sender, tokenOutputAmount);\r\n\r\n        //transfer fee\r\n        base.transfer(address(feeMachineContract), tradeFee);\r\n        feeMachineContract.processTradeFee(base, msg.sender);\r\n\r\n        emit onSwapBaseToTokenWithTokenOutput(msg.sender, maxBaseInput, baseInputAmount, tokenOutputAmount, baseReserve, tokenReserve);\r\n    }\r\n\r\n    function swapTokenToBaseWithTokenInput(uint256 tokenInputAmount, uint256 minBaseOutput, uint256 deadline) public onlyWhitelist {\r\n        require(deadline >= block.timestamp, 'INVALID_DEADLINE');\r\n        require(minBaseOutput > 0, 'INVALID_MIN_BASE_OUTPUT');\r\n        require(tokenInputAmount > 0, 'INVALID_TOKEN_INPUT');\r\n        require(tokenInputAmount <= token.balanceOf(msg.sender), 'TOKEN_INPUT_HIGHER_USER_BALANCE');\r\n\r\n        uint256 baseReserve = 0;\r\n        uint256 tokenReserve = 0;\r\n        (baseReserve, tokenReserve) = getTotalReserve();\r\n        require(minBaseOutput < baseReserve, 'MIN_BASE_OUTPUT_HIGHER_POOL_BASE_BALANCE');\r\n\r\n        uint256 tradeFee = tokenInputAmount.mul(TRADE_FEE).div(100000);\r\n        uint256 tokenInputAmountAfterFee = tokenInputAmount.sub(tradeFee); // cut the TRADE_FEE from token input\r\n        \r\n        uint256 baseOutputAmount = getBaseOutputAmountFromTokenInput(tokenInputAmountAfterFee, baseReserve, tokenReserve);\r\n\r\n        require(baseOutputAmount >= minBaseOutput, 'CAN_NOT_MAKE_TRADE');\r\n        require(baseOutputAmount < baseReserve, 'BASE_OUTPUT_HIGHER_POOL_BASE_BALANCE');\r\n        require(baseOutputAmount < base.balanceOf(address(this)), 'BASE_OUTPUT_HIGHER_CURRENT_TRADE_BALANCE'); // output is higher than the trade contract balance\r\n\r\n        //make trade\r\n        token.transferFrom(msg.sender, address(this), tokenInputAmount);\r\n        base.transfer(msg.sender, baseOutputAmount);\r\n\r\n        //transfer fee\r\n        token.transfer(address(feeMachineContract), tradeFee);\r\n        feeMachineContract.processTradeFee(token, msg.sender);\r\n\r\n        emit onSwapTokenToBaseWithTokenInput(msg.sender, minBaseOutput, tokenInputAmount, baseOutputAmount, baseReserve, tokenReserve);\r\n    }\r\n\r\n    function swapTokenToBaseWithBaseOutput(uint256 maxTokenInput, uint256 baseOutputAmount, uint256 deadline) public onlyWhitelist {\r\n        require(deadline >= block.timestamp, 'INVALID_DEADLINE');\r\n        require(maxTokenInput > 0, 'INVALID_MAX_TOKEN_INPUT');\r\n        require(baseOutputAmount > 0, 'INVALID_BASE_OUTPUT');\r\n        require(baseOutputAmount < base.balanceOf(address(this)), 'BASE_OUTPUT_HIGHER_CURRENT_TRADE_BALANCE'); // output is higher than the trade contract balance\r\n\r\n        uint256 baseReserve = 0;\r\n        uint256 tokenReserve = 0;\r\n        (baseReserve, tokenReserve) = getTotalReserve();\r\n        require(baseOutputAmount < baseReserve, 'BASE_OUTPUT_HIGHER_POOL_BASE_BALANCE');\r\n\r\n        uint256 tokenInputAmount = getTokenInputAmountFromBaseOutput(baseOutputAmount, baseReserve, tokenReserve);\r\n        \r\n        uint256 tradeFee = tokenInputAmount.mul(TRADE_FEE).div(100000);\r\n        tokenInputAmount = tokenInputAmount.add(tradeFee); // add the TRADE_FEE to token input\r\n\r\n        require(tokenInputAmount <= maxTokenInput, 'CAN_NOT_MAKE_TRADE');\r\n        require(tokenInputAmount > 0, 'INVALID_TOKEN_INPUT');\r\n        require(tokenInputAmount <= token.balanceOf(msg.sender), 'TOKEN_INPUT_HIGHER_USER_BALANCE');\r\n\r\n        //make trade\r\n        token.transferFrom(msg.sender, address(this), tokenInputAmount);\r\n        base.transfer(msg.sender, baseOutputAmount);\r\n\r\n        //transfer fee\r\n        token.transfer(address(feeMachineContract), tradeFee);\r\n        feeMachineContract.processTradeFee(token, msg.sender);\r\n\r\n        emit onSwapTokenToBaseWithBaseOutput(msg.sender, maxTokenInput, tokenInputAmount, baseOutputAmount, baseReserve, tokenReserve);\r\n    }\r\n\r\n    function addLP(uint256 minLP, uint256 baseInputAmount, uint256 maxTokenInputAmount, uint256 deadline) public onlyWhitelist returns (uint256) {\r\n        require(deadline >= block.timestamp, 'INVALID_DEADLINE');\r\n        require(minLP > 0, 'INVALID_MIN_LP');\r\n        require(baseInputAmount > 0, 'INVALID_BASE_INPUT');\r\n        require(maxTokenInputAmount > 0, 'INVALID_MAX_TOKEN_INPUT');\r\n        \r\n        uint256 totalSupply = totalSupply();\r\n        if(totalSupply == 0) {\r\n            base.transferFrom(msg.sender, address(this), baseInputAmount);\r\n            token.transferFrom(msg.sender, address(this), maxTokenInputAmount);\r\n\r\n            uint256 platformFeeOnBase = baseInputAmount.mul(PLATFORM_FEE).div(1000);\r\n            uint256 platformFeeOnToken = maxTokenInputAmount.mul(PLATFORM_FEE).div(1000);\r\n            base.transfer(platformFundAddress, platformFeeOnBase);\r\n            token.transfer(platformFundAddress, platformFeeOnToken);\r\n            \r\n            uint256 initLP = baseInputAmount.sub(platformFeeOnBase);\r\n            _mint(msg.sender, initLP);\r\n            emit onAddLP(msg.sender, initLP, baseInputAmount, maxTokenInputAmount, base.balanceOf(address(this)), token.balanceOf(address(this)));\r\n            return initLP;\r\n        }\r\n        else { \r\n            // tokenReserve/baseReserve = (tokenReserve+tokenInputAmount)/(baseReserve+baseInputAmount)\r\n            // => tokenReserve+tokenInputAmount = tokenReserve*(baseReserve+baseInputAmount)/baseReserve\r\n            // => tokenInputAmount = tokenReserve*(baseReserve+baseInputAmount)/baseReserve - tokenReserve;\r\n            uint256 baseReserve = 0;\r\n            uint256 tokenReserve = 0;\r\n            (baseReserve, tokenReserve) = getTotalReserve();\r\n            uint256 tokenInputAmount = tokenReserve.mul(baseReserve.add(baseInputAmount)).div(baseReserve).sub(tokenReserve);\r\n\r\n            uint256 platformFeeOnBase = baseInputAmount.mul(PLATFORM_FEE).div(1000);\r\n            uint256 platformFeeOnToken = tokenInputAmount.mul(PLATFORM_FEE).div(1000);\r\n\r\n            // mintLP/totalLP =  baseInputAmount/baseReserve\r\n            // mintLP = totalLP*baseInputAmount/baseReserve\r\n            uint256 mintLP = totalSupply.mul(baseInputAmount.sub(platformFeeOnBase)).div(baseReserve);\r\n            \r\n            require(tokenInputAmount > 0, 'INVALID_TOKEN_INPUT');\r\n            require(tokenInputAmount <= maxTokenInputAmount, 'INVALID_TOKEN_INPUT');\r\n            require(mintLP >= minLP, \"INVALID_MINT_LP\");\r\n\r\n            base.transferFrom(msg.sender, address(this), baseInputAmount);\r\n            token.transferFrom(msg.sender, address(this), tokenInputAmount);\r\n\r\n            \r\n            base.transfer(platformFundAddress, platformFeeOnBase);\r\n            token.transfer(platformFundAddress, platformFeeOnToken);\r\n\r\n            _mint(msg.sender, mintLP);\r\n            emit onAddLP(msg.sender, mintLP, baseInputAmount, tokenInputAmount, base.balanceOf(address(this)), token.balanceOf(address(this)));\r\n            return mintLP;\r\n        }\r\n    }\r\n\r\n    function removeLP(uint256 amountLP, uint256 minBaseOutput, uint256 minTokenOutput, uint256 deadline) public onlyWhitelist returns (uint256, uint256){\r\n        require(deadline >= block.timestamp, 'INVALID_DEADLINE');\r\n        require(amountLP > 0, 'INVALID_AMOUNT_LP');\r\n        require(minBaseOutput > 0, 'INVALID_MIN_BASE_OUTPUT');\r\n        require(minTokenOutput > 0, 'INVALID_MIN_TOKEN_OUTPUT');\r\n        \r\n        uint256 totalSupply = totalSupply();\r\n        \r\n        uint256 userLPbalance = balanceOf(msg.sender);\r\n        if(amountLP > userLPbalance) {\r\n            amountLP = userLPbalance;\r\n        }\r\n\r\n        require(amountLP <= totalSupply, 'INVALID_AMOUNT_LP_TOTAL_SUPPLY');\r\n         \r\n        uint256 baseReserve = 0;\r\n        uint256 tokenReserve = 0;\r\n        (baseReserve, tokenReserve) = getTotalReserve();\r\n        \r\n        // amountLP/totalSupply = baseOutputAmount/baseReserve\r\n        // => baseOutputAmount = amountLP*baseReserve/totalSupply\r\n        uint256 baseOutputAmount = amountLP.mul(baseReserve).div(totalSupply);\r\n        uint256 tokenOutputAmount = amountLP.mul(tokenReserve).div(totalSupply);\r\n\r\n        uint256 platformFeeOnBase = baseOutputAmount.mul(PLATFORM_FEE).div(1000);\r\n        uint256 platformFeeOnToken = tokenOutputAmount.mul(PLATFORM_FEE).div(1000);\r\n        \r\n        baseOutputAmount = baseOutputAmount.sub(platformFeeOnBase);\r\n        tokenOutputAmount = tokenOutputAmount.sub(platformFeeOnToken);\r\n\r\n        require(baseOutputAmount >= minBaseOutput, \"INVALID_BASE_OUTPUT\");\r\n        require(tokenOutputAmount >= minTokenOutput, \"INVALID_TOKEN_OUTPUT\");\r\n        require(baseOutputAmount <= baseReserve, \"BASE_OUTPUT_HIGHER_BASE_BALANCE\");\r\n        require(tokenOutputAmount <= tokenReserve, \"TOKEN_OUTPUT_HIGHER_TOKEN_BALANCE\");\r\n\r\n        _burn(msg.sender, amountLP);\r\n        base.transfer(msg.sender, baseOutputAmount);\r\n        token.transfer(msg.sender, tokenOutputAmount);\r\n\r\n        base.transfer(platformFundAddress, platformFeeOnBase);\r\n        token.transfer(platformFundAddress, platformFeeOnToken);\r\n\r\n        emit onRemoveLP(msg.sender, amountLP, baseOutputAmount, tokenOutputAmount, base.balanceOf(address(this)), token.balanceOf(address(this)));\r\n        return (baseOutputAmount, tokenOutputAmount);\r\n    }\r\n\r\n    function getTotalReserve() public view returns (uint256, uint256) { \r\n        uint256 baseReserve = base.balanceOf(address(this));\r\n        uint256 tokenReserve = token.balanceOf(address(this));\r\n\r\n        return (baseReserve, tokenReserve);\r\n    }\r\n}",
  "sourcePath": "C:\\Users\\David\\Documents\\NetBeansProjects\\garbiprotocol.github.io\\garbi_contracts\\contracts\\GarbiswapTradeGRBWETH.sol",
  "compiler": {
    "name": "solc",
    "version": "0.8.17+commit.8df45f5f.Emscripten.clang"
  },
  "schemaVersion": "3.4.11",
  "updatedAt": "2023-01-10T08:49:52.557Z",
  "devdoc": {
    "kind": "dev",
    "methods": {
      "allowance(address,address)": {
        "details": "See {IERC20-allowance}."
      },
      "approve(address,uint256)": {
        "details": "See {IERC20-approve}. NOTE: If `amount` is the maximum `uint256`, the allowance is not updated on `transferFrom`. This is semantically equivalent to an infinite approval. Requirements: - `spender` cannot be the zero address."
      },
      "balanceOf(address)": {
        "details": "See {IERC20-balanceOf}."
      },
      "burn(uint256)": {
        "details": "Destroys `amount` tokens from the caller. See {ERC20-_burn}."
      },
      "burnFrom(address,uint256)": {
        "details": "Destroys `amount` tokens from `account`, deducting from the caller's allowance. See {ERC20-_burn} and {ERC20-allowance}. Requirements: - the caller must have allowance for ``accounts``'s tokens of at least `amount`."
      },
      "decimals()": {
        "details": "Returns the number of decimals used to get its user representation. For example, if `decimals` equals `2`, a balance of `505` tokens should be displayed to a user as `5.05` (`505 / 10 ** 2`). Tokens usually opt for a value of 18, imitating the relationship between Ether and Wei. This is the value {ERC20} uses, unless this function is overridden; NOTE: This information is only used for _display_ purposes: it in no way affects any of the arithmetic of the contract, including {IERC20-balanceOf} and {IERC20-transfer}."
      },
      "decreaseAllowance(address,uint256)": {
        "details": "Atomically decreases the allowance granted to `spender` by the caller. This is an alternative to {approve} that can be used as a mitigation for problems described in {IERC20-approve}. Emits an {Approval} event indicating the updated allowance. Requirements: - `spender` cannot be the zero address. - `spender` must have allowance for the caller of at least `subtractedValue`."
      },
      "increaseAllowance(address,uint256)": {
        "details": "Atomically increases the allowance granted to `spender` by the caller. This is an alternative to {approve} that can be used as a mitigation for problems described in {IERC20-approve}. Emits an {Approval} event indicating the updated allowance. Requirements: - `spender` cannot be the zero address."
      },
      "name()": {
        "details": "Returns the name of the token."
      },
      "owner()": {
        "details": "Returns the address of the current owner."
      },
      "renounceOwnership()": {
        "details": "Leaves the contract without owner. It will not be possible to call `onlyOwner` functions anymore. Can only be called by the current owner. NOTE: Renouncing ownership will leave the contract without an owner, thereby removing any functionality that is only available to the owner."
      },
      "symbol()": {
        "details": "Returns the symbol of the token, usually a shorter version of the name."
      },
      "totalSupply()": {
        "details": "See {IERC20-totalSupply}."
      },
      "transfer(address,uint256)": {
        "details": "See {IERC20-transfer}. Requirements: - `to` cannot be the zero address. - the caller must have a balance of at least `amount`."
      },
      "transferFrom(address,address,uint256)": {
        "details": "See {IERC20-transferFrom}. Emits an {Approval} event indicating the updated allowance. This is not required by the EIP. See the note at the beginning of {ERC20}. NOTE: Does not update the allowance if the current allowance is the maximum `uint256`. Requirements: - `from` and `to` cannot be the zero address. - `from` must have a balance of at least `amount`. - the caller must have allowance for ``from``'s tokens of at least `amount`."
      },
      "transferOwnership(address)": {
        "details": "Transfers ownership of the contract to a new account (`newOwner`). Can only be called by the current owner."
      }
    },
    "version": 1
  },
  "userdoc": {
    "kind": "user",
    "methods": {},
    "version": 1
  }
}