{
  "contractName": "GarbiswapTradeInfo",
  "abi": [
    {
      "inputs": [
        {
          "internalType": "address",
          "name": "_owner",
          "type": "address"
        },
        {
          "internalType": "contract IGarbiswapTrade[]",
          "name": "_lps",
          "type": "address[]"
        }
      ],
      "name": "getData",
      "outputs": [
        {
          "components": [
            {
              "internalType": "uint256",
              "name": "baseReserve",
              "type": "uint256"
            },
            {
              "internalType": "uint256",
              "name": "tokenReserve",
              "type": "uint256"
            },
            {
              "internalType": "uint256",
              "name": "totalLP",
              "type": "uint256"
            },
            {
              "internalType": "uint256",
              "name": "uLPBal",
              "type": "uint256"
            },
            {
              "internalType": "uint256",
              "name": "uBaseAllowed",
              "type": "uint256"
            },
            {
              "internalType": "uint256",
              "name": "uTokenAllowed",
              "type": "uint256"
            }
          ],
          "internalType": "struct GarbiswapTradeInfo.LP[]",
          "name": "data_",
          "type": "tuple[]"
        }
      ],
      "stateMutability": "view",
      "type": "function",
      "constant": true
    }
  ],
  "bytecode": "0x608060405234801561001057600080fd5b50610b69806100206000396000f3fe608060405234801561001057600080fd5b506004361061002b5760003560e01c806325cface314610030575b600080fd5b61004a60048036038101906100459190610700565b610060565b60405161005791906108a3565b60405180910390f35b60608282905067ffffffffffffffff81111561007f5761007e6108c5565b5b6040519080825280602002602001820160405280156100b857816020015b6100a56105fd565b81526020019060019003908161009d5790505b50905060008060005b858590508110156105f3578585828181106100df576100de6108f4565b5b90506020020160208101906100f49190610961565b73ffffffffffffffffffffffffffffffffffffffff16635001f3b56040518163ffffffff1660e01b8152600401602060405180830381865afa15801561013e573d6000803e3d6000fd5b505050506040513d601f19601f8201168201806040525081019061016291906109a3565b9250858582818110610177576101766108f4565b5b905060200201602081019061018c9190610961565b73ffffffffffffffffffffffffffffffffffffffff1663fc0c546a6040518163ffffffff1660e01b8152600401602060405180830381865afa1580156101d6573d6000803e3d6000fd5b505050506040513d601f19601f820116820180604052508101906101fa91906109a3565b915085858281811061020f5761020e6108f4565b5b90506020020160208101906102249190610961565b73ffffffffffffffffffffffffffffffffffffffff1663ec0229186040518163ffffffff1660e01b81526004016040805180830381865afa15801561026d573d6000803e3d6000fd5b505050506040513d601f19601f8201168201806040525081019061029191906109fc565b8583815181106102a4576102a36108f4565b5b60200260200101516000018684815181106102c2576102c16108f4565b5b6020026020010151602001828152508281525050508585828181106102ea576102e96108f4565b5b90506020020160208101906102ff9190610961565b73ffffffffffffffffffffffffffffffffffffffff166318160ddd6040518163ffffffff1660e01b8152600401602060405180830381865afa158015610349573d6000803e3d6000fd5b505050506040513d601f19601f8201168201806040525081019061036d9190610a3c565b8482815181106103805761037f6108f4565b5b602002602001015160400181815250508585828181106103a3576103a26108f4565b5b90506020020160208101906103b89190610961565b73ffffffffffffffffffffffffffffffffffffffff166370a08231886040518263ffffffff1660e01b81526004016103f09190610a78565b602060405180830381865afa15801561040d573d6000803e3d6000fd5b505050506040513d601f19601f820116820180604052508101906104319190610a3c565b848281518110610444576104436108f4565b5b602002602001015160600181815250508273ffffffffffffffffffffffffffffffffffffffff1663dd62ed3e88888885818110610484576104836108f4565b5b90506020020160208101906104999190610961565b6040518363ffffffff1660e01b81526004016104b6929190610a93565b602060405180830381865afa1580156104d3573d6000803e3d6000fd5b505050506040513d601f19601f820116820180604052508101906104f79190610a3c565b84828151811061050a576105096108f4565b5b602002602001015160800181815250508173ffffffffffffffffffffffffffffffffffffffff1663dd62ed3e8888888581811061054a576105496108f4565b5b905060200201602081019061055f9190610961565b6040518363ffffffff1660e01b815260040161057c929190610a93565b602060405180830381865afa158015610599573d6000803e3d6000fd5b505050506040513d601f19601f820116820180604052508101906105bd9190610a3c565b8482815181106105d0576105cf6108f4565b5b602002602001015160a001818152505080806105eb90610aeb565b9150506100c1565b5050509392505050565b6040518060c001604052806000815260200160008152602001600081526020016000815260200160008152602001600081525090565b600080fd5b600080fd5b600073ffffffffffffffffffffffffffffffffffffffff82169050919050565b60006106688261063d565b9050919050565b6106788161065d565b811461068357600080fd5b50565b6000813590506106958161066f565b92915050565b600080fd5b600080fd5b600080fd5b60008083601f8401126106c0576106bf61069b565b5b8235905067ffffffffffffffff8111156106dd576106dc6106a0565b5b6020830191508360208202830111156106f9576106f86106a5565b5b9250929050565b60008060006040848603121561071957610718610633565b5b600061072786828701610686565b935050602084013567ffffffffffffffff81111561074857610747610638565b5b610754868287016106aa565b92509250509250925092565b600081519050919050565b600082825260208201905092915050565b6000819050602082019050919050565b6000819050919050565b61079f8161078c565b82525050565b60c0820160008201516107bb6000850182610796565b5060208201516107ce6020850182610796565b5060408201516107e16040850182610796565b5060608201516107f46060850182610796565b5060808201516108076080850182610796565b5060a082015161081a60a0850182610796565b50505050565b600061082c83836107a5565b60c08301905092915050565b6000602082019050919050565b600061085082610760565b61085a818561076b565b93506108658361077c565b8060005b8381101561089657815161087d8882610820565b975061088883610838565b925050600181019050610869565b5085935050505092915050565b600060208201905081810360008301526108bd8184610845565b905092915050565b7f4e487b7100000000000000000000000000000000000000000000000000000000600052604160045260246000fd5b7f4e487b7100000000000000000000000000000000000000000000000000000000600052603260045260246000fd5b600061092e8261065d565b9050919050565b61093e81610923565b811461094957600080fd5b50565b60008135905061095b81610935565b92915050565b60006020828403121561097757610976610633565b5b60006109858482850161094c565b91505092915050565b60008151905061099d8161066f565b92915050565b6000602082840312156109b9576109b8610633565b5b60006109c78482850161098e565b91505092915050565b6109d98161078c565b81146109e457600080fd5b50565b6000815190506109f6816109d0565b92915050565b60008060408385031215610a1357610a12610633565b5b6000610a21858286016109e7565b9250506020610a32858286016109e7565b9150509250929050565b600060208284031215610a5257610a51610633565b5b6000610a60848285016109e7565b91505092915050565b610a728161065d565b82525050565b6000602082019050610a8d6000830184610a69565b92915050565b6000604082019050610aa86000830185610a69565b610ab56020830184610a69565b9392505050565b7f4e487b7100000000000000000000000000000000000000000000000000000000600052601160045260246000fd5b6000610af68261078c565b91507fffffffffffffffffffffffffffffffffffffffffffffffffffffffffffffffff8203610b2857610b27610abc565b5b60018201905091905056fea26469706673582212209bde812fcfdd4840ff4b0a7bb0c43ed2cf6f76bb31d7623600c0086c44cc823d64736f6c63430008110033",
  "immutableReferences": {},
  "source": "// SPDX-License-Identifier: MIT\npragma experimental ABIEncoderV2;\ninterface IERC20 {\n        function totalSupply() external view returns (uint256);\n        function balanceOf(address account) external view returns (uint256);\n        function allowance(address _owner, address spender) external view returns (uint256);\n}\ninterface IGarbiswapTrade {\n\tfunction base() external view returns (address);\n\tfunction token() external view returns (address);\n\tfunction totalSupply() external view returns (uint256);\n        function balanceOf(address account) external view returns (uint256);\n\tfunction getTotalReserve() external view returns (uint256, uint256);\n}\ncontract GarbiswapTradeInfo {\n\tstruct LP {\n\t\tuint256 baseReserve;\n\t\tuint256 tokenReserve;\n\t\tuint256 totalLP;\n\t\tuint256 uLPBal;\n\t\tuint256 uBaseAllowed;\n\t\tuint256 uTokenAllowed;\n\t}\n\tfunction getData(address _owner, IGarbiswapTrade[] calldata _lps) public view returns(LP[] memory data_)\n\t{\n\t\tdata_ = new LP[](_lps.length);\n\t\taddress _base;\n\t\taddress _token;\n\t\tfor (uint256 idx = 0; idx < _lps.length; idx++) {\n\t\t\t_base = _lps[idx].base();\n\t\t\t_token = _lps[idx].token();\n\t\t\t(data_[idx].baseReserve, data_[idx].tokenReserve) = _lps[idx].getTotalReserve();\n\t\t\tdata_[idx].totalLP = _lps[idx].totalSupply();\n\t\t\tdata_[idx].uLPBal = _lps[idx].balanceOf(_owner);\n\t\t\tdata_[idx].uBaseAllowed = IERC20(_base).allowance(_owner, address(_lps[idx]));\n\t\t\tdata_[idx].uTokenAllowed = IERC20(_token).allowance(_owner, address(_lps[idx]));\n\t\t}\n\t}\n}",
  "sourcePath": "/home/falcon/codes/products/garbiprotocol.github.io/garbi_contracts/contracts/GarbiswapTradeInfo.sol",
  "compiler": {
    "name": "solc",
    "version": "0.8.17+commit.8df45f5f.Emscripten.clang"
  },
  "schemaVersion": "3.4.10",
  "updatedAt": "2023-01-10T10:51:14.784Z",
  "networkType": "ethereum",
  "devdoc": {
    "kind": "dev",
    "methods": {},
    "version": 1
  },
  "userdoc": {
    "kind": "user",
    "methods": {},
    "version": 1
  }
}