{
  "contractName": "GarbiFarmPixilSaga",
  "abi": [
    {
      "inputs": [
        {
          "internalType": "contract IGarbiMining",
          "name": "_miningMachine",
          "type": "address"
        },
        {
          "internalType": "contract IERC20",
          "name": "_want",
          "type": "address"
        },
        {
          "internalType": "uint256",
          "name": "_pidOfMining",
          "type": "uint256"
        }
      ],
      "stateMutability": "nonpayable",
      "type": "constructor"
    },
    {
      "anonymous": false,
      "inputs": [
        {
          "indexed": true,
          "internalType": "address",
          "name": "previousOwner",
          "type": "address"
        },
        {
          "indexed": true,
          "internalType": "address",
          "name": "newOwner",
          "type": "address"
        }
      ],
      "name": "OwnershipTransferred",
      "type": "event"
    },
    {
      "anonymous": false,
      "inputs": [
        {
          "indexed": false,
          "internalType": "string",
          "name": "_functionName",
          "type": "string"
        }
      ],
      "name": "onCancelTransactions",
      "type": "event"
    },
    {
      "anonymous": false,
      "inputs": [
        {
          "indexed": false,
          "internalType": "address",
          "name": "_user",
          "type": "address"
        },
        {
          "indexed": false,
          "internalType": "uint256",
          "name": "_amount",
          "type": "uint256"
        }
      ],
      "name": "onDeposit",
      "type": "event"
    },
    {
      "anonymous": false,
      "inputs": [
        {
          "indexed": false,
          "internalType": "address",
          "name": "_user",
          "type": "address"
        },
        {
          "indexed": false,
          "internalType": "uint256",
          "name": "_amount",
          "type": "uint256"
        }
      ],
      "name": "onEmergencyWithdraw",
      "type": "event"
    },
    {
      "anonymous": false,
      "inputs": [
        {
          "indexed": false,
          "internalType": "string",
          "name": "_functionName",
          "type": "string"
        },
        {
          "indexed": false,
          "internalType": "string",
          "name": "_fieldName",
          "type": "string"
        },
        {
          "indexed": false,
          "internalType": "address",
          "name": "_value",
          "type": "address"
        }
      ],
      "name": "onQueuedTransactionsChangeAddress",
      "type": "event"
    },
    {
      "anonymous": false,
      "inputs": [
        {
          "indexed": false,
          "internalType": "string",
          "name": "_functionName",
          "type": "string"
        },
        {
          "indexed": false,
          "internalType": "string",
          "name": "_fieldName",
          "type": "string"
        },
        {
          "indexed": false,
          "internalType": "uint256",
          "name": "_value",
          "type": "uint256"
        }
      ],
      "name": "onQueuedTransactionsChangeUint",
      "type": "event"
    },
    {
      "anonymous": false,
      "inputs": [
        {
          "indexed": false,
          "internalType": "address",
          "name": "_user",
          "type": "address"
        },
        {
          "indexed": false,
          "internalType": "uint256",
          "name": "_amount",
          "type": "uint256"
        }
      ],
      "name": "onWithdraw",
      "type": "event"
    },
    {
      "inputs": [],
      "name": "GRACE_PERIOD",
      "outputs": [
        {
          "internalType": "uint256",
          "name": "",
          "type": "uint256"
        }
      ],
      "stateMutability": "view",
      "type": "function"
    },
    {
      "inputs": [],
      "name": "MAXIMUM_DELAY",
      "outputs": [
        {
          "internalType": "uint256",
          "name": "",
          "type": "uint256"
        }
      ],
      "stateMutability": "view",
      "type": "function"
    },
    {
      "inputs": [],
      "name": "MINIMUM_DELAY",
      "outputs": [
        {
          "internalType": "uint256",
          "name": "",
          "type": "uint256"
        }
      ],
      "stateMutability": "view",
      "type": "function"
    },
    {
      "inputs": [],
      "name": "PLATFORM_FEE",
      "outputs": [
        {
          "internalType": "uint256",
          "name": "",
          "type": "uint256"
        }
      ],
      "stateMutability": "view",
      "type": "function"
    },
    {
      "inputs": [],
      "name": "delay",
      "outputs": [
        {
          "internalType": "uint256",
          "name": "",
          "type": "uint256"
        }
      ],
      "stateMutability": "view",
      "type": "function"
    },
    {
      "inputs": [],
      "name": "miningMachine",
      "outputs": [
        {
          "internalType": "contract IGarbiMining",
          "name": "",
          "type": "address"
        }
      ],
      "stateMutability": "view",
      "type": "function"
    },
    {
      "inputs": [],
      "name": "owner",
      "outputs": [
        {
          "internalType": "address",
          "name": "",
          "type": "address"
        }
      ],
      "stateMutability": "view",
      "type": "function"
    },
    {
      "inputs": [],
      "name": "pidOfMining",
      "outputs": [
        {
          "internalType": "uint256",
          "name": "",
          "type": "uint256"
        }
      ],
      "stateMutability": "view",
      "type": "function"
    },
    {
      "inputs": [],
      "name": "platformFundAddress",
      "outputs": [
        {
          "internalType": "address",
          "name": "",
          "type": "address"
        }
      ],
      "stateMutability": "view",
      "type": "function"
    },
    {
      "inputs": [],
      "name": "renounceOwnership",
      "outputs": [],
      "stateMutability": "nonpayable",
      "type": "function"
    },
    {
      "inputs": [
        {
          "internalType": "address",
          "name": "",
          "type": "address"
        }
      ],
      "name": "shareOf",
      "outputs": [
        {
          "internalType": "uint256",
          "name": "",
          "type": "uint256"
        }
      ],
      "stateMutability": "view",
      "type": "function"
    },
    {
      "inputs": [
        {
          "internalType": "bytes32",
          "name": "",
          "type": "bytes32"
        }
      ],
      "name": "timeLockOf",
      "outputs": [
        {
          "internalType": "bool",
          "name": "queuedTransactions",
          "type": "bool"
        },
        {
          "internalType": "uint256",
          "name": "timeOfExecute",
          "type": "uint256"
        }
      ],
      "stateMutability": "view",
      "type": "function"
    },
    {
      "inputs": [],
      "name": "totalShare",
      "outputs": [
        {
          "internalType": "uint256",
          "name": "",
          "type": "uint256"
        }
      ],
      "stateMutability": "view",
      "type": "function"
    },
    {
      "inputs": [
        {
          "internalType": "address",
          "name": "newOwner",
          "type": "address"
        }
      ],
      "name": "transferOwnership",
      "outputs": [],
      "stateMutability": "nonpayable",
      "type": "function"
    },
    {
      "inputs": [],
      "name": "want",
      "outputs": [
        {
          "internalType": "contract IERC20",
          "name": "",
          "type": "address"
        }
      ],
      "stateMutability": "view",
      "type": "function"
    },
    {
      "inputs": [
        {
          "internalType": "uint256",
          "name": "delay_",
          "type": "uint256"
        }
      ],
      "name": "setDelay",
      "outputs": [],
      "stateMutability": "nonpayable",
      "type": "function"
    },
    {
      "inputs": [
        {
          "internalType": "string",
          "name": "_functionName",
          "type": "string"
        }
      ],
      "name": "cancelTransactions",
      "outputs": [],
      "stateMutability": "nonpayable",
      "type": "function"
    },
    {
      "inputs": [
        {
          "internalType": "string",
          "name": "_functionName",
          "type": "string"
        },
        {
          "internalType": "string",
          "name": "_fieldName",
          "type": "string"
        },
        {
          "internalType": "address",
          "name": "_newAddr",
          "type": "address"
        }
      ],
      "name": "queuedTransactionsChangeAddress",
      "outputs": [],
      "stateMutability": "nonpayable",
      "type": "function"
    },
    {
      "inputs": [
        {
          "internalType": "string",
          "name": "_functionName",
          "type": "string"
        },
        {
          "internalType": "string",
          "name": "_fieldName",
          "type": "string"
        },
        {
          "internalType": "uint256",
          "name": "_value",
          "type": "uint256"
        }
      ],
      "name": "queuedTransactionsChangeUint",
      "outputs": [],
      "stateMutability": "nonpayable",
      "type": "function"
    },
    {
      "inputs": [],
      "name": "setMiningMachine",
      "outputs": [],
      "stateMutability": "nonpayable",
      "type": "function"
    },
    {
      "inputs": [
        {
          "internalType": "uint256",
          "name": "_platformFee",
          "type": "uint256"
        }
      ],
      "name": "setPlatformFee",
      "outputs": [],
      "stateMutability": "nonpayable",
      "type": "function"
    },
    {
      "inputs": [
        {
          "internalType": "address",
          "name": "newAddress",
          "type": "address"
        }
      ],
      "name": "setPlatformFundAdress",
      "outputs": [],
      "stateMutability": "nonpayable",
      "type": "function"
    },
    {
      "inputs": [],
      "name": "changeTokenAddress",
      "outputs": [],
      "stateMutability": "nonpayable",
      "type": "function"
    },
    {
      "inputs": [],
      "name": "setPidOfMining",
      "outputs": [],
      "stateMutability": "nonpayable",
      "type": "function"
    },
    {
      "inputs": [
        {
          "internalType": "uint256",
          "name": "_wantAmt",
          "type": "uint256"
        }
      ],
      "name": "deposit",
      "outputs": [],
      "stateMutability": "nonpayable",
      "type": "function"
    },
    {
      "inputs": [
        {
          "internalType": "uint256",
          "name": "_wantAmt",
          "type": "uint256"
        }
      ],
      "name": "withdraw",
      "outputs": [],
      "stateMutability": "nonpayable",
      "type": "function"
    },
    {
      "inputs": [],
      "name": "emergencyWithdraw",
      "outputs": [],
      "stateMutability": "nonpayable",
      "type": "function"
    },
    {
      "inputs": [
        {
          "internalType": "address",
          "name": "_user",
          "type": "address"
        }
      ],
      "name": "harvest",
      "outputs": [
        {
          "internalType": "uint256",
          "name": "_pendingVeGRB",
          "type": "uint256"
        }
      ],
      "stateMutability": "nonpayable",
      "type": "function"
    },
    {
      "inputs": [
        {
          "internalType": "address",
          "name": "_user",
          "type": "address"
        }
      ],
      "name": "getData",
      "outputs": [
        {
          "internalType": "uint256",
          "name": "miningSpeed_",
          "type": "uint256"
        },
        {
          "internalType": "uint256",
          "name": "userWantBal_",
          "type": "uint256"
        },
        {
          "internalType": "uint256",
          "name": "totalMintPerDay_",
          "type": "uint256"
        },
        {
          "internalType": "uint256",
          "name": "userETHBal_",
          "type": "uint256"
        },
        {
          "internalType": "uint256",
          "name": "userGRBPending_",
          "type": "uint256"
        },
        {
          "internalType": "uint256",
          "name": "userWantShare_",
          "type": "uint256"
        },
        {
          "internalType": "uint256",
          "name": "tvl_",
          "type": "uint256"
        }
      ],
      "stateMutability": "view",
      "type": "function"
    }
  ],
  "bytecode": "0x6080604052600060035560006007553480156200001b57600080fd5b5060405162001e4438038062001e448339810160408190526200003e9162000120565b60016000556200004e33620000b5565b600280546001600160a01b038085166001600160a01b031992831617909255600580549286169290911691909117905560068190556200008b3390565b600480546001600160a01b0319166001600160a01b03929092169190911790555062000168915050565b600180546001600160a01b038381166001600160a01b0319831681179093556040519116919082907f8be0079c531659141344cd1fd0a4f28419497f9722a3daafe3b4186f6b6457e090600090a35050565b6001600160a01b03811681146200011d57600080fd5b50565b6000806000606084860312156200013657600080fd5b8351620001438162000107565b6020850151909350620001568162000107565b80925050604084015190509250925092565b611ccc80620001786000396000f3fe608060405234801561001057600080fd5b50600436106101cf5760003560e01c80638cac8f0311610104578063b6b55f25116100a2578063db2e21bc11610071578063db2e21bc146103de578063e177246e146103e6578063f2fde38b146103f9578063f47a396f1461040c57600080fd5b8063b6b55f25146103b0578063bce645db146103c3578063c1a287e214610337578063d1b8a3b5146103d657600080fd5b80638fe6041d116100de5780638fe6041d1461036d5780639312dc5f146103805780639fa5e63e14610393578063b1b43ae5146103a657600080fd5b80638cac8f03146103415780638da5cb5b146103545780638ecc676f1461036557600080fd5b806332009eda116101715780636a42b8f81161014b5780636a42b8f8146102e25780636edc28fd146102eb578063715018a61461032f5780637d645fab1461033757600080fd5b806332009eda1461028957806334fbc9a11461029157806338266b221461029a57600080fd5b806314ca81ed116101ad57806314ca81ed146102185780631f1fcd511461022b57806321e5e2c4146102565780632e1a7d4d1461027657600080fd5b8063026c4207146101d45780630e5c011e146101f057806312e8e2c314610203575b600080fd5b6101dd60075481565b6040519081526020015b60405180910390f35b6101dd6101fe3660046118b1565b610415565b6102166102113660046118cc565b610497565b005b610216610226366004611988565b6104a4565b60025461023e906001600160a01b031681565b6040516001600160a01b0390911681526020016101e7565b6101dd6102643660046118b1565b60086020526000908152604090205481565b6102166102843660046118cc565b6105a4565b61021661082d565b6101dd60035481565b6102ad6102a83660046118b1565b6109a2565b604080519788526020880196909652948601939093526060850191909152608084015260a083015260c082015260e0016101e7565b6101dd600a5481565b6103186102f93660046118cc565b6009602052600090815260409020805460019091015460ff9091169082565b6040805192151583526020830191909152016101e7565b610216610bb2565b6101dd62278d0081565b61021661034f3660046119fc565b610bc6565b6001546001600160a01b031661023e565b610216610c51565b61021661037b3660046118b1565b610df8565b61021661038e366004611a39565b610e22565b60045461023e906001600160a01b031681565b6101dd6202a30081565b6102166103be3660046118cc565b610ef7565b60055461023e906001600160a01b031681565b6102166111d3565b610216611344565b6102166103f43660046118cc565b6114d9565b6102166104073660046118b1565b6115cf565b6101dd60065481565b600554600654604051630c7e663b60e11b815260048101919091526001600160a01b03838116602483015260009216906318fccc76906044016020604051808303816000875af115801561046d573d6000803e3d6000fd5b505050506040513d601f19601f820116820180604052508101906104919190611aa6565b92915050565b61049f611645565b600355565b6104ac611645565b600060096000856040516020016104c39190611b05565b604051602081830303815290604052805190602001208152602001908152602001600020905081816002016000856040516020016105019190611b05565b60408051808303601f1901815291815281516020928301208352908201929092520160002080546001600160a01b0319166001600160a01b0392909216919091179055805460ff19166001178155600a5461055d90429061169f565b60018201556040517f1bd33efd68d2824f5f0f2519ce7c9ca0ddff6234523468e89077a0dca7b739709061059690869086908690611b18565b60405180910390a150505050565b6105ac6116b2565b600081116105d55760405162461bcd60e51b81526004016105cc90611b56565b60405180910390fd5b6105de33610415565b50336000908152600860205260409020548181101561063f5760405162461bcd60e51b815260206004820152601760248201527f494e56414c49445f414d4f554e545f574954484452415700000000000000000060448201526064016105cc565b33600090815260086020526040902054610659908361170b565b33600090815260086020526040902055600754610676908361170b565b6007556002546040516370a0823160e01b81523060048201526000916001600160a01b0316906370a0823190602401602060405180830381865afa1580156106c2573d6000803e3d6000fd5b505050506040513d601f19601f820116820180604052508101906106e69190611aa6565b9050828110156106f4578092505b60025460405163a9059cbb60e01b8152336004820152602481018590526001600160a01b039091169063a9059cbb906044016020604051808303816000875af1158015610745573d6000803e3d6000fd5b505050506040513d601f19601f820116820180604052508101906107699190611b7d565b50600554600654604051638fb4e1cd60e01b815260048101919091523360248201526001600160a01b0390911690638fb4e1cd906044016020604051808303816000875af11580156107bf573d6000803e3d6000fd5b505050506040513d601f19601f820116820180604052508101906107e39190611b7d565b5060408051338152602081018590527fccad973dcd043c7d680389db4378bd6b9775db7124092e9e0422c9e46d7985dc91015b60405180910390a1505061082a6001600055565b50565b610835611645565b600060096000604051602001610871906020808252601290820152716368616e6765546f6b656e4164647265737360701b604082015260600190565b60405160208183030381529060405280519060200120815260200190815260200160002090506108a081611717565b60006001600160a01b03168160020160006040516020016108c090611b9f565b60408051601f19818403018152918152815160209283012083529082019290925201600020546001600160a01b0316146109985780600201600060405160200161090990611b9f565b60408051601f198184030181529181528151602092830120835282820193909352908201600090812054600280546001600160a01b0319166001600160a01b0390921691909117815592519284019290916109649101611b9f565b60408051601f1981840301815291815281516020928301208352908201929092520160002080546001600160a01b03191690555b805460ff19169055565b6002546040516370a0823160e01b81526001600160a01b03838116600483015260009283928392839283928392839216906370a0823190602401602060405180830381865afa1580156109f9573d6000803e3d6000fd5b505050506040513d601f19601f82011682018060405250810190610a1d9190611aa6565b600554600654604051635e86cd9560e01b815260048101919091529197506001600160a01b031690635e86cd9590602401602060405180830381865afa158015610a6b573d6000803e3d6000fd5b505050506040513d601f19601f82011682018060405250810190610a8f9190611aa6565b6005546006546040516324aa7cc560e11b815260048101919091529196506001600160a01b031690634954f98a90602401602060405180830381865afa158015610add573d6000803e3d6000fd5b505050506040513d601f19601f82011682018060405250810190610b019190611aa6565b600554600654604051631069f3b560e01b815260048101919091526001600160a01b038b811660248301819052939a5092319650911690631069f3b590604401606060405180830381865afa158015610b5e573d6000803e3d6000fd5b505050506040513d601f19601f82011682018060405250810190610b829190611bbd565b50506001600160a01b03909816600090815260086020526040902054600754979996989597949690949350915050565b610bba611645565b610bc4600061182b565b565b610bce611645565b60006009600083604051602001610be59190611b05565b60408051601f1981840301815291815281516020928301208352908201929092528101600020805460ff1916815590519091507fce369f91d52b663114643c430217b52530c2cc7318cac7a3e9d46241cbc354a890610c45908490611b05565b60405180910390a15050565b610c59611645565b600060096000604051602001610c939060208082526010908201526f7365744d696e696e674d616368696e6560801b604082015260600190565b6040516020818303038152906040528051906020012081526020019081526020016000209050610cc281611717565b60006001600160a01b0316816002016000604051602001610d04906020808252600d908201526c6d696e696e674d616368696e6560981b604082015260600190565b60408051601f19818403018152918152815160209283012083529082019290925201600020546001600160a01b031603610d725760405162461bcd60e51b815260206004820152600f60248201526e494e56414c49445f4144445245535360881b60448201526064016105cc565b806002016000604051602001610da9906020808252600d908201526c6d696e696e674d616368696e6560981b604082015260600190565b60408051601f1981840301815291815281516020928301208352908201929092520160002054600580546001600160a01b0319166001600160a01b03909216919091179055805460ff19169055565b610e00611645565b600480546001600160a01b0319166001600160a01b0392909216919091179055565b610e2a611645565b60006009600085604051602001610e419190611b05565b60405160208183030381529060405280519060200120815260200190815260200160002090508181600301600085604051602001610e7f9190611b05565b60408051601f1981840301815291815281516020928301208352908201929092520160002055805460ff19166001178155600a54610ebe90429061169f565b60018201556040517f860699cc7b0f3cb3d034fd31cdfe0816887a9f55d10993224d77c359c3d555519061059690869086908690611beb565b610eff6116b2565b610f07611645565b60008111610f275760405162461bcd60e51b81526004016105cc90611b56565b6002546040516370a0823160e01b815233600482015282916001600160a01b0316906370a0823190602401602060405180830381865afa158015610f6f573d6000803e3d6000fd5b505050506040513d601f19601f82011682018060405250810190610f939190611aa6565b1015610fb15760405162461bcd60e51b81526004016105cc90611b56565b610fba33610415565b506002546040516323b872dd60e01b8152336004820152306024820152604481018390526001600160a01b03909116906323b872dd906064016020604051808303816000875af1158015611012573d6000803e3d6000fd5b505050506040513d601f19601f820116820180604052508101906110369190611b7d565b50600061105a6103e86110546003548561187d90919063ffffffff16565b90611889565b6002546004805460405163a9059cbb60e01b81526001600160a01b03918216928101929092526024820184905292935091169063a9059cbb906044016020604051808303816000875af11580156110b5573d6000803e3d6000fd5b505050506040513d601f19601f820116820180604052508101906110d99190611b7d565b5060006110e6838361170b565b33600090815260086020526040902054909150611103908261169f565b33600090815260086020526040902055600754611120908261169f565b600755600554600654604051638fb4e1cd60e01b815260048101919091523360248201526001600160a01b0390911690638fb4e1cd906044016020604051808303816000875af1158015611178573d6000803e3d6000fd5b505050506040513d601f19601f8201168201806040525081019061119c9190611b7d565b5060408051338152602081018590527f2bf9518c65eff7d1f3ee4106bf0dc41267ccde0924dbfa4ab476ed5c0f45da989101610816565b6111db611645565b600060096000604051602001611213906020808252600e908201526d7365745069644f664d696e696e6760901b604082015260600190565b604051602081830303815290604052805190602001208152602001908152602001600020905061124281611717565b6000816003016000604051602001611279906020808252600b908201526a7069644f664d696e696e6760a81b604082015260600190565b60405160208183030381529060405280519060200120815260200190815260200160002054116112dc5760405162461bcd60e51b815260206004820152600e60248201526d1253959053125117d05353d5539560921b60448201526064016105cc565b806003016000604051602001611311906020808252600b908201526a7069644f664d696e696e6760a81b604082015260600190565b60408051601f1981840301815291815281516020928301208352908201929092520160002054600655805460ff19169055565b33600090815260086020526040902054806113925760405162461bcd60e51b815260206004820152600e60248201526d1253959053125117d05353d5539560921b60448201526064016105cc565b336000908152600860205260408120556007546113af908261170b565b6007556002546040516370a0823160e01b81523060048201526000916001600160a01b0316906370a0823190602401602060405180830381865afa1580156113fb573d6000803e3d6000fd5b505050506040513d601f19601f8201168201806040525081019061141f9190611aa6565b90508181101561142d578091505b60025460405163a9059cbb60e01b8152336004820152602481018490526001600160a01b039091169063a9059cbb906044016020604051808303816000875af115801561147e573d6000803e3d6000fd5b505050506040513d601f19601f820116820180604052508101906114a29190611b7d565b5060408051338152602081018490527fc33863412a9dc216cbf16bc22dd0bd897cf3b59fe264e4e89db58f9b9c23d01b9101610c45565b6114e1611645565b6202a3008110156115515760405162461bcd60e51b815260206004820152603460248201527f54696d656c6f636b3a3a73657444656c61793a2044656c6179206d75737420656044820152733c31b2b2b21036b4b734b6bab6903232b630bc9760611b60648201526084016105cc565b62278d008111156115ca5760405162461bcd60e51b815260206004820152603860248201527f54696d656c6f636b3a3a73657444656c61793a2044656c6179206d757374206e60448201527f6f7420657863656564206d6178696d756d2064656c61792e000000000000000060648201526084016105cc565b600a55565b6115d7611645565b6001600160a01b03811661163c5760405162461bcd60e51b815260206004820152602660248201527f4f776e61626c653a206e6577206f776e657220697320746865207a65726f206160448201526564647265737360d01b60648201526084016105cc565b61082a8161182b565b6001546001600160a01b03163314610bc45760405162461bcd60e51b815260206004820181905260248201527f4f776e61626c653a2063616c6c6572206973206e6f7420746865206f776e657260448201526064016105cc565b60006116ab8284611c37565b9392505050565b6002600054036117045760405162461bcd60e51b815260206004820152601f60248201527f5265656e7472616e637947756172643a207265656e7472616e742063616c6c0060448201526064016105cc565b6002600055565b60006116ab8284611c4a565b805460ff16151560011461176d5760405162461bcd60e51b815260206004820152601f60248201527f5472616e73616374696f6e206861736e2774206265656e207175657565642e0060448201526064016105cc565b42816001015411156117d15760405162461bcd60e51b815260206004820152602760248201527f5472616e73616374696f6e206861736e2774207375727061737365642074696d60448201526632903637b1b59760c91b60648201526084016105cc565b600181015442906117e59062278d0061169f565b101561082a5760405162461bcd60e51b81526020600482015260156024820152742a3930b739b0b1ba34b7b71034b99039ba30b6329760591b60448201526064016105cc565b600180546001600160a01b038381166001600160a01b0319831681179093556040519116919082907f8be0079c531659141344cd1fd0a4f28419497f9722a3daafe3b4186f6b6457e090600090a35050565b60006116ab8284611c5d565b60006116ab8284611c74565b80356001600160a01b03811681146118ac57600080fd5b919050565b6000602082840312156118c357600080fd5b6116ab82611895565b6000602082840312156118de57600080fd5b5035919050565b634e487b7160e01b600052604160045260246000fd5b600082601f83011261190c57600080fd5b813567ffffffffffffffff80821115611927576119276118e5565b604051601f8301601f19908116603f0116810190828211818310171561194f5761194f6118e5565b8160405283815286602085880101111561196857600080fd5b836020870160208301376000602085830101528094505050505092915050565b60008060006060848603121561199d57600080fd5b833567ffffffffffffffff808211156119b557600080fd5b6119c1878388016118fb565b945060208601359150808211156119d757600080fd5b506119e4868287016118fb565b9250506119f360408501611895565b90509250925092565b600060208284031215611a0e57600080fd5b813567ffffffffffffffff811115611a2557600080fd5b611a31848285016118fb565b949350505050565b600080600060608486031215611a4e57600080fd5b833567ffffffffffffffff80821115611a6657600080fd5b611a72878388016118fb565b94506020860135915080821115611a8857600080fd5b50611a95868287016118fb565b925050604084013590509250925092565b600060208284031215611ab857600080fd5b5051919050565b6000815180845260005b81811015611ae557602081850181015186830182015201611ac9565b506000602082860101526020601f19601f83011685010191505092915050565b6020815260006116ab6020830184611abf565b606081526000611b2b6060830186611abf565b8281036020840152611b3d8186611abf565b91505060018060a01b0383166040830152949350505050565b6020808252600d908201526c1253959053125117d253941555609a1b604082015260600190565b600060208284031215611b8f57600080fd5b815180151581146116ab57600080fd5b6020808252600490820152631dd85b9d60e21b604082015260600190565b600080600060608486031215611bd257600080fd5b8351925060208401519150604084015190509250925092565b606081526000611bfe6060830186611abf565b8281036020840152611c108186611abf565b915050826040830152949350505050565b634e487b7160e01b600052601160045260246000fd5b8082018082111561049157610491611c21565b8181038181111561049157610491611c21565b808202811582820484141761049157610491611c21565b600082611c9157634e487b7160e01b600052601260045260246000fd5b50049056fea264697066735822122067defebcbb3e9120bea824e751cfedab31299e61f15c01b1e65fd54e49cb40db64736f6c63430008110033",
  "immutableReferences": {},
  "source": "// SPDX-License-Identifier: MIT\npragma solidity >=0.6.12;\n\nimport \"@openzeppelin/contracts/utils/math/SafeMath.sol\";\nimport \"@openzeppelin/contracts/access/Ownable.sol\";\nimport \"@openzeppelin/contracts/token/ERC20/IERC20.sol\";\nimport \"@openzeppelin/contracts/security/ReentrancyGuard.sol\";\n\nimport './interfaces/IGarbiMining.sol';\n\ncontract GarbiFarmPixilSaga is ReentrancyGuard, Ownable {\n\n    using SafeMath for uint256;\n    \n    IERC20 public want; // GRB\n    \n    uint256 public PLATFORM_FEE = 0;\n\n    address public platformFundAddress;\n\n    IGarbiMining public miningMachine;\n\n    uint256 public pidOfMining;\n    uint256 public totalShare = 0;\n    mapping(address => uint256) public shareOf;\n\n    mapping(bytes32 => TimeLock) public timeLockOf;\n\n    uint public constant GRACE_PERIOD = 30 days;\n    uint public constant MINIMUM_DELAY = 2 days;\n    uint public constant MAXIMUM_DELAY = 30 days;\n    uint public delay;\n\n    struct TimeLock {\n        bool queuedTransactions;\n        uint256 timeOfExecute;\n        mapping(bytes32 => address) addressOf;\n        mapping(bytes32 => uint256) uintOf;\n    }\n\n    event onDeposit(address _user, uint256 _amount);\n    event onWithdraw(address _user, uint256 _amount);\n    event onEmergencyWithdraw(address _user, uint256 _amount);\n\n    event onQueuedTransactionsChangeAddress(string _functionName, string _fieldName, address _value);\n    event onQueuedTransactionsChangeUint(string _functionName, string _fieldName, uint256 _value);\n    event onCancelTransactions(string _functionName);\n\n    constructor(\n        IGarbiMining _miningMachine,\n        IERC20 _want,\n        uint256 _pidOfMining\n        ) {\n        want = _want;\n        miningMachine = _miningMachine;\n        pidOfMining = _pidOfMining;\n        platformFundAddress = _msgSender();\n    }\n\n    function setDelay(uint delay_) public onlyOwner {\n        require(delay_ >= MINIMUM_DELAY, \"Timelock::setDelay: Delay must exceed minimum delay.\");\n        require(delay_ <= MAXIMUM_DELAY, \"Timelock::setDelay: Delay must not exceed maximum delay.\");\n\n        delay = delay_;\n    }\n\n    function cancelTransactions(string memory _functionName) public onlyOwner {\n\n        TimeLock storage _timelock = timeLockOf[keccak256(abi.encode(_functionName))];\n        _timelock.queuedTransactions = false;\n\n        emit onCancelTransactions(_functionName);\n    }\n\n    function queuedTransactionsChangeAddress(string memory _functionName, string memory _fieldName, address _newAddr) public onlyOwner \n    {\n        TimeLock storage _timelock = timeLockOf[keccak256(abi.encode(_functionName))];\n\n        _timelock.addressOf[keccak256(abi.encode(_fieldName))] = _newAddr;\n        _timelock.queuedTransactions = true;\n        _timelock.timeOfExecute = block.timestamp.add(delay);\n\n        emit onQueuedTransactionsChangeAddress(_functionName, _fieldName, _newAddr);\n    }\n\n    function queuedTransactionsChangeUint(string memory _functionName, string memory _fieldName, uint256 _value) public onlyOwner \n    {\n        TimeLock storage _timelock = timeLockOf[keccak256(abi.encode(_functionName))];\n\n        _timelock.uintOf[keccak256(abi.encode(_fieldName))] = _value;\n        _timelock.queuedTransactions = true;\n        _timelock.timeOfExecute = block.timestamp.add(delay);\n\n        emit onQueuedTransactionsChangeUint(_functionName, _fieldName, _value);\n    }\n\n    function setMiningMachine() public onlyOwner \n    {\n        TimeLock storage _timelock = timeLockOf[keccak256(abi.encode('setMiningMachine'))];\n        _validateTimelock(_timelock);\n        require(_timelock.addressOf[keccak256(abi.encode('miningMachine'))] != address(0), \"INVALID_ADDRESS\");\n\n        miningMachine = IGarbiMining(_timelock.addressOf[keccak256(abi.encode('miningMachine'))]);\n        _timelock.queuedTransactions = false;\n    }\n\n    function setPlatformFee(uint256 _platformFee) public onlyOwner {\n        PLATFORM_FEE = _platformFee;\n    }\n\n    function setPlatformFundAdress(address newAddress) public onlyOwner {\n        platformFundAddress = newAddress;\n    }\n\n    function changeTokenAddress() public onlyOwner\n    {\n        TimeLock storage _timelock = timeLockOf[keccak256(abi.encode('changeTokenAddress'))];\n\n        _validateTimelock(_timelock);\n    \n        if (_timelock.addressOf[keccak256(abi.encode('want'))] != address(0)) {\n            want = IERC20(_timelock.addressOf[keccak256(abi.encode('want'))]);\n            delete _timelock.addressOf[keccak256(abi.encode('want'))];\n        }\n        _timelock.queuedTransactions = false;\n    }\n\n    function setPidOfMining() public onlyOwner \n    {\n        TimeLock storage _timelock = timeLockOf[keccak256(abi.encode('setPidOfMining'))];\n        _validateTimelock(_timelock);\n        require(_timelock.uintOf[keccak256(abi.encode('pidOfMining'))] > 0, \"INVALID_AMOUNT\");\n\n        pidOfMining = _timelock.uintOf[keccak256(abi.encode('pidOfMining'))];\n        _timelock.queuedTransactions = false;\n    }\n\n    function _validateTimelock(TimeLock storage _timelock) private view\n    {\n        require(_timelock.queuedTransactions == true, \"Transaction hasn't been queued.\");\n        require(_timelock.timeOfExecute <= block.timestamp, \"Transaction hasn't surpassed time lock.\");\n        require(_timelock.timeOfExecute.add(GRACE_PERIOD) >= block.timestamp, \"Transaction is stale.\");\n    }\n\n    function deposit(uint256 _wantAmt) external nonReentrant onlyOwner\n    {\n        require(_wantAmt > 0, 'INVALID_INPUT');\n        require(want.balanceOf(msg.sender) >= _wantAmt, 'INVALID_INPUT');\n\n        harvest(msg.sender);\n    \twant.transferFrom(msg.sender, address(this), _wantAmt);\n\n        uint256 platformFee = _wantAmt.mul(PLATFORM_FEE).div(1000);\n        want.transfer(platformFundAddress, platformFee);\n\n        uint256 _wantAmtAfterFee = _wantAmt.sub(platformFee);\n\n        shareOf[msg.sender] = shareOf[msg.sender].add(_wantAmtAfterFee);\n        totalShare = totalShare.add(_wantAmtAfterFee);\n        miningMachine.updateUser(pidOfMining, msg.sender);\n        emit onDeposit(msg.sender, _wantAmt);\n\n    }\n    function withdraw(uint256 _wantAmt) external nonReentrant \n    {\n        require(_wantAmt > 0, 'INVALID_INPUT');   \n        harvest(msg.sender);\n\n        uint256 _share = shareOf[msg.sender];\n        require(_share >= _wantAmt, 'INVALID_AMOUNT_WITHDRAW');\n\n        shareOf[msg.sender] = shareOf[msg.sender].sub(_wantAmt);\n        totalShare = totalShare.sub(_wantAmt);\n        uint256 _wantBal = want.balanceOf(address(this)); \n        if (_wantBal < _wantAmt) {\n            _wantAmt = _wantBal;\n        }\n        want.transfer(msg.sender, _wantAmt);\n        \n        miningMachine.updateUser(pidOfMining, msg.sender);\n    \t// \n        emit onWithdraw(msg.sender, _wantAmt);\n    }\n    // Withdraw without caring about rewards. EMERGENCY ONLY.\n    function emergencyWithdraw() public \n    {\n        uint256 _share = shareOf[msg.sender];\n        require(_share > 0, 'INVALID_AMOUNT');\n\n        shareOf[msg.sender] = 0;\n        totalShare = totalShare.sub(_share);\n        uint256 _wantBal = want.balanceOf(address(this));\n        if (_wantBal < _share) {\n            _share = _wantBal;\n        }\n\n        want.transfer(msg.sender, _share);\n\n        emit onEmergencyWithdraw(msg.sender, _share);\n    }\n\n    function harvest(address _user) public returns(uint256 _pendingVeGRB) { \n        return miningMachine.harvest(pidOfMining, _user);\n    }\n\n    function getData(\n        address _user\n    ) \n    public \n    view\n    returns(\n        uint256 miningSpeed_,\n        uint256 userWantBal_, \n        uint256 totalMintPerDay_, \n        uint256 userETHBal_, \n        uint256 userGRBPending_, \n        uint256 userWantShare_,\n        uint256 tvl_\n    ) {\n        userWantBal_ = want.balanceOf(_user);\n        totalMintPerDay_ = miningMachine.getTotalMintPerDayOf(pidOfMining);\n\n        miningSpeed_ = miningMachine.getMiningSpeedOf(pidOfMining);\n        userETHBal_ = address(_user).balance;\n        (userGRBPending_, , ) = miningMachine.getUserInfo(pidOfMining, _user);\n        userWantShare_ = shareOf[_user];\n        tvl_ = totalShare;\n    } \n}",
  "sourcePath": "/Applications/projects/garbiprotocol.github.io/garbi_contracts/contracts/GarbiFarmPixilSaga.sol",
  "compiler": {
    "name": "solc",
    "version": "0.8.17+commit.8df45f5f.Emscripten.clang"
  },
  "schemaVersion": "3.4.11",
  "updatedAt": "2023-06-16T09:01:39.085Z",
  "networkType": "ethereum",
  "devdoc": {
    "kind": "dev",
    "methods": {
      "owner()": {
        "details": "Returns the address of the current owner."
      },
      "renounceOwnership()": {
        "details": "Leaves the contract without owner. It will not be possible to call `onlyOwner` functions. Can only be called by the current owner. NOTE: Renouncing ownership will leave the contract without an owner, thereby disabling any functionality that is only available to the owner."
      },
      "transferOwnership(address)": {
        "details": "Transfers ownership of the contract to a new account (`newOwner`). Can only be called by the current owner."
      }
    },
    "version": 1
  },
  "userdoc": {
    "kind": "user",
    "methods": {},
    "version": 1
  }
}