{
  "contractName": "GarbiswapFeeMachine",
  "abi": [
    {
      "inputs": [
        {
          "internalType": "contract IERC20",
          "name": "_grb",
          "type": "address"
        },
        {
          "internalType": "address",
          "name": "_performanceMachineContract",
          "type": "address"
        },
        {
          "internalType": "address",
          "name": "_safuFundContract",
          "type": "address"
        },
        {
          "internalType": "contract IGarbiTimeLock",
          "name": "_garbiTimeLockContract",
          "type": "address"
        }
      ],
      "stateMutability": "nonpayable",
      "type": "constructor"
    },
    {
      "anonymous": false,
      "inputs": [
        {
          "indexed": true,
          "internalType": "address",
          "name": "previousOwner",
          "type": "address"
        },
        {
          "indexed": true,
          "internalType": "address",
          "name": "newOwner",
          "type": "address"
        }
      ],
      "name": "OwnershipTransferred",
      "type": "event"
    },
    {
      "anonymous": false,
      "inputs": [
        {
          "indexed": false,
          "internalType": "address",
          "name": "_trader",
          "type": "address"
        },
        {
          "indexed": false,
          "internalType": "uint256",
          "name": "_amount",
          "type": "uint256"
        }
      ],
      "name": "onDistributeGarbi",
      "type": "event"
    },
    {
      "inputs": [],
      "name": "DAY_PERIOD",
      "outputs": [
        {
          "internalType": "uint256",
          "name": "",
          "type": "uint256"
        }
      ],
      "stateMutability": "view",
      "type": "function"
    },
    {
      "inputs": [],
      "name": "DISTRIBUTE_GARBI_AMOUNT",
      "outputs": [
        {
          "internalType": "uint256",
          "name": "",
          "type": "uint256"
        }
      ],
      "stateMutability": "view",
      "type": "function"
    },
    {
      "inputs": [],
      "name": "GRB",
      "outputs": [
        {
          "internalType": "contract IERC20",
          "name": "",
          "type": "address"
        }
      ],
      "stateMutability": "view",
      "type": "function"
    },
    {
      "inputs": [],
      "name": "MAX_FEE_ON_DISTRIBUTE",
      "outputs": [
        {
          "internalType": "uint256",
          "name": "",
          "type": "uint256"
        }
      ],
      "stateMutability": "view",
      "type": "function"
    },
    {
      "inputs": [],
      "name": "PERFORMANCE_FEE",
      "outputs": [
        {
          "internalType": "uint256",
          "name": "",
          "type": "uint256"
        }
      ],
      "stateMutability": "view",
      "type": "function"
    },
    {
      "inputs": [],
      "name": "SAFU_FUND",
      "outputs": [
        {
          "internalType": "uint256",
          "name": "",
          "type": "uint256"
        }
      ],
      "stateMutability": "view",
      "type": "function"
    },
    {
      "inputs": [
        {
          "internalType": "address",
          "name": "",
          "type": "address"
        },
        {
          "internalType": "uint256",
          "name": "",
          "type": "uint256"
        }
      ],
      "name": "feeOf",
      "outputs": [
        {
          "internalType": "uint256",
          "name": "",
          "type": "uint256"
        }
      ],
      "stateMutability": "view",
      "type": "function"
    },
    {
      "inputs": [],
      "name": "garbiTimeLockContract",
      "outputs": [
        {
          "internalType": "contract IGarbiTimeLock",
          "name": "",
          "type": "address"
        }
      ],
      "stateMutability": "view",
      "type": "function"
    },
    {
      "inputs": [],
      "name": "owner",
      "outputs": [
        {
          "internalType": "address",
          "name": "",
          "type": "address"
        }
      ],
      "stateMutability": "view",
      "type": "function"
    },
    {
      "inputs": [
        {
          "internalType": "address",
          "name": "",
          "type": "address"
        }
      ],
      "name": "pairs",
      "outputs": [
        {
          "internalType": "bool",
          "name": "",
          "type": "bool"
        }
      ],
      "stateMutability": "view",
      "type": "function"
    },
    {
      "inputs": [],
      "name": "performanceMachineContract",
      "outputs": [
        {
          "internalType": "address",
          "name": "",
          "type": "address"
        }
      ],
      "stateMutability": "view",
      "type": "function"
    },
    {
      "inputs": [],
      "name": "renounceOwnership",
      "outputs": [],
      "stateMutability": "nonpayable",
      "type": "function"
    },
    {
      "inputs": [],
      "name": "safuFundContract",
      "outputs": [
        {
          "internalType": "address",
          "name": "",
          "type": "address"
        }
      ],
      "stateMutability": "view",
      "type": "function"
    },
    {
      "inputs": [
        {
          "internalType": "address",
          "name": "",
          "type": "address"
        }
      ],
      "name": "timeOfCreateNewFee",
      "outputs": [
        {
          "internalType": "uint256",
          "name": "",
          "type": "uint256"
        }
      ],
      "stateMutability": "view",
      "type": "function"
    },
    {
      "inputs": [
        {
          "internalType": "address",
          "name": "",
          "type": "address"
        }
      ],
      "name": "totalDays",
      "outputs": [
        {
          "internalType": "uint256",
          "name": "",
          "type": "uint256"
        }
      ],
      "stateMutability": "view",
      "type": "function"
    },
    {
      "inputs": [
        {
          "internalType": "address",
          "name": "newOwner",
          "type": "address"
        }
      ],
      "name": "transferOwnership",
      "outputs": [],
      "stateMutability": "nonpayable",
      "type": "function"
    },
    {
      "inputs": [
        {
          "internalType": "uint256",
          "name": "_value",
          "type": "uint256"
        }
      ],
      "name": "setDayPeriod",
      "outputs": [],
      "stateMutability": "nonpayable",
      "type": "function"
    },
    {
      "inputs": [
        {
          "internalType": "address",
          "name": "_pair",
          "type": "address"
        }
      ],
      "name": "addPair",
      "outputs": [],
      "stateMutability": "nonpayable",
      "type": "function"
    },
    {
      "inputs": [
        {
          "internalType": "address",
          "name": "_pair",
          "type": "address"
        }
      ],
      "name": "removePair",
      "outputs": [],
      "stateMutability": "nonpayable",
      "type": "function"
    },
    {
      "inputs": [
        {
          "internalType": "uint256",
          "name": "_amount",
          "type": "uint256"
        }
      ],
      "name": "setDistributeGarbiAmount",
      "outputs": [],
      "stateMutability": "nonpayable",
      "type": "function"
    },
    {
      "inputs": [],
      "name": "setPerformanceMachine",
      "outputs": [],
      "stateMutability": "nonpayable",
      "type": "function"
    },
    {
      "inputs": [],
      "name": "setSafuFundContract",
      "outputs": [],
      "stateMutability": "nonpayable",
      "type": "function"
    },
    {
      "inputs": [],
      "name": "setPerformanceFee",
      "outputs": [],
      "stateMutability": "nonpayable",
      "type": "function"
    },
    {
      "inputs": [],
      "name": "setSafuFee",
      "outputs": [],
      "stateMutability": "nonpayable",
      "type": "function"
    },
    {
      "inputs": [],
      "name": "setMaxFeeOnDistribute",
      "outputs": [],
      "stateMutability": "nonpayable",
      "type": "function"
    },
    {
      "inputs": [
        {
          "internalType": "contract IERC20",
          "name": "token",
          "type": "address"
        },
        {
          "internalType": "address",
          "name": "trader",
          "type": "address"
        }
      ],
      "name": "processTradeFee",
      "outputs": [],
      "stateMutability": "nonpayable",
      "type": "function"
    },
    {
      "inputs": [
        {
          "internalType": "contract IERC20",
          "name": "_lp",
          "type": "address"
        }
      ],
      "name": "getTradeFeeAPY",
      "outputs": [
        {
          "internalType": "uint256",
          "name": "",
          "type": "uint256"
        }
      ],
      "stateMutability": "view",
      "type": "function"
    },
    {
      "inputs": [
        {
          "internalType": "address",
          "name": "_lp",
          "type": "address"
        }
      ],
      "name": "getVolume",
      "outputs": [
        {
          "internalType": "uint256",
          "name": "",
          "type": "uint256"
        }
      ],
      "stateMutability": "view",
      "type": "function"
    }
  ],
  "bytecode": "0x6080604052601060055560046006556702c68af0bb140000600755671bc16d674ec80000600855620151806009553480156200003a57600080fd5b5060405162001f3138038062001f318339810160408190526200005d9162000125565b6200006833620000bc565b600480546001600160a01b03199081166001600160a01b039384161790915560028054821694831694909417909355600380548416928216929092179091556001805490921692169190911790556200018d565b600080546001600160a01b038381166001600160a01b0319831681178455604051919092169283917f8be0079c531659141344cd1fd0a4f28419497f9722a3daafe3b4186f6b6457e09190a35050565b6001600160a01b03811681146200012257600080fd5b50565b600080600080608085870312156200013c57600080fd5b845162000149816200010c565b60208601519094506200015c816200010c565b60408601519093506200016f816200010c565b606086015190925062000182816200010c565b939692955090935050565b611d94806200019d6000396000f3fe608060405234801561001057600080fd5b50600436106101c45760003560e01c80638ba17f86116100f9578063e1ab99a411610097578063f2fde38b11610071578063f2fde38b14610384578063f6b6670a14610397578063fa9978e5146103aa578063fe33b302146103b357600080fd5b8063e1ab99a41461035f578063e8defac714610368578063e93f56651461037b57600080fd5b8063a2808084116100d3578063a280808414610313578063af6c9c1d14610326578063b0176ce814610339578063c2b7bbb61461034c57600080fd5b80638ba17f86146102e65780638da5cb5b146102f95780639f9c06291461030a57600080fd5b80634f62010e116101665780636da5c211116101405780636da5c211146102bb5780636e9322b3146102c3578063715018a6146102cb5780638152254c146102d357600080fd5b80634f62010e14610275578063605435901461027d5780636a0d3659146102a857600080fd5b80633e6566bf116101a25780633e6566bf1461023a57806342219a931461024357806345aa85391461024d5780634f09d9081461026d57600080fd5b8063071d2fda146101c957806310455de5146101fc57806310a57f3a1461020f575b600080fd5b6101e96101d7366004611710565b600d6020526000908152604090205481565b6040519081526020015b60405180910390f35b6101e961020a366004611710565b6103e6565b600454610222906001600160a01b031681565b6040516001600160a01b0390911681526020016101f3565b6101e960065481565b61024b610535565b005b6101e961025b366004611710565b600c6020526000908152604090205481565b61024b610708565b61024b61089e565b6101e961028b366004611734565b600b60209081526000928352604080842090915290825290205481565b600354610222906001600160a01b031681565b61024b610aca565b61024b610c60565b61024b610e57565b61024b6102e1366004611760565b610e6b565b6101e96102f4366004611710565b611196565b6000546001600160a01b0316610222565b6101e960075481565b600254610222906001600160a01b031681565b61024b610334366004611710565b611241565b600154610222906001600160a01b031681565b61024b61035a366004611710565b6112c9565b6101e960085481565b61024b610376366004611799565b611350565b6101e960055481565b61024b610392366004611710565b61135d565b61024b6103a5366004611799565b6113d6565b6101e960095481565b6103d66103c1366004611710565b600a6020526000908152604090205460ff1681565b60405190151581526020016101f3565b600080826001600160a01b03166318160ddd6040518163ffffffff1660e01b8152600401602060405180830381865afa158015610427573d6000803e3d6000fd5b505050506040513d601f19601f8201168201806040525081019061044b91906117b2565b6001600160a01b0384166000908152600d602052604081205491925080825b6104756001846117e1565b6001600160a01b0388166000908152600b602090815260408083208584529091529020549093506104a79083906113e3565b915060078310156104c457806104bc816117f4565b91505061046a565b50600082116104d95750600095945050505050565b600084116104ed5750600095945050505050565b60006104f982846113f8565b905061052a610509866002611404565b61052461016d61051e8564e8d4a51000611404565b90611404565b906113f8565b979650505050505050565b61053d611410565b6004805460405163109cc30b60e21b81526001600160a01b03909116916342730c2c9161056c9130910161182f565b602060405180830381865afa158015610589573d6000803e3d6000fd5b505050506040513d601f19601f820116820180604052508101906105ad9190611852565b6105d25760405162461bcd60e51b81526004016105c990611874565b60405180910390fd5b60048054604051636076dea560e11b81526001600160a01b039091169163c0edbd4a91610601913091016118a0565b602060405180830381865afa15801561061e573d6000803e3d6000fd5b505050506040513d601f19601f8201168201806040525081019061064291906117b2565b60055560048054604051636e977f0b60e01b81526001600160a01b0390911691636e977f0b9161067591600291016118f1565b600060405180830381600087803b15801561068f57600080fd5b505af11580156106a3573d6000803e3d6000fd5b5050600480546040516345503fcb60e11b81526001600160a01b039091169350638aa07f9692506106d49101611943565b600060405180830381600087803b1580156106ee57600080fd5b505af1158015610702573d6000803e3d6000fd5b50505050565b610710611410565b6004805460405163109cc30b60e21b81526001600160a01b03909116916342730c2c9161073f91309101611972565b602060405180830381865afa15801561075c573d6000803e3d6000fd5b505050506040513d601f19601f820116820180604052508101906107809190611852565b61079c5760405162461bcd60e51b81526004016105c990611874565b60048054604051636076dea560e11b81526001600160a01b039091169163c0edbd4a916107cb91309101611995565b602060405180830381865afa1580156107e8573d6000803e3d6000fd5b505050506040513d601f19601f8201168201806040525081019061080c91906117b2565b60065560048054604051636e977f0b60e01b81526001600160a01b0390911691636e977f0b9161083f91600291016119e0565b600060405180830381600087803b15801561085957600080fd5b505af115801561086d573d6000803e3d6000fd5b5050600480546040516345503fcb60e11b81526001600160a01b039091169350638aa07f9692506106d49101611a1a565b6108a6611410565b6004805460405163109cc30b60e21b81526001600160a01b03909116916342730c2c916108d591309101611a52565b602060405180830381865afa1580156108f2573d6000803e3d6000fd5b505050506040513d601f19601f820116820180604052508101906109169190611852565b6109325760405162461bcd60e51b81526004016105c990611874565b60048054604051636bfb078d60e01b81526000926001600160a01b0390921691636bfb078d9161096491309101611a75565b602060405180830381865afa158015610981573d6000803e3d6000fd5b505050506040513d601f19601f820116820180604052508101906109a59190611ac7565b90506001600160a01b0381166109ef5760405162461bcd60e51b815260206004820152600f60248201526e494e56414c49445f4144445245535360881b60448201526064016105c9565b600380546001600160a01b0319166001600160a01b038381169190911790915560048054604051636e977f0b60e01b8152921691636e977f0b91610a369160019101611ae4565b600060405180830381600087803b158015610a5057600080fd5b505af1158015610a64573d6000803e3d6000fd5b5050600480546040516345503fcb60e11b81526001600160a01b039091169350638aa07f969250610a959101611b25565b600060405180830381600087803b158015610aaf57600080fd5b505af1158015610ac3573d6000803e3d6000fd5b5050505050565b610ad2611410565b6004805460405163109cc30b60e21b81526001600160a01b03909116916342730c2c91610b0191309101611b5f565b602060405180830381865afa158015610b1e573d6000803e3d6000fd5b505050506040513d601f19601f82011682018060405250810190610b429190611852565b610b5e5760405162461bcd60e51b81526004016105c990611874565b60048054604051636076dea560e11b81526001600160a01b039091169163c0edbd4a91610b8d91309101611b82565b602060405180830381865afa158015610baa573d6000803e3d6000fd5b505050506040513d601f19601f82011682018060405250810190610bce91906117b2565b60085560048054604051636e977f0b60e01b81526001600160a01b0390911691636e977f0b91610c019160029101611bd9565b600060405180830381600087803b158015610c1b57600080fd5b505af1158015610c2f573d6000803e3d6000fd5b5050600480546040516345503fcb60e11b81526001600160a01b039091169350638aa07f9692506106d49101611c1f565b610c68611410565b6004805460405163109cc30b60e21b81526001600160a01b03909116916342730c2c91610c9791309101611c59565b602060405180830381865afa158015610cb4573d6000803e3d6000fd5b505050506040513d601f19601f82011682018060405250810190610cd89190611852565b610cf45760405162461bcd60e51b81526004016105c990611874565b60048054604051636bfb078d60e01b81526000926001600160a01b0390921691636bfb078d91610d2691309101611c7c565b602060405180830381865afa158015610d43573d6000803e3d6000fd5b505050506040513d601f19601f82011682018060405250810190610d679190611ac7565b90506001600160a01b038116610db15760405162461bcd60e51b815260206004820152600f60248201526e494e56414c49445f4144445245535360881b60448201526064016105c9565b600280546001600160a01b0319166001600160a01b038381169190911790915560048054604051636e977f0b60e01b8152921691636e977f0b91610df89160019101611cd0565b600060405180830381600087803b158015610e1257600080fd5b505af1158015610e26573d6000803e3d6000fd5b5050600480546040516345503fcb60e11b81526001600160a01b039091169350638aa07f969250610a959101611d13565b610e5f611410565b610e69600061146a565b565b336000908152600a602052604090205460ff161515600114610ec25760405162461bcd60e51b815260206004820152601060248201526f1410525497d393d517d0d3d4949150d560821b60448201526064016105c9565b6040516370a0823160e01b81523060048201526000906001600160a01b038416906370a0823190602401602060405180830381865afa158015610f09573d6000803e3d6000fd5b505050506040513d601f19601f82011682018060405250810190610f2d91906117b2565b905060008111610f745760405162461bcd60e51b8152602060048201526012602482015271544f4b454e5f42414c414e43455f5a45524f60701b60448201526064016105c9565b6000610f9060646105246005548561140490919063ffffffff16565b90506000610fae60646105246006548661140490919063ffffffff16565b60025460405163a9059cbb60e01b81526001600160a01b0391821660048201526024810185905291925086169063a9059cbb906044016020604051808303816000875af1158015611003573d6000803e3d6000fd5b505050506040513d601f19601f820116820180604052508101906110279190611852565b5060035460405163a9059cbb60e01b81526001600160a01b039182166004820152602481018390529086169063a9059cbb906044016020604051808303816000875af115801561107b573d6000803e3d6000fd5b505050506040513d601f19601f8201168201806040525081019061109f9190611852565b506040516370a0823160e01b81523060048201526001600160a01b0386169063a9059cbb90339083906370a0823190602401602060405180830381865afa1580156110ee573d6000803e3d6000fd5b505050506040513d601f19601f8201168201806040525081019061111291906117b2565b6040516001600160e01b031960e085901b1681526001600160a01b03909216600483015260248201526044016020604051808303816000875af115801561115d573d6000803e3d6000fd5b505050506040513d601f19601f820116820180604052508101906111819190611852565b5061118c84846114ba565b610ac3338461161d565b600080826001600160a01b031663d13229626040518163ffffffff1660e01b8152600401602060405180830381865afa1580156111d7573d6000803e3d6000fd5b505050506040513d601f19601f820116820180604052508101906111fb91906117b2565b6001600160a01b0384166000908152600b60209081526040808320600d835281842054845290915290205490915061123982610524836103e8611404565b949350505050565b611249611410565b6001600160a01b0381166000908152600a602052604090205460ff1615156001146112a85760405162461bcd60e51b815260206004820152600f60248201526e1393d517d25397d5121157d31254d5608a1b60448201526064016105c9565b6001600160a01b03166000908152600a60205260409020805460ff19169055565b6112d1611410565b6001600160a01b0381166000908152600a602052604090205460ff16151560010361132c5760405162461bcd60e51b815260206004820152600b60248201526a125397d5121157d31254d560aa1b60448201526064016105c9565b6001600160a01b03166000908152600a60205260409020805460ff19166001179055565b611358611410565b600955565b611365611410565b6001600160a01b0381166113ca5760405162461bcd60e51b815260206004820152602660248201527f4f776e61626c653a206e6577206f776e657220697320746865207a65726f206160448201526564647265737360d01b60648201526084016105c9565b6113d38161146a565b50565b6113de611410565b600755565b60006113ef82846117e1565b90505b92915050565b60006113ef8284611d25565b60006113ef8284611d47565b6000546001600160a01b03163314610e695760405162461bcd60e51b815260206004820181905260248201527f4f776e61626c653a2063616c6c6572206973206e6f7420746865206f776e657260448201526064016105c9565b600080546001600160a01b038381166001600160a01b0319831681178455604051919092169283917f8be0079c531659141344cd1fd0a4f28419497f9722a3daafe3b4186f6b6457e09190a35050565b6001546040516370a0823160e01b81523060048201526000916001600160a01b0316906370a0823190602401602060405180830381865afa158015611503573d6000803e3d6000fd5b505050506040513d601f19601f8201168201806040525081019061152791906117b2565b6007546008549192509083101561154c57600854611549906105248386611404565b90505b818111156115575750805b80156107025760015460405163a9059cbb60e01b81526001600160a01b038681166004830152602482018490529091169063a9059cbb906044016020604051808303816000875af11580156115b0573d6000803e3d6000fd5b505050506040513d601f19601f820116820180604052508101906115d49190611852565b50604080516001600160a01b0386168152602081018390527f96eaa1ed1e7f1418c12a0485dc6a8c4b3567c2b7ef81cf269a38c7d256b06f1a910160405180910390a150505050565b6009546001600160a01b0383166000908152600c6020526040902054429161164591906113e3565b11611694576001600160a01b0382166000908152600d602052604081208054600192906116739084906117e1565b90915550506001600160a01b0382166000908152600c602052604090204290555b6001600160a01b0382166000908152600b60209081526040808320600d83528184205484529091529020546116c990826113e3565b6001600160a01b039092166000908152600b60209081526040808320600d835281842054845290915290209190915550565b6001600160a01b03811681146113d357600080fd5b60006020828403121561172257600080fd5b813561172d816116fb565b9392505050565b6000806040838503121561174757600080fd5b8235611752816116fb565b946020939093013593505050565b6000806040838503121561177357600080fd5b823561177e816116fb565b9150602083013561178e816116fb565b809150509250929050565b6000602082840312156117ab57600080fd5b5035919050565b6000602082840312156117c457600080fd5b5051919050565b634e487b7160e01b600052601160045260246000fd5b808201808211156113f2576113f26117cb565b600081611803576118036117cb565b506000190190565b6011815270736574506572666f726d616e636546656560781b602082015260400190565b6001600160a01b03821681526040602082018190526000906113ef90830161180b565b60006020828403121561186457600080fd5b8151801515811461172d57600080fd5b60208082526012908201527124a72b20a624a22fa822a926a4a9a9a4a7a760711b604082015260600190565b6001600160a01b03821681526060602082018190526000906118c390830161180b565b828103604084015261123981600f81526e504552464f524d414e43455f46454560881b602082015260400190565b6060815260006119036060830161180b565b828103602084015261193181600f81526e504552464f524d414e43455f46454560881b602082015260400190565b91505060ff8316604083015292915050565b6020815260006113f26020830161180b565b600a8152697365745361667546656560b01b602082015260400190565b6001600160a01b03821681526040602082018190526000906113ef908301611955565b6001600160a01b03821681526060602082018190526000906119b8908301611955565b828103604084015261123981600981526814d0519557d195539160ba1b602082015260400190565b6060815260006119f260608301611955565b828103602084015261193181600981526814d0519557d195539160ba1b602082015260400190565b6020815260006113f260208301611955565b60138152721cd95d14d8599d519d5b9910dbdb9d1c9858dd606a1b602082015260400190565b6001600160a01b03821681526040602082018190526000906113ef908301611a2c565b6001600160a01b0382168152606060208201819052600090611a98908301611a2c565b828103604084015261123981601081526f1cd8599d519d5b9910dbdb9d1c9858dd60821b602082015260400190565b600060208284031215611ad957600080fd5b815161172d816116fb565b606081526000611af660608301611a2c565b828103602084015261193181601081526f1cd8599d519d5b9910dbdb9d1c9858dd60821b602082015260400190565b6020815260006113f260208301611a2c565b60158152747365744d61784665654f6e4469737472696275746560581b602082015260400190565b6001600160a01b03821681526040602082018190526000906113ef908301611b37565b6001600160a01b0382168152606060208201819052600090611ba5908301611b37565b82810360408401526112398160158152744d41585f4645455f4f4e5f4449535452494255544560581b602082015260400190565b606081526000611beb60608301611b37565b82810360208401526119318160158152744d41585f4645455f4f4e5f4449535452494255544560581b602082015260400190565b6020815260006113f260208301611b37565b6015815274736574506572666f726d616e63654d616368696e6560581b602082015260400190565b6001600160a01b03821681526040602082018190526000906113ef908301611c31565b6001600160a01b0382168152606060208201819052600090611c9f908301611c31565b8281036040840152611239816012815271706572666f726d616e63654d616368696e6560701b602082015260400190565b606081526000611ce260608301611c31565b8281036020840152611931816012815271706572666f726d616e63654d616368696e6560701b602082015260400190565b6020815260006113f260208301611c31565b600082611d4257634e487b7160e01b600052601260045260246000fd5b500490565b80820281158282048414176113f2576113f26117cb56fea26469706673582212200e9d6f3de37ea58ce20cd66e70ab4e08a4d90d0daccb21bd36b63b1672604f7a64736f6c63430008110033",
  "immutableReferences": {},
  "source": "// SPDX-License-Identifier: MIT\r\npragma solidity >=0.6.12;\r\n\r\nimport \"@openzeppelin/contracts/utils/math/SafeMath.sol\";\r\nimport \"@openzeppelin/contracts/token/ERC20/IERC20.sol\";\r\nimport \"@openzeppelin/contracts/access/Ownable.sol\";\r\n\r\nimport './interfaces/IGarbiTimeLock.sol';\r\n\r\ncontract ISwapTrade {\r\n    uint256 public TRADE_FEE; //0.1% 1/1000\r\n} \r\n\r\ncontract GarbiswapFeeMachine is Ownable{\r\n    \r\n    using SafeMath for uint256;\r\n\r\n    IERC20 public GRB;\r\n    \r\n    address public performanceMachineContract; // the contract will use fee to Buy GARBI on pancakeswap , then burn\r\n    address public safuFundContract;\r\n\r\n    IGarbiTimeLock public garbiTimeLockContract;\r\n\r\n    uint256 public PERFORMANCE_FEE = 16; //16% 16/100 from 0.1% trade fee \r\n    uint256 public SAFU_FUND = 4; //4% 4/100 from 0.1% trade fee\r\n\r\n    uint256 public DISTRIBUTE_GARBI_AMOUNT = 2 * 1e17;\r\n    // $1000 => fee = 1000*0.2/100 => 2\r\n    uint256 public MAX_FEE_ON_DISTRIBUTE = 2 * 1e18;\r\n    uint256 public DAY_PERIOD = 1 days;\r\n\r\n    mapping (address => bool) public pairs;\r\n    mapping (address => mapping(uint256 => uint256)) public feeOf;\r\n    mapping (address => uint256) public timeOfCreateNewFee;\r\n    mapping (address => uint256) public totalDays;\r\n\r\n    event onDistributeGarbi(address _trader, uint256 _amount);\r\n    \r\n    constructor(\r\n        IERC20 _grb,\r\n        address _performanceMachineContract, \r\n        address _safuFundContract,\r\n        IGarbiTimeLock _garbiTimeLockContract\r\n        ) {\r\n        garbiTimeLockContract = _garbiTimeLockContract;\r\n        performanceMachineContract = _performanceMachineContract;\r\n        safuFundContract = _safuFundContract;\r\n\r\n        GRB = _grb;\r\n    }\r\n\r\n    function setDayPeriod(uint256 _value) public onlyOwner {\r\n        DAY_PERIOD = _value;\r\n    }\r\n    function addPair(address _pair) public onlyOwner {\r\n        require(pairs[_pair] != true, \"IN_THE_LIST\");\r\n        pairs[_pair] = true;\r\n    }\r\n\r\n    function removePair(address _pair) public onlyOwner {\r\n        require(pairs[_pair] == true, \"NOT_IN_THE_LIST\");\r\n        pairs[_pair] = false;\r\n    }\r\n\r\n    function setDistributeGarbiAmount(uint256 _amount) public onlyOwner {\r\n        DISTRIBUTE_GARBI_AMOUNT = _amount;\r\n    }\r\n\r\n\r\n    function setPerformanceMachine() public onlyOwner {\r\n\r\n        require(garbiTimeLockContract.isQueuedTransaction(address(this), 'setPerformanceMachine'), \"INVALID_PERMISSION\");\r\n\r\n        address _performanceMachine = garbiTimeLockContract.getAddressChangeOnTimeLock(address(this), 'setPerformanceMachine', 'performanceMachine');\r\n\r\n        require(_performanceMachine != address(0), \"INVALID_ADDRESS\");\r\n\r\n        performanceMachineContract = _performanceMachine;\r\n\r\n        garbiTimeLockContract.clearFieldValue('setPerformanceMachine', 'performanceMachine', 1);\r\n        garbiTimeLockContract.doneTransactions('setPerformanceMachine');\r\n    }\r\n\r\n    function setSafuFundContract() public onlyOwner {\r\n\r\n        require(garbiTimeLockContract.isQueuedTransaction(address(this), 'setSafuFundContract'), \"INVALID_PERMISSION\");\r\n\r\n        address _safuFundContract = garbiTimeLockContract.getAddressChangeOnTimeLock(address(this), 'setSafuFundContract', 'safuFundContract');\r\n\r\n        require(_safuFundContract != address(0), \"INVALID_ADDRESS\");\r\n\r\n        safuFundContract = _safuFundContract;\r\n\r\n        garbiTimeLockContract.clearFieldValue('setSafuFundContract', 'safuFundContract', 1);\r\n        garbiTimeLockContract.doneTransactions('setSafuFundContract');\r\n    }\r\n\r\n    function setPerformanceFee() public onlyOwner {\r\n\r\n        require(garbiTimeLockContract.isQueuedTransaction(address(this), 'setPerformanceFee'), \"INVALID_PERMISSION\");\r\n\r\n        PERFORMANCE_FEE = garbiTimeLockContract.getUintChangeOnTimeLock(address(this), 'setPerformanceFee', 'PERFORMANCE_FEE');\r\n\r\n        garbiTimeLockContract.clearFieldValue('setPerformanceFee', 'PERFORMANCE_FEE', 2);\r\n        garbiTimeLockContract.doneTransactions('setPerformanceFee');\r\n    }\r\n\r\n    function setSafuFee() public onlyOwner {\r\n\r\n        require(garbiTimeLockContract.isQueuedTransaction(address(this), 'setSafuFee'), \"INVALID_PERMISSION\");\r\n\r\n        SAFU_FUND = garbiTimeLockContract.getUintChangeOnTimeLock(address(this), 'setSafuFee', 'SAFU_FUND');\r\n\r\n        garbiTimeLockContract.clearFieldValue('setSafuFee', 'SAFU_FUND', 2);\r\n        garbiTimeLockContract.doneTransactions('setSafuFee');\r\n    }\r\n\r\n\r\n    function setMaxFeeOnDistribute() public onlyOwner {\r\n\r\n        require(garbiTimeLockContract.isQueuedTransaction(address(this), 'setMaxFeeOnDistribute'), \"INVALID_PERMISSION\");\r\n\r\n        MAX_FEE_ON_DISTRIBUTE = garbiTimeLockContract.getUintChangeOnTimeLock(address(this), 'setMaxFeeOnDistribute', 'MAX_FEE_ON_DISTRIBUTE');\r\n\r\n        garbiTimeLockContract.clearFieldValue('setMaxFeeOnDistribute', 'MAX_FEE_ON_DISTRIBUTE', 2);\r\n        garbiTimeLockContract.doneTransactions('setMaxFeeOnDistribute');\r\n    }\r\n\r\n    function processTradeFee(IERC20 token, address trader) public {\r\n\r\n        require(pairs[msg.sender] == true, \"PAIR_NOT_CORRECT\");\r\n\r\n        uint256 tokenBalance = token.balanceOf(address(this)); \r\n        require(tokenBalance > 0, \"TOKEN_BALANCE_ZERO\");\r\n        uint256 performanceFee = tokenBalance.mul(PERFORMANCE_FEE).div(100);\r\n        uint256 safuFundAmount = tokenBalance.mul(SAFU_FUND).div(100);\r\n        token.transfer(performanceMachineContract, performanceFee);\r\n        token.transfer(safuFundContract, safuFundAmount);\r\n        token.transfer(msg.sender, token.balanceOf(address(this))); //send back the trade fee after cut 20% (trade fee for LP = 0.24%)\r\n\r\n        _distributeGarbi(trader, tokenBalance);\r\n        _updateDailyFee(msg.sender, tokenBalance);\r\n    }\r\n\r\n    function _updateDailyFee(address _lp, uint256 _fee) private {\r\n        if (timeOfCreateNewFee[_lp].add(DAY_PERIOD) <= block.timestamp) {\r\n            totalDays[_lp] += 1;\r\n            timeOfCreateNewFee[_lp] = block.timestamp;\r\n        } \r\n        feeOf[_lp][totalDays[_lp]] = feeOf[_lp][totalDays[_lp]].add(_fee);\r\n    }\r\n\r\n    function _distributeGarbi(address trader, uint256 fee) private {\r\n        uint256 _grbBal = GRB.balanceOf(address(this));\r\n        uint256 _distributeAmt = DISTRIBUTE_GARBI_AMOUNT;\r\n\r\n        if (fee < MAX_FEE_ON_DISTRIBUTE) {\r\n            _distributeAmt = _distributeAmt.mul(fee).div(MAX_FEE_ON_DISTRIBUTE);\r\n        }\r\n\r\n        if (_distributeAmt > _grbBal) {\r\n            _distributeAmt = _grbBal;\r\n        }\r\n        if (_distributeAmt > 0) {\r\n            GRB.transfer(trader, _distributeAmt);\r\n            emit onDistributeGarbi(trader, _distributeAmt);\r\n        }\r\n    }\r\n    function getTradeFeeAPY(IERC20 _lp) public view returns(uint256) {\r\n        uint256 _totalSupply = _lp.totalSupply(); // Base and Token = 2 * total supply\r\n        uint256 _totalDays = totalDays[address(_lp)];\r\n        uint256 _count = 0;\r\n        uint256 _totalFee = 0;\r\n        for (uint256 idx = _totalDays; idx >= 0; idx--) {\r\n            _count += 1;\r\n            _totalFee = _totalFee.add(feeOf[address(_lp)][idx]);\r\n            if (_count >= 7) {\r\n                break;\r\n            }\r\n        }\r\n        if (_count <= 0) {\r\n            return 0;\r\n        }\r\n        if (_totalSupply <= 0) {\r\n            return 0;\r\n        }\r\n        uint256 _dailyFee = _totalFee.div(_count);\r\n        return _dailyFee.mul(1e12).mul(365).div(_totalSupply.mul(2));\r\n    }\r\n    function getVolume(address _lp) public view returns(uint256) {\r\n        uint256 _tradeFee = ISwapTrade(_lp).TRADE_FEE();\r\n        uint256 _feeOnLastDay = feeOf[_lp][totalDays[_lp]];\r\n        // TRADE_FEE = 2; //0.2% 2/1000\r\n        // $1000 => fee = 1000*0.2/100 => 2\r\n        // => Volume = 1000 * fee / TRADE_FEE\r\n        return _feeOnLastDay.mul(1000).div(_tradeFee);\r\n    }\r\n}",
  "sourcePath": "C:\\Users\\David\\Documents\\NetBeansProjects\\garbiprotocol.github.io\\garbi_contracts\\contracts\\GarbiswapFeeMachine.sol",
  "compiler": {
    "name": "solc",
    "version": "0.8.17+commit.8df45f5f.Emscripten.clang"
  },
  "schemaVersion": "3.4.11",
  "updatedAt": "2023-01-10T03:16:17.918Z",
  "networkType": "ethereum",
  "devdoc": {
    "kind": "dev",
    "methods": {
      "owner()": {
        "details": "Returns the address of the current owner."
      },
      "renounceOwnership()": {
        "details": "Leaves the contract without owner. It will not be possible to call `onlyOwner` functions anymore. Can only be called by the current owner. NOTE: Renouncing ownership will leave the contract without an owner, thereby removing any functionality that is only available to the owner."
      },
      "transferOwnership(address)": {
        "details": "Transfers ownership of the contract to a new account (`newOwner`). Can only be called by the current owner."
      }
    },
    "version": 1
  },
  "userdoc": {
    "kind": "user",
    "methods": {},
    "version": 1
  }
}