{
  "contractName": "GarbiRepositoryManager",
  "abi": [
    {
      "inputs": [
        {
          "internalType": "contract IERC20withBurnAndMint",
          "name": "garbiECContract",
          "type": "address"
        },
        {
          "internalType": "contract IGarbiswapWhitelist",
          "name": "whitelistContract",
          "type": "address"
        }
      ],
      "stateMutability": "nonpayable",
      "type": "constructor"
    },
    {
      "anonymous": false,
      "inputs": [
        {
          "indexed": true,
          "internalType": "address",
          "name": "previousOwner",
          "type": "address"
        },
        {
          "indexed": true,
          "internalType": "address",
          "name": "newOwner",
          "type": "address"
        }
      ],
      "name": "OwnershipTransferred",
      "type": "event"
    },
    {
      "anonymous": false,
      "inputs": [
        {
          "indexed": false,
          "internalType": "address",
          "name": "account",
          "type": "address"
        }
      ],
      "name": "Paused",
      "type": "event"
    },
    {
      "anonymous": false,
      "inputs": [
        {
          "indexed": false,
          "internalType": "address",
          "name": "account",
          "type": "address"
        }
      ],
      "name": "Unpaused",
      "type": "event"
    },
    {
      "anonymous": false,
      "inputs": [
        {
          "indexed": false,
          "internalType": "address",
          "name": "repoAddress",
          "type": "address"
        },
        {
          "indexed": false,
          "internalType": "uint256",
          "name": "repoShare",
          "type": "uint256"
        },
        {
          "indexed": false,
          "internalType": "uint256",
          "name": "repoMaxCapacityLimit",
          "type": "uint256"
        }
      ],
      "name": "onAddRepository",
      "type": "event"
    },
    {
      "anonymous": false,
      "inputs": [
        {
          "indexed": false,
          "internalType": "address",
          "name": "user",
          "type": "address"
        },
        {
          "indexed": false,
          "internalType": "address",
          "name": "repoInAddress",
          "type": "address"
        },
        {
          "indexed": false,
          "internalType": "uint256",
          "name": "assetInAmount",
          "type": "uint256"
        },
        {
          "indexed": false,
          "internalType": "uint256",
          "name": "garbiECOutAmount",
          "type": "uint256"
        }
      ],
      "name": "onBuyGarbiEC",
      "type": "event"
    },
    {
      "anonymous": false,
      "inputs": [
        {
          "indexed": false,
          "internalType": "address",
          "name": "user",
          "type": "address"
        },
        {
          "indexed": false,
          "internalType": "address",
          "name": "repoOutAddress",
          "type": "address"
        },
        {
          "indexed": false,
          "internalType": "uint256",
          "name": "assetOutAmount",
          "type": "uint256"
        },
        {
          "indexed": false,
          "internalType": "uint256",
          "name": "garbiECInAmount",
          "type": "uint256"
        }
      ],
      "name": "onSellGarbiEC",
      "type": "event"
    },
    {
      "anonymous": false,
      "inputs": [
        {
          "indexed": false,
          "internalType": "address",
          "name": "user",
          "type": "address"
        },
        {
          "indexed": false,
          "internalType": "address",
          "name": "repoInAddress",
          "type": "address"
        },
        {
          "indexed": false,
          "internalType": "address",
          "name": "repoOutAddress",
          "type": "address"
        },
        {
          "indexed": false,
          "internalType": "uint256",
          "name": "tokenInputAmount",
          "type": "uint256"
        },
        {
          "indexed": false,
          "internalType": "uint256",
          "name": "tokenOutputAmount",
          "type": "uint256"
        }
      ],
      "name": "onSwapTokenToToken",
      "type": "event"
    },
    {
      "anonymous": false,
      "inputs": [
        {
          "indexed": false,
          "internalType": "address",
          "name": "repoAddress",
          "type": "address"
        },
        {
          "indexed": false,
          "internalType": "uint256",
          "name": "repoShare",
          "type": "uint256"
        },
        {
          "indexed": false,
          "internalType": "uint256",
          "name": "repoMaxCapacityLimit",
          "type": "uint256"
        }
      ],
      "name": "onUpdateRepository",
      "type": "event"
    },
    {
      "inputs": [],
      "name": "GarbiEC",
      "outputs": [
        {
          "internalType": "contract IERC20withBurnAndMint",
          "name": "",
          "type": "address"
        }
      ],
      "stateMutability": "view",
      "type": "function",
      "constant": true
    },
    {
      "inputs": [
        {
          "internalType": "address",
          "name": "",
          "type": "address"
        }
      ],
      "name": "baseToRepo",
      "outputs": [
        {
          "internalType": "address",
          "name": "",
          "type": "address"
        }
      ],
      "stateMutability": "view",
      "type": "function",
      "constant": true
    },
    {
      "inputs": [],
      "name": "owner",
      "outputs": [
        {
          "internalType": "address",
          "name": "",
          "type": "address"
        }
      ],
      "stateMutability": "view",
      "type": "function",
      "constant": true
    },
    {
      "inputs": [],
      "name": "paused",
      "outputs": [
        {
          "internalType": "bool",
          "name": "",
          "type": "bool"
        }
      ],
      "stateMutability": "view",
      "type": "function",
      "constant": true
    },
    {
      "inputs": [],
      "name": "platformFundAddress",
      "outputs": [
        {
          "internalType": "address",
          "name": "",
          "type": "address"
        }
      ],
      "stateMutability": "view",
      "type": "function",
      "constant": true
    },
    {
      "inputs": [],
      "name": "renounceOwnership",
      "outputs": [],
      "stateMutability": "nonpayable",
      "type": "function"
    },
    {
      "inputs": [
        {
          "internalType": "uint256",
          "name": "",
          "type": "uint256"
        }
      ],
      "name": "repoAddresses",
      "outputs": [
        {
          "internalType": "address",
          "name": "",
          "type": "address"
        }
      ],
      "stateMutability": "view",
      "type": "function",
      "constant": true
    },
    {
      "inputs": [
        {
          "internalType": "address",
          "name": "",
          "type": "address"
        }
      ],
      "name": "repoList",
      "outputs": [
        {
          "internalType": "uint256",
          "name": "share",
          "type": "uint256"
        },
        {
          "internalType": "uint256",
          "name": "maxCapacityLimit",
          "type": "uint256"
        }
      ],
      "stateMutability": "view",
      "type": "function",
      "constant": true
    },
    {
      "inputs": [],
      "name": "totalShares",
      "outputs": [
        {
          "internalType": "uint256",
          "name": "",
          "type": "uint256"
        }
      ],
      "stateMutability": "view",
      "type": "function",
      "constant": true
    },
    {
      "inputs": [
        {
          "internalType": "address",
          "name": "newOwner",
          "type": "address"
        }
      ],
      "name": "transferOwnership",
      "outputs": [],
      "stateMutability": "nonpayable",
      "type": "function"
    },
    {
      "inputs": [],
      "name": "whitelist",
      "outputs": [
        {
          "internalType": "contract IGarbiswapWhitelist",
          "name": "",
          "type": "address"
        }
      ],
      "stateMutability": "view",
      "type": "function",
      "constant": true
    },
    {
      "inputs": [
        {
          "internalType": "address",
          "name": "repoAddress",
          "type": "address"
        },
        {
          "internalType": "uint256",
          "name": "repoShare",
          "type": "uint256"
        },
        {
          "internalType": "uint256",
          "name": "repoMaxCapacityLimit",
          "type": "uint256"
        }
      ],
      "name": "addRepository",
      "outputs": [],
      "stateMutability": "nonpayable",
      "type": "function"
    },
    {
      "inputs": [
        {
          "internalType": "address",
          "name": "repoAddress",
          "type": "address"
        },
        {
          "internalType": "uint256",
          "name": "repoShare",
          "type": "uint256"
        },
        {
          "internalType": "uint256",
          "name": "repoMaxCapacityLimit",
          "type": "uint256"
        }
      ],
      "name": "updateRepository",
      "outputs": [],
      "stateMutability": "nonpayable",
      "type": "function"
    },
    {
      "inputs": [
        {
          "internalType": "uint256",
          "name": "newTotalShares",
          "type": "uint256"
        }
      ],
      "name": "setTotalShares",
      "outputs": [],
      "stateMutability": "nonpayable",
      "type": "function"
    },
    {
      "inputs": [
        {
          "internalType": "uint256",
          "name": "newFee",
          "type": "uint256"
        }
      ],
      "name": "setSellGarbiECFee",
      "outputs": [],
      "stateMutability": "nonpayable",
      "type": "function"
    },
    {
      "inputs": [
        {
          "internalType": "address",
          "name": "newAddress",
          "type": "address"
        }
      ],
      "name": "setPlatformFundAdress",
      "outputs": [],
      "stateMutability": "nonpayable",
      "type": "function"
    },
    {
      "inputs": [
        {
          "internalType": "contract IERC20withBurnAndMint",
          "name": "newGarbiECContract",
          "type": "address"
        }
      ],
      "name": "setGarbiEquityCertificateContract",
      "outputs": [],
      "stateMutability": "nonpayable",
      "type": "function"
    },
    {
      "inputs": [
        {
          "internalType": "address",
          "name": "repoInAddress",
          "type": "address"
        },
        {
          "internalType": "uint256",
          "name": "assetInAmount",
          "type": "uint256"
        }
      ],
      "name": "buyGarbiEquityCertificate",
      "outputs": [],
      "stateMutability": "nonpayable",
      "type": "function"
    },
    {
      "inputs": [
        {
          "internalType": "address",
          "name": "repoOutAddress",
          "type": "address"
        },
        {
          "internalType": "uint256",
          "name": "garbiECInAmount",
          "type": "uint256"
        }
      ],
      "name": "sellGarbiEquityCertificate",
      "outputs": [],
      "stateMutability": "nonpayable",
      "type": "function"
    },
    {
      "inputs": [
        {
          "internalType": "address",
          "name": "repoInAddress",
          "type": "address"
        },
        {
          "internalType": "address",
          "name": "repoOutAddress",
          "type": "address"
        },
        {
          "internalType": "uint256",
          "name": "tokenInputAmount",
          "type": "uint256"
        },
        {
          "internalType": "uint256",
          "name": "minTokenOutputAmount",
          "type": "uint256"
        }
      ],
      "name": "swapTokenToTokenWithTokenInput",
      "outputs": [],
      "stateMutability": "nonpayable",
      "type": "function"
    },
    {
      "inputs": [
        {
          "internalType": "contract IGarbiRepository",
          "name": "repoIn",
          "type": "address"
        },
        {
          "internalType": "contract IGarbiRepository",
          "name": "repoOut",
          "type": "address"
        },
        {
          "internalType": "uint256",
          "name": "tokenInputAmount",
          "type": "uint256"
        }
      ],
      "name": "getTokenOutputAmountFromTokenInput",
      "outputs": [
        {
          "internalType": "uint256",
          "name": "",
          "type": "uint256"
        }
      ],
      "stateMutability": "view",
      "type": "function",
      "constant": true
    },
    {
      "inputs": [
        {
          "internalType": "address",
          "name": "repoInAddress",
          "type": "address"
        },
        {
          "internalType": "address",
          "name": "repoOutAddress",
          "type": "address"
        },
        {
          "internalType": "uint256",
          "name": "tokenInputAmount",
          "type": "uint256"
        }
      ],
      "name": "getTokenOutputWithFee",
      "outputs": [
        {
          "internalType": "uint256",
          "name": "",
          "type": "uint256"
        }
      ],
      "stateMutability": "view",
      "type": "function",
      "constant": true
    },
    {
      "inputs": [],
      "name": "getGarbiECPrice",
      "outputs": [
        {
          "internalType": "uint256",
          "name": "garbiECPrice",
          "type": "uint256"
        }
      ],
      "stateMutability": "view",
      "type": "function",
      "constant": true
    },
    {
      "inputs": [
        {
          "internalType": "address",
          "name": "repoInAddress",
          "type": "address"
        },
        {
          "internalType": "uint256",
          "name": "assetInAmount",
          "type": "uint256"
        }
      ],
      "name": "getDataToBuyGarbiEC",
      "outputs": [
        {
          "internalType": "uint256",
          "name": "garbiECOutAmount",
          "type": "uint256"
        }
      ],
      "stateMutability": "view",
      "type": "function",
      "constant": true
    },
    {
      "inputs": [
        {
          "internalType": "address",
          "name": "repoOutAddress",
          "type": "address"
        },
        {
          "internalType": "uint256",
          "name": "garbiECInAmount",
          "type": "uint256"
        }
      ],
      "name": "getDataToSellGarbiEC",
      "outputs": [
        {
          "internalType": "uint256",
          "name": "assetOutAmount",
          "type": "uint256"
        }
      ],
      "stateMutability": "view",
      "type": "function",
      "constant": true
    },
    {
      "inputs": [
        {
          "internalType": "address",
          "name": "repoOutAddress",
          "type": "address"
        },
        {
          "internalType": "uint256",
          "name": "garbiECInAmount",
          "type": "uint256"
        }
      ],
      "name": "getDataToSellGarbiECWithFee",
      "outputs": [
        {
          "internalType": "uint256",
          "name": "assetOutAmountAfterFee",
          "type": "uint256"
        }
      ],
      "stateMutability": "view",
      "type": "function",
      "constant": true
    },
    {
      "inputs": [],
      "name": "getTotalAllRepoCapacityByUSD",
      "outputs": [
        {
          "internalType": "uint256",
          "name": "totalCapacityByUSD",
          "type": "uint256"
        }
      ],
      "stateMutability": "view",
      "type": "function",
      "constant": true
    },
    {
      "inputs": [
        {
          "internalType": "address",
          "name": "repoOutAddress",
          "type": "address"
        },
        {
          "internalType": "uint256",
          "name": "assetOutAmount",
          "type": "uint256"
        },
        {
          "internalType": "uint256",
          "name": "baseFee",
          "type": "uint256"
        }
      ],
      "name": "getSellGarbiECDynamicFee",
      "outputs": [
        {
          "internalType": "uint256",
          "name": "fee",
          "type": "uint256"
        }
      ],
      "stateMutability": "view",
      "type": "function",
      "constant": true
    },
    {
      "inputs": [
        {
          "internalType": "address",
          "name": "repoOutAddress",
          "type": "address"
        },
        {
          "internalType": "uint256",
          "name": "assetOutAmount",
          "type": "uint256"
        }
      ],
      "name": "getFeeWithOutAmount",
      "outputs": [
        {
          "internalType": "uint256",
          "name": "sellGarbiECfee",
          "type": "uint256"
        },
        {
          "internalType": "uint256",
          "name": "swapFee",
          "type": "uint256"
        }
      ],
      "stateMutability": "view",
      "type": "function",
      "constant": true
    }
  ],
  "bytecode": "0x60806040526103e8600355602360085560016009553480156200002157600080fd5b50604051620032f6380380620032f683398101604081905262000044916200012d565b60016000556200005433620000c2565b6001805460ff60a01b19169055600780546001600160a01b038085166001600160a01b0319928316179092556002805492841692909116919091179055620000993390565b600a80546001600160a01b0319166001600160a01b0392909216919091179055506200016c9050565b600180546001600160a01b038381166001600160a01b0319831681179093556040519116919082907f8be0079c531659141344cd1fd0a4f28419497f9722a3daafe3b4186f6b6457e090600090a35050565b6001600160a01b03811681146200012a57600080fd5b50565b600080604083850312156200014157600080fd5b82516200014e8162000114565b6020840151909250620001618162000114565b809150509250929050565b61317a806200017c6000396000f3fe608060405234801561001057600080fd5b50600436106101cf5760003560e01c8063a77384c111610104578063d3b76e5c116100a2578063f2fde38b11610071578063f2fde38b146103de578063f71c37bb146103f1578063fc1359d014610404578063ff78a6541461042d57600080fd5b8063d3b76e5c14610389578063ebf3da9314610391578063ec3a39c4146103a4578063eef4a00e146103b757600080fd5b8063b606e611116100de578063b606e61114610348578063bdb4da2e14610350578063c8de836814610363578063d1dc64cf1461037657600080fd5b8063a77384c1146102fa578063a84f57f51461030d578063b0baa1f31461033557600080fd5b80635c975abb116101715780638fe6041d1161014b5780638fe6041d146102ae57806393e59dc1146102c15780639fa5e63e146102d4578063a5f270b7146102e757600080fd5b80635c975abb14610264578063715018a6146102815780638da5cb5b1461028957600080fd5b80631cf67b7d116101ad5780631cf67b7d14610222578063357e4733146102355780633a98ef3914610248578063459f5e321461025157600080fd5b806305e90618146101d45780630bc8f11c146101fa57806319b1d0d81461020f575b600080fd5b6101e76101e2366004612e78565b610440565b6040519081526020015b60405180910390f35b61020d610208366004612eb9565b61052e565b005b61020d61021d366004612ee5565b610c60565b6101e7610230366004612e78565b6112d7565b61020d610243366004612f2b565b6113fc565b6101e760035481565b6101e761025f366004612eb9565b61144c565b600154600160a01b900460ff1660405190151581526020016101f1565b61020d611575565b6001546001600160a01b03165b6040516001600160a01b0390911681526020016101f1565b61020d6102bc366004612f2b565b611589565b600254610296906001600160a01b031681565b600a54610296906001600160a01b031681565b6101e76102f5366004612eb9565b6115b3565b61020d610308366004612f4f565b6116b2565b61032061031b366004612eb9565b6116df565b604080519283526020830191909152016101f1565b61020d610343366004612f68565b611873565b6101e7611a7d565b61020d61035e366004612eb9565b611b8a565b6101e7610371366004612eb9565b6122f3565b61020d610384366004612f68565b612383565b6101e76124b9565b61029661039f366004612f4f565b61263e565b6101e76103b2366004612f68565b612668565b6103206103c5366004612f2b565b6005602052600090815260409020805460019091015482565b61020d6103ec366004612f2b565b612791565b600754610296906001600160a01b031681565b610296610412366004612f2b565b6006602052600090815260409020546001600160a01b031681565b61020d61043b366004612f4f565b61280a565b600080846001600160a01b031663b49f4afd6040518163ffffffff1660e01b8152600401602060405180830381865afa158015610481573d6000803e3d6000fd5b505050506040513d601f19601f820116820180604052508101906104a59190612f9d565b90506000846001600160a01b031663b49f4afd6040518163ffffffff1660e01b8152600401602060405180830381865afa1580156104e7573d6000803e3d6000fd5b505050506040513d601f19601f8201168201806040525081019061050b9190612f9d565b905060006105238261051d8786612837565b9061284c565b979650505050505050565b610536612858565b816001600160a01b0381166105665760405162461bcd60e51b815260040161055d90612fb6565b60405180910390fd5b6000805b6004548110156105c657826001600160a01b03166004828154811061059157610591612fe4565b6000918252602090912001546001600160a01b0316036105b457600191506105c6565b806105be81613010565b91505061056a565b50806001146105e75760405162461bcd60e51b815260040161055d90613029565b33321461067b57600254604051636c9b2a3f60e11b81523360048201526001600160a01b039091169063d936547e90602401602060405180830381865afa158015610636573d6000803e3d6000fd5b505050506040513d601f19601f8201168201806040525081019061065a9190613055565b151560011461067b5760405162461bcd60e51b815260040161055d90613077565b600083116106c25760405162461bcd60e51b81526020600482015260146024820152731253959053125117d054d4d15517d05353d5539560621b604482015260640161055d565b6001600160a01b0384166000908152600560205260409020546107165760405162461bcd60e51b815260206004820152600c60248201526b494e56414c49445f5245504f60a01b604482015260640161055d565b600084905060056000866001600160a01b03166001600160a01b03168152602001908152602001600020600101546107b085836001600160a01b03166329b315d76040518163ffffffff1660e01b8152600401602060405180830381865afa158015610786573d6000803e3d6000fd5b505050506040513d601f19601f820116820180604052508101906107aa9190612f9d565b906128b1565b11156107f75760405162461bcd60e51b8152602060048201526016602482015275494e56414c49445f41535345545f434150414349545960501b604482015260640161055d565b6000816001600160a01b0316635001f3b56040518163ffffffff1660e01b8152600401602060405180830381865afa158015610837573d6000803e3d6000fd5b505050506040513d601f19601f8201168201806040525081019061085b91906130a2565b6040516370a0823160e01b81523360048201529091506000906001600160a01b038316906370a0823190602401602060405180830381865afa1580156108a5573d6000803e3d6000fd5b505050506040513d601f19601f820116820180604052508101906108c99190612f9d565b9050826001600160a01b031663af7dfc8382856001600160a01b031663db7b373e6040518163ffffffff1660e01b8152600401602060405180830381865afa158015610919573d6000803e3d6000fd5b505050506040513d601f19601f8201168201806040525081019061093d9190612f9d565b6040516001600160e01b031960e085901b16815260048101929092526024820152604401602060405180830381865afa15801561097e573d6000803e3d6000fd5b505050506040513d601f19601f820116820180604052508101906109a29190612f9d565b9050808611156109b0578095505b60006109bc88886122f3565b604051633e7bbdcf60e11b815260048101899052601260248201529091506000906001600160a01b03861690637cf77b9e90604401602060405180830381865afa158015610a0e573d6000803e3d6000fd5b505050506040513d601f19601f82011682018060405250810190610a329190612f9d565b6040516323b872dd60e01b8152336004820152306024820152604481018290529091506001600160a01b038516906323b872dd906064016020604051808303816000875af1158015610a88573d6000803e3d6000fd5b505050506040513d601f19601f82011682018060405250810190610aac9190613055565b506007546040516340c10f1960e01b8152306004820152602481018490526001600160a01b03909116906340c10f1990604401600060405180830381600087803b158015610af957600080fd5b505af1158015610b0d573d6000803e3d6000fd5b505060405163a9059cbb60e01b81526001600160a01b038c81166004830152602482018590528716925063a9059cbb91506044016020604051808303816000875af1158015610b60573d6000803e3d6000fd5b505050506040513d601f19601f82011682018060405250810190610b849190613055565b5060075460405163a9059cbb60e01b8152336004820152602481018490526001600160a01b039091169063a9059cbb906044016020604051808303816000875af1158015610bd6573d6000803e3d6000fd5b505050506040513d601f19601f82011682018060405250810190610bfa9190613055565b50604080513381526001600160a01b038b166020820152908101899052606081018390527f28b2a32484c6b4c70369af6ce67fc8bd54394b3d31d4ce7c84579537dac1a67d9060800160405180910390a150505050505050610c5c6001600055565b5050565b836001600160a01b038116610c875760405162461bcd60e51b815260040161055d90612fb6565b6000805b600454811015610ce757826001600160a01b031660048281548110610cb257610cb2612fe4565b6000918252602090912001546001600160a01b031603610cd55760019150610ce7565b80610cdf81613010565b915050610c8b565b5080600114610d085760405162461bcd60e51b815260040161055d90613029565b846001600160a01b038116610d2f5760405162461bcd60e51b815260040161055d90612fb6565b6000805b600454811015610d8f57826001600160a01b031660048281548110610d5a57610d5a612fe4565b6000918252602090912001546001600160a01b031603610d7d5760019150610d8f565b80610d8781613010565b915050610d33565b5080600114610db05760405162461bcd60e51b815260040161055d90613029565b610db8612858565b333214610e4c57600254604051636c9b2a3f60e11b81523360048201526001600160a01b039091169063d936547e90602401602060405180830381865afa158015610e07573d6000803e3d6000fd5b505050506040513d601f19601f82011682018060405250810190610e2b9190613055565b1515600114610e4c5760405162461bcd60e51b815260040161055d90613077565b610e546128bd565b866001600160a01b0316886001600160a01b031603610ea45760405162461bcd60e51b815260206004820152600c60248201526b24a72b20a624a22fa820a4a960a11b604482015260640161055d565b60008611610ef45760405162461bcd60e51b815260206004820152601a60248201527f494e56414c49445f544f4b454e5f494e5055545f414d4f554e54000000000000604482015260640161055d565b60008511610f445760405162461bcd60e51b815260206004820152601f60248201527f494e56414c49445f4d494e5f544f4b454e5f4f55545055545f414d4f554e5400604482015260640161055d565b87876000610f5383838b610440565b9050816001600160a01b03166329b315d76040518163ffffffff1660e01b8152600401602060405180830381865afa158015610f93573d6000803e3d6000fd5b505050506040513d601f19601f82011682018060405250810190610fb79190612f9d565b811115610ffb5760405162461bcd60e51b81526020600482015260126024820152711253959053125117d3d55517d05353d5539560721b604482015260640161055d565b878110156110405760405162461bcd60e51b815260206004820152601260248201527143414e5f4e4f545f4d414b455f545241444560701b604482015260640161055d565b6000836001600160a01b0316635001f3b56040518163ffffffff1660e01b8152600401602060405180830381865afa158015611080573d6000803e3d6000fd5b505050506040513d601f19601f820116820180604052508101906110a491906130a2565b6040516370a0823160e01b81523360048201529091506000906001600160a01b038087169163af7dfc83918516906370a0823190602401602060405180830381865afa1580156110f8573d6000803e3d6000fd5b505050506040513d601f19601f8201168201806040525081019061111c9190612f9d565b876001600160a01b031663db7b373e6040518163ffffffff1660e01b8152600401602060405180830381865afa15801561115a573d6000803e3d6000fd5b505050506040513d601f19601f8201168201806040525081019061117e9190612f9d565b6040516001600160e01b031960e085901b16815260048101929092526024820152604401602060405180830381865afa1580156111bf573d6000803e3d6000fd5b505050506040513d601f19601f820116820180604052508101906111e39190612f9d565b9050808b11156112445760405162461bcd60e51b815260206004820152602660248201527f544f4b454e5f494e5055545f414d4f554e545f4849474845525f555345525f42604482015265414c414e434560d01b606482015260840161055d565b61125085858d8661290a565b7f09c9d9085767db700bb0ef664566fac95b983e70d7c5d73e0137ad358d8078e2338e8e8e876040516112b69594939291906001600160a01b03958616815293851660208501529190931660408301526060820192909252608081019190915260a00190565b60405180910390a150505050506112cd6001600055565b5050505050505050565b60008084905060008490506000826001600160a01b031663b49f4afd6040518163ffffffff1660e01b8152600401602060405180830381865afa158015611322573d6000803e3d6000fd5b505050506040513d601f19601f820116820180604052508101906113469190612f9d565b90506000826001600160a01b031663b49f4afd6040518163ffffffff1660e01b8152600401602060405180830381865afa158015611388573d6000803e3d6000fd5b505050506040513d601f19601f820116820180604052508101906113ac9190612f9d565b905060006113be8261051d8986612837565b905060006113df61271061051d6113d88c86600954612668565b8590612837565b905060006113ed8383612dab565b9b9a5050505050505050505050565b611404612db7565b6001600160a01b03811661142a5760405162461bcd60e51b815260040161055d906130bf565b600780546001600160a01b0319166001600160a01b0392909216919091179055565b6000806114576124b9565b905060008490506000816001600160a01b031663b49f4afd6040518163ffffffff1660e01b8152600401602060405180830381865afa15801561149e573d6000803e3d6000fd5b505050506040513d601f19601f820116820180604052508101906114c29190612f9d565b905060006114d48261051d8887612837565b905060006114ee61271061051d6113d88b86600854612668565b90506114fa8282612dab565b9550836001600160a01b03166329b315d76040518163ffffffff1660e01b8152600401602060405180830381865afa15801561153a573d6000803e3d6000fd5b505050506040513d601f19601f8201168201806040525081019061155e9190612f9d565b82111561156a57600095505b505050505092915050565b61157d612db7565b6115876000612e11565b565b611591612db7565b600a80546001600160a01b0319166001600160a01b0392909216919091179055565b6000806115be6124b9565b905060008490506000816001600160a01b031663b49f4afd6040518163ffffffff1660e01b8152600401602060405180830381865afa158015611605573d6000803e3d6000fd5b505050506040513d601f19601f820116820180604052508101906116299190612f9d565b90506116398161051d8786612837565b9350816001600160a01b03166329b315d76040518163ffffffff1660e01b8152600401602060405180830381865afa158015611679573d6000803e3d6000fd5b505050506040513d601f19601f8201168201806040525081019061169d9190612f9d565b8411156116a957600093505b50505092915050565b6116ba612db7565b600081116116da5760405162461bcd60e51b815260040161055d906130bf565b600355565b60008060006116ec611a7d565b905060008590506000816001600160a01b03166335a226646040518163ffffffff1660e01b8152600401602060405180830381865afa158015611733573d6000803e3d6000fd5b505050506040513d601f19601f820116820180604052508101906117579190612f9d565b905060006117d3670de0b6b3a764000061051d856001600160a01b031663b49f4afd6040518163ffffffff1660e01b8152600401602060405180830381865afa1580156117a8573d6000803e3d6000fd5b505050506040513d601f19601f820116820180604052508101906117cc9190612f9d565b8a90612837565b905060006117fb6117e48684612dab565b60035461051d906117f58787612dab565b90612837565b6003546001600160a01b038b166000908152600560205260408120549293509161182a91849161051d91612837565b905061184760035461051d8360085461283790919063ffffffff16565b975061186460035461051d8360095461283790919063ffffffff16565b96505050505050509250929050565b61187b612db7565b6001600160a01b0383166118a15760405162461bcd60e51b815260040161055d90612fb6565b600082116118e65760405162461bcd60e51b8152602060048201526012602482015271494e56414c49445f5245504f5f534841524560701b604482015260640161055d565b6000811161192e5760405162461bcd60e51b8152602060048201526015602482015274494e56414c49445f5245504f5f434150414349545960581b604482015260640161055d565b60408051808201825283815260208082018481526001600160a01b0387166000818152600584528581209451855591516001948501556004805494850181558083527f8a35acfbc15ff81a39ae7d344fd709f28e8600b4aa8c65c6b64bfe7fe36bd19b90940180546001600160a01b031916821790558451635001f3b560e01b8152945188958695600695635001f3b59383830193919290918290030181865afa1580156119e0573d6000803e3d6000fd5b505050506040513d601f19601f82011682018060405250810190611a0491906130a2565b6001600160a01b039081168252602080830193909352604091820160002080546001600160a01b031916948216949094179093558051928716835290820185905281018390527f0f9add0213bdb1ede37a5c610b3e9634dc14ffc80ab82643288e3faf88f73ae09060600160405180910390a150505050565b6000805b600454811015611b865760006005600060048481548110611aa457611aa4612fe4565b60009182526020808320909101546001600160a01b031683528201929092526040019020541115611b7457600060048281548110611ae457611ae4612fe4565b9060005260206000200160009054906101000a90046001600160a01b03169050611b70816001600160a01b03166335a226646040518163ffffffff1660e01b8152600401602060405180830381865afa158015611b45573d6000803e3d6000fd5b505050506040513d601f19601f82011682018060405250810190611b699190612f9d565b84906128b1565b9250505b80611b7e81613010565b915050611a81565b5090565b611b92612858565b816001600160a01b038116611bb95760405162461bcd60e51b815260040161055d90612fb6565b6000805b600454811015611c1957826001600160a01b031660048281548110611be457611be4612fe4565b6000918252602090912001546001600160a01b031603611c075760019150611c19565b80611c1181613010565b915050611bbd565b5080600114611c3a5760405162461bcd60e51b815260040161055d90613029565b333214611cce57600254604051636c9b2a3f60e11b81523360048201526001600160a01b039091169063d936547e90602401602060405180830381865afa158015611c89573d6000803e3d6000fd5b505050506040513d601f19601f82011682018060405250810190611cad9190613055565b1515600114611cce5760405162461bcd60e51b815260040161055d90613077565b60008311611d175760405162461bcd60e51b81526020600482015260166024820152751253959053125117d1d05490925150d7d05353d5539560521b604482015260640161055d565b6001600160a01b038416600090815260056020526040902054611d6b5760405162461bcd60e51b815260206004820152600c60248201526b494e56414c49445f5245504f60a01b604482015260640161055d565b60008490506000816001600160a01b0316635001f3b56040518163ffffffff1660e01b8152600401602060405180830381865afa158015611db0573d6000803e3d6000fd5b505050506040513d601f19601f82011682018060405250810190611dd491906130a2565b6007546040516370a0823160e01b81523360048201529192506000916001600160a01b03909116906370a0823190602401602060405180830381865afa158015611e22573d6000803e3d6000fd5b505050506040513d601f19601f82011682018060405250810190611e469190612f9d565b905080861115611e54578095505b6000611e6088886115b3565b905060008111611eb25760405162461bcd60e51b815260206004820152601760248201527f494e56414c49445f4f55545f414d4f554e545f5a45524f000000000000000000604482015260640161055d565b836001600160a01b03166329b315d76040518163ffffffff1660e01b8152600401602060405180830381865afa158015611ef0573d6000803e3d6000fd5b505050506040513d601f19601f82011682018060405250810190611f149190612f9d565b811115611f585760405162461bcd60e51b81526020600482015260126024820152711253959053125117d3d55517d05353d5539560721b604482015260640161055d565b6000611f7061271061051d6113d88c86600854612668565b90506000611f7e8383612dab565b6007546040516323b872dd60e01b8152336004820152306024820152604481018c90529192506001600160a01b0316906323b872dd906064016020604051808303816000875af1158015611fd6573d6000803e3d6000fd5b505050506040513d601f19601f82011682018060405250810190611ffa9190613055565b50600754604051630852cd8d60e31b8152600481018b90526001600160a01b03909116906342966c6890602401600060405180830381600087803b15801561204157600080fd5b505af1158015612055573d6000803e3d6000fd5b50506040516351380da560e11b8152600481018690526001600160a01b038916925063a2701b4a9150602401600060405180830381600087803b15801561209b57600080fd5b505af11580156120af573d6000803e3d6000fd5b5050604051633e7bbdcf60e11b815260048101849052601260248201526001600160a01b03808916935063a9059cbb92503391908a1690637cf77b9e90604401602060405180830381865afa15801561210c573d6000803e3d6000fd5b505050506040513d601f19601f820116820180604052508101906121309190612f9d565b6040516001600160e01b031960e085901b1681526001600160a01b03909216600483015260248201526044016020604051808303816000875af115801561217b573d6000803e3d6000fd5b505050506040513d601f19601f8201168201806040525081019061219f9190613055565b50600a54604051633e7bbdcf60e11b815260048101849052601260248201526001600160a01b038781169263a9059cbb92908216918a1690637cf77b9e90604401602060405180830381865afa1580156121fd573d6000803e3d6000fd5b505050506040513d601f19601f820116820180604052508101906122219190612f9d565b6040516001600160e01b031960e085901b1681526001600160a01b03909216600483015260248201526044016020604051808303816000875af115801561226c573d6000803e3d6000fd5b505050506040513d601f19601f820116820180604052508101906122909190613055565b50604080513381526001600160a01b038c166020820152908101829052606081018a90527f9b5a54131d57ff379fca74da7f4efca1b9105facc9eb666cdb4dc2991622cee39060800160405180910390a15050505050505050610c5c6001600055565b6000806122fe6124b9565b905060008490506000816001600160a01b031663b49f4afd6040518163ffffffff1660e01b8152600401602060405180830381865afa158015612345573d6000803e3d6000fd5b505050506040513d601f19601f820116820180604052508101906123699190612f9d565b90506123798361051d8784612837565b9695505050505050565b61238b612db7565b6001600160a01b0383166123b15760405162461bcd60e51b815260040161055d90612fb6565b600082116123f65760405162461bcd60e51b8152602060048201526012602482015271494e56414c49445f5245504f5f534841524560701b604482015260640161055d565b6000811161243e5760405162461bcd60e51b8152602060048201526015602482015274494e56414c49445f5245504f5f434150414349545960581b604482015260640161055d565b60408051808201825283815260208082018481526001600160a01b038716600081815260058452859020935184559051600190930192909255825191825281018490529081018290527f34d71eb9581c2f82d3886aa369754ce61007988ffaa3bdda51b914219b3b120a9060600160405180910390a1505050565b600080805b60045481101561259857600060056000600484815481106124e1576124e1612fe4565b60009182526020808320909101546001600160a01b0316835282019290925260400190205411156125865760006004828154811061252157612521612fe4565b9060005260206000200160009054906101000a90046001600160a01b03169050612582816001600160a01b03166335a226646040518163ffffffff1660e01b8152600401602060405180830381865afa158015611b45573d6000803e3d6000fd5b9250505b8061259081613010565b9150506124be565b50600754604080516318160ddd60e01b815290516000926001600160a01b0316916318160ddd9160048083019260209291908290030181865afa1580156125e3573d6000803e3d6000fd5b505050506040513d601f19601f820116820180604052508101906126079190612f9d565b90508060000361262157670de0b6b3a76400009250505090565b6126378161051d84670de0b6b3a7640000612837565b9250505090565b6004818154811061264e57600080fd5b6000918252602090912001546001600160a01b0316905081565b600080612673611a7d565b905060008590506000816001600160a01b03166335a226646040518163ffffffff1660e01b8152600401602060405180830381865afa1580156126ba573d6000803e3d6000fd5b505050506040513d601f19601f820116820180604052508101906126de9190612f9d565b9050600061272f670de0b6b3a764000061051d856001600160a01b031663b49f4afd6040518163ffffffff1660e01b8152600401602060405180830381865afa1580156117a8573d6000803e3d6000fd5b905060006127406117e48684612dab565b6003546001600160a01b038b166000908152600560205260408120549293509161276f91849161051d91612837565b6003549091506127839061051d8a84612837565b9a9950505050505050505050565b612799612db7565b6001600160a01b0381166127fe5760405162461bcd60e51b815260206004820152602660248201527f4f776e61626c653a206e6577206f776e657220697320746865207a65726f206160448201526564647265737360d01b606482015260840161055d565b61280781612e11565b50565b612812612db7565b600081116128325760405162461bcd60e51b815260040161055d906130bf565b600855565b600061284382846130e5565b90505b92915050565b600061284382846130fc565b6002600054036128aa5760405162461bcd60e51b815260206004820152601f60248201527f5265656e7472616e637947756172643a207265656e7472616e742063616c6c00604482015260640161055d565b6002600055565b6000612843828461311e565b600154600160a01b900460ff16156115875760405162461bcd60e51b815260206004820152601060248201526f14185d5cd8589b194e881c185d5cd95960821b604482015260640161055d565b6000846001600160a01b0316635001f3b56040518163ffffffff1660e01b8152600401602060405180830381865afa15801561294a573d6000803e3d6000fd5b505050506040513d601f19601f8201168201806040525081019061296e91906130a2565b90506000846001600160a01b0316635001f3b56040518163ffffffff1660e01b8152600401602060405180830381865afa1580156129b0573d6000803e3d6000fd5b505050506040513d601f19601f820116820180604052508101906129d491906130a2565b905060006129f561271061051d6129ee8988600954612668565b8790612837565b90506000612a038583612dab565b604051633e7bbdcf60e11b815260048101889052601260248201529091506000906001600160a01b038a1690637cf77b9e90604401602060405180830381865afa158015612a55573d6000803e3d6000fd5b505050506040513d601f19601f82011682018060405250810190612a799190612f9d565b6040516323b872dd60e01b8152336004820152306024820152604481018290529091506001600160a01b038616906323b872dd906064016020604051808303816000875af1158015612acf573d6000803e3d6000fd5b505050506040513d601f19601f82011682018060405250810190612af39190613055565b5060405163a9059cbb60e01b81526001600160a01b038a811660048301526024820183905286169063a9059cbb906044016020604051808303816000875af1158015612b43573d6000803e3d6000fd5b505050506040513d601f19601f82011682018060405250810190612b679190613055565b506040516351380da560e11b8152600481018790526001600160a01b0389169063a2701b4a90602401600060405180830381600087803b158015612baa57600080fd5b505af1158015612bbe573d6000803e3d6000fd5b5050604051633e7bbdcf60e11b815260048101859052601260248201526001600160a01b03808816935063a9059cbb92503391908c1690637cf77b9e90604401602060405180830381865afa158015612c1b573d6000803e3d6000fd5b505050506040513d601f19601f82011682018060405250810190612c3f9190612f9d565b6040516001600160e01b031960e085901b1681526001600160a01b03909216600483015260248201526044016020604051808303816000875af1158015612c8a573d6000803e3d6000fd5b505050506040513d601f19601f82011682018060405250810190612cae9190613055565b50600a54604051633e7bbdcf60e11b815260048101859052601260248201526001600160a01b038681169263a9059cbb92908216918c1690637cf77b9e90604401602060405180830381865afa158015612d0c573d6000803e3d6000fd5b505050506040513d601f19601f82011682018060405250810190612d309190612f9d565b6040516001600160e01b031960e085901b1681526001600160a01b03909216600483015260248201526044016020604051808303816000875af1158015612d7b573d6000803e3d6000fd5b505050506040513d601f19601f82011682018060405250810190612d9f9190613055565b50505050505050505050565b60006128438284613131565b6001546001600160a01b031633146115875760405162461bcd60e51b815260206004820181905260248201527f4f776e61626c653a2063616c6c6572206973206e6f7420746865206f776e6572604482015260640161055d565b600180546001600160a01b038381166001600160a01b0319831681179093556040519116919082907f8be0079c531659141344cd1fd0a4f28419497f9722a3daafe3b4186f6b6457e090600090a35050565b6001600160a01b038116811461280757600080fd5b600080600060608486031215612e8d57600080fd5b8335612e9881612e63565b92506020840135612ea881612e63565b929592945050506040919091013590565b60008060408385031215612ecc57600080fd5b8235612ed781612e63565b946020939093013593505050565b60008060008060808587031215612efb57600080fd5b8435612f0681612e63565b93506020850135612f1681612e63565b93969395505050506040820135916060013590565b600060208284031215612f3d57600080fd5b8135612f4881612e63565b9392505050565b600060208284031215612f6157600080fd5b5035919050565b600080600060608486031215612f7d57600080fd5b8335612f8881612e63565b95602085013595506040909401359392505050565b600060208284031215612faf57600080fd5b5051919050565b602080825260149082015273494e56414c49445f5245504f5f4144445245535360601b604082015260600190565b634e487b7160e01b600052603260045260246000fd5b634e487b7160e01b600052601160045260246000fd5b60006001820161302257613022612ffa565b5060010190565b60208082526012908201527124a72b20a624a22fa822a926a4a9a9a4a7a760711b604082015260600190565b60006020828403121561306757600080fd5b81518015158114612f4857600080fd5b6020808252601190820152701253959053125117d5d2125511531254d5607a1b604082015260600190565b6000602082840312156130b457600080fd5b8151612f4881612e63565b6020808252600c908201526b494e56414c49445f4441544160a01b604082015260600190565b808202811582820484141761284657612846612ffa565b60008261311957634e487b7160e01b600052601260045260246000fd5b500490565b8082018082111561284657612846612ffa565b8181038181111561284657612846612ffa56fea2646970667358221220e73e98b35ef94b9b21ed18ab7cec043c10bbc950d7156aa819818928d193f34d64736f6c63430008110033",
  "immutableReferences": {},
  "source": "// SPDX-License-Identifier: MIT\npragma solidity >=0.8.0;\n\nimport \"@openzeppelin/contracts/utils/math/SafeMath.sol\";\nimport \"@openzeppelin/contracts/token/ERC20/IERC20.sol\";\nimport \"@openzeppelin/contracts/access/Ownable.sol\";\nimport \"@openzeppelin/contracts/security/ReentrancyGuard.sol\";\nimport \"@openzeppelin/contracts/security/Pausable.sol\";\n\nimport '../interfaces/IERC20withBurnAndMint.sol';\nimport '../interfaces/IGarbiRepository.sol';\nimport '../interfaces/IGarbiswapWhitelist.sol';\n\ncontract GarbiRepositoryManager is ReentrancyGuard, Ownable, Pausable {\n    using SafeMath for uint256;\n\n    IGarbiswapWhitelist public whitelist; \n\n    uint256 public totalShares = 1000;\n\n    struct RepoInfo {\n        uint256 share;\n        uint256 maxCapacityLimit;\n    }\n\n    // Array of repo addresses\n    address[] public repoAddresses;\n\n    mapping(address => RepoInfo) public repoList;  \n\n    mapping(address => address) public baseToRepo;  \n\n    IERC20withBurnAndMint public GarbiEC;\n\n    uint256 SELL_GARBIEC_FEE = 35; //35/10000 = 0.35%\n\n    uint256 SWAP_FEE = 1; //1/10000 = 0.01%\n\n    address public platformFundAddress;\n\n    modifier onlyRepoInTheList(address repoAddress)\n    {\n        require(repoAddress != address(0), 'INVALID_REPO_ADDRESS');\n        uint flag = 0;\n        for (uint i = 0; i < repoAddresses.length; i++) {\n            if(repoAddresses[i] == repoAddress) {\n                flag = 1;\n                break;\n            }\n        }\n        require(flag == 1, \"INVALID_PERMISSION\");\n        _;\n    }\n\n    modifier onlyWhitelist()\n    {\n        if (msg.sender != tx.origin) {\n            require(whitelist.whitelisted(msg.sender) == true, 'INVALID_WHITELIST');\n        }\n        _;\n    }\n\n    // Events\n    event onAddRepository(address repoAddress, uint256 repoShare, uint256 repoMaxCapacityLimit);\n    event onUpdateRepository(address repoAddress, uint256 repoShare, uint256 repoMaxCapacityLimit); \n    event onBuyGarbiEC(address user, address repoInAddress, uint256 assetInAmount, uint256 garbiECOutAmount);\n    event onSellGarbiEC(address user, address repoOutAddress, uint256 assetOutAmount, uint256 garbiECInAmount);\n    event onSwapTokenToToken(address user, address repoInAddress, address repoOutAddress, uint256 tokenInputAmount, uint256 tokenOutputAmount);\n\n    constructor(\n        IERC20withBurnAndMint garbiECContract,\n        IGarbiswapWhitelist whitelistContract\n    ){\n        GarbiEC = garbiECContract;\n        whitelist = whitelistContract;\n        platformFundAddress = _msgSender();\n    }\n    \n    function addRepository(address repoAddress, uint256 repoShare, uint256 repoMaxCapacityLimit) public onlyOwner {\n        require(repoAddress != address(0), 'INVALID_REPO_ADDRESS');\n        require(repoShare > 0, 'INVALID_REPO_SHARE');\n        require(repoMaxCapacityLimit > 0, 'INVALID_REPO_CAPACITY');\n\n        repoList[repoAddress] = RepoInfo({\n            share : repoShare,\n            maxCapacityLimit : repoMaxCapacityLimit\n        });\n\n        repoAddresses.push(repoAddress);\n\n        IGarbiRepository repo = IGarbiRepository(repoAddress);\n\n        baseToRepo[repo.base()] = repoAddress;\n\n        emit onAddRepository(repoAddress, repoShare, repoMaxCapacityLimit);\n    }\n\n    function updateRepository(address repoAddress, uint256 repoShare, uint256 repoMaxCapacityLimit) public onlyOwner {\n        require(repoAddress != address(0), 'INVALID_REPO_ADDRESS');\n        require(repoShare > 0, 'INVALID_REPO_SHARE');\n        require(repoMaxCapacityLimit > 0, 'INVALID_REPO_CAPACITY');\n\n        repoList[repoAddress] = RepoInfo({\n            share : repoShare,\n            maxCapacityLimit : repoMaxCapacityLimit\n        });\n\n        emit onUpdateRepository(repoAddress, repoShare, repoMaxCapacityLimit);\n    }\n\n    function setTotalShares(uint256 newTotalShares) public onlyOwner {\n        require(newTotalShares > 0, 'INVALID_DATA');\n        totalShares = newTotalShares;\n    }\n\n    function setSellGarbiECFee(uint256 newFee) public onlyOwner {\n        require(newFee > 0, 'INVALID_DATA');\n        SELL_GARBIEC_FEE = newFee;\n    }\n\n    function setPlatformFundAdress(address newAddress) public onlyOwner {\n        platformFundAddress = newAddress;\n    }\n\n    function setGarbiEquityCertificateContract(IERC20withBurnAndMint newGarbiECContract) public onlyOwner {\n        require(address(newGarbiECContract) != address(0), 'INVALID_DATA');\n        GarbiEC = newGarbiECContract;\n    }\n\n    function buyGarbiEquityCertificate(address repoInAddress, uint256 assetInAmount) public nonReentrant onlyRepoInTheList(repoInAddress) onlyWhitelist {\n        require(assetInAmount > 0, 'INVALID_ASSET_AMOUNT');\n        require(repoList[repoInAddress].share > 0, 'INVALID_REPO');\n        \n        IGarbiRepository repoIn = IGarbiRepository(repoInAddress);\n\n        require(repoIn.getCapacityByToken().add(assetInAmount) <= repoList[repoInAddress].maxCapacityLimit, 'INVALID_ASSET_CAPACITY');\n\n        IERC20 base = IERC20(repoIn.base());\n\n        uint256 baseUserBalance = base.balanceOf(msg.sender);\n        baseUserBalance = repoIn.convertDecimalTo18(baseUserBalance, repoIn.baseDecimal());\n\n        if(assetInAmount > baseUserBalance) {\n            assetInAmount = baseUserBalance;\n        }\n        \n        uint256 garbiECOutAmount = getDataToBuyGarbiEC(repoInAddress, assetInAmount);\n\n        //make trade\n        uint256 assetInAmountAtAssetDecimal = repoIn.convertToBaseDecimal(assetInAmount, 18);\n        base.transferFrom(msg.sender, address(this), assetInAmountAtAssetDecimal);\n        GarbiEC.mint(address(this), garbiECOutAmount);\n        base.transfer(repoInAddress, assetInAmountAtAssetDecimal);\n        GarbiEC.transfer(msg.sender, garbiECOutAmount);\n\n        emit onBuyGarbiEC(msg.sender, repoInAddress, assetInAmount, garbiECOutAmount);\n    }\n\n    function sellGarbiEquityCertificate(address repoOutAddress, uint256 garbiECInAmount) public nonReentrant onlyRepoInTheList(repoOutAddress) onlyWhitelist {\n        require(garbiECInAmount > 0, 'INVALID_GARBIEC_AMOUNT');\n        require(repoList[repoOutAddress].share > 0, 'INVALID_REPO');\n        \n        IGarbiRepository repoOut = IGarbiRepository(repoOutAddress);\n\n        IERC20 base = IERC20(repoOut.base());\n\n        uint256 garbiECUserBalance = GarbiEC.balanceOf(msg.sender);\n\n        if(garbiECInAmount > garbiECUserBalance) {\n            garbiECInAmount = garbiECUserBalance;\n        }\n\n        uint256 baseOutAmount = getDataToSellGarbiEC(repoOutAddress, garbiECInAmount);\n        \n        require(baseOutAmount > 0, 'INVALID_OUT_AMOUNT_ZERO');\n        require(baseOutAmount <= repoOut.getCapacityByToken(), 'INVALID_OUT_AMOUNT');\n\n        uint256 fee = baseOutAmount.mul(getSellGarbiECDynamicFee(repoOutAddress, baseOutAmount, SELL_GARBIEC_FEE)).div(10000);\n        uint256 baseOutAmountAfterFee = baseOutAmount.sub(fee);\n\n        //make trade\n        GarbiEC.transferFrom(msg.sender, address(this), garbiECInAmount);\n        GarbiEC.burn(garbiECInAmount);\n        repoOut.withdrawBaseToRepositoryManager(baseOutAmount);\n        base.transfer(msg.sender, repoOut.convertToBaseDecimal(baseOutAmountAfterFee, 18));\n        //transfer fee\n        base.transfer(platformFundAddress, repoOut.convertToBaseDecimal(fee, 18));\n\n        emit onSellGarbiEC(msg.sender, repoOutAddress, baseOutAmountAfterFee, garbiECInAmount);\n    }\n\n    function swapTokenToTokenWithTokenInput(address repoInAddress, address repoOutAddress, uint256 tokenInputAmount, uint256 minTokenOutputAmount) public onlyRepoInTheList(repoInAddress) onlyRepoInTheList(repoOutAddress) nonReentrant onlyWhitelist whenNotPaused {\n        require(repoInAddress != repoOutAddress, 'INVALID_PAIR');\n        require(tokenInputAmount > 0, 'INVALID_TOKEN_INPUT_AMOUNT');\n        require(minTokenOutputAmount > 0, 'INVALID_MIN_TOKEN_OUTPUT_AMOUNT');\n\n        IGarbiRepository repoIn = IGarbiRepository(repoInAddress);\n        IGarbiRepository repoOut = IGarbiRepository(repoOutAddress);\n        \n        uint256 tokenOutputAmount = getTokenOutputAmountFromTokenInput(repoIn, repoOut, tokenInputAmount);\n        require(tokenOutputAmount <= repoOut.getCapacityByToken(), 'INVALID_OUT_AMOUNT');\n        require(tokenOutputAmount >= minTokenOutputAmount, 'CAN_NOT_MAKE_TRADE');\n\n        IERC20 baseIn = IERC20(repoIn.base());\n\n        uint256 baseInUserBalance = repoIn.convertDecimalTo18(baseIn.balanceOf(msg.sender), repoIn.baseDecimal());\n\n        require(tokenInputAmount <= baseInUserBalance, 'TOKEN_INPUT_AMOUNT_HIGHER_USER_BALANCE');\n        \n        //make trade\n        makeTradeOnTwoRepos(repoIn, repoOut, tokenInputAmount, tokenOutputAmount);\n\n        emit onSwapTokenToToken(msg.sender, repoInAddress, repoOutAddress, tokenInputAmount, tokenOutputAmount);\n    }\n\n    function makeTradeOnTwoRepos(IGarbiRepository repoIn, IGarbiRepository repoOut, uint256 tokenInputAmount, uint256 tokenOutputAmount) private {\n        IERC20 baseIn = IERC20(repoIn.base());\n        IERC20 baseOut = IERC20(repoOut.base());\n        uint256 fee = tokenOutputAmount.mul(getSellGarbiECDynamicFee(address(repoOut), tokenOutputAmount, SWAP_FEE)).div(10000);\n        uint256 tokenOutputAmountAfterFee = tokenOutputAmount.sub(fee);\n        uint256 tokenInputAmountAtTokenDecimal = repoIn.convertToBaseDecimal(tokenInputAmount, 18);\n        baseIn.transferFrom(msg.sender, address(this), tokenInputAmountAtTokenDecimal);\n        baseIn.transfer(address(repoIn), tokenInputAmountAtTokenDecimal);\n        repoOut.withdrawBaseToRepositoryManager(tokenOutputAmount);\n        baseOut.transfer(msg.sender, repoOut.convertToBaseDecimal(tokenOutputAmountAfterFee, 18));\n        //transfer fee\n        baseOut.transfer(platformFundAddress, repoOut.convertToBaseDecimal(fee, 18));\n    }\n\n    function getTokenOutputAmountFromTokenInput(IGarbiRepository repoIn, IGarbiRepository repoOut, uint256 tokenInputAmount) public view returns (uint256) {\n        uint256 tokenInputPriceFromOracle = repoIn.getBasePrice();\n        uint256 tokenOuputPriceFromOracle = repoOut.getBasePrice();\n        uint256 tokenOutputAmount = tokenInputAmount.mul(tokenInputPriceFromOracle).div(tokenOuputPriceFromOracle);\n        return tokenOutputAmount;\n    }\n\n    function getTokenOutputWithFee(address repoInAddress, address repoOutAddress, uint256 tokenInputAmount) public view returns (uint256) {\n        IGarbiRepository repoIn = IGarbiRepository(repoInAddress);\n        IGarbiRepository repoOut = IGarbiRepository(repoOutAddress);\n        uint256 tokenInputPriceFromOracle = repoIn.getBasePrice();\n        uint256 tokenOuputPriceFromOracle = repoOut.getBasePrice();\n        uint256 tokenOutputAmount = tokenInputAmount.mul(tokenInputPriceFromOracle).div(tokenOuputPriceFromOracle);\n        uint256 fee = tokenOutputAmount.mul(getSellGarbiECDynamicFee(repoOutAddress, tokenOutputAmount, SWAP_FEE)).div(10000);\n        uint256 tokenOutputAmountAfterFee = tokenOutputAmount.sub(fee);\n        return tokenOutputAmountAfterFee;\n    }\n\n    function getGarbiECPrice() public view returns(uint256 garbiECPrice) {\n        uint256 totalCapacityByUSD = 0;\n        for (uint i = 0; i < repoAddresses.length; i++) {\n            if(repoList[repoAddresses[i]].share > 0) {\n                IGarbiRepository repo = IGarbiRepository(repoAddresses[i]);\n                totalCapacityByUSD = totalCapacityByUSD.add(repo.getCapacityByUSD());\n            }\n        }\n\n        uint256 garbiECTotalSupply = GarbiEC.totalSupply();\n\n        if(garbiECTotalSupply == 0) {\n            garbiECPrice = 1e18;\n        }\n        else {\n            garbiECPrice = totalCapacityByUSD.mul(1e18).div(garbiECTotalSupply);\n        }\n    }\n\n    function getDataToBuyGarbiEC(address repoInAddress, uint256 assetInAmount) public view returns (uint256 garbiECOutAmount) {\n       uint256 garbiECPrice = getGarbiECPrice();\n       IGarbiRepository repoIn = IGarbiRepository(repoInAddress);\n\n       uint256 assetPrice = repoIn.getBasePrice();\n\n       garbiECOutAmount = assetInAmount.mul(assetPrice).div(garbiECPrice);\n    }\n\n    function getDataToSellGarbiEC(address repoOutAddress, uint256 garbiECInAmount) public view returns (uint256 assetOutAmount) {\n       uint256 garbiECPrice = getGarbiECPrice();\n       IGarbiRepository repoOut = IGarbiRepository(repoOutAddress);\n\n       uint256 assetPrice = repoOut.getBasePrice();\n\n       assetOutAmount = garbiECInAmount.mul(garbiECPrice).div(assetPrice);\n       \n       if(assetOutAmount > repoOut.getCapacityByToken()) {\n            assetOutAmount = 0;\n       }\n    }\n\n    function getDataToSellGarbiECWithFee(address repoOutAddress, uint256 garbiECInAmount) public view returns (uint256 assetOutAmountAfterFee) {\n       uint256 garbiECPrice = getGarbiECPrice();\n       IGarbiRepository repoOut = IGarbiRepository(repoOutAddress);\n\n       uint256 assetPrice = repoOut.getBasePrice();\n\n       uint256 assetOutAmount = garbiECInAmount.mul(garbiECPrice).div(assetPrice);\n\n       uint256 fee = assetOutAmount.mul(getSellGarbiECDynamicFee(repoOutAddress, assetOutAmount, SELL_GARBIEC_FEE)).div(10000);\n       assetOutAmountAfterFee = assetOutAmount.sub(fee);\n       \n       if(assetOutAmount > repoOut.getCapacityByToken()) {\n            assetOutAmountAfterFee = 0;\n       }\n    }\n\n    function getTotalAllRepoCapacityByUSD() public view returns (uint256 totalCapacityByUSD) {\n        for (uint i = 0; i < repoAddresses.length; i++) {\n            if(repoList[repoAddresses[i]].share > 0) {\n                IGarbiRepository repo = IGarbiRepository(repoAddresses[i]);\n                totalCapacityByUSD = totalCapacityByUSD.add(repo.getCapacityByUSD());\n            }\n        }\n    }\n\n    function getSellGarbiECDynamicFee(address repoOutAddress, uint256 assetOutAmount, uint256 baseFee) public view returns (uint256 fee) {\n        uint256 totalCapacityByUSD = getTotalAllRepoCapacityByUSD();\n        IGarbiRepository repoOut = IGarbiRepository(repoOutAddress);\n        uint256 repoOutTotalCapacityByUSD = repoOut.getCapacityByUSD();\n        uint256 assetOutAmountByUSD = assetOutAmount.mul(repoOut.getBasePrice()).div(10**18);\n        uint256 repoShareAfterOut = repoOutTotalCapacityByUSD.sub(assetOutAmountByUSD).mul(totalShares).div(totalCapacityByUSD.sub(assetOutAmountByUSD));\n        uint256 shareDiff = repoList[repoOutAddress].share.mul(totalShares).div(repoShareAfterOut);\n        fee = baseFee.mul(shareDiff).div(totalShares);\n    }\n\n    function getFeeWithOutAmount(address repoOutAddress, uint256 assetOutAmount) public view returns (uint256 sellGarbiECfee, uint256 swapFee) {\n        uint256 totalCapacityByUSD = getTotalAllRepoCapacityByUSD();\n        IGarbiRepository repoOut = IGarbiRepository(repoOutAddress);\n        uint256 repoOutTotalCapacityByUSD = repoOut.getCapacityByUSD();\n        uint256 assetOutAmountByUSD = assetOutAmount.mul(repoOut.getBasePrice()).div(10**18);\n        uint256 repoShareAfterOut = repoOutTotalCapacityByUSD.sub(assetOutAmountByUSD).mul(totalShares).div(totalCapacityByUSD.sub(assetOutAmountByUSD));\n        uint256 shareDiff = repoList[repoOutAddress].share.mul(totalShares).div(repoShareAfterOut);\n        sellGarbiECfee = SELL_GARBIEC_FEE.mul(shareDiff).div(totalShares);\n        swapFee = SWAP_FEE.mul(shareDiff).div(totalShares);\n    }\n}",
  "sourcePath": "/Applications/projects/garbiprotocol.github.io/garbi_contracts/contracts/GarbiSwap2/GarbiRepositoryManager.sol",
  "compiler": {
    "name": "solc",
    "version": "0.8.17+commit.8df45f5f.Emscripten.clang"
  },
  "schemaVersion": "3.4.11",
  "updatedAt": "2023-03-02T17:15:10.235Z",
  "networkType": "ethereum",
  "devdoc": {
    "kind": "dev",
    "methods": {
      "owner()": {
        "details": "Returns the address of the current owner."
      },
      "paused()": {
        "details": "Returns true if the contract is paused, and false otherwise."
      },
      "renounceOwnership()": {
        "details": "Leaves the contract without owner. It will not be possible to call `onlyOwner` functions anymore. Can only be called by the current owner. NOTE: Renouncing ownership will leave the contract without an owner, thereby removing any functionality that is only available to the owner."
      },
      "transferOwnership(address)": {
        "details": "Transfers ownership of the contract to a new account (`newOwner`). Can only be called by the current owner."
      }
    },
    "version": 1
  },
  "userdoc": {
    "kind": "user",
    "methods": {},
    "version": 1
  }
}