{
  "contractName": "GarbiswapFeeMachine",
  "abi": [
    {
      "inputs": [
        {
          "internalType": "contract IERC20",
          "name": "_grb",
          "type": "address"
        },
        {
          "internalType": "address",
          "name": "_performanceMachineContract",
          "type": "address"
        },
        {
          "internalType": "address",
          "name": "_safuFundContract",
          "type": "address"
        },
        {
          "internalType": "contract IGarbiTimeLock",
          "name": "_garbiTimeLockContract",
          "type": "address"
        }
      ],
      "stateMutability": "nonpayable",
      "type": "constructor"
    },
    {
      "anonymous": false,
      "inputs": [
        {
          "indexed": true,
          "internalType": "address",
          "name": "previousOwner",
          "type": "address"
        },
        {
          "indexed": true,
          "internalType": "address",
          "name": "newOwner",
          "type": "address"
        }
      ],
      "name": "OwnershipTransferred",
      "type": "event"
    },
    {
      "anonymous": false,
      "inputs": [
        {
          "indexed": false,
          "internalType": "address",
          "name": "_trader",
          "type": "address"
        },
        {
          "indexed": false,
          "internalType": "uint256",
          "name": "_amount",
          "type": "uint256"
        }
      ],
      "name": "onDistributeGarbi",
      "type": "event"
    },
    {
      "inputs": [],
      "name": "DAY_PERIOD",
      "outputs": [
        {
          "internalType": "uint256",
          "name": "",
          "type": "uint256"
        }
      ],
      "stateMutability": "view",
      "type": "function"
    },
    {
      "inputs": [],
      "name": "DISTRIBUTE_GARBI_AMOUNT",
      "outputs": [
        {
          "internalType": "uint256",
          "name": "",
          "type": "uint256"
        }
      ],
      "stateMutability": "view",
      "type": "function"
    },
    {
      "inputs": [],
      "name": "GRB",
      "outputs": [
        {
          "internalType": "contract IERC20",
          "name": "",
          "type": "address"
        }
      ],
      "stateMutability": "view",
      "type": "function"
    },
    {
      "inputs": [],
      "name": "MAX_FEE_ON_DISTRIBUTE",
      "outputs": [
        {
          "internalType": "uint256",
          "name": "",
          "type": "uint256"
        }
      ],
      "stateMutability": "view",
      "type": "function"
    },
    {
      "inputs": [],
      "name": "PERFORMANCE_FEE",
      "outputs": [
        {
          "internalType": "uint256",
          "name": "",
          "type": "uint256"
        }
      ],
      "stateMutability": "view",
      "type": "function"
    },
    {
      "inputs": [],
      "name": "SAFU_FUND",
      "outputs": [
        {
          "internalType": "uint256",
          "name": "",
          "type": "uint256"
        }
      ],
      "stateMutability": "view",
      "type": "function"
    },
    {
      "inputs": [
        {
          "internalType": "address",
          "name": "",
          "type": "address"
        },
        {
          "internalType": "uint256",
          "name": "",
          "type": "uint256"
        }
      ],
      "name": "feeOf",
      "outputs": [
        {
          "internalType": "uint256",
          "name": "",
          "type": "uint256"
        }
      ],
      "stateMutability": "view",
      "type": "function"
    },
    {
      "inputs": [],
      "name": "garbiTimeLockContract",
      "outputs": [
        {
          "internalType": "contract IGarbiTimeLock",
          "name": "",
          "type": "address"
        }
      ],
      "stateMutability": "view",
      "type": "function"
    },
    {
      "inputs": [],
      "name": "owner",
      "outputs": [
        {
          "internalType": "address",
          "name": "",
          "type": "address"
        }
      ],
      "stateMutability": "view",
      "type": "function"
    },
    {
      "inputs": [
        {
          "internalType": "address",
          "name": "",
          "type": "address"
        }
      ],
      "name": "pairs",
      "outputs": [
        {
          "internalType": "bool",
          "name": "",
          "type": "bool"
        }
      ],
      "stateMutability": "view",
      "type": "function"
    },
    {
      "inputs": [],
      "name": "performanceMachineContract",
      "outputs": [
        {
          "internalType": "address",
          "name": "",
          "type": "address"
        }
      ],
      "stateMutability": "view",
      "type": "function"
    },
    {
      "inputs": [],
      "name": "renounceOwnership",
      "outputs": [],
      "stateMutability": "nonpayable",
      "type": "function"
    },
    {
      "inputs": [],
      "name": "safuFundContract",
      "outputs": [
        {
          "internalType": "address",
          "name": "",
          "type": "address"
        }
      ],
      "stateMutability": "view",
      "type": "function"
    },
    {
      "inputs": [
        {
          "internalType": "address",
          "name": "",
          "type": "address"
        }
      ],
      "name": "timeOfCreateNewFee",
      "outputs": [
        {
          "internalType": "uint256",
          "name": "",
          "type": "uint256"
        }
      ],
      "stateMutability": "view",
      "type": "function"
    },
    {
      "inputs": [
        {
          "internalType": "address",
          "name": "",
          "type": "address"
        }
      ],
      "name": "totalDays",
      "outputs": [
        {
          "internalType": "uint256",
          "name": "",
          "type": "uint256"
        }
      ],
      "stateMutability": "view",
      "type": "function"
    },
    {
      "inputs": [
        {
          "internalType": "address",
          "name": "newOwner",
          "type": "address"
        }
      ],
      "name": "transferOwnership",
      "outputs": [],
      "stateMutability": "nonpayable",
      "type": "function"
    },
    {
      "inputs": [
        {
          "internalType": "uint256",
          "name": "_value",
          "type": "uint256"
        }
      ],
      "name": "setDayPeriod",
      "outputs": [],
      "stateMutability": "nonpayable",
      "type": "function"
    },
    {
      "inputs": [
        {
          "internalType": "address",
          "name": "_pair",
          "type": "address"
        }
      ],
      "name": "addPair",
      "outputs": [],
      "stateMutability": "nonpayable",
      "type": "function"
    },
    {
      "inputs": [
        {
          "internalType": "address",
          "name": "_pair",
          "type": "address"
        }
      ],
      "name": "removePair",
      "outputs": [],
      "stateMutability": "nonpayable",
      "type": "function"
    },
    {
      "inputs": [
        {
          "internalType": "uint256",
          "name": "_amount",
          "type": "uint256"
        }
      ],
      "name": "setDistributeGarbiAmount",
      "outputs": [],
      "stateMutability": "nonpayable",
      "type": "function"
    },
    {
      "inputs": [],
      "name": "setPerformanceMachine",
      "outputs": [],
      "stateMutability": "nonpayable",
      "type": "function"
    },
    {
      "inputs": [],
      "name": "setSafuFundContract",
      "outputs": [],
      "stateMutability": "nonpayable",
      "type": "function"
    },
    {
      "inputs": [],
      "name": "setPerformanceFee",
      "outputs": [],
      "stateMutability": "nonpayable",
      "type": "function"
    },
    {
      "inputs": [],
      "name": "setSafuFee",
      "outputs": [],
      "stateMutability": "nonpayable",
      "type": "function"
    },
    {
      "inputs": [],
      "name": "setMaxFeeOnDistribute",
      "outputs": [],
      "stateMutability": "nonpayable",
      "type": "function"
    },
    {
      "inputs": [
        {
          "internalType": "contract IERC20",
          "name": "token",
          "type": "address"
        },
        {
          "internalType": "address",
          "name": "trader",
          "type": "address"
        }
      ],
      "name": "processTradeFee",
      "outputs": [],
      "stateMutability": "nonpayable",
      "type": "function"
    },
    {
      "inputs": [
        {
          "internalType": "contract IERC20",
          "name": "_lp",
          "type": "address"
        }
      ],
      "name": "getTradeFeeAPY",
      "outputs": [
        {
          "internalType": "uint256",
          "name": "",
          "type": "uint256"
        }
      ],
      "stateMutability": "view",
      "type": "function"
    },
    {
      "inputs": [
        {
          "internalType": "address",
          "name": "_lp",
          "type": "address"
        }
      ],
      "name": "getVolume",
      "outputs": [
        {
          "internalType": "uint256",
          "name": "",
          "type": "uint256"
        }
      ],
      "stateMutability": "view",
      "type": "function"
    }
  ],
  "bytecode": "0x6080604052601060055560046006556702c68af0bb140000600755671bc16d674ec80000600855620151806009553480156200003a57600080fd5b50604051620038aa380380620038aa83398181016040528101906200006091906200034e565b62000080620000746200018e60201b60201c565b6200019660201b60201c565b80600460006101000a81548173ffffffffffffffffffffffffffffffffffffffff021916908373ffffffffffffffffffffffffffffffffffffffff16021790555082600260006101000a81548173ffffffffffffffffffffffffffffffffffffffff021916908373ffffffffffffffffffffffffffffffffffffffff16021790555081600360006101000a81548173ffffffffffffffffffffffffffffffffffffffff021916908373ffffffffffffffffffffffffffffffffffffffff16021790555083600160006101000a81548173ffffffffffffffffffffffffffffffffffffffff021916908373ffffffffffffffffffffffffffffffffffffffff16021790555050505050620003c0565b600033905090565b60008060009054906101000a900473ffffffffffffffffffffffffffffffffffffffff169050816000806101000a81548173ffffffffffffffffffffffffffffffffffffffff021916908373ffffffffffffffffffffffffffffffffffffffff1602179055508173ffffffffffffffffffffffffffffffffffffffff168173ffffffffffffffffffffffffffffffffffffffff167f8be0079c531659141344cd1fd0a4f28419497f9722a3daafe3b4186f6b6457e060405160405180910390a35050565b600080fd5b600073ffffffffffffffffffffffffffffffffffffffff82169050919050565b60006200028c826200025f565b9050919050565b6000620002a0826200027f565b9050919050565b620002b28162000293565b8114620002be57600080fd5b50565b600081519050620002d281620002a7565b92915050565b620002e3816200027f565b8114620002ef57600080fd5b50565b6000815190506200030381620002d8565b92915050565b600062000316826200027f565b9050919050565b620003288162000309565b81146200033457600080fd5b50565b60008151905062000348816200031d565b92915050565b600080600080608085870312156200036b576200036a6200025a565b5b60006200037b87828801620002c1565b94505060206200038e87828801620002f2565b9350506040620003a187828801620002f2565b9250506060620003b48782880162000337565b91505092959194509250565b6134da80620003d06000396000f3fe608060405234801561001057600080fd5b50600436106101c45760003560e01c80638ba17f86116100f9578063e1ab99a411610097578063f2fde38b11610071578063f2fde38b14610473578063f6b6670a1461048f578063fa9978e5146104ab578063fe33b302146104c9576101c4565b8063e1ab99a41461041b578063e8defac714610439578063e93f566514610455576101c4565b8063a2808084116100d3578063a2808084146103a7578063af6c9c1d146103c5578063b0176ce8146103e1578063c2b7bbb6146103ff576101c4565b80638ba17f861461033b5780638da5cb5b1461036b5780639f9c062914610389576101c4565b80634f62010e116101665780636da5c211116101405780636da5c211146103015780636e9322b31461030b578063715018a6146103155780638152254c1461031f576101c4565b80634f62010e146102a957806360543590146102b35780636a0d3659146102e3576101c4565b80633e6566bf116101a25780633e6566bf1461024757806342219a931461026557806345aa85391461026f5780634f09d9081461029f576101c4565b8063071d2fda146101c957806310455de5146101f957806310a57f3a14610229575b600080fd5b6101e360048036038101906101de9190612493565b6104f9565b6040516101f091906124d9565b60405180910390f35b610213600480360381019061020e9190612532565b610511565b60405161022091906124d9565b60405180910390f35b61023161070a565b60405161023e91906125be565b60405180910390f35b61024f610730565b60405161025c91906124d9565b60405180910390f35b61026d610736565b005b61028960048036038101906102849190612493565b6109d6565b60405161029691906124d9565b60405180910390f35b6102a76109ee565b005b6102b1610c8e565b005b6102cd60048036038101906102c89190612605565b610fdd565b6040516102da91906124d9565b60405180910390f35b6102eb611002565b6040516102f89190612654565b60405180910390f35b610309611028565b005b6103136112c8565b005b61031d611617565b005b6103396004803603810190610334919061266f565b61162b565b005b61035560048036038101906103509190612493565b611a2c565b60405161036291906124d9565b60405180910390f35b610373611b64565b6040516103809190612654565b60405180910390f35b610391611b8d565b60405161039e91906124d9565b60405180910390f35b6103af611b93565b6040516103bc9190612654565b60405180910390f35b6103df60048036038101906103da9190612493565b611bb9565b005b6103e9611caf565b6040516103f691906126d0565b60405180910390f35b61041960048036038101906104149190612493565b611cd5565b005b610423611dcb565b60405161043091906124d9565b60405180910390f35b610453600480360381019061044e91906126eb565b611dd1565b005b61045d611de3565b60405161046a91906124d9565b60405180910390f35b61048d60048036038101906104889190612493565b611de9565b005b6104a960048036038101906104a491906126eb565b611e6c565b005b6104b3611e7e565b6040516104c091906124d9565b60405180910390f35b6104e360048036038101906104de9190612493565b611e84565b6040516104f09190612733565b60405180910390f35b600d6020528060005260406000206000915090505481565b6000808273ffffffffffffffffffffffffffffffffffffffff166318160ddd6040518163ffffffff1660e01b8152600401602060405180830381865afa15801561055f573d6000803e3d6000fd5b505050506040513d601f19601f820116820180604052508101906105839190612763565b90506000600d60008573ffffffffffffffffffffffffffffffffffffffff1673ffffffffffffffffffffffffffffffffffffffff16815260200190815260200160002054905060008060008390505b6000811061066a576001836105e791906127bf565b925061064c600b60008973ffffffffffffffffffffffffffffffffffffffff1673ffffffffffffffffffffffffffffffffffffffff16815260200190815260200160002060008381526020019081526020016000205483611ea490919063ffffffff16565b9150600783101561066a578080610662906127f3565b9150506105d2565b5060008211610680576000945050505050610705565b60008411610695576000945050505050610705565b60006106aa8383611eba90919063ffffffff16565b90506106fd6106c3600287611ed090919063ffffffff16565b6106ef61016d6106e164e8d4a5100086611ed090919063ffffffff16565b611ed090919063ffffffff16565b611eba90919063ffffffff16565b955050505050505b919050565b600460009054906101000a900473ffffffffffffffffffffffffffffffffffffffff1681565b60065481565b61073e611ee6565b600460009054906101000a900473ffffffffffffffffffffffffffffffffffffffff1673ffffffffffffffffffffffffffffffffffffffff166342730c2c306040518263ffffffff1660e01b81526004016107999190612879565b602060405180830381865afa1580156107b6573d6000803e3d6000fd5b505050506040513d601f19601f820116820180604052508101906107da91906128d3565b610819576040517f08c379a00000000000000000000000000000000000000000000000000000000081526004016108109061294c565b60405180910390fd5b600460009054906101000a900473ffffffffffffffffffffffffffffffffffffffff1673ffffffffffffffffffffffffffffffffffffffff1663c0edbd4a306040518263ffffffff1660e01b815260040161087491906129b8565b602060405180830381865afa158015610891573d6000803e3d6000fd5b505050506040513d601f19601f820116820180604052508101906108b59190612763565b600581905550600460009054906101000a900473ffffffffffffffffffffffffffffffffffffffff1673ffffffffffffffffffffffffffffffffffffffff16636e977f0b60026040518263ffffffff1660e01b81526004016109179190612a41565b600060405180830381600087803b15801561093157600080fd5b505af1158015610945573d6000803e3d6000fd5b50505050600460009054906101000a900473ffffffffffffffffffffffffffffffffffffffff1673ffffffffffffffffffffffffffffffffffffffff16638aa07f966040518163ffffffff1660e01b81526004016109a290612a82565b600060405180830381600087803b1580156109bc57600080fd5b505af11580156109d0573d6000803e3d6000fd5b50505050565b600c6020528060005260406000206000915090505481565b6109f6611ee6565b600460009054906101000a900473ffffffffffffffffffffffffffffffffffffffff1673ffffffffffffffffffffffffffffffffffffffff166342730c2c306040518263ffffffff1660e01b8152600401610a519190612aee565b602060405180830381865afa158015610a6e573d6000803e3d6000fd5b505050506040513d601f19601f82011682018060405250810190610a9291906128d3565b610ad1576040517f08c379a0000000000000000000000000000000000000000000000000000000008152600401610ac89061294c565b60405180910390fd5b600460009054906101000a900473ffffffffffffffffffffffffffffffffffffffff1673ffffffffffffffffffffffffffffffffffffffff1663c0edbd4a306040518263ffffffff1660e01b8152600401610b2c9190612b68565b602060405180830381865afa158015610b49573d6000803e3d6000fd5b505050506040513d601f19601f82011682018060405250810190610b6d9190612763565b600681905550600460009054906101000a900473ffffffffffffffffffffffffffffffffffffffff1673ffffffffffffffffffffffffffffffffffffffff16636e977f0b60026040518263ffffffff1660e01b8152600401610bcf9190612ba9565b600060405180830381600087803b158015610be957600080fd5b505af1158015610bfd573d6000803e3d6000fd5b50505050600460009054906101000a900473ffffffffffffffffffffffffffffffffffffffff1673ffffffffffffffffffffffffffffffffffffffff16638aa07f966040518163ffffffff1660e01b8152600401610c5a90612bea565b600060405180830381600087803b158015610c7457600080fd5b505af1158015610c88573d6000803e3d6000fd5b50505050565b610c96611ee6565b600460009054906101000a900473ffffffffffffffffffffffffffffffffffffffff1673ffffffffffffffffffffffffffffffffffffffff166342730c2c306040518263ffffffff1660e01b8152600401610cf19190612c56565b602060405180830381865afa158015610d0e573d6000803e3d6000fd5b505050506040513d601f19601f82011682018060405250810190610d3291906128d3565b610d71576040517f08c379a0000000000000000000000000000000000000000000000000000000008152600401610d689061294c565b60405180910390fd5b6000600460009054906101000a900473ffffffffffffffffffffffffffffffffffffffff1673ffffffffffffffffffffffffffffffffffffffff16636bfb078d306040518263ffffffff1660e01b8152600401610dce9190612cd0565b602060405180830381865afa158015610deb573d6000803e3d6000fd5b505050506040513d601f19601f82011682018060405250810190610e0f9190612d26565b9050600073ffffffffffffffffffffffffffffffffffffffff168173ffffffffffffffffffffffffffffffffffffffff1603610e80576040517f08c379a0000000000000000000000000000000000000000000000000000000008152600401610e7790612d9f565b60405180910390fd5b80600360006101000a81548173ffffffffffffffffffffffffffffffffffffffff021916908373ffffffffffffffffffffffffffffffffffffffff160217905550600460009054906101000a900473ffffffffffffffffffffffffffffffffffffffff1673ffffffffffffffffffffffffffffffffffffffff16636e977f0b60016040518263ffffffff1660e01b8152600401610f1d9190612dfa565b600060405180830381600087803b158015610f3757600080fd5b505af1158015610f4b573d6000803e3d6000fd5b50505050600460009054906101000a900473ffffffffffffffffffffffffffffffffffffffff1673ffffffffffffffffffffffffffffffffffffffff16638aa07f966040518163ffffffff1660e01b8152600401610fa890612e3b565b600060405180830381600087803b158015610fc257600080fd5b505af1158015610fd6573d6000803e3d6000fd5b5050505050565b600b602052816000526040600020602052806000526040600020600091509150505481565b600360009054906101000a900473ffffffffffffffffffffffffffffffffffffffff1681565b611030611ee6565b600460009054906101000a900473ffffffffffffffffffffffffffffffffffffffff1673ffffffffffffffffffffffffffffffffffffffff166342730c2c306040518263ffffffff1660e01b815260040161108b9190612ea7565b602060405180830381865afa1580156110a8573d6000803e3d6000fd5b505050506040513d601f19601f820116820180604052508101906110cc91906128d3565b61110b576040517f08c379a00000000000000000000000000000000000000000000000000000000081526004016111029061294c565b60405180910390fd5b600460009054906101000a900473ffffffffffffffffffffffffffffffffffffffff1673ffffffffffffffffffffffffffffffffffffffff1663c0edbd4a306040518263ffffffff1660e01b81526004016111669190612f21565b602060405180830381865afa158015611183573d6000803e3d6000fd5b505050506040513d601f19601f820116820180604052508101906111a79190612763565b600881905550600460009054906101000a900473ffffffffffffffffffffffffffffffffffffffff1673ffffffffffffffffffffffffffffffffffffffff16636e977f0b60026040518263ffffffff1660e01b81526004016112099190612f62565b600060405180830381600087803b15801561122357600080fd5b505af1158015611237573d6000803e3d6000fd5b50505050600460009054906101000a900473ffffffffffffffffffffffffffffffffffffffff1673ffffffffffffffffffffffffffffffffffffffff16638aa07f966040518163ffffffff1660e01b815260040161129490612fa3565b600060405180830381600087803b1580156112ae57600080fd5b505af11580156112c2573d6000803e3d6000fd5b50505050565b6112d0611ee6565b600460009054906101000a900473ffffffffffffffffffffffffffffffffffffffff1673ffffffffffffffffffffffffffffffffffffffff166342730c2c306040518263ffffffff1660e01b815260040161132b919061300f565b602060405180830381865afa158015611348573d6000803e3d6000fd5b505050506040513d601f19601f8201168201806040525081019061136c91906128d3565b6113ab576040517f08c379a00000000000000000000000000000000000000000000000000000000081526004016113a29061294c565b60405180910390fd5b6000600460009054906101000a900473ffffffffffffffffffffffffffffffffffffffff1673ffffffffffffffffffffffffffffffffffffffff16636bfb078d306040518263ffffffff1660e01b81526004016114089190613089565b602060405180830381865afa158015611425573d6000803e3d6000fd5b505050506040513d601f19601f820116820180604052508101906114499190612d26565b9050600073ffffffffffffffffffffffffffffffffffffffff168173ffffffffffffffffffffffffffffffffffffffff16036114ba576040517f08c379a00000000000000000000000000000000000000000000000000000000081526004016114b190612d9f565b60405180910390fd5b80600260006101000a81548173ffffffffffffffffffffffffffffffffffffffff021916908373ffffffffffffffffffffffffffffffffffffffff160217905550600460009054906101000a900473ffffffffffffffffffffffffffffffffffffffff1673ffffffffffffffffffffffffffffffffffffffff16636e977f0b60016040518263ffffffff1660e01b815260040161155791906130ca565b600060405180830381600087803b15801561157157600080fd5b505af1158015611585573d6000803e3d6000fd5b50505050600460009054906101000a900473ffffffffffffffffffffffffffffffffffffffff1673ffffffffffffffffffffffffffffffffffffffff16638aa07f966040518163ffffffff1660e01b81526004016115e29061310b565b600060405180830381600087803b1580156115fc57600080fd5b505af1158015611610573d6000803e3d6000fd5b5050505050565b61161f611ee6565b6116296000611f64565b565b60011515600a60003373ffffffffffffffffffffffffffffffffffffffff1673ffffffffffffffffffffffffffffffffffffffff16815260200190815260200160002060009054906101000a900460ff161515146116be576040517f08c379a00000000000000000000000000000000000000000000000000000000081526004016116b590613177565b60405180910390fd5b60008273ffffffffffffffffffffffffffffffffffffffff166370a08231306040518263ffffffff1660e01b81526004016116f99190612654565b602060405180830381865afa158015611716573d6000803e3d6000fd5b505050506040513d601f19601f8201168201806040525081019061173a9190612763565b90506000811161177f576040517f08c379a0000000000000000000000000000000000000000000000000000000008152600401611776906131e3565b60405180910390fd5b60006117a9606461179b60055485611ed090919063ffffffff16565b611eba90919063ffffffff16565b905060006117d560646117c760065486611ed090919063ffffffff16565b611eba90919063ffffffff16565b90508473ffffffffffffffffffffffffffffffffffffffff1663a9059cbb600260009054906101000a900473ffffffffffffffffffffffffffffffffffffffff16846040518363ffffffff1660e01b8152600401611834929190613203565b6020604051808303816000875af1158015611853573d6000803e3d6000fd5b505050506040513d601f19601f8201168201806040525081019061187791906128d3565b508473ffffffffffffffffffffffffffffffffffffffff1663a9059cbb600360009054906101000a900473ffffffffffffffffffffffffffffffffffffffff16836040518363ffffffff1660e01b81526004016118d5929190613203565b6020604051808303816000875af11580156118f4573d6000803e3d6000fd5b505050506040513d601f19601f8201168201806040525081019061191891906128d3565b508473ffffffffffffffffffffffffffffffffffffffff1663a9059cbb338773ffffffffffffffffffffffffffffffffffffffff166370a08231306040518263ffffffff1660e01b815260040161196f9190612654565b602060405180830381865afa15801561198c573d6000803e3d6000fd5b505050506040513d601f19601f820116820180604052508101906119b09190612763565b6040518363ffffffff1660e01b81526004016119cd929190613203565b6020604051808303816000875af11580156119ec573d6000803e3d6000fd5b505050506040513d601f19601f82011682018060405250810190611a1091906128d3565b50611a1b8484612028565b611a2533846121f9565b5050505050565b6000808273ffffffffffffffffffffffffffffffffffffffff1663d13229626040518163ffffffff1660e01b8152600401602060405180830381865afa158015611a7a573d6000803e3d6000fd5b505050506040513d601f19601f82011682018060405250810190611a9e9190612763565b90506000600b60008573ffffffffffffffffffffffffffffffffffffffff1673ffffffffffffffffffffffffffffffffffffffff1681526020019081526020016000206000600d60008773ffffffffffffffffffffffffffffffffffffffff1673ffffffffffffffffffffffffffffffffffffffff168152602001908152602001600020548152602001908152602001600020549050611b5b82611b4d6103e884611ed090919063ffffffff16565b611eba90919063ffffffff16565b92505050919050565b60008060009054906101000a900473ffffffffffffffffffffffffffffffffffffffff16905090565b60075481565b600260009054906101000a900473ffffffffffffffffffffffffffffffffffffffff1681565b611bc1611ee6565b60011515600a60008373ffffffffffffffffffffffffffffffffffffffff1673ffffffffffffffffffffffffffffffffffffffff16815260200190815260200160002060009054906101000a900460ff16151514611c54576040517f08c379a0000000000000000000000000000000000000000000000000000000008152600401611c4b90613278565b60405180910390fd5b6000600a60008373ffffffffffffffffffffffffffffffffffffffff1673ffffffffffffffffffffffffffffffffffffffff16815260200190815260200160002060006101000a81548160ff02191690831515021790555050565b600160009054906101000a900473ffffffffffffffffffffffffffffffffffffffff1681565b611cdd611ee6565b60011515600a60008373ffffffffffffffffffffffffffffffffffffffff1673ffffffffffffffffffffffffffffffffffffffff16815260200190815260200160002060009054906101000a900460ff16151503611d70576040517f08c379a0000000000000000000000000000000000000000000000000000000008152600401611d67906132e4565b60405180910390fd5b6001600a60008373ffffffffffffffffffffffffffffffffffffffff1673ffffffffffffffffffffffffffffffffffffffff16815260200190815260200160002060006101000a81548160ff02191690831515021790555050565b60085481565b611dd9611ee6565b8060098190555050565b60055481565b611df1611ee6565b600073ffffffffffffffffffffffffffffffffffffffff168173ffffffffffffffffffffffffffffffffffffffff1603611e60576040517f08c379a0000000000000000000000000000000000000000000000000000000008152600401611e5790613376565b60405180910390fd5b611e6981611f64565b50565b611e74611ee6565b8060078190555050565b60095481565b600a6020528060005260406000206000915054906101000a900460ff1681565b60008183611eb291906127bf565b905092915050565b60008183611ec891906133c5565b905092915050565b60008183611ede91906133f6565b905092915050565b611eee612428565b73ffffffffffffffffffffffffffffffffffffffff16611f0c611b64565b73ffffffffffffffffffffffffffffffffffffffff1614611f62576040517f08c379a0000000000000000000000000000000000000000000000000000000008152600401611f5990613484565b60405180910390fd5b565b60008060009054906101000a900473ffffffffffffffffffffffffffffffffffffffff169050816000806101000a81548173ffffffffffffffffffffffffffffffffffffffff021916908373ffffffffffffffffffffffffffffffffffffffff1602179055508173ffffffffffffffffffffffffffffffffffffffff168173ffffffffffffffffffffffffffffffffffffffff167f8be0079c531659141344cd1fd0a4f28419497f9722a3daafe3b4186f6b6457e060405160405180910390a35050565b6000600160009054906101000a900473ffffffffffffffffffffffffffffffffffffffff1673ffffffffffffffffffffffffffffffffffffffff166370a08231306040518263ffffffff1660e01b81526004016120859190612654565b602060405180830381865afa1580156120a2573d6000803e3d6000fd5b505050506040513d601f19601f820116820180604052508101906120c69190612763565b905060006007549050600854831015612103576121006008546120f28584611ed090919063ffffffff16565b611eba90919063ffffffff16565b90505b8181111561210f578190505b60008111156121f357600160009054906101000a900473ffffffffffffffffffffffffffffffffffffffff1673ffffffffffffffffffffffffffffffffffffffff1663a9059cbb85836040518363ffffffff1660e01b8152600401612175929190613203565b6020604051808303816000875af1158015612194573d6000803e3d6000fd5b505050506040513d601f19601f820116820180604052508101906121b891906128d3565b507f96eaa1ed1e7f1418c12a0485dc6a8c4b3567c2b7ef81cf269a38c7d256b06f1a84826040516121ea929190613203565b60405180910390a15b50505050565b4261224e600954600c60008673ffffffffffffffffffffffffffffffffffffffff1673ffffffffffffffffffffffffffffffffffffffff16815260200190815260200160002054611ea490919063ffffffff16565b116122ef576001600d60008473ffffffffffffffffffffffffffffffffffffffff1673ffffffffffffffffffffffffffffffffffffffff16815260200190815260200160002060008282546122a391906127bf565b9250508190555042600c60008473ffffffffffffffffffffffffffffffffffffffff1673ffffffffffffffffffffffffffffffffffffffff168152602001908152602001600020819055505b61239181600b60008573ffffffffffffffffffffffffffffffffffffffff1673ffffffffffffffffffffffffffffffffffffffff1681526020019081526020016000206000600d60008773ffffffffffffffffffffffffffffffffffffffff1673ffffffffffffffffffffffffffffffffffffffff16815260200190815260200160002054815260200190815260200160002054611ea490919063ffffffff16565b600b60008473ffffffffffffffffffffffffffffffffffffffff1673ffffffffffffffffffffffffffffffffffffffff1681526020019081526020016000206000600d60008673ffffffffffffffffffffffffffffffffffffffff1673ffffffffffffffffffffffffffffffffffffffff168152602001908152602001600020548152602001908152602001600020819055505050565b600033905090565b600080fd5b600073ffffffffffffffffffffffffffffffffffffffff82169050919050565b600061246082612435565b9050919050565b61247081612455565b811461247b57600080fd5b50565b60008135905061248d81612467565b92915050565b6000602082840312156124a9576124a8612430565b5b60006124b78482850161247e565b91505092915050565b6000819050919050565b6124d3816124c0565b82525050565b60006020820190506124ee60008301846124ca565b92915050565b60006124ff82612455565b9050919050565b61250f816124f4565b811461251a57600080fd5b50565b60008135905061252c81612506565b92915050565b60006020828403121561254857612547612430565b5b60006125568482850161251d565b91505092915050565b6000819050919050565b600061258461257f61257a84612435565b61255f565b612435565b9050919050565b600061259682612569565b9050919050565b60006125a88261258b565b9050919050565b6125b88161259d565b82525050565b60006020820190506125d360008301846125af565b92915050565b6125e2816124c0565b81146125ed57600080fd5b50565b6000813590506125ff816125d9565b92915050565b6000806040838503121561261c5761261b612430565b5b600061262a8582860161247e565b925050602061263b858286016125f0565b9150509250929050565b61264e81612455565b82525050565b60006020820190506126696000830184612645565b92915050565b6000806040838503121561268657612685612430565b5b60006126948582860161251d565b92505060206126a58582860161247e565b9150509250929050565b60006126ba8261258b565b9050919050565b6126ca816126af565b82525050565b60006020820190506126e560008301846126c1565b92915050565b60006020828403121561270157612700612430565b5b600061270f848285016125f0565b91505092915050565b60008115159050919050565b61272d81612718565b82525050565b60006020820190506127486000830184612724565b92915050565b60008151905061275d816125d9565b92915050565b60006020828403121561277957612778612430565b5b60006127878482850161274e565b91505092915050565b7f4e487b7100000000000000000000000000000000000000000000000000000000600052601160045260246000fd5b60006127ca826124c0565b91506127d5836124c0565b92508282019050808211156127ed576127ec612790565b5b92915050565b60006127fe826124c0565b91506000820361281157612810612790565b5b600182039050919050565b600082825260208201905092915050565b7f736574506572666f726d616e6365466565000000000000000000000000000000600082015250565b600061286360118361281c565b915061286e8261282d565b602082019050919050565b600060408201905061288e6000830184612645565b818103602083015261289f81612856565b905092915050565b6128b081612718565b81146128bb57600080fd5b50565b6000815190506128cd816128a7565b92915050565b6000602082840312156128e9576128e8612430565b5b60006128f7848285016128be565b91505092915050565b7f494e56414c49445f5045524d495353494f4e0000000000000000000000000000600082015250565b600061293660128361281c565b915061294182612900565b602082019050919050565b6000602082019050818103600083015261296581612929565b9050919050565b7f504552464f524d414e43455f4645450000000000000000000000000000000000600082015250565b60006129a2600f8361281c565b91506129ad8261296c565b602082019050919050565b60006060820190506129cd6000830184612645565b81810360208301526129de81612856565b905081810360408301526129f181612995565b905092915050565b6000819050919050565b600060ff82169050919050565b6000612a2b612a26612a21846129f9565b61255f565b612a03565b9050919050565b612a3b81612a10565b82525050565b60006060820190508181036000830152612a5a81612856565b90508181036020830152612a6d81612995565b9050612a7c6040830184612a32565b92915050565b60006020820190508181036000830152612a9b81612856565b9050919050565b7f7365745361667546656500000000000000000000000000000000000000000000600082015250565b6000612ad8600a8361281c565b9150612ae382612aa2565b602082019050919050565b6000604082019050612b036000830184612645565b8181036020830152612b1481612acb565b905092915050565b7f534146555f46554e440000000000000000000000000000000000000000000000600082015250565b6000612b5260098361281c565b9150612b5d82612b1c565b602082019050919050565b6000606082019050612b7d6000830184612645565b8181036020830152612b8e81612acb565b90508181036040830152612ba181612b45565b905092915050565b60006060820190508181036000830152612bc281612acb565b90508181036020830152612bd581612b45565b9050612be46040830184612a32565b92915050565b60006020820190508181036000830152612c0381612acb565b9050919050565b7f7365745361667546756e64436f6e747261637400000000000000000000000000600082015250565b6000612c4060138361281c565b9150612c4b82612c0a565b602082019050919050565b6000604082019050612c6b6000830184612645565b8181036020830152612c7c81612c33565b905092915050565b7f7361667546756e64436f6e747261637400000000000000000000000000000000600082015250565b6000612cba60108361281c565b9150612cc582612c84565b602082019050919050565b6000606082019050612ce56000830184612645565b8181036020830152612cf681612c33565b90508181036040830152612d0981612cad565b905092915050565b600081519050612d2081612467565b92915050565b600060208284031215612d3c57612d3b612430565b5b6000612d4a84828501612d11565b91505092915050565b7f494e56414c49445f414444524553530000000000000000000000000000000000600082015250565b6000612d89600f8361281c565b9150612d9482612d53565b602082019050919050565b60006020820190508181036000830152612db881612d7c565b9050919050565b6000819050919050565b6000612de4612ddf612dda84612dbf565b61255f565b612a03565b9050919050565b612df481612dc9565b82525050565b60006060820190508181036000830152612e1381612c33565b90508181036020830152612e2681612cad565b9050612e356040830184612deb565b92915050565b60006020820190508181036000830152612e5481612c33565b9050919050565b7f7365744d61784665654f6e446973747269627574650000000000000000000000600082015250565b6000612e9160158361281c565b9150612e9c82612e5b565b602082019050919050565b6000604082019050612ebc6000830184612645565b8181036020830152612ecd81612e84565b905092915050565b7f4d41585f4645455f4f4e5f444953545249425554450000000000000000000000600082015250565b6000612f0b60158361281c565b9150612f1682612ed5565b602082019050919050565b6000606082019050612f366000830184612645565b8181036020830152612f4781612e84565b90508181036040830152612f5a81612efe565b905092915050565b60006060820190508181036000830152612f7b81612e84565b90508181036020830152612f8e81612efe565b9050612f9d6040830184612a32565b92915050565b60006020820190508181036000830152612fbc81612e84565b9050919050565b7f736574506572666f726d616e63654d616368696e650000000000000000000000600082015250565b6000612ff960158361281c565b915061300482612fc3565b602082019050919050565b60006040820190506130246000830184612645565b818103602083015261303581612fec565b905092915050565b7f706572666f726d616e63654d616368696e650000000000000000000000000000600082015250565b600061307360128361281c565b915061307e8261303d565b602082019050919050565b600060608201905061309e6000830184612645565b81810360208301526130af81612fec565b905081810360408301526130c281613066565b905092915050565b600060608201905081810360008301526130e381612fec565b905081810360208301526130f681613066565b90506131056040830184612deb565b92915050565b6000602082019050818103600083015261312481612fec565b9050919050565b7f504149525f4e4f545f434f525245435400000000000000000000000000000000600082015250565b600061316160108361281c565b915061316c8261312b565b602082019050919050565b6000602082019050818103600083015261319081613154565b9050919050565b7f544f4b454e5f42414c414e43455f5a45524f0000000000000000000000000000600082015250565b60006131cd60128361281c565b91506131d882613197565b602082019050919050565b600060208201905081810360008301526131fc816131c0565b9050919050565b60006040820190506132186000830185612645565b61322560208301846124ca565b9392505050565b7f4e4f545f494e5f5448455f4c4953540000000000000000000000000000000000600082015250565b6000613262600f8361281c565b915061326d8261322c565b602082019050919050565b6000602082019050818103600083015261329181613255565b9050919050565b7f494e5f5448455f4c495354000000000000000000000000000000000000000000600082015250565b60006132ce600b8361281c565b91506132d982613298565b602082019050919050565b600060208201905081810360008301526132fd816132c1565b9050919050565b7f4f776e61626c653a206e6577206f776e657220697320746865207a65726f206160008201527f6464726573730000000000000000000000000000000000000000000000000000602082015250565b600061336060268361281c565b915061336b82613304565b604082019050919050565b6000602082019050818103600083015261338f81613353565b9050919050565b7f4e487b7100000000000000000000000000000000000000000000000000000000600052601260045260246000fd5b60006133d0826124c0565b91506133db836124c0565b9250826133eb576133ea613396565b5b828204905092915050565b6000613401826124c0565b915061340c836124c0565b925082820261341a816124c0565b9150828204841483151761343157613430612790565b5b5092915050565b7f4f776e61626c653a2063616c6c6572206973206e6f7420746865206f776e6572600082015250565b600061346e60208361281c565b915061347982613438565b602082019050919050565b6000602082019050818103600083015261349d81613461565b905091905056fea26469706673582212206fa548c8ee8f324a2b3baa8acc97d5487574d44dd58865b1d46aadcfbfdabee664736f6c63430008110033",
  "immutableReferences": {},
  "source": "// SPDX-License-Identifier: MIT\npragma solidity >=0.6.12;\n\nimport \"@openzeppelin/contracts/utils/math/SafeMath.sol\";\nimport \"@openzeppelin/contracts/token/ERC20/IERC20.sol\";\nimport \"@openzeppelin/contracts/access/Ownable.sol\";\n\nimport './interfaces/IGarbiTimeLock.sol';\n\ncontract ISwapTrade {\n    uint256 public TRADE_FEE; //0.1% 1/1000\n} \n\ncontract GarbiswapFeeMachine is Ownable{\n    \n    using SafeMath for uint256;\n\n    IERC20 public GRB;\n    \n    address public performanceMachineContract; // the contract will use fee to Buy GARBI on pancakeswap , then burn\n    address public safuFundContract;\n\n    IGarbiTimeLock public garbiTimeLockContract;\n\n    uint256 public PERFORMANCE_FEE = 16; //16% 16/100 from 0.1% trade fee \n    uint256 public SAFU_FUND = 4; //4% 4/100 from 0.1% trade fee\n\n    uint256 public DISTRIBUTE_GARBI_AMOUNT = 2 * 1e17;\n    // $1000 => fee = 1000*0.2/100 => 2\n    uint256 public MAX_FEE_ON_DISTRIBUTE = 2 * 1e18;\n    uint256 public DAY_PERIOD = 1 days;\n\n    mapping (address => bool) public pairs;\n    mapping (address => mapping(uint256 => uint256)) public feeOf;\n    mapping (address => uint256) public timeOfCreateNewFee;\n    mapping (address => uint256) public totalDays;\n\n    event onDistributeGarbi(address _trader, uint256 _amount);\n    \n    constructor(\n        IERC20 _grb,\n        address _performanceMachineContract, \n        address _safuFundContract,\n        IGarbiTimeLock _garbiTimeLockContract\n        ) {\n        garbiTimeLockContract = _garbiTimeLockContract;\n        performanceMachineContract = _performanceMachineContract;\n        safuFundContract = _safuFundContract;\n\n        GRB = _grb;\n    }\n\n    function setDayPeriod(uint256 _value) public onlyOwner {\n        DAY_PERIOD = _value;\n    }\n    function addPair(address _pair) public onlyOwner {\n        require(pairs[_pair] != true, \"IN_THE_LIST\");\n        pairs[_pair] = true;\n    }\n\n    function removePair(address _pair) public onlyOwner {\n        require(pairs[_pair] == true, \"NOT_IN_THE_LIST\");\n        pairs[_pair] = false;\n    }\n\n    function setDistributeGarbiAmount(uint256 _amount) public onlyOwner {\n        DISTRIBUTE_GARBI_AMOUNT = _amount;\n    }\n\n\n    function setPerformanceMachine() public onlyOwner {\n\n        require(garbiTimeLockContract.isQueuedTransaction(address(this), 'setPerformanceMachine'), \"INVALID_PERMISSION\");\n\n        address _performanceMachine = garbiTimeLockContract.getAddressChangeOnTimeLock(address(this), 'setPerformanceMachine', 'performanceMachine');\n\n        require(_performanceMachine != address(0), \"INVALID_ADDRESS\");\n\n        performanceMachineContract = _performanceMachine;\n\n        garbiTimeLockContract.clearFieldValue('setPerformanceMachine', 'performanceMachine', 1);\n        garbiTimeLockContract.doneTransactions('setPerformanceMachine');\n    }\n\n    function setSafuFundContract() public onlyOwner {\n\n        require(garbiTimeLockContract.isQueuedTransaction(address(this), 'setSafuFundContract'), \"INVALID_PERMISSION\");\n\n        address _safuFundContract = garbiTimeLockContract.getAddressChangeOnTimeLock(address(this), 'setSafuFundContract', 'safuFundContract');\n\n        require(_safuFundContract != address(0), \"INVALID_ADDRESS\");\n\n        safuFundContract = _safuFundContract;\n\n        garbiTimeLockContract.clearFieldValue('setSafuFundContract', 'safuFundContract', 1);\n        garbiTimeLockContract.doneTransactions('setSafuFundContract');\n    }\n\n    function setPerformanceFee() public onlyOwner {\n\n        require(garbiTimeLockContract.isQueuedTransaction(address(this), 'setPerformanceFee'), \"INVALID_PERMISSION\");\n\n        PERFORMANCE_FEE = garbiTimeLockContract.getUintChangeOnTimeLock(address(this), 'setPerformanceFee', 'PERFORMANCE_FEE');\n\n        garbiTimeLockContract.clearFieldValue('setPerformanceFee', 'PERFORMANCE_FEE', 2);\n        garbiTimeLockContract.doneTransactions('setPerformanceFee');\n    }\n\n    function setSafuFee() public onlyOwner {\n\n        require(garbiTimeLockContract.isQueuedTransaction(address(this), 'setSafuFee'), \"INVALID_PERMISSION\");\n\n        SAFU_FUND = garbiTimeLockContract.getUintChangeOnTimeLock(address(this), 'setSafuFee', 'SAFU_FUND');\n\n        garbiTimeLockContract.clearFieldValue('setSafuFee', 'SAFU_FUND', 2);\n        garbiTimeLockContract.doneTransactions('setSafuFee');\n    }\n\n\n    function setMaxFeeOnDistribute() public onlyOwner {\n\n        require(garbiTimeLockContract.isQueuedTransaction(address(this), 'setMaxFeeOnDistribute'), \"INVALID_PERMISSION\");\n\n        MAX_FEE_ON_DISTRIBUTE = garbiTimeLockContract.getUintChangeOnTimeLock(address(this), 'setMaxFeeOnDistribute', 'MAX_FEE_ON_DISTRIBUTE');\n\n        garbiTimeLockContract.clearFieldValue('setMaxFeeOnDistribute', 'MAX_FEE_ON_DISTRIBUTE', 2);\n        garbiTimeLockContract.doneTransactions('setMaxFeeOnDistribute');\n    }\n\n    function processTradeFee(IERC20 token, address trader) public {\n\n        require(pairs[msg.sender] == true, \"PAIR_NOT_CORRECT\");\n\n        uint256 tokenBalance = token.balanceOf(address(this)); \n        require(tokenBalance > 0, \"TOKEN_BALANCE_ZERO\");\n        uint256 performanceFee = tokenBalance.mul(PERFORMANCE_FEE).div(100);\n        uint256 safuFundAmount = tokenBalance.mul(SAFU_FUND).div(100);\n        token.transfer(performanceMachineContract, performanceFee);\n        token.transfer(safuFundContract, safuFundAmount);\n        token.transfer(msg.sender, token.balanceOf(address(this))); //send back the trade fee after cut 20% (trade fee for LP = 0.24%)\n\n        _distributeGarbi(trader, tokenBalance);\n        _updateDailyFee(msg.sender, tokenBalance);\n    }\n\n    function _updateDailyFee(address _lp, uint256 _fee) private {\n        if (timeOfCreateNewFee[_lp].add(DAY_PERIOD) <= block.timestamp) {\n            totalDays[_lp] += 1;\n            timeOfCreateNewFee[_lp] = block.timestamp;\n        } \n        feeOf[_lp][totalDays[_lp]] = feeOf[_lp][totalDays[_lp]].add(_fee);\n    }\n\n    function _distributeGarbi(address trader, uint256 fee) private {\n        uint256 _grbBal = GRB.balanceOf(address(this));\n        uint256 _distributeAmt = DISTRIBUTE_GARBI_AMOUNT;\n\n        if (fee < MAX_FEE_ON_DISTRIBUTE) {\n            _distributeAmt = _distributeAmt.mul(fee).div(MAX_FEE_ON_DISTRIBUTE);\n        }\n\n        if (_distributeAmt > _grbBal) {\n            _distributeAmt = _grbBal;\n        }\n        if (_distributeAmt > 0) {\n            GRB.transfer(trader, _distributeAmt);\n            emit onDistributeGarbi(trader, _distributeAmt);\n        }\n    }\n    function getTradeFeeAPY(IERC20 _lp) public view returns(uint256) {\n        uint256 _totalSupply = _lp.totalSupply(); // Base and Token = 2 * total supply\n        uint256 _totalDays = totalDays[address(_lp)];\n        uint256 _count = 0;\n        uint256 _totalFee = 0;\n        for (uint256 idx = _totalDays; idx >= 0; idx--) {\n            _count += 1;\n            _totalFee = _totalFee.add(feeOf[address(_lp)][idx]);\n            if (_count >= 7) {\n                break;\n            }\n        }\n        if (_count <= 0) {\n            return 0;\n        }\n        if (_totalSupply <= 0) {\n            return 0;\n        }\n        uint256 _dailyFee = _totalFee.div(_count);\n        return _dailyFee.mul(1e12).mul(365).div(_totalSupply.mul(2));\n    }\n    function getVolume(address _lp) public view returns(uint256) {\n        uint256 _tradeFee = ISwapTrade(_lp).TRADE_FEE();\n        uint256 _feeOnLastDay = feeOf[_lp][totalDays[_lp]];\n        // TRADE_FEE = 2; //0.2% 2/1000\n        // $1000 => fee = 1000*0.2/100 => 2\n        // => Volume = 1000 * fee / TRADE_FEE\n        return _feeOnLastDay.mul(1000).div(_tradeFee);\n    }\n}",
  "sourcePath": "/home/falcon/codes/products/garbiprotocol.github.io/garbi_contracts/contracts/GarbiswapFeeMachine.sol",
  "compiler": {
    "name": "solc",
    "version": "0.8.17+commit.8df45f5f.Emscripten.clang"
  },
  "schemaVersion": "3.4.10",
  "updatedAt": "2023-01-10T09:11:17.474Z",
  "devdoc": {
    "kind": "dev",
    "methods": {
      "owner()": {
        "details": "Returns the address of the current owner."
      },
      "renounceOwnership()": {
        "details": "Leaves the contract without owner. It will not be possible to call `onlyOwner` functions anymore. Can only be called by the current owner. NOTE: Renouncing ownership will leave the contract without an owner, thereby removing any functionality that is only available to the owner."
      },
      "transferOwnership(address)": {
        "details": "Transfers ownership of the contract to a new account (`newOwner`). Can only be called by the current owner."
      }
    },
    "version": 1
  },
  "userdoc": {
    "kind": "user",
    "methods": {},
    "version": 1
  }
}