{
  "contractName": "GarbiOracle",
  "abi": [
    {
      "anonymous": false,
      "inputs": [
        {
          "indexed": true,
          "internalType": "address",
          "name": "previousOwner",
          "type": "address"
        },
        {
          "indexed": true,
          "internalType": "address",
          "name": "newOwner",
          "type": "address"
        }
      ],
      "name": "OwnershipTransferred",
      "type": "event"
    },
    {
      "inputs": [],
      "name": "owner",
      "outputs": [
        {
          "internalType": "address",
          "name": "",
          "type": "address"
        }
      ],
      "stateMutability": "view",
      "type": "function"
    },
    {
      "inputs": [
        {
          "internalType": "address",
          "name": "",
          "type": "address"
        }
      ],
      "name": "priceFeed",
      "outputs": [
        {
          "internalType": "contract AggregatorV3Interface",
          "name": "",
          "type": "address"
        }
      ],
      "stateMutability": "view",
      "type": "function"
    },
    {
      "inputs": [],
      "name": "renounceOwnership",
      "outputs": [],
      "stateMutability": "nonpayable",
      "type": "function"
    },
    {
      "inputs": [
        {
          "internalType": "address",
          "name": "newOwner",
          "type": "address"
        }
      ],
      "name": "transferOwnership",
      "outputs": [],
      "stateMutability": "nonpayable",
      "type": "function"
    },
    {
      "inputs": [
        {
          "internalType": "address",
          "name": "token",
          "type": "address"
        },
        {
          "internalType": "contract AggregatorV3Interface",
          "name": "_priceFeed",
          "type": "address"
        }
      ],
      "name": "setPriceFeedContract",
      "outputs": [],
      "stateMutability": "nonpayable",
      "type": "function"
    },
    {
      "inputs": [
        {
          "internalType": "address",
          "name": "token",
          "type": "address"
        }
      ],
      "name": "getLatestPrice",
      "outputs": [
        {
          "internalType": "uint256",
          "name": "",
          "type": "uint256"
        }
      ],
      "stateMutability": "view",
      "type": "function"
    }
  ],
  "bytecode": "0x608060405234801561001057600080fd5b5061001a3361001f565b61006f565b600080546001600160a01b038381166001600160a01b0319831681178455604051919092169283917f8be0079c531659141344cd1fd0a4f28419497f9722a3daafe3b4186f6b6457e09190a35050565b6104688061007e6000396000f3fe608060405234801561001057600080fd5b50600436106100625760003560e01c806316345f18146100675780631fd48b9a1461008d578063715018a6146100ce578063877dd39d146100d85780638da5cb5b146100eb578063f2fde38b146100fc575b600080fd5b61007a610075366004610366565b61010f565b6040519081526020015b60405180910390f35b6100b661009b366004610366565b6001602052600090815260409020546001600160a01b031681565b6040516001600160a01b039091168152602001610084565b6100d6610199565b005b6100d66100e636600461038a565b6101ad565b6000546001600160a01b03166100b6565b6100d661010a366004610366565b61022e565b6001600160a01b03808216600090815260016020526040808220548151633fabe5a360e21b815291519293849391169163feaf968c9160048083019260a09291908290030181865afa158015610169573d6000803e3d6000fd5b505050506040513d601f19601f8201168201806040525081019061018d91906103e2565b50919695505050505050565b6101a16102a7565b6101ab6000610301565b565b6101b56102a7565b6001600160a01b0382166102005760405162461bcd60e51b815260206004820152600d60248201526c24a72b20a624a22faa27a5a2a760991b60448201526064015b60405180910390fd5b6001600160a01b03918216600090815260016020526040902080546001600160a01b03191691909216179055565b6102366102a7565b6001600160a01b03811661029b5760405162461bcd60e51b815260206004820152602660248201527f4f776e61626c653a206e6577206f776e657220697320746865207a65726f206160448201526564647265737360d01b60648201526084016101f7565b6102a481610301565b50565b6000546001600160a01b031633146101ab5760405162461bcd60e51b815260206004820181905260248201527f4f776e61626c653a2063616c6c6572206973206e6f7420746865206f776e657260448201526064016101f7565b600080546001600160a01b038381166001600160a01b0319831681178455604051919092169283917f8be0079c531659141344cd1fd0a4f28419497f9722a3daafe3b4186f6b6457e09190a35050565b6001600160a01b03811681146102a457600080fd5b60006020828403121561037857600080fd5b813561038381610351565b9392505050565b6000806040838503121561039d57600080fd5b82356103a881610351565b915060208301356103b881610351565b809150509250929050565b805169ffffffffffffffffffff811681146103dd57600080fd5b919050565b600080600080600060a086880312156103fa57600080fd5b610403866103c3565b9450602086015193506040860151925060608601519150610426608087016103c3565b9050929550929590935056fea264697066735822122010ea13233af0e447a5baa08225206a31fd7a51768358d9ca5e61b212a561333f64736f6c63430008110033",
  "immutableReferences": {},
  "source": "// SPDX-License-Identifier: MIT\npragma solidity >=0.6.12;\n\nimport \"@openzeppelin/contracts/utils/math/SafeMath.sol\";\nimport \"@openzeppelin/contracts/token/ERC20/IERC20.sol\";\nimport \"@openzeppelin/contracts/utils/Context.sol\";\nimport \"@openzeppelin/contracts/access/Ownable.sol\";\nimport \"@chainlink/contracts/src/v0.8/interfaces/AggregatorV3Interface.sol\";\n\ncontract GarbiOracle is Ownable {\n\n    using SafeMath for uint256;\n\n    mapping(address => AggregatorV3Interface) public priceFeed;\n\n    function setPriceFeedContract(address token, AggregatorV3Interface _priceFeed) public onlyOwner {\n        require(token != address(0), \"INVALID_TOKEN\");\n        priceFeed[token] = AggregatorV3Interface(\n            _priceFeed\n        );\n    }\n\n    function getLatestPrice(address token) public view returns (uint256) {\n        (\n            ,\n            /*uint80 roundID*/ int price /*uint startedAt*/ /*uint timeStamp*/ /*uint80 answeredInRound*/,\n            ,\n            ,\n\n        ) = priceFeed[token].latestRoundData();\n        return uint256(price);\n    }\n}",
  "sourcePath": "/Applications/projects/garbiprotocol.github.io/garbi_contracts/contracts/GarbiOracle.sol",
  "compiler": {
    "name": "solc",
    "version": "0.8.17+commit.8df45f5f.Emscripten.clang"
  },
  "schemaVersion": "3.4.11",
  "updatedAt": "2023-01-28T08:56:38.237Z",
  "networkType": "ethereum",
  "devdoc": {
    "kind": "dev",
    "methods": {
      "owner()": {
        "details": "Returns the address of the current owner."
      },
      "renounceOwnership()": {
        "details": "Leaves the contract without owner. It will not be possible to call `onlyOwner` functions anymore. Can only be called by the current owner. NOTE: Renouncing ownership will leave the contract without an owner, thereby removing any functionality that is only available to the owner."
      },
      "transferOwnership(address)": {
        "details": "Transfers ownership of the contract to a new account (`newOwner`). Can only be called by the current owner."
      }
    },
    "version": 1
  },
  "userdoc": {
    "kind": "user",
    "methods": {},
    "version": 1
  }
}