{
  "contractName": "GarbiVestGRB",
  "abi": [
    {
      "inputs": [
        {
          "internalType": "contract IERC20",
          "name": "_grb",
          "type": "address"
        },
        {
          "internalType": "contract IERC20withBurn",
          "name": "_veGrb",
          "type": "address"
        },
        {
          "internalType": "contract IGarbiswapWhitelist",
          "name": "_whitelistContract",
          "type": "address"
        },
        {
          "internalType": "contract IGarbiTimeLock",
          "name": "_garbiTimeLockContract",
          "type": "address"
        }
      ],
      "stateMutability": "nonpayable",
      "type": "constructor"
    },
    {
      "anonymous": false,
      "inputs": [
        {
          "indexed": true,
          "internalType": "address",
          "name": "previousOwner",
          "type": "address"
        },
        {
          "indexed": true,
          "internalType": "address",
          "name": "newOwner",
          "type": "address"
        }
      ],
      "name": "OwnershipTransferred",
      "type": "event"
    },
    {
      "anonymous": false,
      "inputs": [
        {
          "indexed": false,
          "internalType": "address",
          "name": "_user",
          "type": "address"
        },
        {
          "indexed": false,
          "internalType": "uint256",
          "name": "_amount",
          "type": "uint256"
        }
      ],
      "name": "onClaim",
      "type": "event"
    },
    {
      "anonymous": false,
      "inputs": [
        {
          "indexed": false,
          "internalType": "address",
          "name": "_user",
          "type": "address"
        },
        {
          "indexed": false,
          "internalType": "uint256",
          "name": "_amount",
          "type": "uint256"
        }
      ],
      "name": "onDeposit",
      "type": "event"
    },
    {
      "inputs": [],
      "name": "GRB",
      "outputs": [
        {
          "internalType": "contract IERC20",
          "name": "",
          "type": "address"
        }
      ],
      "stateMutability": "view",
      "type": "function"
    },
    {
      "inputs": [],
      "name": "PERCENTAGE_GRB",
      "outputs": [
        {
          "internalType": "uint256",
          "name": "",
          "type": "uint256"
        }
      ],
      "stateMutability": "view",
      "type": "function"
    },
    {
      "inputs": [],
      "name": "garbiTimeLockContract",
      "outputs": [
        {
          "internalType": "contract IGarbiTimeLock",
          "name": "",
          "type": "address"
        }
      ],
      "stateMutability": "view",
      "type": "function"
    },
    {
      "inputs": [],
      "name": "owner",
      "outputs": [
        {
          "internalType": "address",
          "name": "",
          "type": "address"
        }
      ],
      "stateMutability": "view",
      "type": "function"
    },
    {
      "inputs": [],
      "name": "renounceOwnership",
      "outputs": [],
      "stateMutability": "nonpayable",
      "type": "function"
    },
    {
      "inputs": [],
      "name": "totalBlock",
      "outputs": [
        {
          "internalType": "uint256",
          "name": "",
          "type": "uint256"
        }
      ],
      "stateMutability": "view",
      "type": "function"
    },
    {
      "inputs": [
        {
          "internalType": "address",
          "name": "newOwner",
          "type": "address"
        }
      ],
      "name": "transferOwnership",
      "outputs": [],
      "stateMutability": "nonpayable",
      "type": "function"
    },
    {
      "inputs": [
        {
          "internalType": "address",
          "name": "",
          "type": "address"
        }
      ],
      "name": "userGRBAvailable",
      "outputs": [
        {
          "internalType": "uint256",
          "name": "",
          "type": "uint256"
        }
      ],
      "stateMutability": "view",
      "type": "function"
    },
    {
      "inputs": [
        {
          "internalType": "address",
          "name": "",
          "type": "address"
        }
      ],
      "name": "userLastVestCaculated",
      "outputs": [
        {
          "internalType": "uint256",
          "name": "",
          "type": "uint256"
        }
      ],
      "stateMutability": "view",
      "type": "function"
    },
    {
      "inputs": [
        {
          "internalType": "address",
          "name": "",
          "type": "address"
        }
      ],
      "name": "userVeGRBConvertToGRB",
      "outputs": [
        {
          "internalType": "uint256",
          "name": "",
          "type": "uint256"
        }
      ],
      "stateMutability": "view",
      "type": "function"
    },
    {
      "inputs": [
        {
          "internalType": "address",
          "name": "",
          "type": "address"
        }
      ],
      "name": "userVeGRBDeposited",
      "outputs": [
        {
          "internalType": "uint256",
          "name": "",
          "type": "uint256"
        }
      ],
      "stateMutability": "view",
      "type": "function"
    },
    {
      "inputs": [
        {
          "internalType": "address",
          "name": "",
          "type": "address"
        }
      ],
      "name": "userVestFinished",
      "outputs": [
        {
          "internalType": "uint256",
          "name": "",
          "type": "uint256"
        }
      ],
      "stateMutability": "view",
      "type": "function"
    },
    {
      "inputs": [],
      "name": "veGRB",
      "outputs": [
        {
          "internalType": "contract IERC20withBurn",
          "name": "",
          "type": "address"
        }
      ],
      "stateMutability": "view",
      "type": "function"
    },
    {
      "inputs": [],
      "name": "whitelistContract",
      "outputs": [
        {
          "internalType": "contract IGarbiswapWhitelist",
          "name": "",
          "type": "address"
        }
      ],
      "stateMutability": "view",
      "type": "function"
    },
    {
      "inputs": [
        {
          "internalType": "uint256",
          "name": "_totalBlock",
          "type": "uint256"
        }
      ],
      "name": "setTotalBlock",
      "outputs": [],
      "stateMutability": "nonpayable",
      "type": "function"
    },
    {
      "inputs": [
        {
          "internalType": "uint256",
          "name": "NEW_PERCENTAGE_GRB",
          "type": "uint256"
        }
      ],
      "name": "setPercentageGRB",
      "outputs": [],
      "stateMutability": "nonpayable",
      "type": "function"
    },
    {
      "inputs": [],
      "name": "setWhitelistContract",
      "outputs": [],
      "stateMutability": "nonpayable",
      "type": "function"
    },
    {
      "inputs": [
        {
          "internalType": "uint256",
          "name": "_veGRBAmount",
          "type": "uint256"
        }
      ],
      "name": "deposit",
      "outputs": [],
      "stateMutability": "nonpayable",
      "type": "function"
    },
    {
      "inputs": [
        {
          "internalType": "uint256",
          "name": "_amount",
          "type": "uint256"
        }
      ],
      "name": "claimGRB",
      "outputs": [],
      "stateMutability": "nonpayable",
      "type": "function"
    },
    {
      "inputs": [
        {
          "internalType": "address",
          "name": "_user",
          "type": "address"
        }
      ],
      "name": "updateUser",
      "outputs": [],
      "stateMutability": "nonpayable",
      "type": "function"
    },
    {
      "inputs": [
        {
          "internalType": "address",
          "name": "_user",
          "type": "address"
        }
      ],
      "name": "getUserVeGRBBalance",
      "outputs": [
        {
          "internalType": "uint256",
          "name": "userVeGRBBalance",
          "type": "uint256"
        }
      ],
      "stateMutability": "view",
      "type": "function"
    },
    {
      "inputs": [
        {
          "internalType": "address",
          "name": "_user",
          "type": "address"
        }
      ],
      "name": "getUserPendingGRB",
      "outputs": [
        {
          "internalType": "uint256",
          "name": "",
          "type": "uint256"
        }
      ],
      "stateMutability": "view",
      "type": "function"
    },
    {
      "inputs": [
        {
          "internalType": "uint256",
          "name": "_from",
          "type": "uint256"
        },
        {
          "internalType": "uint256",
          "name": "_to",
          "type": "uint256"
        }
      ],
      "name": "getBlockFrom",
      "outputs": [
        {
          "internalType": "uint256",
          "name": "",
          "type": "uint256"
        }
      ],
      "stateMutability": "pure",
      "type": "function"
    },
    {
      "inputs": [
        {
          "internalType": "address",
          "name": "_user",
          "type": "address"
        }
      ],
      "name": "getUserInfo",
      "outputs": [
        {
          "internalType": "uint256",
          "name": "userVeGRBBalance",
          "type": "uint256"
        },
        {
          "internalType": "uint256",
          "name": "userGRBCanClaim",
          "type": "uint256"
        },
        {
          "internalType": "uint256",
          "name": "vestFinished",
          "type": "uint256"
        },
        {
          "internalType": "uint256",
          "name": "lastVestCaculated",
          "type": "uint256"
        },
        {
          "internalType": "uint256",
          "name": "veGRBDeposited",
          "type": "uint256"
        },
        {
          "internalType": "uint256",
          "name": "blocknow",
          "type": "uint256"
        },
        {
          "internalType": "uint256",
          "name": "contractGRBBalance",
          "type": "uint256"
        }
      ],
      "stateMutability": "view",
      "type": "function"
    }
  ],
  "bytecode": "0x60806040526028600b556202a300600c553480156200001d57600080fd5b50604051620014a1380380620014a183398101604081905262000040916200010e565b60016000556200005033620000a3565b600280546001600160a01b039586166001600160a01b0319918216179091556003805494861694821694909417909355600480549185169184169190911790556005805491909316911617905562000176565b600180546001600160a01b038381166001600160a01b0319831681179093556040519116919082907f8be0079c531659141344cd1fd0a4f28419497f9722a3daafe3b4186f6b6457e090600090a35050565b6001600160a01b03811681146200010b57600080fd5b50565b600080600080608085870312156200012557600080fd5b84516200013281620000f5565b60208601519094506200014581620000f5565b60408601519093506200015881620000f5565b60608601519092506200016b81620000f5565b939692955090935050565b61131b80620001866000396000f3fe608060405234801561001057600080fd5b50600436106101585760003560e01c8063a5376669116100c3578063ccb934f81161007c578063ccb934f81461031a578063cd7d303d14610323578063e515503d14610343578063ed03b33614610356578063f2fde38b14610369578063fed3d6521461037c57600080fd5b8063a5376669146102bd578063a67ceb09146102c6578063ac7343bd146102d9578063b0176ce8146102e1578063b6b55f25146102f4578063b6eccc7d1461030757600080fd5b80636386c1c7116101155780636386c1c7146102165780636ba927a41461025e578063715018a61461027e5780637758125b1461028657806384900b04146102995780638da5cb5b146102ac57600080fd5b80630762c3541461015d57806310a57f3a1461019057806315f1d712146101bb578063179b293d146101d05780633e1abe11146101f05780634fa581aa14610203575b600080fd5b61017d61016b3660046110b6565b600a6020526000908152604090205481565b6040519081526020015b60405180910390f35b6004546101a3906001600160a01b031681565b6040516001600160a01b039091168152602001610187565b6101ce6101c93660046110da565b61039c565b005b61017d6101de3660046110b6565b60076020526000908152604090205481565b61017d6101fe3660046110f3565b61069b565b61017d6102113660046110b6565b6106b0565b6102296102243660046110b6565b6106f2565b604080519788526020880196909652948601939093526060850191909152608084015260a083015260c082015260e001610187565b61017d61026c3660046110b6565b60086020526000908152604090205481565b6101ce6107e0565b6101ce6102943660046110da565b6107f4565b6005546101a3906001600160a01b031681565b6001546001600160a01b03166101a3565b61017d600b5481565b6003546101a3906001600160a01b031681565b6101ce610801565b6002546101a3906001600160a01b031681565b6101ce6103023660046110da565b610a52565b61017d6103153660046110b6565b610d71565b61017d600c5481565b61017d6103313660046110b6565b60096020526000908152604090205481565b6101ce6103513660046110da565b610e5a565b6101ce6103643660046110b6565b610e67565b6101ce6103773660046110b6565b610ef6565b61017d61038a3660046110b6565b60066020526000908152604090205481565b33321461045957600554604051636c9b2a3f60e11b81523360048201526001600160a01b039091169063d936547e90602401602060405180830381865afa1580156103eb573d6000803e3d6000fd5b505050506040513d601f19601f8201168201806040525081019061040f9190611115565b15156001146104595760405162461bcd60e51b81526020600482015260116024820152701253959053125117d5d2125511531254d5607a1b60448201526064015b60405180910390fd5b610461610f6c565b600081116104a15760405162461bcd60e51b815260206004820152600d60248201526c1253959053125117d253941555609a1b6044820152606401610450565b6104aa33610e67565b6002546040516370a0823160e01b81523060048201526000916001600160a01b0316906370a0823190602401602060405180830381865afa1580156104f3573d6000803e3d6000fd5b505050506040513d601f19601f820116820180604052508101906105179190611137565b905080821115610525578091505b3360009081526007602052604090205482111561054f573360009081526007602052604090205491505b336000908152600760205260409020546105699083610fc5565b336000818152600760205260409081902092909255600254915163a9059cbb60e01b81526004810191909152602481018490526001600160a01b039091169063a9059cbb906044016020604051808303816000875af11580156105d0573d6000803e3d6000fd5b505050506040513d601f19601f820116820180604052508101906105f49190611115565b50600354604051630852cd8d60e31b8152600481018490526001600160a01b03909116906342966c6890602401600060405180830381600087803b15801561063b57600080fd5b505af115801561064f573d6000803e3d6000fd5b505060408051338152602081018690527fd203a5dd248f303beb17dd4f17d3b0cecc4d94bc2753347b927ec5836e0a3396935001905060405180910390a1506106986001600055565b50565b60006106a78284610fc5565b90505b92915050565b60006106aa6106be83610d71565b6001600160a01b0384166000908152600860209081526040808320546006909252909120546106ec91610fc5565b90610fc5565b6000806000806000806000610706886106b0565b965061071188610d71565b6001600160a01b0389166000908152600760205260409020546107349190611166565b6001600160a01b038981166000908152600a602090815260408083205460098352818420546006909352928190205460025491516370a0823160e01b8152306004820152959b5092995090975090955043945016906370a0823190602401602060405180830381865afa1580156107af573d6000803e3d6000fd5b505050506040513d601f19601f820116820180604052508101906107d39190611137565b9050919395979092949650565b6107e8610fd1565b6107f2600061102b565b565b6107fc610fd1565b600b55565b610809610fd1565b6004805460405163109cc30b60e21b81526001600160a01b03909116916342730c2c91610838913091016111a0565b602060405180830381865afa158015610855573d6000803e3d6000fd5b505050506040513d601f19601f820116820180604052508101906108799190611115565b6108ba5760405162461bcd60e51b815260206004820152601260248201527124a72b20a624a22fa822a926a4a9a9a4a7a760711b6044820152606401610450565b60048054604051636bfb078d60e01b81526000926001600160a01b0390921691636bfb078d916108ec913091016111c3565b602060405180830381865afa158015610909573d6000803e3d6000fd5b505050506040513d601f19601f8201168201806040525081019061092d9190611216565b90506001600160a01b0381166109775760405162461bcd60e51b815260206004820152600f60248201526e494e56414c49445f4144445245535360881b6044820152606401610450565b600580546001600160a01b0319166001600160a01b038381169190911790915560048054604051636e977f0b60e01b8152921691636e977f0b916109be9160019101611233565b600060405180830381600087803b1580156109d857600080fd5b505af11580156109ec573d6000803e3d6000fd5b5050600480546040516345503fcb60e11b81526001600160a01b039091169350638aa07f969250610a1d9101611287565b600060405180830381600087803b158015610a3757600080fd5b505af1158015610a4b573d6000803e3d6000fd5b5050505050565b333214610b0a57600554604051636c9b2a3f60e11b81523360048201526001600160a01b039091169063d936547e90602401602060405180830381865afa158015610aa1573d6000803e3d6000fd5b505050506040513d601f19601f82011682018060405250810190610ac59190611115565b1515600114610b0a5760405162461bcd60e51b81526020600482015260116024820152701253959053125117d5d2125511531254d5607a1b6044820152606401610450565b610b12610f6c565b60008111610b525760405162461bcd60e51b815260206004820152600d60248201526c1253959053125117d253941555609a1b6044820152606401610450565b610b5b33610e67565b6003546040516370a0823160e01b81523360048201526000916001600160a01b0316906370a0823190602401602060405180830381865afa158015610ba4573d6000803e3d6000fd5b505050506040513d601f19601f82011682018060405250810190610bc89190611137565b905080821115610bd6578091505b6003546040516323b872dd60e01b8152336004820152306024820152604481018490526001600160a01b03909116906323b872dd906064016020604051808303816000875af1158015610c2d573d6000803e3d6000fd5b505050506040513d601f19601f82011682018060405250810190610c519190611115565b5033600090815260086020908152604080832054600690925290912054610c7d91906106ec908561107d565b3360009081526006602090815260408083209390935560089052908120819055600b54610cb890606490610cb2908690611089565b90611095565b33600090815260076020526040902054909150610cd5908261107d565b33600090815260076020908152604080832093909355600690522054610cfb9082610fc5565b33600090815260066020526040902055600c54610d189043611166565b336000818152600a60209081526040918290209390935580519182529181018590527f2bf9518c65eff7d1f3ee4106bf0dc41267ccde0924dbfa4ab476ed5c0f45da98910160405180910390a150506106986001600055565b600c546001600160a01b03821660009081526006602052604081205490918291610d9a91611095565b6001600160a01b0384166000908152600a6020526040812054919250904311610df3576001600160a01b038416600090815260096020526040902054610deb90610de4904361069b565b8390611089565b949350505050565b6001600160a01b0384166000908152600a60209081526040808320546009909252909120541115610e28575060009392505050565b6001600160a01b038416600090815260096020908152604080832054600a90925290912054610deb91610de49161069b565b610e62610fd1565b600c55565b6000610e7282610d71565b6001600160a01b038316600090815260086020526040902054909150610e98908261107d565b6001600160a01b038316600090815260086020908152604080832093909355600790522054610ec8908290611166565b6001600160a01b03909216600090815260076020908152604080832094909455600990529190912043905550565b610efe610fd1565b6001600160a01b038116610f635760405162461bcd60e51b815260206004820152602660248201527f4f776e61626c653a206e6577206f776e657220697320746865207a65726f206160448201526564647265737360d01b6064820152608401610450565b6106988161102b565b600260005403610fbe5760405162461bcd60e51b815260206004820152601f60248201527f5265656e7472616e637947756172643a207265656e7472616e742063616c6c006044820152606401610450565b6002600055565b60006106a78284611299565b6001546001600160a01b031633146107f25760405162461bcd60e51b815260206004820181905260248201527f4f776e61626c653a2063616c6c6572206973206e6f7420746865206f776e65726044820152606401610450565b600180546001600160a01b038381166001600160a01b0319831681179093556040519116919082907f8be0079c531659141344cd1fd0a4f28419497f9722a3daafe3b4186f6b6457e090600090a35050565b60006106a78284611166565b60006106a782846112ac565b60006106a782846112c3565b6001600160a01b038116811461069857600080fd5b6000602082840312156110c857600080fd5b81356110d3816110a1565b9392505050565b6000602082840312156110ec57600080fd5b5035919050565b6000806040838503121561110657600080fd5b50508035926020909101359150565b60006020828403121561112757600080fd5b815180151581146110d357600080fd5b60006020828403121561114957600080fd5b5051919050565b634e487b7160e01b600052601160045260246000fd5b808201808211156106aa576106aa611150565b60148152731cd95d15da1a5d195b1a5cdd10dbdb9d1c9858dd60621b602082015260400190565b6001600160a01b03821681526040602082018190526000906106a7908301611179565b6001600160a01b03821681526060602082018190526000906111e6908301611179565b8281036040840152610deb8160118152701dda1a5d195b1a5cdd10dbdb9d1c9858dd607a1b602082015260400190565b60006020828403121561122857600080fd5b81516110d3816110a1565b60608152600061124560608301611179565b82810360208401526112758160118152701dda1a5d195b1a5cdd10dbdb9d1c9858dd607a1b602082015260400190565b91505060ff8316604083015292915050565b6020815260006106aa60208301611179565b818103818111156106aa576106aa611150565b80820281158282048414176106aa576106aa611150565b6000826112e057634e487b7160e01b600052601260045260246000fd5b50049056fea26469706673582212200f88eeaeed960599f74756d5ef5c9957d992831294f6731393af74a29f24d57564736f6c63430008110033",
  "immutableReferences": {},
  "source": "// SPDX-License-Identifier: MIT\npragma solidity >=0.6.12;\n\nimport \"@openzeppelin/contracts/utils/math/SafeMath.sol\";\nimport \"@openzeppelin/contracts/token/ERC20/IERC20.sol\";\nimport \"@openzeppelin/contracts/utils/Context.sol\";\nimport \"@openzeppelin/contracts/access/Ownable.sol\";\nimport \"@openzeppelin/contracts/security/ReentrancyGuard.sol\";\n\nimport './interfaces/IGarbiTimeLock.sol';\nimport './interfaces/IGarbiswapWhitelist.sol';\nimport './interfaces/IERC20withBurn.sol';\n\ncontract GarbiVestGRB is ReentrancyGuard, Ownable {\n\n    using SafeMath for uint256;\n\n    IERC20 public GRB;\n    IERC20withBurn public veGRB;\n\n    IGarbiTimeLock public garbiTimeLockContract;\n    IGarbiswapWhitelist public whitelistContract;\n\n    mapping(address => uint256) public userVeGRBDeposited;\n    mapping(address => uint256) public userGRBAvailable;\n    mapping(address => uint256) public userVeGRBConvertToGRB;\n    mapping(address => uint256) public userLastVestCaculated;\n    mapping(address => uint256) public userVestFinished;\n\n    uint256 public PERCENTAGE_GRB = 40; //40% 40/100\n    uint256 public totalBlock = 5760*30;\n\n    event onDeposit(address _user, uint256 _amount);\n    event onClaim(address _user, uint256 _amount);\n\n    modifier onlyWhitelist()\n    {\n        if (msg.sender != tx.origin) {\n            require(whitelistContract.whitelisted(msg.sender) == true, 'INVALID_WHITELIST');\n        }\n        _;\n    }\n\n    constructor(\n        IERC20 _grb,\n        IERC20withBurn _veGrb,\n        IGarbiswapWhitelist _whitelistContract,\n        IGarbiTimeLock _garbiTimeLockContract\n    ) {\n        GRB = _grb;\n        veGRB = _veGrb;\n        garbiTimeLockContract = _garbiTimeLockContract;\n        whitelistContract = _whitelistContract;\n    }\n\n    function setTotalBlock(uint256 _totalBlock) public onlyOwner {\n        totalBlock = _totalBlock;\n    }\n\n    function setPercentageGRB(uint256 NEW_PERCENTAGE_GRB) public onlyOwner {\n        PERCENTAGE_GRB = NEW_PERCENTAGE_GRB;\n    }\n\n    function setWhitelistContract() public onlyOwner {\n        require(garbiTimeLockContract.isQueuedTransaction(address(this), 'setWhitelistContract'), \"INVALID_PERMISSION\");\n\n        address _whitelistContract = garbiTimeLockContract.getAddressChangeOnTimeLock(address(this), 'setWhitelistContract', 'whitelistContract');\n\n        require(_whitelistContract != address(0), \"INVALID_ADDRESS\");\n\n        whitelistContract = IGarbiswapWhitelist(_whitelistContract);\n\n        garbiTimeLockContract.clearFieldValue('setWhitelistContract', 'whitelistContract', 1);\n        garbiTimeLockContract.doneTransactions('setWhitelistContract');\n    }\n\n    function deposit(uint256 _veGRBAmount) public onlyWhitelist nonReentrant {\n        require(_veGRBAmount > 0, 'INVALID_INPUT');\n        \n        updateUser(msg.sender);\n\n        uint256 userVeGRBBalance = veGRB.balanceOf(msg.sender);\n        if(_veGRBAmount > userVeGRBBalance) {\n            _veGRBAmount = userVeGRBBalance;\n        }\n\n        veGRB.transferFrom(msg.sender, address(this), _veGRBAmount);\n\n        userVeGRBDeposited[msg.sender] = userVeGRBDeposited[msg.sender].add(_veGRBAmount).sub(userVeGRBConvertToGRB[msg.sender]);\n        userVeGRBConvertToGRB[msg.sender] = 0;\n\n        uint256 availableGRB = _veGRBAmount.mul(PERCENTAGE_GRB).div(100);\n        userGRBAvailable[msg.sender] = userGRBAvailable[msg.sender].add(availableGRB);\n        userVeGRBDeposited[msg.sender] = userVeGRBDeposited[msg.sender].sub(availableGRB);\n\n        userVestFinished[msg.sender] = block.number + totalBlock;\n\n        emit onDeposit(msg.sender, _veGRBAmount);\n    }\n\n    function claimGRB(uint256 _amount) public onlyWhitelist nonReentrant {\n        require(_amount > 0, 'INVALID_INPUT');\n        \n        updateUser(msg.sender);\n\n        uint256 vaultBalance = GRB.balanceOf(address(this));\n        \n        if(_amount > vaultBalance) {\n            _amount = vaultBalance;\n        }\n\n        if(_amount > userGRBAvailable[msg.sender]) {\n            _amount = userGRBAvailable[msg.sender];\n        }\n        \n        userGRBAvailable[msg.sender] = userGRBAvailable[msg.sender].sub(_amount);  \n        GRB.transfer(msg.sender, _amount);\n        veGRB.burn(_amount);\n\n        emit onClaim(msg.sender, _amount);\n    }\n\n    function updateUser(address _user) public {\n        uint256 pendingGRB = getUserPendingGRB(_user);\n        userVeGRBConvertToGRB[_user] = userVeGRBConvertToGRB[_user].add(pendingGRB);\n        userGRBAvailable[_user] = userGRBAvailable[_user] + pendingGRB;\n        userLastVestCaculated[_user] = block.number;\n    }\n\n    function getUserVeGRBBalance(address _user) public view returns(uint256 userVeGRBBalance) {\n        userVeGRBBalance = userVeGRBDeposited[_user].sub(userVeGRBConvertToGRB[_user]).sub(getUserPendingGRB(_user));\n    }\n\n    function getUserPendingGRB(address _user) public view returns(uint256) {\n        uint256 userVestingSpeed = userVeGRBDeposited[_user].div(totalBlock);\n        uint256 userPendingGRB = 0;\n        if(block.number <= userVestFinished[_user]) {\n            userPendingGRB = userVestingSpeed.mul(getBlockFrom(userLastVestCaculated[_user], block.number));\n            return userPendingGRB;\n        }\n        else {\n            if(userLastVestCaculated[_user] > userVestFinished[_user]) {\n                return 0;\n            }\n            else {\n                userPendingGRB = userVestingSpeed.mul(getBlockFrom(userLastVestCaculated[_user], userVestFinished[_user]));\n                return userPendingGRB;\n            }\n        }\n    }\n\n    function getBlockFrom(uint256 _from, uint256 _to) public pure returns (uint256) {\n        return _to.sub(_from);\n    }\n\n    function getUserInfo(address _user) public view returns(uint256 userVeGRBBalance, uint256 userGRBCanClaim, uint256 vestFinished, uint256 lastVestCaculated, uint256 veGRBDeposited, uint256 blocknow, uint256 contractGRBBalance) {\n        userVeGRBBalance = getUserVeGRBBalance(_user);\n        userGRBCanClaim = userGRBAvailable[_user] + getUserPendingGRB(_user);\n        vestFinished = userVestFinished[_user];\n        lastVestCaculated = userLastVestCaculated[_user];\n        veGRBDeposited = userVeGRBDeposited[_user];\n        blocknow = block.number;\n        contractGRBBalance = GRB.balanceOf(address(this));\n    }\n\n}",
  "sourcePath": "/Applications/projects/garbiprotocol.github.io/garbi_contracts/contracts/GarbiVestGRB.sol",
  "compiler": {
    "name": "solc",
    "version": "0.8.17+commit.8df45f5f.Emscripten.clang"
  },
  "schemaVersion": "3.4.13",
  "updatedAt": "2023-04-24T02:03:08.690Z",
  "devdoc": {
    "kind": "dev",
    "methods": {
      "owner()": {
        "details": "Returns the address of the current owner."
      },
      "renounceOwnership()": {
        "details": "Leaves the contract without owner. It will not be possible to call `onlyOwner` functions anymore. Can only be called by the current owner. NOTE: Renouncing ownership will leave the contract without an owner, thereby removing any functionality that is only available to the owner."
      },
      "transferOwnership(address)": {
        "details": "Transfers ownership of the contract to a new account (`newOwner`). Can only be called by the current owner."
      }
    },
    "version": 1
  },
  "userdoc": {
    "kind": "user",
    "methods": {},
    "version": 1
  }
}