{
  "contractName": "GarbiRepositoryManager",
  "abi": [
    {
      "inputs": [
        {
          "internalType": "contract IERC20withBurnAndMint",
          "name": "garbiECContract",
          "type": "address"
        }
      ],
      "stateMutability": "nonpayable",
      "type": "constructor"
    },
    {
      "anonymous": false,
      "inputs": [
        {
          "indexed": true,
          "internalType": "address",
          "name": "previousOwner",
          "type": "address"
        },
        {
          "indexed": true,
          "internalType": "address",
          "name": "newOwner",
          "type": "address"
        }
      ],
      "name": "OwnershipTransferred",
      "type": "event"
    },
    {
      "anonymous": false,
      "inputs": [
        {
          "indexed": false,
          "internalType": "address",
          "name": "repoAddress",
          "type": "address"
        },
        {
          "indexed": false,
          "internalType": "uint256",
          "name": "repoShare",
          "type": "uint256"
        },
        {
          "indexed": false,
          "internalType": "uint256",
          "name": "repoMaxCapacityLimit",
          "type": "uint256"
        }
      ],
      "name": "onAddRepository",
      "type": "event"
    },
    {
      "anonymous": false,
      "inputs": [
        {
          "indexed": false,
          "internalType": "address",
          "name": "user",
          "type": "address"
        },
        {
          "indexed": false,
          "internalType": "address",
          "name": "repoInAddress",
          "type": "address"
        },
        {
          "indexed": false,
          "internalType": "uint256",
          "name": "assetInAmount",
          "type": "uint256"
        },
        {
          "indexed": false,
          "internalType": "uint256",
          "name": "garbiECOutAmount",
          "type": "uint256"
        }
      ],
      "name": "onBuyGarbiEC",
      "type": "event"
    },
    {
      "anonymous": false,
      "inputs": [
        {
          "indexed": false,
          "internalType": "address",
          "name": "user",
          "type": "address"
        },
        {
          "indexed": false,
          "internalType": "address",
          "name": "repoOutAddress",
          "type": "address"
        },
        {
          "indexed": false,
          "internalType": "uint256",
          "name": "assetOutAmount",
          "type": "uint256"
        },
        {
          "indexed": false,
          "internalType": "uint256",
          "name": "garbiECInAmount",
          "type": "uint256"
        }
      ],
      "name": "onSellGarbiEC",
      "type": "event"
    },
    {
      "anonymous": false,
      "inputs": [
        {
          "indexed": false,
          "internalType": "address",
          "name": "repoAddress",
          "type": "address"
        },
        {
          "indexed": false,
          "internalType": "uint256",
          "name": "repoShare",
          "type": "uint256"
        },
        {
          "indexed": false,
          "internalType": "uint256",
          "name": "repoMaxCapacityLimit",
          "type": "uint256"
        }
      ],
      "name": "onUpdateRepository",
      "type": "event"
    },
    {
      "inputs": [],
      "name": "GarbiEC",
      "outputs": [
        {
          "internalType": "contract IERC20withBurnAndMint",
          "name": "",
          "type": "address"
        }
      ],
      "stateMutability": "view",
      "type": "function"
    },
    {
      "inputs": [],
      "name": "owner",
      "outputs": [
        {
          "internalType": "address",
          "name": "",
          "type": "address"
        }
      ],
      "stateMutability": "view",
      "type": "function"
    },
    {
      "inputs": [],
      "name": "renounceOwnership",
      "outputs": [],
      "stateMutability": "nonpayable",
      "type": "function"
    },
    {
      "inputs": [
        {
          "internalType": "uint256",
          "name": "",
          "type": "uint256"
        }
      ],
      "name": "repoAddresses",
      "outputs": [
        {
          "internalType": "address",
          "name": "",
          "type": "address"
        }
      ],
      "stateMutability": "view",
      "type": "function"
    },
    {
      "inputs": [
        {
          "internalType": "address",
          "name": "",
          "type": "address"
        }
      ],
      "name": "repoList",
      "outputs": [
        {
          "internalType": "uint256",
          "name": "share",
          "type": "uint256"
        },
        {
          "internalType": "uint256",
          "name": "maxCapacityLimit",
          "type": "uint256"
        }
      ],
      "stateMutability": "view",
      "type": "function"
    },
    {
      "inputs": [],
      "name": "totalShares",
      "outputs": [
        {
          "internalType": "uint256",
          "name": "",
          "type": "uint256"
        }
      ],
      "stateMutability": "view",
      "type": "function"
    },
    {
      "inputs": [
        {
          "internalType": "address",
          "name": "newOwner",
          "type": "address"
        }
      ],
      "name": "transferOwnership",
      "outputs": [],
      "stateMutability": "nonpayable",
      "type": "function"
    },
    {
      "inputs": [
        {
          "internalType": "address",
          "name": "repoAddress",
          "type": "address"
        },
        {
          "internalType": "uint256",
          "name": "repoShare",
          "type": "uint256"
        },
        {
          "internalType": "uint256",
          "name": "repoMaxCapacityLimit",
          "type": "uint256"
        }
      ],
      "name": "addRepository",
      "outputs": [],
      "stateMutability": "nonpayable",
      "type": "function"
    },
    {
      "inputs": [
        {
          "internalType": "address",
          "name": "repoAddress",
          "type": "address"
        },
        {
          "internalType": "uint256",
          "name": "repoShare",
          "type": "uint256"
        },
        {
          "internalType": "uint256",
          "name": "repoMaxCapacityLimit",
          "type": "uint256"
        }
      ],
      "name": "updateRepository",
      "outputs": [],
      "stateMutability": "nonpayable",
      "type": "function"
    },
    {
      "inputs": [
        {
          "internalType": "uint256",
          "name": "newTotalShares",
          "type": "uint256"
        }
      ],
      "name": "setTotalShares",
      "outputs": [],
      "stateMutability": "nonpayable",
      "type": "function"
    },
    {
      "inputs": [
        {
          "internalType": "contract IERC20withBurnAndMint",
          "name": "newGarbiECContract",
          "type": "address"
        }
      ],
      "name": "setGarbiEquityCertificateContract",
      "outputs": [],
      "stateMutability": "nonpayable",
      "type": "function"
    },
    {
      "inputs": [
        {
          "internalType": "address",
          "name": "repoInAddress",
          "type": "address"
        },
        {
          "internalType": "uint256",
          "name": "assetInAmount",
          "type": "uint256"
        }
      ],
      "name": "buyGarbiEquityCertificate",
      "outputs": [],
      "stateMutability": "nonpayable",
      "type": "function"
    },
    {
      "inputs": [
        {
          "internalType": "address",
          "name": "repoOutAddress",
          "type": "address"
        },
        {
          "internalType": "uint256",
          "name": "garbiECInAmount",
          "type": "uint256"
        }
      ],
      "name": "sellGarbiEquityCertificate",
      "outputs": [],
      "stateMutability": "nonpayable",
      "type": "function"
    },
    {
      "inputs": [],
      "name": "getGarbiECPrice",
      "outputs": [
        {
          "internalType": "uint256",
          "name": "garbiECPrice",
          "type": "uint256"
        }
      ],
      "stateMutability": "view",
      "type": "function"
    },
    {
      "inputs": [
        {
          "internalType": "address",
          "name": "repoInAddress",
          "type": "address"
        },
        {
          "internalType": "uint256",
          "name": "assetInAmount",
          "type": "uint256"
        }
      ],
      "name": "getDataToBuyGarbiEC",
      "outputs": [
        {
          "internalType": "uint256",
          "name": "garbiECOutAmount",
          "type": "uint256"
        }
      ],
      "stateMutability": "view",
      "type": "function"
    },
    {
      "inputs": [
        {
          "internalType": "address",
          "name": "repoOutAddress",
          "type": "address"
        },
        {
          "internalType": "uint256",
          "name": "garbiECInAmount",
          "type": "uint256"
        }
      ],
      "name": "getDataToSellGarbiEC",
      "outputs": [
        {
          "internalType": "uint256",
          "name": "assetOutAmount",
          "type": "uint256"
        }
      ],
      "stateMutability": "view",
      "type": "function"
    }
  ],
  "bytecode": "0x60806040526103e860015534801561001657600080fd5b506040516115e83803806115e8833981016040819052610035916100b3565b61003e33610063565b600480546001600160a01b0319166001600160a01b03929092169190911790556100e3565b600080546001600160a01b038381166001600160a01b0319831681178455604051919092169283917f8be0079c531659141344cd1fd0a4f28419497f9722a3daafe3b4186f6b6457e09190a35050565b6000602082840312156100c557600080fd5b81516001600160a01b03811681146100dc57600080fd5b9392505050565b6114f6806100f26000396000f3fe608060405234801561001057600080fd5b50600436106101005760003560e01c8063bdb4da2e11610097578063ebf3da9311610066578063ebf3da93146101f0578063eef4a00e14610203578063f2fde38b1461023f578063f71c37bb1461025257600080fd5b8063bdb4da2e146101af578063c8de8368146101c2578063d1dc64cf146101d5578063d3b76e5c146101e857600080fd5b80638da5cb5b116100d35780638da5cb5b14610151578063a5f270b714610176578063a77384c114610189578063b0baa1f31461019c57600080fd5b80630bc8f11c14610105578063357e47331461011a5780633a98ef391461012d578063715018a614610149575b600080fd5b61011861011336600461130b565b610265565b005b610118610128366004611337565b610775565b61013660015481565b6040519081526020015b60405180910390f35b6101186107e4565b6000546001600160a01b03165b6040516001600160a01b039091168152602001610140565b61013661018436600461130b565b6107f8565b61011861019736600461135b565b61088e565b6101186101aa366004611374565b6108da565b6101186101bd36600461130b565b610a4e565b6101366101d036600461130b565b610e51565b6101186101e3366004611374565b610ed7565b610136611005565b61015e6101fe36600461135b565b61117c565b61022a610211366004611337565b6003602052600090815260409020805460019091015482565b60408051928352602083019190915201610140565b61011861024d366004611337565b6111a6565b60045461015e906001600160a01b031681565b816001600160a01b0381166102955760405162461bcd60e51b815260040161028c906113a9565b60405180910390fd5b6000805b6002548110156102f557826001600160a01b0316600282815481106102c0576102c06113d7565b6000918252602090912001546001600160a01b0316036102e357600191506102f5565b806102ed81611403565b915050610299565b508060011461033b5760405162461bcd60e51b815260206004820152601260248201527124a72b20a624a22fa822a926a4a9a9a4a7a760711b604482015260640161028c565b600083116103825760405162461bcd60e51b81526020600482015260146024820152731253959053125117d054d4d15517d05353d5539560621b604482015260640161028c565b600084905060036000866001600160a01b03166001600160a01b031681526020019081526020016000206001015461041c85836001600160a01b03166329b315d76040518163ffffffff1660e01b8152600401602060405180830381865afa1580156103f2573d6000803e3d6000fd5b505050506040513d601f19601f82011682018060405250810190610416919061141c565b9061121f565b11156104635760405162461bcd60e51b8152602060048201526016602482015275494e56414c49445f41535345545f434150414349545960501b604482015260640161028c565b6000816001600160a01b0316635001f3b56040518163ffffffff1660e01b8152600401602060405180830381865afa1580156104a3573d6000803e3d6000fd5b505050506040513d601f19601f820116820180604052508101906104c79190611435565b6040516370a0823160e01b81523360048201529091506000906001600160a01b038316906370a0823190602401602060405180830381865afa158015610511573d6000803e3d6000fd5b505050506040513d601f19601f82011682018060405250810190610535919061141c565b905080861115610543578095505b600061054f8888610e51565b6040516323b872dd60e01b8152336004820152306024820152604481018990529091506001600160a01b038416906323b872dd906064016020604051808303816000875af11580156105a5573d6000803e3d6000fd5b505050506040513d601f19601f820116820180604052508101906105c99190611452565b50600480546040516340c10f1960e01b81523092810192909252602482018390526001600160a01b0316906340c10f1990604401600060405180830381600087803b15801561061757600080fd5b505af115801561062b573d6000803e3d6000fd5b505060405163a9059cbb60e01b81526001600160a01b038b81166004830152602482018b90528616925063a9059cbb91506044016020604051808303816000875af115801561067e573d6000803e3d6000fd5b505050506040513d601f19601f820116820180604052508101906106a29190611452565b506004805460405163a9059cbb60e01b81523392810192909252602482018390526001600160a01b03169063a9059cbb906044016020604051808303816000875af11580156106f5573d6000803e3d6000fd5b505050506040513d601f19601f820116820180604052508101906107199190611452565b50604080513381526001600160a01b038a166020820152908101889052606081018290527f28b2a32484c6b4c70369af6ce67fc8bd54394b3d31d4ce7c84579537dac1a67d906080015b60405180910390a15050505050505050565b61077d611234565b6001600160a01b0381166107c25760405162461bcd60e51b815260206004820152600c60248201526b494e56414c49445f4441544160a01b604482015260640161028c565b600480546001600160a01b0319166001600160a01b0392909216919091179055565b6107ec611234565b6107f6600061128e565b565b600080610803611005565b905060008490506000816001600160a01b031663b49f4afd6040518163ffffffff1660e01b8152600401602060405180830381865afa15801561084a573d6000803e3d6000fd5b505050506040513d601f19601f8201168201806040525081019061086e919061141c565b90506108848161087e87866112de565b906112ea565b9695505050505050565b610896611234565b600081116108d55760405162461bcd60e51b815260206004820152600c60248201526b494e56414c49445f4441544160a01b604482015260640161028c565b600155565b6108e2611234565b6001600160a01b0383166109085760405162461bcd60e51b815260040161028c906113a9565b6000821161094d5760405162461bcd60e51b8152602060048201526012602482015271494e56414c49445f5245504f5f534841524560701b604482015260640161028c565b600081116109955760405162461bcd60e51b8152602060048201526015602482015274494e56414c49445f5245504f5f434150414349545960581b604482015260640161028c565b60408051808201825283815260208082018481526001600160a01b0387166000818152600384528581209451855591516001948501556002805494850181559091527f405787fa12a823e0f2b7631cc41b3ba8828b3321ca811111fa75cd3aa3bb5ace90920180546001600160a01b03191683179055825191825281018490529081018290527f0f9add0213bdb1ede37a5c610b3e9634dc14ffc80ab82643288e3faf88f73ae0906060015b60405180910390a1505050565b816001600160a01b038116610a755760405162461bcd60e51b815260040161028c906113a9565b6000805b600254811015610ad557826001600160a01b031660028281548110610aa057610aa06113d7565b6000918252602090912001546001600160a01b031603610ac35760019150610ad5565b80610acd81611403565b915050610a79565b5080600114610b1b5760405162461bcd60e51b815260206004820152601260248201527124a72b20a624a22fa822a926a4a9a9a4a7a760711b604482015260640161028c565b60008311610b645760405162461bcd60e51b81526020600482015260166024820152751253959053125117d1d05490925150d7d05353d5539560521b604482015260640161028c565b60008490506000816001600160a01b0316635001f3b56040518163ffffffff1660e01b8152600401602060405180830381865afa158015610ba9573d6000803e3d6000fd5b505050506040513d601f19601f82011682018060405250810190610bcd9190611435565b600480546040516370a0823160e01b815233928101929092529192506000916001600160a01b0316906370a0823190602401602060405180830381865afa158015610c1c573d6000803e3d6000fd5b505050506040513d601f19601f82011682018060405250810190610c40919061141c565b905080861115610c4e578095505b6000610c5a88886107f8565b600480546040516323b872dd60e01b81523392810192909252306024830152604482018a90529192506001600160a01b03909116906323b872dd906064016020604051808303816000875af1158015610cb7573d6000803e3d6000fd5b505050506040513d601f19601f82011682018060405250810190610cdb9190611452565b5060048054604051630852cd8d60e31b81529182018990526001600160a01b0316906342966c6890602401600060405180830381600087803b158015610d2057600080fd5b505af1158015610d34573d6000803e3d6000fd5b50506040516351380da560e11b8152600481018490526001600160a01b038716925063a2701b4a9150602401600060405180830381600087803b158015610d7a57600080fd5b505af1158015610d8e573d6000803e3d6000fd5b505060405163a9059cbb60e01b8152336004820152602481018490526001600160a01b038616925063a9059cbb91506044016020604051808303816000875af1158015610ddf573d6000803e3d6000fd5b505050506040513d601f19601f82011682018060405250810190610e039190611452565b50604080513381526001600160a01b038a166020820152908101829052606081018890527f9b5a54131d57ff379fca74da7f4efca1b9105facc9eb666cdb4dc2991622cee390608001610763565b600080610e5c611005565b905060008490506000816001600160a01b031663b49f4afd6040518163ffffffff1660e01b8152600401602060405180830381865afa158015610ea3573d6000803e3d6000fd5b505050506040513d601f19601f82011682018060405250810190610ec7919061141c565b90506108848361087e87846112de565b610edf611234565b6001600160a01b038316610f055760405162461bcd60e51b815260040161028c906113a9565b60008211610f4a5760405162461bcd60e51b8152602060048201526012602482015271494e56414c49445f5245504f5f534841524560701b604482015260640161028c565b60008111610f925760405162461bcd60e51b8152602060048201526015602482015274494e56414c49445f5245504f5f434150414349545960581b604482015260640161028c565b60408051808201825283815260208082018481526001600160a01b038716600081815260038452859020935184559051600190930192909255825191825281018490529081018290527f34d71eb9581c2f82d3886aa369754ce61007988ffaa3bdda51b914219b3b120a90606001610a41565b600080805b6002548110156110cb57600060028281548110611029576110296113d7565b9060005260206000200160009054906101000a90046001600160a01b031690506110b5816001600160a01b03166335a226646040518163ffffffff1660e01b8152600401602060405180830381865afa15801561108a573d6000803e3d6000fd5b505050506040513d601f19601f820116820180604052508101906110ae919061141c565b849061121f565b92505080806110c390611403565b91505061100a565b506000600460009054906101000a90046001600160a01b03166001600160a01b03166318160ddd6040518163ffffffff1660e01b8152600401602060405180830381865afa158015611121573d6000803e3d6000fd5b505050506040513d601f19601f82011682018060405250810190611145919061141c565b90508060000361115f57670de0b6b3a76400009250505090565b6111758161087e84670de0b6b3a76400006112de565b9250505090565b6002818154811061118c57600080fd5b6000918252602090912001546001600160a01b0316905081565b6111ae611234565b6001600160a01b0381166112135760405162461bcd60e51b815260206004820152602660248201527f4f776e61626c653a206e6577206f776e657220697320746865207a65726f206160448201526564647265737360d01b606482015260840161028c565b61121c8161128e565b50565b600061122b8284611474565b90505b92915050565b6000546001600160a01b031633146107f65760405162461bcd60e51b815260206004820181905260248201527f4f776e61626c653a2063616c6c6572206973206e6f7420746865206f776e6572604482015260640161028c565b600080546001600160a01b038381166001600160a01b0319831681178455604051919092169283917f8be0079c531659141344cd1fd0a4f28419497f9722a3daafe3b4186f6b6457e09190a35050565b600061122b8284611487565b600061122b828461149e565b6001600160a01b038116811461121c57600080fd5b6000806040838503121561131e57600080fd5b8235611329816112f6565b946020939093013593505050565b60006020828403121561134957600080fd5b8135611354816112f6565b9392505050565b60006020828403121561136d57600080fd5b5035919050565b60008060006060848603121561138957600080fd5b8335611394816112f6565b95602085013595506040909401359392505050565b602080825260149082015273494e56414c49445f5245504f5f4144445245535360601b604082015260600190565b634e487b7160e01b600052603260045260246000fd5b634e487b7160e01b600052601160045260246000fd5b600060018201611415576114156113ed565b5060010190565b60006020828403121561142e57600080fd5b5051919050565b60006020828403121561144757600080fd5b8151611354816112f6565b60006020828403121561146457600080fd5b8151801515811461135457600080fd5b8082018082111561122e5761122e6113ed565b808202811582820484141761122e5761122e6113ed565b6000826114bb57634e487b7160e01b600052601260045260246000fd5b50049056fea2646970667358221220924c1f8aa244fbbb18700e450b074dcfaba2094a4928b11a0c69970a8ca5dde564736f6c63430008110033",
  "immutableReferences": {},
  "source": "// SPDX-License-Identifier: MIT\r\npragma solidity >=0.8.0;\r\n\r\nimport \"@openzeppelin/contracts/utils/math/SafeMath.sol\";\r\nimport \"@openzeppelin/contracts/token/ERC20/IERC20.sol\";\r\nimport \"@openzeppelin/contracts/access/Ownable.sol\";\r\n\r\nimport '../interfaces/IERC20withBurnAndMint.sol';\r\nimport '../interfaces/IGarbiRepository.sol';\r\n\r\ncontract GarbiRepositoryManager is Ownable {\r\n    using SafeMath for uint256;\r\n\r\n    uint256 public totalShares = 1000;\r\n\r\n    struct RepoInfo {\r\n        uint256 share;\r\n        uint256 maxCapacityLimit;\r\n    }\r\n\r\n    // Array of repo addresses\r\n    address[] public repoAddresses;\r\n\r\n    mapping(address => RepoInfo) public repoList;    \r\n\r\n    IERC20withBurnAndMint public GarbiEC;\r\n\r\n    modifier onlyRepoInTheList(address repoAddress)\r\n    {\r\n        require(repoAddress != address(0), 'INVALID_REPO_ADDRESS');\r\n        uint flag = 0;\r\n        for (uint i = 0; i < repoAddresses.length; i++) {\r\n            if(repoAddresses[i] == repoAddress) {\r\n                flag = 1;\r\n                break;\r\n            }\r\n        }\r\n        require(flag == 1, \"INVALID_PERMISSION\");\r\n        _;\r\n    }\r\n\r\n    // Events\r\n    event onAddRepository(address repoAddress, uint256 repoShare, uint256 repoMaxCapacityLimit);\r\n    event onUpdateRepository(address repoAddress, uint256 repoShare, uint256 repoMaxCapacityLimit); \r\n    event onBuyGarbiEC(address user, address repoInAddress, uint256 assetInAmount, uint256 garbiECOutAmount);\r\n    event onSellGarbiEC(address user, address repoOutAddress, uint256 assetOutAmount, uint256 garbiECInAmount);\r\n\r\n    constructor(\r\n        IERC20withBurnAndMint garbiECContract\r\n    ){\r\n        GarbiEC = garbiECContract;\r\n    }\r\n    \r\n    function addRepository(address repoAddress, uint256 repoShare, uint256 repoMaxCapacityLimit) public onlyOwner {\r\n        require(repoAddress != address(0), 'INVALID_REPO_ADDRESS');\r\n        require(repoShare > 0, 'INVALID_REPO_SHARE');\r\n        require(repoMaxCapacityLimit > 0, 'INVALID_REPO_CAPACITY');\r\n\r\n        repoList[repoAddress] = RepoInfo({\r\n            share : repoShare,\r\n            maxCapacityLimit : repoMaxCapacityLimit\r\n        });\r\n\r\n        repoAddresses.push(repoAddress);\r\n\r\n        emit onAddRepository(repoAddress, repoShare, repoMaxCapacityLimit);\r\n    }\r\n\r\n    function updateRepository(address repoAddress, uint256 repoShare, uint256 repoMaxCapacityLimit) public onlyOwner {\r\n        require(repoAddress != address(0), 'INVALID_REPO_ADDRESS');\r\n        require(repoShare > 0, 'INVALID_REPO_SHARE');\r\n        require(repoMaxCapacityLimit > 0, 'INVALID_REPO_CAPACITY');\r\n\r\n        repoList[repoAddress] = RepoInfo({\r\n            share : repoShare,\r\n            maxCapacityLimit : repoMaxCapacityLimit\r\n        });\r\n\r\n        emit onUpdateRepository(repoAddress, repoShare, repoMaxCapacityLimit);\r\n    }\r\n\r\n    function setTotalShares(uint256 newTotalShares) public onlyOwner {\r\n        require(newTotalShares > 0, 'INVALID_DATA');\r\n        totalShares = newTotalShares;\r\n    }\r\n\r\n    function setGarbiEquityCertificateContract(IERC20withBurnAndMint newGarbiECContract) public onlyOwner {\r\n        require(address(newGarbiECContract) != address(0), 'INVALID_DATA');\r\n        GarbiEC = newGarbiECContract;\r\n    }\r\n\r\n    function buyGarbiEquityCertificate(address repoInAddress, uint256 assetInAmount) public onlyRepoInTheList(repoInAddress) {\r\n        require(assetInAmount > 0, 'INVALID_ASSET_AMOUNT');\r\n        \r\n        IGarbiRepository repoIn = IGarbiRepository(repoInAddress);\r\n\r\n        require(repoIn.getCapacityByToken().add(assetInAmount) <= repoList[repoInAddress].maxCapacityLimit, 'INVALID_ASSET_CAPACITY');\r\n\r\n        IERC20 base = IERC20(repoIn.base());\r\n\r\n        uint256 baseUserBalance = base.balanceOf(msg.sender);\r\n\r\n        if(assetInAmount > baseUserBalance) {\r\n            assetInAmount = baseUserBalance;\r\n        }\r\n\r\n        uint256 garbiECOutAmount = getDataToBuyGarbiEC(repoInAddress, assetInAmount);\r\n\r\n        //make trade\r\n        base.transferFrom(msg.sender, address(this), assetInAmount);\r\n        GarbiEC.mint(address(this), garbiECOutAmount);\r\n        base.transfer(repoInAddress, assetInAmount);\r\n        GarbiEC.transfer(msg.sender, garbiECOutAmount);\r\n\r\n        emit onBuyGarbiEC(msg.sender, repoInAddress, assetInAmount, garbiECOutAmount);\r\n    }\r\n\r\n    function sellGarbiEquityCertificate(address repoOutAddress, uint256 garbiECInAmount) public onlyRepoInTheList(repoOutAddress) {\r\n        require(garbiECInAmount > 0, 'INVALID_GARBIEC_AMOUNT');\r\n        \r\n        IGarbiRepository repoOut = IGarbiRepository(repoOutAddress);\r\n\r\n        IERC20 base = IERC20(repoOut.base());\r\n\r\n        uint256 garbiECUserBalance = GarbiEC.balanceOf(msg.sender);\r\n\r\n        if(garbiECInAmount > garbiECUserBalance) {\r\n            garbiECInAmount = garbiECUserBalance;\r\n        }\r\n\r\n        uint256 baseOutAmount = getDataToSellGarbiEC(repoOutAddress, garbiECInAmount);\r\n\r\n        //make trade\r\n        GarbiEC.transferFrom(msg.sender, address(this), garbiECInAmount);\r\n        GarbiEC.burn(garbiECInAmount);\r\n        repoOut.withdrawBaseToRepositoryManager(baseOutAmount);\r\n        base.transfer(msg.sender, baseOutAmount);\r\n\r\n        emit onSellGarbiEC(msg.sender, repoOutAddress, baseOutAmount, garbiECInAmount);\r\n    }\r\n\r\n    function getGarbiECPrice() public view returns(uint256 garbiECPrice) {\r\n        uint256 totalCapacityByUSD = 0;\r\n        for (uint i = 0; i < repoAddresses.length; i++) {\r\n            IGarbiRepository repo = IGarbiRepository(repoAddresses[i]);\r\n            totalCapacityByUSD = totalCapacityByUSD.add(repo.getCapacityByUSD());\r\n        }\r\n\r\n        uint256 garbiECTotalSupply = GarbiEC.totalSupply();\r\n\r\n        if(garbiECTotalSupply == 0) {\r\n            garbiECPrice = 1e18;\r\n        }\r\n        else {\r\n            garbiECPrice = totalCapacityByUSD.mul(1e18).div(garbiECTotalSupply);\r\n        }\r\n    }\r\n\r\n    function getDataToBuyGarbiEC(address repoInAddress, uint256 assetInAmount) public view returns (uint256 garbiECOutAmount) {\r\n       uint256 garbiECPrice = getGarbiECPrice();\r\n       IGarbiRepository repoIn = IGarbiRepository(repoInAddress);\r\n\r\n       uint256 assetPrice = repoIn.getBasePrice();\r\n\r\n       garbiECOutAmount = assetInAmount.mul(assetPrice).div(garbiECPrice);\r\n    }\r\n\r\n    function getDataToSellGarbiEC(address repoOutAddress, uint256 garbiECInAmount) public view returns (uint256 assetOutAmount) {\r\n       uint256 garbiECPrice = getGarbiECPrice();\r\n       IGarbiRepository repoOut = IGarbiRepository(repoOutAddress);\r\n\r\n       uint256 assetPrice = repoOut.getBasePrice();\r\n\r\n       assetOutAmount = garbiECInAmount.mul(garbiECPrice).div(assetPrice);\r\n      \r\n    }\r\n}",
  "sourcePath": "C:\\Users\\David\\Documents\\NetBeansProjects\\garbiprotocol.github.io\\garbi_contracts\\contracts\\GarbiSwap2\\GarbiRepositoryManager.sol",
  "compiler": {
    "name": "solc",
    "version": "0.8.17+commit.8df45f5f.Emscripten.clang"
  },
  "schemaVersion": "3.4.11",
  "updatedAt": "2023-02-17T09:20:27.565Z",
  "networkType": "ethereum",
  "devdoc": {
    "kind": "dev",
    "methods": {
      "owner()": {
        "details": "Returns the address of the current owner."
      },
      "renounceOwnership()": {
        "details": "Leaves the contract without owner. It will not be possible to call `onlyOwner` functions anymore. Can only be called by the current owner. NOTE: Renouncing ownership will leave the contract without an owner, thereby removing any functionality that is only available to the owner."
      },
      "transferOwnership(address)": {
        "details": "Transfers ownership of the contract to a new account (`newOwner`). Can only be called by the current owner."
      }
    },
    "version": 1
  },
  "userdoc": {
    "kind": "user",
    "methods": {},
    "version": 1
  }
}