{
  "contractName": "GarbiswapTradeDAIUSDC",
  "abi": [
    {
      "inputs": [
        {
          "internalType": "contract IERC20",
          "name": "_base",
          "type": "address"
        },
        {
          "internalType": "contract IERC20",
          "name": "_token",
          "type": "address"
        },
        {
          "internalType": "contract IGarbiTimeLock",
          "name": "_garbiTimeLockContract",
          "type": "address"
        },
        {
          "internalType": "contract IGarbiswapFeeMachine",
          "name": "_feeMachineContract",
          "type": "address"
        },
        {
          "internalType": "contract IGarbiswapWhitelist",
          "name": "_whitelistContract",
          "type": "address"
        },
        {
          "internalType": "contract IGarbiOracle",
          "name": "_garbiOracle",
          "type": "address"
        },
        {
          "internalType": "string",
          "name": "name",
          "type": "string"
        },
        {
          "internalType": "string",
          "name": "symbol",
          "type": "string"
        }
      ],
      "stateMutability": "nonpayable",
      "type": "constructor"
    },
    {
      "anonymous": false,
      "inputs": [
        {
          "indexed": true,
          "internalType": "address",
          "name": "owner",
          "type": "address"
        },
        {
          "indexed": true,
          "internalType": "address",
          "name": "spender",
          "type": "address"
        },
        {
          "indexed": false,
          "internalType": "uint256",
          "name": "value",
          "type": "uint256"
        }
      ],
      "name": "Approval",
      "type": "event"
    },
    {
      "anonymous": false,
      "inputs": [
        {
          "indexed": true,
          "internalType": "address",
          "name": "previousOwner",
          "type": "address"
        },
        {
          "indexed": true,
          "internalType": "address",
          "name": "newOwner",
          "type": "address"
        }
      ],
      "name": "OwnershipTransferred",
      "type": "event"
    },
    {
      "anonymous": false,
      "inputs": [
        {
          "indexed": false,
          "internalType": "address",
          "name": "account",
          "type": "address"
        }
      ],
      "name": "Paused",
      "type": "event"
    },
    {
      "anonymous": false,
      "inputs": [
        {
          "indexed": true,
          "internalType": "address",
          "name": "from",
          "type": "address"
        },
        {
          "indexed": true,
          "internalType": "address",
          "name": "to",
          "type": "address"
        },
        {
          "indexed": false,
          "internalType": "uint256",
          "name": "value",
          "type": "uint256"
        }
      ],
      "name": "Transfer",
      "type": "event"
    },
    {
      "anonymous": false,
      "inputs": [
        {
          "indexed": false,
          "internalType": "address",
          "name": "account",
          "type": "address"
        }
      ],
      "name": "Unpaused",
      "type": "event"
    },
    {
      "anonymous": false,
      "inputs": [
        {
          "indexed": false,
          "internalType": "address",
          "name": "sender",
          "type": "address"
        },
        {
          "indexed": false,
          "internalType": "uint256",
          "name": "mintLP",
          "type": "uint256"
        },
        {
          "indexed": false,
          "internalType": "uint256",
          "name": "baseInputAmount",
          "type": "uint256"
        },
        {
          "indexed": false,
          "internalType": "uint256",
          "name": "tokenInputAmount",
          "type": "uint256"
        },
        {
          "indexed": false,
          "internalType": "uint256",
          "name": "poolBaseBalance",
          "type": "uint256"
        },
        {
          "indexed": false,
          "internalType": "uint256",
          "name": "poolTokenBalance",
          "type": "uint256"
        }
      ],
      "name": "onAddLP",
      "type": "event"
    },
    {
      "anonymous": false,
      "inputs": [
        {
          "indexed": false,
          "internalType": "address",
          "name": "sender",
          "type": "address"
        },
        {
          "indexed": false,
          "internalType": "uint256",
          "name": "amountLP",
          "type": "uint256"
        },
        {
          "indexed": false,
          "internalType": "uint256",
          "name": "baseOutputAmout",
          "type": "uint256"
        },
        {
          "indexed": false,
          "internalType": "uint256",
          "name": "tokenOutputAmount",
          "type": "uint256"
        },
        {
          "indexed": false,
          "internalType": "uint256",
          "name": "poolBaseBalance",
          "type": "uint256"
        },
        {
          "indexed": false,
          "internalType": "uint256",
          "name": "poolTokenBalance",
          "type": "uint256"
        }
      ],
      "name": "onRemoveLP",
      "type": "event"
    },
    {
      "anonymous": false,
      "inputs": [
        {
          "indexed": false,
          "internalType": "address",
          "name": "sender",
          "type": "address"
        },
        {
          "indexed": false,
          "internalType": "uint256",
          "name": "minTokenOutput",
          "type": "uint256"
        },
        {
          "indexed": false,
          "internalType": "uint256",
          "name": "baseInputAmount",
          "type": "uint256"
        },
        {
          "indexed": false,
          "internalType": "uint256",
          "name": "tokenOutputAmount",
          "type": "uint256"
        },
        {
          "indexed": false,
          "internalType": "uint256",
          "name": "poolBaseBalance",
          "type": "uint256"
        },
        {
          "indexed": false,
          "internalType": "uint256",
          "name": "poolTokenBalance",
          "type": "uint256"
        }
      ],
      "name": "onSwapBaseToTokenWithBaseInput",
      "type": "event"
    },
    {
      "anonymous": false,
      "inputs": [
        {
          "indexed": false,
          "internalType": "address",
          "name": "sender",
          "type": "address"
        },
        {
          "indexed": false,
          "internalType": "uint256",
          "name": "maxBaseInput",
          "type": "uint256"
        },
        {
          "indexed": false,
          "internalType": "uint256",
          "name": "baseInputAmount",
          "type": "uint256"
        },
        {
          "indexed": false,
          "internalType": "uint256",
          "name": "tokenOutputAmount",
          "type": "uint256"
        },
        {
          "indexed": false,
          "internalType": "uint256",
          "name": "poolBaseBalance",
          "type": "uint256"
        },
        {
          "indexed": false,
          "internalType": "uint256",
          "name": "poolTokenBalance",
          "type": "uint256"
        }
      ],
      "name": "onSwapBaseToTokenWithTokenOutput",
      "type": "event"
    },
    {
      "anonymous": false,
      "inputs": [
        {
          "indexed": false,
          "internalType": "address",
          "name": "sender",
          "type": "address"
        },
        {
          "indexed": false,
          "internalType": "uint256",
          "name": "maxTokenInput",
          "type": "uint256"
        },
        {
          "indexed": false,
          "internalType": "uint256",
          "name": "tokenInputAmount",
          "type": "uint256"
        },
        {
          "indexed": false,
          "internalType": "uint256",
          "name": "baseOutputAmount",
          "type": "uint256"
        },
        {
          "indexed": false,
          "internalType": "uint256",
          "name": "poolBaseBalance",
          "type": "uint256"
        },
        {
          "indexed": false,
          "internalType": "uint256",
          "name": "poolTokenBalance",
          "type": "uint256"
        }
      ],
      "name": "onSwapTokenToBaseWithBaseOutput",
      "type": "event"
    },
    {
      "anonymous": false,
      "inputs": [
        {
          "indexed": false,
          "internalType": "address",
          "name": "sender",
          "type": "address"
        },
        {
          "indexed": false,
          "internalType": "uint256",
          "name": "minBaseOutput",
          "type": "uint256"
        },
        {
          "indexed": false,
          "internalType": "uint256",
          "name": "tokenInputAmount",
          "type": "uint256"
        },
        {
          "indexed": false,
          "internalType": "uint256",
          "name": "baseOutputAmount",
          "type": "uint256"
        },
        {
          "indexed": false,
          "internalType": "uint256",
          "name": "poolBaseBalance",
          "type": "uint256"
        },
        {
          "indexed": false,
          "internalType": "uint256",
          "name": "poolTokenBalance",
          "type": "uint256"
        }
      ],
      "name": "onSwapTokenToBaseWithTokenInput",
      "type": "event"
    },
    {
      "inputs": [],
      "name": "PLATFORM_FEE",
      "outputs": [
        {
          "internalType": "uint256",
          "name": "",
          "type": "uint256"
        }
      ],
      "stateMutability": "view",
      "type": "function"
    },
    {
      "inputs": [],
      "name": "TRADE_FEE",
      "outputs": [
        {
          "internalType": "uint256",
          "name": "",
          "type": "uint256"
        }
      ],
      "stateMutability": "view",
      "type": "function"
    },
    {
      "inputs": [
        {
          "internalType": "address",
          "name": "owner",
          "type": "address"
        },
        {
          "internalType": "address",
          "name": "spender",
          "type": "address"
        }
      ],
      "name": "allowance",
      "outputs": [
        {
          "internalType": "uint256",
          "name": "",
          "type": "uint256"
        }
      ],
      "stateMutability": "view",
      "type": "function"
    },
    {
      "inputs": [
        {
          "internalType": "address",
          "name": "spender",
          "type": "address"
        },
        {
          "internalType": "uint256",
          "name": "amount",
          "type": "uint256"
        }
      ],
      "name": "approve",
      "outputs": [
        {
          "internalType": "bool",
          "name": "",
          "type": "bool"
        }
      ],
      "stateMutability": "nonpayable",
      "type": "function"
    },
    {
      "inputs": [
        {
          "internalType": "address",
          "name": "account",
          "type": "address"
        }
      ],
      "name": "balanceOf",
      "outputs": [
        {
          "internalType": "uint256",
          "name": "",
          "type": "uint256"
        }
      ],
      "stateMutability": "view",
      "type": "function"
    },
    {
      "inputs": [],
      "name": "base",
      "outputs": [
        {
          "internalType": "contract IERC20",
          "name": "",
          "type": "address"
        }
      ],
      "stateMutability": "view",
      "type": "function"
    },
    {
      "inputs": [
        {
          "internalType": "uint256",
          "name": "amount",
          "type": "uint256"
        }
      ],
      "name": "burn",
      "outputs": [],
      "stateMutability": "nonpayable",
      "type": "function"
    },
    {
      "inputs": [
        {
          "internalType": "address",
          "name": "account",
          "type": "address"
        },
        {
          "internalType": "uint256",
          "name": "amount",
          "type": "uint256"
        }
      ],
      "name": "burnFrom",
      "outputs": [],
      "stateMutability": "nonpayable",
      "type": "function"
    },
    {
      "inputs": [],
      "name": "decimals",
      "outputs": [
        {
          "internalType": "uint8",
          "name": "",
          "type": "uint8"
        }
      ],
      "stateMutability": "view",
      "type": "function"
    },
    {
      "inputs": [
        {
          "internalType": "address",
          "name": "spender",
          "type": "address"
        },
        {
          "internalType": "uint256",
          "name": "subtractedValue",
          "type": "uint256"
        }
      ],
      "name": "decreaseAllowance",
      "outputs": [
        {
          "internalType": "bool",
          "name": "",
          "type": "bool"
        }
      ],
      "stateMutability": "nonpayable",
      "type": "function"
    },
    {
      "inputs": [],
      "name": "feeMachineContract",
      "outputs": [
        {
          "internalType": "contract IGarbiswapFeeMachine",
          "name": "",
          "type": "address"
        }
      ],
      "stateMutability": "view",
      "type": "function"
    },
    {
      "inputs": [],
      "name": "garbiOracle",
      "outputs": [
        {
          "internalType": "contract IGarbiOracle",
          "name": "",
          "type": "address"
        }
      ],
      "stateMutability": "view",
      "type": "function"
    },
    {
      "inputs": [],
      "name": "garbiTimeLockContract",
      "outputs": [
        {
          "internalType": "contract IGarbiTimeLock",
          "name": "",
          "type": "address"
        }
      ],
      "stateMutability": "view",
      "type": "function"
    },
    {
      "inputs": [
        {
          "internalType": "address",
          "name": "spender",
          "type": "address"
        },
        {
          "internalType": "uint256",
          "name": "addedValue",
          "type": "uint256"
        }
      ],
      "name": "increaseAllowance",
      "outputs": [
        {
          "internalType": "bool",
          "name": "",
          "type": "bool"
        }
      ],
      "stateMutability": "nonpayable",
      "type": "function"
    },
    {
      "inputs": [],
      "name": "name",
      "outputs": [
        {
          "internalType": "string",
          "name": "",
          "type": "string"
        }
      ],
      "stateMutability": "view",
      "type": "function"
    },
    {
      "inputs": [],
      "name": "owner",
      "outputs": [
        {
          "internalType": "address",
          "name": "",
          "type": "address"
        }
      ],
      "stateMutability": "view",
      "type": "function"
    },
    {
      "inputs": [],
      "name": "paused",
      "outputs": [
        {
          "internalType": "bool",
          "name": "",
          "type": "bool"
        }
      ],
      "stateMutability": "view",
      "type": "function"
    },
    {
      "inputs": [],
      "name": "platformFundAddress",
      "outputs": [
        {
          "internalType": "address",
          "name": "",
          "type": "address"
        }
      ],
      "stateMutability": "view",
      "type": "function"
    },
    {
      "inputs": [],
      "name": "renounceOwnership",
      "outputs": [],
      "stateMutability": "nonpayable",
      "type": "function"
    },
    {
      "inputs": [],
      "name": "symbol",
      "outputs": [
        {
          "internalType": "string",
          "name": "",
          "type": "string"
        }
      ],
      "stateMutability": "view",
      "type": "function"
    },
    {
      "inputs": [],
      "name": "token",
      "outputs": [
        {
          "internalType": "contract IERC20",
          "name": "",
          "type": "address"
        }
      ],
      "stateMutability": "view",
      "type": "function"
    },
    {
      "inputs": [],
      "name": "totalSupply",
      "outputs": [
        {
          "internalType": "uint256",
          "name": "",
          "type": "uint256"
        }
      ],
      "stateMutability": "view",
      "type": "function"
    },
    {
      "inputs": [
        {
          "internalType": "address",
          "name": "to",
          "type": "address"
        },
        {
          "internalType": "uint256",
          "name": "amount",
          "type": "uint256"
        }
      ],
      "name": "transfer",
      "outputs": [
        {
          "internalType": "bool",
          "name": "",
          "type": "bool"
        }
      ],
      "stateMutability": "nonpayable",
      "type": "function"
    },
    {
      "inputs": [
        {
          "internalType": "address",
          "name": "from",
          "type": "address"
        },
        {
          "internalType": "address",
          "name": "to",
          "type": "address"
        },
        {
          "internalType": "uint256",
          "name": "amount",
          "type": "uint256"
        }
      ],
      "name": "transferFrom",
      "outputs": [
        {
          "internalType": "bool",
          "name": "",
          "type": "bool"
        }
      ],
      "stateMutability": "nonpayable",
      "type": "function"
    },
    {
      "inputs": [
        {
          "internalType": "address",
          "name": "newOwner",
          "type": "address"
        }
      ],
      "name": "transferOwnership",
      "outputs": [],
      "stateMutability": "nonpayable",
      "type": "function"
    },
    {
      "inputs": [],
      "name": "whitelistContract",
      "outputs": [
        {
          "internalType": "contract IGarbiswapWhitelist",
          "name": "",
          "type": "address"
        }
      ],
      "stateMutability": "view",
      "type": "function"
    },
    {
      "inputs": [],
      "name": "setWhitelistContract",
      "outputs": [],
      "stateMutability": "nonpayable",
      "type": "function"
    },
    {
      "inputs": [],
      "name": "setFeeMachineContract",
      "outputs": [],
      "stateMutability": "nonpayable",
      "type": "function"
    },
    {
      "inputs": [],
      "name": "setTradeFee",
      "outputs": [],
      "stateMutability": "nonpayable",
      "type": "function"
    },
    {
      "inputs": [],
      "name": "setPlatformFee",
      "outputs": [],
      "stateMutability": "nonpayable",
      "type": "function"
    },
    {
      "inputs": [
        {
          "internalType": "address",
          "name": "newAddress",
          "type": "address"
        }
      ],
      "name": "setPlatformFundAdress",
      "outputs": [],
      "stateMutability": "nonpayable",
      "type": "function"
    },
    {
      "inputs": [],
      "name": "getK",
      "outputs": [
        {
          "internalType": "uint256",
          "name": "",
          "type": "uint256"
        }
      ],
      "stateMutability": "view",
      "type": "function"
    },
    {
      "inputs": [
        {
          "internalType": "uint256",
          "name": "baseInputAmount",
          "type": "uint256"
        }
      ],
      "name": "getTokenOutput",
      "outputs": [
        {
          "internalType": "uint256",
          "name": "",
          "type": "uint256"
        }
      ],
      "stateMutability": "view",
      "type": "function"
    },
    {
      "inputs": [
        {
          "internalType": "uint256",
          "name": "tokenInputAmount",
          "type": "uint256"
        }
      ],
      "name": "getBaseOutput",
      "outputs": [
        {
          "internalType": "uint256",
          "name": "",
          "type": "uint256"
        }
      ],
      "stateMutability": "view",
      "type": "function"
    },
    {
      "inputs": [
        {
          "internalType": "uint256",
          "name": "baseInputAmount",
          "type": "uint256"
        }
      ],
      "name": "getDataFromBaseInputToAddLp",
      "outputs": [
        {
          "internalType": "uint256",
          "name": "",
          "type": "uint256"
        },
        {
          "internalType": "uint256",
          "name": "",
          "type": "uint256"
        }
      ],
      "stateMutability": "view",
      "type": "function"
    },
    {
      "inputs": [
        {
          "internalType": "uint256",
          "name": "tokenInputAmount",
          "type": "uint256"
        }
      ],
      "name": "getDataFromTokenInputToAddLp",
      "outputs": [
        {
          "internalType": "uint256",
          "name": "",
          "type": "uint256"
        },
        {
          "internalType": "uint256",
          "name": "",
          "type": "uint256"
        }
      ],
      "stateMutability": "view",
      "type": "function"
    },
    {
      "inputs": [
        {
          "internalType": "uint256",
          "name": "amountLP",
          "type": "uint256"
        }
      ],
      "name": "getDataToRemoveLP",
      "outputs": [
        {
          "internalType": "uint256",
          "name": "",
          "type": "uint256"
        },
        {
          "internalType": "uint256",
          "name": "",
          "type": "uint256"
        }
      ],
      "stateMutability": "view",
      "type": "function"
    },
    {
      "inputs": [
        {
          "internalType": "uint256",
          "name": "baseInputAmount",
          "type": "uint256"
        },
        {
          "internalType": "uint256",
          "name": "baseReserve",
          "type": "uint256"
        },
        {
          "internalType": "uint256",
          "name": "tokenReserve",
          "type": "uint256"
        }
      ],
      "name": "getTokenOutputAmountFromBaseInput",
      "outputs": [
        {
          "internalType": "uint256",
          "name": "",
          "type": "uint256"
        }
      ],
      "stateMutability": "view",
      "type": "function"
    },
    {
      "inputs": [
        {
          "internalType": "uint256",
          "name": "tokenOutputAmount",
          "type": "uint256"
        },
        {
          "internalType": "uint256",
          "name": "baseReserve",
          "type": "uint256"
        },
        {
          "internalType": "uint256",
          "name": "tokenReserve",
          "type": "uint256"
        }
      ],
      "name": "getBaseInputAmountFromTokenOutput",
      "outputs": [
        {
          "internalType": "uint256",
          "name": "",
          "type": "uint256"
        }
      ],
      "stateMutability": "view",
      "type": "function"
    },
    {
      "inputs": [
        {
          "internalType": "uint256",
          "name": "tokenInputAmount",
          "type": "uint256"
        },
        {
          "internalType": "uint256",
          "name": "baseReserve",
          "type": "uint256"
        },
        {
          "internalType": "uint256",
          "name": "tokenReserve",
          "type": "uint256"
        }
      ],
      "name": "getBaseOutputAmountFromTokenInput",
      "outputs": [
        {
          "internalType": "uint256",
          "name": "",
          "type": "uint256"
        }
      ],
      "stateMutability": "view",
      "type": "function"
    },
    {
      "inputs": [
        {
          "internalType": "uint256",
          "name": "baseOutputAmount",
          "type": "uint256"
        },
        {
          "internalType": "uint256",
          "name": "baseReserve",
          "type": "uint256"
        },
        {
          "internalType": "uint256",
          "name": "tokenReserve",
          "type": "uint256"
        }
      ],
      "name": "getTokenInputAmountFromBaseOutput",
      "outputs": [
        {
          "internalType": "uint256",
          "name": "",
          "type": "uint256"
        }
      ],
      "stateMutability": "view",
      "type": "function"
    },
    {
      "inputs": [
        {
          "internalType": "uint256",
          "name": "baseInputAmount",
          "type": "uint256"
        },
        {
          "internalType": "uint256",
          "name": "minTokenOutput",
          "type": "uint256"
        },
        {
          "internalType": "uint256",
          "name": "deadline",
          "type": "uint256"
        }
      ],
      "name": "swapBaseToTokenWithBaseInput",
      "outputs": [],
      "stateMutability": "nonpayable",
      "type": "function"
    },
    {
      "inputs": [
        {
          "internalType": "uint256",
          "name": "maxBaseInput",
          "type": "uint256"
        },
        {
          "internalType": "uint256",
          "name": "tokenOutputAmount",
          "type": "uint256"
        },
        {
          "internalType": "uint256",
          "name": "deadline",
          "type": "uint256"
        }
      ],
      "name": "swapBaseToTokenWithTokenOutput",
      "outputs": [],
      "stateMutability": "nonpayable",
      "type": "function"
    },
    {
      "inputs": [
        {
          "internalType": "uint256",
          "name": "tokenInputAmount",
          "type": "uint256"
        },
        {
          "internalType": "uint256",
          "name": "minBaseOutput",
          "type": "uint256"
        },
        {
          "internalType": "uint256",
          "name": "deadline",
          "type": "uint256"
        }
      ],
      "name": "swapTokenToBaseWithTokenInput",
      "outputs": [],
      "stateMutability": "nonpayable",
      "type": "function"
    },
    {
      "inputs": [
        {
          "internalType": "uint256",
          "name": "maxTokenInput",
          "type": "uint256"
        },
        {
          "internalType": "uint256",
          "name": "baseOutputAmount",
          "type": "uint256"
        },
        {
          "internalType": "uint256",
          "name": "deadline",
          "type": "uint256"
        }
      ],
      "name": "swapTokenToBaseWithBaseOutput",
      "outputs": [],
      "stateMutability": "nonpayable",
      "type": "function"
    },
    {
      "inputs": [
        {
          "internalType": "uint256",
          "name": "minLP",
          "type": "uint256"
        },
        {
          "internalType": "uint256",
          "name": "baseInputAmount",
          "type": "uint256"
        },
        {
          "internalType": "uint256",
          "name": "maxTokenInputAmount",
          "type": "uint256"
        },
        {
          "internalType": "uint256",
          "name": "deadline",
          "type": "uint256"
        }
      ],
      "name": "addLP",
      "outputs": [
        {
          "internalType": "uint256",
          "name": "",
          "type": "uint256"
        }
      ],
      "stateMutability": "nonpayable",
      "type": "function"
    },
    {
      "inputs": [
        {
          "internalType": "uint256",
          "name": "amountLP",
          "type": "uint256"
        },
        {
          "internalType": "uint256",
          "name": "minBaseOutput",
          "type": "uint256"
        },
        {
          "internalType": "uint256",
          "name": "minTokenOutput",
          "type": "uint256"
        },
        {
          "internalType": "uint256",
          "name": "deadline",
          "type": "uint256"
        }
      ],
      "name": "removeLP",
      "outputs": [
        {
          "internalType": "uint256",
          "name": "",
          "type": "uint256"
        },
        {
          "internalType": "uint256",
          "name": "",
          "type": "uint256"
        }
      ],
      "stateMutability": "nonpayable",
      "type": "function"
    },
    {
      "inputs": [],
      "name": "getTotalReserve",
      "outputs": [
        {
          "internalType": "uint256",
          "name": "",
          "type": "uint256"
        },
        {
          "internalType": "uint256",
          "name": "",
          "type": "uint256"
        }
      ],
      "stateMutability": "view",
      "type": "function"
    },
    {
      "inputs": [
        {
          "internalType": "uint256",
          "name": "number",
          "type": "uint256"
        }
      ],
      "name": "convertDecimal6to18",
      "outputs": [
        {
          "internalType": "uint256",
          "name": "",
          "type": "uint256"
        }
      ],
      "stateMutability": "pure",
      "type": "function"
    },
    {
      "inputs": [
        {
          "internalType": "uint256",
          "name": "number",
          "type": "uint256"
        }
      ],
      "name": "convertDecimal18to6",
      "outputs": [
        {
          "internalType": "uint256",
          "name": "",
          "type": "uint256"
        }
      ],
      "stateMutability": "pure",
      "type": "function"
    },
    {
      "inputs": [],
      "name": "pause",
      "outputs": [],
      "stateMutability": "nonpayable",
      "type": "function"
    },
    {
      "inputs": [],
      "name": "unpause",
      "outputs": [],
      "stateMutability": "nonpayable",
      "type": "function"
    }
  ],
  "bytecode": "0x6080604052600a600c556019600d553480156200001b57600080fd5b506040516200527e3803806200527e8339810160408190526200003e9162000266565b818160036200004e8382620003de565b5060046200005d8282620003de565b5050506200007a620000746200012060201b60201c565b62000124565b6005805460ff60a01b19169055600680546001600160a01b03199081166001600160a01b038b8116919091179092556007805482168a8416179055600a80548216898416179055600980548216878416179055600880548216888416179055600b8054909116918516919091179055620000f13390565b600e80546001600160a01b0319166001600160a01b039290921691909117905550620004aa9650505050505050565b3390565b600580546001600160a01b038381166001600160a01b0319831681179093556040519116919082907f8be0079c531659141344cd1fd0a4f28419497f9722a3daafe3b4186f6b6457e090600090a35050565b6001600160a01b03811681146200018c57600080fd5b50565b80516200019c8162000176565b919050565b634e487b7160e01b600052604160045260246000fd5b600082601f830112620001c957600080fd5b81516001600160401b0380821115620001e657620001e6620001a1565b604051601f8301601f19908116603f01168101908282118183101715620002115762000211620001a1565b816040528381526020925086838588010111156200022e57600080fd5b600091505b8382101562000252578582018301518183018401529082019062000233565b600093810190920192909252949350505050565b600080600080600080600080610100898b0312156200028457600080fd5b8851620002918162000176565b60208a0151909850620002a48162000176565b60408a0151909750620002b78162000176565b60608a0151909650620002ca8162000176565b60808a0151909550620002dd8162000176565b9350620002ed60a08a016200018f565b60c08a01519093506001600160401b03808211156200030b57600080fd5b620003198c838d01620001b7565b935060e08b01519150808211156200033057600080fd5b506200033f8b828c01620001b7565b9150509295985092959890939650565b600181811c908216806200036457607f821691505b6020821081036200038557634e487b7160e01b600052602260045260246000fd5b50919050565b601f821115620003d957600081815260208120601f850160051c81016020861015620003b45750805b601f850160051c820191505b81811015620003d557828155600101620003c0565b5050505b505050565b81516001600160401b03811115620003fa57620003fa620001a1565b62000412816200040b84546200034f565b846200038b565b602080601f8311600181146200044a5760008415620004315750858301515b600019600386901b1c1916600185901b178555620003d5565b600085815260208120601f198616915b828110156200047b578886015182559484019460019091019084016200045a565b50858210156200049a5787850151600019600388901b60f8161c191681555b5050505050600190811b01905550565b614dc480620004ba6000396000f3fe608060405234801561001057600080fd5b506004361061030c5760003560e01c806373dd25a31161019d578063ac7343bd116100e9578063dd62ed3e116100a2578063ec0229181161007c578063ec02291814610667578063ee39e7a01461066f578063f2fde38b14610677578063fc0c546a1461068a57600080fd5b8063dd62ed3e14610639578063e50a38d71461064c578063ead915e31461065f57600080fd5b8063ac7343bd146105ef578063b7c3ba45146105f7578063c6e842fc1461060a578063d0e9de6c1461061d578063d132296214610630578063dbcfbf2f146105f757600080fd5b80638da5cb5b1161015657806397bb21c61161013057806397bb21c6146103f85780639fa5e63e146105b6578063a457c2d7146105c9578063a9059cbb146105dc57600080fd5b80638da5cb5b1461058a5780638fe6041d1461059b57806395d89b41146105ae57600080fd5b806373dd25a314610523578063743861631461053657806376125deb1461054957806379cc67901461055c5780638456cb591461056f57806384900b041461057757600080fd5b8063395093511161025c5780635c975abb116102155780636662d177116101ef5780636662d177146104b757806370a08231146104df578063711f614214610508578063715018a61461051b57600080fd5b80635c975abb1461047f57806360b1765c14610491578063635f95ff146104a457600080fd5b806339509351146104235780633f4ba83a1461043657806342966c681461043e57806342eba2ce1461045157806344dca562146104645780635001f3b51461046c57600080fd5b80631279732c116102c957806323b872dd116102a357806323b872dd146103e55780632916bc10146103f8578063313ce5671461040b57806334fbc9a11461041a57600080fd5b80631279732c146103c257806318160ddd146103ca5780631f14036c146103d257600080fd5b806303bf04c11461031157806304f6afbd1461032657806306fdde031461034c578063095ea7b31461036157806310a57f3a1461038457806311fbded3146103af575b600080fd5b61032461031f3660046144ad565b61069d565b005b6103396103343660046144d9565b610c45565b6040519081526020015b60405180910390f35b610354610c66565b60405161034391906144f2565b61037461036f366004614555565b610cf8565b6040519015158152602001610343565b600a54610397906001600160a01b031681565b6040516001600160a01b039091168152602001610343565b6103396103bd3660046144d9565b610d10565b610324610d72565b600254610339565b600b54610397906001600160a01b031681565b6103746103f3366004614581565b610f45565b6103396104063660046144ad565b610f69565b60405160128152602001610343565b610339600d5481565b610374610431366004614555565b6110b3565b6103246110d5565b61032461044c3660046144d9565b6110e7565b600854610397906001600160a01b031681565b6103246110f4565b600654610397906001600160a01b031681565b600554600160a01b900460ff16610374565b61033961049f3660046145c2565b611292565b6103396104b23660046144d9565b611be3565b6104ca6104c53660046144d9565b611c36565b60408051928352602083019190915201610343565b6103396104ed3660046145f4565b6001600160a01b031660009081526020819052604090205490565b6104ca6105163660046144d9565b611cd5565b610324611d94565b6103246105313660046144ad565b611da6565b6103396105443660046144d9565b612317565b6104ca6105573660046145c2565b612332565b61032461056a366004614555565b612a56565b610324612a6f565b600954610397906001600160a01b031681565b6005546001600160a01b0316610397565b6103246105a93660046145f4565b612a7f565b610354612aa9565b600e54610397906001600160a01b031681565b6103746105d7366004614555565b612ab8565b6103746105ea366004614555565b612b33565b610324612b41565b6103396106053660046144ad565b612d3a565b6104ca6106183660046144d9565b612e84565b61032461062b3660046144ad565b612f23565b610339600c5481565b610339610647366004614611565b613449565b61032461065a3660046144ad565b613474565b6103246139e4565b6104ca613bdd565b610339613cd6565b6103246106853660046145f4565b613cf3565b600754610397906001600160a01b031681565b33321461073a57600954604051636c9b2a3f60e11b81523360048201526001600160a01b039091169063d936547e90602401602060405180830381865afa1580156106ec573d6000803e3d6000fd5b505050506040513d601f19601f82011682018060405250810190610710919061464a565b151560011461073a5760405162461bcd60e51b81526004016107319061466c565b60405180910390fd5b610742613d69565b428110156107625760405162461bcd60e51b815260040161073190614697565b600082116107ac5760405162461bcd60e51b81526020600482015260176024820152761253959053125117d3525397d09054d157d3d555141555604a1b6044820152606401610731565b600083116107cc5760405162461bcd60e51b8152600401610731906146c1565b6007546040516370a0823160e01b81523360048201526001600160a01b03909116906370a0823190602401602060405180830381865afa158015610814573d6000803e3d6000fd5b505050506040513d601f19601f8201168201806040525081019061083891906146ee565b8311156108875760405162461bcd60e51b815260206004820152601f60248201527f544f4b454e5f494e5055545f4849474845525f555345525f42414c414e4345006044820152606401610731565b61089082612317565b915060008061089d613bdd565b90925090508184106109025760405162461bcd60e51b815260206004820152602860248201527f4d494e5f424153455f4f55545055545f4849474845525f504f4f4c5f424153456044820152675f42414c414e434560c01b6064820152608401610731565b6000610926620186a0610920600c5489613db690919063ffffffff16565b90613dc9565b905060006109348783613dd5565b90506000610943828686612d3a565b9050868110156109655760405162461bcd60e51b815260040161073190614707565b8481106109845760405162461bcd60e51b815260040161073190614733565b6006546040516370a0823160e01b81523060048201526109f3916001600160a01b0316906370a08231906024015b602060405180830381865afa1580156109cf573d6000803e3d6000fd5b505050506040513d601f19601f8201168201806040525081019061054491906146ee565b8110610a115760405162461bcd60e51b815260040161073190614777565b6007546040516323b872dd60e01b81526001600160a01b03909116906323b872dd90610a4590339030908d906004016147bf565b6020604051808303816000875af1158015610a64573d6000803e3d6000fd5b505050506040513d601f19601f82011682018060405250810190610a88919061464a565b50610a9281610c45565b60065460405163a9059cbb60e01b81529192506001600160a01b03169063a9059cbb90610ac590339085906004016147e3565b6020604051808303816000875af1158015610ae4573d6000803e3d6000fd5b505050506040513d601f19601f82011682018060405250810190610b08919061464a565b5060075460085460405163a9059cbb60e01b81526001600160a01b039283169263a9059cbb92610b3f9291169087906004016147e3565b6020604051808303816000875af1158015610b5e573d6000803e3d6000fd5b505050506040513d601f19601f82011682018060405250810190610b82919061464a565b50600854600754604051632054895360e21b81526001600160a01b039182166004820152336024820152911690638152254c90604401600060405180830381600087803b158015610bd257600080fd5b505af1158015610be6573d6000803e3d6000fd5b505050507fb1b8c525a87e01fd3cda717635c4b24d56deba9f9d95c4f650c022bcd0bf8f5033610c1589610c45565b8a84610c208a610c45565b89604051610c33969594939291906147fc565b60405180910390a15050505050505050565b6000610c60670de0b6b3a764000061092084620f4240613db6565b92915050565b606060038054610c759061482f565b80601f0160208091040260200160405190810160405280929190818152602001828054610ca19061482f565b8015610cee5780601f10610cc357610100808354040283529160200191610cee565b820191906000526020600020905b815481529060010190602001808311610cd157829003601f168201915b5050505050905090565b600033610d06818585613de1565b5060019392505050565b60008080610d1c613bdd565b9092509050610d2a84612317565b93506000610d4a620186a0610920600c5488613db690919063ffffffff16565b90506000610d588683613dd5565b90506000610d67828686610f69565b979650505050505050565b610d7a613f06565b600a5460405163109cc30b60e21b81526001600160a01b03909116906342730c2c90610daa903090600401614887565b602060405180830381865afa158015610dc7573d6000803e3d6000fd5b505050506040513d601f19601f82011682018060405250810190610deb919061464a565b610e075760405162461bcd60e51b8152600401610731906148aa565b600a54604051636076dea560e11b81526000916001600160a01b03169063c0edbd4a90610e389030906004016148d6565b602060405180830381865afa158015610e55573d6000803e3d6000fd5b505050506040513d601f19601f82011682018060405250810190610e7991906146ee565b600c819055600a54604051636e977f0b60e01b81529192506001600160a01b031690636e977f0b90610eb090600290600401614920565b600060405180830381600087803b158015610eca57600080fd5b505af1158015610ede573d6000803e3d6000fd5b5050600a546040516345503fcb60e11b81526001600160a01b039091169250638aa07f969150610f109060040161496b565b600060405180830381600087803b158015610f2a57600080fd5b505af1158015610f3e573d6000803e3d6000fd5b5050505050565b600033610f53858285613f60565b610f5e858585613fda565b506001949350505050565b60008083118015610f7a5750600082115b610fb65760405162461bcd60e51b815260206004820152600d60248201526c494e56414c49445f56414c554560981b6044820152606401610731565b600b546007546040516302c68be360e31b81526001600160a01b03918216600482015260009291909116906316345f1890602401602060405180830381865afa158015611007573d6000803e3d6000fd5b505050506040513d601f19601f8201168201806040525081019061102b91906146ee565b600b546006546040516302c68be360e31b81526001600160a01b0391821660048201529293506000929116906316345f1890602401602060405180830381865afa15801561107d573d6000803e3d6000fd5b505050506040513d601f19601f820116820180604052508101906110a191906146ee565b90506000610d67826109208986613db6565b600033610d068185856110c68383613449565b6110d09190614993565b613de1565b6110dd613f06565b6110e561417e565b565b6110f133826141d3565b50565b6110fc613f06565b600a5460405163109cc30b60e21b81526001600160a01b03909116906342730c2c9061112c9030906004016149c7565b602060405180830381865afa158015611149573d6000803e3d6000fd5b505050506040513d601f19601f8201168201806040525081019061116d919061464a565b6111895760405162461bcd60e51b8152600401610731906148aa565b600a54604051636076dea560e11b81526000916001600160a01b03169063c0edbd4a906111ba9030906004016149ea565b602060405180830381865afa1580156111d7573d6000803e3d6000fd5b505050506040513d601f19601f820116820180604052508101906111fb91906146ee565b600d819055600a54604051636e977f0b60e01b81529192506001600160a01b031690636e977f0b9061123290600290600401614a37565b600060405180830381600087803b15801561124c57600080fd5b505af1158015611260573d6000803e3d6000fd5b5050600a546040516345503fcb60e11b81526001600160a01b039091169250638aa07f969150610f1090600401614a73565b600033321461132857600954604051636c9b2a3f60e11b81523360048201526001600160a01b039091169063d936547e90602401602060405180830381865afa1580156112e3573d6000803e3d6000fd5b505050506040513d601f19601f82011682018060405250810190611307919061464a565b15156001146113285760405162461bcd60e51b81526004016107319061466c565b428210156113485760405162461bcd60e51b815260040161073190614697565b600085116113895760405162461bcd60e51b815260206004820152600e60248201526d0494e56414c49445f4d494e5f4c560941b6044820152606401610731565b600084116113a95760405162461bcd60e51b815260040161073190614a85565b600083116113f35760405162461bcd60e51b81526020600482015260176024820152761253959053125117d3505617d513d2d15397d253941555604a1b6044820152606401610731565b60006113fe60025490565b905080600003611781576006546040516323b872dd60e01b81526001600160a01b03909116906323b872dd9061143c90339030908a906004016147bf565b6020604051808303816000875af115801561145b573d6000803e3d6000fd5b505050506040513d601f19601f8201168201806040525081019061147f919061464a565b506007546040516323b872dd60e01b81526001600160a01b03909116906323b872dd906114b4903390309089906004016147bf565b6020604051808303816000875af11580156114d3573d6000803e3d6000fd5b505050506040513d601f19601f820116820180604052508101906114f7919061464a565b5061150185612317565b945060006115206103e8610920600d5489613db690919063ffffffff16565b9050600061153f6103e8610920600d5489613db690919063ffffffff16565b9050600061154d8884613dd5565b905061155883610c45565b600654600e5460405163a9059cbb60e01b81529295506001600160a01b039182169263a9059cbb9261159092169087906004016147e3565b6020604051808303816000875af11580156115af573d6000803e3d6000fd5b505050506040513d601f19601f820116820180604052508101906115d3919061464a565b50600754600e5460405163a9059cbb60e01b81526001600160a01b039283169263a9059cbb9261160a9291169086906004016147e3565b6020604051808303816000875af1158015611629573d6000803e3d6000fd5b505050506040513d601f19601f8201168201806040525081019061164d919061464a565b5061165833826142fd565b7f28e12afd967cc11b786f1b1547f5e0da96ccc91ebb09bdd406248111a634e7e533826116848b610c45565b6006546040516370a0823160e01b81523060048201528c916001600160a01b0316906370a0823190602401602060405180830381865afa1580156116cc573d6000803e3d6000fd5b505050506040513d601f19601f820116820180604052508101906116f091906146ee565b6007546040516370a0823160e01b81523060048201526001600160a01b03909116906370a0823190602401602060405180830381865afa158015611738573d6000803e3d6000fd5b505050506040513d601f19601f8201168201806040525081019061175c91906146ee565b60405161176e969594939291906147fc565b60405180910390a19350611bdb92505050565b61178a85612317565b9450600080611797613bdd565b909250905060006117c0826117ba856109206117b3828e6143bc565b8790613db6565b90613dd5565b905060006117df6103e8610920600d548c613db690919063ffffffff16565b905060006117fe6103e8610920600d5486613db690919063ffffffff16565b9050600061181a866109206118138e87613dd5565b8a90613db6565b90506000841161183c5760405162461bcd60e51b8152600401610731906146c1565b8984111561185c5760405162461bcd60e51b8152600401610731906146c1565b8b81101561189e5760405162461bcd60e51b815260206004820152600f60248201526e0494e56414c49445f4d494e545f4c5608c1b6044820152606401610731565b6118a78b610c45565b9a50600660009054906101000a90046001600160a01b03166001600160a01b03166323b872dd33308e6040518463ffffffff1660e01b81526004016118ee939291906147bf565b6020604051808303816000875af115801561190d573d6000803e3d6000fd5b505050506040513d601f19601f82011682018060405250810190611931919061464a565b506007546040516323b872dd60e01b81526001600160a01b03909116906323b872dd90611966903390309089906004016147bf565b6020604051808303816000875af1158015611985573d6000803e3d6000fd5b505050506040513d601f19601f820116820180604052508101906119a9919061464a565b506119b383610c45565b600654600e5460405163a9059cbb60e01b81529295506001600160a01b039182169263a9059cbb926119eb92169087906004016147e3565b6020604051808303816000875af1158015611a0a573d6000803e3d6000fd5b505050506040513d601f19601f82011682018060405250810190611a2e919061464a565b50600754600e5460405163a9059cbb60e01b81526001600160a01b039283169263a9059cbb92611a659291169086906004016147e3565b6020604051808303816000875af1158015611a84573d6000803e3d6000fd5b505050506040513d601f19601f82011682018060405250810190611aa8919061464a565b50611ab333826142fd565b6006546040516370a0823160e01b81523060048201527f28e12afd967cc11b786f1b1547f5e0da96ccc91ebb09bdd406248111a634e7e591339184918f9189916001600160a01b0316906370a0823190602401602060405180830381865afa158015611b23573d6000803e3d6000fd5b505050506040513d601f19601f82011682018060405250810190611b4791906146ee565b6007546040516370a0823160e01b81523060048201526001600160a01b03909116906370a0823190602401602060405180830381865afa158015611b8f573d6000803e3d6000fd5b505050506040513d601f19601f82011682018060405250810190611bb391906146ee565b604051611bc5969594939291906147fc565b60405180910390a19650611bdb95505050505050565b949350505050565b60008080611bef613bdd565b600c549193509150600090611c0e90620186a090610920908890613db6565b90506000611c1c8683613dd5565b90506000611c2b828686612d3a565b9050610d6781610c45565b6000806000611c4460025490565b905060008082600003611c5b575084905080611cbf565b600080611c66613bdd565b9092509050611c80826117ba836109206117b3828e6143bc565b92506000611c9f6103e8610920600d5487613db690919063ffffffff16565b9050611cb983610920611cb28785613dd5565b8990613db6565b94505050505b81611cc982610c45565b94509450505050915091565b6000806000611ce360025490565b905080841115611cf1578093505b600080611cfc613bdd565b90925090506000611d11846109208986613db6565b90506000611d23856109208a86613db6565b90506000611d426103e8610920600d5486613db690919063ffffffff16565b90506000611d616103e8610920600d5486613db690919063ffffffff16565b9050611d6d8483613dd5565b9350611d798382613dd5565b9250611d8484610c45565b9a92995091975050505050505050565b611d9c613f06565b6110e560006143c8565b333214611e3a57600954604051636c9b2a3f60e11b81523360048201526001600160a01b039091169063d936547e90602401602060405180830381865afa158015611df5573d6000803e3d6000fd5b505050506040513d601f19601f82011682018060405250810190611e19919061464a565b1515600114611e3a5760405162461bcd60e51b81526004016107319061466c565b611e42613d69565b42811015611e625760405162461bcd60e51b815260040161073190614697565b60008311611eac5760405162461bcd60e51b81526020600482015260176024820152761253959053125117d3505617d513d2d15397d253941555604a1b6044820152606401610731565b60008211611ef25760405162461bcd60e51b81526020600482015260136024820152721253959053125117d09054d157d3d555141555606a1b6044820152606401610731565b6006546040516370a0823160e01b81523060048201526001600160a01b03909116906370a0823190602401602060405180830381865afa158015611f3a573d6000803e3d6000fd5b505050506040513d601f19601f82011682018060405250810190611f5e91906146ee565b8210611f7c5760405162461bcd60e51b815260040161073190614777565b611f8582612317565b9150600080611f92613bdd565b9092509050818410611fb65760405162461bcd60e51b815260040161073190614733565b6000611fc3858484610f69565b90506000611fe3620186a0610920600c5485613db690919063ffffffff16565b9050611fef82826143bc565b9150868211156120115760405162461bcd60e51b815260040161073190614707565b600082116120315760405162461bcd60e51b8152600401610731906146c1565b6007546040516370a0823160e01b81523360048201526001600160a01b03909116906370a0823190602401602060405180830381865afa158015612079573d6000803e3d6000fd5b505050506040513d601f19601f8201168201806040525081019061209d91906146ee565b8211156120ec5760405162461bcd60e51b815260206004820152601f60248201527f544f4b454e5f494e5055545f4849474845525f555345525f42414c414e4345006044820152606401610731565b6007546040516323b872dd60e01b81526001600160a01b03909116906323b872dd90612120903390309087906004016147bf565b6020604051808303816000875af115801561213f573d6000803e3d6000fd5b505050506040513d601f19601f82011682018060405250810190612163919061464a565b5061216d86610c45565b60065460405163a9059cbb60e01b81529197506001600160a01b03169063a9059cbb906121a09033908a906004016147e3565b6020604051808303816000875af11580156121bf573d6000803e3d6000fd5b505050506040513d601f19601f820116820180604052508101906121e3919061464a565b5060075460085460405163a9059cbb60e01b81526001600160a01b039283169263a9059cbb9261221a9291169085906004016147e3565b6020604051808303816000875af1158015612239573d6000803e3d6000fd5b505050506040513d601f19601f8201168201806040525081019061225d919061464a565b50600854600754604051632054895360e21b81526001600160a01b039182166004820152336024820152911690638152254c90604401600060405180830381600087803b1580156122ad57600080fd5b505af11580156122c1573d6000803e3d6000fd5b505050507ff116a588cdba1b14c04ffd8bca7fee39286e7c8d9da59d77c036430e4b415dbc338884896122f389610c45565b88604051612306969594939291906147fc565b60405180910390a150505050505050565b6000610c60620f424061092084670de0b6b3a7640000613db6565b6000803332146123c957600954604051636c9b2a3f60e11b81523360048201526001600160a01b039091169063d936547e90602401602060405180830381865afa158015612384573d6000803e3d6000fd5b505050506040513d601f19601f820116820180604052508101906123a8919061464a565b15156001146123c95760405162461bcd60e51b81526004016107319061466c565b428310156123e95760405162461bcd60e51b815260040161073190614697565b6000861161242d5760405162461bcd60e51b81526020600482015260116024820152700494e56414c49445f414d4f554e545f4c5607c1b6044820152606401610731565b600085116124775760405162461bcd60e51b81526020600482015260176024820152761253959053125117d3525397d09054d157d3d555141555604a1b6044820152606401610731565b600084116124c25760405162461bcd60e51b81526020600482015260186024820152771253959053125117d3525397d513d2d15397d3d55514155560421b6044820152606401610731565b6124cb85612317565b945060006124d860025490565b33600090815260208190526040902054909150808811156124f7578097505b818811156125475760405162461bcd60e51b815260206004820152601e60248201527f494e56414c49445f414d4f554e545f4c505f544f54414c5f535550504c5900006044820152606401610731565b600080612552613bdd565b90925090506000612567856109208d86613db6565b90506000612579866109208e86613db6565b905060006125986103e8610920600d5486613db690919063ffffffff16565b905060006125b76103e8610920600d5486613db690919063ffffffff16565b90506125c38483613dd5565b93506125cf8382613dd5565b92508c8410156126175760405162461bcd60e51b81526020600482015260136024820152721253959053125117d09054d157d3d555141555606a1b6044820152606401610731565b8b83101561265e5760405162461bcd60e51b81526020600482015260146024820152731253959053125117d513d2d15397d3d55514155560621b6044820152606401610731565b858411156126ae5760405162461bcd60e51b815260206004820152601f60248201527f424153455f4f55545055545f4849474845525f424153455f42414c414e4345006044820152606401610731565b848311156127085760405162461bcd60e51b815260206004820152602160248201527f544f4b454e5f4f55545055545f4849474845525f544f4b454e5f42414c414e436044820152604560f81b6064820152608401610731565b612712338f6141d3565b61271b84610c45565b60065460405163a9059cbb60e01b81529195506001600160a01b03169063a9059cbb9061274e90339088906004016147e3565b6020604051808303816000875af115801561276d573d6000803e3d6000fd5b505050506040513d601f19601f82011682018060405250810190612791919061464a565b5060075460405163a9059cbb60e01b81526001600160a01b039091169063a9059cbb906127c490339087906004016147e3565b6020604051808303816000875af11580156127e3573d6000803e3d6000fd5b505050506040513d601f19601f82011682018060405250810190612807919061464a565b5061281182610c45565b600654600e5460405163a9059cbb60e01b81529294506001600160a01b039182169263a9059cbb9261284992169086906004016147e3565b6020604051808303816000875af1158015612868573d6000803e3d6000fd5b505050506040513d601f19601f8201168201806040525081019061288c919061464a565b50600754600e5460405163a9059cbb60e01b81526001600160a01b039283169263a9059cbb926128c39291169085906004016147e3565b6020604051808303816000875af11580156128e2573d6000803e3d6000fd5b505050506040513d601f19601f82011682018060405250810190612906919061464a565b507f555901717744791e9e27303c0df147d5a5eea5b7098591b2c5f2138ed6a605de338f8686600660009054906101000a90046001600160a01b03166001600160a01b03166370a08231306040518263ffffffff1660e01b815260040161297c91906001600160a01b0391909116815260200190565b602060405180830381865afa158015612999573d6000803e3d6000fd5b505050506040513d601f19601f820116820180604052508101906129bd91906146ee565b6007546040516370a0823160e01b81523060048201526001600160a01b03909116906370a0823190602401602060405180830381865afa158015612a05573d6000803e3d6000fd5b505050506040513d601f19601f82011682018060405250810190612a2991906146ee565b604051612a3b969594939291906147fc565b60405180910390a150919c909b509950505050505050505050565b612a61823383613f60565b612a6b82826141d3565b5050565b612a77613f06565b6110e561441a565b612a87613f06565b600e80546001600160a01b0319166001600160a01b0392909216919091179055565b606060048054610c759061482f565b60003381612ac68286613449565b905083811015612b265760405162461bcd60e51b815260206004820152602560248201527f45524332303a2064656372656173656420616c6c6f77616e63652062656c6f77604482015264207a65726f60d81b6064820152608401610731565b610f5e8286868403613de1565b600033610d06818585613fda565b612b49613f06565b600a5460405163109cc30b60e21b81526001600160a01b03909116906342730c2c90612b79903090600401614ad8565b602060405180830381865afa158015612b96573d6000803e3d6000fd5b505050506040513d601f19601f82011682018060405250810190612bba919061464a565b612bd65760405162461bcd60e51b8152600401610731906148aa565b600a54604051636bfb078d60e01b81526000916001600160a01b031690636bfb078d90612c07903090600401614afb565b602060405180830381865afa158015612c24573d6000803e3d6000fd5b505050506040513d601f19601f82011682018060405250810190612c489190614b4e565b90506001600160a01b038116612c925760405162461bcd60e51b815260206004820152600f60248201526e494e56414c49445f4144445245535360881b6044820152606401610731565b600980546001600160a01b0319166001600160a01b0383811691909117909155600a54604051636e977f0b60e01b8152911690636e977f0b90612cda90600190600401614b6b565b600060405180830381600087803b158015612cf457600080fd5b505af1158015612d08573d6000803e3d6000fd5b5050600a546040516345503fcb60e11b81526001600160a01b039091169250638aa07f969150610f1090600401614bad565b60008083118015612d4b5750600082115b612d875760405162461bcd60e51b815260206004820152600d60248201526c494e56414c49445f56414c554560981b6044820152606401610731565b600b546007546040516302c68be360e31b81526001600160a01b03918216600482015260009291909116906316345f1890602401602060405180830381865afa158015612dd8573d6000803e3d6000fd5b505050506040513d601f19601f82011682018060405250810190612dfc91906146ee565b600b546006546040516302c68be360e31b81526001600160a01b0391821660048201529293506000929116906316345f1890602401602060405180830381865afa158015612e4e573d6000803e3d6000fd5b505050506040513d601f19601f82011682018060405250810190612e7291906146ee565b90506000610d67836109208985613db6565b6000806000612e9260025490565b9050600080612ea086612317565b955082600003612eb4575084905080612f18565b600080612ebf613bdd565b9092509050612ee0816117ba84610920612ed9828e6143bc565b8690613db6565b92506000612eff6103e8610920600d548c613db690919063ffffffff16565b9050612f1283610920611cb28c85613dd5565b94505050505b909590945092505050565b333214612fb757600954604051636c9b2a3f60e11b81523360048201526001600160a01b039091169063d936547e90602401602060405180830381865afa158015612f72573d6000803e3d6000fd5b505050506040513d601f19601f82011682018060405250810190612f96919061464a565b1515600114612fb75760405162461bcd60e51b81526004016107319061466c565b612fbf613d69565b42811015612fdf5760405162461bcd60e51b815260040161073190614697565b600083116130285760405162461bcd60e51b81526020600482015260166024820152751253959053125117d3505617d09054d157d25394155560521b6044820152606401610731565b6000821161306f5760405162461bcd60e51b81526020600482015260146024820152731253959053125117d513d2d15397d3d55514155560621b6044820152606401610731565b6007546040516370a0823160e01b81523060048201526001600160a01b03909116906370a0823190602401602060405180830381865afa1580156130b7573d6000803e3d6000fd5b505050506040513d601f19601f820116820180604052508101906130db91906146ee565b82106130f95760405162461bcd60e51b815260040161073190614bbf565b61310283612317565b925060008061310f613bdd565b90925090508084106131335760405162461bcd60e51b815260040161073190614c08565b6000613140858484612d3a565b90506000613160620186a0610920600c5485613db690919063ffffffff16565b905061316c82826143bc565b91508682111561318e5760405162461bcd60e51b815260040161073190614707565b600082116131ae5760405162461bcd60e51b815260040161073190614a85565b6006546040516370a0823160e01b81523360048201526131e0916001600160a01b0316906370a08231906024016109b2565b82111561322f5760405162461bcd60e51b815260206004820152601e60248201527f424153455f494e5055545f4849474845525f555345525f42414c414e434500006044820152606401610731565b61323882610c45565b6006546040516323b872dd60e01b81529193506001600160a01b0316906323b872dd9061326d903390309087906004016147bf565b6020604051808303816000875af115801561328c573d6000803e3d6000fd5b505050506040513d601f19601f820116820180604052508101906132b0919061464a565b5060075460405163a9059cbb60e01b81526001600160a01b039091169063a9059cbb906132e39033908a906004016147e3565b6020604051808303816000875af1158015613302573d6000803e3d6000fd5b505050506040513d601f19601f82011682018060405250810190613326919061464a565b5061333081610c45565b60065460085460405163a9059cbb60e01b81529293506001600160a01b039182169263a9059cbb9261336892169085906004016147e3565b6020604051808303816000875af1158015613387573d6000803e3d6000fd5b505050506040513d601f19601f820116820180604052508101906133ab919061464a565b50600854600654604051632054895360e21b81526001600160a01b039182166004820152336024820152911690638152254c90604401600060405180830381600087803b1580156133fb57600080fd5b505af115801561340f573d6000803e3d6000fd5b505050507f6e9d5a0202c67970b52b10deb68f1641a9408d90db857bc984d008c1be70383a3361343e89610c45565b84896122f389610c45565b6001600160a01b03918216600090815260016020908152604080832093909416825291909152205490565b33321461350857600954604051636c9b2a3f60e11b81523360048201526001600160a01b039091169063d936547e90602401602060405180830381865afa1580156134c3573d6000803e3d6000fd5b505050506040513d601f19601f820116820180604052508101906134e7919061464a565b15156001146135085760405162461bcd60e51b81526004016107319061466c565b613510613d69565b428110156135305760405162461bcd60e51b815260040161073190614697565b600083116135505760405162461bcd60e51b815260040161073190614a85565b6000821161359b5760405162461bcd60e51b81526020600482015260186024820152771253959053125117d3525397d513d2d15397d3d55514155560421b6044820152606401610731565b6006546040516370a0823160e01b81523360048201526001600160a01b03909116906370a0823190602401602060405180830381865afa1580156135e3573d6000803e3d6000fd5b505050506040513d601f19601f8201168201806040525081019061360791906146ee565b8311156136565760405162461bcd60e51b815260206004820152601e60248201527f424153455f494e5055545f4849474845525f555345525f42414c414e434500006044820152606401610731565b61365f83612317565b925060008061366c613bdd565b90925090508084106136cc5760405162461bcd60e51b815260206004820152602360248201527f4d494e5f544f4b454e5f4849474845525f504f4f4c5f544f4b454e5f42414c416044820152624e434560e81b6064820152608401610731565b60006136ea620186a0610920600c5489613db690919063ffffffff16565b905060006136f88783613dd5565b90506000613707828686610f69565b9050868110156137295760405162461bcd60e51b815260040161073190614707565b8381106137485760405162461bcd60e51b815260040161073190614c08565b6007546040516370a0823160e01b81523060048201526001600160a01b03909116906370a0823190602401602060405180830381865afa158015613790573d6000803e3d6000fd5b505050506040513d601f19601f820116820180604052508101906137b491906146ee565b81106137d25760405162461bcd60e51b815260040161073190614bbf565b6137db88610c45565b6006546040516323b872dd60e01b81529199506001600160a01b0316906323b872dd9061381090339030908d906004016147bf565b6020604051808303816000875af115801561382f573d6000803e3d6000fd5b505050506040513d601f19601f82011682018060405250810190613853919061464a565b5060075460405163a9059cbb60e01b81526001600160a01b039091169063a9059cbb9061388690339085906004016147e3565b6020604051808303816000875af11580156138a5573d6000803e3d6000fd5b505050506040513d601f19601f820116820180604052508101906138c9919061464a565b506138d383610c45565b60065460085460405163a9059cbb60e01b81529295506001600160a01b039182169263a9059cbb9261390b92169087906004016147e3565b6020604051808303816000875af115801561392a573d6000803e3d6000fd5b505050506040513d601f19601f8201168201806040525081019061394e919061464a565b50600854600654604051632054895360e21b81526001600160a01b039182166004820152336024820152911690638152254c90604401600060405180830381600087803b15801561399e57600080fd5b505af11580156139b2573d6000803e3d6000fd5b505050507fd294be030e23d0862312f418541ec01d571908715169f1cb1109bba3212b8c2d33888a84610c208a610c45565b6139ec613f06565b600a5460405163109cc30b60e21b81526001600160a01b03909116906342730c2c90613a1c903090600401614c76565b602060405180830381865afa158015613a39573d6000803e3d6000fd5b505050506040513d601f19601f82011682018060405250810190613a5d919061464a565b613a795760405162461bcd60e51b8152600401610731906148aa565b600a54604051636bfb078d60e01b81526000916001600160a01b031690636bfb078d90613aaa903090600401614c99565b602060405180830381865afa158015613ac7573d6000803e3d6000fd5b505050506040513d601f19601f82011682018060405250810190613aeb9190614b4e565b90506001600160a01b038116613b355760405162461bcd60e51b815260206004820152600f60248201526e494e56414c49445f4144445245535360881b6044820152606401610731565b600880546001600160a01b0319166001600160a01b0383811691909117909155600a54604051636e977f0b60e01b8152911690636e977f0b90613b7d90600190600401614ced565b600060405180830381600087803b158015613b9757600080fd5b505af1158015613bab573d6000803e3d6000fd5b5050600a546040516345503fcb60e11b81526001600160a01b039091169250638aa07f969150610f1090600401614d30565b6006546040516370a0823160e01b8152306004820152600091829182916001600160a01b0316906370a0823190602401602060405180830381865afa158015613c2a573d6000803e3d6000fd5b505050506040513d601f19601f82011682018060405250810190613c4e91906146ee565b9050613c5981612317565b6007546040516370a0823160e01b81523060048201529192506000916001600160a01b03909116906370a0823190602401602060405180830381865afa158015613ca7573d6000803e3d6000fd5b505050506040513d601f19601f82011682018060405250810190613ccb91906146ee565b919491935090915050565b60008080613ce2613bdd565b90925090506000611bdb8284613db6565b613cfb613f06565b6001600160a01b038116613d605760405162461bcd60e51b815260206004820152602660248201527f4f776e61626c653a206e6577206f776e657220697320746865207a65726f206160448201526564647265737360d01b6064820152608401610731565b6110f1816143c8565b600554600160a01b900460ff16156110e55760405162461bcd60e51b815260206004820152601060248201526f14185d5cd8589b194e881c185d5cd95960821b6044820152606401610731565b6000613dc28284614d42565b9392505050565b6000613dc28284614d59565b6000613dc28284614d7b565b6001600160a01b038316613e435760405162461bcd60e51b8152602060048201526024808201527f45524332303a20617070726f76652066726f6d20746865207a65726f206164646044820152637265737360e01b6064820152608401610731565b6001600160a01b038216613ea45760405162461bcd60e51b815260206004820152602260248201527f45524332303a20617070726f766520746f20746865207a65726f206164647265604482015261737360f01b6064820152608401610731565b6001600160a01b0383811660008181526001602090815260408083209487168084529482529182902085905590518481527f8c5be1e5ebec7d5bd14f71427d1e84f3dd0314c0f7b2291e5b200ac8c7c3b92591015b60405180910390a3505050565b6005546001600160a01b031633146110e55760405162461bcd60e51b815260206004820181905260248201527f4f776e61626c653a2063616c6c6572206973206e6f7420746865206f776e65726044820152606401610731565b6000613f6c8484613449565b90506000198114613fd45781811015613fc75760405162461bcd60e51b815260206004820152601d60248201527f45524332303a20696e73756666696369656e7420616c6c6f77616e63650000006044820152606401610731565b613fd48484848403613de1565b50505050565b6001600160a01b03831661403e5760405162461bcd60e51b815260206004820152602560248201527f45524332303a207472616e736665722066726f6d20746865207a65726f206164604482015264647265737360d81b6064820152608401610731565b6001600160a01b0382166140a05760405162461bcd60e51b815260206004820152602360248201527f45524332303a207472616e7366657220746f20746865207a65726f206164647260448201526265737360e81b6064820152608401610731565b6001600160a01b038316600090815260208190526040902054818110156141185760405162461bcd60e51b815260206004820152602660248201527f45524332303a207472616e7366657220616d6f756e7420657863656564732062604482015265616c616e636560d01b6064820152608401610731565b6001600160a01b03848116600081815260208181526040808320878703905593871680835291849020805487019055925185815290927fddf252ad1be2c89b69c2b068fc378daa952ba7f163c4a11628f55a4df523b3ef910160405180910390a3613fd4565b61418661445d565b6005805460ff60a01b191690557f5db9ee0a495bf2e6ff9c91a7834c1ba4fdd244a5e8aa4e537bd38aeae4b073aa335b6040516001600160a01b03909116815260200160405180910390a1565b6001600160a01b0382166142335760405162461bcd60e51b815260206004820152602160248201527f45524332303a206275726e2066726f6d20746865207a65726f206164647265736044820152607360f81b6064820152608401610731565b6001600160a01b038216600090815260208190526040902054818110156142a75760405162461bcd60e51b815260206004820152602260248201527f45524332303a206275726e20616d6f756e7420657863656564732062616c616e604482015261636560f01b6064820152608401610731565b6001600160a01b0383166000818152602081815260408083208686039055600280548790039055518581529192917fddf252ad1be2c89b69c2b068fc378daa952ba7f163c4a11628f55a4df523b3ef9101613ef9565b6001600160a01b0382166143535760405162461bcd60e51b815260206004820152601f60248201527f45524332303a206d696e7420746f20746865207a65726f2061646472657373006044820152606401610731565b80600260008282546143659190614993565b90915550506001600160a01b038216600081815260208181526040808320805486019055518481527fddf252ad1be2c89b69c2b068fc378daa952ba7f163c4a11628f55a4df523b3ef910160405180910390a35050565b6000613dc28284614993565b600580546001600160a01b038381166001600160a01b0319831681179093556040519116919082907f8be0079c531659141344cd1fd0a4f28419497f9722a3daafe3b4186f6b6457e090600090a35050565b614422613d69565b6005805460ff60a01b1916600160a01b1790557f62e78cea01bee320cd4e420270b5ea74000d11b0c9f74754ebdbfc544b05a2586141b63390565b600554600160a01b900460ff166110e55760405162461bcd60e51b815260206004820152601460248201527314185d5cd8589b194e881b9bdd081c185d5cd95960621b6044820152606401610731565b6000806000606084860312156144c257600080fd5b505081359360208301359350604090920135919050565b6000602082840312156144eb57600080fd5b5035919050565b600060208083528351808285015260005b8181101561451f57858101830151858201604001528201614503565b506000604082860101526040601f19601f8301168501019250505092915050565b6001600160a01b03811681146110f157600080fd5b6000806040838503121561456857600080fd5b823561457381614540565b946020939093013593505050565b60008060006060848603121561459657600080fd5b83356145a181614540565b925060208401356145b181614540565b929592945050506040919091013590565b600080600080608085870312156145d857600080fd5b5050823594602084013594506040840135936060013592509050565b60006020828403121561460657600080fd5b8135613dc281614540565b6000806040838503121561462457600080fd5b823561462f81614540565b9150602083013561463f81614540565b809150509250929050565b60006020828403121561465c57600080fd5b81518015158114613dc257600080fd5b6020808252601190820152701253959053125117d5d2125511531254d5607a1b604082015260600190565b60208082526010908201526f494e56414c49445f444541444c494e4560801b604082015260600190565b6020808252601390820152721253959053125117d513d2d15397d253941555606a1b604082015260600190565b60006020828403121561470057600080fd5b5051919050565b60208082526012908201527143414e5f4e4f545f4d414b455f545241444560701b604082015260600190565b60208082526024908201527f424153455f4f55545055545f4849474845525f504f4f4c5f424153455f42414c604082015263414e434560e01b606082015260800190565b60208082526028908201527f424153455f4f55545055545f4849474845525f43555252454e545f54524144456040820152675f42414c414e434560c01b606082015260800190565b6001600160a01b039384168152919092166020820152604081019190915260600190565b6001600160a01b03929092168252602082015260400190565b6001600160a01b03969096168652602086019490945260408501929092526060840152608083015260a082015260c00190565b600181811c9082168061484357607f821691505b60208210810361486357634e487b7160e01b600052602260045260246000fd5b50919050565b600b81526a736574547261646546656560a81b602082015260400190565b6001600160a01b0382168152604060208201819052600090613dc2908301614869565b60208082526012908201527124a72b20a624a22fa822a926a4a9a9a4a7a760711b604082015260600190565b6001600160a01b03821681526060602082018190526000906148f9908301614869565b8281036040840152611bdb816008815267747261646546656560c01b602082015260400190565b60608152600061493260608301614869565b8281036020840152614959816008815267747261646546656560c01b602082015260400190565b91505060ff8316604083015292915050565b602081526000610c6060208301614869565b634e487b7160e01b600052601160045260246000fd5b80820180821115610c6057610c6061497d565b600e81526d736574506c6174666f726d46656560901b602082015260400190565b6001600160a01b0382168152604060208201819052600090613dc29083016149a6565b6001600160a01b0382168152606060208201819052600090614a0d9083016149a6565b8281036040840152611bdb81600b81526a706c6174666f726d46656560a81b602082015260400190565b606081526000614a49606083016149a6565b828103602084015261495981600b81526a706c6174666f726d46656560a81b602082015260400190565b602081526000610c60602083016149a6565b6020808252601290820152711253959053125117d09054d157d25394155560721b604082015260600190565b60148152731cd95d15da1a5d195b1a5cdd10dbdb9d1c9858dd60621b602082015260400190565b6001600160a01b0382168152604060208201819052600090613dc2908301614ab1565b6001600160a01b0382168152606060208201819052600090614b1e908301614ab1565b8281036040840152611bdb8160118152701dda1a5d195b1a5cdd10dbdb9d1c9858dd607a1b602082015260400190565b600060208284031215614b6057600080fd5b8151613dc281614540565b606081526000614b7d60608301614ab1565b82810360208401526149598160118152701dda1a5d195b1a5cdd10dbdb9d1c9858dd607a1b602082015260400190565b602081526000610c6060208301614ab1565b60208082526029908201527f544f4b454e5f4f55545055545f4849474845525f43555252454e545f54524144604082015268455f42414c414e434560b81b606082015260800190565b60208082526026908201527f544f4b454e5f4f55545055545f4849474845525f504f4f4c5f544f4b454e5f42604082015265414c414e434560d01b606082015260800190565b60158152741cd95d119959535858da1a5b9950dbdb9d1c9858dd605a1b602082015260400190565b6001600160a01b0382168152604060208201819052600090613dc2908301614c4e565b6001600160a01b0382168152606060208201819052600090614cbc908301614c4e565b8281036040840152611bdb816012815271199959535858da1a5b9950dbdb9d1c9858dd60721b602082015260400190565b606081526000614cff60608301614c4e565b8281036020840152614959816012815271199959535858da1a5b9950dbdb9d1c9858dd60721b602082015260400190565b602081526000610c6060208301614c4e565b8082028115828204841417610c6057610c6061497d565b600082614d7657634e487b7160e01b600052601260045260246000fd5b500490565b81810381811115610c6057610c6061497d56fea26469706673582212208cc02d7140f3acc99d03f650eab3a3e7d136c7393c7fe7f48e36183f6564600464736f6c63430008110033",
  "immutableReferences": {},
  "source": "// SPDX-License-Identifier: MIT\npragma solidity >=0.6.12;\n\nimport \"@openzeppelin/contracts/utils/math/SafeMath.sol\";\nimport \"@openzeppelin/contracts/token/ERC20/IERC20.sol\";\nimport \"@openzeppelin/contracts/token/ERC20/ERC20.sol\";\nimport \"@openzeppelin/contracts/token/ERC20/extensions/ERC20Burnable.sol\";\nimport \"@openzeppelin/contracts/utils/Context.sol\";\nimport \"@openzeppelin/contracts/access/Ownable.sol\";\nimport \"@openzeppelin/contracts/security/Pausable.sol\";\n\nimport './interfaces/IGarbiswapFeeMachine.sol';\nimport './interfaces/IGarbiswapWhitelist.sol';\nimport './interfaces/IGarbiTimeLock.sol';\nimport './interfaces/IGarbiOracle.sol';\n\ncontract GarbiswapTradeDAIUSDC is ERC20Burnable, Ownable, Pausable {\n    \n    using SafeMath for uint256;\n\n    IERC20 public base; // Stable coin base token (USDC)\n    IERC20 public token; // Token to trade in this pair\n\n    // Fee Machine Contract.\n    IGarbiswapFeeMachine public feeMachineContract; \n\n    IGarbiswapWhitelist public whitelistContract; \n\n    IGarbiTimeLock public garbiTimeLockContract;\n\n    IGarbiOracle public garbiOracle;\n\n    uint256 public TRADE_FEE = 10; //0.01% 35/100000\n\n    uint256 public PLATFORM_FEE = 25; //2.5% 25/1000\n\n    address public platformFundAddress;\n\n    modifier onlyWhitelist()\n    {\n        if (msg.sender != tx.origin) {\n            require(whitelistContract.whitelisted(msg.sender) == true, 'INVALID_WHITELIST');\n        }\n        _;\n    }\n\n    // Events\n\n    event onSwapBaseToTokenWithBaseInput(address sender, uint256 minTokenOutput, uint256 baseInputAmount, uint256 tokenOutputAmount, uint256 poolBaseBalance, uint256 poolTokenBalance);\n    event onSwapBaseToTokenWithTokenOutput(address sender, uint256 maxBaseInput, uint256 baseInputAmount, uint256 tokenOutputAmount, uint256 poolBaseBalance, uint256 poolTokenBalance);\n    \n    event onSwapTokenToBaseWithTokenInput(address sender, uint256 minBaseOutput, uint256 tokenInputAmount, uint256 baseOutputAmount, uint256 poolBaseBalance, uint256 poolTokenBalance);\n    event onSwapTokenToBaseWithBaseOutput(address sender, uint256 maxTokenInput, uint256 tokenInputAmount, uint256 baseOutputAmount, uint256 poolBaseBalance, uint256 poolTokenBalance);\n\n    event onAddLP(address sender, uint256 mintLP, uint256 baseInputAmount, uint256 tokenInputAmount, uint256 poolBaseBalance, uint256 poolTokenBalance);\n    event onRemoveLP(address sender, uint256 amountLP, uint256 baseOutputAmout, uint256 tokenOutputAmount, uint256 poolBaseBalance, uint256 poolTokenBalance);\n\n    constructor(\n        IERC20 _base,\n        IERC20 _token,\n        IGarbiTimeLock _garbiTimeLockContract,\n        IGarbiswapFeeMachine _feeMachineContract,\n        IGarbiswapWhitelist _whitelistContract,\n        IGarbiOracle _garbiOracle,\n        string memory name, \n        string memory symbol\n        ) ERC20(name, symbol) {\n        base = _base;\n        token = _token;\n        garbiTimeLockContract = _garbiTimeLockContract;\n        whitelistContract = _whitelistContract;\n        feeMachineContract = _feeMachineContract;\n        garbiOracle = _garbiOracle;\n        platformFundAddress = _msgSender();\n    }\n\n    function setWhitelistContract() public onlyOwner {\n        require(garbiTimeLockContract.isQueuedTransaction(address(this), 'setWhitelistContract'), \"INVALID_PERMISSION\");\n\n        address _whitelistContract = garbiTimeLockContract.getAddressChangeOnTimeLock(address(this), 'setWhitelistContract', 'whitelistContract');\n\n        require(_whitelistContract != address(0), \"INVALID_ADDRESS\");\n\n        whitelistContract = IGarbiswapWhitelist(_whitelistContract);\n\n        garbiTimeLockContract.clearFieldValue('setWhitelistContract', 'whitelistContract', 1);\n        garbiTimeLockContract.doneTransactions('setWhitelistContract');\n    }\n\n    function setFeeMachineContract() public onlyOwner {\n\n        require(garbiTimeLockContract.isQueuedTransaction(address(this), 'setFeeMachineContract'), \"INVALID_PERMISSION\");\n\n        address _feeMachineContract = garbiTimeLockContract.getAddressChangeOnTimeLock(address(this), 'setFeeMachineContract', 'feeMachineContract');\n\n        require(_feeMachineContract != address(0), \"INVALID_ADDRESS\");\n\n        feeMachineContract = IGarbiswapFeeMachine(_feeMachineContract);\n\n        garbiTimeLockContract.clearFieldValue('setFeeMachineContract', 'feeMachineContract', 1);\n        garbiTimeLockContract.doneTransactions('setFeeMachineContract');\n    }\n\n    function setTradeFee() public onlyOwner {\n\n        require(garbiTimeLockContract.isQueuedTransaction(address(this), 'setTradeFee'), \"INVALID_PERMISSION\");\n\n        uint256 _tradeFee = garbiTimeLockContract.getUintChangeOnTimeLock(address(this), 'setTradeFee', 'tradeFee');\n\n        TRADE_FEE = _tradeFee;\n\n        garbiTimeLockContract.clearFieldValue('setTradeFee', 'tradeFee', 2);\n        garbiTimeLockContract.doneTransactions('setTradeFee');\n    }\n\n    function setPlatformFee() public onlyOwner {\n\n        require(garbiTimeLockContract.isQueuedTransaction(address(this), 'setPlatformFee'), \"INVALID_PERMISSION\");\n\n        uint256 _platformFee = garbiTimeLockContract.getUintChangeOnTimeLock(address(this), 'setPlatformFee', 'platformFee');\n\n        PLATFORM_FEE = _platformFee;\n\n        garbiTimeLockContract.clearFieldValue('setPlatformFee', 'platformFee', 2);\n        garbiTimeLockContract.doneTransactions('setPlatformFee');\n    }\n\n    function setPlatformFundAdress(address newAddress) public onlyOwner {\n        platformFundAddress = newAddress;\n    }\n\n    function getK() public view returns(uint256) {\n        uint256 baseReserve = 0;\n        uint256 tokenReserve = 0;\n        (baseReserve, tokenReserve) = getTotalReserve();\n        uint256 k = tokenReserve.mul(baseReserve);\n        return k;\n    }\n\n    function getTokenOutput(uint256 baseInputAmount) public view returns (uint256) {\n        uint256 baseReserve = 0;\n        uint256 tokenReserve = 0;\n        (baseReserve, tokenReserve) = getTotalReserve();\n\n        baseInputAmount = convertDecimal6to18(baseInputAmount);\n\n        uint256 tradeFee = baseInputAmount.mul(TRADE_FEE).div(100000);\n        uint256 baseInputAmountAfterFee = baseInputAmount.sub(tradeFee); // cut the TRADE_FEE from base input\n\n        uint256 tokenOutputAmount = getTokenOutputAmountFromBaseInput(baseInputAmountAfterFee, baseReserve, tokenReserve);\n        return tokenOutputAmount;\n    }\n\n    function getBaseOutput(uint256 tokenInputAmount) public view returns (uint256) {\n        uint256 baseReserve = 0;\n        uint256 tokenReserve = 0;\n        (baseReserve, tokenReserve) = getTotalReserve();\n\n        uint256 tradeFee = tokenInputAmount.mul(TRADE_FEE).div(100000);\n        uint256 tokenInputAmountAfterFee = tokenInputAmount.sub(tradeFee); // cut the TRADE_FEE from token input\n\n        uint256 baseOutputAmount = getBaseOutputAmountFromTokenInput(tokenInputAmountAfterFee, baseReserve, tokenReserve);\n        baseOutputAmount = convertDecimal18to6(baseOutputAmount);\n        return baseOutputAmount;\n    }\n\n    function getDataFromBaseInputToAddLp(uint256 baseInputAmount) public view returns (uint256, uint256) {\n        uint256 totalSupply = totalSupply();\n        uint256 mintLP = 0;\n        uint256 tokenInputAmount = 0;\n        \n         baseInputAmount = convertDecimal6to18(baseInputAmount);\n\n        if(totalSupply == 0) {\n            mintLP = baseInputAmount;\n            tokenInputAmount = baseInputAmount;\n        }\n        else { \n            // tokenReserve/baseReserve = (tokenReserve+tokenInputAmount)/(baseReserve+baseInputAmount)\n            // => tokenReserve+tokenInputAmount = tokenReserve*(baseReserve+baseInputAmount)/baseReserve\n            // => tokenInputAmount = tokenReserve*(baseReserve+baseInputAmount)/baseReserve - tokenReserve;\n            uint256 baseReserve = 0;\n            uint256 tokenReserve = 0;\n            (baseReserve, tokenReserve) = getTotalReserve();\n            tokenInputAmount = tokenReserve.mul(baseReserve.add(baseInputAmount)).div(baseReserve).sub(tokenReserve);\n\n            uint256 platformFeeOnBase = baseInputAmount.mul(PLATFORM_FEE).div(1000);\n\n            // mintLP/totalLP =  baseInputAmount/baseReserve\n            // mintLP = totalLP*baseInputAmount/baseReserve\n            mintLP = totalSupply.mul(baseInputAmount.sub(platformFeeOnBase)).div(baseReserve);\n        }\n        return (mintLP, tokenInputAmount);\n    }\n\n    function getDataFromTokenInputToAddLp(uint256 tokenInputAmount) public view returns (uint256, uint256) {\n        uint256 totalSupply = totalSupply();\n        uint256 mintLP;\n        uint256 baseInputAmount;\n        if(totalSupply == 0) {\n            mintLP = tokenInputAmount;\n            baseInputAmount = tokenInputAmount;\n        }\n        else { \n            // tokenReserve/baseReserve = (tokenReserve+tokenInputAmount)/(baseReserve+baseInputAmount)\n            // => (baseReserve+baseInputAmount) = (tokenReserve+tokenInputAmount) * baseReserve / tokenReserve\n            //  => baseInputAmount = (tokenReserve+tokenInputAmount) * baseReserve / tokenReserve - baseReserve\n            uint256 baseReserve = 0;\n            uint256 tokenReserve = 0;\n            (baseReserve, tokenReserve) = getTotalReserve();\n\n            baseInputAmount = baseReserve.mul(tokenReserve.add(tokenInputAmount)).div(tokenReserve).sub(baseReserve);\n\n            uint256 platformFeeOnBase = baseInputAmount.mul(PLATFORM_FEE).div(1000);\n\n            // mintLP/totalLP =  baseInputAmount/baseReserve\n            // mintLP = totalLP*baseInputAmount/baseReserve\n            mintLP = totalSupply.mul(baseInputAmount.sub(platformFeeOnBase)).div(baseReserve);\n        }\n        return (mintLP, convertDecimal18to6(baseInputAmount));\n    }\n\n    function getDataToRemoveLP(uint256 amountLP) public view returns (uint256, uint256){\n        \n        uint256 totalSupply = totalSupply();\n\n        if (amountLP > totalSupply) {\n            amountLP = totalSupply;\n        } \n        uint256 baseReserve = 0;\n        uint256 tokenReserve = 0;\n        (baseReserve, tokenReserve) = getTotalReserve();\n        \n        // amountLP/totalSupply = baseOutputAmount/baseReserve\n        // => baseOutputAmount = amountLP*baseReserve/totalSupply\n        uint256 baseOutputAmount = amountLP.mul(baseReserve).div(totalSupply);\n        uint256 tokenOutputAmount = amountLP.mul(tokenReserve).div(totalSupply);\n        \n        uint256 platformFeeOnBase = baseOutputAmount.mul(PLATFORM_FEE).div(1000);\n        uint256 platformFeeOnToken = tokenOutputAmount.mul(PLATFORM_FEE).div(1000);\n        \n        baseOutputAmount = baseOutputAmount.sub(platformFeeOnBase);\n        tokenOutputAmount = tokenOutputAmount.sub(platformFeeOnToken);\n        \n        return (convertDecimal18to6(baseOutputAmount), tokenOutputAmount);\n    }\n    \n    //tokenOutputAmount/baseInputAmount = tokenPriceFromOracle/basePriceFromOracle\n    //tokenOutputAmount = baseInputAmount*tokenPriceFromOracle/basePriceFromOracle\n    function getTokenOutputAmountFromBaseInput(uint256 baseInputAmount, uint256 baseReserve, uint256 tokenReserve) public view returns (uint256) {\n      require(baseReserve > 0 && tokenReserve > 0, \"INVALID_VALUE\");\n      uint256 tokenPriceFromOracle = garbiOracle.getLatestPrice(address(token));\n      uint256 basePriceFromOracle = garbiOracle.getLatestPrice(address(base));\n      uint256 tokenOutputAmount = baseInputAmount.mul(tokenPriceFromOracle).div(basePriceFromOracle);\n      return tokenOutputAmount;\n    }\n    \n    //tokenOutputAmount/baseInputAmount = tokenPriceFromOracle/basePriceFromOracle\n    //baseInputAmount = tokenOutputAmount*basePriceFromOracle/tokenPriceFromOracle\n    function getBaseInputAmountFromTokenOutput(uint256 tokenOutputAmount, uint256 baseReserve, uint256 tokenReserve) public view  returns (uint256) {\n      require(baseReserve > 0 && tokenReserve > 0, \"INVALID_VALUE\");\n      uint256 tokenPriceFromOracle = garbiOracle.getLatestPrice(address(token));\n      uint256 basePriceFromOracle = garbiOracle.getLatestPrice(address(base));\n      uint256 baseInputAmount = tokenOutputAmount.mul(basePriceFromOracle).div(tokenPriceFromOracle);\n      return baseInputAmount;\n    }\n    \n    //tokenInputAmount/baseOutputAmount = tokenPriceFromOracle/basePriceFromOracle\n    //baseOutputAmount = tokenInputAmount*basePriceFromOracle/tokenPriceFromOracle\n    function getBaseOutputAmountFromTokenInput(uint256 tokenInputAmount, uint256 baseReserve, uint256 tokenReserve) public view returns (uint256) {\n      require(baseReserve > 0 && tokenReserve > 0, \"INVALID_VALUE\");\n      uint256 tokenPriceFromOracle = garbiOracle.getLatestPrice(address(token));\n      uint256 basePriceFromOracle = garbiOracle.getLatestPrice(address(base));\n      uint256 baseOutputAmount = tokenInputAmount.mul(basePriceFromOracle).div(tokenPriceFromOracle);\n      return baseOutputAmount;\n    }\n\n    //tokenInputAmount/baseOutputAmount = tokenPriceFromOracle/basePriceFromOracle\n    //tokenInputAmount = baseOutputAmount*tokenPriceFromOracle/basePriceFromOracle\n    function getTokenInputAmountFromBaseOutput(uint256 baseOutputAmount, uint256 baseReserve, uint256 tokenReserve) public view returns (uint256) {\n      require(baseReserve > 0 && tokenReserve > 0, \"INVALID_VALUE\");\n      uint256 tokenPriceFromOracle = garbiOracle.getLatestPrice(address(token));\n      uint256 basePriceFromOracle = garbiOracle.getLatestPrice(address(base));\n      uint256 tokenInputAmount = baseOutputAmount.mul(tokenPriceFromOracle).div(basePriceFromOracle);\n      return tokenInputAmount;\n    }\n\n    function swapBaseToTokenWithBaseInput(uint256 baseInputAmount, uint256 minTokenOutput, uint256 deadline) public onlyWhitelist whenNotPaused{\n        require(deadline >= block.timestamp, 'INVALID_DEADLINE');\n        require(baseInputAmount > 0, 'INVALID_BASE_INPUT');\n        require(minTokenOutput > 0, 'INVALID_MIN_TOKEN_OUTPUT');\n        require(baseInputAmount <= base.balanceOf(msg.sender), 'BASE_INPUT_HIGHER_USER_BALANCE');\n        \n        baseInputAmount = convertDecimal6to18(baseInputAmount);\n\n        uint256 baseReserve = 0;\n        uint256 tokenReserve = 0;\n        (baseReserve, tokenReserve) = getTotalReserve();\n        require(minTokenOutput < tokenReserve, \"MIN_TOKEN_HIGHER_POOL_TOKEN_BALANCE\");\n        \n        uint256 tradeFee = baseInputAmount.mul(TRADE_FEE).div(100000);\n        uint256 baseInputAmountAfterFee = baseInputAmount.sub(tradeFee); // cut the TRADE_FEE from base input\n        \n        uint256 tokenOutputAmount = getTokenOutputAmountFromBaseInput(baseInputAmountAfterFee, baseReserve, tokenReserve);\n\n        require(tokenOutputAmount >= minTokenOutput, 'CAN_NOT_MAKE_TRADE');\n        require(tokenOutputAmount < tokenReserve, 'TOKEN_OUTPUT_HIGHER_POOL_TOKEN_BALANCE');\n        require(tokenOutputAmount < token.balanceOf(address(this)), 'TOKEN_OUTPUT_HIGHER_CURRENT_TRADE_BALANCE'); // output is higher than the trade contract balance\n        \n        //make trade\n        baseInputAmount = convertDecimal18to6(baseInputAmount);\n        base.transferFrom(msg.sender, address(this), baseInputAmount);\n\n        token.transfer(msg.sender, tokenOutputAmount);\n\n        //transfer fee\n        tradeFee = convertDecimal18to6(tradeFee);\n        base.transfer(address(feeMachineContract), tradeFee);\n        feeMachineContract.processTradeFee(base, msg.sender); \n\n        emit onSwapBaseToTokenWithBaseInput(msg.sender, minTokenOutput, baseInputAmount, tokenOutputAmount, convertDecimal18to6(baseReserve), tokenReserve);\n    }\n\n    function swapBaseToTokenWithTokenOutput(uint256 maxBaseInput, uint256 tokenOutputAmount, uint256 deadline) public onlyWhitelist whenNotPaused{\n        require(deadline >= block.timestamp, 'INVALID_DEADLINE');\n        require(maxBaseInput > 0, 'INVALID_MAX_BASE_INPUT');\n        require(tokenOutputAmount > 0, 'INVALID_TOKEN_OUTPUT');\n        require(tokenOutputAmount < token.balanceOf(address(this)), 'TOKEN_OUTPUT_HIGHER_CURRENT_TRADE_BALANCE'); // output is higher than the trade contract balance\n        \n        maxBaseInput = convertDecimal6to18(maxBaseInput);\n\n        uint256 baseReserve = 0;\n        uint256 tokenReserve = 0;\n        (baseReserve, tokenReserve) = getTotalReserve();\n        require(tokenOutputAmount < tokenReserve, \"TOKEN_OUTPUT_HIGHER_POOL_TOKEN_BALANCE\");\n\n        uint256 baseInputAmount = getBaseInputAmountFromTokenOutput(tokenOutputAmount, baseReserve, tokenReserve);\n        \n        uint256 tradeFee = baseInputAmount.mul(TRADE_FEE).div(100000);\n        baseInputAmount = baseInputAmount.add(tradeFee); // add the TRADE_FEE to base input\n\n        require(baseInputAmount <= maxBaseInput, 'CAN_NOT_MAKE_TRADE');\n        require(baseInputAmount > 0, 'INVALID_BASE_INPUT');\n        require(baseInputAmount <= convertDecimal6to18(base.balanceOf(msg.sender)), 'BASE_INPUT_HIGHER_USER_BALANCE');\n        \n        //make trade\n        baseInputAmount = convertDecimal18to6(baseInputAmount);\n        base.transferFrom(msg.sender, address(this), baseInputAmount);\n\n        token.transfer(msg.sender, tokenOutputAmount);\n\n        //transfer fee\n        tradeFee = convertDecimal18to6(tradeFee);\n        base.transfer(address(feeMachineContract), tradeFee);\n        feeMachineContract.processTradeFee(base, msg.sender);\n\n        emit onSwapBaseToTokenWithTokenOutput(msg.sender, convertDecimal18to6(maxBaseInput), baseInputAmount, tokenOutputAmount, convertDecimal18to6(baseReserve), tokenReserve);\n    }\n\n    function swapTokenToBaseWithTokenInput(uint256 tokenInputAmount, uint256 minBaseOutput, uint256 deadline) public onlyWhitelist whenNotPaused{\n        require(deadline >= block.timestamp, 'INVALID_DEADLINE');\n        require(minBaseOutput > 0, 'INVALID_MIN_BASE_OUTPUT');\n        require(tokenInputAmount > 0, 'INVALID_TOKEN_INPUT');\n        require(tokenInputAmount <= token.balanceOf(msg.sender), 'TOKEN_INPUT_HIGHER_USER_BALANCE');\n\n        minBaseOutput = convertDecimal6to18(minBaseOutput);\n\n        uint256 baseReserve = 0;\n        uint256 tokenReserve = 0;\n        (baseReserve, tokenReserve) = getTotalReserve();\n        require(minBaseOutput < baseReserve, 'MIN_BASE_OUTPUT_HIGHER_POOL_BASE_BALANCE');\n\n        uint256 tradeFee = tokenInputAmount.mul(TRADE_FEE).div(100000);\n        uint256 tokenInputAmountAfterFee = tokenInputAmount.sub(tradeFee); // cut the TRADE_FEE from token input\n        \n        uint256 baseOutputAmount = getBaseOutputAmountFromTokenInput(tokenInputAmountAfterFee, baseReserve, tokenReserve);\n\n        require(baseOutputAmount >= minBaseOutput, 'CAN_NOT_MAKE_TRADE');\n        require(baseOutputAmount < baseReserve, 'BASE_OUTPUT_HIGHER_POOL_BASE_BALANCE');\n        require(baseOutputAmount < convertDecimal6to18(base.balanceOf(address(this))), 'BASE_OUTPUT_HIGHER_CURRENT_TRADE_BALANCE'); // output is higher than the trade contract balance\n\n        //make trade\n        token.transferFrom(msg.sender, address(this), tokenInputAmount);\n\n        baseOutputAmount = convertDecimal18to6(baseOutputAmount);\n        base.transfer(msg.sender, baseOutputAmount);\n\n        //transfer fee\n        token.transfer(address(feeMachineContract), tradeFee);\n        feeMachineContract.processTradeFee(token, msg.sender);\n\n        emit onSwapTokenToBaseWithTokenInput(msg.sender, convertDecimal18to6(minBaseOutput), tokenInputAmount, baseOutputAmount, convertDecimal18to6(baseReserve), tokenReserve);\n    }\n\n    function swapTokenToBaseWithBaseOutput(uint256 maxTokenInput, uint256 baseOutputAmount, uint256 deadline) public onlyWhitelist whenNotPaused{\n        require(deadline >= block.timestamp, 'INVALID_DEADLINE');\n        require(maxTokenInput > 0, 'INVALID_MAX_TOKEN_INPUT');\n        require(baseOutputAmount > 0, 'INVALID_BASE_OUTPUT');\n        require(baseOutputAmount < base.balanceOf(address(this)), 'BASE_OUTPUT_HIGHER_CURRENT_TRADE_BALANCE'); // output is higher than the trade contract balance\n        \n        baseOutputAmount = convertDecimal6to18(baseOutputAmount);\n\n        uint256 baseReserve = 0;\n        uint256 tokenReserve = 0;\n        (baseReserve, tokenReserve) = getTotalReserve();\n        require(baseOutputAmount < baseReserve, 'BASE_OUTPUT_HIGHER_POOL_BASE_BALANCE');\n\n        uint256 tokenInputAmount = getTokenInputAmountFromBaseOutput(baseOutputAmount, baseReserve, tokenReserve);\n        \n        uint256 tradeFee = tokenInputAmount.mul(TRADE_FEE).div(100000);\n        tokenInputAmount = tokenInputAmount.add(tradeFee); // add the TRADE_FEE to token input\n\n        require(tokenInputAmount <= maxTokenInput, 'CAN_NOT_MAKE_TRADE');\n        require(tokenInputAmount > 0, 'INVALID_TOKEN_INPUT');\n        require(tokenInputAmount <= token.balanceOf(msg.sender), 'TOKEN_INPUT_HIGHER_USER_BALANCE');\n\n        //make trade\n        token.transferFrom(msg.sender, address(this), tokenInputAmount);\n        \n        baseOutputAmount = convertDecimal18to6(baseOutputAmount);\n        base.transfer(msg.sender, baseOutputAmount);\n\n        //transfer fee\n        token.transfer(address(feeMachineContract), tradeFee);\n        feeMachineContract.processTradeFee(token, msg.sender);\n\n        emit onSwapTokenToBaseWithBaseOutput(msg.sender, maxTokenInput, tokenInputAmount, baseOutputAmount, convertDecimal18to6(baseReserve), tokenReserve);\n    }\n\n    function addLP(uint256 minLP, uint256 baseInputAmount, uint256 maxTokenInputAmount, uint256 deadline) public onlyWhitelist returns (uint256) {\n        require(deadline >= block.timestamp, 'INVALID_DEADLINE');\n        require(minLP > 0, 'INVALID_MIN_LP');\n        require(baseInputAmount > 0, 'INVALID_BASE_INPUT');\n        require(maxTokenInputAmount > 0, 'INVALID_MAX_TOKEN_INPUT');\n        \n        uint256 totalSupply = totalSupply();\n        if(totalSupply == 0) {\n            base.transferFrom(msg.sender, address(this), baseInputAmount);\n            token.transferFrom(msg.sender, address(this), maxTokenInputAmount);\n\n            baseInputAmount = convertDecimal6to18(baseInputAmount);\n\n            uint256 platformFeeOnBase = baseInputAmount.mul(PLATFORM_FEE).div(1000);\n            uint256 platformFeeOnToken = maxTokenInputAmount.mul(PLATFORM_FEE).div(1000);\n            \n            uint256 initLP = baseInputAmount.sub(platformFeeOnBase);\n\n            platformFeeOnBase = convertDecimal18to6(platformFeeOnBase);\n            base.transfer(platformFundAddress, platformFeeOnBase);\n            token.transfer(platformFundAddress, platformFeeOnToken);\n            \n            _mint(msg.sender, initLP);\n            emit onAddLP(msg.sender, initLP, convertDecimal18to6(baseInputAmount), maxTokenInputAmount, base.balanceOf(address(this)), token.balanceOf(address(this)));\n            return initLP;\n        }\n        else {\n            baseInputAmount = convertDecimal6to18(baseInputAmount);\n            // tokenReserve/baseReserve = (tokenReserve+tokenInputAmount)/(baseReserve+baseInputAmount)\n            // => tokenReserve+tokenInputAmount = tokenReserve*(baseReserve+baseInputAmount)/baseReserve\n            // => tokenInputAmount = tokenReserve*(baseReserve+baseInputAmount)/baseReserve - tokenReserve;\n            uint256 baseReserve = 0;\n            uint256 tokenReserve = 0;\n            (baseReserve, tokenReserve) = getTotalReserve();\n            uint256 tokenInputAmount = tokenReserve.mul(baseReserve.add(baseInputAmount)).div(baseReserve).sub(tokenReserve);\n\n            uint256 platformFeeOnBase = baseInputAmount.mul(PLATFORM_FEE).div(1000);\n            uint256 platformFeeOnToken = tokenInputAmount.mul(PLATFORM_FEE).div(1000);\n\n            // mintLP/totalLP =  baseInputAmount/baseReserve\n            // mintLP = totalLP*baseInputAmount/baseReserve\n            uint256 mintLP = totalSupply.mul(baseInputAmount.sub(platformFeeOnBase)).div(baseReserve);\n            \n            require(tokenInputAmount > 0, 'INVALID_TOKEN_INPUT');\n            require(tokenInputAmount <= maxTokenInputAmount, 'INVALID_TOKEN_INPUT');\n            require(mintLP >= minLP, \"INVALID_MINT_LP\");\n            \n            baseInputAmount = convertDecimal18to6(baseInputAmount);\n            base.transferFrom(msg.sender, address(this), baseInputAmount);\n            token.transferFrom(msg.sender, address(this), tokenInputAmount);\n\n            platformFeeOnBase = convertDecimal18to6(platformFeeOnBase);\n            base.transfer(platformFundAddress, platformFeeOnBase);\n            token.transfer(platformFundAddress, platformFeeOnToken);\n\n            _mint(msg.sender, mintLP);\n            emit onAddLP(msg.sender, mintLP, baseInputAmount, tokenInputAmount, base.balanceOf(address(this)), token.balanceOf(address(this)));\n            return mintLP;\n        }\n    }\n\n    function removeLP(uint256 amountLP, uint256 minBaseOutput, uint256 minTokenOutput, uint256 deadline) public onlyWhitelist returns (uint256, uint256){\n        require(deadline >= block.timestamp, 'INVALID_DEADLINE');\n        require(amountLP > 0, 'INVALID_AMOUNT_LP');\n        require(minBaseOutput > 0, 'INVALID_MIN_BASE_OUTPUT');\n        require(minTokenOutput > 0, 'INVALID_MIN_TOKEN_OUTPUT');\n        \n        minBaseOutput = convertDecimal6to18(minBaseOutput);\n\n        uint256 totalSupply = totalSupply();\n        \n        uint256 userLPbalance = balanceOf(msg.sender);\n        if(amountLP > userLPbalance) {\n            amountLP = userLPbalance;\n        }\n\n        require(amountLP <= totalSupply, 'INVALID_AMOUNT_LP_TOTAL_SUPPLY');\n         \n        uint256 baseReserve = 0;\n        uint256 tokenReserve = 0;\n        (baseReserve, tokenReserve) = getTotalReserve();\n        \n        // amountLP/totalSupply = baseOutputAmount/baseReserve\n        // => baseOutputAmount = amountLP*baseReserve/totalSupply\n        uint256 baseOutputAmount = amountLP.mul(baseReserve).div(totalSupply);\n        uint256 tokenOutputAmount = amountLP.mul(tokenReserve).div(totalSupply);\n\n        uint256 platformFeeOnBase = baseOutputAmount.mul(PLATFORM_FEE).div(1000);\n        uint256 platformFeeOnToken = tokenOutputAmount.mul(PLATFORM_FEE).div(1000);\n        \n        baseOutputAmount = baseOutputAmount.sub(platformFeeOnBase);\n        tokenOutputAmount = tokenOutputAmount.sub(platformFeeOnToken);\n\n        require(baseOutputAmount >= minBaseOutput, \"INVALID_BASE_OUTPUT\");\n        require(tokenOutputAmount >= minTokenOutput, \"INVALID_TOKEN_OUTPUT\");\n        require(baseOutputAmount <= baseReserve, \"BASE_OUTPUT_HIGHER_BASE_BALANCE\");\n        require(tokenOutputAmount <= tokenReserve, \"TOKEN_OUTPUT_HIGHER_TOKEN_BALANCE\");\n\n        _burn(msg.sender, amountLP);\n        \n        baseOutputAmount = convertDecimal18to6(baseOutputAmount);\n        base.transfer(msg.sender, baseOutputAmount);\n\n        token.transfer(msg.sender, tokenOutputAmount);\n\n        platformFeeOnBase = convertDecimal18to6(platformFeeOnBase);\n        base.transfer(platformFundAddress, platformFeeOnBase);\n\n        token.transfer(platformFundAddress, platformFeeOnToken);\n\n        emit onRemoveLP(msg.sender, amountLP, baseOutputAmount, tokenOutputAmount, base.balanceOf(address(this)), token.balanceOf(address(this)));\n        return (baseOutputAmount, tokenOutputAmount);\n    }\n\n    function getTotalReserve() public view returns (uint256, uint256) { \n        uint256 baseReserve = base.balanceOf(address(this));\n        baseReserve = convertDecimal6to18(baseReserve);\n\n        uint256 tokenReserve = token.balanceOf(address(this));\n\n        return (baseReserve, tokenReserve);\n    }\n\n    function convertDecimal6to18(uint256 number) public pure returns (uint256) { \n        number = number.mul(1e18).div(1e6);\n        return number;\n    }\n\n    function convertDecimal18to6(uint256 number) public pure returns (uint256) { \n        number = number.mul(1e6).div(1e18);\n        return number;\n    }\n\n    function pause() public onlyOwner {\n        _pause();\n    }\n    \n    function unpause() public onlyOwner {\n        _unpause();\n    }\n}",
  "sourcePath": "/Applications/projects/garbiprotocol.github.io/garbi_contracts/contracts/GarbiswapTradeDAIUSDC.sol",
  "compiler": {
    "name": "solc",
    "version": "0.8.17+commit.8df45f5f.Emscripten.clang"
  },
  "schemaVersion": "3.4.11",
  "updatedAt": "2023-01-17T03:27:24.180Z",
  "networkType": "ethereum",
  "devdoc": {
    "kind": "dev",
    "methods": {
      "allowance(address,address)": {
        "details": "See {IERC20-allowance}."
      },
      "approve(address,uint256)": {
        "details": "See {IERC20-approve}. NOTE: If `amount` is the maximum `uint256`, the allowance is not updated on `transferFrom`. This is semantically equivalent to an infinite approval. Requirements: - `spender` cannot be the zero address."
      },
      "balanceOf(address)": {
        "details": "See {IERC20-balanceOf}."
      },
      "burn(uint256)": {
        "details": "Destroys `amount` tokens from the caller. See {ERC20-_burn}."
      },
      "burnFrom(address,uint256)": {
        "details": "Destroys `amount` tokens from `account`, deducting from the caller's allowance. See {ERC20-_burn} and {ERC20-allowance}. Requirements: - the caller must have allowance for ``accounts``'s tokens of at least `amount`."
      },
      "decimals()": {
        "details": "Returns the number of decimals used to get its user representation. For example, if `decimals` equals `2`, a balance of `505` tokens should be displayed to a user as `5.05` (`505 / 10 ** 2`). Tokens usually opt for a value of 18, imitating the relationship between Ether and Wei. This is the value {ERC20} uses, unless this function is overridden; NOTE: This information is only used for _display_ purposes: it in no way affects any of the arithmetic of the contract, including {IERC20-balanceOf} and {IERC20-transfer}."
      },
      "decreaseAllowance(address,uint256)": {
        "details": "Atomically decreases the allowance granted to `spender` by the caller. This is an alternative to {approve} that can be used as a mitigation for problems described in {IERC20-approve}. Emits an {Approval} event indicating the updated allowance. Requirements: - `spender` cannot be the zero address. - `spender` must have allowance for the caller of at least `subtractedValue`."
      },
      "increaseAllowance(address,uint256)": {
        "details": "Atomically increases the allowance granted to `spender` by the caller. This is an alternative to {approve} that can be used as a mitigation for problems described in {IERC20-approve}. Emits an {Approval} event indicating the updated allowance. Requirements: - `spender` cannot be the zero address."
      },
      "name()": {
        "details": "Returns the name of the token."
      },
      "owner()": {
        "details": "Returns the address of the current owner."
      },
      "paused()": {
        "details": "Returns true if the contract is paused, and false otherwise."
      },
      "renounceOwnership()": {
        "details": "Leaves the contract without owner. It will not be possible to call `onlyOwner` functions anymore. Can only be called by the current owner. NOTE: Renouncing ownership will leave the contract without an owner, thereby removing any functionality that is only available to the owner."
      },
      "symbol()": {
        "details": "Returns the symbol of the token, usually a shorter version of the name."
      },
      "totalSupply()": {
        "details": "See {IERC20-totalSupply}."
      },
      "transfer(address,uint256)": {
        "details": "See {IERC20-transfer}. Requirements: - `to` cannot be the zero address. - the caller must have a balance of at least `amount`."
      },
      "transferFrom(address,address,uint256)": {
        "details": "See {IERC20-transferFrom}. Emits an {Approval} event indicating the updated allowance. This is not required by the EIP. See the note at the beginning of {ERC20}. NOTE: Does not update the allowance if the current allowance is the maximum `uint256`. Requirements: - `from` and `to` cannot be the zero address. - `from` must have a balance of at least `amount`. - the caller must have allowance for ``from``'s tokens of at least `amount`."
      },
      "transferOwnership(address)": {
        "details": "Transfers ownership of the contract to a new account (`newOwner`). Can only be called by the current owner."
      }
    },
    "version": 1
  },
  "userdoc": {
    "kind": "user",
    "methods": {},
    "version": 1
  }
}