{
  "contractName": "GarbiTimeLock",
  "abi": [
    {
      "anonymous": false,
      "inputs": [
        {
          "indexed": true,
          "internalType": "address",
          "name": "previousOwner",
          "type": "address"
        },
        {
          "indexed": true,
          "internalType": "address",
          "name": "newOwner",
          "type": "address"
        }
      ],
      "name": "OwnershipTransferred",
      "type": "event"
    },
    {
      "anonymous": false,
      "inputs": [
        {
          "indexed": false,
          "internalType": "address",
          "name": "_contractCall",
          "type": "address"
        },
        {
          "indexed": false,
          "internalType": "string",
          "name": "_functionName",
          "type": "string"
        }
      ],
      "name": "onCancelTransactions",
      "type": "event"
    },
    {
      "anonymous": false,
      "inputs": [
        {
          "indexed": false,
          "internalType": "address",
          "name": "_contractCall",
          "type": "address"
        },
        {
          "indexed": false,
          "internalType": "string",
          "name": "_functionName",
          "type": "string"
        },
        {
          "indexed": false,
          "internalType": "string",
          "name": "_fieldName",
          "type": "string"
        },
        {
          "indexed": false,
          "internalType": "address",
          "name": "_value",
          "type": "address"
        }
      ],
      "name": "onQueuedTransactionsChangeAddress",
      "type": "event"
    },
    {
      "anonymous": false,
      "inputs": [
        {
          "indexed": false,
          "internalType": "address",
          "name": "_contractCall",
          "type": "address"
        },
        {
          "indexed": false,
          "internalType": "string",
          "name": "_functionName",
          "type": "string"
        },
        {
          "indexed": false,
          "internalType": "string",
          "name": "_fieldName",
          "type": "string"
        },
        {
          "indexed": false,
          "internalType": "uint256",
          "name": "_value",
          "type": "uint256"
        }
      ],
      "name": "onQueuedTransactionsChangeUint",
      "type": "event"
    },
    {
      "inputs": [],
      "name": "GRACE_PERIOD",
      "outputs": [
        {
          "internalType": "uint256",
          "name": "",
          "type": "uint256"
        }
      ],
      "stateMutability": "view",
      "type": "function"
    },
    {
      "inputs": [],
      "name": "MAXIMUM_DELAY",
      "outputs": [
        {
          "internalType": "uint256",
          "name": "",
          "type": "uint256"
        }
      ],
      "stateMutability": "view",
      "type": "function"
    },
    {
      "inputs": [],
      "name": "MINIMUM_DELAY",
      "outputs": [
        {
          "internalType": "uint256",
          "name": "",
          "type": "uint256"
        }
      ],
      "stateMutability": "view",
      "type": "function"
    },
    {
      "inputs": [],
      "name": "delay",
      "outputs": [
        {
          "internalType": "uint256",
          "name": "",
          "type": "uint256"
        }
      ],
      "stateMutability": "view",
      "type": "function"
    },
    {
      "inputs": [],
      "name": "owner",
      "outputs": [
        {
          "internalType": "address",
          "name": "",
          "type": "address"
        }
      ],
      "stateMutability": "view",
      "type": "function"
    },
    {
      "inputs": [],
      "name": "renounceOwnership",
      "outputs": [],
      "stateMutability": "nonpayable",
      "type": "function"
    },
    {
      "inputs": [
        {
          "internalType": "address",
          "name": "",
          "type": "address"
        },
        {
          "internalType": "bytes32",
          "name": "",
          "type": "bytes32"
        }
      ],
      "name": "timeLockOf",
      "outputs": [
        {
          "internalType": "bool",
          "name": "queuedTransactions",
          "type": "bool"
        },
        {
          "internalType": "uint256",
          "name": "timeOfExecute",
          "type": "uint256"
        }
      ],
      "stateMutability": "view",
      "type": "function"
    },
    {
      "inputs": [
        {
          "internalType": "address",
          "name": "newOwner",
          "type": "address"
        }
      ],
      "name": "transferOwnership",
      "outputs": [],
      "stateMutability": "nonpayable",
      "type": "function"
    },
    {
      "inputs": [
        {
          "internalType": "uint256",
          "name": "delay_",
          "type": "uint256"
        }
      ],
      "name": "setDelay",
      "outputs": [],
      "stateMutability": "nonpayable",
      "type": "function"
    },
    {
      "inputs": [
        {
          "internalType": "address",
          "name": "_contractCall",
          "type": "address"
        },
        {
          "internalType": "string",
          "name": "_functionName",
          "type": "string"
        }
      ],
      "name": "cancelTransactions",
      "outputs": [],
      "stateMutability": "nonpayable",
      "type": "function"
    },
    {
      "inputs": [
        {
          "internalType": "address",
          "name": "_contractCall",
          "type": "address"
        },
        {
          "internalType": "string",
          "name": "_functionName",
          "type": "string"
        },
        {
          "internalType": "string",
          "name": "_fieldName",
          "type": "string"
        },
        {
          "internalType": "address",
          "name": "_newAddr",
          "type": "address"
        }
      ],
      "name": "queuedTransactionsChangeAddress",
      "outputs": [],
      "stateMutability": "nonpayable",
      "type": "function"
    },
    {
      "inputs": [
        {
          "internalType": "address",
          "name": "_contractCall",
          "type": "address"
        },
        {
          "internalType": "string",
          "name": "_functionName",
          "type": "string"
        },
        {
          "internalType": "string",
          "name": "_fieldName",
          "type": "string"
        },
        {
          "internalType": "uint256",
          "name": "_value",
          "type": "uint256"
        }
      ],
      "name": "queuedTransactionsChangeUint",
      "outputs": [],
      "stateMutability": "nonpayable",
      "type": "function"
    },
    {
      "inputs": [
        {
          "internalType": "string",
          "name": "_functionName",
          "type": "string"
        }
      ],
      "name": "doneTransactions",
      "outputs": [],
      "stateMutability": "nonpayable",
      "type": "function"
    },
    {
      "inputs": [
        {
          "internalType": "string",
          "name": "_functionName",
          "type": "string"
        },
        {
          "internalType": "string",
          "name": "_fieldName",
          "type": "string"
        },
        {
          "internalType": "uint8",
          "name": "_typeOfField",
          "type": "uint8"
        }
      ],
      "name": "clearFieldValue",
      "outputs": [],
      "stateMutability": "nonpayable",
      "type": "function"
    },
    {
      "inputs": [
        {
          "internalType": "address",
          "name": "_contractCall",
          "type": "address"
        },
        {
          "internalType": "string",
          "name": "_functionName",
          "type": "string"
        },
        {
          "internalType": "string",
          "name": "_fieldName",
          "type": "string"
        }
      ],
      "name": "getAddressChangeOnTimeLock",
      "outputs": [
        {
          "internalType": "address",
          "name": "",
          "type": "address"
        }
      ],
      "stateMutability": "view",
      "type": "function"
    },
    {
      "inputs": [
        {
          "internalType": "address",
          "name": "_contractCall",
          "type": "address"
        },
        {
          "internalType": "string",
          "name": "_functionName",
          "type": "string"
        },
        {
          "internalType": "string",
          "name": "_fieldName",
          "type": "string"
        }
      ],
      "name": "getUintChangeOnTimeLock",
      "outputs": [
        {
          "internalType": "uint256",
          "name": "",
          "type": "uint256"
        }
      ],
      "stateMutability": "view",
      "type": "function"
    },
    {
      "inputs": [
        {
          "internalType": "address",
          "name": "_contractCall",
          "type": "address"
        },
        {
          "internalType": "string",
          "name": "_functionName",
          "type": "string"
        }
      ],
      "name": "isQueuedTransaction",
      "outputs": [
        {
          "internalType": "bool",
          "name": "",
          "type": "bool"
        }
      ],
      "stateMutability": "view",
      "type": "function"
    }
  ],
  "bytecode": "0x608060405234801561001057600080fd5b5061001a3361001f565b61006f565b600080546001600160a01b038381166001600160a01b0319831681178455604051919092169283917f8be0079c531659141344cd1fd0a4f28419497f9722a3daafe3b4186f6b6457e09190a35050565b6110c98061007e6000396000f3fe608060405234801561001057600080fd5b506004361061010b5760003560e01c80638aa07f96116100a2578063c0edbd4a11610071578063c0edbd4a14610208578063c1a287e2146101bd578063e177246e1461021b578063e202c5471461022e578063f2fde38b1461027a57600080fd5b80638aa07f96146101c75780638da5cb5b146101da578063b1b43ae5146101eb578063b6629c78146101f557600080fd5b80636bfb078d116100de5780636bfb078d146101775780636e977f0b146101a2578063715018a6146101b55780637d645fab146101bd57600080fd5b806342730c2c146101105780635234b4d1146101385780636a42b8f81461014d5780636b7328da14610164575b600080fd5b61012361011e366004610c51565b61028d565b60405190151581526020015b60405180910390f35b61014b610146366004610c9f565b6103db565b005b61015660025481565b60405190815260200161012f565b61014b610172366004610d24565b6104f4565b61018a610185366004610da0565b6105e1565b6040516001600160a01b03909116815260200161012f565b61014b6101b0366004610e14565b61067f565b61014b61079c565b61015662278d0081565b61014b6101d5366004610e92565b6107b0565b6000546001600160a01b031661018a565b6101566202a30081565b61014b610203366004610c51565b61082d565b610156610216366004610da0565b6108d1565b61014b610229366004610ecf565b610966565b61026361023c366004610ee8565b60016020818152600093845260408085209091529183529120805491015460ff9091169082565b60408051921515835260208301919091520161012f565b61014b610288366004610f12565b610a5c565b6001600160a01b03821660009081526001602090815260408083209051839283916102ba91879101610f73565b60408051601f19818403018152918152815160209283012083529082019290925201600020805490915060ff1615156001146103115760405162461bcd60e51b815260040161030890610f86565b60405180910390fd5b42816001015411156103755760405162461bcd60e51b815260206004820152602760248201527f5472616e73616374696f6e206861736e2774207375727061737365642074696d60448201526632903637b1b59760c91b6064820152608401610308565b600181015442906103899062278d00610ad5565b10156103cf5760405162461bcd60e51b81526020600482015260156024820152742a3930b739b0b1ba34b7b71034b99039ba30b6329760591b6044820152606401610308565b60019150505b92915050565b6103e3610ae8565b6001600160a01b038416600090815260016020908152604080832090519091839161041091889101610f73565b6040516020818303038152906040528051906020012081526020019081526020016000209050818160020160008560405160200161044e9190610f73565b60408051808303601f1901815291815281516020928301208352908201929092520160002080546001600160a01b0319166001600160a01b0392909216919091179055805460ff191660011781556002546104aa904290610ad5565b60018201556040517f9226fd9c8778a005cb63ffd04ca66fb8da0487ff515aa1eec0b5b329dc912c36906104e5908790879087908790610fbd565b60405180910390a15050505050565b6104fc610ae8565b6001600160a01b038416600090815260016020908152604080832090519091839161052991889101610f73565b604051602081830303815290604052805190602001208152602001908152602001600020905081816003016000856040516020016105679190610f73565b60408051601f1981840301815291815281516020928301208352908201929092520160002055805460ff191660011781556002546105a6904290610ad5565b60018201556040517f0530dabc6b2b0cee8389ecbba3fc02eb24a01071f02f27de6832608cf7a2a927906104e5908790879087908790611006565b6001600160a01b038316600090815260016020908152604080832090519091839161060e91879101610f73565b6040516020818303038152906040528051906020012081526020019081526020016000206002016000836040516020016106489190610f73565b60408051808303601f19018152918152815160209283012083529082019290925201600020546001600160a01b0316949350505050565b3360009081526001602090815260408083209051909183916106a391889101610f73565b60408051601f19818403018152918152815160209283012083529082019290925201600020805490915060ff1615156001146106f15760405162461bcd60e51b815260040161030890610f86565b8160ff1660010361074b57806002016000846040516020016107139190610f73565b60408051601f1981840301815291815281516020928301208352908201929092520160002080546001600160a01b0319169055610796565b8160ff16600203610796578060030160008460405160200161076d9190610f73565b604051602081830303815290604052805190602001208152602001908152602001600020600090555b50505050565b6107a4610ae8565b6107ae6000610b42565b565b3360009081526001602090815260408083209051909183916107d491869101610f73565b60408051601f19818403018152918152815160209283012083529082019290925201600020805490915060ff1615156001146108225760405162461bcd60e51b815260040161030890610f86565b805460ff1916905550565b610835610ae8565b6001600160a01b038216600090815260016020908152604080832090519091839161086291869101610f73565b60408051601f1981840301815291815281516020928301208352908201929092528101600020805460ff1916815590519091507fab73b3be1fccfa72fce1372c420eed1d3c40e1f0b403e46f7d88c8257724efa7906108c4908590859061104e565b60405180910390a1505050565b6001600160a01b03831660009081526001602090815260408083209051909183916108fe91879101610f73565b6040516020818303038152906040528051906020012081526020019081526020016000206003016000836040516020016109389190610f73565b6040516020818303038152906040528051906020012081526020019081526020016000205490509392505050565b61096e610ae8565b6202a3008110156109de5760405162461bcd60e51b815260206004820152603460248201527f54696d656c6f636b3a3a73657444656c61793a2044656c6179206d75737420656044820152733c31b2b2b21036b4b734b6bab6903232b630bc9760611b6064820152608401610308565b62278d00811115610a575760405162461bcd60e51b815260206004820152603860248201527f54696d656c6f636b3a3a73657444656c61793a2044656c6179206d757374206e60448201527f6f7420657863656564206d6178696d756d2064656c61792e00000000000000006064820152608401610308565b600255565b610a64610ae8565b6001600160a01b038116610ac95760405162461bcd60e51b815260206004820152602660248201527f4f776e61626c653a206e6577206f776e657220697320746865207a65726f206160448201526564647265737360d01b6064820152608401610308565b610ad281610b42565b50565b6000610ae18284611072565b9392505050565b6000546001600160a01b031633146107ae5760405162461bcd60e51b815260206004820181905260248201527f4f776e61626c653a2063616c6c6572206973206e6f7420746865206f776e65726044820152606401610308565b600080546001600160a01b038381166001600160a01b0319831681178455604051919092169283917f8be0079c531659141344cd1fd0a4f28419497f9722a3daafe3b4186f6b6457e09190a35050565b80356001600160a01b0381168114610ba957600080fd5b919050565b634e487b7160e01b600052604160045260246000fd5b600082601f830112610bd557600080fd5b813567ffffffffffffffff80821115610bf057610bf0610bae565b604051601f8301601f19908116603f01168101908282118183101715610c1857610c18610bae565b81604052838152866020858801011115610c3157600080fd5b836020870160208301376000602085830101528094505050505092915050565b60008060408385031215610c6457600080fd5b610c6d83610b92565b9150602083013567ffffffffffffffff811115610c8957600080fd5b610c9585828601610bc4565b9150509250929050565b60008060008060808587031215610cb557600080fd5b610cbe85610b92565b9350602085013567ffffffffffffffff80821115610cdb57600080fd5b610ce788838901610bc4565b94506040870135915080821115610cfd57600080fd5b50610d0a87828801610bc4565b925050610d1960608601610b92565b905092959194509250565b60008060008060808587031215610d3a57600080fd5b610d4385610b92565b9350602085013567ffffffffffffffff80821115610d6057600080fd5b610d6c88838901610bc4565b94506040870135915080821115610d8257600080fd5b50610d8f87828801610bc4565b949793965093946060013593505050565b600080600060608486031215610db557600080fd5b610dbe84610b92565b9250602084013567ffffffffffffffff80821115610ddb57600080fd5b610de787838801610bc4565b93506040860135915080821115610dfd57600080fd5b50610e0a86828701610bc4565b9150509250925092565b600080600060608486031215610e2957600080fd5b833567ffffffffffffffff80821115610e4157600080fd5b610e4d87838801610bc4565b94506020860135915080821115610e6357600080fd5b50610e7086828701610bc4565b925050604084013560ff81168114610e8757600080fd5b809150509250925092565b600060208284031215610ea457600080fd5b813567ffffffffffffffff811115610ebb57600080fd5b610ec784828501610bc4565b949350505050565b600060208284031215610ee157600080fd5b5035919050565b60008060408385031215610efb57600080fd5b610f0483610b92565b946020939093013593505050565b600060208284031215610f2457600080fd5b610ae182610b92565b6000815180845260005b81811015610f5357602081850181015186830182015201610f37565b506000602082860101526020601f19601f83011685010191505092915050565b602081526000610ae16020830184610f2d565b6020808252601f908201527f5472616e73616374696f6e206861736e2774206265656e207175657565642e00604082015260600190565b600060018060a01b03808716835260806020840152610fdf6080840187610f2d565b8381036040850152610ff18187610f2d565b92505080841660608401525095945050505050565b6001600160a01b038516815260806020820181905260009061102a90830186610f2d565b828103604084015261103c8186610f2d565b91505082606083015295945050505050565b6001600160a01b0383168152604060208201819052600090610ec790830184610f2d565b808201808211156103d557634e487b7160e01b600052601160045260246000fdfea2646970667358221220379144883fb5ac342a6c282cb98c199a4f2cc61f589af3586c6782db817177e764736f6c63430008110033",
  "immutableReferences": {},
  "source": "// SPDX-License-Identifier: MIT\npragma solidity >=0.6.12;\n\nimport \"@openzeppelin/contracts/access/Ownable.sol\";\nimport \"@openzeppelin/contracts/utils/math/SafeMath.sol\";\n\ncontract GarbiTimeLock is Ownable {\n\n\tusing SafeMath for uint256;\n\t\n    mapping(address => mapping(bytes32 => TimeLock)) public timeLockOf;\n\n    uint public constant GRACE_PERIOD = 30 days;\n    uint public constant MINIMUM_DELAY = 2 days;\n    uint public constant MAXIMUM_DELAY = 30 days;\n    uint public delay;\n\n    struct TimeLock {\n        bool queuedTransactions;\n        uint256 timeOfExecute;\n        mapping(bytes32 => address) addressOf;\n        mapping(bytes32 => uint256) uintOf;\n    }\n\n    event onQueuedTransactionsChangeAddress(address _contractCall, string _functionName, string _fieldName, address _value);\n    event onQueuedTransactionsChangeUint(address _contractCall, string _functionName, string _fieldName, uint256 _value);\n    event onCancelTransactions(address _contractCall, string _functionName);\n\n    function setDelay(uint delay_) public onlyOwner {\n        require(delay_ >= MINIMUM_DELAY, \"Timelock::setDelay: Delay must exceed minimum delay.\");\n        require(delay_ <= MAXIMUM_DELAY, \"Timelock::setDelay: Delay must not exceed maximum delay.\");\n\n        delay = delay_;\n    }\n\n    function cancelTransactions(address _contractCall, string memory _functionName) public onlyOwner {\n\n        TimeLock storage _timelock = timeLockOf[_contractCall][keccak256(abi.encode(_functionName))];\n        _timelock.queuedTransactions = false;\n\n        emit onCancelTransactions(_contractCall, _functionName);\n    }\n\n    function queuedTransactionsChangeAddress(address _contractCall, string memory _functionName, string memory _fieldName, address _newAddr) public onlyOwner \n    {\n        TimeLock storage _timelock = timeLockOf[_contractCall][keccak256(abi.encode(_functionName))];\n\n        _timelock.addressOf[keccak256(abi.encode(_fieldName))] = _newAddr;\n        _timelock.queuedTransactions = true;\n        _timelock.timeOfExecute = block.timestamp.add(delay);\n\n        emit onQueuedTransactionsChangeAddress(_contractCall, _functionName, _fieldName, _newAddr);\n    }\n\n    function queuedTransactionsChangeUint(address _contractCall, string memory _functionName, string memory _fieldName, uint256 _value) public onlyOwner \n    {\n        TimeLock storage _timelock = timeLockOf[_contractCall][keccak256(abi.encode(_functionName))];\n\n        _timelock.uintOf[keccak256(abi.encode(_fieldName))] = _value;\n        _timelock.queuedTransactions = true;\n        _timelock.timeOfExecute = block.timestamp.add(delay);\n\n        emit onQueuedTransactionsChangeUint(_contractCall, _functionName, _fieldName, _value);\n    }\n   \n    function doneTransactions(string memory _functionName) public {\n\n        TimeLock storage _timelock = timeLockOf[msg.sender][keccak256(abi.encode(_functionName))];\n\n        require(_timelock.queuedTransactions == true, \"Transaction hasn't been queued.\");\n\n        _timelock.queuedTransactions = false;\n    }\n\n    /**\n    * _typeOfField: 1: address, 2: uint\n    */\n    function clearFieldValue(string memory _functionName, string memory _fieldName, uint8 _typeOfField) public {\n        TimeLock storage _timelock = timeLockOf[msg.sender][keccak256(abi.encode(_functionName))];\n\n        require(_timelock.queuedTransactions == true, \"Transaction hasn't been queued.\");\n\n        if (_typeOfField == 1) {\n            delete _timelock.addressOf[keccak256(abi.encode(_fieldName))];\n        } else if (_typeOfField == 2) {\n            delete _timelock.uintOf[keccak256(abi.encode(_fieldName))];\n        }\n    }\n\n    function getAddressChangeOnTimeLock(address _contractCall, string memory _functionName, string memory _fieldName) public view returns(address) {\n        return timeLockOf[_contractCall][keccak256(abi.encode(_functionName))].addressOf[keccak256(abi.encode(_fieldName))];\n    }\n\n    function getUintChangeOnTimeLock(address _contractCall, string memory _functionName, string memory _fieldName) public view returns(uint256) {\n        return timeLockOf[_contractCall][keccak256(abi.encode(_functionName))].uintOf[keccak256(abi.encode(_fieldName))];\n    }\n\n    function isQueuedTransaction(address _contractCall, string memory _functionName) public view returns(bool)\n    {\n        TimeLock storage _timelock = timeLockOf[_contractCall][keccak256(abi.encode(_functionName))];\n\n        require(_timelock.queuedTransactions == true, \"Transaction hasn't been queued.\");\n        require(_timelock.timeOfExecute <= block.timestamp, \"Transaction hasn't surpassed time lock.\");\n        require(_timelock.timeOfExecute.add(GRACE_PERIOD) >= block.timestamp, \"Transaction is stale.\");\n\n        return true;\n    }\n}",
  "sourcePath": "/Applications/projects/garbiprotocol.github.io/garbi_contracts/contracts/GarbiTimeLock.sol",
  "compiler": {
    "name": "solc",
    "version": "0.8.17+commit.8df45f5f.Emscripten.clang"
  },
  "schemaVersion": "3.4.11",
  "updatedAt": "2023-01-27T02:07:45.400Z",
  "networkType": "ethereum",
  "devdoc": {
    "kind": "dev",
    "methods": {
      "owner()": {
        "details": "Returns the address of the current owner."
      },
      "renounceOwnership()": {
        "details": "Leaves the contract without owner. It will not be possible to call `onlyOwner` functions anymore. Can only be called by the current owner. NOTE: Renouncing ownership will leave the contract without an owner, thereby removing any functionality that is only available to the owner."
      },
      "transferOwnership(address)": {
        "details": "Transfers ownership of the contract to a new account (`newOwner`). Can only be called by the current owner."
      }
    },
    "version": 1
  },
  "userdoc": {
    "kind": "user",
    "methods": {
      "clearFieldValue(string,string,uint8)": {
        "notice": "_typeOfField: 1: address, 2: uint"
      }
    },
    "version": 1
  }
}