{
  "contractName": "GarbiRepository",
  "abi": [
    {
      "inputs": [
        {
          "internalType": "contract IERC20Metadata",
          "name": "baseContract",
          "type": "address"
        },
        {
          "internalType": "contract IGarbiOracle",
          "name": "garbiOracleContract",
          "type": "address"
        },
        {
          "internalType": "address",
          "name": "repositoryManagerContract",
          "type": "address"
        }
      ],
      "stateMutability": "nonpayable",
      "type": "constructor"
    },
    {
      "anonymous": false,
      "inputs": [
        {
          "indexed": true,
          "internalType": "address",
          "name": "previousOwner",
          "type": "address"
        },
        {
          "indexed": true,
          "internalType": "address",
          "name": "newOwner",
          "type": "address"
        }
      ],
      "name": "OwnershipTransferred",
      "type": "event"
    },
    {
      "anonymous": false,
      "inputs": [
        {
          "indexed": false,
          "internalType": "address",
          "name": "addressWithdraw",
          "type": "address"
        },
        {
          "indexed": false,
          "internalType": "uint256",
          "name": "amount",
          "type": "uint256"
        }
      ],
      "name": "onWithdrawBase",
      "type": "event"
    },
    {
      "inputs": [],
      "name": "base",
      "outputs": [
        {
          "internalType": "contract IERC20Metadata",
          "name": "",
          "type": "address"
        }
      ],
      "stateMutability": "view",
      "type": "function"
    },
    {
      "inputs": [],
      "name": "baseDecimal",
      "outputs": [
        {
          "internalType": "uint256",
          "name": "",
          "type": "uint256"
        }
      ],
      "stateMutability": "view",
      "type": "function"
    },
    {
      "inputs": [],
      "name": "garbiOracle",
      "outputs": [
        {
          "internalType": "contract IGarbiOracle",
          "name": "",
          "type": "address"
        }
      ],
      "stateMutability": "view",
      "type": "function"
    },
    {
      "inputs": [],
      "name": "oraclePriceDecimal",
      "outputs": [
        {
          "internalType": "uint256",
          "name": "",
          "type": "uint256"
        }
      ],
      "stateMutability": "view",
      "type": "function"
    },
    {
      "inputs": [],
      "name": "owner",
      "outputs": [
        {
          "internalType": "address",
          "name": "",
          "type": "address"
        }
      ],
      "stateMutability": "view",
      "type": "function"
    },
    {
      "inputs": [],
      "name": "renounceOwnership",
      "outputs": [],
      "stateMutability": "nonpayable",
      "type": "function"
    },
    {
      "inputs": [],
      "name": "repositoryManagerAddress",
      "outputs": [
        {
          "internalType": "address",
          "name": "",
          "type": "address"
        }
      ],
      "stateMutability": "view",
      "type": "function"
    },
    {
      "inputs": [
        {
          "internalType": "address",
          "name": "newOwner",
          "type": "address"
        }
      ],
      "name": "transferOwnership",
      "outputs": [],
      "stateMutability": "nonpayable",
      "type": "function"
    },
    {
      "inputs": [
        {
          "internalType": "contract IGarbiOracle",
          "name": "newGarbiOracleContract",
          "type": "address"
        }
      ],
      "name": "setGarbiOracle",
      "outputs": [],
      "stateMutability": "nonpayable",
      "type": "function"
    },
    {
      "inputs": [
        {
          "internalType": "address",
          "name": "newAddress",
          "type": "address"
        }
      ],
      "name": "setRepositoryManagerAddress",
      "outputs": [],
      "stateMutability": "nonpayable",
      "type": "function"
    },
    {
      "inputs": [],
      "name": "setDecimals",
      "outputs": [],
      "stateMutability": "nonpayable",
      "type": "function"
    },
    {
      "inputs": [
        {
          "internalType": "contract IERC20Metadata",
          "name": "newContract",
          "type": "address"
        }
      ],
      "name": "setBaseContract",
      "outputs": [],
      "stateMutability": "nonpayable",
      "type": "function"
    },
    {
      "inputs": [],
      "name": "getCapacityByToken",
      "outputs": [
        {
          "internalType": "uint256",
          "name": "repoCapacityInToken",
          "type": "uint256"
        }
      ],
      "stateMutability": "view",
      "type": "function"
    },
    {
      "inputs": [],
      "name": "getCapacityByUSD",
      "outputs": [
        {
          "internalType": "uint256",
          "name": "repoCapacityInUSD",
          "type": "uint256"
        }
      ],
      "stateMutability": "view",
      "type": "function"
    },
    {
      "inputs": [],
      "name": "getBasePrice",
      "outputs": [
        {
          "internalType": "uint256",
          "name": "basePriceFromOracle",
          "type": "uint256"
        }
      ],
      "stateMutability": "view",
      "type": "function"
    },
    {
      "inputs": [
        {
          "internalType": "uint256",
          "name": "baseOutAmount",
          "type": "uint256"
        }
      ],
      "name": "withdrawBaseToRepositoryManager",
      "outputs": [],
      "stateMutability": "nonpayable",
      "type": "function"
    },
    {
      "inputs": [
        {
          "internalType": "uint256",
          "name": "number",
          "type": "uint256"
        },
        {
          "internalType": "uint256",
          "name": "numberDecimal",
          "type": "uint256"
        }
      ],
      "name": "convertDecimalTo18",
      "outputs": [
        {
          "internalType": "uint256",
          "name": "",
          "type": "uint256"
        }
      ],
      "stateMutability": "pure",
      "type": "function"
    },
    {
      "inputs": [
        {
          "internalType": "uint256",
          "name": "number",
          "type": "uint256"
        },
        {
          "internalType": "uint256",
          "name": "numberDecimal",
          "type": "uint256"
        }
      ],
      "name": "convertToBaseDecimal",
      "outputs": [
        {
          "internalType": "uint256",
          "name": "",
          "type": "uint256"
        }
      ],
      "stateMutability": "view",
      "type": "function"
    }
  ],
  "bytecode": "0x608060405234801561001057600080fd5b50604051610c47380380610c4783398101604081905261002f916100e2565b6100383361007a565b600280546001600160a01b039485166001600160a01b03199182161790915560018054938516938216939093179092556005805491909316911617905561012f565b600080546001600160a01b038381166001600160a01b0319831681178455604051919092169283917f8be0079c531659141344cd1fd0a4f28419497f9722a3daafe3b4186f6b6457e09190a35050565b6001600160a01b03811681146100df57600080fd5b50565b6000806000606084860312156100f757600080fd5b8351610102816100ca565b6020850151909350610113816100ca565b6040850151909250610124816100ca565b809150509250925092565b610b098061013e6000396000f3fe608060405234801561001057600080fd5b50600436106101165760003560e01c80638da5cb5b116100a2578063b49f4afd11610071578063b49f4afd14610207578063ca414dd71461020f578063d12feeb514610222578063db7b373e14610235578063f2fde38b1461023e57600080fd5b80638da5cb5b146101bd5780639a8cbfb1146101ce578063a2701b4a146101e1578063af7dfc83146101f457600080fd5b806347b83d7d116100e957806347b83d7d1461017e5780635001f3b514610186578063715018a614610199578063737b84c7146101a15780637cf77b9e146101aa57600080fd5b8063110670b21461011b5780631f14036c1461013057806329b315d71461016057806335a2266414610176575b600080fd5b61012e6101293660046108de565b610251565b005b600154610143906001600160a01b031681565b6040516001600160a01b0390911681526020015b60405180910390f35b61016861027b565b604051908152602001610157565b6101686102fc565b61012e6103d4565b600254610143906001600160a01b031681565b61012e6104ce565b61016860045481565b6101686101b83660046108fb565b6104e2565b6000546001600160a01b0316610143565b61012e6101dc3660046108de565b610517565b61012e6101ef36600461091d565b610541565b6101686102023660046108fb565b6106bd565b6101686106df565b61012e61021d3660046108de565b61075d565b600554610143906001600160a01b031681565b61016860035481565b61012e61024c3660046108de565b610787565b610259610800565b600180546001600160a01b0319166001600160a01b0392909216919091179055565b6002546040516370a0823160e01b81523060048201526000916102f7916001600160a01b03909116906370a08231906024015b602060405180830381865afa1580156102cb573d6000803e3d6000fd5b505050506040513d601f19601f820116820180604052508101906102ef9190610936565b6003546106bd565b905090565b6002546040516370a0823160e01b81523060048201526000918291610333916001600160a01b0316906370a08231906024016102ae565b6001546002546040516302c68be360e31b81526001600160a01b0391821660048201529293506000929116906316345f1890602401602060405180830381865afa158015610385573d6000803e3d6000fd5b505050506040513d601f19601f820116820180604052508101906103a99190610936565b90506103cd600454600a6103bd9190610a49565b6103c7848461085a565b9061086d565b9250505090565b6103dc610800565b600260009054906101000a90046001600160a01b03166001600160a01b031663313ce5676040518163ffffffff1660e01b8152600401602060405180830381865afa15801561042f573d6000803e3d6000fd5b505050506040513d601f19601f820116820180604052508101906104539190610a55565b60ff16600355600154600254604051638b1b64bd60e01b81526001600160a01b039182166004820152911690638b1b64bd90602401602060405180830381865afa1580156104a5573d6000803e3d6000fd5b505050506040513d601f19601f820116820180604052508101906104c99190610936565b600455565b6104d6610800565b6104e06000610879565b565b600061050b6104f283600a610a49565b6103c7600354600a6105049190610a49565b869061085a565b92508290505b92915050565b61051f610800565b600280546001600160a01b0319166001600160a01b0392909216919091179055565b6005546001600160a01b031633146105955760405162461bcd60e51b815260206004820152601260248201527124a72b20a624a22fa822a926a4a9a9a4a7a760711b60448201526064015b60405180910390fd5b600081116105d45760405162461bcd60e51b815260206004820152600c60248201526b494e56414c49445f4441544160a01b604482015260640161058c565b60006105de61027b565b9050808211156105ec578091505b6105f78260126104e2565b60025460055460405163a9059cbb60e01b81526001600160a01b03918216600482015260248101849052929450169063a9059cbb906044016020604051808303816000875af115801561064e573d6000803e3d6000fd5b505050506040513d601f19601f820116820180604052508101906106729190610a78565b50600554604080516001600160a01b039092168252602082018490527fb32fa994dea240a71e857474752d134624dbeda5cf5fec60aac9de1481218853910160405180910390a15050565b600061050b6106cd83600a610a49565b6103c785670de0b6b3a764000061085a565b6001546002546040516302c68be360e31b81526001600160a01b0391821660048201526000926102f79216906316345f1890602401602060405180830381865afa158015610731573d6000803e3d6000fd5b505050506040513d601f19601f820116820180604052508101906107559190610936565b6004546106bd565b610765610800565b600580546001600160a01b0319166001600160a01b0392909216919091179055565b61078f610800565b6001600160a01b0381166107f45760405162461bcd60e51b815260206004820152602660248201527f4f776e61626c653a206e6577206f776e657220697320746865207a65726f206160448201526564647265737360d01b606482015260840161058c565b6107fd81610879565b50565b6000546001600160a01b031633146104e05760405162461bcd60e51b815260206004820181905260248201527f4f776e61626c653a2063616c6c6572206973206e6f7420746865206f776e6572604482015260640161058c565b60006108668284610a9a565b9392505050565b60006108668284610ab1565b600080546001600160a01b038381166001600160a01b0319831681178455604051919092169283917f8be0079c531659141344cd1fd0a4f28419497f9722a3daafe3b4186f6b6457e09190a35050565b6001600160a01b03811681146107fd57600080fd5b6000602082840312156108f057600080fd5b8135610866816108c9565b6000806040838503121561090e57600080fd5b50508035926020909101359150565b60006020828403121561092f57600080fd5b5035919050565b60006020828403121561094857600080fd5b5051919050565b634e487b7160e01b600052601160045260246000fd5b600181815b808511156109a05781600019048211156109865761098661094f565b8085161561099357918102915b93841c939080029061096a565b509250929050565b6000826109b757506001610511565b816109c457506000610511565b81600181146109da57600281146109e457610a00565b6001915050610511565b60ff8411156109f5576109f561094f565b50506001821b610511565b5060208310610133831016604e8410600b8410161715610a23575081810a610511565b610a2d8383610965565b8060001904821115610a4157610a4161094f565b029392505050565b600061086683836109a8565b600060208284031215610a6757600080fd5b815160ff8116811461086657600080fd5b600060208284031215610a8a57600080fd5b8151801515811461086657600080fd5b80820281158282048414176105115761051161094f565b600082610ace57634e487b7160e01b600052601260045260246000fd5b50049056fea26469706673582212209089335e3cfaf83b9bede005c94379d5efcb476016075ab9d0aee0de6296cc7c64736f6c63430008110033",
  "immutableReferences": {},
  "source": "// SPDX-License-Identifier: MIT\npragma solidity >=0.6.12;\n\nimport \"@openzeppelin/contracts/utils/math/SafeMath.sol\";\nimport \"@openzeppelin/contracts/token/ERC20/extensions/IERC20Metadata.sol\";\nimport \"@openzeppelin/contracts/access/Ownable.sol\";\n\nimport '../interfaces/IGarbiOracle.sol';\n\ncontract GarbiRepository is Ownable {\n    using SafeMath for uint256;\n\n    IGarbiOracle public garbiOracle;\n\n    IERC20Metadata public base;\n\n    uint256 public baseDecimal;\n\n    uint256 public oraclePriceDecimal;\n\n    address public repositoryManagerAddress;\n\n    modifier onlyRepositoryManager()\n    {\n        require(repositoryManagerAddress == msg.sender, \"INVALID_PERMISSION\");\n        _;\n    }\n\n    // Events\n    event onWithdrawBase(address addressWithdraw, uint256 amount);\n\n    constructor(\n        IERC20Metadata baseContract,\n        IGarbiOracle garbiOracleContract,\n        address repositoryManagerContract\n    ) {\n        base = baseContract;\n        garbiOracle = garbiOracleContract;\n        repositoryManagerAddress = repositoryManagerContract;\n    }\n\n    function setGarbiOracle(IGarbiOracle newGarbiOracleContract) public onlyOwner {\n        garbiOracle = newGarbiOracleContract;\n    }\n\n    function setRepositoryManagerAddress(address newAddress) public onlyOwner {\n        repositoryManagerAddress = newAddress;\n    }\n\n    function setDecimals() public onlyOwner {\n        baseDecimal = base.decimals();\n        oraclePriceDecimal = garbiOracle.getPriceDecimals(address(base));\n    }\n\n    function setBaseContract(IERC20Metadata newContract) public onlyOwner {\n        base = newContract;\n    }\n    \n    function getCapacityByToken() public view returns (uint256 repoCapacityInToken) {\n       repoCapacityInToken = convertDecimalTo18(base.balanceOf(address(this)), baseDecimal);\n    }\n\n    function getCapacityByUSD() public view returns (uint256 repoCapacityInUSD) {\n       uint256 baseBalance = convertDecimalTo18(base.balanceOf(address(this)), baseDecimal);\n       uint256 basePriceFromOracle = garbiOracle.getLatestPrice(address(base));\n\n       repoCapacityInUSD = baseBalance.mul(basePriceFromOracle).div(10**oraclePriceDecimal);\n    }\n\n    function getBasePrice() public view returns (uint256 basePriceFromOracle) {\n       basePriceFromOracle = convertDecimalTo18(garbiOracle.getLatestPrice(address(base)), oraclePriceDecimal);\n    }\n\n    function withdrawBaseToRepositoryManager(uint256 baseOutAmount) public onlyRepositoryManager {\n        require(baseOutAmount > 0, 'INVALID_DATA');\n        uint256 repoCapacityInToken = getCapacityByToken();\n        \n        if(baseOutAmount > repoCapacityInToken) {\n            baseOutAmount = repoCapacityInToken;\n        }\n        \n        baseOutAmount = convertToBaseDecimal(baseOutAmount, 18);\n        base.transfer(repositoryManagerAddress, baseOutAmount);\n\n        emit onWithdrawBase(repositoryManagerAddress, baseOutAmount);\n    }\n\n    function convertDecimalTo18(uint256 number, uint256 numberDecimal) public pure returns (uint256) { \n        number = number.mul(1e18).div(10**numberDecimal);\n        return number;\n    }\n\n    function convertToBaseDecimal(uint256 number, uint256 numberDecimal) public view returns (uint256) { \n        number = number.mul(10**baseDecimal).div(10**numberDecimal);\n        return number;\n    }\n}",
  "sourcePath": "/Applications/projects/garbiprotocol.github.io/garbi_contracts/contracts/GarbiSwap2/GarbiRepository.sol",
  "compiler": {
    "name": "solc",
    "version": "0.8.17+commit.8df45f5f.Emscripten.clang"
  },
  "schemaVersion": "3.4.11",
  "updatedAt": "2023-03-21T19:36:56.894Z",
  "networkType": "ethereum",
  "devdoc": {
    "kind": "dev",
    "methods": {
      "owner()": {
        "details": "Returns the address of the current owner."
      },
      "renounceOwnership()": {
        "details": "Leaves the contract without owner. It will not be possible to call `onlyOwner` functions anymore. Can only be called by the current owner. NOTE: Renouncing ownership will leave the contract without an owner, thereby removing any functionality that is only available to the owner."
      },
      "transferOwnership(address)": {
        "details": "Transfers ownership of the contract to a new account (`newOwner`). Can only be called by the current owner."
      }
    },
    "version": 1
  },
  "userdoc": {
    "kind": "user",
    "methods": {},
    "version": 1
  }
}