{
  "contractName": "GarbiswapTradeDAIUSDC",
  "abi": [
    {
      "inputs": [
        {
          "internalType": "contract IERC20",
          "name": "_base",
          "type": "address"
        },
        {
          "internalType": "contract IERC20",
          "name": "_token",
          "type": "address"
        },
        {
          "internalType": "contract IGarbiTimeLock",
          "name": "_garbiTimeLockContract",
          "type": "address"
        },
        {
          "internalType": "contract IGarbiswapFeeMachine",
          "name": "_feeMachineContract",
          "type": "address"
        },
        {
          "internalType": "contract IGarbiswapWhitelist",
          "name": "_whitelistContract",
          "type": "address"
        },
        {
          "internalType": "contract IGarbiOracle",
          "name": "_garbiOracle",
          "type": "address"
        },
        {
          "internalType": "string",
          "name": "name",
          "type": "string"
        },
        {
          "internalType": "string",
          "name": "symbol",
          "type": "string"
        }
      ],
      "stateMutability": "nonpayable",
      "type": "constructor"
    },
    {
      "anonymous": false,
      "inputs": [
        {
          "indexed": true,
          "internalType": "address",
          "name": "owner",
          "type": "address"
        },
        {
          "indexed": true,
          "internalType": "address",
          "name": "spender",
          "type": "address"
        },
        {
          "indexed": false,
          "internalType": "uint256",
          "name": "value",
          "type": "uint256"
        }
      ],
      "name": "Approval",
      "type": "event"
    },
    {
      "anonymous": false,
      "inputs": [
        {
          "indexed": true,
          "internalType": "address",
          "name": "previousOwner",
          "type": "address"
        },
        {
          "indexed": true,
          "internalType": "address",
          "name": "newOwner",
          "type": "address"
        }
      ],
      "name": "OwnershipTransferred",
      "type": "event"
    },
    {
      "anonymous": false,
      "inputs": [
        {
          "indexed": true,
          "internalType": "address",
          "name": "from",
          "type": "address"
        },
        {
          "indexed": true,
          "internalType": "address",
          "name": "to",
          "type": "address"
        },
        {
          "indexed": false,
          "internalType": "uint256",
          "name": "value",
          "type": "uint256"
        }
      ],
      "name": "Transfer",
      "type": "event"
    },
    {
      "anonymous": false,
      "inputs": [
        {
          "indexed": false,
          "internalType": "address",
          "name": "sender",
          "type": "address"
        },
        {
          "indexed": false,
          "internalType": "uint256",
          "name": "mintLP",
          "type": "uint256"
        },
        {
          "indexed": false,
          "internalType": "uint256",
          "name": "baseInputAmount",
          "type": "uint256"
        },
        {
          "indexed": false,
          "internalType": "uint256",
          "name": "tokenInputAmount",
          "type": "uint256"
        },
        {
          "indexed": false,
          "internalType": "uint256",
          "name": "poolBaseBalance",
          "type": "uint256"
        },
        {
          "indexed": false,
          "internalType": "uint256",
          "name": "poolTokenBalance",
          "type": "uint256"
        }
      ],
      "name": "onAddLP",
      "type": "event"
    },
    {
      "anonymous": false,
      "inputs": [
        {
          "indexed": false,
          "internalType": "address",
          "name": "sender",
          "type": "address"
        },
        {
          "indexed": false,
          "internalType": "uint256",
          "name": "amountLP",
          "type": "uint256"
        },
        {
          "indexed": false,
          "internalType": "uint256",
          "name": "baseOutputAmout",
          "type": "uint256"
        },
        {
          "indexed": false,
          "internalType": "uint256",
          "name": "tokenOutputAmount",
          "type": "uint256"
        },
        {
          "indexed": false,
          "internalType": "uint256",
          "name": "poolBaseBalance",
          "type": "uint256"
        },
        {
          "indexed": false,
          "internalType": "uint256",
          "name": "poolTokenBalance",
          "type": "uint256"
        }
      ],
      "name": "onRemoveLP",
      "type": "event"
    },
    {
      "anonymous": false,
      "inputs": [
        {
          "indexed": false,
          "internalType": "address",
          "name": "sender",
          "type": "address"
        },
        {
          "indexed": false,
          "internalType": "uint256",
          "name": "minTokenOutput",
          "type": "uint256"
        },
        {
          "indexed": false,
          "internalType": "uint256",
          "name": "baseInputAmount",
          "type": "uint256"
        },
        {
          "indexed": false,
          "internalType": "uint256",
          "name": "tokenOutputAmount",
          "type": "uint256"
        },
        {
          "indexed": false,
          "internalType": "uint256",
          "name": "poolBaseBalance",
          "type": "uint256"
        },
        {
          "indexed": false,
          "internalType": "uint256",
          "name": "poolTokenBalance",
          "type": "uint256"
        }
      ],
      "name": "onSwapBaseToTokenWithBaseInput",
      "type": "event"
    },
    {
      "anonymous": false,
      "inputs": [
        {
          "indexed": false,
          "internalType": "address",
          "name": "sender",
          "type": "address"
        },
        {
          "indexed": false,
          "internalType": "uint256",
          "name": "maxBaseInput",
          "type": "uint256"
        },
        {
          "indexed": false,
          "internalType": "uint256",
          "name": "baseInputAmount",
          "type": "uint256"
        },
        {
          "indexed": false,
          "internalType": "uint256",
          "name": "tokenOutputAmount",
          "type": "uint256"
        },
        {
          "indexed": false,
          "internalType": "uint256",
          "name": "poolBaseBalance",
          "type": "uint256"
        },
        {
          "indexed": false,
          "internalType": "uint256",
          "name": "poolTokenBalance",
          "type": "uint256"
        }
      ],
      "name": "onSwapBaseToTokenWithTokenOutput",
      "type": "event"
    },
    {
      "anonymous": false,
      "inputs": [
        {
          "indexed": false,
          "internalType": "address",
          "name": "sender",
          "type": "address"
        },
        {
          "indexed": false,
          "internalType": "uint256",
          "name": "maxTokenInput",
          "type": "uint256"
        },
        {
          "indexed": false,
          "internalType": "uint256",
          "name": "tokenInputAmount",
          "type": "uint256"
        },
        {
          "indexed": false,
          "internalType": "uint256",
          "name": "baseOutputAmount",
          "type": "uint256"
        },
        {
          "indexed": false,
          "internalType": "uint256",
          "name": "poolBaseBalance",
          "type": "uint256"
        },
        {
          "indexed": false,
          "internalType": "uint256",
          "name": "poolTokenBalance",
          "type": "uint256"
        }
      ],
      "name": "onSwapTokenToBaseWithBaseOutput",
      "type": "event"
    },
    {
      "anonymous": false,
      "inputs": [
        {
          "indexed": false,
          "internalType": "address",
          "name": "sender",
          "type": "address"
        },
        {
          "indexed": false,
          "internalType": "uint256",
          "name": "minBaseOutput",
          "type": "uint256"
        },
        {
          "indexed": false,
          "internalType": "uint256",
          "name": "tokenInputAmount",
          "type": "uint256"
        },
        {
          "indexed": false,
          "internalType": "uint256",
          "name": "baseOutputAmount",
          "type": "uint256"
        },
        {
          "indexed": false,
          "internalType": "uint256",
          "name": "poolBaseBalance",
          "type": "uint256"
        },
        {
          "indexed": false,
          "internalType": "uint256",
          "name": "poolTokenBalance",
          "type": "uint256"
        }
      ],
      "name": "onSwapTokenToBaseWithTokenInput",
      "type": "event"
    },
    {
      "inputs": [],
      "name": "PLATFORM_FEE",
      "outputs": [
        {
          "internalType": "uint256",
          "name": "",
          "type": "uint256"
        }
      ],
      "stateMutability": "view",
      "type": "function"
    },
    {
      "inputs": [],
      "name": "TRADE_FEE",
      "outputs": [
        {
          "internalType": "uint256",
          "name": "",
          "type": "uint256"
        }
      ],
      "stateMutability": "view",
      "type": "function"
    },
    {
      "inputs": [
        {
          "internalType": "address",
          "name": "owner",
          "type": "address"
        },
        {
          "internalType": "address",
          "name": "spender",
          "type": "address"
        }
      ],
      "name": "allowance",
      "outputs": [
        {
          "internalType": "uint256",
          "name": "",
          "type": "uint256"
        }
      ],
      "stateMutability": "view",
      "type": "function"
    },
    {
      "inputs": [
        {
          "internalType": "address",
          "name": "spender",
          "type": "address"
        },
        {
          "internalType": "uint256",
          "name": "amount",
          "type": "uint256"
        }
      ],
      "name": "approve",
      "outputs": [
        {
          "internalType": "bool",
          "name": "",
          "type": "bool"
        }
      ],
      "stateMutability": "nonpayable",
      "type": "function"
    },
    {
      "inputs": [
        {
          "internalType": "address",
          "name": "account",
          "type": "address"
        }
      ],
      "name": "balanceOf",
      "outputs": [
        {
          "internalType": "uint256",
          "name": "",
          "type": "uint256"
        }
      ],
      "stateMutability": "view",
      "type": "function"
    },
    {
      "inputs": [],
      "name": "base",
      "outputs": [
        {
          "internalType": "contract IERC20",
          "name": "",
          "type": "address"
        }
      ],
      "stateMutability": "view",
      "type": "function"
    },
    {
      "inputs": [
        {
          "internalType": "uint256",
          "name": "amount",
          "type": "uint256"
        }
      ],
      "name": "burn",
      "outputs": [],
      "stateMutability": "nonpayable",
      "type": "function"
    },
    {
      "inputs": [
        {
          "internalType": "address",
          "name": "account",
          "type": "address"
        },
        {
          "internalType": "uint256",
          "name": "amount",
          "type": "uint256"
        }
      ],
      "name": "burnFrom",
      "outputs": [],
      "stateMutability": "nonpayable",
      "type": "function"
    },
    {
      "inputs": [],
      "name": "decimals",
      "outputs": [
        {
          "internalType": "uint8",
          "name": "",
          "type": "uint8"
        }
      ],
      "stateMutability": "view",
      "type": "function"
    },
    {
      "inputs": [
        {
          "internalType": "address",
          "name": "spender",
          "type": "address"
        },
        {
          "internalType": "uint256",
          "name": "subtractedValue",
          "type": "uint256"
        }
      ],
      "name": "decreaseAllowance",
      "outputs": [
        {
          "internalType": "bool",
          "name": "",
          "type": "bool"
        }
      ],
      "stateMutability": "nonpayable",
      "type": "function"
    },
    {
      "inputs": [],
      "name": "feeMachineContract",
      "outputs": [
        {
          "internalType": "contract IGarbiswapFeeMachine",
          "name": "",
          "type": "address"
        }
      ],
      "stateMutability": "view",
      "type": "function"
    },
    {
      "inputs": [],
      "name": "garbiOracle",
      "outputs": [
        {
          "internalType": "contract IGarbiOracle",
          "name": "",
          "type": "address"
        }
      ],
      "stateMutability": "view",
      "type": "function"
    },
    {
      "inputs": [],
      "name": "garbiTimeLockContract",
      "outputs": [
        {
          "internalType": "contract IGarbiTimeLock",
          "name": "",
          "type": "address"
        }
      ],
      "stateMutability": "view",
      "type": "function"
    },
    {
      "inputs": [
        {
          "internalType": "address",
          "name": "spender",
          "type": "address"
        },
        {
          "internalType": "uint256",
          "name": "addedValue",
          "type": "uint256"
        }
      ],
      "name": "increaseAllowance",
      "outputs": [
        {
          "internalType": "bool",
          "name": "",
          "type": "bool"
        }
      ],
      "stateMutability": "nonpayable",
      "type": "function"
    },
    {
      "inputs": [],
      "name": "name",
      "outputs": [
        {
          "internalType": "string",
          "name": "",
          "type": "string"
        }
      ],
      "stateMutability": "view",
      "type": "function"
    },
    {
      "inputs": [],
      "name": "owner",
      "outputs": [
        {
          "internalType": "address",
          "name": "",
          "type": "address"
        }
      ],
      "stateMutability": "view",
      "type": "function"
    },
    {
      "inputs": [],
      "name": "platformFundAddress",
      "outputs": [
        {
          "internalType": "address",
          "name": "",
          "type": "address"
        }
      ],
      "stateMutability": "view",
      "type": "function"
    },
    {
      "inputs": [],
      "name": "renounceOwnership",
      "outputs": [],
      "stateMutability": "nonpayable",
      "type": "function"
    },
    {
      "inputs": [],
      "name": "symbol",
      "outputs": [
        {
          "internalType": "string",
          "name": "",
          "type": "string"
        }
      ],
      "stateMutability": "view",
      "type": "function"
    },
    {
      "inputs": [],
      "name": "token",
      "outputs": [
        {
          "internalType": "contract IERC20",
          "name": "",
          "type": "address"
        }
      ],
      "stateMutability": "view",
      "type": "function"
    },
    {
      "inputs": [],
      "name": "totalSupply",
      "outputs": [
        {
          "internalType": "uint256",
          "name": "",
          "type": "uint256"
        }
      ],
      "stateMutability": "view",
      "type": "function"
    },
    {
      "inputs": [
        {
          "internalType": "address",
          "name": "to",
          "type": "address"
        },
        {
          "internalType": "uint256",
          "name": "amount",
          "type": "uint256"
        }
      ],
      "name": "transfer",
      "outputs": [
        {
          "internalType": "bool",
          "name": "",
          "type": "bool"
        }
      ],
      "stateMutability": "nonpayable",
      "type": "function"
    },
    {
      "inputs": [
        {
          "internalType": "address",
          "name": "from",
          "type": "address"
        },
        {
          "internalType": "address",
          "name": "to",
          "type": "address"
        },
        {
          "internalType": "uint256",
          "name": "amount",
          "type": "uint256"
        }
      ],
      "name": "transferFrom",
      "outputs": [
        {
          "internalType": "bool",
          "name": "",
          "type": "bool"
        }
      ],
      "stateMutability": "nonpayable",
      "type": "function"
    },
    {
      "inputs": [
        {
          "internalType": "address",
          "name": "newOwner",
          "type": "address"
        }
      ],
      "name": "transferOwnership",
      "outputs": [],
      "stateMutability": "nonpayable",
      "type": "function"
    },
    {
      "inputs": [],
      "name": "whitelistContract",
      "outputs": [
        {
          "internalType": "contract IGarbiswapWhitelist",
          "name": "",
          "type": "address"
        }
      ],
      "stateMutability": "view",
      "type": "function"
    },
    {
      "inputs": [],
      "name": "setWhitelistContract",
      "outputs": [],
      "stateMutability": "nonpayable",
      "type": "function"
    },
    {
      "inputs": [],
      "name": "setFeeMachineContract",
      "outputs": [],
      "stateMutability": "nonpayable",
      "type": "function"
    },
    {
      "inputs": [],
      "name": "setTradeFee",
      "outputs": [],
      "stateMutability": "nonpayable",
      "type": "function"
    },
    {
      "inputs": [],
      "name": "setPlatformFee",
      "outputs": [],
      "stateMutability": "nonpayable",
      "type": "function"
    },
    {
      "inputs": [
        {
          "internalType": "address",
          "name": "newAddress",
          "type": "address"
        }
      ],
      "name": "setPlatformFundAdress",
      "outputs": [],
      "stateMutability": "nonpayable",
      "type": "function"
    },
    {
      "inputs": [],
      "name": "getK",
      "outputs": [
        {
          "internalType": "uint256",
          "name": "",
          "type": "uint256"
        }
      ],
      "stateMutability": "view",
      "type": "function"
    },
    {
      "inputs": [
        {
          "internalType": "uint256",
          "name": "baseInputAmount",
          "type": "uint256"
        }
      ],
      "name": "getTokenOutput",
      "outputs": [
        {
          "internalType": "uint256",
          "name": "",
          "type": "uint256"
        }
      ],
      "stateMutability": "view",
      "type": "function"
    },
    {
      "inputs": [
        {
          "internalType": "uint256",
          "name": "tokenInputAmount",
          "type": "uint256"
        }
      ],
      "name": "getBaseOutput",
      "outputs": [
        {
          "internalType": "uint256",
          "name": "",
          "type": "uint256"
        }
      ],
      "stateMutability": "view",
      "type": "function"
    },
    {
      "inputs": [
        {
          "internalType": "uint256",
          "name": "baseInputAmount",
          "type": "uint256"
        }
      ],
      "name": "getDataFromBaseInputToAddLp",
      "outputs": [
        {
          "internalType": "uint256",
          "name": "",
          "type": "uint256"
        },
        {
          "internalType": "uint256",
          "name": "",
          "type": "uint256"
        }
      ],
      "stateMutability": "view",
      "type": "function"
    },
    {
      "inputs": [
        {
          "internalType": "uint256",
          "name": "tokenInputAmount",
          "type": "uint256"
        }
      ],
      "name": "getDataFromTokenInputToAddLp",
      "outputs": [
        {
          "internalType": "uint256",
          "name": "",
          "type": "uint256"
        },
        {
          "internalType": "uint256",
          "name": "",
          "type": "uint256"
        }
      ],
      "stateMutability": "view",
      "type": "function"
    },
    {
      "inputs": [
        {
          "internalType": "uint256",
          "name": "amountLP",
          "type": "uint256"
        }
      ],
      "name": "getDataToRemoveLP",
      "outputs": [
        {
          "internalType": "uint256",
          "name": "",
          "type": "uint256"
        },
        {
          "internalType": "uint256",
          "name": "",
          "type": "uint256"
        }
      ],
      "stateMutability": "view",
      "type": "function"
    },
    {
      "inputs": [
        {
          "internalType": "uint256",
          "name": "baseInputAmount",
          "type": "uint256"
        },
        {
          "internalType": "uint256",
          "name": "baseReserve",
          "type": "uint256"
        },
        {
          "internalType": "uint256",
          "name": "tokenReserve",
          "type": "uint256"
        }
      ],
      "name": "getTokenOutputAmountFromBaseInput",
      "outputs": [
        {
          "internalType": "uint256",
          "name": "",
          "type": "uint256"
        }
      ],
      "stateMutability": "view",
      "type": "function"
    },
    {
      "inputs": [
        {
          "internalType": "uint256",
          "name": "tokenOutputAmount",
          "type": "uint256"
        },
        {
          "internalType": "uint256",
          "name": "baseReserve",
          "type": "uint256"
        },
        {
          "internalType": "uint256",
          "name": "tokenReserve",
          "type": "uint256"
        }
      ],
      "name": "getBaseInputAmountFromTokenOutput",
      "outputs": [
        {
          "internalType": "uint256",
          "name": "",
          "type": "uint256"
        }
      ],
      "stateMutability": "view",
      "type": "function"
    },
    {
      "inputs": [
        {
          "internalType": "uint256",
          "name": "tokenInputAmount",
          "type": "uint256"
        },
        {
          "internalType": "uint256",
          "name": "baseReserve",
          "type": "uint256"
        },
        {
          "internalType": "uint256",
          "name": "tokenReserve",
          "type": "uint256"
        }
      ],
      "name": "getBaseOutputAmountFromTokenInput",
      "outputs": [
        {
          "internalType": "uint256",
          "name": "",
          "type": "uint256"
        }
      ],
      "stateMutability": "view",
      "type": "function"
    },
    {
      "inputs": [
        {
          "internalType": "uint256",
          "name": "baseOutputAmount",
          "type": "uint256"
        },
        {
          "internalType": "uint256",
          "name": "baseReserve",
          "type": "uint256"
        },
        {
          "internalType": "uint256",
          "name": "tokenReserve",
          "type": "uint256"
        }
      ],
      "name": "getTokenInputAmountFromBaseOutput",
      "outputs": [
        {
          "internalType": "uint256",
          "name": "",
          "type": "uint256"
        }
      ],
      "stateMutability": "view",
      "type": "function"
    },
    {
      "inputs": [
        {
          "internalType": "uint256",
          "name": "baseInputAmount",
          "type": "uint256"
        },
        {
          "internalType": "uint256",
          "name": "minTokenOutput",
          "type": "uint256"
        },
        {
          "internalType": "uint256",
          "name": "deadline",
          "type": "uint256"
        }
      ],
      "name": "swapBaseToTokenWithBaseInput",
      "outputs": [],
      "stateMutability": "nonpayable",
      "type": "function"
    },
    {
      "inputs": [
        {
          "internalType": "uint256",
          "name": "maxBaseInput",
          "type": "uint256"
        },
        {
          "internalType": "uint256",
          "name": "tokenOutputAmount",
          "type": "uint256"
        },
        {
          "internalType": "uint256",
          "name": "deadline",
          "type": "uint256"
        }
      ],
      "name": "swapBaseToTokenWithTokenOutput",
      "outputs": [],
      "stateMutability": "nonpayable",
      "type": "function"
    },
    {
      "inputs": [
        {
          "internalType": "uint256",
          "name": "tokenInputAmount",
          "type": "uint256"
        },
        {
          "internalType": "uint256",
          "name": "minBaseOutput",
          "type": "uint256"
        },
        {
          "internalType": "uint256",
          "name": "deadline",
          "type": "uint256"
        }
      ],
      "name": "swapTokenToBaseWithTokenInput",
      "outputs": [],
      "stateMutability": "nonpayable",
      "type": "function"
    },
    {
      "inputs": [
        {
          "internalType": "uint256",
          "name": "maxTokenInput",
          "type": "uint256"
        },
        {
          "internalType": "uint256",
          "name": "baseOutputAmount",
          "type": "uint256"
        },
        {
          "internalType": "uint256",
          "name": "deadline",
          "type": "uint256"
        }
      ],
      "name": "swapTokenToBaseWithBaseOutput",
      "outputs": [],
      "stateMutability": "nonpayable",
      "type": "function"
    },
    {
      "inputs": [
        {
          "internalType": "uint256",
          "name": "minLP",
          "type": "uint256"
        },
        {
          "internalType": "uint256",
          "name": "baseInputAmount",
          "type": "uint256"
        },
        {
          "internalType": "uint256",
          "name": "maxTokenInputAmount",
          "type": "uint256"
        },
        {
          "internalType": "uint256",
          "name": "deadline",
          "type": "uint256"
        }
      ],
      "name": "addLP",
      "outputs": [
        {
          "internalType": "uint256",
          "name": "",
          "type": "uint256"
        }
      ],
      "stateMutability": "nonpayable",
      "type": "function"
    },
    {
      "inputs": [
        {
          "internalType": "uint256",
          "name": "amountLP",
          "type": "uint256"
        },
        {
          "internalType": "uint256",
          "name": "minBaseOutput",
          "type": "uint256"
        },
        {
          "internalType": "uint256",
          "name": "minTokenOutput",
          "type": "uint256"
        },
        {
          "internalType": "uint256",
          "name": "deadline",
          "type": "uint256"
        }
      ],
      "name": "removeLP",
      "outputs": [
        {
          "internalType": "uint256",
          "name": "",
          "type": "uint256"
        },
        {
          "internalType": "uint256",
          "name": "",
          "type": "uint256"
        }
      ],
      "stateMutability": "nonpayable",
      "type": "function"
    },
    {
      "inputs": [],
      "name": "getTotalReserve",
      "outputs": [
        {
          "internalType": "uint256",
          "name": "",
          "type": "uint256"
        },
        {
          "internalType": "uint256",
          "name": "",
          "type": "uint256"
        }
      ],
      "stateMutability": "view",
      "type": "function"
    },
    {
      "inputs": [
        {
          "internalType": "uint256",
          "name": "number",
          "type": "uint256"
        }
      ],
      "name": "convertDecimal6to18",
      "outputs": [
        {
          "internalType": "uint256",
          "name": "",
          "type": "uint256"
        }
      ],
      "stateMutability": "pure",
      "type": "function"
    },
    {
      "inputs": [
        {
          "internalType": "uint256",
          "name": "number",
          "type": "uint256"
        }
      ],
      "name": "convertDecimal18to6",
      "outputs": [
        {
          "internalType": "uint256",
          "name": "",
          "type": "uint256"
        }
      ],
      "stateMutability": "pure",
      "type": "function"
    }
  ],
  "bytecode": "0x60806040526023600c556019600d553480156200001b57600080fd5b506040516200503e3803806200503e8339810160408190526200003e9162000259565b818160036200004e8382620003d1565b5060046200005d8282620003d1565b5050506200007a620000746200011360201b60201c565b62000117565b600680546001600160a01b03199081166001600160a01b038b8116919091179092556007805482168a8416179055600a80548216898416179055600980548216878416179055600880548216888416179055600b8054909116918516919091179055620000e43390565b600e80546001600160a01b0319166001600160a01b0392909216919091179055506200049d9650505050505050565b3390565b600580546001600160a01b038381166001600160a01b0319831681179093556040519116919082907f8be0079c531659141344cd1fd0a4f28419497f9722a3daafe3b4186f6b6457e090600090a35050565b6001600160a01b03811681146200017f57600080fd5b50565b80516200018f8162000169565b919050565b634e487b7160e01b600052604160045260246000fd5b600082601f830112620001bc57600080fd5b81516001600160401b0380821115620001d957620001d962000194565b604051601f8301601f19908116603f0116810190828211818310171562000204576200020462000194565b816040528381526020925086838588010111156200022157600080fd5b600091505b8382101562000245578582018301518183018401529082019062000226565b600093810190920192909252949350505050565b600080600080600080600080610100898b0312156200027757600080fd5b8851620002848162000169565b60208a0151909850620002978162000169565b60408a0151909750620002aa8162000169565b60608a0151909650620002bd8162000169565b60808a0151909550620002d08162000169565b9350620002e060a08a0162000182565b60c08a01519093506001600160401b0380821115620002fe57600080fd5b6200030c8c838d01620001aa565b935060e08b01519150808211156200032357600080fd5b50620003328b828c01620001aa565b9150509295985092959890939650565b600181811c908216806200035757607f821691505b6020821081036200037857634e487b7160e01b600052602260045260246000fd5b50919050565b601f821115620003cc57600081815260208120601f850160051c81016020861015620003a75750805b601f850160051c820191505b81811015620003c857828155600101620003b3565b5050505b505050565b81516001600160401b03811115620003ed57620003ed62000194565b6200040581620003fe845462000342565b846200037e565b602080601f8311600181146200043d5760008415620004245750858301515b600019600386901b1c1916600185901b178555620003c8565b600085815260208120601f198616915b828110156200046e578886015182559484019460019091019084016200044d565b50858210156200048d5787850151600019600388901b60f8161c191681555b5050505050600190811b01905550565b614b9180620004ad6000396000f3fe608060405234801561001057600080fd5b50600436106102bb5760003560e01c806373dd25a311610182578063ac7343bd116100e9578063dd62ed3e116100a2578063ec0229181161007c578063ec022918146105f4578063ee39e7a0146105fc578063f2fde38b14610604578063fc0c546a1461061757600080fd5b8063dd62ed3e146105c6578063e50a38d7146105d9578063ead915e3146105ec57600080fd5b8063ac7343bd1461057c578063b7c3ba4514610584578063c6e842fc14610597578063d0e9de6c146105aa578063d1322962146105bd578063dbcfbf2f1461058457600080fd5b80638fe6041d1161013b5780638fe6041d1461052857806395d89b411461053b57806397bb21c6146103a75780639fa5e63e14610543578063a457c2d714610556578063a9059cbb1461056957600080fd5b806373dd25a3146104b857806374386163146104cb57806376125deb146104de57806379cc6790146104f157806384900b04146105045780638da5cb5b1461051757600080fd5b806334fbc9a11161022657806360b1765c116101df57806360b1765c14610426578063635f95ff146104395780636662d1771461044c57806370a0823114610474578063711f61421461049d578063715018a6146104b057600080fd5b806334fbc9a1146103c957806339509351146103d257806342966c68146103e557806342eba2ce146103f857806344dca5621461040b5780635001f3b51461041357600080fd5b80631279732c116102785780631279732c1461037157806318160ddd146103795780631f14036c1461038157806323b872dd146103945780632916bc10146103a7578063313ce567146103ba57600080fd5b806303bf04c1146102c057806304f6afbd146102d557806306fdde03146102fb578063095ea7b31461031057806310a57f3a1461033357806311fbded31461035e575b600080fd5b6102d36102ce36600461427a565b61062a565b005b6102e86102e33660046142a6565b610bca565b6040519081526020015b60405180910390f35b610303610beb565b6040516102f291906142bf565b61032361031e366004614322565b610c7d565b60405190151581526020016102f2565b600a54610346906001600160a01b031681565b6040516001600160a01b0390911681526020016102f2565b6102e861036c3660046142a6565b610c95565b6102d3610ce8565b6002546102e8565b600b54610346906001600160a01b031681565b6103236103a236600461434e565b610ebb565b6102e86103b536600461427a565b610edf565b604051601281526020016102f2565b6102e8600d5481565b6103236103e0366004614322565b611029565b6102d36103f33660046142a6565b61104b565b600854610346906001600160a01b031681565b6102d3611058565b600654610346906001600160a01b031681565b6102e861043436600461438f565b6111f6565b6102e86104473660046142a6565b611b47565b61045f61045a3660046142a6565b611b8f565b604080519283526020830191909152016102f2565b6102e86104823660046143c1565b6001600160a01b031660009081526020819052604090205490565b61045f6104ab3660046142a6565b611c23565b6102d3611cd8565b6102d36104c636600461427a565b611cec565b6102e86104d93660046142a6565b612255565b61045f6104ec36600461438f565b612270565b6102d36104ff366004614322565b612994565b600954610346906001600160a01b031681565b6005546001600160a01b0316610346565b6102d36105363660046143c1565b6129ad565b6103036129d7565b600e54610346906001600160a01b031681565b610323610564366004614322565b6129e6565b610323610577366004614322565b612a61565b6102d3612a6f565b6102e861059236600461427a565b612c68565b61045f6105a53660046142a6565b612db2565b6102d36105b836600461427a565b612e35565b6102e8600c5481565b6102e86105d43660046143de565b613353565b6102d36105e736600461427a565b61337e565b6102d36138e6565b61045f613adf565b6102e8613bd8565b6102d36106123660046143c1565b613bf5565b600754610346906001600160a01b031681565b3332146106c757600954604051636c9b2a3f60e11b81523360048201526001600160a01b039091169063d936547e90602401602060405180830381865afa158015610679573d6000803e3d6000fd5b505050506040513d601f19601f8201168201806040525081019061069d9190614417565b15156001146106c75760405162461bcd60e51b81526004016106be90614439565b60405180910390fd5b428110156106e75760405162461bcd60e51b81526004016106be90614464565b600082116107315760405162461bcd60e51b81526020600482015260176024820152761253959053125117d3525397d09054d157d3d555141555604a1b60448201526064016106be565b600083116107515760405162461bcd60e51b81526004016106be9061448e565b6007546040516370a0823160e01b81523360048201526001600160a01b03909116906370a0823190602401602060405180830381865afa158015610799573d6000803e3d6000fd5b505050506040513d601f19601f820116820180604052508101906107bd91906144bb565b83111561080c5760405162461bcd60e51b815260206004820152601f60248201527f544f4b454e5f494e5055545f4849474845525f555345525f42414c414e43450060448201526064016106be565b61081582612255565b9150600080610822613adf565b90925090508184106108875760405162461bcd60e51b815260206004820152602860248201527f4d494e5f424153455f4f55545055545f4849474845525f504f4f4c5f424153456044820152675f42414c414e434560c01b60648201526084016106be565b60006108ab620186a06108a5600c5489613c6b90919063ffffffff16565b90613c7e565b905060006108b98783613c8a565b905060006108c8828686612c68565b9050868110156108ea5760405162461bcd60e51b81526004016106be906144d4565b8481106109095760405162461bcd60e51b81526004016106be90614500565b6006546040516370a0823160e01b8152306004820152610978916001600160a01b0316906370a08231906024015b602060405180830381865afa158015610954573d6000803e3d6000fd5b505050506040513d601f19601f820116820180604052508101906104d991906144bb565b81106109965760405162461bcd60e51b81526004016106be90614544565b6007546040516323b872dd60e01b81526001600160a01b03909116906323b872dd906109ca90339030908d9060040161458c565b6020604051808303816000875af11580156109e9573d6000803e3d6000fd5b505050506040513d601f19601f82011682018060405250810190610a0d9190614417565b50610a1781610bca565b60065460405163a9059cbb60e01b81529192506001600160a01b03169063a9059cbb90610a4a90339085906004016145b0565b6020604051808303816000875af1158015610a69573d6000803e3d6000fd5b505050506040513d601f19601f82011682018060405250810190610a8d9190614417565b5060075460085460405163a9059cbb60e01b81526001600160a01b039283169263a9059cbb92610ac49291169087906004016145b0565b6020604051808303816000875af1158015610ae3573d6000803e3d6000fd5b505050506040513d601f19601f82011682018060405250810190610b079190614417565b50600854600754604051632054895360e21b81526001600160a01b039182166004820152336024820152911690638152254c90604401600060405180830381600087803b158015610b5757600080fd5b505af1158015610b6b573d6000803e3d6000fd5b505050507fb1b8c525a87e01fd3cda717635c4b24d56deba9f9d95c4f650c022bcd0bf8f5033610b9a89610bca565b8a84610ba58a610bca565b89604051610bb8969594939291906145c9565b60405180910390a15050505050505050565b6000610be5670de0b6b3a76400006108a584620f4240613c6b565b92915050565b606060038054610bfa906145fc565b80601f0160208091040260200160405190810160405280929190818152602001828054610c26906145fc565b8015610c735780601f10610c4857610100808354040283529160200191610c73565b820191906000526020600020905b815481529060010190602001808311610c5657829003601f168201915b5050505050905090565b600033610c8b818585613c96565b5060019392505050565b60008080610ca1613adf565b600c549193509150600090610cc090620186a0906108a5908890613c6b565b90506000610cce8683613c8a565b90506000610cdd828686610edf565b979650505050505050565b610cf0613dbb565b600a5460405163109cc30b60e21b81526001600160a01b03909116906342730c2c90610d20903090600401614654565b602060405180830381865afa158015610d3d573d6000803e3d6000fd5b505050506040513d601f19601f82011682018060405250810190610d619190614417565b610d7d5760405162461bcd60e51b81526004016106be90614677565b600a54604051636076dea560e11b81526000916001600160a01b03169063c0edbd4a90610dae9030906004016146a3565b602060405180830381865afa158015610dcb573d6000803e3d6000fd5b505050506040513d601f19601f82011682018060405250810190610def91906144bb565b600c819055600a54604051636e977f0b60e01b81529192506001600160a01b031690636e977f0b90610e26906002906004016146ed565b600060405180830381600087803b158015610e4057600080fd5b505af1158015610e54573d6000803e3d6000fd5b5050600a546040516345503fcb60e11b81526001600160a01b039091169250638aa07f969150610e8690600401614738565b600060405180830381600087803b158015610ea057600080fd5b505af1158015610eb4573d6000803e3d6000fd5b5050505050565b600033610ec9858285613e15565b610ed4858585613e8f565b506001949350505050565b60008083118015610ef05750600082115b610f2c5760405162461bcd60e51b815260206004820152600d60248201526c494e56414c49445f56414c554560981b60448201526064016106be565b600b546007546040516302c68be360e31b81526001600160a01b03918216600482015260009291909116906316345f1890602401602060405180830381865afa158015610f7d573d6000803e3d6000fd5b505050506040513d601f19601f82011682018060405250810190610fa191906144bb565b600b546006546040516302c68be360e31b81526001600160a01b0391821660048201529293506000929116906316345f1890602401602060405180830381865afa158015610ff3573d6000803e3d6000fd5b505050506040513d601f19601f8201168201806040525081019061101791906144bb565b90506000610cdd826108a58986613c6b565b600033610c8b81858561103c8383613353565b6110469190614760565b613c96565b6110553382614033565b50565b611060613dbb565b600a5460405163109cc30b60e21b81526001600160a01b03909116906342730c2c90611090903090600401614794565b602060405180830381865afa1580156110ad573d6000803e3d6000fd5b505050506040513d601f19601f820116820180604052508101906110d19190614417565b6110ed5760405162461bcd60e51b81526004016106be90614677565b600a54604051636076dea560e11b81526000916001600160a01b03169063c0edbd4a9061111e9030906004016147b7565b602060405180830381865afa15801561113b573d6000803e3d6000fd5b505050506040513d601f19601f8201168201806040525081019061115f91906144bb565b600d819055600a54604051636e977f0b60e01b81529192506001600160a01b031690636e977f0b9061119690600290600401614804565b600060405180830381600087803b1580156111b057600080fd5b505af11580156111c4573d6000803e3d6000fd5b5050600a546040516345503fcb60e11b81526001600160a01b039091169250638aa07f969150610e8690600401614840565b600033321461128c57600954604051636c9b2a3f60e11b81523360048201526001600160a01b039091169063d936547e90602401602060405180830381865afa158015611247573d6000803e3d6000fd5b505050506040513d601f19601f8201168201806040525081019061126b9190614417565b151560011461128c5760405162461bcd60e51b81526004016106be90614439565b428210156112ac5760405162461bcd60e51b81526004016106be90614464565b600085116112ed5760405162461bcd60e51b815260206004820152600e60248201526d0494e56414c49445f4d494e5f4c560941b60448201526064016106be565b6000841161130d5760405162461bcd60e51b81526004016106be90614852565b600083116113575760405162461bcd60e51b81526020600482015260176024820152761253959053125117d3505617d513d2d15397d253941555604a1b60448201526064016106be565b600061136260025490565b9050806000036116e5576006546040516323b872dd60e01b81526001600160a01b03909116906323b872dd906113a090339030908a9060040161458c565b6020604051808303816000875af11580156113bf573d6000803e3d6000fd5b505050506040513d601f19601f820116820180604052508101906113e39190614417565b506007546040516323b872dd60e01b81526001600160a01b03909116906323b872dd906114189033903090899060040161458c565b6020604051808303816000875af1158015611437573d6000803e3d6000fd5b505050506040513d601f19601f8201168201806040525081019061145b9190614417565b5061146585612255565b945060006114846103e86108a5600d5489613c6b90919063ffffffff16565b905060006114a36103e86108a5600d5489613c6b90919063ffffffff16565b905060006114b18884613c8a565b90506114bc83610bca565b600654600e5460405163a9059cbb60e01b81529295506001600160a01b039182169263a9059cbb926114f492169087906004016145b0565b6020604051808303816000875af1158015611513573d6000803e3d6000fd5b505050506040513d601f19601f820116820180604052508101906115379190614417565b50600754600e5460405163a9059cbb60e01b81526001600160a01b039283169263a9059cbb9261156e9291169086906004016145b0565b6020604051808303816000875af115801561158d573d6000803e3d6000fd5b505050506040513d601f19601f820116820180604052508101906115b19190614417565b506115bc338261415d565b7f28e12afd967cc11b786f1b1547f5e0da96ccc91ebb09bdd406248111a634e7e533826115e88b610bca565b6006546040516370a0823160e01b81523060048201528c916001600160a01b0316906370a0823190602401602060405180830381865afa158015611630573d6000803e3d6000fd5b505050506040513d601f19601f8201168201806040525081019061165491906144bb565b6007546040516370a0823160e01b81523060048201526001600160a01b03909116906370a0823190602401602060405180830381865afa15801561169c573d6000803e3d6000fd5b505050506040513d601f19601f820116820180604052508101906116c091906144bb565b6040516116d2969594939291906145c9565b60405180910390a19350611b3f92505050565b6116ee85612255565b94506000806116fb613adf565b909250905060006117248261171e856108a5611717828e61421c565b8790613c6b565b90613c8a565b905060006117436103e86108a5600d548c613c6b90919063ffffffff16565b905060006117626103e86108a5600d5486613c6b90919063ffffffff16565b9050600061177e866108a56117778e87613c8a565b8a90613c6b565b9050600084116117a05760405162461bcd60e51b81526004016106be9061448e565b898411156117c05760405162461bcd60e51b81526004016106be9061448e565b8b8110156118025760405162461bcd60e51b815260206004820152600f60248201526e0494e56414c49445f4d494e545f4c5608c1b60448201526064016106be565b61180b8b610bca565b9a50600660009054906101000a90046001600160a01b03166001600160a01b03166323b872dd33308e6040518463ffffffff1660e01b81526004016118529392919061458c565b6020604051808303816000875af1158015611871573d6000803e3d6000fd5b505050506040513d601f19601f820116820180604052508101906118959190614417565b506007546040516323b872dd60e01b81526001600160a01b03909116906323b872dd906118ca9033903090899060040161458c565b6020604051808303816000875af11580156118e9573d6000803e3d6000fd5b505050506040513d601f19601f8201168201806040525081019061190d9190614417565b5061191783610bca565b600654600e5460405163a9059cbb60e01b81529295506001600160a01b039182169263a9059cbb9261194f92169087906004016145b0565b6020604051808303816000875af115801561196e573d6000803e3d6000fd5b505050506040513d601f19601f820116820180604052508101906119929190614417565b50600754600e5460405163a9059cbb60e01b81526001600160a01b039283169263a9059cbb926119c99291169086906004016145b0565b6020604051808303816000875af11580156119e8573d6000803e3d6000fd5b505050506040513d601f19601f82011682018060405250810190611a0c9190614417565b50611a17338261415d565b6006546040516370a0823160e01b81523060048201527f28e12afd967cc11b786f1b1547f5e0da96ccc91ebb09bdd406248111a634e7e591339184918f9189916001600160a01b0316906370a0823190602401602060405180830381865afa158015611a87573d6000803e3d6000fd5b505050506040513d601f19601f82011682018060405250810190611aab91906144bb565b6007546040516370a0823160e01b81523060048201526001600160a01b03909116906370a0823190602401602060405180830381865afa158015611af3573d6000803e3d6000fd5b505050506040513d601f19601f82011682018060405250810190611b1791906144bb565b604051611b29969594939291906145c9565b60405180910390a19650611b3f95505050505050565b949350505050565b60008080611b53613adf565b600c549193509150600090611b7290620186a0906108a5908890613c6b565b90506000611b808683613c8a565b90506000610cdd828686612c68565b6000806000611b9d60025490565b905060008082600003611bb4575084905080611c18565b600080611bbf613adf565b9092509050611bd98261171e836108a5611717828e61421c565b92506000611bf86103e86108a5600d5487613c6b90919063ffffffff16565b9050611c12836108a5611c0b8785613c8a565b8990613c6b565b94505050505b909590945092505050565b6000806000611c3160025490565b905080841115611c3f578093505b600080611c4a613adf565b90925090506000611c5f846108a58986613c6b565b90506000611c71856108a58a86613c6b565b90506000611c906103e86108a5600d5486613c6b90919063ffffffff16565b90506000611caf6103e86108a5600d5486613c6b90919063ffffffff16565b9050611cbb8483613c8a565b9350611cc78382613c8a565b939a93995092975050505050505050565b611ce0613dbb565b611cea6000614228565b565b333214611d8057600954604051636c9b2a3f60e11b81523360048201526001600160a01b039091169063d936547e90602401602060405180830381865afa158015611d3b573d6000803e3d6000fd5b505050506040513d601f19601f82011682018060405250810190611d5f9190614417565b1515600114611d805760405162461bcd60e51b81526004016106be90614439565b42811015611da05760405162461bcd60e51b81526004016106be90614464565b60008311611dea5760405162461bcd60e51b81526020600482015260176024820152761253959053125117d3505617d513d2d15397d253941555604a1b60448201526064016106be565b60008211611e305760405162461bcd60e51b81526020600482015260136024820152721253959053125117d09054d157d3d555141555606a1b60448201526064016106be565b6006546040516370a0823160e01b81523060048201526001600160a01b03909116906370a0823190602401602060405180830381865afa158015611e78573d6000803e3d6000fd5b505050506040513d601f19601f82011682018060405250810190611e9c91906144bb565b8210611eba5760405162461bcd60e51b81526004016106be90614544565b611ec382612255565b9150600080611ed0613adf565b9092509050818410611ef45760405162461bcd60e51b81526004016106be90614500565b6000611f01858484610edf565b90506000611f21620186a06108a5600c5485613c6b90919063ffffffff16565b9050611f2d828261421c565b915086821115611f4f5760405162461bcd60e51b81526004016106be906144d4565b60008211611f6f5760405162461bcd60e51b81526004016106be9061448e565b6007546040516370a0823160e01b81523360048201526001600160a01b03909116906370a0823190602401602060405180830381865afa158015611fb7573d6000803e3d6000fd5b505050506040513d601f19601f82011682018060405250810190611fdb91906144bb565b82111561202a5760405162461bcd60e51b815260206004820152601f60248201527f544f4b454e5f494e5055545f4849474845525f555345525f42414c414e43450060448201526064016106be565b6007546040516323b872dd60e01b81526001600160a01b03909116906323b872dd9061205e9033903090879060040161458c565b6020604051808303816000875af115801561207d573d6000803e3d6000fd5b505050506040513d601f19601f820116820180604052508101906120a19190614417565b506120ab86610bca565b60065460405163a9059cbb60e01b81529197506001600160a01b03169063a9059cbb906120de9033908a906004016145b0565b6020604051808303816000875af11580156120fd573d6000803e3d6000fd5b505050506040513d601f19601f820116820180604052508101906121219190614417565b5060075460085460405163a9059cbb60e01b81526001600160a01b039283169263a9059cbb926121589291169085906004016145b0565b6020604051808303816000875af1158015612177573d6000803e3d6000fd5b505050506040513d601f19601f8201168201806040525081019061219b9190614417565b50600854600754604051632054895360e21b81526001600160a01b039182166004820152336024820152911690638152254c90604401600060405180830381600087803b1580156121eb57600080fd5b505af11580156121ff573d6000803e3d6000fd5b505050507ff116a588cdba1b14c04ffd8bca7fee39286e7c8d9da59d77c036430e4b415dbc3388848961223189610bca565b88604051612244969594939291906145c9565b60405180910390a150505050505050565b6000610be5620f42406108a584670de0b6b3a7640000613c6b565b60008033321461230757600954604051636c9b2a3f60e11b81523360048201526001600160a01b039091169063d936547e90602401602060405180830381865afa1580156122c2573d6000803e3d6000fd5b505050506040513d601f19601f820116820180604052508101906122e69190614417565b15156001146123075760405162461bcd60e51b81526004016106be90614439565b428310156123275760405162461bcd60e51b81526004016106be90614464565b6000861161236b5760405162461bcd60e51b81526020600482015260116024820152700494e56414c49445f414d4f554e545f4c5607c1b60448201526064016106be565b600085116123b55760405162461bcd60e51b81526020600482015260176024820152761253959053125117d3525397d09054d157d3d555141555604a1b60448201526064016106be565b600084116124005760405162461bcd60e51b81526020600482015260186024820152771253959053125117d3525397d513d2d15397d3d55514155560421b60448201526064016106be565b61240985612255565b9450600061241660025490565b3360009081526020819052604090205490915080881115612435578097505b818811156124855760405162461bcd60e51b815260206004820152601e60248201527f494e56414c49445f414d4f554e545f4c505f544f54414c5f535550504c59000060448201526064016106be565b600080612490613adf565b909250905060006124a5856108a58d86613c6b565b905060006124b7866108a58e86613c6b565b905060006124d66103e86108a5600d5486613c6b90919063ffffffff16565b905060006124f56103e86108a5600d5486613c6b90919063ffffffff16565b90506125018483613c8a565b935061250d8382613c8a565b92508c8410156125555760405162461bcd60e51b81526020600482015260136024820152721253959053125117d09054d157d3d555141555606a1b60448201526064016106be565b8b83101561259c5760405162461bcd60e51b81526020600482015260146024820152731253959053125117d513d2d15397d3d55514155560621b60448201526064016106be565b858411156125ec5760405162461bcd60e51b815260206004820152601f60248201527f424153455f4f55545055545f4849474845525f424153455f42414c414e43450060448201526064016106be565b848311156126465760405162461bcd60e51b815260206004820152602160248201527f544f4b454e5f4f55545055545f4849474845525f544f4b454e5f42414c414e436044820152604560f81b60648201526084016106be565b612650338f614033565b61265984610bca565b60065460405163a9059cbb60e01b81529195506001600160a01b03169063a9059cbb9061268c90339088906004016145b0565b6020604051808303816000875af11580156126ab573d6000803e3d6000fd5b505050506040513d601f19601f820116820180604052508101906126cf9190614417565b5060075460405163a9059cbb60e01b81526001600160a01b039091169063a9059cbb9061270290339087906004016145b0565b6020604051808303816000875af1158015612721573d6000803e3d6000fd5b505050506040513d601f19601f820116820180604052508101906127459190614417565b5061274f82610bca565b600654600e5460405163a9059cbb60e01b81529294506001600160a01b039182169263a9059cbb9261278792169086906004016145b0565b6020604051808303816000875af11580156127a6573d6000803e3d6000fd5b505050506040513d601f19601f820116820180604052508101906127ca9190614417565b50600754600e5460405163a9059cbb60e01b81526001600160a01b039283169263a9059cbb926128019291169085906004016145b0565b6020604051808303816000875af1158015612820573d6000803e3d6000fd5b505050506040513d601f19601f820116820180604052508101906128449190614417565b507f555901717744791e9e27303c0df147d5a5eea5b7098591b2c5f2138ed6a605de338f8686600660009054906101000a90046001600160a01b03166001600160a01b03166370a08231306040518263ffffffff1660e01b81526004016128ba91906001600160a01b0391909116815260200190565b602060405180830381865afa1580156128d7573d6000803e3d6000fd5b505050506040513d601f19601f820116820180604052508101906128fb91906144bb565b6007546040516370a0823160e01b81523060048201526001600160a01b03909116906370a0823190602401602060405180830381865afa158015612943573d6000803e3d6000fd5b505050506040513d601f19601f8201168201806040525081019061296791906144bb565b604051612979969594939291906145c9565b60405180910390a150919c909b509950505050505050505050565b61299f823383613e15565b6129a98282614033565b5050565b6129b5613dbb565b600e80546001600160a01b0319166001600160a01b0392909216919091179055565b606060048054610bfa906145fc565b600033816129f48286613353565b905083811015612a545760405162461bcd60e51b815260206004820152602560248201527f45524332303a2064656372656173656420616c6c6f77616e63652062656c6f77604482015264207a65726f60d81b60648201526084016106be565b610ed48286868403613c96565b600033610c8b818585613e8f565b612a77613dbb565b600a5460405163109cc30b60e21b81526001600160a01b03909116906342730c2c90612aa79030906004016148a5565b602060405180830381865afa158015612ac4573d6000803e3d6000fd5b505050506040513d601f19601f82011682018060405250810190612ae89190614417565b612b045760405162461bcd60e51b81526004016106be90614677565b600a54604051636bfb078d60e01b81526000916001600160a01b031690636bfb078d90612b359030906004016148c8565b602060405180830381865afa158015612b52573d6000803e3d6000fd5b505050506040513d601f19601f82011682018060405250810190612b76919061491b565b90506001600160a01b038116612bc05760405162461bcd60e51b815260206004820152600f60248201526e494e56414c49445f4144445245535360881b60448201526064016106be565b600980546001600160a01b0319166001600160a01b0383811691909117909155600a54604051636e977f0b60e01b8152911690636e977f0b90612c0890600190600401614938565b600060405180830381600087803b158015612c2257600080fd5b505af1158015612c36573d6000803e3d6000fd5b5050600a546040516345503fcb60e11b81526001600160a01b039091169250638aa07f969150610e869060040161497a565b60008083118015612c795750600082115b612cb55760405162461bcd60e51b815260206004820152600d60248201526c494e56414c49445f56414c554560981b60448201526064016106be565b600b546007546040516302c68be360e31b81526001600160a01b03918216600482015260009291909116906316345f1890602401602060405180830381865afa158015612d06573d6000803e3d6000fd5b505050506040513d601f19601f82011682018060405250810190612d2a91906144bb565b600b546006546040516302c68be360e31b81526001600160a01b0391821660048201529293506000929116906316345f1890602401602060405180830381865afa158015612d7c573d6000803e3d6000fd5b505050506040513d601f19601f82011682018060405250810190612da091906144bb565b90506000610cdd836108a58985613c6b565b6000806000612dc060025490565b905060008082600003612dd7575084905080611c18565b600080612de2613adf565b9092509050612e038161171e846108a5612dfc828e61421c565b8690613c6b565b92506000612e226103e86108a5600d548c613c6b90919063ffffffff16565b9050611c12836108a5611c0b8c85613c8a565b333214612ec957600954604051636c9b2a3f60e11b81523360048201526001600160a01b039091169063d936547e90602401602060405180830381865afa158015612e84573d6000803e3d6000fd5b505050506040513d601f19601f82011682018060405250810190612ea89190614417565b1515600114612ec95760405162461bcd60e51b81526004016106be90614439565b42811015612ee95760405162461bcd60e51b81526004016106be90614464565b60008311612f325760405162461bcd60e51b81526020600482015260166024820152751253959053125117d3505617d09054d157d25394155560521b60448201526064016106be565b60008211612f795760405162461bcd60e51b81526020600482015260146024820152731253959053125117d513d2d15397d3d55514155560621b60448201526064016106be565b6007546040516370a0823160e01b81523060048201526001600160a01b03909116906370a0823190602401602060405180830381865afa158015612fc1573d6000803e3d6000fd5b505050506040513d601f19601f82011682018060405250810190612fe591906144bb565b82106130035760405162461bcd60e51b81526004016106be9061498c565b61300c83612255565b9250600080613019613adf565b909250905080841061303d5760405162461bcd60e51b81526004016106be906149d5565b600061304a858484612c68565b9050600061306a620186a06108a5600c5485613c6b90919063ffffffff16565b9050613076828261421c565b9150868211156130985760405162461bcd60e51b81526004016106be906144d4565b600082116130b85760405162461bcd60e51b81526004016106be90614852565b6006546040516370a0823160e01b81523360048201526130ea916001600160a01b0316906370a0823190602401610937565b8211156131395760405162461bcd60e51b815260206004820152601e60248201527f424153455f494e5055545f4849474845525f555345525f42414c414e4345000060448201526064016106be565b61314282610bca565b6006546040516323b872dd60e01b81529193506001600160a01b0316906323b872dd906131779033903090879060040161458c565b6020604051808303816000875af1158015613196573d6000803e3d6000fd5b505050506040513d601f19601f820116820180604052508101906131ba9190614417565b5060075460405163a9059cbb60e01b81526001600160a01b039091169063a9059cbb906131ed9033908a906004016145b0565b6020604051808303816000875af115801561320c573d6000803e3d6000fd5b505050506040513d601f19601f820116820180604052508101906132309190614417565b5061323a81610bca565b60065460085460405163a9059cbb60e01b81529293506001600160a01b039182169263a9059cbb9261327292169085906004016145b0565b6020604051808303816000875af1158015613291573d6000803e3d6000fd5b505050506040513d601f19601f820116820180604052508101906132b59190614417565b50600854600654604051632054895360e21b81526001600160a01b039182166004820152336024820152911690638152254c90604401600060405180830381600087803b15801561330557600080fd5b505af1158015613319573d6000803e3d6000fd5b505050507f6e9d5a0202c67970b52b10deb68f1641a9408d90db857bc984d008c1be70383a3361334889610bca565b848961223189610bca565b6001600160a01b03918216600090815260016020908152604080832093909416825291909152205490565b33321461341257600954604051636c9b2a3f60e11b81523360048201526001600160a01b039091169063d936547e90602401602060405180830381865afa1580156133cd573d6000803e3d6000fd5b505050506040513d601f19601f820116820180604052508101906133f19190614417565b15156001146134125760405162461bcd60e51b81526004016106be90614439565b428110156134325760405162461bcd60e51b81526004016106be90614464565b600083116134525760405162461bcd60e51b81526004016106be90614852565b6000821161349d5760405162461bcd60e51b81526020600482015260186024820152771253959053125117d3525397d513d2d15397d3d55514155560421b60448201526064016106be565b6006546040516370a0823160e01b81523360048201526001600160a01b03909116906370a0823190602401602060405180830381865afa1580156134e5573d6000803e3d6000fd5b505050506040513d601f19601f8201168201806040525081019061350991906144bb565b8311156135585760405162461bcd60e51b815260206004820152601e60248201527f424153455f494e5055545f4849474845525f555345525f42414c414e4345000060448201526064016106be565b61356183612255565b925060008061356e613adf565b90925090508084106135ce5760405162461bcd60e51b815260206004820152602360248201527f4d494e5f544f4b454e5f4849474845525f504f4f4c5f544f4b454e5f42414c416044820152624e434560e81b60648201526084016106be565b60006135ec620186a06108a5600c5489613c6b90919063ffffffff16565b905060006135fa8783613c8a565b90506000613609828686610edf565b90508681101561362b5760405162461bcd60e51b81526004016106be906144d4565b83811061364a5760405162461bcd60e51b81526004016106be906149d5565b6007546040516370a0823160e01b81523060048201526001600160a01b03909116906370a0823190602401602060405180830381865afa158015613692573d6000803e3d6000fd5b505050506040513d601f19601f820116820180604052508101906136b691906144bb565b81106136d45760405162461bcd60e51b81526004016106be9061498c565b6136dd88610bca565b6006546040516323b872dd60e01b81529199506001600160a01b0316906323b872dd9061371290339030908d9060040161458c565b6020604051808303816000875af1158015613731573d6000803e3d6000fd5b505050506040513d601f19601f820116820180604052508101906137559190614417565b5060075460405163a9059cbb60e01b81526001600160a01b039091169063a9059cbb9061378890339085906004016145b0565b6020604051808303816000875af11580156137a7573d6000803e3d6000fd5b505050506040513d601f19601f820116820180604052508101906137cb9190614417565b506137d583610bca565b60065460085460405163a9059cbb60e01b81529295506001600160a01b039182169263a9059cbb9261380d92169087906004016145b0565b6020604051808303816000875af115801561382c573d6000803e3d6000fd5b505050506040513d601f19601f820116820180604052508101906138509190614417565b50600854600654604051632054895360e21b81526001600160a01b039182166004820152336024820152911690638152254c90604401600060405180830381600087803b1580156138a057600080fd5b505af11580156138b4573d6000803e3d6000fd5b505050507fd294be030e23d0862312f418541ec01d571908715169f1cb1109bba3212b8c2d33888a84610ba58a610bca565b6138ee613dbb565b600a5460405163109cc30b60e21b81526001600160a01b03909116906342730c2c9061391e903090600401614a43565b602060405180830381865afa15801561393b573d6000803e3d6000fd5b505050506040513d601f19601f8201168201806040525081019061395f9190614417565b61397b5760405162461bcd60e51b81526004016106be90614677565b600a54604051636bfb078d60e01b81526000916001600160a01b031690636bfb078d906139ac903090600401614a66565b602060405180830381865afa1580156139c9573d6000803e3d6000fd5b505050506040513d601f19601f820116820180604052508101906139ed919061491b565b90506001600160a01b038116613a375760405162461bcd60e51b815260206004820152600f60248201526e494e56414c49445f4144445245535360881b60448201526064016106be565b600880546001600160a01b0319166001600160a01b0383811691909117909155600a54604051636e977f0b60e01b8152911690636e977f0b90613a7f90600190600401614aba565b600060405180830381600087803b158015613a9957600080fd5b505af1158015613aad573d6000803e3d6000fd5b5050600a546040516345503fcb60e11b81526001600160a01b039091169250638aa07f969150610e8690600401614afd565b6006546040516370a0823160e01b8152306004820152600091829182916001600160a01b0316906370a0823190602401602060405180830381865afa158015613b2c573d6000803e3d6000fd5b505050506040513d601f19601f82011682018060405250810190613b5091906144bb565b9050613b5b81612255565b6007546040516370a0823160e01b81523060048201529192506000916001600160a01b03909116906370a0823190602401602060405180830381865afa158015613ba9573d6000803e3d6000fd5b505050506040513d601f19601f82011682018060405250810190613bcd91906144bb565b919491935090915050565b60008080613be4613adf565b90925090506000611b3f8284613c6b565b613bfd613dbb565b6001600160a01b038116613c625760405162461bcd60e51b815260206004820152602660248201527f4f776e61626c653a206e6577206f776e657220697320746865207a65726f206160448201526564647265737360d01b60648201526084016106be565b61105581614228565b6000613c778284614b0f565b9392505050565b6000613c778284614b26565b6000613c778284614b48565b6001600160a01b038316613cf85760405162461bcd60e51b8152602060048201526024808201527f45524332303a20617070726f76652066726f6d20746865207a65726f206164646044820152637265737360e01b60648201526084016106be565b6001600160a01b038216613d595760405162461bcd60e51b815260206004820152602260248201527f45524332303a20617070726f766520746f20746865207a65726f206164647265604482015261737360f01b60648201526084016106be565b6001600160a01b0383811660008181526001602090815260408083209487168084529482529182902085905590518481527f8c5be1e5ebec7d5bd14f71427d1e84f3dd0314c0f7b2291e5b200ac8c7c3b92591015b60405180910390a3505050565b6005546001600160a01b03163314611cea5760405162461bcd60e51b815260206004820181905260248201527f4f776e61626c653a2063616c6c6572206973206e6f7420746865206f776e657260448201526064016106be565b6000613e218484613353565b90506000198114613e895781811015613e7c5760405162461bcd60e51b815260206004820152601d60248201527f45524332303a20696e73756666696369656e7420616c6c6f77616e636500000060448201526064016106be565b613e898484848403613c96565b50505050565b6001600160a01b038316613ef35760405162461bcd60e51b815260206004820152602560248201527f45524332303a207472616e736665722066726f6d20746865207a65726f206164604482015264647265737360d81b60648201526084016106be565b6001600160a01b038216613f555760405162461bcd60e51b815260206004820152602360248201527f45524332303a207472616e7366657220746f20746865207a65726f206164647260448201526265737360e81b60648201526084016106be565b6001600160a01b03831660009081526020819052604090205481811015613fcd5760405162461bcd60e51b815260206004820152602660248201527f45524332303a207472616e7366657220616d6f756e7420657863656564732062604482015265616c616e636560d01b60648201526084016106be565b6001600160a01b03848116600081815260208181526040808320878703905593871680835291849020805487019055925185815290927fddf252ad1be2c89b69c2b068fc378daa952ba7f163c4a11628f55a4df523b3ef910160405180910390a3613e89565b6001600160a01b0382166140935760405162461bcd60e51b815260206004820152602160248201527f45524332303a206275726e2066726f6d20746865207a65726f206164647265736044820152607360f81b60648201526084016106be565b6001600160a01b038216600090815260208190526040902054818110156141075760405162461bcd60e51b815260206004820152602260248201527f45524332303a206275726e20616d6f756e7420657863656564732062616c616e604482015261636560f01b60648201526084016106be565b6001600160a01b0383166000818152602081815260408083208686039055600280548790039055518581529192917fddf252ad1be2c89b69c2b068fc378daa952ba7f163c4a11628f55a4df523b3ef9101613dae565b6001600160a01b0382166141b35760405162461bcd60e51b815260206004820152601f60248201527f45524332303a206d696e7420746f20746865207a65726f20616464726573730060448201526064016106be565b80600260008282546141c59190614760565b90915550506001600160a01b038216600081815260208181526040808320805486019055518481527fddf252ad1be2c89b69c2b068fc378daa952ba7f163c4a11628f55a4df523b3ef910160405180910390a35050565b6000613c778284614760565b600580546001600160a01b038381166001600160a01b0319831681179093556040519116919082907f8be0079c531659141344cd1fd0a4f28419497f9722a3daafe3b4186f6b6457e090600090a35050565b60008060006060848603121561428f57600080fd5b505081359360208301359350604090920135919050565b6000602082840312156142b857600080fd5b5035919050565b600060208083528351808285015260005b818110156142ec578581018301518582016040015282016142d0565b506000604082860101526040601f19601f8301168501019250505092915050565b6001600160a01b038116811461105557600080fd5b6000806040838503121561433557600080fd5b82356143408161430d565b946020939093013593505050565b60008060006060848603121561436357600080fd5b833561436e8161430d565b9250602084013561437e8161430d565b929592945050506040919091013590565b600080600080608085870312156143a557600080fd5b5050823594602084013594506040840135936060013592509050565b6000602082840312156143d357600080fd5b8135613c778161430d565b600080604083850312156143f157600080fd5b82356143fc8161430d565b9150602083013561440c8161430d565b809150509250929050565b60006020828403121561442957600080fd5b81518015158114613c7757600080fd5b6020808252601190820152701253959053125117d5d2125511531254d5607a1b604082015260600190565b60208082526010908201526f494e56414c49445f444541444c494e4560801b604082015260600190565b6020808252601390820152721253959053125117d513d2d15397d253941555606a1b604082015260600190565b6000602082840312156144cd57600080fd5b5051919050565b60208082526012908201527143414e5f4e4f545f4d414b455f545241444560701b604082015260600190565b60208082526024908201527f424153455f4f55545055545f4849474845525f504f4f4c5f424153455f42414c604082015263414e434560e01b606082015260800190565b60208082526028908201527f424153455f4f55545055545f4849474845525f43555252454e545f54524144456040820152675f42414c414e434560c01b606082015260800190565b6001600160a01b039384168152919092166020820152604081019190915260600190565b6001600160a01b03929092168252602082015260400190565b6001600160a01b03969096168652602086019490945260408501929092526060840152608083015260a082015260c00190565b600181811c9082168061461057607f821691505b60208210810361463057634e487b7160e01b600052602260045260246000fd5b50919050565b600b81526a736574547261646546656560a81b602082015260400190565b6001600160a01b0382168152604060208201819052600090613c77908301614636565b60208082526012908201527124a72b20a624a22fa822a926a4a9a9a4a7a760711b604082015260600190565b6001600160a01b03821681526060602082018190526000906146c6908301614636565b8281036040840152611b3f816008815267747261646546656560c01b602082015260400190565b6060815260006146ff60608301614636565b8281036020840152614726816008815267747261646546656560c01b602082015260400190565b91505060ff8316604083015292915050565b602081526000610be560208301614636565b634e487b7160e01b600052601160045260246000fd5b80820180821115610be557610be561474a565b600e81526d736574506c6174666f726d46656560901b602082015260400190565b6001600160a01b0382168152604060208201819052600090613c77908301614773565b6001600160a01b03821681526060602082018190526000906147da908301614773565b8281036040840152611b3f81600b81526a706c6174666f726d46656560a81b602082015260400190565b60608152600061481660608301614773565b828103602084015261472681600b81526a706c6174666f726d46656560a81b602082015260400190565b602081526000610be560208301614773565b6020808252601290820152711253959053125117d09054d157d25394155560721b604082015260600190565b60148152731cd95d15da1a5d195b1a5cdd10dbdb9d1c9858dd60621b602082015260400190565b6001600160a01b0382168152604060208201819052600090613c7790830161487e565b6001600160a01b03821681526060602082018190526000906148eb90830161487e565b8281036040840152611b3f8160118152701dda1a5d195b1a5cdd10dbdb9d1c9858dd607a1b602082015260400190565b60006020828403121561492d57600080fd5b8151613c778161430d565b60608152600061494a6060830161487e565b82810360208401526147268160118152701dda1a5d195b1a5cdd10dbdb9d1c9858dd607a1b602082015260400190565b602081526000610be56020830161487e565b60208082526029908201527f544f4b454e5f4f55545055545f4849474845525f43555252454e545f54524144604082015268455f42414c414e434560b81b606082015260800190565b60208082526026908201527f544f4b454e5f4f55545055545f4849474845525f504f4f4c5f544f4b454e5f42604082015265414c414e434560d01b606082015260800190565b60158152741cd95d119959535858da1a5b9950dbdb9d1c9858dd605a1b602082015260400190565b6001600160a01b0382168152604060208201819052600090613c77908301614a1b565b6001600160a01b0382168152606060208201819052600090614a89908301614a1b565b8281036040840152611b3f816012815271199959535858da1a5b9950dbdb9d1c9858dd60721b602082015260400190565b606081526000614acc60608301614a1b565b8281036020840152614726816012815271199959535858da1a5b9950dbdb9d1c9858dd60721b602082015260400190565b602081526000610be560208301614a1b565b8082028115828204841417610be557610be561474a565b600082614b4357634e487b7160e01b600052601260045260246000fd5b500490565b81810381811115610be557610be561474a56fea2646970667358221220875e41dd9c0efc2d48126e0e80bff4cf037ea107f10a3da2ccbe802267d8cba164736f6c63430008110033",
  "immutableReferences": {},
  "source": "// SPDX-License-Identifier: MIT\npragma solidity >=0.6.12;\n\nimport \"@openzeppelin/contracts/utils/math/SafeMath.sol\";\nimport \"@openzeppelin/contracts/token/ERC20/IERC20.sol\";\nimport \"@openzeppelin/contracts/token/ERC20/ERC20.sol\";\nimport \"@openzeppelin/contracts/token/ERC20/extensions/ERC20Burnable.sol\";\nimport \"@openzeppelin/contracts/utils/Context.sol\";\nimport \"@openzeppelin/contracts/access/Ownable.sol\";\n\nimport './interfaces/IGarbiswapFeeMachine.sol';\nimport './interfaces/IGarbiswapWhitelist.sol';\nimport './interfaces/IGarbiTimeLock.sol';\nimport './interfaces/IGarbiOracle.sol';\n\ncontract GarbiswapTradeDAIUSDC is ERC20Burnable, Ownable {\n    \n    using SafeMath for uint256;\n\n    IERC20 public base; // Stable coin base token (USDC)\n    IERC20 public token; // Token to trade in this pair\n\n    // Fee Machine Contract.\n    IGarbiswapFeeMachine public feeMachineContract; \n\n    IGarbiswapWhitelist public whitelistContract; \n\n    IGarbiTimeLock public garbiTimeLockContract;\n\n    IGarbiOracle public garbiOracle;\n\n    uint256 public TRADE_FEE = 35; //0.035% 35/100000\n\n    uint256 public PLATFORM_FEE = 25; //2.5% 25/1000\n\n    address public platformFundAddress;\n\n    modifier onlyWhitelist()\n    {\n        if (msg.sender != tx.origin) {\n            require(whitelistContract.whitelisted(msg.sender) == true, 'INVALID_WHITELIST');\n        }\n        _;\n    }\n\n    // Events\n\n    event onSwapBaseToTokenWithBaseInput(address sender, uint256 minTokenOutput, uint256 baseInputAmount, uint256 tokenOutputAmount, uint256 poolBaseBalance, uint256 poolTokenBalance);\n    event onSwapBaseToTokenWithTokenOutput(address sender, uint256 maxBaseInput, uint256 baseInputAmount, uint256 tokenOutputAmount, uint256 poolBaseBalance, uint256 poolTokenBalance);\n    \n    event onSwapTokenToBaseWithTokenInput(address sender, uint256 minBaseOutput, uint256 tokenInputAmount, uint256 baseOutputAmount, uint256 poolBaseBalance, uint256 poolTokenBalance);\n    event onSwapTokenToBaseWithBaseOutput(address sender, uint256 maxTokenInput, uint256 tokenInputAmount, uint256 baseOutputAmount, uint256 poolBaseBalance, uint256 poolTokenBalance);\n\n    event onAddLP(address sender, uint256 mintLP, uint256 baseInputAmount, uint256 tokenInputAmount, uint256 poolBaseBalance, uint256 poolTokenBalance);\n    event onRemoveLP(address sender, uint256 amountLP, uint256 baseOutputAmout, uint256 tokenOutputAmount, uint256 poolBaseBalance, uint256 poolTokenBalance);\n\n    constructor(\n        IERC20 _base,\n        IERC20 _token,\n        IGarbiTimeLock _garbiTimeLockContract,\n        IGarbiswapFeeMachine _feeMachineContract,\n        IGarbiswapWhitelist _whitelistContract,\n        IGarbiOracle _garbiOracle,\n        string memory name, \n        string memory symbol\n        ) ERC20(name, symbol) {\n        base = _base;\n        token = _token;\n        garbiTimeLockContract = _garbiTimeLockContract;\n        whitelistContract = _whitelistContract;\n        feeMachineContract = _feeMachineContract;\n        garbiOracle = _garbiOracle;\n        platformFundAddress = _msgSender();\n    }\n\n    function setWhitelistContract() public onlyOwner {\n        require(garbiTimeLockContract.isQueuedTransaction(address(this), 'setWhitelistContract'), \"INVALID_PERMISSION\");\n\n        address _whitelistContract = garbiTimeLockContract.getAddressChangeOnTimeLock(address(this), 'setWhitelistContract', 'whitelistContract');\n\n        require(_whitelistContract != address(0), \"INVALID_ADDRESS\");\n\n        whitelistContract = IGarbiswapWhitelist(_whitelistContract);\n\n        garbiTimeLockContract.clearFieldValue('setWhitelistContract', 'whitelistContract', 1);\n        garbiTimeLockContract.doneTransactions('setWhitelistContract');\n    }\n\n    function setFeeMachineContract() public onlyOwner {\n\n        require(garbiTimeLockContract.isQueuedTransaction(address(this), 'setFeeMachineContract'), \"INVALID_PERMISSION\");\n\n        address _feeMachineContract = garbiTimeLockContract.getAddressChangeOnTimeLock(address(this), 'setFeeMachineContract', 'feeMachineContract');\n\n        require(_feeMachineContract != address(0), \"INVALID_ADDRESS\");\n\n        feeMachineContract = IGarbiswapFeeMachine(_feeMachineContract);\n\n        garbiTimeLockContract.clearFieldValue('setFeeMachineContract', 'feeMachineContract', 1);\n        garbiTimeLockContract.doneTransactions('setFeeMachineContract');\n    }\n\n    function setTradeFee() public onlyOwner {\n\n        require(garbiTimeLockContract.isQueuedTransaction(address(this), 'setTradeFee'), \"INVALID_PERMISSION\");\n\n        uint256 _tradeFee = garbiTimeLockContract.getUintChangeOnTimeLock(address(this), 'setTradeFee', 'tradeFee');\n\n        TRADE_FEE = _tradeFee;\n\n        garbiTimeLockContract.clearFieldValue('setTradeFee', 'tradeFee', 2);\n        garbiTimeLockContract.doneTransactions('setTradeFee');\n    }\n\n    function setPlatformFee() public onlyOwner {\n\n        require(garbiTimeLockContract.isQueuedTransaction(address(this), 'setPlatformFee'), \"INVALID_PERMISSION\");\n\n        uint256 _platformFee = garbiTimeLockContract.getUintChangeOnTimeLock(address(this), 'setPlatformFee', 'platformFee');\n\n        PLATFORM_FEE = _platformFee;\n\n        garbiTimeLockContract.clearFieldValue('setPlatformFee', 'platformFee', 2);\n        garbiTimeLockContract.doneTransactions('setPlatformFee');\n    }\n\n    function setPlatformFundAdress(address newAddress) public onlyOwner {\n        platformFundAddress = newAddress;\n    }\n\n    function getK() public view returns(uint256) {\n        uint256 baseReserve = 0;\n        uint256 tokenReserve = 0;\n        (baseReserve, tokenReserve) = getTotalReserve();\n        uint256 k = tokenReserve.mul(baseReserve);\n        return k;\n    }\n\n    function getTokenOutput(uint256 baseInputAmount) public view returns (uint256) {\n        uint256 baseReserve = 0;\n        uint256 tokenReserve = 0;\n        (baseReserve, tokenReserve) = getTotalReserve();\n\n        uint256 tradeFee = baseInputAmount.mul(TRADE_FEE).div(100000);\n        uint256 baseInputAmountAfterFee = baseInputAmount.sub(tradeFee); // cut the TRADE_FEE from base input\n\n        uint256 tokenOutputAmount = getTokenOutputAmountFromBaseInput(baseInputAmountAfterFee, baseReserve, tokenReserve);\n        return tokenOutputAmount;\n    }\n\n    function getBaseOutput(uint256 tokenInputAmount) public view returns (uint256) {\n        uint256 baseReserve = 0;\n        uint256 tokenReserve = 0;\n        (baseReserve, tokenReserve) = getTotalReserve();\n\n        uint256 tradeFee = tokenInputAmount.mul(TRADE_FEE).div(100000);\n        uint256 tokenInputAmountAfterFee = tokenInputAmount.sub(tradeFee); // cut the TRADE_FEE from token input\n\n        uint256 baseOutputAmount = getBaseOutputAmountFromTokenInput(tokenInputAmountAfterFee, baseReserve, tokenReserve);\n        return baseOutputAmount;\n    }\n\n    function getDataFromBaseInputToAddLp(uint256 baseInputAmount) public view returns (uint256, uint256) {\n        uint256 totalSupply = totalSupply();\n        uint256 mintLP = 0;\n        uint256 tokenInputAmount = 0;\n        if(totalSupply == 0) {\n            mintLP = baseInputAmount;\n            tokenInputAmount = baseInputAmount;\n        }\n        else { \n            // tokenReserve/baseReserve = (tokenReserve+tokenInputAmount)/(baseReserve+baseInputAmount)\n            // => tokenReserve+tokenInputAmount = tokenReserve*(baseReserve+baseInputAmount)/baseReserve\n            // => tokenInputAmount = tokenReserve*(baseReserve+baseInputAmount)/baseReserve - tokenReserve;\n            uint256 baseReserve = 0;\n            uint256 tokenReserve = 0;\n            (baseReserve, tokenReserve) = getTotalReserve();\n            tokenInputAmount = tokenReserve.mul(baseReserve.add(baseInputAmount)).div(baseReserve).sub(tokenReserve);\n\n            uint256 platformFeeOnBase = baseInputAmount.mul(PLATFORM_FEE).div(1000);\n\n            // mintLP/totalLP =  baseInputAmount/baseReserve\n            // mintLP = totalLP*baseInputAmount/baseReserve\n            mintLP = totalSupply.mul(baseInputAmount.sub(platformFeeOnBase)).div(baseReserve);\n        }\n        return (mintLP, tokenInputAmount);\n    }\n\n    function getDataFromTokenInputToAddLp(uint256 tokenInputAmount) public view returns (uint256, uint256) {\n        uint256 totalSupply = totalSupply();\n        uint256 mintLP;\n        uint256 baseInputAmount;\n        if(totalSupply == 0) {\n            mintLP = tokenInputAmount;\n            baseInputAmount = tokenInputAmount;\n        }\n        else { \n            // tokenReserve/baseReserve = (tokenReserve+tokenInputAmount)/(baseReserve+baseInputAmount)\n            // => (baseReserve+baseInputAmount) = (tokenReserve+tokenInputAmount) * baseReserve / tokenReserve\n            //  => baseInputAmount = (tokenReserve+tokenInputAmount) * baseReserve / tokenReserve - baseReserve\n            uint256 baseReserve = 0;\n            uint256 tokenReserve = 0;\n            (baseReserve, tokenReserve) = getTotalReserve();\n\n            baseInputAmount = baseReserve.mul(tokenReserve.add(tokenInputAmount)).div(tokenReserve).sub(baseReserve);\n\n            uint256 platformFeeOnBase = baseInputAmount.mul(PLATFORM_FEE).div(1000);\n\n            // mintLP/totalLP =  baseInputAmount/baseReserve\n            // mintLP = totalLP*baseInputAmount/baseReserve\n            mintLP = totalSupply.mul(baseInputAmount.sub(platformFeeOnBase)).div(baseReserve);\n        }\n        return (mintLP, baseInputAmount);\n    }\n\n    function getDataToRemoveLP(uint256 amountLP) public view returns (uint256, uint256){\n        \n        uint256 totalSupply = totalSupply();\n\n        if (amountLP > totalSupply) {\n            amountLP = totalSupply;\n        } \n        uint256 baseReserve = 0;\n        uint256 tokenReserve = 0;\n        (baseReserve, tokenReserve) = getTotalReserve();\n        \n        // amountLP/totalSupply = baseOutputAmount/baseReserve\n        // => baseOutputAmount = amountLP*baseReserve/totalSupply\n        uint256 baseOutputAmount = amountLP.mul(baseReserve).div(totalSupply);\n        uint256 tokenOutputAmount = amountLP.mul(tokenReserve).div(totalSupply);\n        \n        uint256 platformFeeOnBase = baseOutputAmount.mul(PLATFORM_FEE).div(1000);\n        uint256 platformFeeOnToken = tokenOutputAmount.mul(PLATFORM_FEE).div(1000);\n        \n        baseOutputAmount = baseOutputAmount.sub(platformFeeOnBase);\n        tokenOutputAmount = tokenOutputAmount.sub(platformFeeOnToken);\n        \n        return (baseOutputAmount, tokenOutputAmount);\n    }\n    \n    //tokenOutputAmount/baseInputAmount = tokenPriceFromOracle/basePriceFromOracle\n    //tokenOutputAmount = baseInputAmount*tokenPriceFromOracle/basePriceFromOracle\n    function getTokenOutputAmountFromBaseInput(uint256 baseInputAmount, uint256 baseReserve, uint256 tokenReserve) public view returns (uint256) {\n      require(baseReserve > 0 && tokenReserve > 0, \"INVALID_VALUE\");\n      uint256 tokenPriceFromOracle = garbiOracle.getLatestPrice(address(token));\n      uint256 basePriceFromOracle = garbiOracle.getLatestPrice(address(base));\n      uint256 tokenOutputAmount = baseInputAmount.mul(tokenPriceFromOracle).div(basePriceFromOracle);\n      return tokenOutputAmount;\n    }\n    \n    //tokenOutputAmount/baseInputAmount = tokenPriceFromOracle/basePriceFromOracle\n    //baseInputAmount = tokenOutputAmount*basePriceFromOracle/tokenPriceFromOracle\n    function getBaseInputAmountFromTokenOutput(uint256 tokenOutputAmount, uint256 baseReserve, uint256 tokenReserve) public view  returns (uint256) {\n      require(baseReserve > 0 && tokenReserve > 0, \"INVALID_VALUE\");\n      uint256 tokenPriceFromOracle = garbiOracle.getLatestPrice(address(token));\n      uint256 basePriceFromOracle = garbiOracle.getLatestPrice(address(base));\n      uint256 baseInputAmount = tokenOutputAmount.mul(basePriceFromOracle).div(tokenPriceFromOracle);\n      return baseInputAmount;\n    }\n    \n    //tokenInputAmount/baseOutputAmount = tokenPriceFromOracle/basePriceFromOracle\n    //baseOutputAmount = tokenInputAmount*basePriceFromOracle/tokenPriceFromOracle\n    function getBaseOutputAmountFromTokenInput(uint256 tokenInputAmount, uint256 baseReserve, uint256 tokenReserve) public view returns (uint256) {\n      require(baseReserve > 0 && tokenReserve > 0, \"INVALID_VALUE\");\n      uint256 tokenPriceFromOracle = garbiOracle.getLatestPrice(address(token));\n      uint256 basePriceFromOracle = garbiOracle.getLatestPrice(address(base));\n      uint256 baseOutputAmount = tokenInputAmount.mul(basePriceFromOracle).div(tokenPriceFromOracle);\n      return baseOutputAmount;\n    }\n\n    //tokenInputAmount/baseOutputAmount = tokenPriceFromOracle/basePriceFromOracle\n    //tokenInputAmount = baseOutputAmount*tokenPriceFromOracle/basePriceFromOracle\n    function getTokenInputAmountFromBaseOutput(uint256 baseOutputAmount, uint256 baseReserve, uint256 tokenReserve) public view returns (uint256) {\n      require(baseReserve > 0 && tokenReserve > 0, \"INVALID_VALUE\");\n      uint256 tokenPriceFromOracle = garbiOracle.getLatestPrice(address(token));\n      uint256 basePriceFromOracle = garbiOracle.getLatestPrice(address(base));\n      uint256 tokenInputAmount = baseOutputAmount.mul(tokenPriceFromOracle).div(basePriceFromOracle);\n      return tokenInputAmount;\n    }\n\n    function swapBaseToTokenWithBaseInput(uint256 baseInputAmount, uint256 minTokenOutput, uint256 deadline) public onlyWhitelist {\n        require(deadline >= block.timestamp, 'INVALID_DEADLINE');\n        require(baseInputAmount > 0, 'INVALID_BASE_INPUT');\n        require(minTokenOutput > 0, 'INVALID_MIN_TOKEN_OUTPUT');\n        require(baseInputAmount <= base.balanceOf(msg.sender), 'BASE_INPUT_HIGHER_USER_BALANCE');\n        \n        baseInputAmount = convertDecimal6to18(baseInputAmount);\n\n        uint256 baseReserve = 0;\n        uint256 tokenReserve = 0;\n        (baseReserve, tokenReserve) = getTotalReserve();\n        require(minTokenOutput < tokenReserve, \"MIN_TOKEN_HIGHER_POOL_TOKEN_BALANCE\");\n        \n        uint256 tradeFee = baseInputAmount.mul(TRADE_FEE).div(100000);\n        uint256 baseInputAmountAfterFee = baseInputAmount.sub(tradeFee); // cut the TRADE_FEE from base input\n        \n        uint256 tokenOutputAmount = getTokenOutputAmountFromBaseInput(baseInputAmountAfterFee, baseReserve, tokenReserve);\n\n        require(tokenOutputAmount >= minTokenOutput, 'CAN_NOT_MAKE_TRADE');\n        require(tokenOutputAmount < tokenReserve, 'TOKEN_OUTPUT_HIGHER_POOL_TOKEN_BALANCE');\n        require(tokenOutputAmount < token.balanceOf(address(this)), 'TOKEN_OUTPUT_HIGHER_CURRENT_TRADE_BALANCE'); // output is higher than the trade contract balance\n        \n        //make trade\n        baseInputAmount = convertDecimal18to6(baseInputAmount);\n        base.transferFrom(msg.sender, address(this), baseInputAmount);\n\n        token.transfer(msg.sender, tokenOutputAmount);\n\n        //transfer fee\n        tradeFee = convertDecimal18to6(tradeFee);\n        base.transfer(address(feeMachineContract), tradeFee);\n        feeMachineContract.processTradeFee(base, msg.sender); \n\n        emit onSwapBaseToTokenWithBaseInput(msg.sender, minTokenOutput, baseInputAmount, tokenOutputAmount, convertDecimal18to6(baseReserve), tokenReserve);\n    }\n\n    function swapBaseToTokenWithTokenOutput(uint256 maxBaseInput, uint256 tokenOutputAmount, uint256 deadline) public onlyWhitelist {\n        require(deadline >= block.timestamp, 'INVALID_DEADLINE');\n        require(maxBaseInput > 0, 'INVALID_MAX_BASE_INPUT');\n        require(tokenOutputAmount > 0, 'INVALID_TOKEN_OUTPUT');\n        require(tokenOutputAmount < token.balanceOf(address(this)), 'TOKEN_OUTPUT_HIGHER_CURRENT_TRADE_BALANCE'); // output is higher than the trade contract balance\n        \n        maxBaseInput = convertDecimal6to18(maxBaseInput);\n\n        uint256 baseReserve = 0;\n        uint256 tokenReserve = 0;\n        (baseReserve, tokenReserve) = getTotalReserve();\n        require(tokenOutputAmount < tokenReserve, \"TOKEN_OUTPUT_HIGHER_POOL_TOKEN_BALANCE\");\n\n        uint256 baseInputAmount = getBaseInputAmountFromTokenOutput(tokenOutputAmount, baseReserve, tokenReserve);\n        \n        uint256 tradeFee = baseInputAmount.mul(TRADE_FEE).div(100000);\n        baseInputAmount = baseInputAmount.add(tradeFee); // add the TRADE_FEE to base input\n\n        require(baseInputAmount <= maxBaseInput, 'CAN_NOT_MAKE_TRADE');\n        require(baseInputAmount > 0, 'INVALID_BASE_INPUT');\n        require(baseInputAmount <= convertDecimal6to18(base.balanceOf(msg.sender)), 'BASE_INPUT_HIGHER_USER_BALANCE');\n        \n        //make trade\n        baseInputAmount = convertDecimal18to6(baseInputAmount);\n        base.transferFrom(msg.sender, address(this), baseInputAmount);\n\n        token.transfer(msg.sender, tokenOutputAmount);\n\n        //transfer fee\n        tradeFee = convertDecimal18to6(tradeFee);\n        base.transfer(address(feeMachineContract), tradeFee);\n        feeMachineContract.processTradeFee(base, msg.sender);\n\n        emit onSwapBaseToTokenWithTokenOutput(msg.sender, convertDecimal18to6(maxBaseInput), baseInputAmount, tokenOutputAmount, convertDecimal18to6(baseReserve), tokenReserve);\n    }\n\n    function swapTokenToBaseWithTokenInput(uint256 tokenInputAmount, uint256 minBaseOutput, uint256 deadline) public onlyWhitelist {\n        require(deadline >= block.timestamp, 'INVALID_DEADLINE');\n        require(minBaseOutput > 0, 'INVALID_MIN_BASE_OUTPUT');\n        require(tokenInputAmount > 0, 'INVALID_TOKEN_INPUT');\n        require(tokenInputAmount <= token.balanceOf(msg.sender), 'TOKEN_INPUT_HIGHER_USER_BALANCE');\n\n        minBaseOutput = convertDecimal6to18(minBaseOutput);\n\n        uint256 baseReserve = 0;\n        uint256 tokenReserve = 0;\n        (baseReserve, tokenReserve) = getTotalReserve();\n        require(minBaseOutput < baseReserve, 'MIN_BASE_OUTPUT_HIGHER_POOL_BASE_BALANCE');\n\n        uint256 tradeFee = tokenInputAmount.mul(TRADE_FEE).div(100000);\n        uint256 tokenInputAmountAfterFee = tokenInputAmount.sub(tradeFee); // cut the TRADE_FEE from token input\n        \n        uint256 baseOutputAmount = getBaseOutputAmountFromTokenInput(tokenInputAmountAfterFee, baseReserve, tokenReserve);\n\n        require(baseOutputAmount >= minBaseOutput, 'CAN_NOT_MAKE_TRADE');\n        require(baseOutputAmount < baseReserve, 'BASE_OUTPUT_HIGHER_POOL_BASE_BALANCE');\n        require(baseOutputAmount < convertDecimal6to18(base.balanceOf(address(this))), 'BASE_OUTPUT_HIGHER_CURRENT_TRADE_BALANCE'); // output is higher than the trade contract balance\n\n        //make trade\n        token.transferFrom(msg.sender, address(this), tokenInputAmount);\n\n        baseOutputAmount = convertDecimal18to6(baseOutputAmount);\n        base.transfer(msg.sender, baseOutputAmount);\n\n        //transfer fee\n        token.transfer(address(feeMachineContract), tradeFee);\n        feeMachineContract.processTradeFee(token, msg.sender);\n\n        emit onSwapTokenToBaseWithTokenInput(msg.sender, convertDecimal18to6(minBaseOutput), tokenInputAmount, baseOutputAmount, convertDecimal18to6(baseReserve), tokenReserve);\n    }\n\n    function swapTokenToBaseWithBaseOutput(uint256 maxTokenInput, uint256 baseOutputAmount, uint256 deadline) public onlyWhitelist {\n        require(deadline >= block.timestamp, 'INVALID_DEADLINE');\n        require(maxTokenInput > 0, 'INVALID_MAX_TOKEN_INPUT');\n        require(baseOutputAmount > 0, 'INVALID_BASE_OUTPUT');\n        require(baseOutputAmount < base.balanceOf(address(this)), 'BASE_OUTPUT_HIGHER_CURRENT_TRADE_BALANCE'); // output is higher than the trade contract balance\n        \n        baseOutputAmount = convertDecimal6to18(baseOutputAmount);\n\n        uint256 baseReserve = 0;\n        uint256 tokenReserve = 0;\n        (baseReserve, tokenReserve) = getTotalReserve();\n        require(baseOutputAmount < baseReserve, 'BASE_OUTPUT_HIGHER_POOL_BASE_BALANCE');\n\n        uint256 tokenInputAmount = getTokenInputAmountFromBaseOutput(baseOutputAmount, baseReserve, tokenReserve);\n        \n        uint256 tradeFee = tokenInputAmount.mul(TRADE_FEE).div(100000);\n        tokenInputAmount = tokenInputAmount.add(tradeFee); // add the TRADE_FEE to token input\n\n        require(tokenInputAmount <= maxTokenInput, 'CAN_NOT_MAKE_TRADE');\n        require(tokenInputAmount > 0, 'INVALID_TOKEN_INPUT');\n        require(tokenInputAmount <= token.balanceOf(msg.sender), 'TOKEN_INPUT_HIGHER_USER_BALANCE');\n\n        //make trade\n        token.transferFrom(msg.sender, address(this), tokenInputAmount);\n        \n        baseOutputAmount = convertDecimal18to6(baseOutputAmount);\n        base.transfer(msg.sender, baseOutputAmount);\n\n        //transfer fee\n        token.transfer(address(feeMachineContract), tradeFee);\n        feeMachineContract.processTradeFee(token, msg.sender);\n\n        emit onSwapTokenToBaseWithBaseOutput(msg.sender, maxTokenInput, tokenInputAmount, baseOutputAmount, convertDecimal18to6(baseReserve), tokenReserve);\n    }\n\n    function addLP(uint256 minLP, uint256 baseInputAmount, uint256 maxTokenInputAmount, uint256 deadline) public onlyWhitelist returns (uint256) {\n        require(deadline >= block.timestamp, 'INVALID_DEADLINE');\n        require(minLP > 0, 'INVALID_MIN_LP');\n        require(baseInputAmount > 0, 'INVALID_BASE_INPUT');\n        require(maxTokenInputAmount > 0, 'INVALID_MAX_TOKEN_INPUT');\n        \n        uint256 totalSupply = totalSupply();\n        if(totalSupply == 0) {\n            base.transferFrom(msg.sender, address(this), baseInputAmount);\n            token.transferFrom(msg.sender, address(this), maxTokenInputAmount);\n\n            baseInputAmount = convertDecimal6to18(baseInputAmount);\n\n            uint256 platformFeeOnBase = baseInputAmount.mul(PLATFORM_FEE).div(1000);\n            uint256 platformFeeOnToken = maxTokenInputAmount.mul(PLATFORM_FEE).div(1000);\n            \n            uint256 initLP = baseInputAmount.sub(platformFeeOnBase);\n\n            platformFeeOnBase = convertDecimal18to6(platformFeeOnBase);\n            base.transfer(platformFundAddress, platformFeeOnBase);\n            token.transfer(platformFundAddress, platformFeeOnToken);\n            \n            _mint(msg.sender, initLP);\n            emit onAddLP(msg.sender, initLP, convertDecimal18to6(baseInputAmount), maxTokenInputAmount, base.balanceOf(address(this)), token.balanceOf(address(this)));\n            return initLP;\n        }\n        else {\n            baseInputAmount = convertDecimal6to18(baseInputAmount);\n            // tokenReserve/baseReserve = (tokenReserve+tokenInputAmount)/(baseReserve+baseInputAmount)\n            // => tokenReserve+tokenInputAmount = tokenReserve*(baseReserve+baseInputAmount)/baseReserve\n            // => tokenInputAmount = tokenReserve*(baseReserve+baseInputAmount)/baseReserve - tokenReserve;\n            uint256 baseReserve = 0;\n            uint256 tokenReserve = 0;\n            (baseReserve, tokenReserve) = getTotalReserve();\n            uint256 tokenInputAmount = tokenReserve.mul(baseReserve.add(baseInputAmount)).div(baseReserve).sub(tokenReserve);\n\n            uint256 platformFeeOnBase = baseInputAmount.mul(PLATFORM_FEE).div(1000);\n            uint256 platformFeeOnToken = tokenInputAmount.mul(PLATFORM_FEE).div(1000);\n\n            // mintLP/totalLP =  baseInputAmount/baseReserve\n            // mintLP = totalLP*baseInputAmount/baseReserve\n            uint256 mintLP = totalSupply.mul(baseInputAmount.sub(platformFeeOnBase)).div(baseReserve);\n            \n            require(tokenInputAmount > 0, 'INVALID_TOKEN_INPUT');\n            require(tokenInputAmount <= maxTokenInputAmount, 'INVALID_TOKEN_INPUT');\n            require(mintLP >= minLP, \"INVALID_MINT_LP\");\n            \n            baseInputAmount = convertDecimal18to6(baseInputAmount);\n            base.transferFrom(msg.sender, address(this), baseInputAmount);\n            token.transferFrom(msg.sender, address(this), tokenInputAmount);\n\n            platformFeeOnBase = convertDecimal18to6(platformFeeOnBase);\n            base.transfer(platformFundAddress, platformFeeOnBase);\n            token.transfer(platformFundAddress, platformFeeOnToken);\n\n            _mint(msg.sender, mintLP);\n            emit onAddLP(msg.sender, mintLP, baseInputAmount, tokenInputAmount, base.balanceOf(address(this)), token.balanceOf(address(this)));\n            return mintLP;\n        }\n    }\n\n    function removeLP(uint256 amountLP, uint256 minBaseOutput, uint256 minTokenOutput, uint256 deadline) public onlyWhitelist returns (uint256, uint256){\n        require(deadline >= block.timestamp, 'INVALID_DEADLINE');\n        require(amountLP > 0, 'INVALID_AMOUNT_LP');\n        require(minBaseOutput > 0, 'INVALID_MIN_BASE_OUTPUT');\n        require(minTokenOutput > 0, 'INVALID_MIN_TOKEN_OUTPUT');\n        \n        minBaseOutput = convertDecimal6to18(minBaseOutput);\n\n        uint256 totalSupply = totalSupply();\n        \n        uint256 userLPbalance = balanceOf(msg.sender);\n        if(amountLP > userLPbalance) {\n            amountLP = userLPbalance;\n        }\n\n        require(amountLP <= totalSupply, 'INVALID_AMOUNT_LP_TOTAL_SUPPLY');\n         \n        uint256 baseReserve = 0;\n        uint256 tokenReserve = 0;\n        (baseReserve, tokenReserve) = getTotalReserve();\n        \n        // amountLP/totalSupply = baseOutputAmount/baseReserve\n        // => baseOutputAmount = amountLP*baseReserve/totalSupply\n        uint256 baseOutputAmount = amountLP.mul(baseReserve).div(totalSupply);\n        uint256 tokenOutputAmount = amountLP.mul(tokenReserve).div(totalSupply);\n\n        uint256 platformFeeOnBase = baseOutputAmount.mul(PLATFORM_FEE).div(1000);\n        uint256 platformFeeOnToken = tokenOutputAmount.mul(PLATFORM_FEE).div(1000);\n        \n        baseOutputAmount = baseOutputAmount.sub(platformFeeOnBase);\n        tokenOutputAmount = tokenOutputAmount.sub(platformFeeOnToken);\n\n        require(baseOutputAmount >= minBaseOutput, \"INVALID_BASE_OUTPUT\");\n        require(tokenOutputAmount >= minTokenOutput, \"INVALID_TOKEN_OUTPUT\");\n        require(baseOutputAmount <= baseReserve, \"BASE_OUTPUT_HIGHER_BASE_BALANCE\");\n        require(tokenOutputAmount <= tokenReserve, \"TOKEN_OUTPUT_HIGHER_TOKEN_BALANCE\");\n\n        _burn(msg.sender, amountLP);\n        \n        baseOutputAmount = convertDecimal18to6(baseOutputAmount);\n        base.transfer(msg.sender, baseOutputAmount);\n\n        token.transfer(msg.sender, tokenOutputAmount);\n\n        platformFeeOnBase = convertDecimal18to6(platformFeeOnBase);\n        base.transfer(platformFundAddress, platformFeeOnBase);\n\n        token.transfer(platformFundAddress, platformFeeOnToken);\n\n        emit onRemoveLP(msg.sender, amountLP, baseOutputAmount, tokenOutputAmount, base.balanceOf(address(this)), token.balanceOf(address(this)));\n        return (baseOutputAmount, tokenOutputAmount);\n    }\n\n    function getTotalReserve() public view returns (uint256, uint256) { \n        uint256 baseReserve = base.balanceOf(address(this));\n        baseReserve = convertDecimal6to18(baseReserve);\n\n        uint256 tokenReserve = token.balanceOf(address(this));\n\n        return (baseReserve, tokenReserve);\n    }\n\n    function convertDecimal6to18(uint256 number) public pure returns (uint256) { \n        number = number.mul(1e18).div(1e6);\n        return number;\n    }\n\n    function convertDecimal18to6(uint256 number) public pure returns (uint256) { \n        number = number.mul(1e6).div(1e18);\n        return number;\n    }\n}",
  "sourcePath": "/Applications/projects/garbiprotocol.github.io/garbi_contracts/contracts/GarbiswapTradeDAIUSDC.sol",
  "compiler": {
    "name": "solc",
    "version": "0.8.17+commit.8df45f5f.Emscripten.clang"
  },
  "schemaVersion": "3.4.11",
  "updatedAt": "2023-01-11T15:03:34.088Z",
  "devdoc": {
    "kind": "dev",
    "methods": {
      "allowance(address,address)": {
        "details": "See {IERC20-allowance}."
      },
      "approve(address,uint256)": {
        "details": "See {IERC20-approve}. NOTE: If `amount` is the maximum `uint256`, the allowance is not updated on `transferFrom`. This is semantically equivalent to an infinite approval. Requirements: - `spender` cannot be the zero address."
      },
      "balanceOf(address)": {
        "details": "See {IERC20-balanceOf}."
      },
      "burn(uint256)": {
        "details": "Destroys `amount` tokens from the caller. See {ERC20-_burn}."
      },
      "burnFrom(address,uint256)": {
        "details": "Destroys `amount` tokens from `account`, deducting from the caller's allowance. See {ERC20-_burn} and {ERC20-allowance}. Requirements: - the caller must have allowance for ``accounts``'s tokens of at least `amount`."
      },
      "decimals()": {
        "details": "Returns the number of decimals used to get its user representation. For example, if `decimals` equals `2`, a balance of `505` tokens should be displayed to a user as `5.05` (`505 / 10 ** 2`). Tokens usually opt for a value of 18, imitating the relationship between Ether and Wei. This is the value {ERC20} uses, unless this function is overridden; NOTE: This information is only used for _display_ purposes: it in no way affects any of the arithmetic of the contract, including {IERC20-balanceOf} and {IERC20-transfer}."
      },
      "decreaseAllowance(address,uint256)": {
        "details": "Atomically decreases the allowance granted to `spender` by the caller. This is an alternative to {approve} that can be used as a mitigation for problems described in {IERC20-approve}. Emits an {Approval} event indicating the updated allowance. Requirements: - `spender` cannot be the zero address. - `spender` must have allowance for the caller of at least `subtractedValue`."
      },
      "increaseAllowance(address,uint256)": {
        "details": "Atomically increases the allowance granted to `spender` by the caller. This is an alternative to {approve} that can be used as a mitigation for problems described in {IERC20-approve}. Emits an {Approval} event indicating the updated allowance. Requirements: - `spender` cannot be the zero address."
      },
      "name()": {
        "details": "Returns the name of the token."
      },
      "owner()": {
        "details": "Returns the address of the current owner."
      },
      "renounceOwnership()": {
        "details": "Leaves the contract without owner. It will not be possible to call `onlyOwner` functions anymore. Can only be called by the current owner. NOTE: Renouncing ownership will leave the contract without an owner, thereby removing any functionality that is only available to the owner."
      },
      "symbol()": {
        "details": "Returns the symbol of the token, usually a shorter version of the name."
      },
      "totalSupply()": {
        "details": "See {IERC20-totalSupply}."
      },
      "transfer(address,uint256)": {
        "details": "See {IERC20-transfer}. Requirements: - `to` cannot be the zero address. - the caller must have a balance of at least `amount`."
      },
      "transferFrom(address,address,uint256)": {
        "details": "See {IERC20-transferFrom}. Emits an {Approval} event indicating the updated allowance. This is not required by the EIP. See the note at the beginning of {ERC20}. NOTE: Does not update the allowance if the current allowance is the maximum `uint256`. Requirements: - `from` and `to` cannot be the zero address. - `from` must have a balance of at least `amount`. - the caller must have allowance for ``from``'s tokens of at least `amount`."
      },
      "transferOwnership(address)": {
        "details": "Transfers ownership of the contract to a new account (`newOwner`). Can only be called by the current owner."
      }
    },
    "version": 1
  },
  "userdoc": {
    "kind": "user",
    "methods": {},
    "version": 1
  }
}