{
  "contractName": "GarbiRepositoryManager",
  "abi": [
    {
      "inputs": [
        {
          "internalType": "contract IERC20withBurnAndMint",
          "name": "garbiECContract",
          "type": "address"
        },
        {
          "internalType": "contract IGarbiswapWhitelist",
          "name": "whitelistContract",
          "type": "address"
        }
      ],
      "stateMutability": "nonpayable",
      "type": "constructor"
    },
    {
      "anonymous": false,
      "inputs": [
        {
          "indexed": true,
          "internalType": "address",
          "name": "previousOwner",
          "type": "address"
        },
        {
          "indexed": true,
          "internalType": "address",
          "name": "newOwner",
          "type": "address"
        }
      ],
      "name": "OwnershipTransferred",
      "type": "event"
    },
    {
      "anonymous": false,
      "inputs": [
        {
          "indexed": false,
          "internalType": "address",
          "name": "account",
          "type": "address"
        }
      ],
      "name": "Paused",
      "type": "event"
    },
    {
      "anonymous": false,
      "inputs": [
        {
          "indexed": false,
          "internalType": "address",
          "name": "account",
          "type": "address"
        }
      ],
      "name": "Unpaused",
      "type": "event"
    },
    {
      "anonymous": false,
      "inputs": [
        {
          "indexed": false,
          "internalType": "address",
          "name": "repoAddress",
          "type": "address"
        },
        {
          "indexed": false,
          "internalType": "uint256",
          "name": "repoShare",
          "type": "uint256"
        },
        {
          "indexed": false,
          "internalType": "uint256",
          "name": "repoMaxCapacityLimit",
          "type": "uint256"
        }
      ],
      "name": "onAddRepository",
      "type": "event"
    },
    {
      "anonymous": false,
      "inputs": [
        {
          "indexed": false,
          "internalType": "address",
          "name": "user",
          "type": "address"
        },
        {
          "indexed": false,
          "internalType": "address",
          "name": "repoInAddress",
          "type": "address"
        },
        {
          "indexed": false,
          "internalType": "uint256",
          "name": "assetInAmount",
          "type": "uint256"
        },
        {
          "indexed": false,
          "internalType": "uint256",
          "name": "garbiECOutAmount",
          "type": "uint256"
        }
      ],
      "name": "onBuyGarbiEC",
      "type": "event"
    },
    {
      "anonymous": false,
      "inputs": [
        {
          "indexed": false,
          "internalType": "address",
          "name": "user",
          "type": "address"
        },
        {
          "indexed": false,
          "internalType": "address",
          "name": "repoOutAddress",
          "type": "address"
        },
        {
          "indexed": false,
          "internalType": "uint256",
          "name": "assetOutAmount",
          "type": "uint256"
        },
        {
          "indexed": false,
          "internalType": "uint256",
          "name": "garbiECInAmount",
          "type": "uint256"
        }
      ],
      "name": "onSellGarbiEC",
      "type": "event"
    },
    {
      "anonymous": false,
      "inputs": [
        {
          "indexed": false,
          "internalType": "address",
          "name": "user",
          "type": "address"
        },
        {
          "indexed": false,
          "internalType": "address",
          "name": "repoInAddress",
          "type": "address"
        },
        {
          "indexed": false,
          "internalType": "address",
          "name": "repoOutAddress",
          "type": "address"
        },
        {
          "indexed": false,
          "internalType": "uint256",
          "name": "tokenInputAmount",
          "type": "uint256"
        },
        {
          "indexed": false,
          "internalType": "uint256",
          "name": "tokenOutputAmount",
          "type": "uint256"
        }
      ],
      "name": "onSwapTokenToToken",
      "type": "event"
    },
    {
      "anonymous": false,
      "inputs": [
        {
          "indexed": false,
          "internalType": "address",
          "name": "repoAddress",
          "type": "address"
        },
        {
          "indexed": false,
          "internalType": "uint256",
          "name": "repoShare",
          "type": "uint256"
        },
        {
          "indexed": false,
          "internalType": "uint256",
          "name": "repoMaxCapacityLimit",
          "type": "uint256"
        }
      ],
      "name": "onUpdateRepository",
      "type": "event"
    },
    {
      "inputs": [],
      "name": "GarbiEC",
      "outputs": [
        {
          "internalType": "contract IERC20withBurnAndMint",
          "name": "",
          "type": "address"
        }
      ],
      "stateMutability": "view",
      "type": "function",
      "constant": true
    },
    {
      "inputs": [
        {
          "internalType": "address",
          "name": "",
          "type": "address"
        }
      ],
      "name": "baseToRepo",
      "outputs": [
        {
          "internalType": "address",
          "name": "",
          "type": "address"
        }
      ],
      "stateMutability": "view",
      "type": "function",
      "constant": true
    },
    {
      "inputs": [],
      "name": "owner",
      "outputs": [
        {
          "internalType": "address",
          "name": "",
          "type": "address"
        }
      ],
      "stateMutability": "view",
      "type": "function",
      "constant": true
    },
    {
      "inputs": [],
      "name": "paused",
      "outputs": [
        {
          "internalType": "bool",
          "name": "",
          "type": "bool"
        }
      ],
      "stateMutability": "view",
      "type": "function",
      "constant": true
    },
    {
      "inputs": [],
      "name": "platformFundAddress",
      "outputs": [
        {
          "internalType": "address",
          "name": "",
          "type": "address"
        }
      ],
      "stateMutability": "view",
      "type": "function",
      "constant": true
    },
    {
      "inputs": [],
      "name": "renounceOwnership",
      "outputs": [],
      "stateMutability": "nonpayable",
      "type": "function"
    },
    {
      "inputs": [
        {
          "internalType": "uint256",
          "name": "",
          "type": "uint256"
        }
      ],
      "name": "repoAddresses",
      "outputs": [
        {
          "internalType": "address",
          "name": "",
          "type": "address"
        }
      ],
      "stateMutability": "view",
      "type": "function",
      "constant": true
    },
    {
      "inputs": [
        {
          "internalType": "address",
          "name": "",
          "type": "address"
        }
      ],
      "name": "repoList",
      "outputs": [
        {
          "internalType": "uint256",
          "name": "share",
          "type": "uint256"
        },
        {
          "internalType": "uint256",
          "name": "maxCapacityLimit",
          "type": "uint256"
        }
      ],
      "stateMutability": "view",
      "type": "function",
      "constant": true
    },
    {
      "inputs": [],
      "name": "totalShares",
      "outputs": [
        {
          "internalType": "uint256",
          "name": "",
          "type": "uint256"
        }
      ],
      "stateMutability": "view",
      "type": "function",
      "constant": true
    },
    {
      "inputs": [
        {
          "internalType": "address",
          "name": "newOwner",
          "type": "address"
        }
      ],
      "name": "transferOwnership",
      "outputs": [],
      "stateMutability": "nonpayable",
      "type": "function"
    },
    {
      "inputs": [],
      "name": "whitelist",
      "outputs": [
        {
          "internalType": "contract IGarbiswapWhitelist",
          "name": "",
          "type": "address"
        }
      ],
      "stateMutability": "view",
      "type": "function",
      "constant": true
    },
    {
      "inputs": [
        {
          "internalType": "address",
          "name": "repoAddress",
          "type": "address"
        },
        {
          "internalType": "uint256",
          "name": "repoShare",
          "type": "uint256"
        },
        {
          "internalType": "uint256",
          "name": "repoMaxCapacityLimit",
          "type": "uint256"
        }
      ],
      "name": "addRepository",
      "outputs": [],
      "stateMutability": "nonpayable",
      "type": "function"
    },
    {
      "inputs": [
        {
          "internalType": "address",
          "name": "repoAddress",
          "type": "address"
        },
        {
          "internalType": "uint256",
          "name": "repoShare",
          "type": "uint256"
        },
        {
          "internalType": "uint256",
          "name": "repoMaxCapacityLimit",
          "type": "uint256"
        }
      ],
      "name": "updateRepository",
      "outputs": [],
      "stateMutability": "nonpayable",
      "type": "function"
    },
    {
      "inputs": [
        {
          "internalType": "uint256",
          "name": "newTotalShares",
          "type": "uint256"
        }
      ],
      "name": "setTotalShares",
      "outputs": [],
      "stateMutability": "nonpayable",
      "type": "function"
    },
    {
      "inputs": [
        {
          "internalType": "uint256",
          "name": "newFee",
          "type": "uint256"
        }
      ],
      "name": "setSellGarbiECFee",
      "outputs": [],
      "stateMutability": "nonpayable",
      "type": "function"
    },
    {
      "inputs": [
        {
          "internalType": "address",
          "name": "newAddress",
          "type": "address"
        }
      ],
      "name": "setPlatformFundAdress",
      "outputs": [],
      "stateMutability": "nonpayable",
      "type": "function"
    },
    {
      "inputs": [
        {
          "internalType": "contract IERC20withBurnAndMint",
          "name": "newGarbiECContract",
          "type": "address"
        }
      ],
      "name": "setGarbiEquityCertificateContract",
      "outputs": [],
      "stateMutability": "nonpayable",
      "type": "function"
    },
    {
      "inputs": [
        {
          "internalType": "address",
          "name": "repoInAddress",
          "type": "address"
        },
        {
          "internalType": "uint256",
          "name": "assetInAmount",
          "type": "uint256"
        }
      ],
      "name": "buyGarbiEquityCertificate",
      "outputs": [],
      "stateMutability": "nonpayable",
      "type": "function"
    },
    {
      "inputs": [
        {
          "internalType": "address",
          "name": "repoOutAddress",
          "type": "address"
        },
        {
          "internalType": "uint256",
          "name": "garbiECInAmount",
          "type": "uint256"
        }
      ],
      "name": "sellGarbiEquityCertificate",
      "outputs": [],
      "stateMutability": "nonpayable",
      "type": "function"
    },
    {
      "inputs": [
        {
          "internalType": "address",
          "name": "repoInAddress",
          "type": "address"
        },
        {
          "internalType": "address",
          "name": "repoOutAddress",
          "type": "address"
        },
        {
          "internalType": "uint256",
          "name": "tokenInputAmount",
          "type": "uint256"
        },
        {
          "internalType": "uint256",
          "name": "minTokenOutputAmount",
          "type": "uint256"
        }
      ],
      "name": "swapTokenToTokenWithTokenInput",
      "outputs": [],
      "stateMutability": "nonpayable",
      "type": "function"
    },
    {
      "inputs": [
        {
          "internalType": "contract IGarbiRepository",
          "name": "repoIn",
          "type": "address"
        },
        {
          "internalType": "contract IGarbiRepository",
          "name": "repoOut",
          "type": "address"
        },
        {
          "internalType": "uint256",
          "name": "tokenInputAmount",
          "type": "uint256"
        }
      ],
      "name": "getTokenOutputAmountFromTokenInput",
      "outputs": [
        {
          "internalType": "uint256",
          "name": "",
          "type": "uint256"
        }
      ],
      "stateMutability": "view",
      "type": "function",
      "constant": true
    },
    {
      "inputs": [
        {
          "internalType": "address",
          "name": "repoInAddress",
          "type": "address"
        },
        {
          "internalType": "address",
          "name": "repoOutAddress",
          "type": "address"
        },
        {
          "internalType": "uint256",
          "name": "tokenInputAmount",
          "type": "uint256"
        }
      ],
      "name": "getTokenOutputWithFee",
      "outputs": [
        {
          "internalType": "uint256",
          "name": "",
          "type": "uint256"
        }
      ],
      "stateMutability": "view",
      "type": "function",
      "constant": true
    },
    {
      "inputs": [],
      "name": "getGarbiECPrice",
      "outputs": [
        {
          "internalType": "uint256",
          "name": "garbiECPrice",
          "type": "uint256"
        }
      ],
      "stateMutability": "view",
      "type": "function",
      "constant": true
    },
    {
      "inputs": [
        {
          "internalType": "address",
          "name": "repoInAddress",
          "type": "address"
        },
        {
          "internalType": "uint256",
          "name": "assetInAmount",
          "type": "uint256"
        }
      ],
      "name": "getDataToBuyGarbiEC",
      "outputs": [
        {
          "internalType": "uint256",
          "name": "garbiECOutAmount",
          "type": "uint256"
        }
      ],
      "stateMutability": "view",
      "type": "function",
      "constant": true
    },
    {
      "inputs": [
        {
          "internalType": "address",
          "name": "repoOutAddress",
          "type": "address"
        },
        {
          "internalType": "uint256",
          "name": "garbiECInAmount",
          "type": "uint256"
        }
      ],
      "name": "getDataToSellGarbiEC",
      "outputs": [
        {
          "internalType": "uint256",
          "name": "assetOutAmount",
          "type": "uint256"
        }
      ],
      "stateMutability": "view",
      "type": "function",
      "constant": true
    },
    {
      "inputs": [
        {
          "internalType": "address",
          "name": "repoOutAddress",
          "type": "address"
        },
        {
          "internalType": "uint256",
          "name": "garbiECInAmount",
          "type": "uint256"
        }
      ],
      "name": "getDataToSellGarbiECWithFee",
      "outputs": [
        {
          "internalType": "uint256",
          "name": "assetOutAmountAfterFee",
          "type": "uint256"
        }
      ],
      "stateMutability": "view",
      "type": "function",
      "constant": true
    },
    {
      "inputs": [],
      "name": "getTotalAllRepoCapacityByUSD",
      "outputs": [
        {
          "internalType": "uint256",
          "name": "totalCapacityByUSD",
          "type": "uint256"
        }
      ],
      "stateMutability": "view",
      "type": "function",
      "constant": true
    },
    {
      "inputs": [
        {
          "internalType": "address",
          "name": "repoOutAddress",
          "type": "address"
        },
        {
          "internalType": "uint256",
          "name": "assetOutAmount",
          "type": "uint256"
        },
        {
          "internalType": "uint256",
          "name": "baseFee",
          "type": "uint256"
        }
      ],
      "name": "getSellGarbiECDynamicFee",
      "outputs": [
        {
          "internalType": "uint256",
          "name": "fee",
          "type": "uint256"
        }
      ],
      "stateMutability": "view",
      "type": "function",
      "constant": true
    },
    {
      "inputs": [
        {
          "internalType": "address",
          "name": "repoOutAddress",
          "type": "address"
        },
        {
          "internalType": "uint256",
          "name": "assetOutAmount",
          "type": "uint256"
        }
      ],
      "name": "getFeeWithOutAmount",
      "outputs": [
        {
          "internalType": "uint256",
          "name": "sellGarbiECfee",
          "type": "uint256"
        },
        {
          "internalType": "uint256",
          "name": "swapFee",
          "type": "uint256"
        }
      ],
      "stateMutability": "view",
      "type": "function",
      "constant": true
    },
    {
      "inputs": [],
      "name": "pause",
      "outputs": [],
      "stateMutability": "nonpayable",
      "type": "function"
    },
    {
      "inputs": [],
      "name": "unpause",
      "outputs": [],
      "stateMutability": "nonpayable",
      "type": "function"
    }
  ],
  "bytecode": "0x60806040526103e8600355602360085560016009553480156200002157600080fd5b50604051620034683803806200346883398101604081905262000044916200012d565b60016000556200005433620000c2565b6001805460ff60a01b19169055600780546001600160a01b038085166001600160a01b0319928316179092556002805492841692909116919091179055620000993390565b600a80546001600160a01b0319166001600160a01b0392909216919091179055506200016c9050565b600180546001600160a01b038381166001600160a01b0319831681179093556040519116919082907f8be0079c531659141344cd1fd0a4f28419497f9722a3daafe3b4186f6b6457e090600090a35050565b6001600160a01b03811681146200012a57600080fd5b50565b600080604083850312156200014157600080fd5b82516200014e8162000114565b6020840151909250620001618162000114565b809150509250929050565b6132ec806200017c6000396000f3fe608060405234801561001057600080fd5b50600436106101e55760003560e01c8063a5f270b71161010f578063d3b76e5c116100a2578063f2fde38b11610071578063f2fde38b14610404578063f71c37bb14610417578063fc1359d01461042a578063ff78a6541461045357600080fd5b8063d3b76e5c146103af578063ebf3da93146103b7578063ec3a39c4146103ca578063eef4a00e146103dd57600080fd5b8063b606e611116100de578063b606e6111461036e578063bdb4da2e14610376578063c8de836814610389578063d1dc64cf1461039c57600080fd5b8063a5f270b71461030d578063a77384c114610320578063a84f57f514610333578063b0baa1f31461035b57600080fd5b8063459f5e32116101875780638da5cb5b116101565780638da5cb5b146102af5780638fe6041d146102d457806393e59dc1146102e75780639fa5e63e146102fa57600080fd5b8063459f5e321461026f5780635c975abb14610282578063715018a61461029f5780638456cb59146102a757600080fd5b80631cf67b7d116101c35780631cf67b7d14610238578063357e47331461024b5780633a98ef391461025e5780633f4ba83a1461026757600080fd5b806305e90618146101ea5780630bc8f11c1461021057806319b1d0d814610225575b600080fd5b6101fd6101f8366004612fea565b610466565b6040519081526020015b60405180910390f35b61022361021e36600461302b565b610554565b005b610223610233366004613057565b610c8e565b6101fd610246366004612fea565b611305565b61022361025936600461309d565b61141f565b6101fd60035481565b61022361146f565b6101fd61027d36600461302b565b611481565b600154600160a01b900460ff166040519015158152602001610207565b6102236115af565b6102236115c1565b6001546001600160a01b03165b6040516001600160a01b039091168152602001610207565b6102236102e236600461309d565b6115d1565b6002546102bc906001600160a01b031681565b600a546102bc906001600160a01b031681565b6101fd61031b36600461302b565b6115fb565b61022361032e3660046130c1565b61168b565b61034661034136600461302b565b6116b8565b60408051928352602083019190915201610207565b6102236103693660046130da565b6118c7565b6101fd611ad1565b61022361038436600461302b565b611bde565b6101fd61039736600461302b565b61234f565b6102236103aa3660046130da565b6123d5565b6101fd61250b565b6102bc6103c53660046130c1565b612690565b6101fd6103d83660046130da565b6126ba565b6103466103eb36600461309d565b6005602052600090815260409020805460019091015482565b61022361041236600461309d565b61281b565b6007546102bc906001600160a01b031681565b6102bc61043836600461309d565b6006602052600090815260409020546001600160a01b031681565b6102236104613660046130c1565b612894565b600080846001600160a01b031663b49f4afd6040518163ffffffff1660e01b8152600401602060405180830381865afa1580156104a7573d6000803e3d6000fd5b505050506040513d601f19601f820116820180604052508101906104cb919061310f565b90506000846001600160a01b031663b49f4afd6040518163ffffffff1660e01b8152600401602060405180830381865afa15801561050d573d6000803e3d6000fd5b505050506040513d601f19601f82011682018060405250810190610531919061310f565b905060006105498261054387866128c1565b906128d6565b979650505050505050565b61055c6128e2565b816001600160a01b03811661058c5760405162461bcd60e51b815260040161058390613128565b60405180910390fd5b6000805b6004548110156105ec57826001600160a01b0316600482815481106105b7576105b7613156565b6000918252602090912001546001600160a01b0316036105da57600191506105ec565b806105e481613182565b915050610590565b508060011461060d5760405162461bcd60e51b81526004016105839061319b565b3332146106a157600254604051636c9b2a3f60e11b81523360048201526001600160a01b039091169063d936547e90602401602060405180830381865afa15801561065c573d6000803e3d6000fd5b505050506040513d601f19601f8201168201806040525081019061068091906131c7565b15156001146106a15760405162461bcd60e51b8152600401610583906131e9565b6106a961293b565b600083116106f05760405162461bcd60e51b81526020600482015260146024820152731253959053125117d054d4d15517d05353d5539560621b6044820152606401610583565b6001600160a01b0384166000908152600560205260409020546107445760405162461bcd60e51b815260206004820152600c60248201526b494e56414c49445f5245504f60a01b6044820152606401610583565b600084905060056000866001600160a01b03166001600160a01b03168152602001908152602001600020600101546107de85836001600160a01b03166329b315d76040518163ffffffff1660e01b8152600401602060405180830381865afa1580156107b4573d6000803e3d6000fd5b505050506040513d601f19601f820116820180604052508101906107d8919061310f565b90612988565b11156108255760405162461bcd60e51b8152602060048201526016602482015275494e56414c49445f41535345545f434150414349545960501b6044820152606401610583565b6000816001600160a01b0316635001f3b56040518163ffffffff1660e01b8152600401602060405180830381865afa158015610865573d6000803e3d6000fd5b505050506040513d601f19601f820116820180604052508101906108899190613214565b6040516370a0823160e01b81523360048201529091506000906001600160a01b038316906370a0823190602401602060405180830381865afa1580156108d3573d6000803e3d6000fd5b505050506040513d601f19601f820116820180604052508101906108f7919061310f565b9050826001600160a01b031663af7dfc8382856001600160a01b031663db7b373e6040518163ffffffff1660e01b8152600401602060405180830381865afa158015610947573d6000803e3d6000fd5b505050506040513d601f19601f8201168201806040525081019061096b919061310f565b6040516001600160e01b031960e085901b16815260048101929092526024820152604401602060405180830381865afa1580156109ac573d6000803e3d6000fd5b505050506040513d601f19601f820116820180604052508101906109d0919061310f565b9050808611156109de578095505b60006109ea888861234f565b604051633e7bbdcf60e11b815260048101899052601260248201529091506000906001600160a01b03861690637cf77b9e90604401602060405180830381865afa158015610a3c573d6000803e3d6000fd5b505050506040513d601f19601f82011682018060405250810190610a60919061310f565b6040516323b872dd60e01b8152336004820152306024820152604481018290529091506001600160a01b038516906323b872dd906064016020604051808303816000875af1158015610ab6573d6000803e3d6000fd5b505050506040513d601f19601f82011682018060405250810190610ada91906131c7565b506007546040516340c10f1960e01b8152306004820152602481018490526001600160a01b03909116906340c10f1990604401600060405180830381600087803b158015610b2757600080fd5b505af1158015610b3b573d6000803e3d6000fd5b505060405163a9059cbb60e01b81526001600160a01b038c81166004830152602482018590528716925063a9059cbb91506044016020604051808303816000875af1158015610b8e573d6000803e3d6000fd5b505050506040513d601f19601f82011682018060405250810190610bb291906131c7565b5060075460405163a9059cbb60e01b8152336004820152602481018490526001600160a01b039091169063a9059cbb906044016020604051808303816000875af1158015610c04573d6000803e3d6000fd5b505050506040513d601f19601f82011682018060405250810190610c2891906131c7565b50604080513381526001600160a01b038b166020820152908101899052606081018390527f28b2a32484c6b4c70369af6ce67fc8bd54394b3d31d4ce7c84579537dac1a67d9060800160405180910390a150505050505050610c8a6001600055565b5050565b836001600160a01b038116610cb55760405162461bcd60e51b815260040161058390613128565b6000805b600454811015610d1557826001600160a01b031660048281548110610ce057610ce0613156565b6000918252602090912001546001600160a01b031603610d035760019150610d15565b80610d0d81613182565b915050610cb9565b5080600114610d365760405162461bcd60e51b81526004016105839061319b565b846001600160a01b038116610d5d5760405162461bcd60e51b815260040161058390613128565b6000805b600454811015610dbd57826001600160a01b031660048281548110610d8857610d88613156565b6000918252602090912001546001600160a01b031603610dab5760019150610dbd565b80610db581613182565b915050610d61565b5080600114610dde5760405162461bcd60e51b81526004016105839061319b565b610de66128e2565b333214610e7a57600254604051636c9b2a3f60e11b81523360048201526001600160a01b039091169063d936547e90602401602060405180830381865afa158015610e35573d6000803e3d6000fd5b505050506040513d601f19601f82011682018060405250810190610e5991906131c7565b1515600114610e7a5760405162461bcd60e51b8152600401610583906131e9565b610e8261293b565b866001600160a01b0316886001600160a01b031603610ed25760405162461bcd60e51b815260206004820152600c60248201526b24a72b20a624a22fa820a4a960a11b6044820152606401610583565b60008611610f225760405162461bcd60e51b815260206004820152601a60248201527f494e56414c49445f544f4b454e5f494e5055545f414d4f554e540000000000006044820152606401610583565b60008511610f725760405162461bcd60e51b815260206004820152601f60248201527f494e56414c49445f4d494e5f544f4b454e5f4f55545055545f414d4f554e54006044820152606401610583565b87876000610f8183838b610466565b9050816001600160a01b03166329b315d76040518163ffffffff1660e01b8152600401602060405180830381865afa158015610fc1573d6000803e3d6000fd5b505050506040513d601f19601f82011682018060405250810190610fe5919061310f565b8111156110295760405162461bcd60e51b81526020600482015260126024820152711253959053125117d3d55517d05353d5539560721b6044820152606401610583565b8781101561106e5760405162461bcd60e51b815260206004820152601260248201527143414e5f4e4f545f4d414b455f545241444560701b6044820152606401610583565b6000836001600160a01b0316635001f3b56040518163ffffffff1660e01b8152600401602060405180830381865afa1580156110ae573d6000803e3d6000fd5b505050506040513d601f19601f820116820180604052508101906110d29190613214565b6040516370a0823160e01b81523360048201529091506000906001600160a01b038087169163af7dfc83918516906370a0823190602401602060405180830381865afa158015611126573d6000803e3d6000fd5b505050506040513d601f19601f8201168201806040525081019061114a919061310f565b876001600160a01b031663db7b373e6040518163ffffffff1660e01b8152600401602060405180830381865afa158015611188573d6000803e3d6000fd5b505050506040513d601f19601f820116820180604052508101906111ac919061310f565b6040516001600160e01b031960e085901b16815260048101929092526024820152604401602060405180830381865afa1580156111ed573d6000803e3d6000fd5b505050506040513d601f19601f82011682018060405250810190611211919061310f565b9050808b11156112725760405162461bcd60e51b815260206004820152602660248201527f544f4b454e5f494e5055545f414d4f554e545f4849474845525f555345525f42604482015265414c414e434560d01b6064820152608401610583565b61127e85858d86612994565b7f09c9d9085767db700bb0ef664566fac95b983e70d7c5d73e0137ad358d8078e2338e8e8e876040516112e49594939291906001600160a01b03958616815293851660208501529190931660408301526060820192909252608081019190915260a00190565b60405180910390a150505050506112fb6001600055565b5050505050505050565b6000838382611315838387610466565b9050816001600160a01b03166329b315d76040518163ffffffff1660e01b8152600401602060405180830381865afa158015611355573d6000803e3d6000fd5b505050506040513d601f19601f82011682018060405250810190611379919061310f565b8111156113e557816001600160a01b03166329b315d76040518163ffffffff1660e01b8152600401602060405180830381865afa1580156113be573d6000803e3d6000fd5b505050506040513d601f19601f820116820180604052508101906113e2919061310f565b90505b60006114046127106105436113fd8a866009546126ba565b85906128c1565b905060006114128383612e35565b9998505050505050505050565b611427612e41565b6001600160a01b03811661144d5760405162461bcd60e51b815260040161058390613231565b600780546001600160a01b0319166001600160a01b0392909216919091179055565b611477612e41565b61147f612e9b565b565b60008061148c61250b565b905060008490506000816001600160a01b031663b49f4afd6040518163ffffffff1660e01b8152600401602060405180830381865afa1580156114d3573d6000803e3d6000fd5b505050506040513d601f19601f820116820180604052508101906114f7919061310f565b905060006115098261054388876128c1565b9050826001600160a01b03166329b315d76040518163ffffffff1660e01b8152600401602060405180830381865afa158015611549573d6000803e3d6000fd5b505050506040513d601f19601f8201168201806040525081019061156d919061310f565b81111561157d57600094506115a5565b60006115956127106105436113fd8b866008546126ba565b90506115a18282612e35565b9550505b5050505092915050565b6115b7612e41565b61147f6000612ef0565b6115c9612e41565b61147f612f42565b6115d9612e41565b600a80546001600160a01b0319166001600160a01b0392909216919091179055565b60008061160661250b565b905060008490506000816001600160a01b031663b49f4afd6040518163ffffffff1660e01b8152600401602060405180830381865afa15801561164d573d6000803e3d6000fd5b505050506040513d601f19601f82011682018060405250810190611671919061310f565b90506116818161054387866128c1565b9695505050505050565b611693612e41565b600081116116b35760405162461bcd60e51b815260040161058390613231565b600355565b60008060006116c5611ad1565b905060008590506000816001600160a01b03166335a226646040518163ffffffff1660e01b8152600401602060405180830381865afa15801561170c573d6000803e3d6000fd5b505050506040513d601f19601f82011682018060405250810190611730919061310f565b905060006117ac670de0b6b3a7640000610543856001600160a01b031663b49f4afd6040518163ffffffff1660e01b8152600401602060405180830381865afa158015611781573d6000803e3d6000fd5b505050506040513d601f19601f820116820180604052508101906117a5919061310f565b8a906128c1565b905060006117d46117bd8684612e35565b600354610543906117ce8787612e35565b906128c1565b90508015611899576003546001600160a01b038a16600090815260056020526040812054909161180a91849161054391906128c1565b9050611827600354610543836008546128c190919063ffffffff16565b9750611844600354610543836009546128c190919063ffffffff16565b9650600854600a6118559190613257565b88111561186d5760085461186a90600a613257565b97505b60095461187b90600a613257565b8711156118935760095461189090600a613257565b96505b506118bb565b6008546118a790600a613257565b9650600954600a6118b89190613257565b95505b50505050509250929050565b6118cf612e41565b6001600160a01b0383166118f55760405162461bcd60e51b815260040161058390613128565b6000821161193a5760405162461bcd60e51b8152602060048201526012602482015271494e56414c49445f5245504f5f534841524560701b6044820152606401610583565b600081116119825760405162461bcd60e51b8152602060048201526015602482015274494e56414c49445f5245504f5f434150414349545960581b6044820152606401610583565b60408051808201825283815260208082018481526001600160a01b0387166000818152600584528581209451855591516001948501556004805494850181558083527f8a35acfbc15ff81a39ae7d344fd709f28e8600b4aa8c65c6b64bfe7fe36bd19b90940180546001600160a01b031916821790558451635001f3b560e01b8152945188958695600695635001f3b59383830193919290918290030181865afa158015611a34573d6000803e3d6000fd5b505050506040513d601f19601f82011682018060405250810190611a589190613214565b6001600160a01b039081168252602080830193909352604091820160002080546001600160a01b031916948216949094179093558051928716835290820185905281018390527f0f9add0213bdb1ede37a5c610b3e9634dc14ffc80ab82643288e3faf88f73ae09060600160405180910390a150505050565b6000805b600454811015611bda5760006005600060048481548110611af857611af8613156565b60009182526020808320909101546001600160a01b031683528201929092526040019020541115611bc857600060048281548110611b3857611b38613156565b9060005260206000200160009054906101000a90046001600160a01b03169050611bc4816001600160a01b03166335a226646040518163ffffffff1660e01b8152600401602060405180830381865afa158015611b99573d6000803e3d6000fd5b505050506040513d601f19601f82011682018060405250810190611bbd919061310f565b8490612988565b9250505b80611bd281613182565b915050611ad5565b5090565b611be66128e2565b816001600160a01b038116611c0d5760405162461bcd60e51b815260040161058390613128565b6000805b600454811015611c6d57826001600160a01b031660048281548110611c3857611c38613156565b6000918252602090912001546001600160a01b031603611c5b5760019150611c6d565b80611c6581613182565b915050611c11565b5080600114611c8e5760405162461bcd60e51b81526004016105839061319b565b333214611d2257600254604051636c9b2a3f60e11b81523360048201526001600160a01b039091169063d936547e90602401602060405180830381865afa158015611cdd573d6000803e3d6000fd5b505050506040513d601f19601f82011682018060405250810190611d0191906131c7565b1515600114611d225760405162461bcd60e51b8152600401610583906131e9565b611d2a61293b565b60008311611d735760405162461bcd60e51b81526020600482015260166024820152751253959053125117d1d05490925150d7d05353d5539560521b6044820152606401610583565b6001600160a01b038416600090815260056020526040902054611dc75760405162461bcd60e51b815260206004820152600c60248201526b494e56414c49445f5245504f60a01b6044820152606401610583565b60008490506000816001600160a01b0316635001f3b56040518163ffffffff1660e01b8152600401602060405180830381865afa158015611e0c573d6000803e3d6000fd5b505050506040513d601f19601f82011682018060405250810190611e309190613214565b6007546040516370a0823160e01b81523360048201529192506000916001600160a01b03909116906370a0823190602401602060405180830381865afa158015611e7e573d6000803e3d6000fd5b505050506040513d601f19601f82011682018060405250810190611ea2919061310f565b905080861115611eb0578095505b6000611ebc88886115fb565b905060008111611f0e5760405162461bcd60e51b815260206004820152601760248201527f494e56414c49445f4f55545f414d4f554e545f5a45524f0000000000000000006044820152606401610583565b836001600160a01b03166329b315d76040518163ffffffff1660e01b8152600401602060405180830381865afa158015611f4c573d6000803e3d6000fd5b505050506040513d601f19601f82011682018060405250810190611f70919061310f565b811115611fb45760405162461bcd60e51b81526020600482015260126024820152711253959053125117d3d55517d05353d5539560721b6044820152606401610583565b6000611fcc6127106105436113fd8c866008546126ba565b90506000611fda8383612e35565b6007546040516323b872dd60e01b8152336004820152306024820152604481018c90529192506001600160a01b0316906323b872dd906064016020604051808303816000875af1158015612032573d6000803e3d6000fd5b505050506040513d601f19601f8201168201806040525081019061205691906131c7565b50600754604051630852cd8d60e31b8152600481018b90526001600160a01b03909116906342966c6890602401600060405180830381600087803b15801561209d57600080fd5b505af11580156120b1573d6000803e3d6000fd5b50506040516351380da560e11b8152600481018690526001600160a01b038916925063a2701b4a9150602401600060405180830381600087803b1580156120f757600080fd5b505af115801561210b573d6000803e3d6000fd5b5050604051633e7bbdcf60e11b815260048101849052601260248201526001600160a01b03808916935063a9059cbb92503391908a1690637cf77b9e90604401602060405180830381865afa158015612168573d6000803e3d6000fd5b505050506040513d601f19601f8201168201806040525081019061218c919061310f565b6040516001600160e01b031960e085901b1681526001600160a01b03909216600483015260248201526044016020604051808303816000875af11580156121d7573d6000803e3d6000fd5b505050506040513d601f19601f820116820180604052508101906121fb91906131c7565b50600a54604051633e7bbdcf60e11b815260048101849052601260248201526001600160a01b038781169263a9059cbb92908216918a1690637cf77b9e90604401602060405180830381865afa158015612259573d6000803e3d6000fd5b505050506040513d601f19601f8201168201806040525081019061227d919061310f565b6040516001600160e01b031960e085901b1681526001600160a01b03909216600483015260248201526044016020604051808303816000875af11580156122c8573d6000803e3d6000fd5b505050506040513d601f19601f820116820180604052508101906122ec91906131c7565b50604080513381526001600160a01b038c166020820152908101829052606081018a90527f9b5a54131d57ff379fca74da7f4efca1b9105facc9eb666cdb4dc2991622cee39060800160405180910390a15050505050505050610c8a6001600055565b60008061235a61250b565b905060008490506000816001600160a01b031663b49f4afd6040518163ffffffff1660e01b8152600401602060405180830381865afa1580156123a1573d6000803e3d6000fd5b505050506040513d601f19601f820116820180604052508101906123c5919061310f565b90506116818361054387846128c1565b6123dd612e41565b6001600160a01b0383166124035760405162461bcd60e51b815260040161058390613128565b600082116124485760405162461bcd60e51b8152602060048201526012602482015271494e56414c49445f5245504f5f534841524560701b6044820152606401610583565b600081116124905760405162461bcd60e51b8152602060048201526015602482015274494e56414c49445f5245504f5f434150414349545960581b6044820152606401610583565b60408051808201825283815260208082018481526001600160a01b038716600081815260058452859020935184559051600190930192909255825191825281018490529081018290527f34d71eb9581c2f82d3886aa369754ce61007988ffaa3bdda51b914219b3b120a9060600160405180910390a1505050565b600080805b6004548110156125ea576000600560006004848154811061253357612533613156565b60009182526020808320909101546001600160a01b0316835282019290925260400190205411156125d85760006004828154811061257357612573613156565b9060005260206000200160009054906101000a90046001600160a01b031690506125d4816001600160a01b03166335a226646040518163ffffffff1660e01b8152600401602060405180830381865afa158015611b99573d6000803e3d6000fd5b9250505b806125e281613182565b915050612510565b50600754604080516318160ddd60e01b815290516000926001600160a01b0316916318160ddd9160048083019260209291908290030181865afa158015612635573d6000803e3d6000fd5b505050506040513d601f19601f82011682018060405250810190612659919061310f565b90508060000361267357670de0b6b3a76400009250505090565b6126898161054384670de0b6b3a76400006128c1565b9250505090565b600481815481106126a057600080fd5b6000918252602090912001546001600160a01b0316905081565b6000806126c5611ad1565b905060008590506000816001600160a01b03166335a226646040518163ffffffff1660e01b8152600401602060405180830381865afa15801561270c573d6000803e3d6000fd5b505050506040513d601f19601f82011682018060405250810190612730919061310f565b90506000612781670de0b6b3a7640000610543856001600160a01b031663b49f4afd6040518163ffffffff1660e01b8152600401602060405180830381865afa158015611781573d6000803e3d6000fd5b905060006127926117bd8684612e35565b90508015612804576003546001600160a01b038a1660009081526005602052604081205490916127c891849161054391906128c1565b6003549091506127dc906105438a846128c1565b96506127e988600a613257565b8711156127fe576127fb88600a613257565b96505b5061280f565b61141287600a613257565b50505050509392505050565b612823612e41565b6001600160a01b0381166128885760405162461bcd60e51b815260206004820152602660248201527f4f776e61626c653a206e6577206f776e657220697320746865207a65726f206160448201526564647265737360d01b6064820152608401610583565b61289181612ef0565b50565b61289c612e41565b600081116128bc5760405162461bcd60e51b815260040161058390613231565b600855565b60006128cd8284613257565b90505b92915050565b60006128cd828461326e565b6002600054036129345760405162461bcd60e51b815260206004820152601f60248201527f5265656e7472616e637947756172643a207265656e7472616e742063616c6c006044820152606401610583565b6002600055565b600154600160a01b900460ff161561147f5760405162461bcd60e51b815260206004820152601060248201526f14185d5cd8589b194e881c185d5cd95960821b6044820152606401610583565b60006128cd8284613290565b6000846001600160a01b0316635001f3b56040518163ffffffff1660e01b8152600401602060405180830381865afa1580156129d4573d6000803e3d6000fd5b505050506040513d601f19601f820116820180604052508101906129f89190613214565b90506000846001600160a01b0316635001f3b56040518163ffffffff1660e01b8152600401602060405180830381865afa158015612a3a573d6000803e3d6000fd5b505050506040513d601f19601f82011682018060405250810190612a5e9190613214565b90506000612a7f612710610543612a7889886009546126ba565b87906128c1565b90506000612a8d8583612e35565b604051633e7bbdcf60e11b815260048101889052601260248201529091506000906001600160a01b038a1690637cf77b9e90604401602060405180830381865afa158015612adf573d6000803e3d6000fd5b505050506040513d601f19601f82011682018060405250810190612b03919061310f565b6040516323b872dd60e01b8152336004820152306024820152604481018290529091506001600160a01b038616906323b872dd906064016020604051808303816000875af1158015612b59573d6000803e3d6000fd5b505050506040513d601f19601f82011682018060405250810190612b7d91906131c7565b5060405163a9059cbb60e01b81526001600160a01b038a811660048301526024820183905286169063a9059cbb906044016020604051808303816000875af1158015612bcd573d6000803e3d6000fd5b505050506040513d601f19601f82011682018060405250810190612bf191906131c7565b506040516351380da560e11b8152600481018790526001600160a01b0389169063a2701b4a90602401600060405180830381600087803b158015612c3457600080fd5b505af1158015612c48573d6000803e3d6000fd5b5050604051633e7bbdcf60e11b815260048101859052601260248201526001600160a01b03808816935063a9059cbb92503391908c1690637cf77b9e90604401602060405180830381865afa158015612ca5573d6000803e3d6000fd5b505050506040513d601f19601f82011682018060405250810190612cc9919061310f565b6040516001600160e01b031960e085901b1681526001600160a01b03909216600483015260248201526044016020604051808303816000875af1158015612d14573d6000803e3d6000fd5b505050506040513d601f19601f82011682018060405250810190612d3891906131c7565b50600a54604051633e7bbdcf60e11b815260048101859052601260248201526001600160a01b038681169263a9059cbb92908216918c1690637cf77b9e90604401602060405180830381865afa158015612d96573d6000803e3d6000fd5b505050506040513d601f19601f82011682018060405250810190612dba919061310f565b6040516001600160e01b031960e085901b1681526001600160a01b03909216600483015260248201526044016020604051808303816000875af1158015612e05573d6000803e3d6000fd5b505050506040513d601f19601f82011682018060405250810190612e2991906131c7565b50505050505050505050565b60006128cd82846132a3565b6001546001600160a01b0316331461147f5760405162461bcd60e51b815260206004820181905260248201527f4f776e61626c653a2063616c6c6572206973206e6f7420746865206f776e65726044820152606401610583565b612ea3612f85565b6001805460ff60a01b191690557f5db9ee0a495bf2e6ff9c91a7834c1ba4fdd244a5e8aa4e537bd38aeae4b073aa335b6040516001600160a01b03909116815260200160405180910390a1565b600180546001600160a01b038381166001600160a01b0319831681179093556040519116919082907f8be0079c531659141344cd1fd0a4f28419497f9722a3daafe3b4186f6b6457e090600090a35050565b612f4a61293b565b6001805460ff60a01b1916600160a01b1790557f62e78cea01bee320cd4e420270b5ea74000d11b0c9f74754ebdbfc544b05a258612ed33390565b600154600160a01b900460ff1661147f5760405162461bcd60e51b815260206004820152601460248201527314185d5cd8589b194e881b9bdd081c185d5cd95960621b6044820152606401610583565b6001600160a01b038116811461289157600080fd5b600080600060608486031215612fff57600080fd5b833561300a81612fd5565b9250602084013561301a81612fd5565b929592945050506040919091013590565b6000806040838503121561303e57600080fd5b823561304981612fd5565b946020939093013593505050565b6000806000806080858703121561306d57600080fd5b843561307881612fd5565b9350602085013561308881612fd5565b93969395505050506040820135916060013590565b6000602082840312156130af57600080fd5b81356130ba81612fd5565b9392505050565b6000602082840312156130d357600080fd5b5035919050565b6000806000606084860312156130ef57600080fd5b83356130fa81612fd5565b95602085013595506040909401359392505050565b60006020828403121561312157600080fd5b5051919050565b602080825260149082015273494e56414c49445f5245504f5f4144445245535360601b604082015260600190565b634e487b7160e01b600052603260045260246000fd5b634e487b7160e01b600052601160045260246000fd5b6000600182016131945761319461316c565b5060010190565b60208082526012908201527124a72b20a624a22fa822a926a4a9a9a4a7a760711b604082015260600190565b6000602082840312156131d957600080fd5b815180151581146130ba57600080fd5b6020808252601190820152701253959053125117d5d2125511531254d5607a1b604082015260600190565b60006020828403121561322657600080fd5b81516130ba81612fd5565b6020808252600c908201526b494e56414c49445f4441544160a01b604082015260600190565b80820281158282048414176128d0576128d061316c565b60008261328b57634e487b7160e01b600052601260045260246000fd5b500490565b808201808211156128d0576128d061316c565b818103818111156128d0576128d061316c56fea2646970667358221220c2d2f271ad982238e614ed54734b849df5b702fac0b2af609dbdf927373ac38b64736f6c63430008110033",
  "immutableReferences": {},
  "source": "// SPDX-License-Identifier: MIT\npragma solidity >=0.8.0;\n\nimport \"@openzeppelin/contracts/utils/math/SafeMath.sol\";\nimport \"@openzeppelin/contracts/token/ERC20/IERC20.sol\";\nimport \"@openzeppelin/contracts/access/Ownable.sol\";\nimport \"@openzeppelin/contracts/security/ReentrancyGuard.sol\";\nimport \"@openzeppelin/contracts/security/Pausable.sol\";\n\nimport '../interfaces/IERC20withBurnAndMint.sol';\nimport '../interfaces/IGarbiRepository.sol';\nimport '../interfaces/IGarbiswapWhitelist.sol';\n\ncontract GarbiRepositoryManager is ReentrancyGuard, Ownable, Pausable {\n    using SafeMath for uint256;\n\n    IGarbiswapWhitelist public whitelist; \n\n    uint256 public totalShares = 1000;\n\n    struct RepoInfo {\n        uint256 share;\n        uint256 maxCapacityLimit;\n    }\n\n    // Array of repo addresses\n    address[] public repoAddresses;\n\n    mapping(address => RepoInfo) public repoList;  \n\n    mapping(address => address) public baseToRepo;  \n\n    IERC20withBurnAndMint public GarbiEC;\n\n    uint256 SELL_GARBIEC_FEE = 35; //35/10000 = 0.35%\n\n    uint256 SWAP_FEE = 1; //1/10000 = 0.01%\n\n    address public platformFundAddress;\n\n    modifier onlyRepoInTheList(address repoAddress)\n    {\n        require(repoAddress != address(0), 'INVALID_REPO_ADDRESS');\n        uint flag = 0;\n        for (uint i = 0; i < repoAddresses.length; i++) {\n            if(repoAddresses[i] == repoAddress) {\n                flag = 1;\n                break;\n            }\n        }\n        require(flag == 1, \"INVALID_PERMISSION\");\n        _;\n    }\n\n    modifier onlyWhitelist()\n    {\n        if (msg.sender != tx.origin) {\n            require(whitelist.whitelisted(msg.sender) == true, 'INVALID_WHITELIST');\n        }\n        _;\n    }\n\n    // Events\n    event onAddRepository(address repoAddress, uint256 repoShare, uint256 repoMaxCapacityLimit);\n    event onUpdateRepository(address repoAddress, uint256 repoShare, uint256 repoMaxCapacityLimit); \n    event onBuyGarbiEC(address user, address repoInAddress, uint256 assetInAmount, uint256 garbiECOutAmount);\n    event onSellGarbiEC(address user, address repoOutAddress, uint256 assetOutAmount, uint256 garbiECInAmount);\n    event onSwapTokenToToken(address user, address repoInAddress, address repoOutAddress, uint256 tokenInputAmount, uint256 tokenOutputAmount);\n\n    constructor(\n        IERC20withBurnAndMint garbiECContract,\n        IGarbiswapWhitelist whitelistContract\n    ){\n        GarbiEC = garbiECContract;\n        whitelist = whitelistContract;\n        platformFundAddress = _msgSender();\n    }\n    \n    function addRepository(address repoAddress, uint256 repoShare, uint256 repoMaxCapacityLimit) public onlyOwner {\n        require(repoAddress != address(0), 'INVALID_REPO_ADDRESS');\n        require(repoShare > 0, 'INVALID_REPO_SHARE');\n        require(repoMaxCapacityLimit > 0, 'INVALID_REPO_CAPACITY');\n\n        repoList[repoAddress] = RepoInfo({\n            share : repoShare,\n            maxCapacityLimit : repoMaxCapacityLimit\n        });\n\n        repoAddresses.push(repoAddress);\n\n        IGarbiRepository repo = IGarbiRepository(repoAddress);\n\n        baseToRepo[repo.base()] = repoAddress;\n\n        emit onAddRepository(repoAddress, repoShare, repoMaxCapacityLimit);\n    }\n\n    function updateRepository(address repoAddress, uint256 repoShare, uint256 repoMaxCapacityLimit) public onlyOwner {\n        require(repoAddress != address(0), 'INVALID_REPO_ADDRESS');\n        require(repoShare > 0, 'INVALID_REPO_SHARE');\n        require(repoMaxCapacityLimit > 0, 'INVALID_REPO_CAPACITY');\n\n        repoList[repoAddress] = RepoInfo({\n            share : repoShare,\n            maxCapacityLimit : repoMaxCapacityLimit\n        });\n\n        emit onUpdateRepository(repoAddress, repoShare, repoMaxCapacityLimit);\n    }\n\n    function setTotalShares(uint256 newTotalShares) public onlyOwner {\n        require(newTotalShares > 0, 'INVALID_DATA');\n        totalShares = newTotalShares;\n    }\n\n    function setSellGarbiECFee(uint256 newFee) public onlyOwner {\n        require(newFee > 0, 'INVALID_DATA');\n        SELL_GARBIEC_FEE = newFee;\n    }\n\n    function setPlatformFundAdress(address newAddress) public onlyOwner {\n        platformFundAddress = newAddress;\n    }\n\n    function setGarbiEquityCertificateContract(IERC20withBurnAndMint newGarbiECContract) public onlyOwner {\n        require(address(newGarbiECContract) != address(0), 'INVALID_DATA');\n        GarbiEC = newGarbiECContract;\n    }\n\n    function buyGarbiEquityCertificate(address repoInAddress, uint256 assetInAmount) public nonReentrant onlyRepoInTheList(repoInAddress) onlyWhitelist whenNotPaused{\n        require(assetInAmount > 0, 'INVALID_ASSET_AMOUNT');\n        require(repoList[repoInAddress].share > 0, 'INVALID_REPO');\n        \n        IGarbiRepository repoIn = IGarbiRepository(repoInAddress);\n\n        require(repoIn.getCapacityByToken().add(assetInAmount) <= repoList[repoInAddress].maxCapacityLimit, 'INVALID_ASSET_CAPACITY');\n\n        IERC20 base = IERC20(repoIn.base());\n\n        uint256 baseUserBalance = base.balanceOf(msg.sender);\n        baseUserBalance = repoIn.convertDecimalTo18(baseUserBalance, repoIn.baseDecimal());\n\n        if(assetInAmount > baseUserBalance) {\n            assetInAmount = baseUserBalance;\n        }\n        \n        uint256 garbiECOutAmount = getDataToBuyGarbiEC(repoInAddress, assetInAmount);\n\n        //make trade\n        uint256 assetInAmountAtAssetDecimal = repoIn.convertToBaseDecimal(assetInAmount, 18);\n        base.transferFrom(msg.sender, address(this), assetInAmountAtAssetDecimal);\n        GarbiEC.mint(address(this), garbiECOutAmount);\n        base.transfer(repoInAddress, assetInAmountAtAssetDecimal);\n        GarbiEC.transfer(msg.sender, garbiECOutAmount);\n\n        emit onBuyGarbiEC(msg.sender, repoInAddress, assetInAmount, garbiECOutAmount);\n    }\n\n    function sellGarbiEquityCertificate(address repoOutAddress, uint256 garbiECInAmount) public nonReentrant onlyRepoInTheList(repoOutAddress) onlyWhitelist whenNotPaused{\n        require(garbiECInAmount > 0, 'INVALID_GARBIEC_AMOUNT');\n        require(repoList[repoOutAddress].share > 0, 'INVALID_REPO');\n        \n        IGarbiRepository repoOut = IGarbiRepository(repoOutAddress);\n\n        IERC20 base = IERC20(repoOut.base());\n\n        uint256 garbiECUserBalance = GarbiEC.balanceOf(msg.sender);\n\n        if(garbiECInAmount > garbiECUserBalance) {\n            garbiECInAmount = garbiECUserBalance;\n        }\n\n        uint256 baseOutAmount = getDataToSellGarbiEC(repoOutAddress, garbiECInAmount);\n        \n        require(baseOutAmount > 0, 'INVALID_OUT_AMOUNT_ZERO');\n        require(baseOutAmount <= repoOut.getCapacityByToken(), 'INVALID_OUT_AMOUNT');\n\n        uint256 fee = baseOutAmount.mul(getSellGarbiECDynamicFee(repoOutAddress, baseOutAmount, SELL_GARBIEC_FEE)).div(10000);\n        uint256 baseOutAmountAfterFee = baseOutAmount.sub(fee);\n\n        //make trade\n        GarbiEC.transferFrom(msg.sender, address(this), garbiECInAmount);\n        GarbiEC.burn(garbiECInAmount);\n        repoOut.withdrawBaseToRepositoryManager(baseOutAmount);\n        base.transfer(msg.sender, repoOut.convertToBaseDecimal(baseOutAmountAfterFee, 18));\n        //transfer fee\n        base.transfer(platformFundAddress, repoOut.convertToBaseDecimal(fee, 18));\n\n        emit onSellGarbiEC(msg.sender, repoOutAddress, baseOutAmountAfterFee, garbiECInAmount);\n    }\n\n    function swapTokenToTokenWithTokenInput(address repoInAddress, address repoOutAddress, uint256 tokenInputAmount, uint256 minTokenOutputAmount) public onlyRepoInTheList(repoInAddress) onlyRepoInTheList(repoOutAddress) nonReentrant onlyWhitelist whenNotPaused {\n        require(repoInAddress != repoOutAddress, 'INVALID_PAIR');\n        require(tokenInputAmount > 0, 'INVALID_TOKEN_INPUT_AMOUNT');\n        require(minTokenOutputAmount > 0, 'INVALID_MIN_TOKEN_OUTPUT_AMOUNT');\n\n        IGarbiRepository repoIn = IGarbiRepository(repoInAddress);\n        IGarbiRepository repoOut = IGarbiRepository(repoOutAddress);\n        \n        uint256 tokenOutputAmount = getTokenOutputAmountFromTokenInput(repoIn, repoOut, tokenInputAmount);\n        require(tokenOutputAmount <= repoOut.getCapacityByToken(), 'INVALID_OUT_AMOUNT');\n        require(tokenOutputAmount >= minTokenOutputAmount, 'CAN_NOT_MAKE_TRADE');\n\n        IERC20 baseIn = IERC20(repoIn.base());\n\n        uint256 baseInUserBalance = repoIn.convertDecimalTo18(baseIn.balanceOf(msg.sender), repoIn.baseDecimal());\n\n        require(tokenInputAmount <= baseInUserBalance, 'TOKEN_INPUT_AMOUNT_HIGHER_USER_BALANCE');\n        \n        //make trade\n        makeTradeOnTwoRepos(repoIn, repoOut, tokenInputAmount, tokenOutputAmount);\n\n        emit onSwapTokenToToken(msg.sender, repoInAddress, repoOutAddress, tokenInputAmount, tokenOutputAmount);\n    }\n\n    function makeTradeOnTwoRepos(IGarbiRepository repoIn, IGarbiRepository repoOut, uint256 tokenInputAmount, uint256 tokenOutputAmount) private {\n        IERC20 baseIn = IERC20(repoIn.base());\n        IERC20 baseOut = IERC20(repoOut.base());\n        uint256 fee = tokenOutputAmount.mul(getSellGarbiECDynamicFee(address(repoOut), tokenOutputAmount, SWAP_FEE)).div(10000);\n        uint256 tokenOutputAmountAfterFee = tokenOutputAmount.sub(fee);\n        uint256 tokenInputAmountAtTokenDecimal = repoIn.convertToBaseDecimal(tokenInputAmount, 18);\n        baseIn.transferFrom(msg.sender, address(this), tokenInputAmountAtTokenDecimal);\n        baseIn.transfer(address(repoIn), tokenInputAmountAtTokenDecimal);\n        repoOut.withdrawBaseToRepositoryManager(tokenOutputAmount);\n        baseOut.transfer(msg.sender, repoOut.convertToBaseDecimal(tokenOutputAmountAfterFee, 18));\n        //transfer fee\n        baseOut.transfer(platformFundAddress, repoOut.convertToBaseDecimal(fee, 18));\n    }\n\n    function getTokenOutputAmountFromTokenInput(IGarbiRepository repoIn, IGarbiRepository repoOut, uint256 tokenInputAmount) public view returns (uint256) {\n        uint256 tokenInputPriceFromOracle = repoIn.getBasePrice();\n        uint256 tokenOuputPriceFromOracle = repoOut.getBasePrice();\n        uint256 tokenOutputAmount = tokenInputAmount.mul(tokenInputPriceFromOracle).div(tokenOuputPriceFromOracle);\n        return tokenOutputAmount;\n    }\n\n    function getTokenOutputWithFee(address repoInAddress, address repoOutAddress, uint256 tokenInputAmount) public view returns (uint256) {\n        IGarbiRepository repoIn = IGarbiRepository(repoInAddress);\n        IGarbiRepository repoOut = IGarbiRepository(repoOutAddress);\n        uint256 tokenOutputAmount = getTokenOutputAmountFromTokenInput(repoIn, repoOut, tokenInputAmount);\n        if(tokenOutputAmount > repoOut.getCapacityByToken()) {\n            tokenOutputAmount = repoOut.getCapacityByToken();\n        }\n        uint256 fee = tokenOutputAmount.mul(getSellGarbiECDynamicFee(repoOutAddress, tokenOutputAmount, SWAP_FEE)).div(10000);\n        uint256 tokenOutputAmountAfterFee = tokenOutputAmount.sub(fee);\n        return tokenOutputAmountAfterFee;\n    }\n\n    function getGarbiECPrice() public view returns(uint256 garbiECPrice) {\n        uint256 totalCapacityByUSD = 0;\n        for (uint i = 0; i < repoAddresses.length; i++) {\n            if(repoList[repoAddresses[i]].share > 0) {\n                IGarbiRepository repo = IGarbiRepository(repoAddresses[i]);\n                totalCapacityByUSD = totalCapacityByUSD.add(repo.getCapacityByUSD());\n            }\n        }\n\n        uint256 garbiECTotalSupply = GarbiEC.totalSupply();\n\n        if(garbiECTotalSupply == 0) {\n            garbiECPrice = 1e18;\n        }\n        else {\n            garbiECPrice = totalCapacityByUSD.mul(1e18).div(garbiECTotalSupply);\n        }\n    }\n\n    function getDataToBuyGarbiEC(address repoInAddress, uint256 assetInAmount) public view returns (uint256 garbiECOutAmount) {\n       uint256 garbiECPrice = getGarbiECPrice();\n       IGarbiRepository repoIn = IGarbiRepository(repoInAddress);\n\n       uint256 assetPrice = repoIn.getBasePrice();\n\n       garbiECOutAmount = assetInAmount.mul(assetPrice).div(garbiECPrice);\n    }\n\n    function getDataToSellGarbiEC(address repoOutAddress, uint256 garbiECInAmount) public view returns (uint256 assetOutAmount) {\n       uint256 garbiECPrice = getGarbiECPrice();\n       IGarbiRepository repoOut = IGarbiRepository(repoOutAddress);\n\n       uint256 assetPrice = repoOut.getBasePrice();\n\n       assetOutAmount = garbiECInAmount.mul(garbiECPrice).div(assetPrice);\n    }\n\n    function getDataToSellGarbiECWithFee(address repoOutAddress, uint256 garbiECInAmount) public view returns (uint256 assetOutAmountAfterFee) {\n       uint256 garbiECPrice = getGarbiECPrice();\n       IGarbiRepository repoOut = IGarbiRepository(repoOutAddress);\n\n       uint256 assetPrice = repoOut.getBasePrice();\n\n       uint256 assetOutAmount = garbiECInAmount.mul(garbiECPrice).div(assetPrice);\n\n       if(assetOutAmount > repoOut.getCapacityByToken()) {\n            assetOutAmountAfterFee = 0;\n       }\n       else {\n            uint256 fee = assetOutAmount.mul(getSellGarbiECDynamicFee(repoOutAddress, assetOutAmount, SELL_GARBIEC_FEE)).div(10000);\n            assetOutAmountAfterFee = assetOutAmount.sub(fee);\n       }\n    }\n\n    function getTotalAllRepoCapacityByUSD() public view returns (uint256 totalCapacityByUSD) {\n        for (uint i = 0; i < repoAddresses.length; i++) {\n            if(repoList[repoAddresses[i]].share > 0) {\n                IGarbiRepository repo = IGarbiRepository(repoAddresses[i]);\n                totalCapacityByUSD = totalCapacityByUSD.add(repo.getCapacityByUSD());\n            }\n        }\n    }\n\n    function getSellGarbiECDynamicFee(address repoOutAddress, uint256 assetOutAmount, uint256 baseFee) public view returns (uint256 fee) {\n        uint256 totalCapacityByUSD = getTotalAllRepoCapacityByUSD();\n        IGarbiRepository repoOut = IGarbiRepository(repoOutAddress);\n        uint256 repoOutTotalCapacityByUSD = repoOut.getCapacityByUSD();\n        uint256 assetOutAmountByUSD = assetOutAmount.mul(repoOut.getBasePrice()).div(10**18);\n        uint256 repoShareAfterOut = repoOutTotalCapacityByUSD.sub(assetOutAmountByUSD).mul(totalShares).div(totalCapacityByUSD.sub(assetOutAmountByUSD));\n        if(repoShareAfterOut > 0) {\n            uint256 shareDiff = repoList[repoOutAddress].share.mul(totalShares).div(repoShareAfterOut);\n            fee = baseFee.mul(shareDiff).div(totalShares);\n            if(fee > baseFee*10) {\n                fee = baseFee*10; //max fee\n            }\n        }\n        else {\n            fee = baseFee*10; //max fee\n        }\n    }\n\n    function getFeeWithOutAmount(address repoOutAddress, uint256 assetOutAmount) public view returns (uint256 sellGarbiECfee, uint256 swapFee) {\n        uint256 totalCapacityByUSD = getTotalAllRepoCapacityByUSD();\n        IGarbiRepository repoOut = IGarbiRepository(repoOutAddress);\n        uint256 repoOutTotalCapacityByUSD = repoOut.getCapacityByUSD();\n        uint256 assetOutAmountByUSD = assetOutAmount.mul(repoOut.getBasePrice()).div(10**18);\n        uint256 repoShareAfterOut = repoOutTotalCapacityByUSD.sub(assetOutAmountByUSD).mul(totalShares).div(totalCapacityByUSD.sub(assetOutAmountByUSD));\n        if(repoShareAfterOut > 0) {\n            uint256 shareDiff = repoList[repoOutAddress].share.mul(totalShares).div(repoShareAfterOut);\n            sellGarbiECfee = SELL_GARBIEC_FEE.mul(shareDiff).div(totalShares);\n            swapFee = SWAP_FEE.mul(shareDiff).div(totalShares);\n            if(sellGarbiECfee > SELL_GARBIEC_FEE*10) {\n                sellGarbiECfee = SELL_GARBIEC_FEE*10; //max fee\n            }\n            if(swapFee > SWAP_FEE*10) {\n                swapFee = SWAP_FEE*10; //max fee\n            }\n        }\n        else {\n            sellGarbiECfee = SELL_GARBIEC_FEE*10;\n            swapFee = SWAP_FEE*10;\n        }\n    }\n\n    function pause() public onlyOwner {\n        _pause();\n    }\n    \n    function unpause() public onlyOwner {\n        _unpause();\n    }\n}",
  "sourcePath": "/Applications/projects/garbiprotocol.github.io/garbi_contracts/contracts/GarbiSwap2/GarbiRepositoryManager.sol",
  "compiler": {
    "name": "solc",
    "version": "0.8.17+commit.8df45f5f.Emscripten.clang"
  },
  "schemaVersion": "3.4.11",
  "updatedAt": "2023-03-07T08:31:56.925Z",
  "networkType": "ethereum",
  "devdoc": {
    "kind": "dev",
    "methods": {
      "owner()": {
        "details": "Returns the address of the current owner."
      },
      "paused()": {
        "details": "Returns true if the contract is paused, and false otherwise."
      },
      "renounceOwnership()": {
        "details": "Leaves the contract without owner. It will not be possible to call `onlyOwner` functions anymore. Can only be called by the current owner. NOTE: Renouncing ownership will leave the contract without an owner, thereby removing any functionality that is only available to the owner."
      },
      "transferOwnership(address)": {
        "details": "Transfers ownership of the contract to a new account (`newOwner`). Can only be called by the current owner."
      }
    },
    "version": 1
  },
  "userdoc": {
    "kind": "user",
    "methods": {},
    "version": 1
  }
}