{
  "contractName": "GarbiFarmGEC",
  "abi": [
    {
      "inputs": [
        {
          "internalType": "contract IGarbiMining",
          "name": "_miningMachine",
          "type": "address"
        },
        {
          "internalType": "contract IERC20",
          "name": "_want",
          "type": "address"
        },
        {
          "internalType": "uint256",
          "name": "_pidOfMining",
          "type": "uint256"
        }
      ],
      "stateMutability": "nonpayable",
      "type": "constructor"
    },
    {
      "anonymous": false,
      "inputs": [
        {
          "indexed": true,
          "internalType": "address",
          "name": "previousOwner",
          "type": "address"
        },
        {
          "indexed": true,
          "internalType": "address",
          "name": "newOwner",
          "type": "address"
        }
      ],
      "name": "OwnershipTransferred",
      "type": "event"
    },
    {
      "anonymous": false,
      "inputs": [
        {
          "indexed": false,
          "internalType": "string",
          "name": "_functionName",
          "type": "string"
        }
      ],
      "name": "onCancelTransactions",
      "type": "event"
    },
    {
      "anonymous": false,
      "inputs": [
        {
          "indexed": false,
          "internalType": "address",
          "name": "_user",
          "type": "address"
        },
        {
          "indexed": false,
          "internalType": "uint256",
          "name": "_amount",
          "type": "uint256"
        }
      ],
      "name": "onDeposit",
      "type": "event"
    },
    {
      "anonymous": false,
      "inputs": [
        {
          "indexed": false,
          "internalType": "address",
          "name": "_user",
          "type": "address"
        },
        {
          "indexed": false,
          "internalType": "uint256",
          "name": "_amount",
          "type": "uint256"
        }
      ],
      "name": "onEmergencyWithdraw",
      "type": "event"
    },
    {
      "anonymous": false,
      "inputs": [
        {
          "indexed": false,
          "internalType": "string",
          "name": "_functionName",
          "type": "string"
        },
        {
          "indexed": false,
          "internalType": "string",
          "name": "_fieldName",
          "type": "string"
        },
        {
          "indexed": false,
          "internalType": "address",
          "name": "_value",
          "type": "address"
        }
      ],
      "name": "onQueuedTransactionsChangeAddress",
      "type": "event"
    },
    {
      "anonymous": false,
      "inputs": [
        {
          "indexed": false,
          "internalType": "string",
          "name": "_functionName",
          "type": "string"
        },
        {
          "indexed": false,
          "internalType": "string",
          "name": "_fieldName",
          "type": "string"
        },
        {
          "indexed": false,
          "internalType": "uint256",
          "name": "_value",
          "type": "uint256"
        }
      ],
      "name": "onQueuedTransactionsChangeUint",
      "type": "event"
    },
    {
      "anonymous": false,
      "inputs": [
        {
          "indexed": false,
          "internalType": "address",
          "name": "_user",
          "type": "address"
        },
        {
          "indexed": false,
          "internalType": "uint256",
          "name": "_amount",
          "type": "uint256"
        }
      ],
      "name": "onWithdraw",
      "type": "event"
    },
    {
      "inputs": [],
      "name": "GRACE_PERIOD",
      "outputs": [
        {
          "internalType": "uint256",
          "name": "",
          "type": "uint256"
        }
      ],
      "stateMutability": "view",
      "type": "function",
      "constant": true
    },
    {
      "inputs": [],
      "name": "MAXIMUM_DELAY",
      "outputs": [
        {
          "internalType": "uint256",
          "name": "",
          "type": "uint256"
        }
      ],
      "stateMutability": "view",
      "type": "function",
      "constant": true
    },
    {
      "inputs": [],
      "name": "MINIMUM_DELAY",
      "outputs": [
        {
          "internalType": "uint256",
          "name": "",
          "type": "uint256"
        }
      ],
      "stateMutability": "view",
      "type": "function",
      "constant": true
    },
    {
      "inputs": [],
      "name": "PLATFORM_FEE",
      "outputs": [
        {
          "internalType": "uint256",
          "name": "",
          "type": "uint256"
        }
      ],
      "stateMutability": "view",
      "type": "function",
      "constant": true
    },
    {
      "inputs": [],
      "name": "delay",
      "outputs": [
        {
          "internalType": "uint256",
          "name": "",
          "type": "uint256"
        }
      ],
      "stateMutability": "view",
      "type": "function",
      "constant": true
    },
    {
      "inputs": [],
      "name": "miningMachine",
      "outputs": [
        {
          "internalType": "contract IGarbiMining",
          "name": "",
          "type": "address"
        }
      ],
      "stateMutability": "view",
      "type": "function",
      "constant": true
    },
    {
      "inputs": [],
      "name": "owner",
      "outputs": [
        {
          "internalType": "address",
          "name": "",
          "type": "address"
        }
      ],
      "stateMutability": "view",
      "type": "function",
      "constant": true
    },
    {
      "inputs": [],
      "name": "pidOfMining",
      "outputs": [
        {
          "internalType": "uint256",
          "name": "",
          "type": "uint256"
        }
      ],
      "stateMutability": "view",
      "type": "function",
      "constant": true
    },
    {
      "inputs": [],
      "name": "platformFundAddress",
      "outputs": [
        {
          "internalType": "address",
          "name": "",
          "type": "address"
        }
      ],
      "stateMutability": "view",
      "type": "function",
      "constant": true
    },
    {
      "inputs": [],
      "name": "renounceOwnership",
      "outputs": [],
      "stateMutability": "nonpayable",
      "type": "function"
    },
    {
      "inputs": [
        {
          "internalType": "address",
          "name": "",
          "type": "address"
        }
      ],
      "name": "shareOf",
      "outputs": [
        {
          "internalType": "uint256",
          "name": "",
          "type": "uint256"
        }
      ],
      "stateMutability": "view",
      "type": "function",
      "constant": true
    },
    {
      "inputs": [
        {
          "internalType": "bytes32",
          "name": "",
          "type": "bytes32"
        }
      ],
      "name": "timeLockOf",
      "outputs": [
        {
          "internalType": "bool",
          "name": "queuedTransactions",
          "type": "bool"
        },
        {
          "internalType": "uint256",
          "name": "timeOfExecute",
          "type": "uint256"
        }
      ],
      "stateMutability": "view",
      "type": "function",
      "constant": true
    },
    {
      "inputs": [],
      "name": "totalShare",
      "outputs": [
        {
          "internalType": "uint256",
          "name": "",
          "type": "uint256"
        }
      ],
      "stateMutability": "view",
      "type": "function",
      "constant": true
    },
    {
      "inputs": [
        {
          "internalType": "address",
          "name": "newOwner",
          "type": "address"
        }
      ],
      "name": "transferOwnership",
      "outputs": [],
      "stateMutability": "nonpayable",
      "type": "function"
    },
    {
      "inputs": [],
      "name": "version",
      "outputs": [
        {
          "internalType": "uint256",
          "name": "",
          "type": "uint256"
        }
      ],
      "stateMutability": "view",
      "type": "function",
      "constant": true
    },
    {
      "inputs": [],
      "name": "want",
      "outputs": [
        {
          "internalType": "contract IERC20",
          "name": "",
          "type": "address"
        }
      ],
      "stateMutability": "view",
      "type": "function",
      "constant": true
    },
    {
      "inputs": [
        {
          "internalType": "uint256",
          "name": "delay_",
          "type": "uint256"
        }
      ],
      "name": "setDelay",
      "outputs": [],
      "stateMutability": "nonpayable",
      "type": "function"
    },
    {
      "inputs": [
        {
          "internalType": "string",
          "name": "_functionName",
          "type": "string"
        }
      ],
      "name": "cancelTransactions",
      "outputs": [],
      "stateMutability": "nonpayable",
      "type": "function"
    },
    {
      "inputs": [
        {
          "internalType": "string",
          "name": "_functionName",
          "type": "string"
        },
        {
          "internalType": "string",
          "name": "_fieldName",
          "type": "string"
        },
        {
          "internalType": "address",
          "name": "_newAddr",
          "type": "address"
        }
      ],
      "name": "queuedTransactionsChangeAddress",
      "outputs": [],
      "stateMutability": "nonpayable",
      "type": "function"
    },
    {
      "inputs": [
        {
          "internalType": "string",
          "name": "_functionName",
          "type": "string"
        },
        {
          "internalType": "string",
          "name": "_fieldName",
          "type": "string"
        },
        {
          "internalType": "uint256",
          "name": "_value",
          "type": "uint256"
        }
      ],
      "name": "queuedTransactionsChangeUint",
      "outputs": [],
      "stateMutability": "nonpayable",
      "type": "function"
    },
    {
      "inputs": [],
      "name": "setMiningMachine",
      "outputs": [],
      "stateMutability": "nonpayable",
      "type": "function"
    },
    {
      "inputs": [
        {
          "internalType": "uint256",
          "name": "_platformFee",
          "type": "uint256"
        }
      ],
      "name": "setPlatformFee",
      "outputs": [],
      "stateMutability": "nonpayable",
      "type": "function"
    },
    {
      "inputs": [
        {
          "internalType": "address",
          "name": "newAddress",
          "type": "address"
        }
      ],
      "name": "setPlatformFundAdress",
      "outputs": [],
      "stateMutability": "nonpayable",
      "type": "function"
    },
    {
      "inputs": [],
      "name": "changeTokenAddress",
      "outputs": [],
      "stateMutability": "nonpayable",
      "type": "function"
    },
    {
      "inputs": [],
      "name": "setPidOfMining",
      "outputs": [],
      "stateMutability": "nonpayable",
      "type": "function"
    },
    {
      "inputs": [
        {
          "internalType": "uint256",
          "name": "_wantAmt",
          "type": "uint256"
        }
      ],
      "name": "deposit",
      "outputs": [],
      "stateMutability": "nonpayable",
      "type": "function"
    },
    {
      "inputs": [
        {
          "internalType": "uint256",
          "name": "_wantAmt",
          "type": "uint256"
        }
      ],
      "name": "withdraw",
      "outputs": [],
      "stateMutability": "nonpayable",
      "type": "function"
    },
    {
      "inputs": [],
      "name": "emergencyWithdraw",
      "outputs": [],
      "stateMutability": "nonpayable",
      "type": "function"
    },
    {
      "inputs": [
        {
          "internalType": "address",
          "name": "_user",
          "type": "address"
        }
      ],
      "name": "harvest",
      "outputs": [
        {
          "internalType": "uint256",
          "name": "_pendingVeGRB",
          "type": "uint256"
        }
      ],
      "stateMutability": "nonpayable",
      "type": "function"
    },
    {
      "inputs": [
        {
          "internalType": "address",
          "name": "_user",
          "type": "address"
        }
      ],
      "name": "getData",
      "outputs": [
        {
          "internalType": "uint256",
          "name": "miningSpeed_",
          "type": "uint256"
        },
        {
          "internalType": "uint256",
          "name": "userWantBal_",
          "type": "uint256"
        },
        {
          "internalType": "uint256",
          "name": "totalMintPerDay_",
          "type": "uint256"
        },
        {
          "internalType": "uint256",
          "name": "userETHBal_",
          "type": "uint256"
        },
        {
          "internalType": "uint256",
          "name": "userGRBPending_",
          "type": "uint256"
        },
        {
          "internalType": "uint256",
          "name": "userWantShare_",
          "type": "uint256"
        },
        {
          "internalType": "uint256",
          "name": "tvl_",
          "type": "uint256"
        }
      ],
      "stateMutability": "view",
      "type": "function",
      "constant": true
    }
  ],
  "bytecode": "0x60806040526064600255600060045560006008553480156200002057600080fd5b5060405162001e5138038062001e51833981016040819052620000439162000125565b60016000556200005333620000ba565b600380546001600160a01b038085166001600160a01b03199283161790925560068054928616929091169190911790556007819055620000903390565b600580546001600160a01b0319166001600160a01b0392909216919091179055506200016d915050565b600180546001600160a01b038381166001600160a01b0319831681179093556040519116919082907f8be0079c531659141344cd1fd0a4f28419497f9722a3daafe3b4186f6b6457e090600090a35050565b6001600160a01b03811681146200012257600080fd5b50565b6000806000606084860312156200013b57600080fd5b835162000148816200010c565b60208501519093506200015b816200010c565b80925050604084015190509250925092565b611cd4806200017d6000396000f3fe608060405234801561001057600080fd5b50600436106101da5760003560e01c80638cac8f0311610104578063b6b55f25116100a2578063db2e21bc11610071578063db2e21bc146103f2578063e177246e146103fa578063f2fde38b1461040d578063f47a396f1461042057600080fd5b8063b6b55f25146103c4578063bce645db146103d7578063c1a287e21461034b578063d1b8a3b5146103ea57600080fd5b80638fe6041d116100de5780638fe6041d146103815780639312dc5f146103945780639fa5e63e146103a7578063b1b43ae5146103ba57600080fd5b80638cac8f03146103555780638da5cb5b146103685780638ecc676f1461037957600080fd5b806332009eda1161017c5780636a42b8f81161014b5780636a42b8f8146102f65780636edc28fd146102ff578063715018a6146103435780637d645fab1461034b57600080fd5b806332009eda1461029457806334fbc9a11461029c57806338266b22146102a557806354fd4d50146102ed57600080fd5b806314ca81ed116101b857806314ca81ed146102235780631f1fcd511461023657806321e5e2c4146102615780632e1a7d4d1461028157600080fd5b8063026c4207146101df5780630e5c011e146101fb57806312e8e2c31461020e575b600080fd5b6101e860085481565b6040519081526020015b60405180910390f35b6101e86102093660046118b9565b610429565b61022161021c3660046118d4565b6104ab565b005b610221610231366004611990565b6104b8565b600354610249906001600160a01b031681565b6040516001600160a01b0390911681526020016101f2565b6101e861026f3660046118b9565b60096020526000908152604090205481565b61022161028f3660046118d4565b6105b8565b610221610841565b6101e860045481565b6102b86102b33660046118b9565b6109b6565b604080519788526020880196909652948601939093526060850191909152608084015260a083015260c082015260e0016101f2565b6101e860025481565b6101e8600b5481565b61032c61030d3660046118d4565b600a602052600090815260409020805460019091015460ff9091169082565b6040805192151583526020830191909152016101f2565b610221610bc6565b6101e862278d0081565b610221610363366004611a04565b610bda565b6001546001600160a01b0316610249565b610221610c65565b61022161038f3660046118b9565b610e0c565b6102216103a2366004611a41565b610e36565b600554610249906001600160a01b031681565b6101e86202a30081565b6102216103d23660046118d4565b610f0b565b600654610249906001600160a01b031681565b6102216111db565b61022161134c565b6102216104083660046118d4565b6114e1565b61022161041b3660046118b9565b6115d7565b6101e860075481565b600654600754604051630c7e663b60e11b815260048101919091526001600160a01b03838116602483015260009216906318fccc76906044016020604051808303816000875af1158015610481573d6000803e3d6000fd5b505050506040513d601f19601f820116820180604052508101906104a59190611aae565b92915050565b6104b361164d565b600455565b6104c061164d565b6000600a6000856040516020016104d79190611b0d565b604051602081830303815290604052805190602001208152602001908152602001600020905081816002016000856040516020016105159190611b0d565b60408051808303601f1901815291815281516020928301208352908201929092520160002080546001600160a01b0319166001600160a01b0392909216919091179055805460ff19166001178155600b546105719042906116a7565b60018201556040517f1bd33efd68d2824f5f0f2519ce7c9ca0ddff6234523468e89077a0dca7b73970906105aa90869086908690611b20565b60405180910390a150505050565b6105c06116ba565b600081116105e95760405162461bcd60e51b81526004016105e090611b5e565b60405180910390fd5b6105f233610429565b5033600090815260096020526040902054818110156106535760405162461bcd60e51b815260206004820152601760248201527f494e56414c49445f414d4f554e545f574954484452415700000000000000000060448201526064016105e0565b3360009081526009602052604090205461066d9083611713565b3360009081526009602052604090205560085461068a9083611713565b6008556003546040516370a0823160e01b81523060048201526000916001600160a01b0316906370a0823190602401602060405180830381865afa1580156106d6573d6000803e3d6000fd5b505050506040513d601f19601f820116820180604052508101906106fa9190611aae565b905082811015610708578092505b60035460405163a9059cbb60e01b8152336004820152602481018590526001600160a01b039091169063a9059cbb906044016020604051808303816000875af1158015610759573d6000803e3d6000fd5b505050506040513d601f19601f8201168201806040525081019061077d9190611b85565b50600654600754604051638fb4e1cd60e01b815260048101919091523360248201526001600160a01b0390911690638fb4e1cd906044016020604051808303816000875af11580156107d3573d6000803e3d6000fd5b505050506040513d601f19601f820116820180604052508101906107f79190611b85565b5060408051338152602081018590527fccad973dcd043c7d680389db4378bd6b9775db7124092e9e0422c9e46d7985dc91015b60405180910390a1505061083e6001600055565b50565b61084961164d565b6000600a6000604051602001610885906020808252601290820152716368616e6765546f6b656e4164647265737360701b604082015260600190565b60405160208183030381529060405280519060200120815260200190815260200160002090506108b48161171f565b60006001600160a01b03168160020160006040516020016108d490611ba7565b60408051601f19818403018152918152815160209283012083529082019290925201600020546001600160a01b0316146109ac5780600201600060405160200161091d90611ba7565b60408051601f198184030181529181528151602092830120835282820193909352908201600090812054600380546001600160a01b0319166001600160a01b0390921691909117905591516002840192916109789101611ba7565b60408051601f1981840301815291815281516020928301208352908201929092520160002080546001600160a01b03191690555b805460ff19169055565b6003546040516370a0823160e01b81526001600160a01b03838116600483015260009283928392839283928392839216906370a0823190602401602060405180830381865afa158015610a0d573d6000803e3d6000fd5b505050506040513d601f19601f82011682018060405250810190610a319190611aae565b600654600754604051635e86cd9560e01b815260048101919091529197506001600160a01b031690635e86cd9590602401602060405180830381865afa158015610a7f573d6000803e3d6000fd5b505050506040513d601f19601f82011682018060405250810190610aa39190611aae565b6006546007546040516324aa7cc560e11b815260048101919091529196506001600160a01b031690634954f98a90602401602060405180830381865afa158015610af1573d6000803e3d6000fd5b505050506040513d601f19601f82011682018060405250810190610b159190611aae565b600654600754604051631069f3b560e01b815260048101919091526001600160a01b038b811660248301819052939a5092319650911690631069f3b590604401606060405180830381865afa158015610b72573d6000803e3d6000fd5b505050506040513d601f19601f82011682018060405250810190610b969190611bc5565b50506001600160a01b03909816600090815260096020526040902054600854979996989597949690949350915050565b610bce61164d565b610bd86000611833565b565b610be261164d565b6000600a600083604051602001610bf99190611b0d565b60408051601f1981840301815291815281516020928301208352908201929092528101600020805460ff1916815590519091507fce369f91d52b663114643c430217b52530c2cc7318cac7a3e9d46241cbc354a890610c59908490611b0d565b60405180910390a15050565b610c6d61164d565b6000600a6000604051602001610ca79060208082526010908201526f7365744d696e696e674d616368696e6560801b604082015260600190565b6040516020818303038152906040528051906020012081526020019081526020016000209050610cd68161171f565b60006001600160a01b0316816002016000604051602001610d18906020808252600d908201526c6d696e696e674d616368696e6560981b604082015260600190565b60408051601f19818403018152918152815160209283012083529082019290925201600020546001600160a01b031603610d865760405162461bcd60e51b815260206004820152600f60248201526e494e56414c49445f4144445245535360881b60448201526064016105e0565b806002016000604051602001610dbd906020808252600d908201526c6d696e696e674d616368696e6560981b604082015260600190565b60408051601f1981840301815291815281516020928301208352908201929092520160002054600680546001600160a01b0319166001600160a01b03909216919091179055805460ff19169055565b610e1461164d565b600580546001600160a01b0319166001600160a01b0392909216919091179055565b610e3e61164d565b6000600a600085604051602001610e559190611b0d565b60405160208183030381529060405280519060200120815260200190815260200160002090508181600301600085604051602001610e939190611b0d565b60408051601f1981840301815291815281516020928301208352908201929092520160002055805460ff19166001178155600b54610ed29042906116a7565b60018201556040517f860699cc7b0f3cb3d034fd31cdfe0816887a9f55d10993224d77c359c3d55551906105aa90869086908690611bf3565b610f136116ba565b60008111610f335760405162461bcd60e51b81526004016105e090611b5e565b6003546040516370a0823160e01b815233600482015282916001600160a01b0316906370a0823190602401602060405180830381865afa158015610f7b573d6000803e3d6000fd5b505050506040513d601f19601f82011682018060405250810190610f9f9190611aae565b1015610fbd5760405162461bcd60e51b81526004016105e090611b5e565b610fc633610429565b506003546040516323b872dd60e01b8152336004820152306024820152604481018390526001600160a01b03909116906323b872dd906064016020604051808303816000875af115801561101e573d6000803e3d6000fd5b505050506040513d601f19601f820116820180604052508101906110429190611b85565b5060006110666103e86110606004548561188590919063ffffffff16565b90611891565b60035460055460405163a9059cbb60e01b81526001600160a01b03918216600482015260248101849052929350169063a9059cbb906044016020604051808303816000875af11580156110bd573d6000803e3d6000fd5b505050506040513d601f19601f820116820180604052508101906110e19190611b85565b5060006110ee8383611713565b3360009081526009602052604090205490915061110b90826116a7565b3360009081526009602052604090205560085461112890826116a7565b600855600654600754604051638fb4e1cd60e01b815260048101919091523360248201526001600160a01b0390911690638fb4e1cd906044016020604051808303816000875af1158015611180573d6000803e3d6000fd5b505050506040513d601f19601f820116820180604052508101906111a49190611b85565b5060408051338152602081018590527f2bf9518c65eff7d1f3ee4106bf0dc41267ccde0924dbfa4ab476ed5c0f45da98910161082a565b6111e361164d565b6000600a600060405160200161121b906020808252600e908201526d7365745069644f664d696e696e6760901b604082015260600190565b604051602081830303815290604052805190602001208152602001908152602001600020905061124a8161171f565b6000816003016000604051602001611281906020808252600b908201526a7069644f664d696e696e6760a81b604082015260600190565b60405160208183030381529060405280519060200120815260200190815260200160002054116112e45760405162461bcd60e51b815260206004820152600e60248201526d1253959053125117d05353d5539560921b60448201526064016105e0565b806003016000604051602001611319906020808252600b908201526a7069644f664d696e696e6760a81b604082015260600190565b60408051601f1981840301815291815281516020928301208352908201929092520160002054600755805460ff19169055565b336000908152600960205260409020548061139a5760405162461bcd60e51b815260206004820152600e60248201526d1253959053125117d05353d5539560921b60448201526064016105e0565b336000908152600960205260408120556008546113b79082611713565b6008556003546040516370a0823160e01b81523060048201526000916001600160a01b0316906370a0823190602401602060405180830381865afa158015611403573d6000803e3d6000fd5b505050506040513d601f19601f820116820180604052508101906114279190611aae565b905081811015611435578091505b60035460405163a9059cbb60e01b8152336004820152602481018490526001600160a01b039091169063a9059cbb906044016020604051808303816000875af1158015611486573d6000803e3d6000fd5b505050506040513d601f19601f820116820180604052508101906114aa9190611b85565b5060408051338152602081018490527fc33863412a9dc216cbf16bc22dd0bd897cf3b59fe264e4e89db58f9b9c23d01b9101610c59565b6114e961164d565b6202a3008110156115595760405162461bcd60e51b815260206004820152603460248201527f54696d656c6f636b3a3a73657444656c61793a2044656c6179206d75737420656044820152733c31b2b2b21036b4b734b6bab6903232b630bc9760611b60648201526084016105e0565b62278d008111156115d25760405162461bcd60e51b815260206004820152603860248201527f54696d656c6f636b3a3a73657444656c61793a2044656c6179206d757374206e60448201527f6f7420657863656564206d6178696d756d2064656c61792e000000000000000060648201526084016105e0565b600b55565b6115df61164d565b6001600160a01b0381166116445760405162461bcd60e51b815260206004820152602660248201527f4f776e61626c653a206e6577206f776e657220697320746865207a65726f206160448201526564647265737360d01b60648201526084016105e0565b61083e81611833565b6001546001600160a01b03163314610bd85760405162461bcd60e51b815260206004820181905260248201527f4f776e61626c653a2063616c6c6572206973206e6f7420746865206f776e657260448201526064016105e0565b60006116b38284611c3f565b9392505050565b60026000540361170c5760405162461bcd60e51b815260206004820152601f60248201527f5265656e7472616e637947756172643a207265656e7472616e742063616c6c0060448201526064016105e0565b6002600055565b60006116b38284611c52565b805460ff1615156001146117755760405162461bcd60e51b815260206004820152601f60248201527f5472616e73616374696f6e206861736e2774206265656e207175657565642e0060448201526064016105e0565b42816001015411156117d95760405162461bcd60e51b815260206004820152602760248201527f5472616e73616374696f6e206861736e2774207375727061737365642074696d60448201526632903637b1b59760c91b60648201526084016105e0565b600181015442906117ed9062278d006116a7565b101561083e5760405162461bcd60e51b81526020600482015260156024820152742a3930b739b0b1ba34b7b71034b99039ba30b6329760591b60448201526064016105e0565b600180546001600160a01b038381166001600160a01b0319831681179093556040519116919082907f8be0079c531659141344cd1fd0a4f28419497f9722a3daafe3b4186f6b6457e090600090a35050565b60006116b38284611c65565b60006116b38284611c7c565b80356001600160a01b03811681146118b457600080fd5b919050565b6000602082840312156118cb57600080fd5b6116b38261189d565b6000602082840312156118e657600080fd5b5035919050565b634e487b7160e01b600052604160045260246000fd5b600082601f83011261191457600080fd5b813567ffffffffffffffff8082111561192f5761192f6118ed565b604051601f8301601f19908116603f01168101908282118183101715611957576119576118ed565b8160405283815286602085880101111561197057600080fd5b836020870160208301376000602085830101528094505050505092915050565b6000806000606084860312156119a557600080fd5b833567ffffffffffffffff808211156119bd57600080fd5b6119c987838801611903565b945060208601359150808211156119df57600080fd5b506119ec86828701611903565b9250506119fb6040850161189d565b90509250925092565b600060208284031215611a1657600080fd5b813567ffffffffffffffff811115611a2d57600080fd5b611a3984828501611903565b949350505050565b600080600060608486031215611a5657600080fd5b833567ffffffffffffffff80821115611a6e57600080fd5b611a7a87838801611903565b94506020860135915080821115611a9057600080fd5b50611a9d86828701611903565b925050604084013590509250925092565b600060208284031215611ac057600080fd5b5051919050565b6000815180845260005b81811015611aed57602081850181015186830182015201611ad1565b506000602082860101526020601f19601f83011685010191505092915050565b6020815260006116b36020830184611ac7565b606081526000611b336060830186611ac7565b8281036020840152611b458186611ac7565b91505060018060a01b0383166040830152949350505050565b6020808252600d908201526c1253959053125117d253941555609a1b604082015260600190565b600060208284031215611b9757600080fd5b815180151581146116b357600080fd5b6020808252600490820152631dd85b9d60e21b604082015260600190565b600080600060608486031215611bda57600080fd5b8351925060208401519150604084015190509250925092565b606081526000611c066060830186611ac7565b8281036020840152611c188186611ac7565b915050826040830152949350505050565b634e487b7160e01b600052601160045260246000fd5b808201808211156104a5576104a5611c29565b818103818111156104a5576104a5611c29565b80820281158282048414176104a5576104a5611c29565b600082611c9957634e487b7160e01b600052601260045260246000fd5b50049056fea2646970667358221220a9e07865a18276daf2892012c507d86466179625797cf4b9d501408214154e1a64736f6c63430008110033",
  "immutableReferences": {},
  "source": "// SPDX-License-Identifier: MIT\r\npragma solidity >=0.6.12;\r\n\r\nimport \"@openzeppelin/contracts/utils/math/SafeMath.sol\";\r\nimport \"@openzeppelin/contracts/access/Ownable.sol\";\r\nimport \"@openzeppelin/contracts/token/ERC20/IERC20.sol\";\r\nimport \"@openzeppelin/contracts/security/ReentrancyGuard.sol\";\r\n\r\nimport './interfaces/IGarbiMining.sol';\r\n\r\ncontract GarbiFarmGEC is ReentrancyGuard, Ownable {\r\n\r\n    using SafeMath for uint256;\r\n    uint256 public version = 100;\r\n    \r\n    IERC20 public want; // GEC\r\n    \r\n    uint256 public PLATFORM_FEE = 0;\r\n\r\n    address public platformFundAddress;\r\n\r\n    IGarbiMining public miningMachine;\r\n\r\n    uint256 public pidOfMining;\r\n    uint256 public totalShare = 0;\r\n    mapping(address => uint256) public shareOf;\r\n\r\n    mapping(bytes32 => TimeLock) public timeLockOf;\r\n\r\n    uint public constant GRACE_PERIOD = 30 days;\r\n    uint public constant MINIMUM_DELAY = 2 days;\r\n    uint public constant MAXIMUM_DELAY = 30 days;\r\n    uint public delay;\r\n\r\n    struct TimeLock {\r\n        bool queuedTransactions;\r\n        uint256 timeOfExecute;\r\n        mapping(bytes32 => address) addressOf;\r\n        mapping(bytes32 => uint256) uintOf;\r\n    }\r\n\r\n    event onDeposit(address _user, uint256 _amount);\r\n    event onWithdraw(address _user, uint256 _amount);\r\n    event onEmergencyWithdraw(address _user, uint256 _amount);\r\n\r\n    event onQueuedTransactionsChangeAddress(string _functionName, string _fieldName, address _value);\r\n    event onQueuedTransactionsChangeUint(string _functionName, string _fieldName, uint256 _value);\r\n    event onCancelTransactions(string _functionName);\r\n\r\n    constructor(\r\n        IGarbiMining _miningMachine,\r\n        IERC20 _want,\r\n        uint256 _pidOfMining\r\n        ) {\r\n        want = _want;\r\n        miningMachine = _miningMachine;\r\n        pidOfMining = _pidOfMining;\r\n        platformFundAddress = _msgSender();\r\n    }\r\n\r\n    function setDelay(uint delay_) public onlyOwner {\r\n        require(delay_ >= MINIMUM_DELAY, \"Timelock::setDelay: Delay must exceed minimum delay.\");\r\n        require(delay_ <= MAXIMUM_DELAY, \"Timelock::setDelay: Delay must not exceed maximum delay.\");\r\n\r\n        delay = delay_;\r\n    }\r\n\r\n    function cancelTransactions(string memory _functionName) public onlyOwner {\r\n\r\n        TimeLock storage _timelock = timeLockOf[keccak256(abi.encode(_functionName))];\r\n        _timelock.queuedTransactions = false;\r\n\r\n        emit onCancelTransactions(_functionName);\r\n    }\r\n\r\n    function queuedTransactionsChangeAddress(string memory _functionName, string memory _fieldName, address _newAddr) public onlyOwner \r\n    {\r\n        TimeLock storage _timelock = timeLockOf[keccak256(abi.encode(_functionName))];\r\n\r\n        _timelock.addressOf[keccak256(abi.encode(_fieldName))] = _newAddr;\r\n        _timelock.queuedTransactions = true;\r\n        _timelock.timeOfExecute = block.timestamp.add(delay);\r\n\r\n        emit onQueuedTransactionsChangeAddress(_functionName, _fieldName, _newAddr);\r\n    }\r\n\r\n    function queuedTransactionsChangeUint(string memory _functionName, string memory _fieldName, uint256 _value) public onlyOwner \r\n    {\r\n        TimeLock storage _timelock = timeLockOf[keccak256(abi.encode(_functionName))];\r\n\r\n        _timelock.uintOf[keccak256(abi.encode(_fieldName))] = _value;\r\n        _timelock.queuedTransactions = true;\r\n        _timelock.timeOfExecute = block.timestamp.add(delay);\r\n\r\n        emit onQueuedTransactionsChangeUint(_functionName, _fieldName, _value);\r\n    }\r\n\r\n    function setMiningMachine() public onlyOwner \r\n    {\r\n        TimeLock storage _timelock = timeLockOf[keccak256(abi.encode('setMiningMachine'))];\r\n        _validateTimelock(_timelock);\r\n        require(_timelock.addressOf[keccak256(abi.encode('miningMachine'))] != address(0), \"INVALID_ADDRESS\");\r\n\r\n        miningMachine = IGarbiMining(_timelock.addressOf[keccak256(abi.encode('miningMachine'))]);\r\n        _timelock.queuedTransactions = false;\r\n    }\r\n\r\n    function setPlatformFee(uint256 _platformFee) public onlyOwner {\r\n        PLATFORM_FEE = _platformFee;\r\n    }\r\n\r\n    function setPlatformFundAdress(address newAddress) public onlyOwner {\r\n        platformFundAddress = newAddress;\r\n    }\r\n\r\n    function changeTokenAddress() public onlyOwner\r\n    {\r\n        TimeLock storage _timelock = timeLockOf[keccak256(abi.encode('changeTokenAddress'))];\r\n\r\n        _validateTimelock(_timelock);\r\n    \r\n        if (_timelock.addressOf[keccak256(abi.encode('want'))] != address(0)) {\r\n            want = IERC20(_timelock.addressOf[keccak256(abi.encode('want'))]);\r\n            delete _timelock.addressOf[keccak256(abi.encode('want'))];\r\n        }\r\n        _timelock.queuedTransactions = false;\r\n    }\r\n\r\n    function setPidOfMining() public onlyOwner \r\n    {\r\n        TimeLock storage _timelock = timeLockOf[keccak256(abi.encode('setPidOfMining'))];\r\n        _validateTimelock(_timelock);\r\n        require(_timelock.uintOf[keccak256(abi.encode('pidOfMining'))] > 0, \"INVALID_AMOUNT\");\r\n\r\n        pidOfMining = _timelock.uintOf[keccak256(abi.encode('pidOfMining'))];\r\n        _timelock.queuedTransactions = false;\r\n    }\r\n\r\n    function _validateTimelock(TimeLock storage _timelock) private view\r\n    {\r\n        require(_timelock.queuedTransactions == true, \"Transaction hasn't been queued.\");\r\n        require(_timelock.timeOfExecute <= block.timestamp, \"Transaction hasn't surpassed time lock.\");\r\n        require(_timelock.timeOfExecute.add(GRACE_PERIOD) >= block.timestamp, \"Transaction is stale.\");\r\n    }\r\n\r\n    function deposit(uint256 _wantAmt) external nonReentrant \r\n    {\r\n        require(_wantAmt > 0, 'INVALID_INPUT');\r\n        require(want.balanceOf(msg.sender) >= _wantAmt, 'INVALID_INPUT');\r\n\r\n        harvest(msg.sender);\r\n    \twant.transferFrom(msg.sender, address(this), _wantAmt);\r\n\r\n        uint256 platformFee = _wantAmt.mul(PLATFORM_FEE).div(1000);\r\n        want.transfer(platformFundAddress, platformFee);\r\n\r\n        uint256 _wantAmtAfterFee = _wantAmt.sub(platformFee);\r\n\r\n        shareOf[msg.sender] = shareOf[msg.sender].add(_wantAmtAfterFee);\r\n        totalShare = totalShare.add(_wantAmtAfterFee);\r\n        miningMachine.updateUser(pidOfMining, msg.sender);\r\n        emit onDeposit(msg.sender, _wantAmt);\r\n\r\n    }\r\n    function withdraw(uint256 _wantAmt) external nonReentrant \r\n    {\r\n        require(_wantAmt > 0, 'INVALID_INPUT');   \r\n        harvest(msg.sender);\r\n\r\n        uint256 _share = shareOf[msg.sender];\r\n        require(_share >= _wantAmt, 'INVALID_AMOUNT_WITHDRAW');\r\n\r\n        shareOf[msg.sender] = shareOf[msg.sender].sub(_wantAmt);\r\n        totalShare = totalShare.sub(_wantAmt);\r\n        uint256 _wantBal = want.balanceOf(address(this)); \r\n        if (_wantBal < _wantAmt) {\r\n            _wantAmt = _wantBal;\r\n        }\r\n        want.transfer(msg.sender, _wantAmt);\r\n        \r\n        miningMachine.updateUser(pidOfMining, msg.sender);\r\n    \t// \r\n        emit onWithdraw(msg.sender, _wantAmt);\r\n    }\r\n    // Withdraw without caring about rewards. EMERGENCY ONLY.\r\n    function emergencyWithdraw() public \r\n    {\r\n        uint256 _share = shareOf[msg.sender];\r\n        require(_share > 0, 'INVALID_AMOUNT');\r\n\r\n        shareOf[msg.sender] = 0;\r\n        totalShare = totalShare.sub(_share);\r\n        uint256 _wantBal = want.balanceOf(address(this));\r\n        if (_wantBal < _share) {\r\n            _share = _wantBal;\r\n        }\r\n\r\n        want.transfer(msg.sender, _share);\r\n\r\n        emit onEmergencyWithdraw(msg.sender, _share);\r\n    }\r\n\r\n    function harvest(address _user) public returns(uint256 _pendingVeGRB) { \r\n        return miningMachine.harvest(pidOfMining, _user);\r\n    }\r\n\r\n    function getData(\r\n        address _user\r\n    ) \r\n    public \r\n    view\r\n    returns(\r\n        uint256 miningSpeed_,\r\n        uint256 userWantBal_, \r\n        uint256 totalMintPerDay_, \r\n        uint256 userETHBal_, \r\n        uint256 userGRBPending_, \r\n        uint256 userWantShare_,\r\n        uint256 tvl_\r\n    ) {\r\n        userWantBal_ = want.balanceOf(_user);\r\n        totalMintPerDay_ = miningMachine.getTotalMintPerDayOf(pidOfMining);\r\n\r\n        miningSpeed_ = miningMachine.getMiningSpeedOf(pidOfMining);\r\n        userETHBal_ = address(_user).balance;\r\n        (userGRBPending_, , ) = miningMachine.getUserInfo(pidOfMining, _user);\r\n        userWantShare_ = shareOf[_user];\r\n        tvl_ = totalShare;\r\n    } \r\n}",
  "sourcePath": "C:\\Users\\David\\Documents\\NetBeansProjects\\garbiprotocol.github.io\\garbi_contracts\\contracts\\GarbiFarmGEC.sol",
  "compiler": {
    "name": "solc",
    "version": "0.8.17+commit.8df45f5f.Emscripten.clang"
  },
  "schemaVersion": "3.4.11",
  "updatedAt": "2023-03-07T04:46:10.498Z",
  "networkType": "ethereum",
  "devdoc": {
    "kind": "dev",
    "methods": {
      "owner()": {
        "details": "Returns the address of the current owner."
      },
      "renounceOwnership()": {
        "details": "Leaves the contract without owner. It will not be possible to call `onlyOwner` functions anymore. Can only be called by the current owner. NOTE: Renouncing ownership will leave the contract without an owner, thereby removing any functionality that is only available to the owner."
      },
      "transferOwnership(address)": {
        "details": "Transfers ownership of the contract to a new account (`newOwner`). Can only be called by the current owner."
      }
    },
    "version": 1
  },
  "userdoc": {
    "kind": "user",
    "methods": {},
    "version": 1
  }
}