{
  "contractName": "GarbiswapTradeUSDTUSDC",
  "abi": [
    {
      "inputs": [
        {
          "internalType": "contract IERC20",
          "name": "_base",
          "type": "address"
        },
        {
          "internalType": "contract IERC20",
          "name": "_token",
          "type": "address"
        },
        {
          "internalType": "contract IGarbiTimeLock",
          "name": "_garbiTimeLockContract",
          "type": "address"
        },
        {
          "internalType": "contract IGarbiswapFeeMachine",
          "name": "_feeMachineContract",
          "type": "address"
        },
        {
          "internalType": "contract IGarbiswapWhitelist",
          "name": "_whitelistContract",
          "type": "address"
        },
        {
          "internalType": "contract IGarbiOracle",
          "name": "_garbiOracle",
          "type": "address"
        },
        {
          "internalType": "string",
          "name": "name",
          "type": "string"
        },
        {
          "internalType": "string",
          "name": "symbol",
          "type": "string"
        }
      ],
      "stateMutability": "nonpayable",
      "type": "constructor"
    },
    {
      "anonymous": false,
      "inputs": [
        {
          "indexed": true,
          "internalType": "address",
          "name": "owner",
          "type": "address"
        },
        {
          "indexed": true,
          "internalType": "address",
          "name": "spender",
          "type": "address"
        },
        {
          "indexed": false,
          "internalType": "uint256",
          "name": "value",
          "type": "uint256"
        }
      ],
      "name": "Approval",
      "type": "event"
    },
    {
      "anonymous": false,
      "inputs": [
        {
          "indexed": true,
          "internalType": "address",
          "name": "previousOwner",
          "type": "address"
        },
        {
          "indexed": true,
          "internalType": "address",
          "name": "newOwner",
          "type": "address"
        }
      ],
      "name": "OwnershipTransferred",
      "type": "event"
    },
    {
      "anonymous": false,
      "inputs": [
        {
          "indexed": true,
          "internalType": "address",
          "name": "from",
          "type": "address"
        },
        {
          "indexed": true,
          "internalType": "address",
          "name": "to",
          "type": "address"
        },
        {
          "indexed": false,
          "internalType": "uint256",
          "name": "value",
          "type": "uint256"
        }
      ],
      "name": "Transfer",
      "type": "event"
    },
    {
      "anonymous": false,
      "inputs": [
        {
          "indexed": false,
          "internalType": "address",
          "name": "sender",
          "type": "address"
        },
        {
          "indexed": false,
          "internalType": "uint256",
          "name": "mintLP",
          "type": "uint256"
        },
        {
          "indexed": false,
          "internalType": "uint256",
          "name": "baseInputAmount",
          "type": "uint256"
        },
        {
          "indexed": false,
          "internalType": "uint256",
          "name": "tokenInputAmount",
          "type": "uint256"
        },
        {
          "indexed": false,
          "internalType": "uint256",
          "name": "poolBaseBalance",
          "type": "uint256"
        },
        {
          "indexed": false,
          "internalType": "uint256",
          "name": "poolTokenBalance",
          "type": "uint256"
        }
      ],
      "name": "onAddLP",
      "type": "event"
    },
    {
      "anonymous": false,
      "inputs": [
        {
          "indexed": false,
          "internalType": "address",
          "name": "sender",
          "type": "address"
        },
        {
          "indexed": false,
          "internalType": "uint256",
          "name": "amountLP",
          "type": "uint256"
        },
        {
          "indexed": false,
          "internalType": "uint256",
          "name": "baseOutputAmout",
          "type": "uint256"
        },
        {
          "indexed": false,
          "internalType": "uint256",
          "name": "tokenOutputAmount",
          "type": "uint256"
        },
        {
          "indexed": false,
          "internalType": "uint256",
          "name": "poolBaseBalance",
          "type": "uint256"
        },
        {
          "indexed": false,
          "internalType": "uint256",
          "name": "poolTokenBalance",
          "type": "uint256"
        }
      ],
      "name": "onRemoveLP",
      "type": "event"
    },
    {
      "anonymous": false,
      "inputs": [
        {
          "indexed": false,
          "internalType": "address",
          "name": "sender",
          "type": "address"
        },
        {
          "indexed": false,
          "internalType": "uint256",
          "name": "minTokenOutput",
          "type": "uint256"
        },
        {
          "indexed": false,
          "internalType": "uint256",
          "name": "baseInputAmount",
          "type": "uint256"
        },
        {
          "indexed": false,
          "internalType": "uint256",
          "name": "tokenOutputAmount",
          "type": "uint256"
        },
        {
          "indexed": false,
          "internalType": "uint256",
          "name": "poolBaseBalance",
          "type": "uint256"
        },
        {
          "indexed": false,
          "internalType": "uint256",
          "name": "poolTokenBalance",
          "type": "uint256"
        }
      ],
      "name": "onSwapBaseToTokenWithBaseInput",
      "type": "event"
    },
    {
      "anonymous": false,
      "inputs": [
        {
          "indexed": false,
          "internalType": "address",
          "name": "sender",
          "type": "address"
        },
        {
          "indexed": false,
          "internalType": "uint256",
          "name": "maxBaseInput",
          "type": "uint256"
        },
        {
          "indexed": false,
          "internalType": "uint256",
          "name": "baseInputAmount",
          "type": "uint256"
        },
        {
          "indexed": false,
          "internalType": "uint256",
          "name": "tokenOutputAmount",
          "type": "uint256"
        },
        {
          "indexed": false,
          "internalType": "uint256",
          "name": "poolBaseBalance",
          "type": "uint256"
        },
        {
          "indexed": false,
          "internalType": "uint256",
          "name": "poolTokenBalance",
          "type": "uint256"
        }
      ],
      "name": "onSwapBaseToTokenWithTokenOutput",
      "type": "event"
    },
    {
      "anonymous": false,
      "inputs": [
        {
          "indexed": false,
          "internalType": "address",
          "name": "sender",
          "type": "address"
        },
        {
          "indexed": false,
          "internalType": "uint256",
          "name": "maxTokenInput",
          "type": "uint256"
        },
        {
          "indexed": false,
          "internalType": "uint256",
          "name": "tokenInputAmount",
          "type": "uint256"
        },
        {
          "indexed": false,
          "internalType": "uint256",
          "name": "baseOutputAmount",
          "type": "uint256"
        },
        {
          "indexed": false,
          "internalType": "uint256",
          "name": "poolBaseBalance",
          "type": "uint256"
        },
        {
          "indexed": false,
          "internalType": "uint256",
          "name": "poolTokenBalance",
          "type": "uint256"
        }
      ],
      "name": "onSwapTokenToBaseWithBaseOutput",
      "type": "event"
    },
    {
      "anonymous": false,
      "inputs": [
        {
          "indexed": false,
          "internalType": "address",
          "name": "sender",
          "type": "address"
        },
        {
          "indexed": false,
          "internalType": "uint256",
          "name": "minBaseOutput",
          "type": "uint256"
        },
        {
          "indexed": false,
          "internalType": "uint256",
          "name": "tokenInputAmount",
          "type": "uint256"
        },
        {
          "indexed": false,
          "internalType": "uint256",
          "name": "baseOutputAmount",
          "type": "uint256"
        },
        {
          "indexed": false,
          "internalType": "uint256",
          "name": "poolBaseBalance",
          "type": "uint256"
        },
        {
          "indexed": false,
          "internalType": "uint256",
          "name": "poolTokenBalance",
          "type": "uint256"
        }
      ],
      "name": "onSwapTokenToBaseWithTokenInput",
      "type": "event"
    },
    {
      "inputs": [],
      "name": "PLATFORM_FEE",
      "outputs": [
        {
          "internalType": "uint256",
          "name": "",
          "type": "uint256"
        }
      ],
      "stateMutability": "view",
      "type": "function",
      "constant": true
    },
    {
      "inputs": [],
      "name": "TRADE_FEE",
      "outputs": [
        {
          "internalType": "uint256",
          "name": "",
          "type": "uint256"
        }
      ],
      "stateMutability": "view",
      "type": "function",
      "constant": true
    },
    {
      "inputs": [
        {
          "internalType": "address",
          "name": "owner",
          "type": "address"
        },
        {
          "internalType": "address",
          "name": "spender",
          "type": "address"
        }
      ],
      "name": "allowance",
      "outputs": [
        {
          "internalType": "uint256",
          "name": "",
          "type": "uint256"
        }
      ],
      "stateMutability": "view",
      "type": "function",
      "constant": true
    },
    {
      "inputs": [
        {
          "internalType": "address",
          "name": "spender",
          "type": "address"
        },
        {
          "internalType": "uint256",
          "name": "amount",
          "type": "uint256"
        }
      ],
      "name": "approve",
      "outputs": [
        {
          "internalType": "bool",
          "name": "",
          "type": "bool"
        }
      ],
      "stateMutability": "nonpayable",
      "type": "function"
    },
    {
      "inputs": [
        {
          "internalType": "address",
          "name": "account",
          "type": "address"
        }
      ],
      "name": "balanceOf",
      "outputs": [
        {
          "internalType": "uint256",
          "name": "",
          "type": "uint256"
        }
      ],
      "stateMutability": "view",
      "type": "function",
      "constant": true
    },
    {
      "inputs": [],
      "name": "base",
      "outputs": [
        {
          "internalType": "contract IERC20",
          "name": "",
          "type": "address"
        }
      ],
      "stateMutability": "view",
      "type": "function",
      "constant": true
    },
    {
      "inputs": [
        {
          "internalType": "uint256",
          "name": "amount",
          "type": "uint256"
        }
      ],
      "name": "burn",
      "outputs": [],
      "stateMutability": "nonpayable",
      "type": "function"
    },
    {
      "inputs": [
        {
          "internalType": "address",
          "name": "account",
          "type": "address"
        },
        {
          "internalType": "uint256",
          "name": "amount",
          "type": "uint256"
        }
      ],
      "name": "burnFrom",
      "outputs": [],
      "stateMutability": "nonpayable",
      "type": "function"
    },
    {
      "inputs": [
        {
          "internalType": "address",
          "name": "spender",
          "type": "address"
        },
        {
          "internalType": "uint256",
          "name": "subtractedValue",
          "type": "uint256"
        }
      ],
      "name": "decreaseAllowance",
      "outputs": [
        {
          "internalType": "bool",
          "name": "",
          "type": "bool"
        }
      ],
      "stateMutability": "nonpayable",
      "type": "function"
    },
    {
      "inputs": [],
      "name": "feeMachineContract",
      "outputs": [
        {
          "internalType": "contract IGarbiswapFeeMachine",
          "name": "",
          "type": "address"
        }
      ],
      "stateMutability": "view",
      "type": "function",
      "constant": true
    },
    {
      "inputs": [],
      "name": "garbiOracle",
      "outputs": [
        {
          "internalType": "contract IGarbiOracle",
          "name": "",
          "type": "address"
        }
      ],
      "stateMutability": "view",
      "type": "function",
      "constant": true
    },
    {
      "inputs": [],
      "name": "garbiTimeLockContract",
      "outputs": [
        {
          "internalType": "contract IGarbiTimeLock",
          "name": "",
          "type": "address"
        }
      ],
      "stateMutability": "view",
      "type": "function",
      "constant": true
    },
    {
      "inputs": [
        {
          "internalType": "address",
          "name": "spender",
          "type": "address"
        },
        {
          "internalType": "uint256",
          "name": "addedValue",
          "type": "uint256"
        }
      ],
      "name": "increaseAllowance",
      "outputs": [
        {
          "internalType": "bool",
          "name": "",
          "type": "bool"
        }
      ],
      "stateMutability": "nonpayable",
      "type": "function"
    },
    {
      "inputs": [],
      "name": "name",
      "outputs": [
        {
          "internalType": "string",
          "name": "",
          "type": "string"
        }
      ],
      "stateMutability": "view",
      "type": "function",
      "constant": true
    },
    {
      "inputs": [],
      "name": "owner",
      "outputs": [
        {
          "internalType": "address",
          "name": "",
          "type": "address"
        }
      ],
      "stateMutability": "view",
      "type": "function",
      "constant": true
    },
    {
      "inputs": [],
      "name": "platformFundAddress",
      "outputs": [
        {
          "internalType": "address",
          "name": "",
          "type": "address"
        }
      ],
      "stateMutability": "view",
      "type": "function",
      "constant": true
    },
    {
      "inputs": [],
      "name": "renounceOwnership",
      "outputs": [],
      "stateMutability": "nonpayable",
      "type": "function"
    },
    {
      "inputs": [],
      "name": "symbol",
      "outputs": [
        {
          "internalType": "string",
          "name": "",
          "type": "string"
        }
      ],
      "stateMutability": "view",
      "type": "function",
      "constant": true
    },
    {
      "inputs": [],
      "name": "token",
      "outputs": [
        {
          "internalType": "contract IERC20",
          "name": "",
          "type": "address"
        }
      ],
      "stateMutability": "view",
      "type": "function",
      "constant": true
    },
    {
      "inputs": [],
      "name": "totalSupply",
      "outputs": [
        {
          "internalType": "uint256",
          "name": "",
          "type": "uint256"
        }
      ],
      "stateMutability": "view",
      "type": "function",
      "constant": true
    },
    {
      "inputs": [
        {
          "internalType": "address",
          "name": "to",
          "type": "address"
        },
        {
          "internalType": "uint256",
          "name": "amount",
          "type": "uint256"
        }
      ],
      "name": "transfer",
      "outputs": [
        {
          "internalType": "bool",
          "name": "",
          "type": "bool"
        }
      ],
      "stateMutability": "nonpayable",
      "type": "function"
    },
    {
      "inputs": [
        {
          "internalType": "address",
          "name": "from",
          "type": "address"
        },
        {
          "internalType": "address",
          "name": "to",
          "type": "address"
        },
        {
          "internalType": "uint256",
          "name": "amount",
          "type": "uint256"
        }
      ],
      "name": "transferFrom",
      "outputs": [
        {
          "internalType": "bool",
          "name": "",
          "type": "bool"
        }
      ],
      "stateMutability": "nonpayable",
      "type": "function"
    },
    {
      "inputs": [
        {
          "internalType": "address",
          "name": "newOwner",
          "type": "address"
        }
      ],
      "name": "transferOwnership",
      "outputs": [],
      "stateMutability": "nonpayable",
      "type": "function"
    },
    {
      "inputs": [],
      "name": "whitelistContract",
      "outputs": [
        {
          "internalType": "contract IGarbiswapWhitelist",
          "name": "",
          "type": "address"
        }
      ],
      "stateMutability": "view",
      "type": "function",
      "constant": true
    },
    {
      "inputs": [],
      "name": "decimals",
      "outputs": [
        {
          "internalType": "uint8",
          "name": "",
          "type": "uint8"
        }
      ],
      "stateMutability": "view",
      "type": "function",
      "constant": true
    },
    {
      "inputs": [],
      "name": "setWhitelistContract",
      "outputs": [],
      "stateMutability": "nonpayable",
      "type": "function"
    },
    {
      "inputs": [],
      "name": "setFeeMachineContract",
      "outputs": [],
      "stateMutability": "nonpayable",
      "type": "function"
    },
    {
      "inputs": [],
      "name": "setTradeFee",
      "outputs": [],
      "stateMutability": "nonpayable",
      "type": "function"
    },
    {
      "inputs": [],
      "name": "setPlatformFee",
      "outputs": [],
      "stateMutability": "nonpayable",
      "type": "function"
    },
    {
      "inputs": [
        {
          "internalType": "address",
          "name": "newAddress",
          "type": "address"
        }
      ],
      "name": "setPlatformFundAdress",
      "outputs": [],
      "stateMutability": "nonpayable",
      "type": "function"
    },
    {
      "inputs": [],
      "name": "getK",
      "outputs": [
        {
          "internalType": "uint256",
          "name": "",
          "type": "uint256"
        }
      ],
      "stateMutability": "view",
      "type": "function",
      "constant": true
    },
    {
      "inputs": [
        {
          "internalType": "uint256",
          "name": "baseInputAmount",
          "type": "uint256"
        }
      ],
      "name": "getTokenOutput",
      "outputs": [
        {
          "internalType": "uint256",
          "name": "",
          "type": "uint256"
        }
      ],
      "stateMutability": "view",
      "type": "function",
      "constant": true
    },
    {
      "inputs": [
        {
          "internalType": "uint256",
          "name": "tokenInputAmount",
          "type": "uint256"
        }
      ],
      "name": "getBaseOutput",
      "outputs": [
        {
          "internalType": "uint256",
          "name": "",
          "type": "uint256"
        }
      ],
      "stateMutability": "view",
      "type": "function",
      "constant": true
    },
    {
      "inputs": [
        {
          "internalType": "uint256",
          "name": "baseInputAmount",
          "type": "uint256"
        }
      ],
      "name": "getDataFromBaseInputToAddLp",
      "outputs": [
        {
          "internalType": "uint256",
          "name": "",
          "type": "uint256"
        },
        {
          "internalType": "uint256",
          "name": "",
          "type": "uint256"
        }
      ],
      "stateMutability": "view",
      "type": "function",
      "constant": true
    },
    {
      "inputs": [
        {
          "internalType": "uint256",
          "name": "tokenInputAmount",
          "type": "uint256"
        }
      ],
      "name": "getDataFromTokenInputToAddLp",
      "outputs": [
        {
          "internalType": "uint256",
          "name": "",
          "type": "uint256"
        },
        {
          "internalType": "uint256",
          "name": "",
          "type": "uint256"
        }
      ],
      "stateMutability": "view",
      "type": "function",
      "constant": true
    },
    {
      "inputs": [
        {
          "internalType": "uint256",
          "name": "amountLP",
          "type": "uint256"
        }
      ],
      "name": "getDataToRemoveLP",
      "outputs": [
        {
          "internalType": "uint256",
          "name": "",
          "type": "uint256"
        },
        {
          "internalType": "uint256",
          "name": "",
          "type": "uint256"
        }
      ],
      "stateMutability": "view",
      "type": "function",
      "constant": true
    },
    {
      "inputs": [
        {
          "internalType": "uint256",
          "name": "baseInputAmount",
          "type": "uint256"
        },
        {
          "internalType": "uint256",
          "name": "baseReserve",
          "type": "uint256"
        },
        {
          "internalType": "uint256",
          "name": "tokenReserve",
          "type": "uint256"
        }
      ],
      "name": "getTokenOutputAmountFromBaseInput",
      "outputs": [
        {
          "internalType": "uint256",
          "name": "",
          "type": "uint256"
        }
      ],
      "stateMutability": "view",
      "type": "function",
      "constant": true
    },
    {
      "inputs": [
        {
          "internalType": "uint256",
          "name": "tokenOutputAmount",
          "type": "uint256"
        },
        {
          "internalType": "uint256",
          "name": "baseReserve",
          "type": "uint256"
        },
        {
          "internalType": "uint256",
          "name": "tokenReserve",
          "type": "uint256"
        }
      ],
      "name": "getBaseInputAmountFromTokenOutput",
      "outputs": [
        {
          "internalType": "uint256",
          "name": "",
          "type": "uint256"
        }
      ],
      "stateMutability": "view",
      "type": "function",
      "constant": true
    },
    {
      "inputs": [
        {
          "internalType": "uint256",
          "name": "tokenInputAmount",
          "type": "uint256"
        },
        {
          "internalType": "uint256",
          "name": "baseReserve",
          "type": "uint256"
        },
        {
          "internalType": "uint256",
          "name": "tokenReserve",
          "type": "uint256"
        }
      ],
      "name": "getBaseOutputAmountFromTokenInput",
      "outputs": [
        {
          "internalType": "uint256",
          "name": "",
          "type": "uint256"
        }
      ],
      "stateMutability": "view",
      "type": "function",
      "constant": true
    },
    {
      "inputs": [
        {
          "internalType": "uint256",
          "name": "baseOutputAmount",
          "type": "uint256"
        },
        {
          "internalType": "uint256",
          "name": "baseReserve",
          "type": "uint256"
        },
        {
          "internalType": "uint256",
          "name": "tokenReserve",
          "type": "uint256"
        }
      ],
      "name": "getTokenInputAmountFromBaseOutput",
      "outputs": [
        {
          "internalType": "uint256",
          "name": "",
          "type": "uint256"
        }
      ],
      "stateMutability": "view",
      "type": "function",
      "constant": true
    },
    {
      "inputs": [
        {
          "internalType": "uint256",
          "name": "baseInputAmount",
          "type": "uint256"
        },
        {
          "internalType": "uint256",
          "name": "minTokenOutput",
          "type": "uint256"
        },
        {
          "internalType": "uint256",
          "name": "deadline",
          "type": "uint256"
        }
      ],
      "name": "swapBaseToTokenWithBaseInput",
      "outputs": [],
      "stateMutability": "nonpayable",
      "type": "function"
    },
    {
      "inputs": [
        {
          "internalType": "uint256",
          "name": "maxBaseInput",
          "type": "uint256"
        },
        {
          "internalType": "uint256",
          "name": "tokenOutputAmount",
          "type": "uint256"
        },
        {
          "internalType": "uint256",
          "name": "deadline",
          "type": "uint256"
        }
      ],
      "name": "swapBaseToTokenWithTokenOutput",
      "outputs": [],
      "stateMutability": "nonpayable",
      "type": "function"
    },
    {
      "inputs": [
        {
          "internalType": "uint256",
          "name": "tokenInputAmount",
          "type": "uint256"
        },
        {
          "internalType": "uint256",
          "name": "minBaseOutput",
          "type": "uint256"
        },
        {
          "internalType": "uint256",
          "name": "deadline",
          "type": "uint256"
        }
      ],
      "name": "swapTokenToBaseWithTokenInput",
      "outputs": [],
      "stateMutability": "nonpayable",
      "type": "function"
    },
    {
      "inputs": [
        {
          "internalType": "uint256",
          "name": "maxTokenInput",
          "type": "uint256"
        },
        {
          "internalType": "uint256",
          "name": "baseOutputAmount",
          "type": "uint256"
        },
        {
          "internalType": "uint256",
          "name": "deadline",
          "type": "uint256"
        }
      ],
      "name": "swapTokenToBaseWithBaseOutput",
      "outputs": [],
      "stateMutability": "nonpayable",
      "type": "function"
    },
    {
      "inputs": [
        {
          "internalType": "uint256",
          "name": "minLP",
          "type": "uint256"
        },
        {
          "internalType": "uint256",
          "name": "baseInputAmount",
          "type": "uint256"
        },
        {
          "internalType": "uint256",
          "name": "maxTokenInputAmount",
          "type": "uint256"
        },
        {
          "internalType": "uint256",
          "name": "deadline",
          "type": "uint256"
        }
      ],
      "name": "addLP",
      "outputs": [
        {
          "internalType": "uint256",
          "name": "",
          "type": "uint256"
        }
      ],
      "stateMutability": "nonpayable",
      "type": "function"
    },
    {
      "inputs": [
        {
          "internalType": "uint256",
          "name": "amountLP",
          "type": "uint256"
        },
        {
          "internalType": "uint256",
          "name": "minBaseOutput",
          "type": "uint256"
        },
        {
          "internalType": "uint256",
          "name": "minTokenOutput",
          "type": "uint256"
        },
        {
          "internalType": "uint256",
          "name": "deadline",
          "type": "uint256"
        }
      ],
      "name": "removeLP",
      "outputs": [
        {
          "internalType": "uint256",
          "name": "",
          "type": "uint256"
        },
        {
          "internalType": "uint256",
          "name": "",
          "type": "uint256"
        }
      ],
      "stateMutability": "nonpayable",
      "type": "function"
    },
    {
      "inputs": [],
      "name": "getTotalReserve",
      "outputs": [
        {
          "internalType": "uint256",
          "name": "",
          "type": "uint256"
        },
        {
          "internalType": "uint256",
          "name": "",
          "type": "uint256"
        }
      ],
      "stateMutability": "view",
      "type": "function",
      "constant": true
    },
    {
      "inputs": [
        {
          "internalType": "uint256",
          "name": "number",
          "type": "uint256"
        }
      ],
      "name": "convertDecimal6to18",
      "outputs": [
        {
          "internalType": "uint256",
          "name": "",
          "type": "uint256"
        }
      ],
      "stateMutability": "pure",
      "type": "function",
      "constant": true
    },
    {
      "inputs": [
        {
          "internalType": "uint256",
          "name": "number",
          "type": "uint256"
        }
      ],
      "name": "convertDecimal18to6",
      "outputs": [
        {
          "internalType": "uint256",
          "name": "",
          "type": "uint256"
        }
      ],
      "stateMutability": "pure",
      "type": "function",
      "constant": true
    }
  ],
  "bytecode": "0x60806040526023600c556019600d553480156200001b57600080fd5b5060405162004f1838038062004f188339810160408190526200003e9162000259565b818160036200004e8382620003d1565b5060046200005d8282620003d1565b5050506200007a620000746200011360201b60201c565b62000117565b600680546001600160a01b03199081166001600160a01b038b8116919091179092556007805482168a8416179055600a80548216898416179055600980548216878416179055600880548216888416179055600b8054909116918516919091179055620000e43390565b600e80546001600160a01b0319166001600160a01b0392909216919091179055506200049d9650505050505050565b3390565b600580546001600160a01b038381166001600160a01b0319831681179093556040519116919082907f8be0079c531659141344cd1fd0a4f28419497f9722a3daafe3b4186f6b6457e090600090a35050565b6001600160a01b03811681146200017f57600080fd5b50565b80516200018f8162000169565b919050565b634e487b7160e01b600052604160045260246000fd5b600082601f830112620001bc57600080fd5b81516001600160401b0380821115620001d957620001d962000194565b604051601f8301601f19908116603f0116810190828211818310171562000204576200020462000194565b816040528381526020925086838588010111156200022157600080fd5b600091505b8382101562000245578582018301518183018401529082019062000226565b600093810190920192909252949350505050565b600080600080600080600080610100898b0312156200027757600080fd5b8851620002848162000169565b60208a0151909850620002978162000169565b60408a0151909750620002aa8162000169565b60608a0151909650620002bd8162000169565b60808a0151909550620002d08162000169565b9350620002e060a08a0162000182565b60c08a01519093506001600160401b0380821115620002fe57600080fd5b6200030c8c838d01620001aa565b935060e08b01519150808211156200032357600080fd5b50620003328b828c01620001aa565b9150509295985092959890939650565b600181811c908216806200035757607f821691505b6020821081036200037857634e487b7160e01b600052602260045260246000fd5b50919050565b601f821115620003cc57600081815260208120601f850160051c81016020861015620003a75750805b601f850160051c820191505b81811015620003c857828155600101620003b3565b5050505b505050565b81516001600160401b03811115620003ed57620003ed62000194565b6200040581620003fe845462000342565b846200037e565b602080601f8311600181146200043d5760008415620004245750858301515b600019600386901b1c1916600185901b178555620003c8565b600085815260208120601f198616915b828110156200046e578886015182559484019460019091019084016200044d565b50858210156200048d5787850151600019600388901b60f8161c191681555b5050505050600190811b01905550565b614a6b80620004ad6000396000f3fe608060405234801561001057600080fd5b50600436106102bb5760003560e01c806373dd25a311610182578063ac7343bd116100e9578063dd62ed3e116100a2578063ec0229181161007c578063ec022918146105df578063ee39e7a0146105e7578063f2fde38b146105ef578063fc0c546a1461060257600080fd5b8063dd62ed3e146105b1578063e50a38d7146105c4578063ead915e3146105d757600080fd5b8063ac7343bd14610567578063b7c3ba451461056f578063c6e842fc14610582578063d0e9de6c14610595578063d1322962146105a8578063dbcfbf2f1461056f57600080fd5b80638fe6041d1161013b5780638fe6041d1461051357806395d89b411461052657806397bb21c6146103a55780639fa5e63e1461052e578063a457c2d714610541578063a9059cbb1461055457600080fd5b806373dd25a3146104b657806374386163146102d557806376125deb146104c957806379cc6790146104dc57806384900b04146104ef5780638da5cb5b1461050257600080fd5b806334fbc9a11161022657806360b1765c116101df57806360b1765c14610424578063635f95ff146104375780636662d1771461044a57806370a0823114610472578063711f61421461049b578063715018a6146104ae57600080fd5b806334fbc9a1146103c757806339509351146103d057806342966c68146103e357806342eba2ce146103f657806344dca562146104095780635001f3b51461041157600080fd5b80631279732c116102785780631279732c1461036f57806318160ddd146103775780631f14036c1461037f57806323b872dd146103925780632916bc10146103a5578063313ce567146103b857600080fd5b806303bf04c1146102c057806304f6afbd146102d557806306fdde03146102f9578063095ea7b31461030e57806310a57f3a1461033157806311fbded31461035c575b600080fd5b6102d36102ce366004614154565b610615565b005b6102e66102e3366004614180565b90565b6040519081526020015b60405180910390f35b610301610b97565b6040516102f09190614199565b61032161031c3660046141fc565b610c29565b60405190151581526020016102f0565b600a54610344906001600160a01b031681565b6040516001600160a01b0390911681526020016102f0565b6102e661036a366004614180565b610c43565b6102d3610c9a565b6002546102e6565b600b54610344906001600160a01b031681565b6103216103a0366004614228565b610e6d565b6102e66103b3366004614154565b610e91565b604051600681526020016102f0565b6102e6600d5481565b6103216103de3660046141fc565b610fdb565b6102d36103f1366004614180565b610ffd565b600854610344906001600160a01b031681565b6102d361100a565b600654610344906001600160a01b031681565b6102e6610432366004614269565b6111a8565b6102e6610445366004614180565b611aba565b61045d610458366004614180565b611b0a565b604080519283526020830191909152016102f0565b6102e661048036600461429b565b6001600160a01b031660009081526020819052604090205490565b61045d6104a9366004614180565b611b9e565b6102d3611c53565b6102d36104c4366004614154565b611c67565b61045d6104d7366004614269565b6121b9565b6102d36104ea3660046141fc565b6128bd565b600954610344906001600160a01b031681565b6005546001600160a01b0316610344565b6102d361052136600461429b565b6128d6565b610301612900565b600e54610344906001600160a01b031681565b61032161054f3660046141fc565b61290f565b6103216105623660046141fc565b61298a565b6102d3612998565b6102e661057d366004614154565b612b91565b61045d610590366004614180565b612cdb565b6102d36105a3366004614154565b612d5e565b6102e6600c5481565b6102e66105bf3660046142b8565b613257565b6102d36105d2366004614154565b613282565b6102d36137c8565b61045d6139c1565b6102e6613ab2565b6102d36105fd36600461429b565b613acf565b600754610344906001600160a01b031681565b3332146106b257600954604051636c9b2a3f60e11b81523360048201526001600160a01b039091169063d936547e90602401602060405180830381865afa158015610664573d6000803e3d6000fd5b505050506040513d601f19601f8201168201806040525081019061068891906142f1565b15156001146106b25760405162461bcd60e51b81526004016106a990614313565b60405180910390fd5b428110156106d25760405162461bcd60e51b81526004016106a99061433e565b6000821161071c5760405162461bcd60e51b81526020600482015260176024820152761253959053125117d3525397d09054d157d3d555141555604a1b60448201526064016106a9565b6000831161073c5760405162461bcd60e51b81526004016106a990614368565b6007546040516370a0823160e01b81523360048201526001600160a01b03909116906370a0823190602401602060405180830381865afa158015610784573d6000803e3d6000fd5b505050506040513d601f19601f820116820180604052508101906107a89190614395565b8311156107f75760405162461bcd60e51b815260206004820152601f60248201527f544f4b454e5f494e5055545f4849474845525f555345525f42414c414e43450060448201526064016106a9565b6000806108026139c1565b90925090508184106108675760405162461bcd60e51b815260206004820152602860248201527f4d494e5f424153455f4f55545055545f4849474845525f504f4f4c5f424153456044820152675f42414c414e434560c01b60648201526084016106a9565b600061088b620186a0610885600c5489613b4590919063ffffffff16565b90613b58565b905060006108998783613b64565b905060006108a8828686612b91565b9050868110156108ca5760405162461bcd60e51b81526004016106a9906143ae565b8481106108e95760405162461bcd60e51b81526004016106a9906143da565b6006546040516370a0823160e01b8152306004820152610958916001600160a01b0316906370a08231906024015b602060405180830381865afa158015610934573d6000803e3d6000fd5b505050506040513d601f19601f820116820180604052508101906102e39190614395565b81106109765760405162461bcd60e51b81526004016106a99061441e565b6007546040516323b872dd60e01b81526001600160a01b03909116906323b872dd906109aa90339030908d90600401614466565b6020604051808303816000875af11580156109c9573d6000803e3d6000fd5b505050506040513d601f19601f820116820180604052508101906109ed91906142f1565b5060065460405163a9059cbb60e01b81526001600160a01b039091169063a9059cbb90610a20903390859060040161448a565b6020604051808303816000875af1158015610a3f573d6000803e3d6000fd5b505050506040513d601f19601f82011682018060405250810190610a6391906142f1565b5060075460085460405163a9059cbb60e01b81526001600160a01b039283169263a9059cbb92610a9a92911690879060040161448a565b6020604051808303816000875af1158015610ab9573d6000803e3d6000fd5b505050506040513d601f19601f82011682018060405250810190610add91906142f1565b50600854600754604051632054895360e21b81526001600160a01b039182166004820152336024820152911690638152254c90604401600060405180830381600087803b158015610b2d57600080fd5b505af1158015610b41573d6000803e3d6000fd5b505050507fb1b8c525a87e01fd3cda717635c4b24d56deba9f9d95c4f650c022bcd0bf8f5033610b6e8990565b8a84895b89604051610b85969594939291906144a3565b60405180910390a15050505050505050565b606060038054610ba6906144d6565b80601f0160208091040260200160405190810160405280929190818152602001828054610bd2906144d6565b8015610c1f5780601f10610bf457610100808354040283529160200191610c1f565b820191906000526020600020905b815481529060010190602001808311610c0257829003601f168201915b5050505050905090565b600033610c37818585613b70565b60019150505b92915050565b60008080610c4f6139c1565b90925090506000610c72620186a0610885600c5488613b4590919063ffffffff16565b90506000610c808683613b64565b90506000610c8f828686610e91565b979650505050505050565b610ca2613c95565b600a5460405163109cc30b60e21b81526001600160a01b03909116906342730c2c90610cd290309060040161452e565b602060405180830381865afa158015610cef573d6000803e3d6000fd5b505050506040513d601f19601f82011682018060405250810190610d1391906142f1565b610d2f5760405162461bcd60e51b81526004016106a990614551565b600a54604051636076dea560e11b81526000916001600160a01b03169063c0edbd4a90610d6090309060040161457d565b602060405180830381865afa158015610d7d573d6000803e3d6000fd5b505050506040513d601f19601f82011682018060405250810190610da19190614395565b600c819055600a54604051636e977f0b60e01b81529192506001600160a01b031690636e977f0b90610dd8906002906004016145c7565b600060405180830381600087803b158015610df257600080fd5b505af1158015610e06573d6000803e3d6000fd5b5050600a546040516345503fcb60e11b81526001600160a01b039091169250638aa07f969150610e3890600401614612565b600060405180830381600087803b158015610e5257600080fd5b505af1158015610e66573d6000803e3d6000fd5b5050505050565b600033610e7b858285613cef565b610e86858585613d69565b506001949350505050565b60008083118015610ea25750600082115b610ede5760405162461bcd60e51b815260206004820152600d60248201526c494e56414c49445f56414c554560981b60448201526064016106a9565b600b546007546040516302c68be360e31b81526001600160a01b03918216600482015260009291909116906316345f1890602401602060405180830381865afa158015610f2f573d6000803e3d6000fd5b505050506040513d601f19601f82011682018060405250810190610f539190614395565b600b546006546040516302c68be360e31b81526001600160a01b0391821660048201529293506000929116906316345f1890602401602060405180830381865afa158015610fa5573d6000803e3d6000fd5b505050506040513d601f19601f82011682018060405250810190610fc99190614395565b90506000610c8f826108858986613b45565b600033610c37818585610fee8383613257565b610ff8919061463a565b613b70565b6110073382613f0d565b50565b611012613c95565b600a5460405163109cc30b60e21b81526001600160a01b03909116906342730c2c9061104290309060040161466e565b602060405180830381865afa15801561105f573d6000803e3d6000fd5b505050506040513d601f19601f8201168201806040525081019061108391906142f1565b61109f5760405162461bcd60e51b81526004016106a990614551565b600a54604051636076dea560e11b81526000916001600160a01b03169063c0edbd4a906110d0903090600401614691565b602060405180830381865afa1580156110ed573d6000803e3d6000fd5b505050506040513d601f19601f820116820180604052508101906111119190614395565b600d819055600a54604051636e977f0b60e01b81529192506001600160a01b031690636e977f0b90611148906002906004016146de565b600060405180830381600087803b15801561116257600080fd5b505af1158015611176573d6000803e3d6000fd5b5050600a546040516345503fcb60e11b81526001600160a01b039091169250638aa07f969150610e389060040161471a565b600033321461123e57600954604051636c9b2a3f60e11b81523360048201526001600160a01b039091169063d936547e90602401602060405180830381865afa1580156111f9573d6000803e3d6000fd5b505050506040513d601f19601f8201168201806040525081019061121d91906142f1565b151560011461123e5760405162461bcd60e51b81526004016106a990614313565b4282101561125e5760405162461bcd60e51b81526004016106a99061433e565b6000851161129f5760405162461bcd60e51b815260206004820152600e60248201526d0494e56414c49445f4d494e5f4c560941b60448201526064016106a9565b600084116112bf5760405162461bcd60e51b81526004016106a99061472c565b600083116113095760405162461bcd60e51b81526020600482015260176024820152761253959053125117d3505617d513d2d15397d253941555604a1b60448201526064016106a9565b600061131460025490565b905080600003611679576006546040516323b872dd60e01b81526001600160a01b03909116906323b872dd9061135290339030908a90600401614466565b6020604051808303816000875af1158015611371573d6000803e3d6000fd5b505050506040513d601f19601f8201168201806040525081019061139591906142f1565b506007546040516323b872dd60e01b81526001600160a01b03909116906323b872dd906113ca90339030908990600401614466565b6020604051808303816000875af11580156113e9573d6000803e3d6000fd5b505050506040513d601f19601f8201168201806040525081019061140d91906142f1565b50600061142b6103e8610885600d5489613b4590919063ffffffff16565b9050600061144a6103e8610885600d5489613b4590919063ffffffff16565b905060006114588884613b64565b600654600e5460405163a9059cbb60e01b81529293506001600160a01b039182169263a9059cbb92611490921690879060040161448a565b6020604051808303816000875af11580156114af573d6000803e3d6000fd5b505050506040513d601f19601f820116820180604052508101906114d391906142f1565b50600754600e5460405163a9059cbb60e01b81526001600160a01b039283169263a9059cbb9261150a92911690869060040161448a565b6020604051808303816000875af1158015611529573d6000803e3d6000fd5b505050506040513d601f19601f8201168201806040525081019061154d91906142f1565b506115583382614037565b7f28e12afd967cc11b786f1b1547f5e0da96ccc91ebb09bdd406248111a634e7e533828a6006546040516370a0823160e01b81523060048201528c916001600160a01b0316906370a0823190602401602060405180830381865afa1580156115c4573d6000803e3d6000fd5b505050506040513d601f19601f820116820180604052508101906115e89190614395565b6007546040516370a0823160e01b81523060048201526001600160a01b03909116906370a0823190602401602060405180830381865afa158015611630573d6000803e3d6000fd5b505050506040513d601f19601f820116820180604052508101906116549190614395565b604051611666969594939291906144a3565b60405180910390a19350611ab292505050565b6000806116846139c1565b909250905060006116ad826116a7856108856116a0828e6140f6565b8790613b45565b90613b64565b905060006116cc6103e8610885600d548c613b4590919063ffffffff16565b905060006116eb6103e8610885600d5486613b4590919063ffffffff16565b90506000611707866108856117008e87613b64565b8a90613b45565b9050600084116117295760405162461bcd60e51b81526004016106a990614368565b898411156117495760405162461bcd60e51b81526004016106a990614368565b8b81101561178b5760405162461bcd60e51b815260206004820152600f60248201526e0494e56414c49445f4d494e545f4c5608c1b60448201526064016106a9565b600660009054906101000a90046001600160a01b03166001600160a01b03166323b872dd33308e6040518463ffffffff1660e01b81526004016117d093929190614466565b6020604051808303816000875af11580156117ef573d6000803e3d6000fd5b505050506040513d601f19601f8201168201806040525081019061181391906142f1565b506007546040516323b872dd60e01b81526001600160a01b03909116906323b872dd9061184890339030908990600401614466565b6020604051808303816000875af1158015611867573d6000803e3d6000fd5b505050506040513d601f19601f8201168201806040525081019061188b91906142f1565b50600654600e5460405163a9059cbb60e01b81526001600160a01b039283169263a9059cbb926118c292911690879060040161448a565b6020604051808303816000875af11580156118e1573d6000803e3d6000fd5b505050506040513d601f19601f8201168201806040525081019061190591906142f1565b50600754600e5460405163a9059cbb60e01b81526001600160a01b039283169263a9059cbb9261193c92911690869060040161448a565b6020604051808303816000875af115801561195b573d6000803e3d6000fd5b505050506040513d601f19601f8201168201806040525081019061197f91906142f1565b5061198a3382614037565b6006546040516370a0823160e01b81523060048201527f28e12afd967cc11b786f1b1547f5e0da96ccc91ebb09bdd406248111a634e7e591339184918f9189916001600160a01b0316906370a0823190602401602060405180830381865afa1580156119fa573d6000803e3d6000fd5b505050506040513d601f19601f82011682018060405250810190611a1e9190614395565b6007546040516370a0823160e01b81523060048201526001600160a01b03909116906370a0823190602401602060405180830381865afa158015611a66573d6000803e3d6000fd5b505050506040513d601f19601f82011682018060405250810190611a8a9190614395565b604051611a9c969594939291906144a3565b60405180910390a19650611ab295505050505050565b949350505050565b60008080611ac66139c1565b600c549193509150600090611ae590620186a090610885908890613b45565b90506000611af38683613b64565b90506000611b02828686612b91565b905080610c8f565b6000806000611b1860025490565b905060008082600003611b2f575084905080611b93565b600080611b3a6139c1565b9092509050611b54826116a7836108856116a0828e6140f6565b92506000611b736103e8610885600d5487613b4590919063ffffffff16565b9050611b8d83610885611b868785613b64565b8990613b45565b94505050505b909590945092505050565b6000806000611bac60025490565b905080841115611bba578093505b600080611bc56139c1565b90925090506000611bda846108858986613b45565b90506000611bec856108858a86613b45565b90506000611c0b6103e8610885600d5486613b4590919063ffffffff16565b90506000611c2a6103e8610885600d5486613b4590919063ffffffff16565b9050611c368483613b64565b9350611c428382613b64565b939a93995092975050505050505050565b611c5b613c95565b611c656000614102565b565b333214611cfb57600954604051636c9b2a3f60e11b81523360048201526001600160a01b039091169063d936547e90602401602060405180830381865afa158015611cb6573d6000803e3d6000fd5b505050506040513d601f19601f82011682018060405250810190611cda91906142f1565b1515600114611cfb5760405162461bcd60e51b81526004016106a990614313565b42811015611d1b5760405162461bcd60e51b81526004016106a99061433e565b60008311611d655760405162461bcd60e51b81526020600482015260176024820152761253959053125117d3505617d513d2d15397d253941555604a1b60448201526064016106a9565b60008211611dab5760405162461bcd60e51b81526020600482015260136024820152721253959053125117d09054d157d3d555141555606a1b60448201526064016106a9565b6006546040516370a0823160e01b81523060048201526001600160a01b03909116906370a0823190602401602060405180830381865afa158015611df3573d6000803e3d6000fd5b505050506040513d601f19601f82011682018060405250810190611e179190614395565b8210611e355760405162461bcd60e51b81526004016106a99061441e565b600080611e406139c1565b9092509050818410611e645760405162461bcd60e51b81526004016106a9906143da565b6000611e71858484610e91565b90506000611e91620186a0610885600c5485613b4590919063ffffffff16565b9050611e9d82826140f6565b915086821115611ebf5760405162461bcd60e51b81526004016106a9906143ae565b60008211611edf5760405162461bcd60e51b81526004016106a990614368565b6007546040516370a0823160e01b81523360048201526001600160a01b03909116906370a0823190602401602060405180830381865afa158015611f27573d6000803e3d6000fd5b505050506040513d601f19601f82011682018060405250810190611f4b9190614395565b821115611f9a5760405162461bcd60e51b815260206004820152601f60248201527f544f4b454e5f494e5055545f4849474845525f555345525f42414c414e43450060448201526064016106a9565b6007546040516323b872dd60e01b81526001600160a01b03909116906323b872dd90611fce90339030908790600401614466565b6020604051808303816000875af1158015611fed573d6000803e3d6000fd5b505050506040513d601f19601f8201168201806040525081019061201191906142f1565b5060065460405163a9059cbb60e01b81526001600160a01b039091169063a9059cbb906120449033908a9060040161448a565b6020604051808303816000875af1158015612063573d6000803e3d6000fd5b505050506040513d601f19601f8201168201806040525081019061208791906142f1565b5060075460085460405163a9059cbb60e01b81526001600160a01b039283169263a9059cbb926120be92911690859060040161448a565b6020604051808303816000875af11580156120dd573d6000803e3d6000fd5b505050506040513d601f19601f8201168201806040525081019061210191906142f1565b50600854600754604051632054895360e21b81526001600160a01b039182166004820152336024820152911690638152254c90604401600060405180830381600087803b15801561215157600080fd5b505af1158015612165573d6000803e3d6000fd5b505050507ff116a588cdba1b14c04ffd8bca7fee39286e7c8d9da59d77c036430e4b415dbc338884896121958990565b886040516121a8969594939291906144a3565b60405180910390a150505050505050565b60008033321461225057600954604051636c9b2a3f60e11b81523360048201526001600160a01b039091169063d936547e90602401602060405180830381865afa15801561220b573d6000803e3d6000fd5b505050506040513d601f19601f8201168201806040525081019061222f91906142f1565b15156001146122505760405162461bcd60e51b81526004016106a990614313565b428310156122705760405162461bcd60e51b81526004016106a99061433e565b600086116122b45760405162461bcd60e51b81526020600482015260116024820152700494e56414c49445f414d4f554e545f4c5607c1b60448201526064016106a9565b600085116122fe5760405162461bcd60e51b81526020600482015260176024820152761253959053125117d3525397d09054d157d3d555141555604a1b60448201526064016106a9565b600084116123495760405162461bcd60e51b81526020600482015260186024820152771253959053125117d3525397d513d2d15397d3d55514155560421b60448201526064016106a9565b600061235460025490565b3360009081526020819052604090205490915080881115612373578097505b818811156123c35760405162461bcd60e51b815260206004820152601e60248201527f494e56414c49445f414d4f554e545f4c505f544f54414c5f535550504c59000060448201526064016106a9565b6000806123ce6139c1565b909250905060006123e3856108858d86613b45565b905060006123f5866108858e86613b45565b905060006124146103e8610885600d5486613b4590919063ffffffff16565b905060006124336103e8610885600d5486613b4590919063ffffffff16565b905061243f8483613b64565b935061244b8382613b64565b92508c8410156124935760405162461bcd60e51b81526020600482015260136024820152721253959053125117d09054d157d3d555141555606a1b60448201526064016106a9565b8b8310156124da5760405162461bcd60e51b81526020600482015260146024820152731253959053125117d513d2d15397d3d55514155560621b60448201526064016106a9565b8584111561252a5760405162461bcd60e51b815260206004820152601f60248201527f424153455f4f55545055545f4849474845525f424153455f42414c414e43450060448201526064016106a9565b848311156125845760405162461bcd60e51b815260206004820152602160248201527f544f4b454e5f4f55545055545f4849474845525f544f4b454e5f42414c414e436044820152604560f81b60648201526084016106a9565b61258e338f613f0d565b60065460405163a9059cbb60e01b81526001600160a01b039091169063a9059cbb906125c0903390889060040161448a565b6020604051808303816000875af11580156125df573d6000803e3d6000fd5b505050506040513d601f19601f8201168201806040525081019061260391906142f1565b5060075460405163a9059cbb60e01b81526001600160a01b039091169063a9059cbb90612636903390879060040161448a565b6020604051808303816000875af1158015612655573d6000803e3d6000fd5b505050506040513d601f19601f8201168201806040525081019061267991906142f1565b50600654600e5460405163a9059cbb60e01b81526001600160a01b039283169263a9059cbb926126b092911690869060040161448a565b6020604051808303816000875af11580156126cf573d6000803e3d6000fd5b505050506040513d601f19601f820116820180604052508101906126f391906142f1565b50600754600e5460405163a9059cbb60e01b81526001600160a01b039283169263a9059cbb9261272a92911690859060040161448a565b6020604051808303816000875af1158015612749573d6000803e3d6000fd5b505050506040513d601f19601f8201168201806040525081019061276d91906142f1565b507f555901717744791e9e27303c0df147d5a5eea5b7098591b2c5f2138ed6a605de338f8686600660009054906101000a90046001600160a01b03166001600160a01b03166370a08231306040518263ffffffff1660e01b81526004016127e391906001600160a01b0391909116815260200190565b602060405180830381865afa158015612800573d6000803e3d6000fd5b505050506040513d601f19601f820116820180604052508101906128249190614395565b6007546040516370a0823160e01b81523060048201526001600160a01b03909116906370a0823190602401602060405180830381865afa15801561286c573d6000803e3d6000fd5b505050506040513d601f19601f820116820180604052508101906128909190614395565b6040516128a2969594939291906144a3565b60405180910390a150919c909b509950505050505050505050565b6128c8823383613cef565b6128d28282613f0d565b5050565b6128de613c95565b600e80546001600160a01b0319166001600160a01b0392909216919091179055565b606060048054610ba6906144d6565b6000338161291d8286613257565b90508381101561297d5760405162461bcd60e51b815260206004820152602560248201527f45524332303a2064656372656173656420616c6c6f77616e63652062656c6f77604482015264207a65726f60d81b60648201526084016106a9565b610e868286868403613b70565b600033610c37818585613d69565b6129a0613c95565b600a5460405163109cc30b60e21b81526001600160a01b03909116906342730c2c906129d090309060040161477f565b602060405180830381865afa1580156129ed573d6000803e3d6000fd5b505050506040513d601f19601f82011682018060405250810190612a1191906142f1565b612a2d5760405162461bcd60e51b81526004016106a990614551565b600a54604051636bfb078d60e01b81526000916001600160a01b031690636bfb078d90612a5e9030906004016147a2565b602060405180830381865afa158015612a7b573d6000803e3d6000fd5b505050506040513d601f19601f82011682018060405250810190612a9f91906147f5565b90506001600160a01b038116612ae95760405162461bcd60e51b815260206004820152600f60248201526e494e56414c49445f4144445245535360881b60448201526064016106a9565b600980546001600160a01b0319166001600160a01b0383811691909117909155600a54604051636e977f0b60e01b8152911690636e977f0b90612b3190600190600401614812565b600060405180830381600087803b158015612b4b57600080fd5b505af1158015612b5f573d6000803e3d6000fd5b5050600a546040516345503fcb60e11b81526001600160a01b039091169250638aa07f969150610e3890600401614854565b60008083118015612ba25750600082115b612bde5760405162461bcd60e51b815260206004820152600d60248201526c494e56414c49445f56414c554560981b60448201526064016106a9565b600b546007546040516302c68be360e31b81526001600160a01b03918216600482015260009291909116906316345f1890602401602060405180830381865afa158015612c2f573d6000803e3d6000fd5b505050506040513d601f19601f82011682018060405250810190612c539190614395565b600b546006546040516302c68be360e31b81526001600160a01b0391821660048201529293506000929116906316345f1890602401602060405180830381865afa158015612ca5573d6000803e3d6000fd5b505050506040513d601f19601f82011682018060405250810190612cc99190614395565b90506000610c8f836108858985613b45565b6000806000612ce960025490565b905060008082600003612d00575084905080611b93565b600080612d0b6139c1565b9092509050612d2c816116a784610885612d25828e6140f6565b8690613b45565b92506000612d4b6103e8610885600d548c613b4590919063ffffffff16565b9050611b8d83610885611b868c85613b64565b333214612df257600954604051636c9b2a3f60e11b81523360048201526001600160a01b039091169063d936547e90602401602060405180830381865afa158015612dad573d6000803e3d6000fd5b505050506040513d601f19601f82011682018060405250810190612dd191906142f1565b1515600114612df25760405162461bcd60e51b81526004016106a990614313565b42811015612e125760405162461bcd60e51b81526004016106a99061433e565b60008311612e5b5760405162461bcd60e51b81526020600482015260166024820152751253959053125117d3505617d09054d157d25394155560521b60448201526064016106a9565b60008211612ea25760405162461bcd60e51b81526020600482015260146024820152731253959053125117d513d2d15397d3d55514155560621b60448201526064016106a9565b6007546040516370a0823160e01b81523060048201526001600160a01b03909116906370a0823190602401602060405180830381865afa158015612eea573d6000803e3d6000fd5b505050506040513d601f19601f82011682018060405250810190612f0e9190614395565b8210612f2c5760405162461bcd60e51b81526004016106a990614866565b600080612f376139c1565b9092509050808410612f5b5760405162461bcd60e51b81526004016106a9906148af565b6000612f68858484612b91565b90506000612f88620186a0610885600c5485613b4590919063ffffffff16565b9050612f9482826140f6565b915086821115612fb65760405162461bcd60e51b81526004016106a9906143ae565b60008211612fd65760405162461bcd60e51b81526004016106a99061472c565b6006546040516370a0823160e01b8152336004820152613008916001600160a01b0316906370a0823190602401610917565b8211156130575760405162461bcd60e51b815260206004820152601e60248201527f424153455f494e5055545f4849474845525f555345525f42414c414e4345000060448201526064016106a9565b6006546040516323b872dd60e01b81526001600160a01b03909116906323b872dd9061308b90339030908790600401614466565b6020604051808303816000875af11580156130aa573d6000803e3d6000fd5b505050506040513d601f19601f820116820180604052508101906130ce91906142f1565b5060075460405163a9059cbb60e01b81526001600160a01b039091169063a9059cbb906131019033908a9060040161448a565b6020604051808303816000875af1158015613120573d6000803e3d6000fd5b505050506040513d601f19601f8201168201806040525081019061314491906142f1565b5060065460085460405163a9059cbb60e01b81526001600160a01b039283169263a9059cbb9261317b92911690859060040161448a565b6020604051808303816000875af115801561319a573d6000803e3d6000fd5b505050506040513d601f19601f820116820180604052508101906131be91906142f1565b50600854600654604051632054895360e21b81526001600160a01b039182166004820152336024820152911690638152254c90604401600060405180830381600087803b15801561320e57600080fd5b505af1158015613222573d6000803e3d6000fd5b505050507f6e9d5a0202c67970b52b10deb68f1641a9408d90db857bc984d008c1be70383a3361324f8990565b848988612195565b6001600160a01b03918216600090815260016020908152604080832093909416825291909152205490565b33321461331657600954604051636c9b2a3f60e11b81523360048201526001600160a01b039091169063d936547e90602401602060405180830381865afa1580156132d1573d6000803e3d6000fd5b505050506040513d601f19601f820116820180604052508101906132f591906142f1565b15156001146133165760405162461bcd60e51b81526004016106a990614313565b428110156133365760405162461bcd60e51b81526004016106a99061433e565b600083116133565760405162461bcd60e51b81526004016106a99061472c565b600082116133a15760405162461bcd60e51b81526020600482015260186024820152771253959053125117d3525397d513d2d15397d3d55514155560421b60448201526064016106a9565b6006546040516370a0823160e01b81523360048201526001600160a01b03909116906370a0823190602401602060405180830381865afa1580156133e9573d6000803e3d6000fd5b505050506040513d601f19601f8201168201806040525081019061340d9190614395565b83111561345c5760405162461bcd60e51b815260206004820152601e60248201527f424153455f494e5055545f4849474845525f555345525f42414c414e4345000060448201526064016106a9565b6000806134676139c1565b90925090508084106134c75760405162461bcd60e51b815260206004820152602360248201527f4d494e5f544f4b454e5f4849474845525f504f4f4c5f544f4b454e5f42414c416044820152624e434560e81b60648201526084016106a9565b60006134e5620186a0610885600c5489613b4590919063ffffffff16565b905060006134f38783613b64565b90506000613502828686610e91565b9050868110156135245760405162461bcd60e51b81526004016106a9906143ae565b8381106135435760405162461bcd60e51b81526004016106a9906148af565b6007546040516370a0823160e01b81523060048201526001600160a01b03909116906370a0823190602401602060405180830381865afa15801561358b573d6000803e3d6000fd5b505050506040513d601f19601f820116820180604052508101906135af9190614395565b81106135cd5760405162461bcd60e51b81526004016106a990614866565b6006546040516323b872dd60e01b81526001600160a01b03909116906323b872dd9061360190339030908d90600401614466565b6020604051808303816000875af1158015613620573d6000803e3d6000fd5b505050506040513d601f19601f8201168201806040525081019061364491906142f1565b5060075460405163a9059cbb60e01b81526001600160a01b039091169063a9059cbb90613677903390859060040161448a565b6020604051808303816000875af1158015613696573d6000803e3d6000fd5b505050506040513d601f19601f820116820180604052508101906136ba91906142f1565b5060065460085460405163a9059cbb60e01b81526001600160a01b039283169263a9059cbb926136f192911690879060040161448a565b6020604051808303816000875af1158015613710573d6000803e3d6000fd5b505050506040513d601f19601f8201168201806040525081019061373491906142f1565b50600854600654604051632054895360e21b81526001600160a01b039182166004820152336024820152911690638152254c90604401600060405180830381600087803b15801561378457600080fd5b505af1158015613798573d6000803e3d6000fd5b505050507fd294be030e23d0862312f418541ec01d571908715169f1cb1109bba3212b8c2d33888a84610b728a90565b6137d0613c95565b600a5460405163109cc30b60e21b81526001600160a01b03909116906342730c2c9061380090309060040161491d565b602060405180830381865afa15801561381d573d6000803e3d6000fd5b505050506040513d601f19601f8201168201806040525081019061384191906142f1565b61385d5760405162461bcd60e51b81526004016106a990614551565b600a54604051636bfb078d60e01b81526000916001600160a01b031690636bfb078d9061388e903090600401614940565b602060405180830381865afa1580156138ab573d6000803e3d6000fd5b505050506040513d601f19601f820116820180604052508101906138cf91906147f5565b90506001600160a01b0381166139195760405162461bcd60e51b815260206004820152600f60248201526e494e56414c49445f4144445245535360881b60448201526064016106a9565b600880546001600160a01b0319166001600160a01b0383811691909117909155600a54604051636e977f0b60e01b8152911690636e977f0b9061396190600190600401614994565b600060405180830381600087803b15801561397b57600080fd5b505af115801561398f573d6000803e3d6000fd5b5050600a546040516345503fcb60e11b81526001600160a01b039091169250638aa07f969150610e38906004016149d7565b6006546040516370a0823160e01b8152306004820152600091829182916001600160a01b0316906370a0823190602401602060405180830381865afa158015613a0e573d6000803e3d6000fd5b505050506040513d601f19601f82011682018060405250810190613a329190614395565b9050806007546040516370a0823160e01b81523060048201529192506000916001600160a01b03909116906370a0823190602401602060405180830381865afa158015613a83573d6000803e3d6000fd5b505050506040513d601f19601f82011682018060405250810190613aa79190614395565b919491935090915050565b60008080613abe6139c1565b90925090506000611ab28284613b45565b613ad7613c95565b6001600160a01b038116613b3c5760405162461bcd60e51b815260206004820152602660248201527f4f776e61626c653a206e6577206f776e657220697320746865207a65726f206160448201526564647265737360d01b60648201526084016106a9565b61100781614102565b6000613b5182846149e9565b9392505050565b6000613b518284614a00565b6000613b518284614a22565b6001600160a01b038316613bd25760405162461bcd60e51b8152602060048201526024808201527f45524332303a20617070726f76652066726f6d20746865207a65726f206164646044820152637265737360e01b60648201526084016106a9565b6001600160a01b038216613c335760405162461bcd60e51b815260206004820152602260248201527f45524332303a20617070726f766520746f20746865207a65726f206164647265604482015261737360f01b60648201526084016106a9565b6001600160a01b0383811660008181526001602090815260408083209487168084529482529182902085905590518481527f8c5be1e5ebec7d5bd14f71427d1e84f3dd0314c0f7b2291e5b200ac8c7c3b92591015b60405180910390a3505050565b6005546001600160a01b03163314611c655760405162461bcd60e51b815260206004820181905260248201527f4f776e61626c653a2063616c6c6572206973206e6f7420746865206f776e657260448201526064016106a9565b6000613cfb8484613257565b90506000198114613d635781811015613d565760405162461bcd60e51b815260206004820152601d60248201527f45524332303a20696e73756666696369656e7420616c6c6f77616e636500000060448201526064016106a9565b613d638484848403613b70565b50505050565b6001600160a01b038316613dcd5760405162461bcd60e51b815260206004820152602560248201527f45524332303a207472616e736665722066726f6d20746865207a65726f206164604482015264647265737360d81b60648201526084016106a9565b6001600160a01b038216613e2f5760405162461bcd60e51b815260206004820152602360248201527f45524332303a207472616e7366657220746f20746865207a65726f206164647260448201526265737360e81b60648201526084016106a9565b6001600160a01b03831660009081526020819052604090205481811015613ea75760405162461bcd60e51b815260206004820152602660248201527f45524332303a207472616e7366657220616d6f756e7420657863656564732062604482015265616c616e636560d01b60648201526084016106a9565b6001600160a01b03848116600081815260208181526040808320878703905593871680835291849020805487019055925185815290927fddf252ad1be2c89b69c2b068fc378daa952ba7f163c4a11628f55a4df523b3ef910160405180910390a3613d63565b6001600160a01b038216613f6d5760405162461bcd60e51b815260206004820152602160248201527f45524332303a206275726e2066726f6d20746865207a65726f206164647265736044820152607360f81b60648201526084016106a9565b6001600160a01b03821660009081526020819052604090205481811015613fe15760405162461bcd60e51b815260206004820152602260248201527f45524332303a206275726e20616d6f756e7420657863656564732062616c616e604482015261636560f01b60648201526084016106a9565b6001600160a01b0383166000818152602081815260408083208686039055600280548790039055518581529192917fddf252ad1be2c89b69c2b068fc378daa952ba7f163c4a11628f55a4df523b3ef9101613c88565b6001600160a01b03821661408d5760405162461bcd60e51b815260206004820152601f60248201527f45524332303a206d696e7420746f20746865207a65726f20616464726573730060448201526064016106a9565b806002600082825461409f919061463a565b90915550506001600160a01b038216600081815260208181526040808320805486019055518481527fddf252ad1be2c89b69c2b068fc378daa952ba7f163c4a11628f55a4df523b3ef910160405180910390a35050565b6000613b51828461463a565b600580546001600160a01b038381166001600160a01b0319831681179093556040519116919082907f8be0079c531659141344cd1fd0a4f28419497f9722a3daafe3b4186f6b6457e090600090a35050565b60008060006060848603121561416957600080fd5b505081359360208301359350604090920135919050565b60006020828403121561419257600080fd5b5035919050565b600060208083528351808285015260005b818110156141c6578581018301518582016040015282016141aa565b506000604082860101526040601f19601f8301168501019250505092915050565b6001600160a01b038116811461100757600080fd5b6000806040838503121561420f57600080fd5b823561421a816141e7565b946020939093013593505050565b60008060006060848603121561423d57600080fd5b8335614248816141e7565b92506020840135614258816141e7565b929592945050506040919091013590565b6000806000806080858703121561427f57600080fd5b5050823594602084013594506040840135936060013592509050565b6000602082840312156142ad57600080fd5b8135613b51816141e7565b600080604083850312156142cb57600080fd5b82356142d6816141e7565b915060208301356142e6816141e7565b809150509250929050565b60006020828403121561430357600080fd5b81518015158114613b5157600080fd5b6020808252601190820152701253959053125117d5d2125511531254d5607a1b604082015260600190565b60208082526010908201526f494e56414c49445f444541444c494e4560801b604082015260600190565b6020808252601390820152721253959053125117d513d2d15397d253941555606a1b604082015260600190565b6000602082840312156143a757600080fd5b5051919050565b60208082526012908201527143414e5f4e4f545f4d414b455f545241444560701b604082015260600190565b60208082526024908201527f424153455f4f55545055545f4849474845525f504f4f4c5f424153455f42414c604082015263414e434560e01b606082015260800190565b60208082526028908201527f424153455f4f55545055545f4849474845525f43555252454e545f54524144456040820152675f42414c414e434560c01b606082015260800190565b6001600160a01b039384168152919092166020820152604081019190915260600190565b6001600160a01b03929092168252602082015260400190565b6001600160a01b03969096168652602086019490945260408501929092526060840152608083015260a082015260c00190565b600181811c908216806144ea57607f821691505b60208210810361450a57634e487b7160e01b600052602260045260246000fd5b50919050565b600b81526a736574547261646546656560a81b602082015260400190565b6001600160a01b0382168152604060208201819052600090613b51908301614510565b60208082526012908201527124a72b20a624a22fa822a926a4a9a9a4a7a760711b604082015260600190565b6001600160a01b03821681526060602082018190526000906145a0908301614510565b8281036040840152611ab2816008815267747261646546656560c01b602082015260400190565b6060815260006145d960608301614510565b8281036020840152614600816008815267747261646546656560c01b602082015260400190565b91505060ff8316604083015292915050565b602081526000610c3d60208301614510565b634e487b7160e01b600052601160045260246000fd5b80820180821115610c3d57610c3d614624565b600e81526d736574506c6174666f726d46656560901b602082015260400190565b6001600160a01b0382168152604060208201819052600090613b5190830161464d565b6001600160a01b03821681526060602082018190526000906146b490830161464d565b8281036040840152611ab281600b81526a706c6174666f726d46656560a81b602082015260400190565b6060815260006146f06060830161464d565b828103602084015261460081600b81526a706c6174666f726d46656560a81b602082015260400190565b602081526000610c3d6020830161464d565b6020808252601290820152711253959053125117d09054d157d25394155560721b604082015260600190565b60148152731cd95d15da1a5d195b1a5cdd10dbdb9d1c9858dd60621b602082015260400190565b6001600160a01b0382168152604060208201819052600090613b51908301614758565b6001600160a01b03821681526060602082018190526000906147c5908301614758565b8281036040840152611ab28160118152701dda1a5d195b1a5cdd10dbdb9d1c9858dd607a1b602082015260400190565b60006020828403121561480757600080fd5b8151613b51816141e7565b60608152600061482460608301614758565b82810360208401526146008160118152701dda1a5d195b1a5cdd10dbdb9d1c9858dd607a1b602082015260400190565b602081526000610c3d60208301614758565b60208082526029908201527f544f4b454e5f4f55545055545f4849474845525f43555252454e545f54524144604082015268455f42414c414e434560b81b606082015260800190565b60208082526026908201527f544f4b454e5f4f55545055545f4849474845525f504f4f4c5f544f4b454e5f42604082015265414c414e434560d01b606082015260800190565b60158152741cd95d119959535858da1a5b9950dbdb9d1c9858dd605a1b602082015260400190565b6001600160a01b0382168152604060208201819052600090613b519083016148f5565b6001600160a01b03821681526060602082018190526000906149639083016148f5565b8281036040840152611ab2816012815271199959535858da1a5b9950dbdb9d1c9858dd60721b602082015260400190565b6060815260006149a6606083016148f5565b8281036020840152614600816012815271199959535858da1a5b9950dbdb9d1c9858dd60721b602082015260400190565b602081526000610c3d602083016148f5565b8082028115828204841417610c3d57610c3d614624565b600082614a1d57634e487b7160e01b600052601260045260246000fd5b500490565b81810381811115610c3d57610c3d61462456fea2646970667358221220e881b63c8828160541dfb581dfaa1ba6bd353c3cdddd341bcd97ba3ed1ce52a964736f6c63430008110033",
  "immutableReferences": {},
  "source": "// SPDX-License-Identifier: MIT\r\npragma solidity >=0.6.12;\r\n\r\nimport \"@openzeppelin/contracts/utils/math/SafeMath.sol\";\r\nimport \"@openzeppelin/contracts/token/ERC20/IERC20.sol\";\r\nimport \"@openzeppelin/contracts/token/ERC20/ERC20.sol\";\r\nimport \"@openzeppelin/contracts/token/ERC20/extensions/ERC20Burnable.sol\";\r\nimport \"@openzeppelin/contracts/utils/Context.sol\";\r\nimport \"@openzeppelin/contracts/access/Ownable.sol\";\r\n\r\nimport './interfaces/IGarbiswapFeeMachine.sol';\r\nimport './interfaces/IGarbiswapWhitelist.sol';\r\nimport './interfaces/IGarbiTimeLock.sol';\r\nimport './interfaces/IGarbiOracle.sol';\r\n\r\ncontract GarbiswapTradeUSDTUSDC is ERC20Burnable, Ownable {\r\n    \r\n    using SafeMath for uint256;\r\n\r\n    IERC20 public base; // Stable coin base token (USDC)\r\n    IERC20 public token; // Token to trade in this pair\r\n\r\n    // Fee Machine Contract.\r\n    IGarbiswapFeeMachine public feeMachineContract; \r\n\r\n    IGarbiswapWhitelist public whitelistContract; \r\n\r\n    IGarbiTimeLock public garbiTimeLockContract;\r\n\r\n    IGarbiOracle public garbiOracle;\r\n\r\n    uint256 public TRADE_FEE = 35; //0.035% 35/100000\r\n\r\n    uint256 public PLATFORM_FEE = 25; //2.5% 25/1000\r\n\r\n    address public platformFundAddress;\r\n\r\n    modifier onlyWhitelist()\r\n    {\r\n        if (msg.sender != tx.origin) {\r\n            require(whitelistContract.whitelisted(msg.sender) == true, 'INVALID_WHITELIST');\r\n        }\r\n        _;\r\n    }\r\n\r\n    // Events\r\n\r\n    event onSwapBaseToTokenWithBaseInput(address sender, uint256 minTokenOutput, uint256 baseInputAmount, uint256 tokenOutputAmount, uint256 poolBaseBalance, uint256 poolTokenBalance);\r\n    event onSwapBaseToTokenWithTokenOutput(address sender, uint256 maxBaseInput, uint256 baseInputAmount, uint256 tokenOutputAmount, uint256 poolBaseBalance, uint256 poolTokenBalance);\r\n    \r\n    event onSwapTokenToBaseWithTokenInput(address sender, uint256 minBaseOutput, uint256 tokenInputAmount, uint256 baseOutputAmount, uint256 poolBaseBalance, uint256 poolTokenBalance);\r\n    event onSwapTokenToBaseWithBaseOutput(address sender, uint256 maxTokenInput, uint256 tokenInputAmount, uint256 baseOutputAmount, uint256 poolBaseBalance, uint256 poolTokenBalance);\r\n\r\n    event onAddLP(address sender, uint256 mintLP, uint256 baseInputAmount, uint256 tokenInputAmount, uint256 poolBaseBalance, uint256 poolTokenBalance);\r\n    event onRemoveLP(address sender, uint256 amountLP, uint256 baseOutputAmout, uint256 tokenOutputAmount, uint256 poolBaseBalance, uint256 poolTokenBalance);\r\n\r\n    constructor(\r\n        IERC20 _base,\r\n        IERC20 _token,\r\n        IGarbiTimeLock _garbiTimeLockContract,\r\n        IGarbiswapFeeMachine _feeMachineContract,\r\n        IGarbiswapWhitelist _whitelistContract,\r\n        IGarbiOracle _garbiOracle,\r\n        string memory name, \r\n        string memory symbol\r\n        ) ERC20(name, symbol) {\r\n        base = _base;\r\n        token = _token;\r\n        garbiTimeLockContract = _garbiTimeLockContract;\r\n        whitelistContract = _whitelistContract;\r\n        feeMachineContract = _feeMachineContract;\r\n        garbiOracle = _garbiOracle;\r\n        platformFundAddress = _msgSender();\r\n    }\r\n\r\n    function decimals() public view virtual override returns (uint8) {\r\n        return 6;\r\n    }\r\n\r\n    function setWhitelistContract() public onlyOwner {\r\n        require(garbiTimeLockContract.isQueuedTransaction(address(this), 'setWhitelistContract'), \"INVALID_PERMISSION\");\r\n\r\n        address _whitelistContract = garbiTimeLockContract.getAddressChangeOnTimeLock(address(this), 'setWhitelistContract', 'whitelistContract');\r\n\r\n        require(_whitelistContract != address(0), \"INVALID_ADDRESS\");\r\n\r\n        whitelistContract = IGarbiswapWhitelist(_whitelistContract);\r\n\r\n        garbiTimeLockContract.clearFieldValue('setWhitelistContract', 'whitelistContract', 1);\r\n        garbiTimeLockContract.doneTransactions('setWhitelistContract');\r\n    }\r\n\r\n    function setFeeMachineContract() public onlyOwner {\r\n\r\n        require(garbiTimeLockContract.isQueuedTransaction(address(this), 'setFeeMachineContract'), \"INVALID_PERMISSION\");\r\n\r\n        address _feeMachineContract = garbiTimeLockContract.getAddressChangeOnTimeLock(address(this), 'setFeeMachineContract', 'feeMachineContract');\r\n\r\n        require(_feeMachineContract != address(0), \"INVALID_ADDRESS\");\r\n\r\n        feeMachineContract = IGarbiswapFeeMachine(_feeMachineContract);\r\n\r\n        garbiTimeLockContract.clearFieldValue('setFeeMachineContract', 'feeMachineContract', 1);\r\n        garbiTimeLockContract.doneTransactions('setFeeMachineContract');\r\n    }\r\n\r\n    function setTradeFee() public onlyOwner {\r\n\r\n        require(garbiTimeLockContract.isQueuedTransaction(address(this), 'setTradeFee'), \"INVALID_PERMISSION\");\r\n\r\n        uint256 _tradeFee = garbiTimeLockContract.getUintChangeOnTimeLock(address(this), 'setTradeFee', 'tradeFee');\r\n\r\n        TRADE_FEE = _tradeFee;\r\n\r\n        garbiTimeLockContract.clearFieldValue('setTradeFee', 'tradeFee', 2);\r\n        garbiTimeLockContract.doneTransactions('setTradeFee');\r\n    }\r\n\r\n    function setPlatformFee() public onlyOwner {\r\n\r\n        require(garbiTimeLockContract.isQueuedTransaction(address(this), 'setPlatformFee'), \"INVALID_PERMISSION\");\r\n\r\n        uint256 _platformFee = garbiTimeLockContract.getUintChangeOnTimeLock(address(this), 'setPlatformFee', 'platformFee');\r\n\r\n        PLATFORM_FEE = _platformFee;\r\n\r\n        garbiTimeLockContract.clearFieldValue('setPlatformFee', 'platformFee', 2);\r\n        garbiTimeLockContract.doneTransactions('setPlatformFee');\r\n    }\r\n\r\n    function setPlatformFundAdress(address newAddress) public onlyOwner {\r\n        platformFundAddress = newAddress;\r\n    }\r\n\r\n    function getK() public view returns(uint256) {\r\n        uint256 baseReserve = 0;\r\n        uint256 tokenReserve = 0;\r\n        (baseReserve, tokenReserve) = getTotalReserve();\r\n        uint256 k = tokenReserve.mul(baseReserve);\r\n        return k;\r\n    }\r\n\r\n    function getTokenOutput(uint256 baseInputAmount) public view returns (uint256) {\r\n        uint256 baseReserve = 0;\r\n        uint256 tokenReserve = 0;\r\n        (baseReserve, tokenReserve) = getTotalReserve();\r\n\r\n        baseInputAmount = convertDecimal6to18(baseInputAmount);\r\n\r\n        uint256 tradeFee = baseInputAmount.mul(TRADE_FEE).div(100000);\r\n        uint256 baseInputAmountAfterFee = baseInputAmount.sub(tradeFee); // cut the TRADE_FEE from base input\r\n\r\n        uint256 tokenOutputAmount = getTokenOutputAmountFromBaseInput(baseInputAmountAfterFee, baseReserve, tokenReserve);\r\n        return tokenOutputAmount;\r\n    }\r\n\r\n    function getBaseOutput(uint256 tokenInputAmount) public view returns (uint256) {\r\n        uint256 baseReserve = 0;\r\n        uint256 tokenReserve = 0;\r\n        (baseReserve, tokenReserve) = getTotalReserve();\r\n\r\n        uint256 tradeFee = tokenInputAmount.mul(TRADE_FEE).div(100000);\r\n        uint256 tokenInputAmountAfterFee = tokenInputAmount.sub(tradeFee); // cut the TRADE_FEE from token input\r\n\r\n        uint256 baseOutputAmount = getBaseOutputAmountFromTokenInput(tokenInputAmountAfterFee, baseReserve, tokenReserve);\r\n        baseOutputAmount = convertDecimal18to6(baseOutputAmount);\r\n        return baseOutputAmount;\r\n    }\r\n\r\n    function getDataFromBaseInputToAddLp(uint256 baseInputAmount) public view returns (uint256, uint256) {\r\n        uint256 totalSupply = totalSupply();\r\n        uint256 mintLP = 0;\r\n        uint256 tokenInputAmount = 0;\r\n        \r\n         baseInputAmount = convertDecimal6to18(baseInputAmount);\r\n\r\n        if(totalSupply == 0) {\r\n            mintLP = baseInputAmount;\r\n            tokenInputAmount = baseInputAmount;\r\n        }\r\n        else { \r\n            // tokenReserve/baseReserve = (tokenReserve+tokenInputAmount)/(baseReserve+baseInputAmount)\r\n            // => tokenReserve+tokenInputAmount = tokenReserve*(baseReserve+baseInputAmount)/baseReserve\r\n            // => tokenInputAmount = tokenReserve*(baseReserve+baseInputAmount)/baseReserve - tokenReserve;\r\n            uint256 baseReserve = 0;\r\n            uint256 tokenReserve = 0;\r\n            (baseReserve, tokenReserve) = getTotalReserve();\r\n            tokenInputAmount = tokenReserve.mul(baseReserve.add(baseInputAmount)).div(baseReserve).sub(tokenReserve);\r\n\r\n            uint256 platformFeeOnBase = baseInputAmount.mul(PLATFORM_FEE).div(1000);\r\n\r\n            // mintLP/totalLP =  baseInputAmount/baseReserve\r\n            // mintLP = totalLP*baseInputAmount/baseReserve\r\n            mintLP = totalSupply.mul(baseInputAmount.sub(platformFeeOnBase)).div(baseReserve);\r\n        }\r\n        return (mintLP, tokenInputAmount);\r\n    }\r\n\r\n    function getDataFromTokenInputToAddLp(uint256 tokenInputAmount) public view returns (uint256, uint256) {\r\n        uint256 totalSupply = totalSupply();\r\n        uint256 mintLP;\r\n        uint256 baseInputAmount;\r\n        if(totalSupply == 0) {\r\n            mintLP = tokenInputAmount;\r\n            baseInputAmount = tokenInputAmount;\r\n        }\r\n        else { \r\n            // tokenReserve/baseReserve = (tokenReserve+tokenInputAmount)/(baseReserve+baseInputAmount)\r\n            // => (baseReserve+baseInputAmount) = (tokenReserve+tokenInputAmount) * baseReserve / tokenReserve\r\n            //  => baseInputAmount = (tokenReserve+tokenInputAmount) * baseReserve / tokenReserve - baseReserve\r\n            uint256 baseReserve = 0;\r\n            uint256 tokenReserve = 0;\r\n            (baseReserve, tokenReserve) = getTotalReserve();\r\n\r\n            baseInputAmount = baseReserve.mul(tokenReserve.add(tokenInputAmount)).div(tokenReserve).sub(baseReserve);\r\n\r\n            uint256 platformFeeOnBase = baseInputAmount.mul(PLATFORM_FEE).div(1000);\r\n\r\n            // mintLP/totalLP =  baseInputAmount/baseReserve\r\n            // mintLP = totalLP*baseInputAmount/baseReserve\r\n            mintLP = totalSupply.mul(baseInputAmount.sub(platformFeeOnBase)).div(baseReserve);\r\n        }\r\n        return (mintLP, convertDecimal18to6(baseInputAmount));\r\n    }\r\n\r\n    function getDataToRemoveLP(uint256 amountLP) public view returns (uint256, uint256){\r\n        \r\n        uint256 totalSupply = totalSupply();\r\n\r\n        if (amountLP > totalSupply) {\r\n            amountLP = totalSupply;\r\n        } \r\n        uint256 baseReserve = 0;\r\n        uint256 tokenReserve = 0;\r\n        (baseReserve, tokenReserve) = getTotalReserve();\r\n        \r\n        // amountLP/totalSupply = baseOutputAmount/baseReserve\r\n        // => baseOutputAmount = amountLP*baseReserve/totalSupply\r\n        uint256 baseOutputAmount = amountLP.mul(baseReserve).div(totalSupply);\r\n        uint256 tokenOutputAmount = amountLP.mul(tokenReserve).div(totalSupply);\r\n        \r\n        uint256 platformFeeOnBase = baseOutputAmount.mul(PLATFORM_FEE).div(1000);\r\n        uint256 platformFeeOnToken = tokenOutputAmount.mul(PLATFORM_FEE).div(1000);\r\n        \r\n        baseOutputAmount = baseOutputAmount.sub(platformFeeOnBase);\r\n        tokenOutputAmount = tokenOutputAmount.sub(platformFeeOnToken);\r\n        \r\n        return (convertDecimal18to6(baseOutputAmount), tokenOutputAmount);\r\n    }\r\n    \r\n    //tokenOutputAmount/baseInputAmount = tokenPriceFromOracle/basePriceFromOracle\r\n    //tokenOutputAmount = baseInputAmount*tokenPriceFromOracle/basePriceFromOracle\r\n    function getTokenOutputAmountFromBaseInput(uint256 baseInputAmount, uint256 baseReserve, uint256 tokenReserve) public view returns (uint256) {\r\n      require(baseReserve > 0 && tokenReserve > 0, \"INVALID_VALUE\");\r\n      uint256 tokenPriceFromOracle = garbiOracle.getLatestPrice(address(token));\r\n      uint256 basePriceFromOracle = garbiOracle.getLatestPrice(address(base));\r\n      uint256 tokenOutputAmount = baseInputAmount.mul(tokenPriceFromOracle).div(basePriceFromOracle);\r\n      return tokenOutputAmount;\r\n    }\r\n    \r\n    //tokenOutputAmount/baseInputAmount = tokenPriceFromOracle/basePriceFromOracle\r\n    //baseInputAmount = tokenOutputAmount*basePriceFromOracle/tokenPriceFromOracle\r\n    function getBaseInputAmountFromTokenOutput(uint256 tokenOutputAmount, uint256 baseReserve, uint256 tokenReserve) public view  returns (uint256) {\r\n      require(baseReserve > 0 && tokenReserve > 0, \"INVALID_VALUE\");\r\n      uint256 tokenPriceFromOracle = garbiOracle.getLatestPrice(address(token));\r\n      uint256 basePriceFromOracle = garbiOracle.getLatestPrice(address(base));\r\n      uint256 baseInputAmount = tokenOutputAmount.mul(basePriceFromOracle).div(tokenPriceFromOracle);\r\n      return baseInputAmount;\r\n    }\r\n    \r\n    //tokenInputAmount/baseOutputAmount = tokenPriceFromOracle/basePriceFromOracle\r\n    //baseOutputAmount = tokenInputAmount*basePriceFromOracle/tokenPriceFromOracle\r\n    function getBaseOutputAmountFromTokenInput(uint256 tokenInputAmount, uint256 baseReserve, uint256 tokenReserve) public view returns (uint256) {\r\n      require(baseReserve > 0 && tokenReserve > 0, \"INVALID_VALUE\");\r\n      uint256 tokenPriceFromOracle = garbiOracle.getLatestPrice(address(token));\r\n      uint256 basePriceFromOracle = garbiOracle.getLatestPrice(address(base));\r\n      uint256 baseOutputAmount = tokenInputAmount.mul(basePriceFromOracle).div(tokenPriceFromOracle);\r\n      return baseOutputAmount;\r\n    }\r\n\r\n    //tokenInputAmount/baseOutputAmount = tokenPriceFromOracle/basePriceFromOracle\r\n    //tokenInputAmount = baseOutputAmount*tokenPriceFromOracle/basePriceFromOracle\r\n    function getTokenInputAmountFromBaseOutput(uint256 baseOutputAmount, uint256 baseReserve, uint256 tokenReserve) public view returns (uint256) {\r\n      require(baseReserve > 0 && tokenReserve > 0, \"INVALID_VALUE\");\r\n      uint256 tokenPriceFromOracle = garbiOracle.getLatestPrice(address(token));\r\n      uint256 basePriceFromOracle = garbiOracle.getLatestPrice(address(base));\r\n      uint256 tokenInputAmount = baseOutputAmount.mul(tokenPriceFromOracle).div(basePriceFromOracle);\r\n      return tokenInputAmount;\r\n    }\r\n\r\n    function swapBaseToTokenWithBaseInput(uint256 baseInputAmount, uint256 minTokenOutput, uint256 deadline) public onlyWhitelist {\r\n        require(deadline >= block.timestamp, 'INVALID_DEADLINE');\r\n        require(baseInputAmount > 0, 'INVALID_BASE_INPUT');\r\n        require(minTokenOutput > 0, 'INVALID_MIN_TOKEN_OUTPUT');\r\n        require(baseInputAmount <= base.balanceOf(msg.sender), 'BASE_INPUT_HIGHER_USER_BALANCE');\r\n        \r\n        baseInputAmount = convertDecimal6to18(baseInputAmount);\r\n\r\n        uint256 baseReserve = 0;\r\n        uint256 tokenReserve = 0;\r\n        (baseReserve, tokenReserve) = getTotalReserve();\r\n        require(minTokenOutput < tokenReserve, \"MIN_TOKEN_HIGHER_POOL_TOKEN_BALANCE\");\r\n        \r\n        uint256 tradeFee = baseInputAmount.mul(TRADE_FEE).div(100000);\r\n        uint256 baseInputAmountAfterFee = baseInputAmount.sub(tradeFee); // cut the TRADE_FEE from base input\r\n        \r\n        uint256 tokenOutputAmount = getTokenOutputAmountFromBaseInput(baseInputAmountAfterFee, baseReserve, tokenReserve);\r\n\r\n        require(tokenOutputAmount >= minTokenOutput, 'CAN_NOT_MAKE_TRADE');\r\n        require(tokenOutputAmount < tokenReserve, 'TOKEN_OUTPUT_HIGHER_POOL_TOKEN_BALANCE');\r\n        require(tokenOutputAmount < token.balanceOf(address(this)), 'TOKEN_OUTPUT_HIGHER_CURRENT_TRADE_BALANCE'); // output is higher than the trade contract balance\r\n        \r\n        //make trade\r\n        baseInputAmount = convertDecimal18to6(baseInputAmount);\r\n        base.transferFrom(msg.sender, address(this), baseInputAmount);\r\n\r\n        token.transfer(msg.sender, tokenOutputAmount);\r\n\r\n        //transfer fee\r\n        tradeFee = convertDecimal18to6(tradeFee);\r\n        base.transfer(address(feeMachineContract), tradeFee);\r\n        feeMachineContract.processTradeFee(base, msg.sender); \r\n\r\n        emit onSwapBaseToTokenWithBaseInput(msg.sender, minTokenOutput, baseInputAmount, tokenOutputAmount, convertDecimal18to6(baseReserve), tokenReserve);\r\n    }\r\n\r\n    function swapBaseToTokenWithTokenOutput(uint256 maxBaseInput, uint256 tokenOutputAmount, uint256 deadline) public onlyWhitelist {\r\n        require(deadline >= block.timestamp, 'INVALID_DEADLINE');\r\n        require(maxBaseInput > 0, 'INVALID_MAX_BASE_INPUT');\r\n        require(tokenOutputAmount > 0, 'INVALID_TOKEN_OUTPUT');\r\n        require(tokenOutputAmount < token.balanceOf(address(this)), 'TOKEN_OUTPUT_HIGHER_CURRENT_TRADE_BALANCE'); // output is higher than the trade contract balance\r\n        \r\n        maxBaseInput = convertDecimal6to18(maxBaseInput);\r\n\r\n        uint256 baseReserve = 0;\r\n        uint256 tokenReserve = 0;\r\n        (baseReserve, tokenReserve) = getTotalReserve();\r\n        require(tokenOutputAmount < tokenReserve, \"TOKEN_OUTPUT_HIGHER_POOL_TOKEN_BALANCE\");\r\n\r\n        uint256 baseInputAmount = getBaseInputAmountFromTokenOutput(tokenOutputAmount, baseReserve, tokenReserve);\r\n        \r\n        uint256 tradeFee = baseInputAmount.mul(TRADE_FEE).div(100000);\r\n        baseInputAmount = baseInputAmount.add(tradeFee); // add the TRADE_FEE to base input\r\n\r\n        require(baseInputAmount <= maxBaseInput, 'CAN_NOT_MAKE_TRADE');\r\n        require(baseInputAmount > 0, 'INVALID_BASE_INPUT');\r\n        require(baseInputAmount <= convertDecimal6to18(base.balanceOf(msg.sender)), 'BASE_INPUT_HIGHER_USER_BALANCE');\r\n        \r\n        //make trade\r\n        baseInputAmount = convertDecimal18to6(baseInputAmount);\r\n        base.transferFrom(msg.sender, address(this), baseInputAmount);\r\n\r\n        token.transfer(msg.sender, tokenOutputAmount);\r\n\r\n        //transfer fee\r\n        tradeFee = convertDecimal18to6(tradeFee);\r\n        base.transfer(address(feeMachineContract), tradeFee);\r\n        feeMachineContract.processTradeFee(base, msg.sender);\r\n\r\n        emit onSwapBaseToTokenWithTokenOutput(msg.sender, convertDecimal18to6(maxBaseInput), baseInputAmount, tokenOutputAmount, convertDecimal18to6(baseReserve), tokenReserve);\r\n    }\r\n\r\n    function swapTokenToBaseWithTokenInput(uint256 tokenInputAmount, uint256 minBaseOutput, uint256 deadline) public onlyWhitelist {\r\n        require(deadline >= block.timestamp, 'INVALID_DEADLINE');\r\n        require(minBaseOutput > 0, 'INVALID_MIN_BASE_OUTPUT');\r\n        require(tokenInputAmount > 0, 'INVALID_TOKEN_INPUT');\r\n        require(tokenInputAmount <= token.balanceOf(msg.sender), 'TOKEN_INPUT_HIGHER_USER_BALANCE');\r\n\r\n        minBaseOutput = convertDecimal6to18(minBaseOutput);\r\n\r\n        uint256 baseReserve = 0;\r\n        uint256 tokenReserve = 0;\r\n        (baseReserve, tokenReserve) = getTotalReserve();\r\n        require(minBaseOutput < baseReserve, 'MIN_BASE_OUTPUT_HIGHER_POOL_BASE_BALANCE');\r\n\r\n        uint256 tradeFee = tokenInputAmount.mul(TRADE_FEE).div(100000);\r\n        uint256 tokenInputAmountAfterFee = tokenInputAmount.sub(tradeFee); // cut the TRADE_FEE from token input\r\n        \r\n        uint256 baseOutputAmount = getBaseOutputAmountFromTokenInput(tokenInputAmountAfterFee, baseReserve, tokenReserve);\r\n\r\n        require(baseOutputAmount >= minBaseOutput, 'CAN_NOT_MAKE_TRADE');\r\n        require(baseOutputAmount < baseReserve, 'BASE_OUTPUT_HIGHER_POOL_BASE_BALANCE');\r\n        require(baseOutputAmount < convertDecimal6to18(base.balanceOf(address(this))), 'BASE_OUTPUT_HIGHER_CURRENT_TRADE_BALANCE'); // output is higher than the trade contract balance\r\n\r\n        //make trade\r\n        token.transferFrom(msg.sender, address(this), tokenInputAmount);\r\n\r\n        baseOutputAmount = convertDecimal18to6(baseOutputAmount);\r\n        base.transfer(msg.sender, baseOutputAmount);\r\n\r\n        //transfer fee\r\n        token.transfer(address(feeMachineContract), tradeFee);\r\n        feeMachineContract.processTradeFee(token, msg.sender);\r\n\r\n        emit onSwapTokenToBaseWithTokenInput(msg.sender, convertDecimal18to6(minBaseOutput), tokenInputAmount, baseOutputAmount, convertDecimal18to6(baseReserve), tokenReserve);\r\n    }\r\n\r\n    function swapTokenToBaseWithBaseOutput(uint256 maxTokenInput, uint256 baseOutputAmount, uint256 deadline) public onlyWhitelist {\r\n        require(deadline >= block.timestamp, 'INVALID_DEADLINE');\r\n        require(maxTokenInput > 0, 'INVALID_MAX_TOKEN_INPUT');\r\n        require(baseOutputAmount > 0, 'INVALID_BASE_OUTPUT');\r\n        require(baseOutputAmount < base.balanceOf(address(this)), 'BASE_OUTPUT_HIGHER_CURRENT_TRADE_BALANCE'); // output is higher than the trade contract balance\r\n        \r\n        baseOutputAmount = convertDecimal6to18(baseOutputAmount);\r\n\r\n        uint256 baseReserve = 0;\r\n        uint256 tokenReserve = 0;\r\n        (baseReserve, tokenReserve) = getTotalReserve();\r\n        require(baseOutputAmount < baseReserve, 'BASE_OUTPUT_HIGHER_POOL_BASE_BALANCE');\r\n\r\n        uint256 tokenInputAmount = getTokenInputAmountFromBaseOutput(baseOutputAmount, baseReserve, tokenReserve);\r\n        \r\n        uint256 tradeFee = tokenInputAmount.mul(TRADE_FEE).div(100000);\r\n        tokenInputAmount = tokenInputAmount.add(tradeFee); // add the TRADE_FEE to token input\r\n\r\n        require(tokenInputAmount <= maxTokenInput, 'CAN_NOT_MAKE_TRADE');\r\n        require(tokenInputAmount > 0, 'INVALID_TOKEN_INPUT');\r\n        require(tokenInputAmount <= token.balanceOf(msg.sender), 'TOKEN_INPUT_HIGHER_USER_BALANCE');\r\n\r\n        //make trade\r\n        token.transferFrom(msg.sender, address(this), tokenInputAmount);\r\n        \r\n        baseOutputAmount = convertDecimal18to6(baseOutputAmount);\r\n        base.transfer(msg.sender, baseOutputAmount);\r\n\r\n        //transfer fee\r\n        token.transfer(address(feeMachineContract), tradeFee);\r\n        feeMachineContract.processTradeFee(token, msg.sender);\r\n\r\n        emit onSwapTokenToBaseWithBaseOutput(msg.sender, maxTokenInput, tokenInputAmount, baseOutputAmount, convertDecimal18to6(baseReserve), tokenReserve);\r\n    }\r\n\r\n    function addLP(uint256 minLP, uint256 baseInputAmount, uint256 maxTokenInputAmount, uint256 deadline) public onlyWhitelist returns (uint256) {\r\n        require(deadline >= block.timestamp, 'INVALID_DEADLINE');\r\n        require(minLP > 0, 'INVALID_MIN_LP');\r\n        require(baseInputAmount > 0, 'INVALID_BASE_INPUT');\r\n        require(maxTokenInputAmount > 0, 'INVALID_MAX_TOKEN_INPUT');\r\n        \r\n        uint256 totalSupply = totalSupply();\r\n        if(totalSupply == 0) {\r\n            base.transferFrom(msg.sender, address(this), baseInputAmount);\r\n            token.transferFrom(msg.sender, address(this), maxTokenInputAmount);\r\n\r\n            baseInputAmount = convertDecimal6to18(baseInputAmount);\r\n\r\n            uint256 platformFeeOnBase = baseInputAmount.mul(PLATFORM_FEE).div(1000);\r\n            uint256 platformFeeOnToken = maxTokenInputAmount.mul(PLATFORM_FEE).div(1000);\r\n            \r\n            uint256 initLP = baseInputAmount.sub(platformFeeOnBase);\r\n\r\n            platformFeeOnBase = convertDecimal18to6(platformFeeOnBase);\r\n            base.transfer(platformFundAddress, platformFeeOnBase);\r\n            token.transfer(platformFundAddress, platformFeeOnToken);\r\n            \r\n            _mint(msg.sender, initLP);\r\n            emit onAddLP(msg.sender, initLP, convertDecimal18to6(baseInputAmount), maxTokenInputAmount, base.balanceOf(address(this)), token.balanceOf(address(this)));\r\n            return initLP;\r\n        }\r\n        else {\r\n            baseInputAmount = convertDecimal6to18(baseInputAmount);\r\n            // tokenReserve/baseReserve = (tokenReserve+tokenInputAmount)/(baseReserve+baseInputAmount)\r\n            // => tokenReserve+tokenInputAmount = tokenReserve*(baseReserve+baseInputAmount)/baseReserve\r\n            // => tokenInputAmount = tokenReserve*(baseReserve+baseInputAmount)/baseReserve - tokenReserve;\r\n            uint256 baseReserve = 0;\r\n            uint256 tokenReserve = 0;\r\n            (baseReserve, tokenReserve) = getTotalReserve();\r\n            uint256 tokenInputAmount = tokenReserve.mul(baseReserve.add(baseInputAmount)).div(baseReserve).sub(tokenReserve);\r\n\r\n            uint256 platformFeeOnBase = baseInputAmount.mul(PLATFORM_FEE).div(1000);\r\n            uint256 platformFeeOnToken = tokenInputAmount.mul(PLATFORM_FEE).div(1000);\r\n\r\n            // mintLP/totalLP =  baseInputAmount/baseReserve\r\n            // mintLP = totalLP*baseInputAmount/baseReserve\r\n            uint256 mintLP = totalSupply.mul(baseInputAmount.sub(platformFeeOnBase)).div(baseReserve);\r\n            \r\n            require(tokenInputAmount > 0, 'INVALID_TOKEN_INPUT');\r\n            require(tokenInputAmount <= maxTokenInputAmount, 'INVALID_TOKEN_INPUT');\r\n            require(mintLP >= minLP, \"INVALID_MINT_LP\");\r\n            \r\n            baseInputAmount = convertDecimal18to6(baseInputAmount);\r\n            base.transferFrom(msg.sender, address(this), baseInputAmount);\r\n            token.transferFrom(msg.sender, address(this), tokenInputAmount);\r\n\r\n            platformFeeOnBase = convertDecimal18to6(platformFeeOnBase);\r\n            base.transfer(platformFundAddress, platformFeeOnBase);\r\n            token.transfer(platformFundAddress, platformFeeOnToken);\r\n\r\n            _mint(msg.sender, mintLP);\r\n            emit onAddLP(msg.sender, mintLP, baseInputAmount, tokenInputAmount, base.balanceOf(address(this)), token.balanceOf(address(this)));\r\n            return mintLP;\r\n        }\r\n    }\r\n\r\n    function removeLP(uint256 amountLP, uint256 minBaseOutput, uint256 minTokenOutput, uint256 deadline) public onlyWhitelist returns (uint256, uint256){\r\n        require(deadline >= block.timestamp, 'INVALID_DEADLINE');\r\n        require(amountLP > 0, 'INVALID_AMOUNT_LP');\r\n        require(minBaseOutput > 0, 'INVALID_MIN_BASE_OUTPUT');\r\n        require(minTokenOutput > 0, 'INVALID_MIN_TOKEN_OUTPUT');\r\n        \r\n        minBaseOutput = convertDecimal6to18(minBaseOutput);\r\n\r\n        uint256 totalSupply = totalSupply();\r\n        \r\n        uint256 userLPbalance = balanceOf(msg.sender);\r\n        if(amountLP > userLPbalance) {\r\n            amountLP = userLPbalance;\r\n        }\r\n\r\n        require(amountLP <= totalSupply, 'INVALID_AMOUNT_LP_TOTAL_SUPPLY');\r\n         \r\n        uint256 baseReserve = 0;\r\n        uint256 tokenReserve = 0;\r\n        (baseReserve, tokenReserve) = getTotalReserve();\r\n        \r\n        // amountLP/totalSupply = baseOutputAmount/baseReserve\r\n        // => baseOutputAmount = amountLP*baseReserve/totalSupply\r\n        uint256 baseOutputAmount = amountLP.mul(baseReserve).div(totalSupply);\r\n        uint256 tokenOutputAmount = amountLP.mul(tokenReserve).div(totalSupply);\r\n\r\n        uint256 platformFeeOnBase = baseOutputAmount.mul(PLATFORM_FEE).div(1000);\r\n        uint256 platformFeeOnToken = tokenOutputAmount.mul(PLATFORM_FEE).div(1000);\r\n        \r\n        baseOutputAmount = baseOutputAmount.sub(platformFeeOnBase);\r\n        tokenOutputAmount = tokenOutputAmount.sub(platformFeeOnToken);\r\n\r\n        require(baseOutputAmount >= minBaseOutput, \"INVALID_BASE_OUTPUT\");\r\n        require(tokenOutputAmount >= minTokenOutput, \"INVALID_TOKEN_OUTPUT\");\r\n        require(baseOutputAmount <= baseReserve, \"BASE_OUTPUT_HIGHER_BASE_BALANCE\");\r\n        require(tokenOutputAmount <= tokenReserve, \"TOKEN_OUTPUT_HIGHER_TOKEN_BALANCE\");\r\n\r\n        _burn(msg.sender, amountLP);\r\n        \r\n        baseOutputAmount = convertDecimal18to6(baseOutputAmount);\r\n        base.transfer(msg.sender, baseOutputAmount);\r\n\r\n        token.transfer(msg.sender, tokenOutputAmount);\r\n\r\n        platformFeeOnBase = convertDecimal18to6(platformFeeOnBase);\r\n        base.transfer(platformFundAddress, platformFeeOnBase);\r\n\r\n        token.transfer(platformFundAddress, platformFeeOnToken);\r\n\r\n        emit onRemoveLP(msg.sender, amountLP, baseOutputAmount, tokenOutputAmount, base.balanceOf(address(this)), token.balanceOf(address(this)));\r\n        return (baseOutputAmount, tokenOutputAmount);\r\n    }\r\n\r\n    function getTotalReserve() public view returns (uint256, uint256) { \r\n        uint256 baseReserve = base.balanceOf(address(this));\r\n        baseReserve = convertDecimal6to18(baseReserve);\r\n\r\n        uint256 tokenReserve = token.balanceOf(address(this));\r\n\r\n        return (baseReserve, tokenReserve);\r\n    }\r\n\r\n    function convertDecimal6to18(uint256 number) public pure returns (uint256) { \r\n        //number = number.mul(1e18).div(1e6); //no need because usdt is 6 decimals\r\n        return number;\r\n    }\r\n\r\n    function convertDecimal18to6(uint256 number) public pure returns (uint256) { \r\n        //number = number.mul(1e6).div(1e18); //no need because usdt is 6 decimals\r\n        return number;\r\n    }\r\n}",
  "sourcePath": "C:\\Users\\David\\Documents\\NetBeansProjects\\garbiprotocol.github.io\\garbi_contracts\\contracts\\GarbiswapTradeUSDTUSDC.sol",
  "compiler": {
    "name": "solc",
    "version": "0.8.17+commit.8df45f5f.Emscripten.clang"
  },
  "schemaVersion": "3.4.11",
  "updatedAt": "2023-01-11T04:48:29.674Z",
  "networkType": "ethereum",
  "devdoc": {
    "kind": "dev",
    "methods": {
      "allowance(address,address)": {
        "details": "See {IERC20-allowance}."
      },
      "approve(address,uint256)": {
        "details": "See {IERC20-approve}. NOTE: If `amount` is the maximum `uint256`, the allowance is not updated on `transferFrom`. This is semantically equivalent to an infinite approval. Requirements: - `spender` cannot be the zero address."
      },
      "balanceOf(address)": {
        "details": "See {IERC20-balanceOf}."
      },
      "burn(uint256)": {
        "details": "Destroys `amount` tokens from the caller. See {ERC20-_burn}."
      },
      "burnFrom(address,uint256)": {
        "details": "Destroys `amount` tokens from `account`, deducting from the caller's allowance. See {ERC20-_burn} and {ERC20-allowance}. Requirements: - the caller must have allowance for ``accounts``'s tokens of at least `amount`."
      },
      "decimals()": {
        "details": "Returns the number of decimals used to get its user representation. For example, if `decimals` equals `2`, a balance of `505` tokens should be displayed to a user as `5.05` (`505 / 10 ** 2`). Tokens usually opt for a value of 18, imitating the relationship between Ether and Wei. This is the value {ERC20} uses, unless this function is overridden; NOTE: This information is only used for _display_ purposes: it in no way affects any of the arithmetic of the contract, including {IERC20-balanceOf} and {IERC20-transfer}."
      },
      "decreaseAllowance(address,uint256)": {
        "details": "Atomically decreases the allowance granted to `spender` by the caller. This is an alternative to {approve} that can be used as a mitigation for problems described in {IERC20-approve}. Emits an {Approval} event indicating the updated allowance. Requirements: - `spender` cannot be the zero address. - `spender` must have allowance for the caller of at least `subtractedValue`."
      },
      "increaseAllowance(address,uint256)": {
        "details": "Atomically increases the allowance granted to `spender` by the caller. This is an alternative to {approve} that can be used as a mitigation for problems described in {IERC20-approve}. Emits an {Approval} event indicating the updated allowance. Requirements: - `spender` cannot be the zero address."
      },
      "name()": {
        "details": "Returns the name of the token."
      },
      "owner()": {
        "details": "Returns the address of the current owner."
      },
      "renounceOwnership()": {
        "details": "Leaves the contract without owner. It will not be possible to call `onlyOwner` functions anymore. Can only be called by the current owner. NOTE: Renouncing ownership will leave the contract without an owner, thereby removing any functionality that is only available to the owner."
      },
      "symbol()": {
        "details": "Returns the symbol of the token, usually a shorter version of the name."
      },
      "totalSupply()": {
        "details": "See {IERC20-totalSupply}."
      },
      "transfer(address,uint256)": {
        "details": "See {IERC20-transfer}. Requirements: - `to` cannot be the zero address. - the caller must have a balance of at least `amount`."
      },
      "transferFrom(address,address,uint256)": {
        "details": "See {IERC20-transferFrom}. Emits an {Approval} event indicating the updated allowance. This is not required by the EIP. See the note at the beginning of {ERC20}. NOTE: Does not update the allowance if the current allowance is the maximum `uint256`. Requirements: - `from` and `to` cannot be the zero address. - `from` must have a balance of at least `amount`. - the caller must have allowance for ``from``'s tokens of at least `amount`."
      },
      "transferOwnership(address)": {
        "details": "Transfers ownership of the contract to a new account (`newOwner`). Can only be called by the current owner."
      }
    },
    "version": 1
  },
  "userdoc": {
    "kind": "user",
    "methods": {},
    "version": 1
  }
}