{
  "contractName": "GarbiFarmUSDTUSDC",
  "abi": [
    {
      "inputs": [
        {
          "internalType": "contract IGarbiMining",
          "name": "_miningMachine",
          "type": "address"
        },
        {
          "internalType": "contract IERC20",
          "name": "_want",
          "type": "address"
        },
        {
          "internalType": "uint256",
          "name": "_pidOfMining",
          "type": "uint256"
        }
      ],
      "stateMutability": "nonpayable",
      "type": "constructor"
    },
    {
      "anonymous": false,
      "inputs": [
        {
          "indexed": true,
          "internalType": "address",
          "name": "previousOwner",
          "type": "address"
        },
        {
          "indexed": true,
          "internalType": "address",
          "name": "newOwner",
          "type": "address"
        }
      ],
      "name": "OwnershipTransferred",
      "type": "event"
    },
    {
      "anonymous": false,
      "inputs": [
        {
          "indexed": false,
          "internalType": "string",
          "name": "_functionName",
          "type": "string"
        }
      ],
      "name": "onCancelTransactions",
      "type": "event"
    },
    {
      "anonymous": false,
      "inputs": [
        {
          "indexed": false,
          "internalType": "address",
          "name": "_user",
          "type": "address"
        },
        {
          "indexed": false,
          "internalType": "uint256",
          "name": "_amount",
          "type": "uint256"
        }
      ],
      "name": "onDeposit",
      "type": "event"
    },
    {
      "anonymous": false,
      "inputs": [
        {
          "indexed": false,
          "internalType": "address",
          "name": "_user",
          "type": "address"
        },
        {
          "indexed": false,
          "internalType": "uint256",
          "name": "_amount",
          "type": "uint256"
        }
      ],
      "name": "onEmergencyWithdraw",
      "type": "event"
    },
    {
      "anonymous": false,
      "inputs": [
        {
          "indexed": false,
          "internalType": "string",
          "name": "_functionName",
          "type": "string"
        },
        {
          "indexed": false,
          "internalType": "string",
          "name": "_fieldName",
          "type": "string"
        },
        {
          "indexed": false,
          "internalType": "address",
          "name": "_value",
          "type": "address"
        }
      ],
      "name": "onQueuedTransactionsChangeAddress",
      "type": "event"
    },
    {
      "anonymous": false,
      "inputs": [
        {
          "indexed": false,
          "internalType": "string",
          "name": "_functionName",
          "type": "string"
        },
        {
          "indexed": false,
          "internalType": "string",
          "name": "_fieldName",
          "type": "string"
        },
        {
          "indexed": false,
          "internalType": "uint256",
          "name": "_value",
          "type": "uint256"
        }
      ],
      "name": "onQueuedTransactionsChangeUint",
      "type": "event"
    },
    {
      "anonymous": false,
      "inputs": [
        {
          "indexed": false,
          "internalType": "address",
          "name": "_user",
          "type": "address"
        },
        {
          "indexed": false,
          "internalType": "uint256",
          "name": "_amount",
          "type": "uint256"
        }
      ],
      "name": "onWithdraw",
      "type": "event"
    },
    {
      "inputs": [],
      "name": "GRACE_PERIOD",
      "outputs": [
        {
          "internalType": "uint256",
          "name": "",
          "type": "uint256"
        }
      ],
      "stateMutability": "view",
      "type": "function"
    },
    {
      "inputs": [],
      "name": "MAXIMUM_DELAY",
      "outputs": [
        {
          "internalType": "uint256",
          "name": "",
          "type": "uint256"
        }
      ],
      "stateMutability": "view",
      "type": "function"
    },
    {
      "inputs": [],
      "name": "MINIMUM_DELAY",
      "outputs": [
        {
          "internalType": "uint256",
          "name": "",
          "type": "uint256"
        }
      ],
      "stateMutability": "view",
      "type": "function"
    },
    {
      "inputs": [],
      "name": "delay",
      "outputs": [
        {
          "internalType": "uint256",
          "name": "",
          "type": "uint256"
        }
      ],
      "stateMutability": "view",
      "type": "function"
    },
    {
      "inputs": [],
      "name": "miningMachine",
      "outputs": [
        {
          "internalType": "contract IGarbiMining",
          "name": "",
          "type": "address"
        }
      ],
      "stateMutability": "view",
      "type": "function"
    },
    {
      "inputs": [],
      "name": "owner",
      "outputs": [
        {
          "internalType": "address",
          "name": "",
          "type": "address"
        }
      ],
      "stateMutability": "view",
      "type": "function"
    },
    {
      "inputs": [],
      "name": "pidOfMining",
      "outputs": [
        {
          "internalType": "uint256",
          "name": "",
          "type": "uint256"
        }
      ],
      "stateMutability": "view",
      "type": "function"
    },
    {
      "inputs": [],
      "name": "renounceOwnership",
      "outputs": [],
      "stateMutability": "nonpayable",
      "type": "function"
    },
    {
      "inputs": [
        {
          "internalType": "address",
          "name": "",
          "type": "address"
        }
      ],
      "name": "shareOf",
      "outputs": [
        {
          "internalType": "uint256",
          "name": "",
          "type": "uint256"
        }
      ],
      "stateMutability": "view",
      "type": "function"
    },
    {
      "inputs": [
        {
          "internalType": "bytes32",
          "name": "",
          "type": "bytes32"
        }
      ],
      "name": "timeLockOf",
      "outputs": [
        {
          "internalType": "bool",
          "name": "queuedTransactions",
          "type": "bool"
        },
        {
          "internalType": "uint256",
          "name": "timeOfExecute",
          "type": "uint256"
        }
      ],
      "stateMutability": "view",
      "type": "function"
    },
    {
      "inputs": [],
      "name": "totalShare",
      "outputs": [
        {
          "internalType": "uint256",
          "name": "",
          "type": "uint256"
        }
      ],
      "stateMutability": "view",
      "type": "function"
    },
    {
      "inputs": [
        {
          "internalType": "address",
          "name": "newOwner",
          "type": "address"
        }
      ],
      "name": "transferOwnership",
      "outputs": [],
      "stateMutability": "nonpayable",
      "type": "function"
    },
    {
      "inputs": [],
      "name": "version",
      "outputs": [
        {
          "internalType": "uint256",
          "name": "",
          "type": "uint256"
        }
      ],
      "stateMutability": "view",
      "type": "function"
    },
    {
      "inputs": [],
      "name": "want",
      "outputs": [
        {
          "internalType": "contract IERC20",
          "name": "",
          "type": "address"
        }
      ],
      "stateMutability": "view",
      "type": "function"
    },
    {
      "inputs": [
        {
          "internalType": "uint256",
          "name": "delay_",
          "type": "uint256"
        }
      ],
      "name": "setDelay",
      "outputs": [],
      "stateMutability": "nonpayable",
      "type": "function"
    },
    {
      "inputs": [
        {
          "internalType": "string",
          "name": "_functionName",
          "type": "string"
        }
      ],
      "name": "cancelTransactions",
      "outputs": [],
      "stateMutability": "nonpayable",
      "type": "function"
    },
    {
      "inputs": [
        {
          "internalType": "string",
          "name": "_functionName",
          "type": "string"
        },
        {
          "internalType": "string",
          "name": "_fieldName",
          "type": "string"
        },
        {
          "internalType": "address",
          "name": "_newAddr",
          "type": "address"
        }
      ],
      "name": "queuedTransactionsChangeAddress",
      "outputs": [],
      "stateMutability": "nonpayable",
      "type": "function"
    },
    {
      "inputs": [
        {
          "internalType": "string",
          "name": "_functionName",
          "type": "string"
        },
        {
          "internalType": "string",
          "name": "_fieldName",
          "type": "string"
        },
        {
          "internalType": "uint256",
          "name": "_value",
          "type": "uint256"
        }
      ],
      "name": "queuedTransactionsChangeUint",
      "outputs": [],
      "stateMutability": "nonpayable",
      "type": "function"
    },
    {
      "inputs": [],
      "name": "setMiningMachine",
      "outputs": [],
      "stateMutability": "nonpayable",
      "type": "function"
    },
    {
      "inputs": [],
      "name": "changeTokenAddress",
      "outputs": [],
      "stateMutability": "nonpayable",
      "type": "function"
    },
    {
      "inputs": [],
      "name": "setPidOfMining",
      "outputs": [],
      "stateMutability": "nonpayable",
      "type": "function"
    },
    {
      "inputs": [
        {
          "internalType": "uint256",
          "name": "_wantAmt",
          "type": "uint256"
        }
      ],
      "name": "deposit",
      "outputs": [],
      "stateMutability": "nonpayable",
      "type": "function"
    },
    {
      "inputs": [
        {
          "internalType": "uint256",
          "name": "_wantAmt",
          "type": "uint256"
        }
      ],
      "name": "withdraw",
      "outputs": [],
      "stateMutability": "nonpayable",
      "type": "function"
    },
    {
      "inputs": [],
      "name": "emergencyWithdraw",
      "outputs": [],
      "stateMutability": "nonpayable",
      "type": "function"
    },
    {
      "inputs": [
        {
          "internalType": "address",
          "name": "_user",
          "type": "address"
        }
      ],
      "name": "harvest",
      "outputs": [
        {
          "internalType": "uint256",
          "name": "_pendingVeGRB",
          "type": "uint256"
        }
      ],
      "stateMutability": "nonpayable",
      "type": "function"
    },
    {
      "inputs": [
        {
          "internalType": "address",
          "name": "_user",
          "type": "address"
        }
      ],
      "name": "getData",
      "outputs": [
        {
          "internalType": "uint256",
          "name": "miningSpeed_",
          "type": "uint256"
        },
        {
          "internalType": "uint256",
          "name": "userWantBal_",
          "type": "uint256"
        },
        {
          "internalType": "uint256",
          "name": "totalMintPerDay_",
          "type": "uint256"
        },
        {
          "internalType": "uint256",
          "name": "userETHBal_",
          "type": "uint256"
        },
        {
          "internalType": "uint256",
          "name": "userGRBPending_",
          "type": "uint256"
        },
        {
          "internalType": "uint256",
          "name": "userWantShare_",
          "type": "uint256"
        },
        {
          "internalType": "uint256",
          "name": "tvl_",
          "type": "uint256"
        }
      ],
      "stateMutability": "view",
      "type": "function"
    }
  ],
  "bytecode": "0x6080604052606460025560006006553480156200001b57600080fd5b5060405162001c5638038062001c568339810160408190526200003e91620000f1565b60016000556200004e3362000086565b600380546001600160a01b039384166001600160a01b0319918216179091556004805494909316931692909217905560055562000139565b600180546001600160a01b038381166001600160a01b0319831681179093556040519116919082907f8be0079c531659141344cd1fd0a4f28419497f9722a3daafe3b4186f6b6457e090600090a35050565b6001600160a01b0381168114620000ee57600080fd5b50565b6000806000606084860312156200010757600080fd5b83516200011481620000d8565b60208501519093506200012781620000d8565b80925050604084015190509250925092565b611b0d80620001496000396000f3fe608060405234801561001057600080fd5b506004361061018e5760003560e01c80638cac8f03116100de578063bce645db11610097578063db2e21bc11610071578063db2e21bc14610364578063e177246e1461036c578063f2fde38b1461037f578063f47a396f1461039257600080fd5b8063bce645db14610349578063c1a287e2146102e3578063d1b8a3b51461035c57600080fd5b80638cac8f03146102ed5780638da5cb5b146103005780638ecc676f146103115780639312dc5f14610319578063b1b43ae51461032c578063b6b55f251461033657600080fd5b806332009eda1161014b5780636a42b8f8116101255780636a42b8f81461028e5780636edc28fd14610297578063715018a6146102db5780637d645fab146102e357600080fd5b806332009eda1461023557806338266b221461023d57806354fd4d501461028557600080fd5b8063026c4207146101935780630e5c011e146101af57806314ca81ed146101c25780631f1fcd51146101d757806321e5e2c4146102025780632e1a7d4d14610222575b600080fd5b61019c60065481565b6040519081526020015b60405180910390f35b61019c6101bd36600461172b565b61039b565b6101d56101d03660046117e9565b61041b565b005b6003546101ea906001600160a01b031681565b6040516001600160a01b0390911681526020016101a6565b61019c61021036600461172b565b60076020526000908152604090205481565b6101d561023036600461185d565b61051b565b6101d561079e565b61025061024b36600461172b565b610913565b604080519788526020880196909652948601939093526060850191909152608084015260a083015260c082015260e0016101a6565b61019c60025481565b61019c60095481565b6102c46102a536600461185d565b6008602052600090815260409020805460019091015460ff9091169082565b6040805192151583526020830191909152016101a6565b6101d5610b20565b61019c62278d0081565b6101d56102fb366004611876565b610b34565b6001546001600160a01b03166101ea565b6101d5610bbf565b6101d56103273660046118b3565b610d66565b61019c6202a30081565b6101d561034436600461185d565b610e3b565b6004546101ea906001600160a01b031681565b6101d5611065565b6101d56111d6565b6101d561037a36600461185d565b61136b565b6101d561038d36600461172b565b611461565b61019c60055481565b60048054600554604051630c7e663b60e11b8152928301526001600160a01b0383811660248401526000929116906318fccc76906044016020604051808303816000875af11580156103f1573d6000803e3d6000fd5b505050506040513d601f19601f820116820180604052508101906104159190611920565b92915050565b6104236114d7565b6000600860008560405160200161043a919061197f565b60405160208183030381529060405280519060200120815260200190815260200160002090508181600201600085604051602001610478919061197f565b60408051808303601f1901815291815281516020928301208352908201929092520160002080546001600160a01b0319166001600160a01b0392909216919091179055805460ff191660011781556009546104d4904290611531565b60018201556040517f1bd33efd68d2824f5f0f2519ce7c9ca0ddff6234523468e89077a0dca7b739709061050d90869086908690611992565b60405180910390a150505050565b610523611544565b6000811161054c5760405162461bcd60e51b8152600401610543906119d0565b60405180910390fd5b6105553361039b565b5033600090815260076020526040902054818110156105b65760405162461bcd60e51b815260206004820152601760248201527f494e56414c49445f414d4f554e545f57495448445241570000000000000000006044820152606401610543565b336000908152600760205260409020546105d0908361159d565b336000908152600760205260409020556006546105ed908361159d565b6006556003546040516370a0823160e01b81523060048201526000916001600160a01b0316906370a0823190602401602060405180830381865afa158015610639573d6000803e3d6000fd5b505050506040513d601f19601f8201168201806040525081019061065d9190611920565b90508281101561066b578092505b60035460405163a9059cbb60e01b8152336004820152602481018590526001600160a01b039091169063a9059cbb906044016020604051808303816000875af11580156106bc573d6000803e3d6000fd5b505050506040513d601f19601f820116820180604052508101906106e091906119f7565b5060048054600554604051638fb4e1cd60e01b8152928301523360248301526001600160a01b031690638fb4e1cd906044016020604051808303816000875af1158015610731573d6000803e3d6000fd5b505050506040513d601f19601f8201168201806040525081019061075591906119f7565b5060408051338152602081018590527fccad973dcd043c7d680389db4378bd6b9775db7124092e9e0422c9e46d7985dc910160405180910390a1505061079b6001600055565b50565b6107a66114d7565b6000600860006040516020016107e2906020808252601290820152716368616e6765546f6b656e4164647265737360701b604082015260600190565b6040516020818303038152906040528051906020012081526020019081526020016000209050610811816115a9565b60006001600160a01b031681600201600060405160200161083190611a19565b60408051601f19818403018152918152815160209283012083529082019290925201600020546001600160a01b0316146109095780600201600060405160200161087a90611a19565b60408051601f198184030181529181528151602092830120835282820193909352908201600090812054600380546001600160a01b0319166001600160a01b0390921691909117905591516002840192916108d59101611a19565b60408051601f1981840301815291815281516020928301208352908201929092520160002080546001600160a01b03191690555b805460ff19169055565b6003546040516370a0823160e01b81526001600160a01b03838116600483015260009283928392839283928392839216906370a0823190602401602060405180830381865afa15801561096a573d6000803e3d6000fd5b505050506040513d601f19601f8201168201806040525081019061098e9190611920565b60048054600554604051635e86cd9560e01b8152928301529197506001600160a01b0390911690635e86cd9590602401602060405180830381865afa1580156109db573d6000803e3d6000fd5b505050506040513d601f19601f820116820180604052508101906109ff9190611920565b600480546005546040516324aa7cc560e11b8152928301529196506001600160a01b0390911690634954f98a90602401602060405180830381865afa158015610a4c573d6000803e3d6000fd5b505050506040513d601f19601f82011682018060405250810190610a709190611920565b60048054600554604051631069f3b560e01b8152928301526001600160a01b038b811660248401819052939a50923196509190911690631069f3b590604401606060405180830381865afa158015610acc573d6000803e3d6000fd5b505050506040513d601f19601f82011682018060405250810190610af09190611a37565b50506001600160a01b03909816600090815260076020526040902054600654979996989597949690949350915050565b610b286114d7565b610b3260006116bd565b565b610b3c6114d7565b60006008600083604051602001610b53919061197f565b60408051601f1981840301815291815281516020928301208352908201929092528101600020805460ff1916815590519091507fce369f91d52b663114643c430217b52530c2cc7318cac7a3e9d46241cbc354a890610bb390849061197f565b60405180910390a15050565b610bc76114d7565b600060086000604051602001610c019060208082526010908201526f7365744d696e696e674d616368696e6560801b604082015260600190565b6040516020818303038152906040528051906020012081526020019081526020016000209050610c30816115a9565b60006001600160a01b0316816002016000604051602001610c72906020808252600d908201526c6d696e696e674d616368696e6560981b604082015260600190565b60408051601f19818403018152918152815160209283012083529082019290925201600020546001600160a01b031603610ce05760405162461bcd60e51b815260206004820152600f60248201526e494e56414c49445f4144445245535360881b6044820152606401610543565b806002016000604051602001610d17906020808252600d908201526c6d696e696e674d616368696e6560981b604082015260600190565b60408051601f1981840301815291815281516020928301208352908201929092520160002054600480546001600160a01b0319166001600160a01b03909216919091179055805460ff19169055565b610d6e6114d7565b60006008600085604051602001610d85919061197f565b60405160208183030381529060405280519060200120815260200190815260200160002090508181600301600085604051602001610dc3919061197f565b60408051601f1981840301815291815281516020928301208352908201929092520160002055805460ff19166001178155600954610e02904290611531565b60018201556040517f860699cc7b0f3cb3d034fd31cdfe0816887a9f55d10993224d77c359c3d555519061050d90869086908690611a65565b610e43611544565b60008111610e635760405162461bcd60e51b8152600401610543906119d0565b6003546040516370a0823160e01b815233600482015282916001600160a01b0316906370a0823190602401602060405180830381865afa158015610eab573d6000803e3d6000fd5b505050506040513d601f19601f82011682018060405250810190610ecf9190611920565b1015610eed5760405162461bcd60e51b8152600401610543906119d0565b610ef63361039b565b506003546040516323b872dd60e01b8152336004820152306024820152604481018390526001600160a01b03909116906323b872dd906064016020604051808303816000875af1158015610f4e573d6000803e3d6000fd5b505050506040513d601f19601f82011682018060405250810190610f7291906119f7565b5033600090815260076020526040902054610f8d9082611531565b33600090815260076020526040902055600654610faa9082611531565b60065560048054600554604051638fb4e1cd60e01b8152928301523360248301526001600160a01b031690638fb4e1cd906044016020604051808303816000875af1158015610ffd573d6000803e3d6000fd5b505050506040513d601f19601f8201168201806040525081019061102191906119f7565b5060408051338152602081018390527f2bf9518c65eff7d1f3ee4106bf0dc41267ccde0924dbfa4ab476ed5c0f45da98910160405180910390a161079b6001600055565b61106d6114d7565b6000600860006040516020016110a5906020808252600e908201526d7365745069644f664d696e696e6760901b604082015260600190565b60405160208183030381529060405280519060200120815260200190815260200160002090506110d4816115a9565b600081600301600060405160200161110b906020808252600b908201526a7069644f664d696e696e6760a81b604082015260600190565b604051602081830303815290604052805190602001208152602001908152602001600020541161116e5760405162461bcd60e51b815260206004820152600e60248201526d1253959053125117d05353d5539560921b6044820152606401610543565b8060030160006040516020016111a3906020808252600b908201526a7069644f664d696e696e6760a81b604082015260600190565b60408051601f1981840301815291815281516020928301208352908201929092520160002054600555805460ff19169055565b33600090815260076020526040902054806112245760405162461bcd60e51b815260206004820152600e60248201526d1253959053125117d05353d5539560921b6044820152606401610543565b33600090815260076020526040812055600654611241908261159d565b6006556003546040516370a0823160e01b81523060048201526000916001600160a01b0316906370a0823190602401602060405180830381865afa15801561128d573d6000803e3d6000fd5b505050506040513d601f19601f820116820180604052508101906112b19190611920565b9050818110156112bf578091505b60035460405163a9059cbb60e01b8152336004820152602481018490526001600160a01b039091169063a9059cbb906044016020604051808303816000875af1158015611310573d6000803e3d6000fd5b505050506040513d601f19601f8201168201806040525081019061133491906119f7565b5060408051338152602081018490527fc33863412a9dc216cbf16bc22dd0bd897cf3b59fe264e4e89db58f9b9c23d01b9101610bb3565b6113736114d7565b6202a3008110156113e35760405162461bcd60e51b815260206004820152603460248201527f54696d656c6f636b3a3a73657444656c61793a2044656c6179206d75737420656044820152733c31b2b2b21036b4b734b6bab6903232b630bc9760611b6064820152608401610543565b62278d0081111561145c5760405162461bcd60e51b815260206004820152603860248201527f54696d656c6f636b3a3a73657444656c61793a2044656c6179206d757374206e60448201527f6f7420657863656564206d6178696d756d2064656c61792e00000000000000006064820152608401610543565b600955565b6114696114d7565b6001600160a01b0381166114ce5760405162461bcd60e51b815260206004820152602660248201527f4f776e61626c653a206e6577206f776e657220697320746865207a65726f206160448201526564647265737360d01b6064820152608401610543565b61079b816116bd565b6001546001600160a01b03163314610b325760405162461bcd60e51b815260206004820181905260248201527f4f776e61626c653a2063616c6c6572206973206e6f7420746865206f776e65726044820152606401610543565b600061153d8284611ab1565b9392505050565b6002600054036115965760405162461bcd60e51b815260206004820152601f60248201527f5265656e7472616e637947756172643a207265656e7472616e742063616c6c006044820152606401610543565b6002600055565b600061153d8284611ac4565b805460ff1615156001146115ff5760405162461bcd60e51b815260206004820152601f60248201527f5472616e73616374696f6e206861736e2774206265656e207175657565642e006044820152606401610543565b42816001015411156116635760405162461bcd60e51b815260206004820152602760248201527f5472616e73616374696f6e206861736e2774207375727061737365642074696d60448201526632903637b1b59760c91b6064820152608401610543565b600181015442906116779062278d00611531565b101561079b5760405162461bcd60e51b81526020600482015260156024820152742a3930b739b0b1ba34b7b71034b99039ba30b6329760591b6044820152606401610543565b600180546001600160a01b038381166001600160a01b0319831681179093556040519116919082907f8be0079c531659141344cd1fd0a4f28419497f9722a3daafe3b4186f6b6457e090600090a35050565b80356001600160a01b038116811461172657600080fd5b919050565b60006020828403121561173d57600080fd5b61153d8261170f565b634e487b7160e01b600052604160045260246000fd5b600082601f83011261176d57600080fd5b813567ffffffffffffffff8082111561178857611788611746565b604051601f8301601f19908116603f011681019082821181831017156117b0576117b0611746565b816040528381528660208588010111156117c957600080fd5b836020870160208301376000602085830101528094505050505092915050565b6000806000606084860312156117fe57600080fd5b833567ffffffffffffffff8082111561181657600080fd5b6118228783880161175c565b9450602086013591508082111561183857600080fd5b506118458682870161175c565b9250506118546040850161170f565b90509250925092565b60006020828403121561186f57600080fd5b5035919050565b60006020828403121561188857600080fd5b813567ffffffffffffffff81111561189f57600080fd5b6118ab8482850161175c565b949350505050565b6000806000606084860312156118c857600080fd5b833567ffffffffffffffff808211156118e057600080fd5b6118ec8783880161175c565b9450602086013591508082111561190257600080fd5b5061190f8682870161175c565b925050604084013590509250925092565b60006020828403121561193257600080fd5b5051919050565b6000815180845260005b8181101561195f57602081850181015186830182015201611943565b506000602082860101526020601f19601f83011685010191505092915050565b60208152600061153d6020830184611939565b6060815260006119a56060830186611939565b82810360208401526119b78186611939565b91505060018060a01b0383166040830152949350505050565b6020808252600d908201526c1253959053125117d253941555609a1b604082015260600190565b600060208284031215611a0957600080fd5b8151801515811461153d57600080fd5b6020808252600490820152631dd85b9d60e21b604082015260600190565b600080600060608486031215611a4c57600080fd5b8351925060208401519150604084015190509250925092565b606081526000611a786060830186611939565b8281036020840152611a8a8186611939565b915050826040830152949350505050565b634e487b7160e01b600052601160045260246000fd5b8082018082111561041557610415611a9b565b8181038181111561041557610415611a9b56fea2646970667358221220eab75f94323a3843ea31654582ade888e66421c200651e804bf543d198198a2d64736f6c63430008110033",
  "immutableReferences": {},
  "source": "// SPDX-License-Identifier: MIT\npragma solidity >=0.6.12;\n\nimport \"@openzeppelin/contracts/utils/math/SafeMath.sol\";\nimport \"@openzeppelin/contracts/access/Ownable.sol\";\nimport \"@openzeppelin/contracts/token/ERC20/IERC20.sol\";\nimport \"@openzeppelin/contracts/security/ReentrancyGuard.sol\";\n\nimport './interfaces/IGarbiMining.sol';\n\ncontract GarbiFarmUSDTUSDC is ReentrancyGuard, Ownable {\n\n    using SafeMath for uint256;\n    uint256 public version = 100;\n    \n    IERC20 public want; // USDTUSDC LP\n\n    IGarbiMining public miningMachine;\n\n    uint256 public pidOfMining;\n    uint256 public totalShare = 0;\n    mapping(address => uint256) public shareOf;\n\n    mapping(bytes32 => TimeLock) public timeLockOf;\n\n    uint public constant GRACE_PERIOD = 30 days;\n    uint public constant MINIMUM_DELAY = 2 days;\n    uint public constant MAXIMUM_DELAY = 30 days;\n    uint public delay;\n\n    struct TimeLock {\n        bool queuedTransactions;\n        uint256 timeOfExecute;\n        mapping(bytes32 => address) addressOf;\n        mapping(bytes32 => uint256) uintOf;\n    }\n\n    event onDeposit(address _user, uint256 _amount);\n    event onWithdraw(address _user, uint256 _amount);\n    event onEmergencyWithdraw(address _user, uint256 _amount);\n\n    event onQueuedTransactionsChangeAddress(string _functionName, string _fieldName, address _value);\n    event onQueuedTransactionsChangeUint(string _functionName, string _fieldName, uint256 _value);\n    event onCancelTransactions(string _functionName);\n\n    constructor(\n        IGarbiMining _miningMachine,\n        IERC20 _want,\n        uint256 _pidOfMining\n        ) {\n        want = _want;\n        miningMachine = _miningMachine;\n        pidOfMining = _pidOfMining;\n    }\n\n    function setDelay(uint delay_) public onlyOwner {\n        require(delay_ >= MINIMUM_DELAY, \"Timelock::setDelay: Delay must exceed minimum delay.\");\n        require(delay_ <= MAXIMUM_DELAY, \"Timelock::setDelay: Delay must not exceed maximum delay.\");\n\n        delay = delay_;\n    }\n\n    function cancelTransactions(string memory _functionName) public onlyOwner {\n\n        TimeLock storage _timelock = timeLockOf[keccak256(abi.encode(_functionName))];\n        _timelock.queuedTransactions = false;\n\n        emit onCancelTransactions(_functionName);\n    }\n\n    function queuedTransactionsChangeAddress(string memory _functionName, string memory _fieldName, address _newAddr) public onlyOwner \n    {\n        TimeLock storage _timelock = timeLockOf[keccak256(abi.encode(_functionName))];\n\n        _timelock.addressOf[keccak256(abi.encode(_fieldName))] = _newAddr;\n        _timelock.queuedTransactions = true;\n        _timelock.timeOfExecute = block.timestamp.add(delay);\n\n        emit onQueuedTransactionsChangeAddress(_functionName, _fieldName, _newAddr);\n    }\n\n    function queuedTransactionsChangeUint(string memory _functionName, string memory _fieldName, uint256 _value) public onlyOwner \n    {\n        TimeLock storage _timelock = timeLockOf[keccak256(abi.encode(_functionName))];\n\n        _timelock.uintOf[keccak256(abi.encode(_fieldName))] = _value;\n        _timelock.queuedTransactions = true;\n        _timelock.timeOfExecute = block.timestamp.add(delay);\n\n        emit onQueuedTransactionsChangeUint(_functionName, _fieldName, _value);\n    }\n\n    function setMiningMachine() public onlyOwner \n    {\n        TimeLock storage _timelock = timeLockOf[keccak256(abi.encode('setMiningMachine'))];\n        _validateTimelock(_timelock);\n        require(_timelock.addressOf[keccak256(abi.encode('miningMachine'))] != address(0), \"INVALID_ADDRESS\");\n\n        miningMachine = IGarbiMining(_timelock.addressOf[keccak256(abi.encode('miningMachine'))]);\n        _timelock.queuedTransactions = false;\n    }\n\n    function changeTokenAddress() public onlyOwner\n    {\n        TimeLock storage _timelock = timeLockOf[keccak256(abi.encode('changeTokenAddress'))];\n\n        _validateTimelock(_timelock);\n    \n        if (_timelock.addressOf[keccak256(abi.encode('want'))] != address(0)) {\n            want = IERC20(_timelock.addressOf[keccak256(abi.encode('want'))]);\n            delete _timelock.addressOf[keccak256(abi.encode('want'))];\n        }\n        _timelock.queuedTransactions = false;\n    }\n\n    function setPidOfMining() public onlyOwner \n    {\n        TimeLock storage _timelock = timeLockOf[keccak256(abi.encode('setPidOfMining'))];\n        _validateTimelock(_timelock);\n        require(_timelock.uintOf[keccak256(abi.encode('pidOfMining'))] > 0, \"INVALID_AMOUNT\");\n\n        pidOfMining = _timelock.uintOf[keccak256(abi.encode('pidOfMining'))];\n        _timelock.queuedTransactions = false;\n    }\n\n    function _validateTimelock(TimeLock storage _timelock) private view\n    {\n        require(_timelock.queuedTransactions == true, \"Transaction hasn't been queued.\");\n        require(_timelock.timeOfExecute <= block.timestamp, \"Transaction hasn't surpassed time lock.\");\n        require(_timelock.timeOfExecute.add(GRACE_PERIOD) >= block.timestamp, \"Transaction is stale.\");\n    }\n\n    function deposit(uint256 _wantAmt) external nonReentrant \n    {\n        require(_wantAmt > 0, 'INVALID_INPUT');\n        require(want.balanceOf(msg.sender) >= _wantAmt, 'INVALID_INPUT');\n\n        harvest(msg.sender);\n    \twant.transferFrom(msg.sender, address(this), _wantAmt);\n        shareOf[msg.sender] = shareOf[msg.sender].add(_wantAmt);\n        totalShare = totalShare.add(_wantAmt);\n        miningMachine.updateUser(pidOfMining, msg.sender);\n        emit onDeposit(msg.sender, _wantAmt);\n\n    }\n    function withdraw(uint256 _wantAmt) external nonReentrant \n    {\n        require(_wantAmt > 0, 'INVALID_INPUT');   \n        harvest(msg.sender);\n\n        uint256 _share = shareOf[msg.sender];\n        require(_share >= _wantAmt, 'INVALID_AMOUNT_WITHDRAW');\n\n        shareOf[msg.sender] = shareOf[msg.sender].sub(_wantAmt);\n        totalShare = totalShare.sub(_wantAmt);\n        uint256 _wantBal = want.balanceOf(address(this)); \n        if (_wantBal < _wantAmt) {\n            _wantAmt = _wantBal;\n        }\n        want.transfer(msg.sender, _wantAmt);\n        \n        miningMachine.updateUser(pidOfMining, msg.sender);\n    \t// \n        emit onWithdraw(msg.sender, _wantAmt);\n    }\n    // Withdraw without caring about rewards. EMERGENCY ONLY.\n    function emergencyWithdraw() public \n    {\n        uint256 _share = shareOf[msg.sender];\n        require(_share > 0, 'INVALID_AMOUNT');\n\n        shareOf[msg.sender] = 0;\n        totalShare = totalShare.sub(_share);\n        uint256 _wantBal = want.balanceOf(address(this));\n        if (_wantBal < _share) {\n            _share = _wantBal;\n        }\n\n        want.transfer(msg.sender, _share);\n\n        emit onEmergencyWithdraw(msg.sender, _share);\n    }\n\n    function harvest(address _user) public returns(uint256 _pendingVeGRB) { \n        return miningMachine.harvest(pidOfMining, _user);\n    }\n\n    function getData(\n        address _user\n    ) \n    public \n    view\n    returns(\n        uint256 miningSpeed_,\n        uint256 userWantBal_, \n        uint256 totalMintPerDay_, \n        uint256 userETHBal_, \n        uint256 userGRBPending_, \n        uint256 userWantShare_,\n        uint256 tvl_\n    ) {\n        userWantBal_ = want.balanceOf(_user);\n        totalMintPerDay_ = miningMachine.getTotalMintPerDayOf(pidOfMining);\n\n        miningSpeed_ = miningMachine.getMiningSpeedOf(pidOfMining);\n        userETHBal_ = address(_user).balance;\n        (userGRBPending_, , ) = miningMachine.getUserInfo(pidOfMining, _user);\n        userWantShare_ = shareOf[_user];\n        tvl_ = totalShare;\n    }  \n}",
  "sourcePath": "/Applications/projects/garbiprotocol.github.io/garbi_contracts/contracts/GarbiFarmUSDTUSDC.sol",
  "compiler": {
    "name": "solc",
    "version": "0.8.17+commit.8df45f5f.Emscripten.clang"
  },
  "schemaVersion": "3.4.11",
  "updatedAt": "2023-01-17T03:51:04.699Z",
  "networkType": "ethereum",
  "devdoc": {
    "kind": "dev",
    "methods": {
      "owner()": {
        "details": "Returns the address of the current owner."
      },
      "renounceOwnership()": {
        "details": "Leaves the contract without owner. It will not be possible to call `onlyOwner` functions anymore. Can only be called by the current owner. NOTE: Renouncing ownership will leave the contract without an owner, thereby removing any functionality that is only available to the owner."
      },
      "transferOwnership(address)": {
        "details": "Transfers ownership of the contract to a new account (`newOwner`). Can only be called by the current owner."
      }
    },
    "version": 1
  },
  "userdoc": {
    "kind": "user",
    "methods": {},
    "version": 1
  }
}