{
  "contractName": "GarbiswapTradeUSDTUSDC",
  "abi": [
    {
      "inputs": [
        {
          "internalType": "contract IERC20",
          "name": "_base",
          "type": "address"
        },
        {
          "internalType": "contract IERC20",
          "name": "_token",
          "type": "address"
        },
        {
          "internalType": "contract IGarbiTimeLock",
          "name": "_garbiTimeLockContract",
          "type": "address"
        },
        {
          "internalType": "contract IGarbiswapFeeMachine",
          "name": "_feeMachineContract",
          "type": "address"
        },
        {
          "internalType": "contract IGarbiswapWhitelist",
          "name": "_whitelistContract",
          "type": "address"
        },
        {
          "internalType": "string",
          "name": "name",
          "type": "string"
        },
        {
          "internalType": "string",
          "name": "symbol",
          "type": "string"
        }
      ],
      "stateMutability": "nonpayable",
      "type": "constructor"
    },
    {
      "anonymous": false,
      "inputs": [
        {
          "indexed": true,
          "internalType": "address",
          "name": "owner",
          "type": "address"
        },
        {
          "indexed": true,
          "internalType": "address",
          "name": "spender",
          "type": "address"
        },
        {
          "indexed": false,
          "internalType": "uint256",
          "name": "value",
          "type": "uint256"
        }
      ],
      "name": "Approval",
      "type": "event"
    },
    {
      "anonymous": false,
      "inputs": [
        {
          "indexed": true,
          "internalType": "address",
          "name": "previousOwner",
          "type": "address"
        },
        {
          "indexed": true,
          "internalType": "address",
          "name": "newOwner",
          "type": "address"
        }
      ],
      "name": "OwnershipTransferred",
      "type": "event"
    },
    {
      "anonymous": false,
      "inputs": [
        {
          "indexed": true,
          "internalType": "address",
          "name": "from",
          "type": "address"
        },
        {
          "indexed": true,
          "internalType": "address",
          "name": "to",
          "type": "address"
        },
        {
          "indexed": false,
          "internalType": "uint256",
          "name": "value",
          "type": "uint256"
        }
      ],
      "name": "Transfer",
      "type": "event"
    },
    {
      "anonymous": false,
      "inputs": [
        {
          "indexed": false,
          "internalType": "address",
          "name": "sender",
          "type": "address"
        },
        {
          "indexed": false,
          "internalType": "uint256",
          "name": "mintLP",
          "type": "uint256"
        },
        {
          "indexed": false,
          "internalType": "uint256",
          "name": "baseInputAmount",
          "type": "uint256"
        },
        {
          "indexed": false,
          "internalType": "uint256",
          "name": "tokenInputAmount",
          "type": "uint256"
        },
        {
          "indexed": false,
          "internalType": "uint256",
          "name": "poolBaseBalance",
          "type": "uint256"
        },
        {
          "indexed": false,
          "internalType": "uint256",
          "name": "poolTokenBalance",
          "type": "uint256"
        }
      ],
      "name": "onAddLP",
      "type": "event"
    },
    {
      "anonymous": false,
      "inputs": [
        {
          "indexed": false,
          "internalType": "address",
          "name": "sender",
          "type": "address"
        },
        {
          "indexed": false,
          "internalType": "uint256",
          "name": "amountLP",
          "type": "uint256"
        },
        {
          "indexed": false,
          "internalType": "uint256",
          "name": "baseOutputAmout",
          "type": "uint256"
        },
        {
          "indexed": false,
          "internalType": "uint256",
          "name": "tokenOutputAmount",
          "type": "uint256"
        },
        {
          "indexed": false,
          "internalType": "uint256",
          "name": "poolBaseBalance",
          "type": "uint256"
        },
        {
          "indexed": false,
          "internalType": "uint256",
          "name": "poolTokenBalance",
          "type": "uint256"
        }
      ],
      "name": "onRemoveLP",
      "type": "event"
    },
    {
      "anonymous": false,
      "inputs": [
        {
          "indexed": false,
          "internalType": "address",
          "name": "sender",
          "type": "address"
        },
        {
          "indexed": false,
          "internalType": "uint256",
          "name": "minTokenOutput",
          "type": "uint256"
        },
        {
          "indexed": false,
          "internalType": "uint256",
          "name": "baseInputAmount",
          "type": "uint256"
        },
        {
          "indexed": false,
          "internalType": "uint256",
          "name": "tokenOutputAmount",
          "type": "uint256"
        },
        {
          "indexed": false,
          "internalType": "uint256",
          "name": "poolBaseBalance",
          "type": "uint256"
        },
        {
          "indexed": false,
          "internalType": "uint256",
          "name": "poolTokenBalance",
          "type": "uint256"
        }
      ],
      "name": "onSwapBaseToTokenWithBaseInput",
      "type": "event"
    },
    {
      "anonymous": false,
      "inputs": [
        {
          "indexed": false,
          "internalType": "address",
          "name": "sender",
          "type": "address"
        },
        {
          "indexed": false,
          "internalType": "uint256",
          "name": "maxBaseInput",
          "type": "uint256"
        },
        {
          "indexed": false,
          "internalType": "uint256",
          "name": "baseInputAmount",
          "type": "uint256"
        },
        {
          "indexed": false,
          "internalType": "uint256",
          "name": "tokenOutputAmount",
          "type": "uint256"
        },
        {
          "indexed": false,
          "internalType": "uint256",
          "name": "poolBaseBalance",
          "type": "uint256"
        },
        {
          "indexed": false,
          "internalType": "uint256",
          "name": "poolTokenBalance",
          "type": "uint256"
        }
      ],
      "name": "onSwapBaseToTokenWithTokenOutput",
      "type": "event"
    },
    {
      "anonymous": false,
      "inputs": [
        {
          "indexed": false,
          "internalType": "address",
          "name": "sender",
          "type": "address"
        },
        {
          "indexed": false,
          "internalType": "uint256",
          "name": "maxTokenInput",
          "type": "uint256"
        },
        {
          "indexed": false,
          "internalType": "uint256",
          "name": "tokenInputAmount",
          "type": "uint256"
        },
        {
          "indexed": false,
          "internalType": "uint256",
          "name": "baseOutputAmount",
          "type": "uint256"
        },
        {
          "indexed": false,
          "internalType": "uint256",
          "name": "poolBaseBalance",
          "type": "uint256"
        },
        {
          "indexed": false,
          "internalType": "uint256",
          "name": "poolTokenBalance",
          "type": "uint256"
        }
      ],
      "name": "onSwapTokenToBaseWithBaseOutput",
      "type": "event"
    },
    {
      "anonymous": false,
      "inputs": [
        {
          "indexed": false,
          "internalType": "address",
          "name": "sender",
          "type": "address"
        },
        {
          "indexed": false,
          "internalType": "uint256",
          "name": "minBaseOutput",
          "type": "uint256"
        },
        {
          "indexed": false,
          "internalType": "uint256",
          "name": "tokenInputAmount",
          "type": "uint256"
        },
        {
          "indexed": false,
          "internalType": "uint256",
          "name": "baseOutputAmount",
          "type": "uint256"
        },
        {
          "indexed": false,
          "internalType": "uint256",
          "name": "poolBaseBalance",
          "type": "uint256"
        },
        {
          "indexed": false,
          "internalType": "uint256",
          "name": "poolTokenBalance",
          "type": "uint256"
        }
      ],
      "name": "onSwapTokenToBaseWithTokenInput",
      "type": "event"
    },
    {
      "inputs": [],
      "name": "TRADE_FEE",
      "outputs": [
        {
          "internalType": "uint256",
          "name": "",
          "type": "uint256"
        }
      ],
      "stateMutability": "view",
      "type": "function"
    },
    {
      "inputs": [
        {
          "internalType": "address",
          "name": "owner",
          "type": "address"
        },
        {
          "internalType": "address",
          "name": "spender",
          "type": "address"
        }
      ],
      "name": "allowance",
      "outputs": [
        {
          "internalType": "uint256",
          "name": "",
          "type": "uint256"
        }
      ],
      "stateMutability": "view",
      "type": "function"
    },
    {
      "inputs": [
        {
          "internalType": "address",
          "name": "spender",
          "type": "address"
        },
        {
          "internalType": "uint256",
          "name": "amount",
          "type": "uint256"
        }
      ],
      "name": "approve",
      "outputs": [
        {
          "internalType": "bool",
          "name": "",
          "type": "bool"
        }
      ],
      "stateMutability": "nonpayable",
      "type": "function"
    },
    {
      "inputs": [
        {
          "internalType": "address",
          "name": "account",
          "type": "address"
        }
      ],
      "name": "balanceOf",
      "outputs": [
        {
          "internalType": "uint256",
          "name": "",
          "type": "uint256"
        }
      ],
      "stateMutability": "view",
      "type": "function"
    },
    {
      "inputs": [],
      "name": "base",
      "outputs": [
        {
          "internalType": "contract IERC20",
          "name": "",
          "type": "address"
        }
      ],
      "stateMutability": "view",
      "type": "function"
    },
    {
      "inputs": [
        {
          "internalType": "uint256",
          "name": "amount",
          "type": "uint256"
        }
      ],
      "name": "burn",
      "outputs": [],
      "stateMutability": "nonpayable",
      "type": "function"
    },
    {
      "inputs": [
        {
          "internalType": "address",
          "name": "account",
          "type": "address"
        },
        {
          "internalType": "uint256",
          "name": "amount",
          "type": "uint256"
        }
      ],
      "name": "burnFrom",
      "outputs": [],
      "stateMutability": "nonpayable",
      "type": "function"
    },
    {
      "inputs": [],
      "name": "decimals",
      "outputs": [
        {
          "internalType": "uint8",
          "name": "",
          "type": "uint8"
        }
      ],
      "stateMutability": "view",
      "type": "function"
    },
    {
      "inputs": [
        {
          "internalType": "address",
          "name": "spender",
          "type": "address"
        },
        {
          "internalType": "uint256",
          "name": "subtractedValue",
          "type": "uint256"
        }
      ],
      "name": "decreaseAllowance",
      "outputs": [
        {
          "internalType": "bool",
          "name": "",
          "type": "bool"
        }
      ],
      "stateMutability": "nonpayable",
      "type": "function"
    },
    {
      "inputs": [],
      "name": "feeMachineContract",
      "outputs": [
        {
          "internalType": "contract IGarbiswapFeeMachine",
          "name": "",
          "type": "address"
        }
      ],
      "stateMutability": "view",
      "type": "function"
    },
    {
      "inputs": [],
      "name": "garbiTimeLockContract",
      "outputs": [
        {
          "internalType": "contract IGarbiTimeLock",
          "name": "",
          "type": "address"
        }
      ],
      "stateMutability": "view",
      "type": "function"
    },
    {
      "inputs": [
        {
          "internalType": "address",
          "name": "spender",
          "type": "address"
        },
        {
          "internalType": "uint256",
          "name": "addedValue",
          "type": "uint256"
        }
      ],
      "name": "increaseAllowance",
      "outputs": [
        {
          "internalType": "bool",
          "name": "",
          "type": "bool"
        }
      ],
      "stateMutability": "nonpayable",
      "type": "function"
    },
    {
      "inputs": [],
      "name": "name",
      "outputs": [
        {
          "internalType": "string",
          "name": "",
          "type": "string"
        }
      ],
      "stateMutability": "view",
      "type": "function"
    },
    {
      "inputs": [],
      "name": "owner",
      "outputs": [
        {
          "internalType": "address",
          "name": "",
          "type": "address"
        }
      ],
      "stateMutability": "view",
      "type": "function"
    },
    {
      "inputs": [],
      "name": "renounceOwnership",
      "outputs": [],
      "stateMutability": "nonpayable",
      "type": "function"
    },
    {
      "inputs": [],
      "name": "symbol",
      "outputs": [
        {
          "internalType": "string",
          "name": "",
          "type": "string"
        }
      ],
      "stateMutability": "view",
      "type": "function"
    },
    {
      "inputs": [],
      "name": "token",
      "outputs": [
        {
          "internalType": "contract IERC20",
          "name": "",
          "type": "address"
        }
      ],
      "stateMutability": "view",
      "type": "function"
    },
    {
      "inputs": [],
      "name": "totalSupply",
      "outputs": [
        {
          "internalType": "uint256",
          "name": "",
          "type": "uint256"
        }
      ],
      "stateMutability": "view",
      "type": "function"
    },
    {
      "inputs": [
        {
          "internalType": "address",
          "name": "to",
          "type": "address"
        },
        {
          "internalType": "uint256",
          "name": "amount",
          "type": "uint256"
        }
      ],
      "name": "transfer",
      "outputs": [
        {
          "internalType": "bool",
          "name": "",
          "type": "bool"
        }
      ],
      "stateMutability": "nonpayable",
      "type": "function"
    },
    {
      "inputs": [
        {
          "internalType": "address",
          "name": "from",
          "type": "address"
        },
        {
          "internalType": "address",
          "name": "to",
          "type": "address"
        },
        {
          "internalType": "uint256",
          "name": "amount",
          "type": "uint256"
        }
      ],
      "name": "transferFrom",
      "outputs": [
        {
          "internalType": "bool",
          "name": "",
          "type": "bool"
        }
      ],
      "stateMutability": "nonpayable",
      "type": "function"
    },
    {
      "inputs": [
        {
          "internalType": "address",
          "name": "newOwner",
          "type": "address"
        }
      ],
      "name": "transferOwnership",
      "outputs": [],
      "stateMutability": "nonpayable",
      "type": "function"
    },
    {
      "inputs": [],
      "name": "whitelistContract",
      "outputs": [
        {
          "internalType": "contract IGarbiswapWhitelist",
          "name": "",
          "type": "address"
        }
      ],
      "stateMutability": "view",
      "type": "function"
    },
    {
      "inputs": [],
      "name": "setWhitelistContract",
      "outputs": [],
      "stateMutability": "nonpayable",
      "type": "function"
    },
    {
      "inputs": [],
      "name": "setFeeMachineContract",
      "outputs": [],
      "stateMutability": "nonpayable",
      "type": "function"
    },
    {
      "inputs": [],
      "name": "setTradeFee",
      "outputs": [],
      "stateMutability": "nonpayable",
      "type": "function"
    },
    {
      "inputs": [],
      "name": "getK",
      "outputs": [
        {
          "internalType": "uint256",
          "name": "",
          "type": "uint256"
        }
      ],
      "stateMutability": "view",
      "type": "function"
    },
    {
      "inputs": [
        {
          "internalType": "uint256",
          "name": "baseInputAmount",
          "type": "uint256"
        }
      ],
      "name": "getTokenOutput",
      "outputs": [
        {
          "internalType": "uint256",
          "name": "",
          "type": "uint256"
        }
      ],
      "stateMutability": "view",
      "type": "function"
    },
    {
      "inputs": [
        {
          "internalType": "uint256",
          "name": "tokenInputAmount",
          "type": "uint256"
        }
      ],
      "name": "getBaseOutput",
      "outputs": [
        {
          "internalType": "uint256",
          "name": "",
          "type": "uint256"
        }
      ],
      "stateMutability": "view",
      "type": "function"
    },
    {
      "inputs": [
        {
          "internalType": "uint256",
          "name": "baseInputAmount",
          "type": "uint256"
        }
      ],
      "name": "getDataFromBaseInputToAddLp",
      "outputs": [
        {
          "internalType": "uint256",
          "name": "",
          "type": "uint256"
        },
        {
          "internalType": "uint256",
          "name": "",
          "type": "uint256"
        }
      ],
      "stateMutability": "view",
      "type": "function"
    },
    {
      "inputs": [
        {
          "internalType": "uint256",
          "name": "tokenInputAmount",
          "type": "uint256"
        }
      ],
      "name": "getDataFromTokenInputToAddLp",
      "outputs": [
        {
          "internalType": "uint256",
          "name": "",
          "type": "uint256"
        },
        {
          "internalType": "uint256",
          "name": "",
          "type": "uint256"
        }
      ],
      "stateMutability": "view",
      "type": "function"
    },
    {
      "inputs": [
        {
          "internalType": "uint256",
          "name": "amountLP",
          "type": "uint256"
        }
      ],
      "name": "getDataToRemoveLP",
      "outputs": [
        {
          "internalType": "uint256",
          "name": "",
          "type": "uint256"
        },
        {
          "internalType": "uint256",
          "name": "",
          "type": "uint256"
        }
      ],
      "stateMutability": "view",
      "type": "function"
    },
    {
      "inputs": [
        {
          "internalType": "uint256",
          "name": "baseInputAmount",
          "type": "uint256"
        },
        {
          "internalType": "uint256",
          "name": "baseReserve",
          "type": "uint256"
        },
        {
          "internalType": "uint256",
          "name": "tokenReserve",
          "type": "uint256"
        }
      ],
      "name": "getTokenOutputAmountFromBaseInput",
      "outputs": [
        {
          "internalType": "uint256",
          "name": "",
          "type": "uint256"
        }
      ],
      "stateMutability": "pure",
      "type": "function"
    },
    {
      "inputs": [
        {
          "internalType": "uint256",
          "name": "tokenOutputAmount",
          "type": "uint256"
        },
        {
          "internalType": "uint256",
          "name": "baseReserve",
          "type": "uint256"
        },
        {
          "internalType": "uint256",
          "name": "tokenReserve",
          "type": "uint256"
        }
      ],
      "name": "getBaseInputAmountFromTokenOutput",
      "outputs": [
        {
          "internalType": "uint256",
          "name": "",
          "type": "uint256"
        }
      ],
      "stateMutability": "pure",
      "type": "function"
    },
    {
      "inputs": [
        {
          "internalType": "uint256",
          "name": "tokenInputAmount",
          "type": "uint256"
        },
        {
          "internalType": "uint256",
          "name": "baseReserve",
          "type": "uint256"
        },
        {
          "internalType": "uint256",
          "name": "tokenReserve",
          "type": "uint256"
        }
      ],
      "name": "getBaseOutputAmountFromTokenInput",
      "outputs": [
        {
          "internalType": "uint256",
          "name": "",
          "type": "uint256"
        }
      ],
      "stateMutability": "pure",
      "type": "function"
    },
    {
      "inputs": [
        {
          "internalType": "uint256",
          "name": "baseOutputAmount",
          "type": "uint256"
        },
        {
          "internalType": "uint256",
          "name": "baseReserve",
          "type": "uint256"
        },
        {
          "internalType": "uint256",
          "name": "tokenReserve",
          "type": "uint256"
        }
      ],
      "name": "getTokenInputAmountFromBaseOutput",
      "outputs": [
        {
          "internalType": "uint256",
          "name": "",
          "type": "uint256"
        }
      ],
      "stateMutability": "pure",
      "type": "function"
    },
    {
      "inputs": [
        {
          "internalType": "uint256",
          "name": "baseInputAmount",
          "type": "uint256"
        },
        {
          "internalType": "uint256",
          "name": "minTokenOutput",
          "type": "uint256"
        },
        {
          "internalType": "uint256",
          "name": "deadline",
          "type": "uint256"
        }
      ],
      "name": "swapBaseToTokenWithBaseInput",
      "outputs": [],
      "stateMutability": "nonpayable",
      "type": "function"
    },
    {
      "inputs": [
        {
          "internalType": "uint256",
          "name": "maxBaseInput",
          "type": "uint256"
        },
        {
          "internalType": "uint256",
          "name": "tokenOutputAmount",
          "type": "uint256"
        },
        {
          "internalType": "uint256",
          "name": "deadline",
          "type": "uint256"
        }
      ],
      "name": "swapBaseToTokenWithTokenOutput",
      "outputs": [],
      "stateMutability": "nonpayable",
      "type": "function"
    },
    {
      "inputs": [
        {
          "internalType": "uint256",
          "name": "tokenInputAmount",
          "type": "uint256"
        },
        {
          "internalType": "uint256",
          "name": "minBaseOutput",
          "type": "uint256"
        },
        {
          "internalType": "uint256",
          "name": "deadline",
          "type": "uint256"
        }
      ],
      "name": "swapTokenToBaseWithTokenInput",
      "outputs": [],
      "stateMutability": "nonpayable",
      "type": "function"
    },
    {
      "inputs": [
        {
          "internalType": "uint256",
          "name": "maxTokenInput",
          "type": "uint256"
        },
        {
          "internalType": "uint256",
          "name": "baseOutputAmount",
          "type": "uint256"
        },
        {
          "internalType": "uint256",
          "name": "deadline",
          "type": "uint256"
        }
      ],
      "name": "swapTokenToBaseWithBaseOutput",
      "outputs": [],
      "stateMutability": "nonpayable",
      "type": "function"
    },
    {
      "inputs": [
        {
          "internalType": "uint256",
          "name": "minLP",
          "type": "uint256"
        },
        {
          "internalType": "uint256",
          "name": "baseInputAmount",
          "type": "uint256"
        },
        {
          "internalType": "uint256",
          "name": "maxTokenInputAmount",
          "type": "uint256"
        },
        {
          "internalType": "uint256",
          "name": "deadline",
          "type": "uint256"
        }
      ],
      "name": "addLP",
      "outputs": [
        {
          "internalType": "uint256",
          "name": "",
          "type": "uint256"
        }
      ],
      "stateMutability": "nonpayable",
      "type": "function"
    },
    {
      "inputs": [
        {
          "internalType": "uint256",
          "name": "amountLP",
          "type": "uint256"
        },
        {
          "internalType": "uint256",
          "name": "minBaseOutput",
          "type": "uint256"
        },
        {
          "internalType": "uint256",
          "name": "minTokenOutput",
          "type": "uint256"
        },
        {
          "internalType": "uint256",
          "name": "deadline",
          "type": "uint256"
        }
      ],
      "name": "removeLP",
      "outputs": [
        {
          "internalType": "uint256",
          "name": "",
          "type": "uint256"
        },
        {
          "internalType": "uint256",
          "name": "",
          "type": "uint256"
        }
      ],
      "stateMutability": "nonpayable",
      "type": "function"
    },
    {
      "inputs": [],
      "name": "getTotalReserve",
      "outputs": [
        {
          "internalType": "uint256",
          "name": "",
          "type": "uint256"
        },
        {
          "internalType": "uint256",
          "name": "",
          "type": "uint256"
        }
      ],
      "stateMutability": "view",
      "type": "function"
    }
  ],
  "bytecode": "0x60806040526023600b553480156200001657600080fd5b506040516200461b3803806200461b83398101604081905262000039916200020f565b8181600362000049838262000374565b50600462000058828262000374565b505050620000756200006f620000db60201b60201c565b620000df565b5050600680546001600160a01b03199081166001600160a01b039788161790915560078054821695871695909517909455600a80548516938616939093179092556009805484169285169290921790915560088054909216921691909117905562000440565b3390565b600580546001600160a01b038381166001600160a01b0319831681179093556040519116919082907f8be0079c531659141344cd1fd0a4f28419497f9722a3daafe3b4186f6b6457e090600090a35050565b6001600160a01b03811681146200014757600080fd5b50565b634e487b7160e01b600052604160045260246000fd5b600082601f8301126200017257600080fd5b81516001600160401b03808211156200018f576200018f6200014a565b604051601f8301601f19908116603f01168101908282118183101715620001ba57620001ba6200014a565b81604052838152602092508683858801011115620001d757600080fd5b600091505b83821015620001fb5785820183015181830184015290820190620001dc565b600093810190920192909252949350505050565b600080600080600080600060e0888a0312156200022b57600080fd5b8751620002388162000131565b60208901519097506200024b8162000131565b60408901519096506200025e8162000131565b6060890151909550620002718162000131565b6080890151909450620002848162000131565b60a08901519093506001600160401b0380821115620002a257600080fd5b620002b08b838c0162000160565b935060c08a0151915080821115620002c757600080fd5b50620002d68a828b0162000160565b91505092959891949750929550565b600181811c90821680620002fa57607f821691505b6020821081036200031b57634e487b7160e01b600052602260045260246000fd5b50919050565b601f8211156200036f57600081815260208120601f850160051c810160208610156200034a5750805b601f850160051c820191505b818110156200036b5782815560010162000356565b5050505b505050565b81516001600160401b038111156200039057620003906200014a565b620003a881620003a18454620002e5565b8462000321565b602080601f831160018114620003e05760008415620003c75750858301515b600019600386901b1c1916600185901b1785556200036b565b600085815260208120601f198616915b828110156200041157888601518255948401946001909101908401620003f0565b5085821015620004305787850151600019600388901b60f8161c191681555b5050505050600190811b01905550565b6141cb80620004506000396000f3fe608060405234801561001057600080fd5b506004361061025e5760003560e01c806376125deb11610146578063c6e842fc116100c3578063e50a38d711610087578063e50a38d714610536578063ead915e314610549578063ec02291814610551578063ee39e7a014610559578063f2fde38b14610561578063fc0c546a1461057457600080fd5b8063c6e842fc146104e1578063d0e9de6c146104f4578063d132296214610507578063dbcfbf2f14610510578063dd62ed3e1461052357600080fd5b806397bb21c61161010a57806397bb21c61461048d578063a457c2d7146104a0578063a9059cbb146104b3578063ac7343bd146104c6578063b7c3ba45146104ce57600080fd5b806376125deb1461043b57806379cc67901461044e57806384900b04146104615780638da5cb5b1461047457806395d89b411461048557600080fd5b806339509351116101df578063635f95ff116101a3578063635f95ff146103a95780636662d177146103bc57806370a08231146103e4578063711f61421461040d578063715018a61461042057806373dd25a31461042857600080fd5b8063395093511461034a57806342966c681461035d57806342eba2ce146103705780635001f3b51461038357806360b1765c1461039657600080fd5b80631279732c116102265780631279732c1461030557806318160ddd1461030d57806323b872dd146103155780632916bc1014610328578063313ce5671461033b57600080fd5b806303bf04c11461026357806306fdde0314610278578063095ea7b31461029657806310a57f3a146102b957806311fbded3146102e4575b600080fd5b61027661027136600461396c565b610587565b005b610280610aff565b60405161028d9190613998565b60405180910390f35b6102a96102a43660046139fb565b610b91565b604051901515815260200161028d565b600a546102cc906001600160a01b031681565b6040516001600160a01b03909116815260200161028d565b6102f76102f2366004613a27565b610bab565b60405190815260200161028d565b610276610bfe565b6002546102f7565b6102a9610323366004613a40565b610dd1565b6102f761033636600461396c565b610df5565b6040516012815260200161028d565b6102a96103583660046139fb565b610e54565b61027661036b366004613a27565b610e76565b6008546102cc906001600160a01b031681565b6006546102cc906001600160a01b031681565b6102f76103a4366004613a81565b610e83565b6102f76103b7366004613a27565b611509565b6103cf6103ca366004613a27565b611551565b6040805192835260208301919091520161028d565b6102f76103f2366004613ab3565b6001600160a01b031660009081526020819052604090205490565b6103cf61041b366004613a27565b6115bb565b610276611618565b61027661043636600461396c565b61162c565b6103cf610449366004613a81565b611b78565b61027661045c3660046139fb565b61210e565b6009546102cc906001600160a01b031681565b6005546001600160a01b03166102cc565b610280612127565b6102f761049b36600461396c565b612136565b6102a96104ae3660046139fb565b61218f565b6102a96104c13660046139fb565b61220a565b610276612218565b6102f76104dc36600461396c565b612411565b6103cf6104ef366004613a27565b61246a565b61027661050236600461396c565b6124cb565b6102f7600b5481565b6102f761051e36600461396c565b612a06565b6102f7610531366004613ad0565b612a65565b61027661054436600461396c565b612a90565b610276612fe3565b6103cf6131dc565b6102f76132ca565b61027661056f366004613ab3565b6132e7565b6007546102cc906001600160a01b031681565b33321461062457600954604051636c9b2a3f60e11b81523360048201526001600160a01b039091169063d936547e90602401602060405180830381865afa1580156105d6573d6000803e3d6000fd5b505050506040513d601f19601f820116820180604052508101906105fa9190613b09565b15156001146106245760405162461bcd60e51b815260040161061b90613b2b565b60405180910390fd5b428110156106445760405162461bcd60e51b815260040161061b90613b56565b6000821161068e5760405162461bcd60e51b81526020600482015260176024820152761253959053125117d3525397d09054d157d3d555141555604a1b604482015260640161061b565b600083116106ae5760405162461bcd60e51b815260040161061b90613b80565b6007546040516370a0823160e01b81523360048201526001600160a01b03909116906370a0823190602401602060405180830381865afa1580156106f6573d6000803e3d6000fd5b505050506040513d601f19601f8201168201806040525081019061071a9190613bad565b8311156107695760405162461bcd60e51b815260206004820152601f60248201527f544f4b454e5f494e5055545f4849474845525f555345525f42414c414e434500604482015260640161061b565b6000806107746131dc565b90925090508184106107d95760405162461bcd60e51b815260206004820152602860248201527f4d494e5f424153455f4f55545055545f4849474845525f504f4f4c5f424153456044820152675f42414c414e434560c01b606482015260840161061b565b60006107fd620186a06107f7600b548961335d90919063ffffffff16565b90613370565b9050600061080b878361337c565b9050600061081a828686612a06565b90508681101561083c5760405162461bcd60e51b815260040161061b90613bc6565b84811061085b5760405162461bcd60e51b815260040161061b90613bf2565b6006546040516370a0823160e01b81523060048201526001600160a01b03909116906370a0823190602401602060405180830381865afa1580156108a3573d6000803e3d6000fd5b505050506040513d601f19601f820116820180604052508101906108c79190613bad565b81106108e55760405162461bcd60e51b815260040161061b90613c36565b6007546040516323b872dd60e01b81526001600160a01b03909116906323b872dd9061091990339030908d90600401613c7e565b6020604051808303816000875af1158015610938573d6000803e3d6000fd5b505050506040513d601f19601f8201168201806040525081019061095c9190613b09565b5060065460405163a9059cbb60e01b81526001600160a01b039091169063a9059cbb9061098f9033908590600401613ca2565b6020604051808303816000875af11580156109ae573d6000803e3d6000fd5b505050506040513d601f19601f820116820180604052508101906109d29190613b09565b5060075460085460405163a9059cbb60e01b81526001600160a01b039283169263a9059cbb92610a09929116908790600401613ca2565b6020604051808303816000875af1158015610a28573d6000803e3d6000fd5b505050506040513d601f19601f82011682018060405250810190610a4c9190613b09565b50600854600754604051632054895360e21b81526001600160a01b039182166004820152336024820152911690638152254c90604401600060405180830381600087803b158015610a9c57600080fd5b505af1158015610ab0573d6000803e3d6000fd5b505050507fb1b8c525a87e01fd3cda717635c4b24d56deba9f9d95c4f650c022bcd0bf8f5033888a848989604051610aed96959493929190613cbb565b60405180910390a15050505050505050565b606060038054610b0e90613cee565b80601f0160208091040260200160405190810160405280929190818152602001828054610b3a90613cee565b8015610b875780601f10610b5c57610100808354040283529160200191610b87565b820191906000526020600020905b815481529060010190602001808311610b6a57829003601f168201915b5050505050905090565b600033610b9f818585613388565b60019150505b92915050565b60008080610bb76131dc565b600b549193509150600090610bd690620186a0906107f790889061335d565b90506000610be4868361337c565b90506000610bf3828686610df5565b979650505050505050565b610c066134ad565b600a5460405163109cc30b60e21b81526001600160a01b03909116906342730c2c90610c36903090600401613d46565b602060405180830381865afa158015610c53573d6000803e3d6000fd5b505050506040513d601f19601f82011682018060405250810190610c779190613b09565b610c935760405162461bcd60e51b815260040161061b90613d69565b600a54604051636076dea560e11b81526000916001600160a01b03169063c0edbd4a90610cc4903090600401613d95565b602060405180830381865afa158015610ce1573d6000803e3d6000fd5b505050506040513d601f19601f82011682018060405250810190610d059190613bad565b600b819055600a54604051636e977f0b60e01b81529192506001600160a01b031690636e977f0b90610d3c90600290600401613ddf565b600060405180830381600087803b158015610d5657600080fd5b505af1158015610d6a573d6000803e3d6000fd5b5050600a546040516345503fcb60e11b81526001600160a01b039091169250638aa07f969150610d9c90600401613e2a565b600060405180830381600087803b158015610db657600080fd5b505af1158015610dca573d6000803e3d6000fd5b5050505050565b600033610ddf858285613507565b610dea858585613581565b506001949350505050565b60008083118015610e065750600082115b610e225760405162461bcd60e51b815260040161061b90613e3c565b6000610e2e838561335d565b90506000610e3c8587613725565b90506000610bf3610e4d8484613370565b869061337c565b600033610b9f818585610e678383612a65565b610e719190613e79565b613388565b610e803382613731565b50565b6000333214610f1957600954604051636c9b2a3f60e11b81523360048201526001600160a01b039091169063d936547e90602401602060405180830381865afa158015610ed4573d6000803e3d6000fd5b505050506040513d601f19601f82011682018060405250810190610ef89190613b09565b1515600114610f195760405162461bcd60e51b815260040161061b90613b2b565b42821015610f395760405162461bcd60e51b815260040161061b90613b56565b60008511610f7a5760405162461bcd60e51b815260206004820152600e60248201526d0494e56414c49445f4d494e5f4c560941b604482015260640161061b565b60008411610f9a5760405162461bcd60e51b815260040161061b90613e8c565b60008311610fe45760405162461bcd60e51b81526020600482015260176024820152761253959053125117d3505617d513d2d15397d253941555604a1b604482015260640161061b565b6000610fef60025490565b905080600003611217576006546040516323b872dd60e01b81526001600160a01b03909116906323b872dd9061102d90339030908a90600401613c7e565b6020604051808303816000875af115801561104c573d6000803e3d6000fd5b505050506040513d601f19601f820116820180604052508101906110709190613b09565b506007546040516323b872dd60e01b81526001600160a01b03909116906323b872dd906110a590339030908990600401613c7e565b6020604051808303816000875af11580156110c4573d6000803e3d6000fd5b505050506040513d601f19601f820116820180604052508101906110e89190613b09565b50846110f4338261385b565b6006546040516370a0823160e01b81523060048201527f28e12afd967cc11b786f1b1547f5e0da96ccc91ebb09bdd406248111a634e7e591339184918a918a916001600160a01b0316906370a0823190602401602060405180830381865afa158015611164573d6000803e3d6000fd5b505050506040513d601f19601f820116820180604052508101906111889190613bad565b6007546040516370a0823160e01b81523060048201526001600160a01b03909116906370a0823190602401602060405180830381865afa1580156111d0573d6000803e3d6000fd5b505050506040513d601f19601f820116820180604052508101906111f49190613bad565b60405161120696959493929190613cbb565b60405180910390a191506115019050565b6000806112226131dc565b9092509050600061124b82611245856107f761123e828e613725565b879061335d565b9061337c565b9050600061125d846107f7878c61335d565b90506000821161127f5760405162461bcd60e51b815260040161061b90613b80565b8782111561129f5760405162461bcd60e51b815260040161061b90613b80565b898110156112e15760405162461bcd60e51b815260206004820152600f60248201526e0494e56414c49445f4d494e545f4c5608c1b604482015260640161061b565b6006546040516323b872dd60e01b81526001600160a01b03909116906323b872dd9061131590339030908e90600401613c7e565b6020604051808303816000875af1158015611334573d6000803e3d6000fd5b505050506040513d601f19601f820116820180604052508101906113589190613b09565b506007546040516323b872dd60e01b81526001600160a01b03909116906323b872dd9061138d90339030908790600401613c7e565b6020604051808303816000875af11580156113ac573d6000803e3d6000fd5b505050506040513d601f19601f820116820180604052508101906113d09190613b09565b506113db338261385b565b6006546040516370a0823160e01b81523060048201527f28e12afd967cc11b786f1b1547f5e0da96ccc91ebb09bdd406248111a634e7e591339184918d9187916001600160a01b0316906370a0823190602401602060405180830381865afa15801561144b573d6000803e3d6000fd5b505050506040513d601f19601f8201168201806040525081019061146f9190613bad565b6007546040516370a0823160e01b81523060048201526001600160a01b03909116906370a0823190602401602060405180830381865afa1580156114b7573d6000803e3d6000fd5b505050506040513d601f19601f820116820180604052508101906114db9190613bad565b6040516114ed96959493929190613cbb565b60405180910390a194506115019350505050565b949350505050565b600080806115156131dc565b600b54919350915060009061153490620186a0906107f790889061335d565b90506000611542868361337c565b90506000610bf3828686612a06565b600080600061155f60025490565b9050600080826000036115765750849050806115b0565b6000806115816131dc565b909250905061159b82611245836107f761123e828e613725565b92506115ab826107f7878661335d565b935050505b909590945092505050565b60008060006115c960025490565b9050808411156115d7578093505b6000806115e26131dc565b909250905060006115f7846107f7898661335d565b90506000611609856107f78a8661335d565b91989197509095505050505050565b6116206134ad565b61162a600061391a565b565b3332146116c057600954604051636c9b2a3f60e11b81523360048201526001600160a01b039091169063d936547e90602401602060405180830381865afa15801561167b573d6000803e3d6000fd5b505050506040513d601f19601f8201168201806040525081019061169f9190613b09565b15156001146116c05760405162461bcd60e51b815260040161061b90613b2b565b428110156116e05760405162461bcd60e51b815260040161061b90613b56565b6000831161172a5760405162461bcd60e51b81526020600482015260176024820152761253959053125117d3505617d513d2d15397d253941555604a1b604482015260640161061b565b600082116117705760405162461bcd60e51b81526020600482015260136024820152721253959053125117d09054d157d3d555141555606a1b604482015260640161061b565b6006546040516370a0823160e01b81523060048201526001600160a01b03909116906370a0823190602401602060405180830381865afa1580156117b8573d6000803e3d6000fd5b505050506040513d601f19601f820116820180604052508101906117dc9190613bad565b82106117fa5760405162461bcd60e51b815260040161061b90613c36565b6000806118056131dc565b90925090508184106118295760405162461bcd60e51b815260040161061b90613bf2565b6000611836858484612136565b90506000611856620186a06107f7600b548561335d90919063ffffffff16565b90506118628282613725565b9150868211156118845760405162461bcd60e51b815260040161061b90613bc6565b600082116118a45760405162461bcd60e51b815260040161061b90613b80565b6007546040516370a0823160e01b81523360048201526001600160a01b03909116906370a0823190602401602060405180830381865afa1580156118ec573d6000803e3d6000fd5b505050506040513d601f19601f820116820180604052508101906119109190613bad565b82111561195f5760405162461bcd60e51b815260206004820152601f60248201527f544f4b454e5f494e5055545f4849474845525f555345525f42414c414e434500604482015260640161061b565b6007546040516323b872dd60e01b81526001600160a01b03909116906323b872dd9061199390339030908790600401613c7e565b6020604051808303816000875af11580156119b2573d6000803e3d6000fd5b505050506040513d601f19601f820116820180604052508101906119d69190613b09565b5060065460405163a9059cbb60e01b81526001600160a01b039091169063a9059cbb90611a099033908a90600401613ca2565b6020604051808303816000875af1158015611a28573d6000803e3d6000fd5b505050506040513d601f19601f82011682018060405250810190611a4c9190613b09565b5060075460085460405163a9059cbb60e01b81526001600160a01b039283169263a9059cbb92611a83929116908590600401613ca2565b6020604051808303816000875af1158015611aa2573d6000803e3d6000fd5b505050506040513d601f19601f82011682018060405250810190611ac69190613b09565b50600854600754604051632054895360e21b81526001600160a01b039182166004820152336024820152911690638152254c90604401600060405180830381600087803b158015611b1657600080fd5b505af1158015611b2a573d6000803e3d6000fd5b505050507ff116a588cdba1b14c04ffd8bca7fee39286e7c8d9da59d77c036430e4b415dbc338884898888604051611b6796959493929190613cbb565b60405180910390a150505050505050565b600080333214611c0f57600954604051636c9b2a3f60e11b81523360048201526001600160a01b039091169063d936547e90602401602060405180830381865afa158015611bca573d6000803e3d6000fd5b505050506040513d601f19601f82011682018060405250810190611bee9190613b09565b1515600114611c0f5760405162461bcd60e51b815260040161061b90613b2b565b42831015611c2f5760405162461bcd60e51b815260040161061b90613b56565b60008611611c735760405162461bcd60e51b81526020600482015260116024820152700494e56414c49445f414d4f554e545f4c5607c1b604482015260640161061b565b60008511611cbd5760405162461bcd60e51b81526020600482015260176024820152761253959053125117d3525397d09054d157d3d555141555604a1b604482015260640161061b565b60008411611d085760405162461bcd60e51b81526020600482015260186024820152771253959053125117d3525397d513d2d15397d3d55514155560421b604482015260640161061b565b6000611d1360025490565b3360009081526020819052604090205490915080881115611d32578097505b81881115611d825760405162461bcd60e51b815260206004820152601e60248201527f494e56414c49445f414d4f554e545f4c505f544f54414c5f535550504c590000604482015260640161061b565b600080611d8d6131dc565b90925090506000611da2856107f78d8661335d565b90506000611db4866107f78e8661335d565b90508a821015611dfc5760405162461bcd60e51b81526020600482015260136024820152721253959053125117d09054d157d3d555141555606a1b604482015260640161061b565b89811015611e435760405162461bcd60e51b81526020600482015260146024820152731253959053125117d513d2d15397d3d55514155560621b604482015260640161061b565b83821115611e935760405162461bcd60e51b815260206004820152601f60248201527f424153455f4f55545055545f4849474845525f424153455f42414c414e434500604482015260640161061b565b82811115611eed5760405162461bcd60e51b815260206004820152602160248201527f544f4b454e5f4f55545055545f4849474845525f544f4b454e5f42414c414e436044820152604560f81b606482015260840161061b565b611ef7338d613731565b60065460405163a9059cbb60e01b81526001600160a01b039091169063a9059cbb90611f299033908690600401613ca2565b6020604051808303816000875af1158015611f48573d6000803e3d6000fd5b505050506040513d601f19601f82011682018060405250810190611f6c9190613b09565b5060075460405163a9059cbb60e01b81526001600160a01b039091169063a9059cbb90611f9f9033908590600401613ca2565b6020604051808303816000875af1158015611fbe573d6000803e3d6000fd5b505050506040513d601f19601f82011682018060405250810190611fe29190613b09565b506006546040516370a0823160e01b81523060048201527f555901717744791e9e27303c0df147d5a5eea5b7098591b2c5f2138ed6a605de9133918f91869186916001600160a01b0316906370a0823190602401602060405180830381865afa158015612053573d6000803e3d6000fd5b505050506040513d601f19601f820116820180604052508101906120779190613bad565b6007546040516370a0823160e01b81523060048201526001600160a01b03909116906370a0823190602401602060405180830381865afa1580156120bf573d6000803e3d6000fd5b505050506040513d601f19601f820116820180604052508101906120e39190613bad565b6040516120f596959493929190613cbb565b60405180910390a1909b909a5098505050505050505050565b612119823383613507565b6121238282613731565b5050565b606060048054610b0e90613cee565b600080831180156121475750600082115b6121635760405162461bcd60e51b815260040161061b90613e3c565b600061216f838561335d565b9050600061217d858761337c565b90506000610bf3856112458585613370565b6000338161219d8286612a65565b9050838110156121fd5760405162461bcd60e51b815260206004820152602560248201527f45524332303a2064656372656173656420616c6c6f77616e63652062656c6f77604482015264207a65726f60d81b606482015260840161061b565b610dea8286868403613388565b600033610b9f818585613581565b6122206134ad565b600a5460405163109cc30b60e21b81526001600160a01b03909116906342730c2c90612250903090600401613edf565b602060405180830381865afa15801561226d573d6000803e3d6000fd5b505050506040513d601f19601f820116820180604052508101906122919190613b09565b6122ad5760405162461bcd60e51b815260040161061b90613d69565b600a54604051636bfb078d60e01b81526000916001600160a01b031690636bfb078d906122de903090600401613f02565b602060405180830381865afa1580156122fb573d6000803e3d6000fd5b505050506040513d601f19601f8201168201806040525081019061231f9190613f55565b90506001600160a01b0381166123695760405162461bcd60e51b815260206004820152600f60248201526e494e56414c49445f4144445245535360881b604482015260640161061b565b600980546001600160a01b0319166001600160a01b0383811691909117909155600a54604051636e977f0b60e01b8152911690636e977f0b906123b190600190600401613f72565b600060405180830381600087803b1580156123cb57600080fd5b505af11580156123df573d6000803e3d6000fd5b5050600a546040516345503fcb60e11b81526001600160a01b039091169250638aa07f969150610d9c90600401613fb4565b600080831180156124225750600082115b61243e5760405162461bcd60e51b815260040161061b90613e3c565b600061244a838561335d565b90506000612458848761337c565b90506000610bf3866112458585613370565b600080600061247860025490565b90506000808260000361248f5750849050806115b0565b60008061249a6131dc565b90925090506124bb81611245846107f76124b4828e613725565b869061335d565b92506115ab826107f7878b61335d565b33321461255f57600954604051636c9b2a3f60e11b81523360048201526001600160a01b039091169063d936547e90602401602060405180830381865afa15801561251a573d6000803e3d6000fd5b505050506040513d601f19601f8201168201806040525081019061253e9190613b09565b151560011461255f5760405162461bcd60e51b815260040161061b90613b2b565b4281101561257f5760405162461bcd60e51b815260040161061b90613b56565b600083116125c85760405162461bcd60e51b81526020600482015260166024820152751253959053125117d3505617d09054d157d25394155560521b604482015260640161061b565b6000821161260f5760405162461bcd60e51b81526020600482015260146024820152731253959053125117d513d2d15397d3d55514155560621b604482015260640161061b565b6007546040516370a0823160e01b81523060048201526001600160a01b03909116906370a0823190602401602060405180830381865afa158015612657573d6000803e3d6000fd5b505050506040513d601f19601f8201168201806040525081019061267b9190613bad565b82106126995760405162461bcd60e51b815260040161061b90613fc6565b6000806126a46131dc565b90925090508084106126c85760405162461bcd60e51b815260040161061b9061400f565b60006126d5858484612411565b905060006126f5620186a06107f7600b548561335d90919063ffffffff16565b90506127018282613725565b9150868211156127235760405162461bcd60e51b815260040161061b90613bc6565b600082116127435760405162461bcd60e51b815260040161061b90613e8c565b6006546040516370a0823160e01b81523360048201526001600160a01b03909116906370a0823190602401602060405180830381865afa15801561278b573d6000803e3d6000fd5b505050506040513d601f19601f820116820180604052508101906127af9190613bad565b8211156127fe5760405162461bcd60e51b815260206004820152601e60248201527f424153455f494e5055545f4849474845525f555345525f42414c414e43450000604482015260640161061b565b6006546040516323b872dd60e01b81526001600160a01b03909116906323b872dd9061283290339030908790600401613c7e565b6020604051808303816000875af1158015612851573d6000803e3d6000fd5b505050506040513d601f19601f820116820180604052508101906128759190613b09565b5060075460405163a9059cbb60e01b81526001600160a01b039091169063a9059cbb906128a89033908a90600401613ca2565b6020604051808303816000875af11580156128c7573d6000803e3d6000fd5b505050506040513d601f19601f820116820180604052508101906128eb9190613b09565b5060065460085460405163a9059cbb60e01b81526001600160a01b039283169263a9059cbb92612922929116908590600401613ca2565b6020604051808303816000875af1158015612941573d6000803e3d6000fd5b505050506040513d601f19601f820116820180604052508101906129659190613b09565b50600854600654604051632054895360e21b81526001600160a01b039182166004820152336024820152911690638152254c90604401600060405180830381600087803b1580156129b557600080fd5b505af11580156129c9573d6000803e3d6000fd5b505050507f6e9d5a0202c67970b52b10deb68f1641a9408d90db857bc984d008c1be70383a338884898888604051611b6796959493929190613cbb565b60008083118015612a175750600082115b612a335760405162461bcd60e51b815260040161061b90613e3c565b6000612a3f838561335d565b90506000612a4d8487613725565b90506000610bf3612a5e8484613370565b879061337c565b6001600160a01b03918216600090815260016020908152604080832093909416825291909152205490565b333214612b2457600954604051636c9b2a3f60e11b81523360048201526001600160a01b039091169063d936547e90602401602060405180830381865afa158015612adf573d6000803e3d6000fd5b505050506040513d601f19601f82011682018060405250810190612b039190613b09565b1515600114612b245760405162461bcd60e51b815260040161061b90613b2b565b42811015612b445760405162461bcd60e51b815260040161061b90613b56565b60008311612b645760405162461bcd60e51b815260040161061b90613e8c565b60008211612baf5760405162461bcd60e51b81526020600482015260186024820152771253959053125117d3525397d513d2d15397d3d55514155560421b604482015260640161061b565b6006546040516370a0823160e01b81523360048201526001600160a01b03909116906370a0823190602401602060405180830381865afa158015612bf7573d6000803e3d6000fd5b505050506040513d601f19601f82011682018060405250810190612c1b9190613bad565b831115612c6a5760405162461bcd60e51b815260206004820152601e60248201527f424153455f494e5055545f4849474845525f555345525f42414c414e43450000604482015260640161061b565b600080612c756131dc565b9092509050808410612cd55760405162461bcd60e51b815260206004820152602360248201527f4d494e5f544f4b454e5f4849474845525f504f4f4c5f544f4b454e5f42414c416044820152624e434560e81b606482015260840161061b565b6000612cf3620186a06107f7600b548961335d90919063ffffffff16565b90506000612d01878361337c565b90506000612d10828686610df5565b905086811015612d325760405162461bcd60e51b815260040161061b90613bc6565b838110612d515760405162461bcd60e51b815260040161061b9061400f565b6007546040516370a0823160e01b81523060048201526001600160a01b03909116906370a0823190602401602060405180830381865afa158015612d99573d6000803e3d6000fd5b505050506040513d601f19601f82011682018060405250810190612dbd9190613bad565b8110612ddb5760405162461bcd60e51b815260040161061b90613fc6565b6006546040516323b872dd60e01b81526001600160a01b03909116906323b872dd90612e0f90339030908d90600401613c7e565b6020604051808303816000875af1158015612e2e573d6000803e3d6000fd5b505050506040513d601f19601f82011682018060405250810190612e529190613b09565b5060075460405163a9059cbb60e01b81526001600160a01b039091169063a9059cbb90612e859033908590600401613ca2565b6020604051808303816000875af1158015612ea4573d6000803e3d6000fd5b505050506040513d601f19601f82011682018060405250810190612ec89190613b09565b5060065460085460405163a9059cbb60e01b81526001600160a01b039283169263a9059cbb92612eff929116908790600401613ca2565b6020604051808303816000875af1158015612f1e573d6000803e3d6000fd5b505050506040513d601f19601f82011682018060405250810190612f429190613b09565b50600854600654604051632054895360e21b81526001600160a01b039182166004820152336024820152911690638152254c90604401600060405180830381600087803b158015612f9257600080fd5b505af1158015612fa6573d6000803e3d6000fd5b505050507fd294be030e23d0862312f418541ec01d571908715169f1cb1109bba3212b8c2d33888a848989604051610aed96959493929190613cbb565b612feb6134ad565b600a5460405163109cc30b60e21b81526001600160a01b03909116906342730c2c9061301b90309060040161407d565b602060405180830381865afa158015613038573d6000803e3d6000fd5b505050506040513d601f19601f8201168201806040525081019061305c9190613b09565b6130785760405162461bcd60e51b815260040161061b90613d69565b600a54604051636bfb078d60e01b81526000916001600160a01b031690636bfb078d906130a99030906004016140a0565b602060405180830381865afa1580156130c6573d6000803e3d6000fd5b505050506040513d601f19601f820116820180604052508101906130ea9190613f55565b90506001600160a01b0381166131345760405162461bcd60e51b815260206004820152600f60248201526e494e56414c49445f4144445245535360881b604482015260640161061b565b600880546001600160a01b0319166001600160a01b0383811691909117909155600a54604051636e977f0b60e01b8152911690636e977f0b9061317c906001906004016140f4565b600060405180830381600087803b15801561319657600080fd5b505af11580156131aa573d6000803e3d6000fd5b5050600a546040516345503fcb60e11b81526001600160a01b039091169250638aa07f969150610d9c90600401614137565b6006546040516370a0823160e01b8152306004820152600091829182916001600160a01b0316906370a0823190602401602060405180830381865afa158015613229573d6000803e3d6000fd5b505050506040513d601f19601f8201168201806040525081019061324d9190613bad565b6007546040516370a0823160e01b81523060048201529192506000916001600160a01b03909116906370a0823190602401602060405180830381865afa15801561329b573d6000803e3d6000fd5b505050506040513d601f19601f820116820180604052508101906132bf9190613bad565b919491935090915050565b600080806132d66131dc565b90925090506000611501828461335d565b6132ef6134ad565b6001600160a01b0381166133545760405162461bcd60e51b815260206004820152602660248201527f4f776e61626c653a206e6577206f776e657220697320746865207a65726f206160448201526564647265737360d01b606482015260840161061b565b610e808161391a565b60006133698284614149565b9392505050565b60006133698284614160565b60006133698284614182565b6001600160a01b0383166133ea5760405162461bcd60e51b8152602060048201526024808201527f45524332303a20617070726f76652066726f6d20746865207a65726f206164646044820152637265737360e01b606482015260840161061b565b6001600160a01b03821661344b5760405162461bcd60e51b815260206004820152602260248201527f45524332303a20617070726f766520746f20746865207a65726f206164647265604482015261737360f01b606482015260840161061b565b6001600160a01b0383811660008181526001602090815260408083209487168084529482529182902085905590518481527f8c5be1e5ebec7d5bd14f71427d1e84f3dd0314c0f7b2291e5b200ac8c7c3b92591015b60405180910390a3505050565b6005546001600160a01b0316331461162a5760405162461bcd60e51b815260206004820181905260248201527f4f776e61626c653a2063616c6c6572206973206e6f7420746865206f776e6572604482015260640161061b565b60006135138484612a65565b9050600019811461357b578181101561356e5760405162461bcd60e51b815260206004820152601d60248201527f45524332303a20696e73756666696369656e7420616c6c6f77616e6365000000604482015260640161061b565b61357b8484848403613388565b50505050565b6001600160a01b0383166135e55760405162461bcd60e51b815260206004820152602560248201527f45524332303a207472616e736665722066726f6d20746865207a65726f206164604482015264647265737360d81b606482015260840161061b565b6001600160a01b0382166136475760405162461bcd60e51b815260206004820152602360248201527f45524332303a207472616e7366657220746f20746865207a65726f206164647260448201526265737360e81b606482015260840161061b565b6001600160a01b038316600090815260208190526040902054818110156136bf5760405162461bcd60e51b815260206004820152602660248201527f45524332303a207472616e7366657220616d6f756e7420657863656564732062604482015265616c616e636560d01b606482015260840161061b565b6001600160a01b03848116600081815260208181526040808320878703905593871680835291849020805487019055925185815290927fddf252ad1be2c89b69c2b068fc378daa952ba7f163c4a11628f55a4df523b3ef910160405180910390a361357b565b60006133698284613e79565b6001600160a01b0382166137915760405162461bcd60e51b815260206004820152602160248201527f45524332303a206275726e2066726f6d20746865207a65726f206164647265736044820152607360f81b606482015260840161061b565b6001600160a01b038216600090815260208190526040902054818110156138055760405162461bcd60e51b815260206004820152602260248201527f45524332303a206275726e20616d6f756e7420657863656564732062616c616e604482015261636560f01b606482015260840161061b565b6001600160a01b0383166000818152602081815260408083208686039055600280548790039055518581529192917fddf252ad1be2c89b69c2b068fc378daa952ba7f163c4a11628f55a4df523b3ef91016134a0565b6001600160a01b0382166138b15760405162461bcd60e51b815260206004820152601f60248201527f45524332303a206d696e7420746f20746865207a65726f206164647265737300604482015260640161061b565b80600260008282546138c39190613e79565b90915550506001600160a01b038216600081815260208181526040808320805486019055518481527fddf252ad1be2c89b69c2b068fc378daa952ba7f163c4a11628f55a4df523b3ef910160405180910390a35050565b600580546001600160a01b038381166001600160a01b0319831681179093556040519116919082907f8be0079c531659141344cd1fd0a4f28419497f9722a3daafe3b4186f6b6457e090600090a35050565b60008060006060848603121561398157600080fd5b505081359360208301359350604090920135919050565b600060208083528351808285015260005b818110156139c5578581018301518582016040015282016139a9565b506000604082860101526040601f19601f8301168501019250505092915050565b6001600160a01b0381168114610e8057600080fd5b60008060408385031215613a0e57600080fd5b8235613a19816139e6565b946020939093013593505050565b600060208284031215613a3957600080fd5b5035919050565b600080600060608486031215613a5557600080fd5b8335613a60816139e6565b92506020840135613a70816139e6565b929592945050506040919091013590565b60008060008060808587031215613a9757600080fd5b5050823594602084013594506040840135936060013592509050565b600060208284031215613ac557600080fd5b8135613369816139e6565b60008060408385031215613ae357600080fd5b8235613aee816139e6565b91506020830135613afe816139e6565b809150509250929050565b600060208284031215613b1b57600080fd5b8151801515811461336957600080fd5b6020808252601190820152701253959053125117d5d2125511531254d5607a1b604082015260600190565b60208082526010908201526f494e56414c49445f444541444c494e4560801b604082015260600190565b6020808252601390820152721253959053125117d513d2d15397d253941555606a1b604082015260600190565b600060208284031215613bbf57600080fd5b5051919050565b60208082526012908201527143414e5f4e4f545f4d414b455f545241444560701b604082015260600190565b60208082526024908201527f424153455f4f55545055545f4849474845525f504f4f4c5f424153455f42414c604082015263414e434560e01b606082015260800190565b60208082526028908201527f424153455f4f55545055545f4849474845525f43555252454e545f54524144456040820152675f42414c414e434560c01b606082015260800190565b6001600160a01b039384168152919092166020820152604081019190915260600190565b6001600160a01b03929092168252602082015260400190565b6001600160a01b03969096168652602086019490945260408501929092526060840152608083015260a082015260c00190565b600181811c90821680613d0257607f821691505b602082108103613d2257634e487b7160e01b600052602260045260246000fd5b50919050565b600b81526a736574547261646546656560a81b602082015260400190565b6001600160a01b0382168152604060208201819052600090613369908301613d28565b60208082526012908201527124a72b20a624a22fa822a926a4a9a9a4a7a760711b604082015260600190565b6001600160a01b0382168152606060208201819052600090613db8908301613d28565b8281036040840152611501816008815267747261646546656560c01b602082015260400190565b606081526000613df160608301613d28565b8281036020840152613e18816008815267747261646546656560c01b602082015260400190565b91505060ff8316604083015292915050565b602081526000610ba560208301613d28565b6020808252600d908201526c494e56414c49445f56414c554560981b604082015260600190565b634e487b7160e01b600052601160045260246000fd5b80820180821115610ba557610ba5613e63565b6020808252601290820152711253959053125117d09054d157d25394155560721b604082015260600190565b60148152731cd95d15da1a5d195b1a5cdd10dbdb9d1c9858dd60621b602082015260400190565b6001600160a01b0382168152604060208201819052600090613369908301613eb8565b6001600160a01b0382168152606060208201819052600090613f25908301613eb8565b82810360408401526115018160118152701dda1a5d195b1a5cdd10dbdb9d1c9858dd607a1b602082015260400190565b600060208284031215613f6757600080fd5b8151613369816139e6565b606081526000613f8460608301613eb8565b8281036020840152613e188160118152701dda1a5d195b1a5cdd10dbdb9d1c9858dd607a1b602082015260400190565b602081526000610ba560208301613eb8565b60208082526029908201527f544f4b454e5f4f55545055545f4849474845525f43555252454e545f54524144604082015268455f42414c414e434560b81b606082015260800190565b60208082526026908201527f544f4b454e5f4f55545055545f4849474845525f504f4f4c5f544f4b454e5f42604082015265414c414e434560d01b606082015260800190565b60158152741cd95d119959535858da1a5b9950dbdb9d1c9858dd605a1b602082015260400190565b6001600160a01b0382168152604060208201819052600090613369908301614055565b6001600160a01b03821681526060602082018190526000906140c3908301614055565b8281036040840152611501816012815271199959535858da1a5b9950dbdb9d1c9858dd60721b602082015260400190565b60608152600061410660608301614055565b8281036020840152613e18816012815271199959535858da1a5b9950dbdb9d1c9858dd60721b602082015260400190565b602081526000610ba560208301614055565b8082028115828204841417610ba557610ba5613e63565b60008261417d57634e487b7160e01b600052601260045260246000fd5b500490565b81810381811115610ba557610ba5613e6356fea2646970667358221220c000146f3ed5d1f41c137ddd26c9dbf85c715eae4f699a95cc37415d7e548b4464736f6c63430008110033",
  "immutableReferences": {},
  "source": "// SPDX-License-Identifier: MIT\r\npragma solidity >=0.6.12;\r\n\r\nimport \"@openzeppelin/contracts/utils/math/SafeMath.sol\";\r\nimport \"@openzeppelin/contracts/token/ERC20/IERC20.sol\";\r\nimport \"@openzeppelin/contracts/token/ERC20/ERC20.sol\";\r\nimport \"@openzeppelin/contracts/token/ERC20/extensions/ERC20Burnable.sol\";\r\nimport \"@openzeppelin/contracts/utils/Context.sol\";\r\nimport \"@openzeppelin/contracts/access/Ownable.sol\";\r\n\r\nimport './interfaces/IGarbiswapFeeMachine.sol';\r\nimport './interfaces/IGarbiswapWhitelist.sol';\r\nimport './interfaces/IGarbiTimeLock.sol';\r\n\r\ncontract GarbiswapTradeUSDTUSDC is ERC20Burnable, Ownable {\r\n    \r\n    using SafeMath for uint256;\r\n\r\n    IERC20 public base; // Stable coin base token (USDC)\r\n    IERC20 public token; // Token to trade in this pair\r\n\r\n    // Fee Machine Contract.\r\n    IGarbiswapFeeMachine public feeMachineContract; \r\n\r\n    IGarbiswapWhitelist public whitelistContract; \r\n\r\n    IGarbiTimeLock public garbiTimeLockContract;\r\n\r\n    uint256 public TRADE_FEE = 35; //0.035% 35/100000\r\n\r\n    modifier onlyWhitelist()\r\n    {\r\n        if (msg.sender != tx.origin) {\r\n            require(whitelistContract.whitelisted(msg.sender) == true, 'INVALID_WHITELIST');\r\n        }\r\n        _;\r\n    }\r\n\r\n    // Events\r\n\r\n    event onSwapBaseToTokenWithBaseInput(address sender, uint256 minTokenOutput, uint256 baseInputAmount, uint256 tokenOutputAmount, uint256 poolBaseBalance, uint256 poolTokenBalance);\r\n    event onSwapBaseToTokenWithTokenOutput(address sender, uint256 maxBaseInput, uint256 baseInputAmount, uint256 tokenOutputAmount, uint256 poolBaseBalance, uint256 poolTokenBalance);\r\n    \r\n    event onSwapTokenToBaseWithTokenInput(address sender, uint256 minBaseOutput, uint256 tokenInputAmount, uint256 baseOutputAmount, uint256 poolBaseBalance, uint256 poolTokenBalance);\r\n    event onSwapTokenToBaseWithBaseOutput(address sender, uint256 maxTokenInput, uint256 tokenInputAmount, uint256 baseOutputAmount, uint256 poolBaseBalance, uint256 poolTokenBalance);\r\n\r\n    event onAddLP(address sender, uint256 mintLP, uint256 baseInputAmount, uint256 tokenInputAmount, uint256 poolBaseBalance, uint256 poolTokenBalance);\r\n    event onRemoveLP(address sender, uint256 amountLP, uint256 baseOutputAmout, uint256 tokenOutputAmount, uint256 poolBaseBalance, uint256 poolTokenBalance);\r\n\r\n    constructor(\r\n        IERC20 _base,\r\n        IERC20 _token,\r\n        IGarbiTimeLock _garbiTimeLockContract,\r\n        IGarbiswapFeeMachine _feeMachineContract,\r\n        IGarbiswapWhitelist _whitelistContract,\r\n        string memory name, \r\n        string memory symbol\r\n        ) ERC20(name, symbol) {\r\n        base = _base;\r\n        token = _token;\r\n        garbiTimeLockContract = _garbiTimeLockContract;\r\n        whitelistContract = _whitelistContract;\r\n        feeMachineContract = _feeMachineContract;\r\n    }\r\n\r\n    function setWhitelistContract() public onlyOwner {\r\n        require(garbiTimeLockContract.isQueuedTransaction(address(this), 'setWhitelistContract'), \"INVALID_PERMISSION\");\r\n\r\n        address _whitelistContract = garbiTimeLockContract.getAddressChangeOnTimeLock(address(this), 'setWhitelistContract', 'whitelistContract');\r\n\r\n        require(_whitelistContract != address(0), \"INVALID_ADDRESS\");\r\n\r\n        whitelistContract = IGarbiswapWhitelist(_whitelistContract);\r\n\r\n        garbiTimeLockContract.clearFieldValue('setWhitelistContract', 'whitelistContract', 1);\r\n        garbiTimeLockContract.doneTransactions('setWhitelistContract');\r\n    }\r\n\r\n    function setFeeMachineContract() public onlyOwner {\r\n\r\n        require(garbiTimeLockContract.isQueuedTransaction(address(this), 'setFeeMachineContract'), \"INVALID_PERMISSION\");\r\n\r\n        address _feeMachineContract = garbiTimeLockContract.getAddressChangeOnTimeLock(address(this), 'setFeeMachineContract', 'feeMachineContract');\r\n\r\n        require(_feeMachineContract != address(0), \"INVALID_ADDRESS\");\r\n\r\n        feeMachineContract = IGarbiswapFeeMachine(_feeMachineContract);\r\n\r\n        garbiTimeLockContract.clearFieldValue('setFeeMachineContract', 'feeMachineContract', 1);\r\n        garbiTimeLockContract.doneTransactions('setFeeMachineContract');\r\n    }\r\n\r\n    function setTradeFee() public onlyOwner {\r\n\r\n        require(garbiTimeLockContract.isQueuedTransaction(address(this), 'setTradeFee'), \"INVALID_PERMISSION\");\r\n\r\n        uint256 _tradeFee = garbiTimeLockContract.getUintChangeOnTimeLock(address(this), 'setTradeFee', 'tradeFee');\r\n\r\n        TRADE_FEE = _tradeFee;\r\n\r\n        garbiTimeLockContract.clearFieldValue('setTradeFee', 'tradeFee', 2);\r\n        garbiTimeLockContract.doneTransactions('setTradeFee');\r\n    }\r\n\r\n    function getK() public view returns(uint256) {\r\n        uint256 baseReserve = 0;\r\n        uint256 tokenReserve = 0;\r\n        (baseReserve, tokenReserve) = getTotalReserve();\r\n        uint256 k = tokenReserve.mul(baseReserve);\r\n        return k;\r\n    }\r\n\r\n    function getTokenOutput(uint256 baseInputAmount) public view returns (uint256) {\r\n        uint256 baseReserve = 0;\r\n        uint256 tokenReserve = 0;\r\n        (baseReserve, tokenReserve) = getTotalReserve();\r\n\r\n        uint256 tradeFee = baseInputAmount.mul(TRADE_FEE).div(100000);\r\n        uint256 baseInputAmountAfterFee = baseInputAmount.sub(tradeFee); // cut the TRADE_FEE from base input\r\n\r\n        uint256 tokenOutputAmount = getTokenOutputAmountFromBaseInput(baseInputAmountAfterFee, baseReserve, tokenReserve);\r\n        return tokenOutputAmount;\r\n    }\r\n\r\n    function getBaseOutput(uint256 tokenInputAmount) public view returns (uint256) {\r\n        uint256 baseReserve = 0;\r\n        uint256 tokenReserve = 0;\r\n        (baseReserve, tokenReserve) = getTotalReserve();\r\n\r\n        uint256 tradeFee = tokenInputAmount.mul(TRADE_FEE).div(100000);\r\n        uint256 tokenInputAmountAfterFee = tokenInputAmount.sub(tradeFee); // cut the TRADE_FEE from token input\r\n\r\n        uint256 baseOutputAmount = getBaseOutputAmountFromTokenInput(tokenInputAmountAfterFee, baseReserve, tokenReserve);\r\n        return baseOutputAmount;\r\n    }\r\n\r\n    function getDataFromBaseInputToAddLp(uint256 baseInputAmount) public view returns (uint256, uint256) {\r\n        uint256 totalSupply = totalSupply();\r\n        uint256 mintLP = 0;\r\n        uint256 tokenInputAmount = 0;\r\n        if(totalSupply == 0) {\r\n            mintLP = baseInputAmount;\r\n            tokenInputAmount = baseInputAmount;\r\n        }\r\n        else { \r\n            // tokenReserve/baseReserve = (tokenReserve+tokenInputAmount)/(baseReserve+baseInputAmount)\r\n            // => tokenReserve+tokenInputAmount = tokenReserve*(baseReserve+baseInputAmount)/baseReserve\r\n            // => tokenInputAmount = tokenReserve*(baseReserve+baseInputAmount)/baseReserve - tokenReserve;\r\n            uint256 baseReserve = 0;\r\n            uint256 tokenReserve = 0;\r\n            (baseReserve, tokenReserve) = getTotalReserve();\r\n            tokenInputAmount = tokenReserve.mul(baseReserve.add(baseInputAmount)).div(baseReserve).sub(tokenReserve);\r\n            // mintLP/totalLP =  baseInputAmount/baseReserve\r\n            // mintLP = totalLP*baseInputAmount/baseReserve\r\n            mintLP = totalSupply.mul(baseInputAmount).div(baseReserve);\r\n        }\r\n        return (mintLP, tokenInputAmount);\r\n    }\r\n\r\n    function getDataFromTokenInputToAddLp(uint256 tokenInputAmount) public view returns (uint256, uint256) {\r\n        uint256 totalSupply = totalSupply();\r\n        uint256 mintLP;\r\n        uint256 baseInputAmount;\r\n        if(totalSupply == 0) {\r\n            mintLP = tokenInputAmount;\r\n            baseInputAmount = tokenInputAmount;\r\n        }\r\n        else { \r\n            // tokenReserve/baseReserve = (tokenReserve+tokenInputAmount)/(baseReserve+baseInputAmount)\r\n            // => (baseReserve+baseInputAmount) = (tokenReserve+tokenInputAmount) * baseReserve / tokenReserve\r\n            //  => baseInputAmount = (tokenReserve+tokenInputAmount) * baseReserve / tokenReserve - baseReserve\r\n            uint256 baseReserve = 0;\r\n            uint256 tokenReserve = 0;\r\n            (baseReserve, tokenReserve) = getTotalReserve();\r\n\r\n            baseInputAmount = baseReserve.mul(tokenReserve.add(tokenInputAmount)).div(tokenReserve).sub(baseReserve);\r\n            // mintLP/totalLP =  baseInputAmount/baseReserve\r\n            // mintLP = totalLP*baseInputAmount/baseReserve\r\n            mintLP = totalSupply.mul(baseInputAmount).div(baseReserve);\r\n        }\r\n        return (mintLP, baseInputAmount);\r\n    }\r\n\r\n    function getDataToRemoveLP(uint256 amountLP) public view returns (uint256, uint256){\r\n        \r\n        uint256 totalSupply = totalSupply();\r\n\r\n        if (amountLP > totalSupply) {\r\n            amountLP = totalSupply;\r\n        } \r\n        uint256 baseReserve = 0;\r\n        uint256 tokenReserve = 0;\r\n        (baseReserve, tokenReserve) = getTotalReserve();\r\n        \r\n        // amountLP/totalSupply = baseOutputAmount/baseReserve\r\n        // => baseOutputAmount = amountLP*baseReserve/totalSupply\r\n        uint256 baseOutputAmount = amountLP.mul(baseReserve).div(totalSupply);\r\n        uint256 tokenOutputAmount = amountLP.mul(tokenReserve).div(totalSupply);\r\n        \r\n        return (baseOutputAmount, tokenOutputAmount);\r\n    }\r\n    \r\n    // token*base=(token-tokenOutputAmount)*(base+baseInputAmount)\r\n    //token-tokenOutputAmount = token*base/(base+baseInputAmount)\r\n    // => tokenOutputAmount=token - token*base/(base+baseInputAmount)\r\n    function getTokenOutputAmountFromBaseInput(uint256 baseInputAmount, uint256 baseReserve, uint256 tokenReserve) public pure returns (uint256) {\r\n      require(baseReserve > 0 && tokenReserve > 0, \"INVALID_VALUE\");\r\n      uint256 numerator = tokenReserve.mul(baseReserve);\r\n      uint256 denominator = baseReserve.add(baseInputAmount);\r\n      uint256 tokenOutputAmount = tokenReserve.sub(numerator.div(denominator));\r\n      return tokenOutputAmount;\r\n    }\r\n    \r\n    // token*base=(token-tokenOutputAmount)*(base+baseInputAmount)\r\n    // base+baseInputAmount = token*base/(token-tokenOutputAmount)\r\n    //baseInputAmount = token*base/(token-tokenOutputAmount) - base;\r\n    function getBaseInputAmountFromTokenOutput(uint256 tokenOutputAmount, uint256 baseReserve, uint256 tokenReserve) public pure  returns (uint256) {\r\n      require(baseReserve > 0 && tokenReserve > 0, \"INVALID_VALUE\");\r\n      uint256 numerator = tokenReserve.mul(baseReserve);\r\n      uint256 denominator = tokenReserve.sub(tokenOutputAmount);\r\n      uint256 baseInputAmount = numerator.div(denominator).sub(baseReserve);\r\n      return baseInputAmount;\r\n    }\r\n    \r\n    // token*base=(token+tokenInputAmount)*(base-baseOutputAmount)\r\n    // => base - baseOutputAmount=token*base/(token+tokenInputAmount)\r\n    // => baseOutputAmount = base - token*base/(token+tokenInputAmount)\r\n    function getBaseOutputAmountFromTokenInput(uint256 tokenInputAmount, uint256 baseReserve, uint256 tokenReserve) public pure returns (uint256) {\r\n      require(baseReserve > 0 && tokenReserve > 0, \"INVALID_VALUE\");\r\n      uint256 numerator = tokenReserve.mul(baseReserve);\r\n      uint256 denominator = tokenReserve.add(tokenInputAmount);\r\n      uint256 baseOutputAmount = baseReserve.sub(numerator.div(denominator));\r\n      return baseOutputAmount;\r\n    }\r\n\r\n    // token*base=(token+tokenInputAmount)*(base-baseOutputAmount)\r\n    // => token+tokenInputAmount = token*base/(base-baseOutputAmount)\r\n    // => tokenInputAmount = token*base/(base-baseOutputAmount) - token\r\n    function getTokenInputAmountFromBaseOutput(uint256 baseOutputAmount, uint256 baseReserve, uint256 tokenReserve) public pure returns (uint256) {\r\n      require(baseReserve > 0 && tokenReserve > 0, \"INVALID_VALUE\");\r\n      uint256 numerator = tokenReserve.mul(baseReserve);\r\n      uint256 denominator = baseReserve.sub(baseOutputAmount);\r\n      uint256 tokenInputAmount = numerator.div(denominator).sub(tokenReserve);\r\n      return tokenInputAmount;\r\n    }\r\n\r\n    function swapBaseToTokenWithBaseInput(uint256 baseInputAmount, uint256 minTokenOutput, uint256 deadline) public onlyWhitelist {\r\n        require(deadline >= block.timestamp, 'INVALID_DEADLINE');\r\n        require(baseInputAmount > 0, 'INVALID_BASE_INPUT');\r\n        require(minTokenOutput > 0, 'INVALID_MIN_TOKEN_OUTPUT');\r\n        require(baseInputAmount <= base.balanceOf(msg.sender), 'BASE_INPUT_HIGHER_USER_BALANCE');\r\n        \r\n        uint256 baseReserve = 0;\r\n        uint256 tokenReserve = 0;\r\n        (baseReserve, tokenReserve) = getTotalReserve();\r\n        require(minTokenOutput < tokenReserve, \"MIN_TOKEN_HIGHER_POOL_TOKEN_BALANCE\");\r\n\r\n        uint256 tradeFee = baseInputAmount.mul(TRADE_FEE).div(100000);\r\n        uint256 baseInputAmountAfterFee = baseInputAmount.sub(tradeFee); // cut the TRADE_FEE from base input\r\n        \r\n        uint256 tokenOutputAmount = getTokenOutputAmountFromBaseInput(baseInputAmountAfterFee, baseReserve, tokenReserve);\r\n\r\n        require(tokenOutputAmount >= minTokenOutput, 'CAN_NOT_MAKE_TRADE');\r\n        require(tokenOutputAmount < tokenReserve, 'TOKEN_OUTPUT_HIGHER_POOL_TOKEN_BALANCE');\r\n        require(tokenOutputAmount < token.balanceOf(address(this)), 'TOKEN_OUTPUT_HIGHER_CURRENT_TRADE_BALANCE'); // output is higher than the trade contract balance\r\n        \r\n        //make trade\r\n        base.transferFrom(msg.sender, address(this), baseInputAmount);\r\n        token.transfer(msg.sender, tokenOutputAmount);\r\n\r\n        //transfer fee\r\n        base.transfer(address(feeMachineContract), tradeFee);\r\n        feeMachineContract.processTradeFee(base, msg.sender); \r\n\r\n        emit onSwapBaseToTokenWithBaseInput(msg.sender, minTokenOutput, baseInputAmount, tokenOutputAmount, baseReserve, tokenReserve);\r\n    }\r\n\r\n    function swapBaseToTokenWithTokenOutput(uint256 maxBaseInput, uint256 tokenOutputAmount, uint256 deadline) public onlyWhitelist {\r\n        require(deadline >= block.timestamp, 'INVALID_DEADLINE');\r\n        require(maxBaseInput > 0, 'INVALID_MAX_BASE_INPUT');\r\n        require(tokenOutputAmount > 0, 'INVALID_TOKEN_OUTPUT');\r\n        require(tokenOutputAmount < token.balanceOf(address(this)), 'TOKEN_OUTPUT_HIGHER_CURRENT_TRADE_BALANCE'); // output is higher than the trade contract balance\r\n        \r\n        uint256 baseReserve = 0;\r\n        uint256 tokenReserve = 0;\r\n        (baseReserve, tokenReserve) = getTotalReserve();\r\n        require(tokenOutputAmount < tokenReserve, \"TOKEN_OUTPUT_HIGHER_POOL_TOKEN_BALANCE\");\r\n\r\n        uint256 baseInputAmount = getBaseInputAmountFromTokenOutput(tokenOutputAmount, baseReserve, tokenReserve);\r\n        \r\n        uint256 tradeFee = baseInputAmount.mul(TRADE_FEE).div(100000);\r\n        baseInputAmount = baseInputAmount.add(tradeFee); // add the TRADE_FEE to base input\r\n\r\n        require(baseInputAmount <= maxBaseInput, 'CAN_NOT_MAKE_TRADE');\r\n        require(baseInputAmount > 0, 'INVALID_BASE_INPUT');\r\n        require(baseInputAmount <= base.balanceOf(msg.sender), 'BASE_INPUT_HIGHER_USER_BALANCE');\r\n        \r\n        //make trade\r\n        base.transferFrom(msg.sender, address(this), baseInputAmount);\r\n        token.transfer(msg.sender, tokenOutputAmount);\r\n\r\n        //transfer fee\r\n        base.transfer(address(feeMachineContract), tradeFee);\r\n        feeMachineContract.processTradeFee(base, msg.sender);\r\n\r\n        emit onSwapBaseToTokenWithTokenOutput(msg.sender, maxBaseInput, baseInputAmount, tokenOutputAmount, baseReserve, tokenReserve);\r\n    }\r\n\r\n    function swapTokenToBaseWithTokenInput(uint256 tokenInputAmount, uint256 minBaseOutput, uint256 deadline) public onlyWhitelist {\r\n        require(deadline >= block.timestamp, 'INVALID_DEADLINE');\r\n        require(minBaseOutput > 0, 'INVALID_MIN_BASE_OUTPUT');\r\n        require(tokenInputAmount > 0, 'INVALID_TOKEN_INPUT');\r\n        require(tokenInputAmount <= token.balanceOf(msg.sender), 'TOKEN_INPUT_HIGHER_USER_BALANCE');\r\n\r\n        uint256 baseReserve = 0;\r\n        uint256 tokenReserve = 0;\r\n        (baseReserve, tokenReserve) = getTotalReserve();\r\n        require(minBaseOutput < baseReserve, 'MIN_BASE_OUTPUT_HIGHER_POOL_BASE_BALANCE');\r\n\r\n        uint256 tradeFee = tokenInputAmount.mul(TRADE_FEE).div(100000);\r\n        uint256 tokenInputAmountAfterFee = tokenInputAmount.sub(tradeFee); // cut the TRADE_FEE from token input\r\n        \r\n        uint256 baseOutputAmount = getBaseOutputAmountFromTokenInput(tokenInputAmountAfterFee, baseReserve, tokenReserve);\r\n\r\n        require(baseOutputAmount >= minBaseOutput, 'CAN_NOT_MAKE_TRADE');\r\n        require(baseOutputAmount < baseReserve, 'BASE_OUTPUT_HIGHER_POOL_BASE_BALANCE');\r\n        require(baseOutputAmount < base.balanceOf(address(this)), 'BASE_OUTPUT_HIGHER_CURRENT_TRADE_BALANCE'); // output is higher than the trade contract balance\r\n\r\n        //make trade\r\n        token.transferFrom(msg.sender, address(this), tokenInputAmount);\r\n        base.transfer(msg.sender, baseOutputAmount);\r\n\r\n        //transfer fee\r\n        token.transfer(address(feeMachineContract), tradeFee);\r\n        feeMachineContract.processTradeFee(token, msg.sender);\r\n\r\n        emit onSwapTokenToBaseWithTokenInput(msg.sender, minBaseOutput, tokenInputAmount, baseOutputAmount, baseReserve, tokenReserve);\r\n    }\r\n\r\n    function swapTokenToBaseWithBaseOutput(uint256 maxTokenInput, uint256 baseOutputAmount, uint256 deadline) public onlyWhitelist {\r\n        require(deadline >= block.timestamp, 'INVALID_DEADLINE');\r\n        require(maxTokenInput > 0, 'INVALID_MAX_TOKEN_INPUT');\r\n        require(baseOutputAmount > 0, 'INVALID_BASE_OUTPUT');\r\n        require(baseOutputAmount < base.balanceOf(address(this)), 'BASE_OUTPUT_HIGHER_CURRENT_TRADE_BALANCE'); // output is higher than the trade contract balance\r\n\r\n        uint256 baseReserve = 0;\r\n        uint256 tokenReserve = 0;\r\n        (baseReserve, tokenReserve) = getTotalReserve();\r\n        require(baseOutputAmount < baseReserve, 'BASE_OUTPUT_HIGHER_POOL_BASE_BALANCE');\r\n\r\n        uint256 tokenInputAmount = getTokenInputAmountFromBaseOutput(baseOutputAmount, baseReserve, tokenReserve);\r\n        \r\n        uint256 tradeFee = tokenInputAmount.mul(TRADE_FEE).div(100000);\r\n        tokenInputAmount = tokenInputAmount.add(tradeFee); // add the TRADE_FEE to token input\r\n\r\n        require(tokenInputAmount <= maxTokenInput, 'CAN_NOT_MAKE_TRADE');\r\n        require(tokenInputAmount > 0, 'INVALID_TOKEN_INPUT');\r\n        require(tokenInputAmount <= token.balanceOf(msg.sender), 'TOKEN_INPUT_HIGHER_USER_BALANCE');\r\n\r\n        //make trade\r\n        token.transferFrom(msg.sender, address(this), tokenInputAmount);\r\n        base.transfer(msg.sender, baseOutputAmount);\r\n\r\n        //transfer fee\r\n        token.transfer(address(feeMachineContract), tradeFee);\r\n        feeMachineContract.processTradeFee(token, msg.sender);\r\n\r\n        emit onSwapTokenToBaseWithBaseOutput(msg.sender, maxTokenInput, tokenInputAmount, baseOutputAmount, baseReserve, tokenReserve);\r\n    }\r\n\r\n    function addLP(uint256 minLP, uint256 baseInputAmount, uint256 maxTokenInputAmount, uint256 deadline) public onlyWhitelist returns (uint256) {\r\n        require(deadline >= block.timestamp, 'INVALID_DEADLINE');\r\n        require(minLP > 0, 'INVALID_MIN_LP');\r\n        require(baseInputAmount > 0, 'INVALID_BASE_INPUT');\r\n        require(maxTokenInputAmount > 0, 'INVALID_MAX_TOKEN_INPUT');\r\n        \r\n        uint256 totalSupply = totalSupply();\r\n        if(totalSupply == 0) {\r\n            base.transferFrom(msg.sender, address(this), baseInputAmount);\r\n            token.transferFrom(msg.sender, address(this), maxTokenInputAmount);\r\n            uint256 initLP = baseInputAmount;\r\n            _mint(msg.sender, initLP);\r\n            emit onAddLP(msg.sender, initLP, baseInputAmount, maxTokenInputAmount, base.balanceOf(address(this)), token.balanceOf(address(this)));\r\n            return initLP;\r\n        }\r\n        else { \r\n            // tokenReserve/baseReserve = (tokenReserve+tokenInputAmount)/(baseReserve+baseInputAmount)\r\n            // => tokenReserve+tokenInputAmount = tokenReserve*(baseReserve+baseInputAmount)/baseReserve\r\n            // => tokenInputAmount = tokenReserve*(baseReserve+baseInputAmount)/baseReserve - tokenReserve;\r\n            uint256 baseReserve = 0;\r\n            uint256 tokenReserve = 0;\r\n            (baseReserve, tokenReserve) = getTotalReserve();\r\n            uint256 tokenInputAmount = tokenReserve.mul(baseReserve.add(baseInputAmount)).div(baseReserve).sub(tokenReserve);\r\n            // mintLP/totalLP =  baseInputAmount/baseReserve\r\n            // mintLP = totalLP*baseInputAmount/baseReserve\r\n            uint256 mintLP = totalSupply.mul(baseInputAmount).div(baseReserve);\r\n            \r\n            require(tokenInputAmount > 0, 'INVALID_TOKEN_INPUT');\r\n            require(tokenInputAmount <= maxTokenInputAmount, 'INVALID_TOKEN_INPUT');\r\n            require(mintLP >= minLP, \"INVALID_MINT_LP\");\r\n\r\n            base.transferFrom(msg.sender, address(this), baseInputAmount);\r\n            token.transferFrom(msg.sender, address(this), tokenInputAmount);\r\n            _mint(msg.sender, mintLP);\r\n            emit onAddLP(msg.sender, mintLP, baseInputAmount, tokenInputAmount, base.balanceOf(address(this)), token.balanceOf(address(this)));\r\n            return mintLP;\r\n        }\r\n    }\r\n\r\n    function removeLP(uint256 amountLP, uint256 minBaseOutput, uint256 minTokenOutput, uint256 deadline) public onlyWhitelist returns (uint256, uint256){\r\n        require(deadline >= block.timestamp, 'INVALID_DEADLINE');\r\n        require(amountLP > 0, 'INVALID_AMOUNT_LP');\r\n        require(minBaseOutput > 0, 'INVALID_MIN_BASE_OUTPUT');\r\n        require(minTokenOutput > 0, 'INVALID_MIN_TOKEN_OUTPUT');\r\n        \r\n        uint256 totalSupply = totalSupply();\r\n        \r\n        uint256 userLPbalance = balanceOf(msg.sender);\r\n        if(amountLP > userLPbalance) {\r\n            amountLP = userLPbalance;\r\n        }\r\n\r\n        require(amountLP <= totalSupply, 'INVALID_AMOUNT_LP_TOTAL_SUPPLY');\r\n         \r\n        uint256 baseReserve = 0;\r\n        uint256 tokenReserve = 0;\r\n        (baseReserve, tokenReserve) = getTotalReserve();\r\n        \r\n        // amountLP/totalSupply = baseOutputAmount/baseReserve\r\n        // => baseOutputAmount = amountLP*baseReserve/totalSupply\r\n        uint256 baseOutputAmount = amountLP.mul(baseReserve).div(totalSupply);\r\n        uint256 tokenOutputAmount = amountLP.mul(tokenReserve).div(totalSupply);\r\n        require(baseOutputAmount >= minBaseOutput, \"INVALID_BASE_OUTPUT\");\r\n        require(tokenOutputAmount >= minTokenOutput, \"INVALID_TOKEN_OUTPUT\");\r\n        require(baseOutputAmount <= baseReserve, \"BASE_OUTPUT_HIGHER_BASE_BALANCE\");\r\n        require(tokenOutputAmount <= tokenReserve, \"TOKEN_OUTPUT_HIGHER_TOKEN_BALANCE\");\r\n\r\n        _burn(msg.sender, amountLP);\r\n        base.transfer(msg.sender, baseOutputAmount);\r\n        token.transfer(msg.sender, tokenOutputAmount);\r\n        emit onRemoveLP(msg.sender, amountLP, baseOutputAmount, tokenOutputAmount, base.balanceOf(address(this)), token.balanceOf(address(this)));\r\n        return (baseOutputAmount, tokenOutputAmount);\r\n    }\r\n\r\n    function getTotalReserve() public view returns (uint256, uint256) { \r\n        uint256 baseReserve = base.balanceOf(address(this));\r\n        uint256 tokenReserve = token.balanceOf(address(this));\r\n\r\n        return (baseReserve, tokenReserve);\r\n    }\r\n}",
  "sourcePath": "C:\\Users\\David\\Documents\\NetBeansProjects\\garbiprotocol.github.io\\garbi_contracts\\contracts\\GarbiswapTradeUSDTUSDC.sol",
  "compiler": {
    "name": "solc",
    "version": "0.8.17+commit.8df45f5f.Emscripten.clang"
  },
  "schemaVersion": "3.4.11",
  "updatedAt": "2023-01-10T04:49:53.905Z",
  "devdoc": {
    "kind": "dev",
    "methods": {
      "allowance(address,address)": {
        "details": "See {IERC20-allowance}."
      },
      "approve(address,uint256)": {
        "details": "See {IERC20-approve}. NOTE: If `amount` is the maximum `uint256`, the allowance is not updated on `transferFrom`. This is semantically equivalent to an infinite approval. Requirements: - `spender` cannot be the zero address."
      },
      "balanceOf(address)": {
        "details": "See {IERC20-balanceOf}."
      },
      "burn(uint256)": {
        "details": "Destroys `amount` tokens from the caller. See {ERC20-_burn}."
      },
      "burnFrom(address,uint256)": {
        "details": "Destroys `amount` tokens from `account`, deducting from the caller's allowance. See {ERC20-_burn} and {ERC20-allowance}. Requirements: - the caller must have allowance for ``accounts``'s tokens of at least `amount`."
      },
      "decimals()": {
        "details": "Returns the number of decimals used to get its user representation. For example, if `decimals` equals `2`, a balance of `505` tokens should be displayed to a user as `5.05` (`505 / 10 ** 2`). Tokens usually opt for a value of 18, imitating the relationship between Ether and Wei. This is the value {ERC20} uses, unless this function is overridden; NOTE: This information is only used for _display_ purposes: it in no way affects any of the arithmetic of the contract, including {IERC20-balanceOf} and {IERC20-transfer}."
      },
      "decreaseAllowance(address,uint256)": {
        "details": "Atomically decreases the allowance granted to `spender` by the caller. This is an alternative to {approve} that can be used as a mitigation for problems described in {IERC20-approve}. Emits an {Approval} event indicating the updated allowance. Requirements: - `spender` cannot be the zero address. - `spender` must have allowance for the caller of at least `subtractedValue`."
      },
      "increaseAllowance(address,uint256)": {
        "details": "Atomically increases the allowance granted to `spender` by the caller. This is an alternative to {approve} that can be used as a mitigation for problems described in {IERC20-approve}. Emits an {Approval} event indicating the updated allowance. Requirements: - `spender` cannot be the zero address."
      },
      "name()": {
        "details": "Returns the name of the token."
      },
      "owner()": {
        "details": "Returns the address of the current owner."
      },
      "renounceOwnership()": {
        "details": "Leaves the contract without owner. It will not be possible to call `onlyOwner` functions anymore. Can only be called by the current owner. NOTE: Renouncing ownership will leave the contract without an owner, thereby removing any functionality that is only available to the owner."
      },
      "symbol()": {
        "details": "Returns the symbol of the token, usually a shorter version of the name."
      },
      "totalSupply()": {
        "details": "See {IERC20-totalSupply}."
      },
      "transfer(address,uint256)": {
        "details": "See {IERC20-transfer}. Requirements: - `to` cannot be the zero address. - the caller must have a balance of at least `amount`."
      },
      "transferFrom(address,address,uint256)": {
        "details": "See {IERC20-transferFrom}. Emits an {Approval} event indicating the updated allowance. This is not required by the EIP. See the note at the beginning of {ERC20}. NOTE: Does not update the allowance if the current allowance is the maximum `uint256`. Requirements: - `from` and `to` cannot be the zero address. - `from` must have a balance of at least `amount`. - the caller must have allowance for ``from``'s tokens of at least `amount`."
      },
      "transferOwnership(address)": {
        "details": "Transfers ownership of the contract to a new account (`newOwner`). Can only be called by the current owner."
      }
    },
    "version": 1
  },
  "userdoc": {
    "kind": "user",
    "methods": {},
    "version": 1
  }
}