{
  "contractName": "GarbiRepositoryManager",
  "abi": [
    {
      "inputs": [
        {
          "internalType": "contract IERC20withBurnAndMint",
          "name": "garbiECContract",
          "type": "address"
        },
        {
          "internalType": "contract IGarbiswapWhitelist",
          "name": "whitelistContract",
          "type": "address"
        }
      ],
      "stateMutability": "nonpayable",
      "type": "constructor"
    },
    {
      "anonymous": false,
      "inputs": [
        {
          "indexed": true,
          "internalType": "address",
          "name": "previousOwner",
          "type": "address"
        },
        {
          "indexed": true,
          "internalType": "address",
          "name": "newOwner",
          "type": "address"
        }
      ],
      "name": "OwnershipTransferred",
      "type": "event"
    },
    {
      "anonymous": false,
      "inputs": [
        {
          "indexed": false,
          "internalType": "address",
          "name": "account",
          "type": "address"
        }
      ],
      "name": "Paused",
      "type": "event"
    },
    {
      "anonymous": false,
      "inputs": [
        {
          "indexed": false,
          "internalType": "address",
          "name": "account",
          "type": "address"
        }
      ],
      "name": "Unpaused",
      "type": "event"
    },
    {
      "anonymous": false,
      "inputs": [
        {
          "indexed": false,
          "internalType": "address",
          "name": "repoAddress",
          "type": "address"
        },
        {
          "indexed": false,
          "internalType": "uint256",
          "name": "repoShare",
          "type": "uint256"
        },
        {
          "indexed": false,
          "internalType": "uint256",
          "name": "repoMaxCapacityLimit",
          "type": "uint256"
        }
      ],
      "name": "onAddRepository",
      "type": "event"
    },
    {
      "anonymous": false,
      "inputs": [
        {
          "indexed": false,
          "internalType": "address",
          "name": "user",
          "type": "address"
        },
        {
          "indexed": false,
          "internalType": "address",
          "name": "repoInAddress",
          "type": "address"
        },
        {
          "indexed": false,
          "internalType": "uint256",
          "name": "assetInAmount",
          "type": "uint256"
        },
        {
          "indexed": false,
          "internalType": "uint256",
          "name": "garbiECOutAmount",
          "type": "uint256"
        }
      ],
      "name": "onBuyGarbiEC",
      "type": "event"
    },
    {
      "anonymous": false,
      "inputs": [
        {
          "indexed": false,
          "internalType": "address",
          "name": "user",
          "type": "address"
        },
        {
          "indexed": false,
          "internalType": "address",
          "name": "repoOutAddress",
          "type": "address"
        },
        {
          "indexed": false,
          "internalType": "uint256",
          "name": "assetOutAmount",
          "type": "uint256"
        },
        {
          "indexed": false,
          "internalType": "uint256",
          "name": "garbiECInAmount",
          "type": "uint256"
        }
      ],
      "name": "onSellGarbiEC",
      "type": "event"
    },
    {
      "anonymous": false,
      "inputs": [
        {
          "indexed": false,
          "internalType": "address",
          "name": "user",
          "type": "address"
        },
        {
          "indexed": false,
          "internalType": "address",
          "name": "repoInAddress",
          "type": "address"
        },
        {
          "indexed": false,
          "internalType": "address",
          "name": "repoOutAddress",
          "type": "address"
        },
        {
          "indexed": false,
          "internalType": "uint256",
          "name": "tokenInputAmount",
          "type": "uint256"
        },
        {
          "indexed": false,
          "internalType": "uint256",
          "name": "tokenOutputAmount",
          "type": "uint256"
        }
      ],
      "name": "onSwapTokenToToken",
      "type": "event"
    },
    {
      "anonymous": false,
      "inputs": [
        {
          "indexed": false,
          "internalType": "address",
          "name": "repoAddress",
          "type": "address"
        },
        {
          "indexed": false,
          "internalType": "uint256",
          "name": "repoShare",
          "type": "uint256"
        },
        {
          "indexed": false,
          "internalType": "uint256",
          "name": "repoMaxCapacityLimit",
          "type": "uint256"
        }
      ],
      "name": "onUpdateRepository",
      "type": "event"
    },
    {
      "inputs": [],
      "name": "GarbiEC",
      "outputs": [
        {
          "internalType": "contract IERC20withBurnAndMint",
          "name": "",
          "type": "address"
        }
      ],
      "stateMutability": "view",
      "type": "function",
      "constant": true
    },
    {
      "inputs": [
        {
          "internalType": "address",
          "name": "",
          "type": "address"
        }
      ],
      "name": "baseToRepo",
      "outputs": [
        {
          "internalType": "address",
          "name": "",
          "type": "address"
        }
      ],
      "stateMutability": "view",
      "type": "function",
      "constant": true
    },
    {
      "inputs": [],
      "name": "owner",
      "outputs": [
        {
          "internalType": "address",
          "name": "",
          "type": "address"
        }
      ],
      "stateMutability": "view",
      "type": "function",
      "constant": true
    },
    {
      "inputs": [],
      "name": "paused",
      "outputs": [
        {
          "internalType": "bool",
          "name": "",
          "type": "bool"
        }
      ],
      "stateMutability": "view",
      "type": "function",
      "constant": true
    },
    {
      "inputs": [],
      "name": "platformFundAddress",
      "outputs": [
        {
          "internalType": "address",
          "name": "",
          "type": "address"
        }
      ],
      "stateMutability": "view",
      "type": "function",
      "constant": true
    },
    {
      "inputs": [],
      "name": "renounceOwnership",
      "outputs": [],
      "stateMutability": "nonpayable",
      "type": "function"
    },
    {
      "inputs": [
        {
          "internalType": "uint256",
          "name": "",
          "type": "uint256"
        }
      ],
      "name": "repoAddresses",
      "outputs": [
        {
          "internalType": "address",
          "name": "",
          "type": "address"
        }
      ],
      "stateMutability": "view",
      "type": "function",
      "constant": true
    },
    {
      "inputs": [
        {
          "internalType": "address",
          "name": "",
          "type": "address"
        }
      ],
      "name": "repoList",
      "outputs": [
        {
          "internalType": "uint256",
          "name": "share",
          "type": "uint256"
        },
        {
          "internalType": "uint256",
          "name": "maxCapacityLimit",
          "type": "uint256"
        }
      ],
      "stateMutability": "view",
      "type": "function",
      "constant": true
    },
    {
      "inputs": [],
      "name": "totalShares",
      "outputs": [
        {
          "internalType": "uint256",
          "name": "",
          "type": "uint256"
        }
      ],
      "stateMutability": "view",
      "type": "function",
      "constant": true
    },
    {
      "inputs": [
        {
          "internalType": "address",
          "name": "newOwner",
          "type": "address"
        }
      ],
      "name": "transferOwnership",
      "outputs": [],
      "stateMutability": "nonpayable",
      "type": "function"
    },
    {
      "inputs": [],
      "name": "whitelist",
      "outputs": [
        {
          "internalType": "contract IGarbiswapWhitelist",
          "name": "",
          "type": "address"
        }
      ],
      "stateMutability": "view",
      "type": "function",
      "constant": true
    },
    {
      "inputs": [
        {
          "internalType": "address",
          "name": "repoAddress",
          "type": "address"
        },
        {
          "internalType": "uint256",
          "name": "repoShare",
          "type": "uint256"
        },
        {
          "internalType": "uint256",
          "name": "repoMaxCapacityLimit",
          "type": "uint256"
        }
      ],
      "name": "addRepository",
      "outputs": [],
      "stateMutability": "nonpayable",
      "type": "function"
    },
    {
      "inputs": [
        {
          "internalType": "address",
          "name": "repoAddress",
          "type": "address"
        },
        {
          "internalType": "uint256",
          "name": "repoShare",
          "type": "uint256"
        },
        {
          "internalType": "uint256",
          "name": "repoMaxCapacityLimit",
          "type": "uint256"
        }
      ],
      "name": "updateRepository",
      "outputs": [],
      "stateMutability": "nonpayable",
      "type": "function"
    },
    {
      "inputs": [
        {
          "internalType": "uint256",
          "name": "newTotalShares",
          "type": "uint256"
        }
      ],
      "name": "setTotalShares",
      "outputs": [],
      "stateMutability": "nonpayable",
      "type": "function"
    },
    {
      "inputs": [
        {
          "internalType": "uint256",
          "name": "newFee",
          "type": "uint256"
        }
      ],
      "name": "setSellGarbiECFee",
      "outputs": [],
      "stateMutability": "nonpayable",
      "type": "function"
    },
    {
      "inputs": [
        {
          "internalType": "address",
          "name": "newAddress",
          "type": "address"
        }
      ],
      "name": "setPlatformFundAdress",
      "outputs": [],
      "stateMutability": "nonpayable",
      "type": "function"
    },
    {
      "inputs": [
        {
          "internalType": "contract IERC20withBurnAndMint",
          "name": "newGarbiECContract",
          "type": "address"
        }
      ],
      "name": "setGarbiEquityCertificateContract",
      "outputs": [],
      "stateMutability": "nonpayable",
      "type": "function"
    },
    {
      "inputs": [
        {
          "internalType": "address",
          "name": "repoInAddress",
          "type": "address"
        },
        {
          "internalType": "uint256",
          "name": "assetInAmount",
          "type": "uint256"
        }
      ],
      "name": "buyGarbiEquityCertificate",
      "outputs": [],
      "stateMutability": "nonpayable",
      "type": "function"
    },
    {
      "inputs": [
        {
          "internalType": "address",
          "name": "repoOutAddress",
          "type": "address"
        },
        {
          "internalType": "uint256",
          "name": "garbiECInAmount",
          "type": "uint256"
        }
      ],
      "name": "sellGarbiEquityCertificate",
      "outputs": [],
      "stateMutability": "nonpayable",
      "type": "function"
    },
    {
      "inputs": [
        {
          "internalType": "address",
          "name": "repoInAddress",
          "type": "address"
        },
        {
          "internalType": "address",
          "name": "repoOutAddress",
          "type": "address"
        },
        {
          "internalType": "uint256",
          "name": "tokenInputAmount",
          "type": "uint256"
        },
        {
          "internalType": "uint256",
          "name": "minTokenOutputAmount",
          "type": "uint256"
        }
      ],
      "name": "swapTokenToTokenWithTokenInput",
      "outputs": [],
      "stateMutability": "nonpayable",
      "type": "function"
    },
    {
      "inputs": [
        {
          "internalType": "contract IGarbiRepository",
          "name": "repoIn",
          "type": "address"
        },
        {
          "internalType": "contract IGarbiRepository",
          "name": "repoOut",
          "type": "address"
        },
        {
          "internalType": "uint256",
          "name": "tokenInputAmount",
          "type": "uint256"
        }
      ],
      "name": "getTokenOutputAmountFromTokenInput",
      "outputs": [
        {
          "internalType": "uint256",
          "name": "",
          "type": "uint256"
        }
      ],
      "stateMutability": "view",
      "type": "function",
      "constant": true
    },
    {
      "inputs": [
        {
          "internalType": "address",
          "name": "repoInAddress",
          "type": "address"
        },
        {
          "internalType": "address",
          "name": "repoOutAddress",
          "type": "address"
        },
        {
          "internalType": "uint256",
          "name": "tokenInputAmount",
          "type": "uint256"
        }
      ],
      "name": "getTokenOutputWithFee",
      "outputs": [
        {
          "internalType": "uint256",
          "name": "",
          "type": "uint256"
        }
      ],
      "stateMutability": "view",
      "type": "function",
      "constant": true
    },
    {
      "inputs": [],
      "name": "getGarbiECPrice",
      "outputs": [
        {
          "internalType": "uint256",
          "name": "garbiECPrice",
          "type": "uint256"
        }
      ],
      "stateMutability": "view",
      "type": "function",
      "constant": true
    },
    {
      "inputs": [
        {
          "internalType": "address",
          "name": "repoInAddress",
          "type": "address"
        },
        {
          "internalType": "uint256",
          "name": "assetInAmount",
          "type": "uint256"
        }
      ],
      "name": "getDataToBuyGarbiEC",
      "outputs": [
        {
          "internalType": "uint256",
          "name": "garbiECOutAmount",
          "type": "uint256"
        }
      ],
      "stateMutability": "view",
      "type": "function",
      "constant": true
    },
    {
      "inputs": [
        {
          "internalType": "address",
          "name": "repoOutAddress",
          "type": "address"
        },
        {
          "internalType": "uint256",
          "name": "garbiECInAmount",
          "type": "uint256"
        }
      ],
      "name": "getDataToSellGarbiEC",
      "outputs": [
        {
          "internalType": "uint256",
          "name": "assetOutAmount",
          "type": "uint256"
        }
      ],
      "stateMutability": "view",
      "type": "function",
      "constant": true
    },
    {
      "inputs": [
        {
          "internalType": "address",
          "name": "repoOutAddress",
          "type": "address"
        },
        {
          "internalType": "uint256",
          "name": "garbiECInAmount",
          "type": "uint256"
        }
      ],
      "name": "getDataToSellGarbiECWithFee",
      "outputs": [
        {
          "internalType": "uint256",
          "name": "assetOutAmountAfterFee",
          "type": "uint256"
        }
      ],
      "stateMutability": "view",
      "type": "function",
      "constant": true
    },
    {
      "inputs": [],
      "name": "getTotalAllRepoCapacityByUSD",
      "outputs": [
        {
          "internalType": "uint256",
          "name": "totalCapacityByUSD",
          "type": "uint256"
        }
      ],
      "stateMutability": "view",
      "type": "function",
      "constant": true
    },
    {
      "inputs": [
        {
          "internalType": "address",
          "name": "repoOutAddress",
          "type": "address"
        },
        {
          "internalType": "uint256",
          "name": "assetOutAmount",
          "type": "uint256"
        },
        {
          "internalType": "uint256",
          "name": "baseFee",
          "type": "uint256"
        }
      ],
      "name": "getSellGarbiECDynamicFee",
      "outputs": [
        {
          "internalType": "uint256",
          "name": "fee",
          "type": "uint256"
        }
      ],
      "stateMutability": "view",
      "type": "function",
      "constant": true
    },
    {
      "inputs": [
        {
          "internalType": "address",
          "name": "repoOutAddress",
          "type": "address"
        },
        {
          "internalType": "uint256",
          "name": "assetOutAmount",
          "type": "uint256"
        }
      ],
      "name": "getFeeWithOutAmount",
      "outputs": [
        {
          "internalType": "uint256",
          "name": "sellGarbiECfee",
          "type": "uint256"
        },
        {
          "internalType": "uint256",
          "name": "swapFee",
          "type": "uint256"
        }
      ],
      "stateMutability": "view",
      "type": "function",
      "constant": true
    }
  ],
  "bytecode": "0x60806040526103e8600355602360085560016009553480156200002157600080fd5b50604051620032f0380380620032f083398101604081905262000044916200012d565b60016000556200005433620000c2565b6001805460ff60a01b19169055600780546001600160a01b038085166001600160a01b0319928316179092556002805492841692909116919091179055620000993390565b600a80546001600160a01b0319166001600160a01b0392909216919091179055506200016c9050565b600180546001600160a01b038381166001600160a01b0319831681179093556040519116919082907f8be0079c531659141344cd1fd0a4f28419497f9722a3daafe3b4186f6b6457e090600090a35050565b6001600160a01b03811681146200012a57600080fd5b50565b600080604083850312156200014157600080fd5b82516200014e8162000114565b6020840151909250620001618162000114565b809150509250929050565b613174806200017c6000396000f3fe608060405234801561001057600080fd5b50600436106101cf5760003560e01c8063a77384c111610104578063d3b76e5c116100a2578063f2fde38b11610071578063f2fde38b146103de578063f71c37bb146103f1578063fc1359d014610404578063ff78a6541461042d57600080fd5b8063d3b76e5c14610389578063ebf3da9314610391578063ec3a39c4146103a4578063eef4a00e146103b757600080fd5b8063b606e611116100de578063b606e61114610348578063bdb4da2e14610350578063c8de836814610363578063d1dc64cf1461037657600080fd5b8063a77384c1146102fa578063a84f57f51461030d578063b0baa1f31461033557600080fd5b80635c975abb116101715780638fe6041d1161014b5780638fe6041d146102ae57806393e59dc1146102c15780639fa5e63e146102d4578063a5f270b7146102e757600080fd5b80635c975abb14610264578063715018a6146102815780638da5cb5b1461028957600080fd5b80631cf67b7d116101ad5780631cf67b7d14610222578063357e4733146102355780633a98ef3914610248578063459f5e321461025157600080fd5b806305e90618146101d45780630bc8f11c146101fa57806319b1d0d81461020f575b600080fd5b6101e76101e2366004612e72565b610440565b6040519081526020015b60405180910390f35b61020d610208366004612eb3565b61052e565b005b61020d61021d366004612edf565b610c60565b6101e7610230366004612e72565b6112d7565b61020d610243366004612f25565b6113fc565b6101e760035481565b6101e761025f366004612eb3565b61144c565b600154600160a01b900460ff1660405190151581526020016101f1565b61020d611575565b6001546001600160a01b03165b6040516001600160a01b0390911681526020016101f1565b61020d6102bc366004612f25565b611589565b600254610296906001600160a01b031681565b600a54610296906001600160a01b031681565b6101e76102f5366004612eb3565b6115b3565b61020d610308366004612f49565b6116b2565b61032061031b366004612eb3565b6116df565b604080519283526020830191909152016101f1565b61020d610343366004612f62565b611873565b6101e7611a7d565b61020d61035e366004612eb3565b611b8a565b6101e7610371366004612eb3565b6122ec565b61020d610384366004612f62565b61237c565b6101e76124b2565b61029661039f366004612f49565b612637565b6101e76103b2366004612f62565b612661565b6103206103c5366004612f25565b6005602052600090815260409020805460019091015482565b61020d6103ec366004612f25565b61278a565b600754610296906001600160a01b031681565b610296610412366004612f25565b6006602052600090815260409020546001600160a01b031681565b61020d61043b366004612f49565b612803565b600080846001600160a01b031663b49f4afd6040518163ffffffff1660e01b8152600401602060405180830381865afa158015610481573d6000803e3d6000fd5b505050506040513d601f19601f820116820180604052508101906104a59190612f97565b90506000846001600160a01b031663b49f4afd6040518163ffffffff1660e01b8152600401602060405180830381865afa1580156104e7573d6000803e3d6000fd5b505050506040513d601f19601f8201168201806040525081019061050b9190612f97565b905060006105238261051d8786612830565b90612845565b979650505050505050565b610536612851565b816001600160a01b0381166105665760405162461bcd60e51b815260040161055d90612fb0565b60405180910390fd5b6000805b6004548110156105c657826001600160a01b03166004828154811061059157610591612fde565b6000918252602090912001546001600160a01b0316036105b457600191506105c6565b806105be8161300a565b91505061056a565b50806001146105e75760405162461bcd60e51b815260040161055d90613023565b33321461067b57600254604051636c9b2a3f60e11b81523360048201526001600160a01b039091169063d936547e90602401602060405180830381865afa158015610636573d6000803e3d6000fd5b505050506040513d601f19601f8201168201806040525081019061065a919061304f565b151560011461067b5760405162461bcd60e51b815260040161055d90613071565b600083116106c25760405162461bcd60e51b81526020600482015260146024820152731253959053125117d054d4d15517d05353d5539560621b604482015260640161055d565b6001600160a01b0384166000908152600560205260409020546107165760405162461bcd60e51b815260206004820152600c60248201526b494e56414c49445f5245504f60a01b604482015260640161055d565b600084905060056000866001600160a01b03166001600160a01b03168152602001908152602001600020600101546107b085836001600160a01b03166329b315d76040518163ffffffff1660e01b8152600401602060405180830381865afa158015610786573d6000803e3d6000fd5b505050506040513d601f19601f820116820180604052508101906107aa9190612f97565b906128aa565b11156107f75760405162461bcd60e51b8152602060048201526016602482015275494e56414c49445f41535345545f434150414349545960501b604482015260640161055d565b6000816001600160a01b0316635001f3b56040518163ffffffff1660e01b8152600401602060405180830381865afa158015610837573d6000803e3d6000fd5b505050506040513d601f19601f8201168201806040525081019061085b919061309c565b6040516370a0823160e01b81523360048201529091506000906001600160a01b038316906370a0823190602401602060405180830381865afa1580156108a5573d6000803e3d6000fd5b505050506040513d601f19601f820116820180604052508101906108c99190612f97565b9050826001600160a01b031663af7dfc8382856001600160a01b031663db7b373e6040518163ffffffff1660e01b8152600401602060405180830381865afa158015610919573d6000803e3d6000fd5b505050506040513d601f19601f8201168201806040525081019061093d9190612f97565b6040516001600160e01b031960e085901b16815260048101929092526024820152604401602060405180830381865afa15801561097e573d6000803e3d6000fd5b505050506040513d601f19601f820116820180604052508101906109a29190612f97565b9050808611156109b0578095505b60006109bc88886122ec565b604051633e7bbdcf60e11b815260048101899052601260248201529091506000906001600160a01b03861690637cf77b9e90604401602060405180830381865afa158015610a0e573d6000803e3d6000fd5b505050506040513d601f19601f82011682018060405250810190610a329190612f97565b6040516323b872dd60e01b8152336004820152306024820152604481018290529091506001600160a01b038516906323b872dd906064016020604051808303816000875af1158015610a88573d6000803e3d6000fd5b505050506040513d601f19601f82011682018060405250810190610aac919061304f565b506007546040516340c10f1960e01b8152306004820152602481018490526001600160a01b03909116906340c10f1990604401600060405180830381600087803b158015610af957600080fd5b505af1158015610b0d573d6000803e3d6000fd5b505060405163a9059cbb60e01b81526001600160a01b038c81166004830152602482018590528716925063a9059cbb91506044016020604051808303816000875af1158015610b60573d6000803e3d6000fd5b505050506040513d601f19601f82011682018060405250810190610b84919061304f565b5060075460405163a9059cbb60e01b8152336004820152602481018490526001600160a01b039091169063a9059cbb906044016020604051808303816000875af1158015610bd6573d6000803e3d6000fd5b505050506040513d601f19601f82011682018060405250810190610bfa919061304f565b50604080513381526001600160a01b038b166020820152908101899052606081018390527f28b2a32484c6b4c70369af6ce67fc8bd54394b3d31d4ce7c84579537dac1a67d9060800160405180910390a150505050505050610c5c6001600055565b5050565b836001600160a01b038116610c875760405162461bcd60e51b815260040161055d90612fb0565b6000805b600454811015610ce757826001600160a01b031660048281548110610cb257610cb2612fde565b6000918252602090912001546001600160a01b031603610cd55760019150610ce7565b80610cdf8161300a565b915050610c8b565b5080600114610d085760405162461bcd60e51b815260040161055d90613023565b846001600160a01b038116610d2f5760405162461bcd60e51b815260040161055d90612fb0565b6000805b600454811015610d8f57826001600160a01b031660048281548110610d5a57610d5a612fde565b6000918252602090912001546001600160a01b031603610d7d5760019150610d8f565b80610d878161300a565b915050610d33565b5080600114610db05760405162461bcd60e51b815260040161055d90613023565b610db8612851565b333214610e4c57600254604051636c9b2a3f60e11b81523360048201526001600160a01b039091169063d936547e90602401602060405180830381865afa158015610e07573d6000803e3d6000fd5b505050506040513d601f19601f82011682018060405250810190610e2b919061304f565b1515600114610e4c5760405162461bcd60e51b815260040161055d90613071565b610e546128b6565b866001600160a01b0316886001600160a01b031603610ea45760405162461bcd60e51b815260206004820152600c60248201526b24a72b20a624a22fa820a4a960a11b604482015260640161055d565b60008611610ef45760405162461bcd60e51b815260206004820152601a60248201527f494e56414c49445f544f4b454e5f494e5055545f414d4f554e54000000000000604482015260640161055d565b60008511610f445760405162461bcd60e51b815260206004820152601f60248201527f494e56414c49445f4d494e5f544f4b454e5f4f55545055545f414d4f554e5400604482015260640161055d565b87876000610f5383838b610440565b9050816001600160a01b03166329b315d76040518163ffffffff1660e01b8152600401602060405180830381865afa158015610f93573d6000803e3d6000fd5b505050506040513d601f19601f82011682018060405250810190610fb79190612f97565b811115610ffb5760405162461bcd60e51b81526020600482015260126024820152711253959053125117d3d55517d05353d5539560721b604482015260640161055d565b878110156110405760405162461bcd60e51b815260206004820152601260248201527143414e5f4e4f545f4d414b455f545241444560701b604482015260640161055d565b6000836001600160a01b0316635001f3b56040518163ffffffff1660e01b8152600401602060405180830381865afa158015611080573d6000803e3d6000fd5b505050506040513d601f19601f820116820180604052508101906110a4919061309c565b6040516370a0823160e01b81523360048201529091506000906001600160a01b038087169163af7dfc83918516906370a0823190602401602060405180830381865afa1580156110f8573d6000803e3d6000fd5b505050506040513d601f19601f8201168201806040525081019061111c9190612f97565b876001600160a01b031663db7b373e6040518163ffffffff1660e01b8152600401602060405180830381865afa15801561115a573d6000803e3d6000fd5b505050506040513d601f19601f8201168201806040525081019061117e9190612f97565b6040516001600160e01b031960e085901b16815260048101929092526024820152604401602060405180830381865afa1580156111bf573d6000803e3d6000fd5b505050506040513d601f19601f820116820180604052508101906111e39190612f97565b9050808b11156112445760405162461bcd60e51b815260206004820152602660248201527f544f4b454e5f494e5055545f414d4f554e545f4849474845525f555345525f42604482015265414c414e434560d01b606482015260840161055d565b61125085858d86612903565b7f09c9d9085767db700bb0ef664566fac95b983e70d7c5d73e0137ad358d8078e2338e8e8e876040516112b69594939291906001600160a01b03958616815293851660208501529190931660408301526060820192909252608081019190915260a00190565b60405180910390a150505050506112cd6001600055565b5050505050505050565b60008084905060008490506000826001600160a01b031663b49f4afd6040518163ffffffff1660e01b8152600401602060405180830381865afa158015611322573d6000803e3d6000fd5b505050506040513d601f19601f820116820180604052508101906113469190612f97565b90506000826001600160a01b031663b49f4afd6040518163ffffffff1660e01b8152600401602060405180830381865afa158015611388573d6000803e3d6000fd5b505050506040513d601f19601f820116820180604052508101906113ac9190612f97565b905060006113be8261051d8986612830565b905060006113df61271061051d6113d88c86600954612661565b8590612830565b905060006113ed8383612da5565b9b9a5050505050505050505050565b611404612db1565b6001600160a01b03811661142a5760405162461bcd60e51b815260040161055d906130b9565b600780546001600160a01b0319166001600160a01b0392909216919091179055565b6000806114576124b2565b905060008490506000816001600160a01b031663b49f4afd6040518163ffffffff1660e01b8152600401602060405180830381865afa15801561149e573d6000803e3d6000fd5b505050506040513d601f19601f820116820180604052508101906114c29190612f97565b905060006114d48261051d8887612830565b905060006114ee61271061051d6113d88b86600854612661565b90506114fa8282612da5565b9550836001600160a01b03166329b315d76040518163ffffffff1660e01b8152600401602060405180830381865afa15801561153a573d6000803e3d6000fd5b505050506040513d601f19601f8201168201806040525081019061155e9190612f97565b82111561156a57600095505b505050505092915050565b61157d612db1565b6115876000612e0b565b565b611591612db1565b600a80546001600160a01b0319166001600160a01b0392909216919091179055565b6000806115be6124b2565b905060008490506000816001600160a01b031663b49f4afd6040518163ffffffff1660e01b8152600401602060405180830381865afa158015611605573d6000803e3d6000fd5b505050506040513d601f19601f820116820180604052508101906116299190612f97565b90506116398161051d8786612830565b9350816001600160a01b03166329b315d76040518163ffffffff1660e01b8152600401602060405180830381865afa158015611679573d6000803e3d6000fd5b505050506040513d601f19601f8201168201806040525081019061169d9190612f97565b8411156116a957600093505b50505092915050565b6116ba612db1565b600081116116da5760405162461bcd60e51b815260040161055d906130b9565b600355565b60008060006116ec611a7d565b905060008590506000816001600160a01b03166335a226646040518163ffffffff1660e01b8152600401602060405180830381865afa158015611733573d6000803e3d6000fd5b505050506040513d601f19601f820116820180604052508101906117579190612f97565b905060006117d3670de0b6b3a764000061051d856001600160a01b031663b49f4afd6040518163ffffffff1660e01b8152600401602060405180830381865afa1580156117a8573d6000803e3d6000fd5b505050506040513d601f19601f820116820180604052508101906117cc9190612f97565b8a90612830565b905060006117fb6117e48684612da5565b60035461051d906117f58787612da5565b90612830565b6003546001600160a01b038b166000908152600560205260408120549293509161182a91849161051d91612830565b905061184760035461051d8360085461283090919063ffffffff16565b975061186460035461051d8360095461283090919063ffffffff16565b96505050505050509250929050565b61187b612db1565b6001600160a01b0383166118a15760405162461bcd60e51b815260040161055d90612fb0565b600082116118e65760405162461bcd60e51b8152602060048201526012602482015271494e56414c49445f5245504f5f534841524560701b604482015260640161055d565b6000811161192e5760405162461bcd60e51b8152602060048201526015602482015274494e56414c49445f5245504f5f434150414349545960581b604482015260640161055d565b60408051808201825283815260208082018481526001600160a01b0387166000818152600584528581209451855591516001948501556004805494850181558083527f8a35acfbc15ff81a39ae7d344fd709f28e8600b4aa8c65c6b64bfe7fe36bd19b90940180546001600160a01b031916821790558451635001f3b560e01b8152945188958695600695635001f3b59383830193919290918290030181865afa1580156119e0573d6000803e3d6000fd5b505050506040513d601f19601f82011682018060405250810190611a04919061309c565b6001600160a01b039081168252602080830193909352604091820160002080546001600160a01b031916948216949094179093558051928716835290820185905281018390527f0f9add0213bdb1ede37a5c610b3e9634dc14ffc80ab82643288e3faf88f73ae09060600160405180910390a150505050565b6000805b600454811015611b865760006005600060048481548110611aa457611aa4612fde565b60009182526020808320909101546001600160a01b031683528201929092526040019020541115611b7457600060048281548110611ae457611ae4612fde565b9060005260206000200160009054906101000a90046001600160a01b03169050611b70816001600160a01b03166335a226646040518163ffffffff1660e01b8152600401602060405180830381865afa158015611b45573d6000803e3d6000fd5b505050506040513d601f19601f82011682018060405250810190611b699190612f97565b84906128aa565b9250505b80611b7e8161300a565b915050611a81565b5090565b611b92612851565b816001600160a01b038116611bb95760405162461bcd60e51b815260040161055d90612fb0565b6000805b600454811015611c1957826001600160a01b031660048281548110611be457611be4612fde565b6000918252602090912001546001600160a01b031603611c075760019150611c19565b80611c118161300a565b915050611bbd565b5080600114611c3a5760405162461bcd60e51b815260040161055d90613023565b333214611cce57600254604051636c9b2a3f60e11b81523360048201526001600160a01b039091169063d936547e90602401602060405180830381865afa158015611c89573d6000803e3d6000fd5b505050506040513d601f19601f82011682018060405250810190611cad919061304f565b1515600114611cce5760405162461bcd60e51b815260040161055d90613071565b60008311611d175760405162461bcd60e51b81526020600482015260166024820152751253959053125117d1d05490925150d7d05353d5539560521b604482015260640161055d565b6001600160a01b038416600090815260056020526040902054611d6b5760405162461bcd60e51b815260206004820152600c60248201526b494e56414c49445f5245504f60a01b604482015260640161055d565b60008490506000816001600160a01b0316635001f3b56040518163ffffffff1660e01b8152600401602060405180830381865afa158015611db0573d6000803e3d6000fd5b505050506040513d601f19601f82011682018060405250810190611dd4919061309c565b6007546040516370a0823160e01b81523360048201529192506000916001600160a01b03909116906370a0823190602401602060405180830381865afa158015611e22573d6000803e3d6000fd5b505050506040513d601f19601f82011682018060405250810190611e469190612f97565b905080861115611e54578095505b6000611e6088886115b3565b905060008111611eab5760405162461bcd60e51b8152602060048201526016602482015275494e56414c49445f4f55545f414d554e545f5a45524f60501b604482015260640161055d565b836001600160a01b03166329b315d76040518163ffffffff1660e01b8152600401602060405180830381865afa158015611ee9573d6000803e3d6000fd5b505050506040513d601f19601f82011682018060405250810190611f0d9190612f97565b811115611f515760405162461bcd60e51b81526020600482015260126024820152711253959053125117d3d55517d05353d5539560721b604482015260640161055d565b6000611f6961271061051d6113d88c86600854612661565b90506000611f778383612da5565b6007546040516323b872dd60e01b8152336004820152306024820152604481018c90529192506001600160a01b0316906323b872dd906064016020604051808303816000875af1158015611fcf573d6000803e3d6000fd5b505050506040513d601f19601f82011682018060405250810190611ff3919061304f565b50600754604051630852cd8d60e31b8152600481018b90526001600160a01b03909116906342966c6890602401600060405180830381600087803b15801561203a57600080fd5b505af115801561204e573d6000803e3d6000fd5b50506040516351380da560e11b8152600481018690526001600160a01b038916925063a2701b4a9150602401600060405180830381600087803b15801561209457600080fd5b505af11580156120a8573d6000803e3d6000fd5b5050604051633e7bbdcf60e11b815260048101849052601260248201526001600160a01b03808916935063a9059cbb92503391908a1690637cf77b9e90604401602060405180830381865afa158015612105573d6000803e3d6000fd5b505050506040513d601f19601f820116820180604052508101906121299190612f97565b6040516001600160e01b031960e085901b1681526001600160a01b03909216600483015260248201526044016020604051808303816000875af1158015612174573d6000803e3d6000fd5b505050506040513d601f19601f82011682018060405250810190612198919061304f565b50600a54604051633e7bbdcf60e11b815260048101849052601260248201526001600160a01b038781169263a9059cbb92908216918a1690637cf77b9e90604401602060405180830381865afa1580156121f6573d6000803e3d6000fd5b505050506040513d601f19601f8201168201806040525081019061221a9190612f97565b6040516001600160e01b031960e085901b1681526001600160a01b03909216600483015260248201526044016020604051808303816000875af1158015612265573d6000803e3d6000fd5b505050506040513d601f19601f82011682018060405250810190612289919061304f565b50604080513381526001600160a01b038c166020820152908101829052606081018a90527f9b5a54131d57ff379fca74da7f4efca1b9105facc9eb666cdb4dc2991622cee39060800160405180910390a15050505050505050610c5c6001600055565b6000806122f76124b2565b905060008490506000816001600160a01b031663b49f4afd6040518163ffffffff1660e01b8152600401602060405180830381865afa15801561233e573d6000803e3d6000fd5b505050506040513d601f19601f820116820180604052508101906123629190612f97565b90506123728361051d8784612830565b9695505050505050565b612384612db1565b6001600160a01b0383166123aa5760405162461bcd60e51b815260040161055d90612fb0565b600082116123ef5760405162461bcd60e51b8152602060048201526012602482015271494e56414c49445f5245504f5f534841524560701b604482015260640161055d565b600081116124375760405162461bcd60e51b8152602060048201526015602482015274494e56414c49445f5245504f5f434150414349545960581b604482015260640161055d565b60408051808201825283815260208082018481526001600160a01b038716600081815260058452859020935184559051600190930192909255825191825281018490529081018290527f34d71eb9581c2f82d3886aa369754ce61007988ffaa3bdda51b914219b3b120a9060600160405180910390a1505050565b600080805b60045481101561259157600060056000600484815481106124da576124da612fde565b60009182526020808320909101546001600160a01b03168352820192909252604001902054111561257f5760006004828154811061251a5761251a612fde565b9060005260206000200160009054906101000a90046001600160a01b0316905061257b816001600160a01b03166335a226646040518163ffffffff1660e01b8152600401602060405180830381865afa158015611b45573d6000803e3d6000fd5b9250505b806125898161300a565b9150506124b7565b50600754604080516318160ddd60e01b815290516000926001600160a01b0316916318160ddd9160048083019260209291908290030181865afa1580156125dc573d6000803e3d6000fd5b505050506040513d601f19601f820116820180604052508101906126009190612f97565b90508060000361261a57670de0b6b3a76400009250505090565b6126308161051d84670de0b6b3a7640000612830565b9250505090565b6004818154811061264757600080fd5b6000918252602090912001546001600160a01b0316905081565b60008061266c611a7d565b905060008590506000816001600160a01b03166335a226646040518163ffffffff1660e01b8152600401602060405180830381865afa1580156126b3573d6000803e3d6000fd5b505050506040513d601f19601f820116820180604052508101906126d79190612f97565b90506000612728670de0b6b3a764000061051d856001600160a01b031663b49f4afd6040518163ffffffff1660e01b8152600401602060405180830381865afa1580156117a8573d6000803e3d6000fd5b905060006127396117e48684612da5565b6003546001600160a01b038b166000908152600560205260408120549293509161276891849161051d91612830565b60035490915061277c9061051d8a84612830565b9a9950505050505050505050565b612792612db1565b6001600160a01b0381166127f75760405162461bcd60e51b815260206004820152602660248201527f4f776e61626c653a206e6577206f776e657220697320746865207a65726f206160448201526564647265737360d01b606482015260840161055d565b61280081612e0b565b50565b61280b612db1565b6000811161282b5760405162461bcd60e51b815260040161055d906130b9565b600855565b600061283c82846130df565b90505b92915050565b600061283c82846130f6565b6002600054036128a35760405162461bcd60e51b815260206004820152601f60248201527f5265656e7472616e637947756172643a207265656e7472616e742063616c6c00604482015260640161055d565b6002600055565b600061283c8284613118565b600154600160a01b900460ff16156115875760405162461bcd60e51b815260206004820152601060248201526f14185d5cd8589b194e881c185d5cd95960821b604482015260640161055d565b6000846001600160a01b0316635001f3b56040518163ffffffff1660e01b8152600401602060405180830381865afa158015612943573d6000803e3d6000fd5b505050506040513d601f19601f82011682018060405250810190612967919061309c565b90506000846001600160a01b0316635001f3b56040518163ffffffff1660e01b8152600401602060405180830381865afa1580156129a9573d6000803e3d6000fd5b505050506040513d601f19601f820116820180604052508101906129cd919061309c565b604051633e7bbdcf60e11b815260048101869052601260248201529091506000906001600160a01b03881690637cf77b9e90604401602060405180830381865afa158015612a1f573d6000803e3d6000fd5b505050506040513d601f19601f82011682018060405250810190612a439190612f97565b6040516323b872dd60e01b8152336004820152306024820152604481018290529091506001600160a01b038416906323b872dd906064016020604051808303816000875af1158015612a99573d6000803e3d6000fd5b505050506040513d601f19601f82011682018060405250810190612abd919061304f565b5060405163a9059cbb60e01b81526001600160a01b0388811660048301526024820183905284169063a9059cbb906044016020604051808303816000875af1158015612b0d573d6000803e3d6000fd5b505050506040513d601f19601f82011682018060405250810190612b31919061304f565b506040516351380da560e11b8152600481018590526001600160a01b0387169063a2701b4a90602401600060405180830381600087803b158015612b7457600080fd5b505af1158015612b88573d6000803e3d6000fd5b505050506000612bab61271061051d612ba48a89600954612661565b8890612830565b90506000612bb98683612da5565b604051633e7bbdcf60e11b815260048101829052601260248201529091506001600160a01b038086169163a9059cbb913391908c1690637cf77b9e90604401602060405180830381865afa158015612c15573d6000803e3d6000fd5b505050506040513d601f19601f82011682018060405250810190612c399190612f97565b6040516001600160e01b031960e085901b1681526001600160a01b03909216600483015260248201526044016020604051808303816000875af1158015612c84573d6000803e3d6000fd5b505050506040513d601f19601f82011682018060405250810190612ca8919061304f565b50600a54604051633e7bbdcf60e11b815260048101849052601260248201526001600160a01b038681169263a9059cbb92908216918c1690637cf77b9e90604401602060405180830381865afa158015612d06573d6000803e3d6000fd5b505050506040513d601f19601f82011682018060405250810190612d2a9190612f97565b6040516001600160e01b031960e085901b1681526001600160a01b03909216600483015260248201526044016020604051808303816000875af1158015612d75573d6000803e3d6000fd5b505050506040513d601f19601f82011682018060405250810190612d99919061304f565b50505050505050505050565b600061283c828461312b565b6001546001600160a01b031633146115875760405162461bcd60e51b815260206004820181905260248201527f4f776e61626c653a2063616c6c6572206973206e6f7420746865206f776e6572604482015260640161055d565b600180546001600160a01b038381166001600160a01b0319831681179093556040519116919082907f8be0079c531659141344cd1fd0a4f28419497f9722a3daafe3b4186f6b6457e090600090a35050565b6001600160a01b038116811461280057600080fd5b600080600060608486031215612e8757600080fd5b8335612e9281612e5d565b92506020840135612ea281612e5d565b929592945050506040919091013590565b60008060408385031215612ec657600080fd5b8235612ed181612e5d565b946020939093013593505050565b60008060008060808587031215612ef557600080fd5b8435612f0081612e5d565b93506020850135612f1081612e5d565b93969395505050506040820135916060013590565b600060208284031215612f3757600080fd5b8135612f4281612e5d565b9392505050565b600060208284031215612f5b57600080fd5b5035919050565b600080600060608486031215612f7757600080fd5b8335612f8281612e5d565b95602085013595506040909401359392505050565b600060208284031215612fa957600080fd5b5051919050565b602080825260149082015273494e56414c49445f5245504f5f4144445245535360601b604082015260600190565b634e487b7160e01b600052603260045260246000fd5b634e487b7160e01b600052601160045260246000fd5b60006001820161301c5761301c612ff4565b5060010190565b60208082526012908201527124a72b20a624a22fa822a926a4a9a9a4a7a760711b604082015260600190565b60006020828403121561306157600080fd5b81518015158114612f4257600080fd5b6020808252601190820152701253959053125117d5d2125511531254d5607a1b604082015260600190565b6000602082840312156130ae57600080fd5b8151612f4281612e5d565b6020808252600c908201526b494e56414c49445f4441544160a01b604082015260600190565b808202811582820484141761283f5761283f612ff4565b60008261311357634e487b7160e01b600052601260045260246000fd5b500490565b8082018082111561283f5761283f612ff4565b8181038181111561283f5761283f612ff456fea264697066735822122064a63c87d975258d3da490fb1fe2d06ec67586f4a550525b643054110ccfbbfe64736f6c63430008110033",
  "immutableReferences": {},
  "source": "// SPDX-License-Identifier: MIT\r\npragma solidity >=0.8.0;\r\n\r\nimport \"@openzeppelin/contracts/utils/math/SafeMath.sol\";\r\nimport \"@openzeppelin/contracts/token/ERC20/IERC20.sol\";\r\nimport \"@openzeppelin/contracts/access/Ownable.sol\";\r\nimport \"@openzeppelin/contracts/security/ReentrancyGuard.sol\";\r\nimport \"@openzeppelin/contracts/security/Pausable.sol\";\r\n\r\nimport '../interfaces/IERC20withBurnAndMint.sol';\r\nimport '../interfaces/IGarbiRepository.sol';\r\nimport '../interfaces/IGarbiswapWhitelist.sol';\r\n\r\ncontract GarbiRepositoryManager is ReentrancyGuard, Ownable, Pausable {\r\n    using SafeMath for uint256;\r\n\r\n    IGarbiswapWhitelist public whitelist; \r\n\r\n    uint256 public totalShares = 1000;\r\n\r\n    struct RepoInfo {\r\n        uint256 share;\r\n        uint256 maxCapacityLimit;\r\n    }\r\n\r\n    // Array of repo addresses\r\n    address[] public repoAddresses;\r\n\r\n    mapping(address => RepoInfo) public repoList;  \r\n\r\n    mapping(address => address) public baseToRepo;  \r\n\r\n    IERC20withBurnAndMint public GarbiEC;\r\n\r\n    uint256 SELL_GARBIEC_FEE = 35; //35/10000 = 0.35%\r\n\r\n    uint256 SWAP_FEE = 1; //1/10000 = 0.01%\r\n\r\n    address public platformFundAddress;\r\n\r\n    modifier onlyRepoInTheList(address repoAddress)\r\n    {\r\n        require(repoAddress != address(0), 'INVALID_REPO_ADDRESS');\r\n        uint flag = 0;\r\n        for (uint i = 0; i < repoAddresses.length; i++) {\r\n            if(repoAddresses[i] == repoAddress) {\r\n                flag = 1;\r\n                break;\r\n            }\r\n        }\r\n        require(flag == 1, \"INVALID_PERMISSION\");\r\n        _;\r\n    }\r\n\r\n    modifier onlyWhitelist()\r\n    {\r\n        if (msg.sender != tx.origin) {\r\n            require(whitelist.whitelisted(msg.sender) == true, 'INVALID_WHITELIST');\r\n        }\r\n        _;\r\n    }\r\n\r\n    // Events\r\n    event onAddRepository(address repoAddress, uint256 repoShare, uint256 repoMaxCapacityLimit);\r\n    event onUpdateRepository(address repoAddress, uint256 repoShare, uint256 repoMaxCapacityLimit); \r\n    event onBuyGarbiEC(address user, address repoInAddress, uint256 assetInAmount, uint256 garbiECOutAmount);\r\n    event onSellGarbiEC(address user, address repoOutAddress, uint256 assetOutAmount, uint256 garbiECInAmount);\r\n    event onSwapTokenToToken(address user, address repoInAddress, address repoOutAddress, uint256 tokenInputAmount, uint256 tokenOutputAmount);\r\n\r\n    constructor(\r\n        IERC20withBurnAndMint garbiECContract,\r\n        IGarbiswapWhitelist whitelistContract\r\n    ){\r\n        GarbiEC = garbiECContract;\r\n        whitelist = whitelistContract;\r\n        platformFundAddress = _msgSender();\r\n    }\r\n    \r\n    function addRepository(address repoAddress, uint256 repoShare, uint256 repoMaxCapacityLimit) public onlyOwner {\r\n        require(repoAddress != address(0), 'INVALID_REPO_ADDRESS');\r\n        require(repoShare > 0, 'INVALID_REPO_SHARE');\r\n        require(repoMaxCapacityLimit > 0, 'INVALID_REPO_CAPACITY');\r\n\r\n        repoList[repoAddress] = RepoInfo({\r\n            share : repoShare,\r\n            maxCapacityLimit : repoMaxCapacityLimit\r\n        });\r\n\r\n        repoAddresses.push(repoAddress);\r\n\r\n        IGarbiRepository repo = IGarbiRepository(repoAddress);\r\n\r\n        baseToRepo[repo.base()] = repoAddress;\r\n\r\n        emit onAddRepository(repoAddress, repoShare, repoMaxCapacityLimit);\r\n    }\r\n\r\n    function updateRepository(address repoAddress, uint256 repoShare, uint256 repoMaxCapacityLimit) public onlyOwner {\r\n        require(repoAddress != address(0), 'INVALID_REPO_ADDRESS');\r\n        require(repoShare > 0, 'INVALID_REPO_SHARE');\r\n        require(repoMaxCapacityLimit > 0, 'INVALID_REPO_CAPACITY');\r\n\r\n        repoList[repoAddress] = RepoInfo({\r\n            share : repoShare,\r\n            maxCapacityLimit : repoMaxCapacityLimit\r\n        });\r\n\r\n        emit onUpdateRepository(repoAddress, repoShare, repoMaxCapacityLimit);\r\n    }\r\n\r\n    function setTotalShares(uint256 newTotalShares) public onlyOwner {\r\n        require(newTotalShares > 0, 'INVALID_DATA');\r\n        totalShares = newTotalShares;\r\n    }\r\n\r\n    function setSellGarbiECFee(uint256 newFee) public onlyOwner {\r\n        require(newFee > 0, 'INVALID_DATA');\r\n        SELL_GARBIEC_FEE = newFee;\r\n    }\r\n\r\n    function setPlatformFundAdress(address newAddress) public onlyOwner {\r\n        platformFundAddress = newAddress;\r\n    }\r\n\r\n    function setGarbiEquityCertificateContract(IERC20withBurnAndMint newGarbiECContract) public onlyOwner {\r\n        require(address(newGarbiECContract) != address(0), 'INVALID_DATA');\r\n        GarbiEC = newGarbiECContract;\r\n    }\r\n\r\n    function buyGarbiEquityCertificate(address repoInAddress, uint256 assetInAmount) public nonReentrant onlyRepoInTheList(repoInAddress) onlyWhitelist {\r\n        require(assetInAmount > 0, 'INVALID_ASSET_AMOUNT');\r\n        require(repoList[repoInAddress].share > 0, 'INVALID_REPO');\r\n        \r\n        IGarbiRepository repoIn = IGarbiRepository(repoInAddress);\r\n\r\n        require(repoIn.getCapacityByToken().add(assetInAmount) <= repoList[repoInAddress].maxCapacityLimit, 'INVALID_ASSET_CAPACITY');\r\n\r\n        IERC20 base = IERC20(repoIn.base());\r\n\r\n        uint256 baseUserBalance = base.balanceOf(msg.sender);\r\n        baseUserBalance = repoIn.convertDecimalTo18(baseUserBalance, repoIn.baseDecimal());\r\n\r\n        if(assetInAmount > baseUserBalance) {\r\n            assetInAmount = baseUserBalance;\r\n        }\r\n        \r\n        uint256 garbiECOutAmount = getDataToBuyGarbiEC(repoInAddress, assetInAmount);\r\n\r\n        //make trade\r\n        uint256 assetInAmountAtAssetDecimal = repoIn.convertToBaseDecimal(assetInAmount, 18);\r\n        base.transferFrom(msg.sender, address(this), assetInAmountAtAssetDecimal);\r\n        GarbiEC.mint(address(this), garbiECOutAmount);\r\n        base.transfer(repoInAddress, assetInAmountAtAssetDecimal);\r\n        GarbiEC.transfer(msg.sender, garbiECOutAmount);\r\n\r\n        emit onBuyGarbiEC(msg.sender, repoInAddress, assetInAmount, garbiECOutAmount);\r\n    }\r\n\r\n    function sellGarbiEquityCertificate(address repoOutAddress, uint256 garbiECInAmount) public nonReentrant onlyRepoInTheList(repoOutAddress) onlyWhitelist {\r\n        require(garbiECInAmount > 0, 'INVALID_GARBIEC_AMOUNT');\r\n        require(repoList[repoOutAddress].share > 0, 'INVALID_REPO');\r\n        \r\n        IGarbiRepository repoOut = IGarbiRepository(repoOutAddress);\r\n\r\n        IERC20 base = IERC20(repoOut.base());\r\n\r\n        uint256 garbiECUserBalance = GarbiEC.balanceOf(msg.sender);\r\n\r\n        if(garbiECInAmount > garbiECUserBalance) {\r\n            garbiECInAmount = garbiECUserBalance;\r\n        }\r\n\r\n        uint256 baseOutAmount = getDataToSellGarbiEC(repoOutAddress, garbiECInAmount);\r\n        \r\n        require(baseOutAmount > 0, 'INVALID_OUT_AMUNT_ZERO');\r\n        require(baseOutAmount <= repoOut.getCapacityByToken(), 'INVALID_OUT_AMOUNT');\r\n\r\n        uint256 fee = baseOutAmount.mul(getSellGarbiECDynamicFee(repoOutAddress, baseOutAmount, SELL_GARBIEC_FEE)).div(10000);\r\n        uint256 baseOutAmountAfterFee = baseOutAmount.sub(fee);\r\n\r\n        //make trade\r\n        GarbiEC.transferFrom(msg.sender, address(this), garbiECInAmount);\r\n        GarbiEC.burn(garbiECInAmount);\r\n        repoOut.withdrawBaseToRepositoryManager(baseOutAmount);\r\n        base.transfer(msg.sender, repoOut.convertToBaseDecimal(baseOutAmountAfterFee, 18));\r\n        //transfer fee\r\n        base.transfer(platformFundAddress, repoOut.convertToBaseDecimal(fee, 18));\r\n\r\n        emit onSellGarbiEC(msg.sender, repoOutAddress, baseOutAmountAfterFee, garbiECInAmount);\r\n    }\r\n\r\n    function swapTokenToTokenWithTokenInput(address repoInAddress, address repoOutAddress, uint256 tokenInputAmount, uint256 minTokenOutputAmount) public onlyRepoInTheList(repoInAddress) onlyRepoInTheList(repoOutAddress) nonReentrant onlyWhitelist whenNotPaused {\r\n        require(repoInAddress != repoOutAddress, 'INVALID_PAIR');\r\n        require(tokenInputAmount > 0, 'INVALID_TOKEN_INPUT_AMOUNT');\r\n        require(minTokenOutputAmount > 0, 'INVALID_MIN_TOKEN_OUTPUT_AMOUNT');\r\n\r\n        IGarbiRepository repoIn = IGarbiRepository(repoInAddress);\r\n        IGarbiRepository repoOut = IGarbiRepository(repoOutAddress);\r\n        \r\n        uint256 tokenOutputAmount = getTokenOutputAmountFromTokenInput(repoIn, repoOut, tokenInputAmount);\r\n        require(tokenOutputAmount <= repoOut.getCapacityByToken(), 'INVALID_OUT_AMOUNT');\r\n        require(tokenOutputAmount >= minTokenOutputAmount, 'CAN_NOT_MAKE_TRADE');\r\n\r\n        IERC20 baseIn = IERC20(repoIn.base());\r\n\r\n        uint256 baseInUserBalance = repoIn.convertDecimalTo18(baseIn.balanceOf(msg.sender), repoIn.baseDecimal());\r\n\r\n        require(tokenInputAmount <= baseInUserBalance, 'TOKEN_INPUT_AMOUNT_HIGHER_USER_BALANCE');\r\n        \r\n        //make trade\r\n        makeTradeOnTwoRepos(repoIn, repoOut, tokenInputAmount, tokenOutputAmount);\r\n\r\n        emit onSwapTokenToToken(msg.sender, repoInAddress, repoOutAddress, tokenInputAmount, tokenOutputAmount);\r\n    }\r\n\r\n    function makeTradeOnTwoRepos(IGarbiRepository repoIn, IGarbiRepository repoOut, uint256 tokenInputAmount, uint256 tokenOutputAmount) private {\r\n        IERC20 baseIn = IERC20(repoIn.base());\r\n        IERC20 baseOut = IERC20(repoOut.base());\r\n        uint256 tokenInputAmountAtTokenDecimal = repoIn.convertToBaseDecimal(tokenInputAmount, 18);\r\n        baseIn.transferFrom(msg.sender, address(this), tokenInputAmountAtTokenDecimal);\r\n        baseIn.transfer(address(repoIn), tokenInputAmountAtTokenDecimal);\r\n        repoOut.withdrawBaseToRepositoryManager(tokenOutputAmount);\r\n        uint256 fee = tokenOutputAmount.mul(getSellGarbiECDynamicFee(address(repoOut), tokenOutputAmount, SWAP_FEE)).div(10000);\r\n        uint256 tokenOutputAmountAfterFee = tokenOutputAmount.sub(fee);\r\n        baseOut.transfer(msg.sender, repoOut.convertToBaseDecimal(tokenOutputAmountAfterFee, 18));\r\n        //transfer fee\r\n        baseOut.transfer(platformFundAddress, repoOut.convertToBaseDecimal(fee, 18));\r\n    }\r\n\r\n    function getTokenOutputAmountFromTokenInput(IGarbiRepository repoIn, IGarbiRepository repoOut, uint256 tokenInputAmount) public view returns (uint256) {\r\n        uint256 tokenInputPriceFromOracle = repoIn.getBasePrice();\r\n        uint256 tokenOuputPriceFromOracle = repoOut.getBasePrice();\r\n        uint256 tokenOutputAmount = tokenInputAmount.mul(tokenInputPriceFromOracle).div(tokenOuputPriceFromOracle);\r\n        return tokenOutputAmount;\r\n    }\r\n\r\n    function getTokenOutputWithFee(address repoInAddress, address repoOutAddress, uint256 tokenInputAmount) public view returns (uint256) {\r\n        IGarbiRepository repoIn = IGarbiRepository(repoInAddress);\r\n        IGarbiRepository repoOut = IGarbiRepository(repoOutAddress);\r\n        uint256 tokenInputPriceFromOracle = repoIn.getBasePrice();\r\n        uint256 tokenOuputPriceFromOracle = repoOut.getBasePrice();\r\n        uint256 tokenOutputAmount = tokenInputAmount.mul(tokenInputPriceFromOracle).div(tokenOuputPriceFromOracle);\r\n        uint256 fee = tokenOutputAmount.mul(getSellGarbiECDynamicFee(repoOutAddress, tokenOutputAmount, SWAP_FEE)).div(10000);\r\n        uint256 tokenOutputAmountAfterFee = tokenOutputAmount.sub(fee);\r\n        return tokenOutputAmountAfterFee;\r\n    }\r\n\r\n    function getGarbiECPrice() public view returns(uint256 garbiECPrice) {\r\n        uint256 totalCapacityByUSD = 0;\r\n        for (uint i = 0; i < repoAddresses.length; i++) {\r\n            if(repoList[repoAddresses[i]].share > 0) {\r\n                IGarbiRepository repo = IGarbiRepository(repoAddresses[i]);\r\n                totalCapacityByUSD = totalCapacityByUSD.add(repo.getCapacityByUSD());\r\n            }\r\n        }\r\n\r\n        uint256 garbiECTotalSupply = GarbiEC.totalSupply();\r\n\r\n        if(garbiECTotalSupply == 0) {\r\n            garbiECPrice = 1e18;\r\n        }\r\n        else {\r\n            garbiECPrice = totalCapacityByUSD.mul(1e18).div(garbiECTotalSupply);\r\n        }\r\n    }\r\n\r\n    function getDataToBuyGarbiEC(address repoInAddress, uint256 assetInAmount) public view returns (uint256 garbiECOutAmount) {\r\n       uint256 garbiECPrice = getGarbiECPrice();\r\n       IGarbiRepository repoIn = IGarbiRepository(repoInAddress);\r\n\r\n       uint256 assetPrice = repoIn.getBasePrice();\r\n\r\n       garbiECOutAmount = assetInAmount.mul(assetPrice).div(garbiECPrice);\r\n    }\r\n\r\n    function getDataToSellGarbiEC(address repoOutAddress, uint256 garbiECInAmount) public view returns (uint256 assetOutAmount) {\r\n       uint256 garbiECPrice = getGarbiECPrice();\r\n       IGarbiRepository repoOut = IGarbiRepository(repoOutAddress);\r\n\r\n       uint256 assetPrice = repoOut.getBasePrice();\r\n\r\n       assetOutAmount = garbiECInAmount.mul(garbiECPrice).div(assetPrice);\r\n       \r\n       if(assetOutAmount > repoOut.getCapacityByToken()) {\r\n            assetOutAmount = 0;\r\n       }\r\n    }\r\n\r\n    function getDataToSellGarbiECWithFee(address repoOutAddress, uint256 garbiECInAmount) public view returns (uint256 assetOutAmountAfterFee) {\r\n       uint256 garbiECPrice = getGarbiECPrice();\r\n       IGarbiRepository repoOut = IGarbiRepository(repoOutAddress);\r\n\r\n       uint256 assetPrice = repoOut.getBasePrice();\r\n\r\n       uint256 assetOutAmount = garbiECInAmount.mul(garbiECPrice).div(assetPrice);\r\n\r\n       uint256 fee = assetOutAmount.mul(getSellGarbiECDynamicFee(repoOutAddress, assetOutAmount, SELL_GARBIEC_FEE)).div(10000);\r\n       assetOutAmountAfterFee = assetOutAmount.sub(fee);\r\n       \r\n       if(assetOutAmount > repoOut.getCapacityByToken()) {\r\n            assetOutAmountAfterFee = 0;\r\n       }\r\n    }\r\n\r\n    function getTotalAllRepoCapacityByUSD() public view returns (uint256 totalCapacityByUSD) {\r\n        for (uint i = 0; i < repoAddresses.length; i++) {\r\n            if(repoList[repoAddresses[i]].share > 0) {\r\n                IGarbiRepository repo = IGarbiRepository(repoAddresses[i]);\r\n                totalCapacityByUSD = totalCapacityByUSD.add(repo.getCapacityByUSD());\r\n            }\r\n        }\r\n    }\r\n\r\n    function getSellGarbiECDynamicFee(address repoOutAddress, uint256 assetOutAmount, uint256 baseFee) public view returns (uint256 fee) {\r\n        uint256 totalCapacityByUSD = getTotalAllRepoCapacityByUSD();\r\n        IGarbiRepository repoOut = IGarbiRepository(repoOutAddress);\r\n        uint256 repoOutTotalCapacityByUSD = repoOut.getCapacityByUSD();\r\n        uint256 assetOutAmountByUSD = assetOutAmount.mul(repoOut.getBasePrice()).div(10**18);\r\n        uint256 repoShareAfterOut = repoOutTotalCapacityByUSD.sub(assetOutAmountByUSD).mul(totalShares).div(totalCapacityByUSD.sub(assetOutAmountByUSD));\r\n        uint256 shareDiff = repoList[repoOutAddress].share.mul(totalShares).div(repoShareAfterOut);\r\n        fee = baseFee.mul(shareDiff).div(totalShares);\r\n    }\r\n\r\n    function getFeeWithOutAmount(address repoOutAddress, uint256 assetOutAmount) public view returns (uint256 sellGarbiECfee, uint256 swapFee) {\r\n        uint256 totalCapacityByUSD = getTotalAllRepoCapacityByUSD();\r\n        IGarbiRepository repoOut = IGarbiRepository(repoOutAddress);\r\n        uint256 repoOutTotalCapacityByUSD = repoOut.getCapacityByUSD();\r\n        uint256 assetOutAmountByUSD = assetOutAmount.mul(repoOut.getBasePrice()).div(10**18);\r\n        uint256 repoShareAfterOut = repoOutTotalCapacityByUSD.sub(assetOutAmountByUSD).mul(totalShares).div(totalCapacityByUSD.sub(assetOutAmountByUSD));\r\n        uint256 shareDiff = repoList[repoOutAddress].share.mul(totalShares).div(repoShareAfterOut);\r\n        sellGarbiECfee = SELL_GARBIEC_FEE.mul(shareDiff).div(totalShares);\r\n        swapFee = SWAP_FEE.mul(shareDiff).div(totalShares);\r\n    }\r\n}",
  "sourcePath": "C:\\Users\\David\\Documents\\NetBeansProjects\\garbiprotocol.github.io\\garbi_contracts\\contracts\\GarbiSwap2\\GarbiRepositoryManager.sol",
  "compiler": {
    "name": "solc",
    "version": "0.8.17+commit.8df45f5f.Emscripten.clang"
  },
  "schemaVersion": "3.4.11",
  "updatedAt": "2023-02-24T02:55:47.995Z",
  "networkType": "ethereum",
  "devdoc": {
    "kind": "dev",
    "methods": {
      "owner()": {
        "details": "Returns the address of the current owner."
      },
      "paused()": {
        "details": "Returns true if the contract is paused, and false otherwise."
      },
      "renounceOwnership()": {
        "details": "Leaves the contract without owner. It will not be possible to call `onlyOwner` functions anymore. Can only be called by the current owner. NOTE: Renouncing ownership will leave the contract without an owner, thereby removing any functionality that is only available to the owner."
      },
      "transferOwnership(address)": {
        "details": "Transfers ownership of the contract to a new account (`newOwner`). Can only be called by the current owner."
      }
    },
    "version": 1
  },
  "userdoc": {
    "kind": "user",
    "methods": {},
    "version": 1
  }
}