{
  "contractName": "GarbiswapWhitelist",
  "abi": [
    {
      "anonymous": false,
      "inputs": [
        {
          "indexed": true,
          "internalType": "address",
          "name": "previousOwner",
          "type": "address"
        },
        {
          "indexed": true,
          "internalType": "address",
          "name": "newOwner",
          "type": "address"
        }
      ],
      "name": "OwnershipTransferred",
      "type": "event"
    },
    {
      "anonymous": false,
      "inputs": [
        {
          "indexed": true,
          "internalType": "address",
          "name": "account",
          "type": "address"
        },
        {
          "indexed": false,
          "internalType": "bool",
          "name": "isWhitelisted",
          "type": "bool"
        }
      ],
      "name": "Whitelisted",
      "type": "event"
    },
    {
      "anonymous": false,
      "inputs": [
        {
          "indexed": true,
          "internalType": "address",
          "name": "account",
          "type": "address"
        }
      ],
      "name": "onRequestAccess",
      "type": "event"
    },
    {
      "inputs": [],
      "name": "owner",
      "outputs": [
        {
          "internalType": "address",
          "name": "",
          "type": "address"
        }
      ],
      "stateMutability": "view",
      "type": "function"
    },
    {
      "inputs": [],
      "name": "paused",
      "outputs": [
        {
          "internalType": "bool",
          "name": "",
          "type": "bool"
        }
      ],
      "stateMutability": "view",
      "type": "function"
    },
    {
      "inputs": [],
      "name": "renounceOwnership",
      "outputs": [],
      "stateMutability": "nonpayable",
      "type": "function"
    },
    {
      "inputs": [
        {
          "internalType": "address",
          "name": "",
          "type": "address"
        }
      ],
      "name": "requestAccessList",
      "outputs": [
        {
          "internalType": "bool",
          "name": "",
          "type": "bool"
        }
      ],
      "stateMutability": "view",
      "type": "function"
    },
    {
      "inputs": [
        {
          "internalType": "address",
          "name": "newOwner",
          "type": "address"
        }
      ],
      "name": "transferOwnership",
      "outputs": [],
      "stateMutability": "nonpayable",
      "type": "function"
    },
    {
      "inputs": [],
      "name": "stopWhitelist",
      "outputs": [],
      "stateMutability": "nonpayable",
      "type": "function"
    },
    {
      "inputs": [],
      "name": "openWhitelist",
      "outputs": [],
      "stateMutability": "nonpayable",
      "type": "function"
    },
    {
      "inputs": [
        {
          "internalType": "address",
          "name": "_address",
          "type": "address"
        }
      ],
      "name": "whitelisted",
      "outputs": [
        {
          "internalType": "bool",
          "name": "",
          "type": "bool"
        }
      ],
      "stateMutability": "view",
      "type": "function"
    },
    {
      "inputs": [
        {
          "internalType": "address",
          "name": "_address",
          "type": "address"
        }
      ],
      "name": "addAddress",
      "outputs": [],
      "stateMutability": "nonpayable",
      "type": "function"
    },
    {
      "inputs": [
        {
          "internalType": "address",
          "name": "_address",
          "type": "address"
        }
      ],
      "name": "removeAddress",
      "outputs": [],
      "stateMutability": "nonpayable",
      "type": "function"
    },
    {
      "inputs": [],
      "name": "requestAccess",
      "outputs": [],
      "stateMutability": "nonpayable",
      "type": "function"
    }
  ],
  "bytecode": "0x60806040526000805460ff60a01b1916905534801561001d57600080fd5b506100273361002c565b61007c565b600080546001600160a01b038381166001600160a01b0319831681178455604051919092169283917f8be0079c531659141344cd1fd0a4f28419497f9722a3daafe3b4186f6b6457e09190a35050565b6105c68061008b6000396000f3fe608060405234801561001057600080fd5b50600436106100a95760003560e01c80635c975abb116100715780635c975abb1461011e578063715018a6146101325780638da5cb5b1461013a578063d936547e14610155578063eb2f481714610168578063f2fde38b1461017057600080fd5b8063083bbe7f146100ae578063333cd5c1146100b857806338eada1c146100c05780633b12ffee146100d35780634ba79dfe1461010b575b600080fd5b6100b6610183565b005b6100b661019a565b6100b66100ce366004610560565b6101b7565b6100f66100e1366004610560565b60026020526000908152604090205460ff1681565b60405190151581526020015b60405180910390f35b6100b6610119366004610560565b61028d565b6000546100f690600160a01b900460ff1681565b6100b6610353565b6000546040516001600160a01b039091168152602001610102565b6100f6610163366004610560565b610367565b6100b66103a1565b6100b661017e366004610560565b61043d565b61018b6104b6565b6000805460ff60a01b19169055565b6101a26104b6565b6000805460ff60a01b1916600160a01b179055565b6101bf6104b6565b6001600160a01b03811660009081526001602081905260409091205460ff16151590036102215760405162461bcd60e51b815260206004820152600b60248201526a15d2125511531254d5115160aa1b60448201526064015b60405180910390fd5b6001600160a01b0381166000818152600160208181526040808420805460ff1990811685179091556002835293819020805490941690935591519081527fa54714518c5d275fdcd3d2a461e4858e4e8cb04fb93cd0bca9d6d34115f2644091015b60405180910390a250565b6102956104b6565b6001600160a01b03811660009081526001602052604081205460ff16151590036102f35760405162461bcd60e51b815260206004820152600f60248201526e1393d517d5d2125511531254d51151608a1b6044820152606401610218565b6001600160a01b0381166000818152600160209081526040808320805460ff199081169091556002835281842080549091169055519182527fa54714518c5d275fdcd3d2a461e4858e4e8cb04fb93cd0bca9d6d34115f264409101610282565b61035b6104b6565b6103656000610510565b565b60008054600160a01b900460ff161561038257506000919050565b506001600160a01b031660009081526001602052604090205460ff1690565b3360009081526002602052604090205460ff1615156001036103fb5760405162461bcd60e51b81526020600482015260136024820152721653d557d0549157d25397d5121157d31254d5606a1b6044820152606401610218565b33600081815260026020526040808220805460ff19166001179055517f169e9fe1fd9aec84428126ecfb12c5886943819de2c028aa81015cef503fcdbd9190a2565b6104456104b6565b6001600160a01b0381166104aa5760405162461bcd60e51b815260206004820152602660248201527f4f776e61626c653a206e6577206f776e657220697320746865207a65726f206160448201526564647265737360d01b6064820152608401610218565b6104b381610510565b50565b6000546001600160a01b031633146103655760405162461bcd60e51b815260206004820181905260248201527f4f776e61626c653a2063616c6c6572206973206e6f7420746865206f776e65726044820152606401610218565b600080546001600160a01b038381166001600160a01b0319831681178455604051919092169283917f8be0079c531659141344cd1fd0a4f28419497f9722a3daafe3b4186f6b6457e09190a35050565b60006020828403121561057257600080fd5b81356001600160a01b038116811461058957600080fd5b939250505056fea26469706673582212207163f852abebffcfc6aa0fbbbac79d2cec070013430fa16b34fe8d18c88e0ef464736f6c63430008110033",
  "immutableReferences": {},
  "source": "// SPDX-License-Identifier: MIT\r\npragma solidity >=0.6.12;\r\n\r\nimport \"@openzeppelin/contracts/access/Ownable.sol\";\r\n\r\ncontract GarbiswapWhitelist is Ownable{ \r\n\r\n    bool public paused = false;\r\n\r\n    mapping (address => bool) private whitelistedMap;\r\n    mapping (address => bool) public requestAccessList;\r\n\r\n    event Whitelisted(address indexed account, bool isWhitelisted);\r\n    event onRequestAccess(address indexed account);\r\n\r\n    function stopWhitelist() public onlyOwner {\r\n        paused = true;\r\n    }\r\n    \r\n    function openWhitelist() public onlyOwner {\r\n        paused = false;\r\n    }\r\n\r\n    function whitelisted(address _address) public view returns (bool) {\r\n        if (paused) {\r\n            return false;\r\n        }\r\n\r\n        return whitelistedMap[_address];\r\n    }\r\n\r\n    function addAddress(address _address) public onlyOwner {\r\n        require(whitelistedMap[_address] != true, \"WHITELISTED\");\r\n        whitelistedMap[_address] = true; //open access to Turing protocol\r\n        requestAccessList[_address] = false; //remove from request list\r\n        emit Whitelisted(_address, true);\r\n    }\r\n\r\n    function removeAddress(address _address) public onlyOwner {\r\n        require(whitelistedMap[_address] != false, \"NOT_WHITELISTED\");\r\n        whitelistedMap[_address] = false; //disable access to Turing protocol\r\n        requestAccessList[_address] = false; //remove from request list\r\n        emit Whitelisted(_address, false);\r\n    }\r\n    \r\n    function requestAccess() public {\r\n        require(requestAccessList[msg.sender] != true, \"YOU_ARE_IN_THE_LIST\");\r\n        requestAccessList[msg.sender] = true;\r\n        emit onRequestAccess(msg.sender);\r\n    }\r\n}",
  "sourcePath": "C:\\Users\\David\\Documents\\NetBeansProjects\\garbiprotocol.github.io\\garbi_contracts\\contracts\\GarbiswapWhitelist.sol",
  "compiler": {
    "name": "solc",
    "version": "0.8.17+commit.8df45f5f.Emscripten.clang"
  },
  "schemaVersion": "3.4.11",
  "updatedAt": "2023-01-10T08:25:17.163Z",
  "networkType": "ethereum",
  "devdoc": {
    "kind": "dev",
    "methods": {
      "owner()": {
        "details": "Returns the address of the current owner."
      },
      "renounceOwnership()": {
        "details": "Leaves the contract without owner. It will not be possible to call `onlyOwner` functions anymore. Can only be called by the current owner. NOTE: Renouncing ownership will leave the contract without an owner, thereby removing any functionality that is only available to the owner."
      },
      "transferOwnership(address)": {
        "details": "Transfers ownership of the contract to a new account (`newOwner`). Can only be called by the current owner."
      }
    },
    "version": 1
  },
  "userdoc": {
    "kind": "user",
    "methods": {},
    "version": 1
  }
}