{
  "contractName": "GarbiswapTradeMachine",
  "abi": [
    {
      "inputs": [
        {
          "internalType": "contract IERC20",
          "name": "_vegrb",
          "type": "address"
        },
        {
          "internalType": "contract IGarbiswapWhitelist",
          "name": "_whitelistContract",
          "type": "address"
        }
      ],
      "stateMutability": "nonpayable",
      "type": "constructor"
    },
    {
      "anonymous": false,
      "inputs": [
        {
          "indexed": true,
          "internalType": "address",
          "name": "previousOwner",
          "type": "address"
        },
        {
          "indexed": true,
          "internalType": "address",
          "name": "newOwner",
          "type": "address"
        }
      ],
      "name": "OwnershipTransferred",
      "type": "event"
    },
    {
      "anonymous": false,
      "inputs": [
        {
          "indexed": false,
          "internalType": "address",
          "name": "_trader",
          "type": "address"
        },
        {
          "indexed": false,
          "internalType": "uint256",
          "name": "_amount",
          "type": "uint256"
        }
      ],
      "name": "onDistributeGarbi",
      "type": "event"
    },
    {
      "inputs": [],
      "name": "owner",
      "outputs": [
        {
          "internalType": "address",
          "name": "",
          "type": "address"
        }
      ],
      "stateMutability": "view",
      "type": "function"
    },
    {
      "inputs": [
        {
          "internalType": "address",
          "name": "",
          "type": "address"
        }
      ],
      "name": "pairs",
      "outputs": [
        {
          "internalType": "bool",
          "name": "",
          "type": "bool"
        }
      ],
      "stateMutability": "view",
      "type": "function"
    },
    {
      "inputs": [],
      "name": "renounceOwnership",
      "outputs": [],
      "stateMutability": "nonpayable",
      "type": "function"
    },
    {
      "inputs": [
        {
          "internalType": "address",
          "name": "newOwner",
          "type": "address"
        }
      ],
      "name": "transferOwnership",
      "outputs": [],
      "stateMutability": "nonpayable",
      "type": "function"
    },
    {
      "inputs": [],
      "name": "veGRB",
      "outputs": [
        {
          "internalType": "contract IERC20",
          "name": "",
          "type": "address"
        }
      ],
      "stateMutability": "view",
      "type": "function"
    },
    {
      "inputs": [],
      "name": "whitelistContract",
      "outputs": [
        {
          "internalType": "contract IGarbiswapWhitelist",
          "name": "",
          "type": "address"
        }
      ],
      "stateMutability": "view",
      "type": "function"
    },
    {
      "inputs": [
        {
          "internalType": "contract IGarbiswapWhitelist",
          "name": "_whitelistContract",
          "type": "address"
        }
      ],
      "name": "setWhitelistContract",
      "outputs": [],
      "stateMutability": "nonpayable",
      "type": "function"
    },
    {
      "inputs": [
        {
          "internalType": "contract IERC20",
          "name": "token",
          "type": "address"
        },
        {
          "internalType": "contract IGarbiswapTradePair",
          "name": "pair",
          "type": "address"
        }
      ],
      "name": "approveWithPair",
      "outputs": [],
      "stateMutability": "nonpayable",
      "type": "function"
    },
    {
      "inputs": [
        {
          "internalType": "uint256",
          "name": "token1InputAmount",
          "type": "uint256"
        },
        {
          "internalType": "contract IGarbiswapTradePair",
          "name": "token1Pair",
          "type": "address"
        },
        {
          "internalType": "contract IGarbiswapTradePair",
          "name": "token2Pair",
          "type": "address"
        }
      ],
      "name": "getTokenOutput",
      "outputs": [
        {
          "internalType": "uint256",
          "name": "",
          "type": "uint256"
        }
      ],
      "stateMutability": "view",
      "type": "function"
    },
    {
      "inputs": [
        {
          "internalType": "address",
          "name": "_pair",
          "type": "address"
        }
      ],
      "name": "addPair",
      "outputs": [],
      "stateMutability": "nonpayable",
      "type": "function"
    },
    {
      "inputs": [
        {
          "internalType": "address",
          "name": "_pair",
          "type": "address"
        }
      ],
      "name": "removePair",
      "outputs": [],
      "stateMutability": "nonpayable",
      "type": "function"
    },
    {
      "inputs": [
        {
          "internalType": "uint256",
          "name": "token1InputAmount",
          "type": "uint256"
        },
        {
          "internalType": "uint256",
          "name": "minToken2Output",
          "type": "uint256"
        },
        {
          "internalType": "contract IGarbiswapTradePair",
          "name": "token1Pair",
          "type": "address"
        },
        {
          "internalType": "contract IGarbiswapTradePair",
          "name": "token2Pair",
          "type": "address"
        },
        {
          "internalType": "uint256",
          "name": "deadline",
          "type": "uint256"
        }
      ],
      "name": "swapTokenToTokenWithTokenInput",
      "outputs": [],
      "stateMutability": "nonpayable",
      "type": "function"
    }
  ],
  "bytecode": "0x608060405234801561001057600080fd5b50604051610fe5380380610fe583398101604081905261002f916100d1565b61003833610069565b600380546001600160a01b039384166001600160a01b0319918216179091556002805492909316911617905561010b565b600080546001600160a01b038381166001600160a01b0319831681178455604051919092169283917f8be0079c531659141344cd1fd0a4f28419497f9722a3daafe3b4186f6b6457e09190a35050565b6001600160a01b03811681146100ce57600080fd5b50565b600080604083850312156100e457600080fd5b82516100ef816100b9565b6020840151909250610100816100b9565b809150509250929050565b610ecb8061011a6000396000f3fe608060405234801561001057600080fd5b50600436106100b45760003560e01c8063a67ceb0911610071578063a67ceb091461013d578063af6c9c1d14610150578063c2b7bbb614610163578063d778a04314610176578063f2fde38b14610197578063fe33b302146101aa57600080fd5b806312f26140146100b95780635e69bc46146100ce578063715018a6146100e157806384900b04146100e95780638da5cb5b14610119578063a4cb8bd31461012a575b600080fd5b6100cc6100c7366004610d2b565b6101dd565b005b6100cc6100dc366004610d4f565b610207565b6100cc610288565b6002546100fc906001600160a01b031681565b6040516001600160a01b0390911681526020015b60405180910390f35b6000546001600160a01b03166100fc565b6100cc610138366004610d88565b61029c565b6003546100fc906001600160a01b031681565b6100cc61015e366004610d2b565b6109e2565b6100cc610171366004610d2b565b610a6b565b610189610184366004610dda565b610af7565b604051908152602001610110565b6100cc6101a5366004610d2b565b610bde565b6101cd6101b8366004610d2b565b60016020526000908152604090205460ff1681565b6040519015158152602001610110565b6101e5610c57565b600280546001600160a01b0319166001600160a01b0392909216919091179055565b61020f610c57565b60405163095ea7b360e01b81526001600160a01b038281166004830152600019602483015283169063095ea7b3906044016020604051808303816000875af115801561025f573d6000803e3d6000fd5b505050506040513d601f19601f820116820180604052508101906102839190610e1c565b505050565b610290610c57565b61029a6000610cb1565b565b33321461035957600254604051636c9b2a3f60e11b81523360048201526001600160a01b039091169063d936547e90602401602060405180830381865afa1580156102eb573d6000803e3d6000fd5b505050506040513d601f19601f8201168201806040525081019061030f9190610e1c565b15156001146103595760405162461bcd60e51b81526020600482015260116024820152701253959053125117d5d2125511531254d5607a1b60448201526064015b60405180910390fd5b816001600160a01b0316836001600160a01b0316036103a65760405162461bcd60e51b815260206004820152600960248201526829a0a6a2afa820a4a960b91b6044820152606401610350565b6001600160a01b03831660009081526001602081905260409091205460ff161515146104085760405162461bcd60e51b8152602060048201526011602482015270141052548c57d393d517d0d3d4949150d5607a1b6044820152606401610350565b6001600160a01b03821660009081526001602081905260409091205460ff1615151461046a5760405162461bcd60e51b8152602060048201526011602482015270141052548c97d393d517d0d3d4949150d5607a1b6044820152606401610350565b6000836001600160a01b031663fc0c546a6040518163ffffffff1660e01b8152600401602060405180830381865afa1580156104aa573d6000803e3d6000fd5b505050506040513d601f19601f820116820180604052508101906104ce9190610e3e565b90506000836001600160a01b031663fc0c546a6040518163ffffffff1660e01b8152600401602060405180830381865afa158015610510573d6000803e3d6000fd5b505050506040513d601f19601f820116820180604052508101906105349190610e3e565b60405163635f95ff60e01b8152600481018990529091506000906001600160a01b0387169063635f95ff90602401602060405180830381865afa15801561057f573d6000803e3d6000fd5b505050506040513d601f19601f820116820180604052508101906105a39190610e5b565b6040516311fbded360e01b8152600481018290529091506000906001600160a01b038716906311fbded390602401602060405180830381865afa1580156105ee573d6000803e3d6000fd5b505050506040513d601f19601f820116820180604052508101906106129190610e5b565b9050878110156106595760405162461bcd60e51b815260206004820152601260248201527143414e5f4e4f545f4d414b455f545241444560701b6044820152606401610350565b6003546040516370a0823160e01b81523060048201526000916001600160a01b0316906370a0823190602401602060405180830381865afa1580156106a2573d6000803e3d6000fd5b505050506040513d601f19601f820116820180604052508101906106c69190610e5b565b6040516323b872dd60e01b8152336004820152306024820152604481018c90529091506001600160a01b038616906323b872dd906064016020604051808303816000875af115801561071c573d6000803e3d6000fd5b505050506040513d601f19601f820116820180604052508101906107409190610e1c565b506040516303bf04c160e01b8152600481018b905260248101849052604481018790526001600160a01b038916906303bf04c190606401600060405180830381600087803b15801561079157600080fd5b505af11580156107a5573d6000803e3d6000fd5b505060405163e50a38d760e01b81526004810186905260248101859052604481018990526001600160a01b038a16925063e50a38d79150606401600060405180830381600087803b1580156107f957600080fd5b505af115801561080d573d6000803e3d6000fd5b505060405163a9059cbb60e01b8152336004820152602481018590526001600160a01b038716925063a9059cbb91506044016020604051808303816000875af115801561085e573d6000803e3d6000fd5b505050506040513d601f19601f820116820180604052508101906108829190610e1c565b506003546040516370a0823160e01b81523060048201526000916001600160a01b0316906370a0823190602401602060405180830381865afa1580156108cc573d6000803e3d6000fd5b505050506040513d601f19601f820116820180604052508101906108f09190610e5b565b9050818111156109d5576003546001600160a01b031663a9059cbb336109168486610d01565b6040516001600160e01b031960e085901b1681526001600160a01b03909216600483015260248201526044016020604051808303816000875af1158015610961573d6000803e3d6000fd5b505050506040513d601f19601f820116820180604052508101906109859190610e1c565b507f96eaa1ed1e7f1418c12a0485dc6a8c4b3567c2b7ef81cf269a38c7d256b06f1a336109b28385610d01565b604080516001600160a01b03909316835260208301919091520160405180910390a15b5050505050505050505050565b6109ea610c57565b6001600160a01b03811660009081526001602081905260409091205460ff16151514610a4a5760405162461bcd60e51b815260206004820152600f60248201526e1393d517d25397d5121157d31254d5608a1b6044820152606401610350565b6001600160a01b03166000908152600160205260409020805460ff19169055565b610a73610c57565b6001600160a01b03811660009081526001602081905260409091205460ff1615159003610ad05760405162461bcd60e51b815260206004820152600b60248201526a125397d5121157d31254d560aa1b6044820152606401610350565b6001600160a01b03166000908152600160208190526040909120805460ff19169091179055565b60405163635f95ff60e01b81526004810184905260009081906001600160a01b0385169063635f95ff90602401602060405180830381865afa158015610b41573d6000803e3d6000fd5b505050506040513d601f19601f82011682018060405250810190610b659190610e5b565b6040516311fbded360e01b8152600481018290529091506000906001600160a01b038516906311fbded390602401602060405180830381865afa158015610bb0573d6000803e3d6000fd5b505050506040513d601f19601f82011682018060405250810190610bd49190610e5b565b9695505050505050565b610be6610c57565b6001600160a01b038116610c4b5760405162461bcd60e51b815260206004820152602660248201527f4f776e61626c653a206e6577206f776e657220697320746865207a65726f206160448201526564647265737360d01b6064820152608401610350565b610c5481610cb1565b50565b6000546001600160a01b0316331461029a5760405162461bcd60e51b815260206004820181905260248201527f4f776e61626c653a2063616c6c6572206973206e6f7420746865206f776e65726044820152606401610350565b600080546001600160a01b038381166001600160a01b0319831681178455604051919092169283917f8be0079c531659141344cd1fd0a4f28419497f9722a3daafe3b4186f6b6457e09190a35050565b6000610d0d8284610e74565b90505b92915050565b6001600160a01b0381168114610c5457600080fd5b600060208284031215610d3d57600080fd5b8135610d4881610d16565b9392505050565b60008060408385031215610d6257600080fd5b8235610d6d81610d16565b91506020830135610d7d81610d16565b809150509250929050565b600080600080600060a08688031215610da057600080fd5b85359450602086013593506040860135610db981610d16565b92506060860135610dc981610d16565b949793965091946080013592915050565b600080600060608486031215610def57600080fd5b833592506020840135610e0181610d16565b91506040840135610e1181610d16565b809150509250925092565b600060208284031215610e2e57600080fd5b81518015158114610d4857600080fd5b600060208284031215610e5057600080fd5b8151610d4881610d16565b600060208284031215610e6d57600080fd5b5051919050565b81810381811115610d1057634e487b7160e01b600052601160045260246000fdfea2646970667358221220aa12c865f1c787f7c86ab38c07c6254f0752185cd2bcdc46109aa302017f27e964736f6c63430008110033",
  "immutableReferences": {},
  "source": "// SPDX-License-Identifier: MIT\r\npragma solidity >=0.6.12;\r\n\r\nimport \"@openzeppelin/contracts/utils/math/SafeMath.sol\";\r\nimport \"@openzeppelin/contracts/token/ERC20/IERC20.sol\";\r\nimport \"@openzeppelin/contracts/access/Ownable.sol\";\r\n\r\nimport './interfaces/IGarbiswapTradePair.sol';\r\nimport './interfaces/IGarbiswapWhitelist.sol';\r\n\r\ncontract GarbiswapTradeMachine is Ownable{\r\n    \r\n    using SafeMath for uint256;\r\n    \r\n    mapping (address => bool) public pairs;\r\n\r\n    IGarbiswapWhitelist public whitelistContract; \r\n\r\n    IERC20 public veGRB; // veGRB\r\n   \r\n    modifier onlyWhitelist()\r\n    {\r\n        if (msg.sender != tx.origin) {\r\n            require(whitelistContract.whitelisted(msg.sender) == true, 'INVALID_WHITELIST');\r\n        }\r\n        _;\r\n    }\r\n    event onDistributeGarbi(address _trader, uint256 _amount);\r\n    \r\n    constructor(\r\n        IERC20 _vegrb,\r\n        IGarbiswapWhitelist _whitelistContract\r\n        ) {\r\n         veGRB = _vegrb;\r\n         whitelistContract = _whitelistContract;\r\n    }\r\n\r\n    function setWhitelistContract(IGarbiswapWhitelist _whitelistContract) public onlyOwner {\r\n        whitelistContract = _whitelistContract;\r\n    }\r\n    \r\n    function approveWithPair(IERC20 token, IGarbiswapTradePair pair) public onlyOwner {\r\n        token.approve(address(pair), type(uint256).max);\r\n    }\r\n\r\n    function getTokenOutput(uint256 token1InputAmount, IGarbiswapTradePair token1Pair, IGarbiswapTradePair token2Pair) public view returns (uint256) {\r\n        //get token1 to base\r\n        uint256 baseAmount = token1Pair.getBaseOutput(token1InputAmount);\r\n        //get base to token2\r\n        uint256 token2OutputAmount = token2Pair.getTokenOutput(baseAmount);\r\n        return token2OutputAmount;\r\n    }\r\n    \r\n    function addPair(address _pair) public onlyOwner {\r\n        require(pairs[_pair] != true, \"IN_THE_LIST\");\r\n        pairs[_pair] = true;\r\n    }\r\n\r\n    function removePair(address _pair) public onlyOwner {\r\n        require(pairs[_pair] == true, \"NOT_IN_THE_LIST\");\r\n        pairs[_pair] = false;\r\n    }\r\n\r\n    function swapTokenToTokenWithTokenInput(uint256 token1InputAmount, uint256 minToken2Output, IGarbiswapTradePair token1Pair, IGarbiswapTradePair token2Pair, uint256 deadline) public onlyWhitelist {\r\n        require(token1Pair != token2Pair, 'SAME_PAIR');\r\n        require(pairs[address(token1Pair)] == true, \"PAIR1_NOT_CORRECT\");\r\n        require(pairs[address(token2Pair)] == true, \"PAIR2_NOT_CORRECT\");\r\n        IERC20 token1 = IERC20(token1Pair.token());\r\n        IERC20 token2 = IERC20(token2Pair.token());\r\n        //get token1 to base\r\n        uint256 baseAmount = token1Pair.getBaseOutput(token1InputAmount);\r\n        //get base to token2\r\n        uint256 token2OutputAmount = token2Pair.getTokenOutput(baseAmount);\r\n        require(token2OutputAmount >= minToken2Output, 'CAN_NOT_MAKE_TRADE');\r\n        //\r\n        uint256 _vegrbBalBefore = veGRB.balanceOf(address(this));\r\n        //make trade token1 to base\r\n        token1.transferFrom(msg.sender, address(this), token1InputAmount);\r\n        token1Pair.swapTokenToBaseWithTokenInput(token1InputAmount, baseAmount, deadline);\r\n\r\n        //make trade base to token2\r\n        token2Pair.swapBaseToTokenWithBaseInput(baseAmount, token2OutputAmount, deadline);\r\n        token2.transfer(msg.sender, token2OutputAmount);\r\n\r\n        uint256 _vegrbBalAfter = veGRB.balanceOf(address(this));\r\n\r\n        if (_vegrbBalAfter > _vegrbBalBefore) {\r\n            veGRB.transfer(msg.sender, _vegrbBalAfter.sub(_vegrbBalBefore));\r\n            emit onDistributeGarbi(msg.sender, _vegrbBalAfter.sub(_vegrbBalBefore));\r\n        }\r\n    }\r\n}",
  "sourcePath": "C:\\Users\\David\\Documents\\NetBeansProjects\\garbiprotocol.github.io\\garbi_contracts\\contracts\\GarbiswapTradeMachine.sol",
  "compiler": {
    "name": "solc",
    "version": "0.8.17+commit.8df45f5f.Emscripten.clang"
  },
  "schemaVersion": "3.4.11",
  "updatedAt": "2023-02-23T08:25:41.138Z",
  "devdoc": {
    "kind": "dev",
    "methods": {
      "owner()": {
        "details": "Returns the address of the current owner."
      },
      "renounceOwnership()": {
        "details": "Leaves the contract without owner. It will not be possible to call `onlyOwner` functions anymore. Can only be called by the current owner. NOTE: Renouncing ownership will leave the contract without an owner, thereby removing any functionality that is only available to the owner."
      },
      "transferOwnership(address)": {
        "details": "Transfers ownership of the contract to a new account (`newOwner`). Can only be called by the current owner."
      }
    },
    "version": 1
  },
  "userdoc": {
    "kind": "user",
    "methods": {},
    "version": 1
  }
}