{
  "contractName": "GarbiRepositoryManager",
  "abi": [
    {
      "inputs": [
        {
          "internalType": "contract IERC20withBurnAndMint",
          "name": "garbiECContract",
          "type": "address"
        },
        {
          "internalType": "contract IGarbiswapWhitelist",
          "name": "whitelistContract",
          "type": "address"
        }
      ],
      "stateMutability": "nonpayable",
      "type": "constructor"
    },
    {
      "anonymous": false,
      "inputs": [
        {
          "indexed": true,
          "internalType": "address",
          "name": "previousOwner",
          "type": "address"
        },
        {
          "indexed": true,
          "internalType": "address",
          "name": "newOwner",
          "type": "address"
        }
      ],
      "name": "OwnershipTransferred",
      "type": "event"
    },
    {
      "anonymous": false,
      "inputs": [
        {
          "indexed": false,
          "internalType": "address",
          "name": "account",
          "type": "address"
        }
      ],
      "name": "Paused",
      "type": "event"
    },
    {
      "anonymous": false,
      "inputs": [
        {
          "indexed": false,
          "internalType": "address",
          "name": "account",
          "type": "address"
        }
      ],
      "name": "Unpaused",
      "type": "event"
    },
    {
      "anonymous": false,
      "inputs": [
        {
          "indexed": false,
          "internalType": "address",
          "name": "repoAddress",
          "type": "address"
        },
        {
          "indexed": false,
          "internalType": "uint256",
          "name": "repoShare",
          "type": "uint256"
        },
        {
          "indexed": false,
          "internalType": "uint256",
          "name": "repoMaxCapacityLimit",
          "type": "uint256"
        }
      ],
      "name": "onAddRepository",
      "type": "event"
    },
    {
      "anonymous": false,
      "inputs": [
        {
          "indexed": false,
          "internalType": "address",
          "name": "user",
          "type": "address"
        },
        {
          "indexed": false,
          "internalType": "address",
          "name": "repoInAddress",
          "type": "address"
        },
        {
          "indexed": false,
          "internalType": "uint256",
          "name": "assetInAmount",
          "type": "uint256"
        },
        {
          "indexed": false,
          "internalType": "uint256",
          "name": "garbiECOutAmount",
          "type": "uint256"
        }
      ],
      "name": "onBuyGarbiEC",
      "type": "event"
    },
    {
      "anonymous": false,
      "inputs": [
        {
          "indexed": false,
          "internalType": "address",
          "name": "user",
          "type": "address"
        },
        {
          "indexed": false,
          "internalType": "address",
          "name": "repoOutAddress",
          "type": "address"
        },
        {
          "indexed": false,
          "internalType": "uint256",
          "name": "assetOutAmount",
          "type": "uint256"
        },
        {
          "indexed": false,
          "internalType": "uint256",
          "name": "garbiECInAmount",
          "type": "uint256"
        }
      ],
      "name": "onSellGarbiEC",
      "type": "event"
    },
    {
      "anonymous": false,
      "inputs": [
        {
          "indexed": false,
          "internalType": "address",
          "name": "user",
          "type": "address"
        },
        {
          "indexed": false,
          "internalType": "address",
          "name": "repoInAddress",
          "type": "address"
        },
        {
          "indexed": false,
          "internalType": "address",
          "name": "repoOutAddress",
          "type": "address"
        },
        {
          "indexed": false,
          "internalType": "uint256",
          "name": "tokenInputAmount",
          "type": "uint256"
        },
        {
          "indexed": false,
          "internalType": "uint256",
          "name": "tokenOutputAmount",
          "type": "uint256"
        }
      ],
      "name": "onSwapTokenToTokenWithTokenInput",
      "type": "event"
    },
    {
      "anonymous": false,
      "inputs": [
        {
          "indexed": false,
          "internalType": "address",
          "name": "repoAddress",
          "type": "address"
        },
        {
          "indexed": false,
          "internalType": "uint256",
          "name": "repoShare",
          "type": "uint256"
        },
        {
          "indexed": false,
          "internalType": "uint256",
          "name": "repoMaxCapacityLimit",
          "type": "uint256"
        }
      ],
      "name": "onUpdateRepository",
      "type": "event"
    },
    {
      "inputs": [],
      "name": "GarbiEC",
      "outputs": [
        {
          "internalType": "contract IERC20withBurnAndMint",
          "name": "",
          "type": "address"
        }
      ],
      "stateMutability": "view",
      "type": "function"
    },
    {
      "inputs": [
        {
          "internalType": "address",
          "name": "",
          "type": "address"
        }
      ],
      "name": "baseToRepo",
      "outputs": [
        {
          "internalType": "address",
          "name": "",
          "type": "address"
        }
      ],
      "stateMutability": "view",
      "type": "function"
    },
    {
      "inputs": [],
      "name": "owner",
      "outputs": [
        {
          "internalType": "address",
          "name": "",
          "type": "address"
        }
      ],
      "stateMutability": "view",
      "type": "function"
    },
    {
      "inputs": [],
      "name": "paused",
      "outputs": [
        {
          "internalType": "bool",
          "name": "",
          "type": "bool"
        }
      ],
      "stateMutability": "view",
      "type": "function"
    },
    {
      "inputs": [],
      "name": "platformFundAddress",
      "outputs": [
        {
          "internalType": "address",
          "name": "",
          "type": "address"
        }
      ],
      "stateMutability": "view",
      "type": "function"
    },
    {
      "inputs": [],
      "name": "renounceOwnership",
      "outputs": [],
      "stateMutability": "nonpayable",
      "type": "function"
    },
    {
      "inputs": [
        {
          "internalType": "uint256",
          "name": "",
          "type": "uint256"
        }
      ],
      "name": "repoAddresses",
      "outputs": [
        {
          "internalType": "address",
          "name": "",
          "type": "address"
        }
      ],
      "stateMutability": "view",
      "type": "function"
    },
    {
      "inputs": [
        {
          "internalType": "address",
          "name": "",
          "type": "address"
        }
      ],
      "name": "repoList",
      "outputs": [
        {
          "internalType": "uint256",
          "name": "share",
          "type": "uint256"
        },
        {
          "internalType": "uint256",
          "name": "maxCapacityLimit",
          "type": "uint256"
        }
      ],
      "stateMutability": "view",
      "type": "function"
    },
    {
      "inputs": [],
      "name": "totalShares",
      "outputs": [
        {
          "internalType": "uint256",
          "name": "",
          "type": "uint256"
        }
      ],
      "stateMutability": "view",
      "type": "function"
    },
    {
      "inputs": [
        {
          "internalType": "address",
          "name": "newOwner",
          "type": "address"
        }
      ],
      "name": "transferOwnership",
      "outputs": [],
      "stateMutability": "nonpayable",
      "type": "function"
    },
    {
      "inputs": [],
      "name": "whitelist",
      "outputs": [
        {
          "internalType": "contract IGarbiswapWhitelist",
          "name": "",
          "type": "address"
        }
      ],
      "stateMutability": "view",
      "type": "function"
    },
    {
      "inputs": [
        {
          "internalType": "address",
          "name": "repoAddress",
          "type": "address"
        },
        {
          "internalType": "uint256",
          "name": "repoShare",
          "type": "uint256"
        },
        {
          "internalType": "uint256",
          "name": "repoMaxCapacityLimit",
          "type": "uint256"
        }
      ],
      "name": "addRepository",
      "outputs": [],
      "stateMutability": "nonpayable",
      "type": "function"
    },
    {
      "inputs": [
        {
          "internalType": "address",
          "name": "repoAddress",
          "type": "address"
        },
        {
          "internalType": "uint256",
          "name": "repoShare",
          "type": "uint256"
        },
        {
          "internalType": "uint256",
          "name": "repoMaxCapacityLimit",
          "type": "uint256"
        }
      ],
      "name": "updateRepository",
      "outputs": [],
      "stateMutability": "nonpayable",
      "type": "function"
    },
    {
      "inputs": [
        {
          "internalType": "uint256",
          "name": "newTotalShares",
          "type": "uint256"
        }
      ],
      "name": "setTotalShares",
      "outputs": [],
      "stateMutability": "nonpayable",
      "type": "function"
    },
    {
      "inputs": [
        {
          "internalType": "uint256",
          "name": "newFee",
          "type": "uint256"
        }
      ],
      "name": "setSellGarbiECFee",
      "outputs": [],
      "stateMutability": "nonpayable",
      "type": "function"
    },
    {
      "inputs": [
        {
          "internalType": "address",
          "name": "newAddress",
          "type": "address"
        }
      ],
      "name": "setPlatformFundAdress",
      "outputs": [],
      "stateMutability": "nonpayable",
      "type": "function"
    },
    {
      "inputs": [
        {
          "internalType": "contract IERC20withBurnAndMint",
          "name": "newGarbiECContract",
          "type": "address"
        }
      ],
      "name": "setGarbiEquityCertificateContract",
      "outputs": [],
      "stateMutability": "nonpayable",
      "type": "function"
    },
    {
      "inputs": [
        {
          "internalType": "address",
          "name": "repoInAddress",
          "type": "address"
        },
        {
          "internalType": "uint256",
          "name": "assetInAmount",
          "type": "uint256"
        }
      ],
      "name": "buyGarbiEquityCertificate",
      "outputs": [],
      "stateMutability": "nonpayable",
      "type": "function"
    },
    {
      "inputs": [
        {
          "internalType": "address",
          "name": "repoOutAddress",
          "type": "address"
        },
        {
          "internalType": "uint256",
          "name": "garbiECInAmount",
          "type": "uint256"
        }
      ],
      "name": "sellGarbiEquityCertificate",
      "outputs": [],
      "stateMutability": "nonpayable",
      "type": "function"
    },
    {
      "inputs": [
        {
          "internalType": "address",
          "name": "repoInAddress",
          "type": "address"
        },
        {
          "internalType": "address",
          "name": "repoOutAddress",
          "type": "address"
        },
        {
          "internalType": "uint256",
          "name": "tokenInputAmount",
          "type": "uint256"
        },
        {
          "internalType": "uint256",
          "name": "minTokenOutputAmount",
          "type": "uint256"
        }
      ],
      "name": "swapTokenToTokenWithTokenInput",
      "outputs": [],
      "stateMutability": "nonpayable",
      "type": "function"
    },
    {
      "inputs": [
        {
          "internalType": "contract IGarbiRepository",
          "name": "repoIn",
          "type": "address"
        },
        {
          "internalType": "contract IGarbiRepository",
          "name": "repoOut",
          "type": "address"
        },
        {
          "internalType": "uint256",
          "name": "tokenInputAmount",
          "type": "uint256"
        }
      ],
      "name": "getTokenOutputAmountFromTokenInput",
      "outputs": [
        {
          "internalType": "uint256",
          "name": "",
          "type": "uint256"
        }
      ],
      "stateMutability": "view",
      "type": "function"
    },
    {
      "inputs": [],
      "name": "getGarbiECPrice",
      "outputs": [
        {
          "internalType": "uint256",
          "name": "garbiECPrice",
          "type": "uint256"
        }
      ],
      "stateMutability": "view",
      "type": "function"
    },
    {
      "inputs": [
        {
          "internalType": "address",
          "name": "repoInAddress",
          "type": "address"
        },
        {
          "internalType": "uint256",
          "name": "assetInAmount",
          "type": "uint256"
        }
      ],
      "name": "getDataToBuyGarbiEC",
      "outputs": [
        {
          "internalType": "uint256",
          "name": "garbiECOutAmount",
          "type": "uint256"
        }
      ],
      "stateMutability": "view",
      "type": "function"
    },
    {
      "inputs": [
        {
          "internalType": "address",
          "name": "repoOutAddress",
          "type": "address"
        },
        {
          "internalType": "uint256",
          "name": "garbiECInAmount",
          "type": "uint256"
        }
      ],
      "name": "getDataToSellGarbiEC",
      "outputs": [
        {
          "internalType": "uint256",
          "name": "assetOutAmount",
          "type": "uint256"
        }
      ],
      "stateMutability": "view",
      "type": "function"
    },
    {
      "inputs": [
        {
          "internalType": "address",
          "name": "repoOutAddress",
          "type": "address"
        },
        {
          "internalType": "uint256",
          "name": "assetOutAmount",
          "type": "uint256"
        }
      ],
      "name": "getSellGarbiECDynamicFee",
      "outputs": [
        {
          "internalType": "uint256",
          "name": "fee",
          "type": "uint256"
        }
      ],
      "stateMutability": "view",
      "type": "function"
    }
  ],
  "bytecode": "0x60806040526103e860035560236008553480156200001c57600080fd5b5060405162002de438038062002de48339810160408190526200003f9162000128565b60016000556200004f33620000bd565b6001805460ff60a01b19169055600780546001600160a01b038085166001600160a01b0319928316179092556002805492841692909116919091179055620000943390565b600980546001600160a01b0319166001600160a01b039290921691909117905550620001679050565b600180546001600160a01b038381166001600160a01b0319831681179093556040519116919082907f8be0079c531659141344cd1fd0a4f28419497f9722a3daafe3b4186f6b6457e090600090a35050565b6001600160a01b03811681146200012557600080fd5b50565b600080604083850312156200013c57600080fd5b825162000149816200010f565b60208401519092506200015c816200010f565b809150509250929050565b612c6d80620001776000396000f3fe608060405234801561001057600080fd5b50600436106101735760003560e01c8063a5f270b7116100de578063d3b76e5c11610097578063f2fde38b11610071578063f2fde38b14610341578063f71c37bb14610354578063fc1359d014610367578063ff78a6541461039057600080fd5b8063d3b76e5c146102ea578063ebf3da93146102f2578063eef4a00e1461030557600080fd5b8063a5f270b714610278578063a77384c11461028b578063b0baa1f31461029e578063bdb4da2e146102b1578063c8de8368146102c4578063d1dc64cf146102d757600080fd5b80635c975abb116101305780635c975abb146101f5578063715018a6146102125780638da5cb5b1461021a5780638fe6041d1461023f57806393e59dc1146102525780639fa5e63e1461026557600080fd5b806305e90618146101785780630bc8f11c1461019e57806319b1d0d8146101b3578063357e4733146101c657806336bbbe31146101d95780633a98ef39146101ec575b600080fd5b61018b61018636600461296b565b6103a3565b6040519081526020015b60405180910390f35b6101b16101ac3660046129ac565b610491565b005b6101b16101c13660046129d8565b610bc3565b6101b16101d4366004612a1e565b61123a565b61018b6101e73660046129ac565b61128a565b61018b60035481565b600154600160a01b900460ff166040519015158152602001610195565b6101b1611536565b6001546001600160a01b03165b6040516001600160a01b039091168152602001610195565b6101b161024d366004612a1e565b61154a565b600254610227906001600160a01b031681565b600954610227906001600160a01b031681565b61018b6102863660046129ac565b611574565b6101b1610299366004612a42565b611673565b6101b16102ac366004612a5b565b6116a0565b6101b16102bf3660046129ac565b6118aa565b61018b6102d23660046129ac565b612010565b6101b16102e5366004612a5b565b6120a0565b61018b6121d6565b610227610300366004612a42565b612386565b61032c610313366004612a1e565b6005602052600090815260409020805460019091015482565b60408051928352602083019190915201610195565b6101b161034f366004612a1e565b6123b0565b600754610227906001600160a01b031681565b610227610375366004612a1e565b6006602052600090815260409020546001600160a01b031681565b6101b161039e366004612a42565b612429565b600080846001600160a01b031663b49f4afd6040518163ffffffff1660e01b8152600401602060405180830381865afa1580156103e4573d6000803e3d6000fd5b505050506040513d601f19601f820116820180604052508101906104089190612a90565b90506000846001600160a01b031663b49f4afd6040518163ffffffff1660e01b8152600401602060405180830381865afa15801561044a573d6000803e3d6000fd5b505050506040513d601f19601f8201168201806040525081019061046e9190612a90565b90506000610486826104808786612456565b9061246b565b979650505050505050565b610499612477565b816001600160a01b0381166104c95760405162461bcd60e51b81526004016104c090612aa9565b60405180910390fd5b6000805b60045481101561052957826001600160a01b0316600482815481106104f4576104f4612ad7565b6000918252602090912001546001600160a01b0316036105175760019150610529565b8061052181612b03565b9150506104cd565b508060011461054a5760405162461bcd60e51b81526004016104c090612b1c565b3332146105de57600254604051636c9b2a3f60e11b81523360048201526001600160a01b039091169063d936547e90602401602060405180830381865afa158015610599573d6000803e3d6000fd5b505050506040513d601f19601f820116820180604052508101906105bd9190612b48565b15156001146105de5760405162461bcd60e51b81526004016104c090612b6a565b600083116106255760405162461bcd60e51b81526020600482015260146024820152731253959053125117d054d4d15517d05353d5539560621b60448201526064016104c0565b6001600160a01b0384166000908152600560205260409020546106795760405162461bcd60e51b815260206004820152600c60248201526b494e56414c49445f5245504f60a01b60448201526064016104c0565b600084905060056000866001600160a01b03166001600160a01b031681526020019081526020016000206001015461071385836001600160a01b03166329b315d76040518163ffffffff1660e01b8152600401602060405180830381865afa1580156106e9573d6000803e3d6000fd5b505050506040513d601f19601f8201168201806040525081019061070d9190612a90565b906124d0565b111561075a5760405162461bcd60e51b8152602060048201526016602482015275494e56414c49445f41535345545f434150414349545960501b60448201526064016104c0565b6000816001600160a01b0316635001f3b56040518163ffffffff1660e01b8152600401602060405180830381865afa15801561079a573d6000803e3d6000fd5b505050506040513d601f19601f820116820180604052508101906107be9190612b95565b6040516370a0823160e01b81523360048201529091506000906001600160a01b038316906370a0823190602401602060405180830381865afa158015610808573d6000803e3d6000fd5b505050506040513d601f19601f8201168201806040525081019061082c9190612a90565b9050826001600160a01b031663af7dfc8382856001600160a01b031663db7b373e6040518163ffffffff1660e01b8152600401602060405180830381865afa15801561087c573d6000803e3d6000fd5b505050506040513d601f19601f820116820180604052508101906108a09190612a90565b6040516001600160e01b031960e085901b16815260048101929092526024820152604401602060405180830381865afa1580156108e1573d6000803e3d6000fd5b505050506040513d601f19601f820116820180604052508101906109059190612a90565b905080861115610913578095505b600061091f8888612010565b604051633e7bbdcf60e11b815260048101899052601260248201529091506000906001600160a01b03861690637cf77b9e90604401602060405180830381865afa158015610971573d6000803e3d6000fd5b505050506040513d601f19601f820116820180604052508101906109959190612a90565b6040516323b872dd60e01b8152336004820152306024820152604481018290529091506001600160a01b038516906323b872dd906064016020604051808303816000875af11580156109eb573d6000803e3d6000fd5b505050506040513d601f19601f82011682018060405250810190610a0f9190612b48565b506007546040516340c10f1960e01b8152306004820152602481018490526001600160a01b03909116906340c10f1990604401600060405180830381600087803b158015610a5c57600080fd5b505af1158015610a70573d6000803e3d6000fd5b505060405163a9059cbb60e01b81526001600160a01b038c81166004830152602482018590528716925063a9059cbb91506044016020604051808303816000875af1158015610ac3573d6000803e3d6000fd5b505050506040513d601f19601f82011682018060405250810190610ae79190612b48565b5060075460405163a9059cbb60e01b8152336004820152602481018490526001600160a01b039091169063a9059cbb906044016020604051808303816000875af1158015610b39573d6000803e3d6000fd5b505050506040513d601f19601f82011682018060405250810190610b5d9190612b48565b50604080513381526001600160a01b038b166020820152908101899052606081018390527f28b2a32484c6b4c70369af6ce67fc8bd54394b3d31d4ce7c84579537dac1a67d9060800160405180910390a150505050505050610bbf6001600055565b5050565b836001600160a01b038116610bea5760405162461bcd60e51b81526004016104c090612aa9565b6000805b600454811015610c4a57826001600160a01b031660048281548110610c1557610c15612ad7565b6000918252602090912001546001600160a01b031603610c385760019150610c4a565b80610c4281612b03565b915050610bee565b5080600114610c6b5760405162461bcd60e51b81526004016104c090612b1c565b846001600160a01b038116610c925760405162461bcd60e51b81526004016104c090612aa9565b6000805b600454811015610cf257826001600160a01b031660048281548110610cbd57610cbd612ad7565b6000918252602090912001546001600160a01b031603610ce05760019150610cf2565b80610cea81612b03565b915050610c96565b5080600114610d135760405162461bcd60e51b81526004016104c090612b1c565b610d1b612477565b333214610daf57600254604051636c9b2a3f60e11b81523360048201526001600160a01b039091169063d936547e90602401602060405180830381865afa158015610d6a573d6000803e3d6000fd5b505050506040513d601f19601f82011682018060405250810190610d8e9190612b48565b1515600114610daf5760405162461bcd60e51b81526004016104c090612b6a565b610db76124dc565b866001600160a01b0316886001600160a01b031603610e075760405162461bcd60e51b815260206004820152600c60248201526b24a72b20a624a22fa820a4a960a11b60448201526064016104c0565b60008611610e575760405162461bcd60e51b815260206004820152601a60248201527f494e56414c49445f544f4b454e5f494e5055545f414d4f554e5400000000000060448201526064016104c0565b60008511610ea75760405162461bcd60e51b815260206004820152601f60248201527f494e56414c49445f4d494e5f544f4b454e5f4f55545055545f414d4f554e540060448201526064016104c0565b87876000610eb683838b6103a3565b9050816001600160a01b03166329b315d76040518163ffffffff1660e01b8152600401602060405180830381865afa158015610ef6573d6000803e3d6000fd5b505050506040513d601f19601f82011682018060405250810190610f1a9190612a90565b811115610f5e5760405162461bcd60e51b81526020600482015260126024820152711253959053125117d3d55517d05353d5539560721b60448201526064016104c0565b87811015610fa35760405162461bcd60e51b815260206004820152601260248201527143414e5f4e4f545f4d414b455f545241444560701b60448201526064016104c0565b6000836001600160a01b0316635001f3b56040518163ffffffff1660e01b8152600401602060405180830381865afa158015610fe3573d6000803e3d6000fd5b505050506040513d601f19601f820116820180604052508101906110079190612b95565b6040516370a0823160e01b81523360048201529091506000906001600160a01b038087169163af7dfc83918516906370a0823190602401602060405180830381865afa15801561105b573d6000803e3d6000fd5b505050506040513d601f19601f8201168201806040525081019061107f9190612a90565b876001600160a01b031663db7b373e6040518163ffffffff1660e01b8152600401602060405180830381865afa1580156110bd573d6000803e3d6000fd5b505050506040513d601f19601f820116820180604052508101906110e19190612a90565b6040516001600160e01b031960e085901b16815260048101929092526024820152604401602060405180830381865afa158015611122573d6000803e3d6000fd5b505050506040513d601f19601f820116820180604052508101906111469190612a90565b9050808b11156111a75760405162461bcd60e51b815260206004820152602660248201527f544f4b454e5f494e5055545f414d4f554e545f4849474845525f555345525f42604482015265414c414e434560d01b60648201526084016104c0565b6111b385858d86612529565b7ffc0ee25bc464a6d6a6abc825d948fbb0f401e3f27595fba2786873756281b45a338e8e8e876040516112199594939291906001600160a01b03958616815293851660208501529190931660408301526060820192909252608081019190915260a00190565b60405180910390a150505050506112306001600055565b5050505050505050565b61124261289e565b6001600160a01b0381166112685760405162461bcd60e51b81526004016104c090612bb2565b600780546001600160a01b0319166001600160a01b0392909216919091179055565b6000808080805b60045481101561143557600060056000600484815481106112b4576112b4612ad7565b60009182526020808320909101546001600160a01b031683528201929092526040019020541115611423576000600482815481106112f4576112f4612ad7565b9060005260206000200160009054906101000a90046001600160a01b03169050611380816001600160a01b03166335a226646040518163ffffffff1660e01b8152600401602060405180830381865afa158015611355573d6000803e3d6000fd5b505050506040513d601f19601f820116820180604052508101906113799190612a90565b86906124d0565b9450876001600160a01b03166004838154811061139f5761139f612ad7565b6000918252602090912001546001600160a01b03160361142157806001600160a01b03166335a226646040518163ffffffff1660e01b8152600401602060405180830381865afa1580156113f7573d6000803e3d6000fd5b505050506040513d601f19601f8201168201806040525081019061141b9190612a90565b93508092505b505b8061142d81612b03565b915050611291565b506000816001600160a01b031663b49f4afd6040518163ffffffff1660e01b8152600401602060405180830381865afa158015611476573d6000803e3d6000fd5b505050506040513d601f19601f8201168201806040525081019061149a9190612a90565b905060006114b4670de0b6b3a76400006104808985612456565b905060006114dc6114c587846128f8565b600354610480906114d689876128f8565b90612456565b6003546001600160a01b038b166000908152600560205260408120549293509161150b91849161048091612456565b90506115286003546104808360085461245690919063ffffffff16565b9a9950505050505050505050565b61153e61289e565b6115486000612904565b565b61155261289e565b600980546001600160a01b0319166001600160a01b0392909216919091179055565b60008061157f6121d6565b905060008490506000816001600160a01b031663b49f4afd6040518163ffffffff1660e01b8152600401602060405180830381865afa1580156115c6573d6000803e3d6000fd5b505050506040513d601f19601f820116820180604052508101906115ea9190612a90565b90506115fa816104808786612456565b9350816001600160a01b03166329b315d76040518163ffffffff1660e01b8152600401602060405180830381865afa15801561163a573d6000803e3d6000fd5b505050506040513d601f19601f8201168201806040525081019061165e9190612a90565b84111561166a57600093505b50505092915050565b61167b61289e565b6000811161169b5760405162461bcd60e51b81526004016104c090612bb2565b600355565b6116a861289e565b6001600160a01b0383166116ce5760405162461bcd60e51b81526004016104c090612aa9565b600082116117135760405162461bcd60e51b8152602060048201526012602482015271494e56414c49445f5245504f5f534841524560701b60448201526064016104c0565b6000811161175b5760405162461bcd60e51b8152602060048201526015602482015274494e56414c49445f5245504f5f434150414349545960581b60448201526064016104c0565b60408051808201825283815260208082018481526001600160a01b0387166000818152600584528581209451855591516001948501556004805494850181558083527f8a35acfbc15ff81a39ae7d344fd709f28e8600b4aa8c65c6b64bfe7fe36bd19b90940180546001600160a01b031916821790558451635001f3b560e01b8152945188958695600695635001f3b59383830193919290918290030181865afa15801561180d573d6000803e3d6000fd5b505050506040513d601f19601f820116820180604052508101906118319190612b95565b6001600160a01b039081168252602080830193909352604091820160002080546001600160a01b031916948216949094179093558051928716835290820185905281018390527f0f9add0213bdb1ede37a5c610b3e9634dc14ffc80ab82643288e3faf88f73ae09060600160405180910390a150505050565b6118b2612477565b816001600160a01b0381166118d95760405162461bcd60e51b81526004016104c090612aa9565b6000805b60045481101561193957826001600160a01b03166004828154811061190457611904612ad7565b6000918252602090912001546001600160a01b0316036119275760019150611939565b8061193181612b03565b9150506118dd565b508060011461195a5760405162461bcd60e51b81526004016104c090612b1c565b3332146119ee57600254604051636c9b2a3f60e11b81523360048201526001600160a01b039091169063d936547e90602401602060405180830381865afa1580156119a9573d6000803e3d6000fd5b505050506040513d601f19601f820116820180604052508101906119cd9190612b48565b15156001146119ee5760405162461bcd60e51b81526004016104c090612b6a565b60008311611a375760405162461bcd60e51b81526020600482015260166024820152751253959053125117d1d05490925150d7d05353d5539560521b60448201526064016104c0565b6001600160a01b038416600090815260056020526040902054611a8b5760405162461bcd60e51b815260206004820152600c60248201526b494e56414c49445f5245504f60a01b60448201526064016104c0565b60008490506000816001600160a01b0316635001f3b56040518163ffffffff1660e01b8152600401602060405180830381865afa158015611ad0573d6000803e3d6000fd5b505050506040513d601f19601f82011682018060405250810190611af49190612b95565b6007546040516370a0823160e01b81523360048201529192506000916001600160a01b03909116906370a0823190602401602060405180830381865afa158015611b42573d6000803e3d6000fd5b505050506040513d601f19601f82011682018060405250810190611b669190612a90565b905080861115611b74578095505b6000611b808888611574565b905060008111611bcb5760405162461bcd60e51b8152602060048201526016602482015275494e56414c49445f4f55545f414d554e545f5a45524f60501b60448201526064016104c0565b836001600160a01b03166329b315d76040518163ffffffff1660e01b8152600401602060405180830381865afa158015611c09573d6000803e3d6000fd5b505050506040513d601f19601f82011682018060405250810190611c2d9190612a90565b811115611c715760405162461bcd60e51b81526020600482015260126024820152711253959053125117d3d55517d05353d5539560721b60448201526064016104c0565b6000611c8d612710610480611c868c8661128a565b8590612456565b90506000611c9b83836128f8565b6007546040516323b872dd60e01b8152336004820152306024820152604481018c90529192506001600160a01b0316906323b872dd906064016020604051808303816000875af1158015611cf3573d6000803e3d6000fd5b505050506040513d601f19601f82011682018060405250810190611d179190612b48565b50600754604051630852cd8d60e31b8152600481018b90526001600160a01b03909116906342966c6890602401600060405180830381600087803b158015611d5e57600080fd5b505af1158015611d72573d6000803e3d6000fd5b50506040516351380da560e11b8152600481018690526001600160a01b038916925063a2701b4a9150602401600060405180830381600087803b158015611db857600080fd5b505af1158015611dcc573d6000803e3d6000fd5b5050604051633e7bbdcf60e11b815260048101849052601260248201526001600160a01b03808916935063a9059cbb92503391908a1690637cf77b9e90604401602060405180830381865afa158015611e29573d6000803e3d6000fd5b505050506040513d601f19601f82011682018060405250810190611e4d9190612a90565b6040516001600160e01b031960e085901b1681526001600160a01b03909216600483015260248201526044016020604051808303816000875af1158015611e98573d6000803e3d6000fd5b505050506040513d601f19601f82011682018060405250810190611ebc9190612b48565b50600954604051633e7bbdcf60e11b815260048101849052601260248201526001600160a01b038781169263a9059cbb92908216918a1690637cf77b9e90604401602060405180830381865afa158015611f1a573d6000803e3d6000fd5b505050506040513d601f19601f82011682018060405250810190611f3e9190612a90565b6040516001600160e01b031960e085901b1681526001600160a01b03909216600483015260248201526044016020604051808303816000875af1158015611f89573d6000803e3d6000fd5b505050506040513d601f19601f82011682018060405250810190611fad9190612b48565b50604080513381526001600160a01b038c166020820152908101829052606081018a90527f9b5a54131d57ff379fca74da7f4efca1b9105facc9eb666cdb4dc2991622cee39060800160405180910390a15050505050505050610bbf6001600055565b60008061201b6121d6565b905060008490506000816001600160a01b031663b49f4afd6040518163ffffffff1660e01b8152600401602060405180830381865afa158015612062573d6000803e3d6000fd5b505050506040513d601f19601f820116820180604052508101906120869190612a90565b9050612096836104808784612456565b9695505050505050565b6120a861289e565b6001600160a01b0383166120ce5760405162461bcd60e51b81526004016104c090612aa9565b600082116121135760405162461bcd60e51b8152602060048201526012602482015271494e56414c49445f5245504f5f534841524560701b60448201526064016104c0565b6000811161215b5760405162461bcd60e51b8152602060048201526015602482015274494e56414c49445f5245504f5f434150414349545960581b60448201526064016104c0565b60408051808201825283815260208082018481526001600160a01b038716600081815260058452859020935184559051600190930192909255825191825281018490529081018290527f34d71eb9581c2f82d3886aa369754ce61007988ffaa3bdda51b914219b3b120a9060600160405180910390a1505050565b600080805b6004548110156122e057600060056000600484815481106121fe576121fe612ad7565b60009182526020808320909101546001600160a01b0316835282019290925260400190205411156122ce5760006004828154811061223e5761223e612ad7565b9060005260206000200160009054906101000a90046001600160a01b031690506122ca816001600160a01b03166335a226646040518163ffffffff1660e01b8152600401602060405180830381865afa15801561229f573d6000803e3d6000fd5b505050506040513d601f19601f820116820180604052508101906122c39190612a90565b84906124d0565b9250505b806122d881612b03565b9150506121db565b50600754604080516318160ddd60e01b815290516000926001600160a01b0316916318160ddd9160048083019260209291908290030181865afa15801561232b573d6000803e3d6000fd5b505050506040513d601f19601f8201168201806040525081019061234f9190612a90565b90508060000361236957670de0b6b3a76400009250505090565b61237f8161048084670de0b6b3a7640000612456565b9250505090565b6004818154811061239657600080fd5b6000918252602090912001546001600160a01b0316905081565b6123b861289e565b6001600160a01b03811661241d5760405162461bcd60e51b815260206004820152602660248201527f4f776e61626c653a206e6577206f776e657220697320746865207a65726f206160448201526564647265737360d01b60648201526084016104c0565b61242681612904565b50565b61243161289e565b600081116124515760405162461bcd60e51b81526004016104c090612bb2565b600855565b60006124628284612bd8565b90505b92915050565b60006124628284612bef565b6002600054036124c95760405162461bcd60e51b815260206004820152601f60248201527f5265656e7472616e637947756172643a207265656e7472616e742063616c6c0060448201526064016104c0565b6002600055565b60006124628284612c11565b600154600160a01b900460ff16156115485760405162461bcd60e51b815260206004820152601060248201526f14185d5cd8589b194e881c185d5cd95960821b60448201526064016104c0565b6000846001600160a01b0316635001f3b56040518163ffffffff1660e01b8152600401602060405180830381865afa158015612569573d6000803e3d6000fd5b505050506040513d601f19601f8201168201806040525081019061258d9190612b95565b90506000846001600160a01b0316635001f3b56040518163ffffffff1660e01b8152600401602060405180830381865afa1580156125cf573d6000803e3d6000fd5b505050506040513d601f19601f820116820180604052508101906125f39190612b95565b604051633e7bbdcf60e11b815260048101869052601260248201529091506000906001600160a01b03881690637cf77b9e90604401602060405180830381865afa158015612645573d6000803e3d6000fd5b505050506040513d601f19601f820116820180604052508101906126699190612a90565b6040516323b872dd60e01b8152336004820152306024820152604481018290529091506001600160a01b038416906323b872dd906064016020604051808303816000875af11580156126bf573d6000803e3d6000fd5b505050506040513d601f19601f820116820180604052508101906126e39190612b48565b5060405163a9059cbb60e01b81526001600160a01b0388811660048301526024820183905284169063a9059cbb906044016020604051808303816000875af1158015612733573d6000803e3d6000fd5b505050506040513d601f19601f820116820180604052508101906127579190612b48565b506040516351380da560e11b8152600481018590526001600160a01b0387169063a2701b4a90602401600060405180830381600087803b15801561279a57600080fd5b505af11580156127ae573d6000803e3d6000fd5b5050604051633e7bbdcf60e11b815260048101879052601260248201526001600160a01b03808616935063a9059cbb92503391908a1690637cf77b9e90604401602060405180830381865afa15801561280b573d6000803e3d6000fd5b505050506040513d601f19601f8201168201806040525081019061282f9190612a90565b6040516001600160e01b031960e085901b1681526001600160a01b03909216600483015260248201526044016020604051808303816000875af115801561287a573d6000803e3d6000fd5b505050506040513d601f19601f820116820180604052508101906112309190612b48565b6001546001600160a01b031633146115485760405162461bcd60e51b815260206004820181905260248201527f4f776e61626c653a2063616c6c6572206973206e6f7420746865206f776e657260448201526064016104c0565b60006124628284612c24565b600180546001600160a01b038381166001600160a01b0319831681179093556040519116919082907f8be0079c531659141344cd1fd0a4f28419497f9722a3daafe3b4186f6b6457e090600090a35050565b6001600160a01b038116811461242657600080fd5b60008060006060848603121561298057600080fd5b833561298b81612956565b9250602084013561299b81612956565b929592945050506040919091013590565b600080604083850312156129bf57600080fd5b82356129ca81612956565b946020939093013593505050565b600080600080608085870312156129ee57600080fd5b84356129f981612956565b93506020850135612a0981612956565b93969395505050506040820135916060013590565b600060208284031215612a3057600080fd5b8135612a3b81612956565b9392505050565b600060208284031215612a5457600080fd5b5035919050565b600080600060608486031215612a7057600080fd5b8335612a7b81612956565b95602085013595506040909401359392505050565b600060208284031215612aa257600080fd5b5051919050565b602080825260149082015273494e56414c49445f5245504f5f4144445245535360601b604082015260600190565b634e487b7160e01b600052603260045260246000fd5b634e487b7160e01b600052601160045260246000fd5b600060018201612b1557612b15612aed565b5060010190565b60208082526012908201527124a72b20a624a22fa822a926a4a9a9a4a7a760711b604082015260600190565b600060208284031215612b5a57600080fd5b81518015158114612a3b57600080fd5b6020808252601190820152701253959053125117d5d2125511531254d5607a1b604082015260600190565b600060208284031215612ba757600080fd5b8151612a3b81612956565b6020808252600c908201526b494e56414c49445f4441544160a01b604082015260600190565b808202811582820484141761246557612465612aed565b600082612c0c57634e487b7160e01b600052601260045260246000fd5b500490565b8082018082111561246557612465612aed565b8181038181111561246557612465612aed56fea264697066735822122026a63bb65627a7eab07e6a981bc641f087e60f1e365a1e867bbcd49c33578b9c64736f6c63430008110033",
  "immutableReferences": {},
  "source": "// SPDX-License-Identifier: MIT\r\npragma solidity >=0.8.0;\r\n\r\nimport \"@openzeppelin/contracts/utils/math/SafeMath.sol\";\r\nimport \"@openzeppelin/contracts/token/ERC20/IERC20.sol\";\r\nimport \"@openzeppelin/contracts/access/Ownable.sol\";\r\nimport \"@openzeppelin/contracts/security/ReentrancyGuard.sol\";\r\nimport \"@openzeppelin/contracts/security/Pausable.sol\";\r\n\r\nimport '../interfaces/IERC20withBurnAndMint.sol';\r\nimport '../interfaces/IGarbiRepository.sol';\r\nimport '../interfaces/IGarbiswapWhitelist.sol';\r\n\r\ncontract GarbiRepositoryManager is ReentrancyGuard, Ownable, Pausable {\r\n    using SafeMath for uint256;\r\n\r\n    IGarbiswapWhitelist public whitelist; \r\n\r\n    uint256 public totalShares = 1000;\r\n\r\n    struct RepoInfo {\r\n        uint256 share;\r\n        uint256 maxCapacityLimit;\r\n    }\r\n\r\n    // Array of repo addresses\r\n    address[] public repoAddresses;\r\n\r\n    mapping(address => RepoInfo) public repoList;  \r\n\r\n    mapping(address => address) public baseToRepo;  \r\n\r\n    IERC20withBurnAndMint public GarbiEC;\r\n\r\n    uint256 SELL_GARBIEC_FEE = 35; //35/10000 = 0.35%\r\n\r\n    address public platformFundAddress;\r\n\r\n    modifier onlyRepoInTheList(address repoAddress)\r\n    {\r\n        require(repoAddress != address(0), 'INVALID_REPO_ADDRESS');\r\n        uint flag = 0;\r\n        for (uint i = 0; i < repoAddresses.length; i++) {\r\n            if(repoAddresses[i] == repoAddress) {\r\n                flag = 1;\r\n                break;\r\n            }\r\n        }\r\n        require(flag == 1, \"INVALID_PERMISSION\");\r\n        _;\r\n    }\r\n\r\n    modifier onlyWhitelist()\r\n    {\r\n        if (msg.sender != tx.origin) {\r\n            require(whitelist.whitelisted(msg.sender) == true, 'INVALID_WHITELIST');\r\n        }\r\n        _;\r\n    }\r\n\r\n    // Events\r\n    event onAddRepository(address repoAddress, uint256 repoShare, uint256 repoMaxCapacityLimit);\r\n    event onUpdateRepository(address repoAddress, uint256 repoShare, uint256 repoMaxCapacityLimit); \r\n    event onBuyGarbiEC(address user, address repoInAddress, uint256 assetInAmount, uint256 garbiECOutAmount);\r\n    event onSellGarbiEC(address user, address repoOutAddress, uint256 assetOutAmount, uint256 garbiECInAmount);\r\n    event onSwapTokenToTokenWithTokenInput(address user, address repoInAddress, address repoOutAddress, uint256 tokenInputAmount, uint256 tokenOutputAmount);\r\n\r\n    constructor(\r\n        IERC20withBurnAndMint garbiECContract,\r\n        IGarbiswapWhitelist whitelistContract\r\n    ){\r\n        GarbiEC = garbiECContract;\r\n        whitelist = whitelistContract;\r\n        platformFundAddress = _msgSender();\r\n    }\r\n    \r\n    function addRepository(address repoAddress, uint256 repoShare, uint256 repoMaxCapacityLimit) public onlyOwner {\r\n        require(repoAddress != address(0), 'INVALID_REPO_ADDRESS');\r\n        require(repoShare > 0, 'INVALID_REPO_SHARE');\r\n        require(repoMaxCapacityLimit > 0, 'INVALID_REPO_CAPACITY');\r\n\r\n        repoList[repoAddress] = RepoInfo({\r\n            share : repoShare,\r\n            maxCapacityLimit : repoMaxCapacityLimit\r\n        });\r\n\r\n        repoAddresses.push(repoAddress);\r\n\r\n        IGarbiRepository repo = IGarbiRepository(repoAddress);\r\n\r\n        baseToRepo[repo.base()] = repoAddress;\r\n\r\n        emit onAddRepository(repoAddress, repoShare, repoMaxCapacityLimit);\r\n    }\r\n\r\n    function updateRepository(address repoAddress, uint256 repoShare, uint256 repoMaxCapacityLimit) public onlyOwner {\r\n        require(repoAddress != address(0), 'INVALID_REPO_ADDRESS');\r\n        require(repoShare > 0, 'INVALID_REPO_SHARE');\r\n        require(repoMaxCapacityLimit > 0, 'INVALID_REPO_CAPACITY');\r\n\r\n        repoList[repoAddress] = RepoInfo({\r\n            share : repoShare,\r\n            maxCapacityLimit : repoMaxCapacityLimit\r\n        });\r\n\r\n        emit onUpdateRepository(repoAddress, repoShare, repoMaxCapacityLimit);\r\n    }\r\n\r\n    function setTotalShares(uint256 newTotalShares) public onlyOwner {\r\n        require(newTotalShares > 0, 'INVALID_DATA');\r\n        totalShares = newTotalShares;\r\n    }\r\n\r\n    function setSellGarbiECFee(uint256 newFee) public onlyOwner {\r\n        require(newFee > 0, 'INVALID_DATA');\r\n        SELL_GARBIEC_FEE = newFee;\r\n    }\r\n\r\n    function setPlatformFundAdress(address newAddress) public onlyOwner {\r\n        platformFundAddress = newAddress;\r\n    }\r\n\r\n    function setGarbiEquityCertificateContract(IERC20withBurnAndMint newGarbiECContract) public onlyOwner {\r\n        require(address(newGarbiECContract) != address(0), 'INVALID_DATA');\r\n        GarbiEC = newGarbiECContract;\r\n    }\r\n\r\n    function buyGarbiEquityCertificate(address repoInAddress, uint256 assetInAmount) public nonReentrant onlyRepoInTheList(repoInAddress) onlyWhitelist {\r\n        require(assetInAmount > 0, 'INVALID_ASSET_AMOUNT');\r\n        require(repoList[repoInAddress].share > 0, 'INVALID_REPO');\r\n        \r\n        IGarbiRepository repoIn = IGarbiRepository(repoInAddress);\r\n\r\n        require(repoIn.getCapacityByToken().add(assetInAmount) <= repoList[repoInAddress].maxCapacityLimit, 'INVALID_ASSET_CAPACITY');\r\n\r\n        IERC20 base = IERC20(repoIn.base());\r\n\r\n        uint256 baseUserBalance = base.balanceOf(msg.sender);\r\n        baseUserBalance = repoIn.convertDecimalTo18(baseUserBalance, repoIn.baseDecimal());\r\n\r\n        if(assetInAmount > baseUserBalance) {\r\n            assetInAmount = baseUserBalance;\r\n        }\r\n        \r\n        uint256 garbiECOutAmount = getDataToBuyGarbiEC(repoInAddress, assetInAmount);\r\n\r\n        //make trade\r\n        uint256 assetInAmountAtAssetDecimal = repoIn.convertToBaseDecimal(assetInAmount, 18);\r\n        base.transferFrom(msg.sender, address(this), assetInAmountAtAssetDecimal);\r\n        GarbiEC.mint(address(this), garbiECOutAmount);\r\n        base.transfer(repoInAddress, assetInAmountAtAssetDecimal);\r\n        GarbiEC.transfer(msg.sender, garbiECOutAmount);\r\n\r\n        emit onBuyGarbiEC(msg.sender, repoInAddress, assetInAmount, garbiECOutAmount);\r\n    }\r\n\r\n    function sellGarbiEquityCertificate(address repoOutAddress, uint256 garbiECInAmount) public nonReentrant onlyRepoInTheList(repoOutAddress) onlyWhitelist {\r\n        require(garbiECInAmount > 0, 'INVALID_GARBIEC_AMOUNT');\r\n        require(repoList[repoOutAddress].share > 0, 'INVALID_REPO');\r\n        \r\n        IGarbiRepository repoOut = IGarbiRepository(repoOutAddress);\r\n\r\n        IERC20 base = IERC20(repoOut.base());\r\n\r\n        uint256 garbiECUserBalance = GarbiEC.balanceOf(msg.sender);\r\n\r\n        if(garbiECInAmount > garbiECUserBalance) {\r\n            garbiECInAmount = garbiECUserBalance;\r\n        }\r\n\r\n        uint256 baseOutAmount = getDataToSellGarbiEC(repoOutAddress, garbiECInAmount);\r\n        \r\n        require(baseOutAmount > 0, 'INVALID_OUT_AMUNT_ZERO');\r\n        require(baseOutAmount <= repoOut.getCapacityByToken(), 'INVALID_OUT_AMOUNT');\r\n\r\n        uint256 fee = baseOutAmount.mul(getSellGarbiECDynamicFee(repoOutAddress, baseOutAmount)).div(10000);\r\n        uint256 baseOutAmountAfterFee = baseOutAmount.sub(fee);\r\n\r\n        //make trade\r\n        GarbiEC.transferFrom(msg.sender, address(this), garbiECInAmount);\r\n        GarbiEC.burn(garbiECInAmount);\r\n        repoOut.withdrawBaseToRepositoryManager(baseOutAmount);\r\n        base.transfer(msg.sender, repoOut.convertToBaseDecimal(baseOutAmountAfterFee, 18));\r\n        //transfer fee\r\n        base.transfer(platformFundAddress, repoOut.convertToBaseDecimal(fee, 18));\r\n\r\n        emit onSellGarbiEC(msg.sender, repoOutAddress, baseOutAmountAfterFee, garbiECInAmount);\r\n    }\r\n\r\n    function swapTokenToTokenWithTokenInput(address repoInAddress, address repoOutAddress, uint256 tokenInputAmount, uint256 minTokenOutputAmount) public onlyRepoInTheList(repoInAddress) onlyRepoInTheList(repoOutAddress) nonReentrant onlyWhitelist whenNotPaused {\r\n        require(repoInAddress != repoOutAddress, 'INVALID_PAIR');\r\n        require(tokenInputAmount > 0, 'INVALID_TOKEN_INPUT_AMOUNT');\r\n        require(minTokenOutputAmount > 0, 'INVALID_MIN_TOKEN_OUTPUT_AMOUNT');\r\n\r\n        IGarbiRepository repoIn = IGarbiRepository(repoInAddress);\r\n        IGarbiRepository repoOut = IGarbiRepository(repoOutAddress);\r\n        \r\n        uint256 tokenOutputAmount = getTokenOutputAmountFromTokenInput(repoIn, repoOut, tokenInputAmount);\r\n        require(tokenOutputAmount <= repoOut.getCapacityByToken(), 'INVALID_OUT_AMOUNT');\r\n        require(tokenOutputAmount >= minTokenOutputAmount, 'CAN_NOT_MAKE_TRADE');\r\n\r\n        IERC20 baseIn = IERC20(repoIn.base());\r\n\r\n        uint256 baseInUserBalance = repoIn.convertDecimalTo18(baseIn.balanceOf(msg.sender), repoIn.baseDecimal());\r\n\r\n        require(tokenInputAmount <= baseInUserBalance, 'TOKEN_INPUT_AMOUNT_HIGHER_USER_BALANCE');\r\n\r\n        //make trade\r\n        makeTradeOnTwoRepos(repoIn, repoOut, tokenInputAmount, tokenOutputAmount);\r\n\r\n        emit onSwapTokenToTokenWithTokenInput(msg.sender, repoInAddress, repoOutAddress, tokenInputAmount, tokenOutputAmount);\r\n    }\r\n\r\n    function makeTradeOnTwoRepos(IGarbiRepository repoIn, IGarbiRepository repoOut, uint256 tokenInputAmount, uint256 tokenOutputAmount) private {\r\n        IERC20 baseIn = IERC20(repoIn.base());\r\n        IERC20 baseOut = IERC20(repoOut.base());\r\n        uint256 tokenInputAmountAtTokenDecimal = repoIn.convertToBaseDecimal(tokenInputAmount, 18);\r\n        baseIn.transferFrom(msg.sender, address(this), tokenInputAmountAtTokenDecimal);\r\n        baseIn.transfer(address(repoIn), tokenInputAmountAtTokenDecimal);\r\n        repoOut.withdrawBaseToRepositoryManager(tokenOutputAmount);\r\n        baseOut.transfer(msg.sender, repoOut.convertToBaseDecimal(tokenOutputAmount, 18));\r\n    }\r\n\r\n    function getTokenOutputAmountFromTokenInput(IGarbiRepository repoIn, IGarbiRepository repoOut, uint256 tokenInputAmount) public view returns (uint256) {\r\n        uint256 tokenInputPriceFromOracle = repoIn.getBasePrice();\r\n        uint256 tokenOuputPriceFromOracle = repoOut.getBasePrice();\r\n        uint256 tokenOutputAmount = tokenInputAmount.mul(tokenInputPriceFromOracle).div(tokenOuputPriceFromOracle);\r\n        return tokenOutputAmount;\r\n    }\r\n\r\n    function getGarbiECPrice() public view returns(uint256 garbiECPrice) {\r\n        uint256 totalCapacityByUSD = 0;\r\n        for (uint i = 0; i < repoAddresses.length; i++) {\r\n            if(repoList[repoAddresses[i]].share > 0) {\r\n                IGarbiRepository repo = IGarbiRepository(repoAddresses[i]);\r\n                totalCapacityByUSD = totalCapacityByUSD.add(repo.getCapacityByUSD());\r\n            }\r\n        }\r\n\r\n        uint256 garbiECTotalSupply = GarbiEC.totalSupply();\r\n\r\n        if(garbiECTotalSupply == 0) {\r\n            garbiECPrice = 1e18;\r\n        }\r\n        else {\r\n            garbiECPrice = totalCapacityByUSD.mul(1e18).div(garbiECTotalSupply);\r\n        }\r\n    }\r\n\r\n    function getDataToBuyGarbiEC(address repoInAddress, uint256 assetInAmount) public view returns (uint256 garbiECOutAmount) {\r\n       uint256 garbiECPrice = getGarbiECPrice();\r\n       IGarbiRepository repoIn = IGarbiRepository(repoInAddress);\r\n\r\n       uint256 assetPrice = repoIn.getBasePrice();\r\n\r\n       garbiECOutAmount = assetInAmount.mul(assetPrice).div(garbiECPrice);\r\n    }\r\n\r\n    function getDataToSellGarbiEC(address repoOutAddress, uint256 garbiECInAmount) public view returns (uint256 assetOutAmount) {\r\n       uint256 garbiECPrice = getGarbiECPrice();\r\n       IGarbiRepository repoOut = IGarbiRepository(repoOutAddress);\r\n\r\n       uint256 assetPrice = repoOut.getBasePrice();\r\n\r\n       assetOutAmount = garbiECInAmount.mul(garbiECPrice).div(assetPrice);\r\n       \r\n       if(assetOutAmount > repoOut.getCapacityByToken()) {\r\n            assetOutAmount = 0;\r\n       }\r\n      \r\n    }\r\n\r\n    function getSellGarbiECDynamicFee(address repoOutAddress, uint256 assetOutAmount) public view returns (uint256 fee) {\r\n        uint256 totalCapacityByUSD = 0;\r\n        uint256 repoOutTotalCapacityByUSD = 0;\r\n        IGarbiRepository repoOut;\r\n        for (uint i = 0; i < repoAddresses.length; i++) {\r\n            if(repoList[repoAddresses[i]].share > 0) {\r\n                IGarbiRepository repo = IGarbiRepository(repoAddresses[i]);\r\n                totalCapacityByUSD = totalCapacityByUSD.add(repo.getCapacityByUSD());\r\n                if(repoAddresses[i] == repoOutAddress) {\r\n                    repoOutTotalCapacityByUSD = repo.getCapacityByUSD();\r\n                    repoOut = repo;\r\n                }\r\n            }\r\n        }\r\n        uint256 assetPrice = repoOut.getBasePrice();\r\n        uint256 assetOutAmountByUSD = assetOutAmount.mul(assetPrice).div(10**18);\r\n        uint256 repoShareAfterOut = repoOutTotalCapacityByUSD.sub(assetOutAmountByUSD).mul(totalShares).div(totalCapacityByUSD.sub(assetOutAmountByUSD));\r\n        uint256 shareDiff = 0;\r\n        shareDiff = repoList[repoOutAddress].share.mul(totalShares).div(repoShareAfterOut);\r\n        fee = SELL_GARBIEC_FEE.mul(shareDiff).div(totalShares);\r\n    }\r\n}",
  "sourcePath": "C:\\Users\\David\\Documents\\NetBeansProjects\\garbiprotocol.github.io\\garbi_contracts\\contracts\\GarbiSwap2\\GarbiRepositoryManager.sol",
  "compiler": {
    "name": "solc",
    "version": "0.8.17+commit.8df45f5f.Emscripten.clang"
  },
  "schemaVersion": "3.4.11",
  "updatedAt": "2023-02-23T04:52:28.800Z",
  "devdoc": {
    "kind": "dev",
    "methods": {
      "owner()": {
        "details": "Returns the address of the current owner."
      },
      "paused()": {
        "details": "Returns true if the contract is paused, and false otherwise."
      },
      "renounceOwnership()": {
        "details": "Leaves the contract without owner. It will not be possible to call `onlyOwner` functions anymore. Can only be called by the current owner. NOTE: Renouncing ownership will leave the contract without an owner, thereby removing any functionality that is only available to the owner."
      },
      "transferOwnership(address)": {
        "details": "Transfers ownership of the contract to a new account (`newOwner`). Can only be called by the current owner."
      }
    },
    "version": 1
  },
  "userdoc": {
    "kind": "user",
    "methods": {},
    "version": 1
  }
}