{
  "contractName": "GarbiswapWhitelist",
  "abi": [
    {
      "anonymous": false,
      "inputs": [
        {
          "indexed": true,
          "internalType": "address",
          "name": "previousOwner",
          "type": "address"
        },
        {
          "indexed": true,
          "internalType": "address",
          "name": "newOwner",
          "type": "address"
        }
      ],
      "name": "OwnershipTransferred",
      "type": "event"
    },
    {
      "anonymous": false,
      "inputs": [
        {
          "indexed": true,
          "internalType": "address",
          "name": "account",
          "type": "address"
        },
        {
          "indexed": false,
          "internalType": "bool",
          "name": "isWhitelisted",
          "type": "bool"
        }
      ],
      "name": "Whitelisted",
      "type": "event"
    },
    {
      "anonymous": false,
      "inputs": [
        {
          "indexed": true,
          "internalType": "address",
          "name": "account",
          "type": "address"
        }
      ],
      "name": "onRequestAccess",
      "type": "event"
    },
    {
      "inputs": [],
      "name": "owner",
      "outputs": [
        {
          "internalType": "address",
          "name": "",
          "type": "address"
        }
      ],
      "stateMutability": "view",
      "type": "function"
    },
    {
      "inputs": [],
      "name": "paused",
      "outputs": [
        {
          "internalType": "bool",
          "name": "",
          "type": "bool"
        }
      ],
      "stateMutability": "view",
      "type": "function"
    },
    {
      "inputs": [],
      "name": "renounceOwnership",
      "outputs": [],
      "stateMutability": "nonpayable",
      "type": "function"
    },
    {
      "inputs": [
        {
          "internalType": "address",
          "name": "",
          "type": "address"
        }
      ],
      "name": "requestAccessList",
      "outputs": [
        {
          "internalType": "bool",
          "name": "",
          "type": "bool"
        }
      ],
      "stateMutability": "view",
      "type": "function"
    },
    {
      "inputs": [
        {
          "internalType": "address",
          "name": "newOwner",
          "type": "address"
        }
      ],
      "name": "transferOwnership",
      "outputs": [],
      "stateMutability": "nonpayable",
      "type": "function"
    },
    {
      "inputs": [],
      "name": "stopWhitelist",
      "outputs": [],
      "stateMutability": "nonpayable",
      "type": "function"
    },
    {
      "inputs": [],
      "name": "openWhitelist",
      "outputs": [],
      "stateMutability": "nonpayable",
      "type": "function"
    },
    {
      "inputs": [
        {
          "internalType": "address",
          "name": "_address",
          "type": "address"
        }
      ],
      "name": "whitelisted",
      "outputs": [
        {
          "internalType": "bool",
          "name": "",
          "type": "bool"
        }
      ],
      "stateMutability": "view",
      "type": "function"
    },
    {
      "inputs": [
        {
          "internalType": "address",
          "name": "_address",
          "type": "address"
        }
      ],
      "name": "addAddress",
      "outputs": [],
      "stateMutability": "nonpayable",
      "type": "function"
    },
    {
      "inputs": [
        {
          "internalType": "address",
          "name": "_address",
          "type": "address"
        }
      ],
      "name": "removeAddress",
      "outputs": [],
      "stateMutability": "nonpayable",
      "type": "function"
    },
    {
      "inputs": [],
      "name": "requestAccess",
      "outputs": [],
      "stateMutability": "nonpayable",
      "type": "function"
    }
  ],
  "bytecode": "0x608060405260008060146101000a81548160ff02191690831515021790555034801561002a57600080fd5b5061004761003c61004c60201b60201c565b61005460201b60201c565b610118565b600033905090565b60008060009054906101000a900473ffffffffffffffffffffffffffffffffffffffff169050816000806101000a81548173ffffffffffffffffffffffffffffffffffffffff021916908373ffffffffffffffffffffffffffffffffffffffff1602179055508173ffffffffffffffffffffffffffffffffffffffff168173ffffffffffffffffffffffffffffffffffffffff167f8be0079c531659141344cd1fd0a4f28419497f9722a3daafe3b4186f6b6457e060405160405180910390a35050565b610ca2806101276000396000f3fe608060405234801561001057600080fd5b50600436106100a95760003560e01c80635c975abb116100715780635c975abb1461012a578063715018a6146101485780638da5cb5b14610152578063d936547e14610170578063eb2f4817146101a0578063f2fde38b146101aa576100a9565b8063083bbe7f146100ae578063333cd5c1146100b857806338eada1c146100c25780633b12ffee146100de5780634ba79dfe1461010e575b600080fd5b6100b66101c6565b005b6100c06101ea565b005b6100dc60048036038101906100d7919061098c565b61020f565b005b6100f860048036038101906100f3919061098c565b6103ab565b60405161010591906109d4565b60405180910390f35b6101286004803603810190610123919061098c565b6103cb565b005b610132610568565b60405161013f91906109d4565b60405180910390f35b61015061057b565b005b61015a61058f565b60405161016791906109fe565b60405180910390f35b61018a6004803603810190610185919061098c565b6105b8565b60405161019791906109d4565b60405180910390f35b6101a861062c565b005b6101c460048036038101906101bf919061098c565b61075c565b005b6101ce6107df565b60008060146101000a81548160ff021916908315150217905550565b6101f26107df565b6001600060146101000a81548160ff021916908315150217905550565b6102176107df565b60011515600160008373ffffffffffffffffffffffffffffffffffffffff1673ffffffffffffffffffffffffffffffffffffffff16815260200190815260200160002060009054906101000a900460ff161515036102aa576040517f08c379a00000000000000000000000000000000000000000000000000000000081526004016102a190610a76565b60405180910390fd5b60018060008373ffffffffffffffffffffffffffffffffffffffff1673ffffffffffffffffffffffffffffffffffffffff16815260200190815260200160002060006101000a81548160ff0219169083151502179055506000600260008373ffffffffffffffffffffffffffffffffffffffff1673ffffffffffffffffffffffffffffffffffffffff16815260200190815260200160002060006101000a81548160ff0219169083151502179055508073ffffffffffffffffffffffffffffffffffffffff167fa54714518c5d275fdcd3d2a461e4858e4e8cb04fb93cd0bca9d6d34115f2644060016040516103a091906109d4565b60405180910390a250565b60026020528060005260406000206000915054906101000a900460ff1681565b6103d36107df565b60001515600160008373ffffffffffffffffffffffffffffffffffffffff1673ffffffffffffffffffffffffffffffffffffffff16815260200190815260200160002060009054906101000a900460ff16151503610466576040517f08c379a000000000000000000000000000000000000000000000000000000000815260040161045d90610ae2565b60405180910390fd5b6000600160008373ffffffffffffffffffffffffffffffffffffffff1673ffffffffffffffffffffffffffffffffffffffff16815260200190815260200160002060006101000a81548160ff0219169083151502179055506000600260008373ffffffffffffffffffffffffffffffffffffffff1673ffffffffffffffffffffffffffffffffffffffff16815260200190815260200160002060006101000a81548160ff0219169083151502179055508073ffffffffffffffffffffffffffffffffffffffff167fa54714518c5d275fdcd3d2a461e4858e4e8cb04fb93cd0bca9d6d34115f26440600060405161055d91906109d4565b60405180910390a250565b600060149054906101000a900460ff1681565b6105836107df565b61058d600061085d565b565b60008060009054906101000a900473ffffffffffffffffffffffffffffffffffffffff16905090565b60008060149054906101000a900460ff16156105d75760009050610627565b600160008373ffffffffffffffffffffffffffffffffffffffff1673ffffffffffffffffffffffffffffffffffffffff16815260200190815260200160002060009054906101000a900460ff1690505b919050565b60011515600260003373ffffffffffffffffffffffffffffffffffffffff1673ffffffffffffffffffffffffffffffffffffffff16815260200190815260200160002060009054906101000a900460ff161515036106bf576040517f08c379a00000000000000000000000000000000000000000000000000000000081526004016106b690610b4e565b60405180910390fd5b6001600260003373ffffffffffffffffffffffffffffffffffffffff1673ffffffffffffffffffffffffffffffffffffffff16815260200190815260200160002060006101000a81548160ff0219169083151502179055503373ffffffffffffffffffffffffffffffffffffffff167f169e9fe1fd9aec84428126ecfb12c5886943819de2c028aa81015cef503fcdbd60405160405180910390a2565b6107646107df565b600073ffffffffffffffffffffffffffffffffffffffff168173ffffffffffffffffffffffffffffffffffffffff16036107d3576040517f08c379a00000000000000000000000000000000000000000000000000000000081526004016107ca90610be0565b60405180910390fd5b6107dc8161085d565b50565b6107e7610921565b73ffffffffffffffffffffffffffffffffffffffff1661080561058f565b73ffffffffffffffffffffffffffffffffffffffff161461085b576040517f08c379a000000000000000000000000000000000000000000000000000000000815260040161085290610c4c565b60405180910390fd5b565b60008060009054906101000a900473ffffffffffffffffffffffffffffffffffffffff169050816000806101000a81548173ffffffffffffffffffffffffffffffffffffffff021916908373ffffffffffffffffffffffffffffffffffffffff1602179055508173ffffffffffffffffffffffffffffffffffffffff168173ffffffffffffffffffffffffffffffffffffffff167f8be0079c531659141344cd1fd0a4f28419497f9722a3daafe3b4186f6b6457e060405160405180910390a35050565b600033905090565b600080fd5b600073ffffffffffffffffffffffffffffffffffffffff82169050919050565b60006109598261092e565b9050919050565b6109698161094e565b811461097457600080fd5b50565b60008135905061098681610960565b92915050565b6000602082840312156109a2576109a1610929565b5b60006109b084828501610977565b91505092915050565b60008115159050919050565b6109ce816109b9565b82525050565b60006020820190506109e960008301846109c5565b92915050565b6109f88161094e565b82525050565b6000602082019050610a1360008301846109ef565b92915050565b600082825260208201905092915050565b7f57484954454c4953544544000000000000000000000000000000000000000000600082015250565b6000610a60600b83610a19565b9150610a6b82610a2a565b602082019050919050565b60006020820190508181036000830152610a8f81610a53565b9050919050565b7f4e4f545f57484954454c49535445440000000000000000000000000000000000600082015250565b6000610acc600f83610a19565b9150610ad782610a96565b602082019050919050565b60006020820190508181036000830152610afb81610abf565b9050919050565b7f594f555f4152455f494e5f5448455f4c49535400000000000000000000000000600082015250565b6000610b38601383610a19565b9150610b4382610b02565b602082019050919050565b60006020820190508181036000830152610b6781610b2b565b9050919050565b7f4f776e61626c653a206e6577206f776e657220697320746865207a65726f206160008201527f6464726573730000000000000000000000000000000000000000000000000000602082015250565b6000610bca602683610a19565b9150610bd582610b6e565b604082019050919050565b60006020820190508181036000830152610bf981610bbd565b9050919050565b7f4f776e61626c653a2063616c6c6572206973206e6f7420746865206f776e6572600082015250565b6000610c36602083610a19565b9150610c4182610c00565b602082019050919050565b60006020820190508181036000830152610c6581610c29565b905091905056fea2646970667358221220556e07f20b8bf00f1fca9e7109a2a17b6377318dada499178dc4dc2a9b797fd064736f6c63430008110033",
  "immutableReferences": {},
  "source": "// SPDX-License-Identifier: MIT\npragma solidity >=0.6.12;\n\nimport \"@openzeppelin/contracts/access/Ownable.sol\";\n\ncontract GarbiswapWhitelist is Ownable{ \n\n    bool public paused = false;\n\n    mapping (address => bool) private whitelistedMap;\n    mapping (address => bool) public requestAccessList;\n\n    event Whitelisted(address indexed account, bool isWhitelisted);\n    event onRequestAccess(address indexed account);\n\n    function stopWhitelist() public onlyOwner {\n        paused = true;\n    }\n    \n    function openWhitelist() public onlyOwner {\n        paused = false;\n    }\n\n    function whitelisted(address _address) public view returns (bool) {\n        if (paused) {\n            return false;\n        }\n\n        return whitelistedMap[_address];\n    }\n\n    function addAddress(address _address) public onlyOwner {\n        require(whitelistedMap[_address] != true, \"WHITELISTED\");\n        whitelistedMap[_address] = true; //open access to Turing protocol\n        requestAccessList[_address] = false; //remove from request list\n        emit Whitelisted(_address, true);\n    }\n\n    function removeAddress(address _address) public onlyOwner {\n        require(whitelistedMap[_address] != false, \"NOT_WHITELISTED\");\n        whitelistedMap[_address] = false; //disable access to Turing protocol\n        requestAccessList[_address] = false; //remove from request list\n        emit Whitelisted(_address, false);\n    }\n    \n    function requestAccess() public {\n        require(requestAccessList[msg.sender] != true, \"YOU_ARE_IN_THE_LIST\");\n        requestAccessList[msg.sender] = true;\n        emit onRequestAccess(msg.sender);\n    }\n}",
  "sourcePath": "/Applications/projects/garbiprotocol.github.io/garbi_contracts/contracts/GarbiswapWhitelist.sol",
  "compiler": {
    "name": "solc",
    "version": "0.8.17+commit.8df45f5f.Emscripten.clang"
  },
  "schemaVersion": "3.4.11",
  "updatedAt": "2023-01-08T13:00:48.675Z",
  "devdoc": {
    "kind": "dev",
    "methods": {
      "owner()": {
        "details": "Returns the address of the current owner."
      },
      "renounceOwnership()": {
        "details": "Leaves the contract without owner. It will not be possible to call `onlyOwner` functions anymore. Can only be called by the current owner. NOTE: Renouncing ownership will leave the contract without an owner, thereby removing any functionality that is only available to the owner."
      },
      "transferOwnership(address)": {
        "details": "Transfers ownership of the contract to a new account (`newOwner`). Can only be called by the current owner."
      }
    },
    "version": 1
  },
  "userdoc": {
    "kind": "user",
    "methods": {},
    "version": 1
  }
}