{
  "contractName": "GarbiTimeLock",
  "abi": [
    {
      "anonymous": false,
      "inputs": [
        {
          "indexed": true,
          "internalType": "address",
          "name": "previousOwner",
          "type": "address"
        },
        {
          "indexed": true,
          "internalType": "address",
          "name": "newOwner",
          "type": "address"
        }
      ],
      "name": "OwnershipTransferred",
      "type": "event"
    },
    {
      "anonymous": false,
      "inputs": [
        {
          "indexed": false,
          "internalType": "address",
          "name": "_contractCall",
          "type": "address"
        },
        {
          "indexed": false,
          "internalType": "string",
          "name": "_functionName",
          "type": "string"
        }
      ],
      "name": "onCancelTransactions",
      "type": "event"
    },
    {
      "anonymous": false,
      "inputs": [
        {
          "indexed": false,
          "internalType": "address",
          "name": "_contractCall",
          "type": "address"
        },
        {
          "indexed": false,
          "internalType": "string",
          "name": "_functionName",
          "type": "string"
        },
        {
          "indexed": false,
          "internalType": "string",
          "name": "_fieldName",
          "type": "string"
        },
        {
          "indexed": false,
          "internalType": "address",
          "name": "_value",
          "type": "address"
        }
      ],
      "name": "onQueuedTransactionsChangeAddress",
      "type": "event"
    },
    {
      "anonymous": false,
      "inputs": [
        {
          "indexed": false,
          "internalType": "address",
          "name": "_contractCall",
          "type": "address"
        },
        {
          "indexed": false,
          "internalType": "string",
          "name": "_functionName",
          "type": "string"
        },
        {
          "indexed": false,
          "internalType": "string",
          "name": "_fieldName",
          "type": "string"
        },
        {
          "indexed": false,
          "internalType": "uint256",
          "name": "_value",
          "type": "uint256"
        }
      ],
      "name": "onQueuedTransactionsChangeUint",
      "type": "event"
    },
    {
      "inputs": [],
      "name": "GRACE_PERIOD",
      "outputs": [
        {
          "internalType": "uint256",
          "name": "",
          "type": "uint256"
        }
      ],
      "stateMutability": "view",
      "type": "function"
    },
    {
      "inputs": [],
      "name": "MAXIMUM_DELAY",
      "outputs": [
        {
          "internalType": "uint256",
          "name": "",
          "type": "uint256"
        }
      ],
      "stateMutability": "view",
      "type": "function"
    },
    {
      "inputs": [],
      "name": "MINIMUM_DELAY",
      "outputs": [
        {
          "internalType": "uint256",
          "name": "",
          "type": "uint256"
        }
      ],
      "stateMutability": "view",
      "type": "function"
    },
    {
      "inputs": [],
      "name": "delay",
      "outputs": [
        {
          "internalType": "uint256",
          "name": "",
          "type": "uint256"
        }
      ],
      "stateMutability": "view",
      "type": "function"
    },
    {
      "inputs": [],
      "name": "owner",
      "outputs": [
        {
          "internalType": "address",
          "name": "",
          "type": "address"
        }
      ],
      "stateMutability": "view",
      "type": "function"
    },
    {
      "inputs": [],
      "name": "renounceOwnership",
      "outputs": [],
      "stateMutability": "nonpayable",
      "type": "function"
    },
    {
      "inputs": [
        {
          "internalType": "address",
          "name": "",
          "type": "address"
        },
        {
          "internalType": "bytes32",
          "name": "",
          "type": "bytes32"
        }
      ],
      "name": "timeLockOf",
      "outputs": [
        {
          "internalType": "bool",
          "name": "queuedTransactions",
          "type": "bool"
        },
        {
          "internalType": "uint256",
          "name": "timeOfExecute",
          "type": "uint256"
        }
      ],
      "stateMutability": "view",
      "type": "function"
    },
    {
      "inputs": [
        {
          "internalType": "address",
          "name": "newOwner",
          "type": "address"
        }
      ],
      "name": "transferOwnership",
      "outputs": [],
      "stateMutability": "nonpayable",
      "type": "function"
    },
    {
      "inputs": [
        {
          "internalType": "uint256",
          "name": "delay_",
          "type": "uint256"
        }
      ],
      "name": "setDelay",
      "outputs": [],
      "stateMutability": "nonpayable",
      "type": "function"
    },
    {
      "inputs": [
        {
          "internalType": "address",
          "name": "_contractCall",
          "type": "address"
        },
        {
          "internalType": "string",
          "name": "_functionName",
          "type": "string"
        }
      ],
      "name": "cancelTransactions",
      "outputs": [],
      "stateMutability": "nonpayable",
      "type": "function"
    },
    {
      "inputs": [
        {
          "internalType": "address",
          "name": "_contractCall",
          "type": "address"
        },
        {
          "internalType": "string",
          "name": "_functionName",
          "type": "string"
        },
        {
          "internalType": "string",
          "name": "_fieldName",
          "type": "string"
        },
        {
          "internalType": "address",
          "name": "_newAddr",
          "type": "address"
        }
      ],
      "name": "queuedTransactionsChangeAddress",
      "outputs": [],
      "stateMutability": "nonpayable",
      "type": "function"
    },
    {
      "inputs": [
        {
          "internalType": "address",
          "name": "_contractCall",
          "type": "address"
        },
        {
          "internalType": "string",
          "name": "_functionName",
          "type": "string"
        },
        {
          "internalType": "string",
          "name": "_fieldName",
          "type": "string"
        },
        {
          "internalType": "uint256",
          "name": "_value",
          "type": "uint256"
        }
      ],
      "name": "queuedTransactionsChangeUint",
      "outputs": [],
      "stateMutability": "nonpayable",
      "type": "function"
    },
    {
      "inputs": [
        {
          "internalType": "string",
          "name": "_functionName",
          "type": "string"
        }
      ],
      "name": "doneTransactions",
      "outputs": [],
      "stateMutability": "nonpayable",
      "type": "function"
    },
    {
      "inputs": [
        {
          "internalType": "string",
          "name": "_functionName",
          "type": "string"
        },
        {
          "internalType": "string",
          "name": "_fieldName",
          "type": "string"
        },
        {
          "internalType": "uint8",
          "name": "_typeOfField",
          "type": "uint8"
        }
      ],
      "name": "clearFieldValue",
      "outputs": [],
      "stateMutability": "nonpayable",
      "type": "function"
    },
    {
      "inputs": [
        {
          "internalType": "address",
          "name": "_contractCall",
          "type": "address"
        },
        {
          "internalType": "string",
          "name": "_functionName",
          "type": "string"
        },
        {
          "internalType": "string",
          "name": "_fieldName",
          "type": "string"
        }
      ],
      "name": "getAddressChangeOnTimeLock",
      "outputs": [
        {
          "internalType": "address",
          "name": "",
          "type": "address"
        }
      ],
      "stateMutability": "view",
      "type": "function"
    },
    {
      "inputs": [
        {
          "internalType": "address",
          "name": "_contractCall",
          "type": "address"
        },
        {
          "internalType": "string",
          "name": "_functionName",
          "type": "string"
        },
        {
          "internalType": "string",
          "name": "_fieldName",
          "type": "string"
        }
      ],
      "name": "getUintChangeOnTimeLock",
      "outputs": [
        {
          "internalType": "uint256",
          "name": "",
          "type": "uint256"
        }
      ],
      "stateMutability": "view",
      "type": "function"
    },
    {
      "inputs": [
        {
          "internalType": "address",
          "name": "_contractCall",
          "type": "address"
        },
        {
          "internalType": "string",
          "name": "_functionName",
          "type": "string"
        }
      ],
      "name": "isQueuedTransaction",
      "outputs": [
        {
          "internalType": "bool",
          "name": "",
          "type": "bool"
        }
      ],
      "stateMutability": "view",
      "type": "function"
    }
  ],
  "bytecode": "0x608060405234801561001057600080fd5b5061002d61002261003260201b60201c565b61003a60201b60201c565b6100fe565b600033905090565b60008060009054906101000a900473ffffffffffffffffffffffffffffffffffffffff169050816000806101000a81548173ffffffffffffffffffffffffffffffffffffffff021916908373ffffffffffffffffffffffffffffffffffffffff1602179055508173ffffffffffffffffffffffffffffffffffffffff168173ffffffffffffffffffffffffffffffffffffffff167f8be0079c531659141344cd1fd0a4f28419497f9722a3daafe3b4186f6b6457e060405160405180910390a35050565b611bc08061010d6000396000f3fe608060405234801561001057600080fd5b506004361061010b5760003560e01c80638aa07f96116100a2578063c0edbd4a11610071578063c0edbd4a1461027e578063c1a287e2146102ae578063e177246e146102cc578063e202c547146102e8578063f2fde38b146103195761010b565b80638aa07f961461020a5780638da5cb5b14610226578063b1b43ae514610244578063b6629c78146102625761010b565b80636bfb078d116100de5780636bfb078d146101965780636e977f0b146101c6578063715018a6146101e25780637d645fab146101ec5761010b565b806342730c2c146101105780635234b4d1146101405780636a42b8f81461015c5780636b7328da1461017a575b600080fd5b61012a60048036038101906101259190611139565b610335565b60405161013791906111b0565b60405180910390f35b61015a600480360381019061015591906111cb565b6104b6565b005b610164610630565b6040516101719190611283565b60405180910390f35b610194600480360381019061018f91906112ca565b610636565b005b6101b060048036038101906101ab9190611369565b610776565b6040516101bd9190611403565b60405180910390f35b6101e060048036038101906101db9190611457565b610852565b005b6101ea6109e4565b005b6101f46109f8565b6040516102019190611283565b60405180910390f35b610224600480360381019061021f91906114e2565b6109ff565b005b61022e610af2565b60405161023b9190611403565b60405180910390f35b61024c610b1b565b6040516102599190611283565b60405180910390f35b61027c60048036038101906102779190611139565b610b22565b005b61029860048036038101906102939190611369565b610bff565b6040516102a59190611283565b60405180910390f35b6102b6610cbb565b6040516102c39190611283565b60405180910390f35b6102e660048036038101906102e1919061152b565b610cc2565b005b61030260048036038101906102fd919061158e565b610d60565b6040516103109291906115ce565b60405180910390f35b610333600480360381019061032e91906115f7565b610d9e565b005b600080600160008573ffffffffffffffffffffffffffffffffffffffff1673ffffffffffffffffffffffffffffffffffffffff16815260200190815260200160002060008460405160200161038a91906116a3565b6040516020818303038152906040528051906020012081526020019081526020016000209050600115158160000160009054906101000a900460ff16151514610408576040517f08c379a00000000000000000000000000000000000000000000000000000000081526004016103ff90611711565b60405180910390fd5b428160010154111561044f576040517f08c379a0000000000000000000000000000000000000000000000000000000008152600401610446906117a3565b60405180910390fd5b4261046a62278d008360010154610e2190919063ffffffff16565b10156104ab576040517f08c379a00000000000000000000000000000000000000000000000000000000081526004016104a29061180f565b60405180910390fd5b600191505092915050565b6104be610e37565b6000600160008673ffffffffffffffffffffffffffffffffffffffff1673ffffffffffffffffffffffffffffffffffffffff16815260200190815260200160002060008560405160200161051291906116a3565b6040516020818303038152906040528051906020012081526020019081526020016000209050818160020160008560405160200161055091906116a3565b60405160208183030381529060405280519060200120815260200190815260200160002060006101000a81548173ffffffffffffffffffffffffffffffffffffffff021916908373ffffffffffffffffffffffffffffffffffffffff16021790555060018160000160006101000a81548160ff0219169083151502179055506105e460025442610e2190919063ffffffff16565b81600101819055507f9226fd9c8778a005cb63ffd04ca66fb8da0487ff515aa1eec0b5b329dc912c3685858585604051610621949392919061182f565b60405180910390a15050505050565b60025481565b61063e610e37565b6000600160008673ffffffffffffffffffffffffffffffffffffffff1673ffffffffffffffffffffffffffffffffffffffff16815260200190815260200160002060008560405160200161069291906116a3565b604051602081830303815290604052805190602001208152602001908152602001600020905081816003016000856040516020016106d091906116a3565b6040516020818303038152906040528051906020012081526020019081526020016000208190555060018160000160006101000a81548160ff02191690831515021790555061072a60025442610e2190919063ffffffff16565b81600101819055507f0530dabc6b2b0cee8389ecbba3fc02eb24a01071f02f27de6832608cf7a2a927858585856040516107679493929190611882565b60405180910390a15050505050565b6000600160008573ffffffffffffffffffffffffffffffffffffffff1673ffffffffffffffffffffffffffffffffffffffff1681526020019081526020016000206000846040516020016107ca91906116a3565b60405160208183030381529060405280519060200120815260200190815260200160002060020160008360405160200161080491906116a3565b60405160208183030381529060405280519060200120815260200190815260200160002060009054906101000a900473ffffffffffffffffffffffffffffffffffffffff1690509392505050565b6000600160003373ffffffffffffffffffffffffffffffffffffffff1673ffffffffffffffffffffffffffffffffffffffff1681526020019081526020016000206000856040516020016108a691906116a3565b6040516020818303038152906040528051906020012081526020019081526020016000209050600115158160000160009054906101000a900460ff16151514610924576040517f08c379a000000000000000000000000000000000000000000000000000000000815260040161091b90611711565b60405180910390fd5b60018260ff1603610992578060020160008460405160200161094691906116a3565b60405160208183030381529060405280519060200120815260200190815260200160002060006101000a81549073ffffffffffffffffffffffffffffffffffffffff02191690556109de565b60028260ff16036109dd57806003016000846040516020016109b491906116a3565b604051602081830303815290604052805190602001208152602001908152602001600020600090555b5b50505050565b6109ec610e37565b6109f66000610eb5565b565b62278d0081565b6000600160003373ffffffffffffffffffffffffffffffffffffffff1673ffffffffffffffffffffffffffffffffffffffff168152602001908152602001600020600083604051602001610a5391906116a3565b6040516020818303038152906040528051906020012081526020019081526020016000209050600115158160000160009054906101000a900460ff16151514610ad1576040517f08c379a0000000000000000000000000000000000000000000000000000000008152600401610ac890611711565b60405180910390fd5b60008160000160006101000a81548160ff0219169083151502179055505050565b60008060009054906101000a900473ffffffffffffffffffffffffffffffffffffffff16905090565b6202a30081565b610b2a610e37565b6000600160008473ffffffffffffffffffffffffffffffffffffffff1673ffffffffffffffffffffffffffffffffffffffff168152602001908152602001600020600083604051602001610b7e91906116a3565b604051602081830303815290604052805190602001208152602001908152602001600020905060008160000160006101000a81548160ff0219169083151502179055507fab73b3be1fccfa72fce1372c420eed1d3c40e1f0b403e46f7d88c8257724efa78383604051610bf29291906118d5565b60405180910390a1505050565b6000600160008573ffffffffffffffffffffffffffffffffffffffff1673ffffffffffffffffffffffffffffffffffffffff168152602001908152602001600020600084604051602001610c5391906116a3565b604051602081830303815290604052805190602001208152602001908152602001600020600301600083604051602001610c8d91906116a3565b6040516020818303038152906040528051906020012081526020019081526020016000205490509392505050565b62278d0081565b610cca610e37565b6202a300811015610d10576040517f08c379a0000000000000000000000000000000000000000000000000000000008152600401610d0790611977565b60405180910390fd5b62278d00811115610d56576040517f08c379a0000000000000000000000000000000000000000000000000000000008152600401610d4d90611a09565b60405180910390fd5b8060028190555050565b6001602052816000526040600020602052806000526040600020600091509150508060000160009054906101000a900460ff16908060010154905082565b610da6610e37565b600073ffffffffffffffffffffffffffffffffffffffff168173ffffffffffffffffffffffffffffffffffffffff1603610e15576040517f08c379a0000000000000000000000000000000000000000000000000000000008152600401610e0c90611a9b565b60405180910390fd5b610e1e81610eb5565b50565b60008183610e2f9190611aea565b905092915050565b610e3f610f79565b73ffffffffffffffffffffffffffffffffffffffff16610e5d610af2565b73ffffffffffffffffffffffffffffffffffffffff1614610eb3576040517f08c379a0000000000000000000000000000000000000000000000000000000008152600401610eaa90611b6a565b60405180910390fd5b565b60008060009054906101000a900473ffffffffffffffffffffffffffffffffffffffff169050816000806101000a81548173ffffffffffffffffffffffffffffffffffffffff021916908373ffffffffffffffffffffffffffffffffffffffff1602179055508173ffffffffffffffffffffffffffffffffffffffff168173ffffffffffffffffffffffffffffffffffffffff167f8be0079c531659141344cd1fd0a4f28419497f9722a3daafe3b4186f6b6457e060405160405180910390a35050565b600033905090565b6000604051905090565b600080fd5b600080fd5b600073ffffffffffffffffffffffffffffffffffffffff82169050919050565b6000610fc082610f95565b9050919050565b610fd081610fb5565b8114610fdb57600080fd5b50565b600081359050610fed81610fc7565b92915050565b600080fd5b600080fd5b6000601f19601f8301169050919050565b7f4e487b7100000000000000000000000000000000000000000000000000000000600052604160045260246000fd5b61104682610ffd565b810181811067ffffffffffffffff821117156110655761106461100e565b5b80604052505050565b6000611078610f81565b9050611084828261103d565b919050565b600067ffffffffffffffff8211156110a4576110a361100e565b5b6110ad82610ffd565b9050602081019050919050565b82818337600083830152505050565b60006110dc6110d784611089565b61106e565b9050828152602081018484840111156110f8576110f7610ff8565b5b6111038482856110ba565b509392505050565b600082601f8301126111205761111f610ff3565b5b81356111308482602086016110c9565b91505092915050565b600080604083850312156111505761114f610f8b565b5b600061115e85828601610fde565b925050602083013567ffffffffffffffff81111561117f5761117e610f90565b5b61118b8582860161110b565b9150509250929050565b60008115159050919050565b6111aa81611195565b82525050565b60006020820190506111c560008301846111a1565b92915050565b600080600080608085870312156111e5576111e4610f8b565b5b60006111f387828801610fde565b945050602085013567ffffffffffffffff81111561121457611213610f90565b5b6112208782880161110b565b935050604085013567ffffffffffffffff81111561124157611240610f90565b5b61124d8782880161110b565b925050606061125e87828801610fde565b91505092959194509250565b6000819050919050565b61127d8161126a565b82525050565b60006020820190506112986000830184611274565b92915050565b6112a78161126a565b81146112b257600080fd5b50565b6000813590506112c48161129e565b92915050565b600080600080608085870312156112e4576112e3610f8b565b5b60006112f287828801610fde565b945050602085013567ffffffffffffffff81111561131357611312610f90565b5b61131f8782880161110b565b935050604085013567ffffffffffffffff8111156113405761133f610f90565b5b61134c8782880161110b565b925050606061135d878288016112b5565b91505092959194509250565b60008060006060848603121561138257611381610f8b565b5b600061139086828701610fde565b935050602084013567ffffffffffffffff8111156113b1576113b0610f90565b5b6113bd8682870161110b565b925050604084013567ffffffffffffffff8111156113de576113dd610f90565b5b6113ea8682870161110b565b9150509250925092565b6113fd81610fb5565b82525050565b600060208201905061141860008301846113f4565b92915050565b600060ff82169050919050565b6114348161141e565b811461143f57600080fd5b50565b6000813590506114518161142b565b92915050565b6000806000606084860312156114705761146f610f8b565b5b600084013567ffffffffffffffff81111561148e5761148d610f90565b5b61149a8682870161110b565b935050602084013567ffffffffffffffff8111156114bb576114ba610f90565b5b6114c78682870161110b565b92505060406114d886828701611442565b9150509250925092565b6000602082840312156114f8576114f7610f8b565b5b600082013567ffffffffffffffff81111561151657611515610f90565b5b6115228482850161110b565b91505092915050565b60006020828403121561154157611540610f8b565b5b600061154f848285016112b5565b91505092915050565b6000819050919050565b61156b81611558565b811461157657600080fd5b50565b60008135905061158881611562565b92915050565b600080604083850312156115a5576115a4610f8b565b5b60006115b385828601610fde565b92505060206115c485828601611579565b9150509250929050565b60006040820190506115e360008301856111a1565b6115f06020830184611274565b9392505050565b60006020828403121561160d5761160c610f8b565b5b600061161b84828501610fde565b91505092915050565b600081519050919050565b600082825260208201905092915050565b60005b8381101561165e578082015181840152602081019050611643565b60008484015250505050565b600061167582611624565b61167f818561162f565b935061168f818560208601611640565b61169881610ffd565b840191505092915050565b600060208201905081810360008301526116bd818461166a565b905092915050565b7f5472616e73616374696f6e206861736e2774206265656e207175657565642e00600082015250565b60006116fb601f8361162f565b9150611706826116c5565b602082019050919050565b6000602082019050818103600083015261172a816116ee565b9050919050565b7f5472616e73616374696f6e206861736e2774207375727061737365642074696d60008201527f65206c6f636b2e00000000000000000000000000000000000000000000000000602082015250565b600061178d60278361162f565b915061179882611731565b604082019050919050565b600060208201905081810360008301526117bc81611780565b9050919050565b7f5472616e73616374696f6e206973207374616c652e0000000000000000000000600082015250565b60006117f960158361162f565b9150611804826117c3565b602082019050919050565b60006020820190508181036000830152611828816117ec565b9050919050565b600060808201905061184460008301876113f4565b8181036020830152611856818661166a565b9050818103604083015261186a818561166a565b905061187960608301846113f4565b95945050505050565b600060808201905061189760008301876113f4565b81810360208301526118a9818661166a565b905081810360408301526118bd818561166a565b90506118cc6060830184611274565b95945050505050565b60006040820190506118ea60008301856113f4565b81810360208301526118fc818461166a565b90509392505050565b7f54696d656c6f636b3a3a73657444656c61793a2044656c6179206d757374206560008201527f7863656564206d696e696d756d2064656c61792e000000000000000000000000602082015250565b600061196160348361162f565b915061196c82611905565b604082019050919050565b6000602082019050818103600083015261199081611954565b9050919050565b7f54696d656c6f636b3a3a73657444656c61793a2044656c6179206d757374206e60008201527f6f7420657863656564206d6178696d756d2064656c61792e0000000000000000602082015250565b60006119f360388361162f565b91506119fe82611997565b604082019050919050565b60006020820190508181036000830152611a22816119e6565b9050919050565b7f4f776e61626c653a206e6577206f776e657220697320746865207a65726f206160008201527f6464726573730000000000000000000000000000000000000000000000000000602082015250565b6000611a8560268361162f565b9150611a9082611a29565b604082019050919050565b60006020820190508181036000830152611ab481611a78565b9050919050565b7f4e487b7100000000000000000000000000000000000000000000000000000000600052601160045260246000fd5b6000611af58261126a565b9150611b008361126a565b9250828201905080821115611b1857611b17611abb565b5b92915050565b7f4f776e61626c653a2063616c6c6572206973206e6f7420746865206f776e6572600082015250565b6000611b5460208361162f565b9150611b5f82611b1e565b602082019050919050565b60006020820190508181036000830152611b8381611b47565b905091905056fea2646970667358221220185e66b632773f8e8a2f5eb2924dc684f8d1073946b4831f90218dfddb366c0f64736f6c63430008110033",
  "immutableReferences": {},
  "source": "// SPDX-License-Identifier: MIT\npragma solidity >=0.6.12;\n\nimport \"@openzeppelin/contracts/access/Ownable.sol\";\nimport \"@openzeppelin/contracts/utils/math/SafeMath.sol\";\n\ncontract GarbiTimeLock is Ownable {\n\n\tusing SafeMath for uint256;\n\t\n    mapping(address => mapping(bytes32 => TimeLock)) public timeLockOf;\n\n    uint public constant GRACE_PERIOD = 30 days;\n    uint public constant MINIMUM_DELAY = 2 days;\n    uint public constant MAXIMUM_DELAY = 30 days;\n    uint public delay;\n\n    struct TimeLock {\n        bool queuedTransactions;\n        uint256 timeOfExecute;\n        mapping(bytes32 => address) addressOf;\n        mapping(bytes32 => uint256) uintOf;\n    }\n\n    event onQueuedTransactionsChangeAddress(address _contractCall, string _functionName, string _fieldName, address _value);\n    event onQueuedTransactionsChangeUint(address _contractCall, string _functionName, string _fieldName, uint256 _value);\n    event onCancelTransactions(address _contractCall, string _functionName);\n\n    function setDelay(uint delay_) public onlyOwner {\n        require(delay_ >= MINIMUM_DELAY, \"Timelock::setDelay: Delay must exceed minimum delay.\");\n        require(delay_ <= MAXIMUM_DELAY, \"Timelock::setDelay: Delay must not exceed maximum delay.\");\n\n        delay = delay_;\n    }\n\n    function cancelTransactions(address _contractCall, string memory _functionName) public onlyOwner {\n\n        TimeLock storage _timelock = timeLockOf[_contractCall][keccak256(abi.encode(_functionName))];\n        _timelock.queuedTransactions = false;\n\n        emit onCancelTransactions(_contractCall, _functionName);\n    }\n\n    function queuedTransactionsChangeAddress(address _contractCall, string memory _functionName, string memory _fieldName, address _newAddr) public onlyOwner \n    {\n        TimeLock storage _timelock = timeLockOf[_contractCall][keccak256(abi.encode(_functionName))];\n\n        _timelock.addressOf[keccak256(abi.encode(_fieldName))] = _newAddr;\n        _timelock.queuedTransactions = true;\n        _timelock.timeOfExecute = block.timestamp.add(delay);\n\n        emit onQueuedTransactionsChangeAddress(_contractCall, _functionName, _fieldName, _newAddr);\n    }\n\n    function queuedTransactionsChangeUint(address _contractCall, string memory _functionName, string memory _fieldName, uint256 _value) public onlyOwner \n    {\n        TimeLock storage _timelock = timeLockOf[_contractCall][keccak256(abi.encode(_functionName))];\n\n        _timelock.uintOf[keccak256(abi.encode(_fieldName))] = _value;\n        _timelock.queuedTransactions = true;\n        _timelock.timeOfExecute = block.timestamp.add(delay);\n\n        emit onQueuedTransactionsChangeUint(_contractCall, _functionName, _fieldName, _value);\n    }\n   \n    function doneTransactions(string memory _functionName) public {\n\n        TimeLock storage _timelock = timeLockOf[msg.sender][keccak256(abi.encode(_functionName))];\n\n        require(_timelock.queuedTransactions == true, \"Transaction hasn't been queued.\");\n\n        _timelock.queuedTransactions = false;\n    }\n\n    /**\n    * _typeOfField: 1: address, 2: uint\n    */\n    function clearFieldValue(string memory _functionName, string memory _fieldName, uint8 _typeOfField) public {\n        TimeLock storage _timelock = timeLockOf[msg.sender][keccak256(abi.encode(_functionName))];\n\n        require(_timelock.queuedTransactions == true, \"Transaction hasn't been queued.\");\n\n        if (_typeOfField == 1) {\n            delete _timelock.addressOf[keccak256(abi.encode(_fieldName))];\n        } else if (_typeOfField == 2) {\n            delete _timelock.uintOf[keccak256(abi.encode(_fieldName))];\n        }\n    }\n\n    function getAddressChangeOnTimeLock(address _contractCall, string memory _functionName, string memory _fieldName) public view returns(address) {\n        return timeLockOf[_contractCall][keccak256(abi.encode(_functionName))].addressOf[keccak256(abi.encode(_fieldName))];\n    }\n\n    function getUintChangeOnTimeLock(address _contractCall, string memory _functionName, string memory _fieldName) public view returns(uint256) {\n        return timeLockOf[_contractCall][keccak256(abi.encode(_functionName))].uintOf[keccak256(abi.encode(_fieldName))];\n    }\n\n    function isQueuedTransaction(address _contractCall, string memory _functionName) public view returns(bool)\n    {\n        TimeLock storage _timelock = timeLockOf[_contractCall][keccak256(abi.encode(_functionName))];\n\n        require(_timelock.queuedTransactions == true, \"Transaction hasn't been queued.\");\n        require(_timelock.timeOfExecute <= block.timestamp, \"Transaction hasn't surpassed time lock.\");\n        require(_timelock.timeOfExecute.add(GRACE_PERIOD) >= block.timestamp, \"Transaction is stale.\");\n\n        return true;\n    }\n}",
  "sourcePath": "/Applications/projects/garbiprotocol.github.io/garbi_contracts/contracts/GarbiTimeLock.sol",
  "compiler": {
    "name": "solc",
    "version": "0.8.17+commit.8df45f5f.Emscripten.clang"
  },
  "schemaVersion": "3.4.11",
  "updatedAt": "2023-01-08T13:00:48.642Z",
  "devdoc": {
    "kind": "dev",
    "methods": {
      "owner()": {
        "details": "Returns the address of the current owner."
      },
      "renounceOwnership()": {
        "details": "Leaves the contract without owner. It will not be possible to call `onlyOwner` functions anymore. Can only be called by the current owner. NOTE: Renouncing ownership will leave the contract without an owner, thereby removing any functionality that is only available to the owner."
      },
      "transferOwnership(address)": {
        "details": "Transfers ownership of the contract to a new account (`newOwner`). Can only be called by the current owner."
      }
    },
    "version": 1
  },
  "userdoc": {
    "kind": "user",
    "methods": {
      "clearFieldValue(string,string,uint8)": {
        "notice": "_typeOfField: 1: address, 2: uint"
      }
    },
    "version": 1
  }
}