{
  "contractName": "GarbiFarmSingleWETHBridge",
  "abi": [
    {
      "inputs": [
        {
          "internalType": "contract IGarbiMining",
          "name": "_miningMachine",
          "type": "address"
        },
        {
          "internalType": "contract IWETH",
          "name": "_want",
          "type": "address"
        },
        {
          "internalType": "uint256",
          "name": "_pidOfMining",
          "type": "uint256"
        }
      ],
      "stateMutability": "nonpayable",
      "type": "constructor"
    },
    {
      "anonymous": false,
      "inputs": [
        {
          "indexed": true,
          "internalType": "address",
          "name": "previousOwner",
          "type": "address"
        },
        {
          "indexed": true,
          "internalType": "address",
          "name": "newOwner",
          "type": "address"
        }
      ],
      "name": "OwnershipTransferred",
      "type": "event"
    },
    {
      "anonymous": false,
      "inputs": [
        {
          "indexed": false,
          "internalType": "string",
          "name": "_functionName",
          "type": "string"
        }
      ],
      "name": "onCancelTransactions",
      "type": "event"
    },
    {
      "anonymous": false,
      "inputs": [
        {
          "indexed": false,
          "internalType": "address",
          "name": "_user",
          "type": "address"
        },
        {
          "indexed": false,
          "internalType": "uint256",
          "name": "_amount",
          "type": "uint256"
        }
      ],
      "name": "onDeposit",
      "type": "event"
    },
    {
      "anonymous": false,
      "inputs": [
        {
          "indexed": false,
          "internalType": "address",
          "name": "_user",
          "type": "address"
        },
        {
          "indexed": false,
          "internalType": "uint256",
          "name": "_amount",
          "type": "uint256"
        }
      ],
      "name": "onEmergencyWithdraw",
      "type": "event"
    },
    {
      "anonymous": false,
      "inputs": [
        {
          "indexed": false,
          "internalType": "string",
          "name": "_functionName",
          "type": "string"
        },
        {
          "indexed": false,
          "internalType": "string",
          "name": "_fieldName",
          "type": "string"
        },
        {
          "indexed": false,
          "internalType": "address",
          "name": "_value",
          "type": "address"
        }
      ],
      "name": "onQueuedTransactionsChangeAddress",
      "type": "event"
    },
    {
      "anonymous": false,
      "inputs": [
        {
          "indexed": false,
          "internalType": "string",
          "name": "_functionName",
          "type": "string"
        },
        {
          "indexed": false,
          "internalType": "string",
          "name": "_fieldName",
          "type": "string"
        },
        {
          "indexed": false,
          "internalType": "uint256",
          "name": "_value",
          "type": "uint256"
        }
      ],
      "name": "onQueuedTransactionsChangeUint",
      "type": "event"
    },
    {
      "anonymous": false,
      "inputs": [
        {
          "indexed": false,
          "internalType": "address",
          "name": "_user",
          "type": "address"
        },
        {
          "indexed": false,
          "internalType": "uint256",
          "name": "_amount",
          "type": "uint256"
        }
      ],
      "name": "onWithdraw",
      "type": "event"
    },
    {
      "inputs": [],
      "name": "ETHBridge",
      "outputs": [
        {
          "internalType": "contract IETHBridge",
          "name": "",
          "type": "address"
        }
      ],
      "stateMutability": "view",
      "type": "function",
      "constant": true
    },
    {
      "inputs": [],
      "name": "ETHHandlerBridge",
      "outputs": [
        {
          "internalType": "address",
          "name": "",
          "type": "address"
        }
      ],
      "stateMutability": "view",
      "type": "function",
      "constant": true
    },
    {
      "inputs": [],
      "name": "GRACE_PERIOD",
      "outputs": [
        {
          "internalType": "uint256",
          "name": "",
          "type": "uint256"
        }
      ],
      "stateMutability": "view",
      "type": "function",
      "constant": true
    },
    {
      "inputs": [],
      "name": "MAXIMUM_DELAY",
      "outputs": [
        {
          "internalType": "uint256",
          "name": "",
          "type": "uint256"
        }
      ],
      "stateMutability": "view",
      "type": "function",
      "constant": true
    },
    {
      "inputs": [],
      "name": "MINIMUM_DELAY",
      "outputs": [
        {
          "internalType": "uint256",
          "name": "",
          "type": "uint256"
        }
      ],
      "stateMutability": "view",
      "type": "function",
      "constant": true
    },
    {
      "inputs": [],
      "name": "PLATFORM_FEE",
      "outputs": [
        {
          "internalType": "uint256",
          "name": "",
          "type": "uint256"
        }
      ],
      "stateMutability": "view",
      "type": "function",
      "constant": true
    },
    {
      "inputs": [],
      "name": "delay",
      "outputs": [
        {
          "internalType": "uint256",
          "name": "",
          "type": "uint256"
        }
      ],
      "stateMutability": "view",
      "type": "function",
      "constant": true
    },
    {
      "inputs": [],
      "name": "miningMachine",
      "outputs": [
        {
          "internalType": "contract IGarbiMining",
          "name": "",
          "type": "address"
        }
      ],
      "stateMutability": "view",
      "type": "function",
      "constant": true
    },
    {
      "inputs": [],
      "name": "owner",
      "outputs": [
        {
          "internalType": "address",
          "name": "",
          "type": "address"
        }
      ],
      "stateMutability": "view",
      "type": "function",
      "constant": true
    },
    {
      "inputs": [],
      "name": "pidOfMining",
      "outputs": [
        {
          "internalType": "uint256",
          "name": "",
          "type": "uint256"
        }
      ],
      "stateMutability": "view",
      "type": "function",
      "constant": true
    },
    {
      "inputs": [],
      "name": "platformFundAddress",
      "outputs": [
        {
          "internalType": "address",
          "name": "",
          "type": "address"
        }
      ],
      "stateMutability": "view",
      "type": "function",
      "constant": true
    },
    {
      "inputs": [],
      "name": "renounceOwnership",
      "outputs": [],
      "stateMutability": "nonpayable",
      "type": "function"
    },
    {
      "inputs": [
        {
          "internalType": "address",
          "name": "",
          "type": "address"
        }
      ],
      "name": "shareOf",
      "outputs": [
        {
          "internalType": "uint256",
          "name": "",
          "type": "uint256"
        }
      ],
      "stateMutability": "view",
      "type": "function",
      "constant": true
    },
    {
      "inputs": [
        {
          "internalType": "bytes32",
          "name": "",
          "type": "bytes32"
        }
      ],
      "name": "timeLockOf",
      "outputs": [
        {
          "internalType": "bool",
          "name": "queuedTransactions",
          "type": "bool"
        },
        {
          "internalType": "uint256",
          "name": "timeOfExecute",
          "type": "uint256"
        }
      ],
      "stateMutability": "view",
      "type": "function",
      "constant": true
    },
    {
      "inputs": [],
      "name": "totalShare",
      "outputs": [
        {
          "internalType": "uint256",
          "name": "",
          "type": "uint256"
        }
      ],
      "stateMutability": "view",
      "type": "function",
      "constant": true
    },
    {
      "inputs": [
        {
          "internalType": "address",
          "name": "newOwner",
          "type": "address"
        }
      ],
      "name": "transferOwnership",
      "outputs": [],
      "stateMutability": "nonpayable",
      "type": "function"
    },
    {
      "inputs": [],
      "name": "version",
      "outputs": [
        {
          "internalType": "uint256",
          "name": "",
          "type": "uint256"
        }
      ],
      "stateMutability": "view",
      "type": "function",
      "constant": true
    },
    {
      "inputs": [],
      "name": "want",
      "outputs": [
        {
          "internalType": "contract IWETH",
          "name": "",
          "type": "address"
        }
      ],
      "stateMutability": "view",
      "type": "function",
      "constant": true
    },
    {
      "stateMutability": "payable",
      "type": "receive",
      "payable": true
    },
    {
      "inputs": [
        {
          "internalType": "uint256",
          "name": "delay_",
          "type": "uint256"
        }
      ],
      "name": "setDelay",
      "outputs": [],
      "stateMutability": "nonpayable",
      "type": "function"
    },
    {
      "inputs": [
        {
          "internalType": "string",
          "name": "_functionName",
          "type": "string"
        }
      ],
      "name": "cancelTransactions",
      "outputs": [],
      "stateMutability": "nonpayable",
      "type": "function"
    },
    {
      "inputs": [
        {
          "internalType": "string",
          "name": "_functionName",
          "type": "string"
        },
        {
          "internalType": "string",
          "name": "_fieldName",
          "type": "string"
        },
        {
          "internalType": "address",
          "name": "_newAddr",
          "type": "address"
        }
      ],
      "name": "queuedTransactionsChangeAddress",
      "outputs": [],
      "stateMutability": "nonpayable",
      "type": "function"
    },
    {
      "inputs": [
        {
          "internalType": "string",
          "name": "_functionName",
          "type": "string"
        },
        {
          "internalType": "string",
          "name": "_fieldName",
          "type": "string"
        },
        {
          "internalType": "uint256",
          "name": "_value",
          "type": "uint256"
        }
      ],
      "name": "queuedTransactionsChangeUint",
      "outputs": [],
      "stateMutability": "nonpayable",
      "type": "function"
    },
    {
      "inputs": [],
      "name": "setMiningMachine",
      "outputs": [],
      "stateMutability": "nonpayable",
      "type": "function"
    },
    {
      "inputs": [],
      "name": "setETHHandlerBridge",
      "outputs": [],
      "stateMutability": "nonpayable",
      "type": "function"
    },
    {
      "inputs": [],
      "name": "setETHBridge",
      "outputs": [],
      "stateMutability": "nonpayable",
      "type": "function"
    },
    {
      "inputs": [
        {
          "internalType": "uint256",
          "name": "_platformFee",
          "type": "uint256"
        }
      ],
      "name": "setPlatformFee",
      "outputs": [],
      "stateMutability": "nonpayable",
      "type": "function"
    },
    {
      "inputs": [
        {
          "internalType": "address",
          "name": "newAddress",
          "type": "address"
        }
      ],
      "name": "setPlatformFundAdress",
      "outputs": [],
      "stateMutability": "nonpayable",
      "type": "function"
    },
    {
      "inputs": [],
      "name": "changeTokenAddress",
      "outputs": [],
      "stateMutability": "nonpayable",
      "type": "function"
    },
    {
      "inputs": [],
      "name": "setPidOfMining",
      "outputs": [],
      "stateMutability": "nonpayable",
      "type": "function"
    },
    {
      "inputs": [
        {
          "internalType": "uint256",
          "name": "_wantAmt",
          "type": "uint256"
        }
      ],
      "name": "deposit",
      "outputs": [],
      "stateMutability": "nonpayable",
      "type": "function"
    },
    {
      "inputs": [
        {
          "internalType": "uint256",
          "name": "_wantAmt",
          "type": "uint256"
        }
      ],
      "name": "withdraw",
      "outputs": [],
      "stateMutability": "nonpayable",
      "type": "function"
    },
    {
      "inputs": [],
      "name": "emergencyWithdraw",
      "outputs": [],
      "stateMutability": "nonpayable",
      "type": "function"
    },
    {
      "inputs": [
        {
          "internalType": "address",
          "name": "_user",
          "type": "address"
        }
      ],
      "name": "harvest",
      "outputs": [
        {
          "internalType": "uint256",
          "name": "_pendingVeGRB",
          "type": "uint256"
        }
      ],
      "stateMutability": "nonpayable",
      "type": "function"
    },
    {
      "inputs": [
        {
          "internalType": "address",
          "name": "_user",
          "type": "address"
        }
      ],
      "name": "getData",
      "outputs": [
        {
          "internalType": "uint256",
          "name": "miningSpeed_",
          "type": "uint256"
        },
        {
          "internalType": "uint256",
          "name": "userWantBal_",
          "type": "uint256"
        },
        {
          "internalType": "uint256",
          "name": "totalMintPerDay_",
          "type": "uint256"
        },
        {
          "internalType": "uint256",
          "name": "userETHBal_",
          "type": "uint256"
        },
        {
          "internalType": "uint256",
          "name": "userGRBPending_",
          "type": "uint256"
        },
        {
          "internalType": "uint256",
          "name": "userWantShare_",
          "type": "uint256"
        },
        {
          "internalType": "uint256",
          "name": "tvl_",
          "type": "uint256"
        }
      ],
      "stateMutability": "view",
      "type": "function",
      "constant": true
    }
  ],
  "bytecode": "0x6080604052606460025560196004556000600a553480156200002057600080fd5b506040516200262738038062002627833981016040819052620000439162000125565b60016000556200005333620000ba565b600380546001600160a01b038085166001600160a01b03199283161790925560088054928616929091169190911790556009819055620000903390565b600580546001600160a01b0319166001600160a01b0392909216919091179055506200016d915050565b600180546001600160a01b038381166001600160a01b0319831681179093556040519116919082907f8be0079c531659141344cd1fd0a4f28419497f9722a3daafe3b4186f6b6457e090600090a35050565b6001600160a01b03811681146200012257600080fd5b50565b6000806000606084860312156200013b57600080fd5b835162000148816200010c565b60208501519093506200015b816200010c565b80925050604084015190509250925092565b6124aa806200017d6000396000f3fe6080604052600436106101fd5760003560e01c80638d9eb2ca1161010d578063b1b43ae5116100a0578063d1b8a3b51161006f578063d1b8a3b5146105b6578063db2e21bc146105cb578063e177246e146105e0578063f2fde38b14610600578063f47a396f1461062057600080fd5b8063b1b43ae51461055f578063b6b55f2514610576578063bce645db14610596578063c1a287e21461044b57600080fd5b80639312dc5f116100dc5780639312dc5f146104ea5780639c0069831461050a5780639fa5e63e1461052a578063a825ebf41461054a57600080fd5b80638d9eb2ca146104825780638da5cb5b146104975780638ecc676f146104b55780638fe6041d146104ca57600080fd5b806332009eda116101905780636a42b8f81161015f5780636a42b8f8146103cf5780636edc28fd146103e5578063715018a6146104365780637d645fab1461044b5780638cac8f031461046257600080fd5b806332009eda1461033957806334fbc9a11461034e57806338266b221461036457806354fd4d50146103b957600080fd5b80631d202a2a116101cc5780631d202a2a146102945780631f1fcd51146102cc57806321e5e2c4146102ec5780632e1a7d4d1461031957600080fd5b8063026c4207146102095780630e5c011e1461023257806312e8e2c31461025257806314ca81ed1461027457600080fd5b3661020457005b600080fd5b34801561021557600080fd5b5061021f600a5481565b6040519081526020015b60405180910390f35b34801561023e57600080fd5b5061021f61024d366004612042565b610636565b34801561025e57600080fd5b5061027261026d36600461205d565b6106b8565b005b34801561028057600080fd5b5061027261028f366004612119565b6106c5565b3480156102a057600080fd5b506007546102b4906001600160a01b031681565b6040516001600160a01b039091168152602001610229565b3480156102d857600080fd5b506003546102b4906001600160a01b031681565b3480156102f857600080fd5b5061021f610307366004612042565b600b6020526000908152604090205481565b34801561032557600080fd5b5061027261033436600461205d565b6107c5565b34801561034557600080fd5b50610272610b5a565b34801561035a57600080fd5b5061021f60045481565b34801561037057600080fd5b5061038461037f366004612042565b610ccf565b604080519788526020880196909652948601939093526060850191909152608084015260a083015260c082015260e001610229565b3480156103c557600080fd5b5061021f60025481565b3480156103db57600080fd5b5061021f600d5481565b3480156103f157600080fd5b5061041f61040036600461205d565b600c602052600090815260409020805460019091015460ff9091169082565b604080519215158352602083019190915201610229565b34801561044257600080fd5b50610272610edf565b34801561045757600080fd5b5061021f62278d0081565b34801561046e57600080fd5b5061027261047d36600461218d565b610ef3565b34801561048e57600080fd5b50610272610f7e565b3480156104a357600080fd5b506001546001600160a01b03166102b4565b3480156104c157600080fd5b5061027261110c565b3480156104d657600080fd5b506102726104e5366004612042565b611291565b3480156104f657600080fd5b506102726105053660046121ca565b6112bb565b34801561051657600080fd5b506006546102b4906001600160a01b031681565b34801561053657600080fd5b506005546102b4906001600160a01b031681565b34801561055657600080fd5b50610272611390565b34801561056b57600080fd5b5061021f6202a30081565b34801561058257600080fd5b5061027261059136600461205d565b611509565b3480156105a257600080fd5b506008546102b4906001600160a01b031681565b3480156105c257600080fd5b50610272611850565b3480156105d757600080fd5b506102726119c1565b3480156105ec57600080fd5b506102726105fb36600461205d565b611c6a565b34801561060c57600080fd5b5061027261061b366004612042565b611d60565b34801561062c57600080fd5b5061021f60095481565b600854600954604051630c7e663b60e11b815260048101919091526001600160a01b03838116602483015260009216906318fccc76906044016020604051808303816000875af115801561068e573d6000803e3d6000fd5b505050506040513d601f19601f820116820180604052508101906106b29190612237565b92915050565b6106c0611dd6565b600455565b6106cd611dd6565b6000600c6000856040516020016106e49190612296565b604051602081830303815290604052805190602001208152602001908152602001600020905081816002016000856040516020016107229190612296565b60408051808303601f1901815291815281516020928301208352908201929092520160002080546001600160a01b0319166001600160a01b0392909216919091179055805460ff19166001178155600d5461077e904290611e30565b60018201556040517f1bd33efd68d2824f5f0f2519ce7c9ca0ddff6234523468e89077a0dca7b73970906107b7908690869086906122a9565b60405180910390a150505050565b6107cd611e43565b600081116107f65760405162461bcd60e51b81526004016107ed906122e7565b60405180910390fd5b6107ff33610636565b50336000908152600b6020526040902054818110156108605760405162461bcd60e51b815260206004820152601760248201527f494e56414c49445f414d4f554e545f574954484452415700000000000000000060448201526064016107ed565b336000908152600b602052604090205461087a9083611e9c565b336000908152600b6020526040902055600a546108979083611e9c565b600a55600354604080516001600160a01b03909216602083015230908201526060810183905260009060800160408051601f198184030181529082905260075460065463d02d68eb60e01b84529193506001600160a01b039081169263d02d68eb92610909921690859060040161230e565b600060405180830381600087803b15801561092357600080fd5b505af1158015610937573d6000803e3d6000fd5b50505050600360009054906101000a90046001600160a01b03166001600160a01b031663d0e30db0846040518263ffffffff1660e01b81526004016000604051808303818588803b15801561098b57600080fd5b505af115801561099f573d6000803e3d6000fd5b50506003546040516370a0823160e01b8152306004820152600094506001600160a01b0390911692506370a082319150602401602060405180830381865afa1580156109ef573d6000803e3d6000fd5b505050506040513d601f19601f82011682018060405250810190610a139190612237565b905083811015610a21578093505b60035460405163a9059cbb60e01b8152336004820152602481018690526001600160a01b039091169063a9059cbb906044016020604051808303816000875af1158015610a72573d6000803e3d6000fd5b505050506040513d601f19601f82011682018060405250810190610a969190612332565b50600854600954604051638fb4e1cd60e01b815260048101919091523360248201526001600160a01b0390911690638fb4e1cd906044016020604051808303816000875af1158015610aec573d6000803e3d6000fd5b505050506040513d601f19601f82011682018060405250810190610b109190612332565b5060408051338152602081018690527fccad973dcd043c7d680389db4378bd6b9775db7124092e9e0422c9e46d7985dc910160405180910390a1505050610b576001600055565b50565b610b62611dd6565b6000600c6000604051602001610b9e906020808252601290820152716368616e6765546f6b656e4164647265737360701b604082015260600190565b6040516020818303038152906040528051906020012081526020019081526020016000209050610bcd81611ea8565b60006001600160a01b0316816002016000604051602001610bed90612354565b60408051601f19818403018152918152815160209283012083529082019290925201600020546001600160a01b031614610cc557806002016000604051602001610c3690612354565b60408051601f198184030181529181528151602092830120835282820193909352908201600090812054600380546001600160a01b0319166001600160a01b039092169190911790559151600284019291610c919101612354565b60408051601f1981840301815291815281516020928301208352908201929092520160002080546001600160a01b03191690555b805460ff19169055565b6003546040516370a0823160e01b81526001600160a01b03838116600483015260009283928392839283928392839216906370a0823190602401602060405180830381865afa158015610d26573d6000803e3d6000fd5b505050506040513d601f19601f82011682018060405250810190610d4a9190612237565b600854600954604051635e86cd9560e01b815260048101919091529197506001600160a01b031690635e86cd9590602401602060405180830381865afa158015610d98573d6000803e3d6000fd5b505050506040513d601f19601f82011682018060405250810190610dbc9190612237565b6008546009546040516324aa7cc560e11b815260048101919091529196506001600160a01b031690634954f98a90602401602060405180830381865afa158015610e0a573d6000803e3d6000fd5b505050506040513d601f19601f82011682018060405250810190610e2e9190612237565b600854600954604051631069f3b560e01b815260048101919091526001600160a01b038b811660248301819052939a5092319650911690631069f3b590604401606060405180830381865afa158015610e8b573d6000803e3d6000fd5b505050506040513d601f19601f82011682018060405250810190610eaf9190612372565b50506001600160a01b039098166000908152600b6020526040902054600a54979996989597949690949350915050565b610ee7611dd6565b610ef16000611fbc565b565b610efb611dd6565b6000600c600083604051602001610f129190612296565b60408051601f1981840301815291815281516020928301208352908201929092528101600020805460ff1916815590519091507fce369f91d52b663114643c430217b52530c2cc7318cac7a3e9d46241cbc354a890610f72908490612296565b60405180910390a15050565b610f86611dd6565b6000600c6000604051602001610fc39060208082526013908201527273657445544848616e646c657242726964676560681b604082015260600190565b6040516020818303038152906040528051906020012081526020019081526020016000209050610ff281611ea8565b60006001600160a01b03168160020160006040516020016110379060208082526010908201526f45544848616e646c657242726964676560801b604082015260600190565b60408051601f19818403018152918152815160209283012083529082019290925201600020546001600160a01b0316036110835760405162461bcd60e51b81526004016107ed906123a0565b8060020160006040516020016110bd9060208082526010908201526f45544848616e646c657242726964676560801b604082015260600190565b60408051601f1981840301815291815281516020928301208352908201929092520160002054600680546001600160a01b0319166001600160a01b03909216919091179055805460ff19169055565b611114611dd6565b6000600c600060405160200161114e9060208082526010908201526f7365744d696e696e674d616368696e6560801b604082015260600190565b604051602081830303815290604052805190602001208152602001908152602001600020905061117d81611ea8565b60006001600160a01b03168160020160006040516020016111bf906020808252600d908201526c6d696e696e674d616368696e6560981b604082015260600190565b60408051601f19818403018152918152815160209283012083529082019290925201600020546001600160a01b03160361120b5760405162461bcd60e51b81526004016107ed906123a0565b806002016000604051602001611242906020808252600d908201526c6d696e696e674d616368696e6560981b604082015260600190565b60408051601f1981840301815291815281516020928301208352908201929092520160002054600880546001600160a01b0319166001600160a01b03909216919091179055805460ff19169055565b611299611dd6565b600580546001600160a01b0319166001600160a01b0392909216919091179055565b6112c3611dd6565b6000600c6000856040516020016112da9190612296565b604051602081830303815290604052805190602001208152602001908152602001600020905081816003016000856040516020016113189190612296565b60408051601f1981840301815291815281516020928301208352908201929092520160002055805460ff19166001178155600d54611357904290611e30565b60018201556040517f860699cc7b0f3cb3d034fd31cdfe0816887a9f55d10993224d77c359c3d55551906107b7908690869086906123c9565b611398611dd6565b6000600c60006040516020016113ce906020808252600c908201526b73657445544842726964676560a01b604082015260600190565b60405160208183030381529060405280519060200120815260200190815260200160002090506113fd81611ea8565b60006001600160a01b031681600201600060405160200161143b9060208082526009908201526845544842726964676560b81b604082015260600190565b60408051601f19818403018152918152815160209283012083529082019290925201600020546001600160a01b0316036114875760405162461bcd60e51b81526004016107ed906123a0565b8060020160006040516020016114ba9060208082526009908201526845544842726964676560b81b604082015260600190565b60408051601f1981840301815291815281516020928301208352908201929092520160002054600780546001600160a01b0319166001600160a01b03909216919091179055805460ff19169055565b611511611e43565b600081116115315760405162461bcd60e51b81526004016107ed906122e7565b6003546040516370a0823160e01b815233600482015282916001600160a01b0316906370a0823190602401602060405180830381865afa158015611579573d6000803e3d6000fd5b505050506040513d601f19601f8201168201806040525081019061159d9190612237565b10156115bb5760405162461bcd60e51b81526004016107ed906122e7565b6115c433610636565b506003546040516323b872dd60e01b8152336004820152306024820152604481018390526001600160a01b03909116906323b872dd906064016020604051808303816000875af115801561161c573d6000803e3d6000fd5b505050506040513d601f19601f820116820180604052508101906116409190612332565b5060006116646103e861165e6004548561200e90919063ffffffff16565b9061201a565b60035460055460405163a9059cbb60e01b81526001600160a01b03918216600482015260248101849052929350169063a9059cbb906044016020604051808303816000875af11580156116bb573d6000803e3d6000fd5b505050506040513d601f19601f820116820180604052508101906116df9190612332565b5060006116ec8383611e9c565b60035460065460405163040b850f60e31b81526001600160a01b03918216600482015260248101849052929350169063205c287890604401600060405180830381600087803b15801561173e57600080fd5b505af1158015611752573d6000803e3d6000fd5b5050336000908152600b60205260409020546117719250905082611e30565b336000908152600b6020526040902055600a5461178e9082611e30565b600a55600854600954604051638fb4e1cd60e01b815260048101919091523360248201526001600160a01b0390911690638fb4e1cd906044016020604051808303816000875af11580156117e6573d6000803e3d6000fd5b505050506040513d601f19601f8201168201806040525081019061180a9190612332565b5060408051338152602081018590527f2bf9518c65eff7d1f3ee4106bf0dc41267ccde0924dbfa4ab476ed5c0f45da98910160405180910390a15050610b576001600055565b611858611dd6565b6000600c6000604051602001611890906020808252600e908201526d7365745069644f664d696e696e6760901b604082015260600190565b60405160208183030381529060405280519060200120815260200190815260200160002090506118bf81611ea8565b60008160030160006040516020016118f6906020808252600b908201526a7069644f664d696e696e6760a81b604082015260600190565b60405160208183030381529060405280519060200120815260200190815260200160002054116119595760405162461bcd60e51b815260206004820152600e60248201526d1253959053125117d05353d5539560921b60448201526064016107ed565b80600301600060405160200161198e906020808252600b908201526a7069644f664d696e696e6760a81b604082015260600190565b60408051601f1981840301815291815281516020928301208352908201929092520160002054600955805460ff19169055565b336000908152600b602052604090205480611a0f5760405162461bcd60e51b815260206004820152600e60248201526d1253959053125117d05353d5539560921b60448201526064016107ed565b336000908152600b6020526040812055600a54611a2c9082611e9c565b600a55600354604080516001600160a01b03909216602083015233908201526060810182905260009060800160408051601f198184030181529082905260075460065463d02d68eb60e01b84529193506001600160a01b039081169263d02d68eb92611a9e921690859060040161230e565b600060405180830381600087803b158015611ab857600080fd5b505af1158015611acc573d6000803e3d6000fd5b50505050600360009054906101000a90046001600160a01b03166001600160a01b031663d0e30db0836040518263ffffffff1660e01b81526004016000604051808303818588803b158015611b2057600080fd5b505af1158015611b34573d6000803e3d6000fd5b50506003546040516370a0823160e01b8152306004820152600094506001600160a01b0390911692506370a082319150602401602060405180830381865afa158015611b84573d6000803e3d6000fd5b505050506040513d601f19601f82011682018060405250810190611ba89190612237565b905082811015611bb6578092505b60035460405163a9059cbb60e01b8152336004820152602481018590526001600160a01b039091169063a9059cbb906044016020604051808303816000875af1158015611c07573d6000803e3d6000fd5b505050506040513d601f19601f82011682018060405250810190611c2b9190612332565b5060408051338152602081018590527fc33863412a9dc216cbf16bc22dd0bd897cf3b59fe264e4e89db58f9b9c23d01b910160405180910390a1505050565b611c72611dd6565b6202a300811015611ce25760405162461bcd60e51b815260206004820152603460248201527f54696d656c6f636b3a3a73657444656c61793a2044656c6179206d75737420656044820152733c31b2b2b21036b4b734b6bab6903232b630bc9760611b60648201526084016107ed565b62278d00811115611d5b5760405162461bcd60e51b815260206004820152603860248201527f54696d656c6f636b3a3a73657444656c61793a2044656c6179206d757374206e60448201527f6f7420657863656564206d6178696d756d2064656c61792e000000000000000060648201526084016107ed565b600d55565b611d68611dd6565b6001600160a01b038116611dcd5760405162461bcd60e51b815260206004820152602660248201527f4f776e61626c653a206e6577206f776e657220697320746865207a65726f206160448201526564647265737360d01b60648201526084016107ed565b610b5781611fbc565b6001546001600160a01b03163314610ef15760405162461bcd60e51b815260206004820181905260248201527f4f776e61626c653a2063616c6c6572206973206e6f7420746865206f776e657260448201526064016107ed565b6000611e3c8284612415565b9392505050565b600260005403611e955760405162461bcd60e51b815260206004820152601f60248201527f5265656e7472616e637947756172643a207265656e7472616e742063616c6c0060448201526064016107ed565b6002600055565b6000611e3c8284612428565b805460ff161515600114611efe5760405162461bcd60e51b815260206004820152601f60248201527f5472616e73616374696f6e206861736e2774206265656e207175657565642e0060448201526064016107ed565b4281600101541115611f625760405162461bcd60e51b815260206004820152602760248201527f5472616e73616374696f6e206861736e2774207375727061737365642074696d60448201526632903637b1b59760c91b60648201526084016107ed565b60018101544290611f769062278d00611e30565b1015610b575760405162461bcd60e51b81526020600482015260156024820152742a3930b739b0b1ba34b7b71034b99039ba30b6329760591b60448201526064016107ed565b600180546001600160a01b038381166001600160a01b0319831681179093556040519116919082907f8be0079c531659141344cd1fd0a4f28419497f9722a3daafe3b4186f6b6457e090600090a35050565b6000611e3c828461243b565b6000611e3c8284612452565b80356001600160a01b038116811461203d57600080fd5b919050565b60006020828403121561205457600080fd5b611e3c82612026565b60006020828403121561206f57600080fd5b5035919050565b634e487b7160e01b600052604160045260246000fd5b600082601f83011261209d57600080fd5b813567ffffffffffffffff808211156120b8576120b8612076565b604051601f8301601f19908116603f011681019082821181831017156120e0576120e0612076565b816040528381528660208588010111156120f957600080fd5b836020870160208301376000602085830101528094505050505092915050565b60008060006060848603121561212e57600080fd5b833567ffffffffffffffff8082111561214657600080fd5b6121528783880161208c565b9450602086013591508082111561216857600080fd5b506121758682870161208c565b92505061218460408501612026565b90509250925092565b60006020828403121561219f57600080fd5b813567ffffffffffffffff8111156121b657600080fd5b6121c28482850161208c565b949350505050565b6000806000606084860312156121df57600080fd5b833567ffffffffffffffff808211156121f757600080fd5b6122038783880161208c565b9450602086013591508082111561221957600080fd5b506122268682870161208c565b925050604084013590509250925092565b60006020828403121561224957600080fd5b5051919050565b6000815180845260005b818110156122765760208185018101518683018201520161225a565b506000602082860101526020601f19601f83011685010191505092915050565b602081526000611e3c6020830184612250565b6060815260006122bc6060830186612250565b82810360208401526122ce8186612250565b91505060018060a01b0383166040830152949350505050565b6020808252600d908201526c1253959053125117d253941555609a1b604082015260600190565b6001600160a01b03831681526040602082018190526000906121c290830184612250565b60006020828403121561234457600080fd5b81518015158114611e3c57600080fd5b6020808252600490820152631dd85b9d60e21b604082015260600190565b60008060006060848603121561238757600080fd5b8351925060208401519150604084015190509250925092565b6020808252600f908201526e494e56414c49445f4144445245535360881b604082015260600190565b6060815260006123dc6060830186612250565b82810360208401526123ee8186612250565b915050826040830152949350505050565b634e487b7160e01b600052601160045260246000fd5b808201808211156106b2576106b26123ff565b818103818111156106b2576106b26123ff565b80820281158282048414176106b2576106b26123ff565b60008261246f57634e487b7160e01b600052601260045260246000fd5b50049056fea2646970667358221220b29e44ed235660b4baf39dc40f808b2734fd7df1bebef552cba81d22af3ad0c264736f6c63430008110033",
  "immutableReferences": {},
  "source": "// SPDX-License-Identifier: MIT\npragma solidity >=0.6.12;\n\nimport \"@openzeppelin/contracts/utils/math/SafeMath.sol\";\nimport \"@openzeppelin/contracts/access/Ownable.sol\";\nimport \"@openzeppelin/contracts/token/ERC20/IERC20.sol\";\nimport \"@openzeppelin/contracts/security/ReentrancyGuard.sol\";\n\nimport './interfaces/IGarbiMining.sol';\nimport './interfaces/IWETH.sol';\nimport './interfaces/IETHBridge.sol';\n\ncontract GarbiFarmSingleWETHBridge is ReentrancyGuard, Ownable {\n\n    using SafeMath for uint256;\n    uint256 public version = 100;\n    \n    IWETH public want; // WETH\n    \n    uint256 public PLATFORM_FEE = 25; //2.5% 25/1000\n\n    address public platformFundAddress;\n    address public ETHHandlerBridge;\n\n    IETHBridge public ETHBridge;\n    IGarbiMining public miningMachine;\n\n    uint256 public pidOfMining;\n    uint256 public totalShare = 0;\n    mapping(address => uint256) public shareOf;\n\n    mapping(bytes32 => TimeLock) public timeLockOf;\n\n    uint public constant GRACE_PERIOD = 30 days;\n    uint public constant MINIMUM_DELAY = 2 days;\n    uint public constant MAXIMUM_DELAY = 30 days;\n    uint public delay;\n\n    struct TimeLock {\n        bool queuedTransactions;\n        uint256 timeOfExecute;\n        mapping(bytes32 => address) addressOf;\n        mapping(bytes32 => uint256) uintOf;\n    }\n\n    event onDeposit(address _user, uint256 _amount);\n    event onWithdraw(address _user, uint256 _amount);\n    event onEmergencyWithdraw(address _user, uint256 _amount);\n\n    event onQueuedTransactionsChangeAddress(string _functionName, string _fieldName, address _value);\n    event onQueuedTransactionsChangeUint(string _functionName, string _fieldName, uint256 _value);\n    event onCancelTransactions(string _functionName);\n\n    constructor(\n        IGarbiMining _miningMachine,\n        IWETH _want,\n        uint256 _pidOfMining\n        ) {\n        want = _want;\n        miningMachine = _miningMachine;\n        pidOfMining = _pidOfMining;\n        platformFundAddress = _msgSender();\n    }\n\n    function setDelay(uint delay_) public onlyOwner {\n        require(delay_ >= MINIMUM_DELAY, \"Timelock::setDelay: Delay must exceed minimum delay.\");\n        require(delay_ <= MAXIMUM_DELAY, \"Timelock::setDelay: Delay must not exceed maximum delay.\");\n\n        delay = delay_;\n    }\n\n    function cancelTransactions(string memory _functionName) public onlyOwner {\n\n        TimeLock storage _timelock = timeLockOf[keccak256(abi.encode(_functionName))];\n        _timelock.queuedTransactions = false;\n\n        emit onCancelTransactions(_functionName);\n    }\n\n    function queuedTransactionsChangeAddress(string memory _functionName, string memory _fieldName, address _newAddr) public onlyOwner \n    {\n        TimeLock storage _timelock = timeLockOf[keccak256(abi.encode(_functionName))];\n\n        _timelock.addressOf[keccak256(abi.encode(_fieldName))] = _newAddr;\n        _timelock.queuedTransactions = true;\n        _timelock.timeOfExecute = block.timestamp.add(delay);\n\n        emit onQueuedTransactionsChangeAddress(_functionName, _fieldName, _newAddr);\n    }\n\n    function queuedTransactionsChangeUint(string memory _functionName, string memory _fieldName, uint256 _value) public onlyOwner \n    {\n        TimeLock storage _timelock = timeLockOf[keccak256(abi.encode(_functionName))];\n\n        _timelock.uintOf[keccak256(abi.encode(_fieldName))] = _value;\n        _timelock.queuedTransactions = true;\n        _timelock.timeOfExecute = block.timestamp.add(delay);\n\n        emit onQueuedTransactionsChangeUint(_functionName, _fieldName, _value);\n    }\n\n    function setMiningMachine() public onlyOwner \n    {\n        TimeLock storage _timelock = timeLockOf[keccak256(abi.encode('setMiningMachine'))];\n        _validateTimelock(_timelock);\n        require(_timelock.addressOf[keccak256(abi.encode('miningMachine'))] != address(0), \"INVALID_ADDRESS\");\n\n        miningMachine = IGarbiMining(_timelock.addressOf[keccak256(abi.encode('miningMachine'))]);\n        _timelock.queuedTransactions = false;\n    }\n\n    function setETHHandlerBridge() public onlyOwner \n    {\n        TimeLock storage _timelock = timeLockOf[keccak256(abi.encode('setETHHandlerBridge'))];\n        _validateTimelock(_timelock);\n        require(_timelock.addressOf[keccak256(abi.encode('ETHHandlerBridge'))] != address(0), \"INVALID_ADDRESS\");\n\n        ETHHandlerBridge = _timelock.addressOf[keccak256(abi.encode('ETHHandlerBridge'))];\n        _timelock.queuedTransactions = false;\n    }\n\n    function setETHBridge() public onlyOwner \n    {\n        TimeLock storage _timelock = timeLockOf[keccak256(abi.encode('setETHBridge'))];\n        _validateTimelock(_timelock);\n        require(_timelock.addressOf[keccak256(abi.encode('ETHBridge'))] != address(0), \"INVALID_ADDRESS\");\n\n        ETHBridge = IETHBridge(_timelock.addressOf[keccak256(abi.encode('ETHBridge'))]);\n        _timelock.queuedTransactions = false;\n    }\n\n    function setPlatformFee(uint256 _platformFee) public onlyOwner {\n        PLATFORM_FEE = _platformFee;\n    }\n\n    function setPlatformFundAdress(address newAddress) public onlyOwner {\n        platformFundAddress = newAddress;\n    }\n\n    function changeTokenAddress() public onlyOwner\n    {\n        TimeLock storage _timelock = timeLockOf[keccak256(abi.encode('changeTokenAddress'))];\n\n        _validateTimelock(_timelock);\n    \n        if (_timelock.addressOf[keccak256(abi.encode('want'))] != address(0)) {\n            want = IWETH(_timelock.addressOf[keccak256(abi.encode('want'))]);\n            delete _timelock.addressOf[keccak256(abi.encode('want'))];\n        }\n        _timelock.queuedTransactions = false;\n    }\n\n    function setPidOfMining() public onlyOwner \n    {\n        TimeLock storage _timelock = timeLockOf[keccak256(abi.encode('setPidOfMining'))];\n        _validateTimelock(_timelock);\n        require(_timelock.uintOf[keccak256(abi.encode('pidOfMining'))] > 0, \"INVALID_AMOUNT\");\n\n        pidOfMining = _timelock.uintOf[keccak256(abi.encode('pidOfMining'))];\n        _timelock.queuedTransactions = false;\n    }\n\n    function _validateTimelock(TimeLock storage _timelock) private view\n    {\n        require(_timelock.queuedTransactions == true, \"Transaction hasn't been queued.\");\n        require(_timelock.timeOfExecute <= block.timestamp, \"Transaction hasn't surpassed time lock.\");\n        require(_timelock.timeOfExecute.add(GRACE_PERIOD) >= block.timestamp, \"Transaction is stale.\");\n    }\n\n    function deposit(uint256 _wantAmt) external nonReentrant \n    {\n        require(_wantAmt > 0, 'INVALID_INPUT');\n        require(want.balanceOf(msg.sender) >= _wantAmt, 'INVALID_INPUT');\n\n        harvest(msg.sender);\n    \twant.transferFrom(msg.sender, address(this), _wantAmt);\n\n        uint256 platformFee = _wantAmt.mul(PLATFORM_FEE).div(1000);\n        want.transfer(platformFundAddress, platformFee);\n\n        uint256 _wantAmtAfterFee = _wantAmt.sub(platformFee);\n\n        // unWrap weth to eth\n        want.withdrawTo(address(ETHHandlerBridge), _wantAmtAfterFee);\n\n        shareOf[msg.sender] = shareOf[msg.sender].add(_wantAmtAfterFee);\n        totalShare = totalShare.add(_wantAmtAfterFee);\n        miningMachine.updateUser(pidOfMining, msg.sender);\n        emit onDeposit(msg.sender, _wantAmt);\n\n    }\n    function withdraw(uint256 _wantAmt) external nonReentrant \n    {\n        require(_wantAmt > 0, 'INVALID_INPUT');   \n        harvest(msg.sender);\n\n        uint256 _share = shareOf[msg.sender];\n        require(_share >= _wantAmt, 'INVALID_AMOUNT_WITHDRAW');\n\n        shareOf[msg.sender] = shareOf[msg.sender].sub(_wantAmt);\n        totalShare = totalShare.sub(_wantAmt);\n\n        // withdraw eth from ethHandle to this.\n        bytes memory data = abi.encode(address(want), address(this), _wantAmt);\n        ETHBridge.farmWithdraw(ETHHandlerBridge, data);\n\n        // wrap eth to weth\n        want.deposit{value: _wantAmt}();\n\n        uint256 _wantBal = want.balanceOf(address(this)); \n        if (_wantBal < _wantAmt) {\n            _wantAmt = _wantBal;\n        }\n        want.transfer(msg.sender, _wantAmt);\n        \n        miningMachine.updateUser(pidOfMining, msg.sender);\n\n        emit onWithdraw(msg.sender, _wantAmt);\n    }\n    // Withdraw without caring about rewards. EMERGENCY ONLY.\n    function emergencyWithdraw() public \n    {\n        uint256 _share = shareOf[msg.sender];\n        require(_share > 0, 'INVALID_AMOUNT');\n\n        shareOf[msg.sender] = 0;\n        totalShare = totalShare.sub(_share);\n\n        // withdraw eth from ethHandle to this.\n        bytes memory data = abi.encode(address(want), msg.sender, _share);\n        ETHBridge.farmWithdraw(ETHHandlerBridge, data);\n\n        // wrap eth to weth\n        want.deposit{value: _share}();\n\n        uint256 _wantBal = want.balanceOf(address(this));\n        if (_wantBal < _share) {\n            _share = _wantBal;\n        }\n\n        want.transfer(msg.sender, _share);\n\n        emit onEmergencyWithdraw(msg.sender, _share);\n    }\n\n    function harvest(address _user) public returns(uint256 _pendingVeGRB) { \n        return miningMachine.harvest(pidOfMining, _user);\n    }\n\n    function getData(\n        address _user\n    ) \n    public \n    view\n    returns(\n        uint256 miningSpeed_,\n        uint256 userWantBal_, \n        uint256 totalMintPerDay_, \n        uint256 userETHBal_, \n        uint256 userGRBPending_, \n        uint256 userWantShare_,\n        uint256 tvl_\n    ) {\n        userWantBal_ = want.balanceOf(_user);\n        totalMintPerDay_ = miningMachine.getTotalMintPerDayOf(pidOfMining);\n\n        miningSpeed_ = miningMachine.getMiningSpeedOf(pidOfMining);\n        userETHBal_ = address(_user).balance;\n        (userGRBPending_, , ) = miningMachine.getUserInfo(pidOfMining, _user);\n        userWantShare_ = shareOf[_user];\n        tvl_ = totalShare;\n    } \n\n    receive() external payable {}\n\n}",
  "sourcePath": "/Applications/projects/garbiprotocol.github.io/garbi_contracts/contracts/GarbiFarmSingleWETHBridge.sol",
  "compiler": {
    "name": "solc",
    "version": "0.8.17+commit.8df45f5f.Emscripten.clang"
  },
  "schemaVersion": "3.4.11",
  "updatedAt": "2023-06-16T09:01:39.052Z",
  "networkType": "ethereum",
  "devdoc": {
    "kind": "dev",
    "methods": {
      "owner()": {
        "details": "Returns the address of the current owner."
      },
      "renounceOwnership()": {
        "details": "Leaves the contract without owner. It will not be possible to call `onlyOwner` functions. Can only be called by the current owner. NOTE: Renouncing ownership will leave the contract without an owner, thereby disabling any functionality that is only available to the owner."
      },
      "transferOwnership(address)": {
        "details": "Transfers ownership of the contract to a new account (`newOwner`). Can only be called by the current owner."
      }
    },
    "version": 1
  },
  "userdoc": {
    "kind": "user",
    "methods": {},
    "version": 1
  }
}