{
  "contractName": "GarbiRepositoryManager",
  "abi": [
    {
      "inputs": [
        {
          "internalType": "contract IERC20withBurnAndMint",
          "name": "garbiECContract",
          "type": "address"
        }
      ],
      "stateMutability": "nonpayable",
      "type": "constructor"
    },
    {
      "anonymous": false,
      "inputs": [
        {
          "indexed": true,
          "internalType": "address",
          "name": "previousOwner",
          "type": "address"
        },
        {
          "indexed": true,
          "internalType": "address",
          "name": "newOwner",
          "type": "address"
        }
      ],
      "name": "OwnershipTransferred",
      "type": "event"
    },
    {
      "anonymous": false,
      "inputs": [
        {
          "indexed": false,
          "internalType": "address",
          "name": "repoAddress",
          "type": "address"
        },
        {
          "indexed": false,
          "internalType": "uint256",
          "name": "repoShare",
          "type": "uint256"
        },
        {
          "indexed": false,
          "internalType": "uint256",
          "name": "repoMaxCapacityLimit",
          "type": "uint256"
        }
      ],
      "name": "onAddRepository",
      "type": "event"
    },
    {
      "anonymous": false,
      "inputs": [
        {
          "indexed": false,
          "internalType": "address",
          "name": "user",
          "type": "address"
        },
        {
          "indexed": false,
          "internalType": "address",
          "name": "repoInAddress",
          "type": "address"
        },
        {
          "indexed": false,
          "internalType": "uint256",
          "name": "assetInAmount",
          "type": "uint256"
        },
        {
          "indexed": false,
          "internalType": "uint256",
          "name": "garbiECOutAmount",
          "type": "uint256"
        }
      ],
      "name": "onBuyGarbiEC",
      "type": "event"
    },
    {
      "anonymous": false,
      "inputs": [
        {
          "indexed": false,
          "internalType": "address",
          "name": "user",
          "type": "address"
        },
        {
          "indexed": false,
          "internalType": "address",
          "name": "repoOutAddress",
          "type": "address"
        },
        {
          "indexed": false,
          "internalType": "uint256",
          "name": "assetOutAmount",
          "type": "uint256"
        },
        {
          "indexed": false,
          "internalType": "uint256",
          "name": "garbiECInAmount",
          "type": "uint256"
        }
      ],
      "name": "onSellGarbiEC",
      "type": "event"
    },
    {
      "anonymous": false,
      "inputs": [
        {
          "indexed": false,
          "internalType": "address",
          "name": "repoAddress",
          "type": "address"
        },
        {
          "indexed": false,
          "internalType": "uint256",
          "name": "repoShare",
          "type": "uint256"
        },
        {
          "indexed": false,
          "internalType": "uint256",
          "name": "repoMaxCapacityLimit",
          "type": "uint256"
        }
      ],
      "name": "onUpdateRepository",
      "type": "event"
    },
    {
      "inputs": [],
      "name": "GarbiEC",
      "outputs": [
        {
          "internalType": "contract IERC20withBurnAndMint",
          "name": "",
          "type": "address"
        }
      ],
      "stateMutability": "view",
      "type": "function"
    },
    {
      "inputs": [],
      "name": "owner",
      "outputs": [
        {
          "internalType": "address",
          "name": "",
          "type": "address"
        }
      ],
      "stateMutability": "view",
      "type": "function"
    },
    {
      "inputs": [],
      "name": "platformFundAddress",
      "outputs": [
        {
          "internalType": "address",
          "name": "",
          "type": "address"
        }
      ],
      "stateMutability": "view",
      "type": "function"
    },
    {
      "inputs": [],
      "name": "renounceOwnership",
      "outputs": [],
      "stateMutability": "nonpayable",
      "type": "function"
    },
    {
      "inputs": [
        {
          "internalType": "uint256",
          "name": "",
          "type": "uint256"
        }
      ],
      "name": "repoAddresses",
      "outputs": [
        {
          "internalType": "address",
          "name": "",
          "type": "address"
        }
      ],
      "stateMutability": "view",
      "type": "function"
    },
    {
      "inputs": [
        {
          "internalType": "address",
          "name": "",
          "type": "address"
        }
      ],
      "name": "repoList",
      "outputs": [
        {
          "internalType": "uint256",
          "name": "share",
          "type": "uint256"
        },
        {
          "internalType": "uint256",
          "name": "maxCapacityLimit",
          "type": "uint256"
        }
      ],
      "stateMutability": "view",
      "type": "function"
    },
    {
      "inputs": [],
      "name": "totalShares",
      "outputs": [
        {
          "internalType": "uint256",
          "name": "",
          "type": "uint256"
        }
      ],
      "stateMutability": "view",
      "type": "function"
    },
    {
      "inputs": [
        {
          "internalType": "address",
          "name": "newOwner",
          "type": "address"
        }
      ],
      "name": "transferOwnership",
      "outputs": [],
      "stateMutability": "nonpayable",
      "type": "function"
    },
    {
      "inputs": [],
      "name": "whitelistContract",
      "outputs": [
        {
          "internalType": "contract IGarbiswapWhitelist",
          "name": "",
          "type": "address"
        }
      ],
      "stateMutability": "view",
      "type": "function"
    },
    {
      "inputs": [
        {
          "internalType": "address",
          "name": "repoAddress",
          "type": "address"
        },
        {
          "internalType": "uint256",
          "name": "repoShare",
          "type": "uint256"
        },
        {
          "internalType": "uint256",
          "name": "repoMaxCapacityLimit",
          "type": "uint256"
        }
      ],
      "name": "addRepository",
      "outputs": [],
      "stateMutability": "nonpayable",
      "type": "function"
    },
    {
      "inputs": [
        {
          "internalType": "address",
          "name": "repoAddress",
          "type": "address"
        },
        {
          "internalType": "uint256",
          "name": "repoShare",
          "type": "uint256"
        },
        {
          "internalType": "uint256",
          "name": "repoMaxCapacityLimit",
          "type": "uint256"
        }
      ],
      "name": "updateRepository",
      "outputs": [],
      "stateMutability": "nonpayable",
      "type": "function"
    },
    {
      "inputs": [
        {
          "internalType": "uint256",
          "name": "newTotalShares",
          "type": "uint256"
        }
      ],
      "name": "setTotalShares",
      "outputs": [],
      "stateMutability": "nonpayable",
      "type": "function"
    },
    {
      "inputs": [
        {
          "internalType": "uint256",
          "name": "newFee",
          "type": "uint256"
        }
      ],
      "name": "setSellGarbiECFee",
      "outputs": [],
      "stateMutability": "nonpayable",
      "type": "function"
    },
    {
      "inputs": [
        {
          "internalType": "address",
          "name": "newAddress",
          "type": "address"
        }
      ],
      "name": "setPlatformFundAdress",
      "outputs": [],
      "stateMutability": "nonpayable",
      "type": "function"
    },
    {
      "inputs": [
        {
          "internalType": "contract IERC20withBurnAndMint",
          "name": "newGarbiECContract",
          "type": "address"
        }
      ],
      "name": "setGarbiEquityCertificateContract",
      "outputs": [],
      "stateMutability": "nonpayable",
      "type": "function"
    },
    {
      "inputs": [
        {
          "internalType": "address",
          "name": "repoInAddress",
          "type": "address"
        },
        {
          "internalType": "uint256",
          "name": "assetInAmount",
          "type": "uint256"
        }
      ],
      "name": "buyGarbiEquityCertificate",
      "outputs": [],
      "stateMutability": "nonpayable",
      "type": "function"
    },
    {
      "inputs": [
        {
          "internalType": "address",
          "name": "repoOutAddress",
          "type": "address"
        },
        {
          "internalType": "uint256",
          "name": "garbiECInAmount",
          "type": "uint256"
        }
      ],
      "name": "sellGarbiEquityCertificate",
      "outputs": [],
      "stateMutability": "nonpayable",
      "type": "function"
    },
    {
      "inputs": [],
      "name": "getGarbiECPrice",
      "outputs": [
        {
          "internalType": "uint256",
          "name": "garbiECPrice",
          "type": "uint256"
        }
      ],
      "stateMutability": "view",
      "type": "function"
    },
    {
      "inputs": [
        {
          "internalType": "address",
          "name": "repoInAddress",
          "type": "address"
        },
        {
          "internalType": "uint256",
          "name": "assetInAmount",
          "type": "uint256"
        }
      ],
      "name": "getDataToBuyGarbiEC",
      "outputs": [
        {
          "internalType": "uint256",
          "name": "garbiECOutAmount",
          "type": "uint256"
        }
      ],
      "stateMutability": "view",
      "type": "function"
    },
    {
      "inputs": [
        {
          "internalType": "address",
          "name": "repoOutAddress",
          "type": "address"
        },
        {
          "internalType": "uint256",
          "name": "garbiECInAmount",
          "type": "uint256"
        }
      ],
      "name": "getDataToSellGarbiEC",
      "outputs": [
        {
          "internalType": "uint256",
          "name": "assetOutAmount",
          "type": "uint256"
        }
      ],
      "stateMutability": "view",
      "type": "function"
    },
    {
      "inputs": [
        {
          "internalType": "address",
          "name": "repoOutAddress",
          "type": "address"
        },
        {
          "internalType": "uint256",
          "name": "assetOutAmount",
          "type": "uint256"
        }
      ],
      "name": "getSellGarbiECDynamicFee",
      "outputs": [
        {
          "internalType": "uint256",
          "name": "fee",
          "type": "uint256"
        }
      ],
      "stateMutability": "view",
      "type": "function"
    }
  ],
  "bytecode": "0x60806040526103e860035560236007553480156200001c57600080fd5b5060405162001e5e38038062001e5e8339810160408190526200003f91620000eb565b60016000556200004f3362000099565b600680546001600160a01b0319166001600160a01b038316179055620000723390565b600880546001600160a01b0319166001600160a01b0392909216919091179055506200011d565b600180546001600160a01b038381166001600160a01b0319831681179093556040519116919082907f8be0079c531659141344cd1fd0a4f28419497f9722a3daafe3b4186f6b6457e090600090a35050565b600060208284031215620000fe57600080fd5b81516001600160a01b03811681146200011657600080fd5b9392505050565b611d31806200012d6000396000f3fe608060405234801561001057600080fd5b50600436106101375760003560e01c8063a77384c1116100b8578063d3b76e5c1161007c578063d3b76e5c1461026f578063ebf3da9314610277578063eef4a00e1461028a578063f2fde38b146102c6578063f71c37bb146102d9578063ff78a654146102ec57600080fd5b8063a77384c114610210578063b0baa1f314610223578063bdb4da2e14610236578063c8de836814610249578063d1dc64cf1461025c57600080fd5b806384900b04116100ff57806384900b041461019b5780638da5cb5b146101c65780638fe6041d146101d75780639fa5e63e146101ea578063a5f270b7146101fd57600080fd5b80630bc8f11c1461013c578063357e47331461015157806336bbbe31146101645780633a98ef391461018a578063715018a614610193575b600080fd5b61014f61014a366004611b0d565b6102ff565b005b61014f61015f366004611b39565b61092a565b610177610172366004611b0d565b61097a565b6040519081526020015b60405180910390f35b61017760035481565b61014f610c2c565b6002546101ae906001600160a01b031681565b6040516001600160a01b039091168152602001610181565b6001546001600160a01b03166101ae565b61014f6101e5366004611b39565b610c40565b6008546101ae906001600160a01b031681565b61017761020b366004611b0d565b610c6a565b61014f61021e366004611b5d565b610d69565b61014f610231366004611b76565b610d96565b61014f610244366004611b0d565b610f0a565b610177610257366004611b0d565b61157c565b61014f61026a366004611b76565b61160c565b61017761173a565b6101ae610285366004611b5d565b6118ea565b6102b1610298366004611b39565b6005602052600090815260409020805460019091015482565b60408051928352602083019190915201610181565b61014f6102d4366004611b39565b611914565b6006546101ae906001600160a01b031681565b61014f6102fa366004611b5d565b61198d565b6103076119ba565b816001600160a01b0381166103375760405162461bcd60e51b815260040161032e90611bab565b60405180910390fd5b6000805b60045481101561039757826001600160a01b03166004828154811061036257610362611bd9565b6000918252602090912001546001600160a01b0316036103855760019150610397565b8061038f81611c05565b91505061033b565b50806001146103dd5760405162461bcd60e51b815260206004820152601260248201527124a72b20a624a22fa822a926a4a9a9a4a7a760711b604482015260640161032e565b33321461049557600254604051636c9b2a3f60e11b81523360048201526001600160a01b039091169063d936547e90602401602060405180830381865afa15801561042c573d6000803e3d6000fd5b505050506040513d601f19601f820116820180604052508101906104509190611c1e565b15156001146104955760405162461bcd60e51b81526020600482015260116024820152701253959053125117d5d2125511531254d5607a1b604482015260640161032e565b600083116104dc5760405162461bcd60e51b81526020600482015260146024820152731253959053125117d054d4d15517d05353d5539560621b604482015260640161032e565b6001600160a01b0384166000908152600560205260409020546105305760405162461bcd60e51b815260206004820152600c60248201526b494e56414c49445f5245504f60a01b604482015260640161032e565b600084905060056000866001600160a01b03166001600160a01b03168152602001908152602001600020600101546105ca85836001600160a01b03166329b315d76040518163ffffffff1660e01b8152600401602060405180830381865afa1580156105a0573d6000803e3d6000fd5b505050506040513d601f19601f820116820180604052508101906105c49190611c40565b90611a13565b11156106115760405162461bcd60e51b8152602060048201526016602482015275494e56414c49445f41535345545f434150414349545960501b604482015260640161032e565b6000816001600160a01b0316635001f3b56040518163ffffffff1660e01b8152600401602060405180830381865afa158015610651573d6000803e3d6000fd5b505050506040513d601f19601f820116820180604052508101906106759190611c59565b6040516370a0823160e01b81523360048201529091506000906001600160a01b038316906370a0823190602401602060405180830381865afa1580156106bf573d6000803e3d6000fd5b505050506040513d601f19601f820116820180604052508101906106e39190611c40565b9050808611156106f1578095505b60006106fd888861157c565b6040516323b872dd60e01b8152336004820152306024820152604481018990529091506001600160a01b038416906323b872dd906064016020604051808303816000875af1158015610753573d6000803e3d6000fd5b505050506040513d601f19601f820116820180604052508101906107779190611c1e565b506006546040516340c10f1960e01b8152306004820152602481018390526001600160a01b03909116906340c10f1990604401600060405180830381600087803b1580156107c457600080fd5b505af11580156107d8573d6000803e3d6000fd5b505060405163a9059cbb60e01b81526001600160a01b038b81166004830152602482018b90528616925063a9059cbb91506044016020604051808303816000875af115801561082b573d6000803e3d6000fd5b505050506040513d601f19601f8201168201806040525081019061084f9190611c1e565b5060065460405163a9059cbb60e01b8152336004820152602481018390526001600160a01b039091169063a9059cbb906044016020604051808303816000875af11580156108a1573d6000803e3d6000fd5b505050506040513d601f19601f820116820180604052508101906108c59190611c1e565b50604080513381526001600160a01b038a166020820152908101889052606081018290527f28b2a32484c6b4c70369af6ce67fc8bd54394b3d31d4ce7c84579537dac1a67d9060800160405180910390a15050505050506109266001600055565b5050565b610932611a28565b6001600160a01b0381166109585760405162461bcd60e51b815260040161032e90611c76565b600680546001600160a01b0319166001600160a01b0392909216919091179055565b6000808080805b600454811015610b2557600060056000600484815481106109a4576109a4611bd9565b60009182526020808320909101546001600160a01b031683528201929092526040019020541115610b13576000600482815481106109e4576109e4611bd9565b9060005260206000200160009054906101000a90046001600160a01b03169050610a70816001600160a01b03166335a226646040518163ffffffff1660e01b8152600401602060405180830381865afa158015610a45573d6000803e3d6000fd5b505050506040513d601f19601f82011682018060405250810190610a699190611c40565b8690611a13565b9450876001600160a01b031660048381548110610a8f57610a8f611bd9565b6000918252602090912001546001600160a01b031603610b1157806001600160a01b03166335a226646040518163ffffffff1660e01b8152600401602060405180830381865afa158015610ae7573d6000803e3d6000fd5b505050506040513d601f19601f82011682018060405250810190610b0b9190611c40565b93508092505b505b80610b1d81611c05565b915050610981565b506000816001600160a01b031663b49f4afd6040518163ffffffff1660e01b8152600401602060405180830381865afa158015610b66573d6000803e3d6000fd5b505050506040513d601f19601f82011682018060405250810190610b8a9190611c40565b90506000610baa670de0b6b3a7640000610ba48985611a82565b90611a8e565b90506000610bd2610bbb8784611a9a565b600354610ba490610bcc8987611a9a565b90611a82565b6003546001600160a01b038b1660009081526005602052604081205492935091610c01918491610ba491611a82565b9050610c1e600354610ba483600754611a8290919063ffffffff16565b9a9950505050505050505050565b610c34611a28565b610c3e6000611aa6565b565b610c48611a28565b600880546001600160a01b0319166001600160a01b0392909216919091179055565b600080610c7561173a565b905060008490506000816001600160a01b031663b49f4afd6040518163ffffffff1660e01b8152600401602060405180830381865afa158015610cbc573d6000803e3d6000fd5b505050506040513d601f19601f82011682018060405250810190610ce09190611c40565b9050610cf081610ba48786611a82565b9350816001600160a01b03166329b315d76040518163ffffffff1660e01b8152600401602060405180830381865afa158015610d30573d6000803e3d6000fd5b505050506040513d601f19601f82011682018060405250810190610d549190611c40565b841115610d6057600093505b50505092915050565b610d71611a28565b60008111610d915760405162461bcd60e51b815260040161032e90611c76565b600355565b610d9e611a28565b6001600160a01b038316610dc45760405162461bcd60e51b815260040161032e90611bab565b60008211610e095760405162461bcd60e51b8152602060048201526012602482015271494e56414c49445f5245504f5f534841524560701b604482015260640161032e565b60008111610e515760405162461bcd60e51b8152602060048201526015602482015274494e56414c49445f5245504f5f434150414349545960581b604482015260640161032e565b60408051808201825283815260208082018481526001600160a01b0387166000818152600584528581209451855591516001948501556004805494850181559091527f8a35acfbc15ff81a39ae7d344fd709f28e8600b4aa8c65c6b64bfe7fe36bd19b90920180546001600160a01b03191683179055825191825281018490529081018290527f0f9add0213bdb1ede37a5c610b3e9634dc14ffc80ab82643288e3faf88f73ae0906060015b60405180910390a1505050565b610f126119ba565b816001600160a01b038116610f395760405162461bcd60e51b815260040161032e90611bab565b6000805b600454811015610f9957826001600160a01b031660048281548110610f6457610f64611bd9565b6000918252602090912001546001600160a01b031603610f875760019150610f99565b80610f9181611c05565b915050610f3d565b5080600114610fdf5760405162461bcd60e51b815260206004820152601260248201527124a72b20a624a22fa822a926a4a9a9a4a7a760711b604482015260640161032e565b33321461109757600254604051636c9b2a3f60e11b81523360048201526001600160a01b039091169063d936547e90602401602060405180830381865afa15801561102e573d6000803e3d6000fd5b505050506040513d601f19601f820116820180604052508101906110529190611c1e565b15156001146110975760405162461bcd60e51b81526020600482015260116024820152701253959053125117d5d2125511531254d5607a1b604482015260640161032e565b600083116110e05760405162461bcd60e51b81526020600482015260166024820152751253959053125117d1d05490925150d7d05353d5539560521b604482015260640161032e565b6001600160a01b0384166000908152600560205260409020546111345760405162461bcd60e51b815260206004820152600c60248201526b494e56414c49445f5245504f60a01b604482015260640161032e565b60008490506000816001600160a01b0316635001f3b56040518163ffffffff1660e01b8152600401602060405180830381865afa158015611179573d6000803e3d6000fd5b505050506040513d601f19601f8201168201806040525081019061119d9190611c59565b6006546040516370a0823160e01b81523360048201529192506000916001600160a01b03909116906370a0823190602401602060405180830381865afa1580156111eb573d6000803e3d6000fd5b505050506040513d601f19601f8201168201806040525081019061120f9190611c40565b90508086111561121d578095505b60006112298888610c6a565b9050836001600160a01b03166329b315d76040518163ffffffff1660e01b8152600401602060405180830381865afa158015611269573d6000803e3d6000fd5b505050506040513d601f19601f8201168201806040525081019061128d9190611c40565b8111156112d15760405162461bcd60e51b81526020600482015260126024820152711253959053125117d3d55517d05353d5539560721b604482015260640161032e565b60006112ed612710610ba46112e68c8661097a565b8590611a82565b905060006112fb8383611a9a565b6006546040516323b872dd60e01b8152336004820152306024820152604481018c90529192506001600160a01b0316906323b872dd906064016020604051808303816000875af1158015611353573d6000803e3d6000fd5b505050506040513d601f19601f820116820180604052508101906113779190611c1e565b50600654604051630852cd8d60e31b8152600481018b90526001600160a01b03909116906342966c6890602401600060405180830381600087803b1580156113be57600080fd5b505af11580156113d2573d6000803e3d6000fd5b50506040516351380da560e11b8152600481018690526001600160a01b038916925063a2701b4a9150602401600060405180830381600087803b15801561141857600080fd5b505af115801561142c573d6000803e3d6000fd5b505060405163a9059cbb60e01b8152336004820152602481018490526001600160a01b038816925063a9059cbb91506044016020604051808303816000875af115801561147d573d6000803e3d6000fd5b505050506040513d601f19601f820116820180604052508101906114a19190611c1e565b5060085460405163a9059cbb60e01b81526001600160a01b039182166004820152602481018490529086169063a9059cbb906044016020604051808303816000875af11580156114f5573d6000803e3d6000fd5b505050506040513d601f19601f820116820180604052508101906115199190611c1e565b50604080513381526001600160a01b038c166020820152908101829052606081018a90527f9b5a54131d57ff379fca74da7f4efca1b9105facc9eb666cdb4dc2991622cee39060800160405180910390a150505050505050506109266001600055565b60008061158761173a565b905060008490506000816001600160a01b031663b49f4afd6040518163ffffffff1660e01b8152600401602060405180830381865afa1580156115ce573d6000803e3d6000fd5b505050506040513d601f19601f820116820180604052508101906115f29190611c40565b905061160283610ba48784611a82565b9695505050505050565b611614611a28565b6001600160a01b03831661163a5760405162461bcd60e51b815260040161032e90611bab565b6000821161167f5760405162461bcd60e51b8152602060048201526012602482015271494e56414c49445f5245504f5f534841524560701b604482015260640161032e565b600081116116c75760405162461bcd60e51b8152602060048201526015602482015274494e56414c49445f5245504f5f434150414349545960581b604482015260640161032e565b60408051808201825283815260208082018481526001600160a01b038716600081815260058452859020935184559051600190930192909255825191825281018490529081018290527f34d71eb9581c2f82d3886aa369754ce61007988ffaa3bdda51b914219b3b120a90606001610efd565b600080805b600454811015611844576000600560006004848154811061176257611762611bd9565b60009182526020808320909101546001600160a01b031683528201929092526040019020541115611832576000600482815481106117a2576117a2611bd9565b9060005260206000200160009054906101000a90046001600160a01b0316905061182e816001600160a01b03166335a226646040518163ffffffff1660e01b8152600401602060405180830381865afa158015611803573d6000803e3d6000fd5b505050506040513d601f19601f820116820180604052508101906118279190611c40565b8490611a13565b9250505b8061183c81611c05565b91505061173f565b50600654604080516318160ddd60e01b815290516000926001600160a01b0316916318160ddd9160048083019260209291908290030181865afa15801561188f573d6000803e3d6000fd5b505050506040513d601f19601f820116820180604052508101906118b39190611c40565b9050806000036118cd57670de0b6b3a76400009250505090565b6118e381610ba484670de0b6b3a7640000611a82565b9250505090565b600481815481106118fa57600080fd5b6000918252602090912001546001600160a01b0316905081565b61191c611a28565b6001600160a01b0381166119815760405162461bcd60e51b815260206004820152602660248201527f4f776e61626c653a206e6577206f776e657220697320746865207a65726f206160448201526564647265737360d01b606482015260840161032e565b61198a81611aa6565b50565b611995611a28565b600081116119b55760405162461bcd60e51b815260040161032e90611c76565b600755565b600260005403611a0c5760405162461bcd60e51b815260206004820152601f60248201527f5265656e7472616e637947756172643a207265656e7472616e742063616c6c00604482015260640161032e565b6002600055565b6000611a1f8284611c9c565b90505b92915050565b6001546001600160a01b03163314610c3e5760405162461bcd60e51b815260206004820181905260248201527f4f776e61626c653a2063616c6c6572206973206e6f7420746865206f776e6572604482015260640161032e565b6000611a1f8284611caf565b6000611a1f8284611cc6565b6000611a1f8284611ce8565b600180546001600160a01b038381166001600160a01b0319831681179093556040519116919082907f8be0079c531659141344cd1fd0a4f28419497f9722a3daafe3b4186f6b6457e090600090a35050565b6001600160a01b038116811461198a57600080fd5b60008060408385031215611b2057600080fd5b8235611b2b81611af8565b946020939093013593505050565b600060208284031215611b4b57600080fd5b8135611b5681611af8565b9392505050565b600060208284031215611b6f57600080fd5b5035919050565b600080600060608486031215611b8b57600080fd5b8335611b9681611af8565b95602085013595506040909401359392505050565b602080825260149082015273494e56414c49445f5245504f5f4144445245535360601b604082015260600190565b634e487b7160e01b600052603260045260246000fd5b634e487b7160e01b600052601160045260246000fd5b600060018201611c1757611c17611bef565b5060010190565b600060208284031215611c3057600080fd5b81518015158114611b5657600080fd5b600060208284031215611c5257600080fd5b5051919050565b600060208284031215611c6b57600080fd5b8151611b5681611af8565b6020808252600c908201526b494e56414c49445f4441544160a01b604082015260600190565b80820180821115611a2257611a22611bef565b8082028115828204841417611a2257611a22611bef565b600082611ce357634e487b7160e01b600052601260045260246000fd5b500490565b81810381811115611a2257611a22611bef56fea26469706673582212207ef667a35372dca932adc653c8030bf7b08eb0276960215e7f9c19b23117920b64736f6c63430008110033",
  "immutableReferences": {},
  "source": "// SPDX-License-Identifier: MIT\r\npragma solidity >=0.8.0;\r\n\r\nimport \"@openzeppelin/contracts/utils/math/SafeMath.sol\";\r\nimport \"@openzeppelin/contracts/token/ERC20/IERC20.sol\";\r\nimport \"@openzeppelin/contracts/access/Ownable.sol\";\r\nimport \"@openzeppelin/contracts/security/ReentrancyGuard.sol\";\r\n\r\nimport '../interfaces/IERC20withBurnAndMint.sol';\r\nimport '../interfaces/IGarbiRepository.sol';\r\nimport '../interfaces/IGarbiswapWhitelist.sol';\r\n\r\ncontract GarbiRepositoryManager is ReentrancyGuard, Ownable {\r\n    using SafeMath for uint256;\r\n\r\n    IGarbiswapWhitelist public whitelistContract; \r\n\r\n    uint256 public totalShares = 1000;\r\n\r\n    struct RepoInfo {\r\n        uint256 share;\r\n        uint256 maxCapacityLimit;\r\n    }\r\n\r\n    // Array of repo addresses\r\n    address[] public repoAddresses;\r\n\r\n    mapping(address => RepoInfo) public repoList;    \r\n\r\n    IERC20withBurnAndMint public GarbiEC;\r\n\r\n    uint256 SELL_GARBIEC_FEE = 35; //35/10000 = 0.35%\r\n\r\n    address public platformFundAddress;\r\n\r\n    modifier onlyRepoInTheList(address repoAddress)\r\n    {\r\n        require(repoAddress != address(0), 'INVALID_REPO_ADDRESS');\r\n        uint flag = 0;\r\n        for (uint i = 0; i < repoAddresses.length; i++) {\r\n            if(repoAddresses[i] == repoAddress) {\r\n                flag = 1;\r\n                break;\r\n            }\r\n        }\r\n        require(flag == 1, \"INVALID_PERMISSION\");\r\n        _;\r\n    }\r\n\r\n    modifier onlyWhitelist()\r\n    {\r\n        if (msg.sender != tx.origin) {\r\n            require(whitelistContract.whitelisted(msg.sender) == true, 'INVALID_WHITELIST');\r\n        }\r\n        _;\r\n    }\r\n\r\n    // Events\r\n    event onAddRepository(address repoAddress, uint256 repoShare, uint256 repoMaxCapacityLimit);\r\n    event onUpdateRepository(address repoAddress, uint256 repoShare, uint256 repoMaxCapacityLimit); \r\n    event onBuyGarbiEC(address user, address repoInAddress, uint256 assetInAmount, uint256 garbiECOutAmount);\r\n    event onSellGarbiEC(address user, address repoOutAddress, uint256 assetOutAmount, uint256 garbiECInAmount);\r\n\r\n    constructor(\r\n        IERC20withBurnAndMint garbiECContract\r\n    ){\r\n        GarbiEC = garbiECContract;\r\n        platformFundAddress = _msgSender();\r\n    }\r\n    \r\n    function addRepository(address repoAddress, uint256 repoShare, uint256 repoMaxCapacityLimit) public onlyOwner {\r\n        require(repoAddress != address(0), 'INVALID_REPO_ADDRESS');\r\n        require(repoShare > 0, 'INVALID_REPO_SHARE');\r\n        require(repoMaxCapacityLimit > 0, 'INVALID_REPO_CAPACITY');\r\n\r\n        repoList[repoAddress] = RepoInfo({\r\n            share : repoShare,\r\n            maxCapacityLimit : repoMaxCapacityLimit\r\n        });\r\n\r\n        repoAddresses.push(repoAddress);\r\n\r\n        emit onAddRepository(repoAddress, repoShare, repoMaxCapacityLimit);\r\n    }\r\n\r\n    function updateRepository(address repoAddress, uint256 repoShare, uint256 repoMaxCapacityLimit) public onlyOwner {\r\n        require(repoAddress != address(0), 'INVALID_REPO_ADDRESS');\r\n        require(repoShare > 0, 'INVALID_REPO_SHARE');\r\n        require(repoMaxCapacityLimit > 0, 'INVALID_REPO_CAPACITY');\r\n\r\n        repoList[repoAddress] = RepoInfo({\r\n            share : repoShare,\r\n            maxCapacityLimit : repoMaxCapacityLimit\r\n        });\r\n\r\n        emit onUpdateRepository(repoAddress, repoShare, repoMaxCapacityLimit);\r\n    }\r\n\r\n    function setTotalShares(uint256 newTotalShares) public onlyOwner {\r\n        require(newTotalShares > 0, 'INVALID_DATA');\r\n        totalShares = newTotalShares;\r\n    }\r\n\r\n    function setSellGarbiECFee(uint256 newFee) public onlyOwner {\r\n        require(newFee > 0, 'INVALID_DATA');\r\n        SELL_GARBIEC_FEE = newFee;\r\n    }\r\n\r\n    function setPlatformFundAdress(address newAddress) public onlyOwner {\r\n        platformFundAddress = newAddress;\r\n    }\r\n\r\n    function setGarbiEquityCertificateContract(IERC20withBurnAndMint newGarbiECContract) public onlyOwner {\r\n        require(address(newGarbiECContract) != address(0), 'INVALID_DATA');\r\n        GarbiEC = newGarbiECContract;\r\n    }\r\n\r\n    function buyGarbiEquityCertificate(address repoInAddress, uint256 assetInAmount) public nonReentrant onlyRepoInTheList(repoInAddress) onlyWhitelist {\r\n        require(assetInAmount > 0, 'INVALID_ASSET_AMOUNT');\r\n        require(repoList[repoInAddress].share > 0, 'INVALID_REPO');\r\n        \r\n        IGarbiRepository repoIn = IGarbiRepository(repoInAddress);\r\n\r\n        require(repoIn.getCapacityByToken().add(assetInAmount) <= repoList[repoInAddress].maxCapacityLimit, 'INVALID_ASSET_CAPACITY');\r\n\r\n        IERC20 base = IERC20(repoIn.base());\r\n\r\n        uint256 baseUserBalance = base.balanceOf(msg.sender);\r\n\r\n        if(assetInAmount > baseUserBalance) {\r\n            assetInAmount = baseUserBalance;\r\n        }\r\n        \r\n        uint256 garbiECOutAmount = getDataToBuyGarbiEC(repoInAddress, assetInAmount);\r\n\r\n        //make trade\r\n        base.transferFrom(msg.sender, address(this), assetInAmount);\r\n        GarbiEC.mint(address(this), garbiECOutAmount);\r\n        base.transfer(repoInAddress, assetInAmount);\r\n        GarbiEC.transfer(msg.sender, garbiECOutAmount);\r\n\r\n        emit onBuyGarbiEC(msg.sender, repoInAddress, assetInAmount, garbiECOutAmount);\r\n    }\r\n\r\n    function sellGarbiEquityCertificate(address repoOutAddress, uint256 garbiECInAmount) public nonReentrant onlyRepoInTheList(repoOutAddress) onlyWhitelist {\r\n        require(garbiECInAmount > 0, 'INVALID_GARBIEC_AMOUNT');\r\n        require(repoList[repoOutAddress].share > 0, 'INVALID_REPO');\r\n        \r\n        IGarbiRepository repoOut = IGarbiRepository(repoOutAddress);\r\n\r\n        IERC20 base = IERC20(repoOut.base());\r\n\r\n        uint256 garbiECUserBalance = GarbiEC.balanceOf(msg.sender);\r\n\r\n        if(garbiECInAmount > garbiECUserBalance) {\r\n            garbiECInAmount = garbiECUserBalance;\r\n        }\r\n\r\n        uint256 baseOutAmount = getDataToSellGarbiEC(repoOutAddress, garbiECInAmount);\r\n\r\n        require(baseOutAmount <= repoOut.getCapacityByToken(), 'INVALID_OUT_AMOUNT');\r\n\r\n        uint256 fee = baseOutAmount.mul(getSellGarbiECDynamicFee(repoOutAddress, baseOutAmount)).div(10000);\r\n        uint256 baseOutAmountAfterFee = baseOutAmount.sub(fee);\r\n\r\n        //make trade\r\n        GarbiEC.transferFrom(msg.sender, address(this), garbiECInAmount);\r\n        GarbiEC.burn(garbiECInAmount);\r\n        repoOut.withdrawBaseToRepositoryManager(baseOutAmount);\r\n        base.transfer(msg.sender, baseOutAmountAfterFee);\r\n        //transfer fee\r\n        base.transfer(platformFundAddress, fee);\r\n\r\n        emit onSellGarbiEC(msg.sender, repoOutAddress, baseOutAmountAfterFee, garbiECInAmount);\r\n    }\r\n\r\n    function getGarbiECPrice() public view returns(uint256 garbiECPrice) {\r\n        uint256 totalCapacityByUSD = 0;\r\n        for (uint i = 0; i < repoAddresses.length; i++) {\r\n            if(repoList[repoAddresses[i]].share > 0) {\r\n                IGarbiRepository repo = IGarbiRepository(repoAddresses[i]);\r\n                totalCapacityByUSD = totalCapacityByUSD.add(repo.getCapacityByUSD());\r\n            }\r\n        }\r\n\r\n        uint256 garbiECTotalSupply = GarbiEC.totalSupply();\r\n\r\n        if(garbiECTotalSupply == 0) {\r\n            garbiECPrice = 1e18;\r\n        }\r\n        else {\r\n            garbiECPrice = totalCapacityByUSD.mul(1e18).div(garbiECTotalSupply);\r\n        }\r\n    }\r\n\r\n    function getDataToBuyGarbiEC(address repoInAddress, uint256 assetInAmount) public view returns (uint256 garbiECOutAmount) {\r\n       uint256 garbiECPrice = getGarbiECPrice();\r\n       IGarbiRepository repoIn = IGarbiRepository(repoInAddress);\r\n\r\n       uint256 assetPrice = repoIn.getBasePrice();\r\n\r\n       garbiECOutAmount = assetInAmount.mul(assetPrice).div(garbiECPrice);\r\n    }\r\n\r\n    function getDataToSellGarbiEC(address repoOutAddress, uint256 garbiECInAmount) public view returns (uint256 assetOutAmount) {\r\n       uint256 garbiECPrice = getGarbiECPrice();\r\n       IGarbiRepository repoOut = IGarbiRepository(repoOutAddress);\r\n\r\n       uint256 assetPrice = repoOut.getBasePrice();\r\n\r\n       assetOutAmount = garbiECInAmount.mul(garbiECPrice).div(assetPrice);\r\n       \r\n       if(assetOutAmount > repoOut.getCapacityByToken()) {\r\n            assetOutAmount = 0;\r\n       }\r\n      \r\n    }\r\n\r\n    function getSellGarbiECDynamicFee(address repoOutAddress, uint256 assetOutAmount) public view returns (uint256 fee) {\r\n        uint256 totalCapacityByUSD = 0;\r\n        uint256 repoOutTotalCapacityByUSD = 0;\r\n        IGarbiRepository repoOut;\r\n        for (uint i = 0; i < repoAddresses.length; i++) {\r\n            if(repoList[repoAddresses[i]].share > 0) {\r\n                IGarbiRepository repo = IGarbiRepository(repoAddresses[i]);\r\n                totalCapacityByUSD = totalCapacityByUSD.add(repo.getCapacityByUSD());\r\n                if(repoAddresses[i] == repoOutAddress) {\r\n                    repoOutTotalCapacityByUSD = repo.getCapacityByUSD();\r\n                    repoOut = repo;\r\n                }\r\n            }\r\n        }\r\n        uint256 assetPrice = repoOut.getBasePrice();\r\n        uint256 assetOutAmountByUSD = assetOutAmount.mul(assetPrice).div(10**18);\r\n        uint256 repoShareAfterOut = repoOutTotalCapacityByUSD.sub(assetOutAmountByUSD).mul(totalShares).div(totalCapacityByUSD.sub(assetOutAmountByUSD));\r\n        uint256 shareDiff = 0;\r\n        shareDiff = repoList[repoOutAddress].share.mul(totalShares).div(repoShareAfterOut);\r\n        fee = SELL_GARBIEC_FEE.mul(shareDiff).div(totalShares);\r\n    }\r\n}",
  "sourcePath": "C:\\Users\\David\\Documents\\NetBeansProjects\\garbiprotocol.github.io\\garbi_contracts\\contracts\\GarbiSwap2\\GarbiRepositoryManager.sol",
  "compiler": {
    "name": "solc",
    "version": "0.8.17+commit.8df45f5f.Emscripten.clang"
  },
  "schemaVersion": "3.4.11",
  "updatedAt": "2023-02-22T07:27:15.023Z",
  "devdoc": {
    "kind": "dev",
    "methods": {
      "owner()": {
        "details": "Returns the address of the current owner."
      },
      "renounceOwnership()": {
        "details": "Leaves the contract without owner. It will not be possible to call `onlyOwner` functions anymore. Can only be called by the current owner. NOTE: Renouncing ownership will leave the contract without an owner, thereby removing any functionality that is only available to the owner."
      },
      "transferOwnership(address)": {
        "details": "Transfers ownership of the contract to a new account (`newOwner`). Can only be called by the current owner."
      }
    },
    "version": 1
  },
  "userdoc": {
    "kind": "user",
    "methods": {},
    "version": 1
  }
}