{
  "contractName": "GarbiStakeGRB",
  "abi": [
    {
      "inputs": [
        {
          "internalType": "contract IGarbiMining",
          "name": "_miningMachine",
          "type": "address"
        },
        {
          "internalType": "contract IERC20",
          "name": "_want",
          "type": "address"
        },
        {
          "internalType": "uint256",
          "name": "_pidOfMining",
          "type": "uint256"
        },
        {
          "internalType": "uint256",
          "name": "_blockToUnlock",
          "type": "uint256"
        }
      ],
      "stateMutability": "nonpayable",
      "type": "constructor"
    },
    {
      "anonymous": false,
      "inputs": [
        {
          "indexed": true,
          "internalType": "address",
          "name": "previousOwner",
          "type": "address"
        },
        {
          "indexed": true,
          "internalType": "address",
          "name": "newOwner",
          "type": "address"
        }
      ],
      "name": "OwnershipTransferred",
      "type": "event"
    },
    {
      "anonymous": false,
      "inputs": [
        {
          "indexed": false,
          "internalType": "string",
          "name": "_functionName",
          "type": "string"
        }
      ],
      "name": "onCancelTransactions",
      "type": "event"
    },
    {
      "anonymous": false,
      "inputs": [
        {
          "indexed": false,
          "internalType": "address",
          "name": "_user",
          "type": "address"
        },
        {
          "indexed": false,
          "internalType": "uint256",
          "name": "_amount",
          "type": "uint256"
        }
      ],
      "name": "onDeposit",
      "type": "event"
    },
    {
      "anonymous": false,
      "inputs": [
        {
          "indexed": false,
          "internalType": "address",
          "name": "_user",
          "type": "address"
        },
        {
          "indexed": false,
          "internalType": "uint256",
          "name": "_amount",
          "type": "uint256"
        }
      ],
      "name": "onEmergencyWithdraw",
      "type": "event"
    },
    {
      "anonymous": false,
      "inputs": [
        {
          "indexed": false,
          "internalType": "string",
          "name": "_functionName",
          "type": "string"
        },
        {
          "indexed": false,
          "internalType": "string",
          "name": "_fieldName",
          "type": "string"
        },
        {
          "indexed": false,
          "internalType": "address",
          "name": "_value",
          "type": "address"
        }
      ],
      "name": "onQueuedTransactionsChangeAddress",
      "type": "event"
    },
    {
      "anonymous": false,
      "inputs": [
        {
          "indexed": false,
          "internalType": "string",
          "name": "_functionName",
          "type": "string"
        },
        {
          "indexed": false,
          "internalType": "string",
          "name": "_fieldName",
          "type": "string"
        },
        {
          "indexed": false,
          "internalType": "uint256",
          "name": "_value",
          "type": "uint256"
        }
      ],
      "name": "onQueuedTransactionsChangeUint",
      "type": "event"
    },
    {
      "anonymous": false,
      "inputs": [
        {
          "indexed": false,
          "internalType": "address",
          "name": "_user",
          "type": "address"
        },
        {
          "indexed": false,
          "internalType": "uint256",
          "name": "_amount",
          "type": "uint256"
        }
      ],
      "name": "onWithdraw",
      "type": "event"
    },
    {
      "inputs": [],
      "name": "BLOCK_TO_UNLOCK",
      "outputs": [
        {
          "internalType": "uint256",
          "name": "",
          "type": "uint256"
        }
      ],
      "stateMutability": "view",
      "type": "function",
      "constant": true
    },
    {
      "inputs": [],
      "name": "GRACE_PERIOD",
      "outputs": [
        {
          "internalType": "uint256",
          "name": "",
          "type": "uint256"
        }
      ],
      "stateMutability": "view",
      "type": "function",
      "constant": true
    },
    {
      "inputs": [],
      "name": "MAXIMUM_DELAY",
      "outputs": [
        {
          "internalType": "uint256",
          "name": "",
          "type": "uint256"
        }
      ],
      "stateMutability": "view",
      "type": "function",
      "constant": true
    },
    {
      "inputs": [],
      "name": "MINIMUM_DELAY",
      "outputs": [
        {
          "internalType": "uint256",
          "name": "",
          "type": "uint256"
        }
      ],
      "stateMutability": "view",
      "type": "function",
      "constant": true
    },
    {
      "inputs": [],
      "name": "PLATFORM_FEE",
      "outputs": [
        {
          "internalType": "uint256",
          "name": "",
          "type": "uint256"
        }
      ],
      "stateMutability": "view",
      "type": "function",
      "constant": true
    },
    {
      "inputs": [],
      "name": "delay",
      "outputs": [
        {
          "internalType": "uint256",
          "name": "",
          "type": "uint256"
        }
      ],
      "stateMutability": "view",
      "type": "function",
      "constant": true
    },
    {
      "inputs": [],
      "name": "miningMachine",
      "outputs": [
        {
          "internalType": "contract IGarbiMining",
          "name": "",
          "type": "address"
        }
      ],
      "stateMutability": "view",
      "type": "function",
      "constant": true
    },
    {
      "inputs": [],
      "name": "owner",
      "outputs": [
        {
          "internalType": "address",
          "name": "",
          "type": "address"
        }
      ],
      "stateMutability": "view",
      "type": "function",
      "constant": true
    },
    {
      "inputs": [],
      "name": "pidOfMining",
      "outputs": [
        {
          "internalType": "uint256",
          "name": "",
          "type": "uint256"
        }
      ],
      "stateMutability": "view",
      "type": "function",
      "constant": true
    },
    {
      "inputs": [],
      "name": "platformFundAddress",
      "outputs": [
        {
          "internalType": "address",
          "name": "",
          "type": "address"
        }
      ],
      "stateMutability": "view",
      "type": "function",
      "constant": true
    },
    {
      "inputs": [],
      "name": "renounceOwnership",
      "outputs": [],
      "stateMutability": "nonpayable",
      "type": "function"
    },
    {
      "inputs": [
        {
          "internalType": "address",
          "name": "",
          "type": "address"
        }
      ],
      "name": "shareOf",
      "outputs": [
        {
          "internalType": "uint256",
          "name": "",
          "type": "uint256"
        }
      ],
      "stateMutability": "view",
      "type": "function",
      "constant": true
    },
    {
      "inputs": [
        {
          "internalType": "bytes32",
          "name": "",
          "type": "bytes32"
        }
      ],
      "name": "timeLockOf",
      "outputs": [
        {
          "internalType": "bool",
          "name": "queuedTransactions",
          "type": "bool"
        },
        {
          "internalType": "uint256",
          "name": "timeOfExecute",
          "type": "uint256"
        }
      ],
      "stateMutability": "view",
      "type": "function",
      "constant": true
    },
    {
      "inputs": [],
      "name": "totalShare",
      "outputs": [
        {
          "internalType": "uint256",
          "name": "",
          "type": "uint256"
        }
      ],
      "stateMutability": "view",
      "type": "function",
      "constant": true
    },
    {
      "inputs": [
        {
          "internalType": "address",
          "name": "newOwner",
          "type": "address"
        }
      ],
      "name": "transferOwnership",
      "outputs": [],
      "stateMutability": "nonpayable",
      "type": "function"
    },
    {
      "inputs": [],
      "name": "want",
      "outputs": [
        {
          "internalType": "contract IERC20",
          "name": "",
          "type": "address"
        }
      ],
      "stateMutability": "view",
      "type": "function",
      "constant": true
    },
    {
      "inputs": [
        {
          "internalType": "address",
          "name": "",
          "type": "address"
        }
      ],
      "name": "withdrawalAvailabilityBlock",
      "outputs": [
        {
          "internalType": "uint256",
          "name": "",
          "type": "uint256"
        }
      ],
      "stateMutability": "view",
      "type": "function",
      "constant": true
    },
    {
      "inputs": [
        {
          "internalType": "uint256",
          "name": "delay_",
          "type": "uint256"
        }
      ],
      "name": "setDelay",
      "outputs": [],
      "stateMutability": "nonpayable",
      "type": "function"
    },
    {
      "inputs": [
        {
          "internalType": "string",
          "name": "_functionName",
          "type": "string"
        }
      ],
      "name": "cancelTransactions",
      "outputs": [],
      "stateMutability": "nonpayable",
      "type": "function"
    },
    {
      "inputs": [
        {
          "internalType": "string",
          "name": "_functionName",
          "type": "string"
        },
        {
          "internalType": "string",
          "name": "_fieldName",
          "type": "string"
        },
        {
          "internalType": "address",
          "name": "_newAddr",
          "type": "address"
        }
      ],
      "name": "queuedTransactionsChangeAddress",
      "outputs": [],
      "stateMutability": "nonpayable",
      "type": "function"
    },
    {
      "inputs": [
        {
          "internalType": "string",
          "name": "_functionName",
          "type": "string"
        },
        {
          "internalType": "string",
          "name": "_fieldName",
          "type": "string"
        },
        {
          "internalType": "uint256",
          "name": "_value",
          "type": "uint256"
        }
      ],
      "name": "queuedTransactionsChangeUint",
      "outputs": [],
      "stateMutability": "nonpayable",
      "type": "function"
    },
    {
      "inputs": [],
      "name": "setMiningMachine",
      "outputs": [],
      "stateMutability": "nonpayable",
      "type": "function"
    },
    {
      "inputs": [
        {
          "internalType": "uint256",
          "name": "_blockToUnlock",
          "type": "uint256"
        }
      ],
      "name": "setBlockToUnlock",
      "outputs": [],
      "stateMutability": "nonpayable",
      "type": "function"
    },
    {
      "inputs": [
        {
          "internalType": "uint256",
          "name": "_platformFee",
          "type": "uint256"
        }
      ],
      "name": "setPlatformFee",
      "outputs": [],
      "stateMutability": "nonpayable",
      "type": "function"
    },
    {
      "inputs": [
        {
          "internalType": "address",
          "name": "newAddress",
          "type": "address"
        }
      ],
      "name": "setPlatformFundAdress",
      "outputs": [],
      "stateMutability": "nonpayable",
      "type": "function"
    },
    {
      "inputs": [],
      "name": "changeTokenAddress",
      "outputs": [],
      "stateMutability": "nonpayable",
      "type": "function"
    },
    {
      "inputs": [],
      "name": "setPidOfMining",
      "outputs": [],
      "stateMutability": "nonpayable",
      "type": "function"
    },
    {
      "inputs": [
        {
          "internalType": "uint256",
          "name": "_wantAmt",
          "type": "uint256"
        }
      ],
      "name": "deposit",
      "outputs": [],
      "stateMutability": "nonpayable",
      "type": "function"
    },
    {
      "inputs": [
        {
          "internalType": "uint256",
          "name": "_wantAmt",
          "type": "uint256"
        }
      ],
      "name": "withdraw",
      "outputs": [],
      "stateMutability": "nonpayable",
      "type": "function"
    },
    {
      "inputs": [
        {
          "internalType": "address",
          "name": "_user",
          "type": "address"
        }
      ],
      "name": "harvest",
      "outputs": [
        {
          "internalType": "uint256",
          "name": "_pendingVeGRB",
          "type": "uint256"
        }
      ],
      "stateMutability": "nonpayable",
      "type": "function"
    },
    {
      "inputs": [
        {
          "internalType": "address",
          "name": "_user",
          "type": "address"
        }
      ],
      "name": "getData",
      "outputs": [
        {
          "internalType": "uint256",
          "name": "miningSpeed_",
          "type": "uint256"
        },
        {
          "internalType": "uint256",
          "name": "userWantBal_",
          "type": "uint256"
        },
        {
          "internalType": "uint256",
          "name": "totalMintPerDay_",
          "type": "uint256"
        },
        {
          "internalType": "uint256",
          "name": "userETHBal_",
          "type": "uint256"
        },
        {
          "internalType": "uint256",
          "name": "userGRBPending_",
          "type": "uint256"
        },
        {
          "internalType": "uint256",
          "name": "userWantShare_",
          "type": "uint256"
        },
        {
          "internalType": "uint256",
          "name": "tvl_",
          "type": "uint256"
        }
      ],
      "stateMutability": "view",
      "type": "function",
      "constant": true
    }
  ],
  "bytecode": "0x60806040526000600355600060045560006008553480156200002057600080fd5b5060405162001d4338038062001d4383398101604081905262000043916200012b565b60016000556200005333620000c0565b600280546001600160a01b038086166001600160a01b031992831617909255600680549287169290911691909117905560078290556003819055620000953390565b600580546001600160a01b0319166001600160a01b0392909216919091179055506200017892505050565b600180546001600160a01b038381166001600160a01b0319831681179093556040519116919082907f8be0079c531659141344cd1fd0a4f28419497f9722a3daafe3b4186f6b6457e090600090a35050565b6001600160a01b03811681146200012857600080fd5b50565b600080600080608085870312156200014257600080fd5b84516200014f8162000112565b6020860151909450620001628162000112565b6040860151606090960151949790965092505050565b611bbb80620001886000396000f3fe608060405234801561001057600080fd5b50600436106101e55760003560e01c80638da5cb5b1161010f578063bbc32c3e116100a2578063d8e82eab11610071578063d8e82eab14610427578063e177246e14610430578063f2fde38b14610443578063f47a396f1461045657600080fd5b8063bbc32c3e146103ec578063bce645db1461040c578063c1a287e21461034d578063d1b8a3b51461041f57600080fd5b80639fa5e63e116100de5780639fa5e63e146103a9578063add3df26146103bc578063b1b43ae5146103cf578063b6b55f25146103d957600080fd5b80638da5cb5b1461036a5780638ecc676f1461037b5780638fe6041d146103835780639312dc5f1461039657600080fd5b806332009eda116101875780636edc28fd116101565780636edc28fd14610301578063715018a6146103455780637d645fab1461034d5780638cac8f031461035757600080fd5b806332009eda1461029f57806334fbc9a1146102a757806338266b22146102b05780636a42b8f8146102f857600080fd5b806314ca81ed116101c357806314ca81ed1461022e5780631f1fcd511461024157806321e5e2c41461026c5780632e1a7d4d1461028c57600080fd5b8063026c4207146101ea5780630e5c011e1461020657806312e8e2c314610219575b600080fd5b6101f360085481565b6040519081526020015b60405180910390f35b6101f36102143660046117a0565b61045f565b61022c6102273660046117bb565b6104e1565b005b61022c61023c366004611877565b6104ee565b600254610254906001600160a01b031681565b6040516001600160a01b0390911681526020016101fd565b6101f361027a3660046117a0565b60096020526000908152604090205481565b61022c61029a3660046117bb565b6105ee565b61022c61088e565b6101f360045481565b6102c36102be3660046117a0565b610a03565b604080519788526020880196909652948601939093526060850191909152608084015260a083015260c082015260e0016101fd565b6101f3600c5481565b61032e61030f3660046117bb565b600b602052600090815260409020805460019091015460ff9091169082565b6040805192151583526020830191909152016101fd565b61022c610c13565b6101f362278d0081565b61022c6103653660046118eb565b610c27565b6001546001600160a01b0316610254565b61022c610cb2565b61022c6103913660046117a0565b610e59565b61022c6103a4366004611928565b610e83565b600554610254906001600160a01b031681565b61022c6103ca3660046117bb565b610f58565b6101f36202a30081565b61022c6103e73660046117bb565b610f65565b6101f36103fa3660046117a0565b600a6020526000908152604090205481565b600654610254906001600160a01b031681565b61022c611257565b6101f360035481565b61022c61043e3660046117bb565b6113c8565b61022c6104513660046117a0565b6114be565b6101f360075481565b600654600754604051630c7e663b60e11b815260048101919091526001600160a01b03838116602483015260009216906318fccc76906044016020604051808303816000875af11580156104b7573d6000803e3d6000fd5b505050506040513d601f19601f820116820180604052508101906104db9190611995565b92915050565b6104e9611534565b600455565b6104f6611534565b6000600b60008560405160200161050d91906119f4565b6040516020818303038152906040528051906020012081526020019081526020016000209050818160020160008560405160200161054b91906119f4565b60408051808303601f1901815291815281516020928301208352908201929092520160002080546001600160a01b0319166001600160a01b0392909216919091179055805460ff19166001178155600c546105a790429061158e565b60018201556040517f1bd33efd68d2824f5f0f2519ce7c9ca0ddff6234523468e89077a0dca7b73970906105e090869086908690611a07565b60405180910390a150505050565b6105f66115a1565b336000908152600a602052604090205443101561065a5760405162461bcd60e51b815260206004820152601760248201527f494e56414c49445f424c4f434b5f544f5f554e4c4f434b00000000000000000060448201526064015b60405180910390fd5b6000811161067a5760405162461bcd60e51b815260040161065190611a45565b6106833361045f565b5033600090815260096020526040902054808211156106a0578091505b6002546040516370a0823160e01b81523060048201526000916001600160a01b0316906370a0823190602401602060405180830381865afa1580156106e9573d6000803e3d6000fd5b505050506040513d601f19601f8201168201806040525081019061070d9190611995565b90508281101561071b578092505b3360009081526009602052604090205461073590846115fa565b3360009081526009602052604090205560085461075290846115fa565b60085560025460405163a9059cbb60e01b8152336004820152602481018590526001600160a01b039091169063a9059cbb906044016020604051808303816000875af11580156107a6573d6000803e3d6000fd5b505050506040513d601f19601f820116820180604052508101906107ca9190611a6c565b50600654600754604051638fb4e1cd60e01b815260048101919091523360248201526001600160a01b0390911690638fb4e1cd906044016020604051808303816000875af1158015610820573d6000803e3d6000fd5b505050506040513d601f19601f820116820180604052508101906108449190611a6c565b5060408051338152602081018590527fccad973dcd043c7d680389db4378bd6b9775db7124092e9e0422c9e46d7985dc91015b60405180910390a1505061088b6001600055565b50565b610896611534565b6000600b60006040516020016108d2906020808252601290820152716368616e6765546f6b656e4164647265737360701b604082015260600190565b604051602081830303815290604052805190602001208152602001908152602001600020905061090181611606565b60006001600160a01b031681600201600060405160200161092190611a8e565b60408051601f19818403018152918152815160209283012083529082019290925201600020546001600160a01b0316146109f95780600201600060405160200161096a90611a8e565b60408051601f198184030181529181528151602092830120835282820193909352908201600090812054600280546001600160a01b0319166001600160a01b0390921691909117815592519284019290916109c59101611a8e565b60408051601f1981840301815291815281516020928301208352908201929092520160002080546001600160a01b03191690555b805460ff19169055565b6002546040516370a0823160e01b81526001600160a01b03838116600483015260009283928392839283928392839216906370a0823190602401602060405180830381865afa158015610a5a573d6000803e3d6000fd5b505050506040513d601f19601f82011682018060405250810190610a7e9190611995565b600654600754604051635e86cd9560e01b815260048101919091529197506001600160a01b031690635e86cd9590602401602060405180830381865afa158015610acc573d6000803e3d6000fd5b505050506040513d601f19601f82011682018060405250810190610af09190611995565b6006546007546040516324aa7cc560e11b815260048101919091529196506001600160a01b031690634954f98a90602401602060405180830381865afa158015610b3e573d6000803e3d6000fd5b505050506040513d601f19601f82011682018060405250810190610b629190611995565b600654600754604051631069f3b560e01b815260048101919091526001600160a01b038b811660248301819052939a5092319650911690631069f3b590604401606060405180830381865afa158015610bbf573d6000803e3d6000fd5b505050506040513d601f19601f82011682018060405250810190610be39190611aac565b50506001600160a01b03909816600090815260096020526040902054600854979996989597949690949350915050565b610c1b611534565b610c25600061171a565b565b610c2f611534565b6000600b600083604051602001610c4691906119f4565b60408051601f1981840301815291815281516020928301208352908201929092528101600020805460ff1916815590519091507fce369f91d52b663114643c430217b52530c2cc7318cac7a3e9d46241cbc354a890610ca69084906119f4565b60405180910390a15050565b610cba611534565b6000600b6000604051602001610cf49060208082526010908201526f7365744d696e696e674d616368696e6560801b604082015260600190565b6040516020818303038152906040528051906020012081526020019081526020016000209050610d2381611606565b60006001600160a01b0316816002016000604051602001610d65906020808252600d908201526c6d696e696e674d616368696e6560981b604082015260600190565b60408051601f19818403018152918152815160209283012083529082019290925201600020546001600160a01b031603610dd35760405162461bcd60e51b815260206004820152600f60248201526e494e56414c49445f4144445245535360881b6044820152606401610651565b806002016000604051602001610e0a906020808252600d908201526c6d696e696e674d616368696e6560981b604082015260600190565b60408051601f1981840301815291815281516020928301208352908201929092520160002054600680546001600160a01b0319166001600160a01b03909216919091179055805460ff19169055565b610e61611534565b600580546001600160a01b0319166001600160a01b0392909216919091179055565b610e8b611534565b6000600b600085604051602001610ea291906119f4565b60405160208183030381529060405280519060200120815260200190815260200160002090508181600301600085604051602001610ee091906119f4565b60408051601f1981840301815291815281516020928301208352908201929092520160002055805460ff19166001178155600c54610f1f90429061158e565b60018201556040517f860699cc7b0f3cb3d034fd31cdfe0816887a9f55d10993224d77c359c3d55551906105e090869086908690611ada565b610f60611534565b600355565b610f6d6115a1565b60008111610f8d5760405162461bcd60e51b815260040161065190611a45565b6002546040516370a0823160e01b815233600482015282916001600160a01b0316906370a0823190602401602060405180830381865afa158015610fd5573d6000803e3d6000fd5b505050506040513d601f19601f82011682018060405250810190610ff99190611995565b10156110175760405162461bcd60e51b815260040161065190611a45565b6110203361045f565b506002546040516323b872dd60e01b8152336004820152306024820152604481018390526001600160a01b03909116906323b872dd906064016020604051808303816000875af1158015611078573d6000803e3d6000fd5b505050506040513d601f19601f8201168201806040525081019061109c9190611a6c565b5060006110c06103e86110ba6004548561176c90919063ffffffff16565b90611778565b60025460055460405163a9059cbb60e01b81526001600160a01b03918216600482015260248101849052929350169063a9059cbb906044016020604051808303816000875af1158015611117573d6000803e3d6000fd5b505050506040513d601f19601f8201168201806040525081019061113b9190611a6c565b50600061114883836115fa565b33600090815260096020526040902054909150611165908261158e565b33600090815260096020526040902055600854611182908261158e565b60085560035461119390439061158e565b336000818152600a602052604090819020929092556006546007549251638fb4e1cd60e01b8152600481019390935260248301919091526001600160a01b031690638fb4e1cd906044016020604051808303816000875af11580156111fc573d6000803e3d6000fd5b505050506040513d601f19601f820116820180604052508101906112209190611a6c565b5060408051338152602081018590527f2bf9518c65eff7d1f3ee4106bf0dc41267ccde0924dbfa4ab476ed5c0f45da989101610877565b61125f611534565b6000600b6000604051602001611297906020808252600e908201526d7365745069644f664d696e696e6760901b604082015260600190565b60405160208183030381529060405280519060200120815260200190815260200160002090506112c681611606565b60008160030160006040516020016112fd906020808252600b908201526a7069644f664d696e696e6760a81b604082015260600190565b60405160208183030381529060405280519060200120815260200190815260200160002054116113605760405162461bcd60e51b815260206004820152600e60248201526d1253959053125117d05353d5539560921b6044820152606401610651565b806003016000604051602001611395906020808252600b908201526a7069644f664d696e696e6760a81b604082015260600190565b60408051601f1981840301815291815281516020928301208352908201929092520160002054600755805460ff19169055565b6113d0611534565b6202a3008110156114405760405162461bcd60e51b815260206004820152603460248201527f54696d656c6f636b3a3a73657444656c61793a2044656c6179206d75737420656044820152733c31b2b2b21036b4b734b6bab6903232b630bc9760611b6064820152608401610651565b62278d008111156114b95760405162461bcd60e51b815260206004820152603860248201527f54696d656c6f636b3a3a73657444656c61793a2044656c6179206d757374206e60448201527f6f7420657863656564206d6178696d756d2064656c61792e00000000000000006064820152608401610651565b600c55565b6114c6611534565b6001600160a01b03811661152b5760405162461bcd60e51b815260206004820152602660248201527f4f776e61626c653a206e6577206f776e657220697320746865207a65726f206160448201526564647265737360d01b6064820152608401610651565b61088b8161171a565b6001546001600160a01b03163314610c255760405162461bcd60e51b815260206004820181905260248201527f4f776e61626c653a2063616c6c6572206973206e6f7420746865206f776e65726044820152606401610651565b600061159a8284611b26565b9392505050565b6002600054036115f35760405162461bcd60e51b815260206004820152601f60248201527f5265656e7472616e637947756172643a207265656e7472616e742063616c6c006044820152606401610651565b6002600055565b600061159a8284611b39565b805460ff16151560011461165c5760405162461bcd60e51b815260206004820152601f60248201527f5472616e73616374696f6e206861736e2774206265656e207175657565642e006044820152606401610651565b42816001015411156116c05760405162461bcd60e51b815260206004820152602760248201527f5472616e73616374696f6e206861736e2774207375727061737365642074696d60448201526632903637b1b59760c91b6064820152608401610651565b600181015442906116d49062278d0061158e565b101561088b5760405162461bcd60e51b81526020600482015260156024820152742a3930b739b0b1ba34b7b71034b99039ba30b6329760591b6044820152606401610651565b600180546001600160a01b038381166001600160a01b0319831681179093556040519116919082907f8be0079c531659141344cd1fd0a4f28419497f9722a3daafe3b4186f6b6457e090600090a35050565b600061159a8284611b4c565b600061159a8284611b63565b80356001600160a01b038116811461179b57600080fd5b919050565b6000602082840312156117b257600080fd5b61159a82611784565b6000602082840312156117cd57600080fd5b5035919050565b634e487b7160e01b600052604160045260246000fd5b600082601f8301126117fb57600080fd5b813567ffffffffffffffff80821115611816576118166117d4565b604051601f8301601f19908116603f0116810190828211818310171561183e5761183e6117d4565b8160405283815286602085880101111561185757600080fd5b836020870160208301376000602085830101528094505050505092915050565b60008060006060848603121561188c57600080fd5b833567ffffffffffffffff808211156118a457600080fd5b6118b0878388016117ea565b945060208601359150808211156118c657600080fd5b506118d3868287016117ea565b9250506118e260408501611784565b90509250925092565b6000602082840312156118fd57600080fd5b813567ffffffffffffffff81111561191457600080fd5b611920848285016117ea565b949350505050565b60008060006060848603121561193d57600080fd5b833567ffffffffffffffff8082111561195557600080fd5b611961878388016117ea565b9450602086013591508082111561197757600080fd5b50611984868287016117ea565b925050604084013590509250925092565b6000602082840312156119a757600080fd5b5051919050565b6000815180845260005b818110156119d4576020818501810151868301820152016119b8565b506000602082860101526020601f19601f83011685010191505092915050565b60208152600061159a60208301846119ae565b606081526000611a1a60608301866119ae565b8281036020840152611a2c81866119ae565b91505060018060a01b0383166040830152949350505050565b6020808252600d908201526c1253959053125117d253941555609a1b604082015260600190565b600060208284031215611a7e57600080fd5b8151801515811461159a57600080fd5b6020808252600490820152631dd85b9d60e21b604082015260600190565b600080600060608486031215611ac157600080fd5b8351925060208401519150604084015190509250925092565b606081526000611aed60608301866119ae565b8281036020840152611aff81866119ae565b915050826040830152949350505050565b634e487b7160e01b600052601160045260246000fd5b808201808211156104db576104db611b10565b818103818111156104db576104db611b10565b80820281158282048414176104db576104db611b10565b600082611b8057634e487b7160e01b600052601260045260246000fd5b50049056fea26469706673582212205ec9ea1b9dd1669d2cb88da94d566d1ad236cfc9006aa2c8076fe53befba2bbc64736f6c63430008110033",
  "immutableReferences": {},
  "source": "// SPDX-License-Identifier: MIT\r\npragma solidity >=0.6.12;\r\n\r\nimport \"@openzeppelin/contracts/utils/math/SafeMath.sol\";\r\nimport \"@openzeppelin/contracts/access/Ownable.sol\";\r\nimport \"@openzeppelin/contracts/token/ERC20/IERC20.sol\";\r\nimport \"@openzeppelin/contracts/security/ReentrancyGuard.sol\";\r\n\r\nimport './interfaces/IGarbiMining.sol';\r\n\r\ncontract GarbiStakeGRB is ReentrancyGuard, Ownable {\r\n\r\n    using SafeMath for uint256;\r\n    \r\n    IERC20 public want; // GRB\r\n\r\n    uint256 public BLOCK_TO_UNLOCK = 0;\r\n    \r\n    uint256 public PLATFORM_FEE = 0; //0% 0/1000\r\n\r\n    address public platformFundAddress;\r\n\r\n    IGarbiMining public miningMachine;\r\n\r\n    uint256 public pidOfMining;\r\n    uint256 public totalShare = 0;\r\n    mapping(address => uint256) public shareOf;\r\n\r\n    mapping(address => uint256) public withdrawalAvailabilityBlock;\r\n\r\n    mapping(bytes32 => TimeLock) public timeLockOf;\r\n\r\n    uint public constant GRACE_PERIOD = 30 days;\r\n    uint public constant MINIMUM_DELAY = 2 days;\r\n    uint public constant MAXIMUM_DELAY = 30 days;\r\n    uint public delay;\r\n\r\n    struct TimeLock {\r\n        bool queuedTransactions;\r\n        uint256 timeOfExecute;\r\n        mapping(bytes32 => address) addressOf;\r\n        mapping(bytes32 => uint256) uintOf;\r\n    }\r\n\r\n    event onDeposit(address _user, uint256 _amount);\r\n    event onWithdraw(address _user, uint256 _amount);\r\n    event onEmergencyWithdraw(address _user, uint256 _amount);\r\n\r\n    event onQueuedTransactionsChangeAddress(string _functionName, string _fieldName, address _value);\r\n    event onQueuedTransactionsChangeUint(string _functionName, string _fieldName, uint256 _value);\r\n    event onCancelTransactions(string _functionName);\r\n\r\n    constructor(\r\n        IGarbiMining _miningMachine,\r\n        IERC20 _want,\r\n        uint256 _pidOfMining,\r\n        uint256 _blockToUnlock\r\n        ) {\r\n        want = _want;\r\n        miningMachine = _miningMachine;\r\n        pidOfMining = _pidOfMining;\r\n        BLOCK_TO_UNLOCK = _blockToUnlock;\r\n        platformFundAddress = _msgSender();\r\n    }\r\n\r\n    function setDelay(uint delay_) public onlyOwner {\r\n        require(delay_ >= MINIMUM_DELAY, \"Timelock::setDelay: Delay must exceed minimum delay.\");\r\n        require(delay_ <= MAXIMUM_DELAY, \"Timelock::setDelay: Delay must not exceed maximum delay.\");\r\n\r\n        delay = delay_;\r\n    }\r\n\r\n    function cancelTransactions(string memory _functionName) public onlyOwner {\r\n\r\n        TimeLock storage _timelock = timeLockOf[keccak256(abi.encode(_functionName))];\r\n        _timelock.queuedTransactions = false;\r\n\r\n        emit onCancelTransactions(_functionName);\r\n    }\r\n\r\n    function queuedTransactionsChangeAddress(string memory _functionName, string memory _fieldName, address _newAddr) public onlyOwner \r\n    {\r\n        TimeLock storage _timelock = timeLockOf[keccak256(abi.encode(_functionName))];\r\n\r\n        _timelock.addressOf[keccak256(abi.encode(_fieldName))] = _newAddr;\r\n        _timelock.queuedTransactions = true;\r\n        _timelock.timeOfExecute = block.timestamp.add(delay);\r\n\r\n        emit onQueuedTransactionsChangeAddress(_functionName, _fieldName, _newAddr);\r\n    }\r\n\r\n    function queuedTransactionsChangeUint(string memory _functionName, string memory _fieldName, uint256 _value) public onlyOwner \r\n    {\r\n        TimeLock storage _timelock = timeLockOf[keccak256(abi.encode(_functionName))];\r\n\r\n        _timelock.uintOf[keccak256(abi.encode(_fieldName))] = _value;\r\n        _timelock.queuedTransactions = true;\r\n        _timelock.timeOfExecute = block.timestamp.add(delay);\r\n\r\n        emit onQueuedTransactionsChangeUint(_functionName, _fieldName, _value);\r\n    }\r\n\r\n    function setMiningMachine() public onlyOwner \r\n    {\r\n        TimeLock storage _timelock = timeLockOf[keccak256(abi.encode('setMiningMachine'))];\r\n        _validateTimelock(_timelock);\r\n        require(_timelock.addressOf[keccak256(abi.encode('miningMachine'))] != address(0), \"INVALID_ADDRESS\");\r\n\r\n        miningMachine = IGarbiMining(_timelock.addressOf[keccak256(abi.encode('miningMachine'))]);\r\n        _timelock.queuedTransactions = false;\r\n    }\r\n\r\n    function setBlockToUnlock(uint256 _blockToUnlock) public onlyOwner {\r\n        BLOCK_TO_UNLOCK = _blockToUnlock;\r\n    }\r\n\r\n    function setPlatformFee(uint256 _platformFee) public onlyOwner {\r\n        PLATFORM_FEE = _platformFee;\r\n    }\r\n\r\n    function setPlatformFundAdress(address newAddress) public onlyOwner {\r\n        platformFundAddress = newAddress;\r\n    }\r\n\r\n    function changeTokenAddress() public onlyOwner\r\n    {\r\n        TimeLock storage _timelock = timeLockOf[keccak256(abi.encode('changeTokenAddress'))];\r\n\r\n        _validateTimelock(_timelock);\r\n    \r\n        if (_timelock.addressOf[keccak256(abi.encode('want'))] != address(0)) {\r\n            want = IERC20(_timelock.addressOf[keccak256(abi.encode('want'))]);\r\n            delete _timelock.addressOf[keccak256(abi.encode('want'))];\r\n        }\r\n        _timelock.queuedTransactions = false;\r\n    }\r\n\r\n    function setPidOfMining() public onlyOwner \r\n    {\r\n        TimeLock storage _timelock = timeLockOf[keccak256(abi.encode('setPidOfMining'))];\r\n        _validateTimelock(_timelock);\r\n        require(_timelock.uintOf[keccak256(abi.encode('pidOfMining'))] > 0, \"INVALID_AMOUNT\");\r\n\r\n        pidOfMining = _timelock.uintOf[keccak256(abi.encode('pidOfMining'))];\r\n        _timelock.queuedTransactions = false;\r\n    }\r\n\r\n    function _validateTimelock(TimeLock storage _timelock) private view\r\n    {\r\n        require(_timelock.queuedTransactions == true, \"Transaction hasn't been queued.\");\r\n        require(_timelock.timeOfExecute <= block.timestamp, \"Transaction hasn't surpassed time lock.\");\r\n        require(_timelock.timeOfExecute.add(GRACE_PERIOD) >= block.timestamp, \"Transaction is stale.\");\r\n    }\r\n\r\n    function deposit(uint256 _wantAmt) external nonReentrant \r\n    {\r\n        require(_wantAmt > 0, 'INVALID_INPUT');\r\n        require(want.balanceOf(msg.sender) >= _wantAmt, 'INVALID_INPUT');\r\n\r\n        harvest(msg.sender);\r\n    \twant.transferFrom(msg.sender, address(this), _wantAmt);\r\n\r\n        uint256 platformFee = _wantAmt.mul(PLATFORM_FEE).div(1000);\r\n        want.transfer(platformFundAddress, platformFee);\r\n\r\n        uint256 _wantAmtAfterFee = _wantAmt.sub(platformFee);\r\n\r\n        shareOf[msg.sender] = shareOf[msg.sender].add(_wantAmtAfterFee);\r\n        totalShare = totalShare.add(_wantAmtAfterFee);\r\n\r\n        // Update block when user can withdraw\r\n        withdrawalAvailabilityBlock[msg.sender] = block.number.add(BLOCK_TO_UNLOCK);\r\n\r\n        miningMachine.updateUser(pidOfMining, msg.sender);\r\n        emit onDeposit(msg.sender, _wantAmt);\r\n\r\n    }\r\n    function withdraw(uint256 _wantAmt) external nonReentrant \r\n    {\r\n        require(withdrawalAvailabilityBlock[msg.sender] <= block.number, 'INVALID_BLOCK_TO_UNLOCK');\r\n        require(_wantAmt > 0, 'INVALID_INPUT');   \r\n        harvest(msg.sender);\r\n\r\n        uint256 _share = shareOf[msg.sender];\r\n        if(_wantAmt > _share) {\r\n            _wantAmt = _share;\r\n        }\r\n\r\n        uint256 _wantBal = want.balanceOf(address(this)); \r\n        if (_wantBal < _wantAmt) {\r\n            _wantAmt = _wantBal;\r\n        }\r\n\r\n        shareOf[msg.sender] = shareOf[msg.sender].sub(_wantAmt);\r\n        totalShare = totalShare.sub(_wantAmt);\r\n        \r\n        want.transfer(msg.sender, _wantAmt);\r\n        \r\n        miningMachine.updateUser(pidOfMining, msg.sender);\r\n\r\n        emit onWithdraw(msg.sender, _wantAmt);\r\n    }\r\n\r\n    function harvest(address _user) public returns(uint256 _pendingVeGRB) { \r\n        return miningMachine.harvest(pidOfMining, _user);\r\n    }\r\n\r\n    function getData(\r\n        address _user\r\n    ) \r\n    public \r\n    view\r\n    returns(\r\n        uint256 miningSpeed_,\r\n        uint256 userWantBal_, \r\n        uint256 totalMintPerDay_, \r\n        uint256 userETHBal_, \r\n        uint256 userGRBPending_, \r\n        uint256 userWantShare_,\r\n        uint256 tvl_\r\n    ) {\r\n        userWantBal_ = want.balanceOf(_user);\r\n        totalMintPerDay_ = miningMachine.getTotalMintPerDayOf(pidOfMining);\r\n\r\n        miningSpeed_ = miningMachine.getMiningSpeedOf(pidOfMining);\r\n        userETHBal_ = address(_user).balance;\r\n        (userGRBPending_, , ) = miningMachine.getUserInfo(pidOfMining, _user);\r\n        userWantShare_ = shareOf[_user];\r\n        tvl_ = totalShare;\r\n    } \r\n}",
  "sourcePath": "C:\\Users\\David\\Documents\\NetBeansProjects\\garbiprotocol.github.io\\garbi_contracts\\contracts\\GarbiStakeGRB.sol",
  "compiler": {
    "name": "solc",
    "version": "0.8.17+commit.8df45f5f.Emscripten.clang"
  },
  "schemaVersion": "3.4.11",
  "updatedAt": "2023-02-06T08:14:58.376Z",
  "networkType": "ethereum",
  "devdoc": {
    "kind": "dev",
    "methods": {
      "owner()": {
        "details": "Returns the address of the current owner."
      },
      "renounceOwnership()": {
        "details": "Leaves the contract without owner. It will not be possible to call `onlyOwner` functions anymore. Can only be called by the current owner. NOTE: Renouncing ownership will leave the contract without an owner, thereby removing any functionality that is only available to the owner."
      },
      "transferOwnership(address)": {
        "details": "Transfers ownership of the contract to a new account (`newOwner`). Can only be called by the current owner."
      }
    },
    "version": 1
  },
  "userdoc": {
    "kind": "user",
    "methods": {},
    "version": 1
  }
}