{
  "contractName": "GarbiFarmSingleBUSDBridge",
  "abi": [
    {
      "inputs": [
        {
          "internalType": "contract IGarbiMining",
          "name": "_miningMachine",
          "type": "address"
        },
        {
          "internalType": "contract IERC20",
          "name": "_busdAdress",
          "type": "address"
        },
        {
          "internalType": "uint256",
          "name": "_pidOfMining",
          "type": "uint256"
        }
      ],
      "stateMutability": "nonpayable",
      "type": "constructor"
    },
    {
      "anonymous": false,
      "inputs": [
        {
          "indexed": true,
          "internalType": "address",
          "name": "previousOwner",
          "type": "address"
        },
        {
          "indexed": true,
          "internalType": "address",
          "name": "newOwner",
          "type": "address"
        }
      ],
      "name": "OwnershipTransferred",
      "type": "event"
    },
    {
      "anonymous": false,
      "inputs": [
        {
          "indexed": false,
          "internalType": "string",
          "name": "_functionName",
          "type": "string"
        }
      ],
      "name": "onCancelTransactions",
      "type": "event"
    },
    {
      "anonymous": false,
      "inputs": [
        {
          "indexed": false,
          "internalType": "address",
          "name": "_user",
          "type": "address"
        },
        {
          "indexed": false,
          "internalType": "uint256",
          "name": "_amount",
          "type": "uint256"
        }
      ],
      "name": "onDeposit",
      "type": "event"
    },
    {
      "anonymous": false,
      "inputs": [
        {
          "indexed": false,
          "internalType": "address",
          "name": "_user",
          "type": "address"
        },
        {
          "indexed": false,
          "internalType": "uint256",
          "name": "_amount",
          "type": "uint256"
        }
      ],
      "name": "onEmergencyWithdraw",
      "type": "event"
    },
    {
      "anonymous": false,
      "inputs": [
        {
          "indexed": false,
          "internalType": "string",
          "name": "_functionName",
          "type": "string"
        },
        {
          "indexed": false,
          "internalType": "string",
          "name": "_fieldName",
          "type": "string"
        },
        {
          "indexed": false,
          "internalType": "address",
          "name": "_value",
          "type": "address"
        }
      ],
      "name": "onQueuedTransactionsChangeAddress",
      "type": "event"
    },
    {
      "anonymous": false,
      "inputs": [
        {
          "indexed": false,
          "internalType": "string",
          "name": "_functionName",
          "type": "string"
        },
        {
          "indexed": false,
          "internalType": "string",
          "name": "_fieldName",
          "type": "string"
        },
        {
          "indexed": false,
          "internalType": "uint256",
          "name": "_value",
          "type": "uint256"
        }
      ],
      "name": "onQueuedTransactionsChangeUint",
      "type": "event"
    },
    {
      "anonymous": false,
      "inputs": [
        {
          "indexed": false,
          "internalType": "address",
          "name": "_user",
          "type": "address"
        },
        {
          "indexed": false,
          "internalType": "uint256",
          "name": "_amount",
          "type": "uint256"
        }
      ],
      "name": "onWithdraw",
      "type": "event"
    },
    {
      "inputs": [],
      "name": "ERC20Bridge",
      "outputs": [
        {
          "internalType": "contract IERC20Bridge",
          "name": "",
          "type": "address"
        }
      ],
      "stateMutability": "view",
      "type": "function"
    },
    {
      "inputs": [],
      "name": "ERC20HandleBridge",
      "outputs": [
        {
          "internalType": "address",
          "name": "",
          "type": "address"
        }
      ],
      "stateMutability": "view",
      "type": "function"
    },
    {
      "inputs": [],
      "name": "GRACE_PERIOD",
      "outputs": [
        {
          "internalType": "uint256",
          "name": "",
          "type": "uint256"
        }
      ],
      "stateMutability": "view",
      "type": "function"
    },
    {
      "inputs": [],
      "name": "MAXIMUM_DELAY",
      "outputs": [
        {
          "internalType": "uint256",
          "name": "",
          "type": "uint256"
        }
      ],
      "stateMutability": "view",
      "type": "function"
    },
    {
      "inputs": [],
      "name": "MINIMUM_DELAY",
      "outputs": [
        {
          "internalType": "uint256",
          "name": "",
          "type": "uint256"
        }
      ],
      "stateMutability": "view",
      "type": "function"
    },
    {
      "inputs": [],
      "name": "PLATFORM_FEE",
      "outputs": [
        {
          "internalType": "uint256",
          "name": "",
          "type": "uint256"
        }
      ],
      "stateMutability": "view",
      "type": "function"
    },
    {
      "inputs": [
        {
          "internalType": "string",
          "name": "_functionName",
          "type": "string"
        }
      ],
      "name": "cancelTransactions",
      "outputs": [],
      "stateMutability": "nonpayable",
      "type": "function"
    },
    {
      "inputs": [],
      "name": "changeTokenAddress",
      "outputs": [],
      "stateMutability": "nonpayable",
      "type": "function"
    },
    {
      "inputs": [],
      "name": "delay",
      "outputs": [
        {
          "internalType": "uint256",
          "name": "",
          "type": "uint256"
        }
      ],
      "stateMutability": "view",
      "type": "function"
    },
    {
      "inputs": [
        {
          "internalType": "uint256",
          "name": "_wantAmt",
          "type": "uint256"
        }
      ],
      "name": "deposit",
      "outputs": [],
      "stateMutability": "nonpayable",
      "type": "function"
    },
    {
      "inputs": [],
      "name": "emergencyWithdraw",
      "outputs": [],
      "stateMutability": "nonpayable",
      "type": "function"
    },
    {
      "inputs": [
        {
          "internalType": "address",
          "name": "_user",
          "type": "address"
        }
      ],
      "name": "getData",
      "outputs": [
        {
          "internalType": "uint256",
          "name": "miningSpeed_",
          "type": "uint256"
        },
        {
          "internalType": "uint256",
          "name": "userWantBal_",
          "type": "uint256"
        },
        {
          "internalType": "uint256",
          "name": "totalMintPerDay_",
          "type": "uint256"
        },
        {
          "internalType": "uint256",
          "name": "userETHBal_",
          "type": "uint256"
        },
        {
          "internalType": "uint256",
          "name": "userGRBPending_",
          "type": "uint256"
        },
        {
          "internalType": "uint256",
          "name": "userWantShare_",
          "type": "uint256"
        },
        {
          "internalType": "uint256",
          "name": "tvl_",
          "type": "uint256"
        }
      ],
      "stateMutability": "view",
      "type": "function"
    },
    {
      "inputs": [
        {
          "internalType": "address",
          "name": "_user",
          "type": "address"
        }
      ],
      "name": "harvest",
      "outputs": [
        {
          "internalType": "uint256",
          "name": "_pendingVeGRB",
          "type": "uint256"
        }
      ],
      "stateMutability": "nonpayable",
      "type": "function"
    },
    {
      "inputs": [],
      "name": "miningMachine",
      "outputs": [
        {
          "internalType": "contract IGarbiMining",
          "name": "",
          "type": "address"
        }
      ],
      "stateMutability": "view",
      "type": "function"
    },
    {
      "inputs": [],
      "name": "owner",
      "outputs": [
        {
          "internalType": "address",
          "name": "",
          "type": "address"
        }
      ],
      "stateMutability": "view",
      "type": "function"
    },
    {
      "inputs": [],
      "name": "pidOfMining",
      "outputs": [
        {
          "internalType": "uint256",
          "name": "",
          "type": "uint256"
        }
      ],
      "stateMutability": "view",
      "type": "function"
    },
    {
      "inputs": [],
      "name": "platformFundAddress",
      "outputs": [
        {
          "internalType": "address",
          "name": "",
          "type": "address"
        }
      ],
      "stateMutability": "view",
      "type": "function"
    },
    {
      "inputs": [
        {
          "internalType": "string",
          "name": "_functionName",
          "type": "string"
        },
        {
          "internalType": "string",
          "name": "_fieldName",
          "type": "string"
        },
        {
          "internalType": "address",
          "name": "_newAddr",
          "type": "address"
        }
      ],
      "name": "queuedTransactionsChangeAddress",
      "outputs": [],
      "stateMutability": "nonpayable",
      "type": "function"
    },
    {
      "inputs": [
        {
          "internalType": "string",
          "name": "_functionName",
          "type": "string"
        },
        {
          "internalType": "string",
          "name": "_fieldName",
          "type": "string"
        },
        {
          "internalType": "uint256",
          "name": "_value",
          "type": "uint256"
        }
      ],
      "name": "queuedTransactionsChangeUint",
      "outputs": [],
      "stateMutability": "nonpayable",
      "type": "function"
    },
    {
      "inputs": [],
      "name": "renounceOwnership",
      "outputs": [],
      "stateMutability": "nonpayable",
      "type": "function"
    },
    {
      "inputs": [
        {
          "internalType": "uint256",
          "name": "delay_",
          "type": "uint256"
        }
      ],
      "name": "setDelay",
      "outputs": [],
      "stateMutability": "nonpayable",
      "type": "function"
    },
    {
      "inputs": [],
      "name": "setERC20Bridge",
      "outputs": [],
      "stateMutability": "nonpayable",
      "type": "function"
    },
    {
      "inputs": [],
      "name": "setERC20HandlerBridge",
      "outputs": [],
      "stateMutability": "nonpayable",
      "type": "function"
    },
    {
      "inputs": [],
      "name": "setMiningMachine",
      "outputs": [],
      "stateMutability": "nonpayable",
      "type": "function"
    },
    {
      "inputs": [],
      "name": "setPidOfMining",
      "outputs": [],
      "stateMutability": "nonpayable",
      "type": "function"
    },
    {
      "inputs": [
        {
          "internalType": "uint256",
          "name": "_platformFee",
          "type": "uint256"
        }
      ],
      "name": "setPlatformFee",
      "outputs": [],
      "stateMutability": "nonpayable",
      "type": "function"
    },
    {
      "inputs": [
        {
          "internalType": "address",
          "name": "newAddress",
          "type": "address"
        }
      ],
      "name": "setPlatformFundAdress",
      "outputs": [],
      "stateMutability": "nonpayable",
      "type": "function"
    },
    {
      "inputs": [
        {
          "internalType": "address",
          "name": "",
          "type": "address"
        }
      ],
      "name": "shareOf",
      "outputs": [
        {
          "internalType": "uint256",
          "name": "",
          "type": "uint256"
        }
      ],
      "stateMutability": "view",
      "type": "function"
    },
    {
      "inputs": [
        {
          "internalType": "bytes32",
          "name": "",
          "type": "bytes32"
        }
      ],
      "name": "timeLockOf",
      "outputs": [
        {
          "internalType": "bool",
          "name": "queuedTransactions",
          "type": "bool"
        },
        {
          "internalType": "uint256",
          "name": "timeOfExecute",
          "type": "uint256"
        }
      ],
      "stateMutability": "view",
      "type": "function"
    },
    {
      "inputs": [],
      "name": "totalShare",
      "outputs": [
        {
          "internalType": "uint256",
          "name": "",
          "type": "uint256"
        }
      ],
      "stateMutability": "view",
      "type": "function"
    },
    {
      "inputs": [
        {
          "internalType": "address",
          "name": "newOwner",
          "type": "address"
        }
      ],
      "name": "transferOwnership",
      "outputs": [],
      "stateMutability": "nonpayable",
      "type": "function"
    },
    {
      "inputs": [],
      "name": "version",
      "outputs": [
        {
          "internalType": "uint256",
          "name": "",
          "type": "uint256"
        }
      ],
      "stateMutability": "view",
      "type": "function"
    },
    {
      "inputs": [],
      "name": "want",
      "outputs": [
        {
          "internalType": "contract IERC20",
          "name": "",
          "type": "address"
        }
      ],
      "stateMutability": "view",
      "type": "function"
    },
    {
      "inputs": [
        {
          "internalType": "uint256",
          "name": "_wantAmt",
          "type": "uint256"
        }
      ],
      "name": "withdraw",
      "outputs": [],
      "stateMutability": "nonpayable",
      "type": "function"
    }
  ],
  "bytecode": "0x6080604052606460025560196004556000600a553480156200002057600080fd5b50604051620023c0380380620023c083398101604081905262000043916200012b565b60016000558282826200005633620000c0565b600380546001600160a01b038085166001600160a01b03199283161790925560088054928616929091169190911790556009819055620000933390565b600580546001600160a01b0319166001600160a01b03929092169190911790555062000173945050505050565b600180546001600160a01b038381166001600160a01b0319831681179093556040519116919082907f8be0079c531659141344cd1fd0a4f28419497f9722a3daafe3b4186f6b6457e090600090a35050565b6001600160a01b03811681146200012857600080fd5b50565b6000806000606084860312156200014157600080fd5b83516200014e8162000112565b6020850151909350620001618162000112565b80925050604084015190509250925092565b61223d80620001836000396000f3fe608060405234801561001057600080fd5b50600436106102065760003560e01c8063885d021c1161011a578063b6b55f25116100ad578063d6fdcf2e1161007c578063d6fdcf2e1461044c578063db2e21bc14610454578063e177246e1461045c578063f2fde38b1461046f578063f47a396f1461048257600080fd5b8063b6b55f251461041e578063bce645db14610431578063c1a287e21461038a578063d1b8a3b51461044457600080fd5b80638fe6041d116100e95780638fe6041d146103db5780639312dc5f146103ee5780639fa5e63e14610401578063b1b43ae51461041457600080fd5b8063885d021c1461039c5780638cac8f03146103af5780638da5cb5b146103c25780638ecc676f146103d357600080fd5b806332009eda1161019d5780636a42b8f81161016c5780636a42b8f8146103355780636edc28fd1461033e578063715018a6146103825780637d645fab1461038a5780637f2291471461039457600080fd5b806332009eda146102d357806334fbc9a1146102db57806338266b22146102e457806354fd4d501461032c57600080fd5b8063169c91ba116101d9578063169c91ba146102625780631f1fcd511461028d57806321e5e2c4146102a05780632e1a7d4d146102c057600080fd5b8063026c42071461020b5780630e5c011e1461022757806312e8e2c31461023a57806314ca81ed1461024f575b600080fd5b610214600a5481565b6040519081526020015b60405180910390f35b610214610235366004611dd5565b61048b565b61024d610248366004611df0565b61050d565b005b61024d61025d366004611eac565b61051a565b600654610275906001600160a01b031681565b6040516001600160a01b03909116815260200161021e565b600354610275906001600160a01b031681565b6102146102ae366004611dd5565b600b6020526000908152604090205481565b61024d6102ce366004611df0565b61061a565b61024d610946565b61021460045481565b6102f76102f2366004611dd5565b610abb565b604080519788526020880196909652948601939093526060850191909152608084015260a083015260c082015260e00161021e565b61021460025481565b610214600d5481565b61036b61034c366004611df0565b600c602052600090815260409020805460019091015460ff9091169082565b60408051921515835260208301919091520161021e565b61024d610ccb565b61021462278d0081565b61024d610cdf565b600754610275906001600160a01b031681565b61024d6103bd366004611f20565b610e62565b6001546001600160a01b0316610275565b61024d610eed565b61024d6103e9366004611dd5565b611072565b61024d6103fc366004611f5d565b61109c565b600554610275906001600160a01b031681565b6102146202a30081565b61024d61042c366004611df0565b611171565b600854610275906001600160a01b031681565b61024d6114c9565b61024d61163a565b61024d6117bd565b61024d61046a366004611df0565b6119fd565b61024d61047d366004611dd5565b611af3565b61021460095481565b600854600954604051630c7e663b60e11b815260048101919091526001600160a01b03838116602483015260009216906318fccc76906044016020604051808303816000875af11580156104e3573d6000803e3d6000fd5b505050506040513d601f19601f820116820180604052508101906105079190611fca565b92915050565b610515611b69565b600455565b610522611b69565b6000600c6000856040516020016105399190612029565b604051602081830303815290604052805190602001208152602001908152602001600020905081816002016000856040516020016105779190612029565b60408051808303601f1901815291815281516020928301208352908201929092520160002080546001600160a01b0319166001600160a01b0392909216919091179055805460ff19166001178155600d546105d3904290611bc3565b60018201556040517f1bd33efd68d2824f5f0f2519ce7c9ca0ddff6234523468e89077a0dca7b739709061060c9086908690869061203c565b60405180910390a150505050565b610622611bd6565b6000811161064b5760405162461bcd60e51b81526004016106429061207a565b60405180910390fd5b6106543361048b565b50336000908152600b6020526040902054818110156106b55760405162461bcd60e51b815260206004820152601760248201527f494e56414c49445f414d4f554e545f57495448445241570000000000000000006044820152606401610642565b336000908152600b60205260409020546106cf9083611c2f565b336000908152600b6020526040902055600a546106ec9083611c2f565b600a55600354604080516001600160a01b03909216602083015233908201526060810183905260009060800160408051601f198184030181529082905260075460065463d02d68eb60e01b84529193506001600160a01b039081169263d02d68eb9261075e92169085906004016120a1565b600060405180830381600087803b15801561077857600080fd5b505af115801561078c573d6000803e3d6000fd5b50506003546040516370a0823160e01b8152306004820152600093506001600160a01b0390911691506370a0823190602401602060405180830381865afa1580156107db573d6000803e3d6000fd5b505050506040513d601f19601f820116820180604052508101906107ff9190611fca565b90508381101561080d578093505b60035460405163a9059cbb60e01b8152336004820152602481018690526001600160a01b039091169063a9059cbb906044016020604051808303816000875af115801561085e573d6000803e3d6000fd5b505050506040513d601f19601f8201168201806040525081019061088291906120c5565b50600854600954604051638fb4e1cd60e01b815260048101919091523360248201526001600160a01b0390911690638fb4e1cd906044016020604051808303816000875af11580156108d8573d6000803e3d6000fd5b505050506040513d601f19601f820116820180604052508101906108fc91906120c5565b5060408051338152602081018690527fccad973dcd043c7d680389db4378bd6b9775db7124092e9e0422c9e46d7985dc910160405180910390a15050506109436001600055565b50565b61094e611b69565b6000600c600060405160200161098a906020808252601290820152716368616e6765546f6b656e4164647265737360701b604082015260600190565b60405160208183030381529060405280519060200120815260200190815260200160002090506109b981611c3b565b60006001600160a01b03168160020160006040516020016109d9906120e7565b60408051601f19818403018152918152815160209283012083529082019290925201600020546001600160a01b031614610ab157806002016000604051602001610a22906120e7565b60408051601f198184030181529181528151602092830120835282820193909352908201600090812054600380546001600160a01b0319166001600160a01b039092169190911790559151600284019291610a7d91016120e7565b60408051601f1981840301815291815281516020928301208352908201929092520160002080546001600160a01b03191690555b805460ff19169055565b6003546040516370a0823160e01b81526001600160a01b03838116600483015260009283928392839283928392839216906370a0823190602401602060405180830381865afa158015610b12573d6000803e3d6000fd5b505050506040513d601f19601f82011682018060405250810190610b369190611fca565b600854600954604051635e86cd9560e01b815260048101919091529197506001600160a01b031690635e86cd9590602401602060405180830381865afa158015610b84573d6000803e3d6000fd5b505050506040513d601f19601f82011682018060405250810190610ba89190611fca565b6008546009546040516324aa7cc560e11b815260048101919091529196506001600160a01b031690634954f98a90602401602060405180830381865afa158015610bf6573d6000803e3d6000fd5b505050506040513d601f19601f82011682018060405250810190610c1a9190611fca565b600854600954604051631069f3b560e01b815260048101919091526001600160a01b038b811660248301819052939a5092319650911690631069f3b590604401606060405180830381865afa158015610c77573d6000803e3d6000fd5b505050506040513d601f19601f82011682018060405250810190610c9b9190612105565b50506001600160a01b039098166000908152600b6020526040902054600a54979996989597949690949350915050565b610cd3611b69565b610cdd6000611d4f565b565b610ce7611b69565b6000600c6000604051602001610d2690602080825260159082015274736574455243323048616e646c657242726964676560581b604082015260600190565b6040516020818303038152906040528051906020012081526020019081526020016000209050610d5581611c3b565b60006001600160a01b0316816002016000604051602001610d8c90602080825260029082015261010160f51b604082015260600190565b60408051601f19818403018152918152815160209283012083529082019290925201600020546001600160a01b031603610dd85760405162461bcd60e51b815260040161064290612133565b806002016000604051602001610e1390602080825260119082015270455243323048616e646c6542726964676560781b604082015260600190565b60408051601f1981840301815291815281516020928301208352908201929092520160002054600680546001600160a01b0319166001600160a01b03909216919091179055805460ff19169055565b610e6a611b69565b6000600c600083604051602001610e819190612029565b60408051601f1981840301815291815281516020928301208352908201929092528101600020805460ff1916815590519091507fce369f91d52b663114643c430217b52530c2cc7318cac7a3e9d46241cbc354a890610ee1908490612029565b60405180910390a15050565b610ef5611b69565b6000600c6000604051602001610f2f9060208082526010908201526f7365744d696e696e674d616368696e6560801b604082015260600190565b6040516020818303038152906040528051906020012081526020019081526020016000209050610f5e81611c3b565b60006001600160a01b0316816002016000604051602001610fa0906020808252600d908201526c6d696e696e674d616368696e6560981b604082015260600190565b60408051601f19818403018152918152815160209283012083529082019290925201600020546001600160a01b031603610fec5760405162461bcd60e51b815260040161064290612133565b806002016000604051602001611023906020808252600d908201526c6d696e696e674d616368696e6560981b604082015260600190565b60408051601f1981840301815291815281516020928301208352908201929092520160002054600880546001600160a01b0319166001600160a01b03909216919091179055805460ff19169055565b61107a611b69565b600580546001600160a01b0319166001600160a01b0392909216919091179055565b6110a4611b69565b6000600c6000856040516020016110bb9190612029565b604051602081830303815290604052805190602001208152602001908152602001600020905081816003016000856040516020016110f99190612029565b60408051601f1981840301815291815281516020928301208352908201929092520160002055805460ff19166001178155600d54611138904290611bc3565b60018201556040517f860699cc7b0f3cb3d034fd31cdfe0816887a9f55d10993224d77c359c3d555519061060c9086908690869061215c565b611179611bd6565b600081116111995760405162461bcd60e51b81526004016106429061207a565b6003546040516370a0823160e01b815233600482015282916001600160a01b0316906370a0823190602401602060405180830381865afa1580156111e1573d6000803e3d6000fd5b505050506040513d601f19601f820116820180604052508101906112059190611fca565b10156112235760405162461bcd60e51b81526004016106429061207a565b61122c3361048b565b506003546040516323b872dd60e01b8152336004820152306024820152604481018390526001600160a01b03909116906323b872dd906064016020604051808303816000875af1158015611284573d6000803e3d6000fd5b505050506040513d601f19601f820116820180604052508101906112a891906120c5565b5060006112cc6103e86112c660045485611da190919063ffffffff16565b90611dad565b60035460055460405163a9059cbb60e01b81526001600160a01b03918216600482015260248101849052929350169063a9059cbb906044016020604051808303816000875af1158015611323573d6000803e3d6000fd5b505050506040513d601f19601f8201168201806040525081019061134791906120c5565b5060006113548383611c2f565b60035460065460405163a9059cbb60e01b81526001600160a01b03918216600482015260248101849052929350169063a9059cbb906044016020604051808303816000875af11580156113ab573d6000803e3d6000fd5b505050506040513d601f19601f820116820180604052508101906113cf91906120c5565b50336000908152600b60205260409020546113ea9082611bc3565b336000908152600b6020526040902055600a546114079082611bc3565b600a55600854600954604051638fb4e1cd60e01b815260048101919091523360248201526001600160a01b0390911690638fb4e1cd906044016020604051808303816000875af115801561145f573d6000803e3d6000fd5b505050506040513d601f19601f8201168201806040525081019061148391906120c5565b5060408051338152602081018590527f2bf9518c65eff7d1f3ee4106bf0dc41267ccde0924dbfa4ab476ed5c0f45da98910160405180910390a150506109436001600055565b6114d1611b69565b6000600c6000604051602001611509906020808252600e908201526d7365745069644f664d696e696e6760901b604082015260600190565b604051602081830303815290604052805190602001208152602001908152602001600020905061153881611c3b565b600081600301600060405160200161156f906020808252600b908201526a7069644f664d696e696e6760a81b604082015260600190565b60405160208183030381529060405280519060200120815260200190815260200160002054116115d25760405162461bcd60e51b815260206004820152600e60248201526d1253959053125117d05353d5539560921b6044820152606401610642565b806003016000604051602001611607906020808252600b908201526a7069644f664d696e696e6760a81b604082015260600190565b60408051601f1981840301815291815281516020928301208352908201929092520160002054600955805460ff19169055565b611642611b69565b6000600c600060405160200161168190602080825260159082015274736574455243323048616e646c657242726964676560581b604082015260600190565b60405160208183030381529060405280519060200120815260200190815260200160002090506116b081611c3b565b60006001600160a01b03168160020160006040516020016116e790602080825260029082015261010160f51b604082015260600190565b60408051601f19818403018152918152815160209283012083529082019290925201600020546001600160a01b0316036117335760405162461bcd60e51b815260040161064290612133565b80600201600060405160200161176e90602080825260119082015270455243323048616e646c6542726964676560781b604082015260600190565b60408051601f1981840301815291815281516020928301208352908201929092520160002054600780546001600160a01b0319166001600160a01b03909216919091179055805460ff19169055565b336000908152600b60205260409020548061180b5760405162461bcd60e51b815260206004820152600e60248201526d1253959053125117d05353d5539560921b6044820152606401610642565b336000908152600b6020526040812055600a546118289082611c2f565b600a55600354604080516001600160a01b03909216602083015233908201526060810182905260009060800160408051601f198184030181529082905260075460065463d02d68eb60e01b84529193506001600160a01b039081169263d02d68eb9261189a92169085906004016120a1565b600060405180830381600087803b1580156118b457600080fd5b505af11580156118c8573d6000803e3d6000fd5b50506003546040516370a0823160e01b8152306004820152600093506001600160a01b0390911691506370a0823190602401602060405180830381865afa158015611917573d6000803e3d6000fd5b505050506040513d601f19601f8201168201806040525081019061193b9190611fca565b905082811015611949578092505b60035460405163a9059cbb60e01b8152336004820152602481018590526001600160a01b039091169063a9059cbb906044016020604051808303816000875af115801561199a573d6000803e3d6000fd5b505050506040513d601f19601f820116820180604052508101906119be91906120c5565b5060408051338152602081018590527fc33863412a9dc216cbf16bc22dd0bd897cf3b59fe264e4e89db58f9b9c23d01b910160405180910390a1505050565b611a05611b69565b6202a300811015611a755760405162461bcd60e51b815260206004820152603460248201527f54696d656c6f636b3a3a73657444656c61793a2044656c6179206d75737420656044820152733c31b2b2b21036b4b734b6bab6903232b630bc9760611b6064820152608401610642565b62278d00811115611aee5760405162461bcd60e51b815260206004820152603860248201527f54696d656c6f636b3a3a73657444656c61793a2044656c6179206d757374206e60448201527f6f7420657863656564206d6178696d756d2064656c61792e00000000000000006064820152608401610642565b600d55565b611afb611b69565b6001600160a01b038116611b605760405162461bcd60e51b815260206004820152602660248201527f4f776e61626c653a206e6577206f776e657220697320746865207a65726f206160448201526564647265737360d01b6064820152608401610642565b61094381611d4f565b6001546001600160a01b03163314610cdd5760405162461bcd60e51b815260206004820181905260248201527f4f776e61626c653a2063616c6c6572206973206e6f7420746865206f776e65726044820152606401610642565b6000611bcf82846121a8565b9392505050565b600260005403611c285760405162461bcd60e51b815260206004820152601f60248201527f5265656e7472616e637947756172643a207265656e7472616e742063616c6c006044820152606401610642565b6002600055565b6000611bcf82846121bb565b805460ff161515600114611c915760405162461bcd60e51b815260206004820152601f60248201527f5472616e73616374696f6e206861736e2774206265656e207175657565642e006044820152606401610642565b4281600101541115611cf55760405162461bcd60e51b815260206004820152602760248201527f5472616e73616374696f6e206861736e2774207375727061737365642074696d60448201526632903637b1b59760c91b6064820152608401610642565b60018101544290611d099062278d00611bc3565b10156109435760405162461bcd60e51b81526020600482015260156024820152742a3930b739b0b1ba34b7b71034b99039ba30b6329760591b6044820152606401610642565b600180546001600160a01b038381166001600160a01b0319831681179093556040519116919082907f8be0079c531659141344cd1fd0a4f28419497f9722a3daafe3b4186f6b6457e090600090a35050565b6000611bcf82846121ce565b6000611bcf82846121e5565b80356001600160a01b0381168114611dd057600080fd5b919050565b600060208284031215611de757600080fd5b611bcf82611db9565b600060208284031215611e0257600080fd5b5035919050565b634e487b7160e01b600052604160045260246000fd5b600082601f830112611e3057600080fd5b813567ffffffffffffffff80821115611e4b57611e4b611e09565b604051601f8301601f19908116603f01168101908282118183101715611e7357611e73611e09565b81604052838152866020858801011115611e8c57600080fd5b836020870160208301376000602085830101528094505050505092915050565b600080600060608486031215611ec157600080fd5b833567ffffffffffffffff80821115611ed957600080fd5b611ee587838801611e1f565b94506020860135915080821115611efb57600080fd5b50611f0886828701611e1f565b925050611f1760408501611db9565b90509250925092565b600060208284031215611f3257600080fd5b813567ffffffffffffffff811115611f4957600080fd5b611f5584828501611e1f565b949350505050565b600080600060608486031215611f7257600080fd5b833567ffffffffffffffff80821115611f8a57600080fd5b611f9687838801611e1f565b94506020860135915080821115611fac57600080fd5b50611fb986828701611e1f565b925050604084013590509250925092565b600060208284031215611fdc57600080fd5b5051919050565b6000815180845260005b8181101561200957602081850181015186830182015201611fed565b506000602082860101526020601f19601f83011685010191505092915050565b602081526000611bcf6020830184611fe3565b60608152600061204f6060830186611fe3565b82810360208401526120618186611fe3565b91505060018060a01b0383166040830152949350505050565b6020808252600d908201526c1253959053125117d253941555609a1b604082015260600190565b6001600160a01b0383168152604060208201819052600090611f5590830184611fe3565b6000602082840312156120d757600080fd5b81518015158114611bcf57600080fd5b6020808252600490820152631dd85b9d60e21b604082015260600190565b60008060006060848603121561211a57600080fd5b8351925060208401519150604084015190509250925092565b6020808252600f908201526e494e56414c49445f4144445245535360881b604082015260600190565b60608152600061216f6060830186611fe3565b82810360208401526121818186611fe3565b915050826040830152949350505050565b634e487b7160e01b600052601160045260246000fd5b8082018082111561050757610507612192565b8181038181111561050757610507612192565b808202811582820484141761050757610507612192565b60008261220257634e487b7160e01b600052601260045260246000fd5b50049056fea2646970667358221220b92909564070534847bd2ccc45b6c774e6b28d6236ac80e5c47a75c3d6eb02d664736f6c63430008110033",
  "immutableReferences": {},
  "source": "// SPDX-License-Identifier: MIT\npragma solidity >=0.6.12;\n\nimport \"./GarbiFarmSingleERC20Bridge.sol\";\n\ncontract GarbiFarmSingleBUSDBridge is GarbiFarmSingleERC20Bridge\n{\n    constructor(\n        IGarbiMining _miningMachine,\n        IERC20 _busdAdress,\n        uint256 _pidOfMining) \n        GarbiFarmSingleERC20Bridge(\n            _miningMachine, \n            _busdAdress,\n            _pidOfMining){}\n}",
  "sourcePath": "/Applications/projects/garbiprotocol.github.io/garbi_contracts/contracts/GarbiFarmSingleBUSDBridge.sol",
  "compiler": {
    "name": "solc",
    "version": "0.8.17+commit.8df45f5f.Emscripten.clang"
  },
  "schemaVersion": "3.4.11",
  "updatedAt": "2023-06-16T08:42:15.070Z",
  "devdoc": {
    "kind": "dev",
    "methods": {
      "owner()": {
        "details": "Returns the address of the current owner."
      },
      "renounceOwnership()": {
        "details": "Leaves the contract without owner. It will not be possible to call `onlyOwner` functions. Can only be called by the current owner. NOTE: Renouncing ownership will leave the contract without an owner, thereby disabling any functionality that is only available to the owner."
      },
      "transferOwnership(address)": {
        "details": "Transfers ownership of the contract to a new account (`newOwner`). Can only be called by the current owner."
      }
    },
    "version": 1
  },
  "userdoc": {
    "kind": "user",
    "methods": {},
    "version": 1
  }
}