{
  "contractName": "GarbiFarmSingleWETHBridge",
  "abi": [
    {
      "inputs": [
        {
          "internalType": "contract IGarbiMining",
          "name": "_miningMachine",
          "type": "address"
        },
        {
          "internalType": "contract IETHHandleBridge",
          "name": "_ETHHandlerBridge",
          "type": "address"
        },
        {
          "internalType": "contract IWETH",
          "name": "_want",
          "type": "address"
        },
        {
          "internalType": "uint256",
          "name": "_pidOfMining",
          "type": "uint256"
        }
      ],
      "stateMutability": "nonpayable",
      "type": "constructor"
    },
    {
      "anonymous": false,
      "inputs": [
        {
          "indexed": true,
          "internalType": "address",
          "name": "previousOwner",
          "type": "address"
        },
        {
          "indexed": true,
          "internalType": "address",
          "name": "newOwner",
          "type": "address"
        }
      ],
      "name": "OwnershipTransferred",
      "type": "event"
    },
    {
      "anonymous": false,
      "inputs": [
        {
          "indexed": false,
          "internalType": "string",
          "name": "_functionName",
          "type": "string"
        }
      ],
      "name": "onCancelTransactions",
      "type": "event"
    },
    {
      "anonymous": false,
      "inputs": [
        {
          "indexed": false,
          "internalType": "address",
          "name": "_user",
          "type": "address"
        },
        {
          "indexed": false,
          "internalType": "uint256",
          "name": "_amount",
          "type": "uint256"
        }
      ],
      "name": "onDeposit",
      "type": "event"
    },
    {
      "anonymous": false,
      "inputs": [
        {
          "indexed": false,
          "internalType": "address",
          "name": "_user",
          "type": "address"
        },
        {
          "indexed": false,
          "internalType": "uint256",
          "name": "_amount",
          "type": "uint256"
        }
      ],
      "name": "onEmergencyWithdraw",
      "type": "event"
    },
    {
      "anonymous": false,
      "inputs": [
        {
          "indexed": false,
          "internalType": "string",
          "name": "_functionName",
          "type": "string"
        },
        {
          "indexed": false,
          "internalType": "string",
          "name": "_fieldName",
          "type": "string"
        },
        {
          "indexed": false,
          "internalType": "address",
          "name": "_value",
          "type": "address"
        }
      ],
      "name": "onQueuedTransactionsChangeAddress",
      "type": "event"
    },
    {
      "anonymous": false,
      "inputs": [
        {
          "indexed": false,
          "internalType": "string",
          "name": "_functionName",
          "type": "string"
        },
        {
          "indexed": false,
          "internalType": "string",
          "name": "_fieldName",
          "type": "string"
        },
        {
          "indexed": false,
          "internalType": "uint256",
          "name": "_value",
          "type": "uint256"
        }
      ],
      "name": "onQueuedTransactionsChangeUint",
      "type": "event"
    },
    {
      "anonymous": false,
      "inputs": [
        {
          "indexed": false,
          "internalType": "address",
          "name": "_user",
          "type": "address"
        },
        {
          "indexed": false,
          "internalType": "uint256",
          "name": "_amount",
          "type": "uint256"
        }
      ],
      "name": "onWithdraw",
      "type": "event"
    },
    {
      "inputs": [],
      "name": "ETHHandlerBridge",
      "outputs": [
        {
          "internalType": "contract IETHHandleBridge",
          "name": "",
          "type": "address"
        }
      ],
      "stateMutability": "view",
      "type": "function",
      "constant": true
    },
    {
      "inputs": [],
      "name": "GRACE_PERIOD",
      "outputs": [
        {
          "internalType": "uint256",
          "name": "",
          "type": "uint256"
        }
      ],
      "stateMutability": "view",
      "type": "function",
      "constant": true
    },
    {
      "inputs": [],
      "name": "MAXIMUM_DELAY",
      "outputs": [
        {
          "internalType": "uint256",
          "name": "",
          "type": "uint256"
        }
      ],
      "stateMutability": "view",
      "type": "function",
      "constant": true
    },
    {
      "inputs": [],
      "name": "MINIMUM_DELAY",
      "outputs": [
        {
          "internalType": "uint256",
          "name": "",
          "type": "uint256"
        }
      ],
      "stateMutability": "view",
      "type": "function",
      "constant": true
    },
    {
      "inputs": [],
      "name": "PLATFORM_FEE",
      "outputs": [
        {
          "internalType": "uint256",
          "name": "",
          "type": "uint256"
        }
      ],
      "stateMutability": "view",
      "type": "function",
      "constant": true
    },
    {
      "inputs": [],
      "name": "delay",
      "outputs": [
        {
          "internalType": "uint256",
          "name": "",
          "type": "uint256"
        }
      ],
      "stateMutability": "view",
      "type": "function",
      "constant": true
    },
    {
      "inputs": [],
      "name": "miningMachine",
      "outputs": [
        {
          "internalType": "contract IGarbiMining",
          "name": "",
          "type": "address"
        }
      ],
      "stateMutability": "view",
      "type": "function",
      "constant": true
    },
    {
      "inputs": [],
      "name": "owner",
      "outputs": [
        {
          "internalType": "address",
          "name": "",
          "type": "address"
        }
      ],
      "stateMutability": "view",
      "type": "function",
      "constant": true
    },
    {
      "inputs": [],
      "name": "pidOfMining",
      "outputs": [
        {
          "internalType": "uint256",
          "name": "",
          "type": "uint256"
        }
      ],
      "stateMutability": "view",
      "type": "function",
      "constant": true
    },
    {
      "inputs": [],
      "name": "platformFundAddress",
      "outputs": [
        {
          "internalType": "address",
          "name": "",
          "type": "address"
        }
      ],
      "stateMutability": "view",
      "type": "function",
      "constant": true
    },
    {
      "inputs": [],
      "name": "renounceOwnership",
      "outputs": [],
      "stateMutability": "nonpayable",
      "type": "function"
    },
    {
      "inputs": [
        {
          "internalType": "address",
          "name": "",
          "type": "address"
        }
      ],
      "name": "shareOf",
      "outputs": [
        {
          "internalType": "uint256",
          "name": "",
          "type": "uint256"
        }
      ],
      "stateMutability": "view",
      "type": "function",
      "constant": true
    },
    {
      "inputs": [
        {
          "internalType": "bytes32",
          "name": "",
          "type": "bytes32"
        }
      ],
      "name": "timeLockOf",
      "outputs": [
        {
          "internalType": "bool",
          "name": "queuedTransactions",
          "type": "bool"
        },
        {
          "internalType": "uint256",
          "name": "timeOfExecute",
          "type": "uint256"
        }
      ],
      "stateMutability": "view",
      "type": "function",
      "constant": true
    },
    {
      "inputs": [],
      "name": "totalShare",
      "outputs": [
        {
          "internalType": "uint256",
          "name": "",
          "type": "uint256"
        }
      ],
      "stateMutability": "view",
      "type": "function",
      "constant": true
    },
    {
      "inputs": [
        {
          "internalType": "address",
          "name": "newOwner",
          "type": "address"
        }
      ],
      "name": "transferOwnership",
      "outputs": [],
      "stateMutability": "nonpayable",
      "type": "function"
    },
    {
      "inputs": [],
      "name": "version",
      "outputs": [
        {
          "internalType": "uint256",
          "name": "",
          "type": "uint256"
        }
      ],
      "stateMutability": "view",
      "type": "function",
      "constant": true
    },
    {
      "inputs": [],
      "name": "want",
      "outputs": [
        {
          "internalType": "contract IWETH",
          "name": "",
          "type": "address"
        }
      ],
      "stateMutability": "view",
      "type": "function",
      "constant": true
    },
    {
      "stateMutability": "payable",
      "type": "receive",
      "payable": true
    },
    {
      "inputs": [
        {
          "internalType": "uint256",
          "name": "delay_",
          "type": "uint256"
        }
      ],
      "name": "setDelay",
      "outputs": [],
      "stateMutability": "nonpayable",
      "type": "function"
    },
    {
      "inputs": [
        {
          "internalType": "string",
          "name": "_functionName",
          "type": "string"
        }
      ],
      "name": "cancelTransactions",
      "outputs": [],
      "stateMutability": "nonpayable",
      "type": "function"
    },
    {
      "inputs": [
        {
          "internalType": "string",
          "name": "_functionName",
          "type": "string"
        },
        {
          "internalType": "string",
          "name": "_fieldName",
          "type": "string"
        },
        {
          "internalType": "address",
          "name": "_newAddr",
          "type": "address"
        }
      ],
      "name": "queuedTransactionsChangeAddress",
      "outputs": [],
      "stateMutability": "nonpayable",
      "type": "function"
    },
    {
      "inputs": [
        {
          "internalType": "string",
          "name": "_functionName",
          "type": "string"
        },
        {
          "internalType": "string",
          "name": "_fieldName",
          "type": "string"
        },
        {
          "internalType": "uint256",
          "name": "_value",
          "type": "uint256"
        }
      ],
      "name": "queuedTransactionsChangeUint",
      "outputs": [],
      "stateMutability": "nonpayable",
      "type": "function"
    },
    {
      "inputs": [],
      "name": "setMiningMachine",
      "outputs": [],
      "stateMutability": "nonpayable",
      "type": "function"
    },
    {
      "inputs": [],
      "name": "setETHHandlerBridge",
      "outputs": [],
      "stateMutability": "nonpayable",
      "type": "function"
    },
    {
      "inputs": [
        {
          "internalType": "uint256",
          "name": "_platformFee",
          "type": "uint256"
        }
      ],
      "name": "setPlatformFee",
      "outputs": [],
      "stateMutability": "nonpayable",
      "type": "function"
    },
    {
      "inputs": [
        {
          "internalType": "address",
          "name": "newAddress",
          "type": "address"
        }
      ],
      "name": "setPlatformFundAdress",
      "outputs": [],
      "stateMutability": "nonpayable",
      "type": "function"
    },
    {
      "inputs": [],
      "name": "changeTokenAddress",
      "outputs": [],
      "stateMutability": "nonpayable",
      "type": "function"
    },
    {
      "inputs": [],
      "name": "setPidOfMining",
      "outputs": [],
      "stateMutability": "nonpayable",
      "type": "function"
    },
    {
      "inputs": [
        {
          "internalType": "uint256",
          "name": "_wantAmt",
          "type": "uint256"
        }
      ],
      "name": "deposit",
      "outputs": [],
      "stateMutability": "nonpayable",
      "type": "function"
    },
    {
      "inputs": [
        {
          "internalType": "uint256",
          "name": "_wantAmt",
          "type": "uint256"
        }
      ],
      "name": "withdraw",
      "outputs": [],
      "stateMutability": "nonpayable",
      "type": "function"
    },
    {
      "inputs": [],
      "name": "emergencyWithdraw",
      "outputs": [],
      "stateMutability": "nonpayable",
      "type": "function"
    },
    {
      "inputs": [
        {
          "internalType": "address",
          "name": "_user",
          "type": "address"
        }
      ],
      "name": "harvest",
      "outputs": [
        {
          "internalType": "uint256",
          "name": "_pendingVeGRB",
          "type": "uint256"
        }
      ],
      "stateMutability": "nonpayable",
      "type": "function"
    },
    {
      "inputs": [
        {
          "internalType": "address",
          "name": "_user",
          "type": "address"
        }
      ],
      "name": "getData",
      "outputs": [
        {
          "internalType": "uint256",
          "name": "miningSpeed_",
          "type": "uint256"
        },
        {
          "internalType": "uint256",
          "name": "userWantBal_",
          "type": "uint256"
        },
        {
          "internalType": "uint256",
          "name": "totalMintPerDay_",
          "type": "uint256"
        },
        {
          "internalType": "uint256",
          "name": "userETHBal_",
          "type": "uint256"
        },
        {
          "internalType": "uint256",
          "name": "userGRBPending_",
          "type": "uint256"
        },
        {
          "internalType": "uint256",
          "name": "userWantShare_",
          "type": "uint256"
        },
        {
          "internalType": "uint256",
          "name": "tvl_",
          "type": "uint256"
        }
      ],
      "stateMutability": "view",
      "type": "function",
      "constant": true
    }
  ],
  "bytecode": "0x60806040526064600255601960045560006009553480156200002057600080fd5b50604051620023dd380380620023dd833981016040819052620000439162000133565b60016000556200005333620000c8565b600680546001600160a01b038086166001600160a01b03199283161790925560038054858416908316179055600780549287169290911691909117905560088190556200009d3390565b600580546001600160a01b0319166001600160a01b0392909216919091179055506200018d92505050565b600180546001600160a01b038381166001600160a01b0319831681179093556040519116919082907f8be0079c531659141344cd1fd0a4f28419497f9722a3daafe3b4186f6b6457e090600090a35050565b6001600160a01b03811681146200013057600080fd5b50565b600080600080608085870312156200014a57600080fd5b845162000157816200011a565b60208601519094506200016a816200011a565b60408601519093506200017d816200011a565b6060959095015193969295505050565b612240806200019d6000396000f3fe6080604052600436106101e75760003560e01c80638d9eb2ca11610102578063b6b55f2511610095578063db2e21bc11610064578063db2e21bc14610580578063e177246e14610595578063f2fde38b146105b5578063f47a396f146105d557600080fd5b8063b6b55f251461052b578063bce645db1461054b578063c1a287e214610415578063d1b8a3b51461056b57600080fd5b80639312dc5f116100d15780639312dc5f146104b45780639c006983146104d45780639fa5e63e146104f4578063b1b43ae51461051457600080fd5b80638d9eb2ca1461044c5780638da5cb5b146104615780638ecc676f1461047f5780638fe6041d1461049457600080fd5b806334fbc9a11161017a5780636edc28fd116101495780636edc28fd146103af578063715018a6146104005780637d645fab146104155780638cac8f031461042c57600080fd5b806334fbc9a11461031857806338266b221461032e57806354fd4d50146103835780636a42b8f81461039957600080fd5b80631f1fcd51116101b65780631f1fcd511461027e57806321e5e2c4146102b65780632e1a7d4d146102e357806332009eda1461030357600080fd5b8063026c4207146101f35780630e5c011e1461021c57806312e8e2c31461023c57806314ca81ed1461025e57600080fd5b366101ee57005b600080fd5b3480156101ff57600080fd5b5061020960095481565b6040519081526020015b60405180910390f35b34801561022857600080fd5b50610209610237366004611e25565b6105eb565b34801561024857600080fd5b5061025c610257366004611e40565b61066d565b005b34801561026a57600080fd5b5061025c610279366004611efc565b61067a565b34801561028a57600080fd5b5060035461029e906001600160a01b031681565b6040516001600160a01b039091168152602001610213565b3480156102c257600080fd5b506102096102d1366004611e25565b600a6020526000908152604090205481565b3480156102ef57600080fd5b5061025c6102fe366004611e40565b61077a565b34801561030f57600080fd5b5061025c610acc565b34801561032457600080fd5b5061020960045481565b34801561033a57600080fd5b5061034e610349366004611e25565b610c41565b604080519788526020880196909652948601939093526060850191909152608084015260a083015260c082015260e001610213565b34801561038f57600080fd5b5061020960025481565b3480156103a557600080fd5b50610209600c5481565b3480156103bb57600080fd5b506103e96103ca366004611e40565b600b602052600090815260409020805460019091015460ff9091169082565b604080519215158352602083019190915201610213565b34801561040c57600080fd5b5061025c610e51565b34801561042157600080fd5b5061020962278d0081565b34801561043857600080fd5b5061025c610447366004611f70565b610e65565b34801561045857600080fd5b5061025c610ef0565b34801561046d57600080fd5b506001546001600160a01b031661029e565b34801561048b57600080fd5b5061025c6110a0565b3480156104a057600080fd5b5061025c6104af366004611e25565b611247565b3480156104c057600080fd5b5061025c6104cf366004611fad565b611271565b3480156104e057600080fd5b5060065461029e906001600160a01b031681565b34801561050057600080fd5b5060055461029e906001600160a01b031681565b34801561052057600080fd5b506102096202a30081565b34801561053757600080fd5b5061025c610546366004611e40565b611346565b34801561055757600080fd5b5060075461029e906001600160a01b031681565b34801561057757600080fd5b5061025c61167e565b34801561058c57600080fd5b5061025c6117ef565b3480156105a157600080fd5b5061025c6105b0366004611e40565b611a4d565b3480156105c157600080fd5b5061025c6105d0366004611e25565b611b43565b3480156105e157600080fd5b5061020960085481565b600754600854604051630c7e663b60e11b815260048101919091526001600160a01b03838116602483015260009216906318fccc76906044016020604051808303816000875af1158015610643573d6000803e3d6000fd5b505050506040513d601f19601f82011682018060405250810190610667919061201a565b92915050565b610675611bb9565b600455565b610682611bb9565b6000600b6000856040516020016106999190612079565b604051602081830303815290604052805190602001208152602001908152602001600020905081816002016000856040516020016106d79190612079565b60408051808303601f1901815291815281516020928301208352908201929092520160002080546001600160a01b0319166001600160a01b0392909216919091179055805460ff19166001178155600c54610733904290611c13565b60018201556040517f1bd33efd68d2824f5f0f2519ce7c9ca0ddff6234523468e89077a0dca7b739709061076c9086908690869061208c565b60405180910390a150505050565b610782611c26565b600081116107ab5760405162461bcd60e51b81526004016107a2906120ca565b60405180910390fd5b6107b4336105eb565b50336000908152600a6020526040902054818110156108155760405162461bcd60e51b815260206004820152601760248201527f494e56414c49445f414d4f554e545f574954484452415700000000000000000060448201526064016107a2565b336000908152600a602052604090205461082f9083611c7f565b336000908152600a602052604090205560095461084c9083611c7f565b600955600654604051632e1a7d4d60e01b8152600481018490526001600160a01b0390911690632e1a7d4d90602401600060405180830381600087803b15801561089557600080fd5b505af11580156108a9573d6000803e3d6000fd5b50505050600360009054906101000a90046001600160a01b03166001600160a01b031663d0e30db0836040518263ffffffff1660e01b81526004016000604051808303818588803b1580156108fd57600080fd5b505af1158015610911573d6000803e3d6000fd5b50506003546040516370a0823160e01b8152306004820152600094506001600160a01b0390911692506370a082319150602401602060405180830381865afa158015610961573d6000803e3d6000fd5b505050506040513d601f19601f82011682018060405250810190610985919061201a565b905082811015610993578092505b60035460405163a9059cbb60e01b8152336004820152602481018590526001600160a01b039091169063a9059cbb906044016020604051808303816000875af11580156109e4573d6000803e3d6000fd5b505050506040513d601f19601f82011682018060405250810190610a0891906120f1565b50600754600854604051638fb4e1cd60e01b815260048101919091523360248201526001600160a01b0390911690638fb4e1cd906044016020604051808303816000875af1158015610a5e573d6000803e3d6000fd5b505050506040513d601f19601f82011682018060405250810190610a8291906120f1565b5060408051338152602081018590527fccad973dcd043c7d680389db4378bd6b9775db7124092e9e0422c9e46d7985dc91015b60405180910390a15050610ac96001600055565b50565b610ad4611bb9565b6000600b6000604051602001610b10906020808252601290820152716368616e6765546f6b656e4164647265737360701b604082015260600190565b6040516020818303038152906040528051906020012081526020019081526020016000209050610b3f81611c8b565b60006001600160a01b0316816002016000604051602001610b5f90612113565b60408051601f19818403018152918152815160209283012083529082019290925201600020546001600160a01b031614610c3757806002016000604051602001610ba890612113565b60408051601f198184030181529181528151602092830120835282820193909352908201600090812054600380546001600160a01b0319166001600160a01b039092169190911790559151600284019291610c039101612113565b60408051601f1981840301815291815281516020928301208352908201929092520160002080546001600160a01b03191690555b805460ff19169055565b6003546040516370a0823160e01b81526001600160a01b03838116600483015260009283928392839283928392839216906370a0823190602401602060405180830381865afa158015610c98573d6000803e3d6000fd5b505050506040513d601f19601f82011682018060405250810190610cbc919061201a565b600754600854604051635e86cd9560e01b815260048101919091529197506001600160a01b031690635e86cd9590602401602060405180830381865afa158015610d0a573d6000803e3d6000fd5b505050506040513d601f19601f82011682018060405250810190610d2e919061201a565b6007546008546040516324aa7cc560e11b815260048101919091529196506001600160a01b031690634954f98a90602401602060405180830381865afa158015610d7c573d6000803e3d6000fd5b505050506040513d601f19601f82011682018060405250810190610da0919061201a565b600754600854604051631069f3b560e01b815260048101919091526001600160a01b038b811660248301819052939a5092319650911690631069f3b590604401606060405180830381865afa158015610dfd573d6000803e3d6000fd5b505050506040513d601f19601f82011682018060405250810190610e219190612131565b50506001600160a01b039098166000908152600a6020526040902054600954979996989597949690949350915050565b610e59611bb9565b610e636000611d9f565b565b610e6d611bb9565b6000600b600083604051602001610e849190612079565b60408051601f1981840301815291815281516020928301208352908201929092528101600020805460ff1916815590519091507fce369f91d52b663114643c430217b52530c2cc7318cac7a3e9d46241cbc354a890610ee4908490612079565b60405180910390a15050565b610ef8611bb9565b6000600b6000604051602001610f359060208082526013908201527273657445544848616e646c657242726964676560681b604082015260600190565b6040516020818303038152906040528051906020012081526020019081526020016000209050610f6481611c8b565b60006001600160a01b0316816002016000604051602001610fa99060208082526010908201526f45544848616e646c657242726964676560801b604082015260600190565b60408051601f19818403018152918152815160209283012083529082019290925201600020546001600160a01b0316036110175760405162461bcd60e51b815260206004820152600f60248201526e494e56414c49445f4144445245535360881b60448201526064016107a2565b8060020160006040516020016110519060208082526010908201526f45544848616e646c657242726964676560801b604082015260600190565b60408051601f1981840301815291815281516020928301208352908201929092520160002054600680546001600160a01b0319166001600160a01b03909216919091179055805460ff19169055565b6110a8611bb9565b6000600b60006040516020016110e29060208082526010908201526f7365744d696e696e674d616368696e6560801b604082015260600190565b604051602081830303815290604052805190602001208152602001908152602001600020905061111181611c8b565b60006001600160a01b0316816002016000604051602001611153906020808252600d908201526c6d696e696e674d616368696e6560981b604082015260600190565b60408051601f19818403018152918152815160209283012083529082019290925201600020546001600160a01b0316036111c15760405162461bcd60e51b815260206004820152600f60248201526e494e56414c49445f4144445245535360881b60448201526064016107a2565b8060020160006040516020016111f8906020808252600d908201526c6d696e696e674d616368696e6560981b604082015260600190565b60408051601f1981840301815291815281516020928301208352908201929092520160002054600780546001600160a01b0319166001600160a01b03909216919091179055805460ff19169055565b61124f611bb9565b600580546001600160a01b0319166001600160a01b0392909216919091179055565b611279611bb9565b6000600b6000856040516020016112909190612079565b604051602081830303815290604052805190602001208152602001908152602001600020905081816003016000856040516020016112ce9190612079565b60408051601f1981840301815291815281516020928301208352908201929092520160002055805460ff19166001178155600c5461130d904290611c13565b60018201556040517f860699cc7b0f3cb3d034fd31cdfe0816887a9f55d10993224d77c359c3d555519061076c9086908690869061215f565b61134e611c26565b6000811161136e5760405162461bcd60e51b81526004016107a2906120ca565b6003546040516370a0823160e01b815233600482015282916001600160a01b0316906370a0823190602401602060405180830381865afa1580156113b6573d6000803e3d6000fd5b505050506040513d601f19601f820116820180604052508101906113da919061201a565b10156113f85760405162461bcd60e51b81526004016107a2906120ca565b611401336105eb565b506003546040516323b872dd60e01b8152336004820152306024820152604481018390526001600160a01b03909116906323b872dd906064016020604051808303816000875af1158015611459573d6000803e3d6000fd5b505050506040513d601f19601f8201168201806040525081019061147d91906120f1565b5060006114a16103e861149b60045485611df190919063ffffffff16565b90611dfd565b60035460055460405163a9059cbb60e01b81526001600160a01b03918216600482015260248101849052929350169063a9059cbb906044016020604051808303816000875af11580156114f8573d6000803e3d6000fd5b505050506040513d601f19601f8201168201806040525081019061151c91906120f1565b5060006115298383611c7f565b60035460065460405163040b850f60e31b81526001600160a01b03918216600482015260248101849052929350169063205c287890604401600060405180830381600087803b15801561157b57600080fd5b505af115801561158f573d6000803e3d6000fd5b5050336000908152600a60205260409020546115ae9250905082611c13565b336000908152600a60205260409020556009546115cb9082611c13565b600955600754600854604051638fb4e1cd60e01b815260048101919091523360248201526001600160a01b0390911690638fb4e1cd906044016020604051808303816000875af1158015611623573d6000803e3d6000fd5b505050506040513d601f19601f8201168201806040525081019061164791906120f1565b5060408051338152602081018590527f2bf9518c65eff7d1f3ee4106bf0dc41267ccde0924dbfa4ab476ed5c0f45da989101610ab5565b611686611bb9565b6000600b60006040516020016116be906020808252600e908201526d7365745069644f664d696e696e6760901b604082015260600190565b60405160208183030381529060405280519060200120815260200190815260200160002090506116ed81611c8b565b6000816003016000604051602001611724906020808252600b908201526a7069644f664d696e696e6760a81b604082015260600190565b60405160208183030381529060405280519060200120815260200190815260200160002054116117875760405162461bcd60e51b815260206004820152600e60248201526d1253959053125117d05353d5539560921b60448201526064016107a2565b8060030160006040516020016117bc906020808252600b908201526a7069644f664d696e696e6760a81b604082015260600190565b60408051601f1981840301815291815281516020928301208352908201929092520160002054600855805460ff19169055565b336000908152600a60205260409020548061183d5760405162461bcd60e51b815260206004820152600e60248201526d1253959053125117d05353d5539560921b60448201526064016107a2565b336000908152600a602052604081205560095461185a9082611c7f565b600955600654604051632e1a7d4d60e01b8152600481018390526001600160a01b0390911690632e1a7d4d90602401600060405180830381600087803b1580156118a357600080fd5b505af11580156118b7573d6000803e3d6000fd5b50505050600360009054906101000a90046001600160a01b03166001600160a01b031663d0e30db0826040518263ffffffff1660e01b81526004016000604051808303818588803b15801561190b57600080fd5b505af115801561191f573d6000803e3d6000fd5b50506003546040516370a0823160e01b8152306004820152600094506001600160a01b0390911692506370a082319150602401602060405180830381865afa15801561196f573d6000803e3d6000fd5b505050506040513d601f19601f82011682018060405250810190611993919061201a565b9050818110156119a1578091505b60035460405163a9059cbb60e01b8152336004820152602481018490526001600160a01b039091169063a9059cbb906044016020604051808303816000875af11580156119f2573d6000803e3d6000fd5b505050506040513d601f19601f82011682018060405250810190611a1691906120f1565b5060408051338152602081018490527fc33863412a9dc216cbf16bc22dd0bd897cf3b59fe264e4e89db58f9b9c23d01b9101610ee4565b611a55611bb9565b6202a300811015611ac55760405162461bcd60e51b815260206004820152603460248201527f54696d656c6f636b3a3a73657444656c61793a2044656c6179206d75737420656044820152733c31b2b2b21036b4b734b6bab6903232b630bc9760611b60648201526084016107a2565b62278d00811115611b3e5760405162461bcd60e51b815260206004820152603860248201527f54696d656c6f636b3a3a73657444656c61793a2044656c6179206d757374206e60448201527f6f7420657863656564206d6178696d756d2064656c61792e000000000000000060648201526084016107a2565b600c55565b611b4b611bb9565b6001600160a01b038116611bb05760405162461bcd60e51b815260206004820152602660248201527f4f776e61626c653a206e6577206f776e657220697320746865207a65726f206160448201526564647265737360d01b60648201526084016107a2565b610ac981611d9f565b6001546001600160a01b03163314610e635760405162461bcd60e51b815260206004820181905260248201527f4f776e61626c653a2063616c6c6572206973206e6f7420746865206f776e657260448201526064016107a2565b6000611c1f82846121ab565b9392505050565b600260005403611c785760405162461bcd60e51b815260206004820152601f60248201527f5265656e7472616e637947756172643a207265656e7472616e742063616c6c0060448201526064016107a2565b6002600055565b6000611c1f82846121be565b805460ff161515600114611ce15760405162461bcd60e51b815260206004820152601f60248201527f5472616e73616374696f6e206861736e2774206265656e207175657565642e0060448201526064016107a2565b4281600101541115611d455760405162461bcd60e51b815260206004820152602760248201527f5472616e73616374696f6e206861736e2774207375727061737365642074696d60448201526632903637b1b59760c91b60648201526084016107a2565b60018101544290611d599062278d00611c13565b1015610ac95760405162461bcd60e51b81526020600482015260156024820152742a3930b739b0b1ba34b7b71034b99039ba30b6329760591b60448201526064016107a2565b600180546001600160a01b038381166001600160a01b0319831681179093556040519116919082907f8be0079c531659141344cd1fd0a4f28419497f9722a3daafe3b4186f6b6457e090600090a35050565b6000611c1f82846121d1565b6000611c1f82846121e8565b80356001600160a01b0381168114611e2057600080fd5b919050565b600060208284031215611e3757600080fd5b611c1f82611e09565b600060208284031215611e5257600080fd5b5035919050565b634e487b7160e01b600052604160045260246000fd5b600082601f830112611e8057600080fd5b813567ffffffffffffffff80821115611e9b57611e9b611e59565b604051601f8301601f19908116603f01168101908282118183101715611ec357611ec3611e59565b81604052838152866020858801011115611edc57600080fd5b836020870160208301376000602085830101528094505050505092915050565b600080600060608486031215611f1157600080fd5b833567ffffffffffffffff80821115611f2957600080fd5b611f3587838801611e6f565b94506020860135915080821115611f4b57600080fd5b50611f5886828701611e6f565b925050611f6760408501611e09565b90509250925092565b600060208284031215611f8257600080fd5b813567ffffffffffffffff811115611f9957600080fd5b611fa584828501611e6f565b949350505050565b600080600060608486031215611fc257600080fd5b833567ffffffffffffffff80821115611fda57600080fd5b611fe687838801611e6f565b94506020860135915080821115611ffc57600080fd5b5061200986828701611e6f565b925050604084013590509250925092565b60006020828403121561202c57600080fd5b5051919050565b6000815180845260005b818110156120595760208185018101518683018201520161203d565b506000602082860101526020601f19601f83011685010191505092915050565b602081526000611c1f6020830184612033565b60608152600061209f6060830186612033565b82810360208401526120b18186612033565b91505060018060a01b0383166040830152949350505050565b6020808252600d908201526c1253959053125117d253941555609a1b604082015260600190565b60006020828403121561210357600080fd5b81518015158114611c1f57600080fd5b6020808252600490820152631dd85b9d60e21b604082015260600190565b60008060006060848603121561214657600080fd5b8351925060208401519150604084015190509250925092565b6060815260006121726060830186612033565b82810360208401526121848186612033565b915050826040830152949350505050565b634e487b7160e01b600052601160045260246000fd5b8082018082111561066757610667612195565b8181038181111561066757610667612195565b808202811582820484141761066757610667612195565b60008261220557634e487b7160e01b600052601260045260246000fd5b50049056fea26469706673582212208d9d6428088a57604d78228632c54fc34237ed6d7e884335747b8a78818e570764736f6c63430008110033",
  "immutableReferences": {},
  "source": "// SPDX-License-Identifier: MIT\npragma solidity >=0.6.12;\n\nimport \"@openzeppelin/contracts/utils/math/SafeMath.sol\";\nimport \"@openzeppelin/contracts/access/Ownable.sol\";\nimport \"@openzeppelin/contracts/token/ERC20/IERC20.sol\";\nimport \"@openzeppelin/contracts/security/ReentrancyGuard.sol\";\n\nimport './interfaces/IGarbiMining.sol';\nimport './interfaces/IWETH.sol';\nimport './interfaces/IETHHandleBridge.sol';\n\ncontract GarbiFarmSingleWETHBridge is ReentrancyGuard, Ownable {\n\n    using SafeMath for uint256;\n    uint256 public version = 100;\n    \n    IWETH public want; // WETH\n    \n    uint256 public PLATFORM_FEE = 25; //2.5% 25/1000\n\n    address public platformFundAddress;\n\n    IETHHandleBridge public ETHHandlerBridge;\n    IGarbiMining public miningMachine;\n\n    uint256 public pidOfMining;\n    uint256 public totalShare = 0;\n    mapping(address => uint256) public shareOf;\n\n    mapping(bytes32 => TimeLock) public timeLockOf;\n\n    uint public constant GRACE_PERIOD = 30 days;\n    uint public constant MINIMUM_DELAY = 2 days;\n    uint public constant MAXIMUM_DELAY = 30 days;\n    uint public delay;\n\n    struct TimeLock {\n        bool queuedTransactions;\n        uint256 timeOfExecute;\n        mapping(bytes32 => address) addressOf;\n        mapping(bytes32 => uint256) uintOf;\n    }\n\n    event onDeposit(address _user, uint256 _amount);\n    event onWithdraw(address _user, uint256 _amount);\n    event onEmergencyWithdraw(address _user, uint256 _amount);\n\n    event onQueuedTransactionsChangeAddress(string _functionName, string _fieldName, address _value);\n    event onQueuedTransactionsChangeUint(string _functionName, string _fieldName, uint256 _value);\n    event onCancelTransactions(string _functionName);\n\n    constructor(\n        IGarbiMining _miningMachine,\n        IETHHandleBridge _ETHHandlerBridge,\n        IWETH _want,\n        uint256 _pidOfMining\n        ) {\n        ETHHandlerBridge = _ETHHandlerBridge;\n        want = _want;\n        miningMachine = _miningMachine;\n        pidOfMining = _pidOfMining;\n        platformFundAddress = _msgSender();\n    }\n\n    function setDelay(uint delay_) public onlyOwner {\n        require(delay_ >= MINIMUM_DELAY, \"Timelock::setDelay: Delay must exceed minimum delay.\");\n        require(delay_ <= MAXIMUM_DELAY, \"Timelock::setDelay: Delay must not exceed maximum delay.\");\n\n        delay = delay_;\n    }\n\n    function cancelTransactions(string memory _functionName) public onlyOwner {\n\n        TimeLock storage _timelock = timeLockOf[keccak256(abi.encode(_functionName))];\n        _timelock.queuedTransactions = false;\n\n        emit onCancelTransactions(_functionName);\n    }\n\n    function queuedTransactionsChangeAddress(string memory _functionName, string memory _fieldName, address _newAddr) public onlyOwner \n    {\n        TimeLock storage _timelock = timeLockOf[keccak256(abi.encode(_functionName))];\n\n        _timelock.addressOf[keccak256(abi.encode(_fieldName))] = _newAddr;\n        _timelock.queuedTransactions = true;\n        _timelock.timeOfExecute = block.timestamp.add(delay);\n\n        emit onQueuedTransactionsChangeAddress(_functionName, _fieldName, _newAddr);\n    }\n\n    function queuedTransactionsChangeUint(string memory _functionName, string memory _fieldName, uint256 _value) public onlyOwner \n    {\n        TimeLock storage _timelock = timeLockOf[keccak256(abi.encode(_functionName))];\n\n        _timelock.uintOf[keccak256(abi.encode(_fieldName))] = _value;\n        _timelock.queuedTransactions = true;\n        _timelock.timeOfExecute = block.timestamp.add(delay);\n\n        emit onQueuedTransactionsChangeUint(_functionName, _fieldName, _value);\n    }\n\n    function setMiningMachine() public onlyOwner \n    {\n        TimeLock storage _timelock = timeLockOf[keccak256(abi.encode('setMiningMachine'))];\n        _validateTimelock(_timelock);\n        require(_timelock.addressOf[keccak256(abi.encode('miningMachine'))] != address(0), \"INVALID_ADDRESS\");\n\n        miningMachine = IGarbiMining(_timelock.addressOf[keccak256(abi.encode('miningMachine'))]);\n        _timelock.queuedTransactions = false;\n    }\n\n    function setETHHandlerBridge() public onlyOwner \n    {\n        TimeLock storage _timelock = timeLockOf[keccak256(abi.encode('setETHHandlerBridge'))];\n        _validateTimelock(_timelock);\n        require(_timelock.addressOf[keccak256(abi.encode('ETHHandlerBridge'))] != address(0), \"INVALID_ADDRESS\");\n\n        ETHHandlerBridge = IETHHandleBridge(_timelock.addressOf[keccak256(abi.encode('ETHHandlerBridge'))]);\n        _timelock.queuedTransactions = false;\n    }\n\n    function setPlatformFee(uint256 _platformFee) public onlyOwner {\n        PLATFORM_FEE = _platformFee;\n    }\n\n    function setPlatformFundAdress(address newAddress) public onlyOwner {\n        platformFundAddress = newAddress;\n    }\n\n    function changeTokenAddress() public onlyOwner\n    {\n        TimeLock storage _timelock = timeLockOf[keccak256(abi.encode('changeTokenAddress'))];\n\n        _validateTimelock(_timelock);\n    \n        if (_timelock.addressOf[keccak256(abi.encode('want'))] != address(0)) {\n            want = IWETH(_timelock.addressOf[keccak256(abi.encode('want'))]);\n            delete _timelock.addressOf[keccak256(abi.encode('want'))];\n        }\n        _timelock.queuedTransactions = false;\n    }\n\n    function setPidOfMining() public onlyOwner \n    {\n        TimeLock storage _timelock = timeLockOf[keccak256(abi.encode('setPidOfMining'))];\n        _validateTimelock(_timelock);\n        require(_timelock.uintOf[keccak256(abi.encode('pidOfMining'))] > 0, \"INVALID_AMOUNT\");\n\n        pidOfMining = _timelock.uintOf[keccak256(abi.encode('pidOfMining'))];\n        _timelock.queuedTransactions = false;\n    }\n\n    function _validateTimelock(TimeLock storage _timelock) private view\n    {\n        require(_timelock.queuedTransactions == true, \"Transaction hasn't been queued.\");\n        require(_timelock.timeOfExecute <= block.timestamp, \"Transaction hasn't surpassed time lock.\");\n        require(_timelock.timeOfExecute.add(GRACE_PERIOD) >= block.timestamp, \"Transaction is stale.\");\n    }\n\n    function deposit(uint256 _wantAmt) external nonReentrant \n    {\n        require(_wantAmt > 0, 'INVALID_INPUT');\n        require(want.balanceOf(msg.sender) >= _wantAmt, 'INVALID_INPUT');\n\n        harvest(msg.sender);\n    \twant.transferFrom(msg.sender, address(this), _wantAmt);\n\n        uint256 platformFee = _wantAmt.mul(PLATFORM_FEE).div(1000);\n        want.transfer(platformFundAddress, platformFee);\n\n        uint256 _wantAmtAfterFee = _wantAmt.sub(platformFee);\n\n        // unWrap weth to eth\n        want.withdrawTo(address(ETHHandlerBridge), _wantAmtAfterFee);\n\n        shareOf[msg.sender] = shareOf[msg.sender].add(_wantAmtAfterFee);\n        totalShare = totalShare.add(_wantAmtAfterFee);\n        miningMachine.updateUser(pidOfMining, msg.sender);\n        emit onDeposit(msg.sender, _wantAmt);\n\n    }\n    function withdraw(uint256 _wantAmt) external nonReentrant \n    {\n        require(_wantAmt > 0, 'INVALID_INPUT');   \n        harvest(msg.sender);\n\n        uint256 _share = shareOf[msg.sender];\n        require(_share >= _wantAmt, 'INVALID_AMOUNT_WITHDRAW');\n\n        shareOf[msg.sender] = shareOf[msg.sender].sub(_wantAmt);\n        totalShare = totalShare.sub(_wantAmt);\n\n        // withdraw eth from ethHandle to this.\n        ETHHandlerBridge.withdraw(_wantAmt);\n\n        // wrap eth to weth\n        want.deposit{value: _wantAmt}();\n\n        uint256 _wantBal = want.balanceOf(address(this)); \n        if (_wantBal < _wantAmt) {\n            _wantAmt = _wantBal;\n        }\n        want.transfer(msg.sender, _wantAmt);\n        \n        miningMachine.updateUser(pidOfMining, msg.sender);\n\n        emit onWithdraw(msg.sender, _wantAmt);\n    }\n    // Withdraw without caring about rewards. EMERGENCY ONLY.\n    function emergencyWithdraw() public \n    {\n        uint256 _share = shareOf[msg.sender];\n        require(_share > 0, 'INVALID_AMOUNT');\n\n        shareOf[msg.sender] = 0;\n        totalShare = totalShare.sub(_share);\n\n        // withdraw eth from ethHandle to this.\n        ETHHandlerBridge.withdraw(_share);\n\n        // wrap eth to weth\n        want.deposit{value: _share}();\n\n        uint256 _wantBal = want.balanceOf(address(this));\n        if (_wantBal < _share) {\n            _share = _wantBal;\n        }\n\n        want.transfer(msg.sender, _share);\n\n        emit onEmergencyWithdraw(msg.sender, _share);\n    }\n\n    function harvest(address _user) public returns(uint256 _pendingVeGRB) { \n        return miningMachine.harvest(pidOfMining, _user);\n    }\n\n    function getData(\n        address _user\n    ) \n    public \n    view\n    returns(\n        uint256 miningSpeed_,\n        uint256 userWantBal_, \n        uint256 totalMintPerDay_, \n        uint256 userETHBal_, \n        uint256 userGRBPending_, \n        uint256 userWantShare_,\n        uint256 tvl_\n    ) {\n        userWantBal_ = want.balanceOf(_user);\n        totalMintPerDay_ = miningMachine.getTotalMintPerDayOf(pidOfMining);\n\n        miningSpeed_ = miningMachine.getMiningSpeedOf(pidOfMining);\n        userETHBal_ = address(_user).balance;\n        (userGRBPending_, , ) = miningMachine.getUserInfo(pidOfMining, _user);\n        userWantShare_ = shareOf[_user];\n        tvl_ = totalShare;\n    } \n\n    receive() external payable {}\n\n}",
  "sourcePath": "/Applications/projects/garbiprotocol.github.io/garbi_contracts/contracts/GarbiFarmSingleWETHBridge.sol",
  "compiler": {
    "name": "solc",
    "version": "0.8.17+commit.8df45f5f.Emscripten.clang"
  },
  "schemaVersion": "3.4.11",
  "updatedAt": "2023-06-06T03:58:25.338Z",
  "networkType": "ethereum",
  "devdoc": {
    "kind": "dev",
    "methods": {
      "owner()": {
        "details": "Returns the address of the current owner."
      },
      "renounceOwnership()": {
        "details": "Leaves the contract without owner. It will not be possible to call `onlyOwner` functions. Can only be called by the current owner. NOTE: Renouncing ownership will leave the contract without an owner, thereby disabling any functionality that is only available to the owner."
      },
      "transferOwnership(address)": {
        "details": "Transfers ownership of the contract to a new account (`newOwner`). Can only be called by the current owner."
      }
    },
    "version": 1
  },
  "userdoc": {
    "kind": "user",
    "methods": {},
    "version": 1
  }
}