{
  "contractName": "GarbiOracle",
  "abi": [
    {
      "anonymous": false,
      "inputs": [
        {
          "indexed": true,
          "internalType": "address",
          "name": "previousOwner",
          "type": "address"
        },
        {
          "indexed": true,
          "internalType": "address",
          "name": "newOwner",
          "type": "address"
        }
      ],
      "name": "OwnershipTransferred",
      "type": "event"
    },
    {
      "inputs": [],
      "name": "owner",
      "outputs": [
        {
          "internalType": "address",
          "name": "",
          "type": "address"
        }
      ],
      "stateMutability": "view",
      "type": "function"
    },
    {
      "inputs": [
        {
          "internalType": "address",
          "name": "",
          "type": "address"
        }
      ],
      "name": "priceFeed",
      "outputs": [
        {
          "internalType": "contract AggregatorV3Interface",
          "name": "",
          "type": "address"
        }
      ],
      "stateMutability": "view",
      "type": "function"
    },
    {
      "inputs": [],
      "name": "renounceOwnership",
      "outputs": [],
      "stateMutability": "nonpayable",
      "type": "function"
    },
    {
      "inputs": [
        {
          "internalType": "address",
          "name": "newOwner",
          "type": "address"
        }
      ],
      "name": "transferOwnership",
      "outputs": [],
      "stateMutability": "nonpayable",
      "type": "function"
    },
    {
      "inputs": [
        {
          "internalType": "address",
          "name": "token",
          "type": "address"
        },
        {
          "internalType": "contract AggregatorV3Interface",
          "name": "_priceFeed",
          "type": "address"
        }
      ],
      "name": "setPriceFeedContract",
      "outputs": [],
      "stateMutability": "nonpayable",
      "type": "function"
    },
    {
      "inputs": [
        {
          "internalType": "address",
          "name": "token",
          "type": "address"
        }
      ],
      "name": "getLatestPrice",
      "outputs": [
        {
          "internalType": "uint256",
          "name": "",
          "type": "uint256"
        }
      ],
      "stateMutability": "view",
      "type": "function"
    },
    {
      "inputs": [
        {
          "internalType": "address",
          "name": "token",
          "type": "address"
        }
      ],
      "name": "getPriceDecimals",
      "outputs": [
        {
          "internalType": "uint256",
          "name": "priceDecimals",
          "type": "uint256"
        }
      ],
      "stateMutability": "view",
      "type": "function"
    }
  ],
  "bytecode": "0x608060405234801561001057600080fd5b5061001a3361001f565b61006f565b600080546001600160a01b038381166001600160a01b0319831681178455604051919092169283917f8be0079c531659141344cd1fd0a4f28419497f9722a3daafe3b4186f6b6457e09190a35050565b61053d8061007e6000396000f3fe608060405234801561001057600080fd5b506004361061007d5760003560e01c8063877dd39d1161005b578063877dd39d146100f35780638b1b64bd146101065780638da5cb5b14610119578063f2fde38b1461012a57600080fd5b806316345f18146100825780631fd48b9a146100a8578063715018a6146100e9575b600080fd5b610095610090366004610418565b61013d565b6040519081526020015b60405180910390f35b6100d16100b6366004610418565b6001602052600090815260409020546001600160a01b031681565b6040516001600160a01b03909116815260200161009f565b6100f16101c7565b005b6100f161010136600461043c565b6101db565b610095610114366004610418565b61025c565b6000546001600160a01b03166100d1565b6100f1610138366004610418565b6102e0565b6001600160a01b03808216600090815260016020526040808220548151633fabe5a360e21b815291519293849391169163feaf968c9160048083019260a09291908290030181865afa158015610197573d6000803e3d6000fd5b505050506040513d601f19601f820116820180604052508101906101bb9190610494565b50919695505050505050565b6101cf610359565b6101d960006103b3565b565b6101e3610359565b6001600160a01b03821661022e5760405162461bcd60e51b815260206004820152600d60248201526c24a72b20a624a22faa27a5a2a760991b60448201526064015b60405180910390fd5b6001600160a01b03918216600090815260016020526040902080546001600160a01b03191691909216179055565b6001600160a01b03808216600090815260016020908152604080832054815163313ce56760e01b815291519394169263313ce567926004808401939192918290030181865afa1580156102b3573d6000803e3d6000fd5b505050506040513d601f19601f820116820180604052508101906102d791906104e4565b60ff1692915050565b6102e8610359565b6001600160a01b03811661034d5760405162461bcd60e51b815260206004820152602660248201527f4f776e61626c653a206e6577206f776e657220697320746865207a65726f206160448201526564647265737360d01b6064820152608401610225565b610356816103b3565b50565b6000546001600160a01b031633146101d95760405162461bcd60e51b815260206004820181905260248201527f4f776e61626c653a2063616c6c6572206973206e6f7420746865206f776e65726044820152606401610225565b600080546001600160a01b038381166001600160a01b0319831681178455604051919092169283917f8be0079c531659141344cd1fd0a4f28419497f9722a3daafe3b4186f6b6457e09190a35050565b6001600160a01b038116811461035657600080fd5b60006020828403121561042a57600080fd5b813561043581610403565b9392505050565b6000806040838503121561044f57600080fd5b823561045a81610403565b9150602083013561046a81610403565b809150509250929050565b805169ffffffffffffffffffff8116811461048f57600080fd5b919050565b600080600080600060a086880312156104ac57600080fd5b6104b586610475565b94506020860151935060408601519250606086015191506104d860808701610475565b90509295509295909350565b6000602082840312156104f657600080fd5b815160ff8116811461043557600080fdfea2646970667358221220f089741653f1233abc9d4801f865ae13a1d2870baf9e8d5fce5b0f72d518bb9e64736f6c63430008110033",
  "immutableReferences": {},
  "source": "// SPDX-License-Identifier: MIT\npragma solidity >=0.6.12;\n\nimport \"@openzeppelin/contracts/utils/math/SafeMath.sol\";\nimport \"@openzeppelin/contracts/token/ERC20/IERC20.sol\";\nimport \"@openzeppelin/contracts/utils/Context.sol\";\nimport \"@openzeppelin/contracts/access/Ownable.sol\";\nimport \"@chainlink/contracts/src/v0.8/interfaces/AggregatorV3Interface.sol\";\n\ncontract GarbiOracle is Ownable {\n\n    using SafeMath for uint256;\n\n    mapping(address => AggregatorV3Interface) public priceFeed;\n\n    function setPriceFeedContract(address token, AggregatorV3Interface _priceFeed) public onlyOwner {\n        require(token != address(0), \"INVALID_TOKEN\");\n        priceFeed[token] = AggregatorV3Interface(\n            _priceFeed\n        );\n    }\n\n    function getLatestPrice(address token) public view returns (uint256) {\n        (\n            ,\n            /*uint80 roundID*/ int price /*uint startedAt*/ /*uint timeStamp*/ /*uint80 answeredInRound*/,\n            ,\n            ,\n\n        ) = priceFeed[token].latestRoundData();\n        return uint256(price);\n    }\n\n    function getPriceDecimals(address token) public view returns (uint256 priceDecimals) {\n        priceDecimals = priceFeed[token].decimals();\n        return priceDecimals;\n    }\n}",
  "sourcePath": "/Applications/projects/garbiprotocol.github.io/garbi_contracts/contracts/GarbiOracle.sol",
  "compiler": {
    "name": "solc",
    "version": "0.8.17+commit.8df45f5f.Emscripten.clang"
  },
  "schemaVersion": "3.4.11",
  "updatedAt": "2023-03-05T03:14:28.968Z",
  "networkType": "ethereum",
  "devdoc": {
    "kind": "dev",
    "methods": {
      "owner()": {
        "details": "Returns the address of the current owner."
      },
      "renounceOwnership()": {
        "details": "Leaves the contract without owner. It will not be possible to call `onlyOwner` functions anymore. Can only be called by the current owner. NOTE: Renouncing ownership will leave the contract without an owner, thereby removing any functionality that is only available to the owner."
      },
      "transferOwnership(address)": {
        "details": "Transfers ownership of the contract to a new account (`newOwner`). Can only be called by the current owner."
      }
    },
    "version": 1
  },
  "userdoc": {
    "kind": "user",
    "methods": {},
    "version": 1
  }
}