{
  "contractName": "GarbiFarmSingleWETHBridge",
  "abi": [
    {
      "inputs": [
        {
          "internalType": "contract IETHHandleBridge",
          "name": "_ETHHandlerBridge",
          "type": "address"
        },
        {
          "internalType": "contract IWETH",
          "name": "_want",
          "type": "address"
        }
      ],
      "stateMutability": "nonpayable",
      "type": "constructor"
    },
    {
      "anonymous": false,
      "inputs": [
        {
          "indexed": true,
          "internalType": "address",
          "name": "previousOwner",
          "type": "address"
        },
        {
          "indexed": true,
          "internalType": "address",
          "name": "newOwner",
          "type": "address"
        }
      ],
      "name": "OwnershipTransferred",
      "type": "event"
    },
    {
      "anonymous": false,
      "inputs": [
        {
          "indexed": false,
          "internalType": "string",
          "name": "_functionName",
          "type": "string"
        }
      ],
      "name": "onCancelTransactions",
      "type": "event"
    },
    {
      "anonymous": false,
      "inputs": [
        {
          "indexed": false,
          "internalType": "address",
          "name": "_user",
          "type": "address"
        },
        {
          "indexed": false,
          "internalType": "uint256",
          "name": "_amount",
          "type": "uint256"
        }
      ],
      "name": "onDeposit",
      "type": "event"
    },
    {
      "anonymous": false,
      "inputs": [
        {
          "indexed": false,
          "internalType": "address",
          "name": "_user",
          "type": "address"
        },
        {
          "indexed": false,
          "internalType": "uint256",
          "name": "_amount",
          "type": "uint256"
        }
      ],
      "name": "onEmergencyWithdraw",
      "type": "event"
    },
    {
      "anonymous": false,
      "inputs": [
        {
          "indexed": false,
          "internalType": "string",
          "name": "_functionName",
          "type": "string"
        },
        {
          "indexed": false,
          "internalType": "string",
          "name": "_fieldName",
          "type": "string"
        },
        {
          "indexed": false,
          "internalType": "address",
          "name": "_value",
          "type": "address"
        }
      ],
      "name": "onQueuedTransactionsChangeAddress",
      "type": "event"
    },
    {
      "anonymous": false,
      "inputs": [
        {
          "indexed": false,
          "internalType": "string",
          "name": "_functionName",
          "type": "string"
        },
        {
          "indexed": false,
          "internalType": "string",
          "name": "_fieldName",
          "type": "string"
        },
        {
          "indexed": false,
          "internalType": "uint256",
          "name": "_value",
          "type": "uint256"
        }
      ],
      "name": "onQueuedTransactionsChangeUint",
      "type": "event"
    },
    {
      "anonymous": false,
      "inputs": [
        {
          "indexed": false,
          "internalType": "address",
          "name": "_user",
          "type": "address"
        },
        {
          "indexed": false,
          "internalType": "uint256",
          "name": "_amount",
          "type": "uint256"
        }
      ],
      "name": "onWithdraw",
      "type": "event"
    },
    {
      "inputs": [],
      "name": "ETHHandlerBridge",
      "outputs": [
        {
          "internalType": "contract IETHHandleBridge",
          "name": "",
          "type": "address"
        }
      ],
      "stateMutability": "view",
      "type": "function",
      "constant": true
    },
    {
      "inputs": [],
      "name": "GRACE_PERIOD",
      "outputs": [
        {
          "internalType": "uint256",
          "name": "",
          "type": "uint256"
        }
      ],
      "stateMutability": "view",
      "type": "function",
      "constant": true
    },
    {
      "inputs": [],
      "name": "MAXIMUM_DELAY",
      "outputs": [
        {
          "internalType": "uint256",
          "name": "",
          "type": "uint256"
        }
      ],
      "stateMutability": "view",
      "type": "function",
      "constant": true
    },
    {
      "inputs": [],
      "name": "MINIMUM_DELAY",
      "outputs": [
        {
          "internalType": "uint256",
          "name": "",
          "type": "uint256"
        }
      ],
      "stateMutability": "view",
      "type": "function",
      "constant": true
    },
    {
      "inputs": [],
      "name": "PLATFORM_FEE",
      "outputs": [
        {
          "internalType": "uint256",
          "name": "",
          "type": "uint256"
        }
      ],
      "stateMutability": "view",
      "type": "function",
      "constant": true
    },
    {
      "inputs": [],
      "name": "delay",
      "outputs": [
        {
          "internalType": "uint256",
          "name": "",
          "type": "uint256"
        }
      ],
      "stateMutability": "view",
      "type": "function",
      "constant": true
    },
    {
      "inputs": [],
      "name": "miningMachine",
      "outputs": [
        {
          "internalType": "contract IGarbiMining",
          "name": "",
          "type": "address"
        }
      ],
      "stateMutability": "view",
      "type": "function",
      "constant": true
    },
    {
      "inputs": [],
      "name": "owner",
      "outputs": [
        {
          "internalType": "address",
          "name": "",
          "type": "address"
        }
      ],
      "stateMutability": "view",
      "type": "function",
      "constant": true
    },
    {
      "inputs": [],
      "name": "pidOfMining",
      "outputs": [
        {
          "internalType": "uint256",
          "name": "",
          "type": "uint256"
        }
      ],
      "stateMutability": "view",
      "type": "function",
      "constant": true
    },
    {
      "inputs": [],
      "name": "platformFundAddress",
      "outputs": [
        {
          "internalType": "address",
          "name": "",
          "type": "address"
        }
      ],
      "stateMutability": "view",
      "type": "function",
      "constant": true
    },
    {
      "inputs": [],
      "name": "renounceOwnership",
      "outputs": [],
      "stateMutability": "nonpayable",
      "type": "function"
    },
    {
      "inputs": [
        {
          "internalType": "address",
          "name": "",
          "type": "address"
        }
      ],
      "name": "shareOf",
      "outputs": [
        {
          "internalType": "uint256",
          "name": "",
          "type": "uint256"
        }
      ],
      "stateMutability": "view",
      "type": "function",
      "constant": true
    },
    {
      "inputs": [
        {
          "internalType": "bytes32",
          "name": "",
          "type": "bytes32"
        }
      ],
      "name": "timeLockOf",
      "outputs": [
        {
          "internalType": "bool",
          "name": "queuedTransactions",
          "type": "bool"
        },
        {
          "internalType": "uint256",
          "name": "timeOfExecute",
          "type": "uint256"
        }
      ],
      "stateMutability": "view",
      "type": "function",
      "constant": true
    },
    {
      "inputs": [],
      "name": "totalShare",
      "outputs": [
        {
          "internalType": "uint256",
          "name": "",
          "type": "uint256"
        }
      ],
      "stateMutability": "view",
      "type": "function",
      "constant": true
    },
    {
      "inputs": [
        {
          "internalType": "address",
          "name": "newOwner",
          "type": "address"
        }
      ],
      "name": "transferOwnership",
      "outputs": [],
      "stateMutability": "nonpayable",
      "type": "function"
    },
    {
      "inputs": [],
      "name": "version",
      "outputs": [
        {
          "internalType": "uint256",
          "name": "",
          "type": "uint256"
        }
      ],
      "stateMutability": "view",
      "type": "function",
      "constant": true
    },
    {
      "inputs": [],
      "name": "want",
      "outputs": [
        {
          "internalType": "contract IWETH",
          "name": "",
          "type": "address"
        }
      ],
      "stateMutability": "view",
      "type": "function",
      "constant": true
    },
    {
      "stateMutability": "payable",
      "type": "receive",
      "payable": true
    },
    {
      "inputs": [
        {
          "internalType": "uint256",
          "name": "delay_",
          "type": "uint256"
        }
      ],
      "name": "setDelay",
      "outputs": [],
      "stateMutability": "nonpayable",
      "type": "function"
    },
    {
      "inputs": [
        {
          "internalType": "string",
          "name": "_functionName",
          "type": "string"
        }
      ],
      "name": "cancelTransactions",
      "outputs": [],
      "stateMutability": "nonpayable",
      "type": "function"
    },
    {
      "inputs": [
        {
          "internalType": "string",
          "name": "_functionName",
          "type": "string"
        },
        {
          "internalType": "string",
          "name": "_fieldName",
          "type": "string"
        },
        {
          "internalType": "address",
          "name": "_newAddr",
          "type": "address"
        }
      ],
      "name": "queuedTransactionsChangeAddress",
      "outputs": [],
      "stateMutability": "nonpayable",
      "type": "function"
    },
    {
      "inputs": [
        {
          "internalType": "string",
          "name": "_functionName",
          "type": "string"
        },
        {
          "internalType": "string",
          "name": "_fieldName",
          "type": "string"
        },
        {
          "internalType": "uint256",
          "name": "_value",
          "type": "uint256"
        }
      ],
      "name": "queuedTransactionsChangeUint",
      "outputs": [],
      "stateMutability": "nonpayable",
      "type": "function"
    },
    {
      "inputs": [],
      "name": "setMiningMachine",
      "outputs": [],
      "stateMutability": "nonpayable",
      "type": "function"
    },
    {
      "inputs": [],
      "name": "setETHHandlerBridge",
      "outputs": [],
      "stateMutability": "nonpayable",
      "type": "function"
    },
    {
      "inputs": [
        {
          "internalType": "uint256",
          "name": "_platformFee",
          "type": "uint256"
        }
      ],
      "name": "setPlatformFee",
      "outputs": [],
      "stateMutability": "nonpayable",
      "type": "function"
    },
    {
      "inputs": [
        {
          "internalType": "address",
          "name": "newAddress",
          "type": "address"
        }
      ],
      "name": "setPlatformFundAdress",
      "outputs": [],
      "stateMutability": "nonpayable",
      "type": "function"
    },
    {
      "inputs": [],
      "name": "changeTokenAddress",
      "outputs": [],
      "stateMutability": "nonpayable",
      "type": "function"
    },
    {
      "inputs": [],
      "name": "setPidOfMining",
      "outputs": [],
      "stateMutability": "nonpayable",
      "type": "function"
    },
    {
      "inputs": [
        {
          "internalType": "uint256",
          "name": "_wantAmt",
          "type": "uint256"
        }
      ],
      "name": "deposit",
      "outputs": [],
      "stateMutability": "nonpayable",
      "type": "function"
    },
    {
      "inputs": [
        {
          "internalType": "uint256",
          "name": "_wantAmt",
          "type": "uint256"
        }
      ],
      "name": "withdraw",
      "outputs": [],
      "stateMutability": "nonpayable",
      "type": "function"
    },
    {
      "inputs": [],
      "name": "emergencyWithdraw",
      "outputs": [],
      "stateMutability": "nonpayable",
      "type": "function"
    },
    {
      "inputs": [
        {
          "internalType": "address",
          "name": "_user",
          "type": "address"
        }
      ],
      "name": "harvest",
      "outputs": [
        {
          "internalType": "uint256",
          "name": "_pendingVeGRB",
          "type": "uint256"
        }
      ],
      "stateMutability": "nonpayable",
      "type": "function"
    },
    {
      "inputs": [
        {
          "internalType": "address",
          "name": "_user",
          "type": "address"
        }
      ],
      "name": "getData",
      "outputs": [
        {
          "internalType": "uint256",
          "name": "miningSpeed_",
          "type": "uint256"
        },
        {
          "internalType": "uint256",
          "name": "userWantBal_",
          "type": "uint256"
        },
        {
          "internalType": "uint256",
          "name": "totalMintPerDay_",
          "type": "uint256"
        },
        {
          "internalType": "uint256",
          "name": "userETHBal_",
          "type": "uint256"
        },
        {
          "internalType": "uint256",
          "name": "userGRBPending_",
          "type": "uint256"
        },
        {
          "internalType": "uint256",
          "name": "userWantShare_",
          "type": "uint256"
        },
        {
          "internalType": "uint256",
          "name": "tvl_",
          "type": "uint256"
        }
      ],
      "stateMutability": "view",
      "type": "function",
      "constant": true
    }
  ],
  "bytecode": "0x60806040526064600255601960045560006009553480156200002057600080fd5b50604051620021cf380380620021cf83398101604081905262000043916200011f565b60016000556200005333620000b4565b600680546001600160a01b038085166001600160a01b03199283161790925560038054928416929091169190911790556200008b3390565b600580546001600160a01b0319166001600160a01b0392909216919091179055506200015e9050565b600180546001600160a01b038381166001600160a01b0319831681179093556040519116919082907f8be0079c531659141344cd1fd0a4f28419497f9722a3daafe3b4186f6b6457e090600090a35050565b6001600160a01b03811681146200011c57600080fd5b50565b600080604083850312156200013357600080fd5b8251620001408162000106565b6020840151909250620001538162000106565b809150509250929050565b612061806200016e6000396000f3fe6080604052600436106101e75760003560e01c80638d9eb2ca11610102578063b6b55f2511610095578063db2e21bc11610064578063db2e21bc14610580578063e177246e14610595578063f2fde38b146105b5578063f47a396f146105d557600080fd5b8063b6b55f251461052b578063bce645db1461054b578063c1a287e214610415578063d1b8a3b51461056b57600080fd5b80639312dc5f116100d15780639312dc5f146104b45780639c006983146104d45780639fa5e63e146104f4578063b1b43ae51461051457600080fd5b80638d9eb2ca1461044c5780638da5cb5b146104615780638ecc676f1461047f5780638fe6041d1461049457600080fd5b806334fbc9a11161017a5780636edc28fd116101495780636edc28fd146103af578063715018a6146104005780637d645fab146104155780638cac8f031461042c57600080fd5b806334fbc9a11461031857806338266b221461032e57806354fd4d50146103835780636a42b8f81461039957600080fd5b80631f1fcd51116101b65780631f1fcd511461027e57806321e5e2c4146102b65780632e1a7d4d146102e357806332009eda1461030357600080fd5b8063026c4207146101f35780630e5c011e1461021c57806312e8e2c31461023c57806314ca81ed1461025e57600080fd5b366101ee57005b600080fd5b3480156101ff57600080fd5b5061020960095481565b6040519081526020015b60405180910390f35b34801561022857600080fd5b50610209610237366004611c46565b6105eb565b34801561024857600080fd5b5061025c610257366004611c61565b61066d565b005b34801561026a57600080fd5b5061025c610279366004611d1d565b61067a565b34801561028a57600080fd5b5060035461029e906001600160a01b031681565b6040516001600160a01b039091168152602001610213565b3480156102c257600080fd5b506102096102d1366004611c46565b600a6020526000908152604090205481565b3480156102ef57600080fd5b5061025c6102fe366004611c61565b61077a565b34801561030f57600080fd5b5061025c610a48565b34801561032457600080fd5b5061020960045481565b34801561033a57600080fd5b5061034e610349366004611c46565b610bbd565b604080519788526020880196909652948601939093526060850191909152608084015260a083015260c082015260e001610213565b34801561038f57600080fd5b5061020960025481565b3480156103a557600080fd5b50610209600c5481565b3480156103bb57600080fd5b506103e96103ca366004611c61565b600b602052600090815260409020805460019091015460ff9091169082565b604080519215158352602083019190915201610213565b34801561040c57600080fd5b5061025c610dcd565b34801561042157600080fd5b5061020962278d0081565b34801561043857600080fd5b5061025c610447366004611d91565b610de1565b34801561045857600080fd5b5061025c610e6c565b34801561046d57600080fd5b506001546001600160a01b031661029e565b34801561048b57600080fd5b5061025c61100e565b3480156104a057600080fd5b5061025c6104af366004611c46565b6111b5565b3480156104c057600080fd5b5061025c6104cf366004611dce565b6111df565b3480156104e057600080fd5b5060065461029e906001600160a01b031681565b34801561050057600080fd5b5060055461029e906001600160a01b031681565b34801561052057600080fd5b506102096202a30081565b34801561053757600080fd5b5061025c610546366004611c61565b6112b4565b34801561055757600080fd5b5060075461029e906001600160a01b031681565b34801561057757600080fd5b5061025c611568565b34801561058c57600080fd5b5061025c6116d9565b3480156105a157600080fd5b5061025c6105b0366004611c61565b61186e565b3480156105c157600080fd5b5061025c6105d0366004611c46565b611964565b3480156105e157600080fd5b5061020960085481565b600754600854604051630c7e663b60e11b815260048101919091526001600160a01b03838116602483015260009216906318fccc76906044016020604051808303816000875af1158015610643573d6000803e3d6000fd5b505050506040513d601f19601f820116820180604052508101906106679190611e3b565b92915050565b6106756119da565b600455565b6106826119da565b6000600b6000856040516020016106999190611e9a565b604051602081830303815290604052805190602001208152602001908152602001600020905081816002016000856040516020016106d79190611e9a565b60408051808303601f1901815291815281516020928301208352908201929092520160002080546001600160a01b0319166001600160a01b0392909216919091179055805460ff19166001178155600c54610733904290611a34565b60018201556040517f1bd33efd68d2824f5f0f2519ce7c9ca0ddff6234523468e89077a0dca7b739709061076c90869086908690611ead565b60405180910390a150505050565b610782611a47565b600081116107ab5760405162461bcd60e51b81526004016107a290611eeb565b60405180910390fd5b336000908152600a60205260409020548181101561080b5760405162461bcd60e51b815260206004820152601760248201527f494e56414c49445f414d4f554e545f574954484452415700000000000000000060448201526064016107a2565b336000908152600a60205260409020546108259083611aa0565b336000908152600a60205260409020556009546108429083611aa0565b600955600654604051632e1a7d4d60e01b8152600481018490526001600160a01b0390911690632e1a7d4d90602401600060405180830381600087803b15801561088b57600080fd5b505af115801561089f573d6000803e3d6000fd5b50505050600360009054906101000a90046001600160a01b03166001600160a01b031663d0e30db0836040518263ffffffff1660e01b81526004016000604051808303818588803b1580156108f357600080fd5b505af1158015610907573d6000803e3d6000fd5b50506003546040516370a0823160e01b8152306004820152600094506001600160a01b0390911692506370a082319150602401602060405180830381865afa158015610957573d6000803e3d6000fd5b505050506040513d601f19601f8201168201806040525081019061097b9190611e3b565b905082811015610989578092505b60035460405163a9059cbb60e01b8152336004820152602481018590526001600160a01b039091169063a9059cbb906044016020604051808303816000875af11580156109da573d6000803e3d6000fd5b505050506040513d601f19601f820116820180604052508101906109fe9190611f12565b5060408051338152602081018590527fccad973dcd043c7d680389db4378bd6b9775db7124092e9e0422c9e46d7985dc91015b60405180910390a15050610a456001600055565b50565b610a506119da565b6000600b6000604051602001610a8c906020808252601290820152716368616e6765546f6b656e4164647265737360701b604082015260600190565b6040516020818303038152906040528051906020012081526020019081526020016000209050610abb81611aac565b60006001600160a01b0316816002016000604051602001610adb90611f34565b60408051601f19818403018152918152815160209283012083529082019290925201600020546001600160a01b031614610bb357806002016000604051602001610b2490611f34565b60408051601f198184030181529181528151602092830120835282820193909352908201600090812054600380546001600160a01b0319166001600160a01b039092169190911790559151600284019291610b7f9101611f34565b60408051601f1981840301815291815281516020928301208352908201929092520160002080546001600160a01b03191690555b805460ff19169055565b6003546040516370a0823160e01b81526001600160a01b03838116600483015260009283928392839283928392839216906370a0823190602401602060405180830381865afa158015610c14573d6000803e3d6000fd5b505050506040513d601f19601f82011682018060405250810190610c389190611e3b565b600754600854604051635e86cd9560e01b815260048101919091529197506001600160a01b031690635e86cd9590602401602060405180830381865afa158015610c86573d6000803e3d6000fd5b505050506040513d601f19601f82011682018060405250810190610caa9190611e3b565b6007546008546040516324aa7cc560e11b815260048101919091529196506001600160a01b031690634954f98a90602401602060405180830381865afa158015610cf8573d6000803e3d6000fd5b505050506040513d601f19601f82011682018060405250810190610d1c9190611e3b565b600754600854604051631069f3b560e01b815260048101919091526001600160a01b038b811660248301819052939a5092319650911690631069f3b590604401606060405180830381865afa158015610d79573d6000803e3d6000fd5b505050506040513d601f19601f82011682018060405250810190610d9d9190611f52565b50506001600160a01b039098166000908152600a6020526040902054600954979996989597949690949350915050565b610dd56119da565b610ddf6000611bc0565b565b610de96119da565b6000600b600083604051602001610e009190611e9a565b60408051601f1981840301815291815281516020928301208352908201929092528101600020805460ff1916815590519091507fce369f91d52b663114643c430217b52530c2cc7318cac7a3e9d46241cbc354a890610e60908490611e9a565b60405180910390a15050565b610e746119da565b6000600b6000604051602001610eb19060208082526013908201527273657445544848616e646c657242726964676560681b604082015260600190565b6040516020818303038152906040528051906020012081526020019081526020016000209050610ee081611aac565b60006001600160a01b0316816002016000604051602001610f1790602080825260029082015261010160f51b604082015260600190565b60408051601f19818403018152918152815160209283012083529082019290925201600020546001600160a01b031603610f855760405162461bcd60e51b815260206004820152600f60248201526e494e56414c49445f4144445245535360881b60448201526064016107a2565b806002016000604051602001610fbf9060208082526010908201526f45544848616e646c657242726964676560801b604082015260600190565b60408051601f1981840301815291815281516020928301208352908201929092520160002054600680546001600160a01b0319166001600160a01b03909216919091179055805460ff19169055565b6110166119da565b6000600b60006040516020016110509060208082526010908201526f7365744d696e696e674d616368696e6560801b604082015260600190565b604051602081830303815290604052805190602001208152602001908152602001600020905061107f81611aac565b60006001600160a01b03168160020160006040516020016110c1906020808252600d908201526c6d696e696e674d616368696e6560981b604082015260600190565b60408051601f19818403018152918152815160209283012083529082019290925201600020546001600160a01b03160361112f5760405162461bcd60e51b815260206004820152600f60248201526e494e56414c49445f4144445245535360881b60448201526064016107a2565b806002016000604051602001611166906020808252600d908201526c6d696e696e674d616368696e6560981b604082015260600190565b60408051601f1981840301815291815281516020928301208352908201929092520160002054600780546001600160a01b0319166001600160a01b03909216919091179055805460ff19169055565b6111bd6119da565b600580546001600160a01b0319166001600160a01b0392909216919091179055565b6111e76119da565b6000600b6000856040516020016111fe9190611e9a565b6040516020818303038152906040528051906020012081526020019081526020016000209050818160030160008560405160200161123c9190611e9a565b60408051601f1981840301815291815281516020928301208352908201929092520160002055805460ff19166001178155600c5461127b904290611a34565b60018201556040517f860699cc7b0f3cb3d034fd31cdfe0816887a9f55d10993224d77c359c3d555519061076c90869086908690611f80565b6112bc611a47565b600081116112dc5760405162461bcd60e51b81526004016107a290611eeb565b6003546040516370a0823160e01b815233600482015282916001600160a01b0316906370a0823190602401602060405180830381865afa158015611324573d6000803e3d6000fd5b505050506040513d601f19601f820116820180604052508101906113489190611e3b565b10156113665760405162461bcd60e51b81526004016107a290611eeb565b6003546040516323b872dd60e01b8152336004820152306024820152604481018390526001600160a01b03909116906323b872dd906064016020604051808303816000875af11580156113bd573d6000803e3d6000fd5b505050506040513d601f19601f820116820180604052508101906113e19190611f12565b5060006114056103e86113ff60045485611c1290919063ffffffff16565b90611c1e565b60035460055460405163a9059cbb60e01b81526001600160a01b03918216600482015260248101849052929350169063a9059cbb906044016020604051808303816000875af115801561145c573d6000803e3d6000fd5b505050506040513d601f19601f820116820180604052508101906114809190611f12565b50600061148d8383611aa0565b60035460065460405163040b850f60e31b81526001600160a01b03918216600482015260248101849052929350169063205c287890604401600060405180830381600087803b1580156114df57600080fd5b505af11580156114f3573d6000803e3d6000fd5b5050336000908152600a60205260409020546115129250905082611a34565b336000908152600a602052604090205560095461152f9082611a34565b60095560408051338152602081018590527f2bf9518c65eff7d1f3ee4106bf0dc41267ccde0924dbfa4ab476ed5c0f45da989101610a31565b6115706119da565b6000600b60006040516020016115a8906020808252600e908201526d7365745069644f664d696e696e6760901b604082015260600190565b60405160208183030381529060405280519060200120815260200190815260200160002090506115d781611aac565b600081600301600060405160200161160e906020808252600b908201526a7069644f664d696e696e6760a81b604082015260600190565b60405160208183030381529060405280519060200120815260200190815260200160002054116116715760405162461bcd60e51b815260206004820152600e60248201526d1253959053125117d05353d5539560921b60448201526064016107a2565b8060030160006040516020016116a6906020808252600b908201526a7069644f664d696e696e6760a81b604082015260600190565b60408051601f1981840301815291815281516020928301208352908201929092520160002054600855805460ff19169055565b336000908152600a6020526040902054806117275760405162461bcd60e51b815260206004820152600e60248201526d1253959053125117d05353d5539560921b60448201526064016107a2565b336000908152600a60205260408120556009546117449082611aa0565b6009556003546040516370a0823160e01b81523060048201526000916001600160a01b0316906370a0823190602401602060405180830381865afa158015611790573d6000803e3d6000fd5b505050506040513d601f19601f820116820180604052508101906117b49190611e3b565b9050818110156117c2578091505b60035460405163a9059cbb60e01b8152336004820152602481018490526001600160a01b039091169063a9059cbb906044016020604051808303816000875af1158015611813573d6000803e3d6000fd5b505050506040513d601f19601f820116820180604052508101906118379190611f12565b5060408051338152602081018490527fc33863412a9dc216cbf16bc22dd0bd897cf3b59fe264e4e89db58f9b9c23d01b9101610e60565b6118766119da565b6202a3008110156118e65760405162461bcd60e51b815260206004820152603460248201527f54696d656c6f636b3a3a73657444656c61793a2044656c6179206d75737420656044820152733c31b2b2b21036b4b734b6bab6903232b630bc9760611b60648201526084016107a2565b62278d0081111561195f5760405162461bcd60e51b815260206004820152603860248201527f54696d656c6f636b3a3a73657444656c61793a2044656c6179206d757374206e60448201527f6f7420657863656564206d6178696d756d2064656c61792e000000000000000060648201526084016107a2565b600c55565b61196c6119da565b6001600160a01b0381166119d15760405162461bcd60e51b815260206004820152602660248201527f4f776e61626c653a206e6577206f776e657220697320746865207a65726f206160448201526564647265737360d01b60648201526084016107a2565b610a4581611bc0565b6001546001600160a01b03163314610ddf5760405162461bcd60e51b815260206004820181905260248201527f4f776e61626c653a2063616c6c6572206973206e6f7420746865206f776e657260448201526064016107a2565b6000611a408284611fcc565b9392505050565b600260005403611a995760405162461bcd60e51b815260206004820152601f60248201527f5265656e7472616e637947756172643a207265656e7472616e742063616c6c0060448201526064016107a2565b6002600055565b6000611a408284611fdf565b805460ff161515600114611b025760405162461bcd60e51b815260206004820152601f60248201527f5472616e73616374696f6e206861736e2774206265656e207175657565642e0060448201526064016107a2565b4281600101541115611b665760405162461bcd60e51b815260206004820152602760248201527f5472616e73616374696f6e206861736e2774207375727061737365642074696d60448201526632903637b1b59760c91b60648201526084016107a2565b60018101544290611b7a9062278d00611a34565b1015610a455760405162461bcd60e51b81526020600482015260156024820152742a3930b739b0b1ba34b7b71034b99039ba30b6329760591b60448201526064016107a2565b600180546001600160a01b038381166001600160a01b0319831681179093556040519116919082907f8be0079c531659141344cd1fd0a4f28419497f9722a3daafe3b4186f6b6457e090600090a35050565b6000611a408284611ff2565b6000611a408284612009565b80356001600160a01b0381168114611c4157600080fd5b919050565b600060208284031215611c5857600080fd5b611a4082611c2a565b600060208284031215611c7357600080fd5b5035919050565b634e487b7160e01b600052604160045260246000fd5b600082601f830112611ca157600080fd5b813567ffffffffffffffff80821115611cbc57611cbc611c7a565b604051601f8301601f19908116603f01168101908282118183101715611ce457611ce4611c7a565b81604052838152866020858801011115611cfd57600080fd5b836020870160208301376000602085830101528094505050505092915050565b600080600060608486031215611d3257600080fd5b833567ffffffffffffffff80821115611d4a57600080fd5b611d5687838801611c90565b94506020860135915080821115611d6c57600080fd5b50611d7986828701611c90565b925050611d8860408501611c2a565b90509250925092565b600060208284031215611da357600080fd5b813567ffffffffffffffff811115611dba57600080fd5b611dc684828501611c90565b949350505050565b600080600060608486031215611de357600080fd5b833567ffffffffffffffff80821115611dfb57600080fd5b611e0787838801611c90565b94506020860135915080821115611e1d57600080fd5b50611e2a86828701611c90565b925050604084013590509250925092565b600060208284031215611e4d57600080fd5b5051919050565b6000815180845260005b81811015611e7a57602081850181015186830182015201611e5e565b506000602082860101526020601f19601f83011685010191505092915050565b602081526000611a406020830184611e54565b606081526000611ec06060830186611e54565b8281036020840152611ed28186611e54565b91505060018060a01b0383166040830152949350505050565b6020808252600d908201526c1253959053125117d253941555609a1b604082015260600190565b600060208284031215611f2457600080fd5b81518015158114611a4057600080fd5b6020808252600490820152631dd85b9d60e21b604082015260600190565b600080600060608486031215611f6757600080fd5b8351925060208401519150604084015190509250925092565b606081526000611f936060830186611e54565b8281036020840152611fa58186611e54565b915050826040830152949350505050565b634e487b7160e01b600052601160045260246000fd5b8082018082111561066757610667611fb6565b8181038181111561066757610667611fb6565b808202811582820484141761066757610667611fb6565b60008261202657634e487b7160e01b600052601260045260246000fd5b50049056fea2646970667358221220325a719a6f9252888f0045052b5e91380306cc17bad080c7b2e9bdf82a969dc064736f6c63430008110033",
  "immutableReferences": {},
  "source": "// SPDX-License-Identifier: MIT\npragma solidity >=0.6.12;\n\nimport \"@openzeppelin/contracts/utils/math/SafeMath.sol\";\nimport \"@openzeppelin/contracts/access/Ownable.sol\";\nimport \"@openzeppelin/contracts/token/ERC20/IERC20.sol\";\nimport \"@openzeppelin/contracts/security/ReentrancyGuard.sol\";\n\nimport './interfaces/IGarbiMining.sol';\nimport './interfaces/IWETH.sol';\nimport './interfaces/IETHHandleBridge.sol';\n\ncontract GarbiFarmSingleWETHBridge is ReentrancyGuard, Ownable {\n\n    using SafeMath for uint256;\n    uint256 public version = 100;\n    \n    IWETH public want; // WETH\n    \n    uint256 public PLATFORM_FEE = 25; //2.5% 25/1000\n\n    address public platformFundAddress;\n\n    IETHHandleBridge public ETHHandlerBridge;\n    IGarbiMining public miningMachine;\n\n    uint256 public pidOfMining;\n    uint256 public totalShare = 0;\n    mapping(address => uint256) public shareOf;\n\n    mapping(bytes32 => TimeLock) public timeLockOf;\n\n    uint public constant GRACE_PERIOD = 30 days;\n    uint public constant MINIMUM_DELAY = 2 days;\n    uint public constant MAXIMUM_DELAY = 30 days;\n    uint public delay;\n\n    struct TimeLock {\n        bool queuedTransactions;\n        uint256 timeOfExecute;\n        mapping(bytes32 => address) addressOf;\n        mapping(bytes32 => uint256) uintOf;\n    }\n\n    event onDeposit(address _user, uint256 _amount);\n    event onWithdraw(address _user, uint256 _amount);\n    event onEmergencyWithdraw(address _user, uint256 _amount);\n\n    event onQueuedTransactionsChangeAddress(string _functionName, string _fieldName, address _value);\n    event onQueuedTransactionsChangeUint(string _functionName, string _fieldName, uint256 _value);\n    event onCancelTransactions(string _functionName);\n\n    constructor(\n        // IGarbiMining _miningMachine,\n        IETHHandleBridge _ETHHandlerBridge,\n        IWETH _want\n        // uint256 _pidOfMining\n        ) {\n        ETHHandlerBridge = _ETHHandlerBridge;\n        want = _want;\n        // miningMachine = _miningMachine;\n        // pidOfMining = _pidOfMining;\n        platformFundAddress = _msgSender();\n    }\n\n    function setDelay(uint delay_) public onlyOwner {\n        require(delay_ >= MINIMUM_DELAY, \"Timelock::setDelay: Delay must exceed minimum delay.\");\n        require(delay_ <= MAXIMUM_DELAY, \"Timelock::setDelay: Delay must not exceed maximum delay.\");\n\n        delay = delay_;\n    }\n\n    function cancelTransactions(string memory _functionName) public onlyOwner {\n\n        TimeLock storage _timelock = timeLockOf[keccak256(abi.encode(_functionName))];\n        _timelock.queuedTransactions = false;\n\n        emit onCancelTransactions(_functionName);\n    }\n\n    function queuedTransactionsChangeAddress(string memory _functionName, string memory _fieldName, address _newAddr) public onlyOwner \n    {\n        TimeLock storage _timelock = timeLockOf[keccak256(abi.encode(_functionName))];\n\n        _timelock.addressOf[keccak256(abi.encode(_fieldName))] = _newAddr;\n        _timelock.queuedTransactions = true;\n        _timelock.timeOfExecute = block.timestamp.add(delay);\n\n        emit onQueuedTransactionsChangeAddress(_functionName, _fieldName, _newAddr);\n    }\n\n    function queuedTransactionsChangeUint(string memory _functionName, string memory _fieldName, uint256 _value) public onlyOwner \n    {\n        TimeLock storage _timelock = timeLockOf[keccak256(abi.encode(_functionName))];\n\n        _timelock.uintOf[keccak256(abi.encode(_fieldName))] = _value;\n        _timelock.queuedTransactions = true;\n        _timelock.timeOfExecute = block.timestamp.add(delay);\n\n        emit onQueuedTransactionsChangeUint(_functionName, _fieldName, _value);\n    }\n\n    function setMiningMachine() public onlyOwner \n    {\n        TimeLock storage _timelock = timeLockOf[keccak256(abi.encode('setMiningMachine'))];\n        _validateTimelock(_timelock);\n        require(_timelock.addressOf[keccak256(abi.encode('miningMachine'))] != address(0), \"INVALID_ADDRESS\");\n\n        miningMachine = IGarbiMining(_timelock.addressOf[keccak256(abi.encode('miningMachine'))]);\n        _timelock.queuedTransactions = false;\n    }\n\n    function setETHHandlerBridge() public onlyOwner \n    {\n        TimeLock storage _timelock = timeLockOf[keccak256(abi.encode('setETHHandlerBridge'))];\n        _validateTimelock(_timelock);\n        require(_timelock.addressOf[keccak256(abi.encode('  '))] != address(0), \"INVALID_ADDRESS\");\n\n        ETHHandlerBridge = IETHHandleBridge(_timelock.addressOf[keccak256(abi.encode('ETHHandlerBridge'))]);\n        _timelock.queuedTransactions = false;\n    }\n\n    function setPlatformFee(uint256 _platformFee) public onlyOwner {\n        PLATFORM_FEE = _platformFee;\n    }\n\n    function setPlatformFundAdress(address newAddress) public onlyOwner {\n        platformFundAddress = newAddress;\n    }\n\n    function changeTokenAddress() public onlyOwner\n    {\n        TimeLock storage _timelock = timeLockOf[keccak256(abi.encode('changeTokenAddress'))];\n\n        _validateTimelock(_timelock);\n    \n        if (_timelock.addressOf[keccak256(abi.encode('want'))] != address(0)) {\n            want = IWETH(_timelock.addressOf[keccak256(abi.encode('want'))]);\n            delete _timelock.addressOf[keccak256(abi.encode('want'))];\n        }\n        _timelock.queuedTransactions = false;\n    }\n\n    function setPidOfMining() public onlyOwner \n    {\n        TimeLock storage _timelock = timeLockOf[keccak256(abi.encode('setPidOfMining'))];\n        _validateTimelock(_timelock);\n        require(_timelock.uintOf[keccak256(abi.encode('pidOfMining'))] > 0, \"INVALID_AMOUNT\");\n\n        pidOfMining = _timelock.uintOf[keccak256(abi.encode('pidOfMining'))];\n        _timelock.queuedTransactions = false;\n    }\n\n    function _validateTimelock(TimeLock storage _timelock) private view\n    {\n        require(_timelock.queuedTransactions == true, \"Transaction hasn't been queued.\");\n        require(_timelock.timeOfExecute <= block.timestamp, \"Transaction hasn't surpassed time lock.\");\n        require(_timelock.timeOfExecute.add(GRACE_PERIOD) >= block.timestamp, \"Transaction is stale.\");\n    }\n\n    function deposit(uint256 _wantAmt) external nonReentrant \n    {\n        require(_wantAmt > 0, 'INVALID_INPUT');\n        require(want.balanceOf(msg.sender) >= _wantAmt, 'INVALID_INPUT');\n\n        // harvest(msg.sender);\n    \twant.transferFrom(msg.sender, address(this), _wantAmt);\n\n        uint256 platformFee = _wantAmt.mul(PLATFORM_FEE).div(1000);\n        want.transfer(platformFundAddress, platformFee);\n\n        uint256 _wantAmtAfterFee = _wantAmt.sub(platformFee);\n\n        // unWrap weth to eth\n        want.withdrawTo(address(ETHHandlerBridge), _wantAmtAfterFee);\n\n        // transfer eth from this to ETHHandlerBridge contract\n        // payable(address(ETHHandlerBridge)).transfer(_wantAmtAfterFee);\n\n        shareOf[msg.sender] = shareOf[msg.sender].add(_wantAmtAfterFee);\n        totalShare = totalShare.add(_wantAmtAfterFee);\n        // miningMachine.updateUser(pidOfMining, msg.sender);\n        emit onDeposit(msg.sender, _wantAmt);\n\n    }\n    function withdraw(uint256 _wantAmt) external nonReentrant \n    {\n        require(_wantAmt > 0, 'INVALID_INPUT');   \n        // harvest(msg.sender);\n\n        uint256 _share = shareOf[msg.sender];\n        require(_share >= _wantAmt, 'INVALID_AMOUNT_WITHDRAW');\n\n        shareOf[msg.sender] = shareOf[msg.sender].sub(_wantAmt);\n        totalShare = totalShare.sub(_wantAmt);\n\n        // withdraw eth from ethHandle to this.\n        ETHHandlerBridge.withdraw(_wantAmt);\n\n        // wrap eth to weth\n        want.deposit{value: _wantAmt}();\n\n        uint256 _wantBal = want.balanceOf(address(this)); \n        if (_wantBal < _wantAmt) {\n            _wantAmt = _wantBal;\n        }\n        want.transfer(msg.sender, _wantAmt);\n        \n        // miningMachine.updateUser(pidOfMining, msg.sender);\n\n        emit onWithdraw(msg.sender, _wantAmt);\n    }\n    // Withdraw without caring about rewards. EMERGENCY ONLY.\n    function emergencyWithdraw() public \n    {\n        uint256 _share = shareOf[msg.sender];\n        require(_share > 0, 'INVALID_AMOUNT');\n\n        shareOf[msg.sender] = 0;\n        totalShare = totalShare.sub(_share);\n        uint256 _wantBal = want.balanceOf(address(this));\n        if (_wantBal < _share) {\n            _share = _wantBal;\n        }\n\n        want.transfer(msg.sender, _share);\n\n        emit onEmergencyWithdraw(msg.sender, _share);\n    }\n\n    function harvest(address _user) public returns(uint256 _pendingVeGRB) { \n        return miningMachine.harvest(pidOfMining, _user);\n    }\n\n    function getData(\n        address _user\n    ) \n    public \n    view\n    returns(\n        uint256 miningSpeed_,\n        uint256 userWantBal_, \n        uint256 totalMintPerDay_, \n        uint256 userETHBal_, \n        uint256 userGRBPending_, \n        uint256 userWantShare_,\n        uint256 tvl_\n    ) {\n        userWantBal_ = want.balanceOf(_user);\n        totalMintPerDay_ = miningMachine.getTotalMintPerDayOf(pidOfMining);\n\n        miningSpeed_ = miningMachine.getMiningSpeedOf(pidOfMining);\n        userETHBal_ = address(_user).balance;\n        (userGRBPending_, , ) = miningMachine.getUserInfo(pidOfMining, _user);\n        userWantShare_ = shareOf[_user];\n        tvl_ = totalShare;\n    } \n\n    receive() external payable {}\n\n}",
  "sourcePath": "/Applications/projects/garbiprotocol.github.io/garbi_contracts/contracts/GarbiFarmSingleWETHBridge.sol",
  "compiler": {
    "name": "solc",
    "version": "0.8.17+commit.8df45f5f.Emscripten.clang"
  },
  "schemaVersion": "3.4.11",
  "updatedAt": "2023-06-05T09:52:52.320Z",
  "networkType": "ethereum",
  "devdoc": {
    "kind": "dev",
    "methods": {
      "owner()": {
        "details": "Returns the address of the current owner."
      },
      "renounceOwnership()": {
        "details": "Leaves the contract without owner. It will not be possible to call `onlyOwner` functions. Can only be called by the current owner. NOTE: Renouncing ownership will leave the contract without an owner, thereby disabling any functionality that is only available to the owner."
      },
      "transferOwnership(address)": {
        "details": "Transfers ownership of the contract to a new account (`newOwner`). Can only be called by the current owner."
      }
    },
    "version": 1
  },
  "userdoc": {
    "kind": "user",
    "methods": {},
    "version": 1
  }
}