{
  "contractName": "GarbiStakeGRB",
  "abi": [
    {
      "inputs": [
        {
          "internalType": "contract IGarbiMining",
          "name": "_miningMachine",
          "type": "address"
        },
        {
          "internalType": "contract IERC20",
          "name": "_want",
          "type": "address"
        },
        {
          "internalType": "uint256",
          "name": "_pidOfMining",
          "type": "uint256"
        },
        {
          "internalType": "uint256",
          "name": "_blockToUnlock",
          "type": "uint256"
        }
      ],
      "stateMutability": "nonpayable",
      "type": "constructor"
    },
    {
      "anonymous": false,
      "inputs": [
        {
          "indexed": true,
          "internalType": "address",
          "name": "previousOwner",
          "type": "address"
        },
        {
          "indexed": true,
          "internalType": "address",
          "name": "newOwner",
          "type": "address"
        }
      ],
      "name": "OwnershipTransferred",
      "type": "event"
    },
    {
      "anonymous": false,
      "inputs": [
        {
          "indexed": false,
          "internalType": "string",
          "name": "_functionName",
          "type": "string"
        }
      ],
      "name": "onCancelTransactions",
      "type": "event"
    },
    {
      "anonymous": false,
      "inputs": [
        {
          "indexed": false,
          "internalType": "address",
          "name": "_user",
          "type": "address"
        },
        {
          "indexed": false,
          "internalType": "uint256",
          "name": "_amount",
          "type": "uint256"
        }
      ],
      "name": "onDeposit",
      "type": "event"
    },
    {
      "anonymous": false,
      "inputs": [
        {
          "indexed": false,
          "internalType": "address",
          "name": "_user",
          "type": "address"
        },
        {
          "indexed": false,
          "internalType": "uint256",
          "name": "_amount",
          "type": "uint256"
        }
      ],
      "name": "onEmergencyWithdraw",
      "type": "event"
    },
    {
      "anonymous": false,
      "inputs": [
        {
          "indexed": false,
          "internalType": "string",
          "name": "_functionName",
          "type": "string"
        },
        {
          "indexed": false,
          "internalType": "string",
          "name": "_fieldName",
          "type": "string"
        },
        {
          "indexed": false,
          "internalType": "address",
          "name": "_value",
          "type": "address"
        }
      ],
      "name": "onQueuedTransactionsChangeAddress",
      "type": "event"
    },
    {
      "anonymous": false,
      "inputs": [
        {
          "indexed": false,
          "internalType": "string",
          "name": "_functionName",
          "type": "string"
        },
        {
          "indexed": false,
          "internalType": "string",
          "name": "_fieldName",
          "type": "string"
        },
        {
          "indexed": false,
          "internalType": "uint256",
          "name": "_value",
          "type": "uint256"
        }
      ],
      "name": "onQueuedTransactionsChangeUint",
      "type": "event"
    },
    {
      "anonymous": false,
      "inputs": [
        {
          "indexed": false,
          "internalType": "address",
          "name": "_user",
          "type": "address"
        },
        {
          "indexed": false,
          "internalType": "uint256",
          "name": "_amount",
          "type": "uint256"
        }
      ],
      "name": "onWithdraw",
      "type": "event"
    },
    {
      "inputs": [],
      "name": "BLOCK_TO_UNLOCK",
      "outputs": [
        {
          "internalType": "uint256",
          "name": "",
          "type": "uint256"
        }
      ],
      "stateMutability": "view",
      "type": "function"
    },
    {
      "inputs": [],
      "name": "GRACE_PERIOD",
      "outputs": [
        {
          "internalType": "uint256",
          "name": "",
          "type": "uint256"
        }
      ],
      "stateMutability": "view",
      "type": "function"
    },
    {
      "inputs": [],
      "name": "MAXIMUM_DELAY",
      "outputs": [
        {
          "internalType": "uint256",
          "name": "",
          "type": "uint256"
        }
      ],
      "stateMutability": "view",
      "type": "function"
    },
    {
      "inputs": [],
      "name": "MINIMUM_DELAY",
      "outputs": [
        {
          "internalType": "uint256",
          "name": "",
          "type": "uint256"
        }
      ],
      "stateMutability": "view",
      "type": "function"
    },
    {
      "inputs": [],
      "name": "PLATFORM_FEE",
      "outputs": [
        {
          "internalType": "uint256",
          "name": "",
          "type": "uint256"
        }
      ],
      "stateMutability": "view",
      "type": "function"
    },
    {
      "inputs": [],
      "name": "delay",
      "outputs": [
        {
          "internalType": "uint256",
          "name": "",
          "type": "uint256"
        }
      ],
      "stateMutability": "view",
      "type": "function"
    },
    {
      "inputs": [],
      "name": "miningMachine",
      "outputs": [
        {
          "internalType": "contract IGarbiMining",
          "name": "",
          "type": "address"
        }
      ],
      "stateMutability": "view",
      "type": "function"
    },
    {
      "inputs": [],
      "name": "owner",
      "outputs": [
        {
          "internalType": "address",
          "name": "",
          "type": "address"
        }
      ],
      "stateMutability": "view",
      "type": "function"
    },
    {
      "inputs": [],
      "name": "pidOfMining",
      "outputs": [
        {
          "internalType": "uint256",
          "name": "",
          "type": "uint256"
        }
      ],
      "stateMutability": "view",
      "type": "function"
    },
    {
      "inputs": [],
      "name": "platformFundAddress",
      "outputs": [
        {
          "internalType": "address",
          "name": "",
          "type": "address"
        }
      ],
      "stateMutability": "view",
      "type": "function"
    },
    {
      "inputs": [],
      "name": "renounceOwnership",
      "outputs": [],
      "stateMutability": "nonpayable",
      "type": "function"
    },
    {
      "inputs": [
        {
          "internalType": "address",
          "name": "",
          "type": "address"
        }
      ],
      "name": "shareOf",
      "outputs": [
        {
          "internalType": "uint256",
          "name": "",
          "type": "uint256"
        }
      ],
      "stateMutability": "view",
      "type": "function"
    },
    {
      "inputs": [
        {
          "internalType": "bytes32",
          "name": "",
          "type": "bytes32"
        }
      ],
      "name": "timeLockOf",
      "outputs": [
        {
          "internalType": "bool",
          "name": "queuedTransactions",
          "type": "bool"
        },
        {
          "internalType": "uint256",
          "name": "timeOfExecute",
          "type": "uint256"
        }
      ],
      "stateMutability": "view",
      "type": "function"
    },
    {
      "inputs": [],
      "name": "totalShare",
      "outputs": [
        {
          "internalType": "uint256",
          "name": "",
          "type": "uint256"
        }
      ],
      "stateMutability": "view",
      "type": "function"
    },
    {
      "inputs": [
        {
          "internalType": "address",
          "name": "newOwner",
          "type": "address"
        }
      ],
      "name": "transferOwnership",
      "outputs": [],
      "stateMutability": "nonpayable",
      "type": "function"
    },
    {
      "inputs": [],
      "name": "want",
      "outputs": [
        {
          "internalType": "contract IERC20",
          "name": "",
          "type": "address"
        }
      ],
      "stateMutability": "view",
      "type": "function"
    },
    {
      "inputs": [
        {
          "internalType": "address",
          "name": "",
          "type": "address"
        }
      ],
      "name": "withdrawalAvailabilityBlock",
      "outputs": [
        {
          "internalType": "uint256",
          "name": "",
          "type": "uint256"
        }
      ],
      "stateMutability": "view",
      "type": "function"
    },
    {
      "inputs": [
        {
          "internalType": "uint256",
          "name": "delay_",
          "type": "uint256"
        }
      ],
      "name": "setDelay",
      "outputs": [],
      "stateMutability": "nonpayable",
      "type": "function"
    },
    {
      "inputs": [
        {
          "internalType": "string",
          "name": "_functionName",
          "type": "string"
        }
      ],
      "name": "cancelTransactions",
      "outputs": [],
      "stateMutability": "nonpayable",
      "type": "function"
    },
    {
      "inputs": [
        {
          "internalType": "string",
          "name": "_functionName",
          "type": "string"
        },
        {
          "internalType": "string",
          "name": "_fieldName",
          "type": "string"
        },
        {
          "internalType": "address",
          "name": "_newAddr",
          "type": "address"
        }
      ],
      "name": "queuedTransactionsChangeAddress",
      "outputs": [],
      "stateMutability": "nonpayable",
      "type": "function"
    },
    {
      "inputs": [
        {
          "internalType": "string",
          "name": "_functionName",
          "type": "string"
        },
        {
          "internalType": "string",
          "name": "_fieldName",
          "type": "string"
        },
        {
          "internalType": "uint256",
          "name": "_value",
          "type": "uint256"
        }
      ],
      "name": "queuedTransactionsChangeUint",
      "outputs": [],
      "stateMutability": "nonpayable",
      "type": "function"
    },
    {
      "inputs": [],
      "name": "setMiningMachine",
      "outputs": [],
      "stateMutability": "nonpayable",
      "type": "function"
    },
    {
      "inputs": [
        {
          "internalType": "uint256",
          "name": "_blockToUnlock",
          "type": "uint256"
        }
      ],
      "name": "setBlockToUnlock",
      "outputs": [],
      "stateMutability": "nonpayable",
      "type": "function"
    },
    {
      "inputs": [
        {
          "internalType": "uint256",
          "name": "_platformFee",
          "type": "uint256"
        }
      ],
      "name": "setPlatformFee",
      "outputs": [],
      "stateMutability": "nonpayable",
      "type": "function"
    },
    {
      "inputs": [
        {
          "internalType": "address",
          "name": "newAddress",
          "type": "address"
        }
      ],
      "name": "setPlatformFundAdress",
      "outputs": [],
      "stateMutability": "nonpayable",
      "type": "function"
    },
    {
      "inputs": [],
      "name": "changeTokenAddress",
      "outputs": [],
      "stateMutability": "nonpayable",
      "type": "function"
    },
    {
      "inputs": [],
      "name": "setPidOfMining",
      "outputs": [],
      "stateMutability": "nonpayable",
      "type": "function"
    },
    {
      "inputs": [
        {
          "internalType": "uint256",
          "name": "_wantAmt",
          "type": "uint256"
        }
      ],
      "name": "deposit",
      "outputs": [],
      "stateMutability": "nonpayable",
      "type": "function"
    },
    {
      "inputs": [
        {
          "internalType": "uint256",
          "name": "_wantAmt",
          "type": "uint256"
        }
      ],
      "name": "withdraw",
      "outputs": [],
      "stateMutability": "nonpayable",
      "type": "function"
    },
    {
      "inputs": [
        {
          "internalType": "address",
          "name": "_user",
          "type": "address"
        }
      ],
      "name": "harvest",
      "outputs": [
        {
          "internalType": "uint256",
          "name": "_pendingVeGRB",
          "type": "uint256"
        }
      ],
      "stateMutability": "nonpayable",
      "type": "function"
    },
    {
      "inputs": [
        {
          "internalType": "address",
          "name": "_user",
          "type": "address"
        }
      ],
      "name": "getData",
      "outputs": [
        {
          "internalType": "uint256",
          "name": "miningSpeed_",
          "type": "uint256"
        },
        {
          "internalType": "uint256",
          "name": "userWantBal_",
          "type": "uint256"
        },
        {
          "internalType": "uint256",
          "name": "totalMintPerDay_",
          "type": "uint256"
        },
        {
          "internalType": "uint256",
          "name": "userETHBal_",
          "type": "uint256"
        },
        {
          "internalType": "uint256",
          "name": "userVeGRBPending_",
          "type": "uint256"
        },
        {
          "internalType": "uint256",
          "name": "userWantShare_",
          "type": "uint256"
        },
        {
          "internalType": "uint256",
          "name": "tvl_",
          "type": "uint256"
        },
        {
          "internalType": "uint256",
          "name": "userWithdrawalTime",
          "type": "uint256"
        },
        {
          "internalType": "uint256",
          "name": "blockNow",
          "type": "uint256"
        }
      ],
      "stateMutability": "view",
      "type": "function"
    }
  ],
  "bytecode": "0x60806040526000600355600060045560006008553480156200002057600080fd5b5060405162001d6938038062001d6983398101604081905262000043916200012b565b60016000556200005333620000c0565b600280546001600160a01b038086166001600160a01b031992831617909255600680549287169290911691909117905560078290556003819055620000953390565b600580546001600160a01b0319166001600160a01b0392909216919091179055506200017892505050565b600180546001600160a01b038381166001600160a01b0319831681179093556040519116919082907f8be0079c531659141344cd1fd0a4f28419497f9722a3daafe3b4186f6b6457e090600090a35050565b6001600160a01b03811681146200012857600080fd5b50565b600080600080608085870312156200014257600080fd5b84516200014f8162000112565b6020860151909450620001628162000112565b6040860151606090960151949790965092505050565b611be180620001886000396000f3fe608060405234801561001057600080fd5b50600436106101e55760003560e01c80638da5cb5b1161010f578063bbc32c3e116100a2578063d8e82eab11610071578063d8e82eab14610436578063e177246e1461043f578063f2fde38b14610452578063f47a396f1461046557600080fd5b8063bbc32c3e146103fb578063bce645db1461041b578063c1a287e21461035c578063d1b8a3b51461042e57600080fd5b80639fa5e63e116100de5780639fa5e63e146103b8578063add3df26146103cb578063b1b43ae5146103de578063b6b55f25146103e857600080fd5b80638da5cb5b146103795780638ecc676f1461038a5780638fe6041d146103925780639312dc5f146103a557600080fd5b806332009eda116101875780636edc28fd116101565780636edc28fd14610310578063715018a6146103545780637d645fab1461035c5780638cac8f031461036657600080fd5b806332009eda1461029f57806334fbc9a1146102a757806338266b22146102b05780636a42b8f81461030757600080fd5b806314ca81ed116101c357806314ca81ed1461022e5780631f1fcd511461024157806321e5e2c41461026c5780632e1a7d4d1461028c57600080fd5b8063026c4207146101ea5780630e5c011e1461020657806312e8e2c314610219575b600080fd5b6101f360085481565b6040519081526020015b60405180910390f35b6101f36102143660046117c6565b61046e565b61022c6102273660046117e1565b6104f0565b005b61022c61023c36600461189d565b6104fd565b600254610254906001600160a01b031681565b6040516001600160a01b0390911681526020016101fd565b6101f361027a3660046117c6565b60096020526000908152604090205481565b61022c61029a3660046117e1565b6105fd565b61022c61089d565b6101f360045481565b6102c36102be3660046117c6565b610a12565b60408051998a5260208a0198909852968801959095526060870193909352608086019190915260a085015260c084015260e0830152610100820152610120016101fd565b6101f3600c5481565b61033d61031e3660046117e1565b600b602052600090815260409020805460019091015460ff9091169082565b6040805192151583526020830191909152016101fd565b61022c610c39565b6101f362278d0081565b61022c610374366004611911565b610c4d565b6001546001600160a01b0316610254565b61022c610cd8565b61022c6103a03660046117c6565b610e7f565b61022c6103b336600461194e565b610ea9565b600554610254906001600160a01b031681565b61022c6103d93660046117e1565b610f7e565b6101f36202a30081565b61022c6103f63660046117e1565b610f8b565b6101f36104093660046117c6565b600a6020526000908152604090205481565b600654610254906001600160a01b031681565b61022c61127d565b6101f360035481565b61022c61044d3660046117e1565b6113ee565b61022c6104603660046117c6565b6114e4565b6101f360075481565b600654600754604051630c7e663b60e11b815260048101919091526001600160a01b03838116602483015260009216906318fccc76906044016020604051808303816000875af11580156104c6573d6000803e3d6000fd5b505050506040513d601f19601f820116820180604052508101906104ea91906119bb565b92915050565b6104f861155a565b600455565b61050561155a565b6000600b60008560405160200161051c9190611a1a565b6040516020818303038152906040528051906020012081526020019081526020016000209050818160020160008560405160200161055a9190611a1a565b60408051808303601f1901815291815281516020928301208352908201929092520160002080546001600160a01b0319166001600160a01b0392909216919091179055805460ff19166001178155600c546105b69042906115b4565b60018201556040517f1bd33efd68d2824f5f0f2519ce7c9ca0ddff6234523468e89077a0dca7b73970906105ef90869086908690611a2d565b60405180910390a150505050565b6106056115c7565b336000908152600a60205260409020544310156106695760405162461bcd60e51b815260206004820152601760248201527f494e56414c49445f424c4f434b5f544f5f554e4c4f434b00000000000000000060448201526064015b60405180910390fd5b600081116106895760405162461bcd60e51b815260040161066090611a6b565b6106923361046e565b5033600090815260096020526040902054808211156106af578091505b6002546040516370a0823160e01b81523060048201526000916001600160a01b0316906370a0823190602401602060405180830381865afa1580156106f8573d6000803e3d6000fd5b505050506040513d601f19601f8201168201806040525081019061071c91906119bb565b90508281101561072a578092505b336000908152600960205260409020546107449084611620565b336000908152600960205260409020556008546107619084611620565b60085560025460405163a9059cbb60e01b8152336004820152602481018590526001600160a01b039091169063a9059cbb906044016020604051808303816000875af11580156107b5573d6000803e3d6000fd5b505050506040513d601f19601f820116820180604052508101906107d99190611a92565b50600654600754604051638fb4e1cd60e01b815260048101919091523360248201526001600160a01b0390911690638fb4e1cd906044016020604051808303816000875af115801561082f573d6000803e3d6000fd5b505050506040513d601f19601f820116820180604052508101906108539190611a92565b5060408051338152602081018590527fccad973dcd043c7d680389db4378bd6b9775db7124092e9e0422c9e46d7985dc91015b60405180910390a1505061089a6001600055565b50565b6108a561155a565b6000600b60006040516020016108e1906020808252601290820152716368616e6765546f6b656e4164647265737360701b604082015260600190565b60405160208183030381529060405280519060200120815260200190815260200160002090506109108161162c565b60006001600160a01b031681600201600060405160200161093090611ab4565b60408051601f19818403018152918152815160209283012083529082019290925201600020546001600160a01b031614610a085780600201600060405160200161097990611ab4565b60408051601f198184030181529181528151602092830120835282820193909352908201600090812054600280546001600160a01b0319166001600160a01b0390921691909117815592519284019290916109d49101611ab4565b60408051601f1981840301815291815281516020928301208352908201929092520160002080546001600160a01b03191690555b805460ff19169055565b6002546040516370a0823160e01b81526001600160a01b03838116600483015260009283928392839283928392839283928392909116906370a0823190602401602060405180830381865afa158015610a6f573d6000803e3d6000fd5b505050506040513d601f19601f82011682018060405250810190610a9391906119bb565b600654600754604051635e86cd9560e01b815260048101919091529199506001600160a01b031690635e86cd9590602401602060405180830381865afa158015610ae1573d6000803e3d6000fd5b505050506040513d601f19601f82011682018060405250810190610b0591906119bb565b6006546007546040516324aa7cc560e11b815260048101919091529198506001600160a01b031690634954f98a90602401602060405180830381865afa158015610b53573d6000803e3d6000fd5b505050506040513d601f19601f82011682018060405250810190610b7791906119bb565b600654600754604051631069f3b560e01b815260048101919091526001600160a01b038d811660248301819052939c5092319850911690631069f3b590604401606060405180830381865afa158015610bd4573d6000803e3d6000fd5b505050506040513d601f19601f82011682018060405250810190610bf89190611ad2565b50506001600160a01b03909a16600090815260096020908152604080832054600854600a9093529220549a9c999b989a979991979096509450439350915050565b610c4161155a565b610c4b6000611740565b565b610c5561155a565b6000600b600083604051602001610c6c9190611a1a565b60408051601f1981840301815291815281516020928301208352908201929092528101600020805460ff1916815590519091507fce369f91d52b663114643c430217b52530c2cc7318cac7a3e9d46241cbc354a890610ccc908490611a1a565b60405180910390a15050565b610ce061155a565b6000600b6000604051602001610d1a9060208082526010908201526f7365744d696e696e674d616368696e6560801b604082015260600190565b6040516020818303038152906040528051906020012081526020019081526020016000209050610d498161162c565b60006001600160a01b0316816002016000604051602001610d8b906020808252600d908201526c6d696e696e674d616368696e6560981b604082015260600190565b60408051601f19818403018152918152815160209283012083529082019290925201600020546001600160a01b031603610df95760405162461bcd60e51b815260206004820152600f60248201526e494e56414c49445f4144445245535360881b6044820152606401610660565b806002016000604051602001610e30906020808252600d908201526c6d696e696e674d616368696e6560981b604082015260600190565b60408051601f1981840301815291815281516020928301208352908201929092520160002054600680546001600160a01b0319166001600160a01b03909216919091179055805460ff19169055565b610e8761155a565b600580546001600160a01b0319166001600160a01b0392909216919091179055565b610eb161155a565b6000600b600085604051602001610ec89190611a1a565b60405160208183030381529060405280519060200120815260200190815260200160002090508181600301600085604051602001610f069190611a1a565b60408051601f1981840301815291815281516020928301208352908201929092520160002055805460ff19166001178155600c54610f459042906115b4565b60018201556040517f860699cc7b0f3cb3d034fd31cdfe0816887a9f55d10993224d77c359c3d55551906105ef90869086908690611b00565b610f8661155a565b600355565b610f936115c7565b60008111610fb35760405162461bcd60e51b815260040161066090611a6b565b6002546040516370a0823160e01b815233600482015282916001600160a01b0316906370a0823190602401602060405180830381865afa158015610ffb573d6000803e3d6000fd5b505050506040513d601f19601f8201168201806040525081019061101f91906119bb565b101561103d5760405162461bcd60e51b815260040161066090611a6b565b6110463361046e565b506002546040516323b872dd60e01b8152336004820152306024820152604481018390526001600160a01b03909116906323b872dd906064016020604051808303816000875af115801561109e573d6000803e3d6000fd5b505050506040513d601f19601f820116820180604052508101906110c29190611a92565b5060006110e66103e86110e06004548561179290919063ffffffff16565b9061179e565b60025460055460405163a9059cbb60e01b81526001600160a01b03918216600482015260248101849052929350169063a9059cbb906044016020604051808303816000875af115801561113d573d6000803e3d6000fd5b505050506040513d601f19601f820116820180604052508101906111619190611a92565b50600061116e8383611620565b3360009081526009602052604090205490915061118b90826115b4565b336000908152600960205260409020556008546111a890826115b4565b6008556003546111b99043906115b4565b336000818152600a602052604090819020929092556006546007549251638fb4e1cd60e01b8152600481019390935260248301919091526001600160a01b031690638fb4e1cd906044016020604051808303816000875af1158015611222573d6000803e3d6000fd5b505050506040513d601f19601f820116820180604052508101906112469190611a92565b5060408051338152602081018590527f2bf9518c65eff7d1f3ee4106bf0dc41267ccde0924dbfa4ab476ed5c0f45da989101610886565b61128561155a565b6000600b60006040516020016112bd906020808252600e908201526d7365745069644f664d696e696e6760901b604082015260600190565b60405160208183030381529060405280519060200120815260200190815260200160002090506112ec8161162c565b6000816003016000604051602001611323906020808252600b908201526a7069644f664d696e696e6760a81b604082015260600190565b60405160208183030381529060405280519060200120815260200190815260200160002054116113865760405162461bcd60e51b815260206004820152600e60248201526d1253959053125117d05353d5539560921b6044820152606401610660565b8060030160006040516020016113bb906020808252600b908201526a7069644f664d696e696e6760a81b604082015260600190565b60408051601f1981840301815291815281516020928301208352908201929092520160002054600755805460ff19169055565b6113f661155a565b6202a3008110156114665760405162461bcd60e51b815260206004820152603460248201527f54696d656c6f636b3a3a73657444656c61793a2044656c6179206d75737420656044820152733c31b2b2b21036b4b734b6bab6903232b630bc9760611b6064820152608401610660565b62278d008111156114df5760405162461bcd60e51b815260206004820152603860248201527f54696d656c6f636b3a3a73657444656c61793a2044656c6179206d757374206e60448201527f6f7420657863656564206d6178696d756d2064656c61792e00000000000000006064820152608401610660565b600c55565b6114ec61155a565b6001600160a01b0381166115515760405162461bcd60e51b815260206004820152602660248201527f4f776e61626c653a206e6577206f776e657220697320746865207a65726f206160448201526564647265737360d01b6064820152608401610660565b61089a81611740565b6001546001600160a01b03163314610c4b5760405162461bcd60e51b815260206004820181905260248201527f4f776e61626c653a2063616c6c6572206973206e6f7420746865206f776e65726044820152606401610660565b60006115c08284611b4c565b9392505050565b6002600054036116195760405162461bcd60e51b815260206004820152601f60248201527f5265656e7472616e637947756172643a207265656e7472616e742063616c6c006044820152606401610660565b6002600055565b60006115c08284611b5f565b805460ff1615156001146116825760405162461bcd60e51b815260206004820152601f60248201527f5472616e73616374696f6e206861736e2774206265656e207175657565642e006044820152606401610660565b42816001015411156116e65760405162461bcd60e51b815260206004820152602760248201527f5472616e73616374696f6e206861736e2774207375727061737365642074696d60448201526632903637b1b59760c91b6064820152608401610660565b600181015442906116fa9062278d006115b4565b101561089a5760405162461bcd60e51b81526020600482015260156024820152742a3930b739b0b1ba34b7b71034b99039ba30b6329760591b6044820152606401610660565b600180546001600160a01b038381166001600160a01b0319831681179093556040519116919082907f8be0079c531659141344cd1fd0a4f28419497f9722a3daafe3b4186f6b6457e090600090a35050565b60006115c08284611b72565b60006115c08284611b89565b80356001600160a01b03811681146117c157600080fd5b919050565b6000602082840312156117d857600080fd5b6115c0826117aa565b6000602082840312156117f357600080fd5b5035919050565b634e487b7160e01b600052604160045260246000fd5b600082601f83011261182157600080fd5b813567ffffffffffffffff8082111561183c5761183c6117fa565b604051601f8301601f19908116603f01168101908282118183101715611864576118646117fa565b8160405283815286602085880101111561187d57600080fd5b836020870160208301376000602085830101528094505050505092915050565b6000806000606084860312156118b257600080fd5b833567ffffffffffffffff808211156118ca57600080fd5b6118d687838801611810565b945060208601359150808211156118ec57600080fd5b506118f986828701611810565b925050611908604085016117aa565b90509250925092565b60006020828403121561192357600080fd5b813567ffffffffffffffff81111561193a57600080fd5b61194684828501611810565b949350505050565b60008060006060848603121561196357600080fd5b833567ffffffffffffffff8082111561197b57600080fd5b61198787838801611810565b9450602086013591508082111561199d57600080fd5b506119aa86828701611810565b925050604084013590509250925092565b6000602082840312156119cd57600080fd5b5051919050565b6000815180845260005b818110156119fa576020818501810151868301820152016119de565b506000602082860101526020601f19601f83011685010191505092915050565b6020815260006115c060208301846119d4565b606081526000611a4060608301866119d4565b8281036020840152611a5281866119d4565b91505060018060a01b0383166040830152949350505050565b6020808252600d908201526c1253959053125117d253941555609a1b604082015260600190565b600060208284031215611aa457600080fd5b815180151581146115c057600080fd5b6020808252600490820152631dd85b9d60e21b604082015260600190565b600080600060608486031215611ae757600080fd5b8351925060208401519150604084015190509250925092565b606081526000611b1360608301866119d4565b8281036020840152611b2581866119d4565b915050826040830152949350505050565b634e487b7160e01b600052601160045260246000fd5b808201808211156104ea576104ea611b36565b818103818111156104ea576104ea611b36565b80820281158282048414176104ea576104ea611b36565b600082611ba657634e487b7160e01b600052601260045260246000fd5b50049056fea2646970667358221220b0ff768bfecbc27b747bbd14e73235c2e81496871ac78a58f766142c67cff6a964736f6c63430008110033",
  "immutableReferences": {},
  "source": "// SPDX-License-Identifier: MIT\npragma solidity >=0.6.12;\n\nimport \"@openzeppelin/contracts/utils/math/SafeMath.sol\";\nimport \"@openzeppelin/contracts/access/Ownable.sol\";\nimport \"@openzeppelin/contracts/token/ERC20/IERC20.sol\";\nimport \"@openzeppelin/contracts/security/ReentrancyGuard.sol\";\n\nimport './interfaces/IGarbiMining.sol';\n\ncontract GarbiStakeGRB is ReentrancyGuard, Ownable {\n\n    using SafeMath for uint256;\n    \n    IERC20 public want; // GRB\n\n    uint256 public BLOCK_TO_UNLOCK = 0;\n    \n    uint256 public PLATFORM_FEE = 0; //0% 0/1000\n\n    address public platformFundAddress;\n\n    IGarbiMining public miningMachine;\n\n    uint256 public pidOfMining;\n    uint256 public totalShare = 0;\n    mapping(address => uint256) public shareOf;\n\n    mapping(address => uint256) public withdrawalAvailabilityBlock;\n\n    mapping(bytes32 => TimeLock) public timeLockOf;\n\n    uint public constant GRACE_PERIOD = 30 days;\n    uint public constant MINIMUM_DELAY = 2 days;\n    uint public constant MAXIMUM_DELAY = 30 days;\n    uint public delay;\n\n    struct TimeLock {\n        bool queuedTransactions;\n        uint256 timeOfExecute;\n        mapping(bytes32 => address) addressOf;\n        mapping(bytes32 => uint256) uintOf;\n    }\n\n    event onDeposit(address _user, uint256 _amount);\n    event onWithdraw(address _user, uint256 _amount);\n    event onEmergencyWithdraw(address _user, uint256 _amount);\n\n    event onQueuedTransactionsChangeAddress(string _functionName, string _fieldName, address _value);\n    event onQueuedTransactionsChangeUint(string _functionName, string _fieldName, uint256 _value);\n    event onCancelTransactions(string _functionName);\n\n    constructor(\n        IGarbiMining _miningMachine,\n        IERC20 _want,\n        uint256 _pidOfMining,\n        uint256 _blockToUnlock\n        ) {\n        want = _want;\n        miningMachine = _miningMachine;\n        pidOfMining = _pidOfMining;\n        BLOCK_TO_UNLOCK = _blockToUnlock;\n        platformFundAddress = _msgSender();\n    }\n\n    function setDelay(uint delay_) public onlyOwner {\n        require(delay_ >= MINIMUM_DELAY, \"Timelock::setDelay: Delay must exceed minimum delay.\");\n        require(delay_ <= MAXIMUM_DELAY, \"Timelock::setDelay: Delay must not exceed maximum delay.\");\n\n        delay = delay_;\n    }\n\n    function cancelTransactions(string memory _functionName) public onlyOwner {\n\n        TimeLock storage _timelock = timeLockOf[keccak256(abi.encode(_functionName))];\n        _timelock.queuedTransactions = false;\n\n        emit onCancelTransactions(_functionName);\n    }\n\n    function queuedTransactionsChangeAddress(string memory _functionName, string memory _fieldName, address _newAddr) public onlyOwner \n    {\n        TimeLock storage _timelock = timeLockOf[keccak256(abi.encode(_functionName))];\n\n        _timelock.addressOf[keccak256(abi.encode(_fieldName))] = _newAddr;\n        _timelock.queuedTransactions = true;\n        _timelock.timeOfExecute = block.timestamp.add(delay);\n\n        emit onQueuedTransactionsChangeAddress(_functionName, _fieldName, _newAddr);\n    }\n\n    function queuedTransactionsChangeUint(string memory _functionName, string memory _fieldName, uint256 _value) public onlyOwner \n    {\n        TimeLock storage _timelock = timeLockOf[keccak256(abi.encode(_functionName))];\n\n        _timelock.uintOf[keccak256(abi.encode(_fieldName))] = _value;\n        _timelock.queuedTransactions = true;\n        _timelock.timeOfExecute = block.timestamp.add(delay);\n\n        emit onQueuedTransactionsChangeUint(_functionName, _fieldName, _value);\n    }\n\n    function setMiningMachine() public onlyOwner \n    {\n        TimeLock storage _timelock = timeLockOf[keccak256(abi.encode('setMiningMachine'))];\n        _validateTimelock(_timelock);\n        require(_timelock.addressOf[keccak256(abi.encode('miningMachine'))] != address(0), \"INVALID_ADDRESS\");\n\n        miningMachine = IGarbiMining(_timelock.addressOf[keccak256(abi.encode('miningMachine'))]);\n        _timelock.queuedTransactions = false;\n    }\n\n    function setBlockToUnlock(uint256 _blockToUnlock) public onlyOwner {\n        BLOCK_TO_UNLOCK = _blockToUnlock;\n    }\n\n    function setPlatformFee(uint256 _platformFee) public onlyOwner {\n        PLATFORM_FEE = _platformFee;\n    }\n\n    function setPlatformFundAdress(address newAddress) public onlyOwner {\n        platformFundAddress = newAddress;\n    }\n\n    function changeTokenAddress() public onlyOwner\n    {\n        TimeLock storage _timelock = timeLockOf[keccak256(abi.encode('changeTokenAddress'))];\n\n        _validateTimelock(_timelock);\n    \n        if (_timelock.addressOf[keccak256(abi.encode('want'))] != address(0)) {\n            want = IERC20(_timelock.addressOf[keccak256(abi.encode('want'))]);\n            delete _timelock.addressOf[keccak256(abi.encode('want'))];\n        }\n        _timelock.queuedTransactions = false;\n    }\n\n    function setPidOfMining() public onlyOwner \n    {\n        TimeLock storage _timelock = timeLockOf[keccak256(abi.encode('setPidOfMining'))];\n        _validateTimelock(_timelock);\n        require(_timelock.uintOf[keccak256(abi.encode('pidOfMining'))] > 0, \"INVALID_AMOUNT\");\n\n        pidOfMining = _timelock.uintOf[keccak256(abi.encode('pidOfMining'))];\n        _timelock.queuedTransactions = false;\n    }\n\n    function _validateTimelock(TimeLock storage _timelock) private view\n    {\n        require(_timelock.queuedTransactions == true, \"Transaction hasn't been queued.\");\n        require(_timelock.timeOfExecute <= block.timestamp, \"Transaction hasn't surpassed time lock.\");\n        require(_timelock.timeOfExecute.add(GRACE_PERIOD) >= block.timestamp, \"Transaction is stale.\");\n    }\n\n    function deposit(uint256 _wantAmt) external nonReentrant \n    {\n        require(_wantAmt > 0, 'INVALID_INPUT');\n        require(want.balanceOf(msg.sender) >= _wantAmt, 'INVALID_INPUT');\n\n        harvest(msg.sender);\n    \twant.transferFrom(msg.sender, address(this), _wantAmt);\n\n        uint256 platformFee = _wantAmt.mul(PLATFORM_FEE).div(1000);\n        want.transfer(platformFundAddress, platformFee);\n\n        uint256 _wantAmtAfterFee = _wantAmt.sub(platformFee);\n\n        shareOf[msg.sender] = shareOf[msg.sender].add(_wantAmtAfterFee);\n        totalShare = totalShare.add(_wantAmtAfterFee);\n\n        // Update block when user can withdraw\n        withdrawalAvailabilityBlock[msg.sender] = block.number.add(BLOCK_TO_UNLOCK);\n\n        miningMachine.updateUser(pidOfMining, msg.sender);\n        emit onDeposit(msg.sender, _wantAmt);\n\n    }\n    function withdraw(uint256 _wantAmt) external nonReentrant \n    {\n        require(withdrawalAvailabilityBlock[msg.sender] <= block.number, 'INVALID_BLOCK_TO_UNLOCK');\n        require(_wantAmt > 0, 'INVALID_INPUT');   \n        harvest(msg.sender);\n\n        uint256 _share = shareOf[msg.sender];\n        if(_wantAmt > _share) {\n            _wantAmt = _share;\n        }\n\n        uint256 _wantBal = want.balanceOf(address(this)); \n        if (_wantBal < _wantAmt) {\n            _wantAmt = _wantBal;\n        }\n\n        shareOf[msg.sender] = shareOf[msg.sender].sub(_wantAmt);\n        totalShare = totalShare.sub(_wantAmt);\n        \n        want.transfer(msg.sender, _wantAmt);\n        \n        miningMachine.updateUser(pidOfMining, msg.sender);\n\n        emit onWithdraw(msg.sender, _wantAmt);\n    }\n\n    function harvest(address _user) public returns(uint256 _pendingVeGRB) { \n        return miningMachine.harvest(pidOfMining, _user);\n    }\n\n    function getData(\n        address _user\n    ) \n    public \n    view\n    returns(\n        uint256 miningSpeed_,\n        uint256 userWantBal_, \n        uint256 totalMintPerDay_, \n        uint256 userETHBal_, \n        uint256 userVeGRBPending_, \n        uint256 userWantShare_,\n        uint256 tvl_,\n        uint256 userWithdrawalTime,\n        uint256 blockNow\n    ) {\n        userWantBal_ = want.balanceOf(_user);\n        totalMintPerDay_ = miningMachine.getTotalMintPerDayOf(pidOfMining);\n\n        miningSpeed_ = miningMachine.getMiningSpeedOf(pidOfMining);\n        userETHBal_ = address(_user).balance;\n        (userVeGRBPending_, , ) = miningMachine.getUserInfo(pidOfMining, _user);\n        userWantShare_ = shareOf[_user];\n        tvl_ = totalShare;\n        userWithdrawalTime = withdrawalAvailabilityBlock[_user];\n        blockNow = block.number;\n    } \n}",
  "sourcePath": "/Applications/projects/garbiprotocol.github.io/garbi_contracts/contracts/GarbiStakeGRB.sol",
  "compiler": {
    "name": "solc",
    "version": "0.8.17+commit.8df45f5f.Emscripten.clang"
  },
  "schemaVersion": "3.4.13",
  "updatedAt": "2023-04-24T02:06:57.556Z",
  "networkType": "ethereum",
  "devdoc": {
    "kind": "dev",
    "methods": {
      "owner()": {
        "details": "Returns the address of the current owner."
      },
      "renounceOwnership()": {
        "details": "Leaves the contract without owner. It will not be possible to call `onlyOwner` functions anymore. Can only be called by the current owner. NOTE: Renouncing ownership will leave the contract without an owner, thereby removing any functionality that is only available to the owner."
      },
      "transferOwnership(address)": {
        "details": "Transfers ownership of the contract to a new account (`newOwner`). Can only be called by the current owner."
      }
    },
    "version": 1
  },
  "userdoc": {
    "kind": "user",
    "methods": {},
    "version": 1
  }
}