{
  "contractName": "GarbiswapTradeUSDTUSDCaavev3",
  "abi": [
    {
      "inputs": [
        {
          "internalType": "contract IERC20",
          "name": "_base",
          "type": "address"
        },
        {
          "internalType": "contract IERC20",
          "name": "_token",
          "type": "address"
        },
        {
          "internalType": "contract IGarbiTimeLock",
          "name": "_garbiTimeLockContract",
          "type": "address"
        },
        {
          "internalType": "contract IGarbiswapFeeMachine",
          "name": "_feeMachineContract",
          "type": "address"
        },
        {
          "internalType": "contract IGarbiswapFarmAavev3",
          "name": "_farmContract",
          "type": "address"
        },
        {
          "internalType": "contract IGarbiswapWhitelist",
          "name": "_whitelistContract",
          "type": "address"
        },
        {
          "internalType": "string",
          "name": "name",
          "type": "string"
        },
        {
          "internalType": "string",
          "name": "symbol",
          "type": "string"
        }
      ],
      "stateMutability": "nonpayable",
      "type": "constructor"
    },
    {
      "anonymous": false,
      "inputs": [
        {
          "indexed": true,
          "internalType": "address",
          "name": "owner",
          "type": "address"
        },
        {
          "indexed": true,
          "internalType": "address",
          "name": "spender",
          "type": "address"
        },
        {
          "indexed": false,
          "internalType": "uint256",
          "name": "value",
          "type": "uint256"
        }
      ],
      "name": "Approval",
      "type": "event"
    },
    {
      "anonymous": false,
      "inputs": [
        {
          "indexed": true,
          "internalType": "address",
          "name": "previousOwner",
          "type": "address"
        },
        {
          "indexed": true,
          "internalType": "address",
          "name": "newOwner",
          "type": "address"
        }
      ],
      "name": "OwnershipTransferred",
      "type": "event"
    },
    {
      "anonymous": false,
      "inputs": [
        {
          "indexed": true,
          "internalType": "address",
          "name": "from",
          "type": "address"
        },
        {
          "indexed": true,
          "internalType": "address",
          "name": "to",
          "type": "address"
        },
        {
          "indexed": false,
          "internalType": "uint256",
          "name": "value",
          "type": "uint256"
        }
      ],
      "name": "Transfer",
      "type": "event"
    },
    {
      "anonymous": false,
      "inputs": [
        {
          "indexed": false,
          "internalType": "address",
          "name": "sender",
          "type": "address"
        },
        {
          "indexed": false,
          "internalType": "uint256",
          "name": "mintLP",
          "type": "uint256"
        },
        {
          "indexed": false,
          "internalType": "uint256",
          "name": "baseInputAmount",
          "type": "uint256"
        },
        {
          "indexed": false,
          "internalType": "uint256",
          "name": "tokenInputAmount",
          "type": "uint256"
        },
        {
          "indexed": false,
          "internalType": "uint256",
          "name": "poolBaseBalance",
          "type": "uint256"
        },
        {
          "indexed": false,
          "internalType": "uint256",
          "name": "poolTokenBalance",
          "type": "uint256"
        }
      ],
      "name": "onAddLP",
      "type": "event"
    },
    {
      "anonymous": false,
      "inputs": [
        {
          "indexed": false,
          "internalType": "address",
          "name": "sender",
          "type": "address"
        },
        {
          "indexed": false,
          "internalType": "uint256",
          "name": "amountLP",
          "type": "uint256"
        },
        {
          "indexed": false,
          "internalType": "uint256",
          "name": "baseOutputAmout",
          "type": "uint256"
        },
        {
          "indexed": false,
          "internalType": "uint256",
          "name": "tokenOutputAmount",
          "type": "uint256"
        },
        {
          "indexed": false,
          "internalType": "uint256",
          "name": "poolBaseBalance",
          "type": "uint256"
        },
        {
          "indexed": false,
          "internalType": "uint256",
          "name": "poolTokenBalance",
          "type": "uint256"
        }
      ],
      "name": "onRemoveLP",
      "type": "event"
    },
    {
      "anonymous": false,
      "inputs": [
        {
          "indexed": false,
          "internalType": "address",
          "name": "sender",
          "type": "address"
        },
        {
          "indexed": false,
          "internalType": "uint256",
          "name": "minTokenOutput",
          "type": "uint256"
        },
        {
          "indexed": false,
          "internalType": "uint256",
          "name": "baseInputAmount",
          "type": "uint256"
        },
        {
          "indexed": false,
          "internalType": "uint256",
          "name": "tokenOutputAmount",
          "type": "uint256"
        },
        {
          "indexed": false,
          "internalType": "uint256",
          "name": "poolBaseBalance",
          "type": "uint256"
        },
        {
          "indexed": false,
          "internalType": "uint256",
          "name": "poolTokenBalance",
          "type": "uint256"
        }
      ],
      "name": "onSwapBaseToTokenWithBaseInput",
      "type": "event"
    },
    {
      "anonymous": false,
      "inputs": [
        {
          "indexed": false,
          "internalType": "address",
          "name": "sender",
          "type": "address"
        },
        {
          "indexed": false,
          "internalType": "uint256",
          "name": "maxBaseInput",
          "type": "uint256"
        },
        {
          "indexed": false,
          "internalType": "uint256",
          "name": "baseInputAmount",
          "type": "uint256"
        },
        {
          "indexed": false,
          "internalType": "uint256",
          "name": "tokenOutputAmount",
          "type": "uint256"
        },
        {
          "indexed": false,
          "internalType": "uint256",
          "name": "poolBaseBalance",
          "type": "uint256"
        },
        {
          "indexed": false,
          "internalType": "uint256",
          "name": "poolTokenBalance",
          "type": "uint256"
        }
      ],
      "name": "onSwapBaseToTokenWithTokenOutput",
      "type": "event"
    },
    {
      "anonymous": false,
      "inputs": [
        {
          "indexed": false,
          "internalType": "address",
          "name": "sender",
          "type": "address"
        },
        {
          "indexed": false,
          "internalType": "uint256",
          "name": "maxTokenInput",
          "type": "uint256"
        },
        {
          "indexed": false,
          "internalType": "uint256",
          "name": "tokenInputAmount",
          "type": "uint256"
        },
        {
          "indexed": false,
          "internalType": "uint256",
          "name": "baseOutputAmount",
          "type": "uint256"
        },
        {
          "indexed": false,
          "internalType": "uint256",
          "name": "poolBaseBalance",
          "type": "uint256"
        },
        {
          "indexed": false,
          "internalType": "uint256",
          "name": "poolTokenBalance",
          "type": "uint256"
        }
      ],
      "name": "onSwapTokenToBaseWithBaseOutput",
      "type": "event"
    },
    {
      "anonymous": false,
      "inputs": [
        {
          "indexed": false,
          "internalType": "address",
          "name": "sender",
          "type": "address"
        },
        {
          "indexed": false,
          "internalType": "uint256",
          "name": "minBaseOutput",
          "type": "uint256"
        },
        {
          "indexed": false,
          "internalType": "uint256",
          "name": "tokenInputAmount",
          "type": "uint256"
        },
        {
          "indexed": false,
          "internalType": "uint256",
          "name": "baseOutputAmount",
          "type": "uint256"
        },
        {
          "indexed": false,
          "internalType": "uint256",
          "name": "poolBaseBalance",
          "type": "uint256"
        },
        {
          "indexed": false,
          "internalType": "uint256",
          "name": "poolTokenBalance",
          "type": "uint256"
        }
      ],
      "name": "onSwapTokenToBaseWithTokenInput",
      "type": "event"
    },
    {
      "inputs": [],
      "name": "TRADE_FEE",
      "outputs": [
        {
          "internalType": "uint256",
          "name": "",
          "type": "uint256"
        }
      ],
      "stateMutability": "view",
      "type": "function"
    },
    {
      "inputs": [
        {
          "internalType": "address",
          "name": "owner",
          "type": "address"
        },
        {
          "internalType": "address",
          "name": "spender",
          "type": "address"
        }
      ],
      "name": "allowance",
      "outputs": [
        {
          "internalType": "uint256",
          "name": "",
          "type": "uint256"
        }
      ],
      "stateMutability": "view",
      "type": "function"
    },
    {
      "inputs": [
        {
          "internalType": "address",
          "name": "spender",
          "type": "address"
        },
        {
          "internalType": "uint256",
          "name": "amount",
          "type": "uint256"
        }
      ],
      "name": "approve",
      "outputs": [
        {
          "internalType": "bool",
          "name": "",
          "type": "bool"
        }
      ],
      "stateMutability": "nonpayable",
      "type": "function"
    },
    {
      "inputs": [
        {
          "internalType": "address",
          "name": "account",
          "type": "address"
        }
      ],
      "name": "balanceOf",
      "outputs": [
        {
          "internalType": "uint256",
          "name": "",
          "type": "uint256"
        }
      ],
      "stateMutability": "view",
      "type": "function"
    },
    {
      "inputs": [],
      "name": "base",
      "outputs": [
        {
          "internalType": "contract IERC20",
          "name": "",
          "type": "address"
        }
      ],
      "stateMutability": "view",
      "type": "function"
    },
    {
      "inputs": [
        {
          "internalType": "uint256",
          "name": "amount",
          "type": "uint256"
        }
      ],
      "name": "burn",
      "outputs": [],
      "stateMutability": "nonpayable",
      "type": "function"
    },
    {
      "inputs": [
        {
          "internalType": "address",
          "name": "account",
          "type": "address"
        },
        {
          "internalType": "uint256",
          "name": "amount",
          "type": "uint256"
        }
      ],
      "name": "burnFrom",
      "outputs": [],
      "stateMutability": "nonpayable",
      "type": "function"
    },
    {
      "inputs": [],
      "name": "decimals",
      "outputs": [
        {
          "internalType": "uint8",
          "name": "",
          "type": "uint8"
        }
      ],
      "stateMutability": "view",
      "type": "function"
    },
    {
      "inputs": [
        {
          "internalType": "address",
          "name": "spender",
          "type": "address"
        },
        {
          "internalType": "uint256",
          "name": "subtractedValue",
          "type": "uint256"
        }
      ],
      "name": "decreaseAllowance",
      "outputs": [
        {
          "internalType": "bool",
          "name": "",
          "type": "bool"
        }
      ],
      "stateMutability": "nonpayable",
      "type": "function"
    },
    {
      "inputs": [],
      "name": "farmContract",
      "outputs": [
        {
          "internalType": "contract IGarbiswapFarmAavev3",
          "name": "",
          "type": "address"
        }
      ],
      "stateMutability": "view",
      "type": "function"
    },
    {
      "inputs": [],
      "name": "feeMachineContract",
      "outputs": [
        {
          "internalType": "contract IGarbiswapFeeMachine",
          "name": "",
          "type": "address"
        }
      ],
      "stateMutability": "view",
      "type": "function"
    },
    {
      "inputs": [],
      "name": "garbiTimeLockContract",
      "outputs": [
        {
          "internalType": "contract IGarbiTimeLock",
          "name": "",
          "type": "address"
        }
      ],
      "stateMutability": "view",
      "type": "function"
    },
    {
      "inputs": [
        {
          "internalType": "address",
          "name": "spender",
          "type": "address"
        },
        {
          "internalType": "uint256",
          "name": "addedValue",
          "type": "uint256"
        }
      ],
      "name": "increaseAllowance",
      "outputs": [
        {
          "internalType": "bool",
          "name": "",
          "type": "bool"
        }
      ],
      "stateMutability": "nonpayable",
      "type": "function"
    },
    {
      "inputs": [],
      "name": "name",
      "outputs": [
        {
          "internalType": "string",
          "name": "",
          "type": "string"
        }
      ],
      "stateMutability": "view",
      "type": "function"
    },
    {
      "inputs": [],
      "name": "owner",
      "outputs": [
        {
          "internalType": "address",
          "name": "",
          "type": "address"
        }
      ],
      "stateMutability": "view",
      "type": "function"
    },
    {
      "inputs": [],
      "name": "renounceOwnership",
      "outputs": [],
      "stateMutability": "nonpayable",
      "type": "function"
    },
    {
      "inputs": [],
      "name": "symbol",
      "outputs": [
        {
          "internalType": "string",
          "name": "",
          "type": "string"
        }
      ],
      "stateMutability": "view",
      "type": "function"
    },
    {
      "inputs": [],
      "name": "token",
      "outputs": [
        {
          "internalType": "contract IERC20",
          "name": "",
          "type": "address"
        }
      ],
      "stateMutability": "view",
      "type": "function"
    },
    {
      "inputs": [],
      "name": "totalSupply",
      "outputs": [
        {
          "internalType": "uint256",
          "name": "",
          "type": "uint256"
        }
      ],
      "stateMutability": "view",
      "type": "function"
    },
    {
      "inputs": [
        {
          "internalType": "address",
          "name": "to",
          "type": "address"
        },
        {
          "internalType": "uint256",
          "name": "amount",
          "type": "uint256"
        }
      ],
      "name": "transfer",
      "outputs": [
        {
          "internalType": "bool",
          "name": "",
          "type": "bool"
        }
      ],
      "stateMutability": "nonpayable",
      "type": "function"
    },
    {
      "inputs": [
        {
          "internalType": "address",
          "name": "from",
          "type": "address"
        },
        {
          "internalType": "address",
          "name": "to",
          "type": "address"
        },
        {
          "internalType": "uint256",
          "name": "amount",
          "type": "uint256"
        }
      ],
      "name": "transferFrom",
      "outputs": [
        {
          "internalType": "bool",
          "name": "",
          "type": "bool"
        }
      ],
      "stateMutability": "nonpayable",
      "type": "function"
    },
    {
      "inputs": [
        {
          "internalType": "address",
          "name": "newOwner",
          "type": "address"
        }
      ],
      "name": "transferOwnership",
      "outputs": [],
      "stateMutability": "nonpayable",
      "type": "function"
    },
    {
      "inputs": [],
      "name": "whitelistContract",
      "outputs": [
        {
          "internalType": "contract IGarbiswapWhitelist",
          "name": "",
          "type": "address"
        }
      ],
      "stateMutability": "view",
      "type": "function"
    },
    {
      "inputs": [],
      "name": "setWhitelistContract",
      "outputs": [],
      "stateMutability": "nonpayable",
      "type": "function"
    },
    {
      "inputs": [],
      "name": "setFeeMachineContract",
      "outputs": [],
      "stateMutability": "nonpayable",
      "type": "function"
    },
    {
      "inputs": [],
      "name": "setTradeFee",
      "outputs": [],
      "stateMutability": "nonpayable",
      "type": "function"
    },
    {
      "inputs": [],
      "name": "getK",
      "outputs": [
        {
          "internalType": "uint256",
          "name": "",
          "type": "uint256"
        }
      ],
      "stateMutability": "view",
      "type": "function"
    },
    {
      "inputs": [
        {
          "internalType": "uint256",
          "name": "baseInputAmount",
          "type": "uint256"
        }
      ],
      "name": "getTokenOutput",
      "outputs": [
        {
          "internalType": "uint256",
          "name": "",
          "type": "uint256"
        }
      ],
      "stateMutability": "view",
      "type": "function"
    },
    {
      "inputs": [
        {
          "internalType": "uint256",
          "name": "tokenInputAmount",
          "type": "uint256"
        }
      ],
      "name": "getBaseOutput",
      "outputs": [
        {
          "internalType": "uint256",
          "name": "",
          "type": "uint256"
        }
      ],
      "stateMutability": "view",
      "type": "function"
    },
    {
      "inputs": [
        {
          "internalType": "uint256",
          "name": "baseInputAmount",
          "type": "uint256"
        }
      ],
      "name": "getDataFromBaseInputToAddLp",
      "outputs": [
        {
          "internalType": "uint256",
          "name": "",
          "type": "uint256"
        },
        {
          "internalType": "uint256",
          "name": "",
          "type": "uint256"
        }
      ],
      "stateMutability": "view",
      "type": "function"
    },
    {
      "inputs": [
        {
          "internalType": "uint256",
          "name": "tokenInputAmount",
          "type": "uint256"
        }
      ],
      "name": "getDataFromTokenInputToAddLp",
      "outputs": [
        {
          "internalType": "uint256",
          "name": "",
          "type": "uint256"
        },
        {
          "internalType": "uint256",
          "name": "",
          "type": "uint256"
        }
      ],
      "stateMutability": "view",
      "type": "function"
    },
    {
      "inputs": [
        {
          "internalType": "uint256",
          "name": "amountLP",
          "type": "uint256"
        }
      ],
      "name": "getDataToRemoveLP",
      "outputs": [
        {
          "internalType": "uint256",
          "name": "",
          "type": "uint256"
        },
        {
          "internalType": "uint256",
          "name": "",
          "type": "uint256"
        }
      ],
      "stateMutability": "view",
      "type": "function"
    },
    {
      "inputs": [
        {
          "internalType": "uint256",
          "name": "baseInputAmount",
          "type": "uint256"
        },
        {
          "internalType": "uint256",
          "name": "baseReserve",
          "type": "uint256"
        },
        {
          "internalType": "uint256",
          "name": "tokenReserve",
          "type": "uint256"
        }
      ],
      "name": "getTokenOutputAmountFromBaseInput",
      "outputs": [
        {
          "internalType": "uint256",
          "name": "",
          "type": "uint256"
        }
      ],
      "stateMutability": "pure",
      "type": "function"
    },
    {
      "inputs": [
        {
          "internalType": "uint256",
          "name": "tokenOutputAmount",
          "type": "uint256"
        },
        {
          "internalType": "uint256",
          "name": "baseReserve",
          "type": "uint256"
        },
        {
          "internalType": "uint256",
          "name": "tokenReserve",
          "type": "uint256"
        }
      ],
      "name": "getBaseInputAmountFromTokenOutput",
      "outputs": [
        {
          "internalType": "uint256",
          "name": "",
          "type": "uint256"
        }
      ],
      "stateMutability": "pure",
      "type": "function"
    },
    {
      "inputs": [
        {
          "internalType": "uint256",
          "name": "tokenInputAmount",
          "type": "uint256"
        },
        {
          "internalType": "uint256",
          "name": "baseReserve",
          "type": "uint256"
        },
        {
          "internalType": "uint256",
          "name": "tokenReserve",
          "type": "uint256"
        }
      ],
      "name": "getBaseOutputAmountFromTokenInput",
      "outputs": [
        {
          "internalType": "uint256",
          "name": "",
          "type": "uint256"
        }
      ],
      "stateMutability": "pure",
      "type": "function"
    },
    {
      "inputs": [
        {
          "internalType": "uint256",
          "name": "baseOutputAmount",
          "type": "uint256"
        },
        {
          "internalType": "uint256",
          "name": "baseReserve",
          "type": "uint256"
        },
        {
          "internalType": "uint256",
          "name": "tokenReserve",
          "type": "uint256"
        }
      ],
      "name": "getTokenInputAmountFromBaseOutput",
      "outputs": [
        {
          "internalType": "uint256",
          "name": "",
          "type": "uint256"
        }
      ],
      "stateMutability": "pure",
      "type": "function"
    },
    {
      "inputs": [
        {
          "internalType": "uint256",
          "name": "baseInputAmount",
          "type": "uint256"
        },
        {
          "internalType": "uint256",
          "name": "minTokenOutput",
          "type": "uint256"
        },
        {
          "internalType": "uint256",
          "name": "deadline",
          "type": "uint256"
        }
      ],
      "name": "swapBaseToTokenWithBaseInput",
      "outputs": [],
      "stateMutability": "nonpayable",
      "type": "function"
    },
    {
      "inputs": [
        {
          "internalType": "uint256",
          "name": "maxBaseInput",
          "type": "uint256"
        },
        {
          "internalType": "uint256",
          "name": "tokenOutputAmount",
          "type": "uint256"
        },
        {
          "internalType": "uint256",
          "name": "deadline",
          "type": "uint256"
        }
      ],
      "name": "swapBaseToTokenWithTokenOutput",
      "outputs": [],
      "stateMutability": "nonpayable",
      "type": "function"
    },
    {
      "inputs": [
        {
          "internalType": "uint256",
          "name": "tokenInputAmount",
          "type": "uint256"
        },
        {
          "internalType": "uint256",
          "name": "minBaseOutput",
          "type": "uint256"
        },
        {
          "internalType": "uint256",
          "name": "deadline",
          "type": "uint256"
        }
      ],
      "name": "swapTokenToBaseWithTokenInput",
      "outputs": [],
      "stateMutability": "nonpayable",
      "type": "function"
    },
    {
      "inputs": [
        {
          "internalType": "uint256",
          "name": "maxTokenInput",
          "type": "uint256"
        },
        {
          "internalType": "uint256",
          "name": "baseOutputAmount",
          "type": "uint256"
        },
        {
          "internalType": "uint256",
          "name": "deadline",
          "type": "uint256"
        }
      ],
      "name": "swapTokenToBaseWithBaseOutput",
      "outputs": [],
      "stateMutability": "nonpayable",
      "type": "function"
    },
    {
      "inputs": [
        {
          "internalType": "uint256",
          "name": "minLP",
          "type": "uint256"
        },
        {
          "internalType": "uint256",
          "name": "baseInputAmount",
          "type": "uint256"
        },
        {
          "internalType": "uint256",
          "name": "maxTokenInputAmount",
          "type": "uint256"
        },
        {
          "internalType": "uint256",
          "name": "deadline",
          "type": "uint256"
        }
      ],
      "name": "addLP",
      "outputs": [
        {
          "internalType": "uint256",
          "name": "",
          "type": "uint256"
        }
      ],
      "stateMutability": "nonpayable",
      "type": "function"
    },
    {
      "inputs": [
        {
          "internalType": "uint256",
          "name": "amountLP",
          "type": "uint256"
        },
        {
          "internalType": "uint256",
          "name": "minBaseOutput",
          "type": "uint256"
        },
        {
          "internalType": "uint256",
          "name": "minTokenOutput",
          "type": "uint256"
        },
        {
          "internalType": "uint256",
          "name": "deadline",
          "type": "uint256"
        }
      ],
      "name": "removeLP",
      "outputs": [
        {
          "internalType": "uint256",
          "name": "",
          "type": "uint256"
        },
        {
          "internalType": "uint256",
          "name": "",
          "type": "uint256"
        }
      ],
      "stateMutability": "nonpayable",
      "type": "function"
    },
    {
      "inputs": [],
      "name": "getTotalReserve",
      "outputs": [
        {
          "internalType": "uint256",
          "name": "",
          "type": "uint256"
        },
        {
          "internalType": "uint256",
          "name": "",
          "type": "uint256"
        }
      ],
      "stateMutability": "view",
      "type": "function"
    },
    {
      "inputs": [],
      "name": "rebalanceToFarmContract",
      "outputs": [],
      "stateMutability": "nonpayable",
      "type": "function"
    }
  ],
  "bytecode": "0x60806040526001600c553480156200001657600080fd5b5060405162004d4d38038062004d4d833981016040819052620000399162000230565b81816003620000498382620003a8565b506004620000588282620003a8565b505050620000756200006f620000ea60201b60201c565b620000ee565b5050600680546001600160a01b03199081166001600160a01b039889161790915560078054821696881696909617909555600a805486169487169490941790935560098054851693861693909317909255600880548416918516919091179055600b8054909216921691909117905562000474565b3390565b600580546001600160a01b038381166001600160a01b0319831681179093556040519116919082907f8be0079c531659141344cd1fd0a4f28419497f9722a3daafe3b4186f6b6457e090600090a35050565b6001600160a01b03811681146200015657600080fd5b50565b8051620001668162000140565b919050565b634e487b7160e01b600052604160045260246000fd5b600082601f8301126200019357600080fd5b81516001600160401b0380821115620001b057620001b06200016b565b604051601f8301601f19908116603f01168101908282118183101715620001db57620001db6200016b565b81604052838152602092508683858801011115620001f857600080fd5b600091505b838210156200021c5785820183015181830184015290820190620001fd565b600093810190920192909252949350505050565b600080600080600080600080610100898b0312156200024e57600080fd5b88516200025b8162000140565b60208a01519098506200026e8162000140565b60408a0151909750620002818162000140565b60608a0151909650620002948162000140565b60808a0151909550620002a78162000140565b9350620002b760a08a0162000159565b60c08a01519093506001600160401b0380821115620002d557600080fd5b620002e38c838d0162000181565b935060e08b0151915080821115620002fa57600080fd5b50620003098b828c0162000181565b9150509295985092959890939650565b600181811c908216806200032e57607f821691505b6020821081036200034f57634e487b7160e01b600052602260045260246000fd5b50919050565b601f821115620003a357600081815260208120601f850160051c810160208610156200037e5750805b601f850160051c820191505b818110156200039f578281556001016200038a565b5050505b505050565b81516001600160401b03811115620003c457620003c46200016b565b620003dc81620003d5845462000319565b8462000355565b602080601f831160018114620004145760008415620003fb5750858301515b600019600386901b1c1916600185901b1785556200039f565b600085815260208120601f198616915b82811015620004455788860151825594840194600190910190840162000424565b5085821015620004645787850151600019600388901b60f8161c191681555b5050505050600190811b01905550565b6148c980620004846000396000f3fe608060405234801561001057600080fd5b50600436106102745760003560e01c806379cc679011610151578063c6e842fc116100c3578063e50a38d711610087578063e50a38d714610567578063ead915e31461057a578063ec02291814610582578063ee39e7a01461058a578063f2fde38b14610592578063fc0c546a146105a557600080fd5b8063c6e842fc14610512578063d0e9de6c14610525578063d132296214610538578063dbcfbf2f14610541578063dd62ed3e1461055457600080fd5b80639eb0e965116101155780639eb0e965146104b6578063a457c2d7146104c9578063a58d3d31146104dc578063a9059cbb146104e4578063ac7343bd146104f7578063b7c3ba45146104ff57600080fd5b806379cc67901461046457806384900b04146104775780638da5cb5b1461048a57806395d89b411461049b57806397bb21c6146104a357600080fd5b806342966c68116101ea5780636662d177116101ae5780636662d177146103d257806370a08231146103fa578063711f614214610423578063715018a61461043657806373dd25a31461043e57806376125deb1461045157600080fd5b806342966c681461037357806342eba2ce146103865780635001f3b51461039957806360b1765c146103ac578063635f95ff146103bf57600080fd5b80631279732c1161023c5780631279732c1461031b57806318160ddd1461032357806323b872dd1461032b5780632916bc101461033e578063313ce56714610351578063395093511461036057600080fd5b806303bf04c11461027957806306fdde031461028e578063095ea7b3146102ac57806310a57f3a146102cf57806311fbded3146102fa575b600080fd5b61028c610287366004614046565b6105b8565b005b610296610b2f565b6040516102a39190614072565b60405180910390f35b6102bf6102ba3660046140d5565b610bc1565b60405190151581526020016102a3565b600a546102e2906001600160a01b031681565b6040516001600160a01b0390911681526020016102a3565b61030d610308366004614101565b610bdb565b6040519081526020016102a3565b61028c610c2d565b60025461030d565b6102bf61033936600461411a565b610e00565b61030d61034c366004614046565b610e24565b604051601281526020016102a3565b6102bf61036e3660046140d5565b610e83565b61028c610381366004614101565b610ea5565b6008546102e2906001600160a01b031681565b6006546102e2906001600160a01b031681565b61030d6103ba36600461415b565b610eb2565b61030d6103cd366004614101565b611538565b6103e56103e0366004614101565b61157f565b604080519283526020830191909152016102a3565b61030d61040836600461418d565b6001600160a01b031660009081526020819052604090205490565b6103e5610431366004614101565b6115e9565b61028c611646565b61028c61044c366004614046565b61165a565b6103e561045f36600461415b565b611ba5565b61028c6104723660046140d5565b61228c565b6009546102e2906001600160a01b031681565b6005546001600160a01b03166102e2565b6102966122a5565b61030d6104b1366004614046565b6122b4565b600b546102e2906001600160a01b031681565b6102bf6104d73660046140d5565b61230d565b61028c612388565b6102bf6104f23660046140d5565b612863565b61028c612871565b61030d61050d366004614046565b612a6a565b6103e5610520366004614101565b612ac3565b61028c610533366004614046565b612b24565b61030d600c5481565b61030d61054f366004614046565b61305e565b61030d6105623660046141aa565b6130bd565b61028c610575366004614046565b6130e8565b61028c61363a565b6103e5613833565b61030d6139aa565b61028c6105a036600461418d565b6139c7565b6007546102e2906001600160a01b031681565b33321461065557600954604051636c9b2a3f60e11b81523360048201526001600160a01b039091169063d936547e90602401602060405180830381865afa158015610607573d6000803e3d6000fd5b505050506040513d601f19601f8201168201806040525081019061062b91906141e3565b15156001146106555760405162461bcd60e51b815260040161064c90614205565b60405180910390fd5b428110156106755760405162461bcd60e51b815260040161064c90614230565b600082116106bf5760405162461bcd60e51b81526020600482015260176024820152761253959053125117d3525397d09054d157d3d555141555604a1b604482015260640161064c565b600083116106df5760405162461bcd60e51b815260040161064c9061425a565b6007546040516370a0823160e01b81523360048201526001600160a01b03909116906370a0823190602401602060405180830381865afa158015610727573d6000803e3d6000fd5b505050506040513d601f19601f8201168201806040525081019061074b9190614287565b83111561079a5760405162461bcd60e51b815260206004820152601f60248201527f544f4b454e5f494e5055545f4849474845525f555345525f42414c414e434500604482015260640161064c565b6000806107a5613833565b909250905081841061080a5760405162461bcd60e51b815260206004820152602860248201527f4d494e5f424153455f4f55545055545f4849474845525f504f4f4c5f424153456044820152675f42414c414e434560c01b606482015260840161064c565b600061082d6103e8610827600c5489613a3d90919063ffffffff16565b90613a50565b9050600061083b8783613a5c565b9050600061084a82868661305e565b90508681101561086c5760405162461bcd60e51b815260040161064c906142a0565b84811061088b5760405162461bcd60e51b815260040161064c906142cc565b6006546040516370a0823160e01b81523060048201526001600160a01b03909116906370a0823190602401602060405180830381865afa1580156108d3573d6000803e3d6000fd5b505050506040513d601f19601f820116820180604052508101906108f79190614287565b81106109155760405162461bcd60e51b815260040161064c90614310565b6007546040516323b872dd60e01b81526001600160a01b03909116906323b872dd9061094990339030908d90600401614358565b6020604051808303816000875af1158015610968573d6000803e3d6000fd5b505050506040513d601f19601f8201168201806040525081019061098c91906141e3565b5060065460405163a9059cbb60e01b81526001600160a01b039091169063a9059cbb906109bf903390859060040161437c565b6020604051808303816000875af11580156109de573d6000803e3d6000fd5b505050506040513d601f19601f82011682018060405250810190610a0291906141e3565b5060075460085460405163a9059cbb60e01b81526001600160a01b039283169263a9059cbb92610a3992911690879060040161437c565b6020604051808303816000875af1158015610a58573d6000803e3d6000fd5b505050506040513d601f19601f82011682018060405250810190610a7c91906141e3565b50600854600754604051632054895360e21b81526001600160a01b039182166004820152336024820152911690638152254c90604401600060405180830381600087803b158015610acc57600080fd5b505af1158015610ae0573d6000803e3d6000fd5b505050507fb1b8c525a87e01fd3cda717635c4b24d56deba9f9d95c4f650c022bcd0bf8f5033888a848989604051610b1d96959493929190614395565b60405180910390a15050505050505050565b606060038054610b3e906143c8565b80601f0160208091040260200160405190810160405280929190818152602001828054610b6a906143c8565b8015610bb75780601f10610b8c57610100808354040283529160200191610bb7565b820191906000526020600020905b815481529060010190602001808311610b9a57829003601f168201915b5050505050905090565b600033610bcf818585613a68565b60019150505b92915050565b60008080610be7613833565b600c549193509150600090610c05906103e890610827908890613a3d565b90506000610c138683613a5c565b90506000610c22828686610e24565b979650505050505050565b610c35613b8d565b600a5460405163109cc30b60e21b81526001600160a01b03909116906342730c2c90610c65903090600401614420565b602060405180830381865afa158015610c82573d6000803e3d6000fd5b505050506040513d601f19601f82011682018060405250810190610ca691906141e3565b610cc25760405162461bcd60e51b815260040161064c90614443565b600a54604051636076dea560e11b81526000916001600160a01b03169063c0edbd4a90610cf390309060040161446f565b602060405180830381865afa158015610d10573d6000803e3d6000fd5b505050506040513d601f19601f82011682018060405250810190610d349190614287565b600c819055600a54604051636e977f0b60e01b81529192506001600160a01b031690636e977f0b90610d6b906002906004016144b9565b600060405180830381600087803b158015610d8557600080fd5b505af1158015610d99573d6000803e3d6000fd5b5050600a546040516345503fcb60e11b81526001600160a01b039091169250638aa07f969150610dcb90600401614504565b600060405180830381600087803b158015610de557600080fd5b505af1158015610df9573d6000803e3d6000fd5b5050505050565b600033610e0e858285613be7565b610e19858585613c5b565b506001949350505050565b60008083118015610e355750600082115b610e515760405162461bcd60e51b815260040161064c90614516565b6000610e5d8385613a3d565b90506000610e6b8587613dff565b90506000610c22610e7c8484613a50565b8690613a5c565b600033610bcf818585610e9683836130bd565b610ea09190614553565b613a68565b610eaf3382613e0b565b50565b6000333214610f4857600954604051636c9b2a3f60e11b81523360048201526001600160a01b039091169063d936547e90602401602060405180830381865afa158015610f03573d6000803e3d6000fd5b505050506040513d601f19601f82011682018060405250810190610f2791906141e3565b1515600114610f485760405162461bcd60e51b815260040161064c90614205565b42821015610f685760405162461bcd60e51b815260040161064c90614230565b60008511610fa95760405162461bcd60e51b815260206004820152600e60248201526d0494e56414c49445f4d494e5f4c560941b604482015260640161064c565b60008411610fc95760405162461bcd60e51b815260040161064c90614566565b600083116110135760405162461bcd60e51b81526020600482015260176024820152761253959053125117d3505617d513d2d15397d253941555604a1b604482015260640161064c565b600061101e60025490565b905080600003611246576006546040516323b872dd60e01b81526001600160a01b03909116906323b872dd9061105c90339030908a90600401614358565b6020604051808303816000875af115801561107b573d6000803e3d6000fd5b505050506040513d601f19601f8201168201806040525081019061109f91906141e3565b506007546040516323b872dd60e01b81526001600160a01b03909116906323b872dd906110d490339030908990600401614358565b6020604051808303816000875af11580156110f3573d6000803e3d6000fd5b505050506040513d601f19601f8201168201806040525081019061111791906141e3565b50846111233382613f35565b6006546040516370a0823160e01b81523060048201527f28e12afd967cc11b786f1b1547f5e0da96ccc91ebb09bdd406248111a634e7e591339184918a918a916001600160a01b0316906370a0823190602401602060405180830381865afa158015611193573d6000803e3d6000fd5b505050506040513d601f19601f820116820180604052508101906111b79190614287565b6007546040516370a0823160e01b81523060048201526001600160a01b03909116906370a0823190602401602060405180830381865afa1580156111ff573d6000803e3d6000fd5b505050506040513d601f19601f820116820180604052508101906112239190614287565b60405161123596959493929190614395565b60405180910390a191506115309050565b600080611251613833565b9092509050600061127a826112748561082761126d828e613dff565b8790613a3d565b90613a5c565b9050600061128c84610827878c613a3d565b9050600082116112ae5760405162461bcd60e51b815260040161064c9061425a565b878211156112ce5760405162461bcd60e51b815260040161064c9061425a565b898110156113105760405162461bcd60e51b815260206004820152600f60248201526e0494e56414c49445f4d494e545f4c5608c1b604482015260640161064c565b6006546040516323b872dd60e01b81526001600160a01b03909116906323b872dd9061134490339030908e90600401614358565b6020604051808303816000875af1158015611363573d6000803e3d6000fd5b505050506040513d601f19601f8201168201806040525081019061138791906141e3565b506007546040516323b872dd60e01b81526001600160a01b03909116906323b872dd906113bc90339030908790600401614358565b6020604051808303816000875af11580156113db573d6000803e3d6000fd5b505050506040513d601f19601f820116820180604052508101906113ff91906141e3565b5061140a3382613f35565b6006546040516370a0823160e01b81523060048201527f28e12afd967cc11b786f1b1547f5e0da96ccc91ebb09bdd406248111a634e7e591339184918d9187916001600160a01b0316906370a0823190602401602060405180830381865afa15801561147a573d6000803e3d6000fd5b505050506040513d601f19601f8201168201806040525081019061149e9190614287565b6007546040516370a0823160e01b81523060048201526001600160a01b03909116906370a0823190602401602060405180830381865afa1580156114e6573d6000803e3d6000fd5b505050506040513d601f19601f8201168201806040525081019061150a9190614287565b60405161151c96959493929190614395565b60405180910390a194506115309350505050565b949350505050565b60008080611544613833565b600c549193509150600090611562906103e890610827908890613a3d565b905060006115708683613a5c565b90506000610c2282868661305e565b600080600061158d60025490565b9050600080826000036115a45750849050806115de565b6000806115af613833565b90925090506115c9826112748361082761126d828e613dff565b92506115d9826108278786613a3d565b935050505b909590945092505050565b60008060006115f760025490565b905080841115611605578093505b600080611610613833565b90925090506000611625846108278986613a3d565b90506000611637856108278a86613a3d565b91989197509095505050505050565b61164e613b8d565b6116586000613ff4565b565b3332146116ee57600954604051636c9b2a3f60e11b81523360048201526001600160a01b039091169063d936547e90602401602060405180830381865afa1580156116a9573d6000803e3d6000fd5b505050506040513d601f19601f820116820180604052508101906116cd91906141e3565b15156001146116ee5760405162461bcd60e51b815260040161064c90614205565b4281101561170e5760405162461bcd60e51b815260040161064c90614230565b600083116117585760405162461bcd60e51b81526020600482015260176024820152761253959053125117d3505617d513d2d15397d253941555604a1b604482015260640161064c565b6000821161179e5760405162461bcd60e51b81526020600482015260136024820152721253959053125117d09054d157d3d555141555606a1b604482015260640161064c565b6006546040516370a0823160e01b81523060048201526001600160a01b03909116906370a0823190602401602060405180830381865afa1580156117e6573d6000803e3d6000fd5b505050506040513d601f19601f8201168201806040525081019061180a9190614287565b82106118285760405162461bcd60e51b815260040161064c90614310565b600080611833613833565b90925090508184106118575760405162461bcd60e51b815260040161064c906142cc565b60006118648584846122b4565b905060006118836103e8610827600c5485613a3d90919063ffffffff16565b905061188f8282613dff565b9150868211156118b15760405162461bcd60e51b815260040161064c906142a0565b600082116118d15760405162461bcd60e51b815260040161064c9061425a565b6007546040516370a0823160e01b81523360048201526001600160a01b03909116906370a0823190602401602060405180830381865afa158015611919573d6000803e3d6000fd5b505050506040513d601f19601f8201168201806040525081019061193d9190614287565b82111561198c5760405162461bcd60e51b815260206004820152601f60248201527f544f4b454e5f494e5055545f4849474845525f555345525f42414c414e434500604482015260640161064c565b6007546040516323b872dd60e01b81526001600160a01b03909116906323b872dd906119c090339030908790600401614358565b6020604051808303816000875af11580156119df573d6000803e3d6000fd5b505050506040513d601f19601f82011682018060405250810190611a0391906141e3565b5060065460405163a9059cbb60e01b81526001600160a01b039091169063a9059cbb90611a369033908a9060040161437c565b6020604051808303816000875af1158015611a55573d6000803e3d6000fd5b505050506040513d601f19601f82011682018060405250810190611a7991906141e3565b5060075460085460405163a9059cbb60e01b81526001600160a01b039283169263a9059cbb92611ab092911690859060040161437c565b6020604051808303816000875af1158015611acf573d6000803e3d6000fd5b505050506040513d601f19601f82011682018060405250810190611af391906141e3565b50600854600754604051632054895360e21b81526001600160a01b039182166004820152336024820152911690638152254c90604401600060405180830381600087803b158015611b4357600080fd5b505af1158015611b57573d6000803e3d6000fd5b505050507ff116a588cdba1b14c04ffd8bca7fee39286e7c8d9da59d77c036430e4b415dbc338884898888604051611b9496959493929190614395565b60405180910390a150505050505050565b600080333214611c3c57600954604051636c9b2a3f60e11b81523360048201526001600160a01b039091169063d936547e90602401602060405180830381865afa158015611bf7573d6000803e3d6000fd5b505050506040513d601f19601f82011682018060405250810190611c1b91906141e3565b1515600114611c3c5760405162461bcd60e51b815260040161064c90614205565b42831015611c5c5760405162461bcd60e51b815260040161064c90614230565b60008611611ca05760405162461bcd60e51b81526020600482015260116024820152700494e56414c49445f414d4f554e545f4c5607c1b604482015260640161064c565b60008511611cea5760405162461bcd60e51b81526020600482015260176024820152761253959053125117d3525397d09054d157d3d555141555604a1b604482015260640161064c565b60008411611d355760405162461bcd60e51b81526020600482015260186024820152771253959053125117d3525397d513d2d15397d3d55514155560421b604482015260640161064c565b6000611d4060025490565b3360009081526020819052604090205490915080881115611d5f578097505b81881115611daf5760405162461bcd60e51b815260206004820152601e60248201527f494e56414c49445f414d4f554e545f4c505f544f54414c5f535550504c590000604482015260640161064c565b600080611dba613833565b90925090506000611dcf856108278d86613a3d565b90506000611de1866108278e86613a3d565b90508a821015611e295760405162461bcd60e51b81526020600482015260136024820152721253959053125117d09054d157d3d555141555606a1b604482015260640161064c565b89811015611e705760405162461bcd60e51b81526020600482015260146024820152731253959053125117d513d2d15397d3d55514155560621b604482015260640161064c565b83821115611ec05760405162461bcd60e51b815260206004820152601f60248201527f424153455f4f55545055545f4849474845525f424153455f42414c414e434500604482015260640161064c565b82811115611f1a5760405162461bcd60e51b815260206004820152602160248201527f544f4b454e5f4f55545055545f4849474845525f544f4b454e5f42414c414e436044820152604560f81b606482015260840161064c565b6007546040516370a0823160e01b81523060048201526001600160a01b03909116906370a0823190602401602060405180830381865afa158015611f62573d6000803e3d6000fd5b505050506040513d601f19601f82011682018060405250810190611f869190614287565b811180611ffd57506006546040516370a0823160e01b81523060048201526001600160a01b03909116906370a0823190602401602060405180830381865afa158015611fd6573d6000803e3d6000fd5b505050506040513d601f19601f82011682018060405250810190611ffa9190614287565b82115b1561206b57600b60009054906101000a90046001600160a01b03166001600160a01b031663640344dd6040518163ffffffff1660e01b8152600401600060405180830381600087803b15801561205257600080fd5b505af1158015612066573d6000803e3d6000fd5b505050505b612075338d613e0b565b60065460405163a9059cbb60e01b81526001600160a01b039091169063a9059cbb906120a7903390869060040161437c565b6020604051808303816000875af11580156120c6573d6000803e3d6000fd5b505050506040513d601f19601f820116820180604052508101906120ea91906141e3565b5060075460405163a9059cbb60e01b81526001600160a01b039091169063a9059cbb9061211d903390859060040161437c565b6020604051808303816000875af115801561213c573d6000803e3d6000fd5b505050506040513d601f19601f8201168201806040525081019061216091906141e3565b506006546040516370a0823160e01b81523060048201527f555901717744791e9e27303c0df147d5a5eea5b7098591b2c5f2138ed6a605de9133918f91869186916001600160a01b0316906370a0823190602401602060405180830381865afa1580156121d1573d6000803e3d6000fd5b505050506040513d601f19601f820116820180604052508101906121f59190614287565b6007546040516370a0823160e01b81523060048201526001600160a01b03909116906370a0823190602401602060405180830381865afa15801561223d573d6000803e3d6000fd5b505050506040513d601f19601f820116820180604052508101906122619190614287565b60405161227396959493929190614395565b60405180910390a1909b909a5098505050505050505050565b612297823383613be7565b6122a18282613e0b565b5050565b606060048054610b3e906143c8565b600080831180156122c55750600082115b6122e15760405162461bcd60e51b815260040161064c90614516565b60006122ed8385613a3d565b905060006122fb8587613a5c565b90506000610c22856112748585613a50565b6000338161231b82866130bd565b90508381101561237b5760405162461bcd60e51b815260206004820152602560248201527f45524332303a2064656372656173656420616c6c6f77616e63652062656c6f77604482015264207a65726f60d81b606482015260840161064c565b610e198286868403613a68565b612390613b8d565b600b546001600160a01b03166123df5760405162461bcd60e51b8152602060048201526014602482015273494e56414c49445f4641524d5f4144445245535360601b604482015260640161064c565b6006546001600160a01b031661242e5760405162461bcd60e51b8152602060048201526014602482015273494e56414c49445f424153455f4144445245535360601b604482015260640161064c565b6007546001600160a01b031661247e5760405162461bcd60e51b8152602060048201526015602482015274494e56414c49445f544f4b454e5f4144445245535360581b604482015260640161064c565b600b60009054906101000a90046001600160a01b03166001600160a01b031663640344dd6040518163ffffffff1660e01b8152600401600060405180830381600087803b1580156124ce57600080fd5b505af11580156124e2573d6000803e3d6000fd5b50506006546040516370a0823160e01b8152306004820152600093506001600160a01b0390911691506370a0823190602401602060405180830381865afa158015612531573d6000803e3d6000fd5b505050506040513d601f19601f820116820180604052508101906125559190614287565b6007546040516370a0823160e01b81523060048201529192506000916001600160a01b03909116906370a0823190602401602060405180830381865afa1580156125a3573d6000803e3d6000fd5b505050506040513d601f19601f820116820180604052508101906125c79190614287565b600b54604080516359bf5d3960e01b8152815193945060009384936001600160a01b0316926359bf5d3992600480820193918290030181865afa158015612612573d6000803e3d6000fd5b505050506040513d601f19601f820116820180604052508101906126369190614592565b9092509050818411156126d257600061265460026108278786613a5c565b600654600b5460405163a9059cbb60e01b81529293506001600160a01b039182169263a9059cbb9261268c921690859060040161437c565b6020604051808303816000875af11580156126ab573d6000803e3d6000fd5b505050506040513d601f19601f820116820180604052508101906126cf91906141e3565b50505b8184101561274c5760006126eb60026108278588613a5c565b600b5460405163ede198bb60e01b8152600481018390529192506001600160a01b03169063ede198bb90602401600060405180830381600087803b15801561273257600080fd5b505af1158015612746573d6000803e3d6000fd5b50505050505b808311156127e357600061276560026108278685613a5c565b600754600b5460405163a9059cbb60e01b81529293506001600160a01b039182169263a9059cbb9261279d921690859060040161437c565b6020604051808303816000875af11580156127bc573d6000803e3d6000fd5b505050506040513d601f19601f820116820180604052508101906127e091906141e3565b50505b8083101561285d5760006127fc60026108278587613a5c565b600b546040516309c34eff60e31b8152600481018390529192506001600160a01b031690634e1a77f890602401600060405180830381600087803b15801561284357600080fd5b505af1158015612857573d6000803e3d6000fd5b50505050505b50505050565b600033610bcf818585613c5b565b612879613b8d565b600a5460405163109cc30b60e21b81526001600160a01b03909116906342730c2c906128a99030906004016145dd565b602060405180830381865afa1580156128c6573d6000803e3d6000fd5b505050506040513d601f19601f820116820180604052508101906128ea91906141e3565b6129065760405162461bcd60e51b815260040161064c90614443565b600a54604051636bfb078d60e01b81526000916001600160a01b031690636bfb078d90612937903090600401614600565b602060405180830381865afa158015612954573d6000803e3d6000fd5b505050506040513d601f19601f820116820180604052508101906129789190614653565b90506001600160a01b0381166129c25760405162461bcd60e51b815260206004820152600f60248201526e494e56414c49445f4144445245535360881b604482015260640161064c565b600980546001600160a01b0319166001600160a01b0383811691909117909155600a54604051636e977f0b60e01b8152911690636e977f0b90612a0a90600190600401614670565b600060405180830381600087803b158015612a2457600080fd5b505af1158015612a38573d6000803e3d6000fd5b5050600a546040516345503fcb60e11b81526001600160a01b039091169250638aa07f969150610dcb906004016146b2565b60008083118015612a7b5750600082115b612a975760405162461bcd60e51b815260040161064c90614516565b6000612aa38385613a3d565b90506000612ab18487613a5c565b90506000610c22866112748585613a50565b6000806000612ad160025490565b905060008082600003612ae85750849050806115de565b600080612af3613833565b9092509050612b148161127484610827612b0d828e613dff565b8690613a3d565b92506115d982610827878b613a3d565b333214612bb857600954604051636c9b2a3f60e11b81523360048201526001600160a01b039091169063d936547e90602401602060405180830381865afa158015612b73573d6000803e3d6000fd5b505050506040513d601f19601f82011682018060405250810190612b9791906141e3565b1515600114612bb85760405162461bcd60e51b815260040161064c90614205565b42811015612bd85760405162461bcd60e51b815260040161064c90614230565b60008311612c215760405162461bcd60e51b81526020600482015260166024820152751253959053125117d3505617d09054d157d25394155560521b604482015260640161064c565b60008211612c685760405162461bcd60e51b81526020600482015260146024820152731253959053125117d513d2d15397d3d55514155560621b604482015260640161064c565b6007546040516370a0823160e01b81523060048201526001600160a01b03909116906370a0823190602401602060405180830381865afa158015612cb0573d6000803e3d6000fd5b505050506040513d601f19601f82011682018060405250810190612cd49190614287565b8210612cf25760405162461bcd60e51b815260040161064c906146c4565b600080612cfd613833565b9092509050808410612d215760405162461bcd60e51b815260040161064c9061470d565b6000612d2e858484612a6a565b90506000612d4d6103e8610827600c5485613a3d90919063ffffffff16565b9050612d598282613dff565b915086821115612d7b5760405162461bcd60e51b815260040161064c906142a0565b60008211612d9b5760405162461bcd60e51b815260040161064c90614566565b6006546040516370a0823160e01b81523360048201526001600160a01b03909116906370a0823190602401602060405180830381865afa158015612de3573d6000803e3d6000fd5b505050506040513d601f19601f82011682018060405250810190612e079190614287565b821115612e565760405162461bcd60e51b815260206004820152601e60248201527f424153455f494e5055545f4849474845525f555345525f42414c414e43450000604482015260640161064c565b6006546040516323b872dd60e01b81526001600160a01b03909116906323b872dd90612e8a90339030908790600401614358565b6020604051808303816000875af1158015612ea9573d6000803e3d6000fd5b505050506040513d601f19601f82011682018060405250810190612ecd91906141e3565b5060075460405163a9059cbb60e01b81526001600160a01b039091169063a9059cbb90612f009033908a9060040161437c565b6020604051808303816000875af1158015612f1f573d6000803e3d6000fd5b505050506040513d601f19601f82011682018060405250810190612f4391906141e3565b5060065460085460405163a9059cbb60e01b81526001600160a01b039283169263a9059cbb92612f7a92911690859060040161437c565b6020604051808303816000875af1158015612f99573d6000803e3d6000fd5b505050506040513d601f19601f82011682018060405250810190612fbd91906141e3565b50600854600654604051632054895360e21b81526001600160a01b039182166004820152336024820152911690638152254c90604401600060405180830381600087803b15801561300d57600080fd5b505af1158015613021573d6000803e3d6000fd5b505050507f6e9d5a0202c67970b52b10deb68f1641a9408d90db857bc984d008c1be70383a338884898888604051611b9496959493929190614395565b6000808311801561306f5750600082115b61308b5760405162461bcd60e51b815260040161064c90614516565b60006130978385613a3d565b905060006130a58487613dff565b90506000610c226130b68484613a50565b8790613a5c565b6001600160a01b03918216600090815260016020908152604080832093909416825291909152205490565b33321461317c57600954604051636c9b2a3f60e11b81523360048201526001600160a01b039091169063d936547e90602401602060405180830381865afa158015613137573d6000803e3d6000fd5b505050506040513d601f19601f8201168201806040525081019061315b91906141e3565b151560011461317c5760405162461bcd60e51b815260040161064c90614205565b4281101561319c5760405162461bcd60e51b815260040161064c90614230565b600083116131bc5760405162461bcd60e51b815260040161064c90614566565b600082116132075760405162461bcd60e51b81526020600482015260186024820152771253959053125117d3525397d513d2d15397d3d55514155560421b604482015260640161064c565b6006546040516370a0823160e01b81523360048201526001600160a01b03909116906370a0823190602401602060405180830381865afa15801561324f573d6000803e3d6000fd5b505050506040513d601f19601f820116820180604052508101906132739190614287565b8311156132c25760405162461bcd60e51b815260206004820152601e60248201527f424153455f494e5055545f4849474845525f555345525f42414c414e43450000604482015260640161064c565b6000806132cd613833565b909250905080841061332d5760405162461bcd60e51b815260206004820152602360248201527f4d494e5f544f4b454e5f4849474845525f504f4f4c5f544f4b454e5f42414c416044820152624e434560e81b606482015260840161064c565b600061334a6103e8610827600c5489613a3d90919063ffffffff16565b905060006133588783613a5c565b90506000613367828686610e24565b9050868110156133895760405162461bcd60e51b815260040161064c906142a0565b8381106133a85760405162461bcd60e51b815260040161064c9061470d565b6007546040516370a0823160e01b81523060048201526001600160a01b03909116906370a0823190602401602060405180830381865afa1580156133f0573d6000803e3d6000fd5b505050506040513d601f19601f820116820180604052508101906134149190614287565b81106134325760405162461bcd60e51b815260040161064c906146c4565b6006546040516323b872dd60e01b81526001600160a01b03909116906323b872dd9061346690339030908d90600401614358565b6020604051808303816000875af1158015613485573d6000803e3d6000fd5b505050506040513d601f19601f820116820180604052508101906134a991906141e3565b5060075460405163a9059cbb60e01b81526001600160a01b039091169063a9059cbb906134dc903390859060040161437c565b6020604051808303816000875af11580156134fb573d6000803e3d6000fd5b505050506040513d601f19601f8201168201806040525081019061351f91906141e3565b5060065460085460405163a9059cbb60e01b81526001600160a01b039283169263a9059cbb9261355692911690879060040161437c565b6020604051808303816000875af1158015613575573d6000803e3d6000fd5b505050506040513d601f19601f8201168201806040525081019061359991906141e3565b50600854600654604051632054895360e21b81526001600160a01b039182166004820152336024820152911690638152254c90604401600060405180830381600087803b1580156135e957600080fd5b505af11580156135fd573d6000803e3d6000fd5b505050507fd294be030e23d0862312f418541ec01d571908715169f1cb1109bba3212b8c2d33888a848989604051610b1d96959493929190614395565b613642613b8d565b600a5460405163109cc30b60e21b81526001600160a01b03909116906342730c2c9061367290309060040161477b565b602060405180830381865afa15801561368f573d6000803e3d6000fd5b505050506040513d601f19601f820116820180604052508101906136b391906141e3565b6136cf5760405162461bcd60e51b815260040161064c90614443565b600a54604051636bfb078d60e01b81526000916001600160a01b031690636bfb078d9061370090309060040161479e565b602060405180830381865afa15801561371d573d6000803e3d6000fd5b505050506040513d601f19601f820116820180604052508101906137419190614653565b90506001600160a01b03811661378b5760405162461bcd60e51b815260206004820152600f60248201526e494e56414c49445f4144445245535360881b604482015260640161064c565b600880546001600160a01b0319166001600160a01b0383811691909117909155600a54604051636e977f0b60e01b8152911690636e977f0b906137d3906001906004016147f2565b600060405180830381600087803b1580156137ed57600080fd5b505af1158015613801573d6000803e3d6000fd5b5050600a546040516345503fcb60e11b81526001600160a01b039091169250638aa07f969150610dcb90600401614835565b6006546040516370a0823160e01b8152306004820152600091829182916001600160a01b0316906370a0823190602401602060405180830381865afa158015613880573d6000803e3d6000fd5b505050506040513d601f19601f820116820180604052508101906138a49190614287565b6007546040516370a0823160e01b81523060048201529192506000916001600160a01b03909116906370a0823190602401602060405180830381865afa1580156138f2573d6000803e3d6000fd5b505050506040513d601f19601f820116820180604052508101906139169190614287565b600b54604080516359bf5d3960e01b8152815193945060009384936001600160a01b0316926359bf5d3992600480820193918290030181865afa158015613961573d6000803e3d6000fd5b505050506040513d601f19601f820116820180604052508101906139859190614592565b90925090506139948483613dff565b61399e8483613dff565b95509550505050509091565b600080806139b6613833565b909250905060006115308284613a3d565b6139cf613b8d565b6001600160a01b038116613a345760405162461bcd60e51b815260206004820152602660248201527f4f776e61626c653a206e6577206f776e657220697320746865207a65726f206160448201526564647265737360d01b606482015260840161064c565b610eaf81613ff4565b6000613a498284614847565b9392505050565b6000613a49828461485e565b6000613a498284614880565b6001600160a01b038316613aca5760405162461bcd60e51b8152602060048201526024808201527f45524332303a20617070726f76652066726f6d20746865207a65726f206164646044820152637265737360e01b606482015260840161064c565b6001600160a01b038216613b2b5760405162461bcd60e51b815260206004820152602260248201527f45524332303a20617070726f766520746f20746865207a65726f206164647265604482015261737360f01b606482015260840161064c565b6001600160a01b0383811660008181526001602090815260408083209487168084529482529182902085905590518481527f8c5be1e5ebec7d5bd14f71427d1e84f3dd0314c0f7b2291e5b200ac8c7c3b92591015b60405180910390a3505050565b6005546001600160a01b031633146116585760405162461bcd60e51b815260206004820181905260248201527f4f776e61626c653a2063616c6c6572206973206e6f7420746865206f776e6572604482015260640161064c565b6000613bf384846130bd565b9050600019811461285d5781811015613c4e5760405162461bcd60e51b815260206004820152601d60248201527f45524332303a20696e73756666696369656e7420616c6c6f77616e6365000000604482015260640161064c565b61285d8484848403613a68565b6001600160a01b038316613cbf5760405162461bcd60e51b815260206004820152602560248201527f45524332303a207472616e736665722066726f6d20746865207a65726f206164604482015264647265737360d81b606482015260840161064c565b6001600160a01b038216613d215760405162461bcd60e51b815260206004820152602360248201527f45524332303a207472616e7366657220746f20746865207a65726f206164647260448201526265737360e81b606482015260840161064c565b6001600160a01b03831660009081526020819052604090205481811015613d995760405162461bcd60e51b815260206004820152602660248201527f45524332303a207472616e7366657220616d6f756e7420657863656564732062604482015265616c616e636560d01b606482015260840161064c565b6001600160a01b03848116600081815260208181526040808320878703905593871680835291849020805487019055925185815290927fddf252ad1be2c89b69c2b068fc378daa952ba7f163c4a11628f55a4df523b3ef910160405180910390a361285d565b6000613a498284614553565b6001600160a01b038216613e6b5760405162461bcd60e51b815260206004820152602160248201527f45524332303a206275726e2066726f6d20746865207a65726f206164647265736044820152607360f81b606482015260840161064c565b6001600160a01b03821660009081526020819052604090205481811015613edf5760405162461bcd60e51b815260206004820152602260248201527f45524332303a206275726e20616d6f756e7420657863656564732062616c616e604482015261636560f01b606482015260840161064c565b6001600160a01b0383166000818152602081815260408083208686039055600280548790039055518581529192917fddf252ad1be2c89b69c2b068fc378daa952ba7f163c4a11628f55a4df523b3ef9101613b80565b6001600160a01b038216613f8b5760405162461bcd60e51b815260206004820152601f60248201527f45524332303a206d696e7420746f20746865207a65726f206164647265737300604482015260640161064c565b8060026000828254613f9d9190614553565b90915550506001600160a01b038216600081815260208181526040808320805486019055518481527fddf252ad1be2c89b69c2b068fc378daa952ba7f163c4a11628f55a4df523b3ef910160405180910390a35050565b600580546001600160a01b038381166001600160a01b0319831681179093556040519116919082907f8be0079c531659141344cd1fd0a4f28419497f9722a3daafe3b4186f6b6457e090600090a35050565b60008060006060848603121561405b57600080fd5b505081359360208301359350604090920135919050565b600060208083528351808285015260005b8181101561409f57858101830151858201604001528201614083565b506000604082860101526040601f19601f8301168501019250505092915050565b6001600160a01b0381168114610eaf57600080fd5b600080604083850312156140e857600080fd5b82356140f3816140c0565b946020939093013593505050565b60006020828403121561411357600080fd5b5035919050565b60008060006060848603121561412f57600080fd5b833561413a816140c0565b9250602084013561414a816140c0565b929592945050506040919091013590565b6000806000806080858703121561417157600080fd5b5050823594602084013594506040840135936060013592509050565b60006020828403121561419f57600080fd5b8135613a49816140c0565b600080604083850312156141bd57600080fd5b82356141c8816140c0565b915060208301356141d8816140c0565b809150509250929050565b6000602082840312156141f557600080fd5b81518015158114613a4957600080fd5b6020808252601190820152701253959053125117d5d2125511531254d5607a1b604082015260600190565b60208082526010908201526f494e56414c49445f444541444c494e4560801b604082015260600190565b6020808252601390820152721253959053125117d513d2d15397d253941555606a1b604082015260600190565b60006020828403121561429957600080fd5b5051919050565b60208082526012908201527143414e5f4e4f545f4d414b455f545241444560701b604082015260600190565b60208082526024908201527f424153455f4f55545055545f4849474845525f504f4f4c5f424153455f42414c604082015263414e434560e01b606082015260800190565b60208082526028908201527f424153455f4f55545055545f4849474845525f43555252454e545f54524144456040820152675f42414c414e434560c01b606082015260800190565b6001600160a01b039384168152919092166020820152604081019190915260600190565b6001600160a01b03929092168252602082015260400190565b6001600160a01b03969096168652602086019490945260408501929092526060840152608083015260a082015260c00190565b600181811c908216806143dc57607f821691505b6020821081036143fc57634e487b7160e01b600052602260045260246000fd5b50919050565b600b81526a736574547261646546656560a81b602082015260400190565b6001600160a01b0382168152604060208201819052600090613a49908301614402565b60208082526012908201527124a72b20a624a22fa822a926a4a9a9a4a7a760711b604082015260600190565b6001600160a01b0382168152606060208201819052600090614492908301614402565b8281036040840152611530816008815267747261646546656560c01b602082015260400190565b6060815260006144cb60608301614402565b82810360208401526144f2816008815267747261646546656560c01b602082015260400190565b91505060ff8316604083015292915050565b602081526000610bd560208301614402565b6020808252600d908201526c494e56414c49445f56414c554560981b604082015260600190565b634e487b7160e01b600052601160045260246000fd5b80820180821115610bd557610bd561453d565b6020808252601290820152711253959053125117d09054d157d25394155560721b604082015260600190565b600080604083850312156145a557600080fd5b505080516020909101519092909150565b60148152731cd95d15da1a5d195b1a5cdd10dbdb9d1c9858dd60621b602082015260400190565b6001600160a01b0382168152604060208201819052600090613a499083016145b6565b6001600160a01b03821681526060602082018190526000906146239083016145b6565b82810360408401526115308160118152701dda1a5d195b1a5cdd10dbdb9d1c9858dd607a1b602082015260400190565b60006020828403121561466557600080fd5b8151613a49816140c0565b606081526000614682606083016145b6565b82810360208401526144f28160118152701dda1a5d195b1a5cdd10dbdb9d1c9858dd607a1b602082015260400190565b602081526000610bd5602083016145b6565b60208082526029908201527f544f4b454e5f4f55545055545f4849474845525f43555252454e545f54524144604082015268455f42414c414e434560b81b606082015260800190565b60208082526026908201527f544f4b454e5f4f55545055545f4849474845525f504f4f4c5f544f4b454e5f42604082015265414c414e434560d01b606082015260800190565b60158152741cd95d119959535858da1a5b9950dbdb9d1c9858dd605a1b602082015260400190565b6001600160a01b0382168152604060208201819052600090613a49908301614753565b6001600160a01b03821681526060602082018190526000906147c1908301614753565b8281036040840152611530816012815271199959535858da1a5b9950dbdb9d1c9858dd60721b602082015260400190565b60608152600061480460608301614753565b82810360208401526144f2816012815271199959535858da1a5b9950dbdb9d1c9858dd60721b602082015260400190565b602081526000610bd560208301614753565b8082028115828204841417610bd557610bd561453d565b60008261487b57634e487b7160e01b600052601260045260246000fd5b500490565b81810381811115610bd557610bd561453d56fea26469706673582212205754677b2aa9431aead6774208ca3e8d1b9f9080fdd7e25b7bdcaf3eab90e65864736f6c63430008110033",
  "immutableReferences": {},
  "source": "// SPDX-License-Identifier: MIT\r\npragma solidity >=0.6.12;\r\n\r\nimport \"@openzeppelin/contracts/utils/math/SafeMath.sol\";\r\nimport \"@openzeppelin/contracts/token/ERC20/IERC20.sol\";\r\nimport \"@openzeppelin/contracts/token/ERC20/ERC20.sol\";\r\nimport \"@openzeppelin/contracts/token/ERC20/extensions/ERC20Burnable.sol\";\r\nimport \"@openzeppelin/contracts/utils/Context.sol\";\r\nimport \"@openzeppelin/contracts/access/Ownable.sol\";\r\n\r\nimport './interfaces/IGarbiswapFarmAavev3.sol';\r\nimport './interfaces/IGarbiswapFeeMachine.sol';\r\nimport './interfaces/IGarbiswapWhitelist.sol';\r\nimport './interfaces/IGarbiTimeLock.sol';\r\n\r\ncontract GarbiswapTradeUSDTUSDCaavev3 is ERC20Burnable, Ownable {\r\n    \r\n    using SafeMath for uint256;\r\n\r\n    IERC20 public base; // Stable coin base token (USDC)\r\n    IERC20 public token; // Token to trade in this pair\r\n\r\n    // Fee Machine Contract.\r\n    IGarbiswapFeeMachine public feeMachineContract; \r\n\r\n    IGarbiswapWhitelist public whitelistContract; \r\n\r\n    IGarbiTimeLock public garbiTimeLockContract;\r\n    // Pool farm of this Contract.\r\n    IGarbiswapFarmAavev3 public farmContract;\r\n\r\n    uint256 public TRADE_FEE = 1; //0.1% 1/1000\r\n\r\n    modifier onlyWhitelist()\r\n    {\r\n        if (msg.sender != tx.origin) {\r\n            require(whitelistContract.whitelisted(msg.sender) == true, 'INVALID_WHITELIST');\r\n        }\r\n        _;\r\n    }\r\n\r\n    // Events\r\n\r\n    event onSwapBaseToTokenWithBaseInput(address sender, uint256 minTokenOutput, uint256 baseInputAmount, uint256 tokenOutputAmount, uint256 poolBaseBalance, uint256 poolTokenBalance);\r\n    event onSwapBaseToTokenWithTokenOutput(address sender, uint256 maxBaseInput, uint256 baseInputAmount, uint256 tokenOutputAmount, uint256 poolBaseBalance, uint256 poolTokenBalance);\r\n    \r\n    event onSwapTokenToBaseWithTokenInput(address sender, uint256 minBaseOutput, uint256 tokenInputAmount, uint256 baseOutputAmount, uint256 poolBaseBalance, uint256 poolTokenBalance);\r\n    event onSwapTokenToBaseWithBaseOutput(address sender, uint256 maxTokenInput, uint256 tokenInputAmount, uint256 baseOutputAmount, uint256 poolBaseBalance, uint256 poolTokenBalance);\r\n\r\n    event onAddLP(address sender, uint256 mintLP, uint256 baseInputAmount, uint256 tokenInputAmount, uint256 poolBaseBalance, uint256 poolTokenBalance);\r\n    event onRemoveLP(address sender, uint256 amountLP, uint256 baseOutputAmout, uint256 tokenOutputAmount, uint256 poolBaseBalance, uint256 poolTokenBalance);\r\n\r\n    constructor(\r\n        IERC20 _base,\r\n        IERC20 _token,\r\n        IGarbiTimeLock _garbiTimeLockContract,\r\n        IGarbiswapFeeMachine _feeMachineContract,\r\n        IGarbiswapFarmAavev3 _farmContract,\r\n        IGarbiswapWhitelist _whitelistContract,\r\n        string memory name, \r\n        string memory symbol\r\n        ) ERC20(name, symbol) {\r\n        base = _base;\r\n        token = _token;\r\n        garbiTimeLockContract = _garbiTimeLockContract;\r\n        whitelistContract = _whitelistContract;\r\n        feeMachineContract = _feeMachineContract;\r\n        farmContract = _farmContract;\r\n    }\r\n\r\n    function setWhitelistContract() public onlyOwner {\r\n        require(garbiTimeLockContract.isQueuedTransaction(address(this), 'setWhitelistContract'), \"INVALID_PERMISSION\");\r\n\r\n        address _whitelistContract = garbiTimeLockContract.getAddressChangeOnTimeLock(address(this), 'setWhitelistContract', 'whitelistContract');\r\n\r\n        require(_whitelistContract != address(0), \"INVALID_ADDRESS\");\r\n\r\n        whitelistContract = IGarbiswapWhitelist(_whitelistContract);\r\n\r\n        garbiTimeLockContract.clearFieldValue('setWhitelistContract', 'whitelistContract', 1);\r\n        garbiTimeLockContract.doneTransactions('setWhitelistContract');\r\n    }\r\n\r\n    function setFeeMachineContract() public onlyOwner {\r\n\r\n        require(garbiTimeLockContract.isQueuedTransaction(address(this), 'setFeeMachineContract'), \"INVALID_PERMISSION\");\r\n\r\n        address _feeMachineContract = garbiTimeLockContract.getAddressChangeOnTimeLock(address(this), 'setFeeMachineContract', 'feeMachineContract');\r\n\r\n        require(_feeMachineContract != address(0), \"INVALID_ADDRESS\");\r\n\r\n        feeMachineContract = IGarbiswapFeeMachine(_feeMachineContract);\r\n\r\n        garbiTimeLockContract.clearFieldValue('setFeeMachineContract', 'feeMachineContract', 1);\r\n        garbiTimeLockContract.doneTransactions('setFeeMachineContract');\r\n    }\r\n\r\n    function setTradeFee() public onlyOwner {\r\n\r\n        require(garbiTimeLockContract.isQueuedTransaction(address(this), 'setTradeFee'), \"INVALID_PERMISSION\");\r\n\r\n        uint256 _tradeFee = garbiTimeLockContract.getUintChangeOnTimeLock(address(this), 'setTradeFee', 'tradeFee');\r\n\r\n        TRADE_FEE = _tradeFee;\r\n\r\n        garbiTimeLockContract.clearFieldValue('setTradeFee', 'tradeFee', 2);\r\n        garbiTimeLockContract.doneTransactions('setTradeFee');\r\n    }\r\n\r\n    function getK() public view returns(uint256) {\r\n        uint256 baseReserve = 0;\r\n        uint256 tokenReserve = 0;\r\n        (baseReserve, tokenReserve) = getTotalReserve();\r\n        uint256 k = tokenReserve.mul(baseReserve);\r\n        return k;\r\n    }\r\n\r\n    function getTokenOutput(uint256 baseInputAmount) public view returns (uint256) {\r\n        uint256 baseReserve = 0;\r\n        uint256 tokenReserve = 0;\r\n        (baseReserve, tokenReserve) = getTotalReserve();\r\n\r\n        uint256 tradeFee = baseInputAmount.mul(TRADE_FEE).div(1000);\r\n        uint256 baseInputAmountAfterFee = baseInputAmount.sub(tradeFee); // cut the TRADE_FEE from base input\r\n\r\n        uint256 tokenOutputAmount = getTokenOutputAmountFromBaseInput(baseInputAmountAfterFee, baseReserve, tokenReserve);\r\n        return tokenOutputAmount;\r\n    }\r\n\r\n    function getBaseOutput(uint256 tokenInputAmount) public view returns (uint256) {\r\n        uint256 baseReserve = 0;\r\n        uint256 tokenReserve = 0;\r\n        (baseReserve, tokenReserve) = getTotalReserve();\r\n\r\n        uint256 tradeFee = tokenInputAmount.mul(TRADE_FEE).div(1000);\r\n        uint256 tokenInputAmountAfterFee = tokenInputAmount.sub(tradeFee); // cut the TRADE_FEE from token input\r\n\r\n        uint256 baseOutputAmount = getBaseOutputAmountFromTokenInput(tokenInputAmountAfterFee, baseReserve, tokenReserve);\r\n        return baseOutputAmount;\r\n    }\r\n\r\n    function getDataFromBaseInputToAddLp(uint256 baseInputAmount) public view returns (uint256, uint256) {\r\n        uint256 totalSupply = totalSupply();\r\n        uint256 mintLP = 0;\r\n        uint256 tokenInputAmount = 0;\r\n        if(totalSupply == 0) {\r\n            mintLP = baseInputAmount;\r\n            tokenInputAmount = baseInputAmount;\r\n        }\r\n        else { \r\n            // tokenReserve/baseReserve = (tokenReserve+tokenInputAmount)/(baseReserve+baseInputAmount)\r\n            // => tokenReserve+tokenInputAmount = tokenReserve*(baseReserve+baseInputAmount)/baseReserve\r\n            // => tokenInputAmount = tokenReserve*(baseReserve+baseInputAmount)/baseReserve - tokenReserve;\r\n            uint256 baseReserve = 0;\r\n            uint256 tokenReserve = 0;\r\n            (baseReserve, tokenReserve) = getTotalReserve();\r\n            tokenInputAmount = tokenReserve.mul(baseReserve.add(baseInputAmount)).div(baseReserve).sub(tokenReserve);\r\n            // mintLP/totalLP =  baseInputAmount/baseReserve\r\n            // mintLP = totalLP*baseInputAmount/baseReserve\r\n            mintLP = totalSupply.mul(baseInputAmount).div(baseReserve);\r\n        }\r\n        return (mintLP, tokenInputAmount);\r\n    }\r\n\r\n    function getDataFromTokenInputToAddLp(uint256 tokenInputAmount) public view returns (uint256, uint256) {\r\n        uint256 totalSupply = totalSupply();\r\n        uint256 mintLP;\r\n        uint256 baseInputAmount;\r\n        if(totalSupply == 0) {\r\n            mintLP = tokenInputAmount;\r\n            baseInputAmount = tokenInputAmount;\r\n        }\r\n        else { \r\n            // tokenReserve/baseReserve = (tokenReserve+tokenInputAmount)/(baseReserve+baseInputAmount)\r\n            // => (baseReserve+baseInputAmount) = (tokenReserve+tokenInputAmount) * baseReserve / tokenReserve\r\n            //  => baseInputAmount = (tokenReserve+tokenInputAmount) * baseReserve / tokenReserve - baseReserve\r\n            uint256 baseReserve = 0;\r\n            uint256 tokenReserve = 0;\r\n            (baseReserve, tokenReserve) = getTotalReserve();\r\n\r\n            baseInputAmount = baseReserve.mul(tokenReserve.add(tokenInputAmount)).div(tokenReserve).sub(baseReserve);\r\n            // mintLP/totalLP =  baseInputAmount/baseReserve\r\n            // mintLP = totalLP*baseInputAmount/baseReserve\r\n            mintLP = totalSupply.mul(baseInputAmount).div(baseReserve);\r\n        }\r\n        return (mintLP, baseInputAmount);\r\n    }\r\n\r\n    function getDataToRemoveLP(uint256 amountLP) public view returns (uint256, uint256){\r\n        \r\n        uint256 totalSupply = totalSupply();\r\n\r\n        if (amountLP > totalSupply) {\r\n            amountLP = totalSupply;\r\n        } \r\n        uint256 baseReserve = 0;\r\n        uint256 tokenReserve = 0;\r\n        (baseReserve, tokenReserve) = getTotalReserve();\r\n        \r\n        // amountLP/totalSupply = baseOutputAmount/baseReserve\r\n        // => baseOutputAmount = amountLP*baseReserve/totalSupply\r\n        uint256 baseOutputAmount = amountLP.mul(baseReserve).div(totalSupply);\r\n        uint256 tokenOutputAmount = amountLP.mul(tokenReserve).div(totalSupply);\r\n        \r\n        return (baseOutputAmount, tokenOutputAmount);\r\n    }\r\n    \r\n    // token*base=(token-tokenOutputAmount)*(base+baseInputAmount)\r\n    //token-tokenOutputAmount = token*base/(base+baseInputAmount)\r\n    // => tokenOutputAmount=token - token*base/(base+baseInputAmount)\r\n    function getTokenOutputAmountFromBaseInput(uint256 baseInputAmount, uint256 baseReserve, uint256 tokenReserve) public pure returns (uint256) {\r\n      require(baseReserve > 0 && tokenReserve > 0, \"INVALID_VALUE\");\r\n      uint256 numerator = tokenReserve.mul(baseReserve);\r\n      uint256 denominator = baseReserve.add(baseInputAmount);\r\n      uint256 tokenOutputAmount = tokenReserve.sub(numerator.div(denominator));\r\n      return tokenOutputAmount;\r\n    }\r\n    \r\n    // token*base=(token-tokenOutputAmount)*(base+baseInputAmount)\r\n    // base+baseInputAmount = token*base/(token-tokenOutputAmount)\r\n    //baseInputAmount = token*base/(token-tokenOutputAmount) - base;\r\n    function getBaseInputAmountFromTokenOutput(uint256 tokenOutputAmount, uint256 baseReserve, uint256 tokenReserve) public pure  returns (uint256) {\r\n      require(baseReserve > 0 && tokenReserve > 0, \"INVALID_VALUE\");\r\n      uint256 numerator = tokenReserve.mul(baseReserve);\r\n      uint256 denominator = tokenReserve.sub(tokenOutputAmount);\r\n      uint256 baseInputAmount = numerator.div(denominator).sub(baseReserve);\r\n      return baseInputAmount;\r\n    }\r\n    \r\n    // token*base=(token+tokenInputAmount)*(base-baseOutputAmount)\r\n    // => base - baseOutputAmount=token*base/(token+tokenInputAmount)\r\n    // => baseOutputAmount = base - token*base/(token+tokenInputAmount)\r\n    function getBaseOutputAmountFromTokenInput(uint256 tokenInputAmount, uint256 baseReserve, uint256 tokenReserve) public pure returns (uint256) {\r\n      require(baseReserve > 0 && tokenReserve > 0, \"INVALID_VALUE\");\r\n      uint256 numerator = tokenReserve.mul(baseReserve);\r\n      uint256 denominator = tokenReserve.add(tokenInputAmount);\r\n      uint256 baseOutputAmount = baseReserve.sub(numerator.div(denominator));\r\n      return baseOutputAmount;\r\n    }\r\n\r\n    // token*base=(token+tokenInputAmount)*(base-baseOutputAmount)\r\n    // => token+tokenInputAmount = token*base/(base-baseOutputAmount)\r\n    // => tokenInputAmount = token*base/(base-baseOutputAmount) - token\r\n    function getTokenInputAmountFromBaseOutput(uint256 baseOutputAmount, uint256 baseReserve, uint256 tokenReserve) public pure returns (uint256) {\r\n      require(baseReserve > 0 && tokenReserve > 0, \"INVALID_VALUE\");\r\n      uint256 numerator = tokenReserve.mul(baseReserve);\r\n      uint256 denominator = baseReserve.sub(baseOutputAmount);\r\n      uint256 tokenInputAmount = numerator.div(denominator).sub(tokenReserve);\r\n      return tokenInputAmount;\r\n    }\r\n\r\n    function swapBaseToTokenWithBaseInput(uint256 baseInputAmount, uint256 minTokenOutput, uint256 deadline) public onlyWhitelist {\r\n        require(deadline >= block.timestamp, 'INVALID_DEADLINE');\r\n        require(baseInputAmount > 0, 'INVALID_BASE_INPUT');\r\n        require(minTokenOutput > 0, 'INVALID_MIN_TOKEN_OUTPUT');\r\n        require(baseInputAmount <= base.balanceOf(msg.sender), 'BASE_INPUT_HIGHER_USER_BALANCE');\r\n        \r\n        uint256 baseReserve = 0;\r\n        uint256 tokenReserve = 0;\r\n        (baseReserve, tokenReserve) = getTotalReserve();\r\n        require(minTokenOutput < tokenReserve, \"MIN_TOKEN_HIGHER_POOL_TOKEN_BALANCE\");\r\n\r\n        uint256 tradeFee = baseInputAmount.mul(TRADE_FEE).div(1000);\r\n        uint256 baseInputAmountAfterFee = baseInputAmount.sub(tradeFee); // cut the TRADE_FEE from base input\r\n        \r\n        uint256 tokenOutputAmount = getTokenOutputAmountFromBaseInput(baseInputAmountAfterFee, baseReserve, tokenReserve);\r\n\r\n        require(tokenOutputAmount >= minTokenOutput, 'CAN_NOT_MAKE_TRADE');\r\n        require(tokenOutputAmount < tokenReserve, 'TOKEN_OUTPUT_HIGHER_POOL_TOKEN_BALANCE');\r\n        require(tokenOutputAmount < token.balanceOf(address(this)), 'TOKEN_OUTPUT_HIGHER_CURRENT_TRADE_BALANCE'); // output is higher than the trade contract balance\r\n        \r\n        //make trade\r\n        base.transferFrom(msg.sender, address(this), baseInputAmount);\r\n        token.transfer(msg.sender, tokenOutputAmount);\r\n\r\n        //transfer fee\r\n        base.transfer(address(feeMachineContract), tradeFee);\r\n        feeMachineContract.processTradeFee(base, msg.sender); \r\n\r\n        emit onSwapBaseToTokenWithBaseInput(msg.sender, minTokenOutput, baseInputAmount, tokenOutputAmount, baseReserve, tokenReserve);\r\n    }\r\n\r\n    function swapBaseToTokenWithTokenOutput(uint256 maxBaseInput, uint256 tokenOutputAmount, uint256 deadline) public onlyWhitelist {\r\n        require(deadline >= block.timestamp, 'INVALID_DEADLINE');\r\n        require(maxBaseInput > 0, 'INVALID_MAX_BASE_INPUT');\r\n        require(tokenOutputAmount > 0, 'INVALID_TOKEN_OUTPUT');\r\n        require(tokenOutputAmount < token.balanceOf(address(this)), 'TOKEN_OUTPUT_HIGHER_CURRENT_TRADE_BALANCE'); // output is higher than the trade contract balance\r\n        \r\n        uint256 baseReserve = 0;\r\n        uint256 tokenReserve = 0;\r\n        (baseReserve, tokenReserve) = getTotalReserve();\r\n        require(tokenOutputAmount < tokenReserve, \"TOKEN_OUTPUT_HIGHER_POOL_TOKEN_BALANCE\");\r\n\r\n        uint256 baseInputAmount = getBaseInputAmountFromTokenOutput(tokenOutputAmount, baseReserve, tokenReserve);\r\n        \r\n        uint256 tradeFee = baseInputAmount.mul(TRADE_FEE).div(1000);\r\n        baseInputAmount = baseInputAmount.add(tradeFee); // add the TRADE_FEE to base input\r\n\r\n        require(baseInputAmount <= maxBaseInput, 'CAN_NOT_MAKE_TRADE');\r\n        require(baseInputAmount > 0, 'INVALID_BASE_INPUT');\r\n        require(baseInputAmount <= base.balanceOf(msg.sender), 'BASE_INPUT_HIGHER_USER_BALANCE');\r\n        \r\n        //make trade\r\n        base.transferFrom(msg.sender, address(this), baseInputAmount);\r\n        token.transfer(msg.sender, tokenOutputAmount);\r\n\r\n        //transfer fee\r\n        base.transfer(address(feeMachineContract), tradeFee);\r\n        feeMachineContract.processTradeFee(base, msg.sender);\r\n\r\n        emit onSwapBaseToTokenWithTokenOutput(msg.sender, maxBaseInput, baseInputAmount, tokenOutputAmount, baseReserve, tokenReserve);\r\n    }\r\n\r\n    function swapTokenToBaseWithTokenInput(uint256 tokenInputAmount, uint256 minBaseOutput, uint256 deadline) public onlyWhitelist {\r\n        require(deadline >= block.timestamp, 'INVALID_DEADLINE');\r\n        require(minBaseOutput > 0, 'INVALID_MIN_BASE_OUTPUT');\r\n        require(tokenInputAmount > 0, 'INVALID_TOKEN_INPUT');\r\n        require(tokenInputAmount <= token.balanceOf(msg.sender), 'TOKEN_INPUT_HIGHER_USER_BALANCE');\r\n\r\n        uint256 baseReserve = 0;\r\n        uint256 tokenReserve = 0;\r\n        (baseReserve, tokenReserve) = getTotalReserve();\r\n        require(minBaseOutput < baseReserve, 'MIN_BASE_OUTPUT_HIGHER_POOL_BASE_BALANCE');\r\n\r\n        uint256 tradeFee = tokenInputAmount.mul(TRADE_FEE).div(1000);\r\n        uint256 tokenInputAmountAfterFee = tokenInputAmount.sub(tradeFee); // cut the TRADE_FEE from token input\r\n        \r\n        uint256 baseOutputAmount = getBaseOutputAmountFromTokenInput(tokenInputAmountAfterFee, baseReserve, tokenReserve);\r\n\r\n        require(baseOutputAmount >= minBaseOutput, 'CAN_NOT_MAKE_TRADE');\r\n        require(baseOutputAmount < baseReserve, 'BASE_OUTPUT_HIGHER_POOL_BASE_BALANCE');\r\n        require(baseOutputAmount < base.balanceOf(address(this)), 'BASE_OUTPUT_HIGHER_CURRENT_TRADE_BALANCE'); // output is higher than the trade contract balance\r\n\r\n        //make trade\r\n        token.transferFrom(msg.sender, address(this), tokenInputAmount);\r\n        base.transfer(msg.sender, baseOutputAmount);\r\n\r\n        //transfer fee\r\n        token.transfer(address(feeMachineContract), tradeFee);\r\n        feeMachineContract.processTradeFee(token, msg.sender);\r\n\r\n        emit onSwapTokenToBaseWithTokenInput(msg.sender, minBaseOutput, tokenInputAmount, baseOutputAmount, baseReserve, tokenReserve);\r\n    }\r\n\r\n    function swapTokenToBaseWithBaseOutput(uint256 maxTokenInput, uint256 baseOutputAmount, uint256 deadline) public onlyWhitelist {\r\n        require(deadline >= block.timestamp, 'INVALID_DEADLINE');\r\n        require(maxTokenInput > 0, 'INVALID_MAX_TOKEN_INPUT');\r\n        require(baseOutputAmount > 0, 'INVALID_BASE_OUTPUT');\r\n        require(baseOutputAmount < base.balanceOf(address(this)), 'BASE_OUTPUT_HIGHER_CURRENT_TRADE_BALANCE'); // output is higher than the trade contract balance\r\n\r\n        uint256 baseReserve = 0;\r\n        uint256 tokenReserve = 0;\r\n        (baseReserve, tokenReserve) = getTotalReserve();\r\n        require(baseOutputAmount < baseReserve, 'BASE_OUTPUT_HIGHER_POOL_BASE_BALANCE');\r\n\r\n        uint256 tokenInputAmount = getTokenInputAmountFromBaseOutput(baseOutputAmount, baseReserve, tokenReserve);\r\n        \r\n        uint256 tradeFee = tokenInputAmount.mul(TRADE_FEE).div(1000);\r\n        tokenInputAmount = tokenInputAmount.add(tradeFee); // add the TRADE_FEE to token input\r\n\r\n        require(tokenInputAmount <= maxTokenInput, 'CAN_NOT_MAKE_TRADE');\r\n        require(tokenInputAmount > 0, 'INVALID_TOKEN_INPUT');\r\n        require(tokenInputAmount <= token.balanceOf(msg.sender), 'TOKEN_INPUT_HIGHER_USER_BALANCE');\r\n\r\n        //make trade\r\n        token.transferFrom(msg.sender, address(this), tokenInputAmount);\r\n        base.transfer(msg.sender, baseOutputAmount);\r\n\r\n        //transfer fee\r\n        token.transfer(address(feeMachineContract), tradeFee);\r\n        feeMachineContract.processTradeFee(token, msg.sender);\r\n\r\n        emit onSwapTokenToBaseWithBaseOutput(msg.sender, maxTokenInput, tokenInputAmount, baseOutputAmount, baseReserve, tokenReserve);\r\n    }\r\n\r\n    function addLP(uint256 minLP, uint256 baseInputAmount, uint256 maxTokenInputAmount, uint256 deadline) public onlyWhitelist returns (uint256) {\r\n        require(deadline >= block.timestamp, 'INVALID_DEADLINE');\r\n        require(minLP > 0, 'INVALID_MIN_LP');\r\n        require(baseInputAmount > 0, 'INVALID_BASE_INPUT');\r\n        require(maxTokenInputAmount > 0, 'INVALID_MAX_TOKEN_INPUT');\r\n        \r\n        uint256 totalSupply = totalSupply();\r\n        if(totalSupply == 0) {\r\n            base.transferFrom(msg.sender, address(this), baseInputAmount);\r\n            token.transferFrom(msg.sender, address(this), maxTokenInputAmount);\r\n            uint256 initLP = baseInputAmount;\r\n            _mint(msg.sender, initLP);\r\n            emit onAddLP(msg.sender, initLP, baseInputAmount, maxTokenInputAmount, base.balanceOf(address(this)), token.balanceOf(address(this)));\r\n            return initLP;\r\n        }\r\n        else { \r\n            // tokenReserve/baseReserve = (tokenReserve+tokenInputAmount)/(baseReserve+baseInputAmount)\r\n            // => tokenReserve+tokenInputAmount = tokenReserve*(baseReserve+baseInputAmount)/baseReserve\r\n            // => tokenInputAmount = tokenReserve*(baseReserve+baseInputAmount)/baseReserve - tokenReserve;\r\n            uint256 baseReserve = 0;\r\n            uint256 tokenReserve = 0;\r\n            (baseReserve, tokenReserve) = getTotalReserve();\r\n            uint256 tokenInputAmount = tokenReserve.mul(baseReserve.add(baseInputAmount)).div(baseReserve).sub(tokenReserve);\r\n            // mintLP/totalLP =  baseInputAmount/baseReserve\r\n            // mintLP = totalLP*baseInputAmount/baseReserve\r\n            uint256 mintLP = totalSupply.mul(baseInputAmount).div(baseReserve);\r\n            \r\n            require(tokenInputAmount > 0, 'INVALID_TOKEN_INPUT');\r\n            require(tokenInputAmount <= maxTokenInputAmount, 'INVALID_TOKEN_INPUT');\r\n            require(mintLP >= minLP, \"INVALID_MINT_LP\");\r\n\r\n            base.transferFrom(msg.sender, address(this), baseInputAmount);\r\n            token.transferFrom(msg.sender, address(this), tokenInputAmount);\r\n            _mint(msg.sender, mintLP);\r\n            emit onAddLP(msg.sender, mintLP, baseInputAmount, tokenInputAmount, base.balanceOf(address(this)), token.balanceOf(address(this)));\r\n            return mintLP;\r\n        }\r\n    }\r\n\r\n    function removeLP(uint256 amountLP, uint256 minBaseOutput, uint256 minTokenOutput, uint256 deadline) public onlyWhitelist returns (uint256, uint256){\r\n        require(deadline >= block.timestamp, 'INVALID_DEADLINE');\r\n        require(amountLP > 0, 'INVALID_AMOUNT_LP');\r\n        require(minBaseOutput > 0, 'INVALID_MIN_BASE_OUTPUT');\r\n        require(minTokenOutput > 0, 'INVALID_MIN_TOKEN_OUTPUT');\r\n        \r\n        uint256 totalSupply = totalSupply();\r\n        \r\n        uint256 userLPbalance = balanceOf(msg.sender);\r\n        if(amountLP > userLPbalance) {\r\n            amountLP = userLPbalance;\r\n        }\r\n\r\n        require(amountLP <= totalSupply, 'INVALID_AMOUNT_LP_TOTAL_SUPPLY');\r\n         \r\n        uint256 baseReserve = 0;\r\n        uint256 tokenReserve = 0;\r\n        (baseReserve, tokenReserve) = getTotalReserve();\r\n        \r\n        // amountLP/totalSupply = baseOutputAmount/baseReserve\r\n        // => baseOutputAmount = amountLP*baseReserve/totalSupply\r\n        uint256 baseOutputAmount = amountLP.mul(baseReserve).div(totalSupply);\r\n        uint256 tokenOutputAmount = amountLP.mul(tokenReserve).div(totalSupply);\r\n        require(baseOutputAmount >= minBaseOutput, \"INVALID_BASE_OUTPUT\");\r\n        require(tokenOutputAmount >= minTokenOutput, \"INVALID_TOKEN_OUTPUT\");\r\n        require(baseOutputAmount <= baseReserve, \"BASE_OUTPUT_HIGHER_BASE_BALANCE\");\r\n        require(tokenOutputAmount <= tokenReserve, \"TOKEN_OUTPUT_HIGHER_TOKEN_BALANCE\");\r\n\r\n        if(tokenOutputAmount > token.balanceOf(address(this)) || baseOutputAmount > base.balanceOf(address(this))) {\r\n            farmContract.releaseFundToTradeContract(); //move back fund to trade contract to process LP remove\r\n        }\r\n\r\n        _burn(msg.sender, amountLP);\r\n        base.transfer(msg.sender, baseOutputAmount);\r\n        token.transfer(msg.sender, tokenOutputAmount);\r\n        emit onRemoveLP(msg.sender, amountLP, baseOutputAmount, tokenOutputAmount, base.balanceOf(address(this)), token.balanceOf(address(this)));\r\n        return (baseOutputAmount, tokenOutputAmount);\r\n    }\r\n\r\n    function getTotalReserve() public view returns (uint256, uint256) { \r\n        uint256 baseReserve = base.balanceOf(address(this));\r\n        uint256 tokenReserve = token.balanceOf(address(this));\r\n        \r\n        uint256 baseReserveInFarmContract = 0;\r\n        uint256 tokenReserveInFarmContract = 0;\r\n        (baseReserveInFarmContract, tokenReserveInFarmContract) = farmContract.getReserve();\r\n\r\n        return (baseReserve.add(baseReserveInFarmContract), tokenReserve.add(tokenReserveInFarmContract));\r\n    }\r\n    \r\n    function rebalanceToFarmContract() public onlyOwner {\r\n\r\n        require(address(farmContract) != address(0), \"INVALID_FARM_ADDRESS\");\r\n        require(address(base) != address(0), \"INVALID_BASE_ADDRESS\");\r\n        require(address(token) != address(0), \"INVALID_TOKEN_ADDRESS\");\r\n\r\n        farmContract.releaseFundToTradeContract();\r\n\r\n        uint256 baseReserve = base.balanceOf(address(this));\r\n        uint256 tokenReserve = token.balanceOf(address(this));\r\n\r\n        uint256 baseReserveInFarmContract = 0;\r\n        uint256 tokenReserveInFarmContract = 0;\r\n        (baseReserveInFarmContract, tokenReserveInFarmContract) = farmContract.getReserve();\r\n\r\n        if(baseReserve > baseReserveInFarmContract) {\r\n            uint256 amountBaseMoveOut = baseReserve.sub(baseReserveInFarmContract).div(2); //rebalance two pools\r\n            base.transfer(address(farmContract), amountBaseMoveOut);\r\n        }\r\n        if(baseReserve < baseReserveInFarmContract) {\r\n            uint256 amountBaseMoveIn = baseReserveInFarmContract.sub(baseReserve).div(2); //rebalance two pools\r\n            farmContract.moveOutBaseToTradeContract(amountBaseMoveIn);\r\n        }\r\n\r\n        if(tokenReserve > tokenReserveInFarmContract) {\r\n            uint256 amountTokenMoveOut = tokenReserve.sub(tokenReserveInFarmContract).div(2); //rebalance two pools\r\n            token.transfer(address(farmContract), amountTokenMoveOut);\r\n        }\r\n        if(tokenReserve < tokenReserveInFarmContract) {\r\n            uint256 amountTokenMoveIn = baseReserveInFarmContract.sub(tokenReserve).div(2); //rebalance two pools\r\n            farmContract.moveOutTokenToTradeContract(amountTokenMoveIn);\r\n        }\r\n    }\r\n}",
  "sourcePath": "C:\\Users\\David\\Documents\\NetBeansProjects\\garbiprotocol.github.io\\garbi_contracts\\contracts\\GarbiswapTradeUSDTUSDCaavev3.sol",
  "compiler": {
    "name": "solc",
    "version": "0.8.17+commit.8df45f5f.Emscripten.clang"
  },
  "schemaVersion": "3.4.11",
  "updatedAt": "2023-01-09T07:28:32.503Z",
  "networkType": "ethereum",
  "devdoc": {
    "kind": "dev",
    "methods": {
      "allowance(address,address)": {
        "details": "See {IERC20-allowance}."
      },
      "approve(address,uint256)": {
        "details": "See {IERC20-approve}. NOTE: If `amount` is the maximum `uint256`, the allowance is not updated on `transferFrom`. This is semantically equivalent to an infinite approval. Requirements: - `spender` cannot be the zero address."
      },
      "balanceOf(address)": {
        "details": "See {IERC20-balanceOf}."
      },
      "burn(uint256)": {
        "details": "Destroys `amount` tokens from the caller. See {ERC20-_burn}."
      },
      "burnFrom(address,uint256)": {
        "details": "Destroys `amount` tokens from `account`, deducting from the caller's allowance. See {ERC20-_burn} and {ERC20-allowance}. Requirements: - the caller must have allowance for ``accounts``'s tokens of at least `amount`."
      },
      "decimals()": {
        "details": "Returns the number of decimals used to get its user representation. For example, if `decimals` equals `2`, a balance of `505` tokens should be displayed to a user as `5.05` (`505 / 10 ** 2`). Tokens usually opt for a value of 18, imitating the relationship between Ether and Wei. This is the value {ERC20} uses, unless this function is overridden; NOTE: This information is only used for _display_ purposes: it in no way affects any of the arithmetic of the contract, including {IERC20-balanceOf} and {IERC20-transfer}."
      },
      "decreaseAllowance(address,uint256)": {
        "details": "Atomically decreases the allowance granted to `spender` by the caller. This is an alternative to {approve} that can be used as a mitigation for problems described in {IERC20-approve}. Emits an {Approval} event indicating the updated allowance. Requirements: - `spender` cannot be the zero address. - `spender` must have allowance for the caller of at least `subtractedValue`."
      },
      "increaseAllowance(address,uint256)": {
        "details": "Atomically increases the allowance granted to `spender` by the caller. This is an alternative to {approve} that can be used as a mitigation for problems described in {IERC20-approve}. Emits an {Approval} event indicating the updated allowance. Requirements: - `spender` cannot be the zero address."
      },
      "name()": {
        "details": "Returns the name of the token."
      },
      "owner()": {
        "details": "Returns the address of the current owner."
      },
      "renounceOwnership()": {
        "details": "Leaves the contract without owner. It will not be possible to call `onlyOwner` functions anymore. Can only be called by the current owner. NOTE: Renouncing ownership will leave the contract without an owner, thereby removing any functionality that is only available to the owner."
      },
      "symbol()": {
        "details": "Returns the symbol of the token, usually a shorter version of the name."
      },
      "totalSupply()": {
        "details": "See {IERC20-totalSupply}."
      },
      "transfer(address,uint256)": {
        "details": "See {IERC20-transfer}. Requirements: - `to` cannot be the zero address. - the caller must have a balance of at least `amount`."
      },
      "transferFrom(address,address,uint256)": {
        "details": "See {IERC20-transferFrom}. Emits an {Approval} event indicating the updated allowance. This is not required by the EIP. See the note at the beginning of {ERC20}. NOTE: Does not update the allowance if the current allowance is the maximum `uint256`. Requirements: - `from` and `to` cannot be the zero address. - `from` must have a balance of at least `amount`. - the caller must have allowance for ``from``'s tokens of at least `amount`."
      },
      "transferOwnership(address)": {
        "details": "Transfers ownership of the contract to a new account (`newOwner`). Can only be called by the current owner."
      }
    },
    "version": 1
  },
  "userdoc": {
    "kind": "user",
    "methods": {},
    "version": 1
  }
}