{
  "contractName": "GarbiswapTradeGRBWETH",
  "abi": [
    {
      "inputs": [
        {
          "internalType": "contract IERC20",
          "name": "_base",
          "type": "address"
        },
        {
          "internalType": "contract IERC20",
          "name": "_token",
          "type": "address"
        },
        {
          "internalType": "contract IGarbiTimeLock",
          "name": "_garbiTimeLockContract",
          "type": "address"
        },
        {
          "internalType": "contract IGarbiswapFeeMachine",
          "name": "_feeMachineContract",
          "type": "address"
        },
        {
          "internalType": "contract IGarbiswapWhitelist",
          "name": "_whitelistContract",
          "type": "address"
        },
        {
          "internalType": "string",
          "name": "name",
          "type": "string"
        },
        {
          "internalType": "string",
          "name": "symbol",
          "type": "string"
        }
      ],
      "stateMutability": "nonpayable",
      "type": "constructor"
    },
    {
      "anonymous": false,
      "inputs": [
        {
          "indexed": true,
          "internalType": "address",
          "name": "owner",
          "type": "address"
        },
        {
          "indexed": true,
          "internalType": "address",
          "name": "spender",
          "type": "address"
        },
        {
          "indexed": false,
          "internalType": "uint256",
          "name": "value",
          "type": "uint256"
        }
      ],
      "name": "Approval",
      "type": "event"
    },
    {
      "anonymous": false,
      "inputs": [
        {
          "indexed": true,
          "internalType": "address",
          "name": "previousOwner",
          "type": "address"
        },
        {
          "indexed": true,
          "internalType": "address",
          "name": "newOwner",
          "type": "address"
        }
      ],
      "name": "OwnershipTransferred",
      "type": "event"
    },
    {
      "anonymous": false,
      "inputs": [
        {
          "indexed": true,
          "internalType": "address",
          "name": "from",
          "type": "address"
        },
        {
          "indexed": true,
          "internalType": "address",
          "name": "to",
          "type": "address"
        },
        {
          "indexed": false,
          "internalType": "uint256",
          "name": "value",
          "type": "uint256"
        }
      ],
      "name": "Transfer",
      "type": "event"
    },
    {
      "anonymous": false,
      "inputs": [
        {
          "indexed": false,
          "internalType": "address",
          "name": "sender",
          "type": "address"
        },
        {
          "indexed": false,
          "internalType": "uint256",
          "name": "mintLP",
          "type": "uint256"
        },
        {
          "indexed": false,
          "internalType": "uint256",
          "name": "baseInputAmount",
          "type": "uint256"
        },
        {
          "indexed": false,
          "internalType": "uint256",
          "name": "tokenInputAmount",
          "type": "uint256"
        },
        {
          "indexed": false,
          "internalType": "uint256",
          "name": "poolBaseBalance",
          "type": "uint256"
        },
        {
          "indexed": false,
          "internalType": "uint256",
          "name": "poolTokenBalance",
          "type": "uint256"
        }
      ],
      "name": "onAddLP",
      "type": "event"
    },
    {
      "anonymous": false,
      "inputs": [
        {
          "indexed": false,
          "internalType": "address",
          "name": "sender",
          "type": "address"
        },
        {
          "indexed": false,
          "internalType": "uint256",
          "name": "amountLP",
          "type": "uint256"
        },
        {
          "indexed": false,
          "internalType": "uint256",
          "name": "baseOutputAmout",
          "type": "uint256"
        },
        {
          "indexed": false,
          "internalType": "uint256",
          "name": "tokenOutputAmount",
          "type": "uint256"
        },
        {
          "indexed": false,
          "internalType": "uint256",
          "name": "poolBaseBalance",
          "type": "uint256"
        },
        {
          "indexed": false,
          "internalType": "uint256",
          "name": "poolTokenBalance",
          "type": "uint256"
        }
      ],
      "name": "onRemoveLP",
      "type": "event"
    },
    {
      "anonymous": false,
      "inputs": [
        {
          "indexed": false,
          "internalType": "address",
          "name": "sender",
          "type": "address"
        },
        {
          "indexed": false,
          "internalType": "uint256",
          "name": "minTokenOutput",
          "type": "uint256"
        },
        {
          "indexed": false,
          "internalType": "uint256",
          "name": "baseInputAmount",
          "type": "uint256"
        },
        {
          "indexed": false,
          "internalType": "uint256",
          "name": "tokenOutputAmount",
          "type": "uint256"
        },
        {
          "indexed": false,
          "internalType": "uint256",
          "name": "poolBaseBalance",
          "type": "uint256"
        },
        {
          "indexed": false,
          "internalType": "uint256",
          "name": "poolTokenBalance",
          "type": "uint256"
        }
      ],
      "name": "onSwapBaseToTokenWithBaseInput",
      "type": "event"
    },
    {
      "anonymous": false,
      "inputs": [
        {
          "indexed": false,
          "internalType": "address",
          "name": "sender",
          "type": "address"
        },
        {
          "indexed": false,
          "internalType": "uint256",
          "name": "maxBaseInput",
          "type": "uint256"
        },
        {
          "indexed": false,
          "internalType": "uint256",
          "name": "baseInputAmount",
          "type": "uint256"
        },
        {
          "indexed": false,
          "internalType": "uint256",
          "name": "tokenOutputAmount",
          "type": "uint256"
        },
        {
          "indexed": false,
          "internalType": "uint256",
          "name": "poolBaseBalance",
          "type": "uint256"
        },
        {
          "indexed": false,
          "internalType": "uint256",
          "name": "poolTokenBalance",
          "type": "uint256"
        }
      ],
      "name": "onSwapBaseToTokenWithTokenOutput",
      "type": "event"
    },
    {
      "anonymous": false,
      "inputs": [
        {
          "indexed": false,
          "internalType": "address",
          "name": "sender",
          "type": "address"
        },
        {
          "indexed": false,
          "internalType": "uint256",
          "name": "maxTokenInput",
          "type": "uint256"
        },
        {
          "indexed": false,
          "internalType": "uint256",
          "name": "tokenInputAmount",
          "type": "uint256"
        },
        {
          "indexed": false,
          "internalType": "uint256",
          "name": "baseOutputAmount",
          "type": "uint256"
        },
        {
          "indexed": false,
          "internalType": "uint256",
          "name": "poolBaseBalance",
          "type": "uint256"
        },
        {
          "indexed": false,
          "internalType": "uint256",
          "name": "poolTokenBalance",
          "type": "uint256"
        }
      ],
      "name": "onSwapTokenToBaseWithBaseOutput",
      "type": "event"
    },
    {
      "anonymous": false,
      "inputs": [
        {
          "indexed": false,
          "internalType": "address",
          "name": "sender",
          "type": "address"
        },
        {
          "indexed": false,
          "internalType": "uint256",
          "name": "minBaseOutput",
          "type": "uint256"
        },
        {
          "indexed": false,
          "internalType": "uint256",
          "name": "tokenInputAmount",
          "type": "uint256"
        },
        {
          "indexed": false,
          "internalType": "uint256",
          "name": "baseOutputAmount",
          "type": "uint256"
        },
        {
          "indexed": false,
          "internalType": "uint256",
          "name": "poolBaseBalance",
          "type": "uint256"
        },
        {
          "indexed": false,
          "internalType": "uint256",
          "name": "poolTokenBalance",
          "type": "uint256"
        }
      ],
      "name": "onSwapTokenToBaseWithTokenInput",
      "type": "event"
    },
    {
      "inputs": [],
      "name": "PLATFORM_FEE",
      "outputs": [
        {
          "internalType": "uint256",
          "name": "",
          "type": "uint256"
        }
      ],
      "stateMutability": "view",
      "type": "function"
    },
    {
      "inputs": [],
      "name": "TRADE_FEE",
      "outputs": [
        {
          "internalType": "uint256",
          "name": "",
          "type": "uint256"
        }
      ],
      "stateMutability": "view",
      "type": "function"
    },
    {
      "inputs": [
        {
          "internalType": "address",
          "name": "owner",
          "type": "address"
        },
        {
          "internalType": "address",
          "name": "spender",
          "type": "address"
        }
      ],
      "name": "allowance",
      "outputs": [
        {
          "internalType": "uint256",
          "name": "",
          "type": "uint256"
        }
      ],
      "stateMutability": "view",
      "type": "function"
    },
    {
      "inputs": [
        {
          "internalType": "address",
          "name": "spender",
          "type": "address"
        },
        {
          "internalType": "uint256",
          "name": "amount",
          "type": "uint256"
        }
      ],
      "name": "approve",
      "outputs": [
        {
          "internalType": "bool",
          "name": "",
          "type": "bool"
        }
      ],
      "stateMutability": "nonpayable",
      "type": "function"
    },
    {
      "inputs": [
        {
          "internalType": "address",
          "name": "account",
          "type": "address"
        }
      ],
      "name": "balanceOf",
      "outputs": [
        {
          "internalType": "uint256",
          "name": "",
          "type": "uint256"
        }
      ],
      "stateMutability": "view",
      "type": "function"
    },
    {
      "inputs": [],
      "name": "base",
      "outputs": [
        {
          "internalType": "contract IERC20",
          "name": "",
          "type": "address"
        }
      ],
      "stateMutability": "view",
      "type": "function"
    },
    {
      "inputs": [
        {
          "internalType": "uint256",
          "name": "amount",
          "type": "uint256"
        }
      ],
      "name": "burn",
      "outputs": [],
      "stateMutability": "nonpayable",
      "type": "function"
    },
    {
      "inputs": [
        {
          "internalType": "address",
          "name": "account",
          "type": "address"
        },
        {
          "internalType": "uint256",
          "name": "amount",
          "type": "uint256"
        }
      ],
      "name": "burnFrom",
      "outputs": [],
      "stateMutability": "nonpayable",
      "type": "function"
    },
    {
      "inputs": [],
      "name": "decimals",
      "outputs": [
        {
          "internalType": "uint8",
          "name": "",
          "type": "uint8"
        }
      ],
      "stateMutability": "view",
      "type": "function"
    },
    {
      "inputs": [
        {
          "internalType": "address",
          "name": "spender",
          "type": "address"
        },
        {
          "internalType": "uint256",
          "name": "subtractedValue",
          "type": "uint256"
        }
      ],
      "name": "decreaseAllowance",
      "outputs": [
        {
          "internalType": "bool",
          "name": "",
          "type": "bool"
        }
      ],
      "stateMutability": "nonpayable",
      "type": "function"
    },
    {
      "inputs": [],
      "name": "feeMachineContract",
      "outputs": [
        {
          "internalType": "contract IGarbiswapFeeMachine",
          "name": "",
          "type": "address"
        }
      ],
      "stateMutability": "view",
      "type": "function"
    },
    {
      "inputs": [],
      "name": "garbiTimeLockContract",
      "outputs": [
        {
          "internalType": "contract IGarbiTimeLock",
          "name": "",
          "type": "address"
        }
      ],
      "stateMutability": "view",
      "type": "function"
    },
    {
      "inputs": [
        {
          "internalType": "address",
          "name": "spender",
          "type": "address"
        },
        {
          "internalType": "uint256",
          "name": "addedValue",
          "type": "uint256"
        }
      ],
      "name": "increaseAllowance",
      "outputs": [
        {
          "internalType": "bool",
          "name": "",
          "type": "bool"
        }
      ],
      "stateMutability": "nonpayable",
      "type": "function"
    },
    {
      "inputs": [],
      "name": "name",
      "outputs": [
        {
          "internalType": "string",
          "name": "",
          "type": "string"
        }
      ],
      "stateMutability": "view",
      "type": "function"
    },
    {
      "inputs": [],
      "name": "owner",
      "outputs": [
        {
          "internalType": "address",
          "name": "",
          "type": "address"
        }
      ],
      "stateMutability": "view",
      "type": "function"
    },
    {
      "inputs": [],
      "name": "platformFundAddress",
      "outputs": [
        {
          "internalType": "address",
          "name": "",
          "type": "address"
        }
      ],
      "stateMutability": "view",
      "type": "function"
    },
    {
      "inputs": [],
      "name": "renounceOwnership",
      "outputs": [],
      "stateMutability": "nonpayable",
      "type": "function"
    },
    {
      "inputs": [],
      "name": "symbol",
      "outputs": [
        {
          "internalType": "string",
          "name": "",
          "type": "string"
        }
      ],
      "stateMutability": "view",
      "type": "function"
    },
    {
      "inputs": [],
      "name": "token",
      "outputs": [
        {
          "internalType": "contract IERC20",
          "name": "",
          "type": "address"
        }
      ],
      "stateMutability": "view",
      "type": "function"
    },
    {
      "inputs": [],
      "name": "totalSupply",
      "outputs": [
        {
          "internalType": "uint256",
          "name": "",
          "type": "uint256"
        }
      ],
      "stateMutability": "view",
      "type": "function"
    },
    {
      "inputs": [
        {
          "internalType": "address",
          "name": "to",
          "type": "address"
        },
        {
          "internalType": "uint256",
          "name": "amount",
          "type": "uint256"
        }
      ],
      "name": "transfer",
      "outputs": [
        {
          "internalType": "bool",
          "name": "",
          "type": "bool"
        }
      ],
      "stateMutability": "nonpayable",
      "type": "function"
    },
    {
      "inputs": [
        {
          "internalType": "address",
          "name": "from",
          "type": "address"
        },
        {
          "internalType": "address",
          "name": "to",
          "type": "address"
        },
        {
          "internalType": "uint256",
          "name": "amount",
          "type": "uint256"
        }
      ],
      "name": "transferFrom",
      "outputs": [
        {
          "internalType": "bool",
          "name": "",
          "type": "bool"
        }
      ],
      "stateMutability": "nonpayable",
      "type": "function"
    },
    {
      "inputs": [
        {
          "internalType": "address",
          "name": "newOwner",
          "type": "address"
        }
      ],
      "name": "transferOwnership",
      "outputs": [],
      "stateMutability": "nonpayable",
      "type": "function"
    },
    {
      "inputs": [],
      "name": "whitelistContract",
      "outputs": [
        {
          "internalType": "contract IGarbiswapWhitelist",
          "name": "",
          "type": "address"
        }
      ],
      "stateMutability": "view",
      "type": "function"
    },
    {
      "inputs": [],
      "name": "setWhitelistContract",
      "outputs": [],
      "stateMutability": "nonpayable",
      "type": "function"
    },
    {
      "inputs": [],
      "name": "setFeeMachineContract",
      "outputs": [],
      "stateMutability": "nonpayable",
      "type": "function"
    },
    {
      "inputs": [],
      "name": "setTradeFee",
      "outputs": [],
      "stateMutability": "nonpayable",
      "type": "function"
    },
    {
      "inputs": [],
      "name": "setPlatformFee",
      "outputs": [],
      "stateMutability": "nonpayable",
      "type": "function"
    },
    {
      "inputs": [
        {
          "internalType": "address",
          "name": "newAddress",
          "type": "address"
        }
      ],
      "name": "setPlatformFundAdress",
      "outputs": [],
      "stateMutability": "nonpayable",
      "type": "function"
    },
    {
      "inputs": [],
      "name": "getK",
      "outputs": [
        {
          "internalType": "uint256",
          "name": "",
          "type": "uint256"
        }
      ],
      "stateMutability": "view",
      "type": "function"
    },
    {
      "inputs": [
        {
          "internalType": "uint256",
          "name": "baseInputAmount",
          "type": "uint256"
        }
      ],
      "name": "getTokenOutput",
      "outputs": [
        {
          "internalType": "uint256",
          "name": "",
          "type": "uint256"
        }
      ],
      "stateMutability": "view",
      "type": "function"
    },
    {
      "inputs": [
        {
          "internalType": "uint256",
          "name": "tokenInputAmount",
          "type": "uint256"
        }
      ],
      "name": "getBaseOutput",
      "outputs": [
        {
          "internalType": "uint256",
          "name": "",
          "type": "uint256"
        }
      ],
      "stateMutability": "view",
      "type": "function"
    },
    {
      "inputs": [
        {
          "internalType": "uint256",
          "name": "baseInputAmount",
          "type": "uint256"
        }
      ],
      "name": "getDataFromBaseInputToAddLp",
      "outputs": [
        {
          "internalType": "uint256",
          "name": "",
          "type": "uint256"
        },
        {
          "internalType": "uint256",
          "name": "",
          "type": "uint256"
        }
      ],
      "stateMutability": "view",
      "type": "function"
    },
    {
      "inputs": [
        {
          "internalType": "uint256",
          "name": "tokenInputAmount",
          "type": "uint256"
        }
      ],
      "name": "getDataFromTokenInputToAddLp",
      "outputs": [
        {
          "internalType": "uint256",
          "name": "",
          "type": "uint256"
        },
        {
          "internalType": "uint256",
          "name": "",
          "type": "uint256"
        }
      ],
      "stateMutability": "view",
      "type": "function"
    },
    {
      "inputs": [
        {
          "internalType": "uint256",
          "name": "amountLP",
          "type": "uint256"
        }
      ],
      "name": "getDataToRemoveLP",
      "outputs": [
        {
          "internalType": "uint256",
          "name": "",
          "type": "uint256"
        },
        {
          "internalType": "uint256",
          "name": "",
          "type": "uint256"
        }
      ],
      "stateMutability": "view",
      "type": "function"
    },
    {
      "inputs": [
        {
          "internalType": "uint256",
          "name": "baseInputAmount",
          "type": "uint256"
        },
        {
          "internalType": "uint256",
          "name": "baseReserve",
          "type": "uint256"
        },
        {
          "internalType": "uint256",
          "name": "tokenReserve",
          "type": "uint256"
        }
      ],
      "name": "getTokenOutputAmountFromBaseInput",
      "outputs": [
        {
          "internalType": "uint256",
          "name": "",
          "type": "uint256"
        }
      ],
      "stateMutability": "pure",
      "type": "function"
    },
    {
      "inputs": [
        {
          "internalType": "uint256",
          "name": "tokenOutputAmount",
          "type": "uint256"
        },
        {
          "internalType": "uint256",
          "name": "baseReserve",
          "type": "uint256"
        },
        {
          "internalType": "uint256",
          "name": "tokenReserve",
          "type": "uint256"
        }
      ],
      "name": "getBaseInputAmountFromTokenOutput",
      "outputs": [
        {
          "internalType": "uint256",
          "name": "",
          "type": "uint256"
        }
      ],
      "stateMutability": "pure",
      "type": "function"
    },
    {
      "inputs": [
        {
          "internalType": "uint256",
          "name": "tokenInputAmount",
          "type": "uint256"
        },
        {
          "internalType": "uint256",
          "name": "baseReserve",
          "type": "uint256"
        },
        {
          "internalType": "uint256",
          "name": "tokenReserve",
          "type": "uint256"
        }
      ],
      "name": "getBaseOutputAmountFromTokenInput",
      "outputs": [
        {
          "internalType": "uint256",
          "name": "",
          "type": "uint256"
        }
      ],
      "stateMutability": "pure",
      "type": "function"
    },
    {
      "inputs": [
        {
          "internalType": "uint256",
          "name": "baseOutputAmount",
          "type": "uint256"
        },
        {
          "internalType": "uint256",
          "name": "baseReserve",
          "type": "uint256"
        },
        {
          "internalType": "uint256",
          "name": "tokenReserve",
          "type": "uint256"
        }
      ],
      "name": "getTokenInputAmountFromBaseOutput",
      "outputs": [
        {
          "internalType": "uint256",
          "name": "",
          "type": "uint256"
        }
      ],
      "stateMutability": "pure",
      "type": "function"
    },
    {
      "inputs": [
        {
          "internalType": "uint256",
          "name": "baseInputAmount",
          "type": "uint256"
        },
        {
          "internalType": "uint256",
          "name": "minTokenOutput",
          "type": "uint256"
        },
        {
          "internalType": "uint256",
          "name": "deadline",
          "type": "uint256"
        }
      ],
      "name": "swapBaseToTokenWithBaseInput",
      "outputs": [],
      "stateMutability": "nonpayable",
      "type": "function"
    },
    {
      "inputs": [
        {
          "internalType": "uint256",
          "name": "maxBaseInput",
          "type": "uint256"
        },
        {
          "internalType": "uint256",
          "name": "tokenOutputAmount",
          "type": "uint256"
        },
        {
          "internalType": "uint256",
          "name": "deadline",
          "type": "uint256"
        }
      ],
      "name": "swapBaseToTokenWithTokenOutput",
      "outputs": [],
      "stateMutability": "nonpayable",
      "type": "function"
    },
    {
      "inputs": [
        {
          "internalType": "uint256",
          "name": "tokenInputAmount",
          "type": "uint256"
        },
        {
          "internalType": "uint256",
          "name": "minBaseOutput",
          "type": "uint256"
        },
        {
          "internalType": "uint256",
          "name": "deadline",
          "type": "uint256"
        }
      ],
      "name": "swapTokenToBaseWithTokenInput",
      "outputs": [],
      "stateMutability": "nonpayable",
      "type": "function"
    },
    {
      "inputs": [
        {
          "internalType": "uint256",
          "name": "maxTokenInput",
          "type": "uint256"
        },
        {
          "internalType": "uint256",
          "name": "baseOutputAmount",
          "type": "uint256"
        },
        {
          "internalType": "uint256",
          "name": "deadline",
          "type": "uint256"
        }
      ],
      "name": "swapTokenToBaseWithBaseOutput",
      "outputs": [],
      "stateMutability": "nonpayable",
      "type": "function"
    },
    {
      "inputs": [
        {
          "internalType": "uint256",
          "name": "minLP",
          "type": "uint256"
        },
        {
          "internalType": "uint256",
          "name": "baseInputAmount",
          "type": "uint256"
        },
        {
          "internalType": "uint256",
          "name": "maxTokenInputAmount",
          "type": "uint256"
        },
        {
          "internalType": "uint256",
          "name": "deadline",
          "type": "uint256"
        }
      ],
      "name": "addLP",
      "outputs": [
        {
          "internalType": "uint256",
          "name": "",
          "type": "uint256"
        }
      ],
      "stateMutability": "nonpayable",
      "type": "function"
    },
    {
      "inputs": [
        {
          "internalType": "uint256",
          "name": "amountLP",
          "type": "uint256"
        },
        {
          "internalType": "uint256",
          "name": "minBaseOutput",
          "type": "uint256"
        },
        {
          "internalType": "uint256",
          "name": "minTokenOutput",
          "type": "uint256"
        },
        {
          "internalType": "uint256",
          "name": "deadline",
          "type": "uint256"
        }
      ],
      "name": "removeLP",
      "outputs": [
        {
          "internalType": "uint256",
          "name": "",
          "type": "uint256"
        },
        {
          "internalType": "uint256",
          "name": "",
          "type": "uint256"
        }
      ],
      "stateMutability": "nonpayable",
      "type": "function"
    },
    {
      "inputs": [],
      "name": "getTotalReserve",
      "outputs": [
        {
          "internalType": "uint256",
          "name": "",
          "type": "uint256"
        },
        {
          "internalType": "uint256",
          "name": "",
          "type": "uint256"
        }
      ],
      "stateMutability": "view",
      "type": "function"
    }
  ],
  "bytecode": "0x60806040526002600b556019600c553480156200001b57600080fd5b5060405162004dec38038062004dec8339810160408190526200003e916200023a565b818160036200004e83826200039f565b5060046200005d82826200039f565b5050506200007a620000746200010660201b60201c565b6200010a565b600680546001600160a01b03199081166001600160a01b038a811691909117909255600780548216898416179055600a8054821688841617905560098054821686841617905560088054909116918616919091179055620000d83390565b600d80546001600160a01b0319166001600160a01b0392909216919091179055506200046b95505050505050565b3390565b600580546001600160a01b038381166001600160a01b0319831681179093556040519116919082907f8be0079c531659141344cd1fd0a4f28419497f9722a3daafe3b4186f6b6457e090600090a35050565b6001600160a01b03811681146200017257600080fd5b50565b634e487b7160e01b600052604160045260246000fd5b600082601f8301126200019d57600080fd5b81516001600160401b0380821115620001ba57620001ba62000175565b604051601f8301601f19908116603f01168101908282118183101715620001e557620001e562000175565b816040528381526020925086838588010111156200020257600080fd5b600091505b8382101562000226578582018301518183018401529082019062000207565b600093810190920192909252949350505050565b600080600080600080600060e0888a0312156200025657600080fd5b875162000263816200015c565b602089015190975062000276816200015c565b604089015190965062000289816200015c565b60608901519095506200029c816200015c565b6080890151909450620002af816200015c565b60a08901519093506001600160401b0380821115620002cd57600080fd5b620002db8b838c016200018b565b935060c08a0151915080821115620002f257600080fd5b50620003018a828b016200018b565b91505092959891949750929550565b600181811c908216806200032557607f821691505b6020821081036200034657634e487b7160e01b600052602260045260246000fd5b50919050565b601f8211156200039a57600081815260208120601f850160051c81016020861015620003755750805b601f850160051c820191505b81811015620003965782815560010162000381565b5050505b505050565b81516001600160401b03811115620003bb57620003bb62000175565b620003d381620003cc845462000310565b846200034c565b602080601f8311600181146200040b5760008415620003f25750858301515b600019600386901b1c1916600185901b17855562000396565b600085815260208120601f198616915b828110156200043c578886015182559484019460019091019084016200041b565b50858210156200045b5787850151600019600388901b60f8161c191681555b5050505050600190811b01905550565b614971806200047b6000396000f3fe608060405234801561001057600080fd5b506004361061028a5760003560e01c806376125deb1161015c578063b7c3ba45116100ce578063e50a38d711610087578063e50a38d714610599578063ead915e3146105ac578063ec022918146105b4578063ee39e7a0146105bc578063f2fde38b146105c4578063fc0c546a146105d757600080fd5b8063b7c3ba4514610531578063c6e842fc14610544578063d0e9de6c14610557578063d13229621461056a578063dbcfbf2f14610573578063dd62ed3e1461058657600080fd5b806395d89b411161012057806395d89b41146104d557806397bb21c6146104dd5780639fa5e63e146104f0578063a457c2d714610503578063a9059cbb14610516578063ac7343bd1461052957600080fd5b806376125deb1461047857806379cc67901461048b57806384900b041461049e5780638da5cb5b146104b15780638fe6041d146104c257600080fd5b80633950935111610200578063635f95ff116101b9578063635f95ff146103e65780636662d177146103f957806370a0823114610421578063711f61421461044a578063715018a61461045d57806373dd25a31461046557600080fd5b8063395093511461037f57806342966c681461039257806342eba2ce146103a557806344dca562146103b85780635001f3b5146103c057806360b1765c146103d357600080fd5b80631279732c116102525780631279732c1461033157806318160ddd1461033957806323b872dd146103415780632916bc1014610354578063313ce5671461036757806334fbc9a11461037657600080fd5b806303bf04c11461028f57806306fdde03146102a4578063095ea7b3146102c257806310a57f3a146102e557806311fbded314610310575b600080fd5b6102a261029d366004614033565b6105ea565b005b6102ac610b61565b6040516102b9919061405f565b60405180910390f35b6102d56102d03660046140c2565b610bf3565b60405190151581526020016102b9565b600a546102f8906001600160a01b031681565b6040516001600160a01b0390911681526020016102b9565b61032361031e3660046140ee565b610c0d565b6040519081526020016102b9565b6102a2610c5f565b600254610323565b6102d561034f366004614107565b610e32565b610323610362366004614033565b610e56565b604051601281526020016102b9565b610323600c5481565b6102d561038d3660046140c2565b610eb5565b6102a26103a03660046140ee565b610ed7565b6008546102f8906001600160a01b031681565b6102a2610ee4565b6006546102f8906001600160a01b031681565b6103236103e1366004614148565b611082565b6103236103f43660046140ee565b611998565b61040c6104073660046140ee565b6119df565b604080519283526020830191909152016102b9565b61032361042f36600461417a565b6001600160a01b031660009081526020819052604090205490565b61040c6104583660046140ee565b611a73565b6102a2611b28565b6102a2610473366004614033565b611b3c565b61040c610486366004614148565b612087565b6102a26104993660046140c2565b61278b565b6009546102f8906001600160a01b031681565b6005546001600160a01b03166102f8565b6102a26104d036600461417a565b6127a4565b6102ac6127ce565b6103236104eb366004614033565b6127dd565b600d546102f8906001600160a01b031681565b6102d56105113660046140c2565b612836565b6102d56105243660046140c2565b6128b1565b6102a26128bf565b61032361053f366004614033565b612ab8565b61040c6105523660046140ee565b612b11565b6102a2610565366004614033565b612b94565b610323600b5481565b610323610581366004614033565b6130ce565b610323610594366004614197565b61312d565b6102a26105a7366004614033565b613158565b6102a26136aa565b61040c6138a3565b610323613991565b6102a26105d236600461417a565b6139ae565b6007546102f8906001600160a01b031681565b33321461068757600954604051636c9b2a3f60e11b81523360048201526001600160a01b039091169063d936547e90602401602060405180830381865afa158015610639573d6000803e3d6000fd5b505050506040513d601f19601f8201168201806040525081019061065d91906141d0565b15156001146106875760405162461bcd60e51b815260040161067e906141f2565b60405180910390fd5b428110156106a75760405162461bcd60e51b815260040161067e9061421d565b600082116106f15760405162461bcd60e51b81526020600482015260176024820152761253959053125117d3525397d09054d157d3d555141555604a1b604482015260640161067e565b600083116107115760405162461bcd60e51b815260040161067e90614247565b6007546040516370a0823160e01b81523360048201526001600160a01b03909116906370a0823190602401602060405180830381865afa158015610759573d6000803e3d6000fd5b505050506040513d601f19601f8201168201806040525081019061077d9190614274565b8311156107cc5760405162461bcd60e51b815260206004820152601f60248201527f544f4b454e5f494e5055545f4849474845525f555345525f42414c414e434500604482015260640161067e565b6000806107d76138a3565b909250905081841061083c5760405162461bcd60e51b815260206004820152602860248201527f4d494e5f424153455f4f55545055545f4849474845525f504f4f4c5f424153456044820152675f42414c414e434560c01b606482015260840161067e565b600061085f6103e8610859600b5489613a2490919063ffffffff16565b90613a37565b9050600061086d8783613a43565b9050600061087c8286866130ce565b90508681101561089e5760405162461bcd60e51b815260040161067e9061428d565b8481106108bd5760405162461bcd60e51b815260040161067e906142b9565b6006546040516370a0823160e01b81523060048201526001600160a01b03909116906370a0823190602401602060405180830381865afa158015610905573d6000803e3d6000fd5b505050506040513d601f19601f820116820180604052508101906109299190614274565b81106109475760405162461bcd60e51b815260040161067e906142fd565b6007546040516323b872dd60e01b81526001600160a01b03909116906323b872dd9061097b90339030908d90600401614345565b6020604051808303816000875af115801561099a573d6000803e3d6000fd5b505050506040513d601f19601f820116820180604052508101906109be91906141d0565b5060065460405163a9059cbb60e01b81526001600160a01b039091169063a9059cbb906109f19033908590600401614369565b6020604051808303816000875af1158015610a10573d6000803e3d6000fd5b505050506040513d601f19601f82011682018060405250810190610a3491906141d0565b5060075460085460405163a9059cbb60e01b81526001600160a01b039283169263a9059cbb92610a6b929116908790600401614369565b6020604051808303816000875af1158015610a8a573d6000803e3d6000fd5b505050506040513d601f19601f82011682018060405250810190610aae91906141d0565b50600854600754604051632054895360e21b81526001600160a01b039182166004820152336024820152911690638152254c90604401600060405180830381600087803b158015610afe57600080fd5b505af1158015610b12573d6000803e3d6000fd5b505050507fb1b8c525a87e01fd3cda717635c4b24d56deba9f9d95c4f650c022bcd0bf8f5033888a848989604051610b4f96959493929190614382565b60405180910390a15050505050505050565b606060038054610b70906143b5565b80601f0160208091040260200160405190810160405280929190818152602001828054610b9c906143b5565b8015610be95780601f10610bbe57610100808354040283529160200191610be9565b820191906000526020600020905b815481529060010190602001808311610bcc57829003601f168201915b5050505050905090565b600033610c01818585613a4f565b60019150505b92915050565b60008080610c196138a3565b600b549193509150600090610c37906103e890610859908890613a24565b90506000610c458683613a43565b90506000610c54828686610e56565b979650505050505050565b610c67613b74565b600a5460405163109cc30b60e21b81526001600160a01b03909116906342730c2c90610c9790309060040161440d565b602060405180830381865afa158015610cb4573d6000803e3d6000fd5b505050506040513d601f19601f82011682018060405250810190610cd891906141d0565b610cf45760405162461bcd60e51b815260040161067e90614430565b600a54604051636076dea560e11b81526000916001600160a01b03169063c0edbd4a90610d2590309060040161445c565b602060405180830381865afa158015610d42573d6000803e3d6000fd5b505050506040513d601f19601f82011682018060405250810190610d669190614274565b600b819055600a54604051636e977f0b60e01b81529192506001600160a01b031690636e977f0b90610d9d906002906004016144a6565b600060405180830381600087803b158015610db757600080fd5b505af1158015610dcb573d6000803e3d6000fd5b5050600a546040516345503fcb60e11b81526001600160a01b039091169250638aa07f969150610dfd906004016144f1565b600060405180830381600087803b158015610e1757600080fd5b505af1158015610e2b573d6000803e3d6000fd5b5050505050565b600033610e40858285613bce565b610e4b858585613c48565b506001949350505050565b60008083118015610e675750600082115b610e835760405162461bcd60e51b815260040161067e90614503565b6000610e8f8385613a24565b90506000610e9d8587613dec565b90506000610c54610eae8484613a37565b8690613a43565b600033610c01818585610ec8838361312d565b610ed29190614540565b613a4f565b610ee13382613df8565b50565b610eec613b74565b600a5460405163109cc30b60e21b81526001600160a01b03909116906342730c2c90610f1c903090600401614574565b602060405180830381865afa158015610f39573d6000803e3d6000fd5b505050506040513d601f19601f82011682018060405250810190610f5d91906141d0565b610f795760405162461bcd60e51b815260040161067e90614430565b600a54604051636076dea560e11b81526000916001600160a01b03169063c0edbd4a90610faa903090600401614597565b602060405180830381865afa158015610fc7573d6000803e3d6000fd5b505050506040513d601f19601f82011682018060405250810190610feb9190614274565b600c819055600a54604051636e977f0b60e01b81529192506001600160a01b031690636e977f0b90611022906002906004016145e4565b600060405180830381600087803b15801561103c57600080fd5b505af1158015611050573d6000803e3d6000fd5b5050600a546040516345503fcb60e11b81526001600160a01b039091169250638aa07f969150610dfd90600401614620565b600033321461111857600954604051636c9b2a3f60e11b81523360048201526001600160a01b039091169063d936547e90602401602060405180830381865afa1580156110d3573d6000803e3d6000fd5b505050506040513d601f19601f820116820180604052508101906110f791906141d0565b15156001146111185760405162461bcd60e51b815260040161067e906141f2565b428210156111385760405162461bcd60e51b815260040161067e9061421d565b600085116111795760405162461bcd60e51b815260206004820152600e60248201526d0494e56414c49445f4d494e5f4c560941b604482015260640161067e565b600084116111995760405162461bcd60e51b815260040161067e90614632565b600083116111e35760405162461bcd60e51b81526020600482015260176024820152761253959053125117d3505617d513d2d15397d253941555604a1b604482015260640161067e565b60006111ee60025490565b905080600003611557576006546040516323b872dd60e01b81526001600160a01b03909116906323b872dd9061122c90339030908a90600401614345565b6020604051808303816000875af115801561124b573d6000803e3d6000fd5b505050506040513d601f19601f8201168201806040525081019061126f91906141d0565b506007546040516323b872dd60e01b81526001600160a01b03909116906323b872dd906112a490339030908990600401614345565b6020604051808303816000875af11580156112c3573d6000803e3d6000fd5b505050506040513d601f19601f820116820180604052508101906112e791906141d0565b5060006113056103e8610859600c5489613a2490919063ffffffff16565b905060006113246103e8610859600c5489613a2490919063ffffffff16565b600654600d5460405163a9059cbb60e01b81529293506001600160a01b039182169263a9059cbb9261135c9216908690600401614369565b6020604051808303816000875af115801561137b573d6000803e3d6000fd5b505050506040513d601f19601f8201168201806040525081019061139f91906141d0565b50600754600d5460405163a9059cbb60e01b81526001600160a01b039283169263a9059cbb926113d6929116908590600401614369565b6020604051808303816000875af11580156113f5573d6000803e3d6000fd5b505050506040513d601f19601f8201168201806040525081019061141991906141d0565b5060006114268884613a43565b90506114323382613f22565b6006546040516370a0823160e01b81523060048201527f28e12afd967cc11b786f1b1547f5e0da96ccc91ebb09bdd406248111a634e7e591339184918c918c916001600160a01b0316906370a0823190602401602060405180830381865afa1580156114a2573d6000803e3d6000fd5b505050506040513d601f19601f820116820180604052508101906114c69190614274565b6007546040516370a0823160e01b81523060048201526001600160a01b03909116906370a0823190602401602060405180830381865afa15801561150e573d6000803e3d6000fd5b505050506040513d601f19601f820116820180604052508101906115329190614274565b60405161154496959493929190614382565b60405180910390a1935061199092505050565b6000806115626138a3565b9092509050600061158b826115858561085961157e828e613dec565b8790613a24565b90613a43565b905060006115aa6103e8610859600c548c613a2490919063ffffffff16565b905060006115c96103e8610859600c5486613a2490919063ffffffff16565b905060006115e5866108596115de8e87613a43565b8a90613a24565b9050600084116116075760405162461bcd60e51b815260040161067e90614247565b898411156116275760405162461bcd60e51b815260040161067e90614247565b8b8110156116695760405162461bcd60e51b815260206004820152600f60248201526e0494e56414c49445f4d494e545f4c5608c1b604482015260640161067e565b600660009054906101000a90046001600160a01b03166001600160a01b03166323b872dd33308e6040518463ffffffff1660e01b81526004016116ae93929190614345565b6020604051808303816000875af11580156116cd573d6000803e3d6000fd5b505050506040513d601f19601f820116820180604052508101906116f191906141d0565b506007546040516323b872dd60e01b81526001600160a01b03909116906323b872dd9061172690339030908990600401614345565b6020604051808303816000875af1158015611745573d6000803e3d6000fd5b505050506040513d601f19601f8201168201806040525081019061176991906141d0565b50600654600d5460405163a9059cbb60e01b81526001600160a01b039283169263a9059cbb926117a0929116908790600401614369565b6020604051808303816000875af11580156117bf573d6000803e3d6000fd5b505050506040513d601f19601f820116820180604052508101906117e391906141d0565b50600754600d5460405163a9059cbb60e01b81526001600160a01b039283169263a9059cbb9261181a929116908690600401614369565b6020604051808303816000875af1158015611839573d6000803e3d6000fd5b505050506040513d601f19601f8201168201806040525081019061185d91906141d0565b506118683382613f22565b6006546040516370a0823160e01b81523060048201527f28e12afd967cc11b786f1b1547f5e0da96ccc91ebb09bdd406248111a634e7e591339184918f9189916001600160a01b0316906370a0823190602401602060405180830381865afa1580156118d8573d6000803e3d6000fd5b505050506040513d601f19601f820116820180604052508101906118fc9190614274565b6007546040516370a0823160e01b81523060048201526001600160a01b03909116906370a0823190602401602060405180830381865afa158015611944573d6000803e3d6000fd5b505050506040513d601f19601f820116820180604052508101906119689190614274565b60405161197a96959493929190614382565b60405180910390a1965061199095505050505050565b949350505050565b600080806119a46138a3565b600b5491935091506000906119c2906103e890610859908890613a24565b905060006119d08683613a43565b90506000610c548286866130ce565b60008060006119ed60025490565b905060008082600003611a04575084905080611a68565b600080611a0f6138a3565b9092509050611a29826115858361085961157e828e613dec565b92506000611a486103e8610859600c5487613a2490919063ffffffff16565b9050611a6283610859611a5b8785613a43565b8990613a24565b94505050505b909590945092505050565b6000806000611a8160025490565b905080841115611a8f578093505b600080611a9a6138a3565b90925090506000611aaf846108598986613a24565b90506000611ac1856108598a86613a24565b90506000611ae06103e8610859600c5486613a2490919063ffffffff16565b90506000611aff6103e8610859600c5486613a2490919063ffffffff16565b9050611b0b8483613a43565b9350611b178382613a43565b939a93995092975050505050505050565b611b30613b74565b611b3a6000613fe1565b565b333214611bd057600954604051636c9b2a3f60e11b81523360048201526001600160a01b039091169063d936547e90602401602060405180830381865afa158015611b8b573d6000803e3d6000fd5b505050506040513d601f19601f82011682018060405250810190611baf91906141d0565b1515600114611bd05760405162461bcd60e51b815260040161067e906141f2565b42811015611bf05760405162461bcd60e51b815260040161067e9061421d565b60008311611c3a5760405162461bcd60e51b81526020600482015260176024820152761253959053125117d3505617d513d2d15397d253941555604a1b604482015260640161067e565b60008211611c805760405162461bcd60e51b81526020600482015260136024820152721253959053125117d09054d157d3d555141555606a1b604482015260640161067e565b6006546040516370a0823160e01b81523060048201526001600160a01b03909116906370a0823190602401602060405180830381865afa158015611cc8573d6000803e3d6000fd5b505050506040513d601f19601f82011682018060405250810190611cec9190614274565b8210611d0a5760405162461bcd60e51b815260040161067e906142fd565b600080611d156138a3565b9092509050818410611d395760405162461bcd60e51b815260040161067e906142b9565b6000611d468584846127dd565b90506000611d656103e8610859600b5485613a2490919063ffffffff16565b9050611d718282613dec565b915086821115611d935760405162461bcd60e51b815260040161067e9061428d565b60008211611db35760405162461bcd60e51b815260040161067e90614247565b6007546040516370a0823160e01b81523360048201526001600160a01b03909116906370a0823190602401602060405180830381865afa158015611dfb573d6000803e3d6000fd5b505050506040513d601f19601f82011682018060405250810190611e1f9190614274565b821115611e6e5760405162461bcd60e51b815260206004820152601f60248201527f544f4b454e5f494e5055545f4849474845525f555345525f42414c414e434500604482015260640161067e565b6007546040516323b872dd60e01b81526001600160a01b03909116906323b872dd90611ea290339030908790600401614345565b6020604051808303816000875af1158015611ec1573d6000803e3d6000fd5b505050506040513d601f19601f82011682018060405250810190611ee591906141d0565b5060065460405163a9059cbb60e01b81526001600160a01b039091169063a9059cbb90611f189033908a90600401614369565b6020604051808303816000875af1158015611f37573d6000803e3d6000fd5b505050506040513d601f19601f82011682018060405250810190611f5b91906141d0565b5060075460085460405163a9059cbb60e01b81526001600160a01b039283169263a9059cbb92611f92929116908590600401614369565b6020604051808303816000875af1158015611fb1573d6000803e3d6000fd5b505050506040513d601f19601f82011682018060405250810190611fd591906141d0565b50600854600754604051632054895360e21b81526001600160a01b039182166004820152336024820152911690638152254c90604401600060405180830381600087803b15801561202557600080fd5b505af1158015612039573d6000803e3d6000fd5b505050507ff116a588cdba1b14c04ffd8bca7fee39286e7c8d9da59d77c036430e4b415dbc33888489888860405161207696959493929190614382565b60405180910390a150505050505050565b60008033321461211e57600954604051636c9b2a3f60e11b81523360048201526001600160a01b039091169063d936547e90602401602060405180830381865afa1580156120d9573d6000803e3d6000fd5b505050506040513d601f19601f820116820180604052508101906120fd91906141d0565b151560011461211e5760405162461bcd60e51b815260040161067e906141f2565b4283101561213e5760405162461bcd60e51b815260040161067e9061421d565b600086116121825760405162461bcd60e51b81526020600482015260116024820152700494e56414c49445f414d4f554e545f4c5607c1b604482015260640161067e565b600085116121cc5760405162461bcd60e51b81526020600482015260176024820152761253959053125117d3525397d09054d157d3d555141555604a1b604482015260640161067e565b600084116122175760405162461bcd60e51b81526020600482015260186024820152771253959053125117d3525397d513d2d15397d3d55514155560421b604482015260640161067e565b600061222260025490565b3360009081526020819052604090205490915080881115612241578097505b818811156122915760405162461bcd60e51b815260206004820152601e60248201527f494e56414c49445f414d4f554e545f4c505f544f54414c5f535550504c590000604482015260640161067e565b60008061229c6138a3565b909250905060006122b1856108598d86613a24565b905060006122c3866108598e86613a24565b905060006122e26103e8610859600c5486613a2490919063ffffffff16565b905060006123016103e8610859600c5486613a2490919063ffffffff16565b905061230d8483613a43565b93506123198382613a43565b92508c8410156123615760405162461bcd60e51b81526020600482015260136024820152721253959053125117d09054d157d3d555141555606a1b604482015260640161067e565b8b8310156123a85760405162461bcd60e51b81526020600482015260146024820152731253959053125117d513d2d15397d3d55514155560621b604482015260640161067e565b858411156123f85760405162461bcd60e51b815260206004820152601f60248201527f424153455f4f55545055545f4849474845525f424153455f42414c414e434500604482015260640161067e565b848311156124525760405162461bcd60e51b815260206004820152602160248201527f544f4b454e5f4f55545055545f4849474845525f544f4b454e5f42414c414e436044820152604560f81b606482015260840161067e565b61245c338f613df8565b60065460405163a9059cbb60e01b81526001600160a01b039091169063a9059cbb9061248e9033908890600401614369565b6020604051808303816000875af11580156124ad573d6000803e3d6000fd5b505050506040513d601f19601f820116820180604052508101906124d191906141d0565b5060075460405163a9059cbb60e01b81526001600160a01b039091169063a9059cbb906125049033908790600401614369565b6020604051808303816000875af1158015612523573d6000803e3d6000fd5b505050506040513d601f19601f8201168201806040525081019061254791906141d0565b50600654600d5460405163a9059cbb60e01b81526001600160a01b039283169263a9059cbb9261257e929116908690600401614369565b6020604051808303816000875af115801561259d573d6000803e3d6000fd5b505050506040513d601f19601f820116820180604052508101906125c191906141d0565b50600754600d5460405163a9059cbb60e01b81526001600160a01b039283169263a9059cbb926125f8929116908590600401614369565b6020604051808303816000875af1158015612617573d6000803e3d6000fd5b505050506040513d601f19601f8201168201806040525081019061263b91906141d0565b507f555901717744791e9e27303c0df147d5a5eea5b7098591b2c5f2138ed6a605de338f8686600660009054906101000a90046001600160a01b03166001600160a01b03166370a08231306040518263ffffffff1660e01b81526004016126b191906001600160a01b0391909116815260200190565b602060405180830381865afa1580156126ce573d6000803e3d6000fd5b505050506040513d601f19601f820116820180604052508101906126f29190614274565b6007546040516370a0823160e01b81523060048201526001600160a01b03909116906370a0823190602401602060405180830381865afa15801561273a573d6000803e3d6000fd5b505050506040513d601f19601f8201168201806040525081019061275e9190614274565b60405161277096959493929190614382565b60405180910390a150919c909b509950505050505050505050565b612796823383613bce565b6127a08282613df8565b5050565b6127ac613b74565b600d80546001600160a01b0319166001600160a01b0392909216919091179055565b606060048054610b70906143b5565b600080831180156127ee5750600082115b61280a5760405162461bcd60e51b815260040161067e90614503565b60006128168385613a24565b905060006128248587613a43565b90506000610c54856115858585613a37565b60003381612844828661312d565b9050838110156128a45760405162461bcd60e51b815260206004820152602560248201527f45524332303a2064656372656173656420616c6c6f77616e63652062656c6f77604482015264207a65726f60d81b606482015260840161067e565b610e4b8286868403613a4f565b600033610c01818585613c48565b6128c7613b74565b600a5460405163109cc30b60e21b81526001600160a01b03909116906342730c2c906128f7903090600401614685565b602060405180830381865afa158015612914573d6000803e3d6000fd5b505050506040513d601f19601f8201168201806040525081019061293891906141d0565b6129545760405162461bcd60e51b815260040161067e90614430565b600a54604051636bfb078d60e01b81526000916001600160a01b031690636bfb078d906129859030906004016146a8565b602060405180830381865afa1580156129a2573d6000803e3d6000fd5b505050506040513d601f19601f820116820180604052508101906129c691906146fb565b90506001600160a01b038116612a105760405162461bcd60e51b815260206004820152600f60248201526e494e56414c49445f4144445245535360881b604482015260640161067e565b600980546001600160a01b0319166001600160a01b0383811691909117909155600a54604051636e977f0b60e01b8152911690636e977f0b90612a5890600190600401614718565b600060405180830381600087803b158015612a7257600080fd5b505af1158015612a86573d6000803e3d6000fd5b5050600a546040516345503fcb60e11b81526001600160a01b039091169250638aa07f969150610dfd9060040161475a565b60008083118015612ac95750600082115b612ae55760405162461bcd60e51b815260040161067e90614503565b6000612af18385613a24565b90506000612aff8487613a43565b90506000610c54866115858585613a37565b6000806000612b1f60025490565b905060008082600003612b36575084905080611a68565b600080612b416138a3565b9092509050612b628161158584610859612b5b828e613dec565b8690613a24565b92506000612b816103e8610859600c548c613a2490919063ffffffff16565b9050611a6283610859611a5b8c85613a43565b333214612c2857600954604051636c9b2a3f60e11b81523360048201526001600160a01b039091169063d936547e90602401602060405180830381865afa158015612be3573d6000803e3d6000fd5b505050506040513d601f19601f82011682018060405250810190612c0791906141d0565b1515600114612c285760405162461bcd60e51b815260040161067e906141f2565b42811015612c485760405162461bcd60e51b815260040161067e9061421d565b60008311612c915760405162461bcd60e51b81526020600482015260166024820152751253959053125117d3505617d09054d157d25394155560521b604482015260640161067e565b60008211612cd85760405162461bcd60e51b81526020600482015260146024820152731253959053125117d513d2d15397d3d55514155560621b604482015260640161067e565b6007546040516370a0823160e01b81523060048201526001600160a01b03909116906370a0823190602401602060405180830381865afa158015612d20573d6000803e3d6000fd5b505050506040513d601f19601f82011682018060405250810190612d449190614274565b8210612d625760405162461bcd60e51b815260040161067e9061476c565b600080612d6d6138a3565b9092509050808410612d915760405162461bcd60e51b815260040161067e906147b5565b6000612d9e858484612ab8565b90506000612dbd6103e8610859600b5485613a2490919063ffffffff16565b9050612dc98282613dec565b915086821115612deb5760405162461bcd60e51b815260040161067e9061428d565b60008211612e0b5760405162461bcd60e51b815260040161067e90614632565b6006546040516370a0823160e01b81523360048201526001600160a01b03909116906370a0823190602401602060405180830381865afa158015612e53573d6000803e3d6000fd5b505050506040513d601f19601f82011682018060405250810190612e779190614274565b821115612ec65760405162461bcd60e51b815260206004820152601e60248201527f424153455f494e5055545f4849474845525f555345525f42414c414e43450000604482015260640161067e565b6006546040516323b872dd60e01b81526001600160a01b03909116906323b872dd90612efa90339030908790600401614345565b6020604051808303816000875af1158015612f19573d6000803e3d6000fd5b505050506040513d601f19601f82011682018060405250810190612f3d91906141d0565b5060075460405163a9059cbb60e01b81526001600160a01b039091169063a9059cbb90612f709033908a90600401614369565b6020604051808303816000875af1158015612f8f573d6000803e3d6000fd5b505050506040513d601f19601f82011682018060405250810190612fb391906141d0565b5060065460085460405163a9059cbb60e01b81526001600160a01b039283169263a9059cbb92612fea929116908590600401614369565b6020604051808303816000875af1158015613009573d6000803e3d6000fd5b505050506040513d601f19601f8201168201806040525081019061302d91906141d0565b50600854600654604051632054895360e21b81526001600160a01b039182166004820152336024820152911690638152254c90604401600060405180830381600087803b15801561307d57600080fd5b505af1158015613091573d6000803e3d6000fd5b505050507f6e9d5a0202c67970b52b10deb68f1641a9408d90db857bc984d008c1be70383a33888489888860405161207696959493929190614382565b600080831180156130df5750600082115b6130fb5760405162461bcd60e51b815260040161067e90614503565b60006131078385613a24565b905060006131158487613dec565b90506000610c546131268484613a37565b8790613a43565b6001600160a01b03918216600090815260016020908152604080832093909416825291909152205490565b3332146131ec57600954604051636c9b2a3f60e11b81523360048201526001600160a01b039091169063d936547e90602401602060405180830381865afa1580156131a7573d6000803e3d6000fd5b505050506040513d601f19601f820116820180604052508101906131cb91906141d0565b15156001146131ec5760405162461bcd60e51b815260040161067e906141f2565b4281101561320c5760405162461bcd60e51b815260040161067e9061421d565b6000831161322c5760405162461bcd60e51b815260040161067e90614632565b600082116132775760405162461bcd60e51b81526020600482015260186024820152771253959053125117d3525397d513d2d15397d3d55514155560421b604482015260640161067e565b6006546040516370a0823160e01b81523360048201526001600160a01b03909116906370a0823190602401602060405180830381865afa1580156132bf573d6000803e3d6000fd5b505050506040513d601f19601f820116820180604052508101906132e39190614274565b8311156133325760405162461bcd60e51b815260206004820152601e60248201527f424153455f494e5055545f4849474845525f555345525f42414c414e43450000604482015260640161067e565b60008061333d6138a3565b909250905080841061339d5760405162461bcd60e51b815260206004820152602360248201527f4d494e5f544f4b454e5f4849474845525f504f4f4c5f544f4b454e5f42414c416044820152624e434560e81b606482015260840161067e565b60006133ba6103e8610859600b5489613a2490919063ffffffff16565b905060006133c88783613a43565b905060006133d7828686610e56565b9050868110156133f95760405162461bcd60e51b815260040161067e9061428d565b8381106134185760405162461bcd60e51b815260040161067e906147b5565b6007546040516370a0823160e01b81523060048201526001600160a01b03909116906370a0823190602401602060405180830381865afa158015613460573d6000803e3d6000fd5b505050506040513d601f19601f820116820180604052508101906134849190614274565b81106134a25760405162461bcd60e51b815260040161067e9061476c565b6006546040516323b872dd60e01b81526001600160a01b03909116906323b872dd906134d690339030908d90600401614345565b6020604051808303816000875af11580156134f5573d6000803e3d6000fd5b505050506040513d601f19601f8201168201806040525081019061351991906141d0565b5060075460405163a9059cbb60e01b81526001600160a01b039091169063a9059cbb9061354c9033908590600401614369565b6020604051808303816000875af115801561356b573d6000803e3d6000fd5b505050506040513d601f19601f8201168201806040525081019061358f91906141d0565b5060065460085460405163a9059cbb60e01b81526001600160a01b039283169263a9059cbb926135c6929116908790600401614369565b6020604051808303816000875af11580156135e5573d6000803e3d6000fd5b505050506040513d601f19601f8201168201806040525081019061360991906141d0565b50600854600654604051632054895360e21b81526001600160a01b039182166004820152336024820152911690638152254c90604401600060405180830381600087803b15801561365957600080fd5b505af115801561366d573d6000803e3d6000fd5b505050507fd294be030e23d0862312f418541ec01d571908715169f1cb1109bba3212b8c2d33888a848989604051610b4f96959493929190614382565b6136b2613b74565b600a5460405163109cc30b60e21b81526001600160a01b03909116906342730c2c906136e2903090600401614823565b602060405180830381865afa1580156136ff573d6000803e3d6000fd5b505050506040513d601f19601f8201168201806040525081019061372391906141d0565b61373f5760405162461bcd60e51b815260040161067e90614430565b600a54604051636bfb078d60e01b81526000916001600160a01b031690636bfb078d90613770903090600401614846565b602060405180830381865afa15801561378d573d6000803e3d6000fd5b505050506040513d601f19601f820116820180604052508101906137b191906146fb565b90506001600160a01b0381166137fb5760405162461bcd60e51b815260206004820152600f60248201526e494e56414c49445f4144445245535360881b604482015260640161067e565b600880546001600160a01b0319166001600160a01b0383811691909117909155600a54604051636e977f0b60e01b8152911690636e977f0b906138439060019060040161489a565b600060405180830381600087803b15801561385d57600080fd5b505af1158015613871573d6000803e3d6000fd5b5050600a546040516345503fcb60e11b81526001600160a01b039091169250638aa07f969150610dfd906004016148dd565b6006546040516370a0823160e01b8152306004820152600091829182916001600160a01b0316906370a0823190602401602060405180830381865afa1580156138f0573d6000803e3d6000fd5b505050506040513d601f19601f820116820180604052508101906139149190614274565b6007546040516370a0823160e01b81523060048201529192506000916001600160a01b03909116906370a0823190602401602060405180830381865afa158015613962573d6000803e3d6000fd5b505050506040513d601f19601f820116820180604052508101906139869190614274565b919491935090915050565b6000808061399d6138a3565b909250905060006119908284613a24565b6139b6613b74565b6001600160a01b038116613a1b5760405162461bcd60e51b815260206004820152602660248201527f4f776e61626c653a206e6577206f776e657220697320746865207a65726f206160448201526564647265737360d01b606482015260840161067e565b610ee181613fe1565b6000613a3082846148ef565b9392505050565b6000613a308284614906565b6000613a308284614928565b6001600160a01b038316613ab15760405162461bcd60e51b8152602060048201526024808201527f45524332303a20617070726f76652066726f6d20746865207a65726f206164646044820152637265737360e01b606482015260840161067e565b6001600160a01b038216613b125760405162461bcd60e51b815260206004820152602260248201527f45524332303a20617070726f766520746f20746865207a65726f206164647265604482015261737360f01b606482015260840161067e565b6001600160a01b0383811660008181526001602090815260408083209487168084529482529182902085905590518481527f8c5be1e5ebec7d5bd14f71427d1e84f3dd0314c0f7b2291e5b200ac8c7c3b92591015b60405180910390a3505050565b6005546001600160a01b03163314611b3a5760405162461bcd60e51b815260206004820181905260248201527f4f776e61626c653a2063616c6c6572206973206e6f7420746865206f776e6572604482015260640161067e565b6000613bda848461312d565b90506000198114613c425781811015613c355760405162461bcd60e51b815260206004820152601d60248201527f45524332303a20696e73756666696369656e7420616c6c6f77616e6365000000604482015260640161067e565b613c428484848403613a4f565b50505050565b6001600160a01b038316613cac5760405162461bcd60e51b815260206004820152602560248201527f45524332303a207472616e736665722066726f6d20746865207a65726f206164604482015264647265737360d81b606482015260840161067e565b6001600160a01b038216613d0e5760405162461bcd60e51b815260206004820152602360248201527f45524332303a207472616e7366657220746f20746865207a65726f206164647260448201526265737360e81b606482015260840161067e565b6001600160a01b03831660009081526020819052604090205481811015613d865760405162461bcd60e51b815260206004820152602660248201527f45524332303a207472616e7366657220616d6f756e7420657863656564732062604482015265616c616e636560d01b606482015260840161067e565b6001600160a01b03848116600081815260208181526040808320878703905593871680835291849020805487019055925185815290927fddf252ad1be2c89b69c2b068fc378daa952ba7f163c4a11628f55a4df523b3ef910160405180910390a3613c42565b6000613a308284614540565b6001600160a01b038216613e585760405162461bcd60e51b815260206004820152602160248201527f45524332303a206275726e2066726f6d20746865207a65726f206164647265736044820152607360f81b606482015260840161067e565b6001600160a01b03821660009081526020819052604090205481811015613ecc5760405162461bcd60e51b815260206004820152602260248201527f45524332303a206275726e20616d6f756e7420657863656564732062616c616e604482015261636560f01b606482015260840161067e565b6001600160a01b0383166000818152602081815260408083208686039055600280548790039055518581529192917fddf252ad1be2c89b69c2b068fc378daa952ba7f163c4a11628f55a4df523b3ef9101613b67565b6001600160a01b038216613f785760405162461bcd60e51b815260206004820152601f60248201527f45524332303a206d696e7420746f20746865207a65726f206164647265737300604482015260640161067e565b8060026000828254613f8a9190614540565b90915550506001600160a01b038216600081815260208181526040808320805486019055518481527fddf252ad1be2c89b69c2b068fc378daa952ba7f163c4a11628f55a4df523b3ef910160405180910390a35050565b600580546001600160a01b038381166001600160a01b0319831681179093556040519116919082907f8be0079c531659141344cd1fd0a4f28419497f9722a3daafe3b4186f6b6457e090600090a35050565b60008060006060848603121561404857600080fd5b505081359360208301359350604090920135919050565b600060208083528351808285015260005b8181101561408c57858101830151858201604001528201614070565b506000604082860101526040601f19601f8301168501019250505092915050565b6001600160a01b0381168114610ee157600080fd5b600080604083850312156140d557600080fd5b82356140e0816140ad565b946020939093013593505050565b60006020828403121561410057600080fd5b5035919050565b60008060006060848603121561411c57600080fd5b8335614127816140ad565b92506020840135614137816140ad565b929592945050506040919091013590565b6000806000806080858703121561415e57600080fd5b5050823594602084013594506040840135936060013592509050565b60006020828403121561418c57600080fd5b8135613a30816140ad565b600080604083850312156141aa57600080fd5b82356141b5816140ad565b915060208301356141c5816140ad565b809150509250929050565b6000602082840312156141e257600080fd5b81518015158114613a3057600080fd5b6020808252601190820152701253959053125117d5d2125511531254d5607a1b604082015260600190565b60208082526010908201526f494e56414c49445f444541444c494e4560801b604082015260600190565b6020808252601390820152721253959053125117d513d2d15397d253941555606a1b604082015260600190565b60006020828403121561428657600080fd5b5051919050565b60208082526012908201527143414e5f4e4f545f4d414b455f545241444560701b604082015260600190565b60208082526024908201527f424153455f4f55545055545f4849474845525f504f4f4c5f424153455f42414c604082015263414e434560e01b606082015260800190565b60208082526028908201527f424153455f4f55545055545f4849474845525f43555252454e545f54524144456040820152675f42414c414e434560c01b606082015260800190565b6001600160a01b039384168152919092166020820152604081019190915260600190565b6001600160a01b03929092168252602082015260400190565b6001600160a01b03969096168652602086019490945260408501929092526060840152608083015260a082015260c00190565b600181811c908216806143c957607f821691505b6020821081036143e957634e487b7160e01b600052602260045260246000fd5b50919050565b600b81526a736574547261646546656560a81b602082015260400190565b6001600160a01b0382168152604060208201819052600090613a309083016143ef565b60208082526012908201527124a72b20a624a22fa822a926a4a9a9a4a7a760711b604082015260600190565b6001600160a01b038216815260606020820181905260009061447f9083016143ef565b8281036040840152611990816008815267747261646546656560c01b602082015260400190565b6060815260006144b8606083016143ef565b82810360208401526144df816008815267747261646546656560c01b602082015260400190565b91505060ff8316604083015292915050565b602081526000610c07602083016143ef565b6020808252600d908201526c494e56414c49445f56414c554560981b604082015260600190565b634e487b7160e01b600052601160045260246000fd5b80820180821115610c0757610c0761452a565b600e81526d736574506c6174666f726d46656560901b602082015260400190565b6001600160a01b0382168152604060208201819052600090613a30908301614553565b6001600160a01b03821681526060602082018190526000906145ba908301614553565b828103604084015261199081600b81526a706c6174666f726d46656560a81b602082015260400190565b6060815260006145f660608301614553565b82810360208401526144df81600b81526a706c6174666f726d46656560a81b602082015260400190565b602081526000610c0760208301614553565b6020808252601290820152711253959053125117d09054d157d25394155560721b604082015260600190565b60148152731cd95d15da1a5d195b1a5cdd10dbdb9d1c9858dd60621b602082015260400190565b6001600160a01b0382168152604060208201819052600090613a3090830161465e565b6001600160a01b03821681526060602082018190526000906146cb90830161465e565b82810360408401526119908160118152701dda1a5d195b1a5cdd10dbdb9d1c9858dd607a1b602082015260400190565b60006020828403121561470d57600080fd5b8151613a30816140ad565b60608152600061472a6060830161465e565b82810360208401526144df8160118152701dda1a5d195b1a5cdd10dbdb9d1c9858dd607a1b602082015260400190565b602081526000610c076020830161465e565b60208082526029908201527f544f4b454e5f4f55545055545f4849474845525f43555252454e545f54524144604082015268455f42414c414e434560b81b606082015260800190565b60208082526026908201527f544f4b454e5f4f55545055545f4849474845525f504f4f4c5f544f4b454e5f42604082015265414c414e434560d01b606082015260800190565b60158152741cd95d119959535858da1a5b9950dbdb9d1c9858dd605a1b602082015260400190565b6001600160a01b0382168152604060208201819052600090613a309083016147fb565b6001600160a01b03821681526060602082018190526000906148699083016147fb565b8281036040840152611990816012815271199959535858da1a5b9950dbdb9d1c9858dd60721b602082015260400190565b6060815260006148ac606083016147fb565b82810360208401526144df816012815271199959535858da1a5b9950dbdb9d1c9858dd60721b602082015260400190565b602081526000610c07602083016147fb565b8082028115828204841417610c0757610c0761452a565b60008261492357634e487b7160e01b600052601260045260246000fd5b500490565b81810381811115610c0757610c0761452a56fea2646970667358221220dc66a55f93d7abc2ec24885e0e7627ef53320aa2ffe3aaba9431d6037eb5e29764736f6c63430008110033",
  "immutableReferences": {},
  "source": "// SPDX-License-Identifier: MIT\npragma solidity >=0.6.12;\n\nimport \"@openzeppelin/contracts/utils/math/SafeMath.sol\";\nimport \"@openzeppelin/contracts/token/ERC20/IERC20.sol\";\nimport \"@openzeppelin/contracts/token/ERC20/ERC20.sol\";\nimport \"@openzeppelin/contracts/token/ERC20/extensions/ERC20Burnable.sol\";\nimport \"@openzeppelin/contracts/utils/Context.sol\";\nimport \"@openzeppelin/contracts/access/Ownable.sol\";\n\nimport './interfaces/IGarbiswapFeeMachine.sol';\nimport './interfaces/IGarbiswapWhitelist.sol';\nimport './interfaces/IGarbiTimeLock.sol';\nimport './interfaces/IGarbiOracle.sol';\n\ncontract GarbiswapTradeGRBWETH is ERC20Burnable, Ownable {\n    \n    using SafeMath for uint256;\n\n    IERC20 public base; // Stable coin base token (WETH)\n    IERC20 public token; // Token to trade in this pair\n\n    // Fee Machine Contract.\n    IGarbiswapFeeMachine public feeMachineContract; \n\n    IGarbiswapWhitelist public whitelistContract; \n\n    IGarbiTimeLock public garbiTimeLockContract;\n\n    uint256 public TRADE_FEE = 2; //0.2% 2/1000\n\n    uint256 public PLATFORM_FEE = 25; //2.5% 25/1000\n\n    address public platformFundAddress;\n\n    modifier onlyWhitelist()\n    {\n        if (msg.sender != tx.origin) {\n            require(whitelistContract.whitelisted(msg.sender) == true, 'INVALID_WHITELIST');\n        }\n        _;\n    }\n\n    // Events\n\n    event onSwapBaseToTokenWithBaseInput(address sender, uint256 minTokenOutput, uint256 baseInputAmount, uint256 tokenOutputAmount, uint256 poolBaseBalance, uint256 poolTokenBalance);\n    event onSwapBaseToTokenWithTokenOutput(address sender, uint256 maxBaseInput, uint256 baseInputAmount, uint256 tokenOutputAmount, uint256 poolBaseBalance, uint256 poolTokenBalance);\n    \n    event onSwapTokenToBaseWithTokenInput(address sender, uint256 minBaseOutput, uint256 tokenInputAmount, uint256 baseOutputAmount, uint256 poolBaseBalance, uint256 poolTokenBalance);\n    event onSwapTokenToBaseWithBaseOutput(address sender, uint256 maxTokenInput, uint256 tokenInputAmount, uint256 baseOutputAmount, uint256 poolBaseBalance, uint256 poolTokenBalance);\n\n    event onAddLP(address sender, uint256 mintLP, uint256 baseInputAmount, uint256 tokenInputAmount, uint256 poolBaseBalance, uint256 poolTokenBalance);\n    event onRemoveLP(address sender, uint256 amountLP, uint256 baseOutputAmout, uint256 tokenOutputAmount, uint256 poolBaseBalance, uint256 poolTokenBalance);\n\n    constructor(\n        IERC20 _base,\n        IERC20 _token,\n        IGarbiTimeLock _garbiTimeLockContract,\n        IGarbiswapFeeMachine _feeMachineContract,\n        IGarbiswapWhitelist _whitelistContract,\n        string memory name, \n        string memory symbol\n        ) ERC20(name, symbol) {\n        base = _base;\n        token = _token;\n        garbiTimeLockContract = _garbiTimeLockContract;\n        whitelistContract = _whitelistContract;\n        feeMachineContract = _feeMachineContract;\n        platformFundAddress = _msgSender();\n    }\n\n    function setWhitelistContract() public onlyOwner {\n        require(garbiTimeLockContract.isQueuedTransaction(address(this), 'setWhitelistContract'), \"INVALID_PERMISSION\");\n\n        address _whitelistContract = garbiTimeLockContract.getAddressChangeOnTimeLock(address(this), 'setWhitelistContract', 'whitelistContract');\n\n        require(_whitelistContract != address(0), \"INVALID_ADDRESS\");\n\n        whitelistContract = IGarbiswapWhitelist(_whitelistContract);\n\n        garbiTimeLockContract.clearFieldValue('setWhitelistContract', 'whitelistContract', 1);\n        garbiTimeLockContract.doneTransactions('setWhitelistContract');\n    }\n\n    function setFeeMachineContract() public onlyOwner {\n\n        require(garbiTimeLockContract.isQueuedTransaction(address(this), 'setFeeMachineContract'), \"INVALID_PERMISSION\");\n\n        address _feeMachineContract = garbiTimeLockContract.getAddressChangeOnTimeLock(address(this), 'setFeeMachineContract', 'feeMachineContract');\n\n        require(_feeMachineContract != address(0), \"INVALID_ADDRESS\");\n\n        feeMachineContract = IGarbiswapFeeMachine(_feeMachineContract);\n\n        garbiTimeLockContract.clearFieldValue('setFeeMachineContract', 'feeMachineContract', 1);\n        garbiTimeLockContract.doneTransactions('setFeeMachineContract');\n    }\n\n    function setTradeFee() public onlyOwner {\n\n        require(garbiTimeLockContract.isQueuedTransaction(address(this), 'setTradeFee'), \"INVALID_PERMISSION\");\n\n        uint256 _tradeFee = garbiTimeLockContract.getUintChangeOnTimeLock(address(this), 'setTradeFee', 'tradeFee');\n\n        TRADE_FEE = _tradeFee;\n\n        garbiTimeLockContract.clearFieldValue('setTradeFee', 'tradeFee', 2);\n        garbiTimeLockContract.doneTransactions('setTradeFee');\n    }\n\n    function setPlatformFee() public onlyOwner {\n\n        require(garbiTimeLockContract.isQueuedTransaction(address(this), 'setPlatformFee'), \"INVALID_PERMISSION\");\n\n        uint256 _platformFee = garbiTimeLockContract.getUintChangeOnTimeLock(address(this), 'setPlatformFee', 'platformFee');\n\n        PLATFORM_FEE = _platformFee;\n\n        garbiTimeLockContract.clearFieldValue('setPlatformFee', 'platformFee', 2);\n        garbiTimeLockContract.doneTransactions('setPlatformFee');\n    }\n\n    function setPlatformFundAdress(address newAddress) public onlyOwner {\n        platformFundAddress = newAddress;\n    }\n\n    function getK() public view returns(uint256) {\n        uint256 baseReserve = 0;\n        uint256 tokenReserve = 0;\n        (baseReserve, tokenReserve) = getTotalReserve();\n        uint256 k = tokenReserve.mul(baseReserve);\n        return k;\n    }\n\n    function getTokenOutput(uint256 baseInputAmount) public view returns (uint256) {\n        uint256 baseReserve = 0;\n        uint256 tokenReserve = 0;\n        (baseReserve, tokenReserve) = getTotalReserve();\n\n        uint256 tradeFee = baseInputAmount.mul(TRADE_FEE).div(1000);\n        uint256 baseInputAmountAfterFee = baseInputAmount.sub(tradeFee); // cut the TRADE_FEE from base input\n\n        uint256 tokenOutputAmount = getTokenOutputAmountFromBaseInput(baseInputAmountAfterFee, baseReserve, tokenReserve);\n        return tokenOutputAmount;\n    }\n\n    function getBaseOutput(uint256 tokenInputAmount) public view returns (uint256) {\n        uint256 baseReserve = 0;\n        uint256 tokenReserve = 0;\n        (baseReserve, tokenReserve) = getTotalReserve();\n\n        uint256 tradeFee = tokenInputAmount.mul(TRADE_FEE).div(1000);\n        uint256 tokenInputAmountAfterFee = tokenInputAmount.sub(tradeFee); // cut the TRADE_FEE from token input\n\n        uint256 baseOutputAmount = getBaseOutputAmountFromTokenInput(tokenInputAmountAfterFee, baseReserve, tokenReserve);\n        return baseOutputAmount;\n    }\n\n    function getDataFromBaseInputToAddLp(uint256 baseInputAmount) public view returns (uint256, uint256) {\n        uint256 totalSupply = totalSupply();\n        uint256 mintLP = 0;\n        uint256 tokenInputAmount = 0;\n        if(totalSupply == 0) {\n            mintLP = baseInputAmount;\n            tokenInputAmount = baseInputAmount;\n        }\n        else { \n            // tokenReserve/baseReserve = (tokenReserve+tokenInputAmount)/(baseReserve+baseInputAmount)\n            // => tokenReserve+tokenInputAmount = tokenReserve*(baseReserve+baseInputAmount)/baseReserve\n            // => tokenInputAmount = tokenReserve*(baseReserve+baseInputAmount)/baseReserve - tokenReserve;\n            uint256 baseReserve = 0;\n            uint256 tokenReserve = 0;\n            (baseReserve, tokenReserve) = getTotalReserve();\n            tokenInputAmount = tokenReserve.mul(baseReserve.add(baseInputAmount)).div(baseReserve).sub(tokenReserve);\n\n            uint256 platformFeeOnBase = baseInputAmount.mul(PLATFORM_FEE).div(1000);\n\n            // mintLP/totalLP =  baseInputAmount/baseReserve\n            // mintLP = totalLP*baseInputAmount/baseReserve\n            mintLP = totalSupply.mul(baseInputAmount.sub(platformFeeOnBase)).div(baseReserve);\n        }\n        return (mintLP, tokenInputAmount);\n    }\n\n    function getDataFromTokenInputToAddLp(uint256 tokenInputAmount) public view returns (uint256, uint256) {\n        uint256 totalSupply = totalSupply();\n        uint256 mintLP;\n        uint256 baseInputAmount;\n        if(totalSupply == 0) {\n            mintLP = tokenInputAmount;\n            baseInputAmount = tokenInputAmount;\n        }\n        else { \n            // tokenReserve/baseReserve = (tokenReserve+tokenInputAmount)/(baseReserve+baseInputAmount)\n            // => (baseReserve+baseInputAmount) = (tokenReserve+tokenInputAmount) * baseReserve / tokenReserve\n            //  => baseInputAmount = (tokenReserve+tokenInputAmount) * baseReserve / tokenReserve - baseReserve\n            uint256 baseReserve = 0;\n            uint256 tokenReserve = 0;\n            (baseReserve, tokenReserve) = getTotalReserve();\n\n            baseInputAmount = baseReserve.mul(tokenReserve.add(tokenInputAmount)).div(tokenReserve).sub(baseReserve);\n\n            uint256 platformFeeOnBase = baseInputAmount.mul(PLATFORM_FEE).div(1000);\n\n            // mintLP/totalLP =  baseInputAmount/baseReserve\n            // mintLP = totalLP*baseInputAmount/baseReserve\n            mintLP = totalSupply.mul(baseInputAmount.sub(platformFeeOnBase)).div(baseReserve);\n        }\n        return (mintLP, baseInputAmount);\n    }\n\n    function getDataToRemoveLP(uint256 amountLP) public view returns (uint256, uint256){\n        \n        uint256 totalSupply = totalSupply();\n\n        if (amountLP > totalSupply) {\n            amountLP = totalSupply;\n        } \n        uint256 baseReserve = 0;\n        uint256 tokenReserve = 0;\n        (baseReserve, tokenReserve) = getTotalReserve();\n        \n        // amountLP/totalSupply = baseOutputAmount/baseReserve\n        // => baseOutputAmount = amountLP*baseReserve/totalSupply\n        uint256 baseOutputAmount = amountLP.mul(baseReserve).div(totalSupply);\n        uint256 tokenOutputAmount = amountLP.mul(tokenReserve).div(totalSupply);\n        \n        uint256 platformFeeOnBase = baseOutputAmount.mul(PLATFORM_FEE).div(1000);\n        uint256 platformFeeOnToken = tokenOutputAmount.mul(PLATFORM_FEE).div(1000);\n        \n        baseOutputAmount = baseOutputAmount.sub(platformFeeOnBase);\n        tokenOutputAmount = tokenOutputAmount.sub(platformFeeOnToken);\n        \n        return (baseOutputAmount, tokenOutputAmount);\n    }\n    \n    // token*base=(token-tokenOutputAmount)*(base+baseInputAmount)\n    //token-tokenOutputAmount = token*base/(base+baseInputAmount)\n    // => tokenOutputAmount=token - token*base/(base+baseInputAmount)\n    function getTokenOutputAmountFromBaseInput(uint256 baseInputAmount, uint256 baseReserve, uint256 tokenReserve) public pure returns (uint256) {\n      require(baseReserve > 0 && tokenReserve > 0, \"INVALID_VALUE\");\n      uint256 numerator = tokenReserve.mul(baseReserve);\n      uint256 denominator = baseReserve.add(baseInputAmount);\n      uint256 tokenOutputAmount = tokenReserve.sub(numerator.div(denominator));\n      return tokenOutputAmount;\n    }\n    \n    // token*base=(token-tokenOutputAmount)*(base+baseInputAmount)\n    // base+baseInputAmount = token*base/(token-tokenOutputAmount)\n    //baseInputAmount = token*base/(token-tokenOutputAmount) - base;\n    function getBaseInputAmountFromTokenOutput(uint256 tokenOutputAmount, uint256 baseReserve, uint256 tokenReserve) public pure  returns (uint256) {\n      require(baseReserve > 0 && tokenReserve > 0, \"INVALID_VALUE\");\n      uint256 numerator = tokenReserve.mul(baseReserve);\n      uint256 denominator = tokenReserve.sub(tokenOutputAmount);\n      uint256 baseInputAmount = numerator.div(denominator).sub(baseReserve);\n      return baseInputAmount;\n    }\n    \n    // token*base=(token+tokenInputAmount)*(base-baseOutputAmount)\n    // => base - baseOutputAmount=token*base/(token+tokenInputAmount)\n    // => baseOutputAmount = base - token*base/(token+tokenInputAmount)\n    function getBaseOutputAmountFromTokenInput(uint256 tokenInputAmount, uint256 baseReserve, uint256 tokenReserve) public pure returns (uint256) {\n      require(baseReserve > 0 && tokenReserve > 0, \"INVALID_VALUE\");\n      uint256 numerator = tokenReserve.mul(baseReserve);\n      uint256 denominator = tokenReserve.add(tokenInputAmount);\n      uint256 baseOutputAmount = baseReserve.sub(numerator.div(denominator));\n      return baseOutputAmount;\n    }\n\n    // token*base=(token+tokenInputAmount)*(base-baseOutputAmount)\n    // => token+tokenInputAmount = token*base/(base-baseOutputAmount)\n    // => tokenInputAmount = token*base/(base-baseOutputAmount) - token\n    function getTokenInputAmountFromBaseOutput(uint256 baseOutputAmount, uint256 baseReserve, uint256 tokenReserve) public pure returns (uint256) {\n      require(baseReserve > 0 && tokenReserve > 0, \"INVALID_VALUE\");\n      uint256 numerator = tokenReserve.mul(baseReserve);\n      uint256 denominator = baseReserve.sub(baseOutputAmount);\n      uint256 tokenInputAmount = numerator.div(denominator).sub(tokenReserve);\n      return tokenInputAmount;\n    }\n\n    function swapBaseToTokenWithBaseInput(uint256 baseInputAmount, uint256 minTokenOutput, uint256 deadline) public onlyWhitelist {\n        require(deadline >= block.timestamp, 'INVALID_DEADLINE');\n        require(baseInputAmount > 0, 'INVALID_BASE_INPUT');\n        require(minTokenOutput > 0, 'INVALID_MIN_TOKEN_OUTPUT');\n        require(baseInputAmount <= base.balanceOf(msg.sender), 'BASE_INPUT_HIGHER_USER_BALANCE');\n        \n        uint256 baseReserve = 0;\n        uint256 tokenReserve = 0;\n        (baseReserve, tokenReserve) = getTotalReserve();\n        require(minTokenOutput < tokenReserve, \"MIN_TOKEN_HIGHER_POOL_TOKEN_BALANCE\");\n\n        uint256 tradeFee = baseInputAmount.mul(TRADE_FEE).div(1000);\n        uint256 baseInputAmountAfterFee = baseInputAmount.sub(tradeFee); // cut the TRADE_FEE from base input\n        \n        uint256 tokenOutputAmount = getTokenOutputAmountFromBaseInput(baseInputAmountAfterFee, baseReserve, tokenReserve);\n\n        require(tokenOutputAmount >= minTokenOutput, 'CAN_NOT_MAKE_TRADE');\n        require(tokenOutputAmount < tokenReserve, 'TOKEN_OUTPUT_HIGHER_POOL_TOKEN_BALANCE');\n        require(tokenOutputAmount < token.balanceOf(address(this)), 'TOKEN_OUTPUT_HIGHER_CURRENT_TRADE_BALANCE'); // output is higher than the trade contract balance\n        \n        //make trade\n        base.transferFrom(msg.sender, address(this), baseInputAmount);\n        token.transfer(msg.sender, tokenOutputAmount);\n\n        //transfer fee\n        base.transfer(address(feeMachineContract), tradeFee);\n        feeMachineContract.processTradeFee(base, msg.sender); \n\n        emit onSwapBaseToTokenWithBaseInput(msg.sender, minTokenOutput, baseInputAmount, tokenOutputAmount, baseReserve, tokenReserve);\n    }\n\n    function swapBaseToTokenWithTokenOutput(uint256 maxBaseInput, uint256 tokenOutputAmount, uint256 deadline) public onlyWhitelist {\n        require(deadline >= block.timestamp, 'INVALID_DEADLINE');\n        require(maxBaseInput > 0, 'INVALID_MAX_BASE_INPUT');\n        require(tokenOutputAmount > 0, 'INVALID_TOKEN_OUTPUT');\n        require(tokenOutputAmount < token.balanceOf(address(this)), 'TOKEN_OUTPUT_HIGHER_CURRENT_TRADE_BALANCE'); // output is higher than the trade contract balance\n        \n        uint256 baseReserve = 0;\n        uint256 tokenReserve = 0;\n        (baseReserve, tokenReserve) = getTotalReserve();\n        require(tokenOutputAmount < tokenReserve, \"TOKEN_OUTPUT_HIGHER_POOL_TOKEN_BALANCE\");\n\n        uint256 baseInputAmount = getBaseInputAmountFromTokenOutput(tokenOutputAmount, baseReserve, tokenReserve);\n        \n        uint256 tradeFee = baseInputAmount.mul(TRADE_FEE).div(1000);\n        baseInputAmount = baseInputAmount.add(tradeFee); // add the TRADE_FEE to base input\n\n        require(baseInputAmount <= maxBaseInput, 'CAN_NOT_MAKE_TRADE');\n        require(baseInputAmount > 0, 'INVALID_BASE_INPUT');\n        require(baseInputAmount <= base.balanceOf(msg.sender), 'BASE_INPUT_HIGHER_USER_BALANCE');\n        \n        //make trade\n        base.transferFrom(msg.sender, address(this), baseInputAmount);\n        token.transfer(msg.sender, tokenOutputAmount);\n\n        //transfer fee\n        base.transfer(address(feeMachineContract), tradeFee);\n        feeMachineContract.processTradeFee(base, msg.sender);\n\n        emit onSwapBaseToTokenWithTokenOutput(msg.sender, maxBaseInput, baseInputAmount, tokenOutputAmount, baseReserve, tokenReserve);\n    }\n\n    function swapTokenToBaseWithTokenInput(uint256 tokenInputAmount, uint256 minBaseOutput, uint256 deadline) public onlyWhitelist {\n        require(deadline >= block.timestamp, 'INVALID_DEADLINE');\n        require(minBaseOutput > 0, 'INVALID_MIN_BASE_OUTPUT');\n        require(tokenInputAmount > 0, 'INVALID_TOKEN_INPUT');\n        require(tokenInputAmount <= token.balanceOf(msg.sender), 'TOKEN_INPUT_HIGHER_USER_BALANCE');\n\n        uint256 baseReserve = 0;\n        uint256 tokenReserve = 0;\n        (baseReserve, tokenReserve) = getTotalReserve();\n        require(minBaseOutput < baseReserve, 'MIN_BASE_OUTPUT_HIGHER_POOL_BASE_BALANCE');\n\n        uint256 tradeFee = tokenInputAmount.mul(TRADE_FEE).div(1000);\n        uint256 tokenInputAmountAfterFee = tokenInputAmount.sub(tradeFee); // cut the TRADE_FEE from token input\n        \n        uint256 baseOutputAmount = getBaseOutputAmountFromTokenInput(tokenInputAmountAfterFee, baseReserve, tokenReserve);\n\n        require(baseOutputAmount >= minBaseOutput, 'CAN_NOT_MAKE_TRADE');\n        require(baseOutputAmount < baseReserve, 'BASE_OUTPUT_HIGHER_POOL_BASE_BALANCE');\n        require(baseOutputAmount < base.balanceOf(address(this)), 'BASE_OUTPUT_HIGHER_CURRENT_TRADE_BALANCE'); // output is higher than the trade contract balance\n\n        //make trade\n        token.transferFrom(msg.sender, address(this), tokenInputAmount);\n        base.transfer(msg.sender, baseOutputAmount);\n\n        //transfer fee\n        token.transfer(address(feeMachineContract), tradeFee);\n        feeMachineContract.processTradeFee(token, msg.sender);\n\n        emit onSwapTokenToBaseWithTokenInput(msg.sender, minBaseOutput, tokenInputAmount, baseOutputAmount, baseReserve, tokenReserve);\n    }\n\n    function swapTokenToBaseWithBaseOutput(uint256 maxTokenInput, uint256 baseOutputAmount, uint256 deadline) public onlyWhitelist {\n        require(deadline >= block.timestamp, 'INVALID_DEADLINE');\n        require(maxTokenInput > 0, 'INVALID_MAX_TOKEN_INPUT');\n        require(baseOutputAmount > 0, 'INVALID_BASE_OUTPUT');\n        require(baseOutputAmount < base.balanceOf(address(this)), 'BASE_OUTPUT_HIGHER_CURRENT_TRADE_BALANCE'); // output is higher than the trade contract balance\n\n        uint256 baseReserve = 0;\n        uint256 tokenReserve = 0;\n        (baseReserve, tokenReserve) = getTotalReserve();\n        require(baseOutputAmount < baseReserve, 'BASE_OUTPUT_HIGHER_POOL_BASE_BALANCE');\n\n        uint256 tokenInputAmount = getTokenInputAmountFromBaseOutput(baseOutputAmount, baseReserve, tokenReserve);\n        \n        uint256 tradeFee = tokenInputAmount.mul(TRADE_FEE).div(1000);\n        tokenInputAmount = tokenInputAmount.add(tradeFee); // add the TRADE_FEE to token input\n\n        require(tokenInputAmount <= maxTokenInput, 'CAN_NOT_MAKE_TRADE');\n        require(tokenInputAmount > 0, 'INVALID_TOKEN_INPUT');\n        require(tokenInputAmount <= token.balanceOf(msg.sender), 'TOKEN_INPUT_HIGHER_USER_BALANCE');\n\n        //make trade\n        token.transferFrom(msg.sender, address(this), tokenInputAmount);\n        base.transfer(msg.sender, baseOutputAmount);\n\n        //transfer fee\n        token.transfer(address(feeMachineContract), tradeFee);\n        feeMachineContract.processTradeFee(token, msg.sender);\n\n        emit onSwapTokenToBaseWithBaseOutput(msg.sender, maxTokenInput, tokenInputAmount, baseOutputAmount, baseReserve, tokenReserve);\n    }\n\n    function addLP(uint256 minLP, uint256 baseInputAmount, uint256 maxTokenInputAmount, uint256 deadline) public onlyWhitelist returns (uint256) {\n        require(deadline >= block.timestamp, 'INVALID_DEADLINE');\n        require(minLP > 0, 'INVALID_MIN_LP');\n        require(baseInputAmount > 0, 'INVALID_BASE_INPUT');\n        require(maxTokenInputAmount > 0, 'INVALID_MAX_TOKEN_INPUT');\n        \n        uint256 totalSupply = totalSupply();\n        if(totalSupply == 0) {\n            base.transferFrom(msg.sender, address(this), baseInputAmount);\n            token.transferFrom(msg.sender, address(this), maxTokenInputAmount);\n\n            uint256 platformFeeOnBase = baseInputAmount.mul(PLATFORM_FEE).div(1000);\n            uint256 platformFeeOnToken = maxTokenInputAmount.mul(PLATFORM_FEE).div(1000);\n            base.transfer(platformFundAddress, platformFeeOnBase);\n            token.transfer(platformFundAddress, platformFeeOnToken);\n            \n            uint256 initLP = baseInputAmount.sub(platformFeeOnBase);\n            _mint(msg.sender, initLP);\n            emit onAddLP(msg.sender, initLP, baseInputAmount, maxTokenInputAmount, base.balanceOf(address(this)), token.balanceOf(address(this)));\n            return initLP;\n        }\n        else { \n            // tokenReserve/baseReserve = (tokenReserve+tokenInputAmount)/(baseReserve+baseInputAmount)\n            // => tokenReserve+tokenInputAmount = tokenReserve*(baseReserve+baseInputAmount)/baseReserve\n            // => tokenInputAmount = tokenReserve*(baseReserve+baseInputAmount)/baseReserve - tokenReserve;\n            uint256 baseReserve = 0;\n            uint256 tokenReserve = 0;\n            (baseReserve, tokenReserve) = getTotalReserve();\n            uint256 tokenInputAmount = tokenReserve.mul(baseReserve.add(baseInputAmount)).div(baseReserve).sub(tokenReserve);\n\n            uint256 platformFeeOnBase = baseInputAmount.mul(PLATFORM_FEE).div(1000);\n            uint256 platformFeeOnToken = tokenInputAmount.mul(PLATFORM_FEE).div(1000);\n\n            // mintLP/totalLP =  baseInputAmount/baseReserve\n            // mintLP = totalLP*baseInputAmount/baseReserve\n            uint256 mintLP = totalSupply.mul(baseInputAmount.sub(platformFeeOnBase)).div(baseReserve);\n            \n            require(tokenInputAmount > 0, 'INVALID_TOKEN_INPUT');\n            require(tokenInputAmount <= maxTokenInputAmount, 'INVALID_TOKEN_INPUT');\n            require(mintLP >= minLP, \"INVALID_MINT_LP\");\n\n            base.transferFrom(msg.sender, address(this), baseInputAmount);\n            token.transferFrom(msg.sender, address(this), tokenInputAmount);\n\n            \n            base.transfer(platformFundAddress, platformFeeOnBase);\n            token.transfer(platformFundAddress, platformFeeOnToken);\n\n            _mint(msg.sender, mintLP);\n            emit onAddLP(msg.sender, mintLP, baseInputAmount, tokenInputAmount, base.balanceOf(address(this)), token.balanceOf(address(this)));\n            return mintLP;\n        }\n    }\n\n    function removeLP(uint256 amountLP, uint256 minBaseOutput, uint256 minTokenOutput, uint256 deadline) public onlyWhitelist returns (uint256, uint256){\n        require(deadline >= block.timestamp, 'INVALID_DEADLINE');\n        require(amountLP > 0, 'INVALID_AMOUNT_LP');\n        require(minBaseOutput > 0, 'INVALID_MIN_BASE_OUTPUT');\n        require(minTokenOutput > 0, 'INVALID_MIN_TOKEN_OUTPUT');\n        \n        uint256 totalSupply = totalSupply();\n        \n        uint256 userLPbalance = balanceOf(msg.sender);\n        if(amountLP > userLPbalance) {\n            amountLP = userLPbalance;\n        }\n\n        require(amountLP <= totalSupply, 'INVALID_AMOUNT_LP_TOTAL_SUPPLY');\n         \n        uint256 baseReserve = 0;\n        uint256 tokenReserve = 0;\n        (baseReserve, tokenReserve) = getTotalReserve();\n        \n        // amountLP/totalSupply = baseOutputAmount/baseReserve\n        // => baseOutputAmount = amountLP*baseReserve/totalSupply\n        uint256 baseOutputAmount = amountLP.mul(baseReserve).div(totalSupply);\n        uint256 tokenOutputAmount = amountLP.mul(tokenReserve).div(totalSupply);\n\n        uint256 platformFeeOnBase = baseOutputAmount.mul(PLATFORM_FEE).div(1000);\n        uint256 platformFeeOnToken = tokenOutputAmount.mul(PLATFORM_FEE).div(1000);\n        \n        baseOutputAmount = baseOutputAmount.sub(platformFeeOnBase);\n        tokenOutputAmount = tokenOutputAmount.sub(platformFeeOnToken);\n\n        require(baseOutputAmount >= minBaseOutput, \"INVALID_BASE_OUTPUT\");\n        require(tokenOutputAmount >= minTokenOutput, \"INVALID_TOKEN_OUTPUT\");\n        require(baseOutputAmount <= baseReserve, \"BASE_OUTPUT_HIGHER_BASE_BALANCE\");\n        require(tokenOutputAmount <= tokenReserve, \"TOKEN_OUTPUT_HIGHER_TOKEN_BALANCE\");\n\n        _burn(msg.sender, amountLP);\n        base.transfer(msg.sender, baseOutputAmount);\n        token.transfer(msg.sender, tokenOutputAmount);\n\n        base.transfer(platformFundAddress, platformFeeOnBase);\n        token.transfer(platformFundAddress, platformFeeOnToken);\n\n        emit onRemoveLP(msg.sender, amountLP, baseOutputAmount, tokenOutputAmount, base.balanceOf(address(this)), token.balanceOf(address(this)));\n        return (baseOutputAmount, tokenOutputAmount);\n    }\n\n    function getTotalReserve() public view returns (uint256, uint256) { \n        uint256 baseReserve = base.balanceOf(address(this));\n        uint256 tokenReserve = token.balanceOf(address(this));\n\n        return (baseReserve, tokenReserve);\n    }\n}",
  "sourcePath": "/home/falcon/codes/products/garbiprotocol.github.io/garbi_contracts/contracts/GarbiswapTradeGRBWETH.sol",
  "compiler": {
    "name": "solc",
    "version": "0.8.17+commit.8df45f5f.Emscripten.clang"
  },
  "schemaVersion": "3.4.10",
  "updatedAt": "2023-01-12T09:53:47.527Z",
  "devdoc": {
    "kind": "dev",
    "methods": {
      "allowance(address,address)": {
        "details": "See {IERC20-allowance}."
      },
      "approve(address,uint256)": {
        "details": "See {IERC20-approve}. NOTE: If `amount` is the maximum `uint256`, the allowance is not updated on `transferFrom`. This is semantically equivalent to an infinite approval. Requirements: - `spender` cannot be the zero address."
      },
      "balanceOf(address)": {
        "details": "See {IERC20-balanceOf}."
      },
      "burn(uint256)": {
        "details": "Destroys `amount` tokens from the caller. See {ERC20-_burn}."
      },
      "burnFrom(address,uint256)": {
        "details": "Destroys `amount` tokens from `account`, deducting from the caller's allowance. See {ERC20-_burn} and {ERC20-allowance}. Requirements: - the caller must have allowance for ``accounts``'s tokens of at least `amount`."
      },
      "decimals()": {
        "details": "Returns the number of decimals used to get its user representation. For example, if `decimals` equals `2`, a balance of `505` tokens should be displayed to a user as `5.05` (`505 / 10 ** 2`). Tokens usually opt for a value of 18, imitating the relationship between Ether and Wei. This is the value {ERC20} uses, unless this function is overridden; NOTE: This information is only used for _display_ purposes: it in no way affects any of the arithmetic of the contract, including {IERC20-balanceOf} and {IERC20-transfer}."
      },
      "decreaseAllowance(address,uint256)": {
        "details": "Atomically decreases the allowance granted to `spender` by the caller. This is an alternative to {approve} that can be used as a mitigation for problems described in {IERC20-approve}. Emits an {Approval} event indicating the updated allowance. Requirements: - `spender` cannot be the zero address. - `spender` must have allowance for the caller of at least `subtractedValue`."
      },
      "increaseAllowance(address,uint256)": {
        "details": "Atomically increases the allowance granted to `spender` by the caller. This is an alternative to {approve} that can be used as a mitigation for problems described in {IERC20-approve}. Emits an {Approval} event indicating the updated allowance. Requirements: - `spender` cannot be the zero address."
      },
      "name()": {
        "details": "Returns the name of the token."
      },
      "owner()": {
        "details": "Returns the address of the current owner."
      },
      "renounceOwnership()": {
        "details": "Leaves the contract without owner. It will not be possible to call `onlyOwner` functions anymore. Can only be called by the current owner. NOTE: Renouncing ownership will leave the contract without an owner, thereby removing any functionality that is only available to the owner."
      },
      "symbol()": {
        "details": "Returns the symbol of the token, usually a shorter version of the name."
      },
      "totalSupply()": {
        "details": "See {IERC20-totalSupply}."
      },
      "transfer(address,uint256)": {
        "details": "See {IERC20-transfer}. Requirements: - `to` cannot be the zero address. - the caller must have a balance of at least `amount`."
      },
      "transferFrom(address,address,uint256)": {
        "details": "See {IERC20-transferFrom}. Emits an {Approval} event indicating the updated allowance. This is not required by the EIP. See the note at the beginning of {ERC20}. NOTE: Does not update the allowance if the current allowance is the maximum `uint256`. Requirements: - `from` and `to` cannot be the zero address. - `from` must have a balance of at least `amount`. - the caller must have allowance for ``from``'s tokens of at least `amount`."
      },
      "transferOwnership(address)": {
        "details": "Transfers ownership of the contract to a new account (`newOwner`). Can only be called by the current owner."
      }
    },
    "version": 1
  },
  "userdoc": {
    "kind": "user",
    "methods": {},
    "version": 1
  }
}