{
  "contractName": "GarbiswapFeeMachine",
  "abi": [
    {
      "inputs": [
        {
          "internalType": "contract IERC20",
          "name": "_grb",
          "type": "address"
        },
        {
          "internalType": "address",
          "name": "_performanceMachineContract",
          "type": "address"
        },
        {
          "internalType": "address",
          "name": "_safuFundContract",
          "type": "address"
        },
        {
          "internalType": "contract IGarbiTimeLock",
          "name": "_garbiTimeLockContract",
          "type": "address"
        }
      ],
      "stateMutability": "nonpayable",
      "type": "constructor"
    },
    {
      "anonymous": false,
      "inputs": [
        {
          "indexed": true,
          "internalType": "address",
          "name": "previousOwner",
          "type": "address"
        },
        {
          "indexed": true,
          "internalType": "address",
          "name": "newOwner",
          "type": "address"
        }
      ],
      "name": "OwnershipTransferred",
      "type": "event"
    },
    {
      "anonymous": false,
      "inputs": [
        {
          "indexed": false,
          "internalType": "address",
          "name": "_trader",
          "type": "address"
        },
        {
          "indexed": false,
          "internalType": "uint256",
          "name": "_amount",
          "type": "uint256"
        }
      ],
      "name": "onDistributeGarbi",
      "type": "event"
    },
    {
      "inputs": [],
      "name": "DAY_PERIOD",
      "outputs": [
        {
          "internalType": "uint256",
          "name": "",
          "type": "uint256"
        }
      ],
      "stateMutability": "view",
      "type": "function"
    },
    {
      "inputs": [],
      "name": "DISTRIBUTE_GARBI_AMOUNT",
      "outputs": [
        {
          "internalType": "uint256",
          "name": "",
          "type": "uint256"
        }
      ],
      "stateMutability": "view",
      "type": "function"
    },
    {
      "inputs": [],
      "name": "GRB",
      "outputs": [
        {
          "internalType": "contract IERC20",
          "name": "",
          "type": "address"
        }
      ],
      "stateMutability": "view",
      "type": "function"
    },
    {
      "inputs": [],
      "name": "PERFORMANCE_FEE",
      "outputs": [
        {
          "internalType": "uint256",
          "name": "",
          "type": "uint256"
        }
      ],
      "stateMutability": "view",
      "type": "function"
    },
    {
      "inputs": [],
      "name": "SAFU_FUND",
      "outputs": [
        {
          "internalType": "uint256",
          "name": "",
          "type": "uint256"
        }
      ],
      "stateMutability": "view",
      "type": "function"
    },
    {
      "inputs": [
        {
          "internalType": "address",
          "name": "",
          "type": "address"
        },
        {
          "internalType": "uint256",
          "name": "",
          "type": "uint256"
        }
      ],
      "name": "feeOf",
      "outputs": [
        {
          "internalType": "uint256",
          "name": "",
          "type": "uint256"
        }
      ],
      "stateMutability": "view",
      "type": "function"
    },
    {
      "inputs": [],
      "name": "garbiTimeLockContract",
      "outputs": [
        {
          "internalType": "contract IGarbiTimeLock",
          "name": "",
          "type": "address"
        }
      ],
      "stateMutability": "view",
      "type": "function"
    },
    {
      "inputs": [],
      "name": "owner",
      "outputs": [
        {
          "internalType": "address",
          "name": "",
          "type": "address"
        }
      ],
      "stateMutability": "view",
      "type": "function"
    },
    {
      "inputs": [
        {
          "internalType": "address",
          "name": "",
          "type": "address"
        }
      ],
      "name": "pairs",
      "outputs": [
        {
          "internalType": "bool",
          "name": "",
          "type": "bool"
        }
      ],
      "stateMutability": "view",
      "type": "function"
    },
    {
      "inputs": [],
      "name": "performanceMachineContract",
      "outputs": [
        {
          "internalType": "address",
          "name": "",
          "type": "address"
        }
      ],
      "stateMutability": "view",
      "type": "function"
    },
    {
      "inputs": [],
      "name": "renounceOwnership",
      "outputs": [],
      "stateMutability": "nonpayable",
      "type": "function"
    },
    {
      "inputs": [],
      "name": "safuFundContract",
      "outputs": [
        {
          "internalType": "address",
          "name": "",
          "type": "address"
        }
      ],
      "stateMutability": "view",
      "type": "function"
    },
    {
      "inputs": [
        {
          "internalType": "address",
          "name": "",
          "type": "address"
        }
      ],
      "name": "timeOfCreateNewFee",
      "outputs": [
        {
          "internalType": "uint256",
          "name": "",
          "type": "uint256"
        }
      ],
      "stateMutability": "view",
      "type": "function"
    },
    {
      "inputs": [
        {
          "internalType": "address",
          "name": "",
          "type": "address"
        }
      ],
      "name": "totalDays",
      "outputs": [
        {
          "internalType": "uint256",
          "name": "",
          "type": "uint256"
        }
      ],
      "stateMutability": "view",
      "type": "function"
    },
    {
      "inputs": [
        {
          "internalType": "address",
          "name": "newOwner",
          "type": "address"
        }
      ],
      "name": "transferOwnership",
      "outputs": [],
      "stateMutability": "nonpayable",
      "type": "function"
    },
    {
      "inputs": [
        {
          "internalType": "uint256",
          "name": "_value",
          "type": "uint256"
        }
      ],
      "name": "setDayPeriod",
      "outputs": [],
      "stateMutability": "nonpayable",
      "type": "function"
    },
    {
      "inputs": [
        {
          "internalType": "address",
          "name": "_pair",
          "type": "address"
        }
      ],
      "name": "addPair",
      "outputs": [],
      "stateMutability": "nonpayable",
      "type": "function"
    },
    {
      "inputs": [
        {
          "internalType": "address",
          "name": "_pair",
          "type": "address"
        }
      ],
      "name": "removePair",
      "outputs": [],
      "stateMutability": "nonpayable",
      "type": "function"
    },
    {
      "inputs": [
        {
          "internalType": "uint256",
          "name": "_amount",
          "type": "uint256"
        }
      ],
      "name": "setDistributeGarbiAmount",
      "outputs": [],
      "stateMutability": "nonpayable",
      "type": "function"
    },
    {
      "inputs": [],
      "name": "setPerformanceMachine",
      "outputs": [],
      "stateMutability": "nonpayable",
      "type": "function"
    },
    {
      "inputs": [],
      "name": "setSafuFundContract",
      "outputs": [],
      "stateMutability": "nonpayable",
      "type": "function"
    },
    {
      "inputs": [],
      "name": "setPerformanceFee",
      "outputs": [],
      "stateMutability": "nonpayable",
      "type": "function"
    },
    {
      "inputs": [],
      "name": "setSafuFee",
      "outputs": [],
      "stateMutability": "nonpayable",
      "type": "function"
    },
    {
      "inputs": [
        {
          "internalType": "contract IERC20",
          "name": "token",
          "type": "address"
        },
        {
          "internalType": "address",
          "name": "trader",
          "type": "address"
        }
      ],
      "name": "processTradeFee",
      "outputs": [],
      "stateMutability": "nonpayable",
      "type": "function"
    },
    {
      "inputs": [
        {
          "internalType": "contract IERC20",
          "name": "_lp",
          "type": "address"
        }
      ],
      "name": "getTradeFeeAPY",
      "outputs": [
        {
          "internalType": "uint256",
          "name": "",
          "type": "uint256"
        }
      ],
      "stateMutability": "view",
      "type": "function"
    },
    {
      "inputs": [
        {
          "internalType": "address",
          "name": "_lp",
          "type": "address"
        }
      ],
      "name": "getVolume",
      "outputs": [
        {
          "internalType": "uint256",
          "name": "",
          "type": "uint256"
        }
      ],
      "stateMutability": "view",
      "type": "function"
    }
  ],
  "bytecode": "0x6080604052603260055560006006556706f05b59d3b20000600755620151806008553480156200002e57600080fd5b5060405162001c2f38038062001c2f833981016040819052620000519162000119565b6200005c33620000b0565b600480546001600160a01b03199081166001600160a01b0393841617909155600280548216948316949094179093556003805484169282169290921790915560018054909216921691909117905562000181565b600080546001600160a01b038381166001600160a01b0319831681178455604051919092169283917f8be0079c531659141344cd1fd0a4f28419497f9722a3daafe3b4186f6b6457e09190a35050565b6001600160a01b03811681146200011657600080fd5b50565b600080600080608085870312156200013057600080fd5b84516200013d8162000100565b6020860151909450620001508162000100565b6040860151909350620001638162000100565b6060860151909250620001768162000100565b939692955090935050565b611a9e80620001916000396000f3fe608060405234801561001057600080fd5b506004361061018e5760003560e01c80638ba17f86116100de578063c2b7bbb611610097578063f2fde38b11610071578063f2fde38b1461033d578063f6b6670a14610350578063fa9978e514610363578063fe33b3021461036c57600080fd5b8063c2b7bbb61461030e578063e8defac714610321578063e93f56651461033457600080fd5b80638ba17f86146102a85780638da5cb5b146102bb5780639f9c0629146102cc578063a2808084146102d5578063af6c9c1d146102e8578063b0176ce8146102fb57600080fd5b80634f09d9081161014b5780636a0d3659116101255780636a0d3659146102725780636e9322b314610285578063715018a61461028d5780638152254c1461029557600080fd5b80634f09d908146102375780634f62010e1461023f578063605435901461024757600080fd5b8063071d2fda1461019357806310455de5146101c657806310a57f3a146101d95780633e6566bf1461020457806342219a931461020d57806345aa853914610217575b600080fd5b6101b36101a1366004611514565b600c6020526000908152604090205481565b6040519081526020015b60405180910390f35b6101b36101d4366004611514565b61039f565b6004546101ec906001600160a01b031681565b6040516001600160a01b0390911681526020016101bd565b6101b360065481565b6102156104ee565b005b6101b3610225366004611514565b600b6020526000908152604090205481565b6102156106c1565b610215610857565b6101b3610255366004611538565b600a60209081526000928352604080842090915290825290205481565b6003546101ec906001600160a01b031681565b610215610a83565b610215610c7a565b6102156102a3366004611564565b610c8e565b6101b36102b6366004611514565b610fb8565b6000546001600160a01b03166101ec565b6101b360075481565b6002546101ec906001600160a01b031681565b6102156102f6366004611514565b611064565b6001546101ec906001600160a01b031681565b61021561031c366004611514565b6110ec565b61021561032f36600461159d565b611173565b6101b360055481565b61021561034b366004611514565b611180565b61021561035e36600461159d565b6111f9565b6101b360085481565b61038f61037a366004611514565b60096020526000908152604090205460ff1681565b60405190151581526020016101bd565b600080826001600160a01b03166318160ddd6040518163ffffffff1660e01b8152600401602060405180830381865afa1580156103e0573d6000803e3d6000fd5b505050506040513d601f19601f8201168201806040525081019061040491906115b6565b6001600160a01b0384166000908152600c602052604081205491925080825b61042e6001846115e5565b6001600160a01b0388166000908152600a60209081526040808320858452909152902054909350610460908390611206565b9150600783101561047d5780610475816115f8565b915050610423565b50600082116104925750600095945050505050565b600084116104a65750600095945050505050565b60006104b2828461121b565b90506104e36104c2866002611227565b6104dd61016d6104d78564e8d4a51000611227565b90611227565b9061121b565b979650505050505050565b6104f6611233565b6004805460405163109cc30b60e21b81526001600160a01b03909116916342730c2c9161052591309101611633565b602060405180830381865afa158015610542573d6000803e3d6000fd5b505050506040513d601f19601f820116820180604052508101906105669190611656565b61058b5760405162461bcd60e51b815260040161058290611678565b60405180910390fd5b60048054604051636076dea560e11b81526001600160a01b039091169163c0edbd4a916105ba913091016116a4565b602060405180830381865afa1580156105d7573d6000803e3d6000fd5b505050506040513d601f19601f820116820180604052508101906105fb91906115b6565b60055560048054604051636e977f0b60e01b81526001600160a01b0390911691636e977f0b9161062e91600291016116f5565b600060405180830381600087803b15801561064857600080fd5b505af115801561065c573d6000803e3d6000fd5b5050600480546040516345503fcb60e11b81526001600160a01b039091169350638aa07f96925061068d9101611747565b600060405180830381600087803b1580156106a757600080fd5b505af11580156106bb573d6000803e3d6000fd5b50505050565b6106c9611233565b6004805460405163109cc30b60e21b81526001600160a01b03909116916342730c2c916106f891309101611776565b602060405180830381865afa158015610715573d6000803e3d6000fd5b505050506040513d601f19601f820116820180604052508101906107399190611656565b6107555760405162461bcd60e51b815260040161058290611678565b60048054604051636076dea560e11b81526001600160a01b039091169163c0edbd4a9161078491309101611799565b602060405180830381865afa1580156107a1573d6000803e3d6000fd5b505050506040513d601f19601f820116820180604052508101906107c591906115b6565b60065560048054604051636e977f0b60e01b81526001600160a01b0390911691636e977f0b916107f891600291016117e4565b600060405180830381600087803b15801561081257600080fd5b505af1158015610826573d6000803e3d6000fd5b5050600480546040516345503fcb60e11b81526001600160a01b039091169350638aa07f96925061068d910161181e565b61085f611233565b6004805460405163109cc30b60e21b81526001600160a01b03909116916342730c2c9161088e91309101611856565b602060405180830381865afa1580156108ab573d6000803e3d6000fd5b505050506040513d601f19601f820116820180604052508101906108cf9190611656565b6108eb5760405162461bcd60e51b815260040161058290611678565b60048054604051636bfb078d60e01b81526000926001600160a01b0390921691636bfb078d9161091d91309101611879565b602060405180830381865afa15801561093a573d6000803e3d6000fd5b505050506040513d601f19601f8201168201806040525081019061095e91906118cb565b90506001600160a01b0381166109a85760405162461bcd60e51b815260206004820152600f60248201526e494e56414c49445f4144445245535360881b6044820152606401610582565b600380546001600160a01b0319166001600160a01b038381169190911790915560048054604051636e977f0b60e01b8152921691636e977f0b916109ef91600191016118e8565b600060405180830381600087803b158015610a0957600080fd5b505af1158015610a1d573d6000803e3d6000fd5b5050600480546040516345503fcb60e11b81526001600160a01b039091169350638aa07f969250610a4e9101611929565b600060405180830381600087803b158015610a6857600080fd5b505af1158015610a7c573d6000803e3d6000fd5b5050505050565b610a8b611233565b6004805460405163109cc30b60e21b81526001600160a01b03909116916342730c2c91610aba91309101611963565b602060405180830381865afa158015610ad7573d6000803e3d6000fd5b505050506040513d601f19601f82011682018060405250810190610afb9190611656565b610b175760405162461bcd60e51b815260040161058290611678565b60048054604051636bfb078d60e01b81526000926001600160a01b0390921691636bfb078d91610b4991309101611986565b602060405180830381865afa158015610b66573d6000803e3d6000fd5b505050506040513d601f19601f82011682018060405250810190610b8a91906118cb565b90506001600160a01b038116610bd45760405162461bcd60e51b815260206004820152600f60248201526e494e56414c49445f4144445245535360881b6044820152606401610582565b600280546001600160a01b0319166001600160a01b038381169190911790915560048054604051636e977f0b60e01b8152921691636e977f0b91610c1b91600191016119da565b600060405180830381600087803b158015610c3557600080fd5b505af1158015610c49573d6000803e3d6000fd5b5050600480546040516345503fcb60e11b81526001600160a01b039091169350638aa07f969250610a4e9101611a1d565b610c82611233565b610c8c600061128d565b565b3360009081526009602052604090205460ff161515600114610ce55760405162461bcd60e51b815260206004820152601060248201526f1410525497d393d517d0d3d4949150d560821b6044820152606401610582565b6040516370a0823160e01b81523060048201526000906001600160a01b038416906370a0823190602401602060405180830381865afa158015610d2c573d6000803e3d6000fd5b505050506040513d601f19601f82011682018060405250810190610d5091906115b6565b905060008111610d975760405162461bcd60e51b8152602060048201526012602482015271544f4b454e5f42414c414e43455f5a45524f60701b6044820152606401610582565b6000610db360646104dd6005548561122790919063ffffffff16565b90506000610dd160646104dd6006548661122790919063ffffffff16565b60025460405163a9059cbb60e01b81526001600160a01b0391821660048201526024810185905291925086169063a9059cbb906044016020604051808303816000875af1158015610e26573d6000803e3d6000fd5b505050506040513d601f19601f82011682018060405250810190610e4a9190611656565b5060035460405163a9059cbb60e01b81526001600160a01b039182166004820152602481018390529086169063a9059cbb906044016020604051808303816000875af1158015610e9e573d6000803e3d6000fd5b505050506040513d601f19601f82011682018060405250810190610ec29190611656565b506040516370a0823160e01b81523060048201526001600160a01b0386169063a9059cbb90339083906370a0823190602401602060405180830381865afa158015610f11573d6000803e3d6000fd5b505050506040513d601f19601f82011682018060405250810190610f3591906115b6565b6040516001600160e01b031960e085901b1681526001600160a01b03909216600483015260248201526044016020604051808303816000875af1158015610f80573d6000803e3d6000fd5b505050506040513d601f19601f82011682018060405250810190610fa49190611656565b50610fae846112dd565b610a7c3384611421565b600080826001600160a01b031663d13229626040518163ffffffff1660e01b8152600401602060405180830381865afa158015610ff9573d6000803e3d6000fd5b505050506040513d601f19601f8201168201806040525081019061101d91906115b6565b6001600160a01b0384166000908152600a60209081526040808320600c835281842054845290915290205490915061105c826104dd83620186a0611227565b949350505050565b61106c611233565b6001600160a01b03811660009081526009602052604090205460ff1615156001146110cb5760405162461bcd60e51b815260206004820152600f60248201526e1393d517d25397d5121157d31254d5608a1b6044820152606401610582565b6001600160a01b03166000908152600960205260409020805460ff19169055565b6110f4611233565b6001600160a01b03811660009081526009602052604090205460ff16151560010361114f5760405162461bcd60e51b815260206004820152600b60248201526a125397d5121157d31254d560aa1b6044820152606401610582565b6001600160a01b03166000908152600960205260409020805460ff19166001179055565b61117b611233565b600855565b611188611233565b6001600160a01b0381166111ed5760405162461bcd60e51b815260206004820152602660248201527f4f776e61626c653a206e6577206f776e657220697320746865207a65726f206160448201526564647265737360d01b6064820152608401610582565b6111f68161128d565b50565b611201611233565b600755565b600061121282846115e5565b90505b92915050565b60006112128284611a2f565b60006112128284611a51565b6000546001600160a01b03163314610c8c5760405162461bcd60e51b815260206004820181905260248201527f4f776e61626c653a2063616c6c6572206973206e6f7420746865206f776e65726044820152606401610582565b600080546001600160a01b038381166001600160a01b0319831681178455604051919092169283917f8be0079c531659141344cd1fd0a4f28419497f9722a3daafe3b4186f6b6457e09190a35050565b6001546040516370a0823160e01b81523060048201526000916001600160a01b0316906370a0823190602401602060405180830381865afa158015611326573d6000803e3d6000fd5b505050506040513d601f19601f8201168201806040525081019061134a91906115b6565b6007549091508181111561135b5750805b801561141c5760015460405163a9059cbb60e01b81526001600160a01b038581166004830152602482018490529091169063a9059cbb906044016020604051808303816000875af11580156113b4573d6000803e3d6000fd5b505050506040513d601f19601f820116820180604052508101906113d89190611656565b50604080516001600160a01b0385168152602081018390527f96eaa1ed1e7f1418c12a0485dc6a8c4b3567c2b7ef81cf269a38c7d256b06f1a910160405180910390a15b505050565b6008546001600160a01b0383166000908152600b602052604090205442916114499190611206565b11611498576001600160a01b0382166000908152600c602052604081208054600192906114779084906115e5565b90915550506001600160a01b0382166000908152600b602052604090204290555b6001600160a01b0382166000908152600a60209081526040808320600c83528184205484529091529020546114cd9082611206565b6001600160a01b039092166000908152600a60209081526040808320600c835281842054845290915290209190915550565b6001600160a01b03811681146111f657600080fd5b60006020828403121561152657600080fd5b8135611531816114ff565b9392505050565b6000806040838503121561154b57600080fd5b8235611556816114ff565b946020939093013593505050565b6000806040838503121561157757600080fd5b8235611582816114ff565b91506020830135611592816114ff565b809150509250929050565b6000602082840312156115af57600080fd5b5035919050565b6000602082840312156115c857600080fd5b5051919050565b634e487b7160e01b600052601160045260246000fd5b80820180821115611215576112156115cf565b600081611607576116076115cf565b506000190190565b6011815270736574506572666f726d616e636546656560781b602082015260400190565b6001600160a01b038216815260406020820181905260009061121290830161160f565b60006020828403121561166857600080fd5b8151801515811461153157600080fd5b60208082526012908201527124a72b20a624a22fa822a926a4a9a9a4a7a760711b604082015260600190565b6001600160a01b03821681526060602082018190526000906116c790830161160f565b828103604084015261105c81600f81526e504552464f524d414e43455f46454560881b602082015260400190565b6060815260006117076060830161160f565b828103602084015261173581600f81526e504552464f524d414e43455f46454560881b602082015260400190565b91505060ff8316604083015292915050565b6020815260006112156020830161160f565b600a8152697365745361667546656560b01b602082015260400190565b6001600160a01b0382168152604060208201819052600090611212908301611759565b6001600160a01b03821681526060602082018190526000906117bc908301611759565b828103604084015261105c81600981526814d0519557d195539160ba1b602082015260400190565b6060815260006117f660608301611759565b828103602084015261173581600981526814d0519557d195539160ba1b602082015260400190565b60208152600061121560208301611759565b60138152721cd95d14d8599d519d5b9910dbdb9d1c9858dd606a1b602082015260400190565b6001600160a01b0382168152604060208201819052600090611212908301611830565b6001600160a01b038216815260606020820181905260009061189c908301611830565b828103604084015261105c81601081526f1cd8599d519d5b9910dbdb9d1c9858dd60821b602082015260400190565b6000602082840312156118dd57600080fd5b8151611531816114ff565b6060815260006118fa60608301611830565b828103602084015261173581601081526f1cd8599d519d5b9910dbdb9d1c9858dd60821b602082015260400190565b60208152600061121560208301611830565b6015815274736574506572666f726d616e63654d616368696e6560581b602082015260400190565b6001600160a01b038216815260406020820181905260009061121290830161193b565b6001600160a01b03821681526060602082018190526000906119a990830161193b565b828103604084015261105c816012815271706572666f726d616e63654d616368696e6560701b602082015260400190565b6060815260006119ec6060830161193b565b8281036020840152611735816012815271706572666f726d616e63654d616368696e6560701b602082015260400190565b6020815260006112156020830161193b565b600082611a4c57634e487b7160e01b600052601260045260246000fd5b500490565b8082028115828204841417611215576112156115cf56fea264697066735822122023b56b8e8ad5c01bab43b0442cb4d9bdb1a311fd258f464e45015f74f9fb782864736f6c63430008110033",
  "immutableReferences": {},
  "source": "// SPDX-License-Identifier: MIT\r\npragma solidity >=0.6.12;\r\n\r\nimport \"@openzeppelin/contracts/utils/math/SafeMath.sol\";\r\nimport \"@openzeppelin/contracts/token/ERC20/IERC20.sol\";\r\nimport \"@openzeppelin/contracts/access/Ownable.sol\";\r\n\r\nimport './interfaces/IGarbiTimeLock.sol';\r\n\r\ncontract ISwapTrade {\r\n    uint256 public TRADE_FEE; //0.01% 10/100000\r\n} \r\n\r\ncontract GarbiswapFeeMachine is Ownable{\r\n    \r\n    using SafeMath for uint256;\r\n\r\n    IERC20 public GRB;\r\n    \r\n    address public performanceMachineContract;\r\n    address public safuFundContract;\r\n\r\n    IGarbiTimeLock public garbiTimeLockContract;\r\n\r\n    uint256 public PERFORMANCE_FEE = 50; //50% 50/100 from 0.01% trade fee \r\n    uint256 public SAFU_FUND = 0; //0%\r\n\r\n    uint256 public DISTRIBUTE_GARBI_AMOUNT = 5 * 1e17;\r\n\r\n    uint256 public DAY_PERIOD = 1 days;\r\n\r\n    mapping (address => bool) public pairs;\r\n    mapping (address => mapping(uint256 => uint256)) public feeOf;\r\n    mapping (address => uint256) public timeOfCreateNewFee;\r\n    mapping (address => uint256) public totalDays;\r\n\r\n    event onDistributeGarbi(address _trader, uint256 _amount);\r\n    \r\n    constructor(\r\n        IERC20 _grb,\r\n        address _performanceMachineContract, \r\n        address _safuFundContract,\r\n        IGarbiTimeLock _garbiTimeLockContract\r\n        ) {\r\n        garbiTimeLockContract = _garbiTimeLockContract;\r\n        performanceMachineContract = _performanceMachineContract;\r\n        safuFundContract = _safuFundContract;\r\n\r\n        GRB = _grb;\r\n    }\r\n\r\n    function setDayPeriod(uint256 _value) public onlyOwner {\r\n        DAY_PERIOD = _value;\r\n    }\r\n    function addPair(address _pair) public onlyOwner {\r\n        require(pairs[_pair] != true, \"IN_THE_LIST\");\r\n        pairs[_pair] = true;\r\n    }\r\n\r\n    function removePair(address _pair) public onlyOwner {\r\n        require(pairs[_pair] == true, \"NOT_IN_THE_LIST\");\r\n        pairs[_pair] = false;\r\n    }\r\n\r\n    function setDistributeGarbiAmount(uint256 _amount) public onlyOwner {\r\n        DISTRIBUTE_GARBI_AMOUNT = _amount;\r\n    }\r\n\r\n\r\n    function setPerformanceMachine() public onlyOwner {\r\n\r\n        require(garbiTimeLockContract.isQueuedTransaction(address(this), 'setPerformanceMachine'), \"INVALID_PERMISSION\");\r\n\r\n        address _performanceMachine = garbiTimeLockContract.getAddressChangeOnTimeLock(address(this), 'setPerformanceMachine', 'performanceMachine');\r\n\r\n        require(_performanceMachine != address(0), \"INVALID_ADDRESS\");\r\n\r\n        performanceMachineContract = _performanceMachine;\r\n\r\n        garbiTimeLockContract.clearFieldValue('setPerformanceMachine', 'performanceMachine', 1);\r\n        garbiTimeLockContract.doneTransactions('setPerformanceMachine');\r\n    }\r\n\r\n    function setSafuFundContract() public onlyOwner {\r\n\r\n        require(garbiTimeLockContract.isQueuedTransaction(address(this), 'setSafuFundContract'), \"INVALID_PERMISSION\");\r\n\r\n        address _safuFundContract = garbiTimeLockContract.getAddressChangeOnTimeLock(address(this), 'setSafuFundContract', 'safuFundContract');\r\n\r\n        require(_safuFundContract != address(0), \"INVALID_ADDRESS\");\r\n\r\n        safuFundContract = _safuFundContract;\r\n\r\n        garbiTimeLockContract.clearFieldValue('setSafuFundContract', 'safuFundContract', 1);\r\n        garbiTimeLockContract.doneTransactions('setSafuFundContract');\r\n    }\r\n\r\n    function setPerformanceFee() public onlyOwner {\r\n\r\n        require(garbiTimeLockContract.isQueuedTransaction(address(this), 'setPerformanceFee'), \"INVALID_PERMISSION\");\r\n\r\n        PERFORMANCE_FEE = garbiTimeLockContract.getUintChangeOnTimeLock(address(this), 'setPerformanceFee', 'PERFORMANCE_FEE');\r\n\r\n        garbiTimeLockContract.clearFieldValue('setPerformanceFee', 'PERFORMANCE_FEE', 2);\r\n        garbiTimeLockContract.doneTransactions('setPerformanceFee');\r\n    }\r\n\r\n    function setSafuFee() public onlyOwner {\r\n\r\n        require(garbiTimeLockContract.isQueuedTransaction(address(this), 'setSafuFee'), \"INVALID_PERMISSION\");\r\n\r\n        SAFU_FUND = garbiTimeLockContract.getUintChangeOnTimeLock(address(this), 'setSafuFee', 'SAFU_FUND');\r\n\r\n        garbiTimeLockContract.clearFieldValue('setSafuFee', 'SAFU_FUND', 2);\r\n        garbiTimeLockContract.doneTransactions('setSafuFee');\r\n    }\r\n\r\n    function processTradeFee(IERC20 token, address trader) public {\r\n\r\n        require(pairs[msg.sender] == true, \"PAIR_NOT_CORRECT\");\r\n\r\n        uint256 tokenBalance = token.balanceOf(address(this)); \r\n        require(tokenBalance > 0, \"TOKEN_BALANCE_ZERO\");\r\n        uint256 performanceFee = tokenBalance.mul(PERFORMANCE_FEE).div(100);\r\n        uint256 safuFundAmount = tokenBalance.mul(SAFU_FUND).div(100);\r\n        token.transfer(performanceMachineContract, performanceFee);\r\n        token.transfer(safuFundContract, safuFundAmount);\r\n        token.transfer(msg.sender, token.balanceOf(address(this))); //send back the trade fee after cut 50%\r\n\r\n        _distributeGarbi(trader);\r\n        _updateDailyFee(msg.sender, tokenBalance);\r\n    }\r\n\r\n    function _updateDailyFee(address _lp, uint256 _fee) private {\r\n        if (timeOfCreateNewFee[_lp].add(DAY_PERIOD) <= block.timestamp) {\r\n            totalDays[_lp] += 1;\r\n            timeOfCreateNewFee[_lp] = block.timestamp;\r\n        } \r\n        feeOf[_lp][totalDays[_lp]] = feeOf[_lp][totalDays[_lp]].add(_fee);\r\n    }\r\n\r\n    function _distributeGarbi(address trader) private {\r\n        uint256 _grbBal = GRB.balanceOf(address(this));\r\n        uint256 _distributeAmt = DISTRIBUTE_GARBI_AMOUNT;\r\n\r\n        if (_distributeAmt > _grbBal) {\r\n            _distributeAmt = _grbBal;\r\n        }\r\n        if (_distributeAmt > 0) {\r\n            GRB.transfer(trader, _distributeAmt);\r\n            emit onDistributeGarbi(trader, _distributeAmt);\r\n        }\r\n    }\r\n    function getTradeFeeAPY(IERC20 _lp) public view returns(uint256) {\r\n        uint256 _totalSupply = _lp.totalSupply(); // Base and Token = 2 * total supply\r\n        uint256 _totalDays = totalDays[address(_lp)];\r\n        uint256 _count = 0;\r\n        uint256 _totalFee = 0;\r\n        for (uint256 idx = _totalDays; idx >= 0; idx--) {\r\n            _count += 1;\r\n            _totalFee = _totalFee.add(feeOf[address(_lp)][idx]);\r\n            if (_count >= 7) {\r\n                break;\r\n            }\r\n        }\r\n        if (_count <= 0) {\r\n            return 0;\r\n        }\r\n        if (_totalSupply <= 0) {\r\n            return 0;\r\n        }\r\n        uint256 _dailyFee = _totalFee.div(_count);\r\n        return _dailyFee.mul(1e12).mul(365).div(_totalSupply.mul(2));\r\n    }\r\n    function getVolume(address _lp) public view returns(uint256) {\r\n        uint256 _tradeFee = ISwapTrade(_lp).TRADE_FEE();\r\n        uint256 _feeOnLastDay = feeOf[_lp][totalDays[_lp]];\r\n        // TRADE_FEE = 35; //0.035% 35/100000\r\n        // $1000 => fee = 1000*0.035/100 => 0.35\r\n        // => Volume = 100000 * fee / TRADE_FEE\r\n        return _feeOnLastDay.mul(100000).div(_tradeFee);\r\n    }\r\n}",
  "sourcePath": "C:\\Users\\David\\Documents\\NetBeansProjects\\garbiprotocol.github.io\\garbi_contracts\\contracts\\GarbiswapFeeMachine.sol",
  "compiler": {
    "name": "solc",
    "version": "0.8.17+commit.8df45f5f.Emscripten.clang"
  },
  "schemaVersion": "3.4.11",
  "updatedAt": "2023-03-21T11:34:56.248Z",
  "devdoc": {
    "kind": "dev",
    "methods": {
      "owner()": {
        "details": "Returns the address of the current owner."
      },
      "renounceOwnership()": {
        "details": "Leaves the contract without owner. It will not be possible to call `onlyOwner` functions anymore. Can only be called by the current owner. NOTE: Renouncing ownership will leave the contract without an owner, thereby removing any functionality that is only available to the owner."
      },
      "transferOwnership(address)": {
        "details": "Transfers ownership of the contract to a new account (`newOwner`). Can only be called by the current owner."
      }
    },
    "version": 1
  },
  "userdoc": {
    "kind": "user",
    "methods": {},
    "version": 1
  }
}