{
  "contractName": "GarbiVestGRB",
  "abi": [
    {
      "inputs": [
        {
          "internalType": "contract IERC20",
          "name": "_grb",
          "type": "address"
        },
        {
          "internalType": "contract IERC20withBurn",
          "name": "_veGrb",
          "type": "address"
        },
        {
          "internalType": "contract IGarbiswapWhitelist",
          "name": "_whitelistContract",
          "type": "address"
        },
        {
          "internalType": "contract IGarbiTimeLock",
          "name": "_garbiTimeLockContract",
          "type": "address"
        }
      ],
      "stateMutability": "nonpayable",
      "type": "constructor"
    },
    {
      "anonymous": false,
      "inputs": [
        {
          "indexed": true,
          "internalType": "address",
          "name": "previousOwner",
          "type": "address"
        },
        {
          "indexed": true,
          "internalType": "address",
          "name": "newOwner",
          "type": "address"
        }
      ],
      "name": "OwnershipTransferred",
      "type": "event"
    },
    {
      "anonymous": false,
      "inputs": [
        {
          "indexed": false,
          "internalType": "address",
          "name": "_user",
          "type": "address"
        },
        {
          "indexed": false,
          "internalType": "uint256",
          "name": "_amount",
          "type": "uint256"
        }
      ],
      "name": "onClaim",
      "type": "event"
    },
    {
      "anonymous": false,
      "inputs": [
        {
          "indexed": false,
          "internalType": "address",
          "name": "_user",
          "type": "address"
        },
        {
          "indexed": false,
          "internalType": "uint256",
          "name": "_amount",
          "type": "uint256"
        }
      ],
      "name": "onDeposit",
      "type": "event"
    },
    {
      "inputs": [],
      "name": "GRB",
      "outputs": [
        {
          "internalType": "contract IERC20",
          "name": "",
          "type": "address"
        }
      ],
      "stateMutability": "view",
      "type": "function",
      "constant": true
    },
    {
      "inputs": [],
      "name": "PERCENTAGE_GRB",
      "outputs": [
        {
          "internalType": "uint256",
          "name": "",
          "type": "uint256"
        }
      ],
      "stateMutability": "view",
      "type": "function",
      "constant": true
    },
    {
      "inputs": [],
      "name": "garbiTimeLockContract",
      "outputs": [
        {
          "internalType": "contract IGarbiTimeLock",
          "name": "",
          "type": "address"
        }
      ],
      "stateMutability": "view",
      "type": "function",
      "constant": true
    },
    {
      "inputs": [],
      "name": "owner",
      "outputs": [
        {
          "internalType": "address",
          "name": "",
          "type": "address"
        }
      ],
      "stateMutability": "view",
      "type": "function",
      "constant": true
    },
    {
      "inputs": [],
      "name": "renounceOwnership",
      "outputs": [],
      "stateMutability": "nonpayable",
      "type": "function"
    },
    {
      "inputs": [],
      "name": "totalBlock",
      "outputs": [
        {
          "internalType": "uint256",
          "name": "",
          "type": "uint256"
        }
      ],
      "stateMutability": "view",
      "type": "function",
      "constant": true
    },
    {
      "inputs": [
        {
          "internalType": "address",
          "name": "newOwner",
          "type": "address"
        }
      ],
      "name": "transferOwnership",
      "outputs": [],
      "stateMutability": "nonpayable",
      "type": "function"
    },
    {
      "inputs": [
        {
          "internalType": "address",
          "name": "",
          "type": "address"
        }
      ],
      "name": "userGRBAvailable",
      "outputs": [
        {
          "internalType": "uint256",
          "name": "",
          "type": "uint256"
        }
      ],
      "stateMutability": "view",
      "type": "function",
      "constant": true
    },
    {
      "inputs": [
        {
          "internalType": "address",
          "name": "",
          "type": "address"
        }
      ],
      "name": "userLastVestCaculated",
      "outputs": [
        {
          "internalType": "uint256",
          "name": "",
          "type": "uint256"
        }
      ],
      "stateMutability": "view",
      "type": "function",
      "constant": true
    },
    {
      "inputs": [
        {
          "internalType": "address",
          "name": "",
          "type": "address"
        }
      ],
      "name": "userVeGRBConvertToGRB",
      "outputs": [
        {
          "internalType": "uint256",
          "name": "",
          "type": "uint256"
        }
      ],
      "stateMutability": "view",
      "type": "function",
      "constant": true
    },
    {
      "inputs": [
        {
          "internalType": "address",
          "name": "",
          "type": "address"
        }
      ],
      "name": "userVeGRBDeposited",
      "outputs": [
        {
          "internalType": "uint256",
          "name": "",
          "type": "uint256"
        }
      ],
      "stateMutability": "view",
      "type": "function",
      "constant": true
    },
    {
      "inputs": [
        {
          "internalType": "address",
          "name": "",
          "type": "address"
        }
      ],
      "name": "userVestFinished",
      "outputs": [
        {
          "internalType": "uint256",
          "name": "",
          "type": "uint256"
        }
      ],
      "stateMutability": "view",
      "type": "function",
      "constant": true
    },
    {
      "inputs": [],
      "name": "veGRB",
      "outputs": [
        {
          "internalType": "contract IERC20withBurn",
          "name": "",
          "type": "address"
        }
      ],
      "stateMutability": "view",
      "type": "function",
      "constant": true
    },
    {
      "inputs": [],
      "name": "whitelistContract",
      "outputs": [
        {
          "internalType": "contract IGarbiswapWhitelist",
          "name": "",
          "type": "address"
        }
      ],
      "stateMutability": "view",
      "type": "function",
      "constant": true
    },
    {
      "inputs": [],
      "name": "setWhitelistContract",
      "outputs": [],
      "stateMutability": "nonpayable",
      "type": "function"
    },
    {
      "inputs": [
        {
          "internalType": "uint256",
          "name": "_veGRBAmount",
          "type": "uint256"
        }
      ],
      "name": "deposit",
      "outputs": [],
      "stateMutability": "nonpayable",
      "type": "function"
    },
    {
      "inputs": [
        {
          "internalType": "uint256",
          "name": "_amount",
          "type": "uint256"
        }
      ],
      "name": "claimGRB",
      "outputs": [],
      "stateMutability": "nonpayable",
      "type": "function"
    },
    {
      "inputs": [
        {
          "internalType": "address",
          "name": "_user",
          "type": "address"
        }
      ],
      "name": "updateUser",
      "outputs": [],
      "stateMutability": "nonpayable",
      "type": "function"
    },
    {
      "inputs": [
        {
          "internalType": "address",
          "name": "_user",
          "type": "address"
        }
      ],
      "name": "getUserVeGRBBalance",
      "outputs": [
        {
          "internalType": "uint256",
          "name": "userVeGRBBalance",
          "type": "uint256"
        }
      ],
      "stateMutability": "view",
      "type": "function",
      "constant": true
    },
    {
      "inputs": [
        {
          "internalType": "address",
          "name": "_user",
          "type": "address"
        }
      ],
      "name": "getUserPendingGRB",
      "outputs": [
        {
          "internalType": "uint256",
          "name": "",
          "type": "uint256"
        }
      ],
      "stateMutability": "view",
      "type": "function",
      "constant": true
    },
    {
      "inputs": [
        {
          "internalType": "uint256",
          "name": "_from",
          "type": "uint256"
        },
        {
          "internalType": "uint256",
          "name": "_to",
          "type": "uint256"
        }
      ],
      "name": "getBlockFrom",
      "outputs": [
        {
          "internalType": "uint256",
          "name": "",
          "type": "uint256"
        }
      ],
      "stateMutability": "pure",
      "type": "function",
      "constant": true
    },
    {
      "inputs": [
        {
          "internalType": "address",
          "name": "_user",
          "type": "address"
        }
      ],
      "name": "getUserInfo",
      "outputs": [
        {
          "internalType": "uint256",
          "name": "userVeGRBBalance",
          "type": "uint256"
        },
        {
          "internalType": "uint256",
          "name": "userGRBCanClaim",
          "type": "uint256"
        },
        {
          "internalType": "uint256",
          "name": "vestFinished",
          "type": "uint256"
        },
        {
          "internalType": "uint256",
          "name": "lastVestCaculated",
          "type": "uint256"
        },
        {
          "internalType": "uint256",
          "name": "veGRBDeposited",
          "type": "uint256"
        },
        {
          "internalType": "uint256",
          "name": "blocknow",
          "type": "uint256"
        },
        {
          "internalType": "uint256",
          "name": "contractGRBBalance",
          "type": "uint256"
        }
      ],
      "stateMutability": "view",
      "type": "function",
      "constant": true
    }
  ],
  "bytecode": "0x60806040526028600b55611680600c553480156200001c57600080fd5b506040516200144a3803806200144a8339810160408190526200003f916200010d565b60016000556200004f33620000a2565b600280546001600160a01b039586166001600160a01b0319918216179091556003805494861694821694909417909355600480549185169184169190911790556005805491909316911617905562000175565b600180546001600160a01b038381166001600160a01b0319831681179093556040519116919082907f8be0079c531659141344cd1fd0a4f28419497f9722a3daafe3b4186f6b6457e090600090a35050565b6001600160a01b03811681146200010a57600080fd5b50565b600080600080608085870312156200012457600080fd5b84516200013181620000f4565b60208601519094506200014481620000f4565b60408601519093506200015781620000f4565b60608601519092506200016a81620000f4565b939692955090935050565b6112c580620001856000396000f3fe608060405234801561001057600080fd5b50600436106101425760003560e01c8063a5376669116100b8578063b6eccc7d1161007c578063b6eccc7d146102de578063ccb934f8146102f1578063cd7d303d146102fa578063ed03b3361461031a578063f2fde38b1461032d578063fed3d6521461034057600080fd5b8063a537666914610294578063a67ceb091461029d578063ac7343bd146102b0578063b0176ce8146102b8578063b6b55f25146102cb57600080fd5b80634fa581aa1161010a5780634fa581aa146101ed5780636386c1c7146102005780636ba927a414610248578063715018a61461026857806384900b04146102705780638da5cb5b1461028357600080fd5b80630762c3541461014757806310a57f3a1461017a57806315f1d712146101a5578063179b293d146101ba5780633e1abe11146101da575b600080fd5b610167610155366004611060565b600a6020526000908152604090205481565b6040519081526020015b60405180910390f35b60045461018d906001600160a01b031681565b6040516001600160a01b039091168152602001610171565b6101b86101b3366004611084565b610360565b005b6101676101c8366004611060565b60076020526000908152604090205481565b6101676101e836600461109d565b61065f565b6101676101fb366004611060565b610674565b61021361020e366004611060565b6106b6565b604080519788526020880196909652948601939093526060850191909152608084015260a083015260c082015260e001610171565b610167610256366004611060565b60086020526000908152604090205481565b6101b86107a4565b60055461018d906001600160a01b031681565b6001546001600160a01b031661018d565b610167600b5481565b60035461018d906001600160a01b031681565b6101b86107b8565b60025461018d906001600160a01b031681565b6101b86102d9366004611084565b610a09565b6101676102ec366004611060565b610d28565b610167600c5481565b610167610308366004611060565b60096020526000908152604090205481565b6101b8610328366004611060565b610e11565b6101b861033b366004611060565b610ea0565b61016761034e366004611060565b60066020526000908152604090205481565b33321461041d57600554604051636c9b2a3f60e11b81523360048201526001600160a01b039091169063d936547e90602401602060405180830381865afa1580156103af573d6000803e3d6000fd5b505050506040513d601f19601f820116820180604052508101906103d391906110bf565b151560011461041d5760405162461bcd60e51b81526020600482015260116024820152701253959053125117d5d2125511531254d5607a1b60448201526064015b60405180910390fd5b610425610f16565b600081116104655760405162461bcd60e51b815260206004820152600d60248201526c1253959053125117d253941555609a1b6044820152606401610414565b61046e33610e11565b6002546040516370a0823160e01b81523060048201526000916001600160a01b0316906370a0823190602401602060405180830381865afa1580156104b7573d6000803e3d6000fd5b505050506040513d601f19601f820116820180604052508101906104db91906110e1565b9050808211156104e9578091505b33600090815260076020526040902054821115610513573360009081526007602052604090205491505b3360009081526007602052604090205461052d9083610f6f565b336000818152600760205260409081902092909255600254915163a9059cbb60e01b81526004810191909152602481018490526001600160a01b039091169063a9059cbb906044016020604051808303816000875af1158015610594573d6000803e3d6000fd5b505050506040513d601f19601f820116820180604052508101906105b891906110bf565b50600354604051630852cd8d60e31b8152600481018490526001600160a01b03909116906342966c6890602401600060405180830381600087803b1580156105ff57600080fd5b505af1158015610613573d6000803e3d6000fd5b505060408051338152602081018690527fd203a5dd248f303beb17dd4f17d3b0cecc4d94bc2753347b927ec5836e0a3396935001905060405180910390a15061065c6001600055565b50565b600061066b8284610f6f565b90505b92915050565b600061066e61068283610d28565b6001600160a01b0384166000908152600860209081526040808320546006909252909120546106b091610f6f565b90610f6f565b60008060008060008060006106ca88610674565b96506106d588610d28565b6001600160a01b0389166000908152600760205260409020546106f89190611110565b6001600160a01b038981166000908152600a602090815260408083205460098352818420546006909352928190205460025491516370a0823160e01b8152306004820152959b5092995090975090955043945016906370a0823190602401602060405180830381865afa158015610773573d6000803e3d6000fd5b505050506040513d601f19601f8201168201806040525081019061079791906110e1565b9050919395979092949650565b6107ac610f7b565b6107b66000610fd5565b565b6107c0610f7b565b6004805460405163109cc30b60e21b81526001600160a01b03909116916342730c2c916107ef9130910161114a565b602060405180830381865afa15801561080c573d6000803e3d6000fd5b505050506040513d601f19601f8201168201806040525081019061083091906110bf565b6108715760405162461bcd60e51b815260206004820152601260248201527124a72b20a624a22fa822a926a4a9a9a4a7a760711b6044820152606401610414565b60048054604051636bfb078d60e01b81526000926001600160a01b0390921691636bfb078d916108a39130910161116d565b602060405180830381865afa1580156108c0573d6000803e3d6000fd5b505050506040513d601f19601f820116820180604052508101906108e491906111c0565b90506001600160a01b03811661092e5760405162461bcd60e51b815260206004820152600f60248201526e494e56414c49445f4144445245535360881b6044820152606401610414565b600580546001600160a01b0319166001600160a01b038381169190911790915560048054604051636e977f0b60e01b8152921691636e977f0b9161097591600191016111dd565b600060405180830381600087803b15801561098f57600080fd5b505af11580156109a3573d6000803e3d6000fd5b5050600480546040516345503fcb60e11b81526001600160a01b039091169350638aa07f9692506109d49101611231565b600060405180830381600087803b1580156109ee57600080fd5b505af1158015610a02573d6000803e3d6000fd5b5050505050565b333214610ac157600554604051636c9b2a3f60e11b81523360048201526001600160a01b039091169063d936547e90602401602060405180830381865afa158015610a58573d6000803e3d6000fd5b505050506040513d601f19601f82011682018060405250810190610a7c91906110bf565b1515600114610ac15760405162461bcd60e51b81526020600482015260116024820152701253959053125117d5d2125511531254d5607a1b6044820152606401610414565b610ac9610f16565b60008111610b095760405162461bcd60e51b815260206004820152600d60248201526c1253959053125117d253941555609a1b6044820152606401610414565b610b1233610e11565b6003546040516370a0823160e01b81523360048201526000916001600160a01b0316906370a0823190602401602060405180830381865afa158015610b5b573d6000803e3d6000fd5b505050506040513d601f19601f82011682018060405250810190610b7f91906110e1565b905080821115610b8d578091505b6003546040516323b872dd60e01b8152336004820152306024820152604481018490526001600160a01b03909116906323b872dd906064016020604051808303816000875af1158015610be4573d6000803e3d6000fd5b505050506040513d601f19601f82011682018060405250810190610c0891906110bf565b5033600090815260086020908152604080832054600690925290912054610c3491906106b09085611027565b3360009081526006602090815260408083209390935560089052908120819055600b54610c6f90606490610c69908690611033565b9061103f565b33600090815260076020526040902054909150610c8c9082611027565b33600090815260076020908152604080832093909355600690522054610cb29082610f6f565b33600090815260066020526040902055600c54610ccf9043611110565b336000818152600a60209081526040918290209390935580519182529181018590527f2bf9518c65eff7d1f3ee4106bf0dc41267ccde0924dbfa4ab476ed5c0f45da98910160405180910390a1505061065c6001600055565b600c546001600160a01b03821660009081526006602052604081205490918291610d519161103f565b6001600160a01b0384166000908152600a6020526040812054919250904311610daa576001600160a01b038416600090815260096020526040902054610da290610d9b904361065f565b8390611033565b949350505050565b6001600160a01b0384166000908152600a60209081526040808320546009909252909120541115610ddf575060009392505050565b6001600160a01b038416600090815260096020908152604080832054600a90925290912054610da291610d9b9161065f565b6000610e1c82610d28565b6001600160a01b038316600090815260086020526040902054909150610e429082611027565b6001600160a01b038316600090815260086020908152604080832093909355600790522054610e72908290611110565b6001600160a01b03909216600090815260076020908152604080832094909455600990529190912043905550565b610ea8610f7b565b6001600160a01b038116610f0d5760405162461bcd60e51b815260206004820152602660248201527f4f776e61626c653a206e6577206f776e657220697320746865207a65726f206160448201526564647265737360d01b6064820152608401610414565b61065c81610fd5565b600260005403610f685760405162461bcd60e51b815260206004820152601f60248201527f5265656e7472616e637947756172643a207265656e7472616e742063616c6c006044820152606401610414565b6002600055565b600061066b8284611243565b6001546001600160a01b031633146107b65760405162461bcd60e51b815260206004820181905260248201527f4f776e61626c653a2063616c6c6572206973206e6f7420746865206f776e65726044820152606401610414565b600180546001600160a01b038381166001600160a01b0319831681179093556040519116919082907f8be0079c531659141344cd1fd0a4f28419497f9722a3daafe3b4186f6b6457e090600090a35050565b600061066b8284611110565b600061066b8284611256565b600061066b828461126d565b6001600160a01b038116811461065c57600080fd5b60006020828403121561107257600080fd5b813561107d8161104b565b9392505050565b60006020828403121561109657600080fd5b5035919050565b600080604083850312156110b057600080fd5b50508035926020909101359150565b6000602082840312156110d157600080fd5b8151801515811461107d57600080fd5b6000602082840312156110f357600080fd5b5051919050565b634e487b7160e01b600052601160045260246000fd5b8082018082111561066e5761066e6110fa565b60148152731cd95d15da1a5d195b1a5cdd10dbdb9d1c9858dd60621b602082015260400190565b6001600160a01b038216815260406020820181905260009061066b908301611123565b6001600160a01b0382168152606060208201819052600090611190908301611123565b8281036040840152610da28160118152701dda1a5d195b1a5cdd10dbdb9d1c9858dd607a1b602082015260400190565b6000602082840312156111d257600080fd5b815161107d8161104b565b6060815260006111ef60608301611123565b828103602084015261121f8160118152701dda1a5d195b1a5cdd10dbdb9d1c9858dd607a1b602082015260400190565b91505060ff8316604083015292915050565b60208152600061066e60208301611123565b8181038181111561066e5761066e6110fa565b808202811582820484141761066e5761066e6110fa565b60008261128a57634e487b7160e01b600052601260045260246000fd5b50049056fea26469706673582212204e02c0d3da73eb39b213f5eb172d135c2ae43af94bfc9bfcd3faaff1333d676764736f6c63430008110033",
  "immutableReferences": {},
  "source": "// SPDX-License-Identifier: MIT\npragma solidity >=0.6.12;\n\nimport \"@openzeppelin/contracts/utils/math/SafeMath.sol\";\nimport \"@openzeppelin/contracts/token/ERC20/IERC20.sol\";\nimport \"@openzeppelin/contracts/utils/Context.sol\";\nimport \"@openzeppelin/contracts/access/Ownable.sol\";\nimport \"@openzeppelin/contracts/security/ReentrancyGuard.sol\";\n\nimport './interfaces/IGarbiTimeLock.sol';\nimport './interfaces/IGarbiswapWhitelist.sol';\nimport './interfaces/IERC20withBurn.sol';\n\ncontract GarbiVestGRB is ReentrancyGuard, Ownable {\n\n    using SafeMath for uint256;\n\n    IERC20 public GRB;\n    IERC20withBurn public veGRB;\n\n    IGarbiTimeLock public garbiTimeLockContract;\n    IGarbiswapWhitelist public whitelistContract;\n\n    mapping(address => uint256) public userVeGRBDeposited;\n    mapping(address => uint256) public userGRBAvailable;\n    mapping(address => uint256) public userVeGRBConvertToGRB;\n    mapping(address => uint256) public userLastVestCaculated;\n    mapping(address => uint256) public userVestFinished;\n\n    uint256 public PERCENTAGE_GRB = 40; //40% 40/100\n    uint256 public totalBlock = 5760;\n\n    event onDeposit(address _user, uint256 _amount);\n    event onClaim(address _user, uint256 _amount);\n\n    modifier onlyWhitelist()\n    {\n        if (msg.sender != tx.origin) {\n            require(whitelistContract.whitelisted(msg.sender) == true, 'INVALID_WHITELIST');\n        }\n        _;\n    }\n\n    constructor(\n        IERC20 _grb,\n        IERC20withBurn _veGrb,\n        IGarbiswapWhitelist _whitelistContract,\n        IGarbiTimeLock _garbiTimeLockContract\n    ) {\n        GRB = _grb;\n        veGRB = _veGrb;\n        garbiTimeLockContract = _garbiTimeLockContract;\n        whitelistContract = _whitelistContract;\n    }\n\n    function setWhitelistContract() public onlyOwner {\n        require(garbiTimeLockContract.isQueuedTransaction(address(this), 'setWhitelistContract'), \"INVALID_PERMISSION\");\n\n        address _whitelistContract = garbiTimeLockContract.getAddressChangeOnTimeLock(address(this), 'setWhitelistContract', 'whitelistContract');\n\n        require(_whitelistContract != address(0), \"INVALID_ADDRESS\");\n\n        whitelistContract = IGarbiswapWhitelist(_whitelistContract);\n\n        garbiTimeLockContract.clearFieldValue('setWhitelistContract', 'whitelistContract', 1);\n        garbiTimeLockContract.doneTransactions('setWhitelistContract');\n    }\n\n    function deposit(uint256 _veGRBAmount) public onlyWhitelist nonReentrant {\n        require(_veGRBAmount > 0, 'INVALID_INPUT');\n        \n        updateUser(msg.sender);\n\n        uint256 userVeGRBBalance = veGRB.balanceOf(msg.sender);\n        if(_veGRBAmount > userVeGRBBalance) {\n            _veGRBAmount = userVeGRBBalance;\n        }\n\n        veGRB.transferFrom(msg.sender, address(this), _veGRBAmount);\n\n        userVeGRBDeposited[msg.sender] = userVeGRBDeposited[msg.sender].add(_veGRBAmount).sub(userVeGRBConvertToGRB[msg.sender]);\n        userVeGRBConvertToGRB[msg.sender] = 0;\n\n        uint256 availableGRB = _veGRBAmount.mul(PERCENTAGE_GRB).div(100);\n        userGRBAvailable[msg.sender] = userGRBAvailable[msg.sender].add(availableGRB);\n        userVeGRBDeposited[msg.sender] = userVeGRBDeposited[msg.sender].sub(availableGRB);\n\n        userVestFinished[msg.sender] = block.number + totalBlock;\n\n        emit onDeposit(msg.sender, _veGRBAmount);\n    }\n\n    function claimGRB(uint256 _amount) public onlyWhitelist nonReentrant {\n        require(_amount > 0, 'INVALID_INPUT');\n        \n        updateUser(msg.sender);\n\n        uint256 vaultBalance = GRB.balanceOf(address(this));\n        \n        if(_amount > vaultBalance) {\n            _amount = vaultBalance;\n        }\n\n        if(_amount > userGRBAvailable[msg.sender]) {\n            _amount = userGRBAvailable[msg.sender];\n        }\n        \n        userGRBAvailable[msg.sender] = userGRBAvailable[msg.sender].sub(_amount);  \n        GRB.transfer(msg.sender, _amount);\n        veGRB.burn(_amount);\n\n        emit onClaim(msg.sender, _amount);\n    }\n\n    function updateUser(address _user) public {\n        uint256 pendingGRB = getUserPendingGRB(_user);\n        userVeGRBConvertToGRB[_user] = userVeGRBConvertToGRB[_user].add(pendingGRB);\n        userGRBAvailable[_user] = userGRBAvailable[_user] + pendingGRB;\n        userLastVestCaculated[_user] = block.number;\n    }\n\n    function getUserVeGRBBalance(address _user) public view returns(uint256 userVeGRBBalance) {\n        userVeGRBBalance = userVeGRBDeposited[_user].sub(userVeGRBConvertToGRB[_user]).sub(getUserPendingGRB(_user));\n    }\n\n    function getUserPendingGRB(address _user) public view returns(uint256) {\n        uint256 userVestingSpeed = userVeGRBDeposited[_user].div(totalBlock);\n        uint256 userPendingGRB = 0;\n        if(block.number <= userVestFinished[_user]) {\n            userPendingGRB = userVestingSpeed.mul(getBlockFrom(userLastVestCaculated[_user], block.number));\n            return userPendingGRB;\n        }\n        else {\n            if(userLastVestCaculated[_user] > userVestFinished[_user]) {\n                return 0;\n            }\n            else {\n                userPendingGRB = userVestingSpeed.mul(getBlockFrom(userLastVestCaculated[_user], userVestFinished[_user]));\n                return userPendingGRB;\n            }\n        }\n    }\n\n    function getBlockFrom(uint256 _from, uint256 _to) public pure returns (uint256) {\n        return _to.sub(_from);\n    }\n\n    function getUserInfo(address _user) public view returns(uint256 userVeGRBBalance, uint256 userGRBCanClaim, uint256 vestFinished, uint256 lastVestCaculated, uint256 veGRBDeposited, uint256 blocknow, uint256 contractGRBBalance) {\n        userVeGRBBalance = getUserVeGRBBalance(_user);\n        userGRBCanClaim = userGRBAvailable[_user] + getUserPendingGRB(_user);\n        vestFinished = userVestFinished[_user];\n        lastVestCaculated = userLastVestCaculated[_user];\n        veGRBDeposited = userVeGRBDeposited[_user];\n        blocknow = block.number;\n        contractGRBBalance = GRB.balanceOf(address(this));\n    }\n\n}",
  "sourcePath": "/Applications/projects/garbiprotocol.github.io/garbi_contracts/contracts/GarbiVestGRB.sol",
  "compiler": {
    "name": "solc",
    "version": "0.8.17+commit.8df45f5f.Emscripten.clang"
  },
  "schemaVersion": "3.4.11",
  "updatedAt": "2023-01-28T08:56:38.254Z",
  "networkType": "ethereum",
  "devdoc": {
    "kind": "dev",
    "methods": {
      "owner()": {
        "details": "Returns the address of the current owner."
      },
      "renounceOwnership()": {
        "details": "Leaves the contract without owner. It will not be possible to call `onlyOwner` functions anymore. Can only be called by the current owner. NOTE: Renouncing ownership will leave the contract without an owner, thereby removing any functionality that is only available to the owner."
      },
      "transferOwnership(address)": {
        "details": "Transfers ownership of the contract to a new account (`newOwner`). Can only be called by the current owner."
      }
    },
    "version": 1
  },
  "userdoc": {
    "kind": "user",
    "methods": {},
    "version": 1
  }
}