{
  "contractName": "GarbiRepository",
  "abi": [
    {
      "inputs": [
        {
          "internalType": "contract IERC20",
          "name": "baseContract",
          "type": "address"
        }
      ],
      "stateMutability": "nonpayable",
      "type": "constructor"
    },
    {
      "anonymous": false,
      "inputs": [
        {
          "indexed": true,
          "internalType": "address",
          "name": "previousOwner",
          "type": "address"
        },
        {
          "indexed": true,
          "internalType": "address",
          "name": "newOwner",
          "type": "address"
        }
      ],
      "name": "OwnershipTransferred",
      "type": "event"
    },
    {
      "anonymous": false,
      "inputs": [
        {
          "indexed": false,
          "internalType": "address",
          "name": "addressWithdraw",
          "type": "address"
        },
        {
          "indexed": false,
          "internalType": "uint256",
          "name": "amount",
          "type": "uint256"
        }
      ],
      "name": "onWithdrawBase",
      "type": "event"
    },
    {
      "inputs": [],
      "name": "base",
      "outputs": [
        {
          "internalType": "contract IERC20",
          "name": "",
          "type": "address"
        }
      ],
      "stateMutability": "view",
      "type": "function"
    },
    {
      "inputs": [],
      "name": "garbiOracle",
      "outputs": [
        {
          "internalType": "contract IGarbiOracle",
          "name": "",
          "type": "address"
        }
      ],
      "stateMutability": "view",
      "type": "function"
    },
    {
      "inputs": [],
      "name": "owner",
      "outputs": [
        {
          "internalType": "address",
          "name": "",
          "type": "address"
        }
      ],
      "stateMutability": "view",
      "type": "function"
    },
    {
      "inputs": [],
      "name": "renounceOwnership",
      "outputs": [],
      "stateMutability": "nonpayable",
      "type": "function"
    },
    {
      "inputs": [],
      "name": "repositoryManagerAddress",
      "outputs": [
        {
          "internalType": "address",
          "name": "",
          "type": "address"
        }
      ],
      "stateMutability": "view",
      "type": "function"
    },
    {
      "inputs": [
        {
          "internalType": "address",
          "name": "newOwner",
          "type": "address"
        }
      ],
      "name": "transferOwnership",
      "outputs": [],
      "stateMutability": "nonpayable",
      "type": "function"
    },
    {
      "inputs": [
        {
          "internalType": "address",
          "name": "newAddress",
          "type": "address"
        }
      ],
      "name": "setRepositoryManagerAddress",
      "outputs": [],
      "stateMutability": "nonpayable",
      "type": "function"
    },
    {
      "inputs": [
        {
          "internalType": "contract IERC20",
          "name": "newContract",
          "type": "address"
        }
      ],
      "name": "setBaseContract",
      "outputs": [],
      "stateMutability": "nonpayable",
      "type": "function"
    },
    {
      "inputs": [],
      "name": "getCapacityByToken",
      "outputs": [
        {
          "internalType": "uint256",
          "name": "repoCapacityInToken",
          "type": "uint256"
        }
      ],
      "stateMutability": "view",
      "type": "function"
    },
    {
      "inputs": [],
      "name": "getCapacityByUSD",
      "outputs": [
        {
          "internalType": "uint256",
          "name": "repoCapacityInUSD",
          "type": "uint256"
        }
      ],
      "stateMutability": "view",
      "type": "function"
    },
    {
      "inputs": [],
      "name": "getBasePrice",
      "outputs": [
        {
          "internalType": "uint256",
          "name": "basePriceFromOracle",
          "type": "uint256"
        }
      ],
      "stateMutability": "view",
      "type": "function"
    },
    {
      "inputs": [
        {
          "internalType": "uint256",
          "name": "baseOutAmount",
          "type": "uint256"
        }
      ],
      "name": "withdrawBaseToRepositoryManager",
      "outputs": [],
      "stateMutability": "nonpayable",
      "type": "function"
    }
  ],
  "bytecode": "0x608060405234801561001057600080fd5b5060405161082538038061082583398101604081905261002f916100ad565b6100383361005d565b600280546001600160a01b0319166001600160a01b03929092169190911790556100dd565b600080546001600160a01b038381166001600160a01b0319831681178455604051919092169283917f8be0079c531659141344cd1fd0a4f28419497f9722a3daafe3b4186f6b6457e09190a35050565b6000602082840312156100bf57600080fd5b81516001600160a01b03811681146100d657600080fd5b9392505050565b610739806100ec6000396000f3fe608060405234801561001057600080fd5b50600436106100b45760003560e01c80639a8cbfb1116100715780639a8cbfb114610135578063a2701b4a14610148578063b49f4afd1461015b578063ca414dd714610163578063d12feeb514610176578063f2fde38b1461018957600080fd5b80631f14036c146100b957806329b315d7146100e957806335a22664146100ff5780635001f3b514610107578063715018a61461011a5780638da5cb5b14610124575b600080fd5b6001546100cc906001600160a01b031681565b6040516001600160a01b0390911681526020015b60405180910390f35b6100f161019c565b6040519081526020016100e0565b6100f161020f565b6002546100cc906001600160a01b031681565b610122610309565b005b6000546001600160a01b03166100cc565b610122610143366004610666565b61031d565b61012261015636600461068a565b610347565b6100f16104b6565b610122610171366004610666565b6104ef565b6003546100cc906001600160a01b031681565b610122610197366004610666565b610519565b6002546040516370a0823160e01b81523060048201526000916001600160a01b0316906370a08231906024015b602060405180830381865afa1580156101e6573d6000803e3d6000fd5b505050506040513d601f19601f8201168201806040525081019061020a91906106a3565b905090565b6002546040516370a0823160e01b815230600482015260009182916001600160a01b03909116906370a0823190602401602060405180830381865afa15801561025c573d6000803e3d6000fd5b505050506040513d601f19601f8201168201806040525081019061028091906106a3565b6001546002546040516302c68be360e31b81526001600160a01b0391821660048201529293506000929116906316345f1890602401602060405180830381865afa1580156102d2573d6000803e3d6000fd5b505050506040513d601f19601f820116820180604052508101906102f691906106a3565b90506103028282610592565b9250505090565b6103116105a7565b61031b6000610601565b565b6103256105a7565b600280546001600160a01b0319166001600160a01b0392909216919091179055565b6003546001600160a01b0316331461039b5760405162461bcd60e51b815260206004820152601260248201527124a72b20a624a22fa822a926a4a9a9a4a7a760711b60448201526064015b60405180910390fd5b600081116103da5760405162461bcd60e51b815260206004820152600c60248201526b494e56414c49445f4441544160a01b6044820152606401610392565b60006103e461019c565b9050808211156103f2578091505b60025460035460405163a9059cbb60e01b81526001600160a01b0391821660048201526024810185905291169063a9059cbb906044016020604051808303816000875af1158015610447573d6000803e3d6000fd5b505050506040513d601f19601f8201168201806040525081019061046b91906106bc565b50600354604080516001600160a01b039092168252602082018490527fb32fa994dea240a71e857474752d134624dbeda5cf5fec60aac9de1481218853910160405180910390a15050565b6001546002546040516302c68be360e31b81526001600160a01b03918216600482015260009291909116906316345f18906024016101c9565b6104f76105a7565b600380546001600160a01b0319166001600160a01b0392909216919091179055565b6105216105a7565b6001600160a01b0381166105865760405162461bcd60e51b815260206004820152602660248201527f4f776e61626c653a206e6577206f776e657220697320746865207a65726f206160448201526564647265737360d01b6064820152608401610392565b61058f81610601565b50565b600061059e82846106de565b90505b92915050565b6000546001600160a01b0316331461031b5760405162461bcd60e51b815260206004820181905260248201527f4f776e61626c653a2063616c6c6572206973206e6f7420746865206f776e65726044820152606401610392565b600080546001600160a01b038381166001600160a01b0319831681178455604051919092169283917f8be0079c531659141344cd1fd0a4f28419497f9722a3daafe3b4186f6b6457e09190a35050565b6001600160a01b038116811461058f57600080fd5b60006020828403121561067857600080fd5b813561068381610651565b9392505050565b60006020828403121561069c57600080fd5b5035919050565b6000602082840312156106b557600080fd5b5051919050565b6000602082840312156106ce57600080fd5b8151801515811461068357600080fd5b80820281158282048414176105a157634e487b7160e01b600052601160045260246000fdfea2646970667358221220023b74a658073c9872933dc6b93f0280434ac3e1737928adcaa0ac107d2e903064736f6c63430008110033",
  "immutableReferences": {},
  "source": "// SPDX-License-Identifier: MIT\r\npragma solidity >=0.6.12;\r\n\r\nimport \"@openzeppelin/contracts/utils/math/SafeMath.sol\";\r\nimport \"@openzeppelin/contracts/token/ERC20/IERC20.sol\";\r\nimport \"@openzeppelin/contracts/access/Ownable.sol\";\r\n\r\nimport '../interfaces/IGarbiOracle.sol';\r\n\r\ncontract GarbiRepository is Ownable {\r\n    using SafeMath for uint256;\r\n\r\n    IGarbiOracle public garbiOracle;\r\n\r\n    IERC20 public base;\r\n\r\n    address public repositoryManagerAddress;\r\n\r\n    modifier onlyRepositoryManager()\r\n    {\r\n        require(repositoryManagerAddress == msg.sender, \"INVALID_PERMISSION\");\r\n        _;\r\n    }\r\n\r\n    // Events\r\n    event onWithdrawBase(address addressWithdraw, uint256 amount);\r\n\r\n    constructor(\r\n        IERC20 baseContract\r\n    ) {\r\n        base = baseContract;\r\n    }\r\n\r\n    function setRepositoryManagerAddress(address newAddress) public onlyOwner {\r\n        repositoryManagerAddress = newAddress;\r\n    }\r\n\r\n    function setBaseContract(IERC20 newContract) public onlyOwner {\r\n        base = newContract;\r\n    }\r\n    \r\n    function getCapacityByToken() public view returns (uint256 repoCapacityInToken) {\r\n       repoCapacityInToken = base.balanceOf(address(this));\r\n    }\r\n\r\n    function getCapacityByUSD() public view returns (uint256 repoCapacityInUSD) {\r\n       uint256 baseBalance = base.balanceOf(address(this));\r\n       uint256 basePriceFromOracle = garbiOracle.getLatestPrice(address(base));\r\n\r\n       repoCapacityInUSD = baseBalance.mul(basePriceFromOracle);\r\n    }\r\n\r\n    function getBasePrice() public view returns (uint256 basePriceFromOracle) {\r\n       basePriceFromOracle = garbiOracle.getLatestPrice(address(base));\r\n    }\r\n\r\n    function withdrawBaseToRepositoryManager(uint256 baseOutAmount) public onlyRepositoryManager {\r\n        require(baseOutAmount > 0, 'INVALID_DATA');\r\n        uint256 repoCapacityInToken = getCapacityByToken();\r\n        \r\n        if(baseOutAmount > repoCapacityInToken) {\r\n            baseOutAmount = repoCapacityInToken;\r\n        }\r\n\r\n        base.transfer(repositoryManagerAddress, baseOutAmount);\r\n\r\n        emit onWithdrawBase(repositoryManagerAddress, baseOutAmount);\r\n    }\r\n}",
  "sourcePath": "C:\\Users\\David\\Documents\\NetBeansProjects\\garbiprotocol.github.io\\garbi_contracts\\contracts\\GarbiSwap2\\GarbiRepository.sol",
  "compiler": {
    "name": "solc",
    "version": "0.8.17+commit.8df45f5f.Emscripten.clang"
  },
  "schemaVersion": "3.4.11",
  "updatedAt": "2023-02-16T10:31:41.408Z",
  "devdoc": {
    "kind": "dev",
    "methods": {
      "owner()": {
        "details": "Returns the address of the current owner."
      },
      "renounceOwnership()": {
        "details": "Leaves the contract without owner. It will not be possible to call `onlyOwner` functions anymore. Can only be called by the current owner. NOTE: Renouncing ownership will leave the contract without an owner, thereby removing any functionality that is only available to the owner."
      },
      "transferOwnership(address)": {
        "details": "Transfers ownership of the contract to a new account (`newOwner`). Can only be called by the current owner."
      }
    },
    "version": 1
  },
  "userdoc": {
    "kind": "user",
    "methods": {},
    "version": 1
  }
}