{
  "contractName": "GarbiswapTradeGRBWETH",
  "abi": [
    {
      "inputs": [
        {
          "internalType": "contract IERC20",
          "name": "_base",
          "type": "address"
        },
        {
          "internalType": "contract IERC20",
          "name": "_token",
          "type": "address"
        },
        {
          "internalType": "contract IGarbiTimeLock",
          "name": "_garbiTimeLockContract",
          "type": "address"
        },
        {
          "internalType": "contract IGarbiswapFeeMachine",
          "name": "_feeMachineContract",
          "type": "address"
        },
        {
          "internalType": "contract IGarbiswapWhitelist",
          "name": "_whitelistContract",
          "type": "address"
        },
        {
          "internalType": "string",
          "name": "name",
          "type": "string"
        },
        {
          "internalType": "string",
          "name": "symbol",
          "type": "string"
        }
      ],
      "stateMutability": "nonpayable",
      "type": "constructor"
    },
    {
      "anonymous": false,
      "inputs": [
        {
          "indexed": true,
          "internalType": "address",
          "name": "owner",
          "type": "address"
        },
        {
          "indexed": true,
          "internalType": "address",
          "name": "spender",
          "type": "address"
        },
        {
          "indexed": false,
          "internalType": "uint256",
          "name": "value",
          "type": "uint256"
        }
      ],
      "name": "Approval",
      "type": "event"
    },
    {
      "anonymous": false,
      "inputs": [
        {
          "indexed": true,
          "internalType": "address",
          "name": "previousOwner",
          "type": "address"
        },
        {
          "indexed": true,
          "internalType": "address",
          "name": "newOwner",
          "type": "address"
        }
      ],
      "name": "OwnershipTransferred",
      "type": "event"
    },
    {
      "anonymous": false,
      "inputs": [
        {
          "indexed": true,
          "internalType": "address",
          "name": "from",
          "type": "address"
        },
        {
          "indexed": true,
          "internalType": "address",
          "name": "to",
          "type": "address"
        },
        {
          "indexed": false,
          "internalType": "uint256",
          "name": "value",
          "type": "uint256"
        }
      ],
      "name": "Transfer",
      "type": "event"
    },
    {
      "anonymous": false,
      "inputs": [
        {
          "indexed": false,
          "internalType": "address",
          "name": "sender",
          "type": "address"
        },
        {
          "indexed": false,
          "internalType": "uint256",
          "name": "mintLP",
          "type": "uint256"
        },
        {
          "indexed": false,
          "internalType": "uint256",
          "name": "baseInputAmount",
          "type": "uint256"
        },
        {
          "indexed": false,
          "internalType": "uint256",
          "name": "tokenInputAmount",
          "type": "uint256"
        },
        {
          "indexed": false,
          "internalType": "uint256",
          "name": "poolBaseBalance",
          "type": "uint256"
        },
        {
          "indexed": false,
          "internalType": "uint256",
          "name": "poolTokenBalance",
          "type": "uint256"
        }
      ],
      "name": "onAddLP",
      "type": "event"
    },
    {
      "anonymous": false,
      "inputs": [
        {
          "indexed": false,
          "internalType": "address",
          "name": "sender",
          "type": "address"
        },
        {
          "indexed": false,
          "internalType": "uint256",
          "name": "amountLP",
          "type": "uint256"
        },
        {
          "indexed": false,
          "internalType": "uint256",
          "name": "baseOutputAmout",
          "type": "uint256"
        },
        {
          "indexed": false,
          "internalType": "uint256",
          "name": "tokenOutputAmount",
          "type": "uint256"
        },
        {
          "indexed": false,
          "internalType": "uint256",
          "name": "poolBaseBalance",
          "type": "uint256"
        },
        {
          "indexed": false,
          "internalType": "uint256",
          "name": "poolTokenBalance",
          "type": "uint256"
        }
      ],
      "name": "onRemoveLP",
      "type": "event"
    },
    {
      "anonymous": false,
      "inputs": [
        {
          "indexed": false,
          "internalType": "address",
          "name": "sender",
          "type": "address"
        },
        {
          "indexed": false,
          "internalType": "uint256",
          "name": "minTokenOutput",
          "type": "uint256"
        },
        {
          "indexed": false,
          "internalType": "uint256",
          "name": "baseInputAmount",
          "type": "uint256"
        },
        {
          "indexed": false,
          "internalType": "uint256",
          "name": "tokenOutputAmount",
          "type": "uint256"
        },
        {
          "indexed": false,
          "internalType": "uint256",
          "name": "poolBaseBalance",
          "type": "uint256"
        },
        {
          "indexed": false,
          "internalType": "uint256",
          "name": "poolTokenBalance",
          "type": "uint256"
        }
      ],
      "name": "onSwapBaseToTokenWithBaseInput",
      "type": "event"
    },
    {
      "anonymous": false,
      "inputs": [
        {
          "indexed": false,
          "internalType": "address",
          "name": "sender",
          "type": "address"
        },
        {
          "indexed": false,
          "internalType": "uint256",
          "name": "maxBaseInput",
          "type": "uint256"
        },
        {
          "indexed": false,
          "internalType": "uint256",
          "name": "baseInputAmount",
          "type": "uint256"
        },
        {
          "indexed": false,
          "internalType": "uint256",
          "name": "tokenOutputAmount",
          "type": "uint256"
        },
        {
          "indexed": false,
          "internalType": "uint256",
          "name": "poolBaseBalance",
          "type": "uint256"
        },
        {
          "indexed": false,
          "internalType": "uint256",
          "name": "poolTokenBalance",
          "type": "uint256"
        }
      ],
      "name": "onSwapBaseToTokenWithTokenOutput",
      "type": "event"
    },
    {
      "anonymous": false,
      "inputs": [
        {
          "indexed": false,
          "internalType": "address",
          "name": "sender",
          "type": "address"
        },
        {
          "indexed": false,
          "internalType": "uint256",
          "name": "maxTokenInput",
          "type": "uint256"
        },
        {
          "indexed": false,
          "internalType": "uint256",
          "name": "tokenInputAmount",
          "type": "uint256"
        },
        {
          "indexed": false,
          "internalType": "uint256",
          "name": "baseOutputAmount",
          "type": "uint256"
        },
        {
          "indexed": false,
          "internalType": "uint256",
          "name": "poolBaseBalance",
          "type": "uint256"
        },
        {
          "indexed": false,
          "internalType": "uint256",
          "name": "poolTokenBalance",
          "type": "uint256"
        }
      ],
      "name": "onSwapTokenToBaseWithBaseOutput",
      "type": "event"
    },
    {
      "anonymous": false,
      "inputs": [
        {
          "indexed": false,
          "internalType": "address",
          "name": "sender",
          "type": "address"
        },
        {
          "indexed": false,
          "internalType": "uint256",
          "name": "minBaseOutput",
          "type": "uint256"
        },
        {
          "indexed": false,
          "internalType": "uint256",
          "name": "tokenInputAmount",
          "type": "uint256"
        },
        {
          "indexed": false,
          "internalType": "uint256",
          "name": "baseOutputAmount",
          "type": "uint256"
        },
        {
          "indexed": false,
          "internalType": "uint256",
          "name": "poolBaseBalance",
          "type": "uint256"
        },
        {
          "indexed": false,
          "internalType": "uint256",
          "name": "poolTokenBalance",
          "type": "uint256"
        }
      ],
      "name": "onSwapTokenToBaseWithTokenInput",
      "type": "event"
    },
    {
      "inputs": [],
      "name": "PLATFORM_FEE",
      "outputs": [
        {
          "internalType": "uint256",
          "name": "",
          "type": "uint256"
        }
      ],
      "stateMutability": "view",
      "type": "function"
    },
    {
      "inputs": [],
      "name": "TRADE_FEE",
      "outputs": [
        {
          "internalType": "uint256",
          "name": "",
          "type": "uint256"
        }
      ],
      "stateMutability": "view",
      "type": "function"
    },
    {
      "inputs": [
        {
          "internalType": "address",
          "name": "owner",
          "type": "address"
        },
        {
          "internalType": "address",
          "name": "spender",
          "type": "address"
        }
      ],
      "name": "allowance",
      "outputs": [
        {
          "internalType": "uint256",
          "name": "",
          "type": "uint256"
        }
      ],
      "stateMutability": "view",
      "type": "function"
    },
    {
      "inputs": [
        {
          "internalType": "address",
          "name": "spender",
          "type": "address"
        },
        {
          "internalType": "uint256",
          "name": "amount",
          "type": "uint256"
        }
      ],
      "name": "approve",
      "outputs": [
        {
          "internalType": "bool",
          "name": "",
          "type": "bool"
        }
      ],
      "stateMutability": "nonpayable",
      "type": "function"
    },
    {
      "inputs": [
        {
          "internalType": "address",
          "name": "account",
          "type": "address"
        }
      ],
      "name": "balanceOf",
      "outputs": [
        {
          "internalType": "uint256",
          "name": "",
          "type": "uint256"
        }
      ],
      "stateMutability": "view",
      "type": "function"
    },
    {
      "inputs": [],
      "name": "base",
      "outputs": [
        {
          "internalType": "contract IERC20",
          "name": "",
          "type": "address"
        }
      ],
      "stateMutability": "view",
      "type": "function"
    },
    {
      "inputs": [
        {
          "internalType": "uint256",
          "name": "amount",
          "type": "uint256"
        }
      ],
      "name": "burn",
      "outputs": [],
      "stateMutability": "nonpayable",
      "type": "function"
    },
    {
      "inputs": [
        {
          "internalType": "address",
          "name": "account",
          "type": "address"
        },
        {
          "internalType": "uint256",
          "name": "amount",
          "type": "uint256"
        }
      ],
      "name": "burnFrom",
      "outputs": [],
      "stateMutability": "nonpayable",
      "type": "function"
    },
    {
      "inputs": [],
      "name": "decimals",
      "outputs": [
        {
          "internalType": "uint8",
          "name": "",
          "type": "uint8"
        }
      ],
      "stateMutability": "view",
      "type": "function"
    },
    {
      "inputs": [
        {
          "internalType": "address",
          "name": "spender",
          "type": "address"
        },
        {
          "internalType": "uint256",
          "name": "subtractedValue",
          "type": "uint256"
        }
      ],
      "name": "decreaseAllowance",
      "outputs": [
        {
          "internalType": "bool",
          "name": "",
          "type": "bool"
        }
      ],
      "stateMutability": "nonpayable",
      "type": "function"
    },
    {
      "inputs": [],
      "name": "feeMachineContract",
      "outputs": [
        {
          "internalType": "contract IGarbiswapFeeMachine",
          "name": "",
          "type": "address"
        }
      ],
      "stateMutability": "view",
      "type": "function"
    },
    {
      "inputs": [],
      "name": "garbiTimeLockContract",
      "outputs": [
        {
          "internalType": "contract IGarbiTimeLock",
          "name": "",
          "type": "address"
        }
      ],
      "stateMutability": "view",
      "type": "function"
    },
    {
      "inputs": [
        {
          "internalType": "address",
          "name": "spender",
          "type": "address"
        },
        {
          "internalType": "uint256",
          "name": "addedValue",
          "type": "uint256"
        }
      ],
      "name": "increaseAllowance",
      "outputs": [
        {
          "internalType": "bool",
          "name": "",
          "type": "bool"
        }
      ],
      "stateMutability": "nonpayable",
      "type": "function"
    },
    {
      "inputs": [],
      "name": "name",
      "outputs": [
        {
          "internalType": "string",
          "name": "",
          "type": "string"
        }
      ],
      "stateMutability": "view",
      "type": "function"
    },
    {
      "inputs": [],
      "name": "owner",
      "outputs": [
        {
          "internalType": "address",
          "name": "",
          "type": "address"
        }
      ],
      "stateMutability": "view",
      "type": "function"
    },
    {
      "inputs": [],
      "name": "platformFundAddress",
      "outputs": [
        {
          "internalType": "address",
          "name": "",
          "type": "address"
        }
      ],
      "stateMutability": "view",
      "type": "function"
    },
    {
      "inputs": [],
      "name": "renounceOwnership",
      "outputs": [],
      "stateMutability": "nonpayable",
      "type": "function"
    },
    {
      "inputs": [],
      "name": "symbol",
      "outputs": [
        {
          "internalType": "string",
          "name": "",
          "type": "string"
        }
      ],
      "stateMutability": "view",
      "type": "function"
    },
    {
      "inputs": [],
      "name": "token",
      "outputs": [
        {
          "internalType": "contract IERC20",
          "name": "",
          "type": "address"
        }
      ],
      "stateMutability": "view",
      "type": "function"
    },
    {
      "inputs": [],
      "name": "totalSupply",
      "outputs": [
        {
          "internalType": "uint256",
          "name": "",
          "type": "uint256"
        }
      ],
      "stateMutability": "view",
      "type": "function"
    },
    {
      "inputs": [
        {
          "internalType": "address",
          "name": "to",
          "type": "address"
        },
        {
          "internalType": "uint256",
          "name": "amount",
          "type": "uint256"
        }
      ],
      "name": "transfer",
      "outputs": [
        {
          "internalType": "bool",
          "name": "",
          "type": "bool"
        }
      ],
      "stateMutability": "nonpayable",
      "type": "function"
    },
    {
      "inputs": [
        {
          "internalType": "address",
          "name": "from",
          "type": "address"
        },
        {
          "internalType": "address",
          "name": "to",
          "type": "address"
        },
        {
          "internalType": "uint256",
          "name": "amount",
          "type": "uint256"
        }
      ],
      "name": "transferFrom",
      "outputs": [
        {
          "internalType": "bool",
          "name": "",
          "type": "bool"
        }
      ],
      "stateMutability": "nonpayable",
      "type": "function"
    },
    {
      "inputs": [
        {
          "internalType": "address",
          "name": "newOwner",
          "type": "address"
        }
      ],
      "name": "transferOwnership",
      "outputs": [],
      "stateMutability": "nonpayable",
      "type": "function"
    },
    {
      "inputs": [],
      "name": "whitelistContract",
      "outputs": [
        {
          "internalType": "contract IGarbiswapWhitelist",
          "name": "",
          "type": "address"
        }
      ],
      "stateMutability": "view",
      "type": "function"
    },
    {
      "inputs": [],
      "name": "setWhitelistContract",
      "outputs": [],
      "stateMutability": "nonpayable",
      "type": "function"
    },
    {
      "inputs": [],
      "name": "setFeeMachineContract",
      "outputs": [],
      "stateMutability": "nonpayable",
      "type": "function"
    },
    {
      "inputs": [],
      "name": "setTradeFee",
      "outputs": [],
      "stateMutability": "nonpayable",
      "type": "function"
    },
    {
      "inputs": [],
      "name": "setPlatformFee",
      "outputs": [],
      "stateMutability": "nonpayable",
      "type": "function"
    },
    {
      "inputs": [
        {
          "internalType": "address",
          "name": "newAddress",
          "type": "address"
        }
      ],
      "name": "setPlatformFundAdress",
      "outputs": [],
      "stateMutability": "nonpayable",
      "type": "function"
    },
    {
      "inputs": [],
      "name": "getK",
      "outputs": [
        {
          "internalType": "uint256",
          "name": "",
          "type": "uint256"
        }
      ],
      "stateMutability": "view",
      "type": "function"
    },
    {
      "inputs": [
        {
          "internalType": "uint256",
          "name": "baseInputAmount",
          "type": "uint256"
        }
      ],
      "name": "getTokenOutput",
      "outputs": [
        {
          "internalType": "uint256",
          "name": "",
          "type": "uint256"
        }
      ],
      "stateMutability": "view",
      "type": "function"
    },
    {
      "inputs": [
        {
          "internalType": "uint256",
          "name": "tokenInputAmount",
          "type": "uint256"
        }
      ],
      "name": "getBaseOutput",
      "outputs": [
        {
          "internalType": "uint256",
          "name": "",
          "type": "uint256"
        }
      ],
      "stateMutability": "view",
      "type": "function"
    },
    {
      "inputs": [
        {
          "internalType": "uint256",
          "name": "baseInputAmount",
          "type": "uint256"
        }
      ],
      "name": "getDataFromBaseInputToAddLp",
      "outputs": [
        {
          "internalType": "uint256",
          "name": "",
          "type": "uint256"
        },
        {
          "internalType": "uint256",
          "name": "",
          "type": "uint256"
        }
      ],
      "stateMutability": "view",
      "type": "function"
    },
    {
      "inputs": [
        {
          "internalType": "uint256",
          "name": "tokenInputAmount",
          "type": "uint256"
        }
      ],
      "name": "getDataFromTokenInputToAddLp",
      "outputs": [
        {
          "internalType": "uint256",
          "name": "",
          "type": "uint256"
        },
        {
          "internalType": "uint256",
          "name": "",
          "type": "uint256"
        }
      ],
      "stateMutability": "view",
      "type": "function"
    },
    {
      "inputs": [
        {
          "internalType": "uint256",
          "name": "amountLP",
          "type": "uint256"
        }
      ],
      "name": "getDataToRemoveLP",
      "outputs": [
        {
          "internalType": "uint256",
          "name": "",
          "type": "uint256"
        },
        {
          "internalType": "uint256",
          "name": "",
          "type": "uint256"
        }
      ],
      "stateMutability": "view",
      "type": "function"
    },
    {
      "inputs": [
        {
          "internalType": "uint256",
          "name": "baseInputAmount",
          "type": "uint256"
        },
        {
          "internalType": "uint256",
          "name": "baseReserve",
          "type": "uint256"
        },
        {
          "internalType": "uint256",
          "name": "tokenReserve",
          "type": "uint256"
        }
      ],
      "name": "getTokenOutputAmountFromBaseInput",
      "outputs": [
        {
          "internalType": "uint256",
          "name": "",
          "type": "uint256"
        }
      ],
      "stateMutability": "pure",
      "type": "function"
    },
    {
      "inputs": [
        {
          "internalType": "uint256",
          "name": "tokenOutputAmount",
          "type": "uint256"
        },
        {
          "internalType": "uint256",
          "name": "baseReserve",
          "type": "uint256"
        },
        {
          "internalType": "uint256",
          "name": "tokenReserve",
          "type": "uint256"
        }
      ],
      "name": "getBaseInputAmountFromTokenOutput",
      "outputs": [
        {
          "internalType": "uint256",
          "name": "",
          "type": "uint256"
        }
      ],
      "stateMutability": "pure",
      "type": "function"
    },
    {
      "inputs": [
        {
          "internalType": "uint256",
          "name": "tokenInputAmount",
          "type": "uint256"
        },
        {
          "internalType": "uint256",
          "name": "baseReserve",
          "type": "uint256"
        },
        {
          "internalType": "uint256",
          "name": "tokenReserve",
          "type": "uint256"
        }
      ],
      "name": "getBaseOutputAmountFromTokenInput",
      "outputs": [
        {
          "internalType": "uint256",
          "name": "",
          "type": "uint256"
        }
      ],
      "stateMutability": "pure",
      "type": "function"
    },
    {
      "inputs": [
        {
          "internalType": "uint256",
          "name": "baseOutputAmount",
          "type": "uint256"
        },
        {
          "internalType": "uint256",
          "name": "baseReserve",
          "type": "uint256"
        },
        {
          "internalType": "uint256",
          "name": "tokenReserve",
          "type": "uint256"
        }
      ],
      "name": "getTokenInputAmountFromBaseOutput",
      "outputs": [
        {
          "internalType": "uint256",
          "name": "",
          "type": "uint256"
        }
      ],
      "stateMutability": "pure",
      "type": "function"
    },
    {
      "inputs": [
        {
          "internalType": "uint256",
          "name": "baseInputAmount",
          "type": "uint256"
        },
        {
          "internalType": "uint256",
          "name": "minTokenOutput",
          "type": "uint256"
        },
        {
          "internalType": "uint256",
          "name": "deadline",
          "type": "uint256"
        }
      ],
      "name": "swapBaseToTokenWithBaseInput",
      "outputs": [],
      "stateMutability": "nonpayable",
      "type": "function"
    },
    {
      "inputs": [
        {
          "internalType": "uint256",
          "name": "maxBaseInput",
          "type": "uint256"
        },
        {
          "internalType": "uint256",
          "name": "tokenOutputAmount",
          "type": "uint256"
        },
        {
          "internalType": "uint256",
          "name": "deadline",
          "type": "uint256"
        }
      ],
      "name": "swapBaseToTokenWithTokenOutput",
      "outputs": [],
      "stateMutability": "nonpayable",
      "type": "function"
    },
    {
      "inputs": [
        {
          "internalType": "uint256",
          "name": "tokenInputAmount",
          "type": "uint256"
        },
        {
          "internalType": "uint256",
          "name": "minBaseOutput",
          "type": "uint256"
        },
        {
          "internalType": "uint256",
          "name": "deadline",
          "type": "uint256"
        }
      ],
      "name": "swapTokenToBaseWithTokenInput",
      "outputs": [],
      "stateMutability": "nonpayable",
      "type": "function"
    },
    {
      "inputs": [
        {
          "internalType": "uint256",
          "name": "maxTokenInput",
          "type": "uint256"
        },
        {
          "internalType": "uint256",
          "name": "baseOutputAmount",
          "type": "uint256"
        },
        {
          "internalType": "uint256",
          "name": "deadline",
          "type": "uint256"
        }
      ],
      "name": "swapTokenToBaseWithBaseOutput",
      "outputs": [],
      "stateMutability": "nonpayable",
      "type": "function"
    },
    {
      "inputs": [
        {
          "internalType": "uint256",
          "name": "minLP",
          "type": "uint256"
        },
        {
          "internalType": "uint256",
          "name": "baseInputAmount",
          "type": "uint256"
        },
        {
          "internalType": "uint256",
          "name": "maxTokenInputAmount",
          "type": "uint256"
        },
        {
          "internalType": "uint256",
          "name": "deadline",
          "type": "uint256"
        }
      ],
      "name": "addLP",
      "outputs": [
        {
          "internalType": "uint256",
          "name": "",
          "type": "uint256"
        }
      ],
      "stateMutability": "nonpayable",
      "type": "function"
    },
    {
      "inputs": [
        {
          "internalType": "uint256",
          "name": "amountLP",
          "type": "uint256"
        },
        {
          "internalType": "uint256",
          "name": "minBaseOutput",
          "type": "uint256"
        },
        {
          "internalType": "uint256",
          "name": "minTokenOutput",
          "type": "uint256"
        },
        {
          "internalType": "uint256",
          "name": "deadline",
          "type": "uint256"
        }
      ],
      "name": "removeLP",
      "outputs": [
        {
          "internalType": "uint256",
          "name": "",
          "type": "uint256"
        },
        {
          "internalType": "uint256",
          "name": "",
          "type": "uint256"
        }
      ],
      "stateMutability": "nonpayable",
      "type": "function"
    },
    {
      "inputs": [],
      "name": "getTotalReserve",
      "outputs": [
        {
          "internalType": "uint256",
          "name": "",
          "type": "uint256"
        },
        {
          "internalType": "uint256",
          "name": "",
          "type": "uint256"
        }
      ],
      "stateMutability": "view",
      "type": "function"
    }
  ],
  "bytecode": "0x60806040526002600b556019600c553480156200001b57600080fd5b5060405162004cab38038062004cab8339810160408190526200003e916200023a565b818160036200004e83826200039f565b5060046200005d82826200039f565b5050506200007a620000746200010660201b60201c565b6200010a565b600680546001600160a01b03199081166001600160a01b038a811691909117909255600780548216898416179055600a8054821688841617905560098054821686841617905560088054909116918616919091179055620000d83390565b600d80546001600160a01b0319166001600160a01b0392909216919091179055506200046b95505050505050565b3390565b600580546001600160a01b038381166001600160a01b0319831681179093556040519116919082907f8be0079c531659141344cd1fd0a4f28419497f9722a3daafe3b4186f6b6457e090600090a35050565b6001600160a01b03811681146200017257600080fd5b50565b634e487b7160e01b600052604160045260246000fd5b600082601f8301126200019d57600080fd5b81516001600160401b0380821115620001ba57620001ba62000175565b604051601f8301601f19908116603f01168101908282118183101715620001e557620001e562000175565b816040528381526020925086838588010111156200020257600080fd5b600091505b8382101562000226578582018301518183018401529082019062000207565b600093810190920192909252949350505050565b600080600080600080600060e0888a0312156200025657600080fd5b875162000263816200015c565b602089015190975062000276816200015c565b604089015190965062000289816200015c565b60608901519095506200029c816200015c565b6080890151909450620002af816200015c565b60a08901519093506001600160401b0380821115620002cd57600080fd5b620002db8b838c016200018b565b935060c08a0151915080821115620002f257600080fd5b50620003018a828b016200018b565b91505092959891949750929550565b600181811c908216806200032557607f821691505b6020821081036200034657634e487b7160e01b600052602260045260246000fd5b50919050565b601f8211156200039a57600081815260208120601f850160051c81016020861015620003755750805b601f850160051c820191505b81811015620003965782815560010162000381565b5050505b505050565b81516001600160401b03811115620003bb57620003bb62000175565b620003d381620003cc845462000310565b846200034c565b602080601f8311600181146200040b5760008415620003f25750858301515b600019600386901b1c1916600185901b17855562000396565b600085815260208120601f198616915b828110156200043c578886015182559484019460019091019084016200041b565b50858210156200045b5787850151600019600388901b60f8161c191681555b5050505050600190811b01905550565b614830806200047b6000396000f3fe608060405234801561001057600080fd5b506004361061028a5760003560e01c806376125deb1161015c578063b7c3ba45116100ce578063e50a38d711610087578063e50a38d714610599578063ead915e3146105ac578063ec022918146105b4578063ee39e7a0146105bc578063f2fde38b146105c4578063fc0c546a146105d757600080fd5b8063b7c3ba4514610531578063c6e842fc14610544578063d0e9de6c14610557578063d13229621461056a578063dbcfbf2f14610573578063dd62ed3e1461058657600080fd5b806395d89b411161012057806395d89b41146104d557806397bb21c6146104dd5780639fa5e63e146104f0578063a457c2d714610503578063a9059cbb14610516578063ac7343bd1461052957600080fd5b806376125deb1461047857806379cc67901461048b57806384900b041461049e5780638da5cb5b146104b15780638fe6041d146104c257600080fd5b80633950935111610200578063635f95ff116101b9578063635f95ff146103e65780636662d177146103f957806370a0823114610421578063711f61421461044a578063715018a61461045d57806373dd25a31461046557600080fd5b8063395093511461037f57806342966c681461039257806342eba2ce146103a557806344dca562146103b85780635001f3b5146103c057806360b1765c146103d357600080fd5b80631279732c116102525780631279732c1461033157806318160ddd1461033957806323b872dd146103415780632916bc1014610354578063313ce5671461036757806334fbc9a11461037657600080fd5b806303bf04c11461028f57806306fdde03146102a4578063095ea7b3146102c257806310a57f3a146102e557806311fbded314610310575b600080fd5b6102a261029d366004613ef2565b6105ea565b005b6102ac610b61565b6040516102b99190613f1e565b60405180910390f35b6102d56102d0366004613f81565b610bf3565b60405190151581526020016102b9565b600a546102f8906001600160a01b031681565b6040516001600160a01b0390911681526020016102b9565b61032361031e366004613fad565b610c0d565b6040519081526020016102b9565b6102a2610c5f565b600254610323565b6102d561034f366004613fc6565b610e32565b610323610362366004613ef2565b610e56565b604051601281526020016102b9565b610323600c5481565b6102d561038d366004613f81565b610eb5565b6102a26103a0366004613fad565b610ed7565b6008546102f8906001600160a01b031681565b6102a2610ee4565b6006546102f8906001600160a01b031681565b6103236103e1366004614007565b611082565b6103236103f4366004613fad565b611857565b61040c610407366004613fad565b61189e565b604080519283526020830191909152016102b9565b61032361042f366004614039565b6001600160a01b031660009081526020819052604090205490565b61040c610458366004613fad565b611932565b6102a26119e7565b6102a2610473366004613ef2565b6119fb565b61040c610486366004614007565b611f46565b6102a2610499366004613f81565b61264a565b6009546102f8906001600160a01b031681565b6005546001600160a01b03166102f8565b6102a26104d0366004614039565b612663565b6102ac61268d565b6103236104eb366004613ef2565b61269c565b600d546102f8906001600160a01b031681565b6102d5610511366004613f81565b6126f5565b6102d5610524366004613f81565b612770565b6102a261277e565b61032361053f366004613ef2565b612977565b61040c610552366004613fad565b6129d0565b6102a2610565366004613ef2565b612a53565b610323600b5481565b610323610581366004613ef2565b612f8d565b610323610594366004614056565b612fec565b6102a26105a7366004613ef2565b613017565b6102a2613569565b61040c613762565b610323613850565b6102a26105d2366004614039565b61386d565b6007546102f8906001600160a01b031681565b33321461068757600954604051636c9b2a3f60e11b81523360048201526001600160a01b039091169063d936547e90602401602060405180830381865afa158015610639573d6000803e3d6000fd5b505050506040513d601f19601f8201168201806040525081019061065d919061408f565b15156001146106875760405162461bcd60e51b815260040161067e906140b1565b60405180910390fd5b428110156106a75760405162461bcd60e51b815260040161067e906140dc565b600082116106f15760405162461bcd60e51b81526020600482015260176024820152761253959053125117d3525397d09054d157d3d555141555604a1b604482015260640161067e565b600083116107115760405162461bcd60e51b815260040161067e90614106565b6007546040516370a0823160e01b81523360048201526001600160a01b03909116906370a0823190602401602060405180830381865afa158015610759573d6000803e3d6000fd5b505050506040513d601f19601f8201168201806040525081019061077d9190614133565b8311156107cc5760405162461bcd60e51b815260206004820152601f60248201527f544f4b454e5f494e5055545f4849474845525f555345525f42414c414e434500604482015260640161067e565b6000806107d7613762565b909250905081841061083c5760405162461bcd60e51b815260206004820152602860248201527f4d494e5f424153455f4f55545055545f4849474845525f504f4f4c5f424153456044820152675f42414c414e434560c01b606482015260840161067e565b600061085f6103e8610859600b54896138e390919063ffffffff16565b906138f6565b9050600061086d8783613902565b9050600061087c828686612f8d565b90508681101561089e5760405162461bcd60e51b815260040161067e9061414c565b8481106108bd5760405162461bcd60e51b815260040161067e90614178565b6006546040516370a0823160e01b81523060048201526001600160a01b03909116906370a0823190602401602060405180830381865afa158015610905573d6000803e3d6000fd5b505050506040513d601f19601f820116820180604052508101906109299190614133565b81106109475760405162461bcd60e51b815260040161067e906141bc565b6007546040516323b872dd60e01b81526001600160a01b03909116906323b872dd9061097b90339030908d90600401614204565b6020604051808303816000875af115801561099a573d6000803e3d6000fd5b505050506040513d601f19601f820116820180604052508101906109be919061408f565b5060065460405163a9059cbb60e01b81526001600160a01b039091169063a9059cbb906109f19033908590600401614228565b6020604051808303816000875af1158015610a10573d6000803e3d6000fd5b505050506040513d601f19601f82011682018060405250810190610a34919061408f565b5060075460085460405163a9059cbb60e01b81526001600160a01b039283169263a9059cbb92610a6b929116908790600401614228565b6020604051808303816000875af1158015610a8a573d6000803e3d6000fd5b505050506040513d601f19601f82011682018060405250810190610aae919061408f565b50600854600754604051632054895360e21b81526001600160a01b039182166004820152336024820152911690638152254c90604401600060405180830381600087803b158015610afe57600080fd5b505af1158015610b12573d6000803e3d6000fd5b505050507fb1b8c525a87e01fd3cda717635c4b24d56deba9f9d95c4f650c022bcd0bf8f5033888a848989604051610b4f96959493929190614241565b60405180910390a15050505050505050565b606060038054610b7090614274565b80601f0160208091040260200160405190810160405280929190818152602001828054610b9c90614274565b8015610be95780601f10610bbe57610100808354040283529160200191610be9565b820191906000526020600020905b815481529060010190602001808311610bcc57829003601f168201915b5050505050905090565b600033610c0181858561390e565b60019150505b92915050565b60008080610c19613762565b600b549193509150600090610c37906103e8906108599088906138e3565b90506000610c458683613902565b90506000610c54828686610e56565b979650505050505050565b610c67613a33565b600a5460405163109cc30b60e21b81526001600160a01b03909116906342730c2c90610c979030906004016142cc565b602060405180830381865afa158015610cb4573d6000803e3d6000fd5b505050506040513d601f19601f82011682018060405250810190610cd8919061408f565b610cf45760405162461bcd60e51b815260040161067e906142ef565b600a54604051636076dea560e11b81526000916001600160a01b03169063c0edbd4a90610d2590309060040161431b565b602060405180830381865afa158015610d42573d6000803e3d6000fd5b505050506040513d601f19601f82011682018060405250810190610d669190614133565b600b819055600a54604051636e977f0b60e01b81529192506001600160a01b031690636e977f0b90610d9d90600290600401614365565b600060405180830381600087803b158015610db757600080fd5b505af1158015610dcb573d6000803e3d6000fd5b5050600a546040516345503fcb60e11b81526001600160a01b039091169250638aa07f969150610dfd906004016143b0565b600060405180830381600087803b158015610e1757600080fd5b505af1158015610e2b573d6000803e3d6000fd5b5050505050565b600033610e40858285613a8d565b610e4b858585613b07565b506001949350505050565b60008083118015610e675750600082115b610e835760405162461bcd60e51b815260040161067e906143c2565b6000610e8f83856138e3565b90506000610e9d8587613cab565b90506000610c54610eae84846138f6565b8690613902565b600033610c01818585610ec88383612fec565b610ed291906143ff565b61390e565b610ee13382613cb7565b50565b610eec613a33565b600a5460405163109cc30b60e21b81526001600160a01b03909116906342730c2c90610f1c903090600401614433565b602060405180830381865afa158015610f39573d6000803e3d6000fd5b505050506040513d601f19601f82011682018060405250810190610f5d919061408f565b610f795760405162461bcd60e51b815260040161067e906142ef565b600a54604051636076dea560e11b81526000916001600160a01b03169063c0edbd4a90610faa903090600401614456565b602060405180830381865afa158015610fc7573d6000803e3d6000fd5b505050506040513d601f19601f82011682018060405250810190610feb9190614133565b600c819055600a54604051636e977f0b60e01b81529192506001600160a01b031690636e977f0b90611022906002906004016144a3565b600060405180830381600087803b15801561103c57600080fd5b505af1158015611050573d6000803e3d6000fd5b5050600a546040516345503fcb60e11b81526001600160a01b039091169250638aa07f969150610dfd906004016144df565b600033321461111857600954604051636c9b2a3f60e11b81523360048201526001600160a01b039091169063d936547e90602401602060405180830381865afa1580156110d3573d6000803e3d6000fd5b505050506040513d601f19601f820116820180604052508101906110f7919061408f565b15156001146111185760405162461bcd60e51b815260040161067e906140b1565b428210156111385760405162461bcd60e51b815260040161067e906140dc565b600085116111795760405162461bcd60e51b815260206004820152600e60248201526d0494e56414c49445f4d494e5f4c560941b604482015260640161067e565b600084116111995760405162461bcd60e51b815260040161067e906144f1565b600083116111e35760405162461bcd60e51b81526020600482015260176024820152761253959053125117d3505617d513d2d15397d253941555604a1b604482015260640161067e565b60006111ee60025490565b905080600003611416576006546040516323b872dd60e01b81526001600160a01b03909116906323b872dd9061122c90339030908a90600401614204565b6020604051808303816000875af115801561124b573d6000803e3d6000fd5b505050506040513d601f19601f8201168201806040525081019061126f919061408f565b506007546040516323b872dd60e01b81526001600160a01b03909116906323b872dd906112a490339030908990600401614204565b6020604051808303816000875af11580156112c3573d6000803e3d6000fd5b505050506040513d601f19601f820116820180604052508101906112e7919061408f565b50846112f33382613de1565b6006546040516370a0823160e01b81523060048201527f28e12afd967cc11b786f1b1547f5e0da96ccc91ebb09bdd406248111a634e7e591339184918a918a916001600160a01b0316906370a0823190602401602060405180830381865afa158015611363573d6000803e3d6000fd5b505050506040513d601f19601f820116820180604052508101906113879190614133565b6007546040516370a0823160e01b81523060048201526001600160a01b03909116906370a0823190602401602060405180830381865afa1580156113cf573d6000803e3d6000fd5b505050506040513d601f19601f820116820180604052508101906113f39190614133565b60405161140596959493929190614241565b60405180910390a1915061184f9050565b600080611421613762565b9092509050600061144a826114448561085961143d828e613cab565b87906138e3565b90613902565b905060006114696103e8610859600c548c6138e390919063ffffffff16565b905060006114886103e8610859600c54866138e390919063ffffffff16565b905060006114a48661085961149d8e87613902565b8a906138e3565b9050600084116114c65760405162461bcd60e51b815260040161067e90614106565b898411156114e65760405162461bcd60e51b815260040161067e90614106565b8b8110156115285760405162461bcd60e51b815260206004820152600f60248201526e0494e56414c49445f4d494e545f4c5608c1b604482015260640161067e565b600660009054906101000a90046001600160a01b03166001600160a01b03166323b872dd33308e6040518463ffffffff1660e01b815260040161156d93929190614204565b6020604051808303816000875af115801561158c573d6000803e3d6000fd5b505050506040513d601f19601f820116820180604052508101906115b0919061408f565b506007546040516323b872dd60e01b81526001600160a01b03909116906323b872dd906115e590339030908990600401614204565b6020604051808303816000875af1158015611604573d6000803e3d6000fd5b505050506040513d601f19601f82011682018060405250810190611628919061408f565b50600654600d5460405163a9059cbb60e01b81526001600160a01b039283169263a9059cbb9261165f929116908790600401614228565b6020604051808303816000875af115801561167e573d6000803e3d6000fd5b505050506040513d601f19601f820116820180604052508101906116a2919061408f565b50600754600d5460405163a9059cbb60e01b81526001600160a01b039283169263a9059cbb926116d9929116908690600401614228565b6020604051808303816000875af11580156116f8573d6000803e3d6000fd5b505050506040513d601f19601f8201168201806040525081019061171c919061408f565b506117273382613de1565b6006546040516370a0823160e01b81523060048201527f28e12afd967cc11b786f1b1547f5e0da96ccc91ebb09bdd406248111a634e7e591339184918f9189916001600160a01b0316906370a0823190602401602060405180830381865afa158015611797573d6000803e3d6000fd5b505050506040513d601f19601f820116820180604052508101906117bb9190614133565b6007546040516370a0823160e01b81523060048201526001600160a01b03909116906370a0823190602401602060405180830381865afa158015611803573d6000803e3d6000fd5b505050506040513d601f19601f820116820180604052508101906118279190614133565b60405161183996959493929190614241565b60405180910390a1965061184f95505050505050565b949350505050565b60008080611863613762565b600b549193509150600090611881906103e8906108599088906138e3565b9050600061188f8683613902565b90506000610c54828686612f8d565b60008060006118ac60025490565b9050600080826000036118c3575084905080611927565b6000806118ce613762565b90925090506118e8826114448361085961143d828e613cab565b925060006119076103e8610859600c54876138e390919063ffffffff16565b90506119218361085961191a8785613902565b89906138e3565b94505050505b909590945092505050565b600080600061194060025490565b90508084111561194e578093505b600080611959613762565b9092509050600061196e8461085989866138e3565b90506000611980856108598a866138e3565b9050600061199f6103e8610859600c54866138e390919063ffffffff16565b905060006119be6103e8610859600c54866138e390919063ffffffff16565b90506119ca8483613902565b93506119d68382613902565b939a93995092975050505050505050565b6119ef613a33565b6119f96000613ea0565b565b333214611a8f57600954604051636c9b2a3f60e11b81523360048201526001600160a01b039091169063d936547e90602401602060405180830381865afa158015611a4a573d6000803e3d6000fd5b505050506040513d601f19601f82011682018060405250810190611a6e919061408f565b1515600114611a8f5760405162461bcd60e51b815260040161067e906140b1565b42811015611aaf5760405162461bcd60e51b815260040161067e906140dc565b60008311611af95760405162461bcd60e51b81526020600482015260176024820152761253959053125117d3505617d513d2d15397d253941555604a1b604482015260640161067e565b60008211611b3f5760405162461bcd60e51b81526020600482015260136024820152721253959053125117d09054d157d3d555141555606a1b604482015260640161067e565b6006546040516370a0823160e01b81523060048201526001600160a01b03909116906370a0823190602401602060405180830381865afa158015611b87573d6000803e3d6000fd5b505050506040513d601f19601f82011682018060405250810190611bab9190614133565b8210611bc95760405162461bcd60e51b815260040161067e906141bc565b600080611bd4613762565b9092509050818410611bf85760405162461bcd60e51b815260040161067e90614178565b6000611c0585848461269c565b90506000611c246103e8610859600b54856138e390919063ffffffff16565b9050611c308282613cab565b915086821115611c525760405162461bcd60e51b815260040161067e9061414c565b60008211611c725760405162461bcd60e51b815260040161067e90614106565b6007546040516370a0823160e01b81523360048201526001600160a01b03909116906370a0823190602401602060405180830381865afa158015611cba573d6000803e3d6000fd5b505050506040513d601f19601f82011682018060405250810190611cde9190614133565b821115611d2d5760405162461bcd60e51b815260206004820152601f60248201527f544f4b454e5f494e5055545f4849474845525f555345525f42414c414e434500604482015260640161067e565b6007546040516323b872dd60e01b81526001600160a01b03909116906323b872dd90611d6190339030908790600401614204565b6020604051808303816000875af1158015611d80573d6000803e3d6000fd5b505050506040513d601f19601f82011682018060405250810190611da4919061408f565b5060065460405163a9059cbb60e01b81526001600160a01b039091169063a9059cbb90611dd79033908a90600401614228565b6020604051808303816000875af1158015611df6573d6000803e3d6000fd5b505050506040513d601f19601f82011682018060405250810190611e1a919061408f565b5060075460085460405163a9059cbb60e01b81526001600160a01b039283169263a9059cbb92611e51929116908590600401614228565b6020604051808303816000875af1158015611e70573d6000803e3d6000fd5b505050506040513d601f19601f82011682018060405250810190611e94919061408f565b50600854600754604051632054895360e21b81526001600160a01b039182166004820152336024820152911690638152254c90604401600060405180830381600087803b158015611ee457600080fd5b505af1158015611ef8573d6000803e3d6000fd5b505050507ff116a588cdba1b14c04ffd8bca7fee39286e7c8d9da59d77c036430e4b415dbc338884898888604051611f3596959493929190614241565b60405180910390a150505050505050565b600080333214611fdd57600954604051636c9b2a3f60e11b81523360048201526001600160a01b039091169063d936547e90602401602060405180830381865afa158015611f98573d6000803e3d6000fd5b505050506040513d601f19601f82011682018060405250810190611fbc919061408f565b1515600114611fdd5760405162461bcd60e51b815260040161067e906140b1565b42831015611ffd5760405162461bcd60e51b815260040161067e906140dc565b600086116120415760405162461bcd60e51b81526020600482015260116024820152700494e56414c49445f414d4f554e545f4c5607c1b604482015260640161067e565b6000851161208b5760405162461bcd60e51b81526020600482015260176024820152761253959053125117d3525397d09054d157d3d555141555604a1b604482015260640161067e565b600084116120d65760405162461bcd60e51b81526020600482015260186024820152771253959053125117d3525397d513d2d15397d3d55514155560421b604482015260640161067e565b60006120e160025490565b3360009081526020819052604090205490915080881115612100578097505b818811156121505760405162461bcd60e51b815260206004820152601e60248201527f494e56414c49445f414d4f554e545f4c505f544f54414c5f535550504c590000604482015260640161067e565b60008061215b613762565b90925090506000612170856108598d866138e3565b90506000612182866108598e866138e3565b905060006121a16103e8610859600c54866138e390919063ffffffff16565b905060006121c06103e8610859600c54866138e390919063ffffffff16565b90506121cc8483613902565b93506121d88382613902565b92508c8410156122205760405162461bcd60e51b81526020600482015260136024820152721253959053125117d09054d157d3d555141555606a1b604482015260640161067e565b8b8310156122675760405162461bcd60e51b81526020600482015260146024820152731253959053125117d513d2d15397d3d55514155560621b604482015260640161067e565b858411156122b75760405162461bcd60e51b815260206004820152601f60248201527f424153455f4f55545055545f4849474845525f424153455f42414c414e434500604482015260640161067e565b848311156123115760405162461bcd60e51b815260206004820152602160248201527f544f4b454e5f4f55545055545f4849474845525f544f4b454e5f42414c414e436044820152604560f81b606482015260840161067e565b61231b338f613cb7565b60065460405163a9059cbb60e01b81526001600160a01b039091169063a9059cbb9061234d9033908890600401614228565b6020604051808303816000875af115801561236c573d6000803e3d6000fd5b505050506040513d601f19601f82011682018060405250810190612390919061408f565b5060075460405163a9059cbb60e01b81526001600160a01b039091169063a9059cbb906123c39033908790600401614228565b6020604051808303816000875af11580156123e2573d6000803e3d6000fd5b505050506040513d601f19601f82011682018060405250810190612406919061408f565b50600654600d5460405163a9059cbb60e01b81526001600160a01b039283169263a9059cbb9261243d929116908690600401614228565b6020604051808303816000875af115801561245c573d6000803e3d6000fd5b505050506040513d601f19601f82011682018060405250810190612480919061408f565b50600754600d5460405163a9059cbb60e01b81526001600160a01b039283169263a9059cbb926124b7929116908590600401614228565b6020604051808303816000875af11580156124d6573d6000803e3d6000fd5b505050506040513d601f19601f820116820180604052508101906124fa919061408f565b507f555901717744791e9e27303c0df147d5a5eea5b7098591b2c5f2138ed6a605de338f8686600660009054906101000a90046001600160a01b03166001600160a01b03166370a08231306040518263ffffffff1660e01b815260040161257091906001600160a01b0391909116815260200190565b602060405180830381865afa15801561258d573d6000803e3d6000fd5b505050506040513d601f19601f820116820180604052508101906125b19190614133565b6007546040516370a0823160e01b81523060048201526001600160a01b03909116906370a0823190602401602060405180830381865afa1580156125f9573d6000803e3d6000fd5b505050506040513d601f19601f8201168201806040525081019061261d9190614133565b60405161262f96959493929190614241565b60405180910390a150919c909b509950505050505050505050565b612655823383613a8d565b61265f8282613cb7565b5050565b61266b613a33565b600d80546001600160a01b0319166001600160a01b0392909216919091179055565b606060048054610b7090614274565b600080831180156126ad5750600082115b6126c95760405162461bcd60e51b815260040161067e906143c2565b60006126d583856138e3565b905060006126e38587613902565b90506000610c548561144485856138f6565b600033816127038286612fec565b9050838110156127635760405162461bcd60e51b815260206004820152602560248201527f45524332303a2064656372656173656420616c6c6f77616e63652062656c6f77604482015264207a65726f60d81b606482015260840161067e565b610e4b828686840361390e565b600033610c01818585613b07565b612786613a33565b600a5460405163109cc30b60e21b81526001600160a01b03909116906342730c2c906127b6903090600401614544565b602060405180830381865afa1580156127d3573d6000803e3d6000fd5b505050506040513d601f19601f820116820180604052508101906127f7919061408f565b6128135760405162461bcd60e51b815260040161067e906142ef565b600a54604051636bfb078d60e01b81526000916001600160a01b031690636bfb078d90612844903090600401614567565b602060405180830381865afa158015612861573d6000803e3d6000fd5b505050506040513d601f19601f8201168201806040525081019061288591906145ba565b90506001600160a01b0381166128cf5760405162461bcd60e51b815260206004820152600f60248201526e494e56414c49445f4144445245535360881b604482015260640161067e565b600980546001600160a01b0319166001600160a01b0383811691909117909155600a54604051636e977f0b60e01b8152911690636e977f0b90612917906001906004016145d7565b600060405180830381600087803b15801561293157600080fd5b505af1158015612945573d6000803e3d6000fd5b5050600a546040516345503fcb60e11b81526001600160a01b039091169250638aa07f969150610dfd90600401614619565b600080831180156129885750600082115b6129a45760405162461bcd60e51b815260040161067e906143c2565b60006129b083856138e3565b905060006129be8487613902565b90506000610c548661144485856138f6565b60008060006129de60025490565b9050600080826000036129f5575084905080611927565b600080612a00613762565b9092509050612a218161144484610859612a1a828e613cab565b86906138e3565b92506000612a406103e8610859600c548c6138e390919063ffffffff16565b90506119218361085961191a8c85613902565b333214612ae757600954604051636c9b2a3f60e11b81523360048201526001600160a01b039091169063d936547e90602401602060405180830381865afa158015612aa2573d6000803e3d6000fd5b505050506040513d601f19601f82011682018060405250810190612ac6919061408f565b1515600114612ae75760405162461bcd60e51b815260040161067e906140b1565b42811015612b075760405162461bcd60e51b815260040161067e906140dc565b60008311612b505760405162461bcd60e51b81526020600482015260166024820152751253959053125117d3505617d09054d157d25394155560521b604482015260640161067e565b60008211612b975760405162461bcd60e51b81526020600482015260146024820152731253959053125117d513d2d15397d3d55514155560621b604482015260640161067e565b6007546040516370a0823160e01b81523060048201526001600160a01b03909116906370a0823190602401602060405180830381865afa158015612bdf573d6000803e3d6000fd5b505050506040513d601f19601f82011682018060405250810190612c039190614133565b8210612c215760405162461bcd60e51b815260040161067e9061462b565b600080612c2c613762565b9092509050808410612c505760405162461bcd60e51b815260040161067e90614674565b6000612c5d858484612977565b90506000612c7c6103e8610859600b54856138e390919063ffffffff16565b9050612c888282613cab565b915086821115612caa5760405162461bcd60e51b815260040161067e9061414c565b60008211612cca5760405162461bcd60e51b815260040161067e906144f1565b6006546040516370a0823160e01b81523360048201526001600160a01b03909116906370a0823190602401602060405180830381865afa158015612d12573d6000803e3d6000fd5b505050506040513d601f19601f82011682018060405250810190612d369190614133565b821115612d855760405162461bcd60e51b815260206004820152601e60248201527f424153455f494e5055545f4849474845525f555345525f42414c414e43450000604482015260640161067e565b6006546040516323b872dd60e01b81526001600160a01b03909116906323b872dd90612db990339030908790600401614204565b6020604051808303816000875af1158015612dd8573d6000803e3d6000fd5b505050506040513d601f19601f82011682018060405250810190612dfc919061408f565b5060075460405163a9059cbb60e01b81526001600160a01b039091169063a9059cbb90612e2f9033908a90600401614228565b6020604051808303816000875af1158015612e4e573d6000803e3d6000fd5b505050506040513d601f19601f82011682018060405250810190612e72919061408f565b5060065460085460405163a9059cbb60e01b81526001600160a01b039283169263a9059cbb92612ea9929116908590600401614228565b6020604051808303816000875af1158015612ec8573d6000803e3d6000fd5b505050506040513d601f19601f82011682018060405250810190612eec919061408f565b50600854600654604051632054895360e21b81526001600160a01b039182166004820152336024820152911690638152254c90604401600060405180830381600087803b158015612f3c57600080fd5b505af1158015612f50573d6000803e3d6000fd5b505050507f6e9d5a0202c67970b52b10deb68f1641a9408d90db857bc984d008c1be70383a338884898888604051611f3596959493929190614241565b60008083118015612f9e5750600082115b612fba5760405162461bcd60e51b815260040161067e906143c2565b6000612fc683856138e3565b90506000612fd48487613cab565b90506000610c54612fe584846138f6565b8790613902565b6001600160a01b03918216600090815260016020908152604080832093909416825291909152205490565b3332146130ab57600954604051636c9b2a3f60e11b81523360048201526001600160a01b039091169063d936547e90602401602060405180830381865afa158015613066573d6000803e3d6000fd5b505050506040513d601f19601f8201168201806040525081019061308a919061408f565b15156001146130ab5760405162461bcd60e51b815260040161067e906140b1565b428110156130cb5760405162461bcd60e51b815260040161067e906140dc565b600083116130eb5760405162461bcd60e51b815260040161067e906144f1565b600082116131365760405162461bcd60e51b81526020600482015260186024820152771253959053125117d3525397d513d2d15397d3d55514155560421b604482015260640161067e565b6006546040516370a0823160e01b81523360048201526001600160a01b03909116906370a0823190602401602060405180830381865afa15801561317e573d6000803e3d6000fd5b505050506040513d601f19601f820116820180604052508101906131a29190614133565b8311156131f15760405162461bcd60e51b815260206004820152601e60248201527f424153455f494e5055545f4849474845525f555345525f42414c414e43450000604482015260640161067e565b6000806131fc613762565b909250905080841061325c5760405162461bcd60e51b815260206004820152602360248201527f4d494e5f544f4b454e5f4849474845525f504f4f4c5f544f4b454e5f42414c416044820152624e434560e81b606482015260840161067e565b60006132796103e8610859600b54896138e390919063ffffffff16565b905060006132878783613902565b90506000613296828686610e56565b9050868110156132b85760405162461bcd60e51b815260040161067e9061414c565b8381106132d75760405162461bcd60e51b815260040161067e90614674565b6007546040516370a0823160e01b81523060048201526001600160a01b03909116906370a0823190602401602060405180830381865afa15801561331f573d6000803e3d6000fd5b505050506040513d601f19601f820116820180604052508101906133439190614133565b81106133615760405162461bcd60e51b815260040161067e9061462b565b6006546040516323b872dd60e01b81526001600160a01b03909116906323b872dd9061339590339030908d90600401614204565b6020604051808303816000875af11580156133b4573d6000803e3d6000fd5b505050506040513d601f19601f820116820180604052508101906133d8919061408f565b5060075460405163a9059cbb60e01b81526001600160a01b039091169063a9059cbb9061340b9033908590600401614228565b6020604051808303816000875af115801561342a573d6000803e3d6000fd5b505050506040513d601f19601f8201168201806040525081019061344e919061408f565b5060065460085460405163a9059cbb60e01b81526001600160a01b039283169263a9059cbb92613485929116908790600401614228565b6020604051808303816000875af11580156134a4573d6000803e3d6000fd5b505050506040513d601f19601f820116820180604052508101906134c8919061408f565b50600854600654604051632054895360e21b81526001600160a01b039182166004820152336024820152911690638152254c90604401600060405180830381600087803b15801561351857600080fd5b505af115801561352c573d6000803e3d6000fd5b505050507fd294be030e23d0862312f418541ec01d571908715169f1cb1109bba3212b8c2d33888a848989604051610b4f96959493929190614241565b613571613a33565b600a5460405163109cc30b60e21b81526001600160a01b03909116906342730c2c906135a19030906004016146e2565b602060405180830381865afa1580156135be573d6000803e3d6000fd5b505050506040513d601f19601f820116820180604052508101906135e2919061408f565b6135fe5760405162461bcd60e51b815260040161067e906142ef565b600a54604051636bfb078d60e01b81526000916001600160a01b031690636bfb078d9061362f903090600401614705565b602060405180830381865afa15801561364c573d6000803e3d6000fd5b505050506040513d601f19601f8201168201806040525081019061367091906145ba565b90506001600160a01b0381166136ba5760405162461bcd60e51b815260206004820152600f60248201526e494e56414c49445f4144445245535360881b604482015260640161067e565b600880546001600160a01b0319166001600160a01b0383811691909117909155600a54604051636e977f0b60e01b8152911690636e977f0b9061370290600190600401614759565b600060405180830381600087803b15801561371c57600080fd5b505af1158015613730573d6000803e3d6000fd5b5050600a546040516345503fcb60e11b81526001600160a01b039091169250638aa07f969150610dfd9060040161479c565b6006546040516370a0823160e01b8152306004820152600091829182916001600160a01b0316906370a0823190602401602060405180830381865afa1580156137af573d6000803e3d6000fd5b505050506040513d601f19601f820116820180604052508101906137d39190614133565b6007546040516370a0823160e01b81523060048201529192506000916001600160a01b03909116906370a0823190602401602060405180830381865afa158015613821573d6000803e3d6000fd5b505050506040513d601f19601f820116820180604052508101906138459190614133565b919491935090915050565b6000808061385c613762565b9092509050600061184f82846138e3565b613875613a33565b6001600160a01b0381166138da5760405162461bcd60e51b815260206004820152602660248201527f4f776e61626c653a206e6577206f776e657220697320746865207a65726f206160448201526564647265737360d01b606482015260840161067e565b610ee181613ea0565b60006138ef82846147ae565b9392505050565b60006138ef82846147c5565b60006138ef82846147e7565b6001600160a01b0383166139705760405162461bcd60e51b8152602060048201526024808201527f45524332303a20617070726f76652066726f6d20746865207a65726f206164646044820152637265737360e01b606482015260840161067e565b6001600160a01b0382166139d15760405162461bcd60e51b815260206004820152602260248201527f45524332303a20617070726f766520746f20746865207a65726f206164647265604482015261737360f01b606482015260840161067e565b6001600160a01b0383811660008181526001602090815260408083209487168084529482529182902085905590518481527f8c5be1e5ebec7d5bd14f71427d1e84f3dd0314c0f7b2291e5b200ac8c7c3b92591015b60405180910390a3505050565b6005546001600160a01b031633146119f95760405162461bcd60e51b815260206004820181905260248201527f4f776e61626c653a2063616c6c6572206973206e6f7420746865206f776e6572604482015260640161067e565b6000613a998484612fec565b90506000198114613b015781811015613af45760405162461bcd60e51b815260206004820152601d60248201527f45524332303a20696e73756666696369656e7420616c6c6f77616e6365000000604482015260640161067e565b613b01848484840361390e565b50505050565b6001600160a01b038316613b6b5760405162461bcd60e51b815260206004820152602560248201527f45524332303a207472616e736665722066726f6d20746865207a65726f206164604482015264647265737360d81b606482015260840161067e565b6001600160a01b038216613bcd5760405162461bcd60e51b815260206004820152602360248201527f45524332303a207472616e7366657220746f20746865207a65726f206164647260448201526265737360e81b606482015260840161067e565b6001600160a01b03831660009081526020819052604090205481811015613c455760405162461bcd60e51b815260206004820152602660248201527f45524332303a207472616e7366657220616d6f756e7420657863656564732062604482015265616c616e636560d01b606482015260840161067e565b6001600160a01b03848116600081815260208181526040808320878703905593871680835291849020805487019055925185815290927fddf252ad1be2c89b69c2b068fc378daa952ba7f163c4a11628f55a4df523b3ef910160405180910390a3613b01565b60006138ef82846143ff565b6001600160a01b038216613d175760405162461bcd60e51b815260206004820152602160248201527f45524332303a206275726e2066726f6d20746865207a65726f206164647265736044820152607360f81b606482015260840161067e565b6001600160a01b03821660009081526020819052604090205481811015613d8b5760405162461bcd60e51b815260206004820152602260248201527f45524332303a206275726e20616d6f756e7420657863656564732062616c616e604482015261636560f01b606482015260840161067e565b6001600160a01b0383166000818152602081815260408083208686039055600280548790039055518581529192917fddf252ad1be2c89b69c2b068fc378daa952ba7f163c4a11628f55a4df523b3ef9101613a26565b6001600160a01b038216613e375760405162461bcd60e51b815260206004820152601f60248201527f45524332303a206d696e7420746f20746865207a65726f206164647265737300604482015260640161067e565b8060026000828254613e4991906143ff565b90915550506001600160a01b038216600081815260208181526040808320805486019055518481527fddf252ad1be2c89b69c2b068fc378daa952ba7f163c4a11628f55a4df523b3ef910160405180910390a35050565b600580546001600160a01b038381166001600160a01b0319831681179093556040519116919082907f8be0079c531659141344cd1fd0a4f28419497f9722a3daafe3b4186f6b6457e090600090a35050565b600080600060608486031215613f0757600080fd5b505081359360208301359350604090920135919050565b600060208083528351808285015260005b81811015613f4b57858101830151858201604001528201613f2f565b506000604082860101526040601f19601f8301168501019250505092915050565b6001600160a01b0381168114610ee157600080fd5b60008060408385031215613f9457600080fd5b8235613f9f81613f6c565b946020939093013593505050565b600060208284031215613fbf57600080fd5b5035919050565b600080600060608486031215613fdb57600080fd5b8335613fe681613f6c565b92506020840135613ff681613f6c565b929592945050506040919091013590565b6000806000806080858703121561401d57600080fd5b5050823594602084013594506040840135936060013592509050565b60006020828403121561404b57600080fd5b81356138ef81613f6c565b6000806040838503121561406957600080fd5b823561407481613f6c565b9150602083013561408481613f6c565b809150509250929050565b6000602082840312156140a157600080fd5b815180151581146138ef57600080fd5b6020808252601190820152701253959053125117d5d2125511531254d5607a1b604082015260600190565b60208082526010908201526f494e56414c49445f444541444c494e4560801b604082015260600190565b6020808252601390820152721253959053125117d513d2d15397d253941555606a1b604082015260600190565b60006020828403121561414557600080fd5b5051919050565b60208082526012908201527143414e5f4e4f545f4d414b455f545241444560701b604082015260600190565b60208082526024908201527f424153455f4f55545055545f4849474845525f504f4f4c5f424153455f42414c604082015263414e434560e01b606082015260800190565b60208082526028908201527f424153455f4f55545055545f4849474845525f43555252454e545f54524144456040820152675f42414c414e434560c01b606082015260800190565b6001600160a01b039384168152919092166020820152604081019190915260600190565b6001600160a01b03929092168252602082015260400190565b6001600160a01b03969096168652602086019490945260408501929092526060840152608083015260a082015260c00190565b600181811c9082168061428857607f821691505b6020821081036142a857634e487b7160e01b600052602260045260246000fd5b50919050565b600b81526a736574547261646546656560a81b602082015260400190565b6001600160a01b03821681526040602082018190526000906138ef9083016142ae565b60208082526012908201527124a72b20a624a22fa822a926a4a9a9a4a7a760711b604082015260600190565b6001600160a01b038216815260606020820181905260009061433e9083016142ae565b828103604084015261184f816008815267747261646546656560c01b602082015260400190565b606081526000614377606083016142ae565b828103602084015261439e816008815267747261646546656560c01b602082015260400190565b91505060ff8316604083015292915050565b602081526000610c07602083016142ae565b6020808252600d908201526c494e56414c49445f56414c554560981b604082015260600190565b634e487b7160e01b600052601160045260246000fd5b80820180821115610c0757610c076143e9565b600e81526d736574506c6174666f726d46656560901b602082015260400190565b6001600160a01b03821681526040602082018190526000906138ef908301614412565b6001600160a01b0382168152606060208201819052600090614479908301614412565b828103604084015261184f81600b81526a706c6174666f726d46656560a81b602082015260400190565b6060815260006144b560608301614412565b828103602084015261439e81600b81526a706c6174666f726d46656560a81b602082015260400190565b602081526000610c0760208301614412565b6020808252601290820152711253959053125117d09054d157d25394155560721b604082015260600190565b60148152731cd95d15da1a5d195b1a5cdd10dbdb9d1c9858dd60621b602082015260400190565b6001600160a01b03821681526040602082018190526000906138ef90830161451d565b6001600160a01b038216815260606020820181905260009061458a90830161451d565b828103604084015261184f8160118152701dda1a5d195b1a5cdd10dbdb9d1c9858dd607a1b602082015260400190565b6000602082840312156145cc57600080fd5b81516138ef81613f6c565b6060815260006145e96060830161451d565b828103602084015261439e8160118152701dda1a5d195b1a5cdd10dbdb9d1c9858dd607a1b602082015260400190565b602081526000610c076020830161451d565b60208082526029908201527f544f4b454e5f4f55545055545f4849474845525f43555252454e545f54524144604082015268455f42414c414e434560b81b606082015260800190565b60208082526026908201527f544f4b454e5f4f55545055545f4849474845525f504f4f4c5f544f4b454e5f42604082015265414c414e434560d01b606082015260800190565b60158152741cd95d119959535858da1a5b9950dbdb9d1c9858dd605a1b602082015260400190565b6001600160a01b03821681526040602082018190526000906138ef9083016146ba565b6001600160a01b03821681526060602082018190526000906147289083016146ba565b828103604084015261184f816012815271199959535858da1a5b9950dbdb9d1c9858dd60721b602082015260400190565b60608152600061476b606083016146ba565b828103602084015261439e816012815271199959535858da1a5b9950dbdb9d1c9858dd60721b602082015260400190565b602081526000610c07602083016146ba565b8082028115828204841417610c0757610c076143e9565b6000826147e257634e487b7160e01b600052601260045260246000fd5b500490565b81810381811115610c0757610c076143e956fea2646970667358221220748cbf98ddf1606d5c6b882ca7552634816078ba4364afe3d6638b4030dd21c164736f6c63430008110033",
  "immutableReferences": {},
  "source": "// SPDX-License-Identifier: MIT\r\npragma solidity >=0.6.12;\r\n\r\nimport \"@openzeppelin/contracts/utils/math/SafeMath.sol\";\r\nimport \"@openzeppelin/contracts/token/ERC20/IERC20.sol\";\r\nimport \"@openzeppelin/contracts/token/ERC20/ERC20.sol\";\r\nimport \"@openzeppelin/contracts/token/ERC20/extensions/ERC20Burnable.sol\";\r\nimport \"@openzeppelin/contracts/utils/Context.sol\";\r\nimport \"@openzeppelin/contracts/access/Ownable.sol\";\r\n\r\nimport './interfaces/IGarbiswapFeeMachine.sol';\r\nimport './interfaces/IGarbiswapWhitelist.sol';\r\nimport './interfaces/IGarbiTimeLock.sol';\r\n\r\ncontract GarbiswapTradeGRBWETH is ERC20Burnable, Ownable {\r\n    \r\n    using SafeMath for uint256;\r\n\r\n    IERC20 public base; // Stable coin base token (WETH)\r\n    IERC20 public token; // Token to trade in this pair\r\n\r\n    // Fee Machine Contract.\r\n    IGarbiswapFeeMachine public feeMachineContract; \r\n\r\n    IGarbiswapWhitelist public whitelistContract; \r\n\r\n    IGarbiTimeLock public garbiTimeLockContract;\r\n\r\n    uint256 public TRADE_FEE = 2; //0.2% 2/1000\r\n\r\n    uint256 public PLATFORM_FEE = 25; //2.5% 25/1000\r\n\r\n    address public platformFundAddress;\r\n\r\n    modifier onlyWhitelist()\r\n    {\r\n        if (msg.sender != tx.origin) {\r\n            require(whitelistContract.whitelisted(msg.sender) == true, 'INVALID_WHITELIST');\r\n        }\r\n        _;\r\n    }\r\n\r\n    // Events\r\n\r\n    event onSwapBaseToTokenWithBaseInput(address sender, uint256 minTokenOutput, uint256 baseInputAmount, uint256 tokenOutputAmount, uint256 poolBaseBalance, uint256 poolTokenBalance);\r\n    event onSwapBaseToTokenWithTokenOutput(address sender, uint256 maxBaseInput, uint256 baseInputAmount, uint256 tokenOutputAmount, uint256 poolBaseBalance, uint256 poolTokenBalance);\r\n    \r\n    event onSwapTokenToBaseWithTokenInput(address sender, uint256 minBaseOutput, uint256 tokenInputAmount, uint256 baseOutputAmount, uint256 poolBaseBalance, uint256 poolTokenBalance);\r\n    event onSwapTokenToBaseWithBaseOutput(address sender, uint256 maxTokenInput, uint256 tokenInputAmount, uint256 baseOutputAmount, uint256 poolBaseBalance, uint256 poolTokenBalance);\r\n\r\n    event onAddLP(address sender, uint256 mintLP, uint256 baseInputAmount, uint256 tokenInputAmount, uint256 poolBaseBalance, uint256 poolTokenBalance);\r\n    event onRemoveLP(address sender, uint256 amountLP, uint256 baseOutputAmout, uint256 tokenOutputAmount, uint256 poolBaseBalance, uint256 poolTokenBalance);\r\n\r\n    constructor(\r\n        IERC20 _base,\r\n        IERC20 _token,\r\n        IGarbiTimeLock _garbiTimeLockContract,\r\n        IGarbiswapFeeMachine _feeMachineContract,\r\n        IGarbiswapWhitelist _whitelistContract,\r\n        string memory name, \r\n        string memory symbol\r\n        ) ERC20(name, symbol) {\r\n        base = _base;\r\n        token = _token;\r\n        garbiTimeLockContract = _garbiTimeLockContract;\r\n        whitelistContract = _whitelistContract;\r\n        feeMachineContract = _feeMachineContract;\r\n        platformFundAddress = _msgSender();\r\n    }\r\n\r\n    function setWhitelistContract() public onlyOwner {\r\n        require(garbiTimeLockContract.isQueuedTransaction(address(this), 'setWhitelistContract'), \"INVALID_PERMISSION\");\r\n\r\n        address _whitelistContract = garbiTimeLockContract.getAddressChangeOnTimeLock(address(this), 'setWhitelistContract', 'whitelistContract');\r\n\r\n        require(_whitelistContract != address(0), \"INVALID_ADDRESS\");\r\n\r\n        whitelistContract = IGarbiswapWhitelist(_whitelistContract);\r\n\r\n        garbiTimeLockContract.clearFieldValue('setWhitelistContract', 'whitelistContract', 1);\r\n        garbiTimeLockContract.doneTransactions('setWhitelistContract');\r\n    }\r\n\r\n    function setFeeMachineContract() public onlyOwner {\r\n\r\n        require(garbiTimeLockContract.isQueuedTransaction(address(this), 'setFeeMachineContract'), \"INVALID_PERMISSION\");\r\n\r\n        address _feeMachineContract = garbiTimeLockContract.getAddressChangeOnTimeLock(address(this), 'setFeeMachineContract', 'feeMachineContract');\r\n\r\n        require(_feeMachineContract != address(0), \"INVALID_ADDRESS\");\r\n\r\n        feeMachineContract = IGarbiswapFeeMachine(_feeMachineContract);\r\n\r\n        garbiTimeLockContract.clearFieldValue('setFeeMachineContract', 'feeMachineContract', 1);\r\n        garbiTimeLockContract.doneTransactions('setFeeMachineContract');\r\n    }\r\n\r\n    function setTradeFee() public onlyOwner {\r\n\r\n        require(garbiTimeLockContract.isQueuedTransaction(address(this), 'setTradeFee'), \"INVALID_PERMISSION\");\r\n\r\n        uint256 _tradeFee = garbiTimeLockContract.getUintChangeOnTimeLock(address(this), 'setTradeFee', 'tradeFee');\r\n\r\n        TRADE_FEE = _tradeFee;\r\n\r\n        garbiTimeLockContract.clearFieldValue('setTradeFee', 'tradeFee', 2);\r\n        garbiTimeLockContract.doneTransactions('setTradeFee');\r\n    }\r\n\r\n    function setPlatformFee() public onlyOwner {\r\n\r\n        require(garbiTimeLockContract.isQueuedTransaction(address(this), 'setPlatformFee'), \"INVALID_PERMISSION\");\r\n\r\n        uint256 _platformFee = garbiTimeLockContract.getUintChangeOnTimeLock(address(this), 'setPlatformFee', 'platformFee');\r\n\r\n        PLATFORM_FEE = _platformFee;\r\n\r\n        garbiTimeLockContract.clearFieldValue('setPlatformFee', 'platformFee', 2);\r\n        garbiTimeLockContract.doneTransactions('setPlatformFee');\r\n    }\r\n\r\n    function setPlatformFundAdress(address newAddress) public onlyOwner {\r\n        platformFundAddress = newAddress;\r\n    }\r\n\r\n    function getK() public view returns(uint256) {\r\n        uint256 baseReserve = 0;\r\n        uint256 tokenReserve = 0;\r\n        (baseReserve, tokenReserve) = getTotalReserve();\r\n        uint256 k = tokenReserve.mul(baseReserve);\r\n        return k;\r\n    }\r\n\r\n    function getTokenOutput(uint256 baseInputAmount) public view returns (uint256) {\r\n        uint256 baseReserve = 0;\r\n        uint256 tokenReserve = 0;\r\n        (baseReserve, tokenReserve) = getTotalReserve();\r\n\r\n        uint256 tradeFee = baseInputAmount.mul(TRADE_FEE).div(1000);\r\n        uint256 baseInputAmountAfterFee = baseInputAmount.sub(tradeFee); // cut the TRADE_FEE from base input\r\n\r\n        uint256 tokenOutputAmount = getTokenOutputAmountFromBaseInput(baseInputAmountAfterFee, baseReserve, tokenReserve);\r\n        return tokenOutputAmount;\r\n    }\r\n\r\n    function getBaseOutput(uint256 tokenInputAmount) public view returns (uint256) {\r\n        uint256 baseReserve = 0;\r\n        uint256 tokenReserve = 0;\r\n        (baseReserve, tokenReserve) = getTotalReserve();\r\n\r\n        uint256 tradeFee = tokenInputAmount.mul(TRADE_FEE).div(1000);\r\n        uint256 tokenInputAmountAfterFee = tokenInputAmount.sub(tradeFee); // cut the TRADE_FEE from token input\r\n\r\n        uint256 baseOutputAmount = getBaseOutputAmountFromTokenInput(tokenInputAmountAfterFee, baseReserve, tokenReserve);\r\n        return baseOutputAmount;\r\n    }\r\n\r\n    function getDataFromBaseInputToAddLp(uint256 baseInputAmount) public view returns (uint256, uint256) {\r\n        uint256 totalSupply = totalSupply();\r\n        uint256 mintLP = 0;\r\n        uint256 tokenInputAmount = 0;\r\n        if(totalSupply == 0) {\r\n            mintLP = baseInputAmount;\r\n            tokenInputAmount = baseInputAmount;\r\n        }\r\n        else { \r\n            // tokenReserve/baseReserve = (tokenReserve+tokenInputAmount)/(baseReserve+baseInputAmount)\r\n            // => tokenReserve+tokenInputAmount = tokenReserve*(baseReserve+baseInputAmount)/baseReserve\r\n            // => tokenInputAmount = tokenReserve*(baseReserve+baseInputAmount)/baseReserve - tokenReserve;\r\n            uint256 baseReserve = 0;\r\n            uint256 tokenReserve = 0;\r\n            (baseReserve, tokenReserve) = getTotalReserve();\r\n            tokenInputAmount = tokenReserve.mul(baseReserve.add(baseInputAmount)).div(baseReserve).sub(tokenReserve);\r\n\r\n            uint256 platformFeeOnBase = baseInputAmount.mul(PLATFORM_FEE).div(1000);\r\n\r\n            // mintLP/totalLP =  baseInputAmount/baseReserve\r\n            // mintLP = totalLP*baseInputAmount/baseReserve\r\n            mintLP = totalSupply.mul(baseInputAmount.sub(platformFeeOnBase)).div(baseReserve);\r\n        }\r\n        return (mintLP, tokenInputAmount);\r\n    }\r\n\r\n    function getDataFromTokenInputToAddLp(uint256 tokenInputAmount) public view returns (uint256, uint256) {\r\n        uint256 totalSupply = totalSupply();\r\n        uint256 mintLP;\r\n        uint256 baseInputAmount;\r\n        if(totalSupply == 0) {\r\n            mintLP = tokenInputAmount;\r\n            baseInputAmount = tokenInputAmount;\r\n        }\r\n        else { \r\n            // tokenReserve/baseReserve = (tokenReserve+tokenInputAmount)/(baseReserve+baseInputAmount)\r\n            // => (baseReserve+baseInputAmount) = (tokenReserve+tokenInputAmount) * baseReserve / tokenReserve\r\n            //  => baseInputAmount = (tokenReserve+tokenInputAmount) * baseReserve / tokenReserve - baseReserve\r\n            uint256 baseReserve = 0;\r\n            uint256 tokenReserve = 0;\r\n            (baseReserve, tokenReserve) = getTotalReserve();\r\n\r\n            baseInputAmount = baseReserve.mul(tokenReserve.add(tokenInputAmount)).div(tokenReserve).sub(baseReserve);\r\n\r\n            uint256 platformFeeOnBase = baseInputAmount.mul(PLATFORM_FEE).div(1000);\r\n\r\n            // mintLP/totalLP =  baseInputAmount/baseReserve\r\n            // mintLP = totalLP*baseInputAmount/baseReserve\r\n            mintLP = totalSupply.mul(baseInputAmount.sub(platformFeeOnBase)).div(baseReserve);\r\n        }\r\n        return (mintLP, baseInputAmount);\r\n    }\r\n\r\n    function getDataToRemoveLP(uint256 amountLP) public view returns (uint256, uint256){\r\n        \r\n        uint256 totalSupply = totalSupply();\r\n\r\n        if (amountLP > totalSupply) {\r\n            amountLP = totalSupply;\r\n        } \r\n        uint256 baseReserve = 0;\r\n        uint256 tokenReserve = 0;\r\n        (baseReserve, tokenReserve) = getTotalReserve();\r\n        \r\n        // amountLP/totalSupply = baseOutputAmount/baseReserve\r\n        // => baseOutputAmount = amountLP*baseReserve/totalSupply\r\n        uint256 baseOutputAmount = amountLP.mul(baseReserve).div(totalSupply);\r\n        uint256 tokenOutputAmount = amountLP.mul(tokenReserve).div(totalSupply);\r\n        \r\n        uint256 platformFeeOnBase = baseOutputAmount.mul(PLATFORM_FEE).div(1000);\r\n        uint256 platformFeeOnToken = tokenOutputAmount.mul(PLATFORM_FEE).div(1000);\r\n        \r\n        baseOutputAmount = baseOutputAmount.sub(platformFeeOnBase);\r\n        tokenOutputAmount = tokenOutputAmount.sub(platformFeeOnToken);\r\n        \r\n        return (baseOutputAmount, tokenOutputAmount);\r\n    }\r\n    \r\n    // token*base=(token-tokenOutputAmount)*(base+baseInputAmount)\r\n    //token-tokenOutputAmount = token*base/(base+baseInputAmount)\r\n    // => tokenOutputAmount=token - token*base/(base+baseInputAmount)\r\n    function getTokenOutputAmountFromBaseInput(uint256 baseInputAmount, uint256 baseReserve, uint256 tokenReserve) public pure returns (uint256) {\r\n      require(baseReserve > 0 && tokenReserve > 0, \"INVALID_VALUE\");\r\n      uint256 numerator = tokenReserve.mul(baseReserve);\r\n      uint256 denominator = baseReserve.add(baseInputAmount);\r\n      uint256 tokenOutputAmount = tokenReserve.sub(numerator.div(denominator));\r\n      return tokenOutputAmount;\r\n    }\r\n    \r\n    // token*base=(token-tokenOutputAmount)*(base+baseInputAmount)\r\n    // base+baseInputAmount = token*base/(token-tokenOutputAmount)\r\n    //baseInputAmount = token*base/(token-tokenOutputAmount) - base;\r\n    function getBaseInputAmountFromTokenOutput(uint256 tokenOutputAmount, uint256 baseReserve, uint256 tokenReserve) public pure  returns (uint256) {\r\n      require(baseReserve > 0 && tokenReserve > 0, \"INVALID_VALUE\");\r\n      uint256 numerator = tokenReserve.mul(baseReserve);\r\n      uint256 denominator = tokenReserve.sub(tokenOutputAmount);\r\n      uint256 baseInputAmount = numerator.div(denominator).sub(baseReserve);\r\n      return baseInputAmount;\r\n    }\r\n    \r\n    // token*base=(token+tokenInputAmount)*(base-baseOutputAmount)\r\n    // => base - baseOutputAmount=token*base/(token+tokenInputAmount)\r\n    // => baseOutputAmount = base - token*base/(token+tokenInputAmount)\r\n    function getBaseOutputAmountFromTokenInput(uint256 tokenInputAmount, uint256 baseReserve, uint256 tokenReserve) public pure returns (uint256) {\r\n      require(baseReserve > 0 && tokenReserve > 0, \"INVALID_VALUE\");\r\n      uint256 numerator = tokenReserve.mul(baseReserve);\r\n      uint256 denominator = tokenReserve.add(tokenInputAmount);\r\n      uint256 baseOutputAmount = baseReserve.sub(numerator.div(denominator));\r\n      return baseOutputAmount;\r\n    }\r\n\r\n    // token*base=(token+tokenInputAmount)*(base-baseOutputAmount)\r\n    // => token+tokenInputAmount = token*base/(base-baseOutputAmount)\r\n    // => tokenInputAmount = token*base/(base-baseOutputAmount) - token\r\n    function getTokenInputAmountFromBaseOutput(uint256 baseOutputAmount, uint256 baseReserve, uint256 tokenReserve) public pure returns (uint256) {\r\n      require(baseReserve > 0 && tokenReserve > 0, \"INVALID_VALUE\");\r\n      uint256 numerator = tokenReserve.mul(baseReserve);\r\n      uint256 denominator = baseReserve.sub(baseOutputAmount);\r\n      uint256 tokenInputAmount = numerator.div(denominator).sub(tokenReserve);\r\n      return tokenInputAmount;\r\n    }\r\n\r\n    function swapBaseToTokenWithBaseInput(uint256 baseInputAmount, uint256 minTokenOutput, uint256 deadline) public onlyWhitelist {\r\n        require(deadline >= block.timestamp, 'INVALID_DEADLINE');\r\n        require(baseInputAmount > 0, 'INVALID_BASE_INPUT');\r\n        require(minTokenOutput > 0, 'INVALID_MIN_TOKEN_OUTPUT');\r\n        require(baseInputAmount <= base.balanceOf(msg.sender), 'BASE_INPUT_HIGHER_USER_BALANCE');\r\n        \r\n        uint256 baseReserve = 0;\r\n        uint256 tokenReserve = 0;\r\n        (baseReserve, tokenReserve) = getTotalReserve();\r\n        require(minTokenOutput < tokenReserve, \"MIN_TOKEN_HIGHER_POOL_TOKEN_BALANCE\");\r\n\r\n        uint256 tradeFee = baseInputAmount.mul(TRADE_FEE).div(1000);\r\n        uint256 baseInputAmountAfterFee = baseInputAmount.sub(tradeFee); // cut the TRADE_FEE from base input\r\n        \r\n        uint256 tokenOutputAmount = getTokenOutputAmountFromBaseInput(baseInputAmountAfterFee, baseReserve, tokenReserve);\r\n\r\n        require(tokenOutputAmount >= minTokenOutput, 'CAN_NOT_MAKE_TRADE');\r\n        require(tokenOutputAmount < tokenReserve, 'TOKEN_OUTPUT_HIGHER_POOL_TOKEN_BALANCE');\r\n        require(tokenOutputAmount < token.balanceOf(address(this)), 'TOKEN_OUTPUT_HIGHER_CURRENT_TRADE_BALANCE'); // output is higher than the trade contract balance\r\n        \r\n        //make trade\r\n        base.transferFrom(msg.sender, address(this), baseInputAmount);\r\n        token.transfer(msg.sender, tokenOutputAmount);\r\n\r\n        //transfer fee\r\n        base.transfer(address(feeMachineContract), tradeFee);\r\n        feeMachineContract.processTradeFee(base, msg.sender); \r\n\r\n        emit onSwapBaseToTokenWithBaseInput(msg.sender, minTokenOutput, baseInputAmount, tokenOutputAmount, baseReserve, tokenReserve);\r\n    }\r\n\r\n    function swapBaseToTokenWithTokenOutput(uint256 maxBaseInput, uint256 tokenOutputAmount, uint256 deadline) public onlyWhitelist {\r\n        require(deadline >= block.timestamp, 'INVALID_DEADLINE');\r\n        require(maxBaseInput > 0, 'INVALID_MAX_BASE_INPUT');\r\n        require(tokenOutputAmount > 0, 'INVALID_TOKEN_OUTPUT');\r\n        require(tokenOutputAmount < token.balanceOf(address(this)), 'TOKEN_OUTPUT_HIGHER_CURRENT_TRADE_BALANCE'); // output is higher than the trade contract balance\r\n        \r\n        uint256 baseReserve = 0;\r\n        uint256 tokenReserve = 0;\r\n        (baseReserve, tokenReserve) = getTotalReserve();\r\n        require(tokenOutputAmount < tokenReserve, \"TOKEN_OUTPUT_HIGHER_POOL_TOKEN_BALANCE\");\r\n\r\n        uint256 baseInputAmount = getBaseInputAmountFromTokenOutput(tokenOutputAmount, baseReserve, tokenReserve);\r\n        \r\n        uint256 tradeFee = baseInputAmount.mul(TRADE_FEE).div(1000);\r\n        baseInputAmount = baseInputAmount.add(tradeFee); // add the TRADE_FEE to base input\r\n\r\n        require(baseInputAmount <= maxBaseInput, 'CAN_NOT_MAKE_TRADE');\r\n        require(baseInputAmount > 0, 'INVALID_BASE_INPUT');\r\n        require(baseInputAmount <= base.balanceOf(msg.sender), 'BASE_INPUT_HIGHER_USER_BALANCE');\r\n        \r\n        //make trade\r\n        base.transferFrom(msg.sender, address(this), baseInputAmount);\r\n        token.transfer(msg.sender, tokenOutputAmount);\r\n\r\n        //transfer fee\r\n        base.transfer(address(feeMachineContract), tradeFee);\r\n        feeMachineContract.processTradeFee(base, msg.sender);\r\n\r\n        emit onSwapBaseToTokenWithTokenOutput(msg.sender, maxBaseInput, baseInputAmount, tokenOutputAmount, baseReserve, tokenReserve);\r\n    }\r\n\r\n    function swapTokenToBaseWithTokenInput(uint256 tokenInputAmount, uint256 minBaseOutput, uint256 deadline) public onlyWhitelist {\r\n        require(deadline >= block.timestamp, 'INVALID_DEADLINE');\r\n        require(minBaseOutput > 0, 'INVALID_MIN_BASE_OUTPUT');\r\n        require(tokenInputAmount > 0, 'INVALID_TOKEN_INPUT');\r\n        require(tokenInputAmount <= token.balanceOf(msg.sender), 'TOKEN_INPUT_HIGHER_USER_BALANCE');\r\n\r\n        uint256 baseReserve = 0;\r\n        uint256 tokenReserve = 0;\r\n        (baseReserve, tokenReserve) = getTotalReserve();\r\n        require(minBaseOutput < baseReserve, 'MIN_BASE_OUTPUT_HIGHER_POOL_BASE_BALANCE');\r\n\r\n        uint256 tradeFee = tokenInputAmount.mul(TRADE_FEE).div(1000);\r\n        uint256 tokenInputAmountAfterFee = tokenInputAmount.sub(tradeFee); // cut the TRADE_FEE from token input\r\n        \r\n        uint256 baseOutputAmount = getBaseOutputAmountFromTokenInput(tokenInputAmountAfterFee, baseReserve, tokenReserve);\r\n\r\n        require(baseOutputAmount >= minBaseOutput, 'CAN_NOT_MAKE_TRADE');\r\n        require(baseOutputAmount < baseReserve, 'BASE_OUTPUT_HIGHER_POOL_BASE_BALANCE');\r\n        require(baseOutputAmount < base.balanceOf(address(this)), 'BASE_OUTPUT_HIGHER_CURRENT_TRADE_BALANCE'); // output is higher than the trade contract balance\r\n\r\n        //make trade\r\n        token.transferFrom(msg.sender, address(this), tokenInputAmount);\r\n        base.transfer(msg.sender, baseOutputAmount);\r\n\r\n        //transfer fee\r\n        token.transfer(address(feeMachineContract), tradeFee);\r\n        feeMachineContract.processTradeFee(token, msg.sender);\r\n\r\n        emit onSwapTokenToBaseWithTokenInput(msg.sender, minBaseOutput, tokenInputAmount, baseOutputAmount, baseReserve, tokenReserve);\r\n    }\r\n\r\n    function swapTokenToBaseWithBaseOutput(uint256 maxTokenInput, uint256 baseOutputAmount, uint256 deadline) public onlyWhitelist {\r\n        require(deadline >= block.timestamp, 'INVALID_DEADLINE');\r\n        require(maxTokenInput > 0, 'INVALID_MAX_TOKEN_INPUT');\r\n        require(baseOutputAmount > 0, 'INVALID_BASE_OUTPUT');\r\n        require(baseOutputAmount < base.balanceOf(address(this)), 'BASE_OUTPUT_HIGHER_CURRENT_TRADE_BALANCE'); // output is higher than the trade contract balance\r\n\r\n        uint256 baseReserve = 0;\r\n        uint256 tokenReserve = 0;\r\n        (baseReserve, tokenReserve) = getTotalReserve();\r\n        require(baseOutputAmount < baseReserve, 'BASE_OUTPUT_HIGHER_POOL_BASE_BALANCE');\r\n\r\n        uint256 tokenInputAmount = getTokenInputAmountFromBaseOutput(baseOutputAmount, baseReserve, tokenReserve);\r\n        \r\n        uint256 tradeFee = tokenInputAmount.mul(TRADE_FEE).div(1000);\r\n        tokenInputAmount = tokenInputAmount.add(tradeFee); // add the TRADE_FEE to token input\r\n\r\n        require(tokenInputAmount <= maxTokenInput, 'CAN_NOT_MAKE_TRADE');\r\n        require(tokenInputAmount > 0, 'INVALID_TOKEN_INPUT');\r\n        require(tokenInputAmount <= token.balanceOf(msg.sender), 'TOKEN_INPUT_HIGHER_USER_BALANCE');\r\n\r\n        //make trade\r\n        token.transferFrom(msg.sender, address(this), tokenInputAmount);\r\n        base.transfer(msg.sender, baseOutputAmount);\r\n\r\n        //transfer fee\r\n        token.transfer(address(feeMachineContract), tradeFee);\r\n        feeMachineContract.processTradeFee(token, msg.sender);\r\n\r\n        emit onSwapTokenToBaseWithBaseOutput(msg.sender, maxTokenInput, tokenInputAmount, baseOutputAmount, baseReserve, tokenReserve);\r\n    }\r\n\r\n    function addLP(uint256 minLP, uint256 baseInputAmount, uint256 maxTokenInputAmount, uint256 deadline) public onlyWhitelist returns (uint256) {\r\n        require(deadline >= block.timestamp, 'INVALID_DEADLINE');\r\n        require(minLP > 0, 'INVALID_MIN_LP');\r\n        require(baseInputAmount > 0, 'INVALID_BASE_INPUT');\r\n        require(maxTokenInputAmount > 0, 'INVALID_MAX_TOKEN_INPUT');\r\n        \r\n        uint256 totalSupply = totalSupply();\r\n        if(totalSupply == 0) {\r\n            base.transferFrom(msg.sender, address(this), baseInputAmount);\r\n            token.transferFrom(msg.sender, address(this), maxTokenInputAmount);\r\n            \r\n            uint256 initLP = baseInputAmount;\r\n            _mint(msg.sender, initLP);\r\n            emit onAddLP(msg.sender, initLP, baseInputAmount, maxTokenInputAmount, base.balanceOf(address(this)), token.balanceOf(address(this)));\r\n            return initLP;\r\n        }\r\n        else { \r\n            // tokenReserve/baseReserve = (tokenReserve+tokenInputAmount)/(baseReserve+baseInputAmount)\r\n            // => tokenReserve+tokenInputAmount = tokenReserve*(baseReserve+baseInputAmount)/baseReserve\r\n            // => tokenInputAmount = tokenReserve*(baseReserve+baseInputAmount)/baseReserve - tokenReserve;\r\n            uint256 baseReserve = 0;\r\n            uint256 tokenReserve = 0;\r\n            (baseReserve, tokenReserve) = getTotalReserve();\r\n            uint256 tokenInputAmount = tokenReserve.mul(baseReserve.add(baseInputAmount)).div(baseReserve).sub(tokenReserve);\r\n\r\n            uint256 platformFeeOnBase = baseInputAmount.mul(PLATFORM_FEE).div(1000);\r\n            uint256 platformFeeOnToken = tokenInputAmount.mul(PLATFORM_FEE).div(1000);\r\n\r\n            // mintLP/totalLP =  baseInputAmount/baseReserve\r\n            // mintLP = totalLP*baseInputAmount/baseReserve\r\n            uint256 mintLP = totalSupply.mul(baseInputAmount.sub(platformFeeOnBase)).div(baseReserve);\r\n            \r\n            require(tokenInputAmount > 0, 'INVALID_TOKEN_INPUT');\r\n            require(tokenInputAmount <= maxTokenInputAmount, 'INVALID_TOKEN_INPUT');\r\n            require(mintLP >= minLP, \"INVALID_MINT_LP\");\r\n\r\n            base.transferFrom(msg.sender, address(this), baseInputAmount);\r\n            token.transferFrom(msg.sender, address(this), tokenInputAmount);\r\n\r\n            \r\n            base.transfer(platformFundAddress, platformFeeOnBase);\r\n            token.transfer(platformFundAddress, platformFeeOnToken);\r\n\r\n            _mint(msg.sender, mintLP);\r\n            emit onAddLP(msg.sender, mintLP, baseInputAmount, tokenInputAmount, base.balanceOf(address(this)), token.balanceOf(address(this)));\r\n            return mintLP;\r\n        }\r\n    }\r\n\r\n    function removeLP(uint256 amountLP, uint256 minBaseOutput, uint256 minTokenOutput, uint256 deadline) public onlyWhitelist returns (uint256, uint256){\r\n        require(deadline >= block.timestamp, 'INVALID_DEADLINE');\r\n        require(amountLP > 0, 'INVALID_AMOUNT_LP');\r\n        require(minBaseOutput > 0, 'INVALID_MIN_BASE_OUTPUT');\r\n        require(minTokenOutput > 0, 'INVALID_MIN_TOKEN_OUTPUT');\r\n        \r\n        uint256 totalSupply = totalSupply();\r\n        \r\n        uint256 userLPbalance = balanceOf(msg.sender);\r\n        if(amountLP > userLPbalance) {\r\n            amountLP = userLPbalance;\r\n        }\r\n\r\n        require(amountLP <= totalSupply, 'INVALID_AMOUNT_LP_TOTAL_SUPPLY');\r\n         \r\n        uint256 baseReserve = 0;\r\n        uint256 tokenReserve = 0;\r\n        (baseReserve, tokenReserve) = getTotalReserve();\r\n        \r\n        // amountLP/totalSupply = baseOutputAmount/baseReserve\r\n        // => baseOutputAmount = amountLP*baseReserve/totalSupply\r\n        uint256 baseOutputAmount = amountLP.mul(baseReserve).div(totalSupply);\r\n        uint256 tokenOutputAmount = amountLP.mul(tokenReserve).div(totalSupply);\r\n\r\n        uint256 platformFeeOnBase = baseOutputAmount.mul(PLATFORM_FEE).div(1000);\r\n        uint256 platformFeeOnToken = tokenOutputAmount.mul(PLATFORM_FEE).div(1000);\r\n        \r\n        baseOutputAmount = baseOutputAmount.sub(platformFeeOnBase);\r\n        tokenOutputAmount = tokenOutputAmount.sub(platformFeeOnToken);\r\n\r\n        require(baseOutputAmount >= minBaseOutput, \"INVALID_BASE_OUTPUT\");\r\n        require(tokenOutputAmount >= minTokenOutput, \"INVALID_TOKEN_OUTPUT\");\r\n        require(baseOutputAmount <= baseReserve, \"BASE_OUTPUT_HIGHER_BASE_BALANCE\");\r\n        require(tokenOutputAmount <= tokenReserve, \"TOKEN_OUTPUT_HIGHER_TOKEN_BALANCE\");\r\n\r\n        _burn(msg.sender, amountLP);\r\n        base.transfer(msg.sender, baseOutputAmount);\r\n        token.transfer(msg.sender, tokenOutputAmount);\r\n\r\n        base.transfer(platformFundAddress, platformFeeOnBase);\r\n        token.transfer(platformFundAddress, platformFeeOnToken);\r\n\r\n        emit onRemoveLP(msg.sender, amountLP, baseOutputAmount, tokenOutputAmount, base.balanceOf(address(this)), token.balanceOf(address(this)));\r\n        return (baseOutputAmount, tokenOutputAmount);\r\n    }\r\n\r\n    function getTotalReserve() public view returns (uint256, uint256) { \r\n        uint256 baseReserve = base.balanceOf(address(this));\r\n        uint256 tokenReserve = token.balanceOf(address(this));\r\n\r\n        return (baseReserve, tokenReserve);\r\n    }\r\n}",
  "sourcePath": "C:\\Users\\David\\Documents\\NetBeansProjects\\garbiprotocol.github.io\\garbi_contracts\\contracts\\GarbiswapTradeGRBWETH.sol",
  "compiler": {
    "name": "solc",
    "version": "0.8.17+commit.8df45f5f.Emscripten.clang"
  },
  "schemaVersion": "3.4.11",
  "updatedAt": "2023-01-12T06:43:31.290Z",
  "devdoc": {
    "kind": "dev",
    "methods": {
      "allowance(address,address)": {
        "details": "See {IERC20-allowance}."
      },
      "approve(address,uint256)": {
        "details": "See {IERC20-approve}. NOTE: If `amount` is the maximum `uint256`, the allowance is not updated on `transferFrom`. This is semantically equivalent to an infinite approval. Requirements: - `spender` cannot be the zero address."
      },
      "balanceOf(address)": {
        "details": "See {IERC20-balanceOf}."
      },
      "burn(uint256)": {
        "details": "Destroys `amount` tokens from the caller. See {ERC20-_burn}."
      },
      "burnFrom(address,uint256)": {
        "details": "Destroys `amount` tokens from `account`, deducting from the caller's allowance. See {ERC20-_burn} and {ERC20-allowance}. Requirements: - the caller must have allowance for ``accounts``'s tokens of at least `amount`."
      },
      "decimals()": {
        "details": "Returns the number of decimals used to get its user representation. For example, if `decimals` equals `2`, a balance of `505` tokens should be displayed to a user as `5.05` (`505 / 10 ** 2`). Tokens usually opt for a value of 18, imitating the relationship between Ether and Wei. This is the value {ERC20} uses, unless this function is overridden; NOTE: This information is only used for _display_ purposes: it in no way affects any of the arithmetic of the contract, including {IERC20-balanceOf} and {IERC20-transfer}."
      },
      "decreaseAllowance(address,uint256)": {
        "details": "Atomically decreases the allowance granted to `spender` by the caller. This is an alternative to {approve} that can be used as a mitigation for problems described in {IERC20-approve}. Emits an {Approval} event indicating the updated allowance. Requirements: - `spender` cannot be the zero address. - `spender` must have allowance for the caller of at least `subtractedValue`."
      },
      "increaseAllowance(address,uint256)": {
        "details": "Atomically increases the allowance granted to `spender` by the caller. This is an alternative to {approve} that can be used as a mitigation for problems described in {IERC20-approve}. Emits an {Approval} event indicating the updated allowance. Requirements: - `spender` cannot be the zero address."
      },
      "name()": {
        "details": "Returns the name of the token."
      },
      "owner()": {
        "details": "Returns the address of the current owner."
      },
      "renounceOwnership()": {
        "details": "Leaves the contract without owner. It will not be possible to call `onlyOwner` functions anymore. Can only be called by the current owner. NOTE: Renouncing ownership will leave the contract without an owner, thereby removing any functionality that is only available to the owner."
      },
      "symbol()": {
        "details": "Returns the symbol of the token, usually a shorter version of the name."
      },
      "totalSupply()": {
        "details": "See {IERC20-totalSupply}."
      },
      "transfer(address,uint256)": {
        "details": "See {IERC20-transfer}. Requirements: - `to` cannot be the zero address. - the caller must have a balance of at least `amount`."
      },
      "transferFrom(address,address,uint256)": {
        "details": "See {IERC20-transferFrom}. Emits an {Approval} event indicating the updated allowance. This is not required by the EIP. See the note at the beginning of {ERC20}. NOTE: Does not update the allowance if the current allowance is the maximum `uint256`. Requirements: - `from` and `to` cannot be the zero address. - `from` must have a balance of at least `amount`. - the caller must have allowance for ``from``'s tokens of at least `amount`."
      },
      "transferOwnership(address)": {
        "details": "Transfers ownership of the contract to a new account (`newOwner`). Can only be called by the current owner."
      }
    },
    "version": 1
  },
  "userdoc": {
    "kind": "user",
    "methods": {},
    "version": 1
  }
}