{
  "contractName": "GarbiTreasury",
  "abi": [
    {
      "inputs": [
        {
          "internalType": "contract IERC20",
          "name": "_grb",
          "type": "address"
        },
        {
          "internalType": "contract IGarbiTimeLock",
          "name": "_garbiTimeLockContract",
          "type": "address"
        }
      ],
      "stateMutability": "nonpayable",
      "type": "constructor"
    },
    {
      "anonymous": false,
      "inputs": [
        {
          "indexed": true,
          "internalType": "address",
          "name": "previousOwner",
          "type": "address"
        },
        {
          "indexed": true,
          "internalType": "address",
          "name": "newOwner",
          "type": "address"
        }
      ],
      "name": "OwnershipTransferred",
      "type": "event"
    },
    {
      "inputs": [],
      "name": "GRB",
      "outputs": [
        {
          "internalType": "contract IERC20",
          "name": "",
          "type": "address"
        }
      ],
      "stateMutability": "view",
      "type": "function"
    },
    {
      "inputs": [],
      "name": "garbiTimeLockContract",
      "outputs": [
        {
          "internalType": "contract IGarbiTimeLock",
          "name": "",
          "type": "address"
        }
      ],
      "stateMutability": "view",
      "type": "function"
    },
    {
      "inputs": [],
      "name": "miningMachine",
      "outputs": [
        {
          "internalType": "address",
          "name": "",
          "type": "address"
        }
      ],
      "stateMutability": "view",
      "type": "function"
    },
    {
      "inputs": [],
      "name": "owner",
      "outputs": [
        {
          "internalType": "address",
          "name": "",
          "type": "address"
        }
      ],
      "stateMutability": "view",
      "type": "function"
    },
    {
      "inputs": [],
      "name": "renounceOwnership",
      "outputs": [],
      "stateMutability": "nonpayable",
      "type": "function"
    },
    {
      "inputs": [
        {
          "internalType": "address",
          "name": "newOwner",
          "type": "address"
        }
      ],
      "name": "transferOwnership",
      "outputs": [],
      "stateMutability": "nonpayable",
      "type": "function"
    },
    {
      "inputs": [
        {
          "internalType": "address",
          "name": "_user",
          "type": "address"
        },
        {
          "internalType": "uint256",
          "name": "_amount",
          "type": "uint256"
        }
      ],
      "name": "mint",
      "outputs": [],
      "stateMutability": "nonpayable",
      "type": "function"
    },
    {
      "inputs": [],
      "name": "setMiningMachineContract",
      "outputs": [],
      "stateMutability": "nonpayable",
      "type": "function"
    }
  ],
  "bytecode": "0x608060405234801561001057600080fd5b5060405161096938038061096983398101604081905261002f916100d1565b61003833610069565b600180546001600160a01b039384166001600160a01b0319918216179091556003805492909316911617905561010b565b600080546001600160a01b038381166001600160a01b0319831681178455604051919092169283917f8be0079c531659141344cd1fd0a4f28419497f9722a3daafe3b4186f6b6457e09190a35050565b6001600160a01b03811681146100ce57600080fd5b50565b600080604083850312156100e457600080fd5b82516100ef816100b9565b6020840151909250610100816100b9565b809150509250929050565b61084f8061011a6000396000f3fe608060405234801561001057600080fd5b50600436106100885760003560e01c80638da5cb5b1161005b5780638da5cb5b146100e1578063b0176ce8146100f2578063bce645db14610105578063f2fde38b1461011857600080fd5b806310a57f3a1461008d57806340c10f19146100bc578063512e82d8146100d1578063715018a6146100d9575b600080fd5b6003546100a0906001600160a01b031681565b6040516001600160a01b03909116815260200160405180910390f35b6100cf6100ca36600461064f565b61012b565b005b6100cf6102b0565b6100cf610503565b6000546001600160a01b03166100a0565b6001546100a0906001600160a01b031681565b6002546100a0906001600160a01b031681565b6100cf61012636600461067b565b610517565b6002546001600160a01b0316336001600160a01b0316146101885760405162461bcd60e51b815260206004820152601260248201527124a72b20a624a22fa822a926a4a9a9a4a7a760711b60448201526064015b60405180910390fd5b6001546040516370a0823160e01b81523060048201526001600160a01b03909116906370a0823190602401602060405180830381865afa1580156101d0573d6000803e3d6000fd5b505050506040513d601f19601f820116820180604052508101906101f4919061069f565b8111156102345760405162461bcd60e51b815260206004820152600e60248201526d1253959053125117d05353d5539560921b604482015260640161017f565b60015460405163a9059cbb60e01b81526001600160a01b038481166004830152602482018490529091169063a9059cbb906044016020604051808303816000875af1158015610287573d6000803e3d6000fd5b505050506040513d601f19601f820116820180604052508101906102ab91906106b8565b505050565b6102b8610590565b60035460405163109cc30b60e21b81526001600160a01b03909116906342730c2c906102e890309060040161070a565b602060405180830381865afa158015610305573d6000803e3d6000fd5b505050506040513d601f19601f8201168201806040525081019061032991906106b8565b61036a5760405162461bcd60e51b815260206004820152601260248201527124a72b20a624a22fa822a926a4a9a9a4a7a760711b604482015260640161017f565b600354604051636bfb078d60e01b81526000916001600160a01b031690636bfb078d9061039b90309060040161072d565b602060405180830381865afa1580156103b8573d6000803e3d6000fd5b505050506040513d601f19601f820116820180604052508101906103dc919061078c565b90506001600160a01b0381166104265760405162461bcd60e51b815260206004820152600f60248201526e494e56414c49445f4144445245535360881b604482015260640161017f565b600280546001600160a01b0319166001600160a01b0383811691909117909155600354604051636e977f0b60e01b8152911690636e977f0b9061046e906001906004016107a9565b600060405180830381600087803b15801561048857600080fd5b505af115801561049c573d6000803e3d6000fd5b50506003546040516345503fcb60e11b81526001600160a01b039091169250638aa07f9691506104ce90600401610801565b600060405180830381600087803b1580156104e857600080fd5b505af11580156104fc573d6000803e3d6000fd5b5050505050565b61050b610590565b61051560006105ea565b565b61051f610590565b6001600160a01b0381166105845760405162461bcd60e51b815260206004820152602660248201527f4f776e61626c653a206e6577206f776e657220697320746865207a65726f206160448201526564647265737360d01b606482015260840161017f565b61058d816105ea565b50565b6000546001600160a01b031633146105155760405162461bcd60e51b815260206004820181905260248201527f4f776e61626c653a2063616c6c6572206973206e6f7420746865206f776e6572604482015260640161017f565b600080546001600160a01b038381166001600160a01b0319831681178455604051919092169283917f8be0079c531659141344cd1fd0a4f28419497f9722a3daafe3b4186f6b6457e09190a35050565b6001600160a01b038116811461058d57600080fd5b6000806040838503121561066257600080fd5b823561066d8161063a565b946020939093013593505050565b60006020828403121561068d57600080fd5b81356106988161063a565b9392505050565b6000602082840312156106b157600080fd5b5051919050565b6000602082840312156106ca57600080fd5b8151801515811461069857600080fd5b601881527f7365744d696e696e674d616368696e65436f6e74726163740000000000000000602082015260400190565b6001600160a01b03821681526040602082018190526000906106989083016106da565b6001600160a01b03821681526060602082018190526000906107509083016106da565b82810360408401526107848160158152741b5a5b9a5b99d35858da1a5b9950dbdb9d1c9858dd605a1b602082015260400190565b949350505050565b60006020828403121561079e57600080fd5b81516106988161063a565b6060815260006107bb606083016106da565b82810360208401526107ef8160158152741b5a5b9a5b99d35858da1a5b9950dbdb9d1c9858dd605a1b602082015260400190565b91505060ff8316604083015292915050565b602081526000610813602083016106da565b9291505056fea26469706673582212202e633df6eb6d36f16ca12a36dc3bb9e1bc9dcb50bb41aaf159cc05e19a3f3ecf64736f6c63430008110033",
  "immutableReferences": {},
  "source": "// SPDX-License-Identifier: MIT\r\npragma solidity >=0.6.12;\r\n\r\nimport \"@openzeppelin/contracts/utils/math/SafeMath.sol\";\r\nimport \"@openzeppelin/contracts/token/ERC20/IERC20.sol\";\r\nimport \"@openzeppelin/contracts/utils/Context.sol\";\r\nimport \"@openzeppelin/contracts/access/Ownable.sol\";\r\n\r\nimport './interfaces/IGarbiTimeLock.sol';\r\n\r\ncontract GarbiTreasury is Ownable {\r\n\r\n    using SafeMath for uint256;\r\n\r\n    IERC20 public GRB;\r\n    address public miningMachine;\r\n    IGarbiTimeLock public garbiTimeLockContract;\r\n\r\n    modifier onlyMiningMachine()\r\n    {\r\n        require(_msgSender() == miningMachine, 'INVALID_PERMISSION');\r\n        _;\r\n    }\r\n\r\n    constructor(\r\n        IERC20 _grb,\r\n        IGarbiTimeLock _garbiTimeLockContract\r\n    ) {\r\n        GRB = _grb;\r\n        garbiTimeLockContract = _garbiTimeLockContract;\r\n    }\r\n\r\n    function mint(address _user, uint256 _amount) external onlyMiningMachine {\r\n        require(_amount <= GRB.balanceOf(address(this)), \"INVALID_AMOUNT\");\r\n        GRB.transfer(_user, _amount);\r\n    }\r\n\r\n    function setMiningMachineContract() public onlyOwner {\r\n\r\n        require(garbiTimeLockContract.isQueuedTransaction(address(this), 'setMiningMachineContract'), \"INVALID_PERMISSION\");\r\n\r\n        address _miningMachineContract = garbiTimeLockContract.getAddressChangeOnTimeLock(address(this), 'setMiningMachineContract', 'miningMachineContract');\r\n\r\n        require(_miningMachineContract != address(0), \"INVALID_ADDRESS\");\r\n\r\n        miningMachine = _miningMachineContract;\r\n\r\n        garbiTimeLockContract.clearFieldValue('setMiningMachineContract', 'miningMachineContract', 1);\r\n        garbiTimeLockContract.doneTransactions('setMiningMachineContract');\r\n    }\r\n\r\n}",
  "sourcePath": "C:\\Users\\David\\Documents\\NetBeansProjects\\garbiprotocol.github.io\\garbi_contracts\\contracts\\GarbiTreasury.sol",
  "compiler": {
    "name": "solc",
    "version": "0.8.17+commit.8df45f5f.Emscripten.clang"
  },
  "schemaVersion": "3.4.11",
  "updatedAt": "2023-03-07T04:45:39.814Z",
  "devdoc": {
    "kind": "dev",
    "methods": {
      "owner()": {
        "details": "Returns the address of the current owner."
      },
      "renounceOwnership()": {
        "details": "Leaves the contract without owner. It will not be possible to call `onlyOwner` functions anymore. Can only be called by the current owner. NOTE: Renouncing ownership will leave the contract without an owner, thereby removing any functionality that is only available to the owner."
      },
      "transferOwnership(address)": {
        "details": "Transfers ownership of the contract to a new account (`newOwner`). Can only be called by the current owner."
      }
    },
    "version": 1
  },
  "userdoc": {
    "kind": "user",
    "methods": {},
    "version": 1
  }
}