{
  "contractName": "GarbiswapTradeGRBWETH",
  "abi": [
    {
      "inputs": [
        {
          "internalType": "contract IERC20",
          "name": "_base",
          "type": "address"
        },
        {
          "internalType": "contract IERC20",
          "name": "_token",
          "type": "address"
        },
        {
          "internalType": "contract IGarbiTimeLock",
          "name": "_garbiTimeLockContract",
          "type": "address"
        },
        {
          "internalType": "contract IGarbiswapFeeMachine",
          "name": "_feeMachineContract",
          "type": "address"
        },
        {
          "internalType": "contract IGarbiswapWhitelist",
          "name": "_whitelistContract",
          "type": "address"
        },
        {
          "internalType": "string",
          "name": "name",
          "type": "string"
        },
        {
          "internalType": "string",
          "name": "symbol",
          "type": "string"
        }
      ],
      "stateMutability": "nonpayable",
      "type": "constructor"
    },
    {
      "anonymous": false,
      "inputs": [
        {
          "indexed": true,
          "internalType": "address",
          "name": "owner",
          "type": "address"
        },
        {
          "indexed": true,
          "internalType": "address",
          "name": "spender",
          "type": "address"
        },
        {
          "indexed": false,
          "internalType": "uint256",
          "name": "value",
          "type": "uint256"
        }
      ],
      "name": "Approval",
      "type": "event"
    },
    {
      "anonymous": false,
      "inputs": [
        {
          "indexed": true,
          "internalType": "address",
          "name": "previousOwner",
          "type": "address"
        },
        {
          "indexed": true,
          "internalType": "address",
          "name": "newOwner",
          "type": "address"
        }
      ],
      "name": "OwnershipTransferred",
      "type": "event"
    },
    {
      "anonymous": false,
      "inputs": [
        {
          "indexed": false,
          "internalType": "address",
          "name": "account",
          "type": "address"
        }
      ],
      "name": "Paused",
      "type": "event"
    },
    {
      "anonymous": false,
      "inputs": [
        {
          "indexed": true,
          "internalType": "address",
          "name": "from",
          "type": "address"
        },
        {
          "indexed": true,
          "internalType": "address",
          "name": "to",
          "type": "address"
        },
        {
          "indexed": false,
          "internalType": "uint256",
          "name": "value",
          "type": "uint256"
        }
      ],
      "name": "Transfer",
      "type": "event"
    },
    {
      "anonymous": false,
      "inputs": [
        {
          "indexed": false,
          "internalType": "address",
          "name": "account",
          "type": "address"
        }
      ],
      "name": "Unpaused",
      "type": "event"
    },
    {
      "anonymous": false,
      "inputs": [
        {
          "indexed": false,
          "internalType": "address",
          "name": "sender",
          "type": "address"
        },
        {
          "indexed": false,
          "internalType": "uint256",
          "name": "mintLP",
          "type": "uint256"
        },
        {
          "indexed": false,
          "internalType": "uint256",
          "name": "baseInputAmount",
          "type": "uint256"
        },
        {
          "indexed": false,
          "internalType": "uint256",
          "name": "tokenInputAmount",
          "type": "uint256"
        },
        {
          "indexed": false,
          "internalType": "uint256",
          "name": "poolBaseBalance",
          "type": "uint256"
        },
        {
          "indexed": false,
          "internalType": "uint256",
          "name": "poolTokenBalance",
          "type": "uint256"
        }
      ],
      "name": "onAddLP",
      "type": "event"
    },
    {
      "anonymous": false,
      "inputs": [
        {
          "indexed": false,
          "internalType": "address",
          "name": "sender",
          "type": "address"
        },
        {
          "indexed": false,
          "internalType": "uint256",
          "name": "amountLP",
          "type": "uint256"
        },
        {
          "indexed": false,
          "internalType": "uint256",
          "name": "baseOutputAmout",
          "type": "uint256"
        },
        {
          "indexed": false,
          "internalType": "uint256",
          "name": "tokenOutputAmount",
          "type": "uint256"
        },
        {
          "indexed": false,
          "internalType": "uint256",
          "name": "poolBaseBalance",
          "type": "uint256"
        },
        {
          "indexed": false,
          "internalType": "uint256",
          "name": "poolTokenBalance",
          "type": "uint256"
        }
      ],
      "name": "onRemoveLP",
      "type": "event"
    },
    {
      "anonymous": false,
      "inputs": [
        {
          "indexed": false,
          "internalType": "address",
          "name": "sender",
          "type": "address"
        },
        {
          "indexed": false,
          "internalType": "uint256",
          "name": "minTokenOutput",
          "type": "uint256"
        },
        {
          "indexed": false,
          "internalType": "uint256",
          "name": "baseInputAmount",
          "type": "uint256"
        },
        {
          "indexed": false,
          "internalType": "uint256",
          "name": "tokenOutputAmount",
          "type": "uint256"
        },
        {
          "indexed": false,
          "internalType": "uint256",
          "name": "poolBaseBalance",
          "type": "uint256"
        },
        {
          "indexed": false,
          "internalType": "uint256",
          "name": "poolTokenBalance",
          "type": "uint256"
        }
      ],
      "name": "onSwapBaseToTokenWithBaseInput",
      "type": "event"
    },
    {
      "anonymous": false,
      "inputs": [
        {
          "indexed": false,
          "internalType": "address",
          "name": "sender",
          "type": "address"
        },
        {
          "indexed": false,
          "internalType": "uint256",
          "name": "maxBaseInput",
          "type": "uint256"
        },
        {
          "indexed": false,
          "internalType": "uint256",
          "name": "baseInputAmount",
          "type": "uint256"
        },
        {
          "indexed": false,
          "internalType": "uint256",
          "name": "tokenOutputAmount",
          "type": "uint256"
        },
        {
          "indexed": false,
          "internalType": "uint256",
          "name": "poolBaseBalance",
          "type": "uint256"
        },
        {
          "indexed": false,
          "internalType": "uint256",
          "name": "poolTokenBalance",
          "type": "uint256"
        }
      ],
      "name": "onSwapBaseToTokenWithTokenOutput",
      "type": "event"
    },
    {
      "anonymous": false,
      "inputs": [
        {
          "indexed": false,
          "internalType": "address",
          "name": "sender",
          "type": "address"
        },
        {
          "indexed": false,
          "internalType": "uint256",
          "name": "maxTokenInput",
          "type": "uint256"
        },
        {
          "indexed": false,
          "internalType": "uint256",
          "name": "tokenInputAmount",
          "type": "uint256"
        },
        {
          "indexed": false,
          "internalType": "uint256",
          "name": "baseOutputAmount",
          "type": "uint256"
        },
        {
          "indexed": false,
          "internalType": "uint256",
          "name": "poolBaseBalance",
          "type": "uint256"
        },
        {
          "indexed": false,
          "internalType": "uint256",
          "name": "poolTokenBalance",
          "type": "uint256"
        }
      ],
      "name": "onSwapTokenToBaseWithBaseOutput",
      "type": "event"
    },
    {
      "anonymous": false,
      "inputs": [
        {
          "indexed": false,
          "internalType": "address",
          "name": "sender",
          "type": "address"
        },
        {
          "indexed": false,
          "internalType": "uint256",
          "name": "minBaseOutput",
          "type": "uint256"
        },
        {
          "indexed": false,
          "internalType": "uint256",
          "name": "tokenInputAmount",
          "type": "uint256"
        },
        {
          "indexed": false,
          "internalType": "uint256",
          "name": "baseOutputAmount",
          "type": "uint256"
        },
        {
          "indexed": false,
          "internalType": "uint256",
          "name": "poolBaseBalance",
          "type": "uint256"
        },
        {
          "indexed": false,
          "internalType": "uint256",
          "name": "poolTokenBalance",
          "type": "uint256"
        }
      ],
      "name": "onSwapTokenToBaseWithTokenInput",
      "type": "event"
    },
    {
      "inputs": [],
      "name": "PLATFORM_FEE",
      "outputs": [
        {
          "internalType": "uint256",
          "name": "",
          "type": "uint256"
        }
      ],
      "stateMutability": "view",
      "type": "function",
      "constant": true
    },
    {
      "inputs": [],
      "name": "TRADE_FEE",
      "outputs": [
        {
          "internalType": "uint256",
          "name": "",
          "type": "uint256"
        }
      ],
      "stateMutability": "view",
      "type": "function",
      "constant": true
    },
    {
      "inputs": [
        {
          "internalType": "address",
          "name": "owner",
          "type": "address"
        },
        {
          "internalType": "address",
          "name": "spender",
          "type": "address"
        }
      ],
      "name": "allowance",
      "outputs": [
        {
          "internalType": "uint256",
          "name": "",
          "type": "uint256"
        }
      ],
      "stateMutability": "view",
      "type": "function",
      "constant": true
    },
    {
      "inputs": [
        {
          "internalType": "address",
          "name": "spender",
          "type": "address"
        },
        {
          "internalType": "uint256",
          "name": "amount",
          "type": "uint256"
        }
      ],
      "name": "approve",
      "outputs": [
        {
          "internalType": "bool",
          "name": "",
          "type": "bool"
        }
      ],
      "stateMutability": "nonpayable",
      "type": "function"
    },
    {
      "inputs": [
        {
          "internalType": "address",
          "name": "account",
          "type": "address"
        }
      ],
      "name": "balanceOf",
      "outputs": [
        {
          "internalType": "uint256",
          "name": "",
          "type": "uint256"
        }
      ],
      "stateMutability": "view",
      "type": "function",
      "constant": true
    },
    {
      "inputs": [],
      "name": "base",
      "outputs": [
        {
          "internalType": "contract IERC20",
          "name": "",
          "type": "address"
        }
      ],
      "stateMutability": "view",
      "type": "function",
      "constant": true
    },
    {
      "inputs": [
        {
          "internalType": "uint256",
          "name": "amount",
          "type": "uint256"
        }
      ],
      "name": "burn",
      "outputs": [],
      "stateMutability": "nonpayable",
      "type": "function"
    },
    {
      "inputs": [
        {
          "internalType": "address",
          "name": "account",
          "type": "address"
        },
        {
          "internalType": "uint256",
          "name": "amount",
          "type": "uint256"
        }
      ],
      "name": "burnFrom",
      "outputs": [],
      "stateMutability": "nonpayable",
      "type": "function"
    },
    {
      "inputs": [],
      "name": "decimals",
      "outputs": [
        {
          "internalType": "uint8",
          "name": "",
          "type": "uint8"
        }
      ],
      "stateMutability": "view",
      "type": "function",
      "constant": true
    },
    {
      "inputs": [
        {
          "internalType": "address",
          "name": "spender",
          "type": "address"
        },
        {
          "internalType": "uint256",
          "name": "subtractedValue",
          "type": "uint256"
        }
      ],
      "name": "decreaseAllowance",
      "outputs": [
        {
          "internalType": "bool",
          "name": "",
          "type": "bool"
        }
      ],
      "stateMutability": "nonpayable",
      "type": "function"
    },
    {
      "inputs": [],
      "name": "feeMachineContract",
      "outputs": [
        {
          "internalType": "contract IGarbiswapFeeMachine",
          "name": "",
          "type": "address"
        }
      ],
      "stateMutability": "view",
      "type": "function",
      "constant": true
    },
    {
      "inputs": [],
      "name": "garbiTimeLockContract",
      "outputs": [
        {
          "internalType": "contract IGarbiTimeLock",
          "name": "",
          "type": "address"
        }
      ],
      "stateMutability": "view",
      "type": "function",
      "constant": true
    },
    {
      "inputs": [
        {
          "internalType": "address",
          "name": "spender",
          "type": "address"
        },
        {
          "internalType": "uint256",
          "name": "addedValue",
          "type": "uint256"
        }
      ],
      "name": "increaseAllowance",
      "outputs": [
        {
          "internalType": "bool",
          "name": "",
          "type": "bool"
        }
      ],
      "stateMutability": "nonpayable",
      "type": "function"
    },
    {
      "inputs": [],
      "name": "name",
      "outputs": [
        {
          "internalType": "string",
          "name": "",
          "type": "string"
        }
      ],
      "stateMutability": "view",
      "type": "function",
      "constant": true
    },
    {
      "inputs": [],
      "name": "onlyOwnerCanTradeFlag",
      "outputs": [
        {
          "internalType": "bool",
          "name": "",
          "type": "bool"
        }
      ],
      "stateMutability": "view",
      "type": "function",
      "constant": true
    },
    {
      "inputs": [],
      "name": "owner",
      "outputs": [
        {
          "internalType": "address",
          "name": "",
          "type": "address"
        }
      ],
      "stateMutability": "view",
      "type": "function",
      "constant": true
    },
    {
      "inputs": [],
      "name": "paused",
      "outputs": [
        {
          "internalType": "bool",
          "name": "",
          "type": "bool"
        }
      ],
      "stateMutability": "view",
      "type": "function",
      "constant": true
    },
    {
      "inputs": [],
      "name": "platformFundAddress",
      "outputs": [
        {
          "internalType": "address",
          "name": "",
          "type": "address"
        }
      ],
      "stateMutability": "view",
      "type": "function",
      "constant": true
    },
    {
      "inputs": [],
      "name": "renounceOwnership",
      "outputs": [],
      "stateMutability": "nonpayable",
      "type": "function"
    },
    {
      "inputs": [],
      "name": "symbol",
      "outputs": [
        {
          "internalType": "string",
          "name": "",
          "type": "string"
        }
      ],
      "stateMutability": "view",
      "type": "function",
      "constant": true
    },
    {
      "inputs": [],
      "name": "token",
      "outputs": [
        {
          "internalType": "contract IERC20",
          "name": "",
          "type": "address"
        }
      ],
      "stateMutability": "view",
      "type": "function",
      "constant": true
    },
    {
      "inputs": [],
      "name": "totalSupply",
      "outputs": [
        {
          "internalType": "uint256",
          "name": "",
          "type": "uint256"
        }
      ],
      "stateMutability": "view",
      "type": "function",
      "constant": true
    },
    {
      "inputs": [
        {
          "internalType": "address",
          "name": "to",
          "type": "address"
        },
        {
          "internalType": "uint256",
          "name": "amount",
          "type": "uint256"
        }
      ],
      "name": "transfer",
      "outputs": [
        {
          "internalType": "bool",
          "name": "",
          "type": "bool"
        }
      ],
      "stateMutability": "nonpayable",
      "type": "function"
    },
    {
      "inputs": [
        {
          "internalType": "address",
          "name": "from",
          "type": "address"
        },
        {
          "internalType": "address",
          "name": "to",
          "type": "address"
        },
        {
          "internalType": "uint256",
          "name": "amount",
          "type": "uint256"
        }
      ],
      "name": "transferFrom",
      "outputs": [
        {
          "internalType": "bool",
          "name": "",
          "type": "bool"
        }
      ],
      "stateMutability": "nonpayable",
      "type": "function"
    },
    {
      "inputs": [
        {
          "internalType": "address",
          "name": "newOwner",
          "type": "address"
        }
      ],
      "name": "transferOwnership",
      "outputs": [],
      "stateMutability": "nonpayable",
      "type": "function"
    },
    {
      "inputs": [],
      "name": "whitelistContract",
      "outputs": [
        {
          "internalType": "contract IGarbiswapWhitelist",
          "name": "",
          "type": "address"
        }
      ],
      "stateMutability": "view",
      "type": "function",
      "constant": true
    },
    {
      "inputs": [],
      "name": "setWhitelistContract",
      "outputs": [],
      "stateMutability": "nonpayable",
      "type": "function"
    },
    {
      "inputs": [],
      "name": "setFeeMachineContract",
      "outputs": [],
      "stateMutability": "nonpayable",
      "type": "function"
    },
    {
      "inputs": [],
      "name": "setTradeFee",
      "outputs": [],
      "stateMutability": "nonpayable",
      "type": "function"
    },
    {
      "inputs": [],
      "name": "setPlatformFee",
      "outputs": [],
      "stateMutability": "nonpayable",
      "type": "function"
    },
    {
      "inputs": [
        {
          "internalType": "address",
          "name": "newAddress",
          "type": "address"
        }
      ],
      "name": "setPlatformFundAdress",
      "outputs": [],
      "stateMutability": "nonpayable",
      "type": "function"
    },
    {
      "inputs": [],
      "name": "getK",
      "outputs": [
        {
          "internalType": "uint256",
          "name": "",
          "type": "uint256"
        }
      ],
      "stateMutability": "view",
      "type": "function",
      "constant": true
    },
    {
      "inputs": [
        {
          "internalType": "uint256",
          "name": "baseInputAmount",
          "type": "uint256"
        }
      ],
      "name": "getTokenOutput",
      "outputs": [
        {
          "internalType": "uint256",
          "name": "",
          "type": "uint256"
        }
      ],
      "stateMutability": "view",
      "type": "function",
      "constant": true
    },
    {
      "inputs": [
        {
          "internalType": "uint256",
          "name": "tokenInputAmount",
          "type": "uint256"
        }
      ],
      "name": "getBaseOutput",
      "outputs": [
        {
          "internalType": "uint256",
          "name": "",
          "type": "uint256"
        }
      ],
      "stateMutability": "view",
      "type": "function",
      "constant": true
    },
    {
      "inputs": [
        {
          "internalType": "uint256",
          "name": "baseInputAmount",
          "type": "uint256"
        }
      ],
      "name": "getDataFromBaseInputToAddLp",
      "outputs": [
        {
          "internalType": "uint256",
          "name": "",
          "type": "uint256"
        },
        {
          "internalType": "uint256",
          "name": "",
          "type": "uint256"
        }
      ],
      "stateMutability": "view",
      "type": "function",
      "constant": true
    },
    {
      "inputs": [
        {
          "internalType": "uint256",
          "name": "tokenInputAmount",
          "type": "uint256"
        }
      ],
      "name": "getDataFromTokenInputToAddLp",
      "outputs": [
        {
          "internalType": "uint256",
          "name": "",
          "type": "uint256"
        },
        {
          "internalType": "uint256",
          "name": "",
          "type": "uint256"
        }
      ],
      "stateMutability": "view",
      "type": "function",
      "constant": true
    },
    {
      "inputs": [
        {
          "internalType": "uint256",
          "name": "amountLP",
          "type": "uint256"
        }
      ],
      "name": "getDataToRemoveLP",
      "outputs": [
        {
          "internalType": "uint256",
          "name": "",
          "type": "uint256"
        },
        {
          "internalType": "uint256",
          "name": "",
          "type": "uint256"
        }
      ],
      "stateMutability": "view",
      "type": "function",
      "constant": true
    },
    {
      "inputs": [
        {
          "internalType": "uint256",
          "name": "baseInputAmount",
          "type": "uint256"
        },
        {
          "internalType": "uint256",
          "name": "baseReserve",
          "type": "uint256"
        },
        {
          "internalType": "uint256",
          "name": "tokenReserve",
          "type": "uint256"
        }
      ],
      "name": "getTokenOutputAmountFromBaseInput",
      "outputs": [
        {
          "internalType": "uint256",
          "name": "",
          "type": "uint256"
        }
      ],
      "stateMutability": "pure",
      "type": "function",
      "constant": true
    },
    {
      "inputs": [
        {
          "internalType": "uint256",
          "name": "tokenOutputAmount",
          "type": "uint256"
        },
        {
          "internalType": "uint256",
          "name": "baseReserve",
          "type": "uint256"
        },
        {
          "internalType": "uint256",
          "name": "tokenReserve",
          "type": "uint256"
        }
      ],
      "name": "getBaseInputAmountFromTokenOutput",
      "outputs": [
        {
          "internalType": "uint256",
          "name": "",
          "type": "uint256"
        }
      ],
      "stateMutability": "pure",
      "type": "function",
      "constant": true
    },
    {
      "inputs": [
        {
          "internalType": "uint256",
          "name": "tokenInputAmount",
          "type": "uint256"
        },
        {
          "internalType": "uint256",
          "name": "baseReserve",
          "type": "uint256"
        },
        {
          "internalType": "uint256",
          "name": "tokenReserve",
          "type": "uint256"
        }
      ],
      "name": "getBaseOutputAmountFromTokenInput",
      "outputs": [
        {
          "internalType": "uint256",
          "name": "",
          "type": "uint256"
        }
      ],
      "stateMutability": "pure",
      "type": "function",
      "constant": true
    },
    {
      "inputs": [
        {
          "internalType": "uint256",
          "name": "baseOutputAmount",
          "type": "uint256"
        },
        {
          "internalType": "uint256",
          "name": "baseReserve",
          "type": "uint256"
        },
        {
          "internalType": "uint256",
          "name": "tokenReserve",
          "type": "uint256"
        }
      ],
      "name": "getTokenInputAmountFromBaseOutput",
      "outputs": [
        {
          "internalType": "uint256",
          "name": "",
          "type": "uint256"
        }
      ],
      "stateMutability": "pure",
      "type": "function",
      "constant": true
    },
    {
      "inputs": [
        {
          "internalType": "uint256",
          "name": "baseInputAmount",
          "type": "uint256"
        },
        {
          "internalType": "uint256",
          "name": "minTokenOutput",
          "type": "uint256"
        },
        {
          "internalType": "uint256",
          "name": "deadline",
          "type": "uint256"
        }
      ],
      "name": "swapBaseToTokenWithBaseInput",
      "outputs": [],
      "stateMutability": "nonpayable",
      "type": "function"
    },
    {
      "inputs": [
        {
          "internalType": "uint256",
          "name": "maxBaseInput",
          "type": "uint256"
        },
        {
          "internalType": "uint256",
          "name": "tokenOutputAmount",
          "type": "uint256"
        },
        {
          "internalType": "uint256",
          "name": "deadline",
          "type": "uint256"
        }
      ],
      "name": "swapBaseToTokenWithTokenOutput",
      "outputs": [],
      "stateMutability": "nonpayable",
      "type": "function"
    },
    {
      "inputs": [
        {
          "internalType": "uint256",
          "name": "tokenInputAmount",
          "type": "uint256"
        },
        {
          "internalType": "uint256",
          "name": "minBaseOutput",
          "type": "uint256"
        },
        {
          "internalType": "uint256",
          "name": "deadline",
          "type": "uint256"
        }
      ],
      "name": "swapTokenToBaseWithTokenInput",
      "outputs": [],
      "stateMutability": "nonpayable",
      "type": "function"
    },
    {
      "inputs": [
        {
          "internalType": "uint256",
          "name": "maxTokenInput",
          "type": "uint256"
        },
        {
          "internalType": "uint256",
          "name": "baseOutputAmount",
          "type": "uint256"
        },
        {
          "internalType": "uint256",
          "name": "deadline",
          "type": "uint256"
        }
      ],
      "name": "swapTokenToBaseWithBaseOutput",
      "outputs": [],
      "stateMutability": "nonpayable",
      "type": "function"
    },
    {
      "inputs": [
        {
          "internalType": "uint256",
          "name": "minLP",
          "type": "uint256"
        },
        {
          "internalType": "uint256",
          "name": "baseInputAmount",
          "type": "uint256"
        },
        {
          "internalType": "uint256",
          "name": "maxTokenInputAmount",
          "type": "uint256"
        },
        {
          "internalType": "uint256",
          "name": "deadline",
          "type": "uint256"
        }
      ],
      "name": "addLP",
      "outputs": [
        {
          "internalType": "uint256",
          "name": "",
          "type": "uint256"
        }
      ],
      "stateMutability": "nonpayable",
      "type": "function"
    },
    {
      "inputs": [
        {
          "internalType": "uint256",
          "name": "amountLP",
          "type": "uint256"
        },
        {
          "internalType": "uint256",
          "name": "minBaseOutput",
          "type": "uint256"
        },
        {
          "internalType": "uint256",
          "name": "minTokenOutput",
          "type": "uint256"
        },
        {
          "internalType": "uint256",
          "name": "deadline",
          "type": "uint256"
        }
      ],
      "name": "removeLP",
      "outputs": [
        {
          "internalType": "uint256",
          "name": "",
          "type": "uint256"
        },
        {
          "internalType": "uint256",
          "name": "",
          "type": "uint256"
        }
      ],
      "stateMutability": "nonpayable",
      "type": "function"
    },
    {
      "inputs": [],
      "name": "getTotalReserve",
      "outputs": [
        {
          "internalType": "uint256",
          "name": "",
          "type": "uint256"
        },
        {
          "internalType": "uint256",
          "name": "",
          "type": "uint256"
        }
      ],
      "stateMutability": "view",
      "type": "function",
      "constant": true
    },
    {
      "inputs": [
        {
          "internalType": "bool",
          "name": "_flag",
          "type": "bool"
        }
      ],
      "name": "setOnlyOwnerCanTrade",
      "outputs": [],
      "stateMutability": "nonpayable",
      "type": "function"
    },
    {
      "inputs": [],
      "name": "pause",
      "outputs": [],
      "stateMutability": "nonpayable",
      "type": "function"
    },
    {
      "inputs": [],
      "name": "unpause",
      "outputs": [],
      "stateMutability": "nonpayable",
      "type": "function"
    }
  ],
  "bytecode": "0x60806040526002600b556000600c55600d805460ff60a01b1916600160a01b1790553480156200002e57600080fd5b506040516200507d3803806200507d83398101604081905262000051916200025a565b81816003620000618382620003bf565b506004620000708282620003bf565b5050506200008d620000876200012660201b60201c565b6200012a565b6005805460ff60a01b19169055600680546001600160a01b03199081166001600160a01b038a811691909117909255600780548216898416179055600a8054821688841617905560098054821686841617905560088054909116918616919091179055620000f83390565b600d80546001600160a01b0319166001600160a01b0392909216919091179055506200048b95505050505050565b3390565b600580546001600160a01b038381166001600160a01b0319831681179093556040519116919082907f8be0079c531659141344cd1fd0a4f28419497f9722a3daafe3b4186f6b6457e090600090a35050565b6001600160a01b03811681146200019257600080fd5b50565b634e487b7160e01b600052604160045260246000fd5b600082601f830112620001bd57600080fd5b81516001600160401b0380821115620001da57620001da62000195565b604051601f8301601f19908116603f0116810190828211818310171562000205576200020562000195565b816040528381526020925086838588010111156200022257600080fd5b600091505b8382101562000246578582018301518183018401529082019062000227565b600093810190920192909252949350505050565b600080600080600080600060e0888a0312156200027657600080fd5b875162000283816200017c565b602089015190975062000296816200017c565b6040890151909650620002a9816200017c565b6060890151909550620002bc816200017c565b6080890151909450620002cf816200017c565b60a08901519093506001600160401b0380821115620002ed57600080fd5b620002fb8b838c01620001ab565b935060c08a01519150808211156200031257600080fd5b50620003218a828b01620001ab565b91505092959891949750929550565b600181811c908216806200034557607f821691505b6020821081036200036657634e487b7160e01b600052602260045260246000fd5b50919050565b601f821115620003ba57600081815260208120601f850160051c81016020861015620003955750805b601f850160051c820191505b81811015620003b657828155600101620003a1565b5050505b505050565b81516001600160401b03811115620003db57620003db62000195565b620003f381620003ec845462000330565b846200036c565b602080601f8311600181146200042b5760008415620004125750858301515b600019600386901b1c1916600185901b178555620003b6565b600085815260208120601f198616915b828110156200045c578886015182559484019460019091019084016200043b565b50858210156200047b5787850151600019600388901b60f8161c191681555b5050505050600190811b01905550565b614be2806200049b6000396000f3fe608060405234801561001057600080fd5b50600436106102f15760003560e01c806376125deb1161019d578063b7c3ba45116100e9578063dd62ed3e116100a2578063ec0229181161007c578063ec02291814610664578063ee39e7a01461066c578063f2fde38b14610674578063fc0c546a1461068757600080fd5b8063dd62ed3e14610636578063e50a38d714610649578063ead915e31461065c57600080fd5b8063b7c3ba45146105ce578063c6e842fc146105e1578063d0e9de6c146105f4578063d132296214610607578063d2b95fb114610610578063dbcfbf2f1461062357600080fd5b80638fe6041d116101565780639fa5e63e116101305780639fa5e63e1461058d578063a457c2d7146105a0578063a9059cbb146105b3578063ac7343bd146105c657600080fd5b80638fe6041d1461055f57806395d89b411461057257806397bb21c61461057a57600080fd5b806376125deb146104f957806379cc67901461050c5780638456cb591461051f57806384900b04146105275780638660b4c11461053a5780638da5cb5b1461054e57600080fd5b80633f4ba83a1161025c57806360b1765c1161021557806370a08231116101ef57806370a08231146104a2578063711f6142146104cb578063715018a6146104de57806373dd25a3146104e657600080fd5b806360b1765c14610454578063635f95ff146104675780636662d1771461047a57600080fd5b80633f4ba83a146103f957806342966c681461040157806342eba2ce1461041457806344dca562146104275780635001f3b51461042f5780635c975abb1461044257600080fd5b806318160ddd116102ae57806318160ddd146103a057806323b872dd146103a85780632916bc10146103bb578063313ce567146103ce57806334fbc9a1146103dd57806339509351146103e657600080fd5b806303bf04c1146102f657806306fdde031461030b578063095ea7b31461032957806310a57f3a1461034c57806311fbded3146103775780631279732c14610398575b600080fd5b61030961030436600461423d565b61069a565b005b610313610c59565b6040516103209190614269565b60405180910390f35b61033c6103373660046142cc565b610ceb565b6040519015158152602001610320565b600a5461035f906001600160a01b031681565b6040516001600160a01b039091168152602001610320565b61038a6103853660046142f8565b610d05565b604051908152602001610320565b610309610d57565b60025461038a565b61033c6103b6366004614311565b610f2a565b61038a6103c936600461423d565b610f4e565b60405160128152602001610320565b61038a600c5481565b61033c6103f43660046142cc565b610fad565b610309610fcf565b61030961040f3660046142f8565b610fe1565b60085461035f906001600160a01b031681565b610309610fee565b60065461035f906001600160a01b031681565b600554600160a01b900460ff1661033c565b61038a610462366004614352565b61118c565b61038a6104753660046142f8565b611961565b61048d6104883660046142f8565b6119a8565b60408051928352602083019190915201610320565b61038a6104b0366004614384565b6001600160a01b031660009081526020819052604090205490565b61048d6104d93660046142f8565b611a3c565b610309611af1565b6103096104f436600461423d565b611b03565b61048d610507366004614352565b612096565b61030961051a3660046142cc565b61279a565b6103096127b3565b60095461035f906001600160a01b031681565b600d5461033c90600160a01b900460ff1681565b6005546001600160a01b031661035f565b61030961056d366004614384565b6127c3565b6103136127ed565b61038a61058836600461423d565b6127fc565b600d5461035f906001600160a01b031681565b61033c6105ae3660046142cc565b612855565b61033c6105c13660046142cc565b6128d0565b6103096128de565b61038a6105dc36600461423d565b612ad7565b61048d6105ef3660046142f8565b612b30565b61030961060236600461423d565b612bb3565b61038a600b5481565b61030961061e3660046143af565b613135565b61038a61063136600461423d565b61315b565b61038a6106443660046143cc565b6131ba565b61030961065736600461423d565b6131e5565b61030961377f565b61048d613978565b61038a613a66565b610309610682366004614384565b613a83565b60075461035f906001600160a01b031681565b33321461073757600954604051636c9b2a3f60e11b81523360048201526001600160a01b039091169063d936547e90602401602060405180830381865afa1580156106e9573d6000803e3d6000fd5b505050506040513d601f19601f8201168201806040525081019061070d9190614405565b15156001146107375760405162461bcd60e51b815260040161072e90614422565b60405180910390fd5b61073f613af9565b600d54600160a01b900460ff16151560010361077f576005546001600160a01b0316331461077f5760405162461bcd60e51b815260040161072e9061444d565b4281101561079f5760405162461bcd60e51b815260040161072e9061448e565b600082116107e95760405162461bcd60e51b81526020600482015260176024820152761253959053125117d3525397d09054d157d3d555141555604a1b604482015260640161072e565b600083116108095760405162461bcd60e51b815260040161072e906144b8565b6007546040516370a0823160e01b81523360048201526001600160a01b03909116906370a0823190602401602060405180830381865afa158015610851573d6000803e3d6000fd5b505050506040513d601f19601f8201168201806040525081019061087591906144e5565b8311156108c45760405162461bcd60e51b815260206004820152601f60248201527f544f4b454e5f494e5055545f4849474845525f555345525f42414c414e434500604482015260640161072e565b6000806108cf613978565b90925090508184106109345760405162461bcd60e51b815260206004820152602860248201527f4d494e5f424153455f4f55545055545f4849474845525f504f4f4c5f424153456044820152675f42414c414e434560c01b606482015260840161072e565b60006109576103e8610951600b5489613b4690919063ffffffff16565b90613b59565b905060006109658783613b65565b9050600061097482868661315b565b9050868110156109965760405162461bcd60e51b815260040161072e906144fe565b8481106109b55760405162461bcd60e51b815260040161072e9061452a565b6006546040516370a0823160e01b81523060048201526001600160a01b03909116906370a0823190602401602060405180830381865afa1580156109fd573d6000803e3d6000fd5b505050506040513d601f19601f82011682018060405250810190610a2191906144e5565b8110610a3f5760405162461bcd60e51b815260040161072e9061456e565b6007546040516323b872dd60e01b81526001600160a01b03909116906323b872dd90610a7390339030908d906004016145b6565b6020604051808303816000875af1158015610a92573d6000803e3d6000fd5b505050506040513d601f19601f82011682018060405250810190610ab69190614405565b5060065460405163a9059cbb60e01b81526001600160a01b039091169063a9059cbb90610ae990339085906004016145da565b6020604051808303816000875af1158015610b08573d6000803e3d6000fd5b505050506040513d601f19601f82011682018060405250810190610b2c9190614405565b5060075460085460405163a9059cbb60e01b81526001600160a01b039283169263a9059cbb92610b639291169087906004016145da565b6020604051808303816000875af1158015610b82573d6000803e3d6000fd5b505050506040513d601f19601f82011682018060405250810190610ba69190614405565b50600854600754604051632054895360e21b81526001600160a01b039182166004820152336024820152911690638152254c90604401600060405180830381600087803b158015610bf657600080fd5b505af1158015610c0a573d6000803e3d6000fd5b505050507fb1b8c525a87e01fd3cda717635c4b24d56deba9f9d95c4f650c022bcd0bf8f5033888a848989604051610c47969594939291906145f3565b60405180910390a15050505050505050565b606060038054610c6890614626565b80601f0160208091040260200160405190810160405280929190818152602001828054610c9490614626565b8015610ce15780601f10610cb657610100808354040283529160200191610ce1565b820191906000526020600020905b815481529060010190602001808311610cc457829003601f168201915b5050505050905090565b600033610cf9818585613b71565b60019150505b92915050565b60008080610d11613978565b600b549193509150600090610d2f906103e890610951908890613b46565b90506000610d3d8683613b65565b90506000610d4c828686610f4e565b979650505050505050565b610d5f613c96565b600a5460405163109cc30b60e21b81526001600160a01b03909116906342730c2c90610d8f90309060040161467e565b602060405180830381865afa158015610dac573d6000803e3d6000fd5b505050506040513d601f19601f82011682018060405250810190610dd09190614405565b610dec5760405162461bcd60e51b815260040161072e906146a1565b600a54604051636076dea560e11b81526000916001600160a01b03169063c0edbd4a90610e1d9030906004016146cd565b602060405180830381865afa158015610e3a573d6000803e3d6000fd5b505050506040513d601f19601f82011682018060405250810190610e5e91906144e5565b600b819055600a54604051636e977f0b60e01b81529192506001600160a01b031690636e977f0b90610e9590600290600401614717565b600060405180830381600087803b158015610eaf57600080fd5b505af1158015610ec3573d6000803e3d6000fd5b5050600a546040516345503fcb60e11b81526001600160a01b039091169250638aa07f969150610ef590600401614762565b600060405180830381600087803b158015610f0f57600080fd5b505af1158015610f23573d6000803e3d6000fd5b5050505050565b600033610f38858285613cf0565b610f43858585613d6a565b506001949350505050565b60008083118015610f5f5750600082115b610f7b5760405162461bcd60e51b815260040161072e90614774565b6000610f878385613b46565b90506000610f958587613f0e565b90506000610d4c610fa68484613b59565b8690613b65565b600033610cf9818585610fc083836131ba565b610fca91906147b1565b613b71565b610fd7613c96565b610fdf613f1a565b565b610feb3382613f6f565b50565b610ff6613c96565b600a5460405163109cc30b60e21b81526001600160a01b03909116906342730c2c906110269030906004016147e5565b602060405180830381865afa158015611043573d6000803e3d6000fd5b505050506040513d601f19601f820116820180604052508101906110679190614405565b6110835760405162461bcd60e51b815260040161072e906146a1565b600a54604051636076dea560e11b81526000916001600160a01b03169063c0edbd4a906110b4903090600401614808565b602060405180830381865afa1580156110d1573d6000803e3d6000fd5b505050506040513d601f19601f820116820180604052508101906110f591906144e5565b600c819055600a54604051636e977f0b60e01b81529192506001600160a01b031690636e977f0b9061112c90600290600401614855565b600060405180830381600087803b15801561114657600080fd5b505af115801561115a573d6000803e3d6000fd5b5050600a546040516345503fcb60e11b81526001600160a01b039091169250638aa07f969150610ef590600401614891565b600033321461122257600954604051636c9b2a3f60e11b81523360048201526001600160a01b039091169063d936547e90602401602060405180830381865afa1580156111dd573d6000803e3d6000fd5b505050506040513d601f19601f820116820180604052508101906112019190614405565b15156001146112225760405162461bcd60e51b815260040161072e90614422565b428210156112425760405162461bcd60e51b815260040161072e9061448e565b600085116112835760405162461bcd60e51b815260206004820152600e60248201526d0494e56414c49445f4d494e5f4c560941b604482015260640161072e565b600084116112a35760405162461bcd60e51b815260040161072e906148a3565b600083116112ed5760405162461bcd60e51b81526020600482015260176024820152761253959053125117d3505617d513d2d15397d253941555604a1b604482015260640161072e565b60006112f860025490565b905080600003611520576006546040516323b872dd60e01b81526001600160a01b03909116906323b872dd9061133690339030908a906004016145b6565b6020604051808303816000875af1158015611355573d6000803e3d6000fd5b505050506040513d601f19601f820116820180604052508101906113799190614405565b506007546040516323b872dd60e01b81526001600160a01b03909116906323b872dd906113ae903390309089906004016145b6565b6020604051808303816000875af11580156113cd573d6000803e3d6000fd5b505050506040513d601f19601f820116820180604052508101906113f19190614405565b50846113fd3382614099565b6006546040516370a0823160e01b81523060048201527f28e12afd967cc11b786f1b1547f5e0da96ccc91ebb09bdd406248111a634e7e591339184918a918a916001600160a01b0316906370a0823190602401602060405180830381865afa15801561146d573d6000803e3d6000fd5b505050506040513d601f19601f8201168201806040525081019061149191906144e5565b6007546040516370a0823160e01b81523060048201526001600160a01b03909116906370a0823190602401602060405180830381865afa1580156114d9573d6000803e3d6000fd5b505050506040513d601f19601f820116820180604052508101906114fd91906144e5565b60405161150f969594939291906145f3565b60405180910390a191506119599050565b60008061152b613978565b909250905060006115548261154e85610951611547828e613f0e565b8790613b46565b90613b65565b905060006115736103e8610951600c548c613b4690919063ffffffff16565b905060006115926103e8610951600c5486613b4690919063ffffffff16565b905060006115ae866109516115a78e87613b65565b8a90613b46565b9050600084116115d05760405162461bcd60e51b815260040161072e906144b8565b898411156115f05760405162461bcd60e51b815260040161072e906144b8565b8b8110156116325760405162461bcd60e51b815260206004820152600f60248201526e0494e56414c49445f4d494e545f4c5608c1b604482015260640161072e565b600660009054906101000a90046001600160a01b03166001600160a01b03166323b872dd33308e6040518463ffffffff1660e01b8152600401611677939291906145b6565b6020604051808303816000875af1158015611696573d6000803e3d6000fd5b505050506040513d601f19601f820116820180604052508101906116ba9190614405565b506007546040516323b872dd60e01b81526001600160a01b03909116906323b872dd906116ef903390309089906004016145b6565b6020604051808303816000875af115801561170e573d6000803e3d6000fd5b505050506040513d601f19601f820116820180604052508101906117329190614405565b50600654600d5460405163a9059cbb60e01b81526001600160a01b039283169263a9059cbb926117699291169087906004016145da565b6020604051808303816000875af1158015611788573d6000803e3d6000fd5b505050506040513d601f19601f820116820180604052508101906117ac9190614405565b50600754600d5460405163a9059cbb60e01b81526001600160a01b039283169263a9059cbb926117e39291169086906004016145da565b6020604051808303816000875af1158015611802573d6000803e3d6000fd5b505050506040513d601f19601f820116820180604052508101906118269190614405565b506118313382614099565b6006546040516370a0823160e01b81523060048201527f28e12afd967cc11b786f1b1547f5e0da96ccc91ebb09bdd406248111a634e7e591339184918f9189916001600160a01b0316906370a0823190602401602060405180830381865afa1580156118a1573d6000803e3d6000fd5b505050506040513d601f19601f820116820180604052508101906118c591906144e5565b6007546040516370a0823160e01b81523060048201526001600160a01b03909116906370a0823190602401602060405180830381865afa15801561190d573d6000803e3d6000fd5b505050506040513d601f19601f8201168201806040525081019061193191906144e5565b604051611943969594939291906145f3565b60405180910390a1965061195995505050505050565b949350505050565b6000808061196d613978565b600b54919350915060009061198b906103e890610951908890613b46565b905060006119998683613b65565b90506000610d4c82868661315b565b60008060006119b660025490565b9050600080826000036119cd575084905080611a31565b6000806119d8613978565b90925090506119f28261154e83610951611547828e613f0e565b92506000611a116103e8610951600c5487613b4690919063ffffffff16565b9050611a2b83610951611a248785613b65565b8990613b46565b94505050505b909590945092505050565b6000806000611a4a60025490565b905080841115611a58578093505b600080611a63613978565b90925090506000611a78846109518986613b46565b90506000611a8a856109518a86613b46565b90506000611aa96103e8610951600c5486613b4690919063ffffffff16565b90506000611ac86103e8610951600c5486613b4690919063ffffffff16565b9050611ad48483613b65565b9350611ae08382613b65565b939a93995092975050505050505050565b611af9613c96565b610fdf6000614158565b333214611b9757600954604051636c9b2a3f60e11b81523360048201526001600160a01b039091169063d936547e90602401602060405180830381865afa158015611b52573d6000803e3d6000fd5b505050506040513d601f19601f82011682018060405250810190611b769190614405565b1515600114611b975760405162461bcd60e51b815260040161072e90614422565b611b9f613af9565b600d54600160a01b900460ff161515600103611bdf576005546001600160a01b03163314611bdf5760405162461bcd60e51b815260040161072e9061444d565b42811015611bff5760405162461bcd60e51b815260040161072e9061448e565b60008311611c495760405162461bcd60e51b81526020600482015260176024820152761253959053125117d3505617d513d2d15397d253941555604a1b604482015260640161072e565b60008211611c8f5760405162461bcd60e51b81526020600482015260136024820152721253959053125117d09054d157d3d555141555606a1b604482015260640161072e565b6006546040516370a0823160e01b81523060048201526001600160a01b03909116906370a0823190602401602060405180830381865afa158015611cd7573d6000803e3d6000fd5b505050506040513d601f19601f82011682018060405250810190611cfb91906144e5565b8210611d195760405162461bcd60e51b815260040161072e9061456e565b600080611d24613978565b9092509050818410611d485760405162461bcd60e51b815260040161072e9061452a565b6000611d558584846127fc565b90506000611d746103e8610951600b5485613b4690919063ffffffff16565b9050611d808282613f0e565b915086821115611da25760405162461bcd60e51b815260040161072e906144fe565b60008211611dc25760405162461bcd60e51b815260040161072e906144b8565b6007546040516370a0823160e01b81523360048201526001600160a01b03909116906370a0823190602401602060405180830381865afa158015611e0a573d6000803e3d6000fd5b505050506040513d601f19601f82011682018060405250810190611e2e91906144e5565b821115611e7d5760405162461bcd60e51b815260206004820152601f60248201527f544f4b454e5f494e5055545f4849474845525f555345525f42414c414e434500604482015260640161072e565b6007546040516323b872dd60e01b81526001600160a01b03909116906323b872dd90611eb1903390309087906004016145b6565b6020604051808303816000875af1158015611ed0573d6000803e3d6000fd5b505050506040513d601f19601f82011682018060405250810190611ef49190614405565b5060065460405163a9059cbb60e01b81526001600160a01b039091169063a9059cbb90611f279033908a906004016145da565b6020604051808303816000875af1158015611f46573d6000803e3d6000fd5b505050506040513d601f19601f82011682018060405250810190611f6a9190614405565b5060075460085460405163a9059cbb60e01b81526001600160a01b039283169263a9059cbb92611fa19291169085906004016145da565b6020604051808303816000875af1158015611fc0573d6000803e3d6000fd5b505050506040513d601f19601f82011682018060405250810190611fe49190614405565b50600854600754604051632054895360e21b81526001600160a01b039182166004820152336024820152911690638152254c90604401600060405180830381600087803b15801561203457600080fd5b505af1158015612048573d6000803e3d6000fd5b505050507ff116a588cdba1b14c04ffd8bca7fee39286e7c8d9da59d77c036430e4b415dbc338884898888604051612085969594939291906145f3565b60405180910390a150505050505050565b60008033321461212d57600954604051636c9b2a3f60e11b81523360048201526001600160a01b039091169063d936547e90602401602060405180830381865afa1580156120e8573d6000803e3d6000fd5b505050506040513d601f19601f8201168201806040525081019061210c9190614405565b151560011461212d5760405162461bcd60e51b815260040161072e90614422565b4283101561214d5760405162461bcd60e51b815260040161072e9061448e565b600086116121915760405162461bcd60e51b81526020600482015260116024820152700494e56414c49445f414d4f554e545f4c5607c1b604482015260640161072e565b600085116121db5760405162461bcd60e51b81526020600482015260176024820152761253959053125117d3525397d09054d157d3d555141555604a1b604482015260640161072e565b600084116122265760405162461bcd60e51b81526020600482015260186024820152771253959053125117d3525397d513d2d15397d3d55514155560421b604482015260640161072e565b600061223160025490565b3360009081526020819052604090205490915080881115612250578097505b818811156122a05760405162461bcd60e51b815260206004820152601e60248201527f494e56414c49445f414d4f554e545f4c505f544f54414c5f535550504c590000604482015260640161072e565b6000806122ab613978565b909250905060006122c0856109518d86613b46565b905060006122d2866109518e86613b46565b905060006122f16103e8610951600c5486613b4690919063ffffffff16565b905060006123106103e8610951600c5486613b4690919063ffffffff16565b905061231c8483613b65565b93506123288382613b65565b92508c8410156123705760405162461bcd60e51b81526020600482015260136024820152721253959053125117d09054d157d3d555141555606a1b604482015260640161072e565b8b8310156123b75760405162461bcd60e51b81526020600482015260146024820152731253959053125117d513d2d15397d3d55514155560621b604482015260640161072e565b858411156124075760405162461bcd60e51b815260206004820152601f60248201527f424153455f4f55545055545f4849474845525f424153455f42414c414e434500604482015260640161072e565b848311156124615760405162461bcd60e51b815260206004820152602160248201527f544f4b454e5f4f55545055545f4849474845525f544f4b454e5f42414c414e436044820152604560f81b606482015260840161072e565b61246b338f613f6f565b60065460405163a9059cbb60e01b81526001600160a01b039091169063a9059cbb9061249d90339088906004016145da565b6020604051808303816000875af11580156124bc573d6000803e3d6000fd5b505050506040513d601f19601f820116820180604052508101906124e09190614405565b5060075460405163a9059cbb60e01b81526001600160a01b039091169063a9059cbb9061251390339087906004016145da565b6020604051808303816000875af1158015612532573d6000803e3d6000fd5b505050506040513d601f19601f820116820180604052508101906125569190614405565b50600654600d5460405163a9059cbb60e01b81526001600160a01b039283169263a9059cbb9261258d9291169086906004016145da565b6020604051808303816000875af11580156125ac573d6000803e3d6000fd5b505050506040513d601f19601f820116820180604052508101906125d09190614405565b50600754600d5460405163a9059cbb60e01b81526001600160a01b039283169263a9059cbb926126079291169085906004016145da565b6020604051808303816000875af1158015612626573d6000803e3d6000fd5b505050506040513d601f19601f8201168201806040525081019061264a9190614405565b507f555901717744791e9e27303c0df147d5a5eea5b7098591b2c5f2138ed6a605de338f8686600660009054906101000a90046001600160a01b03166001600160a01b03166370a08231306040518263ffffffff1660e01b81526004016126c091906001600160a01b0391909116815260200190565b602060405180830381865afa1580156126dd573d6000803e3d6000fd5b505050506040513d601f19601f8201168201806040525081019061270191906144e5565b6007546040516370a0823160e01b81523060048201526001600160a01b03909116906370a0823190602401602060405180830381865afa158015612749573d6000803e3d6000fd5b505050506040513d601f19601f8201168201806040525081019061276d91906144e5565b60405161277f969594939291906145f3565b60405180910390a150919c909b509950505050505050505050565b6127a5823383613cf0565b6127af8282613f6f565b5050565b6127bb613c96565b610fdf6141aa565b6127cb613c96565b600d80546001600160a01b0319166001600160a01b0392909216919091179055565b606060048054610c6890614626565b6000808311801561280d5750600082115b6128295760405162461bcd60e51b815260040161072e90614774565b60006128358385613b46565b905060006128438587613b65565b90506000610d4c8561154e8585613b59565b6000338161286382866131ba565b9050838110156128c35760405162461bcd60e51b815260206004820152602560248201527f45524332303a2064656372656173656420616c6c6f77616e63652062656c6f77604482015264207a65726f60d81b606482015260840161072e565b610f438286868403613b71565b600033610cf9818585613d6a565b6128e6613c96565b600a5460405163109cc30b60e21b81526001600160a01b03909116906342730c2c906129169030906004016148f6565b602060405180830381865afa158015612933573d6000803e3d6000fd5b505050506040513d601f19601f820116820180604052508101906129579190614405565b6129735760405162461bcd60e51b815260040161072e906146a1565b600a54604051636bfb078d60e01b81526000916001600160a01b031690636bfb078d906129a4903090600401614919565b602060405180830381865afa1580156129c1573d6000803e3d6000fd5b505050506040513d601f19601f820116820180604052508101906129e5919061496c565b90506001600160a01b038116612a2f5760405162461bcd60e51b815260206004820152600f60248201526e494e56414c49445f4144445245535360881b604482015260640161072e565b600980546001600160a01b0319166001600160a01b0383811691909117909155600a54604051636e977f0b60e01b8152911690636e977f0b90612a7790600190600401614989565b600060405180830381600087803b158015612a9157600080fd5b505af1158015612aa5573d6000803e3d6000fd5b5050600a546040516345503fcb60e11b81526001600160a01b039091169250638aa07f969150610ef5906004016149cb565b60008083118015612ae85750600082115b612b045760405162461bcd60e51b815260040161072e90614774565b6000612b108385613b46565b90506000612b1e8487613b65565b90506000610d4c8661154e8585613b59565b6000806000612b3e60025490565b905060008082600003612b55575084905080611a31565b600080612b60613978565b9092509050612b818161154e84610951612b7a828e613f0e565b8690613b46565b92506000612ba06103e8610951600c548c613b4690919063ffffffff16565b9050611a2b83610951611a248c85613b65565b333214612c4757600954604051636c9b2a3f60e11b81523360048201526001600160a01b039091169063d936547e90602401602060405180830381865afa158015612c02573d6000803e3d6000fd5b505050506040513d601f19601f82011682018060405250810190612c269190614405565b1515600114612c475760405162461bcd60e51b815260040161072e90614422565b612c4f613af9565b600d54600160a01b900460ff161515600103612c8f576005546001600160a01b03163314612c8f5760405162461bcd60e51b815260040161072e9061444d565b42811015612caf5760405162461bcd60e51b815260040161072e9061448e565b60008311612cf85760405162461bcd60e51b81526020600482015260166024820152751253959053125117d3505617d09054d157d25394155560521b604482015260640161072e565b60008211612d3f5760405162461bcd60e51b81526020600482015260146024820152731253959053125117d513d2d15397d3d55514155560621b604482015260640161072e565b6007546040516370a0823160e01b81523060048201526001600160a01b03909116906370a0823190602401602060405180830381865afa158015612d87573d6000803e3d6000fd5b505050506040513d601f19601f82011682018060405250810190612dab91906144e5565b8210612dc95760405162461bcd60e51b815260040161072e906149dd565b600080612dd4613978565b9092509050808410612df85760405162461bcd60e51b815260040161072e90614a26565b6000612e05858484612ad7565b90506000612e246103e8610951600b5485613b4690919063ffffffff16565b9050612e308282613f0e565b915086821115612e525760405162461bcd60e51b815260040161072e906144fe565b60008211612e725760405162461bcd60e51b815260040161072e906148a3565b6006546040516370a0823160e01b81523360048201526001600160a01b03909116906370a0823190602401602060405180830381865afa158015612eba573d6000803e3d6000fd5b505050506040513d601f19601f82011682018060405250810190612ede91906144e5565b821115612f2d5760405162461bcd60e51b815260206004820152601e60248201527f424153455f494e5055545f4849474845525f555345525f42414c414e43450000604482015260640161072e565b6006546040516323b872dd60e01b81526001600160a01b03909116906323b872dd90612f61903390309087906004016145b6565b6020604051808303816000875af1158015612f80573d6000803e3d6000fd5b505050506040513d601f19601f82011682018060405250810190612fa49190614405565b5060075460405163a9059cbb60e01b81526001600160a01b039091169063a9059cbb90612fd79033908a906004016145da565b6020604051808303816000875af1158015612ff6573d6000803e3d6000fd5b505050506040513d601f19601f8201168201806040525081019061301a9190614405565b5060065460085460405163a9059cbb60e01b81526001600160a01b039283169263a9059cbb926130519291169085906004016145da565b6020604051808303816000875af1158015613070573d6000803e3d6000fd5b505050506040513d601f19601f820116820180604052508101906130949190614405565b50600854600654604051632054895360e21b81526001600160a01b039182166004820152336024820152911690638152254c90604401600060405180830381600087803b1580156130e457600080fd5b505af11580156130f8573d6000803e3d6000fd5b505050507f6e9d5a0202c67970b52b10deb68f1641a9408d90db857bc984d008c1be70383a338884898888604051612085969594939291906145f3565b61313d613c96565b600d8054911515600160a01b0260ff60a01b19909216919091179055565b6000808311801561316c5750600082115b6131885760405162461bcd60e51b815260040161072e90614774565b60006131948385613b46565b905060006131a28487613f0e565b90506000610d4c6131b38484613b59565b8790613b65565b6001600160a01b03918216600090815260016020908152604080832093909416825291909152205490565b33321461327957600954604051636c9b2a3f60e11b81523360048201526001600160a01b039091169063d936547e90602401602060405180830381865afa158015613234573d6000803e3d6000fd5b505050506040513d601f19601f820116820180604052508101906132589190614405565b15156001146132795760405162461bcd60e51b815260040161072e90614422565b613281613af9565b600d54600160a01b900460ff1615156001036132c1576005546001600160a01b031633146132c15760405162461bcd60e51b815260040161072e9061444d565b428110156132e15760405162461bcd60e51b815260040161072e9061448e565b600083116133015760405162461bcd60e51b815260040161072e906148a3565b6000821161334c5760405162461bcd60e51b81526020600482015260186024820152771253959053125117d3525397d513d2d15397d3d55514155560421b604482015260640161072e565b6006546040516370a0823160e01b81523360048201526001600160a01b03909116906370a0823190602401602060405180830381865afa158015613394573d6000803e3d6000fd5b505050506040513d601f19601f820116820180604052508101906133b891906144e5565b8311156134075760405162461bcd60e51b815260206004820152601e60248201527f424153455f494e5055545f4849474845525f555345525f42414c414e43450000604482015260640161072e565b600080613412613978565b90925090508084106134725760405162461bcd60e51b815260206004820152602360248201527f4d494e5f544f4b454e5f4849474845525f504f4f4c5f544f4b454e5f42414c416044820152624e434560e81b606482015260840161072e565b600061348f6103e8610951600b5489613b4690919063ffffffff16565b9050600061349d8783613b65565b905060006134ac828686610f4e565b9050868110156134ce5760405162461bcd60e51b815260040161072e906144fe565b8381106134ed5760405162461bcd60e51b815260040161072e90614a26565b6007546040516370a0823160e01b81523060048201526001600160a01b03909116906370a0823190602401602060405180830381865afa158015613535573d6000803e3d6000fd5b505050506040513d601f19601f8201168201806040525081019061355991906144e5565b81106135775760405162461bcd60e51b815260040161072e906149dd565b6006546040516323b872dd60e01b81526001600160a01b03909116906323b872dd906135ab90339030908d906004016145b6565b6020604051808303816000875af11580156135ca573d6000803e3d6000fd5b505050506040513d601f19601f820116820180604052508101906135ee9190614405565b5060075460405163a9059cbb60e01b81526001600160a01b039091169063a9059cbb9061362190339085906004016145da565b6020604051808303816000875af1158015613640573d6000803e3d6000fd5b505050506040513d601f19601f820116820180604052508101906136649190614405565b5060065460085460405163a9059cbb60e01b81526001600160a01b039283169263a9059cbb9261369b9291169087906004016145da565b6020604051808303816000875af11580156136ba573d6000803e3d6000fd5b505050506040513d601f19601f820116820180604052508101906136de9190614405565b50600854600654604051632054895360e21b81526001600160a01b039182166004820152336024820152911690638152254c90604401600060405180830381600087803b15801561372e57600080fd5b505af1158015613742573d6000803e3d6000fd5b505050507fd294be030e23d0862312f418541ec01d571908715169f1cb1109bba3212b8c2d33888a848989604051610c47969594939291906145f3565b613787613c96565b600a5460405163109cc30b60e21b81526001600160a01b03909116906342730c2c906137b7903090600401614a94565b602060405180830381865afa1580156137d4573d6000803e3d6000fd5b505050506040513d601f19601f820116820180604052508101906137f89190614405565b6138145760405162461bcd60e51b815260040161072e906146a1565b600a54604051636bfb078d60e01b81526000916001600160a01b031690636bfb078d90613845903090600401614ab7565b602060405180830381865afa158015613862573d6000803e3d6000fd5b505050506040513d601f19601f82011682018060405250810190613886919061496c565b90506001600160a01b0381166138d05760405162461bcd60e51b815260206004820152600f60248201526e494e56414c49445f4144445245535360881b604482015260640161072e565b600880546001600160a01b0319166001600160a01b0383811691909117909155600a54604051636e977f0b60e01b8152911690636e977f0b9061391890600190600401614b0b565b600060405180830381600087803b15801561393257600080fd5b505af1158015613946573d6000803e3d6000fd5b5050600a546040516345503fcb60e11b81526001600160a01b039091169250638aa07f969150610ef590600401614b4e565b6006546040516370a0823160e01b8152306004820152600091829182916001600160a01b0316906370a0823190602401602060405180830381865afa1580156139c5573d6000803e3d6000fd5b505050506040513d601f19601f820116820180604052508101906139e991906144e5565b6007546040516370a0823160e01b81523060048201529192506000916001600160a01b03909116906370a0823190602401602060405180830381865afa158015613a37573d6000803e3d6000fd5b505050506040513d601f19601f82011682018060405250810190613a5b91906144e5565b919491935090915050565b60008080613a72613978565b909250905060006119598284613b46565b613a8b613c96565b6001600160a01b038116613af05760405162461bcd60e51b815260206004820152602660248201527f4f776e61626c653a206e6577206f776e657220697320746865207a65726f206160448201526564647265737360d01b606482015260840161072e565b610feb81614158565b600554600160a01b900460ff1615610fdf5760405162461bcd60e51b815260206004820152601060248201526f14185d5cd8589b194e881c185d5cd95960821b604482015260640161072e565b6000613b528284614b60565b9392505050565b6000613b528284614b77565b6000613b528284614b99565b6001600160a01b038316613bd35760405162461bcd60e51b8152602060048201526024808201527f45524332303a20617070726f76652066726f6d20746865207a65726f206164646044820152637265737360e01b606482015260840161072e565b6001600160a01b038216613c345760405162461bcd60e51b815260206004820152602260248201527f45524332303a20617070726f766520746f20746865207a65726f206164647265604482015261737360f01b606482015260840161072e565b6001600160a01b0383811660008181526001602090815260408083209487168084529482529182902085905590518481527f8c5be1e5ebec7d5bd14f71427d1e84f3dd0314c0f7b2291e5b200ac8c7c3b92591015b60405180910390a3505050565b6005546001600160a01b03163314610fdf5760405162461bcd60e51b815260206004820181905260248201527f4f776e61626c653a2063616c6c6572206973206e6f7420746865206f776e6572604482015260640161072e565b6000613cfc84846131ba565b90506000198114613d645781811015613d575760405162461bcd60e51b815260206004820152601d60248201527f45524332303a20696e73756666696369656e7420616c6c6f77616e6365000000604482015260640161072e565b613d648484848403613b71565b50505050565b6001600160a01b038316613dce5760405162461bcd60e51b815260206004820152602560248201527f45524332303a207472616e736665722066726f6d20746865207a65726f206164604482015264647265737360d81b606482015260840161072e565b6001600160a01b038216613e305760405162461bcd60e51b815260206004820152602360248201527f45524332303a207472616e7366657220746f20746865207a65726f206164647260448201526265737360e81b606482015260840161072e565b6001600160a01b03831660009081526020819052604090205481811015613ea85760405162461bcd60e51b815260206004820152602660248201527f45524332303a207472616e7366657220616d6f756e7420657863656564732062604482015265616c616e636560d01b606482015260840161072e565b6001600160a01b03848116600081815260208181526040808320878703905593871680835291849020805487019055925185815290927fddf252ad1be2c89b69c2b068fc378daa952ba7f163c4a11628f55a4df523b3ef910160405180910390a3613d64565b6000613b5282846147b1565b613f226141ed565b6005805460ff60a01b191690557f5db9ee0a495bf2e6ff9c91a7834c1ba4fdd244a5e8aa4e537bd38aeae4b073aa335b6040516001600160a01b03909116815260200160405180910390a1565b6001600160a01b038216613fcf5760405162461bcd60e51b815260206004820152602160248201527f45524332303a206275726e2066726f6d20746865207a65726f206164647265736044820152607360f81b606482015260840161072e565b6001600160a01b038216600090815260208190526040902054818110156140435760405162461bcd60e51b815260206004820152602260248201527f45524332303a206275726e20616d6f756e7420657863656564732062616c616e604482015261636560f01b606482015260840161072e565b6001600160a01b0383166000818152602081815260408083208686039055600280548790039055518581529192917fddf252ad1be2c89b69c2b068fc378daa952ba7f163c4a11628f55a4df523b3ef9101613c89565b6001600160a01b0382166140ef5760405162461bcd60e51b815260206004820152601f60248201527f45524332303a206d696e7420746f20746865207a65726f206164647265737300604482015260640161072e565b806002600082825461410191906147b1565b90915550506001600160a01b038216600081815260208181526040808320805486019055518481527fddf252ad1be2c89b69c2b068fc378daa952ba7f163c4a11628f55a4df523b3ef910160405180910390a35050565b600580546001600160a01b038381166001600160a01b0319831681179093556040519116919082907f8be0079c531659141344cd1fd0a4f28419497f9722a3daafe3b4186f6b6457e090600090a35050565b6141b2613af9565b6005805460ff60a01b1916600160a01b1790557f62e78cea01bee320cd4e420270b5ea74000d11b0c9f74754ebdbfc544b05a258613f523390565b600554600160a01b900460ff16610fdf5760405162461bcd60e51b815260206004820152601460248201527314185d5cd8589b194e881b9bdd081c185d5cd95960621b604482015260640161072e565b60008060006060848603121561425257600080fd5b505081359360208301359350604090920135919050565b600060208083528351808285015260005b818110156142965785810183015185820160400152820161427a565b506000604082860101526040601f19601f8301168501019250505092915050565b6001600160a01b0381168114610feb57600080fd5b600080604083850312156142df57600080fd5b82356142ea816142b7565b946020939093013593505050565b60006020828403121561430a57600080fd5b5035919050565b60008060006060848603121561432657600080fd5b8335614331816142b7565b92506020840135614341816142b7565b929592945050506040919091013590565b6000806000806080858703121561436857600080fd5b5050823594602084013594506040840135936060013592509050565b60006020828403121561439657600080fd5b8135613b52816142b7565b8015158114610feb57600080fd5b6000602082840312156143c157600080fd5b8135613b52816143a1565b600080604083850312156143df57600080fd5b82356143ea816142b7565b915060208301356143fa816142b7565b809150509250929050565b60006020828403121561441757600080fd5b8151613b52816143a1565b6020808252601190820152701253959053125117d5d2125511531254d5607a1b604082015260600190565b60208082526021908201527f4f4e4c595f4f574e45525f43414e5f54524144455f4f4e5f544849535f5041496040820152602960f91b606082015260800190565b60208082526010908201526f494e56414c49445f444541444c494e4560801b604082015260600190565b6020808252601390820152721253959053125117d513d2d15397d253941555606a1b604082015260600190565b6000602082840312156144f757600080fd5b5051919050565b60208082526012908201527143414e5f4e4f545f4d414b455f545241444560701b604082015260600190565b60208082526024908201527f424153455f4f55545055545f4849474845525f504f4f4c5f424153455f42414c604082015263414e434560e01b606082015260800190565b60208082526028908201527f424153455f4f55545055545f4849474845525f43555252454e545f54524144456040820152675f42414c414e434560c01b606082015260800190565b6001600160a01b039384168152919092166020820152604081019190915260600190565b6001600160a01b03929092168252602082015260400190565b6001600160a01b03969096168652602086019490945260408501929092526060840152608083015260a082015260c00190565b600181811c9082168061463a57607f821691505b60208210810361465a57634e487b7160e01b600052602260045260246000fd5b50919050565b600b81526a736574547261646546656560a81b602082015260400190565b6001600160a01b0382168152604060208201819052600090613b52908301614660565b60208082526012908201527124a72b20a624a22fa822a926a4a9a9a4a7a760711b604082015260600190565b6001600160a01b03821681526060602082018190526000906146f0908301614660565b8281036040840152611959816008815267747261646546656560c01b602082015260400190565b60608152600061472960608301614660565b8281036020840152614750816008815267747261646546656560c01b602082015260400190565b91505060ff8316604083015292915050565b602081526000610cff60208301614660565b6020808252600d908201526c494e56414c49445f56414c554560981b604082015260600190565b634e487b7160e01b600052601160045260246000fd5b80820180821115610cff57610cff61479b565b600e81526d736574506c6174666f726d46656560901b602082015260400190565b6001600160a01b0382168152604060208201819052600090613b529083016147c4565b6001600160a01b038216815260606020820181905260009061482b9083016147c4565b828103604084015261195981600b81526a706c6174666f726d46656560a81b602082015260400190565b606081526000614867606083016147c4565b828103602084015261475081600b81526a706c6174666f726d46656560a81b602082015260400190565b602081526000610cff602083016147c4565b6020808252601290820152711253959053125117d09054d157d25394155560721b604082015260600190565b60148152731cd95d15da1a5d195b1a5cdd10dbdb9d1c9858dd60621b602082015260400190565b6001600160a01b0382168152604060208201819052600090613b529083016148cf565b6001600160a01b038216815260606020820181905260009061493c9083016148cf565b82810360408401526119598160118152701dda1a5d195b1a5cdd10dbdb9d1c9858dd607a1b602082015260400190565b60006020828403121561497e57600080fd5b8151613b52816142b7565b60608152600061499b606083016148cf565b82810360208401526147508160118152701dda1a5d195b1a5cdd10dbdb9d1c9858dd607a1b602082015260400190565b602081526000610cff602083016148cf565b60208082526029908201527f544f4b454e5f4f55545055545f4849474845525f43555252454e545f54524144604082015268455f42414c414e434560b81b606082015260800190565b60208082526026908201527f544f4b454e5f4f55545055545f4849474845525f504f4f4c5f544f4b454e5f42604082015265414c414e434560d01b606082015260800190565b60158152741cd95d119959535858da1a5b9950dbdb9d1c9858dd605a1b602082015260400190565b6001600160a01b0382168152604060208201819052600090613b52908301614a6c565b6001600160a01b0382168152606060208201819052600090614ada908301614a6c565b8281036040840152611959816012815271199959535858da1a5b9950dbdb9d1c9858dd60721b602082015260400190565b606081526000614b1d60608301614a6c565b8281036020840152614750816012815271199959535858da1a5b9950dbdb9d1c9858dd60721b602082015260400190565b602081526000610cff60208301614a6c565b8082028115828204841417610cff57610cff61479b565b600082614b9457634e487b7160e01b600052601260045260246000fd5b500490565b81810381811115610cff57610cff61479b56fea26469706673582212202bb5bef1dff49c2f069bad1b4a36c6b1b7ebea635d40f75db827c613e149632864736f6c63430008110033",
  "immutableReferences": {},
  "source": "// SPDX-License-Identifier: MIT\npragma solidity >=0.6.12;\n\nimport \"@openzeppelin/contracts/utils/math/SafeMath.sol\";\nimport \"@openzeppelin/contracts/token/ERC20/IERC20.sol\";\nimport \"@openzeppelin/contracts/token/ERC20/ERC20.sol\";\nimport \"@openzeppelin/contracts/token/ERC20/extensions/ERC20Burnable.sol\";\nimport \"@openzeppelin/contracts/utils/Context.sol\";\nimport \"@openzeppelin/contracts/access/Ownable.sol\";\nimport \"@openzeppelin/contracts/security/Pausable.sol\";\n\nimport './interfaces/IGarbiswapFeeMachine.sol';\nimport './interfaces/IGarbiswapWhitelist.sol';\nimport './interfaces/IGarbiTimeLock.sol';\n\ncontract GarbiswapTradeGRBWETH is ERC20Burnable, Ownable, Pausable {\n    \n    using SafeMath for uint256;\n\n    IERC20 public base; // Stable coin base token (WETH)\n    IERC20 public token; // Token to trade in this pair\n\n    // Fee Machine Contract.\n    IGarbiswapFeeMachine public feeMachineContract; \n\n    IGarbiswapWhitelist public whitelistContract; \n\n    IGarbiTimeLock public garbiTimeLockContract;\n\n    uint256 public TRADE_FEE = 2; //0.2% 2/1000\n\n    uint256 public PLATFORM_FEE = 0; //2.5% 25/1000\n\n    address public platformFundAddress;\n\n    bool public onlyOwnerCanTradeFlag = true;\n\n    modifier onlyWhitelist()\n    {\n        if (msg.sender != tx.origin) {\n            require(whitelistContract.whitelisted(msg.sender) == true, 'INVALID_WHITELIST');\n        }\n        _;\n    }\n\n    modifier onlyOwnerCanTrade() //to prevent arbitrage bot at the first time\n    {\n        if (onlyOwnerCanTradeFlag == true) {\n            require(_msgSender() == owner(), 'ONLY_OWNER_CAN_TRADE_ON_THIS_PAIR');\n        }\n        _;\n    }\n\n    // Events\n\n    event onSwapBaseToTokenWithBaseInput(address sender, uint256 minTokenOutput, uint256 baseInputAmount, uint256 tokenOutputAmount, uint256 poolBaseBalance, uint256 poolTokenBalance);\n    event onSwapBaseToTokenWithTokenOutput(address sender, uint256 maxBaseInput, uint256 baseInputAmount, uint256 tokenOutputAmount, uint256 poolBaseBalance, uint256 poolTokenBalance);\n    \n    event onSwapTokenToBaseWithTokenInput(address sender, uint256 minBaseOutput, uint256 tokenInputAmount, uint256 baseOutputAmount, uint256 poolBaseBalance, uint256 poolTokenBalance);\n    event onSwapTokenToBaseWithBaseOutput(address sender, uint256 maxTokenInput, uint256 tokenInputAmount, uint256 baseOutputAmount, uint256 poolBaseBalance, uint256 poolTokenBalance);\n\n    event onAddLP(address sender, uint256 mintLP, uint256 baseInputAmount, uint256 tokenInputAmount, uint256 poolBaseBalance, uint256 poolTokenBalance);\n    event onRemoveLP(address sender, uint256 amountLP, uint256 baseOutputAmout, uint256 tokenOutputAmount, uint256 poolBaseBalance, uint256 poolTokenBalance);\n\n    constructor(\n        IERC20 _base,\n        IERC20 _token,\n        IGarbiTimeLock _garbiTimeLockContract,\n        IGarbiswapFeeMachine _feeMachineContract,\n        IGarbiswapWhitelist _whitelistContract,\n        string memory name, \n        string memory symbol\n        ) ERC20(name, symbol) {\n        base = _base;\n        token = _token;\n        garbiTimeLockContract = _garbiTimeLockContract;\n        whitelistContract = _whitelistContract;\n        feeMachineContract = _feeMachineContract;\n        platformFundAddress = _msgSender();\n    }\n    \n    function setWhitelistContract() public onlyOwner {\n        require(garbiTimeLockContract.isQueuedTransaction(address(this), 'setWhitelistContract'), \"INVALID_PERMISSION\");\n\n        address _whitelistContract = garbiTimeLockContract.getAddressChangeOnTimeLock(address(this), 'setWhitelistContract', 'whitelistContract');\n\n        require(_whitelistContract != address(0), \"INVALID_ADDRESS\");\n\n        whitelistContract = IGarbiswapWhitelist(_whitelistContract);\n\n        garbiTimeLockContract.clearFieldValue('setWhitelistContract', 'whitelistContract', 1);\n        garbiTimeLockContract.doneTransactions('setWhitelistContract');\n    }\n\n    function setFeeMachineContract() public onlyOwner {\n\n        require(garbiTimeLockContract.isQueuedTransaction(address(this), 'setFeeMachineContract'), \"INVALID_PERMISSION\");\n\n        address _feeMachineContract = garbiTimeLockContract.getAddressChangeOnTimeLock(address(this), 'setFeeMachineContract', 'feeMachineContract');\n\n        require(_feeMachineContract != address(0), \"INVALID_ADDRESS\");\n\n        feeMachineContract = IGarbiswapFeeMachine(_feeMachineContract);\n\n        garbiTimeLockContract.clearFieldValue('setFeeMachineContract', 'feeMachineContract', 1);\n        garbiTimeLockContract.doneTransactions('setFeeMachineContract');\n    }\n\n    function setTradeFee() public onlyOwner {\n\n        require(garbiTimeLockContract.isQueuedTransaction(address(this), 'setTradeFee'), \"INVALID_PERMISSION\");\n\n        uint256 _tradeFee = garbiTimeLockContract.getUintChangeOnTimeLock(address(this), 'setTradeFee', 'tradeFee');\n\n        TRADE_FEE = _tradeFee;\n\n        garbiTimeLockContract.clearFieldValue('setTradeFee', 'tradeFee', 2);\n        garbiTimeLockContract.doneTransactions('setTradeFee');\n    }\n\n    function setPlatformFee() public onlyOwner {\n\n        require(garbiTimeLockContract.isQueuedTransaction(address(this), 'setPlatformFee'), \"INVALID_PERMISSION\");\n\n        uint256 _platformFee = garbiTimeLockContract.getUintChangeOnTimeLock(address(this), 'setPlatformFee', 'platformFee');\n\n        PLATFORM_FEE = _platformFee;\n\n        garbiTimeLockContract.clearFieldValue('setPlatformFee', 'platformFee', 2);\n        garbiTimeLockContract.doneTransactions('setPlatformFee');\n    }\n\n    function setPlatformFundAdress(address newAddress) public onlyOwner {\n        platformFundAddress = newAddress;\n    }\n\n    function getK() public view returns(uint256) {\n        uint256 baseReserve = 0;\n        uint256 tokenReserve = 0;\n        (baseReserve, tokenReserve) = getTotalReserve();\n        uint256 k = tokenReserve.mul(baseReserve);\n        return k;\n    }\n\n    function getTokenOutput(uint256 baseInputAmount) public view returns (uint256) {\n        uint256 baseReserve = 0;\n        uint256 tokenReserve = 0;\n        (baseReserve, tokenReserve) = getTotalReserve();\n\n        uint256 tradeFee = baseInputAmount.mul(TRADE_FEE).div(1000);\n        uint256 baseInputAmountAfterFee = baseInputAmount.sub(tradeFee); // cut the TRADE_FEE from base input\n\n        uint256 tokenOutputAmount = getTokenOutputAmountFromBaseInput(baseInputAmountAfterFee, baseReserve, tokenReserve);\n        return tokenOutputAmount;\n    }\n\n    function getBaseOutput(uint256 tokenInputAmount) public view returns (uint256) {\n        uint256 baseReserve = 0;\n        uint256 tokenReserve = 0;\n        (baseReserve, tokenReserve) = getTotalReserve();\n\n        uint256 tradeFee = tokenInputAmount.mul(TRADE_FEE).div(1000);\n        uint256 tokenInputAmountAfterFee = tokenInputAmount.sub(tradeFee); // cut the TRADE_FEE from token input\n\n        uint256 baseOutputAmount = getBaseOutputAmountFromTokenInput(tokenInputAmountAfterFee, baseReserve, tokenReserve);\n        return baseOutputAmount;\n    }\n\n    function getDataFromBaseInputToAddLp(uint256 baseInputAmount) public view returns (uint256, uint256) {\n        uint256 totalSupply = totalSupply();\n        uint256 mintLP = 0;\n        uint256 tokenInputAmount = 0;\n        if(totalSupply == 0) {\n            mintLP = baseInputAmount;\n            tokenInputAmount = baseInputAmount;\n        }\n        else { \n            // tokenReserve/baseReserve = (tokenReserve+tokenInputAmount)/(baseReserve+baseInputAmount)\n            // => tokenReserve+tokenInputAmount = tokenReserve*(baseReserve+baseInputAmount)/baseReserve\n            // => tokenInputAmount = tokenReserve*(baseReserve+baseInputAmount)/baseReserve - tokenReserve;\n            uint256 baseReserve = 0;\n            uint256 tokenReserve = 0;\n            (baseReserve, tokenReserve) = getTotalReserve();\n            tokenInputAmount = tokenReserve.mul(baseReserve.add(baseInputAmount)).div(baseReserve).sub(tokenReserve);\n\n            uint256 platformFeeOnBase = baseInputAmount.mul(PLATFORM_FEE).div(1000);\n\n            // mintLP/totalLP =  baseInputAmount/baseReserve\n            // mintLP = totalLP*baseInputAmount/baseReserve\n            mintLP = totalSupply.mul(baseInputAmount.sub(platformFeeOnBase)).div(baseReserve);\n        }\n        return (mintLP, tokenInputAmount);\n    }\n\n    function getDataFromTokenInputToAddLp(uint256 tokenInputAmount) public view returns (uint256, uint256) {\n        uint256 totalSupply = totalSupply();\n        uint256 mintLP;\n        uint256 baseInputAmount;\n        if(totalSupply == 0) {\n            mintLP = tokenInputAmount;\n            baseInputAmount = tokenInputAmount;\n        }\n        else { \n            // tokenReserve/baseReserve = (tokenReserve+tokenInputAmount)/(baseReserve+baseInputAmount)\n            // => (baseReserve+baseInputAmount) = (tokenReserve+tokenInputAmount) * baseReserve / tokenReserve\n            //  => baseInputAmount = (tokenReserve+tokenInputAmount) * baseReserve / tokenReserve - baseReserve\n            uint256 baseReserve = 0;\n            uint256 tokenReserve = 0;\n            (baseReserve, tokenReserve) = getTotalReserve();\n\n            baseInputAmount = baseReserve.mul(tokenReserve.add(tokenInputAmount)).div(tokenReserve).sub(baseReserve);\n\n            uint256 platformFeeOnBase = baseInputAmount.mul(PLATFORM_FEE).div(1000);\n\n            // mintLP/totalLP =  baseInputAmount/baseReserve\n            // mintLP = totalLP*baseInputAmount/baseReserve\n            mintLP = totalSupply.mul(baseInputAmount.sub(platformFeeOnBase)).div(baseReserve);\n        }\n        return (mintLP, baseInputAmount);\n    }\n\n    function getDataToRemoveLP(uint256 amountLP) public view returns (uint256, uint256){\n        \n        uint256 totalSupply = totalSupply();\n\n        if (amountLP > totalSupply) {\n            amountLP = totalSupply;\n        } \n        uint256 baseReserve = 0;\n        uint256 tokenReserve = 0;\n        (baseReserve, tokenReserve) = getTotalReserve();\n        \n        // amountLP/totalSupply = baseOutputAmount/baseReserve\n        // => baseOutputAmount = amountLP*baseReserve/totalSupply\n        uint256 baseOutputAmount = amountLP.mul(baseReserve).div(totalSupply);\n        uint256 tokenOutputAmount = amountLP.mul(tokenReserve).div(totalSupply);\n        \n        uint256 platformFeeOnBase = baseOutputAmount.mul(PLATFORM_FEE).div(1000);\n        uint256 platformFeeOnToken = tokenOutputAmount.mul(PLATFORM_FEE).div(1000);\n        \n        baseOutputAmount = baseOutputAmount.sub(platformFeeOnBase);\n        tokenOutputAmount = tokenOutputAmount.sub(platformFeeOnToken);\n        \n        return (baseOutputAmount, tokenOutputAmount);\n    }\n    \n    // token*base=(token-tokenOutputAmount)*(base+baseInputAmount)\n    //token-tokenOutputAmount = token*base/(base+baseInputAmount)\n    // => tokenOutputAmount=token - token*base/(base+baseInputAmount)\n    function getTokenOutputAmountFromBaseInput(uint256 baseInputAmount, uint256 baseReserve, uint256 tokenReserve) public pure returns (uint256) {\n      require(baseReserve > 0 && tokenReserve > 0, \"INVALID_VALUE\");\n      uint256 numerator = tokenReserve.mul(baseReserve);\n      uint256 denominator = baseReserve.add(baseInputAmount);\n      uint256 tokenOutputAmount = tokenReserve.sub(numerator.div(denominator));\n      return tokenOutputAmount;\n    }\n    \n    // token*base=(token-tokenOutputAmount)*(base+baseInputAmount)\n    // base+baseInputAmount = token*base/(token-tokenOutputAmount)\n    //baseInputAmount = token*base/(token-tokenOutputAmount) - base;\n    function getBaseInputAmountFromTokenOutput(uint256 tokenOutputAmount, uint256 baseReserve, uint256 tokenReserve) public pure  returns (uint256) {\n      require(baseReserve > 0 && tokenReserve > 0, \"INVALID_VALUE\");\n      uint256 numerator = tokenReserve.mul(baseReserve);\n      uint256 denominator = tokenReserve.sub(tokenOutputAmount);\n      uint256 baseInputAmount = numerator.div(denominator).sub(baseReserve);\n      return baseInputAmount;\n    }\n    \n    // token*base=(token+tokenInputAmount)*(base-baseOutputAmount)\n    // => base - baseOutputAmount=token*base/(token+tokenInputAmount)\n    // => baseOutputAmount = base - token*base/(token+tokenInputAmount)\n    function getBaseOutputAmountFromTokenInput(uint256 tokenInputAmount, uint256 baseReserve, uint256 tokenReserve) public pure returns (uint256) {\n      require(baseReserve > 0 && tokenReserve > 0, \"INVALID_VALUE\");\n      uint256 numerator = tokenReserve.mul(baseReserve);\n      uint256 denominator = tokenReserve.add(tokenInputAmount);\n      uint256 baseOutputAmount = baseReserve.sub(numerator.div(denominator));\n      return baseOutputAmount;\n    }\n\n    // token*base=(token+tokenInputAmount)*(base-baseOutputAmount)\n    // => token+tokenInputAmount = token*base/(base-baseOutputAmount)\n    // => tokenInputAmount = token*base/(base-baseOutputAmount) - token\n    function getTokenInputAmountFromBaseOutput(uint256 baseOutputAmount, uint256 baseReserve, uint256 tokenReserve) public pure returns (uint256) {\n      require(baseReserve > 0 && tokenReserve > 0, \"INVALID_VALUE\");\n      uint256 numerator = tokenReserve.mul(baseReserve);\n      uint256 denominator = baseReserve.sub(baseOutputAmount);\n      uint256 tokenInputAmount = numerator.div(denominator).sub(tokenReserve);\n      return tokenInputAmount;\n    }\n\n    function swapBaseToTokenWithBaseInput(uint256 baseInputAmount, uint256 minTokenOutput, uint256 deadline) public onlyWhitelist whenNotPaused onlyOwnerCanTrade {\n        require(deadline >= block.timestamp, 'INVALID_DEADLINE');\n        require(baseInputAmount > 0, 'INVALID_BASE_INPUT');\n        require(minTokenOutput > 0, 'INVALID_MIN_TOKEN_OUTPUT');\n        require(baseInputAmount <= base.balanceOf(msg.sender), 'BASE_INPUT_HIGHER_USER_BALANCE');\n        \n        uint256 baseReserve = 0;\n        uint256 tokenReserve = 0;\n        (baseReserve, tokenReserve) = getTotalReserve();\n        require(minTokenOutput < tokenReserve, \"MIN_TOKEN_HIGHER_POOL_TOKEN_BALANCE\");\n\n        uint256 tradeFee = baseInputAmount.mul(TRADE_FEE).div(1000);\n        uint256 baseInputAmountAfterFee = baseInputAmount.sub(tradeFee); // cut the TRADE_FEE from base input\n        \n        uint256 tokenOutputAmount = getTokenOutputAmountFromBaseInput(baseInputAmountAfterFee, baseReserve, tokenReserve);\n\n        require(tokenOutputAmount >= minTokenOutput, 'CAN_NOT_MAKE_TRADE');\n        require(tokenOutputAmount < tokenReserve, 'TOKEN_OUTPUT_HIGHER_POOL_TOKEN_BALANCE');\n        require(tokenOutputAmount < token.balanceOf(address(this)), 'TOKEN_OUTPUT_HIGHER_CURRENT_TRADE_BALANCE'); // output is higher than the trade contract balance\n        \n        //make trade\n        base.transferFrom(msg.sender, address(this), baseInputAmount);\n        token.transfer(msg.sender, tokenOutputAmount);\n\n        //transfer fee\n        base.transfer(address(feeMachineContract), tradeFee);\n        feeMachineContract.processTradeFee(base, msg.sender); \n\n        emit onSwapBaseToTokenWithBaseInput(msg.sender, minTokenOutput, baseInputAmount, tokenOutputAmount, baseReserve, tokenReserve);\n    }\n\n    function swapBaseToTokenWithTokenOutput(uint256 maxBaseInput, uint256 tokenOutputAmount, uint256 deadline) public onlyWhitelist whenNotPaused onlyOwnerCanTrade {\n        require(deadline >= block.timestamp, 'INVALID_DEADLINE');\n        require(maxBaseInput > 0, 'INVALID_MAX_BASE_INPUT');\n        require(tokenOutputAmount > 0, 'INVALID_TOKEN_OUTPUT');\n        require(tokenOutputAmount < token.balanceOf(address(this)), 'TOKEN_OUTPUT_HIGHER_CURRENT_TRADE_BALANCE'); // output is higher than the trade contract balance\n        \n        uint256 baseReserve = 0;\n        uint256 tokenReserve = 0;\n        (baseReserve, tokenReserve) = getTotalReserve();\n        require(tokenOutputAmount < tokenReserve, \"TOKEN_OUTPUT_HIGHER_POOL_TOKEN_BALANCE\");\n\n        uint256 baseInputAmount = getBaseInputAmountFromTokenOutput(tokenOutputAmount, baseReserve, tokenReserve);\n        \n        uint256 tradeFee = baseInputAmount.mul(TRADE_FEE).div(1000);\n        baseInputAmount = baseInputAmount.add(tradeFee); // add the TRADE_FEE to base input\n\n        require(baseInputAmount <= maxBaseInput, 'CAN_NOT_MAKE_TRADE');\n        require(baseInputAmount > 0, 'INVALID_BASE_INPUT');\n        require(baseInputAmount <= base.balanceOf(msg.sender), 'BASE_INPUT_HIGHER_USER_BALANCE');\n        \n        //make trade\n        base.transferFrom(msg.sender, address(this), baseInputAmount);\n        token.transfer(msg.sender, tokenOutputAmount);\n\n        //transfer fee\n        base.transfer(address(feeMachineContract), tradeFee);\n        feeMachineContract.processTradeFee(base, msg.sender);\n\n        emit onSwapBaseToTokenWithTokenOutput(msg.sender, maxBaseInput, baseInputAmount, tokenOutputAmount, baseReserve, tokenReserve);\n    }\n\n    function swapTokenToBaseWithTokenInput(uint256 tokenInputAmount, uint256 minBaseOutput, uint256 deadline) public onlyWhitelist whenNotPaused onlyOwnerCanTrade {\n        require(deadline >= block.timestamp, 'INVALID_DEADLINE');\n        require(minBaseOutput > 0, 'INVALID_MIN_BASE_OUTPUT');\n        require(tokenInputAmount > 0, 'INVALID_TOKEN_INPUT');\n        require(tokenInputAmount <= token.balanceOf(msg.sender), 'TOKEN_INPUT_HIGHER_USER_BALANCE');\n\n        uint256 baseReserve = 0;\n        uint256 tokenReserve = 0;\n        (baseReserve, tokenReserve) = getTotalReserve();\n        require(minBaseOutput < baseReserve, 'MIN_BASE_OUTPUT_HIGHER_POOL_BASE_BALANCE');\n\n        uint256 tradeFee = tokenInputAmount.mul(TRADE_FEE).div(1000);\n        uint256 tokenInputAmountAfterFee = tokenInputAmount.sub(tradeFee); // cut the TRADE_FEE from token input\n        \n        uint256 baseOutputAmount = getBaseOutputAmountFromTokenInput(tokenInputAmountAfterFee, baseReserve, tokenReserve);\n\n        require(baseOutputAmount >= minBaseOutput, 'CAN_NOT_MAKE_TRADE');\n        require(baseOutputAmount < baseReserve, 'BASE_OUTPUT_HIGHER_POOL_BASE_BALANCE');\n        require(baseOutputAmount < base.balanceOf(address(this)), 'BASE_OUTPUT_HIGHER_CURRENT_TRADE_BALANCE'); // output is higher than the trade contract balance\n\n        //make trade\n        token.transferFrom(msg.sender, address(this), tokenInputAmount);\n        base.transfer(msg.sender, baseOutputAmount);\n\n        //transfer fee\n        token.transfer(address(feeMachineContract), tradeFee);\n        feeMachineContract.processTradeFee(token, msg.sender);\n\n        emit onSwapTokenToBaseWithTokenInput(msg.sender, minBaseOutput, tokenInputAmount, baseOutputAmount, baseReserve, tokenReserve);\n    }\n\n    function swapTokenToBaseWithBaseOutput(uint256 maxTokenInput, uint256 baseOutputAmount, uint256 deadline) public onlyWhitelist whenNotPaused onlyOwnerCanTrade {\n        require(deadline >= block.timestamp, 'INVALID_DEADLINE');\n        require(maxTokenInput > 0, 'INVALID_MAX_TOKEN_INPUT');\n        require(baseOutputAmount > 0, 'INVALID_BASE_OUTPUT');\n        require(baseOutputAmount < base.balanceOf(address(this)), 'BASE_OUTPUT_HIGHER_CURRENT_TRADE_BALANCE'); // output is higher than the trade contract balance\n\n        uint256 baseReserve = 0;\n        uint256 tokenReserve = 0;\n        (baseReserve, tokenReserve) = getTotalReserve();\n        require(baseOutputAmount < baseReserve, 'BASE_OUTPUT_HIGHER_POOL_BASE_BALANCE');\n\n        uint256 tokenInputAmount = getTokenInputAmountFromBaseOutput(baseOutputAmount, baseReserve, tokenReserve);\n        \n        uint256 tradeFee = tokenInputAmount.mul(TRADE_FEE).div(1000);\n        tokenInputAmount = tokenInputAmount.add(tradeFee); // add the TRADE_FEE to token input\n\n        require(tokenInputAmount <= maxTokenInput, 'CAN_NOT_MAKE_TRADE');\n        require(tokenInputAmount > 0, 'INVALID_TOKEN_INPUT');\n        require(tokenInputAmount <= token.balanceOf(msg.sender), 'TOKEN_INPUT_HIGHER_USER_BALANCE');\n\n        //make trade\n        token.transferFrom(msg.sender, address(this), tokenInputAmount);\n        base.transfer(msg.sender, baseOutputAmount);\n\n        //transfer fee\n        token.transfer(address(feeMachineContract), tradeFee);\n        feeMachineContract.processTradeFee(token, msg.sender);\n\n        emit onSwapTokenToBaseWithBaseOutput(msg.sender, maxTokenInput, tokenInputAmount, baseOutputAmount, baseReserve, tokenReserve);\n    }\n\n    function addLP(uint256 minLP, uint256 baseInputAmount, uint256 maxTokenInputAmount, uint256 deadline) public onlyWhitelist returns (uint256) {\n        require(deadline >= block.timestamp, 'INVALID_DEADLINE');\n        require(minLP > 0, 'INVALID_MIN_LP');\n        require(baseInputAmount > 0, 'INVALID_BASE_INPUT');\n        require(maxTokenInputAmount > 0, 'INVALID_MAX_TOKEN_INPUT');\n        \n        uint256 totalSupply = totalSupply();\n        if(totalSupply == 0) {\n            base.transferFrom(msg.sender, address(this), baseInputAmount);\n            token.transferFrom(msg.sender, address(this), maxTokenInputAmount);\n            \n            uint256 initLP = baseInputAmount;\n            _mint(msg.sender, initLP);\n            emit onAddLP(msg.sender, initLP, baseInputAmount, maxTokenInputAmount, base.balanceOf(address(this)), token.balanceOf(address(this)));\n            return initLP;\n        }\n        else { \n            // tokenReserve/baseReserve = (tokenReserve+tokenInputAmount)/(baseReserve+baseInputAmount)\n            // => tokenReserve+tokenInputAmount = tokenReserve*(baseReserve+baseInputAmount)/baseReserve\n            // => tokenInputAmount = tokenReserve*(baseReserve+baseInputAmount)/baseReserve - tokenReserve;\n            uint256 baseReserve = 0;\n            uint256 tokenReserve = 0;\n            (baseReserve, tokenReserve) = getTotalReserve();\n            uint256 tokenInputAmount = tokenReserve.mul(baseReserve.add(baseInputAmount)).div(baseReserve).sub(tokenReserve);\n\n            uint256 platformFeeOnBase = baseInputAmount.mul(PLATFORM_FEE).div(1000);\n            uint256 platformFeeOnToken = tokenInputAmount.mul(PLATFORM_FEE).div(1000);\n\n            // mintLP/totalLP =  baseInputAmount/baseReserve\n            // mintLP = totalLP*baseInputAmount/baseReserve\n            uint256 mintLP = totalSupply.mul(baseInputAmount.sub(platformFeeOnBase)).div(baseReserve);\n            \n            require(tokenInputAmount > 0, 'INVALID_TOKEN_INPUT');\n            require(tokenInputAmount <= maxTokenInputAmount, 'INVALID_TOKEN_INPUT');\n            require(mintLP >= minLP, \"INVALID_MINT_LP\");\n\n            base.transferFrom(msg.sender, address(this), baseInputAmount);\n            token.transferFrom(msg.sender, address(this), tokenInputAmount);\n\n            \n            base.transfer(platformFundAddress, platformFeeOnBase);\n            token.transfer(platformFundAddress, platformFeeOnToken);\n\n            _mint(msg.sender, mintLP);\n            emit onAddLP(msg.sender, mintLP, baseInputAmount, tokenInputAmount, base.balanceOf(address(this)), token.balanceOf(address(this)));\n            return mintLP;\n        }\n    }\n\n    function removeLP(uint256 amountLP, uint256 minBaseOutput, uint256 minTokenOutput, uint256 deadline) public onlyWhitelist returns (uint256, uint256){\n        require(deadline >= block.timestamp, 'INVALID_DEADLINE');\n        require(amountLP > 0, 'INVALID_AMOUNT_LP');\n        require(minBaseOutput > 0, 'INVALID_MIN_BASE_OUTPUT');\n        require(minTokenOutput > 0, 'INVALID_MIN_TOKEN_OUTPUT');\n        \n        uint256 totalSupply = totalSupply();\n        \n        uint256 userLPbalance = balanceOf(msg.sender);\n        if(amountLP > userLPbalance) {\n            amountLP = userLPbalance;\n        }\n\n        require(amountLP <= totalSupply, 'INVALID_AMOUNT_LP_TOTAL_SUPPLY');\n         \n        uint256 baseReserve = 0;\n        uint256 tokenReserve = 0;\n        (baseReserve, tokenReserve) = getTotalReserve();\n        \n        // amountLP/totalSupply = baseOutputAmount/baseReserve\n        // => baseOutputAmount = amountLP*baseReserve/totalSupply\n        uint256 baseOutputAmount = amountLP.mul(baseReserve).div(totalSupply);\n        uint256 tokenOutputAmount = amountLP.mul(tokenReserve).div(totalSupply);\n\n        uint256 platformFeeOnBase = baseOutputAmount.mul(PLATFORM_FEE).div(1000);\n        uint256 platformFeeOnToken = tokenOutputAmount.mul(PLATFORM_FEE).div(1000);\n        \n        baseOutputAmount = baseOutputAmount.sub(platformFeeOnBase);\n        tokenOutputAmount = tokenOutputAmount.sub(platformFeeOnToken);\n\n        require(baseOutputAmount >= minBaseOutput, \"INVALID_BASE_OUTPUT\");\n        require(tokenOutputAmount >= minTokenOutput, \"INVALID_TOKEN_OUTPUT\");\n        require(baseOutputAmount <= baseReserve, \"BASE_OUTPUT_HIGHER_BASE_BALANCE\");\n        require(tokenOutputAmount <= tokenReserve, \"TOKEN_OUTPUT_HIGHER_TOKEN_BALANCE\");\n\n        _burn(msg.sender, amountLP);\n        base.transfer(msg.sender, baseOutputAmount);\n        token.transfer(msg.sender, tokenOutputAmount);\n\n        base.transfer(platformFundAddress, platformFeeOnBase);\n        token.transfer(platformFundAddress, platformFeeOnToken);\n\n        emit onRemoveLP(msg.sender, amountLP, baseOutputAmount, tokenOutputAmount, base.balanceOf(address(this)), token.balanceOf(address(this)));\n        return (baseOutputAmount, tokenOutputAmount);\n    }\n\n    function getTotalReserve() public view returns (uint256, uint256) { \n        uint256 baseReserve = base.balanceOf(address(this));\n        uint256 tokenReserve = token.balanceOf(address(this));\n\n        return (baseReserve, tokenReserve);\n    }\n\n    function setOnlyOwnerCanTrade(bool _flag) public onlyOwner {\n        onlyOwnerCanTradeFlag = _flag;\n    }\n\n    function pause() public onlyOwner {\n        _pause();\n    }\n    \n    function unpause() public onlyOwner {\n        _unpause();\n    }\n}",
  "sourcePath": "/Applications/projects/garbiprotocol.github.io/garbi_contracts/contracts/GarbiswapTradeGRBWETH.sol",
  "compiler": {
    "name": "solc",
    "version": "0.8.17+commit.8df45f5f.Emscripten.clang"
  },
  "schemaVersion": "3.4.11",
  "updatedAt": "2023-01-17T03:27:24.232Z",
  "networkType": "ethereum",
  "devdoc": {
    "kind": "dev",
    "methods": {
      "allowance(address,address)": {
        "details": "See {IERC20-allowance}."
      },
      "approve(address,uint256)": {
        "details": "See {IERC20-approve}. NOTE: If `amount` is the maximum `uint256`, the allowance is not updated on `transferFrom`. This is semantically equivalent to an infinite approval. Requirements: - `spender` cannot be the zero address."
      },
      "balanceOf(address)": {
        "details": "See {IERC20-balanceOf}."
      },
      "burn(uint256)": {
        "details": "Destroys `amount` tokens from the caller. See {ERC20-_burn}."
      },
      "burnFrom(address,uint256)": {
        "details": "Destroys `amount` tokens from `account`, deducting from the caller's allowance. See {ERC20-_burn} and {ERC20-allowance}. Requirements: - the caller must have allowance for ``accounts``'s tokens of at least `amount`."
      },
      "decimals()": {
        "details": "Returns the number of decimals used to get its user representation. For example, if `decimals` equals `2`, a balance of `505` tokens should be displayed to a user as `5.05` (`505 / 10 ** 2`). Tokens usually opt for a value of 18, imitating the relationship between Ether and Wei. This is the value {ERC20} uses, unless this function is overridden; NOTE: This information is only used for _display_ purposes: it in no way affects any of the arithmetic of the contract, including {IERC20-balanceOf} and {IERC20-transfer}."
      },
      "decreaseAllowance(address,uint256)": {
        "details": "Atomically decreases the allowance granted to `spender` by the caller. This is an alternative to {approve} that can be used as a mitigation for problems described in {IERC20-approve}. Emits an {Approval} event indicating the updated allowance. Requirements: - `spender` cannot be the zero address. - `spender` must have allowance for the caller of at least `subtractedValue`."
      },
      "increaseAllowance(address,uint256)": {
        "details": "Atomically increases the allowance granted to `spender` by the caller. This is an alternative to {approve} that can be used as a mitigation for problems described in {IERC20-approve}. Emits an {Approval} event indicating the updated allowance. Requirements: - `spender` cannot be the zero address."
      },
      "name()": {
        "details": "Returns the name of the token."
      },
      "owner()": {
        "details": "Returns the address of the current owner."
      },
      "paused()": {
        "details": "Returns true if the contract is paused, and false otherwise."
      },
      "renounceOwnership()": {
        "details": "Leaves the contract without owner. It will not be possible to call `onlyOwner` functions anymore. Can only be called by the current owner. NOTE: Renouncing ownership will leave the contract without an owner, thereby removing any functionality that is only available to the owner."
      },
      "symbol()": {
        "details": "Returns the symbol of the token, usually a shorter version of the name."
      },
      "totalSupply()": {
        "details": "See {IERC20-totalSupply}."
      },
      "transfer(address,uint256)": {
        "details": "See {IERC20-transfer}. Requirements: - `to` cannot be the zero address. - the caller must have a balance of at least `amount`."
      },
      "transferFrom(address,address,uint256)": {
        "details": "See {IERC20-transferFrom}. Emits an {Approval} event indicating the updated allowance. This is not required by the EIP. See the note at the beginning of {ERC20}. NOTE: Does not update the allowance if the current allowance is the maximum `uint256`. Requirements: - `from` and `to` cannot be the zero address. - `from` must have a balance of at least `amount`. - the caller must have allowance for ``from``'s tokens of at least `amount`."
      },
      "transferOwnership(address)": {
        "details": "Transfers ownership of the contract to a new account (`newOwner`). Can only be called by the current owner."
      }
    },
    "version": 1
  },
  "userdoc": {
    "kind": "user",
    "methods": {},
    "version": 1
  }
}