{
  "contractName": "GarbiSwapPool",
  "abi": [
    {
      "inputs": [
        {
          "internalType": "contract IERC20",
          "name": "_base",
          "type": "address"
        },
        {
          "internalType": "contract IERC20",
          "name": "_token",
          "type": "address"
        },
        {
          "internalType": "string",
          "name": "name",
          "type": "string"
        },
        {
          "internalType": "string",
          "name": "symbol",
          "type": "string"
        }
      ],
      "stateMutability": "nonpayable",
      "type": "constructor"
    },
    {
      "anonymous": false,
      "inputs": [
        {
          "indexed": true,
          "internalType": "address",
          "name": "owner",
          "type": "address"
        },
        {
          "indexed": true,
          "internalType": "address",
          "name": "spender",
          "type": "address"
        },
        {
          "indexed": false,
          "internalType": "uint256",
          "name": "value",
          "type": "uint256"
        }
      ],
      "name": "Approval",
      "type": "event"
    },
    {
      "anonymous": false,
      "inputs": [
        {
          "indexed": true,
          "internalType": "address",
          "name": "previousOwner",
          "type": "address"
        },
        {
          "indexed": true,
          "internalType": "address",
          "name": "newOwner",
          "type": "address"
        }
      ],
      "name": "OwnershipTransferred",
      "type": "event"
    },
    {
      "anonymous": false,
      "inputs": [
        {
          "indexed": true,
          "internalType": "address",
          "name": "from",
          "type": "address"
        },
        {
          "indexed": true,
          "internalType": "address",
          "name": "to",
          "type": "address"
        },
        {
          "indexed": false,
          "internalType": "uint256",
          "name": "value",
          "type": "uint256"
        }
      ],
      "name": "Transfer",
      "type": "event"
    },
    {
      "anonymous": false,
      "inputs": [
        {
          "indexed": false,
          "internalType": "address",
          "name": "sender",
          "type": "address"
        },
        {
          "indexed": false,
          "internalType": "uint256",
          "name": "mintLP",
          "type": "uint256"
        },
        {
          "indexed": false,
          "internalType": "uint256",
          "name": "baseInputAmount",
          "type": "uint256"
        },
        {
          "indexed": false,
          "internalType": "uint256",
          "name": "tokenInputAmount",
          "type": "uint256"
        },
        {
          "indexed": false,
          "internalType": "uint256",
          "name": "poolBaseBalance",
          "type": "uint256"
        },
        {
          "indexed": false,
          "internalType": "uint256",
          "name": "poolTokenBalance",
          "type": "uint256"
        }
      ],
      "name": "onAddLP",
      "type": "event"
    },
    {
      "anonymous": false,
      "inputs": [
        {
          "indexed": false,
          "internalType": "address",
          "name": "sender",
          "type": "address"
        },
        {
          "indexed": false,
          "internalType": "uint256",
          "name": "amountLP",
          "type": "uint256"
        },
        {
          "indexed": false,
          "internalType": "uint256",
          "name": "baseOutputAmout",
          "type": "uint256"
        },
        {
          "indexed": false,
          "internalType": "uint256",
          "name": "tokenOutputAmount",
          "type": "uint256"
        },
        {
          "indexed": false,
          "internalType": "uint256",
          "name": "poolBaseBalance",
          "type": "uint256"
        },
        {
          "indexed": false,
          "internalType": "uint256",
          "name": "poolTokenBalance",
          "type": "uint256"
        }
      ],
      "name": "onRemoveLP",
      "type": "event"
    },
    {
      "anonymous": false,
      "inputs": [
        {
          "indexed": false,
          "internalType": "address",
          "name": "sender",
          "type": "address"
        },
        {
          "indexed": false,
          "internalType": "uint256",
          "name": "minTokenOutput",
          "type": "uint256"
        },
        {
          "indexed": false,
          "internalType": "uint256",
          "name": "baseInputAmount",
          "type": "uint256"
        },
        {
          "indexed": false,
          "internalType": "uint256",
          "name": "tokenOutputAmount",
          "type": "uint256"
        },
        {
          "indexed": false,
          "internalType": "uint256",
          "name": "poolBaseBalance",
          "type": "uint256"
        },
        {
          "indexed": false,
          "internalType": "uint256",
          "name": "poolTokenBalance",
          "type": "uint256"
        }
      ],
      "name": "onSwapBaseToTokenWithBaseInput",
      "type": "event"
    },
    {
      "anonymous": false,
      "inputs": [
        {
          "indexed": false,
          "internalType": "address",
          "name": "sender",
          "type": "address"
        },
        {
          "indexed": false,
          "internalType": "uint256",
          "name": "maxBaseInput",
          "type": "uint256"
        },
        {
          "indexed": false,
          "internalType": "uint256",
          "name": "baseInputAmount",
          "type": "uint256"
        },
        {
          "indexed": false,
          "internalType": "uint256",
          "name": "tokenOutputAmount",
          "type": "uint256"
        },
        {
          "indexed": false,
          "internalType": "uint256",
          "name": "poolBaseBalance",
          "type": "uint256"
        },
        {
          "indexed": false,
          "internalType": "uint256",
          "name": "poolTokenBalance",
          "type": "uint256"
        }
      ],
      "name": "onSwapBaseToTokenWithTokenOutput",
      "type": "event"
    },
    {
      "anonymous": false,
      "inputs": [
        {
          "indexed": false,
          "internalType": "address",
          "name": "sender",
          "type": "address"
        },
        {
          "indexed": false,
          "internalType": "uint256",
          "name": "maxTokenInput",
          "type": "uint256"
        },
        {
          "indexed": false,
          "internalType": "uint256",
          "name": "tokenInputAmount",
          "type": "uint256"
        },
        {
          "indexed": false,
          "internalType": "uint256",
          "name": "baseOutputAmount",
          "type": "uint256"
        },
        {
          "indexed": false,
          "internalType": "uint256",
          "name": "poolBaseBalance",
          "type": "uint256"
        },
        {
          "indexed": false,
          "internalType": "uint256",
          "name": "poolTokenBalance",
          "type": "uint256"
        }
      ],
      "name": "onSwapTokenToBaseWithBaseOutput",
      "type": "event"
    },
    {
      "anonymous": false,
      "inputs": [
        {
          "indexed": false,
          "internalType": "address",
          "name": "sender",
          "type": "address"
        },
        {
          "indexed": false,
          "internalType": "uint256",
          "name": "minBaseOutput",
          "type": "uint256"
        },
        {
          "indexed": false,
          "internalType": "uint256",
          "name": "tokenInputAmount",
          "type": "uint256"
        },
        {
          "indexed": false,
          "internalType": "uint256",
          "name": "baseOutputAmount",
          "type": "uint256"
        },
        {
          "indexed": false,
          "internalType": "uint256",
          "name": "poolBaseBalance",
          "type": "uint256"
        },
        {
          "indexed": false,
          "internalType": "uint256",
          "name": "poolTokenBalance",
          "type": "uint256"
        }
      ],
      "name": "onSwapTokenToBaseWithTokenInput",
      "type": "event"
    },
    {
      "inputs": [],
      "name": "TRADE_FEE",
      "outputs": [
        {
          "internalType": "uint256",
          "name": "",
          "type": "uint256"
        }
      ],
      "stateMutability": "view",
      "type": "function",
      "constant": true
    },
    {
      "inputs": [
        {
          "internalType": "address",
          "name": "owner",
          "type": "address"
        },
        {
          "internalType": "address",
          "name": "spender",
          "type": "address"
        }
      ],
      "name": "allowance",
      "outputs": [
        {
          "internalType": "uint256",
          "name": "",
          "type": "uint256"
        }
      ],
      "stateMutability": "view",
      "type": "function",
      "constant": true
    },
    {
      "inputs": [
        {
          "internalType": "address",
          "name": "spender",
          "type": "address"
        },
        {
          "internalType": "uint256",
          "name": "amount",
          "type": "uint256"
        }
      ],
      "name": "approve",
      "outputs": [
        {
          "internalType": "bool",
          "name": "",
          "type": "bool"
        }
      ],
      "stateMutability": "nonpayable",
      "type": "function"
    },
    {
      "inputs": [
        {
          "internalType": "address",
          "name": "account",
          "type": "address"
        }
      ],
      "name": "balanceOf",
      "outputs": [
        {
          "internalType": "uint256",
          "name": "",
          "type": "uint256"
        }
      ],
      "stateMutability": "view",
      "type": "function",
      "constant": true
    },
    {
      "inputs": [],
      "name": "base",
      "outputs": [
        {
          "internalType": "contract IERC20",
          "name": "",
          "type": "address"
        }
      ],
      "stateMutability": "view",
      "type": "function",
      "constant": true
    },
    {
      "inputs": [
        {
          "internalType": "uint256",
          "name": "amount",
          "type": "uint256"
        }
      ],
      "name": "burn",
      "outputs": [],
      "stateMutability": "nonpayable",
      "type": "function"
    },
    {
      "inputs": [
        {
          "internalType": "address",
          "name": "account",
          "type": "address"
        },
        {
          "internalType": "uint256",
          "name": "amount",
          "type": "uint256"
        }
      ],
      "name": "burnFrom",
      "outputs": [],
      "stateMutability": "nonpayable",
      "type": "function"
    },
    {
      "inputs": [],
      "name": "decimals",
      "outputs": [
        {
          "internalType": "uint8",
          "name": "",
          "type": "uint8"
        }
      ],
      "stateMutability": "view",
      "type": "function",
      "constant": true
    },
    {
      "inputs": [
        {
          "internalType": "address",
          "name": "spender",
          "type": "address"
        },
        {
          "internalType": "uint256",
          "name": "subtractedValue",
          "type": "uint256"
        }
      ],
      "name": "decreaseAllowance",
      "outputs": [
        {
          "internalType": "bool",
          "name": "",
          "type": "bool"
        }
      ],
      "stateMutability": "nonpayable",
      "type": "function"
    },
    {
      "inputs": [
        {
          "internalType": "address",
          "name": "spender",
          "type": "address"
        },
        {
          "internalType": "uint256",
          "name": "addedValue",
          "type": "uint256"
        }
      ],
      "name": "increaseAllowance",
      "outputs": [
        {
          "internalType": "bool",
          "name": "",
          "type": "bool"
        }
      ],
      "stateMutability": "nonpayable",
      "type": "function"
    },
    {
      "inputs": [],
      "name": "name",
      "outputs": [
        {
          "internalType": "string",
          "name": "",
          "type": "string"
        }
      ],
      "stateMutability": "view",
      "type": "function",
      "constant": true
    },
    {
      "inputs": [],
      "name": "owner",
      "outputs": [
        {
          "internalType": "address",
          "name": "",
          "type": "address"
        }
      ],
      "stateMutability": "view",
      "type": "function",
      "constant": true
    },
    {
      "inputs": [],
      "name": "renounceOwnership",
      "outputs": [],
      "stateMutability": "nonpayable",
      "type": "function"
    },
    {
      "inputs": [],
      "name": "symbol",
      "outputs": [
        {
          "internalType": "string",
          "name": "",
          "type": "string"
        }
      ],
      "stateMutability": "view",
      "type": "function",
      "constant": true
    },
    {
      "inputs": [],
      "name": "token",
      "outputs": [
        {
          "internalType": "contract IERC20",
          "name": "",
          "type": "address"
        }
      ],
      "stateMutability": "view",
      "type": "function",
      "constant": true
    },
    {
      "inputs": [],
      "name": "totalSupply",
      "outputs": [
        {
          "internalType": "uint256",
          "name": "",
          "type": "uint256"
        }
      ],
      "stateMutability": "view",
      "type": "function",
      "constant": true
    },
    {
      "inputs": [
        {
          "internalType": "address",
          "name": "to",
          "type": "address"
        },
        {
          "internalType": "uint256",
          "name": "amount",
          "type": "uint256"
        }
      ],
      "name": "transfer",
      "outputs": [
        {
          "internalType": "bool",
          "name": "",
          "type": "bool"
        }
      ],
      "stateMutability": "nonpayable",
      "type": "function"
    },
    {
      "inputs": [
        {
          "internalType": "address",
          "name": "from",
          "type": "address"
        },
        {
          "internalType": "address",
          "name": "to",
          "type": "address"
        },
        {
          "internalType": "uint256",
          "name": "amount",
          "type": "uint256"
        }
      ],
      "name": "transferFrom",
      "outputs": [
        {
          "internalType": "bool",
          "name": "",
          "type": "bool"
        }
      ],
      "stateMutability": "nonpayable",
      "type": "function"
    },
    {
      "inputs": [
        {
          "internalType": "address",
          "name": "newOwner",
          "type": "address"
        }
      ],
      "name": "transferOwnership",
      "outputs": [],
      "stateMutability": "nonpayable",
      "type": "function"
    },
    {
      "inputs": [],
      "name": "getK",
      "outputs": [
        {
          "internalType": "uint256",
          "name": "",
          "type": "uint256"
        }
      ],
      "stateMutability": "view",
      "type": "function",
      "constant": true
    },
    {
      "inputs": [
        {
          "internalType": "uint256",
          "name": "baseInputAmount",
          "type": "uint256"
        }
      ],
      "name": "getTokenOutput",
      "outputs": [
        {
          "internalType": "uint256",
          "name": "",
          "type": "uint256"
        }
      ],
      "stateMutability": "view",
      "type": "function",
      "constant": true
    },
    {
      "inputs": [
        {
          "internalType": "uint256",
          "name": "tokenInputAmount",
          "type": "uint256"
        }
      ],
      "name": "getBaseOutput",
      "outputs": [
        {
          "internalType": "uint256",
          "name": "",
          "type": "uint256"
        }
      ],
      "stateMutability": "view",
      "type": "function",
      "constant": true
    },
    {
      "inputs": [
        {
          "internalType": "uint256",
          "name": "baseInputAmount",
          "type": "uint256"
        }
      ],
      "name": "getDataFromBaseInputToAddLp",
      "outputs": [
        {
          "internalType": "uint256",
          "name": "",
          "type": "uint256"
        },
        {
          "internalType": "uint256",
          "name": "",
          "type": "uint256"
        }
      ],
      "stateMutability": "view",
      "type": "function",
      "constant": true
    },
    {
      "inputs": [
        {
          "internalType": "uint256",
          "name": "tokenInputAmount",
          "type": "uint256"
        }
      ],
      "name": "getDataFromTokenInputToAddLp",
      "outputs": [
        {
          "internalType": "uint256",
          "name": "",
          "type": "uint256"
        },
        {
          "internalType": "uint256",
          "name": "",
          "type": "uint256"
        }
      ],
      "stateMutability": "view",
      "type": "function",
      "constant": true
    },
    {
      "inputs": [
        {
          "internalType": "uint256",
          "name": "amountLP",
          "type": "uint256"
        }
      ],
      "name": "getDataToRemoveLP",
      "outputs": [
        {
          "internalType": "uint256",
          "name": "",
          "type": "uint256"
        },
        {
          "internalType": "uint256",
          "name": "",
          "type": "uint256"
        }
      ],
      "stateMutability": "view",
      "type": "function",
      "constant": true
    },
    {
      "inputs": [
        {
          "internalType": "uint256",
          "name": "baseInputAmount",
          "type": "uint256"
        },
        {
          "internalType": "uint256",
          "name": "baseReserve",
          "type": "uint256"
        },
        {
          "internalType": "uint256",
          "name": "tokenReserve",
          "type": "uint256"
        }
      ],
      "name": "getTokenOutputAmountFromBaseInput",
      "outputs": [
        {
          "internalType": "uint256",
          "name": "",
          "type": "uint256"
        }
      ],
      "stateMutability": "pure",
      "type": "function",
      "constant": true
    },
    {
      "inputs": [
        {
          "internalType": "uint256",
          "name": "tokenOutputAmount",
          "type": "uint256"
        },
        {
          "internalType": "uint256",
          "name": "baseReserve",
          "type": "uint256"
        },
        {
          "internalType": "uint256",
          "name": "tokenReserve",
          "type": "uint256"
        }
      ],
      "name": "getBaseInputAmountFromTokenOutput",
      "outputs": [
        {
          "internalType": "uint256",
          "name": "",
          "type": "uint256"
        }
      ],
      "stateMutability": "pure",
      "type": "function",
      "constant": true
    },
    {
      "inputs": [
        {
          "internalType": "uint256",
          "name": "tokenInputAmount",
          "type": "uint256"
        },
        {
          "internalType": "uint256",
          "name": "baseReserve",
          "type": "uint256"
        },
        {
          "internalType": "uint256",
          "name": "tokenReserve",
          "type": "uint256"
        }
      ],
      "name": "getBaseOutputAmountFromTokenInput",
      "outputs": [
        {
          "internalType": "uint256",
          "name": "",
          "type": "uint256"
        }
      ],
      "stateMutability": "pure",
      "type": "function",
      "constant": true
    },
    {
      "inputs": [
        {
          "internalType": "uint256",
          "name": "baseOutputAmount",
          "type": "uint256"
        },
        {
          "internalType": "uint256",
          "name": "baseReserve",
          "type": "uint256"
        },
        {
          "internalType": "uint256",
          "name": "tokenReserve",
          "type": "uint256"
        }
      ],
      "name": "getTokenInputAmountFromBaseOutput",
      "outputs": [
        {
          "internalType": "uint256",
          "name": "",
          "type": "uint256"
        }
      ],
      "stateMutability": "pure",
      "type": "function",
      "constant": true
    },
    {
      "inputs": [
        {
          "internalType": "uint256",
          "name": "baseInputAmount",
          "type": "uint256"
        },
        {
          "internalType": "uint256",
          "name": "minTokenOutput",
          "type": "uint256"
        },
        {
          "internalType": "uint256",
          "name": "deadline",
          "type": "uint256"
        }
      ],
      "name": "swapBaseToTokenWithBaseInput",
      "outputs": [],
      "stateMutability": "nonpayable",
      "type": "function"
    },
    {
      "inputs": [
        {
          "internalType": "uint256",
          "name": "maxBaseInput",
          "type": "uint256"
        },
        {
          "internalType": "uint256",
          "name": "tokenOutputAmount",
          "type": "uint256"
        },
        {
          "internalType": "uint256",
          "name": "deadline",
          "type": "uint256"
        }
      ],
      "name": "swapBaseToTokenWithTokenOutput",
      "outputs": [],
      "stateMutability": "nonpayable",
      "type": "function"
    },
    {
      "inputs": [
        {
          "internalType": "uint256",
          "name": "tokenInputAmount",
          "type": "uint256"
        },
        {
          "internalType": "uint256",
          "name": "minBaseOutput",
          "type": "uint256"
        },
        {
          "internalType": "uint256",
          "name": "deadline",
          "type": "uint256"
        }
      ],
      "name": "swapTokenToBaseWithTokenInput",
      "outputs": [],
      "stateMutability": "nonpayable",
      "type": "function"
    },
    {
      "inputs": [
        {
          "internalType": "uint256",
          "name": "maxTokenInput",
          "type": "uint256"
        },
        {
          "internalType": "uint256",
          "name": "baseOutputAmount",
          "type": "uint256"
        },
        {
          "internalType": "uint256",
          "name": "deadline",
          "type": "uint256"
        }
      ],
      "name": "swapTokenToBaseWithBaseOutput",
      "outputs": [],
      "stateMutability": "nonpayable",
      "type": "function"
    },
    {
      "inputs": [
        {
          "internalType": "uint256",
          "name": "minLP",
          "type": "uint256"
        },
        {
          "internalType": "uint256",
          "name": "baseInputAmount",
          "type": "uint256"
        },
        {
          "internalType": "uint256",
          "name": "maxTokenInputAmount",
          "type": "uint256"
        },
        {
          "internalType": "uint256",
          "name": "deadline",
          "type": "uint256"
        }
      ],
      "name": "addLP",
      "outputs": [
        {
          "internalType": "uint256",
          "name": "",
          "type": "uint256"
        }
      ],
      "stateMutability": "nonpayable",
      "type": "function"
    },
    {
      "inputs": [
        {
          "internalType": "uint256",
          "name": "amountLP",
          "type": "uint256"
        },
        {
          "internalType": "uint256",
          "name": "minBaseOutput",
          "type": "uint256"
        },
        {
          "internalType": "uint256",
          "name": "minTokenOutput",
          "type": "uint256"
        },
        {
          "internalType": "uint256",
          "name": "deadline",
          "type": "uint256"
        }
      ],
      "name": "removeLP",
      "outputs": [
        {
          "internalType": "uint256",
          "name": "",
          "type": "uint256"
        },
        {
          "internalType": "uint256",
          "name": "",
          "type": "uint256"
        }
      ],
      "stateMutability": "nonpayable",
      "type": "function"
    },
    {
      "inputs": [],
      "name": "getTotalReserve",
      "outputs": [
        {
          "internalType": "uint256",
          "name": "",
          "type": "uint256"
        },
        {
          "internalType": "uint256",
          "name": "",
          "type": "uint256"
        }
      ],
      "stateMutability": "view",
      "type": "function",
      "constant": true
    }
  ],
  "bytecode": "0x608060405260026008553480156200001657600080fd5b506040516200644e3803806200644e83398181016040528101906200003c9190620003ea565b818181600390816200004f9190620006e5565b508060049081620000619190620006e5565b50505062000084620000786200011060201b60201c565b6200011860201b60201c565b83600660006101000a81548173ffffffffffffffffffffffffffffffffffffffff021916908373ffffffffffffffffffffffffffffffffffffffff16021790555082600760006101000a81548173ffffffffffffffffffffffffffffffffffffffff021916908373ffffffffffffffffffffffffffffffffffffffff16021790555050505050620007cc565b600033905090565b6000600560009054906101000a900473ffffffffffffffffffffffffffffffffffffffff16905081600560006101000a81548173ffffffffffffffffffffffffffffffffffffffff021916908373ffffffffffffffffffffffffffffffffffffffff1602179055508173ffffffffffffffffffffffffffffffffffffffff168173ffffffffffffffffffffffffffffffffffffffff167f8be0079c531659141344cd1fd0a4f28419497f9722a3daafe3b4186f6b6457e060405160405180910390a35050565b6000604051905090565b600080fd5b600080fd5b600073ffffffffffffffffffffffffffffffffffffffff82169050919050565b60006200021f82620001f2565b9050919050565b6000620002338262000212565b9050919050565b620002458162000226565b81146200025157600080fd5b50565b60008151905062000265816200023a565b92915050565b600080fd5b600080fd5b6000601f19601f8301169050919050565b7f4e487b7100000000000000000000000000000000000000000000000000000000600052604160045260246000fd5b620002c08262000275565b810181811067ffffffffffffffff82111715620002e257620002e162000286565b5b80604052505050565b6000620002f7620001de565b9050620003058282620002b5565b919050565b600067ffffffffffffffff82111562000328576200032762000286565b5b620003338262000275565b9050602081019050919050565b60005b838110156200036057808201518184015260208101905062000343565b60008484015250505050565b6000620003836200037d846200030a565b620002eb565b905082815260208101848484011115620003a257620003a162000270565b5b620003af84828562000340565b509392505050565b600082601f830112620003cf57620003ce6200026b565b5b8151620003e18482602086016200036c565b91505092915050565b60008060008060808587031215620004075762000406620001e8565b5b6000620004178782880162000254565b94505060206200042a8782880162000254565b935050604085015167ffffffffffffffff8111156200044e576200044d620001ed565b5b6200045c87828801620003b7565b925050606085015167ffffffffffffffff81111562000480576200047f620001ed565b5b6200048e87828801620003b7565b91505092959194509250565b600081519050919050565b7f4e487b7100000000000000000000000000000000000000000000000000000000600052602260045260246000fd5b60006002820490506001821680620004ed57607f821691505b602082108103620005035762000502620004a5565b5b50919050565b60008190508160005260206000209050919050565b60006020601f8301049050919050565b600082821b905092915050565b6000600883026200056d7fffffffffffffffffffffffffffffffffffffffffffffffffffffffffffffffff826200052e565b6200057986836200052e565b95508019841693508086168417925050509392505050565b6000819050919050565b6000819050919050565b6000620005c6620005c0620005ba8462000591565b6200059b565b62000591565b9050919050565b6000819050919050565b620005e283620005a5565b620005fa620005f182620005cd565b8484546200053b565b825550505050565b600090565b6200061162000602565b6200061e818484620005d7565b505050565b5b8181101562000646576200063a60008262000607565b60018101905062000624565b5050565b601f82111562000695576200065f8162000509565b6200066a846200051e565b810160208510156200067a578190505b6200069262000689856200051e565b83018262000623565b50505b505050565b600082821c905092915050565b6000620006ba600019846008026200069a565b1980831691505092915050565b6000620006d58383620006a7565b9150826002028217905092915050565b620006f0826200049a565b67ffffffffffffffff8111156200070c576200070b62000286565b5b620007188254620004d4565b620007258282856200064a565b600060209050601f8311600181146200075d576000841562000748578287015190505b620007548582620006c7565b865550620007c4565b601f1984166200076d8662000509565b60005b82811015620007975784890151825560018201915060208501945060208101905062000770565b86831015620007b75784890151620007b3601f891682620006a7565b8355505b6001600288020188555050505b505050505050565b615c7280620007dc6000396000f3fe608060405234801561001057600080fd5b506004361061021c5760003560e01c806376125deb11610125578063d0e9de6c116100ad578063e50a38d71161007c578063e50a38d7146106ed578063ec02291814610709578063ee39e7a014610728578063f2fde38b14610746578063fc0c546a146107625761021c565b8063d0e9de6c14610653578063d13229621461066f578063dbcfbf2f1461068d578063dd62ed3e146106bd5761021c565b806397bb21c6116100f457806397bb21c614610562578063a457c2d714610592578063a9059cbb146105c2578063b7c3ba45146105f2578063c6e842fc146106225761021c565b806376125deb146104d957806379cc67901461050a5780638da5cb5b1461052657806395d89b41146105445761021c565b806342966c68116101a85780636662d177116101775780636662d1771461042157806370a0823114610452578063711f614214610482578063715018a6146104b357806373dd25a3146104bd5761021c565b806342966c68146103875780635001f3b5146103a357806360b1765c146103c1578063635f95ff146103f15761021c565b806318160ddd116101ef57806318160ddd146102bb57806323b872dd146102d95780632916bc1014610309578063313ce5671461033957806339509351146103575761021c565b806303bf04c11461022157806306fdde031461023d578063095ea7b31461025b57806311fbded31461028b575b600080fd5b61023b600480360381019061023691906142f0565b610780565b005b610245610d76565b60405161025291906143d3565b60405180910390f35b61027560048036038101906102709190614453565b610e08565b60405161028291906144ae565b60405180910390f35b6102a560048036038101906102a091906144c9565b610e2b565b6040516102b29190614505565b60405180910390f35b6102c3610ea4565b6040516102d09190614505565b60405180910390f35b6102f360048036038101906102ee9190614520565b610eae565b60405161030091906144ae565b60405180910390f35b610323600480360381019061031e91906142f0565b610edd565b6040516103309190614505565b60405180910390f35b610341610f91565b60405161034e919061458f565b60405180910390f35b610371600480360381019061036c9190614453565b610f9a565b60405161037e91906144ae565b60405180910390f35b6103a1600480360381019061039c91906144c9565b610fd1565b005b6103ab610fe5565b6040516103b89190614609565b60405180910390f35b6103db60048036038101906103d69190614624565b61100b565b6040516103e89190614505565b60405180910390f35b61040b600480360381019061040691906144c9565b61183b565b6040516104189190614505565b60405180910390f35b61043b600480360381019061043691906144c9565b6118b4565b60405161044992919061468b565b60405180910390f35b61046c600480360381019061046791906146b4565b61196f565b6040516104799190614505565b60405180910390f35b61049c600480360381019061049791906144c9565b6119b7565b6040516104aa92919061468b565b60405180910390f35b6104bb611a47565b005b6104d760048036038101906104d291906142f0565b611a5b565b005b6104f360048036038101906104ee9190614624565b61204f565b60405161050192919061468b565b60405180910390f35b610524600480360381019061051f9190614453565b612624565b005b61052e612644565b60405161053b91906146f0565b60405180910390f35b61054c61266e565b60405161055991906143d3565b60405180910390f35b61057c600480360381019061057791906142f0565b612700565b6040516105899190614505565b60405180910390f35b6105ac60048036038101906105a79190614453565b6127b4565b6040516105b991906144ae565b60405180910390f35b6105dc60048036038101906105d79190614453565b61282b565b6040516105e991906144ae565b60405180910390f35b61060c600480360381019061060791906142f0565b61284e565b6040516106199190614505565b60405180910390f35b61063c600480360381019061063791906144c9565b612902565b60405161064a92919061468b565b60405180910390f35b61066d600480360381019061066891906142f0565b6129bd565b005b610677612fb1565b6040516106849190614505565b60405180910390f35b6106a760048036038101906106a291906142f0565b612fb7565b6040516106b49190614505565b60405180910390f35b6106d760048036038101906106d2919061470b565b61306b565b6040516106e49190614505565b60405180910390f35b610707600480360381019061070291906142f0565b6130f2565b005b6107116136e8565b60405161071f92919061468b565b60405180910390f35b610730613837565b60405161073d9190614505565b60405180910390f35b610760600480360381019061075b91906146b4565b613870565b005b61076a6138f3565b6040516107779190614609565b60405180910390f35b428110156107c3576040517f08c379a00000000000000000000000000000000000000000000000000000000081526004016107ba90614797565b60405180910390fd5b60008211610806576040517f08c379a00000000000000000000000000000000000000000000000000000000081526004016107fd90614803565b60405180910390fd5b60008311610849576040517f08c379a00000000000000000000000000000000000000000000000000000000081526004016108409061486f565b60405180910390fd5b600760009054906101000a900473ffffffffffffffffffffffffffffffffffffffff1673ffffffffffffffffffffffffffffffffffffffff166370a08231336040518263ffffffff1660e01b81526004016108a491906146f0565b602060405180830381865afa1580156108c1573d6000803e3d6000fd5b505050506040513d601f19601f820116820180604052508101906108e591906148a4565b831115610927576040517f08c379a000000000000000000000000000000000000000000000000000000000815260040161091e9061491d565b60405180910390fd5b6000806109326136e8565b809250819350505081841061097c576040517f08c379a0000000000000000000000000000000000000000000000000000000008152600401610973906149af565b60405180910390fd5b60006109a76103e86109996008548961391990919063ffffffff16565b61392f90919063ffffffff16565b905060006109be828861394590919063ffffffff16565b905060006109cd828686612fb7565b905086811015610a12576040517f08c379a0000000000000000000000000000000000000000000000000000000008152600401610a0990614a1b565b60405180910390fd5b848110610a54576040517f08c379a0000000000000000000000000000000000000000000000000000000008152600401610a4b90614aad565b60405180910390fd5b600660009054906101000a900473ffffffffffffffffffffffffffffffffffffffff1673ffffffffffffffffffffffffffffffffffffffff166370a08231306040518263ffffffff1660e01b8152600401610aaf91906146f0565b602060405180830381865afa158015610acc573d6000803e3d6000fd5b505050506040513d601f19601f82011682018060405250810190610af091906148a4565b8110610b31576040517f08c379a0000000000000000000000000000000000000000000000000000000008152600401610b2890614b3f565b60405180910390fd5b600760009054906101000a900473ffffffffffffffffffffffffffffffffffffffff1673ffffffffffffffffffffffffffffffffffffffff166323b872dd610b7761395b565b308b6040518463ffffffff1660e01b8152600401610b9793929190614b5f565b6020604051808303816000875af1158015610bb6573d6000803e3d6000fd5b505050506040513d601f19601f82011682018060405250810190610bda9190614bc2565b50600660009054906101000a900473ffffffffffffffffffffffffffffffffffffffff1673ffffffffffffffffffffffffffffffffffffffff1663a9059cbb610c2161395b565b836040518363ffffffff1660e01b8152600401610c3f929190614bef565b6020604051808303816000875af1158015610c5e573d6000803e3d6000fd5b505050506040513d601f19601f82011682018060405250810190610c829190614bc2565b50600760009054906101000a900473ffffffffffffffffffffffffffffffffffffffff1673ffffffffffffffffffffffffffffffffffffffff1663a9059cbb610cc9612644565b856040518363ffffffff1660e01b8152600401610ce7929190614bef565b6020604051808303816000875af1158015610d06573d6000803e3d6000fd5b505050506040513d601f19601f82011682018060405250810190610d2a9190614bc2565b507fb1b8c525a87e01fd3cda717635c4b24d56deba9f9d95c4f650c022bcd0bf8f5033888a848989604051610d6496959493929190614c18565b60405180910390a15050505050505050565b606060038054610d8590614ca8565b80601f0160208091040260200160405190810160405280929190818152602001828054610db190614ca8565b8015610dfe5780601f10610dd357610100808354040283529160200191610dfe565b820191906000526020600020905b815481529060010190602001808311610de157829003601f168201915b5050505050905090565b600080610e1361395b565b9050610e20818585613963565b600191505092915050565b600080600090506000610e3c6136e8565b80925081935050506000610e6f6103e8610e616008548861391990919063ffffffff16565b61392f90919063ffffffff16565b90506000610e86828761394590919063ffffffff16565b90506000610e95828686610edd565b90508095505050505050919050565b6000600254905090565b600080610eb961395b565b9050610ec6858285613b2c565b610ed1858585613bb8565b60019150509392505050565b60008083118015610eee5750600082115b610f2d576040517f08c379a0000000000000000000000000000000000000000000000000000000008152600401610f2490614d25565b60405180910390fd5b6000610f42848461391990919063ffffffff16565b90506000610f598686613e2e90919063ffffffff16565b90506000610f82610f73838561392f90919063ffffffff16565b8661394590919063ffffffff16565b90508093505050509392505050565b60006012905090565b600080610fa561395b565b9050610fc6818585610fb7858961306b565b610fc19190614d74565b613963565b600191505092915050565b610fe2610fdc61395b565b82613e44565b50565b600660009054906101000a900473ffffffffffffffffffffffffffffffffffffffff1681565b600042821015611050576040517f08c379a000000000000000000000000000000000000000000000000000000000815260040161104790614797565b60405180910390fd5b60008511611093576040517f08c379a000000000000000000000000000000000000000000000000000000000815260040161108a90614df4565b60405180910390fd5b600084116110d6576040517f08c379a00000000000000000000000000000000000000000000000000000000081526004016110cd90614e60565b60405180910390fd5b60008311611119576040517f08c379a000000000000000000000000000000000000000000000000000000000815260040161111090614ecc565b60405180910390fd5b6000611123610ea4565b90506000810361140a57600660009054906101000a900473ffffffffffffffffffffffffffffffffffffffff1673ffffffffffffffffffffffffffffffffffffffff166323b872dd3330886040518463ffffffff1660e01b815260040161118c93929190614b5f565b6020604051808303816000875af11580156111ab573d6000803e3d6000fd5b505050506040513d601f19601f820116820180604052508101906111cf9190614bc2565b50600760009054906101000a900473ffffffffffffffffffffffffffffffffffffffff1673ffffffffffffffffffffffffffffffffffffffff166323b872dd3330876040518463ffffffff1660e01b815260040161122f93929190614b5f565b6020604051808303816000875af115801561124e573d6000803e3d6000fd5b505050506040513d601f19601f820116820180604052508101906112729190614bc2565b50600085905061128961128361395b565b82614011565b7f28e12afd967cc11b786f1b1547f5e0da96ccc91ebb09bdd406248111a634e7e533828888600660009054906101000a900473ffffffffffffffffffffffffffffffffffffffff1673ffffffffffffffffffffffffffffffffffffffff166370a08231306040518263ffffffff1660e01b815260040161130991906146f0565b602060405180830381865afa158015611326573d6000803e3d6000fd5b505050506040513d601f19601f8201168201806040525081019061134a91906148a4565b600760009054906101000a900473ffffffffffffffffffffffffffffffffffffffff1673ffffffffffffffffffffffffffffffffffffffff166370a08231306040518263ffffffff1660e01b81526004016113a591906146f0565b602060405180830381865afa1580156113c2573d6000803e3d6000fd5b505050506040513d601f19601f820116820180604052508101906113e691906148a4565b6040516113f896959493929190614c18565b60405180910390a18092505050611833565b6000806114156136e8565b809250819350505060006114688261145a8561144c61143d8d89613e2e90919063ffffffff16565b8761391990919063ffffffff16565b61392f90919063ffffffff16565b61394590919063ffffffff16565b90506000611491846114838b8861391990919063ffffffff16565b61392f90919063ffffffff16565b9050600082116114d6576040517f08c379a00000000000000000000000000000000000000000000000000000000081526004016114cd9061486f565b60405180910390fd5b87821115611519576040517f08c379a00000000000000000000000000000000000000000000000000000000081526004016115109061486f565b60405180910390fd5b8981101561155c576040517f08c379a000000000000000000000000000000000000000000000000000000000815260040161155390614f38565b60405180910390fd5b600660009054906101000a900473ffffffffffffffffffffffffffffffffffffffff1673ffffffffffffffffffffffffffffffffffffffff166323b872dd33308c6040518463ffffffff1660e01b81526004016115bb93929190614b5f565b6020604051808303816000875af11580156115da573d6000803e3d6000fd5b505050506040513d601f19601f820116820180604052508101906115fe9190614bc2565b50600760009054906101000a900473ffffffffffffffffffffffffffffffffffffffff1673ffffffffffffffffffffffffffffffffffffffff166323b872dd3330856040518463ffffffff1660e01b815260040161165e93929190614b5f565b6020604051808303816000875af115801561167d573d6000803e3d6000fd5b505050506040513d601f19601f820116820180604052508101906116a19190614bc2565b506116b36116ad61395b565b82614011565b7f28e12afd967cc11b786f1b1547f5e0da96ccc91ebb09bdd406248111a634e7e533828b85600660009054906101000a900473ffffffffffffffffffffffffffffffffffffffff1673ffffffffffffffffffffffffffffffffffffffff166370a08231306040518263ffffffff1660e01b815260040161173391906146f0565b602060405180830381865afa158015611750573d6000803e3d6000fd5b505050506040513d601f19601f8201168201806040525081019061177491906148a4565b600760009054906101000a900473ffffffffffffffffffffffffffffffffffffffff1673ffffffffffffffffffffffffffffffffffffffff166370a08231306040518263ffffffff1660e01b81526004016117cf91906146f0565b602060405180830381865afa1580156117ec573d6000803e3d6000fd5b505050506040513d601f19601f8201168201806040525081019061181091906148a4565b60405161182296959493929190614c18565b60405180910390a180955050505050505b949350505050565b60008060009050600061184c6136e8565b8092508193505050600061187f6103e86118716008548861391990919063ffffffff16565b61392f90919063ffffffff16565b90506000611896828761394590919063ffffffff16565b905060006118a5828686612fb7565b90508095505050505050919050565b60008060006118c1610ea4565b9050600080600083036118d957859150859050611961565b6000806118e46136e8565b8092508193505050611935826119278361191961190a8d87613e2e90919063ffffffff16565b8761391990919063ffffffff16565b61392f90919063ffffffff16565b61394590919063ffffffff16565b925061195c8261194e858861391990919063ffffffff16565b61392f90919063ffffffff16565b935050505b818194509450505050915091565b60008060008373ffffffffffffffffffffffffffffffffffffffff1673ffffffffffffffffffffffffffffffffffffffff168152602001908152602001600020549050919050565b60008060006119c4610ea4565b9050808411156119d2578093505b6000806119dd6136e8565b80925081935050506000611a0c846119fe858a61391990919063ffffffff16565b61392f90919063ffffffff16565b90506000611a3585611a27858b61391990919063ffffffff16565b61392f90919063ffffffff16565b90508181965096505050505050915091565b611a4f614167565b611a5960006141e5565b565b42811015611a9e576040517f08c379a0000000000000000000000000000000000000000000000000000000008152600401611a9590614797565b60405180910390fd5b60008311611ae1576040517f08c379a0000000000000000000000000000000000000000000000000000000008152600401611ad890614ecc565b60405180910390fd5b60008211611b24576040517f08c379a0000000000000000000000000000000000000000000000000000000008152600401611b1b90614fa4565b60405180910390fd5b600660009054906101000a900473ffffffffffffffffffffffffffffffffffffffff1673ffffffffffffffffffffffffffffffffffffffff166370a08231306040518263ffffffff1660e01b8152600401611b7f91906146f0565b602060405180830381865afa158015611b9c573d6000803e3d6000fd5b505050506040513d601f19601f82011682018060405250810190611bc091906148a4565b8210611c01576040517f08c379a0000000000000000000000000000000000000000000000000000000008152600401611bf890614b3f565b60405180910390fd5b600080611c0c6136e8565b8092508193505050818410611c56576040517f08c379a0000000000000000000000000000000000000000000000000000000008152600401611c4d90614aad565b60405180910390fd5b6000611c63858484612700565b90506000611c906103e8611c826008548561391990919063ffffffff16565b61392f90919063ffffffff16565b9050611ca58183613e2e90919063ffffffff16565b915086821115611cea576040517f08c379a0000000000000000000000000000000000000000000000000000000008152600401611ce190614a1b565b60405180910390fd5b60008211611d2d576040517f08c379a0000000000000000000000000000000000000000000000000000000008152600401611d249061486f565b60405180910390fd5b600760009054906101000a900473ffffffffffffffffffffffffffffffffffffffff1673ffffffffffffffffffffffffffffffffffffffff166370a08231336040518263ffffffff1660e01b8152600401611d8891906146f0565b602060405180830381865afa158015611da5573d6000803e3d6000fd5b505050506040513d601f19601f82011682018060405250810190611dc991906148a4565b821115611e0b576040517f08c379a0000000000000000000000000000000000000000000000000000000008152600401611e029061491d565b60405180910390fd5b600760009054906101000a900473ffffffffffffffffffffffffffffffffffffffff1673ffffffffffffffffffffffffffffffffffffffff166323b872dd611e5161395b565b30856040518463ffffffff1660e01b8152600401611e7193929190614b5f565b6020604051808303816000875af1158015611e90573d6000803e3d6000fd5b505050506040513d601f19601f82011682018060405250810190611eb49190614bc2565b50600660009054906101000a900473ffffffffffffffffffffffffffffffffffffffff1673ffffffffffffffffffffffffffffffffffffffff1663a9059cbb611efb61395b565b886040518363ffffffff1660e01b8152600401611f19929190614bef565b6020604051808303816000875af1158015611f38573d6000803e3d6000fd5b505050506040513d601f19601f82011682018060405250810190611f5c9190614bc2565b50600760009054906101000a900473ffffffffffffffffffffffffffffffffffffffff1673ffffffffffffffffffffffffffffffffffffffff1663a9059cbb611fa3612644565b836040518363ffffffff1660e01b8152600401611fc1929190614bef565b6020604051808303816000875af1158015611fe0573d6000803e3d6000fd5b505050506040513d601f19601f820116820180604052508101906120049190614bc2565b507ff116a588cdba1b14c04ffd8bca7fee39286e7c8d9da59d77c036430e4b415dbc33888489888860405161203e96959493929190614c18565b60405180910390a150505050505050565b60008042831015612095576040517f08c379a000000000000000000000000000000000000000000000000000000000815260040161208c90614797565b60405180910390fd5b600086116120d8576040517f08c379a00000000000000000000000000000000000000000000000000000000081526004016120cf90615010565b60405180910390fd5b6000851161211b576040517f08c379a000000000000000000000000000000000000000000000000000000000815260040161211290614803565b60405180910390fd5b6000841161215e576040517f08c379a00000000000000000000000000000000000000000000000000000000081526004016121559061507c565b60405180910390fd5b6000612168610ea4565b905060006121753361196f565b905080881115612183578097505b818811156121c6576040517f08c379a00000000000000000000000000000000000000000000000000000000081526004016121bd906150e8565b60405180910390fd5b6000806121d16136e8565b80925081935050506000612200856121f2858e61391990919063ffffffff16565b61392f90919063ffffffff16565b905060006122298661221b858f61391990919063ffffffff16565b61392f90919063ffffffff16565b90508a82101561226e576040517f08c379a000000000000000000000000000000000000000000000000000000000815260040161226590614fa4565b60405180910390fd5b898110156122b1576040517f08c379a00000000000000000000000000000000000000000000000000000000081526004016122a890615154565b60405180910390fd5b838211156122f4576040517f08c379a00000000000000000000000000000000000000000000000000000000081526004016122eb906151c0565b60405180910390fd5b82811115612337576040517f08c379a000000000000000000000000000000000000000000000000000000000815260040161232e90615252565b60405180910390fd5b61234861234261395b565b8d613e44565b600660009054906101000a900473ffffffffffffffffffffffffffffffffffffffff1673ffffffffffffffffffffffffffffffffffffffff1663a9059cbb61238e61395b565b846040518363ffffffff1660e01b81526004016123ac929190614bef565b6020604051808303816000875af11580156123cb573d6000803e3d6000fd5b505050506040513d601f19601f820116820180604052508101906123ef9190614bc2565b50600760009054906101000a900473ffffffffffffffffffffffffffffffffffffffff1673ffffffffffffffffffffffffffffffffffffffff1663a9059cbb61243661395b565b836040518363ffffffff1660e01b8152600401612454929190614bef565b6020604051808303816000875af1158015612473573d6000803e3d6000fd5b505050506040513d601f19601f820116820180604052508101906124979190614bc2565b507f555901717744791e9e27303c0df147d5a5eea5b7098591b2c5f2138ed6a605de338d8484600660009054906101000a900473ffffffffffffffffffffffffffffffffffffffff1673ffffffffffffffffffffffffffffffffffffffff166370a08231306040518263ffffffff1660e01b815260040161251891906146f0565b602060405180830381865afa158015612535573d6000803e3d6000fd5b505050506040513d601f19601f8201168201806040525081019061255991906148a4565b600760009054906101000a900473ffffffffffffffffffffffffffffffffffffffff1673ffffffffffffffffffffffffffffffffffffffff166370a08231306040518263ffffffff1660e01b81526004016125b491906146f0565b602060405180830381865afa1580156125d1573d6000803e3d6000fd5b505050506040513d601f19601f820116820180604052508101906125f591906148a4565b60405161260796959493929190614c18565b60405180910390a181819750975050505050505094509492505050565b6126368261263061395b565b83613b2c565b6126408282613e44565b5050565b6000600560009054906101000a900473ffffffffffffffffffffffffffffffffffffffff16905090565b60606004805461267d90614ca8565b80601f01602080910402602001604051908101604052809291908181526020018280546126a990614ca8565b80156126f65780601f106126cb576101008083540402835291602001916126f6565b820191906000526020600020905b8154815290600101906020018083116126d957829003601f168201915b5050505050905090565b600080831180156127115750600082115b612750576040517f08c379a000000000000000000000000000000000000000000000000000000000815260040161274790614d25565b60405180910390fd5b6000612765848461391990919063ffffffff16565b9050600061277c868661394590919063ffffffff16565b905060006127a585612797848661392f90919063ffffffff16565b61394590919063ffffffff16565b90508093505050509392505050565b6000806127bf61395b565b905060006127cd828661306b565b905083811015612812576040517f08c379a0000000000000000000000000000000000000000000000000000000008152600401612809906152e4565b60405180910390fd5b61281f8286868403613963565b60019250505092915050565b60008061283661395b565b9050612843818585613bb8565b600191505092915050565b6000808311801561285f5750600082115b61289e576040517f08c379a000000000000000000000000000000000000000000000000000000000815260040161289590614d25565b60405180910390fd5b60006128b3848461391990919063ffffffff16565b905060006128ca868561394590919063ffffffff16565b905060006128f3866128e5848661392f90919063ffffffff16565b61394590919063ffffffff16565b90508093505050509392505050565b600080600061290f610ea4565b905060008060008303612927578591508590506129af565b6000806129326136e8565b809250819350505061298381612975846129676129588d88613e2e90919063ffffffff16565b8661391990919063ffffffff16565b61392f90919063ffffffff16565b61394590919063ffffffff16565b92506129aa8261299c8a8861391990919063ffffffff16565b61392f90919063ffffffff16565b935050505b818194509450505050915091565b42811015612a00576040517f08c379a00000000000000000000000000000000000000000000000000000000081526004016129f790614797565b60405180910390fd5b60008311612a43576040517f08c379a0000000000000000000000000000000000000000000000000000000008152600401612a3a90615350565b60405180910390fd5b60008211612a86576040517f08c379a0000000000000000000000000000000000000000000000000000000008152600401612a7d90615154565b60405180910390fd5b600760009054906101000a900473ffffffffffffffffffffffffffffffffffffffff1673ffffffffffffffffffffffffffffffffffffffff166370a08231306040518263ffffffff1660e01b8152600401612ae191906146f0565b602060405180830381865afa158015612afe573d6000803e3d6000fd5b505050506040513d601f19601f82011682018060405250810190612b2291906148a4565b8210612b63576040517f08c379a0000000000000000000000000000000000000000000000000000000008152600401612b5a906153e2565b60405180910390fd5b600080612b6e6136e8565b8092508193505050808410612bb8576040517f08c379a0000000000000000000000000000000000000000000000000000000008152600401612baf90615474565b60405180910390fd5b6000612bc585848461284e565b90506000612bf26103e8612be46008548561391990919063ffffffff16565b61392f90919063ffffffff16565b9050612c078183613e2e90919063ffffffff16565b915086821115612c4c576040517f08c379a0000000000000000000000000000000000000000000000000000000008152600401612c4390614a1b565b60405180910390fd5b60008211612c8f576040517f08c379a0000000000000000000000000000000000000000000000000000000008152600401612c8690614e60565b60405180910390fd5b600660009054906101000a900473ffffffffffffffffffffffffffffffffffffffff1673ffffffffffffffffffffffffffffffffffffffff166370a08231336040518263ffffffff1660e01b8152600401612cea91906146f0565b602060405180830381865afa158015612d07573d6000803e3d6000fd5b505050506040513d601f19601f82011682018060405250810190612d2b91906148a4565b821115612d6d576040517f08c379a0000000000000000000000000000000000000000000000000000000008152600401612d64906154e0565b60405180910390fd5b600660009054906101000a900473ffffffffffffffffffffffffffffffffffffffff1673ffffffffffffffffffffffffffffffffffffffff166323b872dd612db361395b565b30856040518463ffffffff1660e01b8152600401612dd393929190614b5f565b6020604051808303816000875af1158015612df2573d6000803e3d6000fd5b505050506040513d601f19601f82011682018060405250810190612e169190614bc2565b50600760009054906101000a900473ffffffffffffffffffffffffffffffffffffffff1673ffffffffffffffffffffffffffffffffffffffff1663a9059cbb612e5d61395b565b886040518363ffffffff1660e01b8152600401612e7b929190614bef565b6020604051808303816000875af1158015612e9a573d6000803e3d6000fd5b505050506040513d601f19601f82011682018060405250810190612ebe9190614bc2565b50600660009054906101000a900473ffffffffffffffffffffffffffffffffffffffff1673ffffffffffffffffffffffffffffffffffffffff1663a9059cbb612f05612644565b836040518363ffffffff1660e01b8152600401612f23929190614bef565b6020604051808303816000875af1158015612f42573d6000803e3d6000fd5b505050506040513d601f19601f82011682018060405250810190612f669190614bc2565b507f6e9d5a0202c67970b52b10deb68f1641a9408d90db857bc984d008c1be70383a338884898888604051612fa096959493929190614c18565b60405180910390a150505050505050565b60085481565b60008083118015612fc85750600082115b613007576040517f08c379a0000000000000000000000000000000000000000000000000000000008152600401612ffe90614d25565b60405180910390fd5b600061301c848461391990919063ffffffff16565b905060006130338685613e2e90919063ffffffff16565b9050600061305c61304d838561392f90919063ffffffff16565b8761394590919063ffffffff16565b90508093505050509392505050565b6000600160008473ffffffffffffffffffffffffffffffffffffffff1673ffffffffffffffffffffffffffffffffffffffff16815260200190815260200160002060008373ffffffffffffffffffffffffffffffffffffffff1673ffffffffffffffffffffffffffffffffffffffff16815260200190815260200160002054905092915050565b42811015613135576040517f08c379a000000000000000000000000000000000000000000000000000000000815260040161312c90614797565b60405180910390fd5b60008311613178576040517f08c379a000000000000000000000000000000000000000000000000000000000815260040161316f90614e60565b60405180910390fd5b600082116131bb576040517f08c379a00000000000000000000000000000000000000000000000000000000081526004016131b29061507c565b60405180910390fd5b600660009054906101000a900473ffffffffffffffffffffffffffffffffffffffff1673ffffffffffffffffffffffffffffffffffffffff166370a08231336040518263ffffffff1660e01b815260040161321691906146f0565b602060405180830381865afa158015613233573d6000803e3d6000fd5b505050506040513d601f19601f8201168201806040525081019061325791906148a4565b831115613299576040517f08c379a0000000000000000000000000000000000000000000000000000000008152600401613290906154e0565b60405180910390fd5b6000806132a46136e8565b80925081935050508084106132ee576040517f08c379a00000000000000000000000000000000000000000000000000000000081526004016132e590615572565b60405180910390fd5b60006133196103e861330b6008548961391990919063ffffffff16565b61392f90919063ffffffff16565b90506000613330828861394590919063ffffffff16565b9050600061333f828686610edd565b905086811015613384576040517f08c379a000000000000000000000000000000000000000000000000000000000815260040161337b90614a1b565b60405180910390fd5b8381106133c6576040517f08c379a00000000000000000000000000000000000000000000000000000000081526004016133bd90615474565b60405180910390fd5b600760009054906101000a900473ffffffffffffffffffffffffffffffffffffffff1673ffffffffffffffffffffffffffffffffffffffff166370a08231306040518263ffffffff1660e01b815260040161342191906146f0565b602060405180830381865afa15801561343e573d6000803e3d6000fd5b505050506040513d601f19601f8201168201806040525081019061346291906148a4565b81106134a3576040517f08c379a000000000000000000000000000000000000000000000000000000000815260040161349a906153e2565b60405180910390fd5b600660009054906101000a900473ffffffffffffffffffffffffffffffffffffffff1673ffffffffffffffffffffffffffffffffffffffff166323b872dd6134e961395b565b308b6040518463ffffffff1660e01b815260040161350993929190614b5f565b6020604051808303816000875af1158015613528573d6000803e3d6000fd5b505050506040513d601f19601f8201168201806040525081019061354c9190614bc2565b50600760009054906101000a900473ffffffffffffffffffffffffffffffffffffffff1673ffffffffffffffffffffffffffffffffffffffff1663a9059cbb61359361395b565b836040518363ffffffff1660e01b81526004016135b1929190614bef565b6020604051808303816000875af11580156135d0573d6000803e3d6000fd5b505050506040513d601f19601f820116820180604052508101906135f49190614bc2565b50600660009054906101000a900473ffffffffffffffffffffffffffffffffffffffff1673ffffffffffffffffffffffffffffffffffffffff1663a9059cbb61363b612644565b856040518363ffffffff1660e01b8152600401613659929190614bef565b6020604051808303816000875af1158015613678573d6000803e3d6000fd5b505050506040513d601f19601f8201168201806040525081019061369c9190614bc2565b507fd294be030e23d0862312f418541ec01d571908715169f1cb1109bba3212b8c2d33888a8489896040516136d696959493929190614c18565b60405180910390a15050505050505050565b6000806000600660009054906101000a900473ffffffffffffffffffffffffffffffffffffffff1673ffffffffffffffffffffffffffffffffffffffff166370a08231306040518263ffffffff1660e01b815260040161374891906146f0565b602060405180830381865afa158015613765573d6000803e3d6000fd5b505050506040513d601f19601f8201168201806040525081019061378991906148a4565b90506000600760009054906101000a900473ffffffffffffffffffffffffffffffffffffffff1673ffffffffffffffffffffffffffffffffffffffff166370a08231306040518263ffffffff1660e01b81526004016137e891906146f0565b602060405180830381865afa158015613805573d6000803e3d6000fd5b505050506040513d601f19601f8201168201806040525081019061382991906148a4565b905081819350935050509091565b6000806000905060006138486136e8565b80925081935050506000613865838361391990919063ffffffff16565b905080935050505090565b613878614167565b600073ffffffffffffffffffffffffffffffffffffffff168173ffffffffffffffffffffffffffffffffffffffff16036138e7576040517f08c379a00000000000000000000000000000000000000000000000000000000081526004016138de90615604565b60405180910390fd5b6138f0816141e5565b50565b600760009054906101000a900473ffffffffffffffffffffffffffffffffffffffff1681565b600081836139279190615624565b905092915050565b6000818361393d9190615695565b905092915050565b6000818361395391906156c6565b905092915050565b600033905090565b600073ffffffffffffffffffffffffffffffffffffffff168373ffffffffffffffffffffffffffffffffffffffff16036139d2576040517f08c379a00000000000000000000000000000000000000000000000000000000081526004016139c99061576c565b60405180910390fd5b600073ffffffffffffffffffffffffffffffffffffffff168273ffffffffffffffffffffffffffffffffffffffff1603613a41576040517f08c379a0000000000000000000000000000000000000000000000000000000008152600401613a38906157fe565b60405180910390fd5b80600160008573ffffffffffffffffffffffffffffffffffffffff1673ffffffffffffffffffffffffffffffffffffffff16815260200190815260200160002060008473ffffffffffffffffffffffffffffffffffffffff1673ffffffffffffffffffffffffffffffffffffffff168152602001908152602001600020819055508173ffffffffffffffffffffffffffffffffffffffff168373ffffffffffffffffffffffffffffffffffffffff167f8c5be1e5ebec7d5bd14f71427d1e84f3dd0314c0f7b2291e5b200ac8c7c3b92583604051613b1f9190614505565b60405180910390a3505050565b6000613b38848461306b565b90507fffffffffffffffffffffffffffffffffffffffffffffffffffffffffffffffff8114613bb25781811015613ba4576040517f08c379a0000000000000000000000000000000000000000000000000000000008152600401613b9b9061586a565b60405180910390fd5b613bb18484848403613963565b5b50505050565b600073ffffffffffffffffffffffffffffffffffffffff168373ffffffffffffffffffffffffffffffffffffffff1603613c27576040517f08c379a0000000000000000000000000000000000000000000000000000000008152600401613c1e906158fc565b60405180910390fd5b600073ffffffffffffffffffffffffffffffffffffffff168273ffffffffffffffffffffffffffffffffffffffff1603613c96576040517f08c379a0000000000000000000000000000000000000000000000000000000008152600401613c8d9061598e565b60405180910390fd5b613ca18383836142ab565b60008060008573ffffffffffffffffffffffffffffffffffffffff1673ffffffffffffffffffffffffffffffffffffffff16815260200190815260200160002054905081811015613d27576040517f08c379a0000000000000000000000000000000000000000000000000000000008152600401613d1e90615a20565b60405180910390fd5b8181036000808673ffffffffffffffffffffffffffffffffffffffff1673ffffffffffffffffffffffffffffffffffffffff16815260200190815260200160002081905550816000808573ffffffffffffffffffffffffffffffffffffffff1673ffffffffffffffffffffffffffffffffffffffff168152602001908152602001600020600082825401925050819055508273ffffffffffffffffffffffffffffffffffffffff168473ffffffffffffffffffffffffffffffffffffffff167fddf252ad1be2c89b69c2b068fc378daa952ba7f163c4a11628f55a4df523b3ef84604051613e159190614505565b60405180910390a3613e288484846142b0565b50505050565b60008183613e3c9190614d74565b905092915050565b600073ffffffffffffffffffffffffffffffffffffffff168273ffffffffffffffffffffffffffffffffffffffff1603613eb3576040517f08c379a0000000000000000000000000000000000000000000000000000000008152600401613eaa90615ab2565b60405180910390fd5b613ebf826000836142ab565b60008060008473ffffffffffffffffffffffffffffffffffffffff1673ffffffffffffffffffffffffffffffffffffffff16815260200190815260200160002054905081811015613f45576040517f08c379a0000000000000000000000000000000000000000000000000000000008152600401613f3c90615b44565b60405180910390fd5b8181036000808573ffffffffffffffffffffffffffffffffffffffff1673ffffffffffffffffffffffffffffffffffffffff1681526020019081526020016000208190555081600260008282540392505081905550600073ffffffffffffffffffffffffffffffffffffffff168373ffffffffffffffffffffffffffffffffffffffff167fddf252ad1be2c89b69c2b068fc378daa952ba7f163c4a11628f55a4df523b3ef84604051613ff89190614505565b60405180910390a361400c836000846142b0565b505050565b600073ffffffffffffffffffffffffffffffffffffffff168273ffffffffffffffffffffffffffffffffffffffff1603614080576040517f08c379a000000000000000000000000000000000000000000000000000000000815260040161407790615bb0565b60405180910390fd5b61408c600083836142ab565b806002600082825461409e9190614d74565b92505081905550806000808473ffffffffffffffffffffffffffffffffffffffff1673ffffffffffffffffffffffffffffffffffffffff168152602001908152602001600020600082825401925050819055508173ffffffffffffffffffffffffffffffffffffffff16600073ffffffffffffffffffffffffffffffffffffffff167fddf252ad1be2c89b69c2b068fc378daa952ba7f163c4a11628f55a4df523b3ef8360405161414f9190614505565b60405180910390a3614163600083836142b0565b5050565b61416f61395b565b73ffffffffffffffffffffffffffffffffffffffff1661418d612644565b73ffffffffffffffffffffffffffffffffffffffff16146141e3576040517f08c379a00000000000000000000000000000000000000000000000000000000081526004016141da90615c1c565b60405180910390fd5b565b6000600560009054906101000a900473ffffffffffffffffffffffffffffffffffffffff16905081600560006101000a81548173ffffffffffffffffffffffffffffffffffffffff021916908373ffffffffffffffffffffffffffffffffffffffff1602179055508173ffffffffffffffffffffffffffffffffffffffff168173ffffffffffffffffffffffffffffffffffffffff167f8be0079c531659141344cd1fd0a4f28419497f9722a3daafe3b4186f6b6457e060405160405180910390a35050565b505050565b505050565b600080fd5b6000819050919050565b6142cd816142ba565b81146142d857600080fd5b50565b6000813590506142ea816142c4565b92915050565b600080600060608486031215614309576143086142b5565b5b6000614317868287016142db565b9350506020614328868287016142db565b9250506040614339868287016142db565b9150509250925092565b600081519050919050565b600082825260208201905092915050565b60005b8381101561437d578082015181840152602081019050614362565b60008484015250505050565b6000601f19601f8301169050919050565b60006143a582614343565b6143af818561434e565b93506143bf81856020860161435f565b6143c881614389565b840191505092915050565b600060208201905081810360008301526143ed818461439a565b905092915050565b600073ffffffffffffffffffffffffffffffffffffffff82169050919050565b6000614420826143f5565b9050919050565b61443081614415565b811461443b57600080fd5b50565b60008135905061444d81614427565b92915050565b6000806040838503121561446a576144696142b5565b5b60006144788582860161443e565b9250506020614489858286016142db565b9150509250929050565b60008115159050919050565b6144a881614493565b82525050565b60006020820190506144c3600083018461449f565b92915050565b6000602082840312156144df576144de6142b5565b5b60006144ed848285016142db565b91505092915050565b6144ff816142ba565b82525050565b600060208201905061451a60008301846144f6565b92915050565b600080600060608486031215614539576145386142b5565b5b60006145478682870161443e565b93505060206145588682870161443e565b9250506040614569868287016142db565b9150509250925092565b600060ff82169050919050565b61458981614573565b82525050565b60006020820190506145a46000830184614580565b92915050565b6000819050919050565b60006145cf6145ca6145c5846143f5565b6145aa565b6143f5565b9050919050565b60006145e1826145b4565b9050919050565b60006145f3826145d6565b9050919050565b614603816145e8565b82525050565b600060208201905061461e60008301846145fa565b92915050565b6000806000806080858703121561463e5761463d6142b5565b5b600061464c878288016142db565b945050602061465d878288016142db565b935050604061466e878288016142db565b925050606061467f878288016142db565b91505092959194509250565b60006040820190506146a060008301856144f6565b6146ad60208301846144f6565b9392505050565b6000602082840312156146ca576146c96142b5565b5b60006146d88482850161443e565b91505092915050565b6146ea81614415565b82525050565b600060208201905061470560008301846146e1565b92915050565b60008060408385031215614722576147216142b5565b5b60006147308582860161443e565b92505060206147418582860161443e565b9150509250929050565b7f494e56414c49445f444541444c494e4500000000000000000000000000000000600082015250565b600061478160108361434e565b915061478c8261474b565b602082019050919050565b600060208201905081810360008301526147b081614774565b9050919050565b7f494e56414c49445f4d494e5f424153455f4f5554505554000000000000000000600082015250565b60006147ed60178361434e565b91506147f8826147b7565b602082019050919050565b6000602082019050818103600083015261481c816147e0565b9050919050565b7f494e56414c49445f544f4b454e5f494e50555400000000000000000000000000600082015250565b600061485960138361434e565b915061486482614823565b602082019050919050565b600060208201905081810360008301526148888161484c565b9050919050565b60008151905061489e816142c4565b92915050565b6000602082840312156148ba576148b96142b5565b5b60006148c88482850161488f565b91505092915050565b7f544f4b454e5f494e5055545f4849474845525f555345525f42414c414e434500600082015250565b6000614907601f8361434e565b9150614912826148d1565b602082019050919050565b60006020820190508181036000830152614936816148fa565b9050919050565b7f4d494e5f424153455f4f55545055545f4849474845525f504f4f4c5f4241534560008201527f5f42414c414e4345000000000000000000000000000000000000000000000000602082015250565b600061499960288361434e565b91506149a48261493d565b604082019050919050565b600060208201905081810360008301526149c88161498c565b9050919050565b7f43414e5f4e4f545f4d414b455f54524144450000000000000000000000000000600082015250565b6000614a0560128361434e565b9150614a10826149cf565b602082019050919050565b60006020820190508181036000830152614a34816149f8565b9050919050565b7f424153455f4f55545055545f4849474845525f504f4f4c5f424153455f42414c60008201527f414e434500000000000000000000000000000000000000000000000000000000602082015250565b6000614a9760248361434e565b9150614aa282614a3b565b604082019050919050565b60006020820190508181036000830152614ac681614a8a565b9050919050565b7f424153455f4f55545055545f4849474845525f43555252454e545f545241444560008201527f5f42414c414e4345000000000000000000000000000000000000000000000000602082015250565b6000614b2960288361434e565b9150614b3482614acd565b604082019050919050565b60006020820190508181036000830152614b5881614b1c565b9050919050565b6000606082019050614b7460008301866146e1565b614b8160208301856146e1565b614b8e60408301846144f6565b949350505050565b614b9f81614493565b8114614baa57600080fd5b50565b600081519050614bbc81614b96565b92915050565b600060208284031215614bd857614bd76142b5565b5b6000614be684828501614bad565b91505092915050565b6000604082019050614c0460008301856146e1565b614c1160208301846144f6565b9392505050565b600060c082019050614c2d60008301896146e1565b614c3a60208301886144f6565b614c4760408301876144f6565b614c5460608301866144f6565b614c6160808301856144f6565b614c6e60a08301846144f6565b979650505050505050565b7f4e487b7100000000000000000000000000000000000000000000000000000000600052602260045260246000fd5b60006002820490506001821680614cc057607f821691505b602082108103614cd357614cd2614c79565b5b50919050565b7f494e56414c49445f56414c554500000000000000000000000000000000000000600082015250565b6000614d0f600d8361434e565b9150614d1a82614cd9565b602082019050919050565b60006020820190508181036000830152614d3e81614d02565b9050919050565b7f4e487b7100000000000000000000000000000000000000000000000000000000600052601160045260246000fd5b6000614d7f826142ba565b9150614d8a836142ba565b9250828201905080821115614da257614da1614d45565b5b92915050565b7f494e56414c49445f4d494e5f4c50000000000000000000000000000000000000600082015250565b6000614dde600e8361434e565b9150614de982614da8565b602082019050919050565b60006020820190508181036000830152614e0d81614dd1565b9050919050565b7f494e56414c49445f424153455f494e5055540000000000000000000000000000600082015250565b6000614e4a60128361434e565b9150614e5582614e14565b602082019050919050565b60006020820190508181036000830152614e7981614e3d565b9050919050565b7f494e56414c49445f4d41585f544f4b454e5f494e505554000000000000000000600082015250565b6000614eb660178361434e565b9150614ec182614e80565b602082019050919050565b60006020820190508181036000830152614ee581614ea9565b9050919050565b7f494e56414c49445f4d494e545f4c500000000000000000000000000000000000600082015250565b6000614f22600f8361434e565b9150614f2d82614eec565b602082019050919050565b60006020820190508181036000830152614f5181614f15565b9050919050565b7f494e56414c49445f424153455f4f555450555400000000000000000000000000600082015250565b6000614f8e60138361434e565b9150614f9982614f58565b602082019050919050565b60006020820190508181036000830152614fbd81614f81565b9050919050565b7f494e56414c49445f414d4f554e545f4c50000000000000000000000000000000600082015250565b6000614ffa60118361434e565b915061500582614fc4565b602082019050919050565b6000602082019050818103600083015261502981614fed565b9050919050565b7f494e56414c49445f4d494e5f544f4b454e5f4f55545055540000000000000000600082015250565b600061506660188361434e565b915061507182615030565b602082019050919050565b6000602082019050818103600083015261509581615059565b9050919050565b7f494e56414c49445f414d4f554e545f4c505f544f54414c5f535550504c590000600082015250565b60006150d2601e8361434e565b91506150dd8261509c565b602082019050919050565b60006020820190508181036000830152615101816150c5565b9050919050565b7f494e56414c49445f544f4b454e5f4f5554505554000000000000000000000000600082015250565b600061513e60148361434e565b915061514982615108565b602082019050919050565b6000602082019050818103600083015261516d81615131565b9050919050565b7f424153455f4f55545055545f4849474845525f424153455f42414c414e434500600082015250565b60006151aa601f8361434e565b91506151b582615174565b602082019050919050565b600060208201905081810360008301526151d98161519d565b9050919050565b7f544f4b454e5f4f55545055545f4849474845525f544f4b454e5f42414c414e4360008201527f4500000000000000000000000000000000000000000000000000000000000000602082015250565b600061523c60218361434e565b9150615247826151e0565b604082019050919050565b6000602082019050818103600083015261526b8161522f565b9050919050565b7f45524332303a2064656372656173656420616c6c6f77616e63652062656c6f7760008201527f207a65726f000000000000000000000000000000000000000000000000000000602082015250565b60006152ce60258361434e565b91506152d982615272565b604082019050919050565b600060208201905081810360008301526152fd816152c1565b9050919050565b7f494e56414c49445f4d41585f424153455f494e50555400000000000000000000600082015250565b600061533a60168361434e565b915061534582615304565b602082019050919050565b600060208201905081810360008301526153698161532d565b9050919050565b7f544f4b454e5f4f55545055545f4849474845525f43555252454e545f5452414460008201527f455f42414c414e43450000000000000000000000000000000000000000000000602082015250565b60006153cc60298361434e565b91506153d782615370565b604082019050919050565b600060208201905081810360008301526153fb816153bf565b9050919050565b7f544f4b454e5f4f55545055545f4849474845525f504f4f4c5f544f4b454e5f4260008201527f414c414e43450000000000000000000000000000000000000000000000000000602082015250565b600061545e60268361434e565b915061546982615402565b604082019050919050565b6000602082019050818103600083015261548d81615451565b9050919050565b7f424153455f494e5055545f4849474845525f555345525f42414c414e43450000600082015250565b60006154ca601e8361434e565b91506154d582615494565b602082019050919050565b600060208201905081810360008301526154f9816154bd565b9050919050565b7f4d494e5f544f4b454e5f4849474845525f504f4f4c5f544f4b454e5f42414c4160008201527f4e43450000000000000000000000000000000000000000000000000000000000602082015250565b600061555c60238361434e565b915061556782615500565b604082019050919050565b6000602082019050818103600083015261558b8161554f565b9050919050565b7f4f776e61626c653a206e6577206f776e657220697320746865207a65726f206160008201527f6464726573730000000000000000000000000000000000000000000000000000602082015250565b60006155ee60268361434e565b91506155f982615592565b604082019050919050565b6000602082019050818103600083015261561d816155e1565b9050919050565b600061562f826142ba565b915061563a836142ba565b9250828202615648816142ba565b9150828204841483151761565f5761565e614d45565b5b5092915050565b7f4e487b7100000000000000000000000000000000000000000000000000000000600052601260045260246000fd5b60006156a0826142ba565b91506156ab836142ba565b9250826156bb576156ba615666565b5b828204905092915050565b60006156d1826142ba565b91506156dc836142ba565b92508282039050818111156156f4576156f3614d45565b5b92915050565b7f45524332303a20617070726f76652066726f6d20746865207a65726f2061646460008201527f7265737300000000000000000000000000000000000000000000000000000000602082015250565b600061575660248361434e565b9150615761826156fa565b604082019050919050565b6000602082019050818103600083015261578581615749565b9050919050565b7f45524332303a20617070726f766520746f20746865207a65726f20616464726560008201527f7373000000000000000000000000000000000000000000000000000000000000602082015250565b60006157e860228361434e565b91506157f38261578c565b604082019050919050565b60006020820190508181036000830152615817816157db565b9050919050565b7f45524332303a20696e73756666696369656e7420616c6c6f77616e6365000000600082015250565b6000615854601d8361434e565b915061585f8261581e565b602082019050919050565b6000602082019050818103600083015261588381615847565b9050919050565b7f45524332303a207472616e736665722066726f6d20746865207a65726f20616460008201527f6472657373000000000000000000000000000000000000000000000000000000602082015250565b60006158e660258361434e565b91506158f18261588a565b604082019050919050565b60006020820190508181036000830152615915816158d9565b9050919050565b7f45524332303a207472616e7366657220746f20746865207a65726f206164647260008201527f6573730000000000000000000000000000000000000000000000000000000000602082015250565b600061597860238361434e565b91506159838261591c565b604082019050919050565b600060208201905081810360008301526159a78161596b565b9050919050565b7f45524332303a207472616e7366657220616d6f756e742065786365656473206260008201527f616c616e63650000000000000000000000000000000000000000000000000000602082015250565b6000615a0a60268361434e565b9150615a15826159ae565b604082019050919050565b60006020820190508181036000830152615a39816159fd565b9050919050565b7f45524332303a206275726e2066726f6d20746865207a65726f2061646472657360008201527f7300000000000000000000000000000000000000000000000000000000000000602082015250565b6000615a9c60218361434e565b9150615aa782615a40565b604082019050919050565b60006020820190508181036000830152615acb81615a8f565b9050919050565b7f45524332303a206275726e20616d6f756e7420657863656564732062616c616e60008201527f6365000000000000000000000000000000000000000000000000000000000000602082015250565b6000615b2e60228361434e565b9150615b3982615ad2565b604082019050919050565b60006020820190508181036000830152615b5d81615b21565b9050919050565b7f45524332303a206d696e7420746f20746865207a65726f206164647265737300600082015250565b6000615b9a601f8361434e565b9150615ba582615b64565b602082019050919050565b60006020820190508181036000830152615bc981615b8d565b9050919050565b7f4f776e61626c653a2063616c6c6572206973206e6f7420746865206f776e6572600082015250565b6000615c0660208361434e565b9150615c1182615bd0565b602082019050919050565b60006020820190508181036000830152615c3581615bf9565b905091905056fea264697066735822122015911dc5977ce82e962a5594e0dfa7da25dc6193d022051ab4c24004ba4a940364736f6c63430008110033",
  "immutableReferences": {},
  "source": "// SPDX-License-Identifier: MIT\npragma solidity >=0.6.12;\n\nimport \"@openzeppelin/contracts/utils/math/SafeMath.sol\";\nimport \"@openzeppelin/contracts/token/ERC20/IERC20.sol\";\nimport \"@openzeppelin/contracts/token/ERC20/ERC20.sol\";\nimport \"@openzeppelin/contracts/token/ERC20/extensions/ERC20Burnable.sol\";\nimport \"@openzeppelin/contracts/utils/Context.sol\";\nimport \"@openzeppelin/contracts/access/Ownable.sol\";\n\ncontract GarbiSwapPool is ERC20Burnable, Ownable {\n    \n    using SafeMath for uint256;\n\n    IERC20 public base; // Stable coin base token (BUSD, BTCB)\n    IERC20 public token; // Token to trade in this pair\n\n    uint256 public TRADE_FEE = 2; //0.2% 2/1000\n    // Events\n\n    event onSwapBaseToTokenWithBaseInput(address sender, uint256 minTokenOutput, uint256 baseInputAmount, uint256 tokenOutputAmount, uint256 poolBaseBalance, uint256 poolTokenBalance);\n    event onSwapBaseToTokenWithTokenOutput(address sender, uint256 maxBaseInput, uint256 baseInputAmount, uint256 tokenOutputAmount, uint256 poolBaseBalance, uint256 poolTokenBalance);\n    \n    event onSwapTokenToBaseWithTokenInput(address sender, uint256 minBaseOutput, uint256 tokenInputAmount, uint256 baseOutputAmount, uint256 poolBaseBalance, uint256 poolTokenBalance);\n    event onSwapTokenToBaseWithBaseOutput(address sender, uint256 maxTokenInput, uint256 tokenInputAmount, uint256 baseOutputAmount, uint256 poolBaseBalance, uint256 poolTokenBalance);\n\n    event onAddLP(address sender, uint256 mintLP, uint256 baseInputAmount, uint256 tokenInputAmount, uint256 poolBaseBalance, uint256 poolTokenBalance);\n    event onRemoveLP(address sender, uint256 amountLP, uint256 baseOutputAmout, uint256 tokenOutputAmount, uint256 poolBaseBalance, uint256 poolTokenBalance);\n\n    constructor(\n        IERC20 _base,\n        IERC20 _token,\n        string memory name, \n        string memory symbol\n        ) ERC20(name, symbol) {\n        base = _base;\n        token = _token;\n    }\n\n    function getK() public view returns(uint256) {\n        uint256 baseReserve = 0;\n        uint256 tokenReserve = 0;\n        (baseReserve, tokenReserve) = getTotalReserve();\n        uint256 k = tokenReserve.mul(baseReserve);\n        return k;\n    }\n\n    function getTokenOutput(uint256 baseInputAmount) public view returns (uint256) {\n        uint256 baseReserve = 0;\n        uint256 tokenReserve = 0;\n        (baseReserve, tokenReserve) = getTotalReserve();\n\n        uint256 tradeFee = baseInputAmount.mul(TRADE_FEE).div(1000);\n        uint256 baseInputAmountAfterFee = baseInputAmount.sub(tradeFee); // cut the TRADE_FEE from base input\n\n        uint256 tokenOutputAmount = getTokenOutputAmountFromBaseInput(baseInputAmountAfterFee, baseReserve, tokenReserve);\n        return tokenOutputAmount;\n    }\n\n    function getBaseOutput(uint256 tokenInputAmount) public view returns (uint256) {\n        uint256 baseReserve = 0;\n        uint256 tokenReserve = 0;\n        (baseReserve, tokenReserve) = getTotalReserve();\n\n        uint256 tradeFee = tokenInputAmount.mul(TRADE_FEE).div(1000);\n        uint256 tokenInputAmountAfterFee = tokenInputAmount.sub(tradeFee); // cut the TRADE_FEE from token input\n\n        uint256 baseOutputAmount = getBaseOutputAmountFromTokenInput(tokenInputAmountAfterFee, baseReserve, tokenReserve);\n        return baseOutputAmount;\n    }\n\n    function getDataFromBaseInputToAddLp(uint256 baseInputAmount) public view returns (uint256, uint256) {\n        uint256 totalSupply = totalSupply();\n        uint256 mintLP = 0;\n        uint256 tokenInputAmount = 0;\n        if(totalSupply == 0) {\n            mintLP = baseInputAmount;\n            tokenInputAmount = baseInputAmount;\n        }\n        else { \n            // tokenReserve/baseReserve = (tokenReserve+tokenInputAmount)/(baseReserve+baseInputAmount)\n            // => tokenReserve+tokenInputAmount = tokenReserve*(baseReserve+baseInputAmount)/baseReserve\n            // => tokenInputAmount = tokenReserve*(baseReserve+baseInputAmount)/baseReserve - tokenReserve;\n            uint256 baseReserve = 0;\n            uint256 tokenReserve = 0;\n            (baseReserve, tokenReserve) = getTotalReserve();\n            tokenInputAmount = tokenReserve.mul(baseReserve.add(baseInputAmount)).div(baseReserve).sub(tokenReserve);\n            // mintLP/totalLP =  baseInputAmount/baseReserve\n            // mintLP = totalLP*baseInputAmount/baseReserve\n            mintLP = totalSupply.mul(baseInputAmount).div(baseReserve);\n        }\n        return (mintLP, tokenInputAmount);\n    }\n\n    function getDataFromTokenInputToAddLp(uint256 tokenInputAmount) public view returns (uint256, uint256) {\n        uint256 totalSupply = totalSupply();\n        uint256 mintLP;\n        uint256 baseInputAmount;\n        if(totalSupply == 0) {\n            mintLP = tokenInputAmount;\n            baseInputAmount = tokenInputAmount;\n        }\n        else { \n            // tokenReserve/baseReserve = (tokenReserve+tokenInputAmount)/(baseReserve+baseInputAmount)\n            // => (baseReserve+baseInputAmount) = (tokenReserve+tokenInputAmount) * baseReserve / tokenReserve\n            //  => baseInputAmount = (tokenReserve+tokenInputAmount) * baseReserve / tokenReserve - baseReserve\n            uint256 baseReserve = 0;\n            uint256 tokenReserve = 0;\n            (baseReserve, tokenReserve) = getTotalReserve();\n\n            baseInputAmount = baseReserve.mul(tokenReserve.add(tokenInputAmount)).div(tokenReserve).sub(baseReserve);\n            // mintLP/totalLP =  baseInputAmount/baseReserve\n            // mintLP = totalLP*baseInputAmount/baseReserve\n            mintLP = totalSupply.mul(baseInputAmount).div(baseReserve);\n        }\n        return (mintLP, baseInputAmount);\n    }\n\n    function getDataToRemoveLP(uint256 amountLP) public view returns (uint256, uint256){\n        \n        uint256 totalSupply = totalSupply();\n\n        if (amountLP > totalSupply) {\n            amountLP = totalSupply;\n        } \n        uint256 baseReserve = 0;\n        uint256 tokenReserve = 0;\n        (baseReserve, tokenReserve) = getTotalReserve();\n        \n        // amountLP/totalSupply = baseOutputAmount/baseReserve\n        // => baseOutputAmount = amountLP*baseReserve/totalSupply\n        uint256 baseOutputAmount = amountLP.mul(baseReserve).div(totalSupply);\n        uint256 tokenOutputAmount = amountLP.mul(tokenReserve).div(totalSupply);\n        \n        return (baseOutputAmount, tokenOutputAmount);\n    }\n    \n    // token*base=(token-tokenOutputAmount)*(base+baseInputAmount)\n    //token-tokenOutputAmount = token*base/(base+baseInputAmount)\n    // => tokenOutputAmount=token - token*base/(base+baseInputAmount)\n    function getTokenOutputAmountFromBaseInput(uint256 baseInputAmount, uint256 baseReserve, uint256 tokenReserve) public pure returns (uint256) {\n      require(baseReserve > 0 && tokenReserve > 0, \"INVALID_VALUE\");\n      uint256 numerator = tokenReserve.mul(baseReserve);\n      uint256 denominator = baseReserve.add(baseInputAmount);\n      uint256 tokenOutputAmount = tokenReserve.sub(numerator.div(denominator));\n      return tokenOutputAmount;\n    }\n    \n    // token*base=(token-tokenOutputAmount)*(base+baseInputAmount)\n    // base+baseInputAmount = token*base/(token-tokenOutputAmount)\n    //baseInputAmount = token*base/(token-tokenOutputAmount) - base;\n    function getBaseInputAmountFromTokenOutput(uint256 tokenOutputAmount, uint256 baseReserve, uint256 tokenReserve) public pure  returns (uint256) {\n      require(baseReserve > 0 && tokenReserve > 0, \"INVALID_VALUE\");\n      uint256 numerator = tokenReserve.mul(baseReserve);\n      uint256 denominator = tokenReserve.sub(tokenOutputAmount);\n      uint256 baseInputAmount = numerator.div(denominator).sub(baseReserve);\n      return baseInputAmount;\n    }\n    \n    // token*base=(token+tokenInputAmount)*(base-baseOutputAmount)\n    // => base - baseOutputAmount=token*base/(token+tokenInputAmount)\n    // => baseOutputAmount = base - token*base/(token+tokenInputAmount)\n    function getBaseOutputAmountFromTokenInput(uint256 tokenInputAmount, uint256 baseReserve, uint256 tokenReserve) public pure returns (uint256) {\n      require(baseReserve > 0 && tokenReserve > 0, \"INVALID_VALUE\");\n      uint256 numerator = tokenReserve.mul(baseReserve);\n      uint256 denominator = tokenReserve.add(tokenInputAmount);\n      uint256 baseOutputAmount = baseReserve.sub(numerator.div(denominator));\n      return baseOutputAmount;\n    }\n\n    // token*base=(token+tokenInputAmount)*(base-baseOutputAmount)\n    // => token+tokenInputAmount = token*base/(base-baseOutputAmount)\n    // => tokenInputAmount = token*base/(base-baseOutputAmount) - token\n    function getTokenInputAmountFromBaseOutput(uint256 baseOutputAmount, uint256 baseReserve, uint256 tokenReserve) public pure returns (uint256) {\n      require(baseReserve > 0 && tokenReserve > 0, \"INVALID_VALUE\");\n      uint256 numerator = tokenReserve.mul(baseReserve);\n      uint256 denominator = baseReserve.sub(baseOutputAmount);\n      uint256 tokenInputAmount = numerator.div(denominator).sub(tokenReserve);\n      return tokenInputAmount;\n    }\n\n    function swapBaseToTokenWithBaseInput(uint256 baseInputAmount, uint256 minTokenOutput, uint256 deadline) public {\n        require(deadline >= block.timestamp, 'INVALID_DEADLINE');\n        require(baseInputAmount > 0, 'INVALID_BASE_INPUT');\n        require(minTokenOutput > 0, 'INVALID_MIN_TOKEN_OUTPUT');\n        require(baseInputAmount <= base.balanceOf(msg.sender), 'BASE_INPUT_HIGHER_USER_BALANCE');\n        \n        uint256 baseReserve = 0;\n        uint256 tokenReserve = 0;\n        (baseReserve, tokenReserve) = getTotalReserve();\n        require(minTokenOutput < tokenReserve, \"MIN_TOKEN_HIGHER_POOL_TOKEN_BALANCE\");\n\n        uint256 tradeFee = baseInputAmount.mul(TRADE_FEE).div(1000);\n        uint256 baseInputAmountAfterFee = baseInputAmount.sub(tradeFee); // cut the TRADE_FEE from base input\n        \n        uint256 tokenOutputAmount = getTokenOutputAmountFromBaseInput(baseInputAmountAfterFee, baseReserve, tokenReserve);\n\n        require(tokenOutputAmount >= minTokenOutput, 'CAN_NOT_MAKE_TRADE');\n        require(tokenOutputAmount < tokenReserve, 'TOKEN_OUTPUT_HIGHER_POOL_TOKEN_BALANCE');\n        require(tokenOutputAmount < token.balanceOf(address(this)), 'TOKEN_OUTPUT_HIGHER_CURRENT_TRADE_BALANCE'); // output is higher than the trade contract balance\n        \n        //make trade\n        base.transferFrom(_msgSender(), address(this), baseInputAmount);\n        token.transfer(_msgSender(), tokenOutputAmount);\n\n        //transfer fee\n        base.transfer(owner(), tradeFee);\n\n        emit onSwapBaseToTokenWithBaseInput(msg.sender, minTokenOutput, baseInputAmount, tokenOutputAmount, baseReserve, tokenReserve);\n    }\n\n    function swapBaseToTokenWithTokenOutput(uint256 maxBaseInput, uint256 tokenOutputAmount, uint256 deadline) public {\n        require(deadline >= block.timestamp, 'INVALID_DEADLINE');\n        require(maxBaseInput > 0, 'INVALID_MAX_BASE_INPUT');\n        require(tokenOutputAmount > 0, 'INVALID_TOKEN_OUTPUT');\n        require(tokenOutputAmount < token.balanceOf(address(this)), 'TOKEN_OUTPUT_HIGHER_CURRENT_TRADE_BALANCE'); // output is higher than the trade contract balance\n        \n        uint256 baseReserve = 0;\n        uint256 tokenReserve = 0;\n        (baseReserve, tokenReserve) = getTotalReserve();\n        require(tokenOutputAmount < tokenReserve, \"TOKEN_OUTPUT_HIGHER_POOL_TOKEN_BALANCE\");\n\n        uint256 baseInputAmount = getBaseInputAmountFromTokenOutput(tokenOutputAmount, baseReserve, tokenReserve);\n        \n        uint256 tradeFee = baseInputAmount.mul(TRADE_FEE).div(1000);\n        baseInputAmount = baseInputAmount.add(tradeFee); // add the TRADE_FEE to base input\n\n        require(baseInputAmount <= maxBaseInput, 'CAN_NOT_MAKE_TRADE');\n        require(baseInputAmount > 0, 'INVALID_BASE_INPUT');\n        require(baseInputAmount <= base.balanceOf(msg.sender), 'BASE_INPUT_HIGHER_USER_BALANCE');\n        \n        //make trade\n        base.transferFrom(_msgSender(), address(this), baseInputAmount);\n        token.transfer(_msgSender(), tokenOutputAmount);\n\n        //transfer fee\n        base.transfer(owner(), tradeFee);\n\n        emit onSwapBaseToTokenWithTokenOutput(msg.sender, maxBaseInput, baseInputAmount, tokenOutputAmount, baseReserve, tokenReserve);\n    }\n\n    function swapTokenToBaseWithTokenInput(uint256 tokenInputAmount, uint256 minBaseOutput, uint256 deadline) public {\n        require(deadline >= block.timestamp, 'INVALID_DEADLINE');\n        require(minBaseOutput > 0, 'INVALID_MIN_BASE_OUTPUT');\n        require(tokenInputAmount > 0, 'INVALID_TOKEN_INPUT');\n        require(tokenInputAmount <= token.balanceOf(msg.sender), 'TOKEN_INPUT_HIGHER_USER_BALANCE');\n\n        uint256 baseReserve = 0;\n        uint256 tokenReserve = 0;\n        (baseReserve, tokenReserve) = getTotalReserve();\n        require(minBaseOutput < baseReserve, 'MIN_BASE_OUTPUT_HIGHER_POOL_BASE_BALANCE');\n\n        uint256 tradeFee = tokenInputAmount.mul(TRADE_FEE).div(1000);\n        uint256 tokenInputAmountAfterFee = tokenInputAmount.sub(tradeFee); // cut the TRADE_FEE from token input\n        \n        uint256 baseOutputAmount = getBaseOutputAmountFromTokenInput(tokenInputAmountAfterFee, baseReserve, tokenReserve);\n\n        require(baseOutputAmount >= minBaseOutput, 'CAN_NOT_MAKE_TRADE');\n        require(baseOutputAmount < baseReserve, 'BASE_OUTPUT_HIGHER_POOL_BASE_BALANCE');\n        require(baseOutputAmount < base.balanceOf(address(this)), 'BASE_OUTPUT_HIGHER_CURRENT_TRADE_BALANCE'); // output is higher than the trade contract balance\n\n        //make trade\n        token.transferFrom(_msgSender(), address(this), tokenInputAmount);\n        base.transfer(_msgSender(), baseOutputAmount);\n\n        //transfer fee\n        token.transfer(owner(), tradeFee);\n\n        emit onSwapTokenToBaseWithTokenInput(msg.sender, minBaseOutput, tokenInputAmount, baseOutputAmount, baseReserve, tokenReserve);\n    }\n\n    function swapTokenToBaseWithBaseOutput(uint256 maxTokenInput, uint256 baseOutputAmount, uint256 deadline) public {\n        require(deadline >= block.timestamp, 'INVALID_DEADLINE');\n        require(maxTokenInput > 0, 'INVALID_MAX_TOKEN_INPUT');\n        require(baseOutputAmount > 0, 'INVALID_BASE_OUTPUT');\n        require(baseOutputAmount < base.balanceOf(address(this)), 'BASE_OUTPUT_HIGHER_CURRENT_TRADE_BALANCE'); // output is higher than the trade contract balance\n\n        uint256 baseReserve = 0;\n        uint256 tokenReserve = 0;\n        (baseReserve, tokenReserve) = getTotalReserve();\n        require(baseOutputAmount < baseReserve, 'BASE_OUTPUT_HIGHER_POOL_BASE_BALANCE');\n\n        uint256 tokenInputAmount = getTokenInputAmountFromBaseOutput(baseOutputAmount, baseReserve, tokenReserve);\n        \n        uint256 tradeFee = tokenInputAmount.mul(TRADE_FEE).div(1000);\n        tokenInputAmount = tokenInputAmount.add(tradeFee); // add the TRADE_FEE to token input\n\n        require(tokenInputAmount <= maxTokenInput, 'CAN_NOT_MAKE_TRADE');\n        require(tokenInputAmount > 0, 'INVALID_TOKEN_INPUT');\n        require(tokenInputAmount <= token.balanceOf(msg.sender), 'TOKEN_INPUT_HIGHER_USER_BALANCE');\n\n        //make trade\n        token.transferFrom(_msgSender(), address(this), tokenInputAmount);\n        base.transfer(_msgSender(), baseOutputAmount);\n\n        //transfer fee\n        token.transfer(owner(), tradeFee);\n\n        emit onSwapTokenToBaseWithBaseOutput(msg.sender, maxTokenInput, tokenInputAmount, baseOutputAmount, baseReserve, tokenReserve);\n    }\n\n    function addLP(uint256 minLP, uint256 baseInputAmount, uint256 maxTokenInputAmount, uint256 deadline) public returns (uint256) {\n        require(deadline >= block.timestamp, 'INVALID_DEADLINE');\n        require(minLP > 0, 'INVALID_MIN_LP');\n        require(baseInputAmount > 0, 'INVALID_BASE_INPUT');\n        require(maxTokenInputAmount > 0, 'INVALID_MAX_TOKEN_INPUT');\n        \n        uint256 totalSupply = totalSupply();\n        if(totalSupply == 0) {\n            base.transferFrom(msg.sender, address(this), baseInputAmount);\n            token.transferFrom(msg.sender, address(this), maxTokenInputAmount);\n            uint256 initLP = baseInputAmount;\n            _mint(_msgSender(), initLP);\n            emit onAddLP(msg.sender, initLP, baseInputAmount, maxTokenInputAmount, base.balanceOf(address(this)), token.balanceOf(address(this)));\n            return initLP;\n        }\n        else { \n            // tokenReserve/baseReserve = (tokenReserve+tokenInputAmount)/(baseReserve+baseInputAmount)\n            // => tokenReserve+tokenInputAmount = tokenReserve*(baseReserve+baseInputAmount)/baseReserve\n            // => tokenInputAmount = tokenReserve*(baseReserve+baseInputAmount)/baseReserve - tokenReserve;\n            uint256 baseReserve = 0;\n            uint256 tokenReserve = 0;\n            (baseReserve, tokenReserve) = getTotalReserve();\n            uint256 tokenInputAmount = tokenReserve.mul(baseReserve.add(baseInputAmount)).div(baseReserve).sub(tokenReserve);\n            // mintLP/totalLP =  baseInputAmount/baseReserve\n            // mintLP = totalLP*baseInputAmount/baseReserve\n            uint256 mintLP = totalSupply.mul(baseInputAmount).div(baseReserve);\n            \n            require(tokenInputAmount > 0, 'INVALID_TOKEN_INPUT');\n            require(tokenInputAmount <= maxTokenInputAmount, 'INVALID_TOKEN_INPUT');\n            require(mintLP >= minLP, \"INVALID_MINT_LP\");\n\n            base.transferFrom(msg.sender, address(this), baseInputAmount);\n            token.transferFrom(msg.sender, address(this), tokenInputAmount);\n            _mint(_msgSender(), mintLP);\n            emit onAddLP(msg.sender, mintLP, baseInputAmount, tokenInputAmount, base.balanceOf(address(this)), token.balanceOf(address(this)));\n            return mintLP;\n        }\n    }\n\n    function removeLP(uint256 amountLP, uint256 minBaseOutput, uint256 minTokenOutput, uint256 deadline) public returns (uint256, uint256){\n        require(deadline >= block.timestamp, 'INVALID_DEADLINE');\n        require(amountLP > 0, 'INVALID_AMOUNT_LP');\n        require(minBaseOutput > 0, 'INVALID_MIN_BASE_OUTPUT');\n        require(minTokenOutput > 0, 'INVALID_MIN_TOKEN_OUTPUT');\n        \n        uint256 totalSupply = totalSupply();\n        \n        uint256 userLPbalance = balanceOf(msg.sender);\n        if(amountLP > userLPbalance) {\n            amountLP = userLPbalance;\n        }\n\n        require(amountLP <= totalSupply, 'INVALID_AMOUNT_LP_TOTAL_SUPPLY');\n         \n        uint256 baseReserve = 0;\n        uint256 tokenReserve = 0;\n        (baseReserve, tokenReserve) = getTotalReserve();\n        \n        // amountLP/totalSupply = baseOutputAmount/baseReserve\n        // => baseOutputAmount = amountLP*baseReserve/totalSupply\n        uint256 baseOutputAmount = amountLP.mul(baseReserve).div(totalSupply);\n        uint256 tokenOutputAmount = amountLP.mul(tokenReserve).div(totalSupply);\n        require(baseOutputAmount >= minBaseOutput, \"INVALID_BASE_OUTPUT\");\n        require(tokenOutputAmount >= minTokenOutput, \"INVALID_TOKEN_OUTPUT\");\n        require(baseOutputAmount <= baseReserve, \"BASE_OUTPUT_HIGHER_BASE_BALANCE\");\n        require(tokenOutputAmount <= tokenReserve, \"TOKEN_OUTPUT_HIGHER_TOKEN_BALANCE\");\n\n        _burn(_msgSender(), amountLP);\n        base.transfer(_msgSender(), baseOutputAmount);\n        token.transfer(_msgSender(), tokenOutputAmount);\n        emit onRemoveLP(msg.sender, amountLP, baseOutputAmount, tokenOutputAmount, base.balanceOf(address(this)), token.balanceOf(address(this)));\n        return (baseOutputAmount, tokenOutputAmount);\n    }\n\n    function getTotalReserve() public view returns (uint256, uint256) { \n        uint256 baseReserve = base.balanceOf(address(this));\n        uint256 tokenReserve = token.balanceOf(address(this));\n        return (baseReserve, tokenReserve);\n    }\n}",
  "sourcePath": "/home/falcon/codes/products/garbiprotocol.github.io/garbi_contracts/contracts/GarbiSwapPool.sol",
  "compiler": {
    "name": "solc",
    "version": "0.8.17+commit.8df45f5f.Emscripten.clang"
  },
  "schemaVersion": "3.4.10",
  "updatedAt": "2023-01-03T13:48:01.508Z",
  "networkType": "ethereum",
  "devdoc": {
    "kind": "dev",
    "methods": {
      "allowance(address,address)": {
        "details": "See {IERC20-allowance}."
      },
      "approve(address,uint256)": {
        "details": "See {IERC20-approve}. NOTE: If `amount` is the maximum `uint256`, the allowance is not updated on `transferFrom`. This is semantically equivalent to an infinite approval. Requirements: - `spender` cannot be the zero address."
      },
      "balanceOf(address)": {
        "details": "See {IERC20-balanceOf}."
      },
      "burn(uint256)": {
        "details": "Destroys `amount` tokens from the caller. See {ERC20-_burn}."
      },
      "burnFrom(address,uint256)": {
        "details": "Destroys `amount` tokens from `account`, deducting from the caller's allowance. See {ERC20-_burn} and {ERC20-allowance}. Requirements: - the caller must have allowance for ``accounts``'s tokens of at least `amount`."
      },
      "decimals()": {
        "details": "Returns the number of decimals used to get its user representation. For example, if `decimals` equals `2`, a balance of `505` tokens should be displayed to a user as `5.05` (`505 / 10 ** 2`). Tokens usually opt for a value of 18, imitating the relationship between Ether and Wei. This is the value {ERC20} uses, unless this function is overridden; NOTE: This information is only used for _display_ purposes: it in no way affects any of the arithmetic of the contract, including {IERC20-balanceOf} and {IERC20-transfer}."
      },
      "decreaseAllowance(address,uint256)": {
        "details": "Atomically decreases the allowance granted to `spender` by the caller. This is an alternative to {approve} that can be used as a mitigation for problems described in {IERC20-approve}. Emits an {Approval} event indicating the updated allowance. Requirements: - `spender` cannot be the zero address. - `spender` must have allowance for the caller of at least `subtractedValue`."
      },
      "increaseAllowance(address,uint256)": {
        "details": "Atomically increases the allowance granted to `spender` by the caller. This is an alternative to {approve} that can be used as a mitigation for problems described in {IERC20-approve}. Emits an {Approval} event indicating the updated allowance. Requirements: - `spender` cannot be the zero address."
      },
      "name()": {
        "details": "Returns the name of the token."
      },
      "owner()": {
        "details": "Returns the address of the current owner."
      },
      "renounceOwnership()": {
        "details": "Leaves the contract without owner. It will not be possible to call `onlyOwner` functions anymore. Can only be called by the current owner. NOTE: Renouncing ownership will leave the contract without an owner, thereby removing any functionality that is only available to the owner."
      },
      "symbol()": {
        "details": "Returns the symbol of the token, usually a shorter version of the name."
      },
      "totalSupply()": {
        "details": "See {IERC20-totalSupply}."
      },
      "transfer(address,uint256)": {
        "details": "See {IERC20-transfer}. Requirements: - `to` cannot be the zero address. - the caller must have a balance of at least `amount`."
      },
      "transferFrom(address,address,uint256)": {
        "details": "See {IERC20-transferFrom}. Emits an {Approval} event indicating the updated allowance. This is not required by the EIP. See the note at the beginning of {ERC20}. NOTE: Does not update the allowance if the current allowance is the maximum `uint256`. Requirements: - `from` and `to` cannot be the zero address. - `from` must have a balance of at least `amount`. - the caller must have allowance for ``from``'s tokens of at least `amount`."
      },
      "transferOwnership(address)": {
        "details": "Transfers ownership of the contract to a new account (`newOwner`). Can only be called by the current owner."
      }
    },
    "version": 1
  },
  "userdoc": {
    "kind": "user",
    "methods": {},
    "version": 1
  }
}