{
  "contractName": "GarbiMining",
  "abi": [
    {
      "inputs": [
        {
          "internalType": "contract IERC20withMint",
          "name": "_vegrb",
          "type": "address"
        },
        {
          "internalType": "uint256",
          "name": "_startBlock",
          "type": "uint256"
        }
      ],
      "stateMutability": "nonpayable",
      "type": "constructor"
    },
    {
      "anonymous": false,
      "inputs": [
        {
          "indexed": true,
          "internalType": "address",
          "name": "previousOwner",
          "type": "address"
        },
        {
          "indexed": true,
          "internalType": "address",
          "name": "newOwner",
          "type": "address"
        }
      ],
      "name": "OwnershipTransferred",
      "type": "event"
    },
    {
      "anonymous": false,
      "inputs": [
        {
          "indexed": false,
          "internalType": "string",
          "name": "_functionName",
          "type": "string"
        }
      ],
      "name": "onCancelTransactions",
      "type": "event"
    },
    {
      "anonymous": false,
      "inputs": [
        {
          "indexed": false,
          "internalType": "uint256",
          "name": "_pid",
          "type": "uint256"
        },
        {
          "indexed": false,
          "internalType": "address",
          "name": "_user",
          "type": "address"
        },
        {
          "indexed": false,
          "internalType": "uint256",
          "name": "_amt",
          "type": "uint256"
        }
      ],
      "name": "onHarvest",
      "type": "event"
    },
    {
      "anonymous": false,
      "inputs": [
        {
          "indexed": false,
          "internalType": "uint256",
          "name": "_pid",
          "type": "uint256"
        },
        {
          "indexed": false,
          "internalType": "uint256",
          "name": "_allocPoint",
          "type": "uint256"
        }
      ],
      "name": "onQueuedTransactionSsetPoolPoint",
      "type": "event"
    },
    {
      "anonymous": false,
      "inputs": [
        {
          "indexed": false,
          "internalType": "string",
          "name": "_functionName",
          "type": "string"
        },
        {
          "indexed": false,
          "internalType": "string",
          "name": "_fieldName",
          "type": "string"
        },
        {
          "indexed": false,
          "internalType": "address",
          "name": "_value",
          "type": "address"
        }
      ],
      "name": "onQueuedTransactionsChangeAddress",
      "type": "event"
    },
    {
      "anonymous": false,
      "inputs": [
        {
          "indexed": false,
          "internalType": "string",
          "name": "_functionName",
          "type": "string"
        },
        {
          "indexed": false,
          "internalType": "string",
          "name": "_fieldName",
          "type": "string"
        },
        {
          "indexed": false,
          "internalType": "uint256",
          "name": "_value",
          "type": "uint256"
        }
      ],
      "name": "onQueuedTransactionsChangeUint",
      "type": "event"
    },
    {
      "inputs": [],
      "name": "GRACE_PERIOD",
      "outputs": [
        {
          "internalType": "uint256",
          "name": "",
          "type": "uint256"
        }
      ],
      "stateMutability": "view",
      "type": "function"
    },
    {
      "inputs": [],
      "name": "MAXIMUM_DELAY",
      "outputs": [
        {
          "internalType": "uint256",
          "name": "",
          "type": "uint256"
        }
      ],
      "stateMutability": "view",
      "type": "function"
    },
    {
      "inputs": [],
      "name": "MINIMUM_DELAY",
      "outputs": [
        {
          "internalType": "uint256",
          "name": "",
          "type": "uint256"
        }
      ],
      "stateMutability": "view",
      "type": "function"
    },
    {
      "inputs": [],
      "name": "delay",
      "outputs": [
        {
          "internalType": "uint256",
          "name": "",
          "type": "uint256"
        }
      ],
      "stateMutability": "view",
      "type": "function"
    },
    {
      "inputs": [],
      "name": "owner",
      "outputs": [
        {
          "internalType": "address",
          "name": "",
          "type": "address"
        }
      ],
      "stateMutability": "view",
      "type": "function"
    },
    {
      "inputs": [
        {
          "internalType": "uint256",
          "name": "",
          "type": "uint256"
        }
      ],
      "name": "poolInfo",
      "outputs": [
        {
          "internalType": "address",
          "name": "want",
          "type": "address"
        },
        {
          "internalType": "contract IGarbiFarm",
          "name": "grabiFarm",
          "type": "address"
        },
        {
          "internalType": "uint256",
          "name": "allocPoint",
          "type": "uint256"
        },
        {
          "internalType": "uint256",
          "name": "lastRewardBlock",
          "type": "uint256"
        },
        {
          "internalType": "uint256",
          "name": "accVeGRBPerShare",
          "type": "uint256"
        }
      ],
      "stateMutability": "view",
      "type": "function"
    },
    {
      "inputs": [],
      "name": "renounceOwnership",
      "outputs": [],
      "stateMutability": "nonpayable",
      "type": "function"
    },
    {
      "inputs": [
        {
          "internalType": "uint256",
          "name": "",
          "type": "uint256"
        },
        {
          "internalType": "address",
          "name": "",
          "type": "address"
        }
      ],
      "name": "rewardDebtOf",
      "outputs": [
        {
          "internalType": "uint256",
          "name": "",
          "type": "uint256"
        }
      ],
      "stateMutability": "view",
      "type": "function"
    },
    {
      "inputs": [],
      "name": "startBlock",
      "outputs": [
        {
          "internalType": "uint256",
          "name": "",
          "type": "uint256"
        }
      ],
      "stateMutability": "view",
      "type": "function"
    },
    {
      "inputs": [
        {
          "internalType": "bytes32",
          "name": "",
          "type": "bytes32"
        }
      ],
      "name": "timeLockOf",
      "outputs": [
        {
          "internalType": "bool",
          "name": "queuedTransactions",
          "type": "bool"
        },
        {
          "internalType": "uint256",
          "name": "timeOfExecute",
          "type": "uint256"
        }
      ],
      "stateMutability": "view",
      "type": "function"
    },
    {
      "inputs": [],
      "name": "totalAllocPoint",
      "outputs": [
        {
          "internalType": "uint256",
          "name": "",
          "type": "uint256"
        }
      ],
      "stateMutability": "view",
      "type": "function"
    },
    {
      "inputs": [],
      "name": "totalBlockPerDay",
      "outputs": [
        {
          "internalType": "uint256",
          "name": "",
          "type": "uint256"
        }
      ],
      "stateMutability": "view",
      "type": "function"
    },
    {
      "inputs": [
        {
          "internalType": "address",
          "name": "newOwner",
          "type": "address"
        }
      ],
      "name": "transferOwnership",
      "outputs": [],
      "stateMutability": "nonpayable",
      "type": "function"
    },
    {
      "inputs": [],
      "name": "veGRB",
      "outputs": [
        {
          "internalType": "contract IERC20withMint",
          "name": "",
          "type": "address"
        }
      ],
      "stateMutability": "view",
      "type": "function"
    },
    {
      "inputs": [],
      "name": "vegrbPerBlock",
      "outputs": [
        {
          "internalType": "uint256",
          "name": "",
          "type": "uint256"
        }
      ],
      "stateMutability": "view",
      "type": "function"
    },
    {
      "inputs": [
        {
          "internalType": "uint256",
          "name": "delay_",
          "type": "uint256"
        }
      ],
      "name": "setDelay",
      "outputs": [],
      "stateMutability": "nonpayable",
      "type": "function"
    },
    {
      "inputs": [
        {
          "internalType": "string",
          "name": "_functionName",
          "type": "string"
        }
      ],
      "name": "cancelTransactions",
      "outputs": [],
      "stateMutability": "nonpayable",
      "type": "function"
    },
    {
      "inputs": [
        {
          "internalType": "string",
          "name": "_functionName",
          "type": "string"
        },
        {
          "internalType": "string",
          "name": "_fieldName",
          "type": "string"
        },
        {
          "internalType": "address",
          "name": "_newAddr",
          "type": "address"
        }
      ],
      "name": "queuedTransactionsChangeAddress",
      "outputs": [],
      "stateMutability": "nonpayable",
      "type": "function"
    },
    {
      "inputs": [
        {
          "internalType": "string",
          "name": "_functionName",
          "type": "string"
        },
        {
          "internalType": "string",
          "name": "_fieldName",
          "type": "string"
        },
        {
          "internalType": "uint256",
          "name": "_value",
          "type": "uint256"
        }
      ],
      "name": "queuedTransactionsChangeUint",
      "outputs": [],
      "stateMutability": "nonpayable",
      "type": "function"
    },
    {
      "inputs": [
        {
          "internalType": "uint256",
          "name": "_pid",
          "type": "uint256"
        },
        {
          "internalType": "uint256",
          "name": "_allocPoint",
          "type": "uint256"
        }
      ],
      "name": "queuedTransactionSsetPoolPoint",
      "outputs": [],
      "stateMutability": "nonpayable",
      "type": "function"
    },
    {
      "inputs": [],
      "name": "setTotalBlockPerDay",
      "outputs": [],
      "stateMutability": "nonpayable",
      "type": "function"
    },
    {
      "inputs": [],
      "name": "setTotalAllocPoint",
      "outputs": [],
      "stateMutability": "nonpayable",
      "type": "function"
    },
    {
      "inputs": [],
      "name": "setGarbiTokenContract",
      "outputs": [],
      "stateMutability": "nonpayable",
      "type": "function"
    },
    {
      "inputs": [
        {
          "internalType": "uint256",
          "name": "_allocPoint",
          "type": "uint256"
        },
        {
          "internalType": "contract IGarbiFarm",
          "name": "_vegrbFarm",
          "type": "address"
        }
      ],
      "name": "addPool",
      "outputs": [],
      "stateMutability": "nonpayable",
      "type": "function"
    },
    {
      "inputs": [
        {
          "internalType": "uint256",
          "name": "_pid",
          "type": "uint256"
        }
      ],
      "name": "setPoolPoint",
      "outputs": [],
      "stateMutability": "nonpayable",
      "type": "function"
    },
    {
      "inputs": [
        {
          "internalType": "uint256",
          "name": "_pid",
          "type": "uint256"
        }
      ],
      "name": "updatePool",
      "outputs": [],
      "stateMutability": "nonpayable",
      "type": "function"
    },
    {
      "inputs": [
        {
          "internalType": "uint256",
          "name": "_pid",
          "type": "uint256"
        },
        {
          "internalType": "address",
          "name": "_user",
          "type": "address"
        }
      ],
      "name": "harvest",
      "outputs": [
        {
          "internalType": "uint256",
          "name": "_pendingVeGRB",
          "type": "uint256"
        }
      ],
      "stateMutability": "nonpayable",
      "type": "function"
    },
    {
      "inputs": [
        {
          "internalType": "uint256",
          "name": "_pid",
          "type": "uint256"
        },
        {
          "internalType": "address",
          "name": "_user",
          "type": "address"
        }
      ],
      "name": "updateUser",
      "outputs": [
        {
          "internalType": "bool",
          "name": "",
          "type": "bool"
        }
      ],
      "stateMutability": "nonpayable",
      "type": "function"
    },
    {
      "inputs": [],
      "name": "poolLength",
      "outputs": [
        {
          "internalType": "uint256",
          "name": "",
          "type": "uint256"
        }
      ],
      "stateMutability": "view",
      "type": "function"
    },
    {
      "inputs": [
        {
          "internalType": "uint256",
          "name": "_from",
          "type": "uint256"
        },
        {
          "internalType": "uint256",
          "name": "_to",
          "type": "uint256"
        }
      ],
      "name": "getBlockFrom",
      "outputs": [
        {
          "internalType": "uint256",
          "name": "",
          "type": "uint256"
        }
      ],
      "stateMutability": "pure",
      "type": "function"
    },
    {
      "inputs": [
        {
          "internalType": "uint256",
          "name": "_pid",
          "type": "uint256"
        }
      ],
      "name": "getMiningSpeedOf",
      "outputs": [
        {
          "internalType": "uint256",
          "name": "",
          "type": "uint256"
        }
      ],
      "stateMutability": "view",
      "type": "function"
    },
    {
      "inputs": [
        {
          "internalType": "uint256",
          "name": "_pid",
          "type": "uint256"
        }
      ],
      "name": "getTotalMintPerDayOf",
      "outputs": [
        {
          "internalType": "uint256",
          "name": "",
          "type": "uint256"
        }
      ],
      "stateMutability": "view",
      "type": "function"
    },
    {
      "inputs": [],
      "name": "getVeGRBAddr",
      "outputs": [
        {
          "internalType": "address",
          "name": "",
          "type": "address"
        }
      ],
      "stateMutability": "view",
      "type": "function"
    },
    {
      "inputs": [
        {
          "internalType": "uint256",
          "name": "_pid",
          "type": "uint256"
        },
        {
          "internalType": "address",
          "name": "_user",
          "type": "address"
        }
      ],
      "name": "getUserInfo",
      "outputs": [
        {
          "internalType": "uint256",
          "name": "_pendingVeGRB",
          "type": "uint256"
        },
        {
          "internalType": "uint256",
          "name": "_rewardDebt",
          "type": "uint256"
        },
        {
          "internalType": "uint256",
          "name": "_userShare",
          "type": "uint256"
        }
      ],
      "stateMutability": "view",
      "type": "function"
    },
    {
      "inputs": [
        {
          "internalType": "string",
          "name": "_functionName",
          "type": "string"
        },
        {
          "internalType": "string",
          "name": "_fieldName",
          "type": "string"
        }
      ],
      "name": "getAddressChangeOnTimeLock",
      "outputs": [
        {
          "internalType": "address",
          "name": "",
          "type": "address"
        }
      ],
      "stateMutability": "view",
      "type": "function"
    },
    {
      "inputs": [
        {
          "internalType": "string",
          "name": "_functionName",
          "type": "string"
        },
        {
          "internalType": "string",
          "name": "_fieldName",
          "type": "string"
        }
      ],
      "name": "getUintChangeOnTimeLock",
      "outputs": [
        {
          "internalType": "uint256",
          "name": "",
          "type": "uint256"
        }
      ],
      "stateMutability": "view",
      "type": "function"
    }
  ],
  "bytecode": "0x60806040526116806002556702386f26fc1000006003556103e86004553480156200002957600080fd5b5060405162002454380380620024548339810160408190526200004c91620000d1565b620000573362000081565b600180546001600160a01b0319166001600160a01b0393909316929092179091556005556200010d565b600080546001600160a01b038381166001600160a01b0319831681178455604051919092169283917f8be0079c531659141344cd1fd0a4f28419497f9722a3daafe3b4186f6b6457e09190a35050565b60008060408385031215620000e557600080fd5b82516001600160a01b0381168114620000fd57600080fd5b6020939093015192949293505050565b612337806200011d6000396000f3fe608060405234801561001057600080fd5b506004361061021c5760003560e01c80636edc28fd11610125578063a67ceb09116100ad578063c1a287e21161007c578063c1a287e2146103f0578063d239abe9146104b2578063e177246e146104dd578063f2fde38b146104f0578063f3d7e4601461050357600080fd5b8063a67ceb0914610471578063b05372de14610484578063b1b43ae514610495578063bd0c5a9d1461049f57600080fd5b80638cac8f03116100f45780638cac8f03146103fa5780638da5cb5b1461040d5780638e12030b146104325780638fb4e1cd1461043b5780639312dc5f1461045e57600080fd5b80636edc28fd14610391578063715018a6146103d557806372596873146103dd5780637d645fab146103f057600080fd5b806333ba8882116101a85780634954f98a116101775780634954f98a1461033c5780634bb1200f1461034f57806351eb05a6146103625780635e86cd95146103755780636a42b8f81461038857600080fd5b806333ba8882146103055780633e1abe11146103185780634371f2f81461032b57806348cd4cb11461033357600080fd5b806314ca81ed116101ef57806314ca81ed146102885780631526fe271461029b57806317caf6f1146102e157806318fccc76146102ea5780631bd24c30146102fd57600080fd5b8063078377e914610221578063081e3eda1461023d5780630e8c1f4a146102455780631069f3b51461025a575b600080fd5b61022a60025481565b6040519081526020015b60405180910390f35b60065461022a565b610258610253366004611dee565b61050b565b005b61026d610268366004611e25565b6105ff565b60408051938452602084019290925290820152606001610234565b610258610296366004611ef8565b61083c565b6102ae6102a9366004611f70565b61093c565b604080516001600160a01b039687168152959094166020860152928401919091526060830152608082015260a001610234565b61022a60045481565b61022a6102f8366004611e25565b610989565b610258610b19565b610258610313366004611e25565b610c92565b61022a610326366004611dee565b610fbc565b610258610fd1565b61022a60055481565b61022a61034a366004611f70565b611182565b61025861035d366004611f70565b6111c2565b610258610370366004611f70565b611380565b61022a610383366004611f70565b61151a565b61022a60085481565b6103be61039f366004611f70565b6009602052600090815260409020805460019091015460ff9091169082565b604080519215158352602083019190915201610234565b610258611561565b61022a6103eb366004611f89565b611575565b61022a62278d0081565b610258610408366004611fed565b6115f3565b6000546001600160a01b03165b6040516001600160a01b039091168152602001610234565b61022a60035481565b61044e610449366004611e25565b61167e565b6040519015158152602001610234565b61025861046c36600461202a565b6117f2565b60015461041a906001600160a01b031681565b6001546001600160a01b031661041a565b61022a6202a30081565b61041a6104ad366004611f89565b6118c7565b61022a6104c0366004611e25565b600760209081526000928352604080842090915290825290205481565b6102586104eb366004611f70565b61194e565b6102586104fe366004612097565b611a44565b610258611abd565b610513611c00565b604080516020808201839052600c60608301526b1cd95d141bdbdb141bda5b9d60a21b6080808401919091528284018690528351808403909101815260a0830184528051908201206000908152600990915291822091839160038401919061057d9060c0016120bb565b60408051601f1981840301815291815281516020928301208352908201929092520160002055805460ff191660011781556008546105bc904290611c5a565b600182015560408051848152602081018490527ff25a93fff2ca90d9e86dfee7407b7b760938515ac805bedf515ebfd0900b9fcb910160405180910390a1505050565b60008060008060068681548110610618576106186120df565b600091825260208083206040805160a081018252600590940290910180546001600160a01b0390811685526001820154168484018190526002820154858401526003820154606086015260049182015460808601819052835163026c420760e01b815293519597509594909363026c42079380840193919291908290030181865afa1580156106ab573d6000803e3d6000fd5b505050506040513d601f19601f820116820180604052508101906106cf91906120f5565b602084015160405163087978b160e21b81526001600160a01b038a811660048301529293509116906321e5e2c490602401602060405180830381865afa15801561071d573d6000803e3d6000fd5b505050506040513d601f19601f8201168201806040525081019061074191906120f5565b935082606001514311801561075557508015155b156107c157600061076a846060015143610fbc565b9050600061079d600454610797876040015161079160035487611c6690919063ffffffff16565b90611c66565b90611c72565b90506107bc6107b5846107978464e8d4a51000611c66565b8590611c5a565b935050505b6107d464e8d4a510006107978685611c66565b60008981526007602090815260408083206001600160a01b038c1684529091529020549095508511156108325760008881526007602090815260408083206001600160a01b038b16845290915290205461082f908690611c7e565b95505b5050509250925092565b610844611c00565b6000600960008560405160200161085b9190612154565b604051602081830303815290604052805190602001208152602001908152602001600020905081816002016000856040516020016108999190612154565b60408051808303601f1901815291815281516020928301208352908201929092520160002080546001600160a01b0319166001600160a01b0392909216919091179055805460ff191660011781556008546108f5904290611c5a565b60018201556040517f1bd33efd68d2824f5f0f2519ce7c9ca0ddff6234523468e89077a0dca7b739709061092e90869086908690612167565b60405180910390a150505050565b6006818154811061094c57600080fd5b6000918252602090912060059091020180546001820154600283015460038401546004909401546001600160a01b03938416955091909216929085565b600061099483611380565b60006109a084846105ff565b506001546040516370a0823160e01b81523060048201529294509092506000916001600160a01b03909116906370a0823190602401602060405180830381865afa1580156109f2573d6000803e3d6000fd5b505050506040513d601f19601f82011682018060405250810190610a1691906120f5565b60008681526007602090815260408083206001600160a01b03891684529091529020839055905080831115610a49578092505b8215610b115760015460405163a9059cbb60e01b81526001600160a01b038681166004830152602482018690529091169063a9059cbb906044016020604051808303816000875af1158015610aa2573d6000803e3d6000fd5b505050506040513d601f19601f82011682018060405250810190610ac691906121a5565b50604080518681526001600160a01b03861660208201529081018490527f09bcd72690ede63737f3567a74f2dec10d7c94baa134623fbf2a4ceee0f64ab89060600160405180910390a15b505092915050565b610b21611c00565b600060096000604051602001610b5d906020808252601290820152711cd95d151bdd185b105b1b1bd8d41bda5b9d60721b604082015260600190565b6040516020818303038152906040528051906020012081526020019081526020016000209050610b8c81611c8a565b6000816003016000604051602001610ba3906121c7565b6040516020818303038152906040528051906020012081526020019081526020016000205411610c0b5760405162461bcd60e51b815260206004820152600e60248201526d1253959053125117d05353d5539560921b60448201526064015b60405180910390fd5b806003016000604051602001610c20906121c7565b60405160208183030381529060405280519060200120815260200190815260200160002054600481905550806003016000604051602001610c60906121c7565b60408051601f19818403018152918152815160209283012083529082019290925201600090812055805460ff19169055565b610c9a611c00565b600060096000604051602001610ccb90602080825260079082015266185919141bdbdb60ca1b604082015260600190565b6040516020818303038152906040528051906020012081526020019081526020016000209050610cfa81611c8a565b816001600160a01b0316816002016000604051602001610d379060208082526009908201526867726162694661726d60b81b604082015260600190565b60408051601f19818403018152918152815160209283012083529082019290925201600020546001600160a01b031614610da55760405162461bcd60e51b815260206004820152600f60248201526e494e56414c49445f4144445245535360881b6044820152606401610c02565b6000826001600160a01b0316631f1fcd516040518163ffffffff1660e01b8152600401602060405180830381865afa158015610de5573d6000803e3d6000fd5b505050506040513d601f19601f82011682018060405250810190610e0991906121f0565b905060006005544311610e1e57600554610e20565b435b6040805160a0810182526001600160a01b03808616825287811660208084019182528385018b81526060850187815260006080870181815260068054600181018255908352975160059098027ff652222313e28459528d920b65115c16c04f3efc82aaedc97be59f3f377c0d3f810180549989166001600160a01b03199a8b1617905595517ff652222313e28459528d920b65115c16c04f3efc82aaedc97be59f3f377c0d40870180549190981698169790971790955590517ff652222313e28459528d920b65115c16c04f3efc82aaedc97be59f3f377c0d41840155517ff652222313e28459528d920b65115c16c04f3efc82aaedc97be59f3f377c0d4283015592517ff652222313e28459528d920b65115c16c04f3efc82aaedc97be59f3f377c0d439091015591519293506002860192610f7b910160208082526009908201526867726162694661726d60b81b604082015260600190565b60408051601f1981840301815291815281516020928301208352908201929092520160002080546001600160a01b03191690555050805460ff191690555050565b6000610fc88284611c7e565b90505b92915050565b610fd9611c00565b600060096000604051602001611018906020808252601590820152741cd95d11d85c989a551bdad95b90dbdb9d1c9858dd605a1b604082015260600190565b604051602081830303815290604052805190602001208152602001908152602001600020905061104781611c8a565b60006001600160a01b03168160020160006040516020016110679061220d565b60408051601f19818403018152918152815160209283012083529082019290925201600020546001600160a01b0316036110d55760405162461bcd60e51b815260206004820152600f60248201526e494e56414c49445f4144445245535360881b6044820152606401610c02565b8060020160006040516020016110ea9061220d565b60408051601f198184030181529181528151602092830120835282820193909352908201600090812054600180546001600160a01b0319166001600160a01b039092169190911790559151600284019291611145910161220d565b60408051601f1981840301815291815281516020928301208352908201929092520160002080546001600160a01b0319169055805460ff19169055565b6000610fcb6004546107976064600686815481106111a2576111a26120df565b906000526020600020906005020160020154611c6690919063ffffffff16565b6111ca611c00565b6040805160208101829052600c60608201526b1cd95d141bdbdb141bda5b9d60a21b6080820152908101829052600090600990829060a001604051602081830303815290604052805190602001208152602001908152602001600020905061123181611c8a565b806003016000604051602001611246906120bb565b604051602081830303815290604052805190602001208152602001908152602001600020546006838154811061127e5761127e6120df565b906000526020600020906005020160020154036112cd5760405162461bcd60e51b815260206004820152600d60248201526c1253959053125117d253941555609a1b6044820152606401610c02565b6112d682611380565b8060030160006040516020016112eb906120bb565b6040516020818303038152906040528051906020012081526020019081526020016000205460068381548110611323576113236120df565b90600052602060002090600502016002018190555080600301600060405160200161134d906120bb565b60408051601f19818403018152918152815160209283012083529082019290925201600090812055805460ff1916905550565b600060068281548110611395576113956120df565b90600052602060002090600502019050806003015443116113b4575050565b60018101546040805163026c420760e01b815290516000926001600160a01b03169163026c42079160048083019260209291908290030181865afa158015611400573d6000803e3d6000fd5b505050506040513d601f19601f8201168201806040525081019061142491906120f5565b90506000611436836003015443610fbc565b9050600061145d600454610797866002015461079160035487611c6690919063ffffffff16565b905082600003611477574384600301819055505050505050565b6001546040516340c10f1960e01b8152306004820152602481018390526001600160a01b03909116906340c10f1990604401600060405180830381600087803b1580156114c357600080fd5b505af11580156114d7573d6000803e3d6000fd5b505050506115056114fa8461079764e8d4a5100085611c6690919063ffffffff16565b600486015490611c5a565b60048501555050436003909201919091555050565b6000610fcb60045461079760068581548110611538576115386120df565b906000526020600020906005020160020154610791600354600254611c6690919063ffffffff16565b611569611c00565b6115736000611d9e565b565b6000600960008460405160200161158c9190612154565b6040516020818303038152906040528051906020012081526020019081526020016000206003016000836040516020016115c69190612154565b60405160208183030381529060405280519060200120815260200190815260200160002054905092915050565b6115fb611c00565b600060096000836040516020016116129190612154565b60408051601f1981840301815291815281516020928301208352908201929092528101600020805460ff1916815590519091507fce369f91d52b663114643c430217b52530c2cc7318cac7a3e9d46241cbc354a890611672908490612154565b60405180910390a15050565b60008060068481548110611694576116946120df565b60009182526020918290206040805160a081018252600590930290910180546001600160a01b03908116845260018201541693830184905260028101549183019190915260038101546060830152600401546080820152915033146117305760405162461bcd60e51b815260206004820152601260248201527124a72b20a624a22fa822a926a4a9a9a4a7a760711b6044820152606401610c02565b602081015160405163087978b160e21b81526001600160a01b03858116600483015260009216906321e5e2c490602401602060405180830381865afa15801561177d573d6000803e3d6000fd5b505050506040513d601f19601f820116820180604052508101906117a191906120f5565b90506117c364e8d4a51000610797846080015184611c6690919063ffffffff16565b60008681526007602090815260408083206001600160a01b038916845290915290205550600191505092915050565b6117fa611c00565b600060096000856040516020016118119190612154565b6040516020818303038152906040528051906020012081526020019081526020016000209050818160030160008560405160200161184f9190612154565b60408051601f1981840301815291815281516020928301208352908201929092520160002055805460ff1916600117815560085461188e904290611c5a565b60018201556040517f860699cc7b0f3cb3d034fd31cdfe0816887a9f55d10993224d77c359c3d555519061092e9086908690869061222c565b600060096000846040516020016118de9190612154565b6040516020818303038152906040528051906020012081526020019081526020016000206002016000836040516020016119189190612154565b60408051808303601f19018152918152815160209283012083529082019290925201600020546001600160a01b03169392505050565b611956611c00565b6202a3008110156119c65760405162461bcd60e51b815260206004820152603460248201527f54696d656c6f636b3a3a73657444656c61793a2044656c6179206d75737420656044820152733c31b2b2b21036b4b734b6bab6903232b630bc9760611b6064820152608401610c02565b62278d00811115611a3f5760405162461bcd60e51b815260206004820152603860248201527f54696d656c6f636b3a3a73657444656c61793a2044656c6179206d757374206e60448201527f6f7420657863656564206d6178696d756d2064656c61792e00000000000000006064820152608401610c02565b600855565b611a4c611c00565b6001600160a01b038116611ab15760405162461bcd60e51b815260206004820152602660248201527f4f776e61626c653a206e6577206f776e657220697320746865207a65726f206160448201526564647265737360d01b6064820152608401610c02565b611aba81611d9e565b50565b611ac5611c00565b600060096000604051602001611b0290602080825260139082015272736574546f74616c426c6f636b50657244617960681b604082015260600190565b6040516020818303038152906040528051906020012081526020019081526020016000209050611b3181611c8a565b6000816003016000604051602001611b4890612262565b6040516020818303038152906040528051906020012081526020019081526020016000205411611bab5760405162461bcd60e51b815260206004820152600e60248201526d1253959053125117d05353d5539560921b6044820152606401610c02565b806003016000604051602001611bc090612262565b60405160208183030381529060405280519060200120815260200190815260200160002054600281905550806003016000604051602001610c6090612262565b6000546001600160a01b031633146115735760405162461bcd60e51b815260206004820181905260248201527f4f776e61626c653a2063616c6c6572206973206e6f7420746865206f776e65726044820152606401610c02565b6000610fc882846122a2565b6000610fc882846122b5565b6000610fc882846122cc565b6000610fc882846122ee565b805460ff161515600114611ce05760405162461bcd60e51b815260206004820152601f60248201527f5472616e73616374696f6e206861736e2774206265656e207175657565642e006044820152606401610c02565b4281600101541115611d445760405162461bcd60e51b815260206004820152602760248201527f5472616e73616374696f6e206861736e2774207375727061737365642074696d60448201526632903637b1b59760c91b6064820152608401610c02565b60018101544290611d589062278d00611c5a565b1015611aba5760405162461bcd60e51b81526020600482015260156024820152742a3930b739b0b1ba34b7b71034b99039ba30b6329760591b6044820152606401610c02565b600080546001600160a01b038381166001600160a01b0319831681178455604051919092169283917f8be0079c531659141344cd1fd0a4f28419497f9722a3daafe3b4186f6b6457e09190a35050565b60008060408385031215611e0157600080fd5b50508035926020909101359150565b6001600160a01b0381168114611aba57600080fd5b60008060408385031215611e3857600080fd5b823591506020830135611e4a81611e10565b809150509250929050565b634e487b7160e01b600052604160045260246000fd5b600082601f830112611e7c57600080fd5b813567ffffffffffffffff80821115611e9757611e97611e55565b604051601f8301601f19908116603f01168101908282118183101715611ebf57611ebf611e55565b81604052838152866020858801011115611ed857600080fd5b836020870160208301376000602085830101528094505050505092915050565b600080600060608486031215611f0d57600080fd5b833567ffffffffffffffff80821115611f2557600080fd5b611f3187838801611e6b565b94506020860135915080821115611f4757600080fd5b50611f5486828701611e6b565b9250506040840135611f6581611e10565b809150509250925092565b600060208284031215611f8257600080fd5b5035919050565b60008060408385031215611f9c57600080fd5b823567ffffffffffffffff80821115611fb457600080fd5b611fc086838701611e6b565b93506020850135915080821115611fd657600080fd5b50611fe385828601611e6b565b9150509250929050565b600060208284031215611fff57600080fd5b813567ffffffffffffffff81111561201657600080fd5b61202284828501611e6b565b949350505050565b60008060006060848603121561203f57600080fd5b833567ffffffffffffffff8082111561205757600080fd5b61206387838801611e6b565b9450602086013591508082111561207957600080fd5b5061208686828701611e6b565b925050604084013590509250925092565b6000602082840312156120a957600080fd5b81356120b481611e10565b9392505050565b6020808252600a9082015269185b1b1bd8d41bda5b9d60b21b604082015260600190565b634e487b7160e01b600052603260045260246000fd5b60006020828403121561210757600080fd5b5051919050565b6000815180845260005b8181101561213457602081850181015186830182015201612118565b506000602082860101526020601f19601f83011685010191505092915050565b602081526000610fc8602083018461210e565b60608152600061217a606083018661210e565b828103602084015261218c818661210e565b91505060018060a01b0383166040830152949350505050565b6000602082840312156121b757600080fd5b815180151581146120b457600080fd5b6020808252600f908201526e1d1bdd185b105b1b1bd8d41bda5b9d608a1b604082015260600190565b60006020828403121561220257600080fd5b81516120b481611e10565b6020808252600590820152643b32a3a92160d91b604082015260600190565b60608152600061223f606083018661210e565b8281036020840152612251818661210e565b915050826040830152949350505050565b60208082526010908201526f746f74616c426c6f636b50657244617960801b604082015260600190565b634e487b7160e01b600052601160045260246000fd5b80820180821115610fcb57610fcb61228c565b8082028115828204841417610fcb57610fcb61228c565b6000826122e957634e487b7160e01b600052601260045260246000fd5b500490565b81810381811115610fcb57610fcb61228c56fea26469706673582212205a4015887f47be226a5c1ef8195c239ecb14f1dcec40c2b503d3899b1239e8ee64736f6c63430008110033",
  "immutableReferences": {},
  "source": "// SPDX-License-Identifier: MIT\r\n\r\npragma solidity >=0.6.12;\r\n\r\nimport \"@openzeppelin/contracts/utils/math/SafeMath.sol\";\r\nimport \"@openzeppelin/contracts/access/Ownable.sol\";\r\n\r\nimport './interfaces/IGarbiFarm.sol';\r\nimport './interfaces/IERC20withMint.sol';\r\n\r\ncontract GarbiMining is Ownable{\r\n\r\n    using SafeMath for uint256;\r\n\r\n    IERC20withMint public veGRB;\r\n\r\n    uint256 public totalBlockPerDay = 5760;// just use for dislay at UI\r\n    // veGRB each block.\r\n    uint256 public vegrbPerBlock = 16*1e16; //0.16 GRB/block\r\n    // The total point for all pools\r\n    uint256 public totalAllocPoint = 1000;\r\n    // The block when mining start\r\n    uint256 public startBlock;\r\n\r\n    PoolInfo[] public poolInfo;\r\n\r\n    mapping(uint256 => mapping(address => uint256)) public rewardDebtOf;\r\n\r\n    uint public constant GRACE_PERIOD = 30 days;\r\n    uint public constant MINIMUM_DELAY = 2 days;\r\n    uint public constant MAXIMUM_DELAY = 30 days;\r\n    uint public delay;\r\n\r\n    mapping(bytes32 => TimeLock) public timeLockOf;\r\n\r\n    struct TimeLock {\r\n        bool queuedTransactions;\r\n        uint256 timeOfExecute;\r\n        mapping(bytes32 => address) addressOf;\r\n        mapping(bytes32 => uint256) uintOf;\r\n    }\r\n    \r\n    struct PoolInfo {\r\n    \taddress want; // LP token Addess\r\n        IGarbiFarm grabiFarm;             // Address of Garbi Farm Contract.\r\n        uint256 allocPoint;                \r\n        uint256 lastRewardBlock;            // Last block number when the pool get reward.\r\n        uint256 accVeGRBPerShare;             // Garbi Per Share of the pool.\r\n    }\r\n\r\n    event onHarvest(uint256 _pid, address _user, uint256 _amt);\r\n\r\n    event onQueuedTransactionsChangeAddress(string _functionName, string _fieldName, address _value);\r\n    event onQueuedTransactionsChangeUint(string _functionName, string _fieldName, uint256 _value);\r\n    event onQueuedTransactionSsetPoolPoint(uint256 _pid, uint256 _allocPoint);\r\n    event onCancelTransactions(string _functionName);\r\n\r\n    constructor(\r\n        IERC20withMint _vegrb,\r\n        uint256 _startBlock\r\n    ) {\r\n        veGRB = _vegrb;\r\n        startBlock = _startBlock;\r\n    }\r\n\r\n    function setDelay(uint delay_) public onlyOwner \r\n    {\r\n        require(delay_ >= MINIMUM_DELAY, \"Timelock::setDelay: Delay must exceed minimum delay.\");\r\n        require(delay_ <= MAXIMUM_DELAY, \"Timelock::setDelay: Delay must not exceed maximum delay.\");\r\n\r\n        delay = delay_;\r\n    }\r\n\r\n    function cancelTransactions(string memory _functionName) public onlyOwner \r\n    {\r\n        TimeLock storage _timelock = timeLockOf[keccak256(abi.encode(_functionName))];\r\n        _timelock.queuedTransactions = false;\r\n\r\n        emit onCancelTransactions(_functionName);\r\n    }\r\n\r\n    function queuedTransactionsChangeAddress(string memory _functionName, string memory _fieldName, address _newAddr) public onlyOwner \r\n    {\r\n        TimeLock storage _timelock = timeLockOf[keccak256(abi.encode(_functionName))];\r\n\r\n        _timelock.addressOf[keccak256(abi.encode(_fieldName))] = _newAddr;\r\n        _timelock.queuedTransactions = true;\r\n        _timelock.timeOfExecute = block.timestamp.add(delay);\r\n\r\n        emit onQueuedTransactionsChangeAddress(_functionName, _fieldName, _newAddr);\r\n    }\r\n\r\n    function queuedTransactionsChangeUint(string memory _functionName, string memory _fieldName, uint256 _value) public onlyOwner \r\n    {\r\n        TimeLock storage _timelock = timeLockOf[keccak256(abi.encode(_functionName))];\r\n\r\n        _timelock.uintOf[keccak256(abi.encode(_fieldName))] = _value;\r\n        _timelock.queuedTransactions = true;\r\n        _timelock.timeOfExecute = block.timestamp.add(delay);\r\n\r\n        emit onQueuedTransactionsChangeUint(_functionName, _fieldName, _value);\r\n    }\r\n\r\n     function queuedTransactionSsetPoolPoint(uint256 _pid, uint256 _allocPoint) public onlyOwner \r\n    {\r\n        TimeLock storage _timelock = timeLockOf[keccak256(abi.encode('setPoolPoint', _pid))];\r\n\r\n        _timelock.uintOf[keccak256(abi.encode('allocPoint'))] = _allocPoint;\r\n        _timelock.queuedTransactions = true;\r\n        _timelock.timeOfExecute = block.timestamp.add(delay);\r\n\r\n        emit onQueuedTransactionSsetPoolPoint(_pid, _allocPoint);\r\n    }\r\n\r\n    function setTotalBlockPerDay() public onlyOwner \r\n    {\r\n        TimeLock storage _timelock = timeLockOf[keccak256(abi.encode('setTotalBlockPerDay'))];\r\n        _validateTimelock(_timelock);\r\n        require(_timelock.uintOf[keccak256(abi.encode('totalBlockPerDay'))] > 0, \"INVALID_AMOUNT\");\r\n\r\n        totalBlockPerDay = _timelock.uintOf[keccak256(abi.encode('totalBlockPerDay'))];\r\n        delete _timelock.uintOf[keccak256(abi.encode('totalBlockPerDay'))];\r\n        _timelock.queuedTransactions = false;\r\n    }\r\n\r\n    function setTotalAllocPoint() public onlyOwner\r\n    {\r\n        TimeLock storage _timelock = timeLockOf[keccak256(abi.encode('setTotalAllocPoint'))];\r\n        _validateTimelock(_timelock);\r\n        require(_timelock.uintOf[keccak256(abi.encode('totalAllocPoint'))] > 0, \"INVALID_AMOUNT\");\r\n\r\n        totalAllocPoint = _timelock.uintOf[keccak256(abi.encode('totalAllocPoint'))];\r\n        delete _timelock.uintOf[keccak256(abi.encode('totalAllocPoint'))];\r\n        _timelock.queuedTransactions = false;\r\n    }\r\n\r\n    function setGarbiTokenContract() public onlyOwner \r\n    {\r\n        TimeLock storage _timelock = timeLockOf[keccak256(abi.encode('setGarbiTokenContract'))];\r\n\r\n        _validateTimelock(_timelock);\r\n        \r\n        require(_timelock.addressOf[keccak256(abi.encode('veGRB'))] != address(0), \"INVALID_ADDRESS\");\r\n\r\n        veGRB = IERC20withMint(_timelock.addressOf[keccak256(abi.encode('veGRB'))]);\r\n\r\n        delete _timelock.addressOf[keccak256(abi.encode('veGRB'))];\r\n\r\n        _timelock.queuedTransactions = false;\r\n    }\r\n\r\n    // Add a new pool. Can only be called by the owner.\r\n    function addPool(uint256 _allocPoint, IGarbiFarm _vegrbFarm) public onlyOwner { \r\n\r\n        TimeLock storage _timelock = timeLockOf[keccak256(abi.encode('addPool'))]; //use queuedTransactionsChangeAddress\r\n        _validateTimelock(_timelock);\r\n        require(_timelock.addressOf[keccak256(abi.encode('grabiFarm'))] == address(_vegrbFarm), 'INVALID_ADDRESS');\r\n\r\n    \taddress want = address(_vegrbFarm.want());\r\n        uint256 lastRewardBlock = block.number > startBlock ? block.number : startBlock;\r\n        poolInfo.push(PoolInfo({\r\n            want: want,\r\n            grabiFarm: _vegrbFarm,\r\n            allocPoint: _allocPoint,\r\n            lastRewardBlock: lastRewardBlock,\r\n            accVeGRBPerShare: 0\r\n        }));\r\n        delete _timelock.addressOf[keccak256(abi.encode('grabiFarm'))];\r\n        _timelock.queuedTransactions = false;\r\n    }\r\n\r\n    //Update the given pool's allocation point. Can only be called by the owner.\r\n    function setPoolPoint(uint256 _pid) public onlyOwner \r\n    {\r\n        TimeLock storage _timelock = timeLockOf[keccak256(abi.encode('setPoolPoint', _pid))];\r\n\r\n        _validateTimelock(_timelock);\r\n\r\n    \trequire(poolInfo[_pid].allocPoint != _timelock.uintOf[keccak256(abi.encode('allocPoint'))], 'INVALID_INPUT');\r\n\r\n    \tupdatePool(_pid);\r\n        \r\n        poolInfo[_pid].allocPoint = _timelock.uintOf[keccak256(abi.encode('allocPoint'))];\r\n        delete _timelock.uintOf[keccak256(abi.encode('allocPoint'))];\r\n        _timelock.queuedTransactions = false;\r\n    }\r\n\r\n    function _validateTimelock(TimeLock storage _timelock) private view {\r\n        require(_timelock.queuedTransactions == true, \"Transaction hasn't been queued.\");\r\n        require(_timelock.timeOfExecute <= block.timestamp, \"Transaction hasn't surpassed time lock.\");\r\n        require(_timelock.timeOfExecute.add(GRACE_PERIOD) >= block.timestamp, \"Transaction is stale.\");\r\n    }\r\n\r\n    // Update reward variables of the given pool to be up-to-date.\r\n    function updatePool(uint256 _pid) public {\r\n\r\n        PoolInfo storage pool = poolInfo[_pid];\r\n\r\n        if (block.number <= pool.lastRewardBlock) {\r\n            return;\r\n        }\r\n        uint256 _totalShare = pool.grabiFarm.totalShare();\r\n        \r\n        uint256 _multiplier = getBlockFrom(pool.lastRewardBlock, block.number);\r\n\r\n        uint256 _reward = _multiplier.mul(vegrbPerBlock).mul(pool.allocPoint).div(totalAllocPoint);\r\n\r\n        if (_totalShare == 0) {\r\n\r\n            pool.lastRewardBlock = block.number;\r\n\r\n            return;\r\n        }\r\n\r\n        veGRB.mint(address(this), _reward);\r\n\r\n        pool.accVeGRBPerShare = pool.accVeGRBPerShare.add(_reward.mul(1e12).div(_totalShare));\r\n\r\n        pool.lastRewardBlock = block.number;\r\n    }\r\n\r\n    function harvest(uint256 _pid, address _user) external returns(uint256 _pendingVeGRB) \r\n    {\t\r\n    \tupdatePool(_pid);\r\n    \r\n    \tuint256 _rewardDebt;\r\n    \t(_pendingVeGRB, _rewardDebt, ) = getUserInfo(_pid, _user);\r\n\r\n    \tuint256 _vegrbBal = veGRB.balanceOf(address(this));\r\n\r\n    \trewardDebtOf[_pid][_user] = _rewardDebt;\r\n\r\n        if (_pendingVeGRB > _vegrbBal) {\r\n            _pendingVeGRB = _vegrbBal;\r\n    \t}\r\n        if (_pendingVeGRB > 0) {\r\n            veGRB.transfer(_user, _pendingVeGRB);\r\n            emit onHarvest(_pid, _user, _pendingVeGRB);\r\n        }\r\n    }\r\n\r\n    function updateUser(uint256 _pid, address _user) public returns(bool)\r\n    {\r\n        PoolInfo memory pool = poolInfo[_pid];\r\n        require(address(pool.grabiFarm) == msg.sender, 'INVALID_PERMISSION');\r\n\r\n        uint256 _userShare  = pool.grabiFarm.shareOf(_user);\r\n        rewardDebtOf[_pid][_user] = _userShare.mul(pool.accVeGRBPerShare).div(1e12);\r\n\r\n        return true;\r\n    }\r\n\r\n\r\n    function poolLength() external view returns (uint256) {\r\n        return poolInfo.length;\r\n    }\r\n\r\n    function getBlockFrom(uint256 _from, uint256 _to) public pure returns (uint256) {\r\n        return _to.sub(_from);\r\n    }\r\n\r\n    function getMiningSpeedOf(uint256 _pid) public view returns(uint256) {\r\n        return poolInfo[_pid].allocPoint.mul(100).div(totalAllocPoint);\r\n    }\r\n\r\n    function getTotalMintPerDayOf(uint256 _pid) public view returns(uint256) {\r\n        return totalBlockPerDay.mul(vegrbPerBlock).mul(poolInfo[_pid].allocPoint).div(totalAllocPoint);\r\n    }\r\n\r\n    function getVeGRBAddr() public view returns(address) {\r\n        return address(veGRB);\r\n    }\r\n\r\n    // View function to get User's Info in a pool.\r\n    function getUserInfo(uint256 _pid, address _user) public view returns (uint256 _pendingVeGRB, uint256 _rewardDebt, uint256 _userShare) { \r\n\r\n        PoolInfo memory pool = poolInfo[_pid];\r\n\r\n        uint256 accVeGRBPerShare = pool.accVeGRBPerShare;\r\n\r\n        // uint256 lpSupply = pool.lpToken.balanceOf(address(this));\r\n        uint256 _totalShare = pool.grabiFarm.totalShare();\r\n        _userShare  = pool.grabiFarm.shareOf(_user);\r\n\r\n        if (block.number > pool.lastRewardBlock && _totalShare != 0) {\r\n            uint256 _multiplier = getBlockFrom(pool.lastRewardBlock, block.number);\r\n            uint256 _reward = _multiplier.mul(vegrbPerBlock).mul(pool.allocPoint).div(totalAllocPoint);\r\n            accVeGRBPerShare = accVeGRBPerShare.add(_reward.mul(1e12).div(_totalShare));\r\n        }\r\n        _rewardDebt  = _userShare.mul(accVeGRBPerShare).div(1e12);\r\n\r\n        if (_rewardDebt > rewardDebtOf[_pid][_user]) {\r\n            _pendingVeGRB = _rewardDebt.sub(rewardDebtOf[_pid][_user]);\r\n        }\r\n    }\r\n\r\n    function getAddressChangeOnTimeLock(string memory _functionName, string memory _fieldName) public view returns(address) {\r\n        return timeLockOf[keccak256(abi.encode(_functionName))].addressOf[keccak256(abi.encode(_fieldName))];\r\n    }\r\n\r\n    function getUintChangeOnTimeLock(string memory _functionName, string memory _fieldName) public view returns(uint256) {\r\n        return timeLockOf[keccak256(abi.encode(_functionName))].uintOf[keccak256(abi.encode(_fieldName))];\r\n    }\r\n}",
  "sourcePath": "C:\\Users\\David\\Documents\\NetBeansProjects\\garbiprotocol.github.io\\garbi_contracts\\contracts\\GarbiMining.sol",
  "compiler": {
    "name": "solc",
    "version": "0.8.17+commit.8df45f5f.Emscripten.clang"
  },
  "schemaVersion": "3.4.11",
  "updatedAt": "2023-01-12T04:33:29.967Z",
  "devdoc": {
    "kind": "dev",
    "methods": {
      "owner()": {
        "details": "Returns the address of the current owner."
      },
      "renounceOwnership()": {
        "details": "Leaves the contract without owner. It will not be possible to call `onlyOwner` functions anymore. Can only be called by the current owner. NOTE: Renouncing ownership will leave the contract without an owner, thereby removing any functionality that is only available to the owner."
      },
      "transferOwnership(address)": {
        "details": "Transfers ownership of the contract to a new account (`newOwner`). Can only be called by the current owner."
      }
    },
    "version": 1
  },
  "userdoc": {
    "kind": "user",
    "methods": {},
    "version": 1
  }
}