{
  "contractName": "GECExchangeInfo",
  "abi": [
    {
      "inputs": [],
      "stateMutability": "nonpayable",
      "type": "constructor"
    },
    {
      "inputs": [
        {
          "internalType": "contract IGarbiRepositoryManager",
          "name": "repositoryManager",
          "type": "address"
        },
        {
          "internalType": "contract IERC20",
          "name": "GECTOKEN",
          "type": "address"
        },
        {
          "internalType": "address",
          "name": "user",
          "type": "address"
        },
        {
          "internalType": "contract IGarbiRepository",
          "name": "usdtRepo",
          "type": "address"
        },
        {
          "internalType": "contract IGarbiRepository",
          "name": "usdcRepo",
          "type": "address"
        },
        {
          "internalType": "contract IGarbiRepository",
          "name": "daiRepo",
          "type": "address"
        }
      ],
      "name": "getData",
      "outputs": [
        {
          "internalType": "uint256",
          "name": "gecPrice",
          "type": "uint256"
        },
        {
          "internalType": "uint256",
          "name": "gecTotalSupply",
          "type": "uint256"
        },
        {
          "internalType": "uint256",
          "name": "gecInUserWallet",
          "type": "uint256"
        },
        {
          "internalType": "uint256",
          "name": "repoUSDTPrice",
          "type": "uint256"
        },
        {
          "internalType": "uint256",
          "name": "repoDAIPrice",
          "type": "uint256"
        },
        {
          "internalType": "uint256",
          "name": "repoUSDCPrice",
          "type": "uint256"
        },
        {
          "internalType": "uint256",
          "name": "repoUSDTTotalToken",
          "type": "uint256"
        },
        {
          "internalType": "uint256",
          "name": "repoUSDCTotalToken",
          "type": "uint256"
        },
        {
          "internalType": "uint256",
          "name": "repoDAITotalToken",
          "type": "uint256"
        }
      ],
      "stateMutability": "view",
      "type": "function",
      "constant": true
    }
  ],
  "bytecode": "0x608060405234801561001057600080fd5b50610522806100206000396000f3fe608060405234801561001057600080fd5b506004361061002b5760003560e01c8063129113d714610030575b600080fd5b61004361003e366004610451565b61008b565b60408051998a5260208a0198909852968801959095526060870193909352608086019190915260a085015260c084015260e08301526101008201526101200160405180910390f35b60008060008060008060008060008e6001600160a01b031663d3b76e5c6040518163ffffffff1660e01b8152600401602060405180830381865afa1580156100d7573d6000803e3d6000fd5b505050506040513d601f19601f820116820180604052508101906100fb91906104d3565b98508d6001600160a01b03166318160ddd6040518163ffffffff1660e01b8152600401602060405180830381865afa15801561013b573d6000803e3d6000fd5b505050506040513d601f19601f8201168201806040525081019061015f91906104d3565b6040516370a0823160e01b81526001600160a01b038f81166004830152919950908f16906370a0823190602401602060405180830381865afa1580156101a9573d6000803e3d6000fd5b505050506040513d601f19601f820116820180604052508101906101cd91906104d3565b96508b6001600160a01b031663b49f4afd6040518163ffffffff1660e01b8152600401602060405180830381865afa15801561020d573d6000803e3d6000fd5b505050506040513d601f19601f8201168201806040525081019061023191906104d3565b95508a6001600160a01b031663b49f4afd6040518163ffffffff1660e01b8152600401602060405180830381865afa158015610271573d6000803e3d6000fd5b505050506040513d601f19601f8201168201806040525081019061029591906104d3565b9350896001600160a01b031663b49f4afd6040518163ffffffff1660e01b8152600401602060405180830381865afa1580156102d5573d6000803e3d6000fd5b505050506040513d601f19601f820116820180604052508101906102f991906104d3565b94508b6001600160a01b03166329b315d76040518163ffffffff1660e01b8152600401602060405180830381865afa158015610339573d6000803e3d6000fd5b505050506040513d601f19601f8201168201806040525081019061035d91906104d3565b92508a6001600160a01b03166329b315d76040518163ffffffff1660e01b8152600401602060405180830381865afa15801561039d573d6000803e3d6000fd5b505050506040513d601f19601f820116820180604052508101906103c191906104d3565b9150896001600160a01b03166329b315d76040518163ffffffff1660e01b8152600401602060405180830381865afa158015610401573d6000803e3d6000fd5b505050506040513d601f19601f8201168201806040525081019061042591906104d3565b9050969d50969d949b509650965096509650565b6001600160a01b038116811461044e57600080fd5b50565b60008060008060008060c0878903121561046a57600080fd5b863561047581610439565b9550602087013561048581610439565b9450604087013561049581610439565b935060608701356104a581610439565b925060808701356104b581610439565b915060a08701356104c581610439565b809150509295509295509295565b6000602082840312156104e557600080fd5b505191905056fea264697066735822122006c0000dd87e68053b9c3805eb8b17bb4f034ca24bd605f63daa197a7e9a631964736f6c63430008110033",
  "immutableReferences": {},
  "source": "// SPDX-License-Identifier: MIT\r\npragma solidity >=0.8.0;\r\nimport \"@openzeppelin/contracts/utils/math/SafeMath.sol\";\r\nimport \"@openzeppelin/contracts/token/ERC20/IERC20.sol\";\r\n\r\nimport '../interfaces/IGarbiRepositoryManager.sol';\r\nimport '../interfaces/IGarbiRepository.sol';\r\n\r\ncontract GECExchangeInfo{\r\n    using SafeMath for uint256;\r\n    constructor(\r\n        \r\n    ) {\r\n        \r\n    }\r\n\r\n    function getData(IGarbiRepositoryManager repositoryManager, IERC20 GECTOKEN, address user, IGarbiRepository usdtRepo, IGarbiRepository usdcRepo, IGarbiRepository daiRepo) public view returns (uint256 gecPrice, uint256 gecTotalSupply, uint256 gecInUserWallet, uint256 repoUSDTPrice, uint256 repoDAIPrice, uint256 repoUSDCPrice, uint256 repoUSDTTotalToken, uint256 repoUSDCTotalToken, uint256 repoDAITotalToken) {\r\n        gecPrice = repositoryManager.getGarbiECPrice();\r\n        gecTotalSupply = GECTOKEN.totalSupply();\r\n        gecInUserWallet = GECTOKEN.balanceOf(user);\r\n        repoUSDTPrice = usdtRepo.getBasePrice();\r\n        repoUSDCPrice = usdcRepo.getBasePrice();\r\n        repoDAIPrice = daiRepo.getBasePrice();\r\n        repoUSDTTotalToken = usdtRepo.getCapacityByToken();\r\n        repoUSDCTotalToken = usdcRepo.getCapacityByToken();\r\n        repoDAITotalToken = daiRepo.getCapacityByToken();\r\n    }\r\n}",
  "sourcePath": "C:\\Users\\David\\Documents\\NetBeansProjects\\garbiprotocol.github.io\\garbi_contracts\\contracts\\GarbiSwap2\\GECExchangeInfo.sol",
  "compiler": {
    "name": "solc",
    "version": "0.8.17+commit.8df45f5f.Emscripten.clang"
  },
  "schemaVersion": "3.4.11",
  "updatedAt": "2023-03-01T06:52:32.514Z",
  "networkType": "ethereum",
  "devdoc": {
    "kind": "dev",
    "methods": {},
    "version": 1
  },
  "userdoc": {
    "kind": "user",
    "methods": {},
    "version": 1
  }
}