{
  "contractName": "GECExchangeInfo",
  "abi": [
    {
      "inputs": [],
      "stateMutability": "nonpayable",
      "type": "constructor"
    },
    {
      "inputs": [
        {
          "internalType": "contract IGarbiRepositoryManager",
          "name": "repositoryManager",
          "type": "address"
        },
        {
          "internalType": "contract IERC20",
          "name": "GECTOKEN",
          "type": "address"
        },
        {
          "internalType": "address",
          "name": "user",
          "type": "address"
        },
        {
          "internalType": "contract IGarbiRepository",
          "name": "usdtRepo",
          "type": "address"
        },
        {
          "internalType": "contract IGarbiRepository",
          "name": "usdcRepo",
          "type": "address"
        },
        {
          "internalType": "contract IGarbiRepository",
          "name": "daiRepo",
          "type": "address"
        }
      ],
      "name": "getData",
      "outputs": [
        {
          "internalType": "uint256",
          "name": "gecPrice",
          "type": "uint256"
        },
        {
          "internalType": "uint256",
          "name": "gecTotalSupply",
          "type": "uint256"
        },
        {
          "internalType": "uint256",
          "name": "gecInUserWallet",
          "type": "uint256"
        },
        {
          "internalType": "uint256",
          "name": "repoUSDTPrice",
          "type": "uint256"
        },
        {
          "internalType": "uint256",
          "name": "repoDAIPrice",
          "type": "uint256"
        },
        {
          "internalType": "uint256",
          "name": "repoUSDCPrice",
          "type": "uint256"
        },
        {
          "internalType": "uint256",
          "name": "repoUSDTTotalToken",
          "type": "uint256"
        },
        {
          "internalType": "uint256",
          "name": "repoUSDCTotalToken",
          "type": "uint256"
        },
        {
          "internalType": "uint256",
          "name": "repoDAITotalToken",
          "type": "uint256"
        }
      ],
      "stateMutability": "view",
      "type": "function",
      "constant": true
    },
    {
      "inputs": [
        {
          "internalType": "uint256",
          "name": "gecInputAmount",
          "type": "uint256"
        },
        {
          "internalType": "contract IGarbiRepositoryManager",
          "name": "repositoryManager",
          "type": "address"
        },
        {
          "internalType": "contract IGarbiRepository",
          "name": "usdtRepo",
          "type": "address"
        },
        {
          "internalType": "contract IGarbiRepository",
          "name": "usdcRepo",
          "type": "address"
        },
        {
          "internalType": "contract IGarbiRepository",
          "name": "daiRepo",
          "type": "address"
        }
      ],
      "name": "getSellGECFees",
      "outputs": [
        {
          "internalType": "uint256",
          "name": "repoUSDTSellGECFee",
          "type": "uint256"
        },
        {
          "internalType": "uint256",
          "name": "repoUSDCSellGECFee",
          "type": "uint256"
        },
        {
          "internalType": "uint256",
          "name": "repoDAISellGECFee",
          "type": "uint256"
        }
      ],
      "stateMutability": "view",
      "type": "function",
      "constant": true
    }
  ],
  "bytecode": "0x608060405234801561001057600080fd5b5061089b806100206000396000f3fe608060405234801561001057600080fd5b50600436106100365760003560e01c8063129113d71461003b5780632059da4514610097575b600080fd5b61004e610049366004610762565b6100c5565b60408051998a5260208a0198909852968801959095526060870193909352608086019190915260a085015260c084015260e0830152610100820152610120015b60405180910390f35b6100aa6100a53660046107e4565b610473565b6040805193845260208401929092529082015260600161008e565b60008060008060008060008060008e6001600160a01b031663d3b76e5c6040518163ffffffff1660e01b8152600401602060405180830381865afa158015610111573d6000803e3d6000fd5b505050506040513d601f19601f82011682018060405250810190610135919061084c565b98508d6001600160a01b03166318160ddd6040518163ffffffff1660e01b8152600401602060405180830381865afa158015610175573d6000803e3d6000fd5b505050506040513d601f19601f82011682018060405250810190610199919061084c565b6040516370a0823160e01b81526001600160a01b038f81166004830152919950908f16906370a0823190602401602060405180830381865afa1580156101e3573d6000803e3d6000fd5b505050506040513d601f19601f82011682018060405250810190610207919061084c565b96508b6001600160a01b031663b49f4afd6040518163ffffffff1660e01b8152600401602060405180830381865afa158015610247573d6000803e3d6000fd5b505050506040513d601f19601f8201168201806040525081019061026b919061084c565b95508a6001600160a01b031663b49f4afd6040518163ffffffff1660e01b8152600401602060405180830381865afa1580156102ab573d6000803e3d6000fd5b505050506040513d601f19601f820116820180604052508101906102cf919061084c565b9350896001600160a01b031663b49f4afd6040518163ffffffff1660e01b8152600401602060405180830381865afa15801561030f573d6000803e3d6000fd5b505050506040513d601f19601f82011682018060405250810190610333919061084c565b94508b6001600160a01b03166329b315d76040518163ffffffff1660e01b8152600401602060405180830381865afa158015610373573d6000803e3d6000fd5b505050506040513d601f19601f82011682018060405250810190610397919061084c565b92508a6001600160a01b03166329b315d76040518163ffffffff1660e01b8152600401602060405180830381865afa1580156103d7573d6000803e3d6000fd5b505050506040513d601f19601f820116820180604052508101906103fb919061084c565b9150896001600160a01b03166329b315d76040518163ffffffff1660e01b8152600401602060405180830381865afa15801561043b573d6000803e3d6000fd5b505050506040513d601f19601f8201168201806040525081019061045f919061084c565b9050969d50969d949b509650965096509650565b60405163a5f270b760e01b81526001600160a01b0384811660048301526024820187905260009182918291829189169063a5f270b790604401602060405180830381865afa1580156104c9573d6000803e3d6000fd5b505050506040513d601f19601f820116820180604052508101906104ed919061084c565b60405163a84f57f560e01b81526001600160a01b038981166004830152602482018390529192509089169063a84f57f590604401602060405180830381865afa15801561053e573d6000803e3d6000fd5b505050506040513d601f19601f82011682018060405250810190610562919061084c565b60405163a5f270b760e01b81526001600160a01b038881166004830152602482018c90529195506000918a169063a5f270b790604401602060405180830381865afa1580156105b5573d6000803e3d6000fd5b505050506040513d601f19601f820116820180604052508101906105d9919061084c565b60405163a84f57f560e01b81526001600160a01b03898116600483015260248201839052919250908a169063a84f57f590604401602060405180830381865afa15801561062a573d6000803e3d6000fd5b505050506040513d601f19601f8201168201806040525081019061064e919061084c565b60405163a5f270b760e01b81526001600160a01b038881166004830152602482018d90529195506000918b169063a5f270b790604401602060405180830381865afa1580156106a1573d6000803e3d6000fd5b505050506040513d601f19601f820116820180604052508101906106c5919061084c565b60405163a84f57f560e01b81526001600160a01b03898116600483015260248201839052919250908b169063a84f57f590604401602060405180830381865afa158015610716573d6000803e3d6000fd5b505050506040513d601f19601f8201168201806040525081019061073a919061084c565b9350505050955095509592505050565b6001600160a01b038116811461075f57600080fd5b50565b60008060008060008060c0878903121561077b57600080fd5b86356107868161074a565b955060208701356107968161074a565b945060408701356107a68161074a565b935060608701356107b68161074a565b925060808701356107c68161074a565b915060a08701356107d68161074a565b809150509295509295509295565b600080600080600060a086880312156107fc57600080fd5b85359450602086013561080e8161074a565b9350604086013561081e8161074a565b9250606086013561082e8161074a565b9150608086013561083e8161074a565b809150509295509295909350565b60006020828403121561085e57600080fd5b505191905056fea264697066735822122017b8932a54282a4c3884b32560eca7c62d27d17fa3d5520f4346a706d44b5c3964736f6c63430008110033",
  "immutableReferences": {},
  "source": "// SPDX-License-Identifier: MIT\r\npragma solidity >=0.8.0;\r\nimport \"@openzeppelin/contracts/utils/math/SafeMath.sol\";\r\nimport \"@openzeppelin/contracts/token/ERC20/IERC20.sol\";\r\n\r\nimport '../interfaces/IGarbiRepositoryManager.sol';\r\nimport '../interfaces/IGarbiRepository.sol';\r\n\r\ncontract GECExchangeInfo{\r\n    using SafeMath for uint256;\r\n    constructor(\r\n        \r\n    ) {\r\n        \r\n    }\r\n\r\n    function getData(IGarbiRepositoryManager repositoryManager, IERC20 GECTOKEN, address user, IGarbiRepository usdtRepo, IGarbiRepository usdcRepo, IGarbiRepository daiRepo) public view returns (uint256 gecPrice, uint256 gecTotalSupply, uint256 gecInUserWallet, uint256 repoUSDTPrice, uint256 repoDAIPrice, uint256 repoUSDCPrice, uint256 repoUSDTTotalToken, uint256 repoUSDCTotalToken, uint256 repoDAITotalToken) {\r\n        gecPrice = repositoryManager.getGarbiECPrice();\r\n        gecTotalSupply = GECTOKEN.totalSupply();\r\n        gecInUserWallet = GECTOKEN.balanceOf(user);\r\n        repoUSDTPrice = usdtRepo.getBasePrice();\r\n        repoUSDCPrice = usdcRepo.getBasePrice();\r\n        repoDAIPrice = daiRepo.getBasePrice();\r\n        repoUSDTTotalToken = usdtRepo.getCapacityByToken();\r\n        repoUSDCTotalToken = usdcRepo.getCapacityByToken();\r\n        repoDAITotalToken = daiRepo.getCapacityByToken();\r\n    }\r\n\r\n    function getSellGECFees(uint256 gecInputAmount, IGarbiRepositoryManager repositoryManager, IGarbiRepository usdtRepo, IGarbiRepository usdcRepo, IGarbiRepository daiRepo) public view returns (uint256 repoUSDTSellGECFee, uint256 repoUSDCSellGECFee, uint256 repoDAISellGECFee)  {\r\n        uint256 usdtOutAmount = repositoryManager.getDataToSellGarbiEC(address(usdtRepo), gecInputAmount);\r\n        repoUSDTSellGECFee = repositoryManager.getFeeWithOutAmount(address(usdtRepo), usdtOutAmount);\r\n        uint256 usdcOutAmount = repositoryManager.getDataToSellGarbiEC(address(usdcRepo), gecInputAmount);\r\n        repoUSDCSellGECFee = repositoryManager.getFeeWithOutAmount(address(usdcRepo), usdcOutAmount);\r\n        uint256 daiOutAmount = repositoryManager.getDataToSellGarbiEC(address(daiRepo), gecInputAmount);\r\n        repoDAISellGECFee = repositoryManager.getFeeWithOutAmount(address(daiRepo), daiOutAmount);\r\n    }\r\n}",
  "sourcePath": "C:\\Users\\David\\Documents\\NetBeansProjects\\garbiprotocol.github.io\\garbi_contracts\\contracts\\GarbiSwap2\\GECExchangeInfo.sol",
  "compiler": {
    "name": "solc",
    "version": "0.8.17+commit.8df45f5f.Emscripten.clang"
  },
  "schemaVersion": "3.4.11",
  "updatedAt": "2023-03-02T09:19:48.877Z",
  "networkType": "ethereum",
  "devdoc": {
    "kind": "dev",
    "methods": {},
    "version": 1
  },
  "userdoc": {
    "kind": "user",
    "methods": {},
    "version": 1
  }
}