{
  "contractName": "GECExchangeInfo",
  "abi": [
    {
      "inputs": [],
      "stateMutability": "nonpayable",
      "type": "constructor"
    },
    {
      "inputs": [
        {
          "internalType": "contract IGarbiRepositoryManager",
          "name": "repositoryManager",
          "type": "address"
        },
        {
          "internalType": "contract IERC20",
          "name": "GECTOKEN",
          "type": "address"
        },
        {
          "internalType": "address",
          "name": "user",
          "type": "address"
        },
        {
          "internalType": "contract IGarbiRepository",
          "name": "usdtRepo",
          "type": "address"
        },
        {
          "internalType": "contract IGarbiRepository",
          "name": "usdcRepo",
          "type": "address"
        },
        {
          "internalType": "contract IGarbiRepository",
          "name": "daiRepo",
          "type": "address"
        }
      ],
      "name": "getData",
      "outputs": [
        {
          "internalType": "uint256",
          "name": "gecPrice",
          "type": "uint256"
        },
        {
          "internalType": "uint256",
          "name": "gecTotalSupply",
          "type": "uint256"
        },
        {
          "internalType": "uint256",
          "name": "gecInUserWallet",
          "type": "uint256"
        },
        {
          "internalType": "uint256",
          "name": "repoUSDTPrice",
          "type": "uint256"
        },
        {
          "internalType": "uint256",
          "name": "repoDAIPrice",
          "type": "uint256"
        },
        {
          "internalType": "uint256",
          "name": "repoUSDCPrice",
          "type": "uint256"
        },
        {
          "internalType": "uint256",
          "name": "repoUSDTTotalToken",
          "type": "uint256"
        },
        {
          "internalType": "uint256",
          "name": "repoUSDCTotalToken",
          "type": "uint256"
        },
        {
          "internalType": "uint256",
          "name": "repoDAITotalToken",
          "type": "uint256"
        }
      ],
      "stateMutability": "view",
      "type": "function",
      "constant": true
    },
    {
      "inputs": [
        {
          "internalType": "uint256",
          "name": "gecInputAmount",
          "type": "uint256"
        },
        {
          "internalType": "contract IGarbiRepositoryManager",
          "name": "repositoryManager",
          "type": "address"
        },
        {
          "internalType": "contract IGarbiRepository",
          "name": "usdtRepo",
          "type": "address"
        },
        {
          "internalType": "contract IGarbiRepository",
          "name": "usdcRepo",
          "type": "address"
        },
        {
          "internalType": "contract IGarbiRepository",
          "name": "daiRepo",
          "type": "address"
        }
      ],
      "name": "getSellGECFees",
      "outputs": [
        {
          "internalType": "uint256",
          "name": "repoUSDTSellGECFee",
          "type": "uint256"
        },
        {
          "internalType": "uint256",
          "name": "repoUSDCSellGECFee",
          "type": "uint256"
        },
        {
          "internalType": "uint256",
          "name": "repoDAISellGECFee",
          "type": "uint256"
        }
      ],
      "stateMutability": "view",
      "type": "function",
      "constant": true
    }
  ],
  "bytecode": "0x608060405234801561001057600080fd5b50610aff806100206000396000f3fe608060405234801561001057600080fd5b50600436106100365760003560e01c8063129113d71461003b5780632059da4514610097575b600080fd5b61004e6100493660046109c6565b6100c5565b60408051998a5260208a0198909852968801959095526060870193909352608086019190915260a085015260c084015260e0830152610100820152610120015b60405180910390f35b6100aa6100a5366004610a48565b610473565b6040805193845260208401929092529082015260600161008e565b60008060008060008060008060008e6001600160a01b031663d3b76e5c6040518163ffffffff1660e01b8152600401602060405180830381865afa158015610111573d6000803e3d6000fd5b505050506040513d601f19601f820116820180604052508101906101359190610ab0565b98508d6001600160a01b03166318160ddd6040518163ffffffff1660e01b8152600401602060405180830381865afa158015610175573d6000803e3d6000fd5b505050506040513d601f19601f820116820180604052508101906101999190610ab0565b6040516370a0823160e01b81526001600160a01b038f81166004830152919950908f16906370a0823190602401602060405180830381865afa1580156101e3573d6000803e3d6000fd5b505050506040513d601f19601f820116820180604052508101906102079190610ab0565b96508b6001600160a01b031663b49f4afd6040518163ffffffff1660e01b8152600401602060405180830381865afa158015610247573d6000803e3d6000fd5b505050506040513d601f19601f8201168201806040525081019061026b9190610ab0565b95508a6001600160a01b031663b49f4afd6040518163ffffffff1660e01b8152600401602060405180830381865afa1580156102ab573d6000803e3d6000fd5b505050506040513d601f19601f820116820180604052508101906102cf9190610ab0565b9350896001600160a01b031663b49f4afd6040518163ffffffff1660e01b8152600401602060405180830381865afa15801561030f573d6000803e3d6000fd5b505050506040513d601f19601f820116820180604052508101906103339190610ab0565b94508b6001600160a01b03166329b315d76040518163ffffffff1660e01b8152600401602060405180830381865afa158015610373573d6000803e3d6000fd5b505050506040513d601f19601f820116820180604052508101906103979190610ab0565b92508a6001600160a01b03166329b315d76040518163ffffffff1660e01b8152600401602060405180830381865afa1580156103d7573d6000803e3d6000fd5b505050506040513d601f19601f820116820180604052508101906103fb9190610ab0565b9150896001600160a01b03166329b315d76040518163ffffffff1660e01b8152600401602060405180830381865afa15801561043b573d6000803e3d6000fd5b505050506040513d601f19601f8201168201806040525081019061045f9190610ab0565b9050969d50969d949b509650965096509650565b60405163a5f270b760e01b81526001600160a01b0384811660048301526024820187905260009182918291829189169063a5f270b790604401602060405180830381865afa1580156104c9573d6000803e3d6000fd5b505050506040513d601f19601f820116820180604052508101906104ed9190610ab0565b9050866001600160a01b03166329b315d76040518163ffffffff1660e01b8152600401602060405180830381865afa15801561052d573d6000803e3d6000fd5b505050506040513d601f19601f820116820180604052508101906105519190610ab0565b8111156105bd57866001600160a01b03166329b315d76040518163ffffffff1660e01b8152600401602060405180830381865afa158015610596573d6000803e3d6000fd5b505050506040513d601f19601f820116820180604052508101906105ba9190610ab0565b90505b60405163a84f57f560e01b81526001600160a01b0388811660048301526024820183905289169063a84f57f590604401602060405180830381865afa15801561060a573d6000803e3d6000fd5b505050506040513d601f19601f8201168201806040525081019061062e9190610ab0565b60405163a5f270b760e01b81526001600160a01b038881166004830152602482018c90529195506000918a169063a5f270b790604401602060405180830381865afa158015610681573d6000803e3d6000fd5b505050506040513d601f19601f820116820180604052508101906106a59190610ab0565b9050866001600160a01b03166329b315d76040518163ffffffff1660e01b8152600401602060405180830381865afa1580156106e5573d6000803e3d6000fd5b505050506040513d601f19601f820116820180604052508101906107099190610ab0565b81111561077557866001600160a01b03166329b315d76040518163ffffffff1660e01b8152600401602060405180830381865afa15801561074e573d6000803e3d6000fd5b505050506040513d601f19601f820116820180604052508101906107729190610ab0565b90505b60405163a84f57f560e01b81526001600160a01b038881166004830152602482018390528a169063a84f57f590604401602060405180830381865afa1580156107c2573d6000803e3d6000fd5b505050506040513d601f19601f820116820180604052508101906107e69190610ab0565b60405163a5f270b760e01b81526001600160a01b038881166004830152602482018d90529195506000918b169063a5f270b790604401602060405180830381865afa158015610839573d6000803e3d6000fd5b505050506040513d601f19601f8201168201806040525081019061085d9190610ab0565b9050866001600160a01b03166329b315d76040518163ffffffff1660e01b8152600401602060405180830381865afa15801561089d573d6000803e3d6000fd5b505050506040513d601f19601f820116820180604052508101906108c19190610ab0565b81111561092d57866001600160a01b03166329b315d76040518163ffffffff1660e01b8152600401602060405180830381865afa158015610906573d6000803e3d6000fd5b505050506040513d601f19601f8201168201806040525081019061092a9190610ab0565b90505b60405163a84f57f560e01b81526001600160a01b038881166004830152602482018390528b169063a84f57f590604401602060405180830381865afa15801561097a573d6000803e3d6000fd5b505050506040513d601f19601f8201168201806040525081019061099e9190610ab0565b9350505050955095509592505050565b6001600160a01b03811681146109c357600080fd5b50565b60008060008060008060c087890312156109df57600080fd5b86356109ea816109ae565b955060208701356109fa816109ae565b94506040870135610a0a816109ae565b93506060870135610a1a816109ae565b92506080870135610a2a816109ae565b915060a0870135610a3a816109ae565b809150509295509295509295565b600080600080600060a08688031215610a6057600080fd5b853594506020860135610a72816109ae565b93506040860135610a82816109ae565b92506060860135610a92816109ae565b91506080860135610aa2816109ae565b809150509295509295909350565b600060208284031215610ac257600080fd5b505191905056fea2646970667358221220272cb5acfdf0759196023bd95d30314b0fbcbce6ff72aa98782f439c12faddb064736f6c63430008110033",
  "immutableReferences": {},
  "source": "// SPDX-License-Identifier: MIT\npragma solidity >=0.8.0;\nimport \"@openzeppelin/contracts/utils/math/SafeMath.sol\";\nimport \"@openzeppelin/contracts/token/ERC20/IERC20.sol\";\n\nimport '../interfaces/IGarbiRepositoryManager.sol';\nimport '../interfaces/IGarbiRepository.sol';\n\ncontract GECExchangeInfo{\n    using SafeMath for uint256;\n    constructor(\n        \n    ) {\n        \n    }\n\n    function getData(IGarbiRepositoryManager repositoryManager, IERC20 GECTOKEN, address user, IGarbiRepository usdtRepo, IGarbiRepository usdcRepo, IGarbiRepository daiRepo) public view returns (uint256 gecPrice, uint256 gecTotalSupply, uint256 gecInUserWallet, uint256 repoUSDTPrice, uint256 repoDAIPrice, uint256 repoUSDCPrice, uint256 repoUSDTTotalToken, uint256 repoUSDCTotalToken, uint256 repoDAITotalToken) {\n        gecPrice = repositoryManager.getGarbiECPrice();\n        gecTotalSupply = GECTOKEN.totalSupply();\n        gecInUserWallet = GECTOKEN.balanceOf(user);\n        repoUSDTPrice = usdtRepo.getBasePrice();\n        repoUSDCPrice = usdcRepo.getBasePrice();\n        repoDAIPrice = daiRepo.getBasePrice();\n        repoUSDTTotalToken = usdtRepo.getCapacityByToken();\n        repoUSDCTotalToken = usdcRepo.getCapacityByToken();\n        repoDAITotalToken = daiRepo.getCapacityByToken();\n    }\n\n    function getSellGECFees(uint256 gecInputAmount, IGarbiRepositoryManager repositoryManager, IGarbiRepository usdtRepo, IGarbiRepository usdcRepo, IGarbiRepository daiRepo) public view returns (uint256 repoUSDTSellGECFee, uint256 repoUSDCSellGECFee, uint256 repoDAISellGECFee)  {\n        uint256 usdtOutAmount = repositoryManager.getDataToSellGarbiEC(address(usdtRepo), gecInputAmount);\n        if(usdtOutAmount > usdtRepo.getCapacityByToken()) {\n            usdtOutAmount = usdtRepo.getCapacityByToken();\n        }\n        repoUSDTSellGECFee = repositoryManager.getFeeWithOutAmount(address(usdtRepo), usdtOutAmount);\n\n        uint256 usdcOutAmount = repositoryManager.getDataToSellGarbiEC(address(usdcRepo), gecInputAmount);\n        if(usdcOutAmount > usdcRepo.getCapacityByToken()) {\n            usdcOutAmount = usdcRepo.getCapacityByToken();\n        }\n        repoUSDCSellGECFee = repositoryManager.getFeeWithOutAmount(address(usdcRepo), usdcOutAmount);\n\n        uint256 daiOutAmount = repositoryManager.getDataToSellGarbiEC(address(daiRepo), gecInputAmount);\n        if(daiOutAmount > daiRepo.getCapacityByToken()) {\n            daiOutAmount = daiRepo.getCapacityByToken();\n        }\n        repoDAISellGECFee = repositoryManager.getFeeWithOutAmount(address(daiRepo), daiOutAmount);\n    }\n}",
  "sourcePath": "/Applications/projects/garbiprotocol.github.io/garbi_contracts/contracts/GarbiSwap2/GECExchangeInfo.sol",
  "compiler": {
    "name": "solc",
    "version": "0.8.17+commit.8df45f5f.Emscripten.clang"
  },
  "schemaVersion": "3.4.11",
  "updatedAt": "2023-03-05T03:14:29.006Z",
  "networkType": "ethereum",
  "devdoc": {
    "kind": "dev",
    "methods": {},
    "version": 1
  },
  "userdoc": {
    "kind": "user",
    "methods": {},
    "version": 1
  }
}