{
  "contractName": "GRB",
  "abi": [
    {
      "inputs": [
        {
          "internalType": "uint256",
          "name": "_maxSupply",
          "type": "uint256"
        },
        {
          "internalType": "uint256",
          "name": "_initialSupply",
          "type": "uint256"
        }
      ],
      "stateMutability": "nonpayable",
      "type": "constructor"
    },
    {
      "anonymous": false,
      "inputs": [
        {
          "indexed": true,
          "internalType": "address",
          "name": "owner",
          "type": "address"
        },
        {
          "indexed": true,
          "internalType": "address",
          "name": "spender",
          "type": "address"
        },
        {
          "indexed": false,
          "internalType": "uint256",
          "name": "value",
          "type": "uint256"
        }
      ],
      "name": "Approval",
      "type": "event"
    },
    {
      "anonymous": false,
      "inputs": [
        {
          "indexed": true,
          "internalType": "address",
          "name": "previousOwner",
          "type": "address"
        },
        {
          "indexed": true,
          "internalType": "address",
          "name": "newOwner",
          "type": "address"
        }
      ],
      "name": "OwnershipTransferred",
      "type": "event"
    },
    {
      "anonymous": false,
      "inputs": [
        {
          "indexed": true,
          "internalType": "address",
          "name": "from",
          "type": "address"
        },
        {
          "indexed": true,
          "internalType": "address",
          "name": "to",
          "type": "address"
        },
        {
          "indexed": false,
          "internalType": "uint256",
          "name": "value",
          "type": "uint256"
        }
      ],
      "name": "Transfer",
      "type": "event"
    },
    {
      "inputs": [],
      "name": "MAX_SUPPLY",
      "outputs": [
        {
          "internalType": "uint256",
          "name": "",
          "type": "uint256"
        }
      ],
      "stateMutability": "view",
      "type": "function"
    },
    {
      "inputs": [
        {
          "internalType": "address",
          "name": "owner",
          "type": "address"
        },
        {
          "internalType": "address",
          "name": "spender",
          "type": "address"
        }
      ],
      "name": "allowance",
      "outputs": [
        {
          "internalType": "uint256",
          "name": "",
          "type": "uint256"
        }
      ],
      "stateMutability": "view",
      "type": "function"
    },
    {
      "inputs": [
        {
          "internalType": "address",
          "name": "spender",
          "type": "address"
        },
        {
          "internalType": "uint256",
          "name": "amount",
          "type": "uint256"
        }
      ],
      "name": "approve",
      "outputs": [
        {
          "internalType": "bool",
          "name": "",
          "type": "bool"
        }
      ],
      "stateMutability": "nonpayable",
      "type": "function"
    },
    {
      "inputs": [
        {
          "internalType": "address",
          "name": "account",
          "type": "address"
        }
      ],
      "name": "balanceOf",
      "outputs": [
        {
          "internalType": "uint256",
          "name": "",
          "type": "uint256"
        }
      ],
      "stateMutability": "view",
      "type": "function"
    },
    {
      "inputs": [
        {
          "internalType": "uint256",
          "name": "amount",
          "type": "uint256"
        }
      ],
      "name": "burn",
      "outputs": [],
      "stateMutability": "nonpayable",
      "type": "function"
    },
    {
      "inputs": [
        {
          "internalType": "address",
          "name": "account",
          "type": "address"
        },
        {
          "internalType": "uint256",
          "name": "amount",
          "type": "uint256"
        }
      ],
      "name": "burnFrom",
      "outputs": [],
      "stateMutability": "nonpayable",
      "type": "function"
    },
    {
      "inputs": [],
      "name": "decimals",
      "outputs": [
        {
          "internalType": "uint8",
          "name": "",
          "type": "uint8"
        }
      ],
      "stateMutability": "view",
      "type": "function"
    },
    {
      "inputs": [
        {
          "internalType": "address",
          "name": "spender",
          "type": "address"
        },
        {
          "internalType": "uint256",
          "name": "subtractedValue",
          "type": "uint256"
        }
      ],
      "name": "decreaseAllowance",
      "outputs": [
        {
          "internalType": "bool",
          "name": "",
          "type": "bool"
        }
      ],
      "stateMutability": "nonpayable",
      "type": "function"
    },
    {
      "inputs": [
        {
          "internalType": "address",
          "name": "spender",
          "type": "address"
        },
        {
          "internalType": "uint256",
          "name": "addedValue",
          "type": "uint256"
        }
      ],
      "name": "increaseAllowance",
      "outputs": [
        {
          "internalType": "bool",
          "name": "",
          "type": "bool"
        }
      ],
      "stateMutability": "nonpayable",
      "type": "function"
    },
    {
      "inputs": [],
      "name": "name",
      "outputs": [
        {
          "internalType": "string",
          "name": "",
          "type": "string"
        }
      ],
      "stateMutability": "view",
      "type": "function"
    },
    {
      "inputs": [],
      "name": "owner",
      "outputs": [
        {
          "internalType": "address",
          "name": "",
          "type": "address"
        }
      ],
      "stateMutability": "view",
      "type": "function"
    },
    {
      "inputs": [],
      "name": "renounceOwnership",
      "outputs": [],
      "stateMutability": "nonpayable",
      "type": "function"
    },
    {
      "inputs": [],
      "name": "symbol",
      "outputs": [
        {
          "internalType": "string",
          "name": "",
          "type": "string"
        }
      ],
      "stateMutability": "view",
      "type": "function"
    },
    {
      "inputs": [],
      "name": "totalBurned",
      "outputs": [
        {
          "internalType": "uint256",
          "name": "",
          "type": "uint256"
        }
      ],
      "stateMutability": "view",
      "type": "function"
    },
    {
      "inputs": [],
      "name": "totalSupply",
      "outputs": [
        {
          "internalType": "uint256",
          "name": "",
          "type": "uint256"
        }
      ],
      "stateMutability": "view",
      "type": "function"
    },
    {
      "inputs": [
        {
          "internalType": "address",
          "name": "to",
          "type": "address"
        },
        {
          "internalType": "uint256",
          "name": "amount",
          "type": "uint256"
        }
      ],
      "name": "transfer",
      "outputs": [
        {
          "internalType": "bool",
          "name": "",
          "type": "bool"
        }
      ],
      "stateMutability": "nonpayable",
      "type": "function"
    },
    {
      "inputs": [
        {
          "internalType": "address",
          "name": "from",
          "type": "address"
        },
        {
          "internalType": "address",
          "name": "to",
          "type": "address"
        },
        {
          "internalType": "uint256",
          "name": "amount",
          "type": "uint256"
        }
      ],
      "name": "transferFrom",
      "outputs": [
        {
          "internalType": "bool",
          "name": "",
          "type": "bool"
        }
      ],
      "stateMutability": "nonpayable",
      "type": "function"
    },
    {
      "inputs": [
        {
          "internalType": "address",
          "name": "newOwner",
          "type": "address"
        }
      ],
      "name": "transferOwnership",
      "outputs": [],
      "stateMutability": "nonpayable",
      "type": "function"
    },
    {
      "inputs": [
        {
          "internalType": "address",
          "name": "_user",
          "type": "address"
        },
        {
          "internalType": "uint256",
          "name": "_amount",
          "type": "uint256"
        }
      ],
      "name": "mint",
      "outputs": [],
      "stateMutability": "nonpayable",
      "type": "function"
    }
  ],
  "bytecode": "0x60a060405260006006553480156200001657600080fd5b50604051620026923803806200269283398181016040528101906200003c9190620003f5565b6040518060400160405280600d81526020017f476172626950726f746f636f6c000000000000000000000000000000000000008152506040518060400160405280600381526020017f47524200000000000000000000000000000000000000000000000000000000008152508160039081620000b99190620006ac565b508060049081620000cb9190620006ac565b505050620000ee620000e26200017060201b60201c565b6200017860201b60201c565b8181111562000134576040517f08c379a00000000000000000000000000000000000000000000000000000000081526004016200012b906200081a565b60405180910390fd5b816080818152505060008111156200016857620001676200015a6200017060201b60201c565b826200023e60201b60201c565b5b505062000946565b600033905090565b6000600560009054906101000a900473ffffffffffffffffffffffffffffffffffffffff16905081600560006101000a81548173ffffffffffffffffffffffffffffffffffffffff021916908373ffffffffffffffffffffffffffffffffffffffff1602179055508173ffffffffffffffffffffffffffffffffffffffff168173ffffffffffffffffffffffffffffffffffffffff167f8be0079c531659141344cd1fd0a4f28419497f9722a3daafe3b4186f6b6457e060405160405180910390a35050565b600073ffffffffffffffffffffffffffffffffffffffff168273ffffffffffffffffffffffffffffffffffffffff1603620002b0576040517f08c379a0000000000000000000000000000000000000000000000000000000008152600401620002a7906200088c565b60405180910390fd5b620002c460008383620003ab60201b60201c565b8060026000828254620002d89190620008dd565b92505081905550806000808473ffffffffffffffffffffffffffffffffffffffff1673ffffffffffffffffffffffffffffffffffffffff168152602001908152602001600020600082825401925050819055508173ffffffffffffffffffffffffffffffffffffffff16600073ffffffffffffffffffffffffffffffffffffffff167fddf252ad1be2c89b69c2b068fc378daa952ba7f163c4a11628f55a4df523b3ef836040516200038b919062000929565b60405180910390a3620003a760008383620003b060201b60201c565b5050565b505050565b505050565b600080fd5b6000819050919050565b620003cf81620003ba565b8114620003db57600080fd5b50565b600081519050620003ef81620003c4565b92915050565b600080604083850312156200040f576200040e620003b5565b5b60006200041f85828601620003de565b92505060206200043285828601620003de565b9150509250929050565b600081519050919050565b7f4e487b7100000000000000000000000000000000000000000000000000000000600052604160045260246000fd5b7f4e487b7100000000000000000000000000000000000000000000000000000000600052602260045260246000fd5b60006002820490506001821680620004be57607f821691505b602082108103620004d457620004d362000476565b5b50919050565b60008190508160005260206000209050919050565b60006020601f8301049050919050565b600082821b905092915050565b6000600883026200053e7fffffffffffffffffffffffffffffffffffffffffffffffffffffffffffffffff82620004ff565b6200054a8683620004ff565b95508019841693508086168417925050509392505050565b6000819050919050565b60006200058d620005876200058184620003ba565b62000562565b620003ba565b9050919050565b6000819050919050565b620005a9836200056c565b620005c1620005b88262000594565b8484546200050c565b825550505050565b600090565b620005d8620005c9565b620005e58184846200059e565b505050565b5b818110156200060d5762000601600082620005ce565b600181019050620005eb565b5050565b601f8211156200065c576200062681620004da565b6200063184620004ef565b8101602085101562000641578190505b620006596200065085620004ef565b830182620005ea565b50505b505050565b600082821c905092915050565b6000620006816000198460080262000661565b1980831691505092915050565b60006200069c83836200066e565b9150826002028217905092915050565b620006b7826200043c565b67ffffffffffffffff811115620006d357620006d262000447565b5b620006df8254620004a5565b620006ec82828562000611565b600060209050601f8311600181146200072457600084156200070f578287015190505b6200071b85826200068e565b8655506200078b565b601f1984166200073486620004da565b60005b828110156200075e5784890151825560018201915060208501945060208101905062000737565b868310156200077e57848901516200077a601f8916826200066e565b8355505b6001600288020188555050505b505050505050565b600082825260208201905092915050565b7f4752423a20546865205f696e697469616c537570706c792073686f756c64206e60008201527f6f742065786365656420746865205f6d6178537570706c790000000000000000602082015250565b60006200080260388362000793565b91506200080f82620007a4565b604082019050919050565b600060208201905081810360008301526200083581620007f3565b9050919050565b7f45524332303a206d696e7420746f20746865207a65726f206164647265737300600082015250565b600062000874601f8362000793565b915062000881826200083c565b602082019050919050565b60006020820190508181036000830152620008a78162000865565b9050919050565b7f4e487b7100000000000000000000000000000000000000000000000000000000600052601160045260246000fd5b6000620008ea82620003ba565b9150620008f783620003ba565b9250828201905080821115620009125762000911620008ae565b5b92915050565b6200092381620003ba565b82525050565b600060208201905062000940600083018462000918565b92915050565b608051611d2962000969600039600081816104bb015261052a0152611d296000f3fe608060405234801561001057600080fd5b50600436106101215760003560e01c806370a08231116100ad578063a457c2d711610071578063a457c2d7146102f8578063a9059cbb14610328578063d89135cd14610358578063dd62ed3e14610376578063f2fde38b146103a657610121565b806370a0823114610266578063715018a61461029657806379cc6790146102a05780638da5cb5b146102bc57806395d89b41146102da57610121565b8063313ce567116100f4578063313ce567146101c257806332cb6b0c146101e057806339509351146101fe57806340c10f191461022e57806342966c681461024a57610121565b806306fdde0314610126578063095ea7b31461014457806318160ddd1461017457806323b872dd14610192575b600080fd5b61012e6103c2565b60405161013b91906112b5565b60405180910390f35b61015e60048036038101906101599190611370565b610454565b60405161016b91906113cb565b60405180910390f35b61017c610477565b60405161018991906113f5565b60405180910390f35b6101ac60048036038101906101a79190611410565b610481565b6040516101b991906113cb565b60405180910390f35b6101ca6104b0565b6040516101d7919061147f565b60405180910390f35b6101e86104b9565b6040516101f591906113f5565b60405180910390f35b61021860048036038101906102139190611370565b6104dd565b60405161022591906113cb565b60405180910390f35b61024860048036038101906102439190611370565b610514565b005b610264600480360381019061025f919061149a565b6105ac565b005b610280600480360381019061027b91906114c7565b6105c0565b60405161028d91906113f5565b60405180910390f35b61029e610608565b005b6102ba60048036038101906102b59190611370565b61061c565b005b6102c461063c565b6040516102d19190611503565b60405180910390f35b6102e2610666565b6040516102ef91906112b5565b60405180910390f35b610312600480360381019061030d9190611370565b6106f8565b60405161031f91906113cb565b60405180910390f35b610342600480360381019061033d9190611370565b61076f565b60405161034f91906113cb565b60405180910390f35b610360610792565b60405161036d91906113f5565b60405180910390f35b610390600480360381019061038b919061151e565b610798565b60405161039d91906113f5565b60405180910390f35b6103c060048036038101906103bb91906114c7565b61081f565b005b6060600380546103d19061158d565b80601f01602080910402602001604051908101604052809291908181526020018280546103fd9061158d565b801561044a5780601f1061041f5761010080835404028352916020019161044a565b820191906000526020600020905b81548152906001019060200180831161042d57829003601f168201915b5050505050905090565b60008061045f6108a2565b905061046c8185856108aa565b600191505092915050565b6000600254905090565b60008061048c6108a2565b9050610499858285610a73565b6104a4858585610aff565b60019150509392505050565b60006012905090565b7f000000000000000000000000000000000000000000000000000000000000000081565b6000806104e86108a2565b90506105098185856104fa8589610798565b61050491906115ed565b6108aa565b600191505092915050565b61051c610d75565b6000610526610477565b90507f000000000000000000000000000000000000000000000000000000000000000061055c8383610df390919063ffffffff16565b111561059d576040517f08c379a00000000000000000000000000000000000000000000000000000000081526004016105949061166d565b60405180910390fd5b6105a78383610e09565b505050565b6105bd6105b76108a2565b82610f5f565b50565b60008060008373ffffffffffffffffffffffffffffffffffffffff1673ffffffffffffffffffffffffffffffffffffffff168152602001908152602001600020549050919050565b610610610d75565b61061a6000610f88565b565b61062e826106286108a2565b83610a73565b6106388282610f5f565b5050565b6000600560009054906101000a900473ffffffffffffffffffffffffffffffffffffffff16905090565b6060600480546106759061158d565b80601f01602080910402602001604051908101604052809291908181526020018280546106a19061158d565b80156106ee5780601f106106c3576101008083540402835291602001916106ee565b820191906000526020600020905b8154815290600101906020018083116106d157829003601f168201915b5050505050905090565b6000806107036108a2565b905060006107118286610798565b905083811015610756576040517f08c379a000000000000000000000000000000000000000000000000000000000815260040161074d906116ff565b60405180910390fd5b61076382868684036108aa565b60019250505092915050565b60008061077a6108a2565b9050610787818585610aff565b600191505092915050565b60065481565b6000600160008473ffffffffffffffffffffffffffffffffffffffff1673ffffffffffffffffffffffffffffffffffffffff16815260200190815260200160002060008373ffffffffffffffffffffffffffffffffffffffff1673ffffffffffffffffffffffffffffffffffffffff16815260200190815260200160002054905092915050565b610827610d75565b600073ffffffffffffffffffffffffffffffffffffffff168173ffffffffffffffffffffffffffffffffffffffff1603610896576040517f08c379a000000000000000000000000000000000000000000000000000000000815260040161088d90611791565b60405180910390fd5b61089f81610f88565b50565b600033905090565b600073ffffffffffffffffffffffffffffffffffffffff168373ffffffffffffffffffffffffffffffffffffffff1603610919576040517f08c379a000000000000000000000000000000000000000000000000000000000815260040161091090611823565b60405180910390fd5b600073ffffffffffffffffffffffffffffffffffffffff168273ffffffffffffffffffffffffffffffffffffffff1603610988576040517f08c379a000000000000000000000000000000000000000000000000000000000815260040161097f906118b5565b60405180910390fd5b80600160008573ffffffffffffffffffffffffffffffffffffffff1673ffffffffffffffffffffffffffffffffffffffff16815260200190815260200160002060008473ffffffffffffffffffffffffffffffffffffffff1673ffffffffffffffffffffffffffffffffffffffff168152602001908152602001600020819055508173ffffffffffffffffffffffffffffffffffffffff168373ffffffffffffffffffffffffffffffffffffffff167f8c5be1e5ebec7d5bd14f71427d1e84f3dd0314c0f7b2291e5b200ac8c7c3b92583604051610a6691906113f5565b60405180910390a3505050565b6000610a7f8484610798565b90507fffffffffffffffffffffffffffffffffffffffffffffffffffffffffffffffff8114610af95781811015610aeb576040517f08c379a0000000000000000000000000000000000000000000000000000000008152600401610ae290611921565b60405180910390fd5b610af884848484036108aa565b5b50505050565b600073ffffffffffffffffffffffffffffffffffffffff168373ffffffffffffffffffffffffffffffffffffffff1603610b6e576040517f08c379a0000000000000000000000000000000000000000000000000000000008152600401610b65906119b3565b60405180910390fd5b600073ffffffffffffffffffffffffffffffffffffffff168273ffffffffffffffffffffffffffffffffffffffff1603610bdd576040517f08c379a0000000000000000000000000000000000000000000000000000000008152600401610bd490611a45565b60405180910390fd5b610be883838361104e565b60008060008573ffffffffffffffffffffffffffffffffffffffff1673ffffffffffffffffffffffffffffffffffffffff16815260200190815260200160002054905081811015610c6e576040517f08c379a0000000000000000000000000000000000000000000000000000000008152600401610c6590611ad7565b60405180910390fd5b8181036000808673ffffffffffffffffffffffffffffffffffffffff1673ffffffffffffffffffffffffffffffffffffffff16815260200190815260200160002081905550816000808573ffffffffffffffffffffffffffffffffffffffff1673ffffffffffffffffffffffffffffffffffffffff168152602001908152602001600020600082825401925050819055508273ffffffffffffffffffffffffffffffffffffffff168473ffffffffffffffffffffffffffffffffffffffff167fddf252ad1be2c89b69c2b068fc378daa952ba7f163c4a11628f55a4df523b3ef84604051610d5c91906113f5565b60405180910390a3610d6f848484611053565b50505050565b610d7d6108a2565b73ffffffffffffffffffffffffffffffffffffffff16610d9b61063c565b73ffffffffffffffffffffffffffffffffffffffff1614610df1576040517f08c379a0000000000000000000000000000000000000000000000000000000008152600401610de890611b43565b60405180910390fd5b565b60008183610e0191906115ed565b905092915050565b600073ffffffffffffffffffffffffffffffffffffffff168273ffffffffffffffffffffffffffffffffffffffff1603610e78576040517f08c379a0000000000000000000000000000000000000000000000000000000008152600401610e6f90611baf565b60405180910390fd5b610e846000838361104e565b8060026000828254610e9691906115ed565b92505081905550806000808473ffffffffffffffffffffffffffffffffffffffff1673ffffffffffffffffffffffffffffffffffffffff168152602001908152602001600020600082825401925050819055508173ffffffffffffffffffffffffffffffffffffffff16600073ffffffffffffffffffffffffffffffffffffffff167fddf252ad1be2c89b69c2b068fc378daa952ba7f163c4a11628f55a4df523b3ef83604051610f4791906113f5565b60405180910390a3610f5b60008383611053565b5050565b610f698282611058565b610f7e81600654610df390919063ffffffff16565b6006819055505050565b6000600560009054906101000a900473ffffffffffffffffffffffffffffffffffffffff16905081600560006101000a81548173ffffffffffffffffffffffffffffffffffffffff021916908373ffffffffffffffffffffffffffffffffffffffff1602179055508173ffffffffffffffffffffffffffffffffffffffff168173ffffffffffffffffffffffffffffffffffffffff167f8be0079c531659141344cd1fd0a4f28419497f9722a3daafe3b4186f6b6457e060405160405180910390a35050565b505050565b505050565b600073ffffffffffffffffffffffffffffffffffffffff168273ffffffffffffffffffffffffffffffffffffffff16036110c7576040517f08c379a00000000000000000000000000000000000000000000000000000000081526004016110be90611c41565b60405180910390fd5b6110d38260008361104e565b60008060008473ffffffffffffffffffffffffffffffffffffffff1673ffffffffffffffffffffffffffffffffffffffff16815260200190815260200160002054905081811015611159576040517f08c379a000000000000000000000000000000000000000000000000000000000815260040161115090611cd3565b60405180910390fd5b8181036000808573ffffffffffffffffffffffffffffffffffffffff1673ffffffffffffffffffffffffffffffffffffffff1681526020019081526020016000208190555081600260008282540392505081905550600073ffffffffffffffffffffffffffffffffffffffff168373ffffffffffffffffffffffffffffffffffffffff167fddf252ad1be2c89b69c2b068fc378daa952ba7f163c4a11628f55a4df523b3ef8460405161120c91906113f5565b60405180910390a361122083600084611053565b505050565b600081519050919050565b600082825260208201905092915050565b60005b8381101561125f578082015181840152602081019050611244565b60008484015250505050565b6000601f19601f8301169050919050565b600061128782611225565b6112918185611230565b93506112a1818560208601611241565b6112aa8161126b565b840191505092915050565b600060208201905081810360008301526112cf818461127c565b905092915050565b600080fd5b600073ffffffffffffffffffffffffffffffffffffffff82169050919050565b6000611307826112dc565b9050919050565b611317816112fc565b811461132257600080fd5b50565b6000813590506113348161130e565b92915050565b6000819050919050565b61134d8161133a565b811461135857600080fd5b50565b60008135905061136a81611344565b92915050565b60008060408385031215611387576113866112d7565b5b600061139585828601611325565b92505060206113a68582860161135b565b9150509250929050565b60008115159050919050565b6113c5816113b0565b82525050565b60006020820190506113e060008301846113bc565b92915050565b6113ef8161133a565b82525050565b600060208201905061140a60008301846113e6565b92915050565b600080600060608486031215611429576114286112d7565b5b600061143786828701611325565b935050602061144886828701611325565b92505060406114598682870161135b565b9150509250925092565b600060ff82169050919050565b61147981611463565b82525050565b60006020820190506114946000830184611470565b92915050565b6000602082840312156114b0576114af6112d7565b5b60006114be8482850161135b565b91505092915050565b6000602082840312156114dd576114dc6112d7565b5b60006114eb84828501611325565b91505092915050565b6114fd816112fc565b82525050565b600060208201905061151860008301846114f4565b92915050565b60008060408385031215611535576115346112d7565b5b600061154385828601611325565b925050602061155485828601611325565b9150509250929050565b7f4e487b7100000000000000000000000000000000000000000000000000000000600052602260045260246000fd5b600060028204905060018216806115a557607f821691505b6020821081036115b8576115b761155e565b5b50919050565b7f4e487b7100000000000000000000000000000000000000000000000000000000600052601160045260246000fd5b60006115f88261133a565b91506116038361133a565b925082820190508082111561161b5761161a6115be565b5b92915050565b7f4752423a204e6f206d6f7265206d696e74696e6720616c6c6f77656421000000600082015250565b6000611657601d83611230565b915061166282611621565b602082019050919050565b600060208201905081810360008301526116868161164a565b9050919050565b7f45524332303a2064656372656173656420616c6c6f77616e63652062656c6f7760008201527f207a65726f000000000000000000000000000000000000000000000000000000602082015250565b60006116e9602583611230565b91506116f48261168d565b604082019050919050565b60006020820190508181036000830152611718816116dc565b9050919050565b7f4f776e61626c653a206e6577206f776e657220697320746865207a65726f206160008201527f6464726573730000000000000000000000000000000000000000000000000000602082015250565b600061177b602683611230565b91506117868261171f565b604082019050919050565b600060208201905081810360008301526117aa8161176e565b9050919050565b7f45524332303a20617070726f76652066726f6d20746865207a65726f2061646460008201527f7265737300000000000000000000000000000000000000000000000000000000602082015250565b600061180d602483611230565b9150611818826117b1565b604082019050919050565b6000602082019050818103600083015261183c81611800565b9050919050565b7f45524332303a20617070726f766520746f20746865207a65726f20616464726560008201527f7373000000000000000000000000000000000000000000000000000000000000602082015250565b600061189f602283611230565b91506118aa82611843565b604082019050919050565b600060208201905081810360008301526118ce81611892565b9050919050565b7f45524332303a20696e73756666696369656e7420616c6c6f77616e6365000000600082015250565b600061190b601d83611230565b9150611916826118d5565b602082019050919050565b6000602082019050818103600083015261193a816118fe565b9050919050565b7f45524332303a207472616e736665722066726f6d20746865207a65726f20616460008201527f6472657373000000000000000000000000000000000000000000000000000000602082015250565b600061199d602583611230565b91506119a882611941565b604082019050919050565b600060208201905081810360008301526119cc81611990565b9050919050565b7f45524332303a207472616e7366657220746f20746865207a65726f206164647260008201527f6573730000000000000000000000000000000000000000000000000000000000602082015250565b6000611a2f602383611230565b9150611a3a826119d3565b604082019050919050565b60006020820190508181036000830152611a5e81611a22565b9050919050565b7f45524332303a207472616e7366657220616d6f756e742065786365656473206260008201527f616c616e63650000000000000000000000000000000000000000000000000000602082015250565b6000611ac1602683611230565b9150611acc82611a65565b604082019050919050565b60006020820190508181036000830152611af081611ab4565b9050919050565b7f4f776e61626c653a2063616c6c6572206973206e6f7420746865206f776e6572600082015250565b6000611b2d602083611230565b9150611b3882611af7565b602082019050919050565b60006020820190508181036000830152611b5c81611b20565b9050919050565b7f45524332303a206d696e7420746f20746865207a65726f206164647265737300600082015250565b6000611b99601f83611230565b9150611ba482611b63565b602082019050919050565b60006020820190508181036000830152611bc881611b8c565b9050919050565b7f45524332303a206275726e2066726f6d20746865207a65726f2061646472657360008201527f7300000000000000000000000000000000000000000000000000000000000000602082015250565b6000611c2b602183611230565b9150611c3682611bcf565b604082019050919050565b60006020820190508181036000830152611c5a81611c1e565b9050919050565b7f45524332303a206275726e20616d6f756e7420657863656564732062616c616e60008201527f6365000000000000000000000000000000000000000000000000000000000000602082015250565b6000611cbd602283611230565b9150611cc882611c61565b604082019050919050565b60006020820190508181036000830152611cec81611cb0565b905091905056fea2646970667358221220c61e980b42a23f6f5bc89a51198f26ea0fa084a10e6d387c03c55a367ef9b35964736f6c63430008110033",
  "immutableReferences": {
    "1197": [
      {
        "length": 32,
        "start": 1211
      },
      {
        "length": 32,
        "start": 1322
      }
    ]
  },
  "source": "// SPDX-License-Identifier: MIT\npragma solidity >=0.6.12;\n\nimport \"@openzeppelin/contracts/utils/math/SafeMath.sol\";\nimport \"@openzeppelin/contracts/token/ERC20/IERC20.sol\";\nimport \"@openzeppelin/contracts/token/ERC20/ERC20.sol\";\nimport \"@openzeppelin/contracts/token/ERC20/extensions/ERC20Burnable.sol\";\nimport \"@openzeppelin/contracts/utils/Context.sol\";\nimport \"@openzeppelin/contracts/access/Ownable.sol\";\n\ncontract GRB is ERC20Burnable, Ownable {\n    using SafeMath for uint256;\n\n    uint256 public immutable MAX_SUPPLY;\n\n    uint256 public totalBurned = 0;\n\n    constructor(\n        uint256 _maxSupply,\n        uint256 _initialSupply\n    ) ERC20(\"GarbiProtocol\", \"GRB\"){\n        require(_initialSupply <= _maxSupply, \"GRB: The _initialSupply should not exceed the _maxSupply\");\n        MAX_SUPPLY = _maxSupply;\n\n        if (_initialSupply > 0) {\n           _mint(_msgSender(), _initialSupply);\n        }\n    }\n    /************************************************************************/\n\n    function _burn(address account, uint256 amount) internal override {\n        super._burn(account, amount);\n        totalBurned = totalBurned.add(amount);\n    }\n    /************************************************************************/\n\n    function mint(address _user, uint256 _amount) external onlyOwner {\n        uint256 _totalSupply = totalSupply();\n        require(_totalSupply.add(_amount) <= MAX_SUPPLY, \"GRB: No more minting allowed!\");\n\n        _mint(_user, _amount);\n    }\n\n}",
  "sourcePath": "C:\\Users\\David\\Documents\\NetBeansProjects\\garbiprotocol.github.io\\garbi_contracts\\contracts\\GRB.sol",
  "compiler": {
    "name": "solc",
    "version": "0.8.17+commit.8df45f5f.Emscripten.clang"
  },
  "schemaVersion": "3.4.11",
  "updatedAt": "2022-12-30T08:44:29.035Z",
  "devdoc": {
    "kind": "dev",
    "methods": {
      "allowance(address,address)": {
        "details": "See {IERC20-allowance}."
      },
      "approve(address,uint256)": {
        "details": "See {IERC20-approve}. NOTE: If `amount` is the maximum `uint256`, the allowance is not updated on `transferFrom`. This is semantically equivalent to an infinite approval. Requirements: - `spender` cannot be the zero address."
      },
      "balanceOf(address)": {
        "details": "See {IERC20-balanceOf}."
      },
      "burn(uint256)": {
        "details": "Destroys `amount` tokens from the caller. See {ERC20-_burn}."
      },
      "burnFrom(address,uint256)": {
        "details": "Destroys `amount` tokens from `account`, deducting from the caller's allowance. See {ERC20-_burn} and {ERC20-allowance}. Requirements: - the caller must have allowance for ``accounts``'s tokens of at least `amount`."
      },
      "decimals()": {
        "details": "Returns the number of decimals used to get its user representation. For example, if `decimals` equals `2`, a balance of `505` tokens should be displayed to a user as `5.05` (`505 / 10 ** 2`). Tokens usually opt for a value of 18, imitating the relationship between Ether and Wei. This is the value {ERC20} uses, unless this function is overridden; NOTE: This information is only used for _display_ purposes: it in no way affects any of the arithmetic of the contract, including {IERC20-balanceOf} and {IERC20-transfer}."
      },
      "decreaseAllowance(address,uint256)": {
        "details": "Atomically decreases the allowance granted to `spender` by the caller. This is an alternative to {approve} that can be used as a mitigation for problems described in {IERC20-approve}. Emits an {Approval} event indicating the updated allowance. Requirements: - `spender` cannot be the zero address. - `spender` must have allowance for the caller of at least `subtractedValue`."
      },
      "increaseAllowance(address,uint256)": {
        "details": "Atomically increases the allowance granted to `spender` by the caller. This is an alternative to {approve} that can be used as a mitigation for problems described in {IERC20-approve}. Emits an {Approval} event indicating the updated allowance. Requirements: - `spender` cannot be the zero address."
      },
      "name()": {
        "details": "Returns the name of the token."
      },
      "owner()": {
        "details": "Returns the address of the current owner."
      },
      "renounceOwnership()": {
        "details": "Leaves the contract without owner. It will not be possible to call `onlyOwner` functions anymore. Can only be called by the current owner. NOTE: Renouncing ownership will leave the contract without an owner, thereby removing any functionality that is only available to the owner."
      },
      "symbol()": {
        "details": "Returns the symbol of the token, usually a shorter version of the name."
      },
      "totalSupply()": {
        "details": "See {IERC20-totalSupply}."
      },
      "transfer(address,uint256)": {
        "details": "See {IERC20-transfer}. Requirements: - `to` cannot be the zero address. - the caller must have a balance of at least `amount`."
      },
      "transferFrom(address,address,uint256)": {
        "details": "See {IERC20-transferFrom}. Emits an {Approval} event indicating the updated allowance. This is not required by the EIP. See the note at the beginning of {ERC20}. NOTE: Does not update the allowance if the current allowance is the maximum `uint256`. Requirements: - `from` and `to` cannot be the zero address. - `from` must have a balance of at least `amount`. - the caller must have allowance for ``from``'s tokens of at least `amount`."
      },
      "transferOwnership(address)": {
        "details": "Transfers ownership of the contract to a new account (`newOwner`). Can only be called by the current owner."
      }
    },
    "version": 1
  },
  "userdoc": {
    "kind": "user",
    "methods": {},
    "version": 1
  }
}