{
  "contractName": "GRBMachine",
  "abi": [
    {
      "inputs": [
        {
          "internalType": "contract IGRB",
          "name": "_grbToken",
          "type": "address"
        }
      ],
      "stateMutability": "nonpayable",
      "type": "constructor"
    },
    {
      "anonymous": false,
      "inputs": [
        {
          "indexed": false,
          "internalType": "address",
          "name": "_user",
          "type": "address"
        },
        {
          "indexed": false,
          "internalType": "uint256",
          "name": "_amount",
          "type": "uint256"
        }
      ],
      "name": "onCancelQueuedMint",
      "type": "event"
    },
    {
      "anonymous": false,
      "inputs": [
        {
          "indexed": false,
          "internalType": "address",
          "name": "_user",
          "type": "address"
        },
        {
          "indexed": false,
          "internalType": "uint256",
          "name": "_amount",
          "type": "uint256"
        }
      ],
      "name": "onQueuedMint",
      "type": "event"
    },
    {
      "inputs": [],
      "name": "DELAY",
      "outputs": [
        {
          "internalType": "uint256",
          "name": "",
          "type": "uint256"
        }
      ],
      "stateMutability": "view",
      "type": "function",
      "constant": true
    },
    {
      "inputs": [],
      "name": "GRACE_PERIOD",
      "outputs": [
        {
          "internalType": "uint256",
          "name": "",
          "type": "uint256"
        }
      ],
      "stateMutability": "view",
      "type": "function",
      "constant": true
    },
    {
      "inputs": [],
      "name": "GRB",
      "outputs": [
        {
          "internalType": "contract IGRB",
          "name": "",
          "type": "address"
        }
      ],
      "stateMutability": "view",
      "type": "function",
      "constant": true
    },
    {
      "inputs": [],
      "name": "amountMint",
      "outputs": [
        {
          "internalType": "uint256",
          "name": "",
          "type": "uint256"
        }
      ],
      "stateMutability": "view",
      "type": "function",
      "constant": true
    },
    {
      "inputs": [],
      "name": "owner",
      "outputs": [
        {
          "internalType": "address",
          "name": "",
          "type": "address"
        }
      ],
      "stateMutability": "view",
      "type": "function",
      "constant": true
    },
    {
      "inputs": [],
      "name": "queued",
      "outputs": [
        {
          "internalType": "bool",
          "name": "",
          "type": "bool"
        }
      ],
      "stateMutability": "view",
      "type": "function",
      "constant": true
    },
    {
      "inputs": [],
      "name": "timeOfExecute",
      "outputs": [
        {
          "internalType": "uint256",
          "name": "",
          "type": "uint256"
        }
      ],
      "stateMutability": "view",
      "type": "function",
      "constant": true
    },
    {
      "inputs": [],
      "name": "userMint",
      "outputs": [
        {
          "internalType": "address",
          "name": "",
          "type": "address"
        }
      ],
      "stateMutability": "view",
      "type": "function",
      "constant": true
    },
    {
      "inputs": [],
      "name": "cancelMint",
      "outputs": [],
      "stateMutability": "nonpayable",
      "type": "function"
    },
    {
      "inputs": [
        {
          "internalType": "address",
          "name": "_user",
          "type": "address"
        },
        {
          "internalType": "uint256",
          "name": "_amount",
          "type": "uint256"
        }
      ],
      "name": "queuedMint",
      "outputs": [],
      "stateMutability": "nonpayable",
      "type": "function"
    },
    {
      "inputs": [],
      "name": "delayMint",
      "outputs": [],
      "stateMutability": "nonpayable",
      "type": "function"
    }
  ],
  "bytecode": "0x60806040526000600160146101000a81548160ff02191690831515021790555034801561002b57600080fd5b50604051610e6f380380610e6f833981810160405281019061004d9190610149565b80600160006101000a81548173ffffffffffffffffffffffffffffffffffffffff021916908373ffffffffffffffffffffffffffffffffffffffff160217905550336000806101000a81548173ffffffffffffffffffffffffffffffffffffffff021916908373ffffffffffffffffffffffffffffffffffffffff16021790555050610176565b600080fd5b600073ffffffffffffffffffffffffffffffffffffffff82169050919050565b6000610104826100d9565b9050919050565b6000610116826100f9565b9050919050565b6101268161010b565b811461013157600080fd5b50565b6000815190506101438161011d565b92915050565b60006020828403121561015f5761015e6100d4565b5b600061016d84828501610134565b91505092915050565b610cea806101856000396000f3fe608060405234801561001057600080fd5b50600436106100a95760003560e01c80638da5cb5b116100715780638da5cb5b146101305780638e0d44461461014e578063b0176ce81461016a578063c1a287e214610188578063da4f564b146101a6578063df8f460f146101b0576100a9565b80630c7252aa146100ae57806310fd3e45146100b857806316049ddf146100d6578063266d19b3146100f457806369b4117014610112575b600080fd5b6100b66101ce565b005b6100c061032c565b6040516100cd9190610811565b60405180910390f35b6100de610332565b6040516100eb9190610847565b60405180910390f35b6100fc610345565b6040516101099190610811565b60405180910390f35b61011a61034b565b6040516101279190610811565b60405180910390f35b610138610351565b60405161014591906108a3565b60405180910390f35b6101686004803603810190610163919061091b565b610375565b005b610172610513565b60405161017f91906109ba565b60405180910390f35b610190610539565b60405161019d9190610811565b60405180910390f35b6101ae61053f565b005b6101b86107bc565b6040516101c591906108a3565b60405180910390f35b60008054906101000a900473ffffffffffffffffffffffffffffffffffffffff1673ffffffffffffffffffffffffffffffffffffffff163373ffffffffffffffffffffffffffffffffffffffff161461025c576040517f08c379a000000000000000000000000000000000000000000000000000000000815260040161025390610a32565b60405180910390fd5b60011515600160149054906101000a900460ff161515146102b2576040517f08c379a00000000000000000000000000000000000000000000000000000000081526004016102a990610a9e565b60405180910390fd5b6000600160146101000a81548160ff0219169083151502179055507f599032251da1ee1dc644df9cac215f4a7c708acf763c29d9de40ac0d7b2f49b0600360009054906101000a900473ffffffffffffffffffffffffffffffffffffffff16600454604051610322929190610abe565b60405180910390a1565b60045481565b600160149054906101000a900460ff1681565b60025481565b61012c81565b60008054906101000a900473ffffffffffffffffffffffffffffffffffffffff1681565b60008054906101000a900473ffffffffffffffffffffffffffffffffffffffff1673ffffffffffffffffffffffffffffffffffffffff163373ffffffffffffffffffffffffffffffffffffffff1614610403576040517f08c379a00000000000000000000000000000000000000000000000000000000081526004016103fa90610a32565b60405180910390fd5b60001515600160149054906101000a900460ff16151514610459576040517f08c379a000000000000000000000000000000000000000000000000000000000815260040161045090610a9e565b60405180910390fd5b60018060146101000a81548160ff02191690831515021790555061048861012c426107e290919063ffffffff16565b60028190555081600360006101000a81548173ffffffffffffffffffffffffffffffffffffffff021916908373ffffffffffffffffffffffffffffffffffffffff160217905550806004819055507fc601dfdd1f97a13106b8a34b2cff60d11cea900ab733ff7a9de29485cc82d7348282604051610507929190610abe565b60405180910390a15050565b600160009054906101000a900473ffffffffffffffffffffffffffffffffffffffff1681565b61016881565b60008054906101000a900473ffffffffffffffffffffffffffffffffffffffff1673ffffffffffffffffffffffffffffffffffffffff163373ffffffffffffffffffffffffffffffffffffffff16146105cd576040517f08c379a00000000000000000000000000000000000000000000000000000000081526004016105c490610a32565b60405180910390fd5b60011515600160149054906101000a900460ff16151514610623576040517f08c379a000000000000000000000000000000000000000000000000000000000815260040161061a90610b33565b60405180910390fd5b426002541115610668576040517f08c379a000000000000000000000000000000000000000000000000000000000815260040161065f90610bc5565b60405180910390fd5b426106806101686002546107e290919063ffffffff16565b10156106c1576040517f08c379a00000000000000000000000000000000000000000000000000000000081526004016106b890610c31565b60405180910390fd5b600160009054906101000a900473ffffffffffffffffffffffffffffffffffffffff1673ffffffffffffffffffffffffffffffffffffffff166340c10f19600360009054906101000a900473ffffffffffffffffffffffffffffffffffffffff166004546040518363ffffffff1660e01b8152600401610742929190610abe565b600060405180830381600087803b15801561075c57600080fd5b505af1158015610770573d6000803e3d6000fd5b505050506000600160146101000a81548160ff021916908315150217905550600360006101000a81549073ffffffffffffffffffffffffffffffffffffffff0219169055600460009055565b600360009054906101000a900473ffffffffffffffffffffffffffffffffffffffff1681565b600081836107f09190610c80565b905092915050565b6000819050919050565b61080b816107f8565b82525050565b60006020820190506108266000830184610802565b92915050565b60008115159050919050565b6108418161082c565b82525050565b600060208201905061085c6000830184610838565b92915050565b600073ffffffffffffffffffffffffffffffffffffffff82169050919050565b600061088d82610862565b9050919050565b61089d81610882565b82525050565b60006020820190506108b86000830184610894565b92915050565b600080fd5b6108cc81610882565b81146108d757600080fd5b50565b6000813590506108e9816108c3565b92915050565b6108f8816107f8565b811461090357600080fd5b50565b600081359050610915816108ef565b92915050565b60008060408385031215610932576109316108be565b5b6000610940858286016108da565b925050602061095185828601610906565b9150509250929050565b6000819050919050565b600061098061097b61097684610862565b61095b565b610862565b9050919050565b600061099282610965565b9050919050565b60006109a482610987565b9050919050565b6109b481610999565b82525050565b60006020820190506109cf60008301846109ab565b92915050565b600082825260208201905092915050565b7f494e56414c49445f5045524d495353494f4e0000000000000000000000000000600082015250565b6000610a1c6012836109d5565b9150610a27826109e6565b602082019050919050565b60006020820190508181036000830152610a4b81610a0f565b9050919050565b7f494e56414c49445f515545554544000000000000000000000000000000000000600082015250565b6000610a88600e836109d5565b9150610a9382610a52565b602082019050919050565b60006020820190508181036000830152610ab781610a7b565b9050919050565b6000604082019050610ad36000830185610894565b610ae06020830184610802565b9392505050565b7f5472616e73616374696f6e206861736e2774206265656e207175657565642e00600082015250565b6000610b1d601f836109d5565b9150610b2882610ae7565b602082019050919050565b60006020820190508181036000830152610b4c81610b10565b9050919050565b7f5472616e73616374696f6e206861736e2774207375727061737365642074696d60008201527f65206c6f636b2e00000000000000000000000000000000000000000000000000602082015250565b6000610baf6027836109d5565b9150610bba82610b53565b604082019050919050565b60006020820190508181036000830152610bde81610ba2565b9050919050565b7f5472616e73616374696f6e206973207374616c652e0000000000000000000000600082015250565b6000610c1b6015836109d5565b9150610c2682610be5565b602082019050919050565b60006020820190508181036000830152610c4a81610c0e565b9050919050565b7f4e487b7100000000000000000000000000000000000000000000000000000000600052601160045260246000fd5b6000610c8b826107f8565b9150610c96836107f8565b9250828201905080821115610cae57610cad610c51565b5b9291505056fea2646970667358221220744189727d3ae6de9d6236179fb1f6da6ddb6580e3d352a4244ebc2325f7983b64736f6c63430008110033",
  "immutableReferences": {},
  "source": "// SPDX-License-Identifier: MIT\npragma solidity >=0.6.12;\n\nimport \"@openzeppelin/contracts/utils/math/SafeMath.sol\";\n\ninterface IGRB {\n\tfunction mint(address _user, uint256 _amount) external;\n}\n\ncontract GRBMachine {\n\tusing SafeMath for uint256;\n\taddress public owner;\n\tIGRB public GRB;\n\t// uint public constant GRACE_PERIOD = 30 days;\n\tuint public constant GRACE_PERIOD = 6 * 60;\n\t// uint public constant DELAY = 14 days;\n\tuint public constant DELAY = 5 * 60;\n\tbool public queued = false;\n\tuint public timeOfExecute;\n\taddress public userMint;\n    uint256 public amountMint;\n\n\tmodifier onlyOwner()\n    {\n        require(msg.sender == owner, \"INVALID_PERMISSION\");\n        _;\n    }\n\n    event onQueuedMint(address _user, uint256 _amount);\n    event onCancelQueuedMint(address _user, uint256 _amount);\n\n\tconstructor(IGRB _grbToken) {\n\t\tGRB = _grbToken;\n        owner = msg.sender;\n    }\n    /**\n     *  OWNER ACTION\n     */\n    function cancelMint() public onlyOwner\n    {\n    \trequire(queued == true, \"INVALID_QUEUED\");\n    \tqueued = false;\n    \temit onCancelQueuedMint(userMint, amountMint);\n    }\n    function queuedMint(address _user, uint256 _amount) public onlyOwner \n    {\n    \trequire(queued == false, \"INVALID_QUEUED\");\n        queued = true;\n        timeOfExecute = block.timestamp.add(DELAY);\n        userMint = _user;\n        amountMint = _amount;\n        emit onQueuedMint(_user, _amount);\n    }\n    function delayMint() public onlyOwner\n    {\n    \t// verify timelock\n    \trequire(queued == true, \"Transaction hasn't been queued.\");\n        require(timeOfExecute <= block.timestamp, \"Transaction hasn't surpassed time lock.\");\n        require(timeOfExecute.add(GRACE_PERIOD) >= block.timestamp, \"Transaction is stale.\");\n        // mint\n        GRB.mint(userMint, amountMint);\n        // cancel timelock\n        queued = false;\n        delete userMint;\n        delete amountMint;\n    }\n}",
  "sourcePath": "/home/falcon/codes/products/garbiprotocol.github.io/garbi_contracts/contracts/GRBMachine.sol",
  "compiler": {
    "name": "solc",
    "version": "0.8.17+commit.8df45f5f.Emscripten.clang"
  },
  "schemaVersion": "3.4.10",
  "updatedAt": "2023-01-03T13:07:56.267Z",
  "networkType": "ethereum",
  "devdoc": {
    "kind": "dev",
    "methods": {},
    "version": 1
  },
  "userdoc": {
    "kind": "user",
    "methods": {
      "cancelMint()": {
        "notice": "OWNER ACTION"
      }
    },
    "version": 1
  }
}