{
  "contractName": "GRBProxy",
  "abi": [
    {
      "inputs": [
        {
          "internalType": "contract IGRB",
          "name": "_grbToken",
          "type": "address"
        }
      ],
      "stateMutability": "nonpayable",
      "type": "constructor"
    },
    {
      "anonymous": false,
      "inputs": [
        {
          "indexed": true,
          "internalType": "address",
          "name": "previousOwner",
          "type": "address"
        },
        {
          "indexed": true,
          "internalType": "address",
          "name": "newOwner",
          "type": "address"
        }
      ],
      "name": "OwnershipTransferred",
      "type": "event"
    },
    {
      "anonymous": false,
      "inputs": [
        {
          "indexed": false,
          "internalType": "address",
          "name": "_user",
          "type": "address"
        },
        {
          "indexed": false,
          "internalType": "uint256",
          "name": "_amount",
          "type": "uint256"
        }
      ],
      "name": "onCancelQueuedMint",
      "type": "event"
    },
    {
      "anonymous": false,
      "inputs": [
        {
          "indexed": false,
          "internalType": "address",
          "name": "_user",
          "type": "address"
        },
        {
          "indexed": false,
          "internalType": "uint256",
          "name": "_amount",
          "type": "uint256"
        }
      ],
      "name": "onQueuedMint",
      "type": "event"
    },
    {
      "inputs": [],
      "name": "DELAY",
      "outputs": [
        {
          "internalType": "uint256",
          "name": "",
          "type": "uint256"
        }
      ],
      "stateMutability": "view",
      "type": "function",
      "constant": true
    },
    {
      "inputs": [],
      "name": "GRB",
      "outputs": [
        {
          "internalType": "contract IGRB",
          "name": "",
          "type": "address"
        }
      ],
      "stateMutability": "view",
      "type": "function",
      "constant": true
    },
    {
      "inputs": [],
      "name": "amountMint",
      "outputs": [
        {
          "internalType": "uint256",
          "name": "",
          "type": "uint256"
        }
      ],
      "stateMutability": "view",
      "type": "function",
      "constant": true
    },
    {
      "inputs": [],
      "name": "owner",
      "outputs": [
        {
          "internalType": "address",
          "name": "",
          "type": "address"
        }
      ],
      "stateMutability": "view",
      "type": "function",
      "constant": true
    },
    {
      "inputs": [],
      "name": "queued",
      "outputs": [
        {
          "internalType": "bool",
          "name": "",
          "type": "bool"
        }
      ],
      "stateMutability": "view",
      "type": "function",
      "constant": true
    },
    {
      "inputs": [],
      "name": "renounceOwnership",
      "outputs": [],
      "stateMutability": "nonpayable",
      "type": "function"
    },
    {
      "inputs": [],
      "name": "timeOfExecute",
      "outputs": [
        {
          "internalType": "uint256",
          "name": "",
          "type": "uint256"
        }
      ],
      "stateMutability": "view",
      "type": "function",
      "constant": true
    },
    {
      "inputs": [
        {
          "internalType": "address",
          "name": "newOwner",
          "type": "address"
        }
      ],
      "name": "transferOwnership",
      "outputs": [],
      "stateMutability": "nonpayable",
      "type": "function"
    },
    {
      "inputs": [],
      "name": "userMint",
      "outputs": [
        {
          "internalType": "address",
          "name": "",
          "type": "address"
        }
      ],
      "stateMutability": "view",
      "type": "function",
      "constant": true
    },
    {
      "inputs": [],
      "name": "cancelMint",
      "outputs": [],
      "stateMutability": "nonpayable",
      "type": "function"
    },
    {
      "inputs": [
        {
          "internalType": "address",
          "name": "_user",
          "type": "address"
        },
        {
          "internalType": "uint256",
          "name": "_amount",
          "type": "uint256"
        }
      ],
      "name": "queuedMint",
      "outputs": [],
      "stateMutability": "nonpayable",
      "type": "function"
    },
    {
      "inputs": [],
      "name": "delayMint",
      "outputs": [],
      "stateMutability": "nonpayable",
      "type": "function"
    }
  ],
  "bytecode": "0x60806040526000600160146101000a81548160ff0219169083151502179055503480156200002c57600080fd5b5060405162000f8938038062000f89833981810160405281019062000052919062000204565b6200007262000066620000ba60201b60201c565b620000c260201b60201c565b80600160006101000a81548173ffffffffffffffffffffffffffffffffffffffff021916908373ffffffffffffffffffffffffffffffffffffffff1602179055505062000236565b600033905090565b60008060009054906101000a900473ffffffffffffffffffffffffffffffffffffffff169050816000806101000a81548173ffffffffffffffffffffffffffffffffffffffff021916908373ffffffffffffffffffffffffffffffffffffffff1602179055508173ffffffffffffffffffffffffffffffffffffffff168173ffffffffffffffffffffffffffffffffffffffff167f8be0079c531659141344cd1fd0a4f28419497f9722a3daafe3b4186f6b6457e060405160405180910390a35050565b600080fd5b600073ffffffffffffffffffffffffffffffffffffffff82169050919050565b6000620001b8826200018b565b9050919050565b6000620001cc82620001ab565b9050919050565b620001de81620001bf565b8114620001ea57600080fd5b50565b600081519050620001fe81620001d3565b92915050565b6000602082840312156200021d576200021c62000186565b5b60006200022d84828501620001ed565b91505092915050565b610d4380620002466000396000f3fe608060405234801561001057600080fd5b50600436106100b45760003560e01c80638da5cb5b116100715780638da5cb5b146101455780638e0d444614610163578063b0176ce81461017f578063da4f564b1461019d578063df8f460f146101a7578063f2fde38b146101c5576100b4565b80630c7252aa146100b957806310fd3e45146100c357806316049ddf146100e1578063266d19b3146100ff57806369b411701461011d578063715018a61461013b575b600080fd5b6100c16101e1565b005b6100cb6102b9565b6040516100d89190610817565b60405180910390f35b6100e96102bf565b6040516100f6919061084d565b60405180910390f35b6101076102d2565b6040516101149190610817565b60405180910390f35b6101256102d8565b6040516101329190610817565b60405180910390f35b6101436102dd565b005b61014d6102f1565b60405161015a91906108a9565b60405180910390f35b61017d60048036038101906101789190610921565b61031a565b005b610187610431565b60405161019491906109c0565b60405180910390f35b6101a5610457565b005b6101af6105f5565b6040516101bc91906108a9565b60405180910390f35b6101df60048036038101906101da91906109db565b61061b565b005b6101e961069e565b60011515600160149054906101000a900460ff1615151461023f576040517f08c379a000000000000000000000000000000000000000000000000000000000815260040161023690610a65565b60405180910390fd5b6000600160146101000a81548160ff0219169083151502179055507f599032251da1ee1dc644df9cac215f4a7c708acf763c29d9de40ac0d7b2f49b0600360009054906101000a900473ffffffffffffffffffffffffffffffffffffffff166004546040516102af929190610a85565b60405180910390a1565b60045481565b600160149054906101000a900460ff1681565b60025481565b603c81565b6102e561069e565b6102ef600061071c565b565b60008060009054906101000a900473ffffffffffffffffffffffffffffffffffffffff16905090565b61032261069e565b60001515600160149054906101000a900460ff16151514610378576040517f08c379a000000000000000000000000000000000000000000000000000000000815260040161036f90610a65565b60405180910390fd5b60018060146101000a81548160ff0219169083151502179055506103a6603c426107e090919063ffffffff16565b60028190555081600360006101000a81548173ffffffffffffffffffffffffffffffffffffffff021916908373ffffffffffffffffffffffffffffffffffffffff160217905550806004819055507fc601dfdd1f97a13106b8a34b2cff60d11cea900ab733ff7a9de29485cc82d7348282604051610425929190610a85565b60405180910390a15050565b600160009054906101000a900473ffffffffffffffffffffffffffffffffffffffff1681565b61045f61069e565b60011515600160149054906101000a900460ff161515146104b5576040517f08c379a00000000000000000000000000000000000000000000000000000000081526004016104ac90610afa565b60405180910390fd5b4260025411156104fa576040517f08c379a00000000000000000000000000000000000000000000000000000000081526004016104f190610b8c565b60405180910390fd5b600160009054906101000a900473ffffffffffffffffffffffffffffffffffffffff1673ffffffffffffffffffffffffffffffffffffffff166340c10f19600360009054906101000a900473ffffffffffffffffffffffffffffffffffffffff166004546040518363ffffffff1660e01b815260040161057b929190610a85565b600060405180830381600087803b15801561059557600080fd5b505af11580156105a9573d6000803e3d6000fd5b505050506000600160146101000a81548160ff021916908315150217905550600360006101000a81549073ffffffffffffffffffffffffffffffffffffffff0219169055600460009055565b600360009054906101000a900473ffffffffffffffffffffffffffffffffffffffff1681565b61062361069e565b600073ffffffffffffffffffffffffffffffffffffffff168173ffffffffffffffffffffffffffffffffffffffff1603610692576040517f08c379a000000000000000000000000000000000000000000000000000000000815260040161068990610c1e565b60405180910390fd5b61069b8161071c565b50565b6106a66107f6565b73ffffffffffffffffffffffffffffffffffffffff166106c46102f1565b73ffffffffffffffffffffffffffffffffffffffff161461071a576040517f08c379a000000000000000000000000000000000000000000000000000000000815260040161071190610c8a565b60405180910390fd5b565b60008060009054906101000a900473ffffffffffffffffffffffffffffffffffffffff169050816000806101000a81548173ffffffffffffffffffffffffffffffffffffffff021916908373ffffffffffffffffffffffffffffffffffffffff1602179055508173ffffffffffffffffffffffffffffffffffffffff168173ffffffffffffffffffffffffffffffffffffffff167f8be0079c531659141344cd1fd0a4f28419497f9722a3daafe3b4186f6b6457e060405160405180910390a35050565b600081836107ee9190610cd9565b905092915050565b600033905090565b6000819050919050565b610811816107fe565b82525050565b600060208201905061082c6000830184610808565b92915050565b60008115159050919050565b61084781610832565b82525050565b6000602082019050610862600083018461083e565b92915050565b600073ffffffffffffffffffffffffffffffffffffffff82169050919050565b600061089382610868565b9050919050565b6108a381610888565b82525050565b60006020820190506108be600083018461089a565b92915050565b600080fd5b6108d281610888565b81146108dd57600080fd5b50565b6000813590506108ef816108c9565b92915050565b6108fe816107fe565b811461090957600080fd5b50565b60008135905061091b816108f5565b92915050565b60008060408385031215610938576109376108c4565b5b6000610946858286016108e0565b92505060206109578582860161090c565b9150509250929050565b6000819050919050565b600061098661098161097c84610868565b610961565b610868565b9050919050565b60006109988261096b565b9050919050565b60006109aa8261098d565b9050919050565b6109ba8161099f565b82525050565b60006020820190506109d560008301846109b1565b92915050565b6000602082840312156109f1576109f06108c4565b5b60006109ff848285016108e0565b91505092915050565b600082825260208201905092915050565b7f494e56414c49445f515545554544000000000000000000000000000000000000600082015250565b6000610a4f600e83610a08565b9150610a5a82610a19565b602082019050919050565b60006020820190508181036000830152610a7e81610a42565b9050919050565b6000604082019050610a9a600083018561089a565b610aa76020830184610808565b9392505050565b7f5472616e73616374696f6e206861736e2774206265656e207175657565642e00600082015250565b6000610ae4601f83610a08565b9150610aef82610aae565b602082019050919050565b60006020820190508181036000830152610b1381610ad7565b9050919050565b7f5472616e73616374696f6e206861736e2774207375727061737365642074696d60008201527f65206c6f636b2e00000000000000000000000000000000000000000000000000602082015250565b6000610b76602783610a08565b9150610b8182610b1a565b604082019050919050565b60006020820190508181036000830152610ba581610b69565b9050919050565b7f4f776e61626c653a206e6577206f776e657220697320746865207a65726f206160008201527f6464726573730000000000000000000000000000000000000000000000000000602082015250565b6000610c08602683610a08565b9150610c1382610bac565b604082019050919050565b60006020820190508181036000830152610c3781610bfb565b9050919050565b7f4f776e61626c653a2063616c6c6572206973206e6f7420746865206f776e6572600082015250565b6000610c74602083610a08565b9150610c7f82610c3e565b602082019050919050565b60006020820190508181036000830152610ca381610c67565b9050919050565b7f4e487b7100000000000000000000000000000000000000000000000000000000600052601160045260246000fd5b6000610ce4826107fe565b9150610cef836107fe565b9250828201905080821115610d0757610d06610caa565b5b9291505056fea26469706673582212209bc6ab041e82f13af9bf28b7a7bdfe10edec7fb47b6007316cb5a3ff6424dec264736f6c63430008110033",
  "immutableReferences": {},
  "source": "// SPDX-License-Identifier: MIT\npragma solidity >=0.6.12;\n\nimport \"@openzeppelin/contracts/utils/math/SafeMath.sol\";\nimport \"@openzeppelin/contracts/access/Ownable.sol\";\n\ninterface IGRB {\n\tfunction mint(address _user, uint256 _amount) external;\n}\n\ncontract GRBProxy is Ownable {\n\tusing SafeMath for uint256;\n\tIGRB public GRB;\n\t// uint public constant DELAY = 14 days;\n    uint public constant DELAY = 1 * 60;\n\tbool public queued = false;\n\tuint public timeOfExecute;\n\taddress public userMint;\n    uint256 public amountMint;\n\n    event onQueuedMint(address _user, uint256 _amount);\n    event onCancelQueuedMint(address _user, uint256 _amount);\n\n\tconstructor(IGRB _grbToken) {\n\t\tGRB = _grbToken;\n    }\n    /**\n     *  OWNER ACTION\n     */\n    function cancelMint() public onlyOwner\n    {\n    \trequire(queued == true, \"INVALID_QUEUED\");\n    \tqueued = false;\n    \temit onCancelQueuedMint(userMint, amountMint);\n    }\n    function queuedMint(address _user, uint256 _amount) public onlyOwner \n    {\n    \trequire(queued == false, \"INVALID_QUEUED\");\n        queued = true;\n        timeOfExecute = block.timestamp.add(DELAY);\n        userMint = _user;\n        amountMint = _amount;\n        emit onQueuedMint(_user, _amount);\n    }\n    function delayMint() public onlyOwner\n    {\n    \t// verify timelock\n    \trequire(queued == true, \"Transaction hasn't been queued.\");\n        require(timeOfExecute <= block.timestamp, \"Transaction hasn't surpassed time lock.\");\n        // mint\n        GRB.mint(userMint, amountMint);\n        // cancel timelock\n        queued = false;\n        delete userMint;\n        delete amountMint;\n    }\n}",
  "sourcePath": "/home/falcon/codes/products/garbiprotocol.github.io/garbi_contracts/contracts/GRBProxy.sol",
  "compiler": {
    "name": "solc",
    "version": "0.8.17+commit.8df45f5f.Emscripten.clang"
  },
  "schemaVersion": "3.4.10",
  "updatedAt": "2023-01-03T13:54:21.822Z",
  "networkType": "ethereum",
  "devdoc": {
    "kind": "dev",
    "methods": {
      "owner()": {
        "details": "Returns the address of the current owner."
      },
      "renounceOwnership()": {
        "details": "Leaves the contract without owner. It will not be possible to call `onlyOwner` functions anymore. Can only be called by the current owner. NOTE: Renouncing ownership will leave the contract without an owner, thereby removing any functionality that is only available to the owner."
      },
      "transferOwnership(address)": {
        "details": "Transfers ownership of the contract to a new account (`newOwner`). Can only be called by the current owner."
      }
    },
    "version": 1
  },
  "userdoc": {
    "kind": "user",
    "methods": {
      "cancelMint()": {
        "notice": "OWNER ACTION"
      }
    },
    "version": 1
  }
}