{
  "contractName": "GRBProxy",
  "abi": [
    {
      "inputs": [
        {
          "internalType": "contract IGRB",
          "name": "_grbToken",
          "type": "address"
        }
      ],
      "stateMutability": "nonpayable",
      "type": "constructor"
    },
    {
      "anonymous": false,
      "inputs": [
        {
          "indexed": true,
          "internalType": "address",
          "name": "previousOwner",
          "type": "address"
        },
        {
          "indexed": true,
          "internalType": "address",
          "name": "newOwner",
          "type": "address"
        }
      ],
      "name": "OwnershipTransferred",
      "type": "event"
    },
    {
      "anonymous": false,
      "inputs": [
        {
          "indexed": false,
          "internalType": "address",
          "name": "_user",
          "type": "address"
        },
        {
          "indexed": false,
          "internalType": "uint256",
          "name": "_amount",
          "type": "uint256"
        }
      ],
      "name": "onCancelQueuedMint",
      "type": "event"
    },
    {
      "anonymous": false,
      "inputs": [
        {
          "indexed": false,
          "internalType": "address",
          "name": "_user",
          "type": "address"
        },
        {
          "indexed": false,
          "internalType": "uint256",
          "name": "_amount",
          "type": "uint256"
        }
      ],
      "name": "onQueuedMint",
      "type": "event"
    },
    {
      "inputs": [],
      "name": "DELAY",
      "outputs": [
        {
          "internalType": "uint256",
          "name": "",
          "type": "uint256"
        }
      ],
      "stateMutability": "view",
      "type": "function"
    },
    {
      "inputs": [],
      "name": "GRB",
      "outputs": [
        {
          "internalType": "contract IGRB",
          "name": "",
          "type": "address"
        }
      ],
      "stateMutability": "view",
      "type": "function"
    },
    {
      "inputs": [],
      "name": "amountMint",
      "outputs": [
        {
          "internalType": "uint256",
          "name": "",
          "type": "uint256"
        }
      ],
      "stateMutability": "view",
      "type": "function"
    },
    {
      "inputs": [],
      "name": "owner",
      "outputs": [
        {
          "internalType": "address",
          "name": "",
          "type": "address"
        }
      ],
      "stateMutability": "view",
      "type": "function"
    },
    {
      "inputs": [],
      "name": "queued",
      "outputs": [
        {
          "internalType": "bool",
          "name": "",
          "type": "bool"
        }
      ],
      "stateMutability": "view",
      "type": "function"
    },
    {
      "inputs": [],
      "name": "renounceOwnership",
      "outputs": [],
      "stateMutability": "nonpayable",
      "type": "function"
    },
    {
      "inputs": [],
      "name": "timeOfExecute",
      "outputs": [
        {
          "internalType": "uint256",
          "name": "",
          "type": "uint256"
        }
      ],
      "stateMutability": "view",
      "type": "function"
    },
    {
      "inputs": [
        {
          "internalType": "address",
          "name": "newOwner",
          "type": "address"
        }
      ],
      "name": "transferOwnership",
      "outputs": [],
      "stateMutability": "nonpayable",
      "type": "function"
    },
    {
      "inputs": [],
      "name": "userMint",
      "outputs": [
        {
          "internalType": "address",
          "name": "",
          "type": "address"
        }
      ],
      "stateMutability": "view",
      "type": "function"
    },
    {
      "inputs": [],
      "name": "cancelTransactionMint",
      "outputs": [],
      "stateMutability": "nonpayable",
      "type": "function"
    },
    {
      "inputs": [
        {
          "internalType": "address",
          "name": "_user",
          "type": "address"
        },
        {
          "internalType": "uint256",
          "name": "_amount",
          "type": "uint256"
        }
      ],
      "name": "queuedTransactionMint",
      "outputs": [],
      "stateMutability": "nonpayable",
      "type": "function"
    },
    {
      "inputs": [],
      "name": "delayMint",
      "outputs": [],
      "stateMutability": "nonpayable",
      "type": "function"
    }
  ],
  "bytecode": "0x60806040526000600160146101000a81548160ff0219169083151502179055503480156200002c57600080fd5b5060405162000f8d38038062000f8d833981810160405281019062000052919062000204565b6200007262000066620000ba60201b60201c565b620000c260201b60201c565b80600160006101000a81548173ffffffffffffffffffffffffffffffffffffffff021916908373ffffffffffffffffffffffffffffffffffffffff1602179055505062000236565b600033905090565b60008060009054906101000a900473ffffffffffffffffffffffffffffffffffffffff169050816000806101000a81548173ffffffffffffffffffffffffffffffffffffffff021916908373ffffffffffffffffffffffffffffffffffffffff1602179055508173ffffffffffffffffffffffffffffffffffffffff168173ffffffffffffffffffffffffffffffffffffffff167f8be0079c531659141344cd1fd0a4f28419497f9722a3daafe3b4186f6b6457e060405160405180910390a35050565b600080fd5b600073ffffffffffffffffffffffffffffffffffffffff82169050919050565b6000620001b8826200018b565b9050919050565b6000620001cc82620001ab565b9050919050565b620001de81620001bf565b8114620001ea57600080fd5b50565b600081519050620001fe81620001d3565b92915050565b6000602082840312156200021d576200021c62000186565b5b60006200022d84828501620001ed565b91505092915050565b610d4780620002466000396000f3fe608060405234801561001057600080fd5b50600436106100b45760003560e01c80638da5cb5b116100715780638da5cb5b14610145578063b0176ce814610163578063c0c2b41014610181578063da4f564b1461019d578063df8f460f146101a7578063f2fde38b146101c5576100b4565b806302caeaa2146100b957806310fd3e45146100c357806316049ddf146100e1578063266d19b3146100ff57806369b411701461011d578063715018a61461013b575b600080fd5b6100c16101e1565b005b6100cb6102b9565b6040516100d8919061081b565b60405180910390f35b6100e96102bf565b6040516100f69190610851565b60405180910390f35b6101076102d2565b604051610114919061081b565b60405180910390f35b6101256102d8565b604051610132919061081b565b60405180910390f35b6101436102df565b005b61014d6102f3565b60405161015a91906108ad565b60405180910390f35b61016b61031c565b6040516101789190610927565b60405180910390f35b61019b6004803603810190610196919061099f565b610342565b005b6101a561045b565b005b6101af6105f9565b6040516101bc91906108ad565b60405180910390f35b6101df60048036038101906101da91906109df565b61061f565b005b6101e96106a2565b60011515600160149054906101000a900460ff1615151461023f576040517f08c379a000000000000000000000000000000000000000000000000000000000815260040161023690610a69565b60405180910390fd5b6000600160146101000a81548160ff0219169083151502179055507f599032251da1ee1dc644df9cac215f4a7c708acf763c29d9de40ac0d7b2f49b0600360009054906101000a900473ffffffffffffffffffffffffffffffffffffffff166004546040516102af929190610a89565b60405180910390a1565b60045481565b600160149054906101000a900460ff1681565b60025481565b6212750081565b6102e76106a2565b6102f16000610720565b565b60008060009054906101000a900473ffffffffffffffffffffffffffffffffffffffff16905090565b600160009054906101000a900473ffffffffffffffffffffffffffffffffffffffff1681565b61034a6106a2565b60001515600160149054906101000a900460ff161515146103a0576040517f08c379a000000000000000000000000000000000000000000000000000000000815260040161039790610a69565b60405180910390fd5b60018060146101000a81548160ff0219169083151502179055506103d062127500426107e490919063ffffffff16565b60028190555081600360006101000a81548173ffffffffffffffffffffffffffffffffffffffff021916908373ffffffffffffffffffffffffffffffffffffffff160217905550806004819055507fc601dfdd1f97a13106b8a34b2cff60d11cea900ab733ff7a9de29485cc82d734828260405161044f929190610a89565b60405180910390a15050565b6104636106a2565b60011515600160149054906101000a900460ff161515146104b9576040517f08c379a00000000000000000000000000000000000000000000000000000000081526004016104b090610afe565b60405180910390fd5b4260025411156104fe576040517f08c379a00000000000000000000000000000000000000000000000000000000081526004016104f590610b90565b60405180910390fd5b600160009054906101000a900473ffffffffffffffffffffffffffffffffffffffff1673ffffffffffffffffffffffffffffffffffffffff166340c10f19600360009054906101000a900473ffffffffffffffffffffffffffffffffffffffff166004546040518363ffffffff1660e01b815260040161057f929190610a89565b600060405180830381600087803b15801561059957600080fd5b505af11580156105ad573d6000803e3d6000fd5b505050506000600160146101000a81548160ff021916908315150217905550600360006101000a81549073ffffffffffffffffffffffffffffffffffffffff0219169055600460009055565b600360009054906101000a900473ffffffffffffffffffffffffffffffffffffffff1681565b6106276106a2565b600073ffffffffffffffffffffffffffffffffffffffff168173ffffffffffffffffffffffffffffffffffffffff1603610696576040517f08c379a000000000000000000000000000000000000000000000000000000000815260040161068d90610c22565b60405180910390fd5b61069f81610720565b50565b6106aa6107fa565b73ffffffffffffffffffffffffffffffffffffffff166106c86102f3565b73ffffffffffffffffffffffffffffffffffffffff161461071e576040517f08c379a000000000000000000000000000000000000000000000000000000000815260040161071590610c8e565b60405180910390fd5b565b60008060009054906101000a900473ffffffffffffffffffffffffffffffffffffffff169050816000806101000a81548173ffffffffffffffffffffffffffffffffffffffff021916908373ffffffffffffffffffffffffffffffffffffffff1602179055508173ffffffffffffffffffffffffffffffffffffffff168173ffffffffffffffffffffffffffffffffffffffff167f8be0079c531659141344cd1fd0a4f28419497f9722a3daafe3b4186f6b6457e060405160405180910390a35050565b600081836107f29190610cdd565b905092915050565b600033905090565b6000819050919050565b61081581610802565b82525050565b6000602082019050610830600083018461080c565b92915050565b60008115159050919050565b61084b81610836565b82525050565b60006020820190506108666000830184610842565b92915050565b600073ffffffffffffffffffffffffffffffffffffffff82169050919050565b60006108978261086c565b9050919050565b6108a78161088c565b82525050565b60006020820190506108c2600083018461089e565b92915050565b6000819050919050565b60006108ed6108e86108e38461086c565b6108c8565b61086c565b9050919050565b60006108ff826108d2565b9050919050565b6000610911826108f4565b9050919050565b61092181610906565b82525050565b600060208201905061093c6000830184610918565b92915050565b600080fd5b6109508161088c565b811461095b57600080fd5b50565b60008135905061096d81610947565b92915050565b61097c81610802565b811461098757600080fd5b50565b60008135905061099981610973565b92915050565b600080604083850312156109b6576109b5610942565b5b60006109c48582860161095e565b92505060206109d58582860161098a565b9150509250929050565b6000602082840312156109f5576109f4610942565b5b6000610a038482850161095e565b91505092915050565b600082825260208201905092915050565b7f494e56414c49445f515545554544000000000000000000000000000000000000600082015250565b6000610a53600e83610a0c565b9150610a5e82610a1d565b602082019050919050565b60006020820190508181036000830152610a8281610a46565b9050919050565b6000604082019050610a9e600083018561089e565b610aab602083018461080c565b9392505050565b7f5472616e73616374696f6e206973206e6f7420696e207468652071756575652e600082015250565b6000610ae8602083610a0c565b9150610af382610ab2565b602082019050919050565b60006020820190508181036000830152610b1781610adb565b9050919050565b7f546865207472616e73616374696f6e206973207374696c6c20696e207468652060008201527f74696d65206c6f636b2e00000000000000000000000000000000000000000000602082015250565b6000610b7a602a83610a0c565b9150610b8582610b1e565b604082019050919050565b60006020820190508181036000830152610ba981610b6d565b9050919050565b7f4f776e61626c653a206e6577206f776e657220697320746865207a65726f206160008201527f6464726573730000000000000000000000000000000000000000000000000000602082015250565b6000610c0c602683610a0c565b9150610c1782610bb0565b604082019050919050565b60006020820190508181036000830152610c3b81610bff565b9050919050565b7f4f776e61626c653a2063616c6c6572206973206e6f7420746865206f776e6572600082015250565b6000610c78602083610a0c565b9150610c8382610c42565b602082019050919050565b60006020820190508181036000830152610ca781610c6b565b9050919050565b7f4e487b7100000000000000000000000000000000000000000000000000000000600052601160045260246000fd5b6000610ce882610802565b9150610cf383610802565b9250828201905080821115610d0b57610d0a610cae565b5b9291505056fea26469706673582212201457f685c3c745eb9b65543dfaadf0ae92c72a049ffb44c9e94568db1019e1b364736f6c63430008110033",
  "immutableReferences": {},
  "source": "// SPDX-License-Identifier: MIT\r\npragma solidity >=0.6.12;\r\n\r\nimport \"@openzeppelin/contracts/utils/math/SafeMath.sol\";\r\nimport \"@openzeppelin/contracts/access/Ownable.sol\";\r\n\r\ninterface IGRB {\r\n    function mint(address _user, uint256 _amount) external;\r\n}\r\n\r\ncontract GRBProxy is Ownable {\r\n    using SafeMath for uint256;\r\n    IGRB public GRB;\r\n    uint public constant DELAY = 14 days;\r\n    bool public queued = false;\r\n    uint public timeOfExecute;\r\n    address public userMint;\r\n    uint256 public amountMint;\r\n\r\n    event onQueuedMint(address _user, uint256 _amount);\r\n    event onCancelQueuedMint(address _user, uint256 _amount);\r\n\r\n    constructor(IGRB _grbToken) {\r\n        GRB = _grbToken;\r\n    }\r\n\r\n    //remove the transaction from the queue\r\n    function cancelTransactionMint() public onlyOwner\r\n    {\r\n    \trequire(queued == true, \"INVALID_QUEUED\");\r\n    \tqueued = false;\r\n    \temit onCancelQueuedMint(userMint, amountMint);\r\n    }\r\n    \r\n    //queue the transaction to the timelock\r\n    function queuedTransactionMint(address _user, uint256 _amount) public onlyOwner \r\n    {\r\n    \trequire(queued == false, \"INVALID_QUEUED\");\r\n        queued = true;\r\n        timeOfExecute = block.timestamp.add(DELAY);\r\n        userMint = _user;\r\n        amountMint = _amount;\r\n        emit onQueuedMint(_user, _amount);\r\n    }\r\n\r\n    //process function that only can call when queued transaction and timelock passed\r\n    function delayMint() public onlyOwner\r\n    {\r\n    \t// verify timelock\r\n    \trequire(queued == true, \"Transaction is not in the queue.\");\r\n        require(timeOfExecute <= block.timestamp, \"The transaction is still in the time lock.\");\r\n        // mint\r\n        GRB.mint(userMint, amountMint);\r\n        // cancel timelock\r\n        queued = false;\r\n        delete userMint;\r\n        delete amountMint;\r\n    }\r\n}",
  "sourcePath": "C:\\Users\\David\\Documents\\NetBeansProjects\\garbiprotocol.github.io\\garbi_contracts\\contracts\\GRBProxy.sol",
  "compiler": {
    "name": "solc",
    "version": "0.8.17+commit.8df45f5f.Emscripten.clang"
  },
  "schemaVersion": "3.4.11",
  "updatedAt": "2023-01-11T10:34:31.529Z",
  "networkType": "ethereum",
  "devdoc": {
    "kind": "dev",
    "methods": {
      "owner()": {
        "details": "Returns the address of the current owner."
      },
      "renounceOwnership()": {
        "details": "Leaves the contract without owner. It will not be possible to call `onlyOwner` functions anymore. Can only be called by the current owner. NOTE: Renouncing ownership will leave the contract without an owner, thereby removing any functionality that is only available to the owner."
      },
      "transferOwnership(address)": {
        "details": "Transfers ownership of the contract to a new account (`newOwner`). Can only be called by the current owner."
      }
    },
    "version": 1
  },
  "userdoc": {
    "kind": "user",
    "methods": {},
    "version": 1
  }
}