{
  "contractName": "GRBProxy",
  "abi": [
    {
      "inputs": [
        {
          "internalType": "contract IGRB",
          "name": "_grbToken",
          "type": "address"
        }
      ],
      "stateMutability": "nonpayable",
      "type": "constructor"
    },
    {
      "anonymous": false,
      "inputs": [
        {
          "indexed": true,
          "internalType": "address",
          "name": "previousOwner",
          "type": "address"
        },
        {
          "indexed": true,
          "internalType": "address",
          "name": "newOwner",
          "type": "address"
        }
      ],
      "name": "OwnershipTransferred",
      "type": "event"
    },
    {
      "anonymous": false,
      "inputs": [
        {
          "indexed": false,
          "internalType": "address",
          "name": "_user",
          "type": "address"
        },
        {
          "indexed": false,
          "internalType": "uint256",
          "name": "_amount",
          "type": "uint256"
        }
      ],
      "name": "onCancelQueuedMint",
      "type": "event"
    },
    {
      "anonymous": false,
      "inputs": [
        {
          "indexed": false,
          "internalType": "address",
          "name": "_user",
          "type": "address"
        },
        {
          "indexed": false,
          "internalType": "uint256",
          "name": "_amount",
          "type": "uint256"
        }
      ],
      "name": "onQueuedMint",
      "type": "event"
    },
    {
      "inputs": [],
      "name": "DELAY",
      "outputs": [
        {
          "internalType": "uint256",
          "name": "",
          "type": "uint256"
        }
      ],
      "stateMutability": "view",
      "type": "function"
    },
    {
      "inputs": [],
      "name": "GRB",
      "outputs": [
        {
          "internalType": "contract IGRB",
          "name": "",
          "type": "address"
        }
      ],
      "stateMutability": "view",
      "type": "function"
    },
    {
      "inputs": [],
      "name": "amountMint",
      "outputs": [
        {
          "internalType": "uint256",
          "name": "",
          "type": "uint256"
        }
      ],
      "stateMutability": "view",
      "type": "function"
    },
    {
      "inputs": [],
      "name": "owner",
      "outputs": [
        {
          "internalType": "address",
          "name": "",
          "type": "address"
        }
      ],
      "stateMutability": "view",
      "type": "function"
    },
    {
      "inputs": [],
      "name": "queued",
      "outputs": [
        {
          "internalType": "bool",
          "name": "",
          "type": "bool"
        }
      ],
      "stateMutability": "view",
      "type": "function"
    },
    {
      "inputs": [],
      "name": "renounceOwnership",
      "outputs": [],
      "stateMutability": "nonpayable",
      "type": "function"
    },
    {
      "inputs": [],
      "name": "timeOfExecute",
      "outputs": [
        {
          "internalType": "uint256",
          "name": "",
          "type": "uint256"
        }
      ],
      "stateMutability": "view",
      "type": "function"
    },
    {
      "inputs": [
        {
          "internalType": "address",
          "name": "newOwner",
          "type": "address"
        }
      ],
      "name": "transferOwnership",
      "outputs": [],
      "stateMutability": "nonpayable",
      "type": "function"
    },
    {
      "inputs": [],
      "name": "userMint",
      "outputs": [
        {
          "internalType": "address",
          "name": "",
          "type": "address"
        }
      ],
      "stateMutability": "view",
      "type": "function"
    },
    {
      "inputs": [],
      "name": "cancelTransactionMint",
      "outputs": [],
      "stateMutability": "nonpayable",
      "type": "function"
    },
    {
      "inputs": [
        {
          "internalType": "address",
          "name": "_user",
          "type": "address"
        },
        {
          "internalType": "uint256",
          "name": "_amount",
          "type": "uint256"
        }
      ],
      "name": "queuedTransactionMint",
      "outputs": [],
      "stateMutability": "nonpayable",
      "type": "function"
    },
    {
      "inputs": [],
      "name": "delayMint",
      "outputs": [],
      "stateMutability": "nonpayable",
      "type": "function"
    }
  ],
  "bytecode": "0x60806040526001805460ff60a01b1916905534801561001d57600080fd5b5060405161077838038061077883398101604081905261003c916100ba565b6100453361006a565b600180546001600160a01b0319166001600160a01b03929092169190911790556100ea565b600080546001600160a01b038381166001600160a01b0319831681178455604051919092169283917f8be0079c531659141344cd1fd0a4f28419497f9722a3daafe3b4186f6b6457e09190a35050565b6000602082840312156100cc57600080fd5b81516001600160a01b03811681146100e357600080fd5b9392505050565b61067f806100f96000396000f3fe608060405234801561001057600080fd5b50600436106100b45760003560e01c80638da5cb5b116100715780638da5cb5b1461011e578063b0176ce814610143578063c0c2b41014610156578063da4f564b14610169578063df8f460f14610171578063f2fde38b1461018457600080fd5b806302caeaa2146100b957806310fd3e45146100c357806316049ddf146100df578063266d19b31461010357806369b411701461010c578063715018a614610116575b600080fd5b6100c1610197565b005b6100cc60045481565b6040519081526020015b60405180910390f35b6001546100f390600160a01b900460ff1681565b60405190151581526020016100d6565b6100cc60025481565b6100cc6212750081565b6100c161024b565b6000546001600160a01b03165b6040516001600160a01b0390911681526020016100d6565b60015461012b906001600160a01b031681565b6100c16101643660046105e3565b61025f565b6100c1610335565b60035461012b906001600160a01b031681565b6100c161019236600461060d565b61048f565b61019f610508565b60018054600160a01b900460ff161515146101f25760405162461bcd60e51b815260206004820152600e60248201526d1253959053125117d4555155515160921b60448201526064015b60405180910390fd5b6001805460ff60a01b19169055600354600454604080516001600160a01b03909316835260208301919091527f599032251da1ee1dc644df9cac215f4a7c708acf763c29d9de40ac0d7b2f49b0910160405180910390a1565b610253610508565b61025d6000610562565b565b610267610508565b600154600160a01b900460ff16156102b25760405162461bcd60e51b815260206004820152600e60248201526d1253959053125117d4555155515160921b60448201526064016101e9565b6001805460ff60a01b1916600160a01b1790556102d242621275006105b2565b600255600380546001600160a01b0319166001600160a01b038416908117909155600482905560408051918252602082018390527fc601dfdd1f97a13106b8a34b2cff60d11cea900ab733ff7a9de29485cc82d734910160405180910390a15050565b61033d610508565b60018054600160a01b900460ff1615151461039a5760405162461bcd60e51b815260206004820181905260248201527f5472616e73616374696f6e206973206e6f7420696e207468652071756575652e60448201526064016101e9565b4260025411156103ff5760405162461bcd60e51b815260206004820152602a60248201527f546865207472616e73616374696f6e206973207374696c6c20696e20746865206044820152693a34b6b2903637b1b59760b11b60648201526084016101e9565b600154600354600480546040516340c10f1960e01b81526001600160a01b039384169281019290925260248201529116906340c10f1990604401600060405180830381600087803b15801561045357600080fd5b505af1158015610467573d6000803e3d6000fd5b50506001805460ff60a01b191690555050600380546001600160a01b03191690556000600455565b610497610508565b6001600160a01b0381166104fc5760405162461bcd60e51b815260206004820152602660248201527f4f776e61626c653a206e6577206f776e657220697320746865207a65726f206160448201526564647265737360d01b60648201526084016101e9565b61050581610562565b50565b6000546001600160a01b0316331461025d5760405162461bcd60e51b815260206004820181905260248201527f4f776e61626c653a2063616c6c6572206973206e6f7420746865206f776e657260448201526064016101e9565b600080546001600160a01b038381166001600160a01b0319831681178455604051919092169283917f8be0079c531659141344cd1fd0a4f28419497f9722a3daafe3b4186f6b6457e09190a35050565b60006105be8284610628565b90505b92915050565b80356001600160a01b03811681146105de57600080fd5b919050565b600080604083850312156105f657600080fd5b6105ff836105c7565b946020939093013593505050565b60006020828403121561061f57600080fd5b6105be826105c7565b808201808211156105c157634e487b7160e01b600052601160045260246000fdfea2646970667358221220e714fc050e035c7baae4556ef630ce5e43562add6ee545034251138f3bf7eef464736f6c63430008110033",
  "immutableReferences": {},
  "source": "// SPDX-License-Identifier: MIT\npragma solidity >=0.6.12;\n\nimport \"@openzeppelin/contracts/utils/math/SafeMath.sol\";\nimport \"@openzeppelin/contracts/access/Ownable.sol\";\n\ninterface IGRB {\n    function mint(address _user, uint256 _amount) external;\n}\n\ncontract GRBProxy is Ownable {\n    using SafeMath for uint256;\n    IGRB public GRB;\n    uint public constant DELAY = 14 days;\n    bool public queued = false;\n    uint public timeOfExecute;\n    address public userMint;\n    uint256 public amountMint;\n\n    event onQueuedMint(address _user, uint256 _amount);\n    event onCancelQueuedMint(address _user, uint256 _amount);\n\n    constructor(IGRB _grbToken) {\n        GRB = _grbToken;\n    }\n\n    //remove the transaction from the queue\n    function cancelTransactionMint() public onlyOwner\n    {\n    \trequire(queued == true, \"INVALID_QUEUED\");\n    \tqueued = false;\n    \temit onCancelQueuedMint(userMint, amountMint);\n    }\n    \n    //queue the transaction to the timelock\n    function queuedTransactionMint(address _user, uint256 _amount) public onlyOwner \n    {\n    \trequire(queued == false, \"INVALID_QUEUED\");\n        queued = true;\n        timeOfExecute = block.timestamp.add(DELAY);\n        userMint = _user;\n        amountMint = _amount;\n        emit onQueuedMint(_user, _amount);\n    }\n\n    //process function that only can call when queued transaction and timelock passed\n    function delayMint() public onlyOwner\n    {\n    \t// verify timelock\n    \trequire(queued == true, \"Transaction is not in the queue.\");\n        require(timeOfExecute <= block.timestamp, \"The transaction is still in the time lock.\");\n        // mint\n        GRB.mint(userMint, amountMint);\n        // cancel timelock\n        queued = false;\n        delete userMint;\n        delete amountMint;\n    }\n}",
  "sourcePath": "/Applications/projects/garbiprotocol.github.io/garbi_contracts/contracts/GRBProxy.sol",
  "compiler": {
    "name": "solc",
    "version": "0.8.17+commit.8df45f5f.Emscripten.clang"
  },
  "schemaVersion": "3.4.11",
  "updatedAt": "2023-06-06T03:57:57.966Z",
  "networkType": "ethereum",
  "devdoc": {
    "kind": "dev",
    "methods": {
      "owner()": {
        "details": "Returns the address of the current owner."
      },
      "renounceOwnership()": {
        "details": "Leaves the contract without owner. It will not be possible to call `onlyOwner` functions. Can only be called by the current owner. NOTE: Renouncing ownership will leave the contract without an owner, thereby disabling any functionality that is only available to the owner."
      },
      "transferOwnership(address)": {
        "details": "Transfers ownership of the contract to a new account (`newOwner`). Can only be called by the current owner."
      }
    },
    "version": 1
  },
  "userdoc": {
    "kind": "user",
    "methods": {},
    "version": 1
  }
}