{
  "contractName": "IGarbiFarm",
  "abi": [
    {
      "inputs": [
        {
          "internalType": "address",
          "name": "",
          "type": "address"
        }
      ],
      "name": "shareOf",
      "outputs": [
        {
          "internalType": "uint256",
          "name": "",
          "type": "uint256"
        }
      ],
      "stateMutability": "view",
      "type": "function"
    },
    {
      "inputs": [],
      "name": "totalShare",
      "outputs": [
        {
          "internalType": "uint256",
          "name": "",
          "type": "uint256"
        }
      ],
      "stateMutability": "view",
      "type": "function"
    },
    {
      "inputs": [],
      "name": "want",
      "outputs": [
        {
          "internalType": "contract IERC20",
          "name": "",
          "type": "address"
        }
      ],
      "stateMutability": "view",
      "type": "function"
    }
  ],
  "bytecode": "0x608060405234801561001057600080fd5b50610106806100206000396000f3fe6080604052348015600f57600080fd5b5060043610603c5760003560e01c8063026c42071460415780631f1fcd5114605c57806321e5e2c4146085575b600080fd5b604960005481565b6040519081526020015b60405180910390f35b600154606e906001600160a01b031681565b6040516001600160a01b0390911681526020016053565b6049609036600460a2565b60026020526000908152604090205481565b60006020828403121560b357600080fd5b81356001600160a01b038116811460c957600080fd5b939250505056fea26469706673582212207bb30cb58c1613b8f959cfda6f237fe57b323cc57d3d8422bbab02d0d7e19c2f64736f6c63430008110033",
  "immutableReferences": {},
  "source": "// SPDX-License-Identifier: MIT\r\npragma solidity >=0.6.12;\r\n\r\nimport \"@openzeppelin/contracts/token/ERC20/IERC20.sol\";\r\n\r\ncontract IGarbiFarm {\r\n\r\n   uint256 public totalShare;\r\n\r\n   IERC20 public want;\r\n\r\n   mapping(address => uint256) public shareOf; \r\n}",
  "sourcePath": "C:\\Users\\David\\Documents\\NetBeansProjects\\garbiprotocol.github.io\\garbi_contracts\\contracts\\interfaces\\IGarbiFarm.sol",
  "compiler": {
    "name": "solc",
    "version": "0.8.17+commit.8df45f5f.Emscripten.clang"
  },
  "schemaVersion": "3.4.11",
  "updatedAt": "2023-03-01T06:51:28.462Z",
  "devdoc": {
    "kind": "dev",
    "methods": {},
    "version": 1
  },
  "userdoc": {
    "kind": "user",
    "methods": {},
    "version": 1
  }
}