{
  "contractName": "ISwapTrade",
  "abi": [
    {
      "inputs": [],
      "name": "TRADE_FEE",
      "outputs": [
        {
          "internalType": "uint256",
          "name": "",
          "type": "uint256"
        }
      ],
      "stateMutability": "view",
      "type": "function"
    }
  ],
  "bytecode": "0x6080604052348015600f57600080fd5b50607d8061001e6000396000f3fe6080604052348015600f57600080fd5b506004361060285760003560e01c8063d132296214602d575b600080fd5b603560005481565b60405190815260200160405180910390f3fea264697066735822122066d6547aa9a6906f87a2f8911ccea09ef4366acb92c80d6439991e308eed030364736f6c63430008110033",
  "immutableReferences": {},
  "source": "// SPDX-License-Identifier: MIT\npragma solidity >=0.6.12;\n\nimport \"@openzeppelin/contracts/utils/math/SafeMath.sol\";\nimport \"@openzeppelin/contracts/token/ERC20/IERC20.sol\";\nimport \"@openzeppelin/contracts/access/Ownable.sol\";\n\nimport './interfaces/IGarbiTimeLock.sol';\n\ncontract ISwapTrade {\n    uint256 public TRADE_FEE; //0.035% 35/100000\n} \n\ncontract GarbiswapFeeMachine is Ownable{\n    \n    using SafeMath for uint256;\n\n    IERC20 public GRB;\n    \n    address public performanceMachineContract;\n    address public safuFundContract;\n\n    IGarbiTimeLock public garbiTimeLockContract;\n\n    uint256 public PERFORMANCE_FEE = 50; //50% 50/100 from 0.035% trade fee \n    uint256 public SAFU_FUND = 0; //0%\n\n    uint256 public DISTRIBUTE_GARBI_AMOUNT = 5 * 1e17;\n\n    uint256 public DAY_PERIOD = 1 days;\n\n    mapping (address => bool) public pairs;\n    mapping (address => mapping(uint256 => uint256)) public feeOf;\n    mapping (address => uint256) public timeOfCreateNewFee;\n    mapping (address => uint256) public totalDays;\n\n    event onDistributeGarbi(address _trader, uint256 _amount);\n    \n    constructor(\n        IERC20 _grb,\n        address _performanceMachineContract, \n        address _safuFundContract,\n        IGarbiTimeLock _garbiTimeLockContract\n        ) {\n        garbiTimeLockContract = _garbiTimeLockContract;\n        performanceMachineContract = _performanceMachineContract;\n        safuFundContract = _safuFundContract;\n\n        GRB = _grb;\n    }\n\n    function setDayPeriod(uint256 _value) public onlyOwner {\n        DAY_PERIOD = _value;\n    }\n    function addPair(address _pair) public onlyOwner {\n        require(pairs[_pair] != true, \"IN_THE_LIST\");\n        pairs[_pair] = true;\n    }\n\n    function removePair(address _pair) public onlyOwner {\n        require(pairs[_pair] == true, \"NOT_IN_THE_LIST\");\n        pairs[_pair] = false;\n    }\n\n    function setDistributeGarbiAmount(uint256 _amount) public onlyOwner {\n        DISTRIBUTE_GARBI_AMOUNT = _amount;\n    }\n\n\n    function setPerformanceMachine() public onlyOwner {\n\n        require(garbiTimeLockContract.isQueuedTransaction(address(this), 'setPerformanceMachine'), \"INVALID_PERMISSION\");\n\n        address _performanceMachine = garbiTimeLockContract.getAddressChangeOnTimeLock(address(this), 'setPerformanceMachine', 'performanceMachine');\n\n        require(_performanceMachine != address(0), \"INVALID_ADDRESS\");\n\n        performanceMachineContract = _performanceMachine;\n\n        garbiTimeLockContract.clearFieldValue('setPerformanceMachine', 'performanceMachine', 1);\n        garbiTimeLockContract.doneTransactions('setPerformanceMachine');\n    }\n\n    function setSafuFundContract() public onlyOwner {\n\n        require(garbiTimeLockContract.isQueuedTransaction(address(this), 'setSafuFundContract'), \"INVALID_PERMISSION\");\n\n        address _safuFundContract = garbiTimeLockContract.getAddressChangeOnTimeLock(address(this), 'setSafuFundContract', 'safuFundContract');\n\n        require(_safuFundContract != address(0), \"INVALID_ADDRESS\");\n\n        safuFundContract = _safuFundContract;\n\n        garbiTimeLockContract.clearFieldValue('setSafuFundContract', 'safuFundContract', 1);\n        garbiTimeLockContract.doneTransactions('setSafuFundContract');\n    }\n\n    function setPerformanceFee() public onlyOwner {\n\n        require(garbiTimeLockContract.isQueuedTransaction(address(this), 'setPerformanceFee'), \"INVALID_PERMISSION\");\n\n        PERFORMANCE_FEE = garbiTimeLockContract.getUintChangeOnTimeLock(address(this), 'setPerformanceFee', 'PERFORMANCE_FEE');\n\n        garbiTimeLockContract.clearFieldValue('setPerformanceFee', 'PERFORMANCE_FEE', 2);\n        garbiTimeLockContract.doneTransactions('setPerformanceFee');\n    }\n\n    function setSafuFee() public onlyOwner {\n\n        require(garbiTimeLockContract.isQueuedTransaction(address(this), 'setSafuFee'), \"INVALID_PERMISSION\");\n\n        SAFU_FUND = garbiTimeLockContract.getUintChangeOnTimeLock(address(this), 'setSafuFee', 'SAFU_FUND');\n\n        garbiTimeLockContract.clearFieldValue('setSafuFee', 'SAFU_FUND', 2);\n        garbiTimeLockContract.doneTransactions('setSafuFee');\n    }\n\n    function processTradeFee(IERC20 token, address trader) public {\n\n        require(pairs[msg.sender] == true, \"PAIR_NOT_CORRECT\");\n\n        uint256 tokenBalance = token.balanceOf(address(this)); \n        require(tokenBalance > 0, \"TOKEN_BALANCE_ZERO\");\n        uint256 performanceFee = tokenBalance.mul(PERFORMANCE_FEE).div(100);\n        uint256 safuFundAmount = tokenBalance.mul(SAFU_FUND).div(100);\n        token.transfer(performanceMachineContract, performanceFee);\n        token.transfer(safuFundContract, safuFundAmount);\n        token.transfer(msg.sender, token.balanceOf(address(this))); //send back the trade fee after cut 50%\n\n        _distributeGarbi(trader);\n        _updateDailyFee(msg.sender, tokenBalance);\n    }\n\n    function _updateDailyFee(address _lp, uint256 _fee) private {\n        if (timeOfCreateNewFee[_lp].add(DAY_PERIOD) <= block.timestamp) {\n            totalDays[_lp] += 1;\n            timeOfCreateNewFee[_lp] = block.timestamp;\n        } \n        feeOf[_lp][totalDays[_lp]] = feeOf[_lp][totalDays[_lp]].add(_fee);\n    }\n\n    function _distributeGarbi(address trader) private {\n        uint256 _grbBal = GRB.balanceOf(address(this));\n        uint256 _distributeAmt = DISTRIBUTE_GARBI_AMOUNT;\n\n        if (_distributeAmt > _grbBal) {\n            _distributeAmt = _grbBal;\n        }\n        if (_distributeAmt > 0) {\n            GRB.transfer(trader, _distributeAmt);\n            emit onDistributeGarbi(trader, _distributeAmt);\n        }\n    }\n    function getTradeFeeAPY(IERC20 _lp) public view returns(uint256) {\n        uint256 _totalSupply = _lp.totalSupply(); // Base and Token = 2 * total supply\n        uint256 _totalDays = totalDays[address(_lp)];\n        uint256 _count = 0;\n        uint256 _totalFee = 0;\n        for (uint256 idx = _totalDays; idx >= 0; idx--) {\n            _count += 1;\n            _totalFee = _totalFee.add(feeOf[address(_lp)][idx]);\n            if (_count >= 7) {\n                break;\n            }\n        }\n        if (_count <= 0) {\n            return 0;\n        }\n        if (_totalSupply <= 0) {\n            return 0;\n        }\n        uint256 _dailyFee = _totalFee.div(_count);\n        return _dailyFee.mul(1e12).mul(365).div(_totalSupply.mul(2));\n    }\n    function getVolume(address _lp) public view returns(uint256) {\n        uint256 _tradeFee = ISwapTrade(_lp).TRADE_FEE();\n        uint256 _feeOnLastDay = feeOf[_lp][totalDays[_lp]];\n        // TRADE_FEE = 35; //0.035% 35/100000\n        // $1000 => fee = 1000*0.035/100 => 0.35\n        // => Volume = 100000 * fee / TRADE_FEE\n        return _feeOnLastDay.mul(100000).div(_tradeFee);\n    }\n}",
  "sourcePath": "/Applications/projects/garbiprotocol.github.io/garbi_contracts/contracts/GarbiswapFeeMachine.sol",
  "compiler": {
    "name": "solc",
    "version": "0.8.17+commit.8df45f5f.Emscripten.clang"
  },
  "schemaVersion": "3.4.11",
  "updatedAt": "2023-01-11T15:03:34.085Z",
  "devdoc": {
    "kind": "dev",
    "methods": {},
    "version": 1
  },
  "userdoc": {
    "kind": "user",
    "methods": {},
    "version": 1
  }
}