{
  "contractName": "ISwapTrade",
  "abi": [
    {
      "inputs": [],
      "name": "TRADE_FEE",
      "outputs": [
        {
          "internalType": "uint256",
          "name": "",
          "type": "uint256"
        }
      ],
      "stateMutability": "view",
      "type": "function"
    }
  ],
  "bytecode": "0x6080604052348015600f57600080fd5b50607d8061001e6000396000f3fe6080604052348015600f57600080fd5b506004361060285760003560e01c8063d132296214602d575b600080fd5b603560005481565b60405190815260200160405180910390f3fea26469706673582212203c6c64752e340c7570dfeffd2388c29c26f28c4b574df53e2fce9477842ee45f64736f6c63430008110033",
  "immutableReferences": {},
  "source": "// SPDX-License-Identifier: MIT\r\npragma solidity >=0.6.12;\r\n\r\nimport \"@openzeppelin/contracts/utils/math/SafeMath.sol\";\r\nimport \"@openzeppelin/contracts/token/ERC20/IERC20.sol\";\r\nimport \"@openzeppelin/contracts/access/Ownable.sol\";\r\n\r\nimport './interfaces/IGarbiTimeLock.sol';\r\n\r\ncontract ISwapTrade {\r\n    uint256 public TRADE_FEE; //0.01% 10/100000\r\n} \r\n\r\ncontract GarbiswapFeeMachine is Ownable{\r\n    \r\n    using SafeMath for uint256;\r\n\r\n    IERC20 public GRB;\r\n    \r\n    address public performanceMachineContract;\r\n    address public safuFundContract;\r\n\r\n    IGarbiTimeLock public garbiTimeLockContract;\r\n\r\n    uint256 public PERFORMANCE_FEE = 50; //50% 50/100 from 0.01% trade fee \r\n    uint256 public SAFU_FUND = 0; //0%\r\n\r\n    uint256 public DISTRIBUTE_GARBI_AMOUNT = 5 * 1e17;\r\n\r\n    uint256 public DAY_PERIOD = 1 days;\r\n\r\n    mapping (address => bool) public pairs;\r\n    mapping (address => mapping(uint256 => uint256)) public feeOf;\r\n    mapping (address => uint256) public timeOfCreateNewFee;\r\n    mapping (address => uint256) public totalDays;\r\n\r\n    event onDistributeGarbi(address _trader, uint256 _amount);\r\n    \r\n    constructor(\r\n        IERC20 _grb,\r\n        address _performanceMachineContract, \r\n        address _safuFundContract,\r\n        IGarbiTimeLock _garbiTimeLockContract\r\n        ) {\r\n        garbiTimeLockContract = _garbiTimeLockContract;\r\n        performanceMachineContract = _performanceMachineContract;\r\n        safuFundContract = _safuFundContract;\r\n\r\n        GRB = _grb;\r\n    }\r\n\r\n    function setDayPeriod(uint256 _value) public onlyOwner {\r\n        DAY_PERIOD = _value;\r\n    }\r\n    function addPair(address _pair) public onlyOwner {\r\n        require(pairs[_pair] != true, \"IN_THE_LIST\");\r\n        pairs[_pair] = true;\r\n    }\r\n\r\n    function removePair(address _pair) public onlyOwner {\r\n        require(pairs[_pair] == true, \"NOT_IN_THE_LIST\");\r\n        pairs[_pair] = false;\r\n    }\r\n\r\n    function setDistributeGarbiAmount(uint256 _amount) public onlyOwner {\r\n        DISTRIBUTE_GARBI_AMOUNT = _amount;\r\n    }\r\n\r\n\r\n    function setPerformanceMachine() public onlyOwner {\r\n\r\n        require(garbiTimeLockContract.isQueuedTransaction(address(this), 'setPerformanceMachine'), \"INVALID_PERMISSION\");\r\n\r\n        address _performanceMachine = garbiTimeLockContract.getAddressChangeOnTimeLock(address(this), 'setPerformanceMachine', 'performanceMachine');\r\n\r\n        require(_performanceMachine != address(0), \"INVALID_ADDRESS\");\r\n\r\n        performanceMachineContract = _performanceMachine;\r\n\r\n        garbiTimeLockContract.clearFieldValue('setPerformanceMachine', 'performanceMachine', 1);\r\n        garbiTimeLockContract.doneTransactions('setPerformanceMachine');\r\n    }\r\n\r\n    function setSafuFundContract() public onlyOwner {\r\n\r\n        require(garbiTimeLockContract.isQueuedTransaction(address(this), 'setSafuFundContract'), \"INVALID_PERMISSION\");\r\n\r\n        address _safuFundContract = garbiTimeLockContract.getAddressChangeOnTimeLock(address(this), 'setSafuFundContract', 'safuFundContract');\r\n\r\n        require(_safuFundContract != address(0), \"INVALID_ADDRESS\");\r\n\r\n        safuFundContract = _safuFundContract;\r\n\r\n        garbiTimeLockContract.clearFieldValue('setSafuFundContract', 'safuFundContract', 1);\r\n        garbiTimeLockContract.doneTransactions('setSafuFundContract');\r\n    }\r\n\r\n    function setPerformanceFee() public onlyOwner {\r\n\r\n        require(garbiTimeLockContract.isQueuedTransaction(address(this), 'setPerformanceFee'), \"INVALID_PERMISSION\");\r\n\r\n        PERFORMANCE_FEE = garbiTimeLockContract.getUintChangeOnTimeLock(address(this), 'setPerformanceFee', 'PERFORMANCE_FEE');\r\n\r\n        garbiTimeLockContract.clearFieldValue('setPerformanceFee', 'PERFORMANCE_FEE', 2);\r\n        garbiTimeLockContract.doneTransactions('setPerformanceFee');\r\n    }\r\n\r\n    function setSafuFee() public onlyOwner {\r\n\r\n        require(garbiTimeLockContract.isQueuedTransaction(address(this), 'setSafuFee'), \"INVALID_PERMISSION\");\r\n\r\n        SAFU_FUND = garbiTimeLockContract.getUintChangeOnTimeLock(address(this), 'setSafuFee', 'SAFU_FUND');\r\n\r\n        garbiTimeLockContract.clearFieldValue('setSafuFee', 'SAFU_FUND', 2);\r\n        garbiTimeLockContract.doneTransactions('setSafuFee');\r\n    }\r\n\r\n    function processTradeFee(IERC20 token, address trader) public {\r\n\r\n        require(pairs[msg.sender] == true, \"PAIR_NOT_CORRECT\");\r\n\r\n        uint256 tokenBalance = token.balanceOf(address(this)); \r\n        require(tokenBalance > 0, \"TOKEN_BALANCE_ZERO\");\r\n        uint256 performanceFee = tokenBalance.mul(PERFORMANCE_FEE).div(100);\r\n        uint256 safuFundAmount = tokenBalance.mul(SAFU_FUND).div(100);\r\n        token.transfer(performanceMachineContract, performanceFee);\r\n        token.transfer(safuFundContract, safuFundAmount);\r\n        token.transfer(msg.sender, token.balanceOf(address(this))); //send back the trade fee after cut 50%\r\n\r\n        _distributeGarbi(trader);\r\n        _updateDailyFee(msg.sender, tokenBalance);\r\n    }\r\n\r\n    function _updateDailyFee(address _lp, uint256 _fee) private {\r\n        if (timeOfCreateNewFee[_lp].add(DAY_PERIOD) <= block.timestamp) {\r\n            totalDays[_lp] += 1;\r\n            timeOfCreateNewFee[_lp] = block.timestamp;\r\n        } \r\n        feeOf[_lp][totalDays[_lp]] = feeOf[_lp][totalDays[_lp]].add(_fee);\r\n    }\r\n\r\n    function _distributeGarbi(address trader) private {\r\n        uint256 _grbBal = GRB.balanceOf(address(this));\r\n        uint256 _distributeAmt = DISTRIBUTE_GARBI_AMOUNT;\r\n\r\n        if (_distributeAmt > _grbBal) {\r\n            _distributeAmt = _grbBal;\r\n        }\r\n        if (_distributeAmt > 0) {\r\n            GRB.transfer(trader, _distributeAmt);\r\n            emit onDistributeGarbi(trader, _distributeAmt);\r\n        }\r\n    }\r\n    function getTradeFeeAPY(IERC20 _lp) public view returns(uint256) {\r\n        uint256 _totalSupply = _lp.totalSupply(); // Base and Token = 2 * total supply\r\n        uint256 _totalDays = totalDays[address(_lp)];\r\n        uint256 _count = 0;\r\n        uint256 _totalFee = 0;\r\n        for (uint256 idx = _totalDays; idx >= 0; idx--) {\r\n            _count += 1;\r\n            _totalFee = _totalFee.add(feeOf[address(_lp)][idx]);\r\n            if (_count >= 7) {\r\n                break;\r\n            }\r\n        }\r\n        if (_count <= 0) {\r\n            return 0;\r\n        }\r\n        if (_totalSupply <= 0) {\r\n            return 0;\r\n        }\r\n        uint256 _dailyFee = _totalFee.div(_count);\r\n        return _dailyFee.mul(1e12).mul(365).div(_totalSupply.mul(2));\r\n    }\r\n    function getVolume(address _lp) public view returns(uint256) {\r\n        uint256 _tradeFee = ISwapTrade(_lp).TRADE_FEE();\r\n        uint256 _feeOnLastDay = feeOf[_lp][totalDays[_lp]];\r\n        // TRADE_FEE = 35; //0.035% 35/100000\r\n        // $1000 => fee = 1000*0.035/100 => 0.35\r\n        // => Volume = 100000 * fee / TRADE_FEE\r\n        return _feeOnLastDay.mul(100000).div(_tradeFee);\r\n    }\r\n}",
  "sourcePath": "C:\\Users\\David\\Documents\\NetBeansProjects\\garbiprotocol.github.io\\garbi_contracts\\contracts\\GarbiswapFeeMachine.sol",
  "compiler": {
    "name": "solc",
    "version": "0.8.17+commit.8df45f5f.Emscripten.clang"
  },
  "schemaVersion": "3.4.11",
  "updatedAt": "2023-02-23T08:25:41.091Z",
  "devdoc": {
    "kind": "dev",
    "methods": {},
    "version": 1
  },
  "userdoc": {
    "kind": "user",
    "methods": {},
    "version": 1
  }
}