{
  "contractName": "MockETHHandle",
  "abi": [
    {
      "anonymous": false,
      "inputs": [
        {
          "indexed": true,
          "internalType": "address",
          "name": "previousOwner",
          "type": "address"
        },
        {
          "indexed": true,
          "internalType": "address",
          "name": "newOwner",
          "type": "address"
        }
      ],
      "name": "OwnershipTransferred",
      "type": "event"
    },
    {
      "inputs": [],
      "name": "grabiFarmSingleWETHBrigdeAddress",
      "outputs": [
        {
          "internalType": "address",
          "name": "",
          "type": "address"
        }
      ],
      "stateMutability": "view",
      "type": "function",
      "constant": true
    },
    {
      "inputs": [],
      "name": "owner",
      "outputs": [
        {
          "internalType": "address",
          "name": "",
          "type": "address"
        }
      ],
      "stateMutability": "view",
      "type": "function",
      "constant": true
    },
    {
      "inputs": [],
      "name": "renounceOwnership",
      "outputs": [],
      "stateMutability": "nonpayable",
      "type": "function"
    },
    {
      "inputs": [
        {
          "internalType": "address",
          "name": "newOwner",
          "type": "address"
        }
      ],
      "name": "transferOwnership",
      "outputs": [],
      "stateMutability": "nonpayable",
      "type": "function"
    },
    {
      "stateMutability": "payable",
      "type": "receive",
      "payable": true
    },
    {
      "inputs": [
        {
          "internalType": "address",
          "name": "_address",
          "type": "address"
        }
      ],
      "name": "SetGrabiFarmSingleWETHBrigdeAddress",
      "outputs": [],
      "stateMutability": "nonpayable",
      "type": "function"
    },
    {
      "inputs": [
        {
          "internalType": "uint256",
          "name": "_amount",
          "type": "uint256"
        }
      ],
      "name": "withdraw",
      "outputs": [],
      "stateMutability": "nonpayable",
      "type": "function"
    }
  ],
  "bytecode": "0x608060405234801561001057600080fd5b5061001a3361001f565b61006f565b600080546001600160a01b038381166001600160a01b0319831681178455604051919092169283917f8be0079c531659141344cd1fd0a4f28419497f9722a3daafe3b4186f6b6457e09190a35050565b6104558061007e6000396000f3fe6080604052600436106100595760003560e01c806306f864e4146100655780632e1a7d4d146100a1578063715018a6146100c35780638da5cb5b146100d8578063ea93fecb146100f6578063f2fde38b1461011657600080fd5b3661006057005b600080fd5b34801561007157600080fd5b50600154610085906001600160a01b031681565b6040516001600160a01b03909116815260200160405180910390f35b3480156100ad57600080fd5b506100c16100bc3660046103d6565b610136565b005b3480156100cf57600080fd5b506100c1610275565b3480156100e457600080fd5b506000546001600160a01b0316610085565b34801561010257600080fd5b506100c16101113660046103ef565b610289565b34801561012257600080fd5b506100c16101313660046103ef565b6102b3565b6001546001600160a01b031633146101955760405162461bcd60e51b815260206004820152601860248201527f494e56414c49445f414444524553535f5749544844524157000000000000000060448201526064015b60405180910390fd5b47808211156101dc5760405162461bcd60e51b8152602060048201526013602482015272494e56414c49445f4554485f42414c414e434560681b604482015260640161018c565b6001546040516000916001600160a01b03169084908381818185875af1925050503d8060008114610229576040519150601f19603f3d011682016040523d82523d6000602084013e61022e565b606091505b50509050806102705760405162461bcd60e51b815260206004820152600e60248201526d4572726f7220776974686472617760901b604482015260640161018c565b505050565b61027d61032c565b6102876000610386565b565b61029161032c565b600180546001600160a01b0319166001600160a01b0392909216919091179055565b6102bb61032c565b6001600160a01b0381166103205760405162461bcd60e51b815260206004820152602660248201527f4f776e61626c653a206e6577206f776e657220697320746865207a65726f206160448201526564647265737360d01b606482015260840161018c565b61032981610386565b50565b6000546001600160a01b031633146102875760405162461bcd60e51b815260206004820181905260248201527f4f776e61626c653a2063616c6c6572206973206e6f7420746865206f776e6572604482015260640161018c565b600080546001600160a01b038381166001600160a01b0319831681178455604051919092169283917f8be0079c531659141344cd1fd0a4f28419497f9722a3daafe3b4186f6b6457e09190a35050565b6000602082840312156103e857600080fd5b5035919050565b60006020828403121561040157600080fd5b81356001600160a01b038116811461041857600080fd5b939250505056fea26469706673582212204df75d279a85eb49a12d9afe4c351458117106606cf0ba432a5165756af77d1764736f6c63430008110033",
  "immutableReferences": {},
  "source": "// SPDX-License-Identifier: MIT\npragma solidity ^0.8.0; \nimport \"@openzeppelin/contracts/access/Ownable.sol\";\n\ncontract MockETHHandle is Ownable\n{\n    address public grabiFarmSingleWETHBrigdeAddress;\n\n    function SetGrabiFarmSingleWETHBrigdeAddress(address _address) public onlyOwner\n    {\n        grabiFarmSingleWETHBrigdeAddress = _address;\n    }\n\n    function withdraw(uint256 _amount) public \n    {\n        require(grabiFarmSingleWETHBrigdeAddress == msg.sender, \"INVALID_ADDRESS_WITHDRAW\");\n        uint256 ethBalance = address(this).balance;\n        require(_amount <= ethBalance, \"INVALID_ETH_BALANCE\");\n        (bool success, ) = grabiFarmSingleWETHBrigdeAddress.call{value: _amount}(\"\");\n        require(success, \"Error withdraw\");\n    }\n\n    receive() external payable {}\n}",
  "sourcePath": "/Applications/projects/garbiprotocol.github.io/garbi_contracts/contracts/MockETHHandle.sol",
  "compiler": {
    "name": "solc",
    "version": "0.8.17+commit.8df45f5f.Emscripten.clang"
  },
  "schemaVersion": "3.4.11",
  "updatedAt": "2023-06-05T09:47:24.636Z",
  "networkType": "ethereum",
  "devdoc": {
    "kind": "dev",
    "methods": {
      "owner()": {
        "details": "Returns the address of the current owner."
      },
      "renounceOwnership()": {
        "details": "Leaves the contract without owner. It will not be possible to call `onlyOwner` functions. Can only be called by the current owner. NOTE: Renouncing ownership will leave the contract without an owner, thereby disabling any functionality that is only available to the owner."
      },
      "transferOwnership(address)": {
        "details": "Transfers ownership of the contract to a new account (`newOwner`). Can only be called by the current owner."
      }
    },
    "version": 1
  },
  "userdoc": {
    "kind": "user",
    "methods": {},
    "version": 1
  }
}