{
  "contractName": "MockERC20Handle",
  "abi": [
    {
      "anonymous": false,
      "inputs": [
        {
          "indexed": true,
          "internalType": "address",
          "name": "previousOwner",
          "type": "address"
        },
        {
          "indexed": true,
          "internalType": "address",
          "name": "newOwner",
          "type": "address"
        }
      ],
      "name": "OwnershipTransferred",
      "type": "event"
    },
    {
      "inputs": [],
      "name": "erc20Token",
      "outputs": [
        {
          "internalType": "contract IERC20",
          "name": "",
          "type": "address"
        }
      ],
      "stateMutability": "view",
      "type": "function"
    },
    {
      "inputs": [],
      "name": "grabiFarmSingleWERC20BrigdeAddress",
      "outputs": [
        {
          "internalType": "address",
          "name": "",
          "type": "address"
        }
      ],
      "stateMutability": "view",
      "type": "function"
    },
    {
      "inputs": [],
      "name": "owner",
      "outputs": [
        {
          "internalType": "address",
          "name": "",
          "type": "address"
        }
      ],
      "stateMutability": "view",
      "type": "function"
    },
    {
      "inputs": [],
      "name": "renounceOwnership",
      "outputs": [],
      "stateMutability": "nonpayable",
      "type": "function"
    },
    {
      "inputs": [
        {
          "internalType": "address",
          "name": "newOwner",
          "type": "address"
        }
      ],
      "name": "transferOwnership",
      "outputs": [],
      "stateMutability": "nonpayable",
      "type": "function"
    },
    {
      "stateMutability": "payable",
      "type": "receive"
    },
    {
      "inputs": [
        {
          "internalType": "address",
          "name": "_address",
          "type": "address"
        }
      ],
      "name": "SetGrabiFarmSingleERC20BrigdeAddress",
      "outputs": [],
      "stateMutability": "nonpayable",
      "type": "function"
    },
    {
      "inputs": [
        {
          "internalType": "uint256",
          "name": "_amount",
          "type": "uint256"
        }
      ],
      "name": "withdraw",
      "outputs": [],
      "stateMutability": "nonpayable",
      "type": "function"
    }
  ],
  "bytecode": "0x608060405234801561001057600080fd5b5061001a3361001f565b61006f565b600080546001600160a01b038381166001600160a01b0319831681178455604051919092169283917f8be0079c531659141344cd1fd0a4f28419497f9722a3daafe3b4186f6b6457e09190a35050565b61051a8061007e6000396000f3fe6080604052600436106100745760003560e01c80638a13eea71161004e5780638a13eea7146100f35780638da5cb5b14610113578063a8a58fcc14610131578063f2fde38b1461015157600080fd5b80632e1a7d4d1461008057806340087040146100a2578063715018a6146100de57600080fd5b3661007b57005b600080fd5b34801561008c57600080fd5b506100a061009b366004610460565b610171565b005b3480156100ae57600080fd5b506001546100c2906001600160a01b031681565b6040516001600160a01b03909116815260200160405180910390f35b3480156100ea57600080fd5b506100a06102ff565b3480156100ff57600080fd5b506002546100c2906001600160a01b031681565b34801561011f57600080fd5b506000546001600160a01b03166100c2565b34801561013d57600080fd5b506100a061014c366004610479565b610313565b34801561015d57600080fd5b506100a061016c366004610479565b61033d565b6001546001600160a01b031633146101d05760405162461bcd60e51b815260206004820152601860248201527f494e56414c49445f414444524553535f5749544844524157000000000000000060448201526064015b60405180910390fd5b6002546040516370a0823160e01b81523060048201526000916001600160a01b0316906370a0823190602401602060405180830381865afa158015610219573d6000803e3d6000fd5b505050506040513d601f19601f8201168201806040525081019061023d91906104a9565b9050808211156102815760405162461bcd60e51b815260206004820152600f60248201526e494e56414c49445f42414c414e434560881b60448201526064016101c7565b60025460015460405163a9059cbb60e01b81526001600160a01b0391821660048201526024810185905291169063a9059cbb906044016020604051808303816000875af11580156102d6573d6000803e3d6000fd5b505050506040513d601f19601f820116820180604052508101906102fa91906104c2565b505050565b6103076103b6565b6103116000610410565b565b61031b6103b6565b600180546001600160a01b0319166001600160a01b0392909216919091179055565b6103456103b6565b6001600160a01b0381166103aa5760405162461bcd60e51b815260206004820152602660248201527f4f776e61626c653a206e6577206f776e657220697320746865207a65726f206160448201526564647265737360d01b60648201526084016101c7565b6103b381610410565b50565b6000546001600160a01b031633146103115760405162461bcd60e51b815260206004820181905260248201527f4f776e61626c653a2063616c6c6572206973206e6f7420746865206f776e657260448201526064016101c7565b600080546001600160a01b038381166001600160a01b0319831681178455604051919092169283917f8be0079c531659141344cd1fd0a4f28419497f9722a3daafe3b4186f6b6457e09190a35050565b60006020828403121561047257600080fd5b5035919050565b60006020828403121561048b57600080fd5b81356001600160a01b03811681146104a257600080fd5b9392505050565b6000602082840312156104bb57600080fd5b5051919050565b6000602082840312156104d457600080fd5b815180151581146104a257600080fdfea264697066735822122079d9389354a39ff2da9e309d931cdb77b2ab48f5940db1e10549fac9f530639164736f6c63430008110033",
  "immutableReferences": {},
  "source": "// SPDX-License-Identifier: MIT\npragma solidity ^0.8.0; \nimport \"@openzeppelin/contracts/access/Ownable.sol\";\nimport \"@openzeppelin/contracts/token/ERC20/IERC20.sol\";\n\ncontract MockERC20Handle is Ownable\n{\n\n    address public grabiFarmSingleWERC20BrigdeAddress;\n    IERC20 public erc20Token;\n\n    function SetGrabiFarmSingleERC20BrigdeAddress(address _address) public onlyOwner\n    {\n        grabiFarmSingleWERC20BrigdeAddress = _address;\n    }\n\n    function withdraw(uint256 _amount) public \n    {\n        require(grabiFarmSingleWERC20BrigdeAddress == msg.sender, \"INVALID_ADDRESS_WITHDRAW\");\n\n        uint256 erc20TokenBalance = erc20Token.balanceOf(address(this));\n        require(_amount <= erc20TokenBalance, \"INVALID_BALANCE\");\n\n        erc20Token.transfer(grabiFarmSingleWERC20BrigdeAddress, _amount);\n    }\n\n    receive() external payable {}\n}",
  "sourcePath": "/Applications/projects/garbiprotocol.github.io/garbi_contracts/contracts/MockERC20Handle.sol",
  "compiler": {
    "name": "solc",
    "version": "0.8.17+commit.8df45f5f.Emscripten.clang"
  },
  "schemaVersion": "3.4.11",
  "updatedAt": "2023-06-05T11:32:00.903Z",
  "devdoc": {
    "kind": "dev",
    "methods": {
      "owner()": {
        "details": "Returns the address of the current owner."
      },
      "renounceOwnership()": {
        "details": "Leaves the contract without owner. It will not be possible to call `onlyOwner` functions. Can only be called by the current owner. NOTE: Renouncing ownership will leave the contract without an owner, thereby disabling any functionality that is only available to the owner."
      },
      "transferOwnership(address)": {
        "details": "Transfers ownership of the contract to a new account (`newOwner`). Can only be called by the current owner."
      }
    },
    "version": 1
  },
  "userdoc": {
    "kind": "user",
    "methods": {},
    "version": 1
  }
}