{
  "contractName": "Test",
  "abi": [
    {
      "inputs": [],
      "name": "ETHHandleBridge",
      "outputs": [
        {
          "internalType": "contract IETHHandleBridge",
          "name": "",
          "type": "address"
        }
      ],
      "stateMutability": "view",
      "type": "function",
      "constant": true
    },
    {
      "inputs": [
        {
          "internalType": "contract IETHHandleBridge",
          "name": "_addess",
          "type": "address"
        }
      ],
      "name": "SetETHHandleBridge",
      "outputs": [],
      "stateMutability": "nonpayable",
      "type": "function"
    },
    {
      "inputs": [],
      "name": "GetETHHandleBridgeAddress",
      "outputs": [
        {
          "internalType": "address",
          "name": "",
          "type": "address"
        }
      ],
      "stateMutability": "view",
      "type": "function",
      "constant": true
    }
  ],
  "bytecode": "0x608060405234801561001057600080fd5b5061010f806100206000396000f3fe6080604052348015600f57600080fd5b5060043610603c5760003560e01c80634143dd66146041578063c679121614606a578063f8b535ab14607c575b600080fd5b6000546001600160a01b03165b6040516001600160a01b03909116815260200160405180910390f35b600054604e906001600160a01b031681565b60a9608736600460ab565b600080546001600160a01b0319166001600160a01b0392909216919091179055565b005b60006020828403121560bc57600080fd5b81356001600160a01b038116811460d257600080fd5b939250505056fea26469706673582212202c07c9ff3b02922b0af2ba359ab613ae546205fef4c3d1b13d9f75b64cb766f664736f6c63430008110033",
  "immutableReferences": {},
  "source": "// SPDX-License-Identifier: MIT\npragma solidity ^0.8.0; \n\nimport './interfaces/IETHHandleBridge.sol';\n\ncontract Test \n{\n    IETHHandleBridge public ETHHandleBridge;\n\n    function SetETHHandleBridge(IETHHandleBridge _addess) public \n    {\n        ETHHandleBridge = _addess;\n    }\n\n    function GetETHHandleBridgeAddress() public view returns(address)\n    {\n        return address(ETHHandleBridge);\n    }\n}",
  "sourcePath": "/Applications/projects/garbiprotocol.github.io/garbi_contracts/contracts/Test.sol",
  "compiler": {
    "name": "solc",
    "version": "0.8.17+commit.8df45f5f.Emscripten.clang"
  },
  "schemaVersion": "3.4.11",
  "updatedAt": "2023-06-05T09:27:15.772Z",
  "networkType": "ethereum",
  "devdoc": {
    "kind": "dev",
    "methods": {},
    "version": 1
  },
  "userdoc": {
    "kind": "user",
    "methods": {},
    "version": 1
  }
}